{
	"Farm.sol": {
		"Farm": {
			"abi": [
				{
					"inputs": [
						{
							"internalType": "address",
							"name": "_rewardsToken",
							"type": "address"
						},
						{
							"internalType": "address",
							"name": "_stakingToken",
							"type": "address"
						},
						{
							"internalType": "uint256",
							"name": "_rewardsDuration",
							"type": "uint256"
						},
						{
							"internalType": "uint256",
							"name": "_stakingTokensDecimal",
							"type": "uint256"
						}
					],
					"stateMutability": "nonpayable",
					"type": "constructor"
				},
				{
					"anonymous": false,
					"inputs": [
						{
							"indexed": true,
							"internalType": "address",
							"name": "previousOwner",
							"type": "address"
						},
						{
							"indexed": true,
							"internalType": "address",
							"name": "newOwner",
							"type": "address"
						}
					],
					"name": "OwnershipTransferred",
					"type": "event"
				},
				{
					"anonymous": false,
					"inputs": [
						{
							"indexed": false,
							"internalType": "address",
							"name": "account",
							"type": "address"
						}
					],
					"name": "Paused",
					"type": "event"
				},
				{
					"anonymous": false,
					"inputs": [
						{
							"indexed": false,
							"internalType": "address",
							"name": "token",
							"type": "address"
						},
						{
							"indexed": false,
							"internalType": "uint256",
							"name": "amount",
							"type": "uint256"
						}
					],
					"name": "Recovered",
					"type": "event"
				},
				{
					"anonymous": false,
					"inputs": [
						{
							"indexed": false,
							"internalType": "uint256",
							"name": "reward",
							"type": "uint256"
						}
					],
					"name": "RewardAdded",
					"type": "event"
				},
				{
					"anonymous": false,
					"inputs": [
						{
							"indexed": true,
							"internalType": "address",
							"name": "user",
							"type": "address"
						},
						{
							"indexed": false,
							"internalType": "uint256",
							"name": "reward",
							"type": "uint256"
						}
					],
					"name": "RewardPaid",
					"type": "event"
				},
				{
					"anonymous": false,
					"inputs": [
						{
							"indexed": false,
							"internalType": "uint256",
							"name": "newDuration",
							"type": "uint256"
						}
					],
					"name": "RewardsDurationUpdated",
					"type": "event"
				},
				{
					"anonymous": false,
					"inputs": [
						{
							"indexed": true,
							"internalType": "address",
							"name": "user",
							"type": "address"
						},
						{
							"indexed": false,
							"internalType": "uint256",
							"name": "amount",
							"type": "uint256"
						}
					],
					"name": "Staked",
					"type": "event"
				},
				{
					"anonymous": false,
					"inputs": [
						{
							"indexed": false,
							"internalType": "address",
							"name": "account",
							"type": "address"
						}
					],
					"name": "Unpaused",
					"type": "event"
				},
				{
					"anonymous": false,
					"inputs": [
						{
							"indexed": true,
							"internalType": "address",
							"name": "user",
							"type": "address"
						},
						{
							"indexed": false,
							"internalType": "uint256",
							"name": "amount",
							"type": "uint256"
						}
					],
					"name": "Withdrawn",
					"type": "event"
				},
				{
					"inputs": [
						{
							"internalType": "address",
							"name": "account",
							"type": "address"
						}
					],
					"name": "balanceOf",
					"outputs": [
						{
							"internalType": "uint256",
							"name": "",
							"type": "uint256"
						}
					],
					"stateMutability": "view",
					"type": "function"
				},
				{
					"inputs": [
						{
							"internalType": "address",
							"name": "account",
							"type": "address"
						}
					],
					"name": "earned",
					"outputs": [
						{
							"internalType": "uint256",
							"name": "",
							"type": "uint256"
						}
					],
					"stateMutability": "view",
					"type": "function"
				},
				{
					"inputs": [],
					"name": "exit",
					"outputs": [],
					"stateMutability": "nonpayable",
					"type": "function"
				},
				{
					"inputs": [],
					"name": "getReward",
					"outputs": [],
					"stateMutability": "nonpayable",
					"type": "function"
				},
				{
					"inputs": [],
					"name": "getRewardForDuration",
					"outputs": [
						{
							"internalType": "uint256",
							"name": "",
							"type": "uint256"
						}
					],
					"stateMutability": "view",
					"type": "function"
				},
				{
					"inputs": [],
					"name": "lastTimeRewardApplicable",
					"outputs": [
						{
							"internalType": "uint256",
							"name": "",
							"type": "uint256"
						}
					],
					"stateMutability": "view",
					"type": "function"
				},
				{
					"inputs": [],
					"name": "lastUpdateTime",
					"outputs": [
						{
							"internalType": "uint256",
							"name": "",
							"type": "uint256"
						}
					],
					"stateMutability": "view",
					"type": "function"
				},
				{
					"inputs": [
						{
							"internalType": "uint256",
							"name": "a",
							"type": "uint256"
						},
						{
							"internalType": "uint256",
							"name": "b",
							"type": "uint256"
						}
					],
					"name": "min",
					"outputs": [
						{
							"internalType": "uint256",
							"name": "",
							"type": "uint256"
						}
					],
					"stateMutability": "pure",
					"type": "function"
				},
				{
					"inputs": [
						{
							"internalType": "uint256",
							"name": "reward",
							"type": "uint256"
						}
					],
					"name": "notifyRewardAmount",
					"outputs": [],
					"stateMutability": "nonpayable",
					"type": "function"
				},
				{
					"inputs": [
						{
							"internalType": "address",
							"name": "operator",
							"type": "address"
						},
						{
							"internalType": "address",
							"name": "from",
							"type": "address"
						},
						{
							"internalType": "uint256",
							"name": "tokenId",
							"type": "uint256"
						},
						{
							"internalType": "bytes",
							"name": "data",
							"type": "bytes"
						}
					],
					"name": "onERC721Received",
					"outputs": [
						{
							"internalType": "bytes4",
							"name": "",
							"type": "bytes4"
						}
					],
					"stateMutability": "pure",
					"type": "function"
				},
				{
					"inputs": [],
					"name": "owner",
					"outputs": [
						{
							"internalType": "address",
							"name": "",
							"type": "address"
						}
					],
					"stateMutability": "view",
					"type": "function"
				},
				{
					"inputs": [],
					"name": "paused",
					"outputs": [
						{
							"internalType": "bool",
							"name": "",
							"type": "bool"
						}
					],
					"stateMutability": "view",
					"type": "function"
				},
				{
					"inputs": [],
					"name": "periodFinish",
					"outputs": [
						{
							"internalType": "uint256",
							"name": "",
							"type": "uint256"
						}
					],
					"stateMutability": "view",
					"type": "function"
				},
				{
					"inputs": [
						{
							"internalType": "uint256",
							"name": "n",
							"type": "uint256"
						},
						{
							"internalType": "uint256",
							"name": "e",
							"type": "uint256"
						}
					],
					"name": "pow",
					"outputs": [
						{
							"internalType": "uint256",
							"name": "",
							"type": "uint256"
						}
					],
					"stateMutability": "pure",
					"type": "function"
				},
				{
					"inputs": [
						{
							"internalType": "address",
							"name": "tokenAddress",
							"type": "address"
						},
						{
							"internalType": "uint256",
							"name": "tokenAmount",
							"type": "uint256"
						}
					],
					"name": "recoverERC20",
					"outputs": [],
					"stateMutability": "nonpayable",
					"type": "function"
				},
				{
					"inputs": [],
					"name": "renounceOwnership",
					"outputs": [],
					"stateMutability": "nonpayable",
					"type": "function"
				},
				{
					"inputs": [],
					"name": "rewardPerToken",
					"outputs": [
						{
							"internalType": "uint256",
							"name": "",
							"type": "uint256"
						}
					],
					"stateMutability": "view",
					"type": "function"
				},
				{
					"inputs": [],
					"name": "rewardPerTokenStored",
					"outputs": [
						{
							"internalType": "uint256",
							"name": "",
							"type": "uint256"
						}
					],
					"stateMutability": "view",
					"type": "function"
				},
				{
					"inputs": [],
					"name": "rewardRate",
					"outputs": [
						{
							"internalType": "uint256",
							"name": "",
							"type": "uint256"
						}
					],
					"stateMutability": "view",
					"type": "function"
				},
				{
					"inputs": [
						{
							"internalType": "address",
							"name": "",
							"type": "address"
						}
					],
					"name": "rewards",
					"outputs": [
						{
							"internalType": "uint256",
							"name": "",
							"type": "uint256"
						}
					],
					"stateMutability": "view",
					"type": "function"
				},
				{
					"inputs": [],
					"name": "rewardsDuration",
					"outputs": [
						{
							"internalType": "uint256",
							"name": "",
							"type": "uint256"
						}
					],
					"stateMutability": "view",
					"type": "function"
				},
				{
					"inputs": [],
					"name": "rewardsToken",
					"outputs": [
						{
							"internalType": "contract IERC20",
							"name": "",
							"type": "address"
						}
					],
					"stateMutability": "view",
					"type": "function"
				},
				{
					"inputs": [
						{
							"internalType": "uint256",
							"name": "_rewardsDuration",
							"type": "uint256"
						}
					],
					"name": "setRewardsDuration",
					"outputs": [],
					"stateMutability": "nonpayable",
					"type": "function"
				},
				{
					"inputs": [
						{
							"internalType": "uint256",
							"name": "amount",
							"type": "uint256"
						}
					],
					"name": "stake",
					"outputs": [],
					"stateMutability": "nonpayable",
					"type": "function"
				},
				{
					"inputs": [],
					"name": "stakingToken",
					"outputs": [
						{
							"internalType": "contract IERC20",
							"name": "",
							"type": "address"
						}
					],
					"stateMutability": "view",
					"type": "function"
				},
				{
					"inputs": [],
					"name": "stakingTokensDecimalRate",
					"outputs": [
						{
							"internalType": "uint256",
							"name": "",
							"type": "uint256"
						}
					],
					"stateMutability": "view",
					"type": "function"
				},
				{
					"inputs": [],
					"name": "totalSupply",
					"outputs": [
						{
							"internalType": "uint256",
							"name": "",
							"type": "uint256"
						}
					],
					"stateMutability": "view",
					"type": "function"
				},
				{
					"inputs": [
						{
							"internalType": "address",
							"name": "newOwner",
							"type": "address"
						}
					],
					"name": "transferOwnership",
					"outputs": [],
					"stateMutability": "nonpayable",
					"type": "function"
				},
				{
					"inputs": [
						{
							"internalType": "address",
							"name": "",
							"type": "address"
						}
					],
					"name": "userRewardPerTokenPaid",
					"outputs": [
						{
							"internalType": "uint256",
							"name": "",
							"type": "uint256"
						}
					],
					"stateMutability": "view",
					"type": "function"
				},
				{
					"inputs": [
						{
							"internalType": "uint256",
							"name": "amount",
							"type": "uint256"
						}
					],
					"name": "withdraw",
					"outputs": [],
					"stateMutability": "nonpayable",
					"type": "function"
				}
			],
			"devdoc": {
				"kind": "dev",
				"methods": {
					"onERC721Received(address,address,uint256,bytes)": {
						"details": "Whenever an {IERC721} `tokenId` token is transferred to this contract via {IERC721-safeTransferFrom} by `operator` from `from`, this function is called. It must return its Solidity selector to confirm the token transfer. If any other value is returned or the interface is not implemented by the recipient, the transfer will be reverted. The selector can be obtained in Solidity with `IERC721Receiver.onERC721Received.selector`."
					},
					"owner()": {
						"details": "Returns the address of the current owner."
					},
					"paused()": {
						"details": "Returns true if the contract is paused, and false otherwise."
					},
					"renounceOwnership()": {
						"details": "Leaves the contract without owner. It will not be possible to call `onlyOwner` functions anymore. Can only be called by the current owner. NOTE: Renouncing ownership will leave the contract without an owner, thereby removing any functionality that is only available to the owner."
					},
					"transferOwnership(address)": {
						"details": "Transfers ownership of the contract to a new account (`newOwner`). Can only be called by the current owner."
					}
				},
				"version": 1
			},
			"evm": {
				"assembly": "    /* \"Farm.sol\":29748:37218  contract Farm is ReentrancyGuard, Pausable, Ownable, IERC721Receiver {\r... */\n  mstore(0x40, 0x80)\n    /* \"Farm.sol\":30039:30040  0 */\n  0x00\n    /* \"Farm.sol\":30009:30040  uint256 public periodFinish = 0 */\n  0x04\n  sstore\n    /* \"Farm.sol\":30075:30076  0 */\n  0x00\n    /* \"Farm.sol\":30047:30076  uint256 public rewardRate = 0 */\n  0x05\n  sstore\n    /* \"Farm.sol\":30528:30896  constructor (\r... */\n  callvalue\n  dup1\n  iszero\n  tag_1\n  jumpi\n  0x00\n  dup1\n  revert\ntag_1:\n  pop\n  mload(0x40)\n  sub(codesize, bytecodeSize)\n  dup1\n  bytecodeSize\n  dup4\n  codecopy\n  dup2\n  dup2\n  add\n  0x40\n  mstore\n  dup2\n  add\n  swap1\n  tag_2\n  swap2\n  swap1\n  tag_3\n  jump\t// in\ntag_2:\n    /* \"Farm.sol\":18664:18665  1 */\n  0x01\n    /* \"Farm.sol\":18775:18782  _status */\n  0x00\n    /* \"Farm.sol\":18775:18797  _status = _NOT_ENTERED */\n  dup2\n  swap1\n  sstore\n  pop\n    /* \"Farm.sol\":16203:16208  false */\n  0x00\n    /* \"Farm.sol\":16193:16200  _paused */\n  0x01\n  0x00\n    /* \"Farm.sol\":16193:16208  _paused = false */\n  0x0100\n  exp\n  dup2\n  sload\n  dup2\n  0xff\n  mul\n  not\n  and\n  swap1\n  dup4\n  iszero\n  iszero\n  mul\n  or\n  swap1\n  sstore\n  pop\n    /* \"Farm.sol\":28002:28034  _transferOwnership(_msgSender()) */\n  tag_11\n    /* \"Farm.sol\":28021:28033  _msgSender() */\n  tag_12\n    /* \"Farm.sol\":28021:28031  _msgSender */\n  shl(0x20, tag_13)\n    /* \"Farm.sol\":28021:28033  _msgSender() */\n  0x20\n  shr\n  jump\t// in\ntag_12:\n    /* \"Farm.sol\":28002:28020  _transferOwnership */\n  shl(0x20, tag_14)\n    /* \"Farm.sol\":28002:28034  _transferOwnership(_msgSender()) */\n  0x20\n  shr\n  jump\t// in\ntag_11:\n    /* \"Farm.sol\":30719:30749  pow(10, _stakingTokensDecimal) */\n  tag_16\n    /* \"Farm.sol\":30723:30725  10 */\n  0x0a\n    /* \"Farm.sol\":30727:30748  _stakingTokensDecimal */\n  dup3\n    /* \"Farm.sol\":30719:30722  pow */\n  shl(0x20, tag_17)\n    /* \"Farm.sol\":30719:30749  pow(10, _stakingTokensDecimal) */\n  0x20\n  shr\n  jump\t// in\ntag_16:\n    /* \"Farm.sol\":30692:30716  stakingTokensDecimalRate */\n  0x09\n    /* \"Farm.sol\":30692:30749  stakingTokensDecimalRate = pow(10, _stakingTokensDecimal) */\n  dup2\n  swap1\n  sstore\n  pop\n    /* \"Farm.sol\":30782:30795  _rewardsToken */\n  dup4\n    /* \"Farm.sol\":30760:30772  rewardsToken */\n  0x02\n  0x00\n    /* \"Farm.sol\":30760:30796  rewardsToken = IERC20(_rewardsToken) */\n  0x0100\n  exp\n  dup2\n  sload\n  dup2\n  0xffffffffffffffffffffffffffffffffffffffff\n  mul\n  not\n  and\n  swap1\n  dup4\n  0xffffffffffffffffffffffffffffffffffffffff\n  and\n  mul\n  or\n  swap1\n  sstore\n  pop\n    /* \"Farm.sol\":30829:30842  _stakingToken */\n  dup3\n    /* \"Farm.sol\":30807:30819  stakingToken */\n  0x03\n  0x00\n    /* \"Farm.sol\":30807:30843  stakingToken = IERC20(_stakingToken) */\n  0x0100\n  exp\n  dup2\n  sload\n  dup2\n  0xffffffffffffffffffffffffffffffffffffffff\n  mul\n  not\n  and\n  swap1\n  dup4\n  0xffffffffffffffffffffffffffffffffffffffff\n  and\n  mul\n  or\n  swap1\n  sstore\n  pop\n    /* \"Farm.sol\":30872:30888  _rewardsDuration */\n  dup2\n    /* \"Farm.sol\":30854:30869  rewardsDuration */\n  0x06\n    /* \"Farm.sol\":30854:30888  rewardsDuration = _rewardsDuration */\n  dup2\n  swap1\n  sstore\n  pop\n    /* \"Farm.sol\":30528:30896  constructor (\r... */\n  pop\n  pop\n  pop\n  pop\n    /* \"Farm.sol\":29748:37218  contract Farm is ReentrancyGuard, Pausable, Ownable, IERC721Receiver {\r... */\n  jump(tag_18)\n    /* \"Farm.sol\":15568:15666  function _msgSender() internal view virtual returns (address) {\r... */\ntag_13:\n    /* \"Farm.sol\":15621:15628  address */\n  0x00\n    /* \"Farm.sol\":15648:15658  msg.sender */\n  caller\n    /* \"Farm.sol\":15641:15658  return msg.sender */\n  swap1\n  pop\n    /* \"Farm.sol\":15568:15666  function _msgSender() internal view virtual returns (address) {\r... */\n  swap1\n  jump\t// out\n    /* \"Farm.sol\":29548:29739  function _transferOwnership(address newOwner) internal virtual {\r... */\ntag_14:\n    /* \"Farm.sol\":29622:29638  address oldOwner */\n  0x00\n    /* \"Farm.sol\":29641:29647  _owner */\n  0x01\n  dup1\n  sload\n  swap1\n  0x0100\n  exp\n  swap1\n  div\n  0xffffffffffffffffffffffffffffffffffffffff\n  and\n    /* \"Farm.sol\":29622:29647  address oldOwner = _owner */\n  swap1\n  pop\n    /* \"Farm.sol\":29667:29675  newOwner */\n  dup2\n    /* \"Farm.sol\":29658:29664  _owner */\n  0x01\n  dup1\n    /* \"Farm.sol\":29658:29675  _owner = newOwner */\n  0x0100\n  exp\n  dup2\n  sload\n  dup2\n  0xffffffffffffffffffffffffffffffffffffffff\n  mul\n  not\n  and\n  swap1\n  dup4\n  0xffffffffffffffffffffffffffffffffffffffff\n  and\n  mul\n  or\n  swap1\n  sstore\n  pop\n    /* \"Farm.sol\":29722:29730  newOwner */\n  dup2\n    /* \"Farm.sol\":29691:29731  OwnershipTransferred(oldOwner, newOwner) */\n  0xffffffffffffffffffffffffffffffffffffffff\n  and\n    /* \"Farm.sol\":29712:29720  oldOwner */\n  dup2\n    /* \"Farm.sol\":29691:29731  OwnershipTransferred(oldOwner, newOwner) */\n  0xffffffffffffffffffffffffffffffffffffffff\n  and\n  0x8be0079c531659141344cd1fd0a4f28419497f9722a3daafe3b4186f6b6457e0\n  mload(0x40)\n  mload(0x40)\n  dup1\n  swap2\n  sub\n  swap1\n  log3\n    /* \"Farm.sol\":29611:29739  {\r... */\n  pop\n    /* \"Farm.sol\":29548:29739  function _transferOwnership(address newOwner) internal virtual {\r... */\n  pop\n  jump\t// out\n    /* \"Farm.sol\":31050:31414  function pow(uint n, uint e) public pure returns (uint) {\r... */\ntag_17:\n    /* \"Farm.sol\":31100:31104  uint */\n  0x00\n    /* \"Farm.sol\":31128:31129  0 */\n  dup1\n    /* \"Farm.sol\":31123:31124  e */\n  dup3\n    /* \"Farm.sol\":31123:31129  e == 0 */\n  eq\n    /* \"Farm.sol\":31119:31407  if (e == 0) {\r... */\n  iszero\n  tag_22\n  jumpi\n    /* \"Farm.sol\":31153:31154  1 */\n  0x01\n    /* \"Farm.sol\":31146:31154  return 1 */\n  swap1\n  pop\n  jump(tag_21)\n    /* \"Farm.sol\":31119:31407  if (e == 0) {\r... */\ntag_22:\n    /* \"Farm.sol\":31181:31182  1 */\n  0x01\n    /* \"Farm.sol\":31176:31177  e */\n  dup3\n    /* \"Farm.sol\":31176:31182  e == 1 */\n  eq\n    /* \"Farm.sol\":31172:31407  if (e == 1) {\r... */\n  iszero\n  tag_24\n  jumpi\n    /* \"Farm.sol\":31206:31207  n */\n  dup3\n    /* \"Farm.sol\":31199:31207  return n */\n  swap1\n  pop\n  jump(tag_21)\n    /* \"Farm.sol\":31172:31407  if (e == 1) {\r... */\ntag_24:\n    /* \"Farm.sol\":31240:31246  uint p */\n  0x00\n    /* \"Farm.sol\":31249:31265  pow(n, e.div(2)) */\n  tag_26\n    /* \"Farm.sol\":31253:31254  n */\n  dup5\n    /* \"Farm.sol\":31256:31264  e.div(2) */\n  tag_27\n    /* \"Farm.sol\":31262:31263  2 */\n  0x02\n    /* \"Farm.sol\":31256:31257  e */\n  dup7\n    /* \"Farm.sol\":31256:31261  e.div */\n  or(tag_0_144, shl(0x20, tag_28))\n  swap1\n    /* \"Farm.sol\":31256:31264  e.div(2) */\n  swap2\n  swap1\n  0x20\n  shr\n  jump\t// in\ntag_27:\n    /* \"Farm.sol\":31249:31252  pow */\n  shl(0x20, tag_17)\n    /* \"Farm.sol\":31249:31265  pow(n, e.div(2)) */\n  0x20\n  shr\n  jump\t// in\ntag_26:\n    /* \"Farm.sol\":31240:31265  uint p = pow(n, e.div(2)) */\n  swap1\n  pop\n    /* \"Farm.sol\":31284:31292  p.mul(p) */\n  tag_29\n    /* \"Farm.sol\":31290:31291  p */\n  dup2\n    /* \"Farm.sol\":31284:31285  p */\n  dup3\n    /* \"Farm.sol\":31284:31289  p.mul */\n  or(tag_0_145, shl(0x20, tag_30))\n  swap1\n    /* \"Farm.sol\":31284:31292  p.mul(p) */\n  swap2\n  swap1\n  0x20\n  shr\n  jump\t// in\ntag_29:\n    /* \"Farm.sol\":31280:31292  p = p.mul(p) */\n  swap1\n  pop\n    /* \"Farm.sol\":31323:31324  1 */\n  0x01\n    /* \"Farm.sol\":31311:31319  e.mod(2) */\n  tag_31\n    /* \"Farm.sol\":31317:31318  2 */\n  0x02\n    /* \"Farm.sol\":31311:31312  e */\n  dup6\n    /* \"Farm.sol\":31311:31316  e.mod */\n  or(tag_0_146, shl(0x20, tag_32))\n  swap1\n    /* \"Farm.sol\":31311:31319  e.mod(2) */\n  swap2\n  swap1\n  0x20\n  shr\n  jump\t// in\ntag_31:\n    /* \"Farm.sol\":31311:31324  e.mod(2) == 1 */\n  eq\n    /* \"Farm.sol\":31307:31373  if (e.mod(2) == 1) {\r... */\n  iszero\n  tag_33\n  jumpi\n    /* \"Farm.sol\":31349:31357  p.mul(n) */\n  tag_34\n    /* \"Farm.sol\":31355:31356  n */\n  dup5\n    /* \"Farm.sol\":31349:31350  p */\n  dup3\n    /* \"Farm.sol\":31349:31354  p.mul */\n  or(tag_0_145, shl(0x20, tag_30))\n  swap1\n    /* \"Farm.sol\":31349:31357  p.mul(n) */\n  swap2\n  swap1\n  0x20\n  shr\n  jump\t// in\ntag_34:\n    /* \"Farm.sol\":31345:31357  p = p.mul(n) */\n  swap1\n  pop\n    /* \"Farm.sol\":31307:31373  if (e.mod(2) == 1) {\r... */\ntag_33:\n    /* \"Farm.sol\":31394:31395  p */\n  dup1\n    /* \"Farm.sol\":31387:31395  return p */\n  swap2\n  pop\n  pop\n    /* \"Farm.sol\":31050:31414  function pow(uint n, uint e) public pure returns (uint) {\r... */\ntag_21:\n  swap3\n  swap2\n  pop\n  pop\n  jump\t// out\n    /* \"Farm.sol\":22387:22519  function div(uint256 a, uint256 b) internal pure returns (uint256) {\r... */\ntag_28:\n    /* \"Farm.sol\":22445:22452  uint256 */\n  0x00\n    /* \"Farm.sol\":22472:22511  div(a, b, \"SafeMath: division by zero\") */\n  tag_36\n    /* \"Farm.sol\":22476:22477  a */\n  dup4\n    /* \"Farm.sol\":22479:22480  b */\n  dup4\n    /* \"Farm.sol\":22472:22511  div(a, b, \"SafeMath: division by zero\") */\n  mload(0x40)\n  dup1\n  0x40\n  add\n  0x40\n  mstore\n  dup1\n  0x1a\n  dup2\n  mstore\n  0x20\n  add\n  0x536166654d6174683a206469766973696f6e206279207a65726f000000000000\n  dup2\n  mstore\n  pop\n    /* \"Farm.sol\":22472:22475  div */\n  shl(0x20, tag_37)\n    /* \"Farm.sol\":22472:22511  div(a, b, \"SafeMath: division by zero\") */\n  0x20\n  shr\n  jump\t// in\ntag_36:\n    /* \"Farm.sol\":22465:22511  return div(a, b, \"SafeMath: division by zero\") */\n  swap1\n  pop\n    /* \"Farm.sol\":22387:22519  function div(uint256 a, uint256 b) internal pure returns (uint256) {\r... */\n  swap3\n  swap2\n  pop\n  pop\n  jump\t// out\n    /* \"Farm.sol\":21440:21911  function mul(uint256 a, uint256 b) internal pure returns (uint256) {\r... */\ntag_30:\n    /* \"Farm.sol\":21498:21505  uint256 */\n  0x00\n    /* \"Farm.sol\":21748:21749  0 */\n  dup1\n    /* \"Farm.sol\":21743:21744  a */\n  dup4\n    /* \"Farm.sol\":21743:21749  a == 0 */\n  eq\n    /* \"Farm.sol\":21739:21786  if (a == 0) {\r... */\n  iszero\n  tag_39\n  jumpi\n    /* \"Farm.sol\":21773:21774  0 */\n  0x00\n    /* \"Farm.sol\":21766:21774  return 0 */\n  swap1\n  pop\n  jump(tag_38)\n    /* \"Farm.sol\":21739:21786  if (a == 0) {\r... */\ntag_39:\n    /* \"Farm.sol\":21798:21807  uint256 c */\n  0x00\n    /* \"Farm.sol\":21814:21815  b */\n  dup3\n    /* \"Farm.sol\":21810:21811  a */\n  dup5\n    /* \"Farm.sol\":21810:21815  a * b */\n  tag_40\n  swap2\n  swap1\n  tag_41\n  jump\t// in\ntag_40:\n    /* \"Farm.sol\":21798:21815  uint256 c = a * b */\n  swap1\n  pop\n    /* \"Farm.sol\":21843:21844  b */\n  dup3\n    /* \"Farm.sol\":21838:21839  a */\n  dup5\n    /* \"Farm.sol\":21834:21835  c */\n  dup3\n    /* \"Farm.sol\":21834:21839  c / a */\n  tag_42\n  swap2\n  swap1\n  tag_43\n  jump\t// in\ntag_42:\n    /* \"Farm.sol\":21834:21844  c / a == b */\n  eq\n    /* \"Farm.sol\":21826:21882  require(c / a == b, \"SafeMath: multiplication overflow\") */\n  tag_44\n  jumpi\n  mload(0x40)\n  0x08c379a000000000000000000000000000000000000000000000000000000000\n  dup2\n  mstore\n  0x04\n  add\n  tag_45\n  swap1\n  tag_46\n  jump\t// in\ntag_45:\n  mload(0x40)\n  dup1\n  swap2\n  sub\n  swap1\n  revert\ntag_44:\n    /* \"Farm.sol\":21902:21903  c */\n  dup1\n    /* \"Farm.sol\":21895:21903  return c */\n  swap2\n  pop\n  pop\n    /* \"Farm.sol\":21440:21911  function mul(uint256 a, uint256 b) internal pure returns (uint256) {\r... */\ntag_38:\n  swap3\n  swap2\n  pop\n  pop\n  jump\t// out\n    /* \"Farm.sol\":23758:23888  function mod(uint256 a, uint256 b) internal pure returns (uint256) {\r... */\ntag_32:\n    /* \"Farm.sol\":23816:23823  uint256 */\n  0x00\n    /* \"Farm.sol\":23843:23880  mod(a, b, \"SafeMath: modulo by zero\") */\n  tag_48\n    /* \"Farm.sol\":23847:23848  a */\n  dup4\n    /* \"Farm.sol\":23850:23851  b */\n  dup4\n    /* \"Farm.sol\":23843:23880  mod(a, b, \"SafeMath: modulo by zero\") */\n  mload(0x40)\n  dup1\n  0x40\n  add\n  0x40\n  mstore\n  dup1\n  0x18\n  dup2\n  mstore\n  0x20\n  add\n  0x536166654d6174683a206d6f64756c6f206279207a65726f0000000000000000\n  dup2\n  mstore\n  pop\n    /* \"Farm.sol\":23843:23846  mod */\n  shl(0x20, tag_49)\n    /* \"Farm.sol\":23843:23880  mod(a, b, \"SafeMath: modulo by zero\") */\n  0x20\n  shr\n  jump\t// in\ntag_48:\n    /* \"Farm.sol\":23836:23880  return mod(a, b, \"SafeMath: modulo by zero\") */\n  swap1\n  pop\n    /* \"Farm.sol\":23758:23888  function mod(uint256 a, uint256 b) internal pure returns (uint256) {\r... */\n  swap3\n  swap2\n  pop\n  pop\n  jump\t// out\n    /* \"Farm.sol\":23015:23293  function div(uint256 a, uint256 b, string memory errorMessage) internal pure returns (uint256) {\r... */\ntag_37:\n    /* \"Farm.sol\":23101:23108  uint256 */\n  0x00\n    /* \"Farm.sol\":23133:23134  0 */\n  dup1\n    /* \"Farm.sol\":23129:23130  b */\n  dup4\n    /* \"Farm.sol\":23129:23134  b > 0 */\n  gt\n    /* \"Farm.sol\":23136:23148  errorMessage */\n  dup3\n    /* \"Farm.sol\":23121:23149  require(b > 0, errorMessage) */\n  swap1\n  tag_51\n  jumpi\n  mload(0x40)\n  0x08c379a000000000000000000000000000000000000000000000000000000000\n  dup2\n  mstore\n  0x04\n  add\n  tag_52\n  swap2\n  swap1\n  tag_53\n  jump\t// in\ntag_52:\n  mload(0x40)\n  dup1\n  swap2\n  sub\n  swap1\n  revert\ntag_51:\n  pop\n    /* \"Farm.sol\":23160:23169  uint256 c */\n  0x00\n    /* \"Farm.sol\":23176:23177  b */\n  dup4\n    /* \"Farm.sol\":23172:23173  a */\n  dup6\n    /* \"Farm.sol\":23172:23177  a / b */\n  tag_54\n  swap2\n  swap1\n  tag_43\n  jump\t// in\ntag_54:\n    /* \"Farm.sol\":23160:23177  uint256 c = a / b */\n  swap1\n  pop\n    /* \"Farm.sol\":23284:23285  c */\n  dup1\n    /* \"Farm.sol\":23277:23285  return c */\n  swap2\n  pop\n  pop\n    /* \"Farm.sol\":23015:23293  function div(uint256 a, uint256 b, string memory errorMessage) internal pure returns (uint256) {\r... */\n  swap4\n  swap3\n  pop\n  pop\n  pop\n  jump\t// out\n    /* \"Farm.sol\":24373:24539  function mod(uint256 a, uint256 b, string memory errorMessage) internal pure returns (uint256) {\r... */\ntag_49:\n    /* \"Farm.sol\":24459:24466  uint256 */\n  0x00\n    /* \"Farm.sol\":24492:24493  0 */\n  dup1\n    /* \"Farm.sol\":24487:24488  b */\n  dup4\n    /* \"Farm.sol\":24487:24493  b != 0 */\n  eq\n  iszero\n    /* \"Farm.sol\":24495:24507  errorMessage */\n  dup3\n    /* \"Farm.sol\":24479:24508  require(b != 0, errorMessage) */\n  swap1\n  tag_56\n  jumpi\n  mload(0x40)\n  0x08c379a000000000000000000000000000000000000000000000000000000000\n  dup2\n  mstore\n  0x04\n  add\n  tag_57\n  swap2\n  swap1\n  tag_53\n  jump\t// in\ntag_57:\n  mload(0x40)\n  dup1\n  swap2\n  sub\n  swap1\n  revert\ntag_56:\n  pop\n    /* \"Farm.sol\":24530:24531  b */\n  dup3\n    /* \"Farm.sol\":24526:24527  a */\n  dup5\n    /* \"Farm.sol\":24526:24531  a % b */\n  tag_58\n  swap2\n  swap1\n  tag_59\n  jump\t// in\ntag_58:\n    /* \"Farm.sol\":24519:24531  return a % b */\n  swap1\n  pop\n    /* \"Farm.sol\":24373:24539  function mod(uint256 a, uint256 b, string memory errorMessage) internal pure returns (uint256) {\r... */\n  swap4\n  swap3\n  pop\n  pop\n  pop\n  jump\t// out\n    /* \"#utility.yul\":7:150   */\ntag_61:\n    /* \"#utility.yul\":64:69   */\n  0x00\n    /* \"#utility.yul\":95:101   */\n  dup2\n    /* \"#utility.yul\":89:102   */\n  mload\n    /* \"#utility.yul\":80:102   */\n  swap1\n  pop\n    /* \"#utility.yul\":111:144   */\n  tag_63\n    /* \"#utility.yul\":138:143   */\n  dup2\n    /* \"#utility.yul\":111:144   */\n  tag_64\n  jump\t// in\ntag_63:\n    /* \"#utility.yul\":7:150   */\n  swap3\n  swap2\n  pop\n  pop\n  jump\t// out\n    /* \"#utility.yul\":156:299   */\ntag_65:\n    /* \"#utility.yul\":213:218   */\n  0x00\n    /* \"#utility.yul\":244:250   */\n  dup2\n    /* \"#utility.yul\":238:251   */\n  mload\n    /* \"#utility.yul\":229:251   */\n  swap1\n  pop\n    /* \"#utility.yul\":260:293   */\n  tag_67\n    /* \"#utility.yul\":287:292   */\n  dup2\n    /* \"#utility.yul\":260:293   */\n  tag_68\n  jump\t// in\ntag_67:\n    /* \"#utility.yul\":156:299   */\n  swap3\n  swap2\n  pop\n  pop\n  jump\t// out\n    /* \"#utility.yul\":305:1125   */\ntag_3:\n    /* \"#utility.yul\":402:408   */\n  0x00\n    /* \"#utility.yul\":410:416   */\n  dup1\n    /* \"#utility.yul\":418:424   */\n  0x00\n    /* \"#utility.yul\":426:432   */\n  dup1\n    /* \"#utility.yul\":475:478   */\n  0x80\n    /* \"#utility.yul\":463:472   */\n  dup6\n    /* \"#utility.yul\":454:461   */\n  dup8\n    /* \"#utility.yul\":450:473   */\n  sub\n    /* \"#utility.yul\":446:479   */\n  slt\n    /* \"#utility.yul\":443:563   */\n  iszero\n  tag_70\n  jumpi\n    /* \"#utility.yul\":482:561   */\n  tag_71\n  tag_72\n  jump\t// in\ntag_71:\n    /* \"#utility.yul\":443:563   */\ntag_70:\n    /* \"#utility.yul\":602:603   */\n  0x00\n    /* \"#utility.yul\":627:691   */\n  tag_73\n    /* \"#utility.yul\":683:690   */\n  dup8\n    /* \"#utility.yul\":674:680   */\n  dup3\n    /* \"#utility.yul\":663:672   */\n  dup9\n    /* \"#utility.yul\":659:681   */\n  add\n    /* \"#utility.yul\":627:691   */\n  tag_61\n  jump\t// in\ntag_73:\n    /* \"#utility.yul\":617:691   */\n  swap5\n  pop\n    /* \"#utility.yul\":573:701   */\n  pop\n    /* \"#utility.yul\":740:742   */\n  0x20\n    /* \"#utility.yul\":766:830   */\n  tag_74\n    /* \"#utility.yul\":822:829   */\n  dup8\n    /* \"#utility.yul\":813:819   */\n  dup3\n    /* \"#utility.yul\":802:811   */\n  dup9\n    /* \"#utility.yul\":798:820   */\n  add\n    /* \"#utility.yul\":766:830   */\n  tag_61\n  jump\t// in\ntag_74:\n    /* \"#utility.yul\":756:830   */\n  swap4\n  pop\n    /* \"#utility.yul\":711:840   */\n  pop\n    /* \"#utility.yul\":879:881   */\n  0x40\n    /* \"#utility.yul\":905:969   */\n  tag_75\n    /* \"#utility.yul\":961:968   */\n  dup8\n    /* \"#utility.yul\":952:958   */\n  dup3\n    /* \"#utility.yul\":941:950   */\n  dup9\n    /* \"#utility.yul\":937:959   */\n  add\n    /* \"#utility.yul\":905:969   */\n  tag_65\n  jump\t// in\ntag_75:\n    /* \"#utility.yul\":895:969   */\n  swap3\n  pop\n    /* \"#utility.yul\":850:979   */\n  pop\n    /* \"#utility.yul\":1018:1020   */\n  0x60\n    /* \"#utility.yul\":1044:1108   */\n  tag_76\n    /* \"#utility.yul\":1100:1107   */\n  dup8\n    /* \"#utility.yul\":1091:1097   */\n  dup3\n    /* \"#utility.yul\":1080:1089   */\n  dup9\n    /* \"#utility.yul\":1076:1098   */\n  add\n    /* \"#utility.yul\":1044:1108   */\n  tag_65\n  jump\t// in\ntag_76:\n    /* \"#utility.yul\":1034:1108   */\n  swap2\n  pop\n    /* \"#utility.yul\":989:1118   */\n  pop\n    /* \"#utility.yul\":305:1125   */\n  swap3\n  swap6\n  swap2\n  swap5\n  pop\n  swap3\n  pop\n  jump\t// out\n    /* \"#utility.yul\":1131:1495   */\ntag_77:\n    /* \"#utility.yul\":1219:1222   */\n  0x00\n    /* \"#utility.yul\":1247:1286   */\n  tag_79\n    /* \"#utility.yul\":1280:1285   */\n  dup3\n    /* \"#utility.yul\":1247:1286   */\n  tag_80\n  jump\t// in\ntag_79:\n    /* \"#utility.yul\":1302:1373   */\n  tag_81\n    /* \"#utility.yul\":1366:1372   */\n  dup2\n    /* \"#utility.yul\":1361:1364   */\n  dup6\n    /* \"#utility.yul\":1302:1373   */\n  tag_82\n  jump\t// in\ntag_81:\n    /* \"#utility.yul\":1295:1373   */\n  swap4\n  pop\n    /* \"#utility.yul\":1382:1434   */\n  tag_83\n    /* \"#utility.yul\":1427:1433   */\n  dup2\n    /* \"#utility.yul\":1422:1425   */\n  dup6\n    /* \"#utility.yul\":1415:1419   */\n  0x20\n    /* \"#utility.yul\":1408:1413   */\n  dup7\n    /* \"#utility.yul\":1404:1420   */\n  add\n    /* \"#utility.yul\":1382:1434   */\n  tag_84\n  jump\t// in\ntag_83:\n    /* \"#utility.yul\":1459:1488   */\n  tag_85\n    /* \"#utility.yul\":1481:1487   */\n  dup2\n    /* \"#utility.yul\":1459:1488   */\n  tag_86\n  jump\t// in\ntag_85:\n    /* \"#utility.yul\":1454:1457   */\n  dup5\n    /* \"#utility.yul\":1450:1489   */\n  add\n    /* \"#utility.yul\":1443:1489   */\n  swap2\n  pop\n    /* \"#utility.yul\":1223:1495   */\n  pop\n    /* \"#utility.yul\":1131:1495   */\n  swap3\n  swap2\n  pop\n  pop\n  jump\t// out\n    /* \"#utility.yul\":1501:1867   */\ntag_87:\n    /* \"#utility.yul\":1643:1646   */\n  0x00\n    /* \"#utility.yul\":1664:1731   */\n  tag_89\n    /* \"#utility.yul\":1728:1730   */\n  0x21\n    /* \"#utility.yul\":1723:1726   */\n  dup4\n    /* \"#utility.yul\":1664:1731   */\n  tag_82\n  jump\t// in\ntag_89:\n    /* \"#utility.yul\":1657:1731   */\n  swap2\n  pop\n    /* \"#utility.yul\":1740:1833   */\n  tag_90\n    /* \"#utility.yul\":1829:1832   */\n  dup3\n    /* \"#utility.yul\":1740:1833   */\n  tag_91\n  jump\t// in\ntag_90:\n    /* \"#utility.yul\":1858:1860   */\n  0x40\n    /* \"#utility.yul\":1853:1856   */\n  dup3\n    /* \"#utility.yul\":1849:1861   */\n  add\n    /* \"#utility.yul\":1842:1861   */\n  swap1\n  pop\n    /* \"#utility.yul\":1501:1867   */\n  swap2\n  swap1\n  pop\n  jump\t// out\n    /* \"#utility.yul\":1873:2186   */\ntag_53:\n    /* \"#utility.yul\":1986:1990   */\n  0x00\n    /* \"#utility.yul\":2024:2026   */\n  0x20\n    /* \"#utility.yul\":2013:2022   */\n  dup3\n    /* \"#utility.yul\":2009:2027   */\n  add\n    /* \"#utility.yul\":2001:2027   */\n  swap1\n  pop\n    /* \"#utility.yul\":2073:2082   */\n  dup2\n    /* \"#utility.yul\":2067:2071   */\n  dup2\n    /* \"#utility.yul\":2063:2083   */\n  sub\n    /* \"#utility.yul\":2059:2060   */\n  0x00\n    /* \"#utility.yul\":2048:2057   */\n  dup4\n    /* \"#utility.yul\":2044:2061   */\n  add\n    /* \"#utility.yul\":2037:2084   */\n  mstore\n    /* \"#utility.yul\":2101:2179   */\n  tag_93\n    /* \"#utility.yul\":2174:2178   */\n  dup2\n    /* \"#utility.yul\":2165:2171   */\n  dup5\n    /* \"#utility.yul\":2101:2179   */\n  tag_77\n  jump\t// in\ntag_93:\n    /* \"#utility.yul\":2093:2179   */\n  swap1\n  pop\n    /* \"#utility.yul\":1873:2186   */\n  swap3\n  swap2\n  pop\n  pop\n  jump\t// out\n    /* \"#utility.yul\":2192:2611   */\ntag_46:\n    /* \"#utility.yul\":2358:2362   */\n  0x00\n    /* \"#utility.yul\":2396:2398   */\n  0x20\n    /* \"#utility.yul\":2385:2394   */\n  dup3\n    /* \"#utility.yul\":2381:2399   */\n  add\n    /* \"#utility.yul\":2373:2399   */\n  swap1\n  pop\n    /* \"#utility.yul\":2445:2454   */\n  dup2\n    /* \"#utility.yul\":2439:2443   */\n  dup2\n    /* \"#utility.yul\":2435:2455   */\n  sub\n    /* \"#utility.yul\":2431:2432   */\n  0x00\n    /* \"#utility.yul\":2420:2429   */\n  dup4\n    /* \"#utility.yul\":2416:2433   */\n  add\n    /* \"#utility.yul\":2409:2456   */\n  mstore\n    /* \"#utility.yul\":2473:2604   */\n  tag_95\n    /* \"#utility.yul\":2599:2603   */\n  dup2\n    /* \"#utility.yul\":2473:2604   */\n  tag_87\n  jump\t// in\ntag_95:\n    /* \"#utility.yul\":2465:2604   */\n  swap1\n  pop\n    /* \"#utility.yul\":2192:2611   */\n  swap2\n  swap1\n  pop\n  jump\t// out\n    /* \"#utility.yul\":2698:2797   */\ntag_80:\n    /* \"#utility.yul\":2750:2756   */\n  0x00\n    /* \"#utility.yul\":2784:2789   */\n  dup2\n    /* \"#utility.yul\":2778:2790   */\n  mload\n    /* \"#utility.yul\":2768:2790   */\n  swap1\n  pop\n    /* \"#utility.yul\":2698:2797   */\n  swap2\n  swap1\n  pop\n  jump\t// out\n    /* \"#utility.yul\":2803:2972   */\ntag_82:\n    /* \"#utility.yul\":2887:2898   */\n  0x00\n    /* \"#utility.yul\":2921:2927   */\n  dup3\n    /* \"#utility.yul\":2916:2919   */\n  dup3\n    /* \"#utility.yul\":2909:2928   */\n  mstore\n    /* \"#utility.yul\":2961:2965   */\n  0x20\n    /* \"#utility.yul\":2956:2959   */\n  dup3\n    /* \"#utility.yul\":2952:2966   */\n  add\n    /* \"#utility.yul\":2937:2966   */\n  swap1\n  pop\n    /* \"#utility.yul\":2803:2972   */\n  swap3\n  swap2\n  pop\n  pop\n  jump\t// out\n    /* \"#utility.yul\":2978:3163   */\ntag_43:\n    /* \"#utility.yul\":3018:3019   */\n  0x00\n    /* \"#utility.yul\":3035:3055   */\n  tag_101\n    /* \"#utility.yul\":3053:3054   */\n  dup3\n    /* \"#utility.yul\":3035:3055   */\n  tag_102\n  jump\t// in\ntag_101:\n    /* \"#utility.yul\":3030:3055   */\n  swap2\n  pop\n    /* \"#utility.yul\":3069:3089   */\n  tag_103\n    /* \"#utility.yul\":3087:3088   */\n  dup4\n    /* \"#utility.yul\":3069:3089   */\n  tag_102\n  jump\t// in\ntag_103:\n    /* \"#utility.yul\":3064:3089   */\n  swap3\n  pop\n    /* \"#utility.yul\":3108:3109   */\n  dup3\n    /* \"#utility.yul\":3098:3133   */\n  tag_104\n  jumpi\n    /* \"#utility.yul\":3113:3131   */\n  tag_105\n  tag_106\n  jump\t// in\ntag_105:\n    /* \"#utility.yul\":3098:3133   */\ntag_104:\n    /* \"#utility.yul\":3155:3156   */\n  dup3\n    /* \"#utility.yul\":3152:3153   */\n  dup3\n    /* \"#utility.yul\":3148:3157   */\n  div\n    /* \"#utility.yul\":3143:3157   */\n  swap1\n  pop\n    /* \"#utility.yul\":2978:3163   */\n  swap3\n  swap2\n  pop\n  pop\n  jump\t// out\n    /* \"#utility.yul\":3169:3517   */\ntag_41:\n    /* \"#utility.yul\":3209:3216   */\n  0x00\n    /* \"#utility.yul\":3232:3252   */\n  tag_108\n    /* \"#utility.yul\":3250:3251   */\n  dup3\n    /* \"#utility.yul\":3232:3252   */\n  tag_102\n  jump\t// in\ntag_108:\n    /* \"#utility.yul\":3227:3252   */\n  swap2\n  pop\n    /* \"#utility.yul\":3266:3286   */\n  tag_109\n    /* \"#utility.yul\":3284:3285   */\n  dup4\n    /* \"#utility.yul\":3266:3286   */\n  tag_102\n  jump\t// in\ntag_109:\n    /* \"#utility.yul\":3261:3286   */\n  swap3\n  pop\n    /* \"#utility.yul\":3454:3455   */\n  dup2\n    /* \"#utility.yul\":3386:3452   */\n  0xffffffffffffffffffffffffffffffffffffffffffffffffffffffffffffffff\n    /* \"#utility.yul\":3382:3456   */\n  div\n    /* \"#utility.yul\":3379:3380   */\n  dup4\n    /* \"#utility.yul\":3376:3457   */\n  gt\n    /* \"#utility.yul\":3371:3372   */\n  dup3\n    /* \"#utility.yul\":3364:3373   */\n  iszero\n    /* \"#utility.yul\":3357:3374   */\n  iszero\n    /* \"#utility.yul\":3353:3458   */\n  and\n    /* \"#utility.yul\":3350:3481   */\n  iszero\n  tag_110\n  jumpi\n    /* \"#utility.yul\":3461:3479   */\n  tag_111\n  tag_112\n  jump\t// in\ntag_111:\n    /* \"#utility.yul\":3350:3481   */\ntag_110:\n    /* \"#utility.yul\":3509:3510   */\n  dup3\n    /* \"#utility.yul\":3506:3507   */\n  dup3\n    /* \"#utility.yul\":3502:3511   */\n  mul\n    /* \"#utility.yul\":3491:3511   */\n  swap1\n  pop\n    /* \"#utility.yul\":3169:3517   */\n  swap3\n  swap2\n  pop\n  pop\n  jump\t// out\n    /* \"#utility.yul\":3523:3619   */\ntag_113:\n    /* \"#utility.yul\":3560:3567   */\n  0x00\n    /* \"#utility.yul\":3589:3613   */\n  tag_115\n    /* \"#utility.yul\":3607:3612   */\n  dup3\n    /* \"#utility.yul\":3589:3613   */\n  tag_116\n  jump\t// in\ntag_115:\n    /* \"#utility.yul\":3578:3613   */\n  swap1\n  pop\n    /* \"#utility.yul\":3523:3619   */\n  swap2\n  swap1\n  pop\n  jump\t// out\n    /* \"#utility.yul\":3625:3751   */\ntag_116:\n    /* \"#utility.yul\":3662:3669   */\n  0x00\n    /* \"#utility.yul\":3702:3744   */\n  0xffffffffffffffffffffffffffffffffffffffff\n    /* \"#utility.yul\":3695:3700   */\n  dup3\n    /* \"#utility.yul\":3691:3745   */\n  and\n    /* \"#utility.yul\":3680:3745   */\n  swap1\n  pop\n    /* \"#utility.yul\":3625:3751   */\n  swap2\n  swap1\n  pop\n  jump\t// out\n    /* \"#utility.yul\":3757:3834   */\ntag_102:\n    /* \"#utility.yul\":3794:3801   */\n  0x00\n    /* \"#utility.yul\":3823:3828   */\n  dup2\n    /* \"#utility.yul\":3812:3828   */\n  swap1\n  pop\n    /* \"#utility.yul\":3757:3834   */\n  swap2\n  swap1\n  pop\n  jump\t// out\n    /* \"#utility.yul\":3840:4147   */\ntag_84:\n    /* \"#utility.yul\":3908:3909   */\n  0x00\n    /* \"#utility.yul\":3918:4031   */\ntag_120:\n    /* \"#utility.yul\":3932:3938   */\n  dup4\n    /* \"#utility.yul\":3929:3930   */\n  dup2\n    /* \"#utility.yul\":3926:3939   */\n  lt\n    /* \"#utility.yul\":3918:4031   */\n  iszero\n  tag_122\n  jumpi\n    /* \"#utility.yul\":4017:4018   */\n  dup1\n    /* \"#utility.yul\":4012:4015   */\n  dup3\n    /* \"#utility.yul\":4008:4019   */\n  add\n    /* \"#utility.yul\":4002:4020   */\n  mload\n    /* \"#utility.yul\":3998:3999   */\n  dup2\n    /* \"#utility.yul\":3993:3996   */\n  dup5\n    /* \"#utility.yul\":3989:4000   */\n  add\n    /* \"#utility.yul\":3982:4021   */\n  mstore\n    /* \"#utility.yul\":3954:3956   */\n  0x20\n    /* \"#utility.yul\":3951:3952   */\n  dup2\n    /* \"#utility.yul\":3947:3957   */\n  add\n    /* \"#utility.yul\":3942:3957   */\n  swap1\n  pop\n    /* \"#utility.yul\":3918:4031   */\n  jump(tag_120)\ntag_122:\n    /* \"#utility.yul\":4049:4055   */\n  dup4\n    /* \"#utility.yul\":4046:4047   */\n  dup2\n    /* \"#utility.yul\":4043:4056   */\n  gt\n    /* \"#utility.yul\":4040:4141   */\n  iszero\n  tag_123\n  jumpi\n    /* \"#utility.yul\":4129:4130   */\n  0x00\n    /* \"#utility.yul\":4120:4126   */\n  dup5\n    /* \"#utility.yul\":4115:4118   */\n  dup5\n    /* \"#utility.yul\":4111:4127   */\n  add\n    /* \"#utility.yul\":4104:4131   */\n  mstore\n    /* \"#utility.yul\":4040:4141   */\ntag_123:\n    /* \"#utility.yul\":3889:4147   */\n  pop\n    /* \"#utility.yul\":3840:4147   */\n  pop\n  pop\n  pop\n  jump\t// out\n    /* \"#utility.yul\":4153:4329   */\ntag_59:\n    /* \"#utility.yul\":4185:4186   */\n  0x00\n    /* \"#utility.yul\":4202:4222   */\n  tag_125\n    /* \"#utility.yul\":4220:4221   */\n  dup3\n    /* \"#utility.yul\":4202:4222   */\n  tag_102\n  jump\t// in\ntag_125:\n    /* \"#utility.yul\":4197:4222   */\n  swap2\n  pop\n    /* \"#utility.yul\":4236:4256   */\n  tag_126\n    /* \"#utility.yul\":4254:4255   */\n  dup4\n    /* \"#utility.yul\":4236:4256   */\n  tag_102\n  jump\t// in\ntag_126:\n    /* \"#utility.yul\":4231:4256   */\n  swap3\n  pop\n    /* \"#utility.yul\":4275:4276   */\n  dup3\n    /* \"#utility.yul\":4265:4300   */\n  tag_127\n  jumpi\n    /* \"#utility.yul\":4280:4298   */\n  tag_128\n  tag_106\n  jump\t// in\ntag_128:\n    /* \"#utility.yul\":4265:4300   */\ntag_127:\n    /* \"#utility.yul\":4321:4322   */\n  dup3\n    /* \"#utility.yul\":4318:4319   */\n  dup3\n    /* \"#utility.yul\":4314:4323   */\n  mod\n    /* \"#utility.yul\":4309:4323   */\n  swap1\n  pop\n    /* \"#utility.yul\":4153:4329   */\n  swap3\n  swap2\n  pop\n  pop\n  jump\t// out\n    /* \"#utility.yul\":4335:4515   */\ntag_112:\n    /* \"#utility.yul\":4383:4460   */\n  0x4e487b7100000000000000000000000000000000000000000000000000000000\n    /* \"#utility.yul\":4380:4381   */\n  0x00\n    /* \"#utility.yul\":4373:4461   */\n  mstore\n    /* \"#utility.yul\":4480:4484   */\n  0x11\n    /* \"#utility.yul\":4477:4478   */\n  0x04\n    /* \"#utility.yul\":4470:4485   */\n  mstore\n    /* \"#utility.yul\":4504:4508   */\n  0x24\n    /* \"#utility.yul\":4501:4502   */\n  0x00\n    /* \"#utility.yul\":4494:4509   */\n  revert\n    /* \"#utility.yul\":4521:4701   */\ntag_106:\n    /* \"#utility.yul\":4569:4646   */\n  0x4e487b7100000000000000000000000000000000000000000000000000000000\n    /* \"#utility.yul\":4566:4567   */\n  0x00\n    /* \"#utility.yul\":4559:4647   */\n  mstore\n    /* \"#utility.yul\":4666:4670   */\n  0x12\n    /* \"#utility.yul\":4663:4664   */\n  0x04\n    /* \"#utility.yul\":4656:4671   */\n  mstore\n    /* \"#utility.yul\":4690:4694   */\n  0x24\n    /* \"#utility.yul\":4687:4688   */\n  0x00\n    /* \"#utility.yul\":4680:4695   */\n  revert\n    /* \"#utility.yul\":4830:4947   */\ntag_72:\n    /* \"#utility.yul\":4939:4940   */\n  0x00\n    /* \"#utility.yul\":4936:4937   */\n  dup1\n    /* \"#utility.yul\":4929:4941   */\n  revert\n    /* \"#utility.yul\":4953:5055   */\ntag_86:\n    /* \"#utility.yul\":4994:5000   */\n  0x00\n    /* \"#utility.yul\":5045:5047   */\n  0x1f\n    /* \"#utility.yul\":5041:5048   */\n  not\n    /* \"#utility.yul\":5036:5038   */\n  0x1f\n    /* \"#utility.yul\":5029:5034   */\n  dup4\n    /* \"#utility.yul\":5025:5039   */\n  add\n    /* \"#utility.yul\":5021:5049   */\n  and\n    /* \"#utility.yul\":5011:5049   */\n  swap1\n  pop\n    /* \"#utility.yul\":4953:5055   */\n  swap2\n  swap1\n  pop\n  jump\t// out\n    /* \"#utility.yul\":5061:5281   */\ntag_91:\n    /* \"#utility.yul\":5201:5235   */\n  0x536166654d6174683a206d756c7469706c69636174696f6e206f766572666c6f\n    /* \"#utility.yul\":5197:5198   */\n  0x00\n    /* \"#utility.yul\":5189:5195   */\n  dup3\n    /* \"#utility.yul\":5185:5199   */\n  add\n    /* \"#utility.yul\":5178:5236   */\n  mstore\n    /* \"#utility.yul\":5270:5273   */\n  0x7700000000000000000000000000000000000000000000000000000000000000\n    /* \"#utility.yul\":5265:5267   */\n  0x20\n    /* \"#utility.yul\":5257:5263   */\n  dup3\n    /* \"#utility.yul\":5253:5268   */\n  add\n    /* \"#utility.yul\":5246:5274   */\n  mstore\n    /* \"#utility.yul\":5061:5281   */\n  pop\n  jump\t// out\n    /* \"#utility.yul\":5287:5409   */\ntag_64:\n    /* \"#utility.yul\":5360:5384   */\n  tag_137\n    /* \"#utility.yul\":5378:5383   */\n  dup2\n    /* \"#utility.yul\":5360:5384   */\n  tag_113\n  jump\t// in\ntag_137:\n    /* \"#utility.yul\":5353:5358   */\n  dup2\n    /* \"#utility.yul\":5350:5385   */\n  eq\n    /* \"#utility.yul\":5340:5403   */\n  tag_138\n  jumpi\n    /* \"#utility.yul\":5399:5400   */\n  0x00\n    /* \"#utility.yul\":5396:5397   */\n  dup1\n    /* \"#utility.yul\":5389:5401   */\n  revert\n    /* \"#utility.yul\":5340:5403   */\ntag_138:\n    /* \"#utility.yul\":5287:5409   */\n  pop\n  jump\t// out\n    /* \"#utility.yul\":5415:5537   */\ntag_68:\n    /* \"#utility.yul\":5488:5512   */\n  tag_140\n    /* \"#utility.yul\":5506:5511   */\n  dup2\n    /* \"#utility.yul\":5488:5512   */\n  tag_102\n  jump\t// in\ntag_140:\n    /* \"#utility.yul\":5481:5486   */\n  dup2\n    /* \"#utility.yul\":5478:5513   */\n  eq\n    /* \"#utility.yul\":5468:5531   */\n  tag_141\n  jumpi\n    /* \"#utility.yul\":5527:5528   */\n  0x00\n    /* \"#utility.yul\":5524:5525   */\n  dup1\n    /* \"#utility.yul\":5517:5529   */\n  revert\n    /* \"#utility.yul\":5468:5531   */\ntag_141:\n    /* \"#utility.yul\":5415:5537   */\n  pop\n  jump\t// out\n    /* \"Farm.sol\":29748:37218  contract Farm is ReentrancyGuard, Pausable, Ownable, IERC721Receiver {\r... */\ntag_18:\n  dataSize(sub_0)\n  dup1\n  dataOffset(sub_0)\n  0x00\n  codecopy\n  0x00\n  return\nstop\n\nsub_0: assembly {\n        /* \"Farm.sol\":29748:37218  contract Farm is ReentrancyGuard, Pausable, Ownable, IERC721Receiver {\r... */\n      mstore(0x40, 0x80)\n      callvalue\n      dup1\n      iszero\n      tag_1\n      jumpi\n      0x00\n      dup1\n      revert\n    tag_1:\n      pop\n      jumpi(tag_2, lt(calldatasize, 0x04))\n      shr(0xe0, calldataload(0x00))\n      dup1\n      0x7b0a47ee\n      gt\n      tag_33\n      jumpi\n      dup1\n      0xc8f33c91\n      gt\n      tag_34\n      jumpi\n      dup1\n      0xdf136d65\n      gt\n      tag_35\n      jumpi\n      dup1\n      0xdf136d65\n      eq\n      tag_29\n      jumpi\n      dup1\n      0xe9fad8ee\n      eq\n      tag_30\n      jumpi\n      dup1\n      0xebe2b12b\n      eq\n      tag_31\n      jumpi\n      dup1\n      0xf2fde38b\n      eq\n      tag_32\n      jumpi\n      jump(tag_2)\n    tag_35:\n      dup1\n      0xc8f33c91\n      eq\n      tag_25\n      jumpi\n      dup1\n      0xcc1a378f\n      eq\n      tag_26\n      jumpi\n      dup1\n      0xcd3daf9d\n      eq\n      tag_27\n      jumpi\n      dup1\n      0xd1af0c7d\n      eq\n      tag_28\n      jumpi\n      jump(tag_2)\n    tag_34:\n      dup1\n      0x8b876347\n      gt\n      tag_36\n      jumpi\n      dup1\n      0x8b876347\n      eq\n      tag_21\n      jumpi\n      dup1\n      0x8da5cb5b\n      eq\n      tag_22\n      jumpi\n      dup1\n      0xa694fc3a\n      eq\n      tag_23\n      jumpi\n      dup1\n      0xa85fe3b7\n      eq\n      tag_24\n      jumpi\n      jump(tag_2)\n    tag_36:\n      dup1\n      0x7b0a47ee\n      eq\n      tag_18\n      jumpi\n      dup1\n      0x80faa57d\n      eq\n      tag_19\n      jumpi\n      dup1\n      0x8980f11f\n      eq\n      tag_20\n      jumpi\n      jump(tag_2)\n    tag_33:\n      dup1\n      0x386a9525\n      gt\n      tag_37\n      jumpi\n      dup1\n      0x70a08231\n      gt\n      tag_38\n      jumpi\n      dup1\n      0x70a08231\n      eq\n      tag_14\n      jumpi\n      dup1\n      0x715018a6\n      eq\n      tag_15\n      jumpi\n      dup1\n      0x72f702f3\n      eq\n      tag_16\n      jumpi\n      dup1\n      0x7ae2b5c7\n      eq\n      tag_17\n      jumpi\n      jump(tag_2)\n    tag_38:\n      dup1\n      0x386a9525\n      eq\n      tag_10\n      jumpi\n      dup1\n      0x3c6b16ab\n      eq\n      tag_11\n      jumpi\n      dup1\n      0x3d18b912\n      eq\n      tag_12\n      jumpi\n      dup1\n      0x5c975abb\n      eq\n      tag_13\n      jumpi\n      jump(tag_2)\n    tag_37:\n      dup1\n      0x18160ddd\n      gt\n      tag_39\n      jumpi\n      dup1\n      0x18160ddd\n      eq\n      tag_6\n      jumpi\n      dup1\n      0x1c1f78eb\n      eq\n      tag_7\n      jumpi\n      dup1\n      0x2e1a7d4d\n      eq\n      tag_8\n      jumpi\n      dup1\n      0x2e4c697f\n      eq\n      tag_9\n      jumpi\n      jump(tag_2)\n    tag_39:\n      dup1\n      0x8cc262\n      eq\n      tag_3\n      jumpi\n      dup1\n      0x0700037d\n      eq\n      tag_4\n      jumpi\n      dup1\n      0x150b7a02\n      eq\n      tag_5\n      jumpi\n    tag_2:\n      0x00\n      dup1\n      revert\n        /* \"Farm.sol\":32078:32335  function earned(address account) public view returns (uint256) {\r... */\n    tag_3:\n      tag_40\n      0x04\n      dup1\n      calldatasize\n      sub\n      dup2\n      add\n      swap1\n      tag_41\n      swap2\n      swap1\n      tag_42\n      jump\t// in\n    tag_41:\n      tag_43\n      jump\t// in\n    tag_40:\n      mload(0x40)\n      tag_44\n      swap2\n      swap1\n      tag_45\n      jump\t// in\n    tag_44:\n      mload(0x40)\n      dup1\n      swap2\n      sub\n      swap1\n      return\n        /* \"Farm.sol\":30341:30383  mapping(address => uint256) public rewards */\n    tag_4:\n      tag_46\n      0x04\n      dup1\n      calldatasize\n      sub\n      dup2\n      add\n      swap1\n      tag_47\n      swap2\n      swap1\n      tag_42\n      jump\t// in\n    tag_47:\n      tag_48\n      jump\t// in\n    tag_46:\n      mload(0x40)\n      tag_49\n      swap2\n      swap1\n      tag_45\n      jump\t// in\n    tag_49:\n      mload(0x40)\n      dup1\n      swap2\n      sub\n      swap1\n      return\n        /* \"Farm.sol\":32672:32943  function onERC721Received(\r... */\n    tag_5:\n      tag_50\n      0x04\n      dup1\n      calldatasize\n      sub\n      dup2\n      add\n      swap1\n      tag_51\n      swap2\n      swap1\n      tag_52\n      jump\t// in\n    tag_51:\n      tag_53\n      jump\t// in\n    tag_50:\n      mload(0x40)\n      tag_54\n      swap2\n      swap1\n      tag_55\n      jump\t// in\n    tag_54:\n      mload(0x40)\n      dup1\n      swap2\n      sub\n      swap1\n      return\n        /* \"Farm.sol\":30949:31042  function totalSupply() external view returns (uint256) {\r... */\n    tag_6:\n      tag_56\n      tag_57\n      jump\t// in\n    tag_56:\n      mload(0x40)\n      tag_58\n      swap2\n      swap1\n      tag_45\n      jump\t// in\n    tag_58:\n      mload(0x40)\n      dup1\n      swap2\n      sub\n      swap1\n      return\n        /* \"Farm.sol\":32343:32464  function getRewardForDuration() external view returns (uint256) {\r... */\n    tag_7:\n      tag_59\n      tag_60\n      jump\t// in\n    tag_59:\n      mload(0x40)\n      tag_61\n      swap2\n      swap1\n      tag_45\n      jump\t// in\n    tag_61:\n      mload(0x40)\n      dup1\n      swap2\n      sub\n      swap1\n      return\n        /* \"Farm.sol\":33367:33746  function withdraw(uint256 amount)\r... */\n    tag_8:\n      tag_62\n      0x04\n      dup1\n      calldatasize\n      sub\n      dup2\n      add\n      swap1\n      tag_63\n      swap2\n      swap1\n      tag_64\n      jump\t// in\n    tag_63:\n      tag_65\n      jump\t// in\n    tag_62:\n      stop\n        /* \"Farm.sol\":31050:31414  function pow(uint n, uint e) public pure returns (uint) {\r... */\n    tag_9:\n      tag_66\n      0x04\n      dup1\n      calldatasize\n      sub\n      dup2\n      add\n      swap1\n      tag_67\n      swap2\n      swap1\n      tag_68\n      jump\t// in\n    tag_67:\n      tag_69\n      jump\t// in\n    tag_66:\n      mload(0x40)\n      tag_70\n      swap2\n      swap1\n      tag_45\n      jump\t// in\n    tag_70:\n      mload(0x40)\n      dup1\n      swap2\n      sub\n      swap1\n      return\n        /* \"Farm.sol\":30083:30113  uint256 public rewardsDuration */\n    tag_10:\n      tag_71\n      tag_72\n      jump\t// in\n    tag_71:\n      mload(0x40)\n      tag_73\n      swap2\n      swap1\n      tag_45\n      jump\t// in\n    tag_73:\n      mload(0x40)\n      dup1\n      swap2\n      sub\n      swap1\n      return\n        /* \"Farm.sol\":34230:35359  function notifyRewardAmount(uint256 reward)\r... */\n    tag_11:\n      tag_74\n      0x04\n      dup1\n      calldatasize\n      sub\n      dup2\n      add\n      swap1\n      tag_75\n      swap2\n      swap1\n      tag_64\n      jump\t// in\n    tag_75:\n      tag_76\n      jump\t// in\n    tag_74:\n      stop\n        /* \"Farm.sol\":33754:34061  function getReward() public nonReentrant updateReward(msg.sender) {\r... */\n    tag_12:\n      tag_77\n      tag_78\n      jump\t// in\n    tag_77:\n      stop\n        /* \"Farm.sol\":16842:16928  function paused() public view virtual returns (bool) {\r... */\n    tag_13:\n      tag_79\n      tag_80\n      jump\t// in\n    tag_79:\n      mload(0x40)\n      tag_81\n      swap2\n      swap1\n      tag_82\n      jump\t// in\n    tag_81:\n      mload(0x40)\n      dup1\n      swap2\n      sub\n      swap1\n      return\n        /* \"Farm.sol\":31422:31534  function balanceOf(address account) external view returns (uint256) {\r... */\n    tag_14:\n      tag_83\n      0x04\n      dup1\n      calldatasize\n      sub\n      dup2\n      add\n      swap1\n      tag_84\n      swap2\n      swap1\n      tag_42\n      jump\t// in\n    tag_84:\n      tag_85\n      jump\t// in\n    tag_83:\n      mload(0x40)\n      tag_86\n      swap2\n      swap1\n      tag_45\n      jump\t// in\n    tag_86:\n      mload(0x40)\n      dup1\n      swap2\n      sub\n      swap1\n      return\n        /* \"Farm.sol\":28929:29032  function renounceOwnership() public virtual onlyOwner {\r... */\n    tag_15:\n      tag_87\n      tag_88\n      jump\t// in\n    tag_87:\n      stop\n        /* \"Farm.sol\":29976:30002  IERC20 public stakingToken */\n    tag_16:\n      tag_89\n      tag_90\n      jump\t// in\n    tag_89:\n      mload(0x40)\n      tag_91\n      swap2\n      swap1\n      tag_92\n      jump\t// in\n    tag_91:\n      mload(0x40)\n      dup1\n      swap2\n      sub\n      swap1\n      return\n        /* \"Farm.sol\":32472:32576  function min(uint256 a, uint256 b) public pure returns (uint256) {\r... */\n    tag_17:\n      tag_93\n      0x04\n      dup1\n      calldatasize\n      sub\n      dup2\n      add\n      swap1\n      tag_94\n      swap2\n      swap1\n      tag_68\n      jump\t// in\n    tag_94:\n      tag_95\n      jump\t// in\n    tag_93:\n      mload(0x40)\n      tag_96\n      swap2\n      swap1\n      tag_45\n      jump\t// in\n    tag_96:\n      mload(0x40)\n      dup1\n      swap2\n      sub\n      swap1\n      return\n        /* \"Farm.sol\":30047:30076  uint256 public rewardRate = 0 */\n    tag_18:\n      tag_97\n      tag_98\n      jump\t// in\n    tag_97:\n      mload(0x40)\n      tag_99\n      swap2\n      swap1\n      tag_45\n      jump\t// in\n    tag_99:\n      mload(0x40)\n      dup1\n      swap2\n      sub\n      swap1\n      return\n        /* \"Farm.sol\":31542:31668  function lastTimeRewardApplicable() public view returns (uint256) {\r... */\n    tag_19:\n      tag_100\n      tag_101\n      jump\t// in\n    tag_100:\n      mload(0x40)\n      tag_102\n      swap2\n      swap1\n      tag_45\n      jump\t// in\n    tag_102:\n      mload(0x40)\n      dup1\n      swap2\n      sub\n      swap1\n      return\n        /* \"Farm.sol\":35474:36093  function recoverERC20(address tokenAddress, uint256 tokenAmount)\r... */\n    tag_20:\n      tag_103\n      0x04\n      dup1\n      calldatasize\n      sub\n      dup2\n      add\n      swap1\n      tag_104\n      swap2\n      swap1\n      tag_105\n      jump\t// in\n    tag_104:\n      tag_106\n      jump\t// in\n    tag_103:\n      stop\n        /* \"Farm.sol\":30277:30334  mapping(address => uint256) public userRewardPerTokenPaid */\n    tag_21:\n      tag_107\n      0x04\n      dup1\n      calldatasize\n      sub\n      dup2\n      add\n      swap1\n      tag_108\n      swap2\n      swap1\n      tag_42\n      jump\t// in\n    tag_108:\n      tag_109\n      jump\t// in\n    tag_107:\n      mload(0x40)\n      tag_110\n      swap2\n      swap1\n      tag_45\n      jump\t// in\n    tag_110:\n      mload(0x40)\n      dup1\n      swap2\n      sub\n      swap1\n      return\n        /* \"Farm.sol\":28281:28368  function owner() public view virtual returns (address) {\r... */\n    tag_22:\n      tag_111\n      tag_112\n      jump\t// in\n    tag_111:\n      mload(0x40)\n      tag_113\n      swap2\n      swap1\n      tag_114\n      jump\t// in\n    tag_113:\n      mload(0x40)\n      dup1\n      swap2\n      sub\n      swap1\n      return\n        /* \"Farm.sol\":32951:33359  function stake(uint256 amount)\r... */\n    tag_23:\n      tag_115\n      0x04\n      dup1\n      calldatasize\n      sub\n      dup2\n      add\n      swap1\n      tag_116\n      swap2\n      swap1\n      tag_64\n      jump\t// in\n    tag_116:\n      tag_117\n      jump\t// in\n    tag_115:\n      stop\n        /* \"Farm.sol\":30198:30237  uint256 public stakingTokensDecimalRate */\n    tag_24:\n      tag_118\n      tag_119\n      jump\t// in\n    tag_118:\n      mload(0x40)\n      tag_120\n      swap2\n      swap1\n      tag_45\n      jump\t// in\n    tag_120:\n      mload(0x40)\n      dup1\n      swap2\n      sub\n      swap1\n      return\n        /* \"Farm.sol\":30120:30149  uint256 public lastUpdateTime */\n    tag_25:\n      tag_121\n      tag_122\n      jump\t// in\n    tag_121:\n      mload(0x40)\n      tag_123\n      swap2\n      swap1\n      tag_45\n      jump\t// in\n    tag_123:\n      mload(0x40)\n      dup1\n      swap2\n      sub\n      swap1\n      return\n        /* \"Farm.sol\":36101:36461  function setRewardsDuration(uint256 _rewardsDuration) external onlyOwner {\r... */\n    tag_26:\n      tag_124\n      0x04\n      dup1\n      calldatasize\n      sub\n      dup2\n      add\n      swap1\n      tag_125\n      swap2\n      swap1\n      tag_64\n      jump\t// in\n    tag_125:\n      tag_126\n      jump\t// in\n    tag_124:\n      stop\n        /* \"Farm.sol\":31676:32070  function rewardPerToken() public view returns (uint256) {\r... */\n    tag_27:\n      tag_127\n      tag_128\n      jump\t// in\n    tag_127:\n      mload(0x40)\n      tag_129\n      swap2\n      swap1\n      tag_45\n      jump\t// in\n    tag_129:\n      mload(0x40)\n      dup1\n      swap2\n      sub\n      swap1\n      return\n        /* \"Farm.sol\":29943:29969  IERC20 public rewardsToken */\n    tag_28:\n      tag_130\n      tag_131\n      jump\t// in\n    tag_130:\n      mload(0x40)\n      tag_132\n      swap2\n      swap1\n      tag_92\n      jump\t// in\n    tag_132:\n      mload(0x40)\n      dup1\n      swap2\n      sub\n      swap1\n      return\n        /* \"Farm.sol\":30156:30191  uint256 public rewardPerTokenStored */\n    tag_29:\n      tag_133\n      tag_134\n      jump\t// in\n    tag_133:\n      mload(0x40)\n      tag_135\n      swap2\n      swap1\n      tag_45\n      jump\t// in\n    tag_135:\n      mload(0x40)\n      dup1\n      swap2\n      sub\n      swap1\n      return\n        /* \"Farm.sol\":34069:34166  function exit() external {\r... */\n    tag_30:\n      tag_136\n      tag_137\n      jump\t// in\n    tag_136:\n      stop\n        /* \"Farm.sol\":30009:30040  uint256 public periodFinish = 0 */\n    tag_31:\n      tag_138\n      tag_139\n      jump\t// in\n    tag_138:\n      mload(0x40)\n      tag_140\n      swap2\n      swap1\n      tag_45\n      jump\t// in\n    tag_140:\n      mload(0x40)\n      dup1\n      swap2\n      sub\n      swap1\n      return\n        /* \"Farm.sol\":29187:29388  function transferOwnership(address newOwner) public virtual onlyOwner {\r... */\n    tag_32:\n      tag_141\n      0x04\n      dup1\n      calldatasize\n      sub\n      dup2\n      add\n      swap1\n      tag_142\n      swap2\n      swap1\n      tag_42\n      jump\t// in\n    tag_142:\n      tag_143\n      jump\t// in\n    tag_141:\n      stop\n        /* \"Farm.sol\":32078:32335  function earned(address account) public view returns (uint256) {\r... */\n    tag_43:\n        /* \"Farm.sol\":32132:32139  uint256 */\n      0x00\n        /* \"Farm.sol\":32168:32327  _balances[account]\r... */\n      tag_148\n        /* \"Farm.sol\":32310:32317  rewards */\n      0x0c\n        /* \"Farm.sol\":32310:32326  rewards[account] */\n      0x00\n        /* \"Farm.sol\":32318:32325  account */\n      dup5\n        /* \"Farm.sol\":32310:32326  rewards[account] */\n      0xffffffffffffffffffffffffffffffffffffffff\n      and\n      0xffffffffffffffffffffffffffffffffffffffff\n      and\n      dup2\n      mstore\n      0x20\n      add\n      swap1\n      dup2\n      mstore\n      0x20\n      add\n      0x00\n      keccak256\n      sload\n        /* \"Farm.sol\":32168:32295  _balances[account]\r... */\n      tag_149\n        /* \"Farm.sol\":32270:32294  stakingTokensDecimalRate */\n      sload(0x09)\n        /* \"Farm.sol\":32168:32255  _balances[account]\r... */\n      tag_150\n        /* \"Farm.sol\":32201:32254  rewardPerToken().sub(userRewardPerTokenPaid[account]) */\n      tag_151\n        /* \"Farm.sol\":32222:32244  userRewardPerTokenPaid */\n      0x0b\n        /* \"Farm.sol\":32222:32253  userRewardPerTokenPaid[account] */\n      0x00\n        /* \"Farm.sol\":32245:32252  account */\n      dup10\n        /* \"Farm.sol\":32222:32253  userRewardPerTokenPaid[account] */\n      0xffffffffffffffffffffffffffffffffffffffff\n      and\n      0xffffffffffffffffffffffffffffffffffffffff\n      and\n      dup2\n      mstore\n      0x20\n      add\n      swap1\n      dup2\n      mstore\n      0x20\n      add\n      0x00\n      keccak256\n      sload\n        /* \"Farm.sol\":32201:32217  rewardPerToken() */\n      tag_152\n        /* \"Farm.sol\":32201:32215  rewardPerToken */\n      tag_128\n        /* \"Farm.sol\":32201:32217  rewardPerToken() */\n      jump\t// in\n    tag_152:\n        /* \"Farm.sol\":32201:32221  rewardPerToken().sub */\n      tag_153\n      swap1\n        /* \"Farm.sol\":32201:32254  rewardPerToken().sub(userRewardPerTokenPaid[account]) */\n      swap2\n      swap1\n      0xffffffff\n      and\n      jump\t// in\n    tag_151:\n        /* \"Farm.sol\":32168:32177  _balances */\n      0x0e\n        /* \"Farm.sol\":32168:32186  _balances[account] */\n      0x00\n        /* \"Farm.sol\":32178:32185  account */\n      dup10\n        /* \"Farm.sol\":32168:32186  _balances[account] */\n      0xffffffffffffffffffffffffffffffffffffffff\n      and\n      0xffffffffffffffffffffffffffffffffffffffff\n      and\n      dup2\n      mstore\n      0x20\n      add\n      swap1\n      dup2\n      mstore\n      0x20\n      add\n      0x00\n      keccak256\n      sload\n        /* \"Farm.sol\":32168:32200  _balances[account]\r... */\n      tag_145\n      swap1\n        /* \"Farm.sol\":32168:32255  _balances[account]\r... */\n      swap2\n      swap1\n      0xffffffff\n      and\n      jump\t// in\n    tag_150:\n        /* \"Farm.sol\":32168:32269  _balances[account]\r... */\n      tag_144\n      swap1\n        /* \"Farm.sol\":32168:32295  _balances[account]\r... */\n      swap2\n      swap1\n      0xffffffff\n      and\n      jump\t// in\n    tag_149:\n        /* \"Farm.sol\":32168:32309  _balances[account]\r... */\n      tag_154\n      swap1\n        /* \"Farm.sol\":32168:32327  _balances[account]\r... */\n      swap2\n      swap1\n      0xffffffff\n      and\n      jump\t// in\n    tag_148:\n        /* \"Farm.sol\":32152:32327  return\r... */\n      swap1\n      pop\n        /* \"Farm.sol\":32078:32335  function earned(address account) public view returns (uint256) {\r... */\n      swap2\n      swap1\n      pop\n      jump\t// out\n        /* \"Farm.sol\":30341:30383  mapping(address => uint256) public rewards */\n    tag_48:\n      mstore(0x20, 0x0c)\n      dup1\n      0x00\n      mstore\n      keccak256(0x00, 0x40)\n      0x00\n      swap2\n      pop\n      swap1\n      pop\n      sload\n      dup2\n      jump\t// out\n        /* \"Farm.sol\":32672:32943  function onERC721Received(\r... */\n    tag_53:\n        /* \"Farm.sol\":32843:32849  bytes4 */\n      0x00\n        /* \"Farm.sol\":32903:32911  operator */\n      dup6\n        /* \"Farm.sol\":32913:32917  from */\n      dup6\n        /* \"Farm.sol\":32919:32926  tokenId */\n      dup6\n        /* \"Farm.sol\":32928:32932  data */\n      dup6\n      dup6\n        /* \"Farm.sol\":32886:32933  abi.encodePacked(operator, from, tokenId, data) */\n      add(0x20, mload(0x40))\n      tag_156\n      swap6\n      swap5\n      swap4\n      swap3\n      swap2\n      swap1\n      tag_157\n      jump\t// in\n    tag_156:\n      mload(0x40)\n      0x20\n      dup2\n      dup4\n      sub\n      sub\n      dup2\n      mstore\n      swap1\n      0x40\n      mstore\n        /* \"Farm.sol\":32876:32934  keccak256(abi.encodePacked(operator, from, tokenId, data)) */\n      dup1\n      mload\n      swap1\n      0x20\n      add\n      keccak256\n        /* \"Farm.sol\":32862:32935  return bytes4(keccak256(abi.encodePacked(operator, from, tokenId, data))) */\n      swap1\n      pop\n        /* \"Farm.sol\":32672:32943  function onERC721Received(\r... */\n      swap6\n      swap5\n      pop\n      pop\n      pop\n      pop\n      pop\n      jump\t// out\n        /* \"Farm.sol\":30949:31042  function totalSupply() external view returns (uint256) {\r... */\n    tag_57:\n        /* \"Farm.sol\":30995:31002  uint256 */\n      0x00\n        /* \"Farm.sol\":31022:31034  _totalSupply */\n      sload(0x0d)\n        /* \"Farm.sol\":31015:31034  return _totalSupply */\n      swap1\n      pop\n        /* \"Farm.sol\":30949:31042  function totalSupply() external view returns (uint256) {\r... */\n      swap1\n      jump\t// out\n        /* \"Farm.sol\":32343:32464  function getRewardForDuration() external view returns (uint256) {\r... */\n    tag_60:\n        /* \"Farm.sol\":32398:32405  uint256 */\n      0x00\n        /* \"Farm.sol\":32425:32456  rewardRate.mul(rewardsDuration) */\n      tag_160\n        /* \"Farm.sol\":32440:32455  rewardsDuration */\n      sload(0x06)\n        /* \"Farm.sol\":32425:32435  rewardRate */\n      sload(0x05)\n        /* \"Farm.sol\":32425:32439  rewardRate.mul */\n      tag_145\n      swap1\n        /* \"Farm.sol\":32425:32456  rewardRate.mul(rewardsDuration) */\n      swap2\n      swap1\n      0xffffffff\n      and\n      jump\t// in\n    tag_160:\n        /* \"Farm.sol\":32418:32456  return rewardRate.mul(rewardsDuration) */\n      swap1\n      pop\n        /* \"Farm.sol\":32343:32464  function getRewardForDuration() external view returns (uint256) {\r... */\n      swap1\n      jump\t// out\n        /* \"Farm.sol\":33367:33746  function withdraw(uint256 amount)\r... */\n    tag_65:\n        /* \"Farm.sol\":19226:19247  _nonReentrantBefore() */\n      tag_162\n        /* \"Farm.sol\":19226:19245  _nonReentrantBefore */\n      tag_163\n        /* \"Farm.sol\":19226:19247  _nonReentrantBefore() */\n      jump\t// in\n    tag_162:\n        /* \"Farm.sol\":33449:33459  msg.sender */\n      caller\n        /* \"Farm.sol\":36587:36603  rewardPerToken() */\n      tag_165\n        /* \"Farm.sol\":36587:36601  rewardPerToken */\n      tag_128\n        /* \"Farm.sol\":36587:36603  rewardPerToken() */\n      jump\t// in\n    tag_165:\n        /* \"Farm.sol\":36564:36584  rewardPerTokenStored */\n      0x08\n        /* \"Farm.sol\":36564:36603  rewardPerTokenStored = rewardPerToken() */\n      dup2\n      swap1\n      sstore\n      pop\n        /* \"Farm.sol\":36631:36657  lastTimeRewardApplicable() */\n      tag_166\n        /* \"Farm.sol\":36631:36655  lastTimeRewardApplicable */\n      tag_101\n        /* \"Farm.sol\":36631:36657  lastTimeRewardApplicable() */\n      jump\t// in\n    tag_166:\n        /* \"Farm.sol\":36614:36628  lastUpdateTime */\n      0x07\n        /* \"Farm.sol\":36614:36657  lastUpdateTime = lastTimeRewardApplicable() */\n      dup2\n      swap1\n      sstore\n      pop\n        /* \"Farm.sol\":36691:36692  0 */\n      0x00\n        /* \"Farm.sol\":36672:36693  account != address(0) */\n      0xffffffffffffffffffffffffffffffffffffffff\n      and\n        /* \"Farm.sol\":36672:36679  account */\n      dup2\n        /* \"Farm.sol\":36672:36693  account != address(0) */\n      0xffffffffffffffffffffffffffffffffffffffff\n      and\n      eq\n        /* \"Farm.sol\":36668:36825  if (account != address(0)) {\r... */\n      tag_167\n      jumpi\n        /* \"Farm.sol\":36729:36744  earned(account) */\n      tag_168\n        /* \"Farm.sol\":36736:36743  account */\n      dup2\n        /* \"Farm.sol\":36729:36735  earned */\n      tag_43\n        /* \"Farm.sol\":36729:36744  earned(account) */\n      jump\t// in\n    tag_168:\n        /* \"Farm.sol\":36710:36717  rewards */\n      0x0c\n        /* \"Farm.sol\":36710:36726  rewards[account] */\n      0x00\n        /* \"Farm.sol\":36718:36725  account */\n      dup4\n        /* \"Farm.sol\":36710:36726  rewards[account] */\n      0xffffffffffffffffffffffffffffffffffffffff\n      and\n      0xffffffffffffffffffffffffffffffffffffffff\n      and\n      dup2\n      mstore\n      0x20\n      add\n      swap1\n      dup2\n      mstore\n      0x20\n      add\n      0x00\n      keccak256\n        /* \"Farm.sol\":36710:36744  rewards[account] = earned(account) */\n      dup2\n      swap1\n      sstore\n      pop\n        /* \"Farm.sol\":36793:36813  rewardPerTokenStored */\n      sload(0x08)\n        /* \"Farm.sol\":36759:36781  userRewardPerTokenPaid */\n      0x0b\n        /* \"Farm.sol\":36759:36790  userRewardPerTokenPaid[account] */\n      0x00\n        /* \"Farm.sol\":36782:36789  account */\n      dup4\n        /* \"Farm.sol\":36759:36790  userRewardPerTokenPaid[account] */\n      0xffffffffffffffffffffffffffffffffffffffff\n      and\n      0xffffffffffffffffffffffffffffffffffffffff\n      and\n      dup2\n      mstore\n      0x20\n      add\n      swap1\n      dup2\n      mstore\n      0x20\n      add\n      0x00\n      keccak256\n        /* \"Farm.sol\":36759:36813  userRewardPerTokenPaid[account] = rewardPerTokenStored */\n      dup2\n      swap1\n      sstore\n      pop\n        /* \"Farm.sol\":36668:36825  if (account != address(0)) {\r... */\n    tag_167:\n        /* \"Farm.sol\":33494:33495  0 */\n      0x00\n        /* \"Farm.sol\":33485:33491  amount */\n      dup3\n        /* \"Farm.sol\":33485:33495  amount > 0 */\n      gt\n        /* \"Farm.sol\":33477:33517  require(amount > 0, \"Cannot withdraw 0\") */\n      tag_170\n      jumpi\n      mload(0x40)\n      0x08c379a000000000000000000000000000000000000000000000000000000000\n      dup2\n      mstore\n      0x04\n      add\n      tag_171\n      swap1\n      tag_172\n      jump\t// in\n    tag_171:\n      mload(0x40)\n      dup1\n      swap2\n      sub\n      swap1\n      revert\n    tag_170:\n        /* \"Farm.sol\":33545:33569  _totalSupply.sub(amount) */\n      tag_173\n        /* \"Farm.sol\":33562:33568  amount */\n      dup3\n        /* \"Farm.sol\":33545:33557  _totalSupply */\n      sload(0x0d)\n        /* \"Farm.sol\":33545:33561  _totalSupply.sub */\n      tag_153\n      swap1\n        /* \"Farm.sol\":33545:33569  _totalSupply.sub(amount) */\n      swap2\n      swap1\n      0xffffffff\n      and\n      jump\t// in\n    tag_173:\n        /* \"Farm.sol\":33530:33542  _totalSupply */\n      0x0d\n        /* \"Farm.sol\":33530:33569  _totalSupply = _totalSupply.sub(amount) */\n      dup2\n      swap1\n      sstore\n      pop\n        /* \"Farm.sol\":33604:33637  _balances[msg.sender].sub(amount) */\n      tag_174\n        /* \"Farm.sol\":33630:33636  amount */\n      dup3\n        /* \"Farm.sol\":33604:33613  _balances */\n      0x0e\n        /* \"Farm.sol\":33604:33625  _balances[msg.sender] */\n      0x00\n        /* \"Farm.sol\":33614:33624  msg.sender */\n      caller\n        /* \"Farm.sol\":33604:33625  _balances[msg.sender] */\n      0xffffffffffffffffffffffffffffffffffffffff\n      and\n      0xffffffffffffffffffffffffffffffffffffffff\n      and\n      dup2\n      mstore\n      0x20\n      add\n      swap1\n      dup2\n      mstore\n      0x20\n      add\n      0x00\n      keccak256\n      sload\n        /* \"Farm.sol\":33604:33629  _balances[msg.sender].sub */\n      tag_153\n      swap1\n        /* \"Farm.sol\":33604:33637  _balances[msg.sender].sub(amount) */\n      swap2\n      swap1\n      0xffffffff\n      and\n      jump\t// in\n    tag_174:\n        /* \"Farm.sol\":33580:33589  _balances */\n      0x0e\n        /* \"Farm.sol\":33580:33601  _balances[msg.sender] */\n      0x00\n        /* \"Farm.sol\":33590:33600  msg.sender */\n      caller\n        /* \"Farm.sol\":33580:33601  _balances[msg.sender] */\n      0xffffffffffffffffffffffffffffffffffffffff\n      and\n      0xffffffffffffffffffffffffffffffffffffffff\n      and\n      dup2\n      mstore\n      0x20\n      add\n      swap1\n      dup2\n      mstore\n      0x20\n      add\n      0x00\n      keccak256\n        /* \"Farm.sol\":33580:33637  _balances[msg.sender] = _balances[msg.sender].sub(amount) */\n      dup2\n      swap1\n      sstore\n      pop\n        /* \"Farm.sol\":33648:33693  stakingToken.safeTransfer(msg.sender, amount) */\n      tag_175\n        /* \"Farm.sol\":33674:33684  msg.sender */\n      caller\n        /* \"Farm.sol\":33686:33692  amount */\n      dup4\n        /* \"Farm.sol\":33648:33660  stakingToken */\n      0x03\n      0x00\n      swap1\n      sload\n      swap1\n      0x0100\n      exp\n      swap1\n      div\n      0xffffffffffffffffffffffffffffffffffffffff\n      and\n        /* \"Farm.sol\":33648:33673  stakingToken.safeTransfer */\n      0xffffffffffffffffffffffffffffffffffffffff\n      and\n      tag_176\n      swap1\n        /* \"Farm.sol\":33648:33693  stakingToken.safeTransfer(msg.sender, amount) */\n      swap3\n      swap2\n      swap1\n      0xffffffff\n      and\n      jump\t// in\n    tag_175:\n        /* \"Farm.sol\":33719:33729  msg.sender */\n      caller\n        /* \"Farm.sol\":33709:33738  Withdrawn(msg.sender, amount) */\n      0xffffffffffffffffffffffffffffffffffffffff\n      and\n      0x7084f5476618d8e60b11ef0d7d3f06914655adb8793e28ff7f018d4c76d505d5\n        /* \"Farm.sol\":33731:33737  amount */\n      dup4\n        /* \"Farm.sol\":33709:33738  Withdrawn(msg.sender, amount) */\n      mload(0x40)\n      tag_177\n      swap2\n      swap1\n      tag_45\n      jump\t// in\n    tag_177:\n      mload(0x40)\n      dup1\n      swap2\n      sub\n      swap1\n      log2\n        /* \"Farm.sol\":19258:19259  _ */\n      pop\n        /* \"Farm.sol\":19270:19290  _nonReentrantAfter() */\n      tag_178\n        /* \"Farm.sol\":19270:19288  _nonReentrantAfter */\n      tag_179\n        /* \"Farm.sol\":19270:19290  _nonReentrantAfter() */\n      jump\t// in\n    tag_178:\n        /* \"Farm.sol\":33367:33746  function withdraw(uint256 amount)\r... */\n      pop\n      jump\t// out\n        /* \"Farm.sol\":31050:31414  function pow(uint n, uint e) public pure returns (uint) {\r... */\n    tag_69:\n        /* \"Farm.sol\":31100:31104  uint */\n      0x00\n        /* \"Farm.sol\":31128:31129  0 */\n      dup1\n        /* \"Farm.sol\":31123:31124  e */\n      dup3\n        /* \"Farm.sol\":31123:31129  e == 0 */\n      eq\n        /* \"Farm.sol\":31119:31407  if (e == 0) {\r... */\n      iszero\n      tag_181\n      jumpi\n        /* \"Farm.sol\":31153:31154  1 */\n      0x01\n        /* \"Farm.sol\":31146:31154  return 1 */\n      swap1\n      pop\n      jump(tag_180)\n        /* \"Farm.sol\":31119:31407  if (e == 0) {\r... */\n    tag_181:\n        /* \"Farm.sol\":31181:31182  1 */\n      0x01\n        /* \"Farm.sol\":31176:31177  e */\n      dup3\n        /* \"Farm.sol\":31176:31182  e == 1 */\n      eq\n        /* \"Farm.sol\":31172:31407  if (e == 1) {\r... */\n      iszero\n      tag_183\n      jumpi\n        /* \"Farm.sol\":31206:31207  n */\n      dup3\n        /* \"Farm.sol\":31199:31207  return n */\n      swap1\n      pop\n      jump(tag_180)\n        /* \"Farm.sol\":31172:31407  if (e == 1) {\r... */\n    tag_183:\n        /* \"Farm.sol\":31240:31246  uint p */\n      0x00\n        /* \"Farm.sol\":31249:31265  pow(n, e.div(2)) */\n      tag_185\n        /* \"Farm.sol\":31253:31254  n */\n      dup5\n        /* \"Farm.sol\":31256:31264  e.div(2) */\n      tag_186\n        /* \"Farm.sol\":31262:31263  2 */\n      0x02\n        /* \"Farm.sol\":31256:31257  e */\n      dup7\n        /* \"Farm.sol\":31256:31261  e.div */\n      tag_144\n      swap1\n        /* \"Farm.sol\":31256:31264  e.div(2) */\n      swap2\n      swap1\n      0xffffffff\n      and\n      jump\t// in\n    tag_186:\n        /* \"Farm.sol\":31249:31252  pow */\n      tag_69\n        /* \"Farm.sol\":31249:31265  pow(n, e.div(2)) */\n      jump\t// in\n    tag_185:\n        /* \"Farm.sol\":31240:31265  uint p = pow(n, e.div(2)) */\n      swap1\n      pop\n        /* \"Farm.sol\":31284:31292  p.mul(p) */\n      tag_187\n        /* \"Farm.sol\":31290:31291  p */\n      dup2\n        /* \"Farm.sol\":31284:31285  p */\n      dup3\n        /* \"Farm.sol\":31284:31289  p.mul */\n      tag_145\n      swap1\n        /* \"Farm.sol\":31284:31292  p.mul(p) */\n      swap2\n      swap1\n      0xffffffff\n      and\n      jump\t// in\n    tag_187:\n        /* \"Farm.sol\":31280:31292  p = p.mul(p) */\n      swap1\n      pop\n        /* \"Farm.sol\":31323:31324  1 */\n      0x01\n        /* \"Farm.sol\":31311:31319  e.mod(2) */\n      tag_188\n        /* \"Farm.sol\":31317:31318  2 */\n      0x02\n        /* \"Farm.sol\":31311:31312  e */\n      dup6\n        /* \"Farm.sol\":31311:31316  e.mod */\n      tag_146\n      swap1\n        /* \"Farm.sol\":31311:31319  e.mod(2) */\n      swap2\n      swap1\n      0xffffffff\n      and\n      jump\t// in\n    tag_188:\n        /* \"Farm.sol\":31311:31324  e.mod(2) == 1 */\n      eq\n        /* \"Farm.sol\":31307:31373  if (e.mod(2) == 1) {\r... */\n      iszero\n      tag_189\n      jumpi\n        /* \"Farm.sol\":31349:31357  p.mul(n) */\n      tag_190\n        /* \"Farm.sol\":31355:31356  n */\n      dup5\n        /* \"Farm.sol\":31349:31350  p */\n      dup3\n        /* \"Farm.sol\":31349:31354  p.mul */\n      tag_145\n      swap1\n        /* \"Farm.sol\":31349:31357  p.mul(n) */\n      swap2\n      swap1\n      0xffffffff\n      and\n      jump\t// in\n    tag_190:\n        /* \"Farm.sol\":31345:31357  p = p.mul(n) */\n      swap1\n      pop\n        /* \"Farm.sol\":31307:31373  if (e.mod(2) == 1) {\r... */\n    tag_189:\n        /* \"Farm.sol\":31394:31395  p */\n      dup1\n        /* \"Farm.sol\":31387:31395  return p */\n      swap2\n      pop\n      pop\n        /* \"Farm.sol\":31050:31414  function pow(uint n, uint e) public pure returns (uint) {\r... */\n    tag_180:\n      swap3\n      swap2\n      pop\n      pop\n      jump\t// out\n        /* \"Farm.sol\":30083:30113  uint256 public rewardsDuration */\n    tag_72:\n      sload(0x06)\n      dup2\n      jump\t// out\n        /* \"Farm.sol\":34230:35359  function notifyRewardAmount(uint256 reward)\r... */\n    tag_76:\n        /* \"Farm.sol\":28167:28180  _checkOwner() */\n      tag_192\n        /* \"Farm.sol\":28167:28178  _checkOwner */\n      tag_193\n        /* \"Farm.sol\":28167:28180  _checkOwner() */\n      jump\t// in\n    tag_192:\n        /* \"Farm.sol\":34329:34330  0 */\n      0x00\n        /* \"Farm.sol\":36587:36603  rewardPerToken() */\n      tag_195\n        /* \"Farm.sol\":36587:36601  rewardPerToken */\n      tag_128\n        /* \"Farm.sol\":36587:36603  rewardPerToken() */\n      jump\t// in\n    tag_195:\n        /* \"Farm.sol\":36564:36584  rewardPerTokenStored */\n      0x08\n        /* \"Farm.sol\":36564:36603  rewardPerTokenStored = rewardPerToken() */\n      dup2\n      swap1\n      sstore\n      pop\n        /* \"Farm.sol\":36631:36657  lastTimeRewardApplicable() */\n      tag_196\n        /* \"Farm.sol\":36631:36655  lastTimeRewardApplicable */\n      tag_101\n        /* \"Farm.sol\":36631:36657  lastTimeRewardApplicable() */\n      jump\t// in\n    tag_196:\n        /* \"Farm.sol\":36614:36628  lastUpdateTime */\n      0x07\n        /* \"Farm.sol\":36614:36657  lastUpdateTime = lastTimeRewardApplicable() */\n      dup2\n      swap1\n      sstore\n      pop\n        /* \"Farm.sol\":36691:36692  0 */\n      0x00\n        /* \"Farm.sol\":36672:36693  account != address(0) */\n      0xffffffffffffffffffffffffffffffffffffffff\n      and\n        /* \"Farm.sol\":36672:36679  account */\n      dup2\n        /* \"Farm.sol\":36672:36693  account != address(0) */\n      0xffffffffffffffffffffffffffffffffffffffff\n      and\n      eq\n        /* \"Farm.sol\":36668:36825  if (account != address(0)) {\r... */\n      tag_197\n      jumpi\n        /* \"Farm.sol\":36729:36744  earned(account) */\n      tag_198\n        /* \"Farm.sol\":36736:36743  account */\n      dup2\n        /* \"Farm.sol\":36729:36735  earned */\n      tag_43\n        /* \"Farm.sol\":36729:36744  earned(account) */\n      jump\t// in\n    tag_198:\n        /* \"Farm.sol\":36710:36717  rewards */\n      0x0c\n        /* \"Farm.sol\":36710:36726  rewards[account] */\n      0x00\n        /* \"Farm.sol\":36718:36725  account */\n      dup4\n        /* \"Farm.sol\":36710:36726  rewards[account] */\n      0xffffffffffffffffffffffffffffffffffffffff\n      and\n      0xffffffffffffffffffffffffffffffffffffffff\n      and\n      dup2\n      mstore\n      0x20\n      add\n      swap1\n      dup2\n      mstore\n      0x20\n      add\n      0x00\n      keccak256\n        /* \"Farm.sol\":36710:36744  rewards[account] = earned(account) */\n      dup2\n      swap1\n      sstore\n      pop\n        /* \"Farm.sol\":36793:36813  rewardPerTokenStored */\n      sload(0x08)\n        /* \"Farm.sol\":36759:36781  userRewardPerTokenPaid */\n      0x0b\n        /* \"Farm.sol\":36759:36790  userRewardPerTokenPaid[account] */\n      0x00\n        /* \"Farm.sol\":36782:36789  account */\n      dup4\n        /* \"Farm.sol\":36759:36790  userRewardPerTokenPaid[account] */\n      0xffffffffffffffffffffffffffffffffffffffff\n      and\n      0xffffffffffffffffffffffffffffffffffffffff\n      and\n      dup2\n      mstore\n      0x20\n      add\n      swap1\n      dup2\n      mstore\n      0x20\n      add\n      0x00\n      keccak256\n        /* \"Farm.sol\":36759:36813  userRewardPerTokenPaid[account] = rewardPerTokenStored */\n      dup2\n      swap1\n      sstore\n      pop\n        /* \"Farm.sol\":36668:36825  if (account != address(0)) {\r... */\n    tag_197:\n        /* \"Farm.sol\":34372:34384  periodFinish */\n      sload(0x04)\n        /* \"Farm.sol\":34353:34368  block.timestamp */\n      timestamp\n        /* \"Farm.sol\":34353:34384  block.timestamp >= periodFinish */\n      lt\n        /* \"Farm.sol\":34349:34667  if (block.timestamp >= periodFinish) {\r... */\n      tag_200\n      jumpi\n        /* \"Farm.sol\":34414:34441  reward.div(rewardsDuration) */\n      tag_201\n        /* \"Farm.sol\":34425:34440  rewardsDuration */\n      sload(0x06)\n        /* \"Farm.sol\":34414:34420  reward */\n      dup4\n        /* \"Farm.sol\":34414:34424  reward.div */\n      tag_144\n      swap1\n        /* \"Farm.sol\":34414:34441  reward.div(rewardsDuration) */\n      swap2\n      swap1\n      0xffffffff\n      and\n      jump\t// in\n    tag_201:\n        /* \"Farm.sol\":34401:34411  rewardRate */\n      0x05\n        /* \"Farm.sol\":34401:34441  rewardRate = reward.div(rewardsDuration) */\n      dup2\n      swap1\n      sstore\n      pop\n        /* \"Farm.sol\":34349:34667  if (block.timestamp >= periodFinish) {\r... */\n      jump(tag_202)\n    tag_200:\n        /* \"Farm.sol\":34474:34491  uint256 remaining */\n      0x00\n        /* \"Farm.sol\":34494:34527  periodFinish.sub(block.timestamp) */\n      tag_203\n        /* \"Farm.sol\":34511:34526  block.timestamp */\n      timestamp\n        /* \"Farm.sol\":34494:34506  periodFinish */\n      sload(0x04)\n        /* \"Farm.sol\":34494:34510  periodFinish.sub */\n      tag_153\n      swap1\n        /* \"Farm.sol\":34494:34527  periodFinish.sub(block.timestamp) */\n      swap2\n      swap1\n      0xffffffff\n      and\n      jump\t// in\n    tag_203:\n        /* \"Farm.sol\":34474:34527  uint256 remaining = periodFinish.sub(block.timestamp) */\n      swap1\n      pop\n        /* \"Farm.sol\":34542:34558  uint256 leftover */\n      0x00\n        /* \"Farm.sol\":34561:34586  remaining.mul(rewardRate) */\n      tag_204\n        /* \"Farm.sol\":34575:34585  rewardRate */\n      sload(0x05)\n        /* \"Farm.sol\":34561:34570  remaining */\n      dup4\n        /* \"Farm.sol\":34561:34574  remaining.mul */\n      tag_145\n      swap1\n        /* \"Farm.sol\":34561:34586  remaining.mul(rewardRate) */\n      swap2\n      swap1\n      0xffffffff\n      and\n      jump\t// in\n    tag_204:\n        /* \"Farm.sol\":34542:34586  uint256 leftover = remaining.mul(rewardRate) */\n      swap1\n      pop\n        /* \"Farm.sol\":34614:34655  reward.add(leftover).div(rewardsDuration) */\n      tag_205\n        /* \"Farm.sol\":34639:34654  rewardsDuration */\n      sload(0x06)\n        /* \"Farm.sol\":34614:34634  reward.add(leftover) */\n      tag_206\n        /* \"Farm.sol\":34625:34633  leftover */\n      dup4\n        /* \"Farm.sol\":34614:34620  reward */\n      dup8\n        /* \"Farm.sol\":34614:34624  reward.add */\n      tag_154\n      swap1\n        /* \"Farm.sol\":34614:34634  reward.add(leftover) */\n      swap2\n      swap1\n      0xffffffff\n      and\n      jump\t// in\n    tag_206:\n        /* \"Farm.sol\":34614:34638  reward.add(leftover).div */\n      tag_144\n      swap1\n        /* \"Farm.sol\":34614:34655  reward.add(leftover).div(rewardsDuration) */\n      swap2\n      swap1\n      0xffffffff\n      and\n      jump\t// in\n    tag_205:\n        /* \"Farm.sol\":34601:34611  rewardRate */\n      0x05\n        /* \"Farm.sol\":34601:34655  rewardRate = reward.add(leftover).div(rewardsDuration) */\n      dup2\n      swap1\n      sstore\n      pop\n        /* \"Farm.sol\":34459:34667  {\r... */\n      pop\n      pop\n        /* \"Farm.sol\":34349:34667  if (block.timestamp >= periodFinish) {\r... */\n    tag_202:\n        /* \"Farm.sol\":35027:35042  uint256 balance */\n      0x00\n        /* \"Farm.sol\":35045:35057  rewardsToken */\n      0x02\n      0x00\n      swap1\n      sload\n      swap1\n      0x0100\n      exp\n      swap1\n      div\n      0xffffffffffffffffffffffffffffffffffffffff\n      and\n        /* \"Farm.sol\":35045:35067  rewardsToken.balanceOf */\n      0xffffffffffffffffffffffffffffffffffffffff\n      and\n      0x70a08231\n        /* \"Farm.sol\":35076:35080  this */\n      address\n        /* \"Farm.sol\":35045:35082  rewardsToken.balanceOf(address(this)) */\n      mload(0x40)\n      dup3\n      0xffffffff\n      and\n      0xe0\n      shl\n      dup2\n      mstore\n      0x04\n      add\n      tag_207\n      swap2\n      swap1\n      tag_114\n      jump\t// in\n    tag_207:\n      0x20\n      mload(0x40)\n      dup1\n      dup4\n      sub\n      dup2\n      dup7\n      dup1\n      extcodesize\n      iszero\n      dup1\n      iszero\n      tag_208\n      jumpi\n      0x00\n      dup1\n      revert\n    tag_208:\n      pop\n      gas\n      staticcall\n      iszero\n      dup1\n      iszero\n      tag_210\n      jumpi\n      returndatasize\n      0x00\n      dup1\n      returndatacopy\n      revert(0x00, returndatasize)\n    tag_210:\n      pop\n      pop\n      pop\n      pop\n      mload(0x40)\n      returndatasize\n      not(0x1f)\n      0x1f\n      dup3\n      add\n      and\n      dup3\n      add\n      dup1\n      0x40\n      mstore\n      pop\n      dup2\n      add\n      swap1\n      tag_211\n      swap2\n      swap1\n      tag_212\n      jump\t// in\n    tag_211:\n        /* \"Farm.sol\":35027:35082  uint256 balance = rewardsToken.balanceOf(address(this)) */\n      swap1\n      pop\n        /* \"Farm.sol\":35129:35157  balance.div(rewardsDuration) */\n      tag_213\n        /* \"Farm.sol\":35141:35156  rewardsDuration */\n      sload(0x06)\n        /* \"Farm.sol\":35129:35136  balance */\n      dup3\n        /* \"Farm.sol\":35129:35140  balance.div */\n      tag_144\n      swap1\n        /* \"Farm.sol\":35129:35157  balance.div(rewardsDuration) */\n      swap2\n      swap1\n      0xffffffff\n      and\n      jump\t// in\n    tag_213:\n        /* \"Farm.sol\":35115:35125  rewardRate */\n      sload(0x05)\n        /* \"Farm.sol\":35115:35157  rewardRate <= balance.div(rewardsDuration) */\n      gt\n      iszero\n        /* \"Farm.sol\":35093:35209  require(\r... */\n      tag_214\n      jumpi\n      mload(0x40)\n      0x08c379a000000000000000000000000000000000000000000000000000000000\n      dup2\n      mstore\n      0x04\n      add\n      tag_215\n      swap1\n      tag_216\n      jump\t// in\n    tag_215:\n      mload(0x40)\n      dup1\n      swap2\n      sub\n      swap1\n      revert\n    tag_214:\n        /* \"Farm.sol\":35239:35254  block.timestamp */\n      timestamp\n        /* \"Farm.sol\":35222:35236  lastUpdateTime */\n      0x07\n        /* \"Farm.sol\":35222:35254  lastUpdateTime = block.timestamp */\n      dup2\n      swap1\n      sstore\n      pop\n        /* \"Farm.sol\":35280:35316  block.timestamp.add(rewardsDuration) */\n      tag_217\n        /* \"Farm.sol\":35300:35315  rewardsDuration */\n      sload(0x06)\n        /* \"Farm.sol\":35280:35295  block.timestamp */\n      timestamp\n        /* \"Farm.sol\":35280:35299  block.timestamp.add */\n      tag_154\n      swap1\n        /* \"Farm.sol\":35280:35316  block.timestamp.add(rewardsDuration) */\n      swap2\n      swap1\n      0xffffffff\n      and\n      jump\t// in\n    tag_217:\n        /* \"Farm.sol\":35265:35277  periodFinish */\n      0x04\n        /* \"Farm.sol\":35265:35316  periodFinish = block.timestamp.add(rewardsDuration) */\n      dup2\n      swap1\n      sstore\n      pop\n        /* \"Farm.sol\":35332:35351  RewardAdded(reward) */\n      0xde88a922e0d3b88b24e9623efeb464919c6bf9f66857a65e2bfcf2ce87a9433d\n        /* \"Farm.sol\":35344:35350  reward */\n      dup4\n        /* \"Farm.sol\":35332:35351  RewardAdded(reward) */\n      mload(0x40)\n      tag_218\n      swap2\n      swap1\n      tag_45\n      jump\t// in\n    tag_218:\n      mload(0x40)\n      dup1\n      swap2\n      sub\n      swap1\n      log1\n        /* \"Farm.sol\":34338:35359  {\r... */\n      pop\n        /* \"Farm.sol\":28191:28192  _ */\n      pop\n        /* \"Farm.sol\":34230:35359  function notifyRewardAmount(uint256 reward)\r... */\n      pop\n      jump\t// out\n        /* \"Farm.sol\":33754:34061  function getReward() public nonReentrant updateReward(msg.sender) {\r... */\n    tag_78:\n        /* \"Farm.sol\":19226:19247  _nonReentrantBefore() */\n      tag_220\n        /* \"Farm.sol\":19226:19245  _nonReentrantBefore */\n      tag_163\n        /* \"Farm.sol\":19226:19247  _nonReentrantBefore() */\n      jump\t// in\n    tag_220:\n        /* \"Farm.sol\":33808:33818  msg.sender */\n      caller\n        /* \"Farm.sol\":36587:36603  rewardPerToken() */\n      tag_222\n        /* \"Farm.sol\":36587:36601  rewardPerToken */\n      tag_128\n        /* \"Farm.sol\":36587:36603  rewardPerToken() */\n      jump\t// in\n    tag_222:\n        /* \"Farm.sol\":36564:36584  rewardPerTokenStored */\n      0x08\n        /* \"Farm.sol\":36564:36603  rewardPerTokenStored = rewardPerToken() */\n      dup2\n      swap1\n      sstore\n      pop\n        /* \"Farm.sol\":36631:36657  lastTimeRewardApplicable() */\n      tag_223\n        /* \"Farm.sol\":36631:36655  lastTimeRewardApplicable */\n      tag_101\n        /* \"Farm.sol\":36631:36657  lastTimeRewardApplicable() */\n      jump\t// in\n    tag_223:\n        /* \"Farm.sol\":36614:36628  lastUpdateTime */\n      0x07\n        /* \"Farm.sol\":36614:36657  lastUpdateTime = lastTimeRewardApplicable() */\n      dup2\n      swap1\n      sstore\n      pop\n        /* \"Farm.sol\":36691:36692  0 */\n      0x00\n        /* \"Farm.sol\":36672:36693  account != address(0) */\n      0xffffffffffffffffffffffffffffffffffffffff\n      and\n        /* \"Farm.sol\":36672:36679  account */\n      dup2\n        /* \"Farm.sol\":36672:36693  account != address(0) */\n      0xffffffffffffffffffffffffffffffffffffffff\n      and\n      eq\n        /* \"Farm.sol\":36668:36825  if (account != address(0)) {\r... */\n      tag_224\n      jumpi\n        /* \"Farm.sol\":36729:36744  earned(account) */\n      tag_225\n        /* \"Farm.sol\":36736:36743  account */\n      dup2\n        /* \"Farm.sol\":36729:36735  earned */\n      tag_43\n        /* \"Farm.sol\":36729:36744  earned(account) */\n      jump\t// in\n    tag_225:\n        /* \"Farm.sol\":36710:36717  rewards */\n      0x0c\n        /* \"Farm.sol\":36710:36726  rewards[account] */\n      0x00\n        /* \"Farm.sol\":36718:36725  account */\n      dup4\n        /* \"Farm.sol\":36710:36726  rewards[account] */\n      0xffffffffffffffffffffffffffffffffffffffff\n      and\n      0xffffffffffffffffffffffffffffffffffffffff\n      and\n      dup2\n      mstore\n      0x20\n      add\n      swap1\n      dup2\n      mstore\n      0x20\n      add\n      0x00\n      keccak256\n        /* \"Farm.sol\":36710:36744  rewards[account] = earned(account) */\n      dup2\n      swap1\n      sstore\n      pop\n        /* \"Farm.sol\":36793:36813  rewardPerTokenStored */\n      sload(0x08)\n        /* \"Farm.sol\":36759:36781  userRewardPerTokenPaid */\n      0x0b\n        /* \"Farm.sol\":36759:36790  userRewardPerTokenPaid[account] */\n      0x00\n        /* \"Farm.sol\":36782:36789  account */\n      dup4\n        /* \"Farm.sol\":36759:36790  userRewardPerTokenPaid[account] */\n      0xffffffffffffffffffffffffffffffffffffffff\n      and\n      0xffffffffffffffffffffffffffffffffffffffff\n      and\n      dup2\n      mstore\n      0x20\n      add\n      swap1\n      dup2\n      mstore\n      0x20\n      add\n      0x00\n      keccak256\n        /* \"Farm.sol\":36759:36813  userRewardPerTokenPaid[account] = rewardPerTokenStored */\n      dup2\n      swap1\n      sstore\n      pop\n        /* \"Farm.sol\":36668:36825  if (account != address(0)) {\r... */\n    tag_224:\n        /* \"Farm.sol\":33831:33845  uint256 reward */\n      0x00\n        /* \"Farm.sol\":33848:33855  rewards */\n      0x0c\n        /* \"Farm.sol\":33848:33867  rewards[msg.sender] */\n      0x00\n        /* \"Farm.sol\":33856:33866  msg.sender */\n      caller\n        /* \"Farm.sol\":33848:33867  rewards[msg.sender] */\n      0xffffffffffffffffffffffffffffffffffffffff\n      and\n      0xffffffffffffffffffffffffffffffffffffffff\n      and\n      dup2\n      mstore\n      0x20\n      add\n      swap1\n      dup2\n      mstore\n      0x20\n      add\n      0x00\n      keccak256\n      sload\n        /* \"Farm.sol\":33831:33867  uint256 reward = rewards[msg.sender] */\n      swap1\n      pop\n        /* \"Farm.sol\":33891:33892  0 */\n      0x00\n        /* \"Farm.sol\":33882:33888  reward */\n      dup2\n        /* \"Farm.sol\":33882:33892  reward > 0 */\n      gt\n        /* \"Farm.sol\":33878:34054  if (reward > 0) {\r... */\n      iszero\n      tag_227\n      jumpi\n        /* \"Farm.sol\":33931:33932  0 */\n      0x00\n        /* \"Farm.sol\":33909:33916  rewards */\n      0x0c\n        /* \"Farm.sol\":33909:33928  rewards[msg.sender] */\n      0x00\n        /* \"Farm.sol\":33917:33927  msg.sender */\n      caller\n        /* \"Farm.sol\":33909:33928  rewards[msg.sender] */\n      0xffffffffffffffffffffffffffffffffffffffff\n      and\n      0xffffffffffffffffffffffffffffffffffffffff\n      and\n      dup2\n      mstore\n      0x20\n      add\n      swap1\n      dup2\n      mstore\n      0x20\n      add\n      0x00\n      keccak256\n        /* \"Farm.sol\":33909:33932  rewards[msg.sender] = 0 */\n      dup2\n      swap1\n      sstore\n      pop\n        /* \"Farm.sol\":33947:33992  rewardsToken.safeTransfer(msg.sender, reward) */\n      tag_228\n        /* \"Farm.sol\":33973:33983  msg.sender */\n      caller\n        /* \"Farm.sol\":33985:33991  reward */\n      dup3\n        /* \"Farm.sol\":33947:33959  rewardsToken */\n      0x02\n      0x00\n      swap1\n      sload\n      swap1\n      0x0100\n      exp\n      swap1\n      div\n      0xffffffffffffffffffffffffffffffffffffffff\n      and\n        /* \"Farm.sol\":33947:33972  rewardsToken.safeTransfer */\n      0xffffffffffffffffffffffffffffffffffffffff\n      and\n      tag_176\n      swap1\n        /* \"Farm.sol\":33947:33992  rewardsToken.safeTransfer(msg.sender, reward) */\n      swap3\n      swap2\n      swap1\n      0xffffffff\n      and\n      jump\t// in\n    tag_228:\n        /* \"Farm.sol\":34023:34033  msg.sender */\n      caller\n        /* \"Farm.sol\":34012:34042  RewardPaid(msg.sender, reward) */\n      0xffffffffffffffffffffffffffffffffffffffff\n      and\n      0xe2403640ba68fed3a2f88b7557551d1993f84b99bb10ff833f0cf8db0c5e0486\n        /* \"Farm.sol\":34035:34041  reward */\n      dup3\n        /* \"Farm.sol\":34012:34042  RewardPaid(msg.sender, reward) */\n      mload(0x40)\n      tag_229\n      swap2\n      swap1\n      tag_45\n      jump\t// in\n    tag_229:\n      mload(0x40)\n      dup1\n      swap2\n      sub\n      swap1\n      log2\n        /* \"Farm.sol\":33878:34054  if (reward > 0) {\r... */\n    tag_227:\n        /* \"Farm.sol\":33820:34061  {\r... */\n      pop\n        /* \"Farm.sol\":19258:19259  _ */\n      pop\n        /* \"Farm.sol\":19270:19290  _nonReentrantAfter() */\n      tag_230\n        /* \"Farm.sol\":19270:19288  _nonReentrantAfter */\n      tag_179\n        /* \"Farm.sol\":19270:19290  _nonReentrantAfter() */\n      jump\t// in\n    tag_230:\n        /* \"Farm.sol\":33754:34061  function getReward() public nonReentrant updateReward(msg.sender) {\r... */\n      jump\t// out\n        /* \"Farm.sol\":16842:16928  function paused() public view virtual returns (bool) {\r... */\n    tag_80:\n        /* \"Farm.sol\":16889:16893  bool */\n      0x00\n        /* \"Farm.sol\":16913:16920  _paused */\n      0x01\n      0x00\n      swap1\n      sload\n      swap1\n      0x0100\n      exp\n      swap1\n      div\n      0xff\n      and\n        /* \"Farm.sol\":16906:16920  return _paused */\n      swap1\n      pop\n        /* \"Farm.sol\":16842:16928  function paused() public view virtual returns (bool) {\r... */\n      swap1\n      jump\t// out\n        /* \"Farm.sol\":31422:31534  function balanceOf(address account) external view returns (uint256) {\r... */\n    tag_85:\n        /* \"Farm.sol\":31481:31488  uint256 */\n      0x00\n        /* \"Farm.sol\":31508:31517  _balances */\n      0x0e\n        /* \"Farm.sol\":31508:31526  _balances[account] */\n      0x00\n        /* \"Farm.sol\":31518:31525  account */\n      dup4\n        /* \"Farm.sol\":31508:31526  _balances[account] */\n      0xffffffffffffffffffffffffffffffffffffffff\n      and\n      0xffffffffffffffffffffffffffffffffffffffff\n      and\n      dup2\n      mstore\n      0x20\n      add\n      swap1\n      dup2\n      mstore\n      0x20\n      add\n      0x00\n      keccak256\n      sload\n        /* \"Farm.sol\":31501:31526  return _balances[account] */\n      swap1\n      pop\n        /* \"Farm.sol\":31422:31534  function balanceOf(address account) external view returns (uint256) {\r... */\n      swap2\n      swap1\n      pop\n      jump\t// out\n        /* \"Farm.sol\":28929:29032  function renounceOwnership() public virtual onlyOwner {\r... */\n    tag_88:\n        /* \"Farm.sol\":28167:28180  _checkOwner() */\n      tag_234\n        /* \"Farm.sol\":28167:28178  _checkOwner */\n      tag_193\n        /* \"Farm.sol\":28167:28180  _checkOwner() */\n      jump\t// in\n    tag_234:\n        /* \"Farm.sol\":28994:29024  _transferOwnership(address(0)) */\n      tag_236\n        /* \"Farm.sol\":29021:29022  0 */\n      0x00\n        /* \"Farm.sol\":28994:29012  _transferOwnership */\n      tag_237\n        /* \"Farm.sol\":28994:29024  _transferOwnership(address(0)) */\n      jump\t// in\n    tag_236:\n        /* \"Farm.sol\":28929:29032  function renounceOwnership() public virtual onlyOwner {\r... */\n      jump\t// out\n        /* \"Farm.sol\":29976:30002  IERC20 public stakingToken */\n    tag_90:\n      0x03\n      0x00\n      swap1\n      sload\n      swap1\n      0x0100\n      exp\n      swap1\n      div\n      0xffffffffffffffffffffffffffffffffffffffff\n      and\n      dup2\n      jump\t// out\n        /* \"Farm.sol\":32472:32576  function min(uint256 a, uint256 b) public pure returns (uint256) {\r... */\n    tag_95:\n        /* \"Farm.sol\":32528:32535  uint256 */\n      0x00\n        /* \"Farm.sol\":32559:32560  b */\n      dup2\n        /* \"Farm.sol\":32555:32556  a */\n      dup4\n        /* \"Farm.sol\":32555:32560  a < b */\n      lt\n        /* \"Farm.sol\":32555:32568  a < b ? a : b */\n      tag_239\n      jumpi\n        /* \"Farm.sol\":32567:32568  b */\n      dup2\n        /* \"Farm.sol\":32555:32568  a < b ? a : b */\n      jump(tag_240)\n    tag_239:\n        /* \"Farm.sol\":32563:32564  a */\n      dup3\n        /* \"Farm.sol\":32555:32568  a < b ? a : b */\n    tag_240:\n        /* \"Farm.sol\":32548:32568  return a < b ? a : b */\n      swap1\n      pop\n        /* \"Farm.sol\":32472:32576  function min(uint256 a, uint256 b) public pure returns (uint256) {\r... */\n      swap3\n      swap2\n      pop\n      pop\n      jump\t// out\n        /* \"Farm.sol\":30047:30076  uint256 public rewardRate = 0 */\n    tag_98:\n      sload(0x05)\n      dup2\n      jump\t// out\n        /* \"Farm.sol\":31542:31668  function lastTimeRewardApplicable() public view returns (uint256) {\r... */\n    tag_101:\n        /* \"Farm.sol\":31599:31606  uint256 */\n      0x00\n        /* \"Farm.sol\":31626:31660  min(block.timestamp, periodFinish) */\n      tag_242\n        /* \"Farm.sol\":31630:31645  block.timestamp */\n      timestamp\n        /* \"Farm.sol\":31647:31659  periodFinish */\n      sload(0x04)\n        /* \"Farm.sol\":31626:31629  min */\n      tag_95\n        /* \"Farm.sol\":31626:31660  min(block.timestamp, periodFinish) */\n      jump\t// in\n    tag_242:\n        /* \"Farm.sol\":31619:31660  return min(block.timestamp, periodFinish) */\n      swap1\n      pop\n        /* \"Farm.sol\":31542:31668  function lastTimeRewardApplicable() public view returns (uint256) {\r... */\n      swap1\n      jump\t// out\n        /* \"Farm.sol\":35474:36093  function recoverERC20(address tokenAddress, uint256 tokenAmount)\r... */\n    tag_106:\n        /* \"Farm.sol\":28167:28180  _checkOwner() */\n      tag_244\n        /* \"Farm.sol\":28167:28178  _checkOwner */\n      tag_193\n        /* \"Farm.sol\":28167:28180  _checkOwner() */\n      jump\t// in\n    tag_244:\n        /* \"Farm.sol\":35696:35708  rewardsToken */\n      0x02\n      0x00\n      swap1\n      sload\n      swap1\n      0x0100\n      exp\n      swap1\n      div\n      0xffffffffffffffffffffffffffffffffffffffff\n      and\n        /* \"Farm.sol\":35672:35709  tokenAddress != address(rewardsToken) */\n      0xffffffffffffffffffffffffffffffffffffffff\n      and\n        /* \"Farm.sol\":35672:35684  tokenAddress */\n      dup3\n        /* \"Farm.sol\":35672:35709  tokenAddress != address(rewardsToken) */\n      0xffffffffffffffffffffffffffffffffffffffff\n      and\n      eq\n      iszero\n        /* \"Farm.sol\":35650:35771  require(\r... */\n      tag_246\n      jumpi\n      mload(0x40)\n      0x08c379a000000000000000000000000000000000000000000000000000000000\n      dup2\n      mstore\n      0x04\n      add\n      tag_247\n      swap1\n      tag_248\n      jump\t// in\n    tag_247:\n      mload(0x40)\n      dup1\n      swap2\n      sub\n      swap1\n      revert\n    tag_246:\n        /* \"Farm.sol\":35802:35803  0 */\n      0x00\n        /* \"Farm.sol\":35786:35798  _totalSupply */\n      sload(0x0d)\n        /* \"Farm.sol\":35786:35803  _totalSupply != 0 */\n      eq\n        /* \"Farm.sol\":35782:35965  if (_totalSupply != 0) {\r... */\n      tag_249\n      jumpi\n        /* \"Farm.sol\":35870:35882  stakingToken */\n      0x03\n      0x00\n      swap1\n      sload\n      swap1\n      0x0100\n      exp\n      swap1\n      div\n      0xffffffffffffffffffffffffffffffffffffffff\n      and\n        /* \"Farm.sol\":35846:35883  tokenAddress != address(stakingToken) */\n      0xffffffffffffffffffffffffffffffffffffffff\n      and\n        /* \"Farm.sol\":35846:35858  tokenAddress */\n      dup3\n        /* \"Farm.sol\":35846:35883  tokenAddress != address(stakingToken) */\n      0xffffffffffffffffffffffffffffffffffffffff\n      and\n      eq\n      iszero\n        /* \"Farm.sol\":35820:35953  require(\r... */\n      tag_250\n      jumpi\n      mload(0x40)\n      0x08c379a000000000000000000000000000000000000000000000000000000000\n      dup2\n      mstore\n      0x04\n      add\n      tag_251\n      swap1\n      tag_252\n      jump\t// in\n    tag_251:\n      mload(0x40)\n      dup1\n      swap2\n      sub\n      swap1\n      revert\n    tag_250:\n        /* \"Farm.sol\":35782:35965  if (_totalSupply != 0) {\r... */\n    tag_249:\n        /* \"Farm.sol\":35975:36033  IERC20(tokenAddress).safeTransfer(msg.sender, tokenAmount) */\n      tag_253\n        /* \"Farm.sol\":36009:36019  msg.sender */\n      caller\n        /* \"Farm.sol\":36021:36032  tokenAmount */\n      dup3\n        /* \"Farm.sol\":35982:35994  tokenAddress */\n      dup5\n        /* \"Farm.sol\":35975:36008  IERC20(tokenAddress).safeTransfer */\n      0xffffffffffffffffffffffffffffffffffffffff\n      and\n      tag_176\n      swap1\n        /* \"Farm.sol\":35975:36033  IERC20(tokenAddress).safeTransfer(msg.sender, tokenAmount) */\n      swap3\n      swap2\n      swap1\n      0xffffffff\n      and\n      jump\t// in\n    tag_253:\n        /* \"Farm.sol\":36049:36085  Recovered(tokenAddress, tokenAmount) */\n      0x8c1256b8896378cd5044f80c202f9772b9d77dc85c8a6eb51967210b09bfaa28\n        /* \"Farm.sol\":36059:36071  tokenAddress */\n      dup3\n        /* \"Farm.sol\":36073:36084  tokenAmount */\n      dup3\n        /* \"Farm.sol\":36049:36085  Recovered(tokenAddress, tokenAmount) */\n      mload(0x40)\n      tag_254\n      swap3\n      swap2\n      swap1\n      tag_255\n      jump\t// in\n    tag_254:\n      mload(0x40)\n      dup1\n      swap2\n      sub\n      swap1\n      log1\n        /* \"Farm.sol\":35474:36093  function recoverERC20(address tokenAddress, uint256 tokenAmount)\r... */\n      pop\n      pop\n      jump\t// out\n        /* \"Farm.sol\":30277:30334  mapping(address => uint256) public userRewardPerTokenPaid */\n    tag_109:\n      mstore(0x20, 0x0b)\n      dup1\n      0x00\n      mstore\n      keccak256(0x00, 0x40)\n      0x00\n      swap2\n      pop\n      swap1\n      pop\n      sload\n      dup2\n      jump\t// out\n        /* \"Farm.sol\":28281:28368  function owner() public view virtual returns (address) {\r... */\n    tag_112:\n        /* \"Farm.sol\":28327:28334  address */\n      0x00\n        /* \"Farm.sol\":28354:28360  _owner */\n      0x01\n      dup1\n      sload\n      swap1\n      0x0100\n      exp\n      swap1\n      div\n      0xffffffffffffffffffffffffffffffffffffffff\n      and\n        /* \"Farm.sol\":28347:28360  return _owner */\n      swap1\n      pop\n        /* \"Farm.sol\":28281:28368  function owner() public view virtual returns (address) {\r... */\n      swap1\n      jump\t// out\n        /* \"Farm.sol\":32951:33359  function stake(uint256 amount)\r... */\n    tag_117:\n        /* \"Farm.sol\":19226:19247  _nonReentrantBefore() */\n      tag_258\n        /* \"Farm.sol\":19226:19245  _nonReentrantBefore */\n      tag_163\n        /* \"Farm.sol\":19226:19247  _nonReentrantBefore() */\n      jump\t// in\n    tag_258:\n        /* \"Farm.sol\":16447:16466  _requireNotPaused() */\n      tag_260\n        /* \"Farm.sol\":16447:16464  _requireNotPaused */\n      tag_261\n        /* \"Farm.sol\":16447:16466  _requireNotPaused() */\n      jump\t// in\n    tag_260:\n        /* \"Farm.sol\":33051:33061  msg.sender */\n      caller\n        /* \"Farm.sol\":36587:36603  rewardPerToken() */\n      tag_263\n        /* \"Farm.sol\":36587:36601  rewardPerToken */\n      tag_128\n        /* \"Farm.sol\":36587:36603  rewardPerToken() */\n      jump\t// in\n    tag_263:\n        /* \"Farm.sol\":36564:36584  rewardPerTokenStored */\n      0x08\n        /* \"Farm.sol\":36564:36603  rewardPerTokenStored = rewardPerToken() */\n      dup2\n      swap1\n      sstore\n      pop\n        /* \"Farm.sol\":36631:36657  lastTimeRewardApplicable() */\n      tag_264\n        /* \"Farm.sol\":36631:36655  lastTimeRewardApplicable */\n      tag_101\n        /* \"Farm.sol\":36631:36657  lastTimeRewardApplicable() */\n      jump\t// in\n    tag_264:\n        /* \"Farm.sol\":36614:36628  lastUpdateTime */\n      0x07\n        /* \"Farm.sol\":36614:36657  lastUpdateTime = lastTimeRewardApplicable() */\n      dup2\n      swap1\n      sstore\n      pop\n        /* \"Farm.sol\":36691:36692  0 */\n      0x00\n        /* \"Farm.sol\":36672:36693  account != address(0) */\n      0xffffffffffffffffffffffffffffffffffffffff\n      and\n        /* \"Farm.sol\":36672:36679  account */\n      dup2\n        /* \"Farm.sol\":36672:36693  account != address(0) */\n      0xffffffffffffffffffffffffffffffffffffffff\n      and\n      eq\n        /* \"Farm.sol\":36668:36825  if (account != address(0)) {\r... */\n      tag_265\n      jumpi\n        /* \"Farm.sol\":36729:36744  earned(account) */\n      tag_266\n        /* \"Farm.sol\":36736:36743  account */\n      dup2\n        /* \"Farm.sol\":36729:36735  earned */\n      tag_43\n        /* \"Farm.sol\":36729:36744  earned(account) */\n      jump\t// in\n    tag_266:\n        /* \"Farm.sol\":36710:36717  rewards */\n      0x0c\n        /* \"Farm.sol\":36710:36726  rewards[account] */\n      0x00\n        /* \"Farm.sol\":36718:36725  account */\n      dup4\n        /* \"Farm.sol\":36710:36726  rewards[account] */\n      0xffffffffffffffffffffffffffffffffffffffff\n      and\n      0xffffffffffffffffffffffffffffffffffffffff\n      and\n      dup2\n      mstore\n      0x20\n      add\n      swap1\n      dup2\n      mstore\n      0x20\n      add\n      0x00\n      keccak256\n        /* \"Farm.sol\":36710:36744  rewards[account] = earned(account) */\n      dup2\n      swap1\n      sstore\n      pop\n        /* \"Farm.sol\":36793:36813  rewardPerTokenStored */\n      sload(0x08)\n        /* \"Farm.sol\":36759:36781  userRewardPerTokenPaid */\n      0x0b\n        /* \"Farm.sol\":36759:36790  userRewardPerTokenPaid[account] */\n      0x00\n        /* \"Farm.sol\":36782:36789  account */\n      dup4\n        /* \"Farm.sol\":36759:36790  userRewardPerTokenPaid[account] */\n      0xffffffffffffffffffffffffffffffffffffffff\n      and\n      0xffffffffffffffffffffffffffffffffffffffff\n      and\n      dup2\n      mstore\n      0x20\n      add\n      swap1\n      dup2\n      mstore\n      0x20\n      add\n      0x00\n      keccak256\n        /* \"Farm.sol\":36759:36813  userRewardPerTokenPaid[account] = rewardPerTokenStored */\n      dup2\n      swap1\n      sstore\n      pop\n        /* \"Farm.sol\":36668:36825  if (account != address(0)) {\r... */\n    tag_265:\n        /* \"Farm.sol\":33096:33097  0 */\n      0x00\n        /* \"Farm.sol\":33087:33093  amount */\n      dup3\n        /* \"Farm.sol\":33087:33097  amount > 0 */\n      gt\n        /* \"Farm.sol\":33079:33116  require(amount > 0, \"Cannot stake 0\") */\n      tag_268\n      jumpi\n      mload(0x40)\n      0x08c379a000000000000000000000000000000000000000000000000000000000\n      dup2\n      mstore\n      0x04\n      add\n      tag_269\n      swap1\n      tag_270\n      jump\t// in\n    tag_269:\n      mload(0x40)\n      dup1\n      swap2\n      sub\n      swap1\n      revert\n    tag_268:\n        /* \"Farm.sol\":33142:33166  _totalSupply.add(amount) */\n      tag_271\n        /* \"Farm.sol\":33159:33165  amount */\n      dup3\n        /* \"Farm.sol\":33142:33154  _totalSupply */\n      sload(0x0d)\n        /* \"Farm.sol\":33142:33158  _totalSupply.add */\n      tag_154\n      swap1\n        /* \"Farm.sol\":33142:33166  _totalSupply.add(amount) */\n      swap2\n      swap1\n      0xffffffff\n      and\n      jump\t// in\n    tag_271:\n        /* \"Farm.sol\":33127:33139  _totalSupply */\n      0x0d\n        /* \"Farm.sol\":33127:33166  _totalSupply = _totalSupply.add(amount) */\n      dup2\n      swap1\n      sstore\n      pop\n        /* \"Farm.sol\":33201:33234  _balances[msg.sender].add(amount) */\n      tag_272\n        /* \"Farm.sol\":33227:33233  amount */\n      dup3\n        /* \"Farm.sol\":33201:33210  _balances */\n      0x0e\n        /* \"Farm.sol\":33201:33222  _balances[msg.sender] */\n      0x00\n        /* \"Farm.sol\":33211:33221  msg.sender */\n      caller\n        /* \"Farm.sol\":33201:33222  _balances[msg.sender] */\n      0xffffffffffffffffffffffffffffffffffffffff\n      and\n      0xffffffffffffffffffffffffffffffffffffffff\n      and\n      dup2\n      mstore\n      0x20\n      add\n      swap1\n      dup2\n      mstore\n      0x20\n      add\n      0x00\n      keccak256\n      sload\n        /* \"Farm.sol\":33201:33226  _balances[msg.sender].add */\n      tag_154\n      swap1\n        /* \"Farm.sol\":33201:33234  _balances[msg.sender].add(amount) */\n      swap2\n      swap1\n      0xffffffff\n      and\n      jump\t// in\n    tag_272:\n        /* \"Farm.sol\":33177:33186  _balances */\n      0x0e\n        /* \"Farm.sol\":33177:33198  _balances[msg.sender] */\n      0x00\n        /* \"Farm.sol\":33187:33197  msg.sender */\n      caller\n        /* \"Farm.sol\":33177:33198  _balances[msg.sender] */\n      0xffffffffffffffffffffffffffffffffffffffff\n      and\n      0xffffffffffffffffffffffffffffffffffffffff\n      and\n      dup2\n      mstore\n      0x20\n      add\n      swap1\n      dup2\n      mstore\n      0x20\n      add\n      0x00\n      keccak256\n        /* \"Farm.sol\":33177:33234  _balances[msg.sender] = _balances[msg.sender].add(amount) */\n      dup2\n      swap1\n      sstore\n      pop\n        /* \"Farm.sol\":33245:33309  stakingToken.safeTransferFrom(msg.sender, address(this), amount) */\n      tag_273\n        /* \"Farm.sol\":33275:33285  msg.sender */\n      caller\n        /* \"Farm.sol\":33295:33299  this */\n      address\n        /* \"Farm.sol\":33302:33308  amount */\n      dup5\n        /* \"Farm.sol\":33245:33257  stakingToken */\n      0x03\n      0x00\n      swap1\n      sload\n      swap1\n      0x0100\n      exp\n      swap1\n      div\n      0xffffffffffffffffffffffffffffffffffffffff\n      and\n        /* \"Farm.sol\":33245:33274  stakingToken.safeTransferFrom */\n      0xffffffffffffffffffffffffffffffffffffffff\n      and\n      tag_274\n      swap1\n        /* \"Farm.sol\":33245:33309  stakingToken.safeTransferFrom(msg.sender, address(this), amount) */\n      swap4\n      swap3\n      swap2\n      swap1\n      0xffffffff\n      and\n      jump\t// in\n    tag_273:\n        /* \"Farm.sol\":33332:33342  msg.sender */\n      caller\n        /* \"Farm.sol\":33325:33351  Staked(msg.sender, amount) */\n      0xffffffffffffffffffffffffffffffffffffffff\n      and\n      0x9e71bc8eea02a63969f509818f2dafb9254532904319f9dbda79b67bd34a5f3d\n        /* \"Farm.sol\":33344:33350  amount */\n      dup4\n        /* \"Farm.sol\":33325:33351  Staked(msg.sender, amount) */\n      mload(0x40)\n      tag_275\n      swap2\n      swap1\n      tag_45\n      jump\t// in\n    tag_275:\n      mload(0x40)\n      dup1\n      swap2\n      sub\n      swap1\n      log2\n        /* \"Farm.sol\":16477:16478  _ */\n      pop\n        /* \"Farm.sol\":19270:19290  _nonReentrantAfter() */\n      tag_276\n        /* \"Farm.sol\":19270:19288  _nonReentrantAfter */\n      tag_179\n        /* \"Farm.sol\":19270:19290  _nonReentrantAfter() */\n      jump\t// in\n    tag_276:\n        /* \"Farm.sol\":32951:33359  function stake(uint256 amount)\r... */\n      pop\n      jump\t// out\n        /* \"Farm.sol\":30198:30237  uint256 public stakingTokensDecimalRate */\n    tag_119:\n      sload(0x09)\n      dup2\n      jump\t// out\n        /* \"Farm.sol\":30120:30149  uint256 public lastUpdateTime */\n    tag_122:\n      sload(0x07)\n      dup2\n      jump\t// out\n        /* \"Farm.sol\":36101:36461  function setRewardsDuration(uint256 _rewardsDuration) external onlyOwner {\r... */\n    tag_126:\n        /* \"Farm.sol\":28167:28180  _checkOwner() */\n      tag_278\n        /* \"Farm.sol\":28167:28178  _checkOwner */\n      tag_193\n        /* \"Farm.sol\":28167:28180  _checkOwner() */\n      jump\t// in\n    tag_278:\n        /* \"Farm.sol\":36225:36237  periodFinish */\n      sload(0x04)\n        /* \"Farm.sol\":36207:36222  block.timestamp */\n      timestamp\n        /* \"Farm.sol\":36207:36237  block.timestamp > periodFinish */\n      gt\n        /* \"Farm.sol\":36185:36353  require(\r... */\n      tag_280\n      jumpi\n      mload(0x40)\n      0x08c379a000000000000000000000000000000000000000000000000000000000\n      dup2\n      mstore\n      0x04\n      add\n      tag_281\n      swap1\n      tag_282\n      jump\t// in\n    tag_281:\n      mload(0x40)\n      dup1\n      swap2\n      sub\n      swap1\n      revert\n    tag_280:\n        /* \"Farm.sol\":36382:36398  _rewardsDuration */\n      dup1\n        /* \"Farm.sol\":36364:36379  rewardsDuration */\n      0x06\n        /* \"Farm.sol\":36364:36398  rewardsDuration = _rewardsDuration */\n      dup2\n      swap1\n      sstore\n      pop\n        /* \"Farm.sol\":36414:36453  RewardsDurationUpdated(rewardsDuration) */\n      0xfb46ca5a5e06d4540d6387b930a7c978bce0db5f449ec6b3f5d07c6e1d44f2d3\n        /* \"Farm.sol\":36437:36452  rewardsDuration */\n      sload(0x06)\n        /* \"Farm.sol\":36414:36453  RewardsDurationUpdated(rewardsDuration) */\n      mload(0x40)\n      tag_283\n      swap2\n      swap1\n      tag_45\n      jump\t// in\n    tag_283:\n      mload(0x40)\n      dup1\n      swap2\n      sub\n      swap1\n      log1\n        /* \"Farm.sol\":36101:36461  function setRewardsDuration(uint256 _rewardsDuration) external onlyOwner {\r... */\n      pop\n      jump\t// out\n        /* \"Farm.sol\":31676:32070  function rewardPerToken() public view returns (uint256) {\r... */\n    tag_128:\n        /* \"Farm.sol\":31723:31730  uint256 */\n      0x00\n        /* \"Farm.sol\":31763:31764  0 */\n      dup1\n        /* \"Farm.sol\":31747:31759  _totalSupply */\n      sload(0x0d)\n        /* \"Farm.sol\":31747:31764  _totalSupply == 0 */\n      eq\n        /* \"Farm.sol\":31743:31820  if (_totalSupply == 0) {\r... */\n      iszero\n      tag_285\n      jumpi\n        /* \"Farm.sol\":31788:31808  rewardPerTokenStored */\n      sload(0x08)\n        /* \"Farm.sol\":31781:31808  return rewardPerTokenStored */\n      swap1\n      pop\n      jump(tag_284)\n        /* \"Farm.sol\":31743:31820  if (_totalSupply == 0) {\r... */\n    tag_285:\n        /* \"Farm.sol\":31846:32062  rewardPerTokenStored.add(\r... */\n      tag_286\n        /* \"Farm.sol\":31885:32051  lastTimeRewardApplicable()\r... */\n      tag_287\n        /* \"Farm.sol\":32038:32050  _totalSupply */\n      sload(0x0d)\n        /* \"Farm.sol\":31885:32019  lastTimeRewardApplicable()\r... */\n      tag_288\n        /* \"Farm.sol\":31994:32018  stakingTokensDecimalRate */\n      sload(0x09)\n        /* \"Farm.sol\":31885:31975  lastTimeRewardApplicable()\r... */\n      tag_289\n        /* \"Farm.sol\":31964:31974  rewardRate */\n      sload(0x05)\n        /* \"Farm.sol\":31885:31945  lastTimeRewardApplicable()\r... */\n      tag_290\n        /* \"Farm.sol\":31930:31944  lastUpdateTime */\n      sload(0x07)\n        /* \"Farm.sol\":31885:31911  lastTimeRewardApplicable() */\n      tag_291\n        /* \"Farm.sol\":31885:31909  lastTimeRewardApplicable */\n      tag_101\n        /* \"Farm.sol\":31885:31911  lastTimeRewardApplicable() */\n      jump\t// in\n    tag_291:\n        /* \"Farm.sol\":31885:31929  lastTimeRewardApplicable()\r... */\n      tag_153\n      swap1\n        /* \"Farm.sol\":31885:31945  lastTimeRewardApplicable()\r... */\n      swap2\n      swap1\n      0xffffffff\n      and\n      jump\t// in\n    tag_290:\n        /* \"Farm.sol\":31885:31963  lastTimeRewardApplicable()\r... */\n      tag_145\n      swap1\n        /* \"Farm.sol\":31885:31975  lastTimeRewardApplicable()\r... */\n      swap2\n      swap1\n      0xffffffff\n      and\n      jump\t// in\n    tag_289:\n        /* \"Farm.sol\":31885:31993  lastTimeRewardApplicable()\r... */\n      tag_145\n      swap1\n        /* \"Farm.sol\":31885:32019  lastTimeRewardApplicable()\r... */\n      swap2\n      swap1\n      0xffffffff\n      and\n      jump\t// in\n    tag_288:\n        /* \"Farm.sol\":31885:32037  lastTimeRewardApplicable()\r... */\n      tag_144\n      swap1\n        /* \"Farm.sol\":31885:32051  lastTimeRewardApplicable()\r... */\n      swap2\n      swap1\n      0xffffffff\n      and\n      jump\t// in\n    tag_287:\n        /* \"Farm.sol\":31846:31866  rewardPerTokenStored */\n      sload(0x08)\n        /* \"Farm.sol\":31846:31870  rewardPerTokenStored.add */\n      tag_154\n      swap1\n        /* \"Farm.sol\":31846:32062  rewardPerTokenStored.add(\r... */\n      swap2\n      swap1\n      0xffffffff\n      and\n      jump\t// in\n    tag_286:\n        /* \"Farm.sol\":31830:32062  return\r... */\n      swap1\n      pop\n        /* \"Farm.sol\":31676:32070  function rewardPerToken() public view returns (uint256) {\r... */\n    tag_284:\n      swap1\n      jump\t// out\n        /* \"Farm.sol\":29943:29969  IERC20 public rewardsToken */\n    tag_131:\n      0x02\n      0x00\n      swap1\n      sload\n      swap1\n      0x0100\n      exp\n      swap1\n      div\n      0xffffffffffffffffffffffffffffffffffffffff\n      and\n      dup2\n      jump\t// out\n        /* \"Farm.sol\":30156:30191  uint256 public rewardPerTokenStored */\n    tag_134:\n      sload(0x08)\n      dup2\n      jump\t// out\n        /* \"Farm.sol\":34069:34166  function exit() external {\r... */\n    tag_137:\n        /* \"Farm.sol\":34105:34136  withdraw(_balances[msg.sender]) */\n      tag_293\n        /* \"Farm.sol\":34114:34123  _balances */\n      0x0e\n        /* \"Farm.sol\":34114:34135  _balances[msg.sender] */\n      0x00\n        /* \"Farm.sol\":34124:34134  msg.sender */\n      caller\n        /* \"Farm.sol\":34114:34135  _balances[msg.sender] */\n      0xffffffffffffffffffffffffffffffffffffffff\n      and\n      0xffffffffffffffffffffffffffffffffffffffff\n      and\n      dup2\n      mstore\n      0x20\n      add\n      swap1\n      dup2\n      mstore\n      0x20\n      add\n      0x00\n      keccak256\n      sload\n        /* \"Farm.sol\":34105:34113  withdraw */\n      tag_65\n        /* \"Farm.sol\":34105:34136  withdraw(_balances[msg.sender]) */\n      jump\t// in\n    tag_293:\n        /* \"Farm.sol\":34147:34158  getReward() */\n      tag_294\n        /* \"Farm.sol\":34147:34156  getReward */\n      tag_78\n        /* \"Farm.sol\":34147:34158  getReward() */\n      jump\t// in\n    tag_294:\n        /* \"Farm.sol\":34069:34166  function exit() external {\r... */\n      jump\t// out\n        /* \"Farm.sol\":30009:30040  uint256 public periodFinish = 0 */\n    tag_139:\n      sload(0x04)\n      dup2\n      jump\t// out\n        /* \"Farm.sol\":29187:29388  function transferOwnership(address newOwner) public virtual onlyOwner {\r... */\n    tag_143:\n        /* \"Farm.sol\":28167:28180  _checkOwner() */\n      tag_296\n        /* \"Farm.sol\":28167:28178  _checkOwner */\n      tag_193\n        /* \"Farm.sol\":28167:28180  _checkOwner() */\n      jump\t// in\n    tag_296:\n        /* \"Farm.sol\":29296:29297  0 */\n      0x00\n        /* \"Farm.sol\":29276:29298  newOwner != address(0) */\n      0xffffffffffffffffffffffffffffffffffffffff\n      and\n        /* \"Farm.sol\":29276:29284  newOwner */\n      dup2\n        /* \"Farm.sol\":29276:29298  newOwner != address(0) */\n      0xffffffffffffffffffffffffffffffffffffffff\n      and\n      eq\n      iszero\n        /* \"Farm.sol\":29268:29341  require(newOwner != address(0), \"Ownable: new owner is the zero address\") */\n      tag_298\n      jumpi\n      mload(0x40)\n      0x08c379a000000000000000000000000000000000000000000000000000000000\n      dup2\n      mstore\n      0x04\n      add\n      tag_299\n      swap1\n      tag_300\n      jump\t// in\n    tag_299:\n      mload(0x40)\n      dup1\n      swap2\n      sub\n      swap1\n      revert\n    tag_298:\n        /* \"Farm.sol\":29352:29380  _transferOwnership(newOwner) */\n      tag_301\n        /* \"Farm.sol\":29371:29379  newOwner */\n      dup2\n        /* \"Farm.sol\":29352:29370  _transferOwnership */\n      tag_237\n        /* \"Farm.sol\":29352:29380  _transferOwnership(newOwner) */\n      jump\t// in\n    tag_301:\n        /* \"Farm.sol\":29187:29388  function transferOwnership(address newOwner) public virtual onlyOwner {\r... */\n      pop\n      jump\t// out\n        /* \"Farm.sol\":22387:22519  function div(uint256 a, uint256 b) internal pure returns (uint256) {\r... */\n    tag_144:\n        /* \"Farm.sol\":22445:22452  uint256 */\n      0x00\n        /* \"Farm.sol\":22472:22511  div(a, b, \"SafeMath: division by zero\") */\n      tag_303\n        /* \"Farm.sol\":22476:22477  a */\n      dup4\n        /* \"Farm.sol\":22479:22480  b */\n      dup4\n        /* \"Farm.sol\":22472:22511  div(a, b, \"SafeMath: division by zero\") */\n      mload(0x40)\n      dup1\n      0x40\n      add\n      0x40\n      mstore\n      dup1\n      0x1a\n      dup2\n      mstore\n      0x20\n      add\n      0x536166654d6174683a206469766973696f6e206279207a65726f000000000000\n      dup2\n      mstore\n      pop\n        /* \"Farm.sol\":22472:22475  div */\n      tag_304\n        /* \"Farm.sol\":22472:22511  div(a, b, \"SafeMath: division by zero\") */\n      jump\t// in\n    tag_303:\n        /* \"Farm.sol\":22465:22511  return div(a, b, \"SafeMath: division by zero\") */\n      swap1\n      pop\n        /* \"Farm.sol\":22387:22519  function div(uint256 a, uint256 b) internal pure returns (uint256) {\r... */\n      swap3\n      swap2\n      pop\n      pop\n      jump\t// out\n        /* \"Farm.sol\":21440:21911  function mul(uint256 a, uint256 b) internal pure returns (uint256) {\r... */\n    tag_145:\n        /* \"Farm.sol\":21498:21505  uint256 */\n      0x00\n        /* \"Farm.sol\":21748:21749  0 */\n      dup1\n        /* \"Farm.sol\":21743:21744  a */\n      dup4\n        /* \"Farm.sol\":21743:21749  a == 0 */\n      eq\n        /* \"Farm.sol\":21739:21786  if (a == 0) {\r... */\n      iszero\n      tag_306\n      jumpi\n        /* \"Farm.sol\":21773:21774  0 */\n      0x00\n        /* \"Farm.sol\":21766:21774  return 0 */\n      swap1\n      pop\n      jump(tag_305)\n        /* \"Farm.sol\":21739:21786  if (a == 0) {\r... */\n    tag_306:\n        /* \"Farm.sol\":21798:21807  uint256 c */\n      0x00\n        /* \"Farm.sol\":21814:21815  b */\n      dup3\n        /* \"Farm.sol\":21810:21811  a */\n      dup5\n        /* \"Farm.sol\":21810:21815  a * b */\n      tag_307\n      swap2\n      swap1\n      tag_308\n      jump\t// in\n    tag_307:\n        /* \"Farm.sol\":21798:21815  uint256 c = a * b */\n      swap1\n      pop\n        /* \"Farm.sol\":21843:21844  b */\n      dup3\n        /* \"Farm.sol\":21838:21839  a */\n      dup5\n        /* \"Farm.sol\":21834:21835  c */\n      dup3\n        /* \"Farm.sol\":21834:21839  c / a */\n      tag_309\n      swap2\n      swap1\n      tag_310\n      jump\t// in\n    tag_309:\n        /* \"Farm.sol\":21834:21844  c / a == b */\n      eq\n        /* \"Farm.sol\":21826:21882  require(c / a == b, \"SafeMath: multiplication overflow\") */\n      tag_311\n      jumpi\n      mload(0x40)\n      0x08c379a000000000000000000000000000000000000000000000000000000000\n      dup2\n      mstore\n      0x04\n      add\n      tag_312\n      swap1\n      tag_313\n      jump\t// in\n    tag_312:\n      mload(0x40)\n      dup1\n      swap2\n      sub\n      swap1\n      revert\n    tag_311:\n        /* \"Farm.sol\":21902:21903  c */\n      dup1\n        /* \"Farm.sol\":21895:21903  return c */\n      swap2\n      pop\n      pop\n        /* \"Farm.sol\":21440:21911  function mul(uint256 a, uint256 b) internal pure returns (uint256) {\r... */\n    tag_305:\n      swap3\n      swap2\n      pop\n      pop\n      jump\t// out\n        /* \"Farm.sol\":23758:23888  function mod(uint256 a, uint256 b) internal pure returns (uint256) {\r... */\n    tag_146:\n        /* \"Farm.sol\":23816:23823  uint256 */\n      0x00\n        /* \"Farm.sol\":23843:23880  mod(a, b, \"SafeMath: modulo by zero\") */\n      tag_315\n        /* \"Farm.sol\":23847:23848  a */\n      dup4\n        /* \"Farm.sol\":23850:23851  b */\n      dup4\n        /* \"Farm.sol\":23843:23880  mod(a, b, \"SafeMath: modulo by zero\") */\n      mload(0x40)\n      dup1\n      0x40\n      add\n      0x40\n      mstore\n      dup1\n      0x18\n      dup2\n      mstore\n      0x20\n      add\n      0x536166654d6174683a206d6f64756c6f206279207a65726f0000000000000000\n      dup2\n      mstore\n      pop\n        /* \"Farm.sol\":23843:23846  mod */\n      tag_316\n        /* \"Farm.sol\":23843:23880  mod(a, b, \"SafeMath: modulo by zero\") */\n      jump\t// in\n    tag_315:\n        /* \"Farm.sol\":23836:23880  return mod(a, b, \"SafeMath: modulo by zero\") */\n      swap1\n      pop\n        /* \"Farm.sol\":23758:23888  function mod(uint256 a, uint256 b) internal pure returns (uint256) {\r... */\n      swap3\n      swap2\n      pop\n      pop\n      jump\t// out\n        /* \"Farm.sol\":20550:20686  function sub(uint256 a, uint256 b) internal pure returns (uint256) {\r... */\n    tag_153:\n        /* \"Farm.sol\":20608:20615  uint256 */\n      0x00\n        /* \"Farm.sol\":20635:20678  sub(a, b, \"SafeMath: subtraction overflow\") */\n      tag_318\n        /* \"Farm.sol\":20639:20640  a */\n      dup4\n        /* \"Farm.sol\":20642:20643  b */\n      dup4\n        /* \"Farm.sol\":20635:20678  sub(a, b, \"SafeMath: subtraction overflow\") */\n      mload(0x40)\n      dup1\n      0x40\n      add\n      0x40\n      mstore\n      dup1\n      0x1e\n      dup2\n      mstore\n      0x20\n      add\n      0x536166654d6174683a207375627472616374696f6e206f766572666c6f770000\n      dup2\n      mstore\n      pop\n        /* \"Farm.sol\":20635:20638  sub */\n      tag_319\n        /* \"Farm.sol\":20635:20678  sub(a, b, \"SafeMath: subtraction overflow\") */\n      jump\t// in\n    tag_318:\n        /* \"Farm.sol\":20628:20678  return sub(a, b, \"SafeMath: subtraction overflow\") */\n      swap1\n      pop\n        /* \"Farm.sol\":20550:20686  function sub(uint256 a, uint256 b) internal pure returns (uint256) {\r... */\n      swap3\n      swap2\n      pop\n      pop\n      jump\t// out\n        /* \"Farm.sol\":20086:20267  function add(uint256 a, uint256 b) internal pure returns (uint256) {\r... */\n    tag_154:\n        /* \"Farm.sol\":20144:20151  uint256 */\n      0x00\n        /* \"Farm.sol\":20164:20173  uint256 c */\n      dup1\n        /* \"Farm.sol\":20180:20181  b */\n      dup3\n        /* \"Farm.sol\":20176:20177  a */\n      dup5\n        /* \"Farm.sol\":20176:20181  a + b */\n      tag_321\n      swap2\n      swap1\n      tag_322\n      jump\t// in\n    tag_321:\n        /* \"Farm.sol\":20164:20181  uint256 c = a + b */\n      swap1\n      pop\n        /* \"Farm.sol\":20205:20206  a */\n      dup4\n        /* \"Farm.sol\":20200:20201  c */\n      dup2\n        /* \"Farm.sol\":20200:20206  c >= a */\n      lt\n      iszero\n        /* \"Farm.sol\":20192:20238  require(c >= a, \"SafeMath: addition overflow\") */\n      tag_323\n      jumpi\n      mload(0x40)\n      0x08c379a000000000000000000000000000000000000000000000000000000000\n      dup2\n      mstore\n      0x04\n      add\n      tag_324\n      swap1\n      tag_325\n      jump\t// in\n    tag_324:\n      mload(0x40)\n      dup1\n      swap2\n      sub\n      swap1\n      revert\n    tag_323:\n        /* \"Farm.sol\":20258:20259  c */\n      dup1\n        /* \"Farm.sol\":20251:20259  return c */\n      swap2\n      pop\n      pop\n        /* \"Farm.sol\":20086:20267  function add(uint256 a, uint256 b) internal pure returns (uint256) {\r... */\n      swap3\n      swap2\n      pop\n      pop\n      jump\t// out\n        /* \"Farm.sol\":19306:19595  function _nonReentrantBefore() private {\r... */\n    tag_163:\n        /* \"Farm.sol\":18708:18709  2 */\n      0x02\n        /* \"Farm.sol\":19436:19443  _status */\n      sload(0x00)\n        /* \"Farm.sol\":19436:19455  _status != _ENTERED */\n      eq\n      iszero\n        /* \"Farm.sol\":19428:19491  require(_status != _ENTERED, \"ReentrancyGuard: reentrant call\") */\n      tag_327\n      jumpi\n      mload(0x40)\n      0x08c379a000000000000000000000000000000000000000000000000000000000\n      dup2\n      mstore\n      0x04\n      add\n      tag_328\n      swap1\n      tag_329\n      jump\t// in\n    tag_328:\n      mload(0x40)\n      dup1\n      swap2\n      sub\n      swap1\n      revert\n    tag_327:\n        /* \"Farm.sol\":18708:18709  2 */\n      0x02\n        /* \"Farm.sol\":19569:19576  _status */\n      0x00\n        /* \"Farm.sol\":19569:19587  _status = _ENTERED */\n      dup2\n      swap1\n      sstore\n      pop\n        /* \"Farm.sol\":19306:19595  function _nonReentrantBefore() private {\r... */\n      jump\t// out\n        /* \"Farm.sol\":24638:24815  function safeTransfer(IERC20 token, address to, uint256 value) internal {\r... */\n    tag_176:\n        /* \"Farm.sol\":24721:24807  _callOptionalReturn(token, abi.encodeWithSelector(token.transfer.selector, to, value)) */\n      tag_331\n        /* \"Farm.sol\":24741:24746  token */\n      dup4\n        /* \"Farm.sol\":24771:24794  token.transfer.selector */\n      shl(0xe0, 0xa9059cbb)\n        /* \"Farm.sol\":24796:24798  to */\n      dup5\n        /* \"Farm.sol\":24800:24805  value */\n      dup5\n        /* \"Farm.sol\":24748:24806  abi.encodeWithSelector(token.transfer.selector, to, value) */\n      add(0x24, mload(0x40))\n      tag_332\n      swap3\n      swap2\n      swap1\n      tag_255\n      jump\t// in\n    tag_332:\n      mload(0x40)\n      0x20\n      dup2\n      dup4\n      sub\n      sub\n      dup2\n      mstore\n      swap1\n      0x40\n      mstore\n      swap1\n      not(0xffffffffffffffffffffffffffffffffffffffffffffffffffffffff)\n      and\n      0x20\n      dup3\n      add\n      dup1\n      mload\n      0xffffffffffffffffffffffffffffffffffffffffffffffffffffffff\n      dup4\n      dup2\n      dup4\n      and\n      or\n      dup4\n      mstore\n      pop\n      pop\n      pop\n      pop\n        /* \"Farm.sol\":24721:24740  _callOptionalReturn */\n      tag_333\n        /* \"Farm.sol\":24721:24807  _callOptionalReturn(token, abi.encodeWithSelector(token.transfer.selector, to, value)) */\n      jump\t// in\n    tag_331:\n        /* \"Farm.sol\":24638:24815  function safeTransfer(IERC20 token, address to, uint256 value) internal {\r... */\n      pop\n      pop\n      pop\n      jump\t// out\n        /* \"Farm.sol\":19603:19816  function _nonReentrantAfter() private {\r... */\n    tag_179:\n        /* \"Farm.sol\":18664:18665  1 */\n      0x01\n        /* \"Farm.sol\":19786:19793  _status */\n      0x00\n        /* \"Farm.sol\":19786:19808  _status = _NOT_ENTERED */\n      dup2\n      swap1\n      sstore\n      pop\n        /* \"Farm.sol\":19603:19816  function _nonReentrantAfter() private {\r... */\n      jump\t// out\n        /* \"Farm.sol\":28446:28578  function _checkOwner() internal view virtual {\r... */\n    tag_193:\n        /* \"Farm.sol\":28521:28533  _msgSender() */\n      tag_336\n        /* \"Farm.sol\":28521:28531  _msgSender */\n      tag_337\n        /* \"Farm.sol\":28521:28533  _msgSender() */\n      jump\t// in\n    tag_336:\n        /* \"Farm.sol\":28510:28533  owner() == _msgSender() */\n      0xffffffffffffffffffffffffffffffffffffffff\n      and\n        /* \"Farm.sol\":28510:28517  owner() */\n      tag_338\n        /* \"Farm.sol\":28510:28515  owner */\n      tag_112\n        /* \"Farm.sol\":28510:28517  owner() */\n      jump\t// in\n    tag_338:\n        /* \"Farm.sol\":28510:28533  owner() == _msgSender() */\n      0xffffffffffffffffffffffffffffffffffffffff\n      and\n      eq\n        /* \"Farm.sol\":28502:28570  require(owner() == _msgSender(), \"Ownable: caller is not the owner\") */\n      tag_339\n      jumpi\n      mload(0x40)\n      0x08c379a000000000000000000000000000000000000000000000000000000000\n      dup2\n      mstore\n      0x04\n      add\n      tag_340\n      swap1\n      tag_341\n      jump\t// in\n    tag_340:\n      mload(0x40)\n      dup1\n      swap2\n      sub\n      swap1\n      revert\n    tag_339:\n        /* \"Farm.sol\":28446:28578  function _checkOwner() internal view virtual {\r... */\n      jump\t// out\n        /* \"Farm.sol\":29548:29739  function _transferOwnership(address newOwner) internal virtual {\r... */\n    tag_237:\n        /* \"Farm.sol\":29622:29638  address oldOwner */\n      0x00\n        /* \"Farm.sol\":29641:29647  _owner */\n      0x01\n      dup1\n      sload\n      swap1\n      0x0100\n      exp\n      swap1\n      div\n      0xffffffffffffffffffffffffffffffffffffffff\n      and\n        /* \"Farm.sol\":29622:29647  address oldOwner = _owner */\n      swap1\n      pop\n        /* \"Farm.sol\":29667:29675  newOwner */\n      dup2\n        /* \"Farm.sol\":29658:29664  _owner */\n      0x01\n      dup1\n        /* \"Farm.sol\":29658:29675  _owner = newOwner */\n      0x0100\n      exp\n      dup2\n      sload\n      dup2\n      0xffffffffffffffffffffffffffffffffffffffff\n      mul\n      not\n      and\n      swap1\n      dup4\n      0xffffffffffffffffffffffffffffffffffffffff\n      and\n      mul\n      or\n      swap1\n      sstore\n      pop\n        /* \"Farm.sol\":29722:29730  newOwner */\n      dup2\n        /* \"Farm.sol\":29691:29731  OwnershipTransferred(oldOwner, newOwner) */\n      0xffffffffffffffffffffffffffffffffffffffff\n      and\n        /* \"Farm.sol\":29712:29720  oldOwner */\n      dup2\n        /* \"Farm.sol\":29691:29731  OwnershipTransferred(oldOwner, newOwner) */\n      0xffffffffffffffffffffffffffffffffffffffff\n      and\n      0x8be0079c531659141344cd1fd0a4f28419497f9722a3daafe3b4186f6b6457e0\n      mload(0x40)\n      mload(0x40)\n      dup1\n      swap2\n      sub\n      swap1\n      log3\n        /* \"Farm.sol\":29611:29739  {\r... */\n      pop\n        /* \"Farm.sol\":29548:29739  function _transferOwnership(address newOwner) internal virtual {\r... */\n      pop\n      jump\t// out\n        /* \"Farm.sol\":17001:17109  function _requireNotPaused() internal view virtual {\r... */\n    tag_261:\n        /* \"Farm.sol\":17072:17080  paused() */\n      tag_344\n        /* \"Farm.sol\":17072:17078  paused */\n      tag_80\n        /* \"Farm.sol\":17072:17080  paused() */\n      jump\t// in\n    tag_344:\n        /* \"Farm.sol\":17071:17080  !paused() */\n      iszero\n        /* \"Farm.sol\":17063:17101  require(!paused(), \"Pausable: paused\") */\n      tag_345\n      jumpi\n      mload(0x40)\n      0x08c379a000000000000000000000000000000000000000000000000000000000\n      dup2\n      mstore\n      0x04\n      add\n      tag_346\n      swap1\n      tag_347\n      jump\t// in\n    tag_346:\n      mload(0x40)\n      dup1\n      swap2\n      sub\n      swap1\n      revert\n    tag_345:\n        /* \"Farm.sol\":17001:17109  function _requireNotPaused() internal view virtual {\r... */\n      jump\t// out\n        /* \"Farm.sol\":24823:25028  function safeTransferFrom(IERC20 token, address from, address to, uint256 value) internal {\r... */\n    tag_274:\n        /* \"Farm.sol\":24924:25020  _callOptionalReturn(token, abi.encodeWithSelector(token.transferFrom.selector, from, to, value)) */\n      tag_349\n        /* \"Farm.sol\":24944:24949  token */\n      dup5\n        /* \"Farm.sol\":24974:25001  token.transferFrom.selector */\n      shl(0xe0, 0x23b872dd)\n        /* \"Farm.sol\":25003:25007  from */\n      dup6\n        /* \"Farm.sol\":25009:25011  to */\n      dup6\n        /* \"Farm.sol\":25013:25018  value */\n      dup6\n        /* \"Farm.sol\":24951:25019  abi.encodeWithSelector(token.transferFrom.selector, from, to, value) */\n      add(0x24, mload(0x40))\n      tag_350\n      swap4\n      swap3\n      swap2\n      swap1\n      tag_351\n      jump\t// in\n    tag_350:\n      mload(0x40)\n      0x20\n      dup2\n      dup4\n      sub\n      sub\n      dup2\n      mstore\n      swap1\n      0x40\n      mstore\n      swap1\n      not(0xffffffffffffffffffffffffffffffffffffffffffffffffffffffff)\n      and\n      0x20\n      dup3\n      add\n      dup1\n      mload\n      0xffffffffffffffffffffffffffffffffffffffffffffffffffffffff\n      dup4\n      dup2\n      dup4\n      and\n      or\n      dup4\n      mstore\n      pop\n      pop\n      pop\n      pop\n        /* \"Farm.sol\":24924:24943  _callOptionalReturn */\n      tag_333\n        /* \"Farm.sol\":24924:25020  _callOptionalReturn(token, abi.encodeWithSelector(token.transferFrom.selector, from, to, value)) */\n      jump\t// in\n    tag_349:\n        /* \"Farm.sol\":24823:25028  function safeTransferFrom(IERC20 token, address from, address to, uint256 value) internal {\r... */\n      pop\n      pop\n      pop\n      pop\n      jump\t// out\n        /* \"Farm.sol\":23015:23293  function div(uint256 a, uint256 b, string memory errorMessage) internal pure returns (uint256) {\r... */\n    tag_304:\n        /* \"Farm.sol\":23101:23108  uint256 */\n      0x00\n        /* \"Farm.sol\":23133:23134  0 */\n      dup1\n        /* \"Farm.sol\":23129:23130  b */\n      dup4\n        /* \"Farm.sol\":23129:23134  b > 0 */\n      gt\n        /* \"Farm.sol\":23136:23148  errorMessage */\n      dup3\n        /* \"Farm.sol\":23121:23149  require(b > 0, errorMessage) */\n      swap1\n      tag_353\n      jumpi\n      mload(0x40)\n      0x08c379a000000000000000000000000000000000000000000000000000000000\n      dup2\n      mstore\n      0x04\n      add\n      tag_354\n      swap2\n      swap1\n      tag_355\n      jump\t// in\n    tag_354:\n      mload(0x40)\n      dup1\n      swap2\n      sub\n      swap1\n      revert\n    tag_353:\n      pop\n        /* \"Farm.sol\":23160:23169  uint256 c */\n      0x00\n        /* \"Farm.sol\":23176:23177  b */\n      dup4\n        /* \"Farm.sol\":23172:23173  a */\n      dup6\n        /* \"Farm.sol\":23172:23177  a / b */\n      tag_356\n      swap2\n      swap1\n      tag_310\n      jump\t// in\n    tag_356:\n        /* \"Farm.sol\":23160:23177  uint256 c = a / b */\n      swap1\n      pop\n        /* \"Farm.sol\":23284:23285  c */\n      dup1\n        /* \"Farm.sol\":23277:23285  return c */\n      swap2\n      pop\n      pop\n        /* \"Farm.sol\":23015:23293  function div(uint256 a, uint256 b, string memory errorMessage) internal pure returns (uint256) {\r... */\n      swap4\n      swap3\n      pop\n      pop\n      pop\n      jump\t// out\n        /* \"Farm.sol\":24373:24539  function mod(uint256 a, uint256 b, string memory errorMessage) internal pure returns (uint256) {\r... */\n    tag_316:\n        /* \"Farm.sol\":24459:24466  uint256 */\n      0x00\n        /* \"Farm.sol\":24492:24493  0 */\n      dup1\n        /* \"Farm.sol\":24487:24488  b */\n      dup4\n        /* \"Farm.sol\":24487:24493  b != 0 */\n      eq\n      iszero\n        /* \"Farm.sol\":24495:24507  errorMessage */\n      dup3\n        /* \"Farm.sol\":24479:24508  require(b != 0, errorMessage) */\n      swap1\n      tag_358\n      jumpi\n      mload(0x40)\n      0x08c379a000000000000000000000000000000000000000000000000000000000\n      dup2\n      mstore\n      0x04\n      add\n      tag_359\n      swap2\n      swap1\n      tag_355\n      jump\t// in\n    tag_359:\n      mload(0x40)\n      dup1\n      swap2\n      sub\n      swap1\n      revert\n    tag_358:\n      pop\n        /* \"Farm.sol\":24530:24531  b */\n      dup3\n        /* \"Farm.sol\":24526:24527  a */\n      dup5\n        /* \"Farm.sol\":24526:24531  a % b */\n      tag_360\n      swap2\n      swap1\n      tag_361\n      jump\t// in\n    tag_360:\n        /* \"Farm.sol\":24519:24531  return a % b */\n      swap1\n      pop\n        /* \"Farm.sol\":24373:24539  function mod(uint256 a, uint256 b, string memory errorMessage) internal pure returns (uint256) {\r... */\n      swap4\n      swap3\n      pop\n      pop\n      pop\n      jump\t// out\n        /* \"Farm.sol\":20989:21181  function sub(uint256 a, uint256 b, string memory errorMessage) internal pure returns (uint256) {\r... */\n    tag_319:\n        /* \"Farm.sol\":21075:21082  uint256 */\n      0x00\n        /* \"Farm.sol\":21108:21109  a */\n      dup4\n        /* \"Farm.sol\":21103:21104  b */\n      dup4\n        /* \"Farm.sol\":21103:21109  b <= a */\n      gt\n      iszero\n        /* \"Farm.sol\":21111:21123  errorMessage */\n      dup3\n        /* \"Farm.sol\":21095:21124  require(b <= a, errorMessage) */\n      swap1\n      tag_363\n      jumpi\n      mload(0x40)\n      0x08c379a000000000000000000000000000000000000000000000000000000000\n      dup2\n      mstore\n      0x04\n      add\n      tag_364\n      swap2\n      swap1\n      tag_355\n      jump\t// in\n    tag_364:\n      mload(0x40)\n      dup1\n      swap2\n      sub\n      swap1\n      revert\n    tag_363:\n      pop\n        /* \"Farm.sol\":21135:21144  uint256 c */\n      0x00\n        /* \"Farm.sol\":21151:21152  b */\n      dup4\n        /* \"Farm.sol\":21147:21148  a */\n      dup6\n        /* \"Farm.sol\":21147:21152  a - b */\n      tag_365\n      swap2\n      swap1\n      tag_366\n      jump\t// in\n    tag_365:\n        /* \"Farm.sol\":21135:21152  uint256 c = a - b */\n      swap1\n      pop\n        /* \"Farm.sol\":21172:21173  c */\n      dup1\n        /* \"Farm.sol\":21165:21173  return c */\n      swap2\n      pop\n      pop\n        /* \"Farm.sol\":20989:21181  function sub(uint256 a, uint256 b, string memory errorMessage) internal pure returns (uint256) {\r... */\n      swap4\n      swap3\n      pop\n      pop\n      pop\n      jump\t// out\n        /* \"Farm.sol\":26943:27704  function _callOptionalReturn(IERC20 token, bytes memory data) private {\r... */\n    tag_333:\n        /* \"Farm.sol\":27367:27390  bytes memory returndata */\n      0x00\n        /* \"Farm.sol\":27393:27462  address(token).functionCall(data, \"SafeERC20: low-level call failed\") */\n      tag_368\n        /* \"Farm.sol\":27421:27425  data */\n      dup3\n        /* \"Farm.sol\":27393:27462  address(token).functionCall(data, \"SafeERC20: low-level call failed\") */\n      mload(0x40)\n      dup1\n      0x40\n      add\n      0x40\n      mstore\n      dup1\n      0x20\n      dup2\n      mstore\n      0x20\n      add\n      0x5361666545524332303a206c6f772d6c6576656c2063616c6c206661696c6564\n      dup2\n      mstore\n      pop\n        /* \"Farm.sol\":27401:27406  token */\n      dup6\n        /* \"Farm.sol\":27393:27420  address(token).functionCall */\n      0xffffffffffffffffffffffffffffffffffffffff\n      and\n      tag_369\n      swap1\n        /* \"Farm.sol\":27393:27462  address(token).functionCall(data, \"SafeERC20: low-level call failed\") */\n      swap3\n      swap2\n      swap1\n      0xffffffff\n      and\n      jump\t// in\n    tag_368:\n        /* \"Farm.sol\":27367:27462  bytes memory returndata = address(token).functionCall(data, \"SafeERC20: low-level call failed\") */\n      swap1\n      pop\n        /* \"Farm.sol\":27497:27498  0 */\n      0x00\n        /* \"Farm.sol\":27477:27487  returndata */\n      dup2\n        /* \"Farm.sol\":27477:27494  returndata.length */\n      mload\n        /* \"Farm.sol\":27477:27498  returndata.length > 0 */\n      gt\n        /* \"Farm.sol\":27473:27697  if (returndata.length > 0) { // Return data is optional\r... */\n      iszero\n      tag_370\n      jumpi\n        /* \"Farm.sol\":27619:27629  returndata */\n      dup1\n        /* \"Farm.sol\":27608:27638  abi.decode(returndata, (bool)) */\n      dup1\n      0x20\n      add\n      swap1\n      mload\n      dup2\n      add\n      swap1\n      tag_371\n      swap2\n      swap1\n      tag_372\n      jump\t// in\n    tag_371:\n        /* \"Farm.sol\":27600:27685  require(abi.decode(returndata, (bool)), \"SafeERC20: ERC20 operation did not succeed\") */\n      tag_373\n      jumpi\n      mload(0x40)\n      0x08c379a000000000000000000000000000000000000000000000000000000000\n      dup2\n      mstore\n      0x04\n      add\n      tag_374\n      swap1\n      tag_375\n      jump\t// in\n    tag_374:\n      mload(0x40)\n      dup1\n      swap2\n      sub\n      swap1\n      revert\n    tag_373:\n        /* \"Farm.sol\":27473:27697  if (returndata.length > 0) { // Return data is optional\r... */\n    tag_370:\n        /* \"Farm.sol\":27013:27704  {\r... */\n      pop\n        /* \"Farm.sol\":26943:27704  function _callOptionalReturn(IERC20 token, bytes memory data) private {\r... */\n      pop\n      pop\n      jump\t// out\n        /* \"Farm.sol\":15568:15666  function _msgSender() internal view virtual returns (address) {\r... */\n    tag_337:\n        /* \"Farm.sol\":15621:15628  address */\n      0x00\n        /* \"Farm.sol\":15648:15658  msg.sender */\n      caller\n        /* \"Farm.sol\":15641:15658  return msg.sender */\n      swap1\n      pop\n        /* \"Farm.sol\":15568:15666  function _msgSender() internal view virtual returns (address) {\r... */\n      swap1\n      jump\t// out\n        /* \"Farm.sol\":9557:9752  function functionCall(address target, bytes memory data, string memory errorMessage) internal returns (bytes memory) {\r... */\n    tag_369:\n        /* \"Farm.sol\":9660:9672  bytes memory */\n      0x60\n        /* \"Farm.sol\":9692:9744  functionCallWithValue(target, data, 0, errorMessage) */\n      tag_378\n        /* \"Farm.sol\":9714:9720  target */\n      dup5\n        /* \"Farm.sol\":9722:9726  data */\n      dup5\n        /* \"Farm.sol\":9728:9729  0 */\n      0x00\n        /* \"Farm.sol\":9731:9743  errorMessage */\n      dup6\n        /* \"Farm.sol\":9692:9713  functionCallWithValue */\n      tag_379\n        /* \"Farm.sol\":9692:9744  functionCallWithValue(target, data, 0, errorMessage) */\n      jump\t// in\n    tag_378:\n        /* \"Farm.sol\":9685:9744  return functionCallWithValue(target, data, 0, errorMessage) */\n      swap1\n      pop\n        /* \"Farm.sol\":9557:9752  function functionCall(address target, bytes memory data, string memory errorMessage) internal returns (bytes memory) {\r... */\n      swap4\n      swap3\n      pop\n      pop\n      pop\n      jump\t// out\n        /* \"Farm.sol\":10609:11139  function functionCallWithValue(address target, bytes memory data, uint256 value, string memory errorMessage) internal returns (bytes memory) {\r... */\n    tag_379:\n        /* \"Farm.sol\":10736:10748  bytes memory */\n      0x60\n        /* \"Farm.sol\":10794:10799  value */\n      dup3\n        /* \"Farm.sol\":10769:10790  address(this).balance */\n      selfbalance\n        /* \"Farm.sol\":10769:10799  address(this).balance >= value */\n      lt\n      iszero\n        /* \"Farm.sol\":10761:10842  require(address(this).balance >= value, \"Address: insufficient balance for call\") */\n      tag_381\n      jumpi\n      mload(0x40)\n      0x08c379a000000000000000000000000000000000000000000000000000000000\n      dup2\n      mstore\n      0x04\n      add\n      tag_382\n      swap1\n      tag_383\n      jump\t// in\n    tag_382:\n      mload(0x40)\n      dup1\n      swap2\n      sub\n      swap1\n      revert\n    tag_381:\n        /* \"Farm.sol\":10861:10879  isContract(target) */\n      tag_384\n        /* \"Farm.sol\":10872:10878  target */\n      dup6\n        /* \"Farm.sol\":10861:10871  isContract */\n      tag_385\n        /* \"Farm.sol\":10861:10879  isContract(target) */\n      jump\t// in\n    tag_384:\n        /* \"Farm.sol\":10853:10913  require(isContract(target), \"Address: call to non-contract\") */\n      tag_386\n      jumpi\n      mload(0x40)\n      0x08c379a000000000000000000000000000000000000000000000000000000000\n      dup2\n      mstore\n      0x04\n      add\n      tag_387\n      swap1\n      tag_388\n      jump\t// in\n    tag_387:\n      mload(0x40)\n      dup1\n      swap2\n      sub\n      swap1\n      revert\n    tag_386:\n        /* \"Farm.sol\":10987:10999  bool success */\n      0x00\n        /* \"Farm.sol\":11001:11024  bytes memory returndata */\n      dup1\n        /* \"Farm.sol\":11028:11034  target */\n      dup7\n        /* \"Farm.sol\":11028:11039  target.call */\n      0xffffffffffffffffffffffffffffffffffffffff\n      and\n        /* \"Farm.sol\":11048:11053  value */\n      dup6\n        /* \"Farm.sol\":11056:11060  data */\n      dup8\n        /* \"Farm.sol\":11028:11061  target.call{ value: value }(data) */\n      mload(0x40)\n      tag_389\n      swap2\n      swap1\n      tag_390\n      jump\t// in\n    tag_389:\n      0x00\n      mload(0x40)\n      dup1\n      dup4\n      sub\n      dup2\n      dup6\n      dup8\n      gas\n      call\n      swap3\n      pop\n      pop\n      pop\n      returndatasize\n      dup1\n      0x00\n      dup2\n      eq\n      tag_393\n      jumpi\n      mload(0x40)\n      swap2\n      pop\n      and(add(returndatasize, 0x3f), not(0x1f))\n      dup3\n      add\n      0x40\n      mstore\n      returndatasize\n      dup3\n      mstore\n      returndatasize\n      0x00\n      0x20\n      dup5\n      add\n      returndatacopy\n      jump(tag_392)\n    tag_393:\n      0x60\n      swap2\n      pop\n    tag_392:\n      pop\n        /* \"Farm.sol\":10986:11061  (bool success, bytes memory returndata) = target.call{ value: value }(data) */\n      swap2\n      pop\n      swap2\n      pop\n        /* \"Farm.sol\":11079:11131  _verifyCallResult(success, returndata, errorMessage) */\n      tag_394\n        /* \"Farm.sol\":11097:11104  success */\n      dup3\n        /* \"Farm.sol\":11106:11116  returndata */\n      dup3\n        /* \"Farm.sol\":11118:11130  errorMessage */\n      dup7\n        /* \"Farm.sol\":11079:11096  _verifyCallResult */\n      tag_395\n        /* \"Farm.sol\":11079:11131  _verifyCallResult(success, returndata, errorMessage) */\n      jump\t// in\n    tag_394:\n        /* \"Farm.sol\":11072:11131  return _verifyCallResult(success, returndata, errorMessage) */\n      swap3\n      pop\n      pop\n      pop\n        /* \"Farm.sol\":10609:11139  function functionCallWithValue(address target, bytes memory data, uint256 value, string memory errorMessage) internal returns (bytes memory) {\r... */\n      swap5\n      swap4\n      pop\n      pop\n      pop\n      pop\n      jump\t// out\n        /* \"Farm.sol\":6639:7061  function isContract(address account) internal view returns (bool) {\r... */\n    tag_385:\n        /* \"Farm.sol\":6699:6703  bool */\n      0x00\n        /* \"Farm.sol\":6907:6919  uint256 size */\n      dup1\n        /* \"Farm.sol\":7018:7025  account */\n      dup3\n        /* \"Farm.sol\":7006:7026  extcodesize(account) */\n      extcodesize\n        /* \"Farm.sol\":6998:7026  size := extcodesize(account) */\n      swap1\n      pop\n        /* \"Farm.sol\":7052:7053  0 */\n      0x00\n        /* \"Farm.sol\":7045:7049  size */\n      dup2\n        /* \"Farm.sol\":7045:7053  size > 0 */\n      gt\n        /* \"Farm.sol\":7038:7053  return size > 0 */\n      swap2\n      pop\n      pop\n        /* \"Farm.sol\":6639:7061  function isContract(address account) internal view returns (bool) {\r... */\n      swap2\n      swap1\n      pop\n      jump\t// out\n        /* \"Farm.sol\":12145:12887  function _verifyCallResult(bool success, bytes memory returndata, string memory errorMessage) private pure returns(bytes memory) {\r... */\n    tag_395:\n        /* \"Farm.sol\":12260:12272  bytes memory */\n      0x60\n        /* \"Farm.sol\":12289:12296  success */\n      dup4\n        /* \"Farm.sol\":12285:12880  if (success) {\r... */\n      iszero\n      tag_398\n      jumpi\n        /* \"Farm.sol\":12320:12330  returndata */\n      dup3\n        /* \"Farm.sol\":12313:12330  return returndata */\n      swap1\n      pop\n      jump(tag_397)\n        /* \"Farm.sol\":12285:12880  if (success) {\r... */\n    tag_398:\n        /* \"Farm.sol\":12454:12455  0 */\n      0x00\n        /* \"Farm.sol\":12434:12444  returndata */\n      dup4\n        /* \"Farm.sol\":12434:12451  returndata.length */\n      mload\n        /* \"Farm.sol\":12434:12455  returndata.length > 0 */\n      gt\n        /* \"Farm.sol\":12430:12869  if (returndata.length > 0) {\r... */\n      iszero\n      tag_400\n      jumpi\n        /* \"Farm.sol\":12697:12707  returndata */\n      dup3\n        /* \"Farm.sol\":12691:12708  mload(returndata) */\n      mload\n        /* \"Farm.sol\":12758:12773  returndata_size */\n      dup1\n        /* \"Farm.sol\":12745:12755  returndata */\n      dup5\n        /* \"Farm.sol\":12741:12743  32 */\n      0x20\n        /* \"Farm.sol\":12737:12756  add(32, returndata) */\n      add\n        /* \"Farm.sol\":12730:12774  revert(add(32, returndata), returndata_size) */\n      revert\n        /* \"Farm.sol\":12430:12869  if (returndata.length > 0) {\r... */\n    tag_400:\n        /* \"Farm.sol\":12840:12852  errorMessage */\n      dup2\n        /* \"Farm.sol\":12833:12853  revert(errorMessage) */\n      mload(0x40)\n      0x08c379a000000000000000000000000000000000000000000000000000000000\n      dup2\n      mstore\n      0x04\n      add\n      tag_402\n      swap2\n      swap1\n      tag_355\n      jump\t// in\n    tag_402:\n      mload(0x40)\n      dup1\n      swap2\n      sub\n      swap1\n      revert\n        /* \"Farm.sol\":12145:12887  function _verifyCallResult(bool success, bytes memory returndata, string memory errorMessage) private pure returns(bytes memory) {\r... */\n    tag_397:\n      swap4\n      swap3\n      pop\n      pop\n      pop\n      jump\t// out\n        /* \"#utility.yul\":7:146   */\n    tag_404:\n        /* \"#utility.yul\":53:58   */\n      0x00\n        /* \"#utility.yul\":91:97   */\n      dup2\n        /* \"#utility.yul\":78:98   */\n      calldataload\n        /* \"#utility.yul\":69:98   */\n      swap1\n      pop\n        /* \"#utility.yul\":107:140   */\n      tag_406\n        /* \"#utility.yul\":134:139   */\n      dup2\n        /* \"#utility.yul\":107:140   */\n      tag_407\n      jump\t// in\n    tag_406:\n        /* \"#utility.yul\":7:146   */\n      swap3\n      swap2\n      pop\n      pop\n      jump\t// out\n        /* \"#utility.yul\":152:289   */\n    tag_408:\n        /* \"#utility.yul\":206:211   */\n      0x00\n        /* \"#utility.yul\":237:243   */\n      dup2\n        /* \"#utility.yul\":231:244   */\n      mload\n        /* \"#utility.yul\":222:244   */\n      swap1\n      pop\n        /* \"#utility.yul\":253:283   */\n      tag_410\n        /* \"#utility.yul\":277:282   */\n      dup2\n        /* \"#utility.yul\":253:283   */\n      tag_411\n      jump\t// in\n    tag_410:\n        /* \"#utility.yul\":152:289   */\n      swap3\n      swap2\n      pop\n      pop\n      jump\t// out\n        /* \"#utility.yul\":308:860   */\n    tag_412:\n        /* \"#utility.yul\":365:373   */\n      0x00\n        /* \"#utility.yul\":375:381   */\n      dup1\n        /* \"#utility.yul\":425:428   */\n      dup4\n        /* \"#utility.yul\":418:422   */\n      0x1f\n        /* \"#utility.yul\":410:416   */\n      dup5\n        /* \"#utility.yul\":406:423   */\n      add\n        /* \"#utility.yul\":402:429   */\n      slt\n        /* \"#utility.yul\":392:514   */\n      tag_414\n      jumpi\n        /* \"#utility.yul\":433:512   */\n      tag_415\n      tag_416\n      jump\t// in\n    tag_415:\n        /* \"#utility.yul\":392:514   */\n    tag_414:\n        /* \"#utility.yul\":546:552   */\n      dup3\n        /* \"#utility.yul\":533:553   */\n      calldataload\n        /* \"#utility.yul\":523:553   */\n      swap1\n      pop\n        /* \"#utility.yul\":576:594   */\n      0xffffffffffffffff\n        /* \"#utility.yul\":568:574   */\n      dup2\n        /* \"#utility.yul\":565:595   */\n      gt\n        /* \"#utility.yul\":562:679   */\n      iszero\n      tag_417\n      jumpi\n        /* \"#utility.yul\":598:677   */\n      tag_418\n      tag_419\n      jump\t// in\n    tag_418:\n        /* \"#utility.yul\":562:679   */\n    tag_417:\n        /* \"#utility.yul\":712:716   */\n      0x20\n        /* \"#utility.yul\":704:710   */\n      dup4\n        /* \"#utility.yul\":700:717   */\n      add\n        /* \"#utility.yul\":688:717   */\n      swap2\n      pop\n        /* \"#utility.yul\":766:769   */\n      dup4\n        /* \"#utility.yul\":758:762   */\n      0x01\n        /* \"#utility.yul\":750:756   */\n      dup3\n        /* \"#utility.yul\":746:763   */\n      mul\n        /* \"#utility.yul\":736:744   */\n      dup4\n        /* \"#utility.yul\":732:764   */\n      add\n        /* \"#utility.yul\":729:770   */\n      gt\n        /* \"#utility.yul\":726:854   */\n      iszero\n      tag_420\n      jumpi\n        /* \"#utility.yul\":773:852   */\n      tag_421\n      tag_422\n      jump\t// in\n    tag_421:\n        /* \"#utility.yul\":726:854   */\n    tag_420:\n        /* \"#utility.yul\":308:860   */\n      swap3\n      pop\n      swap3\n      swap1\n      pop\n      jump\t// out\n        /* \"#utility.yul\":866:1005   */\n    tag_423:\n        /* \"#utility.yul\":912:917   */\n      0x00\n        /* \"#utility.yul\":950:956   */\n      dup2\n        /* \"#utility.yul\":937:957   */\n      calldataload\n        /* \"#utility.yul\":928:957   */\n      swap1\n      pop\n        /* \"#utility.yul\":966:999   */\n      tag_425\n        /* \"#utility.yul\":993:998   */\n      dup2\n        /* \"#utility.yul\":966:999   */\n      tag_426\n      jump\t// in\n    tag_425:\n        /* \"#utility.yul\":866:1005   */\n      swap3\n      swap2\n      pop\n      pop\n      jump\t// out\n        /* \"#utility.yul\":1011:1154   */\n    tag_427:\n        /* \"#utility.yul\":1068:1073   */\n      0x00\n        /* \"#utility.yul\":1099:1105   */\n      dup2\n        /* \"#utility.yul\":1093:1106   */\n      mload\n        /* \"#utility.yul\":1084:1106   */\n      swap1\n      pop\n        /* \"#utility.yul\":1115:1148   */\n      tag_429\n        /* \"#utility.yul\":1142:1147   */\n      dup2\n        /* \"#utility.yul\":1115:1148   */\n      tag_426\n      jump\t// in\n    tag_429:\n        /* \"#utility.yul\":1011:1154   */\n      swap3\n      swap2\n      pop\n      pop\n      jump\t// out\n        /* \"#utility.yul\":1160:1489   */\n    tag_42:\n        /* \"#utility.yul\":1219:1225   */\n      0x00\n        /* \"#utility.yul\":1268:1270   */\n      0x20\n        /* \"#utility.yul\":1256:1265   */\n      dup3\n        /* \"#utility.yul\":1247:1254   */\n      dup5\n        /* \"#utility.yul\":1243:1266   */\n      sub\n        /* \"#utility.yul\":1239:1271   */\n      slt\n        /* \"#utility.yul\":1236:1355   */\n      iszero\n      tag_431\n      jumpi\n        /* \"#utility.yul\":1274:1353   */\n      tag_432\n      tag_433\n      jump\t// in\n    tag_432:\n        /* \"#utility.yul\":1236:1355   */\n    tag_431:\n        /* \"#utility.yul\":1394:1395   */\n      0x00\n        /* \"#utility.yul\":1419:1472   */\n      tag_434\n        /* \"#utility.yul\":1464:1471   */\n      dup5\n        /* \"#utility.yul\":1455:1461   */\n      dup3\n        /* \"#utility.yul\":1444:1453   */\n      dup6\n        /* \"#utility.yul\":1440:1462   */\n      add\n        /* \"#utility.yul\":1419:1472   */\n      tag_404\n      jump\t// in\n    tag_434:\n        /* \"#utility.yul\":1409:1472   */\n      swap2\n      pop\n        /* \"#utility.yul\":1365:1482   */\n      pop\n        /* \"#utility.yul\":1160:1489   */\n      swap3\n      swap2\n      pop\n      pop\n      jump\t// out\n        /* \"#utility.yul\":1495:2458   */\n    tag_52:\n        /* \"#utility.yul\":1592:1598   */\n      0x00\n        /* \"#utility.yul\":1600:1606   */\n      dup1\n        /* \"#utility.yul\":1608:1614   */\n      0x00\n        /* \"#utility.yul\":1616:1622   */\n      dup1\n        /* \"#utility.yul\":1624:1630   */\n      0x00\n        /* \"#utility.yul\":1673:1676   */\n      0x80\n        /* \"#utility.yul\":1661:1670   */\n      dup7\n        /* \"#utility.yul\":1652:1659   */\n      dup9\n        /* \"#utility.yul\":1648:1671   */\n      sub\n        /* \"#utility.yul\":1644:1677   */\n      slt\n        /* \"#utility.yul\":1641:1761   */\n      iszero\n      tag_436\n      jumpi\n        /* \"#utility.yul\":1680:1759   */\n      tag_437\n      tag_433\n      jump\t// in\n    tag_437:\n        /* \"#utility.yul\":1641:1761   */\n    tag_436:\n        /* \"#utility.yul\":1800:1801   */\n      0x00\n        /* \"#utility.yul\":1825:1878   */\n      tag_438\n        /* \"#utility.yul\":1870:1877   */\n      dup9\n        /* \"#utility.yul\":1861:1867   */\n      dup3\n        /* \"#utility.yul\":1850:1859   */\n      dup10\n        /* \"#utility.yul\":1846:1868   */\n      add\n        /* \"#utility.yul\":1825:1878   */\n      tag_404\n      jump\t// in\n    tag_438:\n        /* \"#utility.yul\":1815:1878   */\n      swap6\n      pop\n        /* \"#utility.yul\":1771:1888   */\n      pop\n        /* \"#utility.yul\":1927:1929   */\n      0x20\n        /* \"#utility.yul\":1953:2006   */\n      tag_439\n        /* \"#utility.yul\":1998:2005   */\n      dup9\n        /* \"#utility.yul\":1989:1995   */\n      dup3\n        /* \"#utility.yul\":1978:1987   */\n      dup10\n        /* \"#utility.yul\":1974:1996   */\n      add\n        /* \"#utility.yul\":1953:2006   */\n      tag_404\n      jump\t// in\n    tag_439:\n        /* \"#utility.yul\":1943:2006   */\n      swap5\n      pop\n        /* \"#utility.yul\":1898:2016   */\n      pop\n        /* \"#utility.yul\":2055:2057   */\n      0x40\n        /* \"#utility.yul\":2081:2134   */\n      tag_440\n        /* \"#utility.yul\":2126:2133   */\n      dup9\n        /* \"#utility.yul\":2117:2123   */\n      dup3\n        /* \"#utility.yul\":2106:2115   */\n      dup10\n        /* \"#utility.yul\":2102:2124   */\n      add\n        /* \"#utility.yul\":2081:2134   */\n      tag_423\n      jump\t// in\n    tag_440:\n        /* \"#utility.yul\":2071:2134   */\n      swap4\n      pop\n        /* \"#utility.yul\":2026:2144   */\n      pop\n        /* \"#utility.yul\":2211:2213   */\n      0x60\n        /* \"#utility.yul\":2200:2209   */\n      dup7\n        /* \"#utility.yul\":2196:2214   */\n      add\n        /* \"#utility.yul\":2183:2215   */\n      calldataload\n        /* \"#utility.yul\":2242:2260   */\n      0xffffffffffffffff\n        /* \"#utility.yul\":2234:2240   */\n      dup2\n        /* \"#utility.yul\":2231:2261   */\n      gt\n        /* \"#utility.yul\":2228:2345   */\n      iszero\n      tag_441\n      jumpi\n        /* \"#utility.yul\":2264:2343   */\n      tag_442\n      tag_443\n      jump\t// in\n    tag_442:\n        /* \"#utility.yul\":2228:2345   */\n    tag_441:\n        /* \"#utility.yul\":2377:2441   */\n      tag_444\n        /* \"#utility.yul\":2433:2440   */\n      dup9\n        /* \"#utility.yul\":2424:2430   */\n      dup3\n        /* \"#utility.yul\":2413:2422   */\n      dup10\n        /* \"#utility.yul\":2409:2431   */\n      add\n        /* \"#utility.yul\":2377:2441   */\n      tag_412\n      jump\t// in\n    tag_444:\n        /* \"#utility.yul\":2359:2441   */\n      swap3\n      pop\n      swap3\n      pop\n        /* \"#utility.yul\":2154:2451   */\n      pop\n        /* \"#utility.yul\":1495:2458   */\n      swap3\n      swap6\n      pop\n      swap3\n      swap6\n      swap1\n      swap4\n      pop\n      jump\t// out\n        /* \"#utility.yul\":2464:2938   */\n    tag_105:\n        /* \"#utility.yul\":2532:2538   */\n      0x00\n        /* \"#utility.yul\":2540:2546   */\n      dup1\n        /* \"#utility.yul\":2589:2591   */\n      0x40\n        /* \"#utility.yul\":2577:2586   */\n      dup4\n        /* \"#utility.yul\":2568:2575   */\n      dup6\n        /* \"#utility.yul\":2564:2587   */\n      sub\n        /* \"#utility.yul\":2560:2592   */\n      slt\n        /* \"#utility.yul\":2557:2676   */\n      iszero\n      tag_446\n      jumpi\n        /* \"#utility.yul\":2595:2674   */\n      tag_447\n      tag_433\n      jump\t// in\n    tag_447:\n        /* \"#utility.yul\":2557:2676   */\n    tag_446:\n        /* \"#utility.yul\":2715:2716   */\n      0x00\n        /* \"#utility.yul\":2740:2793   */\n      tag_448\n        /* \"#utility.yul\":2785:2792   */\n      dup6\n        /* \"#utility.yul\":2776:2782   */\n      dup3\n        /* \"#utility.yul\":2765:2774   */\n      dup7\n        /* \"#utility.yul\":2761:2783   */\n      add\n        /* \"#utility.yul\":2740:2793   */\n      tag_404\n      jump\t// in\n    tag_448:\n        /* \"#utility.yul\":2730:2793   */\n      swap3\n      pop\n        /* \"#utility.yul\":2686:2803   */\n      pop\n        /* \"#utility.yul\":2842:2844   */\n      0x20\n        /* \"#utility.yul\":2868:2921   */\n      tag_449\n        /* \"#utility.yul\":2913:2920   */\n      dup6\n        /* \"#utility.yul\":2904:2910   */\n      dup3\n        /* \"#utility.yul\":2893:2902   */\n      dup7\n        /* \"#utility.yul\":2889:2911   */\n      add\n        /* \"#utility.yul\":2868:2921   */\n      tag_423\n      jump\t// in\n    tag_449:\n        /* \"#utility.yul\":2858:2921   */\n      swap2\n      pop\n        /* \"#utility.yul\":2813:2931   */\n      pop\n        /* \"#utility.yul\":2464:2938   */\n      swap3\n      pop\n      swap3\n      swap1\n      pop\n      jump\t// out\n        /* \"#utility.yul\":2944:3289   */\n    tag_372:\n        /* \"#utility.yul\":3011:3017   */\n      0x00\n        /* \"#utility.yul\":3060:3062   */\n      0x20\n        /* \"#utility.yul\":3048:3057   */\n      dup3\n        /* \"#utility.yul\":3039:3046   */\n      dup5\n        /* \"#utility.yul\":3035:3058   */\n      sub\n        /* \"#utility.yul\":3031:3063   */\n      slt\n        /* \"#utility.yul\":3028:3147   */\n      iszero\n      tag_451\n      jumpi\n        /* \"#utility.yul\":3066:3145   */\n      tag_452\n      tag_433\n      jump\t// in\n    tag_452:\n        /* \"#utility.yul\":3028:3147   */\n    tag_451:\n        /* \"#utility.yul\":3186:3187   */\n      0x00\n        /* \"#utility.yul\":3211:3272   */\n      tag_453\n        /* \"#utility.yul\":3264:3271   */\n      dup5\n        /* \"#utility.yul\":3255:3261   */\n      dup3\n        /* \"#utility.yul\":3244:3253   */\n      dup6\n        /* \"#utility.yul\":3240:3262   */\n      add\n        /* \"#utility.yul\":3211:3272   */\n      tag_408\n      jump\t// in\n    tag_453:\n        /* \"#utility.yul\":3201:3272   */\n      swap2\n      pop\n        /* \"#utility.yul\":3157:3282   */\n      pop\n        /* \"#utility.yul\":2944:3289   */\n      swap3\n      swap2\n      pop\n      pop\n      jump\t// out\n        /* \"#utility.yul\":3295:3624   */\n    tag_64:\n        /* \"#utility.yul\":3354:3360   */\n      0x00\n        /* \"#utility.yul\":3403:3405   */\n      0x20\n        /* \"#utility.yul\":3391:3400   */\n      dup3\n        /* \"#utility.yul\":3382:3389   */\n      dup5\n        /* \"#utility.yul\":3378:3401   */\n      sub\n        /* \"#utility.yul\":3374:3406   */\n      slt\n        /* \"#utility.yul\":3371:3490   */\n      iszero\n      tag_455\n      jumpi\n        /* \"#utility.yul\":3409:3488   */\n      tag_456\n      tag_433\n      jump\t// in\n    tag_456:\n        /* \"#utility.yul\":3371:3490   */\n    tag_455:\n        /* \"#utility.yul\":3529:3530   */\n      0x00\n        /* \"#utility.yul\":3554:3607   */\n      tag_457\n        /* \"#utility.yul\":3599:3606   */\n      dup5\n        /* \"#utility.yul\":3590:3596   */\n      dup3\n        /* \"#utility.yul\":3579:3588   */\n      dup6\n        /* \"#utility.yul\":3575:3597   */\n      add\n        /* \"#utility.yul\":3554:3607   */\n      tag_423\n      jump\t// in\n    tag_457:\n        /* \"#utility.yul\":3544:3607   */\n      swap2\n      pop\n        /* \"#utility.yul\":3500:3617   */\n      pop\n        /* \"#utility.yul\":3295:3624   */\n      swap3\n      swap2\n      pop\n      pop\n      jump\t// out\n        /* \"#utility.yul\":3630:3981   */\n    tag_212:\n        /* \"#utility.yul\":3700:3706   */\n      0x00\n        /* \"#utility.yul\":3749:3751   */\n      0x20\n        /* \"#utility.yul\":3737:3746   */\n      dup3\n        /* \"#utility.yul\":3728:3735   */\n      dup5\n        /* \"#utility.yul\":3724:3747   */\n      sub\n        /* \"#utility.yul\":3720:3752   */\n      slt\n        /* \"#utility.yul\":3717:3836   */\n      iszero\n      tag_459\n      jumpi\n        /* \"#utility.yul\":3755:3834   */\n      tag_460\n      tag_433\n      jump\t// in\n    tag_460:\n        /* \"#utility.yul\":3717:3836   */\n    tag_459:\n        /* \"#utility.yul\":3875:3876   */\n      0x00\n        /* \"#utility.yul\":3900:3964   */\n      tag_461\n        /* \"#utility.yul\":3956:3963   */\n      dup5\n        /* \"#utility.yul\":3947:3953   */\n      dup3\n        /* \"#utility.yul\":3936:3945   */\n      dup6\n        /* \"#utility.yul\":3932:3954   */\n      add\n        /* \"#utility.yul\":3900:3964   */\n      tag_427\n      jump\t// in\n    tag_461:\n        /* \"#utility.yul\":3890:3964   */\n      swap2\n      pop\n        /* \"#utility.yul\":3846:3974   */\n      pop\n        /* \"#utility.yul\":3630:3981   */\n      swap3\n      swap2\n      pop\n      pop\n      jump\t// out\n        /* \"#utility.yul\":3987:4461   */\n    tag_68:\n        /* \"#utility.yul\":4055:4061   */\n      0x00\n        /* \"#utility.yul\":4063:4069   */\n      dup1\n        /* \"#utility.yul\":4112:4114   */\n      0x40\n        /* \"#utility.yul\":4100:4109   */\n      dup4\n        /* \"#utility.yul\":4091:4098   */\n      dup6\n        /* \"#utility.yul\":4087:4110   */\n      sub\n        /* \"#utility.yul\":4083:4115   */\n      slt\n        /* \"#utility.yul\":4080:4199   */\n      iszero\n      tag_463\n      jumpi\n        /* \"#utility.yul\":4118:4197   */\n      tag_464\n      tag_433\n      jump\t// in\n    tag_464:\n        /* \"#utility.yul\":4080:4199   */\n    tag_463:\n        /* \"#utility.yul\":4238:4239   */\n      0x00\n        /* \"#utility.yul\":4263:4316   */\n      tag_465\n        /* \"#utility.yul\":4308:4315   */\n      dup6\n        /* \"#utility.yul\":4299:4305   */\n      dup3\n        /* \"#utility.yul\":4288:4297   */\n      dup7\n        /* \"#utility.yul\":4284:4306   */\n      add\n        /* \"#utility.yul\":4263:4316   */\n      tag_423\n      jump\t// in\n    tag_465:\n        /* \"#utility.yul\":4253:4316   */\n      swap3\n      pop\n        /* \"#utility.yul\":4209:4326   */\n      pop\n        /* \"#utility.yul\":4365:4367   */\n      0x20\n        /* \"#utility.yul\":4391:4444   */\n      tag_466\n        /* \"#utility.yul\":4436:4443   */\n      dup6\n        /* \"#utility.yul\":4427:4433   */\n      dup3\n        /* \"#utility.yul\":4416:4425   */\n      dup7\n        /* \"#utility.yul\":4412:4434   */\n      add\n        /* \"#utility.yul\":4391:4444   */\n      tag_423\n      jump\t// in\n    tag_466:\n        /* \"#utility.yul\":4381:4444   */\n      swap2\n      pop\n        /* \"#utility.yul\":4336:4454   */\n      pop\n        /* \"#utility.yul\":3987:4461   */\n      swap3\n      pop\n      swap3\n      swap1\n      pop\n      jump\t// out\n        /* \"#utility.yul\":4467:4585   */\n    tag_467:\n        /* \"#utility.yul\":4554:4578   */\n      tag_469\n        /* \"#utility.yul\":4572:4577   */\n      dup2\n        /* \"#utility.yul\":4554:4578   */\n      tag_470\n      jump\t// in\n    tag_469:\n        /* \"#utility.yul\":4549:4552   */\n      dup3\n        /* \"#utility.yul\":4542:4579   */\n      mstore\n        /* \"#utility.yul\":4467:4585   */\n      pop\n      pop\n      jump\t// out\n        /* \"#utility.yul\":4591:4748   */\n    tag_471:\n        /* \"#utility.yul\":4696:4741   */\n      tag_473\n        /* \"#utility.yul\":4716:4740   */\n      tag_474\n        /* \"#utility.yul\":4734:4739   */\n      dup3\n        /* \"#utility.yul\":4716:4740   */\n      tag_470\n      jump\t// in\n    tag_474:\n        /* \"#utility.yul\":4696:4741   */\n      tag_475\n      jump\t// in\n    tag_473:\n        /* \"#utility.yul\":4691:4694   */\n      dup3\n        /* \"#utility.yul\":4684:4742   */\n      mstore\n        /* \"#utility.yul\":4591:4748   */\n      pop\n      pop\n      jump\t// out\n        /* \"#utility.yul\":4754:4863   */\n    tag_476:\n        /* \"#utility.yul\":4835:4856   */\n      tag_478\n        /* \"#utility.yul\":4850:4855   */\n      dup2\n        /* \"#utility.yul\":4835:4856   */\n      tag_479\n      jump\t// in\n    tag_478:\n        /* \"#utility.yul\":4830:4833   */\n      dup3\n        /* \"#utility.yul\":4823:4857   */\n      mstore\n        /* \"#utility.yul\":4754:4863   */\n      pop\n      pop\n      jump\t// out\n        /* \"#utility.yul\":4869:4984   */\n    tag_480:\n        /* \"#utility.yul\":4954:4977   */\n      tag_482\n        /* \"#utility.yul\":4971:4976   */\n      dup2\n        /* \"#utility.yul\":4954:4977   */\n      tag_483\n      jump\t// in\n    tag_482:\n        /* \"#utility.yul\":4949:4952   */\n      dup3\n        /* \"#utility.yul\":4942:4978   */\n      mstore\n        /* \"#utility.yul\":4869:4984   */\n      pop\n      pop\n      jump\t// out\n        /* \"#utility.yul\":5012:5326   */\n    tag_484:\n        /* \"#utility.yul\":5126:5129   */\n      0x00\n        /* \"#utility.yul\":5147:5235   */\n      tag_486\n        /* \"#utility.yul\":5228:5234   */\n      dup4\n        /* \"#utility.yul\":5223:5226   */\n      dup6\n        /* \"#utility.yul\":5147:5235   */\n      tag_487\n      jump\t// in\n    tag_486:\n        /* \"#utility.yul\":5140:5235   */\n      swap4\n      pop\n        /* \"#utility.yul\":5245:5288   */\n      tag_488\n        /* \"#utility.yul\":5281:5287   */\n      dup4\n        /* \"#utility.yul\":5276:5279   */\n      dup6\n        /* \"#utility.yul\":5269:5274   */\n      dup5\n        /* \"#utility.yul\":5245:5288   */\n      tag_489\n      jump\t// in\n    tag_488:\n        /* \"#utility.yul\":5313:5319   */\n      dup3\n        /* \"#utility.yul\":5308:5311   */\n      dup5\n        /* \"#utility.yul\":5304:5320   */\n      add\n        /* \"#utility.yul\":5297:5320   */\n      swap1\n      pop\n        /* \"#utility.yul\":5012:5326   */\n      swap4\n      swap3\n      pop\n      pop\n      pop\n      jump\t// out\n        /* \"#utility.yul\":5332:5705   */\n    tag_490:\n        /* \"#utility.yul\":5436:5439   */\n      0x00\n        /* \"#utility.yul\":5464:5502   */\n      tag_492\n        /* \"#utility.yul\":5496:5501   */\n      dup3\n        /* \"#utility.yul\":5464:5502   */\n      tag_493\n      jump\t// in\n    tag_492:\n        /* \"#utility.yul\":5518:5606   */\n      tag_494\n        /* \"#utility.yul\":5599:5605   */\n      dup2\n        /* \"#utility.yul\":5594:5597   */\n      dup6\n        /* \"#utility.yul\":5518:5606   */\n      tag_487\n      jump\t// in\n    tag_494:\n        /* \"#utility.yul\":5511:5606   */\n      swap4\n      pop\n        /* \"#utility.yul\":5615:5667   */\n      tag_495\n        /* \"#utility.yul\":5660:5666   */\n      dup2\n        /* \"#utility.yul\":5655:5658   */\n      dup6\n        /* \"#utility.yul\":5648:5652   */\n      0x20\n        /* \"#utility.yul\":5641:5646   */\n      dup7\n        /* \"#utility.yul\":5637:5653   */\n      add\n        /* \"#utility.yul\":5615:5667   */\n      tag_496\n      jump\t// in\n    tag_495:\n        /* \"#utility.yul\":5692:5698   */\n      dup1\n        /* \"#utility.yul\":5687:5690   */\n      dup5\n        /* \"#utility.yul\":5683:5699   */\n      add\n        /* \"#utility.yul\":5676:5699   */\n      swap2\n      pop\n        /* \"#utility.yul\":5440:5705   */\n      pop\n        /* \"#utility.yul\":5332:5705   */\n      swap3\n      swap2\n      pop\n      pop\n      jump\t// out\n        /* \"#utility.yul\":5711:5870   */\n    tag_497:\n        /* \"#utility.yul\":5812:5863   */\n      tag_499\n        /* \"#utility.yul\":5857:5862   */\n      dup2\n        /* \"#utility.yul\":5812:5863   */\n      tag_500\n      jump\t// in\n    tag_499:\n        /* \"#utility.yul\":5807:5810   */\n      dup3\n        /* \"#utility.yul\":5800:5864   */\n      mstore\n        /* \"#utility.yul\":5711:5870   */\n      pop\n      pop\n      jump\t// out\n        /* \"#utility.yul\":5876:6240   */\n    tag_501:\n        /* \"#utility.yul\":5964:5967   */\n      0x00\n        /* \"#utility.yul\":5992:6031   */\n      tag_503\n        /* \"#utility.yul\":6025:6030   */\n      dup3\n        /* \"#utility.yul\":5992:6031   */\n      tag_504\n      jump\t// in\n    tag_503:\n        /* \"#utility.yul\":6047:6118   */\n      tag_505\n        /* \"#utility.yul\":6111:6117   */\n      dup2\n        /* \"#utility.yul\":6106:6109   */\n      dup6\n        /* \"#utility.yul\":6047:6118   */\n      tag_506\n      jump\t// in\n    tag_505:\n        /* \"#utility.yul\":6040:6118   */\n      swap4\n      pop\n        /* \"#utility.yul\":6127:6179   */\n      tag_507\n        /* \"#utility.yul\":6172:6178   */\n      dup2\n        /* \"#utility.yul\":6167:6170   */\n      dup6\n        /* \"#utility.yul\":6160:6164   */\n      0x20\n        /* \"#utility.yul\":6153:6158   */\n      dup7\n        /* \"#utility.yul\":6149:6165   */\n      add\n        /* \"#utility.yul\":6127:6179   */\n      tag_496\n      jump\t// in\n    tag_507:\n        /* \"#utility.yul\":6204:6233   */\n      tag_508\n        /* \"#utility.yul\":6226:6232   */\n      dup2\n        /* \"#utility.yul\":6204:6233   */\n      tag_509\n      jump\t// in\n    tag_508:\n        /* \"#utility.yul\":6199:6202   */\n      dup5\n        /* \"#utility.yul\":6195:6234   */\n      add\n        /* \"#utility.yul\":6188:6234   */\n      swap2\n      pop\n        /* \"#utility.yul\":5968:6240   */\n      pop\n        /* \"#utility.yul\":5876:6240   */\n      swap3\n      swap2\n      pop\n      pop\n      jump\t// out\n        /* \"#utility.yul\":6246:6612   */\n    tag_510:\n        /* \"#utility.yul\":6388:6391   */\n      0x00\n        /* \"#utility.yul\":6409:6476   */\n      tag_512\n        /* \"#utility.yul\":6473:6475   */\n      0x58\n        /* \"#utility.yul\":6468:6471   */\n      dup4\n        /* \"#utility.yul\":6409:6476   */\n      tag_506\n      jump\t// in\n    tag_512:\n        /* \"#utility.yul\":6402:6476   */\n      swap2\n      pop\n        /* \"#utility.yul\":6485:6578   */\n      tag_513\n        /* \"#utility.yul\":6574:6577   */\n      dup3\n        /* \"#utility.yul\":6485:6578   */\n      tag_514\n      jump\t// in\n    tag_513:\n        /* \"#utility.yul\":6603:6605   */\n      0x60\n        /* \"#utility.yul\":6598:6601   */\n      dup3\n        /* \"#utility.yul\":6594:6606   */\n      add\n        /* \"#utility.yul\":6587:6606   */\n      swap1\n      pop\n        /* \"#utility.yul\":6246:6612   */\n      swap2\n      swap1\n      pop\n      jump\t// out\n        /* \"#utility.yul\":6618:6984   */\n    tag_515:\n        /* \"#utility.yul\":6760:6763   */\n      0x00\n        /* \"#utility.yul\":6781:6848   */\n      tag_517\n        /* \"#utility.yul\":6845:6847   */\n      0x26\n        /* \"#utility.yul\":6840:6843   */\n      dup4\n        /* \"#utility.yul\":6781:6848   */\n      tag_506\n      jump\t// in\n    tag_517:\n        /* \"#utility.yul\":6774:6848   */\n      swap2\n      pop\n        /* \"#utility.yul\":6857:6950   */\n      tag_518\n        /* \"#utility.yul\":6946:6949   */\n      dup3\n        /* \"#utility.yul\":6857:6950   */\n      tag_519\n      jump\t// in\n    tag_518:\n        /* \"#utility.yul\":6975:6977   */\n      0x40\n        /* \"#utility.yul\":6970:6973   */\n      dup3\n        /* \"#utility.yul\":6966:6978   */\n      add\n        /* \"#utility.yul\":6959:6978   */\n      swap1\n      pop\n        /* \"#utility.yul\":6618:6984   */\n      swap2\n      swap1\n      pop\n      jump\t// out\n        /* \"#utility.yul\":6990:7356   */\n    tag_520:\n        /* \"#utility.yul\":7132:7135   */\n      0x00\n        /* \"#utility.yul\":7153:7220   */\n      tag_522\n        /* \"#utility.yul\":7217:7219   */\n      0x0e\n        /* \"#utility.yul\":7212:7215   */\n      dup4\n        /* \"#utility.yul\":7153:7220   */\n      tag_506\n      jump\t// in\n    tag_522:\n        /* \"#utility.yul\":7146:7220   */\n      swap2\n      pop\n        /* \"#utility.yul\":7229:7322   */\n      tag_523\n        /* \"#utility.yul\":7318:7321   */\n      dup3\n        /* \"#utility.yul\":7229:7322   */\n      tag_524\n      jump\t// in\n    tag_523:\n        /* \"#utility.yul\":7347:7349   */\n      0x20\n        /* \"#utility.yul\":7342:7345   */\n      dup3\n        /* \"#utility.yul\":7338:7350   */\n      add\n        /* \"#utility.yul\":7331:7350   */\n      swap1\n      pop\n        /* \"#utility.yul\":6990:7356   */\n      swap2\n      swap1\n      pop\n      jump\t// out\n        /* \"#utility.yul\":7362:7728   */\n    tag_525:\n        /* \"#utility.yul\":7504:7507   */\n      0x00\n        /* \"#utility.yul\":7525:7592   */\n      tag_527\n        /* \"#utility.yul\":7589:7591   */\n      0x1b\n        /* \"#utility.yul\":7584:7587   */\n      dup4\n        /* \"#utility.yul\":7525:7592   */\n      tag_506\n      jump\t// in\n    tag_527:\n        /* \"#utility.yul\":7518:7592   */\n      swap2\n      pop\n        /* \"#utility.yul\":7601:7694   */\n      tag_528\n        /* \"#utility.yul\":7690:7693   */\n      dup3\n        /* \"#utility.yul\":7601:7694   */\n      tag_529\n      jump\t// in\n    tag_528:\n        /* \"#utility.yul\":7719:7721   */\n      0x20\n        /* \"#utility.yul\":7714:7717   */\n      dup3\n        /* \"#utility.yul\":7710:7722   */\n      add\n        /* \"#utility.yul\":7703:7722   */\n      swap1\n      pop\n        /* \"#utility.yul\":7362:7728   */\n      swap2\n      swap1\n      pop\n      jump\t// out\n        /* \"#utility.yul\":7734:8100   */\n    tag_530:\n        /* \"#utility.yul\":7876:7879   */\n      0x00\n        /* \"#utility.yul\":7897:7964   */\n      tag_532\n        /* \"#utility.yul\":7961:7963   */\n      0x22\n        /* \"#utility.yul\":7956:7959   */\n      dup4\n        /* \"#utility.yul\":7897:7964   */\n      tag_506\n      jump\t// in\n    tag_532:\n        /* \"#utility.yul\":7890:7964   */\n      swap2\n      pop\n        /* \"#utility.yul\":7973:8066   */\n      tag_533\n        /* \"#utility.yul\":8062:8065   */\n      dup3\n        /* \"#utility.yul\":7973:8066   */\n      tag_534\n      jump\t// in\n    tag_533:\n        /* \"#utility.yul\":8091:8093   */\n      0x40\n        /* \"#utility.yul\":8086:8089   */\n      dup3\n        /* \"#utility.yul\":8082:8094   */\n      add\n        /* \"#utility.yul\":8075:8094   */\n      swap1\n      pop\n        /* \"#utility.yul\":7734:8100   */\n      swap2\n      swap1\n      pop\n      jump\t// out\n        /* \"#utility.yul\":8106:8472   */\n    tag_535:\n        /* \"#utility.yul\":8248:8251   */\n      0x00\n        /* \"#utility.yul\":8269:8336   */\n      tag_537\n        /* \"#utility.yul\":8333:8335   */\n      0x26\n        /* \"#utility.yul\":8328:8331   */\n      dup4\n        /* \"#utility.yul\":8269:8336   */\n      tag_506\n      jump\t// in\n    tag_537:\n        /* \"#utility.yul\":8262:8336   */\n      swap2\n      pop\n        /* \"#utility.yul\":8345:8438   */\n      tag_538\n        /* \"#utility.yul\":8434:8437   */\n      dup3\n        /* \"#utility.yul\":8345:8438   */\n      tag_539\n      jump\t// in\n    tag_538:\n        /* \"#utility.yul\":8463:8465   */\n      0x40\n        /* \"#utility.yul\":8458:8461   */\n      dup3\n        /* \"#utility.yul\":8454:8466   */\n      add\n        /* \"#utility.yul\":8447:8466   */\n      swap1\n      pop\n        /* \"#utility.yul\":8106:8472   */\n      swap2\n      swap1\n      pop\n      jump\t// out\n        /* \"#utility.yul\":8478:8844   */\n    tag_540:\n        /* \"#utility.yul\":8620:8623   */\n      0x00\n        /* \"#utility.yul\":8641:8708   */\n      tag_542\n        /* \"#utility.yul\":8705:8707   */\n      0x10\n        /* \"#utility.yul\":8700:8703   */\n      dup4\n        /* \"#utility.yul\":8641:8708   */\n      tag_506\n      jump\t// in\n    tag_542:\n        /* \"#utility.yul\":8634:8708   */\n      swap2\n      pop\n        /* \"#utility.yul\":8717:8810   */\n      tag_543\n        /* \"#utility.yul\":8806:8809   */\n      dup3\n        /* \"#utility.yul\":8717:8810   */\n      tag_544\n      jump\t// in\n    tag_543:\n        /* \"#utility.yul\":8835:8837   */\n      0x20\n        /* \"#utility.yul\":8830:8833   */\n      dup3\n        /* \"#utility.yul\":8826:8838   */\n      add\n        /* \"#utility.yul\":8819:8838   */\n      swap1\n      pop\n        /* \"#utility.yul\":8478:8844   */\n      swap2\n      swap1\n      pop\n      jump\t// out\n        /* \"#utility.yul\":8850:9216   */\n    tag_545:\n        /* \"#utility.yul\":8992:8995   */\n      0x00\n        /* \"#utility.yul\":9013:9080   */\n      tag_547\n        /* \"#utility.yul\":9077:9079   */\n      0x11\n        /* \"#utility.yul\":9072:9075   */\n      dup4\n        /* \"#utility.yul\":9013:9080   */\n      tag_506\n      jump\t// in\n    tag_547:\n        /* \"#utility.yul\":9006:9080   */\n      swap2\n      pop\n        /* \"#utility.yul\":9089:9182   */\n      tag_548\n        /* \"#utility.yul\":9178:9181   */\n      dup3\n        /* \"#utility.yul\":9089:9182   */\n      tag_549\n      jump\t// in\n    tag_548:\n        /* \"#utility.yul\":9207:9209   */\n      0x20\n        /* \"#utility.yul\":9202:9205   */\n      dup3\n        /* \"#utility.yul\":9198:9210   */\n      add\n        /* \"#utility.yul\":9191:9210   */\n      swap1\n      pop\n        /* \"#utility.yul\":8850:9216   */\n      swap2\n      swap1\n      pop\n      jump\t// out\n        /* \"#utility.yul\":9222:9588   */\n    tag_550:\n        /* \"#utility.yul\":9364:9367   */\n      0x00\n        /* \"#utility.yul\":9385:9452   */\n      tag_552\n        /* \"#utility.yul\":9449:9451   */\n      0x21\n        /* \"#utility.yul\":9444:9447   */\n      dup4\n        /* \"#utility.yul\":9385:9452   */\n      tag_506\n      jump\t// in\n    tag_552:\n        /* \"#utility.yul\":9378:9452   */\n      swap2\n      pop\n        /* \"#utility.yul\":9461:9554   */\n      tag_553\n        /* \"#utility.yul\":9550:9553   */\n      dup3\n        /* \"#utility.yul\":9461:9554   */\n      tag_554\n      jump\t// in\n    tag_553:\n        /* \"#utility.yul\":9579:9581   */\n      0x40\n        /* \"#utility.yul\":9574:9577   */\n      dup3\n        /* \"#utility.yul\":9570:9582   */\n      add\n        /* \"#utility.yul\":9563:9582   */\n      swap1\n      pop\n        /* \"#utility.yul\":9222:9588   */\n      swap2\n      swap1\n      pop\n      jump\t// out\n        /* \"#utility.yul\":9594:9960   */\n    tag_555:\n        /* \"#utility.yul\":9736:9739   */\n      0x00\n        /* \"#utility.yul\":9757:9824   */\n      tag_557\n        /* \"#utility.yul\":9821:9823   */\n      0x20\n        /* \"#utility.yul\":9816:9819   */\n      dup4\n        /* \"#utility.yul\":9757:9824   */\n      tag_506\n      jump\t// in\n    tag_557:\n        /* \"#utility.yul\":9750:9824   */\n      swap2\n      pop\n        /* \"#utility.yul\":9833:9926   */\n      tag_558\n        /* \"#utility.yul\":9922:9925   */\n      dup3\n        /* \"#utility.yul\":9833:9926   */\n      tag_559\n      jump\t// in\n    tag_558:\n        /* \"#utility.yul\":9951:9953   */\n      0x20\n        /* \"#utility.yul\":9946:9949   */\n      dup3\n        /* \"#utility.yul\":9942:9954   */\n      add\n        /* \"#utility.yul\":9935:9954   */\n      swap1\n      pop\n        /* \"#utility.yul\":9594:9960   */\n      swap2\n      swap1\n      pop\n      jump\t// out\n        /* \"#utility.yul\":9966:10332   */\n    tag_560:\n        /* \"#utility.yul\":10108:10111   */\n      0x00\n        /* \"#utility.yul\":10129:10196   */\n      tag_562\n        /* \"#utility.yul\":10193:10195   */\n      0x22\n        /* \"#utility.yul\":10188:10191   */\n      dup4\n        /* \"#utility.yul\":10129:10196   */\n      tag_506\n      jump\t// in\n    tag_562:\n        /* \"#utility.yul\":10122:10196   */\n      swap2\n      pop\n        /* \"#utility.yul\":10205:10298   */\n      tag_563\n        /* \"#utility.yul\":10294:10297   */\n      dup3\n        /* \"#utility.yul\":10205:10298   */\n      tag_564\n      jump\t// in\n    tag_563:\n        /* \"#utility.yul\":10323:10325   */\n      0x40\n        /* \"#utility.yul\":10318:10321   */\n      dup3\n        /* \"#utility.yul\":10314:10326   */\n      add\n        /* \"#utility.yul\":10307:10326   */\n      swap1\n      pop\n        /* \"#utility.yul\":9966:10332   */\n      swap2\n      swap1\n      pop\n      jump\t// out\n        /* \"#utility.yul\":10338:10704   */\n    tag_565:\n        /* \"#utility.yul\":10480:10483   */\n      0x00\n        /* \"#utility.yul\":10501:10568   */\n      tag_567\n        /* \"#utility.yul\":10565:10567   */\n      0x18\n        /* \"#utility.yul\":10560:10563   */\n      dup4\n        /* \"#utility.yul\":10501:10568   */\n      tag_506\n      jump\t// in\n    tag_567:\n        /* \"#utility.yul\":10494:10568   */\n      swap2\n      pop\n        /* \"#utility.yul\":10577:10670   */\n      tag_568\n        /* \"#utility.yul\":10666:10669   */\n      dup3\n        /* \"#utility.yul\":10577:10670   */\n      tag_569\n      jump\t// in\n    tag_568:\n        /* \"#utility.yul\":10695:10697   */\n      0x20\n        /* \"#utility.yul\":10690:10693   */\n      dup3\n        /* \"#utility.yul\":10686:10698   */\n      add\n        /* \"#utility.yul\":10679:10698   */\n      swap1\n      pop\n        /* \"#utility.yul\":10338:10704   */\n      swap2\n      swap1\n      pop\n      jump\t// out\n        /* \"#utility.yul\":10710:11076   */\n    tag_570:\n        /* \"#utility.yul\":10852:10855   */\n      0x00\n        /* \"#utility.yul\":10873:10940   */\n      tag_572\n        /* \"#utility.yul\":10937:10939   */\n      0x1d\n        /* \"#utility.yul\":10932:10935   */\n      dup4\n        /* \"#utility.yul\":10873:10940   */\n      tag_506\n      jump\t// in\n    tag_572:\n        /* \"#utility.yul\":10866:10940   */\n      swap2\n      pop\n        /* \"#utility.yul\":10949:11042   */\n      tag_573\n        /* \"#utility.yul\":11038:11041   */\n      dup3\n        /* \"#utility.yul\":10949:11042   */\n      tag_574\n      jump\t// in\n    tag_573:\n        /* \"#utility.yul\":11067:11069   */\n      0x20\n        /* \"#utility.yul\":11062:11065   */\n      dup3\n        /* \"#utility.yul\":11058:11070   */\n      add\n        /* \"#utility.yul\":11051:11070   */\n      swap1\n      pop\n        /* \"#utility.yul\":10710:11076   */\n      swap2\n      swap1\n      pop\n      jump\t// out\n        /* \"#utility.yul\":11082:11448   */\n    tag_575:\n        /* \"#utility.yul\":11224:11227   */\n      0x00\n        /* \"#utility.yul\":11245:11312   */\n      tag_577\n        /* \"#utility.yul\":11309:11311   */\n      0x2a\n        /* \"#utility.yul\":11304:11307   */\n      dup4\n        /* \"#utility.yul\":11245:11312   */\n      tag_506\n      jump\t// in\n    tag_577:\n        /* \"#utility.yul\":11238:11312   */\n      swap2\n      pop\n        /* \"#utility.yul\":11321:11414   */\n      tag_578\n        /* \"#utility.yul\":11410:11413   */\n      dup3\n        /* \"#utility.yul\":11321:11414   */\n      tag_579\n      jump\t// in\n    tag_578:\n        /* \"#utility.yul\":11439:11441   */\n      0x40\n        /* \"#utility.yul\":11434:11437   */\n      dup3\n        /* \"#utility.yul\":11430:11442   */\n      add\n        /* \"#utility.yul\":11423:11442   */\n      swap1\n      pop\n        /* \"#utility.yul\":11082:11448   */\n      swap2\n      swap1\n      pop\n      jump\t// out\n        /* \"#utility.yul\":11454:11820   */\n    tag_580:\n        /* \"#utility.yul\":11596:11599   */\n      0x00\n        /* \"#utility.yul\":11617:11684   */\n      tag_582\n        /* \"#utility.yul\":11681:11683   */\n      0x1f\n        /* \"#utility.yul\":11676:11679   */\n      dup4\n        /* \"#utility.yul\":11617:11684   */\n      tag_506\n      jump\t// in\n    tag_582:\n        /* \"#utility.yul\":11610:11684   */\n      swap2\n      pop\n        /* \"#utility.yul\":11693:11786   */\n      tag_583\n        /* \"#utility.yul\":11782:11785   */\n      dup3\n        /* \"#utility.yul\":11693:11786   */\n      tag_584\n      jump\t// in\n    tag_583:\n        /* \"#utility.yul\":11811:11813   */\n      0x20\n        /* \"#utility.yul\":11806:11809   */\n      dup3\n        /* \"#utility.yul\":11802:11814   */\n      add\n        /* \"#utility.yul\":11795:11814   */\n      swap1\n      pop\n        /* \"#utility.yul\":11454:11820   */\n      swap2\n      swap1\n      pop\n      jump\t// out\n        /* \"#utility.yul\":11826:11944   */\n    tag_585:\n        /* \"#utility.yul\":11913:11937   */\n      tag_587\n        /* \"#utility.yul\":11931:11936   */\n      dup2\n        /* \"#utility.yul\":11913:11937   */\n      tag_588\n      jump\t// in\n    tag_587:\n        /* \"#utility.yul\":11908:11911   */\n      dup3\n        /* \"#utility.yul\":11901:11938   */\n      mstore\n        /* \"#utility.yul\":11826:11944   */\n      pop\n      pop\n      jump\t// out\n        /* \"#utility.yul\":11950:12107   */\n    tag_589:\n        /* \"#utility.yul\":12055:12100   */\n      tag_591\n        /* \"#utility.yul\":12075:12099   */\n      tag_592\n        /* \"#utility.yul\":12093:12098   */\n      dup3\n        /* \"#utility.yul\":12075:12099   */\n      tag_588\n      jump\t// in\n    tag_592:\n        /* \"#utility.yul\":12055:12100   */\n      tag_593\n      jump\t// in\n    tag_591:\n        /* \"#utility.yul\":12050:12053   */\n      dup3\n        /* \"#utility.yul\":12043:12101   */\n      mstore\n        /* \"#utility.yul\":11950:12107   */\n      pop\n      pop\n      jump\t// out\n        /* \"#utility.yul\":12113:12827   */\n    tag_157:\n        /* \"#utility.yul\":12337:12340   */\n      0x00\n        /* \"#utility.yul\":12352:12427   */\n      tag_595\n        /* \"#utility.yul\":12423:12426   */\n      dup3\n        /* \"#utility.yul\":12414:12420   */\n      dup9\n        /* \"#utility.yul\":12352:12427   */\n      tag_471\n      jump\t// in\n    tag_595:\n        /* \"#utility.yul\":12452:12454   */\n      0x14\n        /* \"#utility.yul\":12447:12450   */\n      dup3\n        /* \"#utility.yul\":12443:12455   */\n      add\n        /* \"#utility.yul\":12436:12455   */\n      swap2\n      pop\n        /* \"#utility.yul\":12465:12540   */\n      tag_596\n        /* \"#utility.yul\":12536:12539   */\n      dup3\n        /* \"#utility.yul\":12527:12533   */\n      dup8\n        /* \"#utility.yul\":12465:12540   */\n      tag_471\n      jump\t// in\n    tag_596:\n        /* \"#utility.yul\":12565:12567   */\n      0x14\n        /* \"#utility.yul\":12560:12563   */\n      dup3\n        /* \"#utility.yul\":12556:12568   */\n      add\n        /* \"#utility.yul\":12549:12568   */\n      swap2\n      pop\n        /* \"#utility.yul\":12578:12653   */\n      tag_597\n        /* \"#utility.yul\":12649:12652   */\n      dup3\n        /* \"#utility.yul\":12640:12646   */\n      dup7\n        /* \"#utility.yul\":12578:12653   */\n      tag_589\n      jump\t// in\n    tag_597:\n        /* \"#utility.yul\":12678:12680   */\n      0x20\n        /* \"#utility.yul\":12673:12676   */\n      dup3\n        /* \"#utility.yul\":12669:12681   */\n      add\n        /* \"#utility.yul\":12662:12681   */\n      swap2\n      pop\n        /* \"#utility.yul\":12698:12801   */\n      tag_598\n        /* \"#utility.yul\":12797:12800   */\n      dup3\n        /* \"#utility.yul\":12788:12794   */\n      dup5\n        /* \"#utility.yul\":12780:12786   */\n      dup7\n        /* \"#utility.yul\":12698:12801   */\n      tag_484\n      jump\t// in\n    tag_598:\n        /* \"#utility.yul\":12691:12801   */\n      swap2\n      pop\n        /* \"#utility.yul\":12818:12821   */\n      dup2\n        /* \"#utility.yul\":12811:12821   */\n      swap1\n      pop\n        /* \"#utility.yul\":12113:12827   */\n      swap7\n      swap6\n      pop\n      pop\n      pop\n      pop\n      pop\n      pop\n      jump\t// out\n        /* \"#utility.yul\":12833:13104   */\n    tag_390:\n        /* \"#utility.yul\":12963:12966   */\n      0x00\n        /* \"#utility.yul\":12985:13078   */\n      tag_600\n        /* \"#utility.yul\":13074:13077   */\n      dup3\n        /* \"#utility.yul\":13065:13071   */\n      dup5\n        /* \"#utility.yul\":12985:13078   */\n      tag_490\n      jump\t// in\n    tag_600:\n        /* \"#utility.yul\":12978:13078   */\n      swap2\n      pop\n        /* \"#utility.yul\":13095:13098   */\n      dup2\n        /* \"#utility.yul\":13088:13098   */\n      swap1\n      pop\n        /* \"#utility.yul\":12833:13104   */\n      swap3\n      swap2\n      pop\n      pop\n      jump\t// out\n        /* \"#utility.yul\":13110:13332   */\n    tag_114:\n        /* \"#utility.yul\":13203:13207   */\n      0x00\n        /* \"#utility.yul\":13241:13243   */\n      0x20\n        /* \"#utility.yul\":13230:13239   */\n      dup3\n        /* \"#utility.yul\":13226:13244   */\n      add\n        /* \"#utility.yul\":13218:13244   */\n      swap1\n      pop\n        /* \"#utility.yul\":13254:13325   */\n      tag_602\n        /* \"#utility.yul\":13322:13323   */\n      0x00\n        /* \"#utility.yul\":13311:13320   */\n      dup4\n        /* \"#utility.yul\":13307:13324   */\n      add\n        /* \"#utility.yul\":13298:13304   */\n      dup5\n        /* \"#utility.yul\":13254:13325   */\n      tag_467\n      jump\t// in\n    tag_602:\n        /* \"#utility.yul\":13110:13332   */\n      swap3\n      swap2\n      pop\n      pop\n      jump\t// out\n        /* \"#utility.yul\":13338:13780   */\n    tag_351:\n        /* \"#utility.yul\":13487:13491   */\n      0x00\n        /* \"#utility.yul\":13525:13527   */\n      0x60\n        /* \"#utility.yul\":13514:13523   */\n      dup3\n        /* \"#utility.yul\":13510:13528   */\n      add\n        /* \"#utility.yul\":13502:13528   */\n      swap1\n      pop\n        /* \"#utility.yul\":13538:13609   */\n      tag_604\n        /* \"#utility.yul\":13606:13607   */\n      0x00\n        /* \"#utility.yul\":13595:13604   */\n      dup4\n        /* \"#utility.yul\":13591:13608   */\n      add\n        /* \"#utility.yul\":13582:13588   */\n      dup7\n        /* \"#utility.yul\":13538:13609   */\n      tag_467\n      jump\t// in\n    tag_604:\n        /* \"#utility.yul\":13619:13691   */\n      tag_605\n        /* \"#utility.yul\":13687:13689   */\n      0x20\n        /* \"#utility.yul\":13676:13685   */\n      dup4\n        /* \"#utility.yul\":13672:13690   */\n      add\n        /* \"#utility.yul\":13663:13669   */\n      dup6\n        /* \"#utility.yul\":13619:13691   */\n      tag_467\n      jump\t// in\n    tag_605:\n        /* \"#utility.yul\":13701:13773   */\n      tag_606\n        /* \"#utility.yul\":13769:13771   */\n      0x40\n        /* \"#utility.yul\":13758:13767   */\n      dup4\n        /* \"#utility.yul\":13754:13772   */\n      add\n        /* \"#utility.yul\":13745:13751   */\n      dup5\n        /* \"#utility.yul\":13701:13773   */\n      tag_585\n      jump\t// in\n    tag_606:\n        /* \"#utility.yul\":13338:13780   */\n      swap5\n      swap4\n      pop\n      pop\n      pop\n      pop\n      jump\t// out\n        /* \"#utility.yul\":13786:14118   */\n    tag_255:\n        /* \"#utility.yul\":13907:13911   */\n      0x00\n        /* \"#utility.yul\":13945:13947   */\n      0x40\n        /* \"#utility.yul\":13934:13943   */\n      dup3\n        /* \"#utility.yul\":13930:13948   */\n      add\n        /* \"#utility.yul\":13922:13948   */\n      swap1\n      pop\n        /* \"#utility.yul\":13958:14029   */\n      tag_608\n        /* \"#utility.yul\":14026:14027   */\n      0x00\n        /* \"#utility.yul\":14015:14024   */\n      dup4\n        /* \"#utility.yul\":14011:14028   */\n      add\n        /* \"#utility.yul\":14002:14008   */\n      dup6\n        /* \"#utility.yul\":13958:14029   */\n      tag_467\n      jump\t// in\n    tag_608:\n        /* \"#utility.yul\":14039:14111   */\n      tag_609\n        /* \"#utility.yul\":14107:14109   */\n      0x20\n        /* \"#utility.yul\":14096:14105   */\n      dup4\n        /* \"#utility.yul\":14092:14110   */\n      add\n        /* \"#utility.yul\":14083:14089   */\n      dup5\n        /* \"#utility.yul\":14039:14111   */\n      tag_585\n      jump\t// in\n    tag_609:\n        /* \"#utility.yul\":13786:14118   */\n      swap4\n      swap3\n      pop\n      pop\n      pop\n      jump\t// out\n        /* \"#utility.yul\":14124:14334   */\n    tag_82:\n        /* \"#utility.yul\":14211:14215   */\n      0x00\n        /* \"#utility.yul\":14249:14251   */\n      0x20\n        /* \"#utility.yul\":14238:14247   */\n      dup3\n        /* \"#utility.yul\":14234:14252   */\n      add\n        /* \"#utility.yul\":14226:14252   */\n      swap1\n      pop\n        /* \"#utility.yul\":14262:14327   */\n      tag_611\n        /* \"#utility.yul\":14324:14325   */\n      0x00\n        /* \"#utility.yul\":14313:14322   */\n      dup4\n        /* \"#utility.yul\":14309:14326   */\n      add\n        /* \"#utility.yul\":14300:14306   */\n      dup5\n        /* \"#utility.yul\":14262:14327   */\n      tag_476\n      jump\t// in\n    tag_611:\n        /* \"#utility.yul\":14124:14334   */\n      swap3\n      swap2\n      pop\n      pop\n      jump\t// out\n        /* \"#utility.yul\":14340:14558   */\n    tag_55:\n        /* \"#utility.yul\":14431:14435   */\n      0x00\n        /* \"#utility.yul\":14469:14471   */\n      0x20\n        /* \"#utility.yul\":14458:14467   */\n      dup3\n        /* \"#utility.yul\":14454:14472   */\n      add\n        /* \"#utility.yul\":14446:14472   */\n      swap1\n      pop\n        /* \"#utility.yul\":14482:14551   */\n      tag_613\n        /* \"#utility.yul\":14548:14549   */\n      0x00\n        /* \"#utility.yul\":14537:14546   */\n      dup4\n        /* \"#utility.yul\":14533:14550   */\n      add\n        /* \"#utility.yul\":14524:14530   */\n      dup5\n        /* \"#utility.yul\":14482:14551   */\n      tag_480\n      jump\t// in\n    tag_613:\n        /* \"#utility.yul\":14340:14558   */\n      swap3\n      swap2\n      pop\n      pop\n      jump\t// out\n        /* \"#utility.yul\":14564:14814   */\n    tag_92:\n        /* \"#utility.yul\":14671:14675   */\n      0x00\n        /* \"#utility.yul\":14709:14711   */\n      0x20\n        /* \"#utility.yul\":14698:14707   */\n      dup3\n        /* \"#utility.yul\":14694:14712   */\n      add\n        /* \"#utility.yul\":14686:14712   */\n      swap1\n      pop\n        /* \"#utility.yul\":14722:14807   */\n      tag_615\n        /* \"#utility.yul\":14804:14805   */\n      0x00\n        /* \"#utility.yul\":14793:14802   */\n      dup4\n        /* \"#utility.yul\":14789:14806   */\n      add\n        /* \"#utility.yul\":14780:14786   */\n      dup5\n        /* \"#utility.yul\":14722:14807   */\n      tag_497\n      jump\t// in\n    tag_615:\n        /* \"#utility.yul\":14564:14814   */\n      swap3\n      swap2\n      pop\n      pop\n      jump\t// out\n        /* \"#utility.yul\":14820:15133   */\n    tag_355:\n        /* \"#utility.yul\":14933:14937   */\n      0x00\n        /* \"#utility.yul\":14971:14973   */\n      0x20\n        /* \"#utility.yul\":14960:14969   */\n      dup3\n        /* \"#utility.yul\":14956:14974   */\n      add\n        /* \"#utility.yul\":14948:14974   */\n      swap1\n      pop\n        /* \"#utility.yul\":15020:15029   */\n      dup2\n        /* \"#utility.yul\":15014:15018   */\n      dup2\n        /* \"#utility.yul\":15010:15030   */\n      sub\n        /* \"#utility.yul\":15006:15007   */\n      0x00\n        /* \"#utility.yul\":14995:15004   */\n      dup4\n        /* \"#utility.yul\":14991:15008   */\n      add\n        /* \"#utility.yul\":14984:15031   */\n      mstore\n        /* \"#utility.yul\":15048:15126   */\n      tag_617\n        /* \"#utility.yul\":15121:15125   */\n      dup2\n        /* \"#utility.yul\":15112:15118   */\n      dup5\n        /* \"#utility.yul\":15048:15126   */\n      tag_501\n      jump\t// in\n    tag_617:\n        /* \"#utility.yul\":15040:15126   */\n      swap1\n      pop\n        /* \"#utility.yul\":14820:15133   */\n      swap3\n      swap2\n      pop\n      pop\n      jump\t// out\n        /* \"#utility.yul\":15139:15558   */\n    tag_282:\n        /* \"#utility.yul\":15305:15309   */\n      0x00\n        /* \"#utility.yul\":15343:15345   */\n      0x20\n        /* \"#utility.yul\":15332:15341   */\n      dup3\n        /* \"#utility.yul\":15328:15346   */\n      add\n        /* \"#utility.yul\":15320:15346   */\n      swap1\n      pop\n        /* \"#utility.yul\":15392:15401   */\n      dup2\n        /* \"#utility.yul\":15386:15390   */\n      dup2\n        /* \"#utility.yul\":15382:15402   */\n      sub\n        /* \"#utility.yul\":15378:15379   */\n      0x00\n        /* \"#utility.yul\":15367:15376   */\n      dup4\n        /* \"#utility.yul\":15363:15380   */\n      add\n        /* \"#utility.yul\":15356:15403   */\n      mstore\n        /* \"#utility.yul\":15420:15551   */\n      tag_619\n        /* \"#utility.yul\":15546:15550   */\n      dup2\n        /* \"#utility.yul\":15420:15551   */\n      tag_510\n      jump\t// in\n    tag_619:\n        /* \"#utility.yul\":15412:15551   */\n      swap1\n      pop\n        /* \"#utility.yul\":15139:15558   */\n      swap2\n      swap1\n      pop\n      jump\t// out\n        /* \"#utility.yul\":15564:15983   */\n    tag_300:\n        /* \"#utility.yul\":15730:15734   */\n      0x00\n        /* \"#utility.yul\":15768:15770   */\n      0x20\n        /* \"#utility.yul\":15757:15766   */\n      dup3\n        /* \"#utility.yul\":15753:15771   */\n      add\n        /* \"#utility.yul\":15745:15771   */\n      swap1\n      pop\n        /* \"#utility.yul\":15817:15826   */\n      dup2\n        /* \"#utility.yul\":15811:15815   */\n      dup2\n        /* \"#utility.yul\":15807:15827   */\n      sub\n        /* \"#utility.yul\":15803:15804   */\n      0x00\n        /* \"#utility.yul\":15792:15801   */\n      dup4\n        /* \"#utility.yul\":15788:15805   */\n      add\n        /* \"#utility.yul\":15781:15828   */\n      mstore\n        /* \"#utility.yul\":15845:15976   */\n      tag_621\n        /* \"#utility.yul\":15971:15975   */\n      dup2\n        /* \"#utility.yul\":15845:15976   */\n      tag_515\n      jump\t// in\n    tag_621:\n        /* \"#utility.yul\":15837:15976   */\n      swap1\n      pop\n        /* \"#utility.yul\":15564:15983   */\n      swap2\n      swap1\n      pop\n      jump\t// out\n        /* \"#utility.yul\":15989:16408   */\n    tag_270:\n        /* \"#utility.yul\":16155:16159   */\n      0x00\n        /* \"#utility.yul\":16193:16195   */\n      0x20\n        /* \"#utility.yul\":16182:16191   */\n      dup3\n        /* \"#utility.yul\":16178:16196   */\n      add\n        /* \"#utility.yul\":16170:16196   */\n      swap1\n      pop\n        /* \"#utility.yul\":16242:16251   */\n      dup2\n        /* \"#utility.yul\":16236:16240   */\n      dup2\n        /* \"#utility.yul\":16232:16252   */\n      sub\n        /* \"#utility.yul\":16228:16229   */\n      0x00\n        /* \"#utility.yul\":16217:16226   */\n      dup4\n        /* \"#utility.yul\":16213:16230   */\n      add\n        /* \"#utility.yul\":16206:16253   */\n      mstore\n        /* \"#utility.yul\":16270:16401   */\n      tag_623\n        /* \"#utility.yul\":16396:16400   */\n      dup2\n        /* \"#utility.yul\":16270:16401   */\n      tag_520\n      jump\t// in\n    tag_623:\n        /* \"#utility.yul\":16262:16401   */\n      swap1\n      pop\n        /* \"#utility.yul\":15989:16408   */\n      swap2\n      swap1\n      pop\n      jump\t// out\n        /* \"#utility.yul\":16414:16833   */\n    tag_325:\n        /* \"#utility.yul\":16580:16584   */\n      0x00\n        /* \"#utility.yul\":16618:16620   */\n      0x20\n        /* \"#utility.yul\":16607:16616   */\n      dup3\n        /* \"#utility.yul\":16603:16621   */\n      add\n        /* \"#utility.yul\":16595:16621   */\n      swap1\n      pop\n        /* \"#utility.yul\":16667:16676   */\n      dup2\n        /* \"#utility.yul\":16661:16665   */\n      dup2\n        /* \"#utility.yul\":16657:16677   */\n      sub\n        /* \"#utility.yul\":16653:16654   */\n      0x00\n        /* \"#utility.yul\":16642:16651   */\n      dup4\n        /* \"#utility.yul\":16638:16655   */\n      add\n        /* \"#utility.yul\":16631:16678   */\n      mstore\n        /* \"#utility.yul\":16695:16826   */\n      tag_625\n        /* \"#utility.yul\":16821:16825   */\n      dup2\n        /* \"#utility.yul\":16695:16826   */\n      tag_525\n      jump\t// in\n    tag_625:\n        /* \"#utility.yul\":16687:16826   */\n      swap1\n      pop\n        /* \"#utility.yul\":16414:16833   */\n      swap2\n      swap1\n      pop\n      jump\t// out\n        /* \"#utility.yul\":16839:17258   */\n    tag_248:\n        /* \"#utility.yul\":17005:17009   */\n      0x00\n        /* \"#utility.yul\":17043:17045   */\n      0x20\n        /* \"#utility.yul\":17032:17041   */\n      dup3\n        /* \"#utility.yul\":17028:17046   */\n      add\n        /* \"#utility.yul\":17020:17046   */\n      swap1\n      pop\n        /* \"#utility.yul\":17092:17101   */\n      dup2\n        /* \"#utility.yul\":17086:17090   */\n      dup2\n        /* \"#utility.yul\":17082:17102   */\n      sub\n        /* \"#utility.yul\":17078:17079   */\n      0x00\n        /* \"#utility.yul\":17067:17076   */\n      dup4\n        /* \"#utility.yul\":17063:17080   */\n      add\n        /* \"#utility.yul\":17056:17103   */\n      mstore\n        /* \"#utility.yul\":17120:17251   */\n      tag_627\n        /* \"#utility.yul\":17246:17250   */\n      dup2\n        /* \"#utility.yul\":17120:17251   */\n      tag_530\n      jump\t// in\n    tag_627:\n        /* \"#utility.yul\":17112:17251   */\n      swap1\n      pop\n        /* \"#utility.yul\":16839:17258   */\n      swap2\n      swap1\n      pop\n      jump\t// out\n        /* \"#utility.yul\":17264:17683   */\n    tag_383:\n        /* \"#utility.yul\":17430:17434   */\n      0x00\n        /* \"#utility.yul\":17468:17470   */\n      0x20\n        /* \"#utility.yul\":17457:17466   */\n      dup3\n        /* \"#utility.yul\":17453:17471   */\n      add\n        /* \"#utility.yul\":17445:17471   */\n      swap1\n      pop\n        /* \"#utility.yul\":17517:17526   */\n      dup2\n        /* \"#utility.yul\":17511:17515   */\n      dup2\n        /* \"#utility.yul\":17507:17527   */\n      sub\n        /* \"#utility.yul\":17503:17504   */\n      0x00\n        /* \"#utility.yul\":17492:17501   */\n      dup4\n        /* \"#utility.yul\":17488:17505   */\n      add\n        /* \"#utility.yul\":17481:17528   */\n      mstore\n        /* \"#utility.yul\":17545:17676   */\n      tag_629\n        /* \"#utility.yul\":17671:17675   */\n      dup2\n        /* \"#utility.yul\":17545:17676   */\n      tag_535\n      jump\t// in\n    tag_629:\n        /* \"#utility.yul\":17537:17676   */\n      swap1\n      pop\n        /* \"#utility.yul\":17264:17683   */\n      swap2\n      swap1\n      pop\n      jump\t// out\n        /* \"#utility.yul\":17689:18108   */\n    tag_347:\n        /* \"#utility.yul\":17855:17859   */\n      0x00\n        /* \"#utility.yul\":17893:17895   */\n      0x20\n        /* \"#utility.yul\":17882:17891   */\n      dup3\n        /* \"#utility.yul\":17878:17896   */\n      add\n        /* \"#utility.yul\":17870:17896   */\n      swap1\n      pop\n        /* \"#utility.yul\":17942:17951   */\n      dup2\n        /* \"#utility.yul\":17936:17940   */\n      dup2\n        /* \"#utility.yul\":17932:17952   */\n      sub\n        /* \"#utility.yul\":17928:17929   */\n      0x00\n        /* \"#utility.yul\":17917:17926   */\n      dup4\n        /* \"#utility.yul\":17913:17930   */\n      add\n        /* \"#utility.yul\":17906:17953   */\n      mstore\n        /* \"#utility.yul\":17970:18101   */\n      tag_631\n        /* \"#utility.yul\":18096:18100   */\n      dup2\n        /* \"#utility.yul\":17970:18101   */\n      tag_540\n      jump\t// in\n    tag_631:\n        /* \"#utility.yul\":17962:18101   */\n      swap1\n      pop\n        /* \"#utility.yul\":17689:18108   */\n      swap2\n      swap1\n      pop\n      jump\t// out\n        /* \"#utility.yul\":18114:18533   */\n    tag_172:\n        /* \"#utility.yul\":18280:18284   */\n      0x00\n        /* \"#utility.yul\":18318:18320   */\n      0x20\n        /* \"#utility.yul\":18307:18316   */\n      dup3\n        /* \"#utility.yul\":18303:18321   */\n      add\n        /* \"#utility.yul\":18295:18321   */\n      swap1\n      pop\n        /* \"#utility.yul\":18367:18376   */\n      dup2\n        /* \"#utility.yul\":18361:18365   */\n      dup2\n        /* \"#utility.yul\":18357:18377   */\n      sub\n        /* \"#utility.yul\":18353:18354   */\n      0x00\n        /* \"#utility.yul\":18342:18351   */\n      dup4\n        /* \"#utility.yul\":18338:18355   */\n      add\n        /* \"#utility.yul\":18331:18378   */\n      mstore\n        /* \"#utility.yul\":18395:18526   */\n      tag_633\n        /* \"#utility.yul\":18521:18525   */\n      dup2\n        /* \"#utility.yul\":18395:18526   */\n      tag_545\n      jump\t// in\n    tag_633:\n        /* \"#utility.yul\":18387:18526   */\n      swap1\n      pop\n        /* \"#utility.yul\":18114:18533   */\n      swap2\n      swap1\n      pop\n      jump\t// out\n        /* \"#utility.yul\":18539:18958   */\n    tag_313:\n        /* \"#utility.yul\":18705:18709   */\n      0x00\n        /* \"#utility.yul\":18743:18745   */\n      0x20\n        /* \"#utility.yul\":18732:18741   */\n      dup3\n        /* \"#utility.yul\":18728:18746   */\n      add\n        /* \"#utility.yul\":18720:18746   */\n      swap1\n      pop\n        /* \"#utility.yul\":18792:18801   */\n      dup2\n        /* \"#utility.yul\":18786:18790   */\n      dup2\n        /* \"#utility.yul\":18782:18802   */\n      sub\n        /* \"#utility.yul\":18778:18779   */\n      0x00\n        /* \"#utility.yul\":18767:18776   */\n      dup4\n        /* \"#utility.yul\":18763:18780   */\n      add\n        /* \"#utility.yul\":18756:18803   */\n      mstore\n        /* \"#utility.yul\":18820:18951   */\n      tag_635\n        /* \"#utility.yul\":18946:18950   */\n      dup2\n        /* \"#utility.yul\":18820:18951   */\n      tag_550\n      jump\t// in\n    tag_635:\n        /* \"#utility.yul\":18812:18951   */\n      swap1\n      pop\n        /* \"#utility.yul\":18539:18958   */\n      swap2\n      swap1\n      pop\n      jump\t// out\n        /* \"#utility.yul\":18964:19383   */\n    tag_341:\n        /* \"#utility.yul\":19130:19134   */\n      0x00\n        /* \"#utility.yul\":19168:19170   */\n      0x20\n        /* \"#utility.yul\":19157:19166   */\n      dup3\n        /* \"#utility.yul\":19153:19171   */\n      add\n        /* \"#utility.yul\":19145:19171   */\n      swap1\n      pop\n        /* \"#utility.yul\":19217:19226   */\n      dup2\n        /* \"#utility.yul\":19211:19215   */\n      dup2\n        /* \"#utility.yul\":19207:19227   */\n      sub\n        /* \"#utility.yul\":19203:19204   */\n      0x00\n        /* \"#utility.yul\":19192:19201   */\n      dup4\n        /* \"#utility.yul\":19188:19205   */\n      add\n        /* \"#utility.yul\":19181:19228   */\n      mstore\n        /* \"#utility.yul\":19245:19376   */\n      tag_637\n        /* \"#utility.yul\":19371:19375   */\n      dup2\n        /* \"#utility.yul\":19245:19376   */\n      tag_555\n      jump\t// in\n    tag_637:\n        /* \"#utility.yul\":19237:19376   */\n      swap1\n      pop\n        /* \"#utility.yul\":18964:19383   */\n      swap2\n      swap1\n      pop\n      jump\t// out\n        /* \"#utility.yul\":19389:19808   */\n    tag_252:\n        /* \"#utility.yul\":19555:19559   */\n      0x00\n        /* \"#utility.yul\":19593:19595   */\n      0x20\n        /* \"#utility.yul\":19582:19591   */\n      dup3\n        /* \"#utility.yul\":19578:19596   */\n      add\n        /* \"#utility.yul\":19570:19596   */\n      swap1\n      pop\n        /* \"#utility.yul\":19642:19651   */\n      dup2\n        /* \"#utility.yul\":19636:19640   */\n      dup2\n        /* \"#utility.yul\":19632:19652   */\n      sub\n        /* \"#utility.yul\":19628:19629   */\n      0x00\n        /* \"#utility.yul\":19617:19626   */\n      dup4\n        /* \"#utility.yul\":19613:19630   */\n      add\n        /* \"#utility.yul\":19606:19653   */\n      mstore\n        /* \"#utility.yul\":19670:19801   */\n      tag_639\n        /* \"#utility.yul\":19796:19800   */\n      dup2\n        /* \"#utility.yul\":19670:19801   */\n      tag_560\n      jump\t// in\n    tag_639:\n        /* \"#utility.yul\":19662:19801   */\n      swap1\n      pop\n        /* \"#utility.yul\":19389:19808   */\n      swap2\n      swap1\n      pop\n      jump\t// out\n        /* \"#utility.yul\":19814:20233   */\n    tag_216:\n        /* \"#utility.yul\":19980:19984   */\n      0x00\n        /* \"#utility.yul\":20018:20020   */\n      0x20\n        /* \"#utility.yul\":20007:20016   */\n      dup3\n        /* \"#utility.yul\":20003:20021   */\n      add\n        /* \"#utility.yul\":19995:20021   */\n      swap1\n      pop\n        /* \"#utility.yul\":20067:20076   */\n      dup2\n        /* \"#utility.yul\":20061:20065   */\n      dup2\n        /* \"#utility.yul\":20057:20077   */\n      sub\n        /* \"#utility.yul\":20053:20054   */\n      0x00\n        /* \"#utility.yul\":20042:20051   */\n      dup4\n        /* \"#utility.yul\":20038:20055   */\n      add\n        /* \"#utility.yul\":20031:20078   */\n      mstore\n        /* \"#utility.yul\":20095:20226   */\n      tag_641\n        /* \"#utility.yul\":20221:20225   */\n      dup2\n        /* \"#utility.yul\":20095:20226   */\n      tag_565\n      jump\t// in\n    tag_641:\n        /* \"#utility.yul\":20087:20226   */\n      swap1\n      pop\n        /* \"#utility.yul\":19814:20233   */\n      swap2\n      swap1\n      pop\n      jump\t// out\n        /* \"#utility.yul\":20239:20658   */\n    tag_388:\n        /* \"#utility.yul\":20405:20409   */\n      0x00\n        /* \"#utility.yul\":20443:20445   */\n      0x20\n        /* \"#utility.yul\":20432:20441   */\n      dup3\n        /* \"#utility.yul\":20428:20446   */\n      add\n        /* \"#utility.yul\":20420:20446   */\n      swap1\n      pop\n        /* \"#utility.yul\":20492:20501   */\n      dup2\n        /* \"#utility.yul\":20486:20490   */\n      dup2\n        /* \"#utility.yul\":20482:20502   */\n      sub\n        /* \"#utility.yul\":20478:20479   */\n      0x00\n        /* \"#utility.yul\":20467:20476   */\n      dup4\n        /* \"#utility.yul\":20463:20480   */\n      add\n        /* \"#utility.yul\":20456:20503   */\n      mstore\n        /* \"#utility.yul\":20520:20651   */\n      tag_643\n        /* \"#utility.yul\":20646:20650   */\n      dup2\n        /* \"#utility.yul\":20520:20651   */\n      tag_570\n      jump\t// in\n    tag_643:\n        /* \"#utility.yul\":20512:20651   */\n      swap1\n      pop\n        /* \"#utility.yul\":20239:20658   */\n      swap2\n      swap1\n      pop\n      jump\t// out\n        /* \"#utility.yul\":20664:21083   */\n    tag_375:\n        /* \"#utility.yul\":20830:20834   */\n      0x00\n        /* \"#utility.yul\":20868:20870   */\n      0x20\n        /* \"#utility.yul\":20857:20866   */\n      dup3\n        /* \"#utility.yul\":20853:20871   */\n      add\n        /* \"#utility.yul\":20845:20871   */\n      swap1\n      pop\n        /* \"#utility.yul\":20917:20926   */\n      dup2\n        /* \"#utility.yul\":20911:20915   */\n      dup2\n        /* \"#utility.yul\":20907:20927   */\n      sub\n        /* \"#utility.yul\":20903:20904   */\n      0x00\n        /* \"#utility.yul\":20892:20901   */\n      dup4\n        /* \"#utility.yul\":20888:20905   */\n      add\n        /* \"#utility.yul\":20881:20928   */\n      mstore\n        /* \"#utility.yul\":20945:21076   */\n      tag_645\n        /* \"#utility.yul\":21071:21075   */\n      dup2\n        /* \"#utility.yul\":20945:21076   */\n      tag_575\n      jump\t// in\n    tag_645:\n        /* \"#utility.yul\":20937:21076   */\n      swap1\n      pop\n        /* \"#utility.yul\":20664:21083   */\n      swap2\n      swap1\n      pop\n      jump\t// out\n        /* \"#utility.yul\":21089:21508   */\n    tag_329:\n        /* \"#utility.yul\":21255:21259   */\n      0x00\n        /* \"#utility.yul\":21293:21295   */\n      0x20\n        /* \"#utility.yul\":21282:21291   */\n      dup3\n        /* \"#utility.yul\":21278:21296   */\n      add\n        /* \"#utility.yul\":21270:21296   */\n      swap1\n      pop\n        /* \"#utility.yul\":21342:21351   */\n      dup2\n        /* \"#utility.yul\":21336:21340   */\n      dup2\n        /* \"#utility.yul\":21332:21352   */\n      sub\n        /* \"#utility.yul\":21328:21329   */\n      0x00\n        /* \"#utility.yul\":21317:21326   */\n      dup4\n        /* \"#utility.yul\":21313:21330   */\n      add\n        /* \"#utility.yul\":21306:21353   */\n      mstore\n        /* \"#utility.yul\":21370:21501   */\n      tag_647\n        /* \"#utility.yul\":21496:21500   */\n      dup2\n        /* \"#utility.yul\":21370:21501   */\n      tag_580\n      jump\t// in\n    tag_647:\n        /* \"#utility.yul\":21362:21501   */\n      swap1\n      pop\n        /* \"#utility.yul\":21089:21508   */\n      swap2\n      swap1\n      pop\n      jump\t// out\n        /* \"#utility.yul\":21514:21736   */\n    tag_45:\n        /* \"#utility.yul\":21607:21611   */\n      0x00\n        /* \"#utility.yul\":21645:21647   */\n      0x20\n        /* \"#utility.yul\":21634:21643   */\n      dup3\n        /* \"#utility.yul\":21630:21648   */\n      add\n        /* \"#utility.yul\":21622:21648   */\n      swap1\n      pop\n        /* \"#utility.yul\":21658:21729   */\n      tag_649\n        /* \"#utility.yul\":21726:21727   */\n      0x00\n        /* \"#utility.yul\":21715:21724   */\n      dup4\n        /* \"#utility.yul\":21711:21728   */\n      add\n        /* \"#utility.yul\":21702:21708   */\n      dup5\n        /* \"#utility.yul\":21658:21729   */\n      tag_585\n      jump\t// in\n    tag_649:\n        /* \"#utility.yul\":21514:21736   */\n      swap3\n      swap2\n      pop\n      pop\n      jump\t// out\n        /* \"#utility.yul\":21823:21921   */\n    tag_493:\n        /* \"#utility.yul\":21874:21880   */\n      0x00\n        /* \"#utility.yul\":21908:21913   */\n      dup2\n        /* \"#utility.yul\":21902:21914   */\n      mload\n        /* \"#utility.yul\":21892:21914   */\n      swap1\n      pop\n        /* \"#utility.yul\":21823:21921   */\n      swap2\n      swap1\n      pop\n      jump\t// out\n        /* \"#utility.yul\":21927:22026   */\n    tag_504:\n        /* \"#utility.yul\":21979:21985   */\n      0x00\n        /* \"#utility.yul\":22013:22018   */\n      dup2\n        /* \"#utility.yul\":22007:22019   */\n      mload\n        /* \"#utility.yul\":21997:22019   */\n      swap1\n      pop\n        /* \"#utility.yul\":21927:22026   */\n      swap2\n      swap1\n      pop\n      jump\t// out\n        /* \"#utility.yul\":22032:22179   */\n    tag_487:\n        /* \"#utility.yul\":22133:22144   */\n      0x00\n        /* \"#utility.yul\":22170:22173   */\n      dup2\n        /* \"#utility.yul\":22155:22173   */\n      swap1\n      pop\n        /* \"#utility.yul\":22032:22179   */\n      swap3\n      swap2\n      pop\n      pop\n      jump\t// out\n        /* \"#utility.yul\":22185:22354   */\n    tag_506:\n        /* \"#utility.yul\":22269:22280   */\n      0x00\n        /* \"#utility.yul\":22303:22309   */\n      dup3\n        /* \"#utility.yul\":22298:22301   */\n      dup3\n        /* \"#utility.yul\":22291:22310   */\n      mstore\n        /* \"#utility.yul\":22343:22347   */\n      0x20\n        /* \"#utility.yul\":22338:22341   */\n      dup3\n        /* \"#utility.yul\":22334:22348   */\n      add\n        /* \"#utility.yul\":22319:22348   */\n      swap1\n      pop\n        /* \"#utility.yul\":22185:22354   */\n      swap3\n      swap2\n      pop\n      pop\n      jump\t// out\n        /* \"#utility.yul\":22360:22665   */\n    tag_322:\n        /* \"#utility.yul\":22400:22403   */\n      0x00\n        /* \"#utility.yul\":22419:22439   */\n      tag_657\n        /* \"#utility.yul\":22437:22438   */\n      dup3\n        /* \"#utility.yul\":22419:22439   */\n      tag_588\n      jump\t// in\n    tag_657:\n        /* \"#utility.yul\":22414:22439   */\n      swap2\n      pop\n        /* \"#utility.yul\":22453:22473   */\n      tag_658\n        /* \"#utility.yul\":22471:22472   */\n      dup4\n        /* \"#utility.yul\":22453:22473   */\n      tag_588\n      jump\t// in\n    tag_658:\n        /* \"#utility.yul\":22448:22473   */\n      swap3\n      pop\n        /* \"#utility.yul\":22607:22608   */\n      dup3\n        /* \"#utility.yul\":22539:22605   */\n      0xffffffffffffffffffffffffffffffffffffffffffffffffffffffffffffffff\n        /* \"#utility.yul\":22535:22609   */\n      sub\n        /* \"#utility.yul\":22532:22533   */\n      dup3\n        /* \"#utility.yul\":22529:22610   */\n      gt\n        /* \"#utility.yul\":22526:22633   */\n      iszero\n      tag_659\n      jumpi\n        /* \"#utility.yul\":22613:22631   */\n      tag_660\n      tag_661\n      jump\t// in\n    tag_660:\n        /* \"#utility.yul\":22526:22633   */\n    tag_659:\n        /* \"#utility.yul\":22657:22658   */\n      dup3\n        /* \"#utility.yul\":22654:22655   */\n      dup3\n        /* \"#utility.yul\":22650:22659   */\n      add\n        /* \"#utility.yul\":22643:22659   */\n      swap1\n      pop\n        /* \"#utility.yul\":22360:22665   */\n      swap3\n      swap2\n      pop\n      pop\n      jump\t// out\n        /* \"#utility.yul\":22671:22856   */\n    tag_310:\n        /* \"#utility.yul\":22711:22712   */\n      0x00\n        /* \"#utility.yul\":22728:22748   */\n      tag_663\n        /* \"#utility.yul\":22746:22747   */\n      dup3\n        /* \"#utility.yul\":22728:22748   */\n      tag_588\n      jump\t// in\n    tag_663:\n        /* \"#utility.yul\":22723:22748   */\n      swap2\n      pop\n        /* \"#utility.yul\":22762:22782   */\n      tag_664\n        /* \"#utility.yul\":22780:22781   */\n      dup4\n        /* \"#utility.yul\":22762:22782   */\n      tag_588\n      jump\t// in\n    tag_664:\n        /* \"#utility.yul\":22757:22782   */\n      swap3\n      pop\n        /* \"#utility.yul\":22801:22802   */\n      dup3\n        /* \"#utility.yul\":22791:22826   */\n      tag_665\n      jumpi\n        /* \"#utility.yul\":22806:22824   */\n      tag_666\n      tag_667\n      jump\t// in\n    tag_666:\n        /* \"#utility.yul\":22791:22826   */\n    tag_665:\n        /* \"#utility.yul\":22848:22849   */\n      dup3\n        /* \"#utility.yul\":22845:22846   */\n      dup3\n        /* \"#utility.yul\":22841:22850   */\n      div\n        /* \"#utility.yul\":22836:22850   */\n      swap1\n      pop\n        /* \"#utility.yul\":22671:22856   */\n      swap3\n      swap2\n      pop\n      pop\n      jump\t// out\n        /* \"#utility.yul\":22862:23210   */\n    tag_308:\n        /* \"#utility.yul\":22902:22909   */\n      0x00\n        /* \"#utility.yul\":22925:22945   */\n      tag_669\n        /* \"#utility.yul\":22943:22944   */\n      dup3\n        /* \"#utility.yul\":22925:22945   */\n      tag_588\n      jump\t// in\n    tag_669:\n        /* \"#utility.yul\":22920:22945   */\n      swap2\n      pop\n        /* \"#utility.yul\":22959:22979   */\n      tag_670\n        /* \"#utility.yul\":22977:22978   */\n      dup4\n        /* \"#utility.yul\":22959:22979   */\n      tag_588\n      jump\t// in\n    tag_670:\n        /* \"#utility.yul\":22954:22979   */\n      swap3\n      pop\n        /* \"#utility.yul\":23147:23148   */\n      dup2\n        /* \"#utility.yul\":23079:23145   */\n      0xffffffffffffffffffffffffffffffffffffffffffffffffffffffffffffffff\n        /* \"#utility.yul\":23075:23149   */\n      div\n        /* \"#utility.yul\":23072:23073   */\n      dup4\n        /* \"#utility.yul\":23069:23150   */\n      gt\n        /* \"#utility.yul\":23064:23065   */\n      dup3\n        /* \"#utility.yul\":23057:23066   */\n      iszero\n        /* \"#utility.yul\":23050:23067   */\n      iszero\n        /* \"#utility.yul\":23046:23151   */\n      and\n        /* \"#utility.yul\":23043:23174   */\n      iszero\n      tag_671\n      jumpi\n        /* \"#utility.yul\":23154:23172   */\n      tag_672\n      tag_661\n      jump\t// in\n    tag_672:\n        /* \"#utility.yul\":23043:23174   */\n    tag_671:\n        /* \"#utility.yul\":23202:23203   */\n      dup3\n        /* \"#utility.yul\":23199:23200   */\n      dup3\n        /* \"#utility.yul\":23195:23204   */\n      mul\n        /* \"#utility.yul\":23184:23204   */\n      swap1\n      pop\n        /* \"#utility.yul\":22862:23210   */\n      swap3\n      swap2\n      pop\n      pop\n      jump\t// out\n        /* \"#utility.yul\":23216:23407   */\n    tag_366:\n        /* \"#utility.yul\":23256:23260   */\n      0x00\n        /* \"#utility.yul\":23276:23296   */\n      tag_674\n        /* \"#utility.yul\":23294:23295   */\n      dup3\n        /* \"#utility.yul\":23276:23296   */\n      tag_588\n      jump\t// in\n    tag_674:\n        /* \"#utility.yul\":23271:23296   */\n      swap2\n      pop\n        /* \"#utility.yul\":23310:23330   */\n      tag_675\n        /* \"#utility.yul\":23328:23329   */\n      dup4\n        /* \"#utility.yul\":23310:23330   */\n      tag_588\n      jump\t// in\n    tag_675:\n        /* \"#utility.yul\":23305:23330   */\n      swap3\n      pop\n        /* \"#utility.yul\":23349:23350   */\n      dup3\n        /* \"#utility.yul\":23346:23347   */\n      dup3\n        /* \"#utility.yul\":23343:23351   */\n      lt\n        /* \"#utility.yul\":23340:23374   */\n      iszero\n      tag_676\n      jumpi\n        /* \"#utility.yul\":23354:23372   */\n      tag_677\n      tag_661\n      jump\t// in\n    tag_677:\n        /* \"#utility.yul\":23340:23374   */\n    tag_676:\n        /* \"#utility.yul\":23399:23400   */\n      dup3\n        /* \"#utility.yul\":23396:23397   */\n      dup3\n        /* \"#utility.yul\":23392:23401   */\n      sub\n        /* \"#utility.yul\":23384:23401   */\n      swap1\n      pop\n        /* \"#utility.yul\":23216:23407   */\n      swap3\n      swap2\n      pop\n      pop\n      jump\t// out\n        /* \"#utility.yul\":23413:23509   */\n    tag_470:\n        /* \"#utility.yul\":23450:23457   */\n      0x00\n        /* \"#utility.yul\":23479:23503   */\n      tag_679\n        /* \"#utility.yul\":23497:23502   */\n      dup3\n        /* \"#utility.yul\":23479:23503   */\n      tag_680\n      jump\t// in\n    tag_679:\n        /* \"#utility.yul\":23468:23503   */\n      swap1\n      pop\n        /* \"#utility.yul\":23413:23509   */\n      swap2\n      swap1\n      pop\n      jump\t// out\n        /* \"#utility.yul\":23515:23605   */\n    tag_479:\n        /* \"#utility.yul\":23549:23556   */\n      0x00\n        /* \"#utility.yul\":23592:23597   */\n      dup2\n        /* \"#utility.yul\":23585:23598   */\n      iszero\n        /* \"#utility.yul\":23578:23599   */\n      iszero\n        /* \"#utility.yul\":23567:23599   */\n      swap1\n      pop\n        /* \"#utility.yul\":23515:23605   */\n      swap2\n      swap1\n      pop\n      jump\t// out\n        /* \"#utility.yul\":23611:23760   */\n    tag_483:\n        /* \"#utility.yul\":23647:23654   */\n      0x00\n        /* \"#utility.yul\":23687:23753   */\n      0xffffffff00000000000000000000000000000000000000000000000000000000\n        /* \"#utility.yul\":23680:23685   */\n      dup3\n        /* \"#utility.yul\":23676:23754   */\n      and\n        /* \"#utility.yul\":23665:23754   */\n      swap1\n      pop\n        /* \"#utility.yul\":23611:23760   */\n      swap2\n      swap1\n      pop\n      jump\t// out\n        /* \"#utility.yul\":23766:23892   */\n    tag_680:\n        /* \"#utility.yul\":23803:23810   */\n      0x00\n        /* \"#utility.yul\":23843:23885   */\n      0xffffffffffffffffffffffffffffffffffffffff\n        /* \"#utility.yul\":23836:23841   */\n      dup3\n        /* \"#utility.yul\":23832:23886   */\n      and\n        /* \"#utility.yul\":23821:23886   */\n      swap1\n      pop\n        /* \"#utility.yul\":23766:23892   */\n      swap2\n      swap1\n      pop\n      jump\t// out\n        /* \"#utility.yul\":23898:23975   */\n    tag_588:\n        /* \"#utility.yul\":23935:23942   */\n      0x00\n        /* \"#utility.yul\":23964:23969   */\n      dup2\n        /* \"#utility.yul\":23953:23969   */\n      swap1\n      pop\n        /* \"#utility.yul\":23898:23975   */\n      swap2\n      swap1\n      pop\n      jump\t// out\n        /* \"#utility.yul\":23981:24121   */\n    tag_500:\n        /* \"#utility.yul\":24045:24054   */\n      0x00\n        /* \"#utility.yul\":24078:24115   */\n      tag_686\n        /* \"#utility.yul\":24109:24114   */\n      dup3\n        /* \"#utility.yul\":24078:24115   */\n      tag_687\n      jump\t// in\n    tag_686:\n        /* \"#utility.yul\":24065:24115   */\n      swap1\n      pop\n        /* \"#utility.yul\":23981:24121   */\n      swap2\n      swap1\n      pop\n      jump\t// out\n        /* \"#utility.yul\":24127:24253   */\n    tag_687:\n        /* \"#utility.yul\":24177:24186   */\n      0x00\n        /* \"#utility.yul\":24210:24247   */\n      tag_689\n        /* \"#utility.yul\":24241:24246   */\n      dup3\n        /* \"#utility.yul\":24210:24247   */\n      tag_690\n      jump\t// in\n    tag_689:\n        /* \"#utility.yul\":24197:24247   */\n      swap1\n      pop\n        /* \"#utility.yul\":24127:24253   */\n      swap2\n      swap1\n      pop\n      jump\t// out\n        /* \"#utility.yul\":24259:24372   */\n    tag_690:\n        /* \"#utility.yul\":24309:24318   */\n      0x00\n        /* \"#utility.yul\":24342:24366   */\n      tag_692\n        /* \"#utility.yul\":24360:24365   */\n      dup3\n        /* \"#utility.yul\":24342:24366   */\n      tag_680\n      jump\t// in\n    tag_692:\n        /* \"#utility.yul\":24329:24366   */\n      swap1\n      pop\n        /* \"#utility.yul\":24259:24372   */\n      swap2\n      swap1\n      pop\n      jump\t// out\n        /* \"#utility.yul\":24378:24532   */\n    tag_489:\n        /* \"#utility.yul\":24462:24468   */\n      dup3\n        /* \"#utility.yul\":24457:24460   */\n      dup2\n        /* \"#utility.yul\":24452:24455   */\n      dup4\n        /* \"#utility.yul\":24439:24469   */\n      calldatacopy\n        /* \"#utility.yul\":24524:24525   */\n      0x00\n        /* \"#utility.yul\":24515:24521   */\n      dup4\n        /* \"#utility.yul\":24510:24513   */\n      dup4\n        /* \"#utility.yul\":24506:24522   */\n      add\n        /* \"#utility.yul\":24499:24526   */\n      mstore\n        /* \"#utility.yul\":24378:24532   */\n      pop\n      pop\n      pop\n      jump\t// out\n        /* \"#utility.yul\":24538:24845   */\n    tag_496:\n        /* \"#utility.yul\":24606:24607   */\n      0x00\n        /* \"#utility.yul\":24616:24729   */\n    tag_695:\n        /* \"#utility.yul\":24630:24636   */\n      dup4\n        /* \"#utility.yul\":24627:24628   */\n      dup2\n        /* \"#utility.yul\":24624:24637   */\n      lt\n        /* \"#utility.yul\":24616:24729   */\n      iszero\n      tag_697\n      jumpi\n        /* \"#utility.yul\":24715:24716   */\n      dup1\n        /* \"#utility.yul\":24710:24713   */\n      dup3\n        /* \"#utility.yul\":24706:24717   */\n      add\n        /* \"#utility.yul\":24700:24718   */\n      mload\n        /* \"#utility.yul\":24696:24697   */\n      dup2\n        /* \"#utility.yul\":24691:24694   */\n      dup5\n        /* \"#utility.yul\":24687:24698   */\n      add\n        /* \"#utility.yul\":24680:24719   */\n      mstore\n        /* \"#utility.yul\":24652:24654   */\n      0x20\n        /* \"#utility.yul\":24649:24650   */\n      dup2\n        /* \"#utility.yul\":24645:24655   */\n      add\n        /* \"#utility.yul\":24640:24655   */\n      swap1\n      pop\n        /* \"#utility.yul\":24616:24729   */\n      jump(tag_695)\n    tag_697:\n        /* \"#utility.yul\":24747:24753   */\n      dup4\n        /* \"#utility.yul\":24744:24745   */\n      dup2\n        /* \"#utility.yul\":24741:24754   */\n      gt\n        /* \"#utility.yul\":24738:24839   */\n      iszero\n      tag_698\n      jumpi\n        /* \"#utility.yul\":24827:24828   */\n      0x00\n        /* \"#utility.yul\":24818:24824   */\n      dup5\n        /* \"#utility.yul\":24813:24816   */\n      dup5\n        /* \"#utility.yul\":24809:24825   */\n      add\n        /* \"#utility.yul\":24802:24829   */\n      mstore\n        /* \"#utility.yul\":24738:24839   */\n    tag_698:\n        /* \"#utility.yul\":24587:24845   */\n      pop\n        /* \"#utility.yul\":24538:24845   */\n      pop\n      pop\n      pop\n      jump\t// out\n        /* \"#utility.yul\":24851:24951   */\n    tag_475:\n        /* \"#utility.yul\":24890:24897   */\n      0x00\n        /* \"#utility.yul\":24919:24945   */\n      tag_700\n        /* \"#utility.yul\":24939:24944   */\n      dup3\n        /* \"#utility.yul\":24919:24945   */\n      tag_701\n      jump\t// in\n    tag_700:\n        /* \"#utility.yul\":24908:24945   */\n      swap1\n      pop\n        /* \"#utility.yul\":24851:24951   */\n      swap2\n      swap1\n      pop\n      jump\t// out\n        /* \"#utility.yul\":24957:25051   */\n    tag_701:\n        /* \"#utility.yul\":24996:25003   */\n      0x00\n        /* \"#utility.yul\":25025:25045   */\n      tag_703\n        /* \"#utility.yul\":25039:25044   */\n      dup3\n        /* \"#utility.yul\":25025:25045   */\n      tag_704\n      jump\t// in\n    tag_703:\n        /* \"#utility.yul\":25014:25045   */\n      swap1\n      pop\n        /* \"#utility.yul\":24957:25051   */\n      swap2\n      swap1\n      pop\n      jump\t// out\n        /* \"#utility.yul\":25057:25136   */\n    tag_593:\n        /* \"#utility.yul\":25096:25103   */\n      0x00\n        /* \"#utility.yul\":25125:25130   */\n      dup2\n        /* \"#utility.yul\":25114:25130   */\n      swap1\n      pop\n        /* \"#utility.yul\":25057:25136   */\n      swap2\n      swap1\n      pop\n      jump\t// out\n        /* \"#utility.yul\":25142:25318   */\n    tag_361:\n        /* \"#utility.yul\":25174:25175   */\n      0x00\n        /* \"#utility.yul\":25191:25211   */\n      tag_707\n        /* \"#utility.yul\":25209:25210   */\n      dup3\n        /* \"#utility.yul\":25191:25211   */\n      tag_588\n      jump\t// in\n    tag_707:\n        /* \"#utility.yul\":25186:25211   */\n      swap2\n      pop\n        /* \"#utility.yul\":25225:25245   */\n      tag_708\n        /* \"#utility.yul\":25243:25244   */\n      dup4\n        /* \"#utility.yul\":25225:25245   */\n      tag_588\n      jump\t// in\n    tag_708:\n        /* \"#utility.yul\":25220:25245   */\n      swap3\n      pop\n        /* \"#utility.yul\":25264:25265   */\n      dup3\n        /* \"#utility.yul\":25254:25289   */\n      tag_709\n      jumpi\n        /* \"#utility.yul\":25269:25287   */\n      tag_710\n      tag_667\n      jump\t// in\n    tag_710:\n        /* \"#utility.yul\":25254:25289   */\n    tag_709:\n        /* \"#utility.yul\":25310:25311   */\n      dup3\n        /* \"#utility.yul\":25307:25308   */\n      dup3\n        /* \"#utility.yul\":25303:25312   */\n      mod\n        /* \"#utility.yul\":25298:25312   */\n      swap1\n      pop\n        /* \"#utility.yul\":25142:25318   */\n      swap3\n      swap2\n      pop\n      pop\n      jump\t// out\n        /* \"#utility.yul\":25324:25504   */\n    tag_661:\n        /* \"#utility.yul\":25372:25449   */\n      0x4e487b7100000000000000000000000000000000000000000000000000000000\n        /* \"#utility.yul\":25369:25370   */\n      0x00\n        /* \"#utility.yul\":25362:25450   */\n      mstore\n        /* \"#utility.yul\":25469:25473   */\n      0x11\n        /* \"#utility.yul\":25466:25467   */\n      0x04\n        /* \"#utility.yul\":25459:25474   */\n      mstore\n        /* \"#utility.yul\":25493:25497   */\n      0x24\n        /* \"#utility.yul\":25490:25491   */\n      0x00\n        /* \"#utility.yul\":25483:25498   */\n      revert\n        /* \"#utility.yul\":25510:25690   */\n    tag_667:\n        /* \"#utility.yul\":25558:25635   */\n      0x4e487b7100000000000000000000000000000000000000000000000000000000\n        /* \"#utility.yul\":25555:25556   */\n      0x00\n        /* \"#utility.yul\":25548:25636   */\n      mstore\n        /* \"#utility.yul\":25655:25659   */\n      0x12\n        /* \"#utility.yul\":25652:25653   */\n      0x04\n        /* \"#utility.yul\":25645:25660   */\n      mstore\n        /* \"#utility.yul\":25679:25683   */\n      0x24\n        /* \"#utility.yul\":25676:25677   */\n      0x00\n        /* \"#utility.yul\":25669:25684   */\n      revert\n        /* \"#utility.yul\":25696:25813   */\n    tag_419:\n        /* \"#utility.yul\":25805:25806   */\n      0x00\n        /* \"#utility.yul\":25802:25803   */\n      dup1\n        /* \"#utility.yul\":25795:25807   */\n      revert\n        /* \"#utility.yul\":25819:25936   */\n    tag_416:\n        /* \"#utility.yul\":25928:25929   */\n      0x00\n        /* \"#utility.yul\":25925:25926   */\n      dup1\n        /* \"#utility.yul\":25918:25930   */\n      revert\n        /* \"#utility.yul\":25942:26059   */\n    tag_422:\n        /* \"#utility.yul\":26051:26052   */\n      0x00\n        /* \"#utility.yul\":26048:26049   */\n      dup1\n        /* \"#utility.yul\":26041:26053   */\n      revert\n        /* \"#utility.yul\":26065:26182   */\n    tag_443:\n        /* \"#utility.yul\":26174:26175   */\n      0x00\n        /* \"#utility.yul\":26171:26172   */\n      dup1\n        /* \"#utility.yul\":26164:26176   */\n      revert\n        /* \"#utility.yul\":26188:26305   */\n    tag_433:\n        /* \"#utility.yul\":26297:26298   */\n      0x00\n        /* \"#utility.yul\":26294:26295   */\n      dup1\n        /* \"#utility.yul\":26287:26299   */\n      revert\n        /* \"#utility.yul\":26311:26413   */\n    tag_509:\n        /* \"#utility.yul\":26352:26358   */\n      0x00\n        /* \"#utility.yul\":26403:26405   */\n      0x1f\n        /* \"#utility.yul\":26399:26406   */\n      not\n        /* \"#utility.yul\":26394:26396   */\n      0x1f\n        /* \"#utility.yul\":26387:26392   */\n      dup4\n        /* \"#utility.yul\":26383:26397   */\n      add\n        /* \"#utility.yul\":26379:26407   */\n      and\n        /* \"#utility.yul\":26369:26407   */\n      swap1\n      pop\n        /* \"#utility.yul\":26311:26413   */\n      swap2\n      swap1\n      pop\n      jump\t// out\n        /* \"#utility.yul\":26419:26513   */\n    tag_704:\n        /* \"#utility.yul\":26452:26460   */\n      0x00\n        /* \"#utility.yul\":26500:26505   */\n      dup2\n        /* \"#utility.yul\":26496:26498   */\n      0x60\n        /* \"#utility.yul\":26492:26506   */\n      shl\n        /* \"#utility.yul\":26471:26506   */\n      swap1\n      pop\n        /* \"#utility.yul\":26419:26513   */\n      swap2\n      swap1\n      pop\n      jump\t// out\n        /* \"#utility.yul\":26519:26831   */\n    tag_514:\n        /* \"#utility.yul\":26659:26693   */\n      0x50726576696f7573207265776172647320706572696f64206d75737420626520\n        /* \"#utility.yul\":26655:26656   */\n      0x00\n        /* \"#utility.yul\":26647:26653   */\n      dup3\n        /* \"#utility.yul\":26643:26657   */\n      add\n        /* \"#utility.yul\":26636:26694   */\n      mstore\n        /* \"#utility.yul\":26728:26762   */\n      0x636f6d706c657465206265666f7265206368616e67696e672074686520647572\n        /* \"#utility.yul\":26723:26725   */\n      0x20\n        /* \"#utility.yul\":26715:26721   */\n      dup3\n        /* \"#utility.yul\":26711:26726   */\n      add\n        /* \"#utility.yul\":26704:26763   */\n      mstore\n        /* \"#utility.yul\":26797:26823   */\n      0x6174696f6e20666f7220746865206e657720706572696f640000000000000000\n        /* \"#utility.yul\":26792:26794   */\n      0x40\n        /* \"#utility.yul\":26784:26790   */\n      dup3\n        /* \"#utility.yul\":26780:26795   */\n      add\n        /* \"#utility.yul\":26773:26824   */\n      mstore\n        /* \"#utility.yul\":26519:26831   */\n      pop\n      jump\t// out\n        /* \"#utility.yul\":26837:27062   */\n    tag_519:\n        /* \"#utility.yul\":26977:27011   */\n      0x4f776e61626c653a206e6577206f776e657220697320746865207a65726f2061\n        /* \"#utility.yul\":26973:26974   */\n      0x00\n        /* \"#utility.yul\":26965:26971   */\n      dup3\n        /* \"#utility.yul\":26961:26975   */\n      add\n        /* \"#utility.yul\":26954:27012   */\n      mstore\n        /* \"#utility.yul\":27046:27054   */\n      0x6464726573730000000000000000000000000000000000000000000000000000\n        /* \"#utility.yul\":27041:27043   */\n      0x20\n        /* \"#utility.yul\":27033:27039   */\n      dup3\n        /* \"#utility.yul\":27029:27044   */\n      add\n        /* \"#utility.yul\":27022:27055   */\n      mstore\n        /* \"#utility.yul\":26837:27062   */\n      pop\n      jump\t// out\n        /* \"#utility.yul\":27068:27232   */\n    tag_524:\n        /* \"#utility.yul\":27208:27224   */\n      0x43616e6e6f74207374616b652030000000000000000000000000000000000000\n        /* \"#utility.yul\":27204:27205   */\n      0x00\n        /* \"#utility.yul\":27196:27202   */\n      dup3\n        /* \"#utility.yul\":27192:27206   */\n      add\n        /* \"#utility.yul\":27185:27225   */\n      mstore\n        /* \"#utility.yul\":27068:27232   */\n      pop\n      jump\t// out\n        /* \"#utility.yul\":27238:27415   */\n    tag_529:\n        /* \"#utility.yul\":27378:27407   */\n      0x536166654d6174683a206164646974696f6e206f766572666c6f770000000000\n        /* \"#utility.yul\":27374:27375   */\n      0x00\n        /* \"#utility.yul\":27366:27372   */\n      dup3\n        /* \"#utility.yul\":27362:27376   */\n      add\n        /* \"#utility.yul\":27355:27408   */\n      mstore\n        /* \"#utility.yul\":27238:27415   */\n      pop\n      jump\t// out\n        /* \"#utility.yul\":27421:27642   */\n    tag_534:\n        /* \"#utility.yul\":27561:27595   */\n      0x43616e6e6f7420776974686472617720746865207265776172647320746f6b65\n        /* \"#utility.yul\":27557:27558   */\n      0x00\n        /* \"#utility.yul\":27549:27555   */\n      dup3\n        /* \"#utility.yul\":27545:27559   */\n      add\n        /* \"#utility.yul\":27538:27596   */\n      mstore\n        /* \"#utility.yul\":27630:27634   */\n      0x6e73000000000000000000000000000000000000000000000000000000000000\n        /* \"#utility.yul\":27625:27627   */\n      0x20\n        /* \"#utility.yul\":27617:27623   */\n      dup3\n        /* \"#utility.yul\":27613:27628   */\n      add\n        /* \"#utility.yul\":27606:27635   */\n      mstore\n        /* \"#utility.yul\":27421:27642   */\n      pop\n      jump\t// out\n        /* \"#utility.yul\":27648:27873   */\n    tag_539:\n        /* \"#utility.yul\":27788:27822   */\n      0x416464726573733a20696e73756666696369656e742062616c616e636520666f\n        /* \"#utility.yul\":27784:27785   */\n      0x00\n        /* \"#utility.yul\":27776:27782   */\n      dup3\n        /* \"#utility.yul\":27772:27786   */\n      add\n        /* \"#utility.yul\":27765:27823   */\n      mstore\n        /* \"#utility.yul\":27857:27865   */\n      0x722063616c6c0000000000000000000000000000000000000000000000000000\n        /* \"#utility.yul\":27852:27854   */\n      0x20\n        /* \"#utility.yul\":27844:27850   */\n      dup3\n        /* \"#utility.yul\":27840:27855   */\n      add\n        /* \"#utility.yul\":27833:27866   */\n      mstore\n        /* \"#utility.yul\":27648:27873   */\n      pop\n      jump\t// out\n        /* \"#utility.yul\":27879:28045   */\n    tag_544:\n        /* \"#utility.yul\":28019:28037   */\n      0x5061757361626c653a2070617573656400000000000000000000000000000000\n        /* \"#utility.yul\":28015:28016   */\n      0x00\n        /* \"#utility.yul\":28007:28013   */\n      dup3\n        /* \"#utility.yul\":28003:28017   */\n      add\n        /* \"#utility.yul\":27996:28038   */\n      mstore\n        /* \"#utility.yul\":27879:28045   */\n      pop\n      jump\t// out\n        /* \"#utility.yul\":28051:28218   */\n    tag_549:\n        /* \"#utility.yul\":28191:28210   */\n      0x43616e6e6f742077697468647261772030000000000000000000000000000000\n        /* \"#utility.yul\":28187:28188   */\n      0x00\n        /* \"#utility.yul\":28179:28185   */\n      dup3\n        /* \"#utility.yul\":28175:28189   */\n      add\n        /* \"#utility.yul\":28168:28211   */\n      mstore\n        /* \"#utility.yul\":28051:28218   */\n      pop\n      jump\t// out\n        /* \"#utility.yul\":28224:28444   */\n    tag_554:\n        /* \"#utility.yul\":28364:28398   */\n      0x536166654d6174683a206d756c7469706c69636174696f6e206f766572666c6f\n        /* \"#utility.yul\":28360:28361   */\n      0x00\n        /* \"#utility.yul\":28352:28358   */\n      dup3\n        /* \"#utility.yul\":28348:28362   */\n      add\n        /* \"#utility.yul\":28341:28399   */\n      mstore\n        /* \"#utility.yul\":28433:28436   */\n      0x7700000000000000000000000000000000000000000000000000000000000000\n        /* \"#utility.yul\":28428:28430   */\n      0x20\n        /* \"#utility.yul\":28420:28426   */\n      dup3\n        /* \"#utility.yul\":28416:28431   */\n      add\n        /* \"#utility.yul\":28409:28437   */\n      mstore\n        /* \"#utility.yul\":28224:28444   */\n      pop\n      jump\t// out\n        /* \"#utility.yul\":28450:28632   */\n    tag_559:\n        /* \"#utility.yul\":28590:28624   */\n      0x4f776e61626c653a2063616c6c6572206973206e6f7420746865206f776e6572\n        /* \"#utility.yul\":28586:28587   */\n      0x00\n        /* \"#utility.yul\":28578:28584   */\n      dup3\n        /* \"#utility.yul\":28574:28588   */\n      add\n        /* \"#utility.yul\":28567:28625   */\n      mstore\n        /* \"#utility.yul\":28450:28632   */\n      pop\n      jump\t// out\n        /* \"#utility.yul\":28638:28859   */\n    tag_564:\n        /* \"#utility.yul\":28778:28812   */\n      0x43616e6e6f7420776974686472617720746865207374616b696e6720746f6b65\n        /* \"#utility.yul\":28774:28775   */\n      0x00\n        /* \"#utility.yul\":28766:28772   */\n      dup3\n        /* \"#utility.yul\":28762:28776   */\n      add\n        /* \"#utility.yul\":28755:28813   */\n      mstore\n        /* \"#utility.yul\":28847:28851   */\n      0x6e73000000000000000000000000000000000000000000000000000000000000\n        /* \"#utility.yul\":28842:28844   */\n      0x20\n        /* \"#utility.yul\":28834:28840   */\n      dup3\n        /* \"#utility.yul\":28830:28845   */\n      add\n        /* \"#utility.yul\":28823:28852   */\n      mstore\n        /* \"#utility.yul\":28638:28859   */\n      pop\n      jump\t// out\n        /* \"#utility.yul\":28865:29039   */\n    tag_569:\n        /* \"#utility.yul\":29005:29031   */\n      0x50726f76696465642072657761726420746f6f20686967680000000000000000\n        /* \"#utility.yul\":29001:29002   */\n      0x00\n        /* \"#utility.yul\":28993:28999   */\n      dup3\n        /* \"#utility.yul\":28989:29003   */\n      add\n        /* \"#utility.yul\":28982:29032   */\n      mstore\n        /* \"#utility.yul\":28865:29039   */\n      pop\n      jump\t// out\n        /* \"#utility.yul\":29045:29224   */\n    tag_574:\n        /* \"#utility.yul\":29185:29216   */\n      0x416464726573733a2063616c6c20746f206e6f6e2d636f6e7472616374000000\n        /* \"#utility.yul\":29181:29182   */\n      0x00\n        /* \"#utility.yul\":29173:29179   */\n      dup3\n        /* \"#utility.yul\":29169:29183   */\n      add\n        /* \"#utility.yul\":29162:29217   */\n      mstore\n        /* \"#utility.yul\":29045:29224   */\n      pop\n      jump\t// out\n        /* \"#utility.yul\":29230:29459   */\n    tag_579:\n        /* \"#utility.yul\":29370:29404   */\n      0x5361666545524332303a204552433230206f7065726174696f6e20646964206e\n        /* \"#utility.yul\":29366:29367   */\n      0x00\n        /* \"#utility.yul\":29358:29364   */\n      dup3\n        /* \"#utility.yul\":29354:29368   */\n      add\n        /* \"#utility.yul\":29347:29405   */\n      mstore\n        /* \"#utility.yul\":29439:29451   */\n      0x6f74207375636365656400000000000000000000000000000000000000000000\n        /* \"#utility.yul\":29434:29436   */\n      0x20\n        /* \"#utility.yul\":29426:29432   */\n      dup3\n        /* \"#utility.yul\":29422:29437   */\n      add\n        /* \"#utility.yul\":29415:29452   */\n      mstore\n        /* \"#utility.yul\":29230:29459   */\n      pop\n      jump\t// out\n        /* \"#utility.yul\":29465:29646   */\n    tag_584:\n        /* \"#utility.yul\":29605:29638   */\n      0x5265656e7472616e637947756172643a207265656e7472616e742063616c6c00\n        /* \"#utility.yul\":29601:29602   */\n      0x00\n        /* \"#utility.yul\":29593:29599   */\n      dup3\n        /* \"#utility.yul\":29589:29603   */\n      add\n        /* \"#utility.yul\":29582:29639   */\n      mstore\n        /* \"#utility.yul\":29465:29646   */\n      pop\n      jump\t// out\n        /* \"#utility.yul\":29652:29774   */\n    tag_407:\n        /* \"#utility.yul\":29725:29749   */\n      tag_736\n        /* \"#utility.yul\":29743:29748   */\n      dup2\n        /* \"#utility.yul\":29725:29749   */\n      tag_470\n      jump\t// in\n    tag_736:\n        /* \"#utility.yul\":29718:29723   */\n      dup2\n        /* \"#utility.yul\":29715:29750   */\n      eq\n        /* \"#utility.yul\":29705:29768   */\n      tag_737\n      jumpi\n        /* \"#utility.yul\":29764:29765   */\n      0x00\n        /* \"#utility.yul\":29761:29762   */\n      dup1\n        /* \"#utility.yul\":29754:29766   */\n      revert\n        /* \"#utility.yul\":29705:29768   */\n    tag_737:\n        /* \"#utility.yul\":29652:29774   */\n      pop\n      jump\t// out\n        /* \"#utility.yul\":29780:29896   */\n    tag_411:\n        /* \"#utility.yul\":29850:29871   */\n      tag_739\n        /* \"#utility.yul\":29865:29870   */\n      dup2\n        /* \"#utility.yul\":29850:29871   */\n      tag_479\n      jump\t// in\n    tag_739:\n        /* \"#utility.yul\":29843:29848   */\n      dup2\n        /* \"#utility.yul\":29840:29872   */\n      eq\n        /* \"#utility.yul\":29830:29890   */\n      tag_740\n      jumpi\n        /* \"#utility.yul\":29886:29887   */\n      0x00\n        /* \"#utility.yul\":29883:29884   */\n      dup1\n        /* \"#utility.yul\":29876:29888   */\n      revert\n        /* \"#utility.yul\":29830:29890   */\n    tag_740:\n        /* \"#utility.yul\":29780:29896   */\n      pop\n      jump\t// out\n        /* \"#utility.yul\":29902:30024   */\n    tag_426:\n        /* \"#utility.yul\":29975:29999   */\n      tag_742\n        /* \"#utility.yul\":29993:29998   */\n      dup2\n        /* \"#utility.yul\":29975:29999   */\n      tag_588\n      jump\t// in\n    tag_742:\n        /* \"#utility.yul\":29968:29973   */\n      dup2\n        /* \"#utility.yul\":29965:30000   */\n      eq\n        /* \"#utility.yul\":29955:30018   */\n      tag_743\n      jumpi\n        /* \"#utility.yul\":30014:30015   */\n      0x00\n        /* \"#utility.yul\":30011:30012   */\n      dup1\n        /* \"#utility.yul\":30004:30016   */\n      revert\n        /* \"#utility.yul\":29955:30018   */\n    tag_743:\n        /* \"#utility.yul\":29902:30024   */\n      pop\n      jump\t// out\n\n    auxdata: 0xa26469706673582212208937383091a6bc0fb78c885399f525ddc4a1016f462acc6a02668156e8d993ba64736f6c63430008070033\n}\n",
				"bytecode": {
					"linkReferences": {},
					"object": "6080604052600060045560006005553480156200001b57600080fd5b5060405162003760380380620037608339818101604052810190620000419190620004dc565b60016000819055506000600160006101000a81548160ff02191690831515021790555062000084620000786200013060201b60201c565b6200013860201b60201c565b62000097600a82620001fb60201b60201c565b60098190555083600260006101000a81548173ffffffffffffffffffffffffffffffffffffffff021916908373ffffffffffffffffffffffffffffffffffffffff16021790555082600360006101000a81548173ffffffffffffffffffffffffffffffffffffffff021916908373ffffffffffffffffffffffffffffffffffffffff160217905550816006819055505050505062000854565b600033905090565b600060018054906101000a900473ffffffffffffffffffffffffffffffffffffffff169050816001806101000a81548173ffffffffffffffffffffffffffffffffffffffff021916908373ffffffffffffffffffffffffffffffffffffffff1602179055508173ffffffffffffffffffffffffffffffffffffffff168173ffffffffffffffffffffffffffffffffffffffff167f8be0079c531659141344cd1fd0a4f28419497f9722a3daafe3b4186f6b6457e060405160405180910390a35050565b600080821415620002105760019050620002b5565b60018214156200022357829050620002b5565b6000620002518462000245600286620002bb60201b620016b71790919060201c565b620001fb60201b60201c565b90506200026d81826200030d60201b620017011790919060201c565b905060016200028c6002856200039160201b6200177c1790919060201c565b1415620002b057620002ad84826200030d60201b620017011790919060201c565b90505b809150505b92915050565b60006200030583836040518060400160405280601a81526020017f536166654d6174683a206469766973696f6e206279207a65726f000000000000815250620003e360201b60201c565b905092915050565b6000808314156200032257600090506200038b565b6000828462000332919062000650565b905082848262000343919062000618565b1462000386576040517f08c379a00000000000000000000000000000000000000000000000000000000081526004016200037d90620005da565b60405180910390fd5b809150505b92915050565b6000620003db83836040518060400160405280601881526020017f536166654d6174683a206d6f64756c6f206279207a65726f00000000000000008152506200044b60201b60201c565b905092915050565b600080831182906200042d576040517f08c379a0000000000000000000000000000000000000000000000000000000008152600401620004249190620005b6565b60405180910390fd5b50600083856200043e919062000618565b9050809150509392505050565b600080831415829062000496576040517f08c379a00000000000000000000000000000000000000000000000000000000081526004016200048d9190620005b6565b60405180910390fd5b508284620004a5919062000725565b90509392505050565b600081519050620004bf8162000820565b92915050565b600081519050620004d6816200083a565b92915050565b60008060008060808587031215620004f957620004f8620007bb565b5b60006200050987828801620004ae565b94505060206200051c87828801620004ae565b93505060406200052f87828801620004c5565b92505060606200054287828801620004c5565b91505092959194509250565b60006200055b82620005fc565b62000567818562000607565b935062000579818560208601620006ef565b6200058481620007c0565b840191505092915050565b60006200059e60218362000607565b9150620005ab82620007d1565b604082019050919050565b60006020820190508181036000830152620005d281846200054e565b905092915050565b60006020820190508181036000830152620005f5816200058f565b9050919050565b600081519050919050565b600082825260208201905092915050565b60006200062582620006e5565b91506200063283620006e5565b9250826200064557620006446200078c565b5b828204905092915050565b60006200065d82620006e5565b91506200066a83620006e5565b9250817fffffffffffffffffffffffffffffffffffffffffffffffffffffffffffffffff0483118215151615620006a657620006a56200075d565b5b828202905092915050565b6000620006be82620006c5565b9050919050565b600073ffffffffffffffffffffffffffffffffffffffff82169050919050565b6000819050919050565b60005b838110156200070f578082015181840152602081019050620006f2565b838111156200071f576000848401525b50505050565b60006200073282620006e5565b91506200073f83620006e5565b9250826200075257620007516200078c565b5b828206905092915050565b7f4e487b7100000000000000000000000000000000000000000000000000000000600052601160045260246000fd5b7f4e487b7100000000000000000000000000000000000000000000000000000000600052601260045260246000fd5b600080fd5b6000601f19601f8301169050919050565b7f536166654d6174683a206d756c7469706c69636174696f6e206f766572666c6f60008201527f7700000000000000000000000000000000000000000000000000000000000000602082015250565b6200082b81620006b1565b81146200083757600080fd5b50565b6200084581620006e5565b81146200085157600080fd5b50565b612efc80620008646000396000f3fe608060405234801561001057600080fd5b50600436106101d95760003560e01c80637b0a47ee11610104578063c8f33c91116100a2578063df136d6511610071578063df136d6514610536578063e9fad8ee14610554578063ebe2b12b1461055e578063f2fde38b1461057c576101d9565b8063c8f33c91146104c0578063cc1a378f146104de578063cd3daf9d146104fa578063d1af0c7d14610518576101d9565b80638b876347116100de5780638b876347146104385780638da5cb5b14610468578063a694fc3a14610486578063a85fe3b7146104a2576101d9565b80637b0a47ee146103e057806380faa57d146103fe5780638980f11f1461041c576101d9565b8063386a95251161017c57806370a082311161014b57806370a0823114610358578063715018a61461038857806372f702f3146103925780637ae2b5c7146103b0576101d9565b8063386a9525146102f65780633c6b16ab146103145780633d18b912146103305780635c975abb1461033a576101d9565b806318160ddd116101b857806318160ddd1461026e5780631c1f78eb1461028c5780632e1a7d4d146102aa5780632e4c697f146102c6576101d9565b80628cc262146101de5780630700037d1461020e578063150b7a021461023e575b600080fd5b6101f860048036038101906101f39190611fa6565b610598565b60405161020591906127a8565b60405180910390f35b61022860048036038101906102239190611fa6565b6106b0565b60405161023591906127a8565b60405180910390f35b61025860048036038101906102539190611fd3565b6106c8565b6040516102659190612570565b60405180910390f35b610276610704565b60405161028391906127a8565b60405180910390f35b61029461070e565b6040516102a191906127a8565b60405180910390f35b6102c460048036038101906102bf91906120c8565b61072c565b005b6102e060048036038101906102db9190612122565b6109b2565b6040516102ed91906127a8565b60405180910390f35b6102fe610a49565b60405161030b91906127a8565b60405180910390f35b61032e600480360381019061032991906120c8565b610a4f565b005b610338610d2d565b005b610342610f53565b60405161034f9190612555565b60405180910390f35b610372600480360381019061036d9190611fa6565b610f6a565b60405161037f91906127a8565b60405180910390f35b610390610fb3565b005b61039a610fc7565b6040516103a7919061258b565b60405180910390f35b6103ca60048036038101906103c59190612122565b610fed565b6040516103d791906127a8565b60405180910390f35b6103e8611006565b6040516103f591906127a8565b60405180910390f35b61040661100c565b60405161041391906127a8565b60405180910390f35b6104366004803603810190610431919061205b565b61101f565b005b610452600480360381019061044d9190611fa6565b6111bc565b60405161045f91906127a8565b60405180910390f35b6104706111d4565b60405161047d91906124da565b60405180910390f35b6104a0600480360381019061049b91906120c8565b6111fc565b005b6104aa61148c565b6040516104b791906127a8565b60405180910390f35b6104c8611492565b6040516104d591906127a8565b60405180910390f35b6104f860048036038101906104f391906120c8565b611498565b005b610502611527565b60405161050f91906127a8565b60405180910390f35b6105206115af565b60405161052d919061258b565b60405180910390f35b61053e6115d5565b60405161054b91906127a8565b60405180910390f35b61055c6115db565b005b61056661162d565b60405161057391906127a8565b60405180910390f35b61059660048036038101906105919190611fa6565b611633565b005b60006106a9600c60008473ffffffffffffffffffffffffffffffffffffffff1673ffffffffffffffffffffffffffffffffffffffff1681526020019081526020016000205461069b60095461068d61063f600b60008973ffffffffffffffffffffffffffffffffffffffff1673ffffffffffffffffffffffffffffffffffffffff16815260200190815260200160002054610631611527565b6117c690919063ffffffff16565b600e60008973ffffffffffffffffffffffffffffffffffffffff1673ffffffffffffffffffffffffffffffffffffffff1681526020019081526020016000205461170190919063ffffffff16565b6116b790919063ffffffff16565b61181090919063ffffffff16565b9050919050565b600c6020528060005260406000206000915090505481565b600085858585856040516020016106e3959493929190612477565b60405160208183030381529060405280519060200120905095945050505050565b6000600d54905090565b600061072760065460055461170190919063ffffffff16565b905090565b61073461186e565b3361073d611527565b60088190555061074b61100c565b600781905550600073ffffffffffffffffffffffffffffffffffffffff168173ffffffffffffffffffffffffffffffffffffffff16146108185761078e81610598565b600c60008373ffffffffffffffffffffffffffffffffffffffff1673ffffffffffffffffffffffffffffffffffffffff16815260200190815260200160002081905550600854600b60008373ffffffffffffffffffffffffffffffffffffffff1673ffffffffffffffffffffffffffffffffffffffff168152602001908152602001600020819055505b6000821161085b576040517f08c379a0000000000000000000000000000000000000000000000000000000008152600401610852906126a8565b60405180910390fd5b61087082600d546117c690919063ffffffff16565b600d819055506108c882600e60003373ffffffffffffffffffffffffffffffffffffffff1673ffffffffffffffffffffffffffffffffffffffff168152602001908152602001600020546117c690919063ffffffff16565b600e60003373ffffffffffffffffffffffffffffffffffffffff1673ffffffffffffffffffffffffffffffffffffffff168152602001908152602001600020819055506109583383600360009054906101000a900473ffffffffffffffffffffffffffffffffffffffff1673ffffffffffffffffffffffffffffffffffffffff166118be9092919063ffffffff16565b3373ffffffffffffffffffffffffffffffffffffffff167f7084f5476618d8e60b11ef0d7d3f06914655adb8793e28ff7f018d4c76d505d58360405161099e91906127a8565b60405180910390a2506109af611944565b50565b6000808214156109c55760019050610a43565b60018214156109d657829050610a43565b60006109f5846109f06002866116b790919063ffffffff16565b6109b2565b9050610a0a818261170190919063ffffffff16565b90506001610a2260028561177c90919063ffffffff16565b1415610a3e57610a3b848261170190919063ffffffff16565b90505b809150505b92915050565b60065481565b610a5761194e565b6000610a61611527565b600881905550610a6f61100c565b600781905550600073ffffffffffffffffffffffffffffffffffffffff168173ffffffffffffffffffffffffffffffffffffffff1614610b3c57610ab281610598565b600c60008373ffffffffffffffffffffffffffffffffffffffff1673ffffffffffffffffffffffffffffffffffffffff16815260200190815260200160002081905550600854600b60008373ffffffffffffffffffffffffffffffffffffffff1673ffffffffffffffffffffffffffffffffffffffff168152602001908152602001600020819055505b6004544210610b6557610b5a600654836116b790919063ffffffff16565b600581905550610bc7565b6000610b7c426004546117c690919063ffffffff16565b90506000610b956005548361170190919063ffffffff16565b9050610bbe600654610bb0838761181090919063ffffffff16565b6116b790919063ffffffff16565b60058190555050505b6000600260009054906101000a900473ffffffffffffffffffffffffffffffffffffffff1673ffffffffffffffffffffffffffffffffffffffff166370a08231306040518263ffffffff1660e01b8152600401610c2491906124da565b60206040518083038186803b158015610c3c57600080fd5b505afa158015610c50573d6000803e3d6000fd5b505050506040513d601f19601f82011682018060405250810190610c7491906120f5565b9050610c8b600654826116b790919063ffffffff16565b6005541115610ccf576040517f08c379a0000000000000000000000000000000000000000000000000000000008152600401610cc690612728565b60405180910390fd5b42600781905550610ceb6006544261181090919063ffffffff16565b6004819055507fde88a922e0d3b88b24e9623efeb464919c6bf9f66857a65e2bfcf2ce87a9433d83604051610d2091906127a8565b60405180910390a1505050565b610d3561186e565b33610d3e611527565b600881905550610d4c61100c565b600781905550600073ffffffffffffffffffffffffffffffffffffffff168173ffffffffffffffffffffffffffffffffffffffff1614610e1957610d8f81610598565b600c60008373ffffffffffffffffffffffffffffffffffffffff1673ffffffffffffffffffffffffffffffffffffffff16815260200190815260200160002081905550600854600b60008373ffffffffffffffffffffffffffffffffffffffff1673ffffffffffffffffffffffffffffffffffffffff168152602001908152602001600020819055505b6000600c60003373ffffffffffffffffffffffffffffffffffffffff1673ffffffffffffffffffffffffffffffffffffffff1681526020019081526020016000205490506000811115610f47576000600c60003373ffffffffffffffffffffffffffffffffffffffff1673ffffffffffffffffffffffffffffffffffffffff16815260200190815260200160002081905550610ef83382600260009054906101000a900473ffffffffffffffffffffffffffffffffffffffff1673ffffffffffffffffffffffffffffffffffffffff166118be9092919063ffffffff16565b3373ffffffffffffffffffffffffffffffffffffffff167fe2403640ba68fed3a2f88b7557551d1993f84b99bb10ff833f0cf8db0c5e048682604051610f3e91906127a8565b60405180910390a25b5050610f51611944565b565b6000600160009054906101000a900460ff16905090565b6000600e60008373ffffffffffffffffffffffffffffffffffffffff1673ffffffffffffffffffffffffffffffffffffffff168152602001908152602001600020549050919050565b610fbb61194e565b610fc560006119cc565b565b600360009054906101000a900473ffffffffffffffffffffffffffffffffffffffff1681565b6000818310610ffc5781610ffe565b825b905092915050565b60055481565b600061101a42600454610fed565b905090565b61102761194e565b600260009054906101000a900473ffffffffffffffffffffffffffffffffffffffff1673ffffffffffffffffffffffffffffffffffffffff168273ffffffffffffffffffffffffffffffffffffffff1614156110b8576040517f08c379a00000000000000000000000000000000000000000000000000000000081526004016110af90612648565b60405180910390fd5b6000600d541461115457600360009054906101000a900473ffffffffffffffffffffffffffffffffffffffff1673ffffffffffffffffffffffffffffffffffffffff168273ffffffffffffffffffffffffffffffffffffffff161415611153576040517f08c379a000000000000000000000000000000000000000000000000000000000815260040161114a90612708565b60405180910390fd5b5b61117f33828473ffffffffffffffffffffffffffffffffffffffff166118be9092919063ffffffff16565b7f8c1256b8896378cd5044f80c202f9772b9d77dc85c8a6eb51967210b09bfaa2882826040516111b092919061252c565b60405180910390a15050565b600b6020528060005260406000206000915090505481565b600060018054906101000a900473ffffffffffffffffffffffffffffffffffffffff16905090565b61120461186e565b61120c611a8f565b33611215611527565b60088190555061122361100c565b600781905550600073ffffffffffffffffffffffffffffffffffffffff168173ffffffffffffffffffffffffffffffffffffffff16146112f05761126681610598565b600c60008373ffffffffffffffffffffffffffffffffffffffff1673ffffffffffffffffffffffffffffffffffffffff16815260200190815260200160002081905550600854600b60008373ffffffffffffffffffffffffffffffffffffffff1673ffffffffffffffffffffffffffffffffffffffff168152602001908152602001600020819055505b60008211611333576040517f08c379a000000000000000000000000000000000000000000000000000000000815260040161132a90612608565b60405180910390fd5b61134882600d5461181090919063ffffffff16565b600d819055506113a082600e60003373ffffffffffffffffffffffffffffffffffffffff1673ffffffffffffffffffffffffffffffffffffffff1681526020019081526020016000205461181090919063ffffffff16565b600e60003373ffffffffffffffffffffffffffffffffffffffff1673ffffffffffffffffffffffffffffffffffffffff16815260200190815260200160002081905550611432333084600360009054906101000a900473ffffffffffffffffffffffffffffffffffffffff1673ffffffffffffffffffffffffffffffffffffffff16611ad9909392919063ffffffff16565b3373ffffffffffffffffffffffffffffffffffffffff167f9e71bc8eea02a63969f509818f2dafb9254532904319f9dbda79b67bd34a5f3d8360405161147891906127a8565b60405180910390a250611489611944565b50565b60095481565b60075481565b6114a061194e565b60045442116114e4576040517f08c379a00000000000000000000000000000000000000000000000000000000081526004016114db906125c8565b60405180910390fd5b806006819055507ffb46ca5a5e06d4540d6387b930a7c978bce0db5f449ec6b3f5d07c6e1d44f2d360065460405161151c91906127a8565b60405180910390a150565b600080600d54141561153d5760085490506115ac565b6115a9611598600d5461158a60095461157c60055461156e60075461156061100c565b6117c690919063ffffffff16565b61170190919063ffffffff16565b61170190919063ffffffff16565b6116b790919063ffffffff16565b60085461181090919063ffffffff16565b90505b90565b600260009054906101000a900473ffffffffffffffffffffffffffffffffffffffff1681565b60085481565b611623600e60003373ffffffffffffffffffffffffffffffffffffffff1673ffffffffffffffffffffffffffffffffffffffff1681526020019081526020016000205461072c565b61162b610d2d565b565b60045481565b61163b61194e565b600073ffffffffffffffffffffffffffffffffffffffff168173ffffffffffffffffffffffffffffffffffffffff1614156116ab576040517f08c379a00000000000000000000000000000000000000000000000000000000081526004016116a2906125e8565b60405180910390fd5b6116b4816119cc565b50565b60006116f983836040518060400160405280601a81526020017f536166654d6174683a206469766973696f6e206279207a65726f000000000000815250611b62565b905092915050565b6000808314156117145760009050611776565b60008284611722919061287c565b9050828482611731919061284b565b14611771576040517f08c379a0000000000000000000000000000000000000000000000000000000008152600401611768906126c8565b60405180910390fd5b809150505b92915050565b60006117be83836040518060400160405280601881526020017f536166654d6174683a206d6f64756c6f206279207a65726f0000000000000000815250611bc5565b905092915050565b600061180883836040518060400160405280601e81526020017f536166654d6174683a207375627472616374696f6e206f766572666c6f770000815250611c23565b905092915050565b600080828461181f91906127f5565b905083811015611864576040517f08c379a000000000000000000000000000000000000000000000000000000000815260040161185b90612628565b60405180910390fd5b8091505092915050565b600260005414156118b4576040517f08c379a00000000000000000000000000000000000000000000000000000000081526004016118ab90612788565b60405180910390fd5b6002600081905550565b61193f8363a9059cbb60e01b84846040516024016118dd92919061252c565b604051602081830303815290604052907bffffffffffffffffffffffffffffffffffffffffffffffffffffffff19166020820180517bffffffffffffffffffffffffffffffffffffffffffffffffffffffff8381831617835250505050611c87565b505050565b6001600081905550565b611956611d4e565b73ffffffffffffffffffffffffffffffffffffffff166119746111d4565b73ffffffffffffffffffffffffffffffffffffffff16146119ca576040517f08c379a00000000000000000000000000000000000000000000000000000000081526004016119c1906126e8565b60405180910390fd5b565b600060018054906101000a900473ffffffffffffffffffffffffffffffffffffffff169050816001806101000a81548173ffffffffffffffffffffffffffffffffffffffff021916908373ffffffffffffffffffffffffffffffffffffffff1602179055508173ffffffffffffffffffffffffffffffffffffffff168173ffffffffffffffffffffffffffffffffffffffff167f8be0079c531659141344cd1fd0a4f28419497f9722a3daafe3b4186f6b6457e060405160405180910390a35050565b611a97610f53565b15611ad7576040517f08c379a0000000000000000000000000000000000000000000000000000000008152600401611ace90612688565b60405180910390fd5b565b611b5c846323b872dd60e01b858585604051602401611afa939291906124f5565b604051602081830303815290604052907bffffffffffffffffffffffffffffffffffffffffffffffffffffffff19166020820180517bffffffffffffffffffffffffffffffffffffffffffffffffffffffff8381831617835250505050611c87565b50505050565b60008083118290611ba9576040517f08c379a0000000000000000000000000000000000000000000000000000000008152600401611ba091906125a6565b60405180910390fd5b5060008385611bb8919061284b565b9050809150509392505050565b6000808314158290611c0d576040517f08c379a0000000000000000000000000000000000000000000000000000000008152600401611c0491906125a6565b60405180910390fd5b508284611c1a9190612a24565b90509392505050565b6000838311158290611c6b576040517f08c379a0000000000000000000000000000000000000000000000000000000008152600401611c6291906125a6565b60405180910390fd5b5060008385611c7a91906128d6565b9050809150509392505050565b6000611ce9826040518060400160405280602081526020017f5361666545524332303a206c6f772d6c6576656c2063616c6c206661696c65648152508573ffffffffffffffffffffffffffffffffffffffff16611d569092919063ffffffff16565b9050600081511115611d495780806020019051810190611d09919061209b565b611d48576040517f08c379a0000000000000000000000000000000000000000000000000000000008152600401611d3f90612768565b60405180910390fd5b5b505050565b600033905090565b6060611d658484600085611d6e565b90509392505050565b606082471015611db3576040517f08c379a0000000000000000000000000000000000000000000000000000000008152600401611daa90612668565b60405180910390fd5b611dbc85611e82565b611dfb576040517f08c379a0000000000000000000000000000000000000000000000000000000008152600401611df290612748565b60405180910390fd5b6000808673ffffffffffffffffffffffffffffffffffffffff168587604051611e2491906124c3565b60006040518083038185875af1925050503d8060008114611e61576040519150601f19603f3d011682016040523d82523d6000602084013e611e66565b606091505b5091509150611e76828286611e95565b92505050949350505050565b600080823b905060008111915050919050565b60608315611ea557829050611ef5565b600083511115611eb85782518084602001fd5b816040517f08c379a0000000000000000000000000000000000000000000000000000000008152600401611eec91906125a6565b60405180910390fd5b9392505050565b600081359050611f0b81612e81565b92915050565b600081519050611f2081612e98565b92915050565b60008083601f840112611f3c57611f3b612ab8565b5b8235905067ffffffffffffffff811115611f5957611f58612ab3565b5b602083019150836001820283011115611f7557611f74612abd565b5b9250929050565b600081359050611f8b81612eaf565b92915050565b600081519050611fa081612eaf565b92915050565b600060208284031215611fbc57611fbb612ac7565b5b6000611fca84828501611efc565b91505092915050565b600080600080600060808688031215611fef57611fee612ac7565b5b6000611ffd88828901611efc565b955050602061200e88828901611efc565b945050604061201f88828901611f7c565b935050606086013567ffffffffffffffff8111156120405761203f612ac2565b5b61204c88828901611f26565b92509250509295509295909350565b6000806040838503121561207257612071612ac7565b5b600061208085828601611efc565b925050602061209185828601611f7c565b9150509250929050565b6000602082840312156120b1576120b0612ac7565b5b60006120bf84828501611f11565b91505092915050565b6000602082840312156120de576120dd612ac7565b5b60006120ec84828501611f7c565b91505092915050565b60006020828403121561210b5761210a612ac7565b5b600061211984828501611f91565b91505092915050565b6000806040838503121561213957612138612ac7565b5b600061214785828601611f7c565b925050602061215885828601611f7c565b9150509250929050565b61216b8161290a565b82525050565b61218261217d8261290a565b6129f6565b82525050565b6121918161291c565b82525050565b6121a081612928565b82525050565b60006121b283856127d9565b93506121bf8385846129b4565b82840190509392505050565b60006121d6826127c3565b6121e081856127d9565b93506121f08185602086016129c3565b80840191505092915050565b6122058161297e565b82525050565b6000612216826127ce565b61222081856127e4565b93506122308185602086016129c3565b61223981612acc565b840191505092915050565b60006122516058836127e4565b915061225c82612aea565b606082019050919050565b60006122746026836127e4565b915061227f82612b5f565b604082019050919050565b6000612297600e836127e4565b91506122a282612bae565b602082019050919050565b60006122ba601b836127e4565b91506122c582612bd7565b602082019050919050565b60006122dd6022836127e4565b91506122e882612c00565b604082019050919050565b60006123006026836127e4565b915061230b82612c4f565b604082019050919050565b60006123236010836127e4565b915061232e82612c9e565b602082019050919050565b60006123466011836127e4565b915061235182612cc7565b602082019050919050565b60006123696021836127e4565b915061237482612cf0565b604082019050919050565b600061238c6020836127e4565b915061239782612d3f565b602082019050919050565b60006123af6022836127e4565b91506123ba82612d68565b604082019050919050565b60006123d26018836127e4565b91506123dd82612db7565b602082019050919050565b60006123f5601d836127e4565b915061240082612de0565b602082019050919050565b6000612418602a836127e4565b915061242382612e09565b604082019050919050565b600061243b601f836127e4565b915061244682612e58565b602082019050919050565b61245a81612974565b82525050565b61247161246c82612974565b612a1a565b82525050565b60006124838288612171565b6014820191506124938287612171565b6014820191506124a38286612460565b6020820191506124b48284866121a6565b91508190509695505050505050565b60006124cf82846121cb565b915081905092915050565b60006020820190506124ef6000830184612162565b92915050565b600060608201905061250a6000830186612162565b6125176020830185612162565b6125246040830184612451565b949350505050565b60006040820190506125416000830185612162565b61254e6020830184612451565b9392505050565b600060208201905061256a6000830184612188565b92915050565b60006020820190506125856000830184612197565b92915050565b60006020820190506125a060008301846121fc565b92915050565b600060208201905081810360008301526125c0818461220b565b905092915050565b600060208201905081810360008301526125e181612244565b9050919050565b6000602082019050818103600083015261260181612267565b9050919050565b600060208201905081810360008301526126218161228a565b9050919050565b60006020820190508181036000830152612641816122ad565b9050919050565b60006020820190508181036000830152612661816122d0565b9050919050565b60006020820190508181036000830152612681816122f3565b9050919050565b600060208201905081810360008301526126a181612316565b9050919050565b600060208201905081810360008301526126c181612339565b9050919050565b600060208201905081810360008301526126e18161235c565b9050919050565b600060208201905081810360008301526127018161237f565b9050919050565b60006020820190508181036000830152612721816123a2565b9050919050565b60006020820190508181036000830152612741816123c5565b9050919050565b60006020820190508181036000830152612761816123e8565b9050919050565b600060208201905081810360008301526127818161240b565b9050919050565b600060208201905081810360008301526127a18161242e565b9050919050565b60006020820190506127bd6000830184612451565b92915050565b600081519050919050565b600081519050919050565b600081905092915050565b600082825260208201905092915050565b600061280082612974565b915061280b83612974565b9250827fffffffffffffffffffffffffffffffffffffffffffffffffffffffffffffffff038211156128405761283f612a55565b5b828201905092915050565b600061285682612974565b915061286183612974565b92508261287157612870612a84565b5b828204905092915050565b600061288782612974565b915061289283612974565b9250817fffffffffffffffffffffffffffffffffffffffffffffffffffffffffffffffff04831182151516156128cb576128ca612a55565b5b828202905092915050565b60006128e182612974565b91506128ec83612974565b9250828210156128ff576128fe612a55565b5b828203905092915050565b600061291582612954565b9050919050565b60008115159050919050565b60007fffffffff0000000000000000000000000000000000000000000000000000000082169050919050565b600073ffffffffffffffffffffffffffffffffffffffff82169050919050565b6000819050919050565b600061298982612990565b9050919050565b600061299b826129a2565b9050919050565b60006129ad82612954565b9050919050565b82818337600083830152505050565b60005b838110156129e15780820151818401526020810190506129c6565b838111156129f0576000848401525b50505050565b6000612a0182612a08565b9050919050565b6000612a1382612add565b9050919050565b6000819050919050565b6000612a2f82612974565b9150612a3a83612974565b925082612a4a57612a49612a84565b5b828206905092915050565b7f4e487b7100000000000000000000000000000000000000000000000000000000600052601160045260246000fd5b7f4e487b7100000000000000000000000000000000000000000000000000000000600052601260045260246000fd5b600080fd5b600080fd5b600080fd5b600080fd5b600080fd5b6000601f19601f8301169050919050565b60008160601b9050919050565b7f50726576696f7573207265776172647320706572696f64206d7573742062652060008201527f636f6d706c657465206265666f7265206368616e67696e67207468652064757260208201527f6174696f6e20666f7220746865206e657720706572696f640000000000000000604082015250565b7f4f776e61626c653a206e6577206f776e657220697320746865207a65726f206160008201527f6464726573730000000000000000000000000000000000000000000000000000602082015250565b7f43616e6e6f74207374616b652030000000000000000000000000000000000000600082015250565b7f536166654d6174683a206164646974696f6e206f766572666c6f770000000000600082015250565b7f43616e6e6f7420776974686472617720746865207265776172647320746f6b6560008201527f6e73000000000000000000000000000000000000000000000000000000000000602082015250565b7f416464726573733a20696e73756666696369656e742062616c616e636520666f60008201527f722063616c6c0000000000000000000000000000000000000000000000000000602082015250565b7f5061757361626c653a2070617573656400000000000000000000000000000000600082015250565b7f43616e6e6f742077697468647261772030000000000000000000000000000000600082015250565b7f536166654d6174683a206d756c7469706c69636174696f6e206f766572666c6f60008201527f7700000000000000000000000000000000000000000000000000000000000000602082015250565b7f4f776e61626c653a2063616c6c6572206973206e6f7420746865206f776e6572600082015250565b7f43616e6e6f7420776974686472617720746865207374616b696e6720746f6b6560008201527f6e73000000000000000000000000000000000000000000000000000000000000602082015250565b7f50726f76696465642072657761726420746f6f20686967680000000000000000600082015250565b7f416464726573733a2063616c6c20746f206e6f6e2d636f6e7472616374000000600082015250565b7f5361666545524332303a204552433230206f7065726174696f6e20646964206e60008201527f6f74207375636365656400000000000000000000000000000000000000000000602082015250565b7f5265656e7472616e637947756172643a207265656e7472616e742063616c6c00600082015250565b612e8a8161290a565b8114612e9557600080fd5b50565b612ea18161291c565b8114612eac57600080fd5b50565b612eb881612974565b8114612ec357600080fd5b5056fea26469706673582212208937383091a6bc0fb78c885399f525ddc4a1016f462acc6a02668156e8d993ba64736f6c63430008070033",
					"opcodes": "PUSH1 0x80 PUSH1 0x40 MSTORE PUSH1 0x0 PUSH1 0x4 SSTORE PUSH1 0x0 PUSH1 0x5 SSTORE CALLVALUE DUP1 ISZERO PUSH3 0x1B JUMPI PUSH1 0x0 DUP1 REVERT JUMPDEST POP PUSH1 0x40 MLOAD PUSH3 0x3760 CODESIZE SUB DUP1 PUSH3 0x3760 DUP4 CODECOPY DUP2 DUP2 ADD PUSH1 0x40 MSTORE DUP2 ADD SWAP1 PUSH3 0x41 SWAP2 SWAP1 PUSH3 0x4DC JUMP JUMPDEST PUSH1 0x1 PUSH1 0x0 DUP2 SWAP1 SSTORE POP PUSH1 0x0 PUSH1 0x1 PUSH1 0x0 PUSH2 0x100 EXP DUP2 SLOAD DUP2 PUSH1 0xFF MUL NOT AND SWAP1 DUP4 ISZERO ISZERO MUL OR SWAP1 SSTORE POP PUSH3 0x84 PUSH3 0x78 PUSH3 0x130 PUSH1 0x20 SHL PUSH1 0x20 SHR JUMP JUMPDEST PUSH3 0x138 PUSH1 0x20 SHL PUSH1 0x20 SHR JUMP JUMPDEST PUSH3 0x97 PUSH1 0xA DUP3 PUSH3 0x1FB PUSH1 0x20 SHL PUSH1 0x20 SHR JUMP JUMPDEST PUSH1 0x9 DUP2 SWAP1 SSTORE POP DUP4 PUSH1 0x2 PUSH1 0x0 PUSH2 0x100 EXP DUP2 SLOAD DUP2 PUSH20 0xFFFFFFFFFFFFFFFFFFFFFFFFFFFFFFFFFFFFFFFF MUL NOT AND SWAP1 DUP4 PUSH20 0xFFFFFFFFFFFFFFFFFFFFFFFFFFFFFFFFFFFFFFFF AND MUL OR SWAP1 SSTORE POP DUP3 PUSH1 0x3 PUSH1 0x0 PUSH2 0x100 EXP DUP2 SLOAD DUP2 PUSH20 0xFFFFFFFFFFFFFFFFFFFFFFFFFFFFFFFFFFFFFFFF MUL NOT AND SWAP1 DUP4 PUSH20 0xFFFFFFFFFFFFFFFFFFFFFFFFFFFFFFFFFFFFFFFF AND MUL OR SWAP1 SSTORE POP DUP2 PUSH1 0x6 DUP2 SWAP1 SSTORE POP POP POP POP POP PUSH3 0x854 JUMP JUMPDEST PUSH1 0x0 CALLER SWAP1 POP SWAP1 JUMP JUMPDEST PUSH1 0x0 PUSH1 0x1 DUP1 SLOAD SWAP1 PUSH2 0x100 EXP SWAP1 DIV PUSH20 0xFFFFFFFFFFFFFFFFFFFFFFFFFFFFFFFFFFFFFFFF AND SWAP1 POP DUP2 PUSH1 0x1 DUP1 PUSH2 0x100 EXP DUP2 SLOAD DUP2 PUSH20 0xFFFFFFFFFFFFFFFFFFFFFFFFFFFFFFFFFFFFFFFF MUL NOT AND SWAP1 DUP4 PUSH20 0xFFFFFFFFFFFFFFFFFFFFFFFFFFFFFFFFFFFFFFFF AND MUL OR SWAP1 SSTORE POP DUP2 PUSH20 0xFFFFFFFFFFFFFFFFFFFFFFFFFFFFFFFFFFFFFFFF AND DUP2 PUSH20 0xFFFFFFFFFFFFFFFFFFFFFFFFFFFFFFFFFFFFFFFF AND PUSH32 0x8BE0079C531659141344CD1FD0A4F28419497F9722A3DAAFE3B4186F6B6457E0 PUSH1 0x40 MLOAD PUSH1 0x40 MLOAD DUP1 SWAP2 SUB SWAP1 LOG3 POP POP JUMP JUMPDEST PUSH1 0x0 DUP1 DUP3 EQ ISZERO PUSH3 0x210 JUMPI PUSH1 0x1 SWAP1 POP PUSH3 0x2B5 JUMP JUMPDEST PUSH1 0x1 DUP3 EQ ISZERO PUSH3 0x223 JUMPI DUP3 SWAP1 POP PUSH3 0x2B5 JUMP JUMPDEST PUSH1 0x0 PUSH3 0x251 DUP5 PUSH3 0x245 PUSH1 0x2 DUP7 PUSH3 0x2BB PUSH1 0x20 SHL PUSH3 0x16B7 OR SWAP1 SWAP2 SWAP1 PUSH1 0x20 SHR JUMP JUMPDEST PUSH3 0x1FB PUSH1 0x20 SHL PUSH1 0x20 SHR JUMP JUMPDEST SWAP1 POP PUSH3 0x26D DUP2 DUP3 PUSH3 0x30D PUSH1 0x20 SHL PUSH3 0x1701 OR SWAP1 SWAP2 SWAP1 PUSH1 0x20 SHR JUMP JUMPDEST SWAP1 POP PUSH1 0x1 PUSH3 0x28C PUSH1 0x2 DUP6 PUSH3 0x391 PUSH1 0x20 SHL PUSH3 0x177C OR SWAP1 SWAP2 SWAP1 PUSH1 0x20 SHR JUMP JUMPDEST EQ ISZERO PUSH3 0x2B0 JUMPI PUSH3 0x2AD DUP5 DUP3 PUSH3 0x30D PUSH1 0x20 SHL PUSH3 0x1701 OR SWAP1 SWAP2 SWAP1 PUSH1 0x20 SHR JUMP JUMPDEST SWAP1 POP JUMPDEST DUP1 SWAP2 POP POP JUMPDEST SWAP3 SWAP2 POP POP JUMP JUMPDEST PUSH1 0x0 PUSH3 0x305 DUP4 DUP4 PUSH1 0x40 MLOAD DUP1 PUSH1 0x40 ADD PUSH1 0x40 MSTORE DUP1 PUSH1 0x1A DUP2 MSTORE PUSH1 0x20 ADD PUSH32 0x536166654D6174683A206469766973696F6E206279207A65726F000000000000 DUP2 MSTORE POP PUSH3 0x3E3 PUSH1 0x20 SHL PUSH1 0x20 SHR JUMP JUMPDEST SWAP1 POP SWAP3 SWAP2 POP POP JUMP JUMPDEST PUSH1 0x0 DUP1 DUP4 EQ ISZERO PUSH3 0x322 JUMPI PUSH1 0x0 SWAP1 POP PUSH3 0x38B JUMP JUMPDEST PUSH1 0x0 DUP3 DUP5 PUSH3 0x332 SWAP2 SWAP1 PUSH3 0x650 JUMP JUMPDEST SWAP1 POP DUP3 DUP5 DUP3 PUSH3 0x343 SWAP2 SWAP1 PUSH3 0x618 JUMP JUMPDEST EQ PUSH3 0x386 JUMPI PUSH1 0x40 MLOAD PUSH32 0x8C379A000000000000000000000000000000000000000000000000000000000 DUP2 MSTORE PUSH1 0x4 ADD PUSH3 0x37D SWAP1 PUSH3 0x5DA JUMP JUMPDEST PUSH1 0x40 MLOAD DUP1 SWAP2 SUB SWAP1 REVERT JUMPDEST DUP1 SWAP2 POP POP JUMPDEST SWAP3 SWAP2 POP POP JUMP JUMPDEST PUSH1 0x0 PUSH3 0x3DB DUP4 DUP4 PUSH1 0x40 MLOAD DUP1 PUSH1 0x40 ADD PUSH1 0x40 MSTORE DUP1 PUSH1 0x18 DUP2 MSTORE PUSH1 0x20 ADD PUSH32 0x536166654D6174683A206D6F64756C6F206279207A65726F0000000000000000 DUP2 MSTORE POP PUSH3 0x44B PUSH1 0x20 SHL PUSH1 0x20 SHR JUMP JUMPDEST SWAP1 POP SWAP3 SWAP2 POP POP JUMP JUMPDEST PUSH1 0x0 DUP1 DUP4 GT DUP3 SWAP1 PUSH3 0x42D JUMPI PUSH1 0x40 MLOAD PUSH32 0x8C379A000000000000000000000000000000000000000000000000000000000 DUP2 MSTORE PUSH1 0x4 ADD PUSH3 0x424 SWAP2 SWAP1 PUSH3 0x5B6 JUMP JUMPDEST PUSH1 0x40 MLOAD DUP1 SWAP2 SUB SWAP1 REVERT JUMPDEST POP PUSH1 0x0 DUP4 DUP6 PUSH3 0x43E SWAP2 SWAP1 PUSH3 0x618 JUMP JUMPDEST SWAP1 POP DUP1 SWAP2 POP POP SWAP4 SWAP3 POP POP POP JUMP JUMPDEST PUSH1 0x0 DUP1 DUP4 EQ ISZERO DUP3 SWAP1 PUSH3 0x496 JUMPI PUSH1 0x40 MLOAD PUSH32 0x8C379A000000000000000000000000000000000000000000000000000000000 DUP2 MSTORE PUSH1 0x4 ADD PUSH3 0x48D SWAP2 SWAP1 PUSH3 0x5B6 JUMP JUMPDEST PUSH1 0x40 MLOAD DUP1 SWAP2 SUB SWAP1 REVERT JUMPDEST POP DUP3 DUP5 PUSH3 0x4A5 SWAP2 SWAP1 PUSH3 0x725 JUMP JUMPDEST SWAP1 POP SWAP4 SWAP3 POP POP POP JUMP JUMPDEST PUSH1 0x0 DUP2 MLOAD SWAP1 POP PUSH3 0x4BF DUP2 PUSH3 0x820 JUMP JUMPDEST SWAP3 SWAP2 POP POP JUMP JUMPDEST PUSH1 0x0 DUP2 MLOAD SWAP1 POP PUSH3 0x4D6 DUP2 PUSH3 0x83A JUMP JUMPDEST SWAP3 SWAP2 POP POP JUMP JUMPDEST PUSH1 0x0 DUP1 PUSH1 0x0 DUP1 PUSH1 0x80 DUP6 DUP8 SUB SLT ISZERO PUSH3 0x4F9 JUMPI PUSH3 0x4F8 PUSH3 0x7BB JUMP JUMPDEST JUMPDEST PUSH1 0x0 PUSH3 0x509 DUP8 DUP3 DUP9 ADD PUSH3 0x4AE JUMP JUMPDEST SWAP5 POP POP PUSH1 0x20 PUSH3 0x51C DUP8 DUP3 DUP9 ADD PUSH3 0x4AE JUMP JUMPDEST SWAP4 POP POP PUSH1 0x40 PUSH3 0x52F DUP8 DUP3 DUP9 ADD PUSH3 0x4C5 JUMP JUMPDEST SWAP3 POP POP PUSH1 0x60 PUSH3 0x542 DUP8 DUP3 DUP9 ADD PUSH3 0x4C5 JUMP JUMPDEST SWAP2 POP POP SWAP3 SWAP6 SWAP2 SWAP5 POP SWAP3 POP JUMP JUMPDEST PUSH1 0x0 PUSH3 0x55B DUP3 PUSH3 0x5FC JUMP JUMPDEST PUSH3 0x567 DUP2 DUP6 PUSH3 0x607 JUMP JUMPDEST SWAP4 POP PUSH3 0x579 DUP2 DUP6 PUSH1 0x20 DUP7 ADD PUSH3 0x6EF JUMP JUMPDEST PUSH3 0x584 DUP2 PUSH3 0x7C0 JUMP JUMPDEST DUP5 ADD SWAP2 POP POP SWAP3 SWAP2 POP POP JUMP JUMPDEST PUSH1 0x0 PUSH3 0x59E PUSH1 0x21 DUP4 PUSH3 0x607 JUMP JUMPDEST SWAP2 POP PUSH3 0x5AB DUP3 PUSH3 0x7D1 JUMP JUMPDEST PUSH1 0x40 DUP3 ADD SWAP1 POP SWAP2 SWAP1 POP JUMP JUMPDEST PUSH1 0x0 PUSH1 0x20 DUP3 ADD SWAP1 POP DUP2 DUP2 SUB PUSH1 0x0 DUP4 ADD MSTORE PUSH3 0x5D2 DUP2 DUP5 PUSH3 0x54E JUMP JUMPDEST SWAP1 POP SWAP3 SWAP2 POP POP JUMP JUMPDEST PUSH1 0x0 PUSH1 0x20 DUP3 ADD SWAP1 POP DUP2 DUP2 SUB PUSH1 0x0 DUP4 ADD MSTORE PUSH3 0x5F5 DUP2 PUSH3 0x58F JUMP JUMPDEST SWAP1 POP SWAP2 SWAP1 POP JUMP JUMPDEST PUSH1 0x0 DUP2 MLOAD SWAP1 POP SWAP2 SWAP1 POP JUMP JUMPDEST PUSH1 0x0 DUP3 DUP3 MSTORE PUSH1 0x20 DUP3 ADD SWAP1 POP SWAP3 SWAP2 POP POP JUMP JUMPDEST PUSH1 0x0 PUSH3 0x625 DUP3 PUSH3 0x6E5 JUMP JUMPDEST SWAP2 POP PUSH3 0x632 DUP4 PUSH3 0x6E5 JUMP JUMPDEST SWAP3 POP DUP3 PUSH3 0x645 JUMPI PUSH3 0x644 PUSH3 0x78C JUMP JUMPDEST JUMPDEST DUP3 DUP3 DIV SWAP1 POP SWAP3 SWAP2 POP POP JUMP JUMPDEST PUSH1 0x0 PUSH3 0x65D DUP3 PUSH3 0x6E5 JUMP JUMPDEST SWAP2 POP PUSH3 0x66A DUP4 PUSH3 0x6E5 JUMP JUMPDEST SWAP3 POP DUP2 PUSH32 0xFFFFFFFFFFFFFFFFFFFFFFFFFFFFFFFFFFFFFFFFFFFFFFFFFFFFFFFFFFFFFFFF DIV DUP4 GT DUP3 ISZERO ISZERO AND ISZERO PUSH3 0x6A6 JUMPI PUSH3 0x6A5 PUSH3 0x75D JUMP JUMPDEST JUMPDEST DUP3 DUP3 MUL SWAP1 POP SWAP3 SWAP2 POP POP JUMP JUMPDEST PUSH1 0x0 PUSH3 0x6BE DUP3 PUSH3 0x6C5 JUMP JUMPDEST SWAP1 POP SWAP2 SWAP1 POP JUMP JUMPDEST PUSH1 0x0 PUSH20 0xFFFFFFFFFFFFFFFFFFFFFFFFFFFFFFFFFFFFFFFF DUP3 AND SWAP1 POP SWAP2 SWAP1 POP JUMP JUMPDEST PUSH1 0x0 DUP2 SWAP1 POP SWAP2 SWAP1 POP JUMP JUMPDEST PUSH1 0x0 JUMPDEST DUP4 DUP2 LT ISZERO PUSH3 0x70F JUMPI DUP1 DUP3 ADD MLOAD DUP2 DUP5 ADD MSTORE PUSH1 0x20 DUP2 ADD SWAP1 POP PUSH3 0x6F2 JUMP JUMPDEST DUP4 DUP2 GT ISZERO PUSH3 0x71F JUMPI PUSH1 0x0 DUP5 DUP5 ADD MSTORE JUMPDEST POP POP POP POP JUMP JUMPDEST PUSH1 0x0 PUSH3 0x732 DUP3 PUSH3 0x6E5 JUMP JUMPDEST SWAP2 POP PUSH3 0x73F DUP4 PUSH3 0x6E5 JUMP JUMPDEST SWAP3 POP DUP3 PUSH3 0x752 JUMPI PUSH3 0x751 PUSH3 0x78C JUMP JUMPDEST JUMPDEST DUP3 DUP3 MOD SWAP1 POP SWAP3 SWAP2 POP POP JUMP JUMPDEST PUSH32 0x4E487B7100000000000000000000000000000000000000000000000000000000 PUSH1 0x0 MSTORE PUSH1 0x11 PUSH1 0x4 MSTORE PUSH1 0x24 PUSH1 0x0 REVERT JUMPDEST PUSH32 0x4E487B7100000000000000000000000000000000000000000000000000000000 PUSH1 0x0 MSTORE PUSH1 0x12 PUSH1 0x4 MSTORE PUSH1 0x24 PUSH1 0x0 REVERT JUMPDEST PUSH1 0x0 DUP1 REVERT JUMPDEST PUSH1 0x0 PUSH1 0x1F NOT PUSH1 0x1F DUP4 ADD AND SWAP1 POP SWAP2 SWAP1 POP JUMP JUMPDEST PUSH32 0x536166654D6174683A206D756C7469706C69636174696F6E206F766572666C6F PUSH1 0x0 DUP3 ADD MSTORE PUSH32 0x7700000000000000000000000000000000000000000000000000000000000000 PUSH1 0x20 DUP3 ADD MSTORE POP JUMP JUMPDEST PUSH3 0x82B DUP2 PUSH3 0x6B1 JUMP JUMPDEST DUP2 EQ PUSH3 0x837 JUMPI PUSH1 0x0 DUP1 REVERT JUMPDEST POP JUMP JUMPDEST PUSH3 0x845 DUP2 PUSH3 0x6E5 JUMP JUMPDEST DUP2 EQ PUSH3 0x851 JUMPI PUSH1 0x0 DUP1 REVERT JUMPDEST POP JUMP JUMPDEST PUSH2 0x2EFC DUP1 PUSH3 0x864 PUSH1 0x0 CODECOPY PUSH1 0x0 RETURN INVALID PUSH1 0x80 PUSH1 0x40 MSTORE CALLVALUE DUP1 ISZERO PUSH2 0x10 JUMPI PUSH1 0x0 DUP1 REVERT JUMPDEST POP PUSH1 0x4 CALLDATASIZE LT PUSH2 0x1D9 JUMPI PUSH1 0x0 CALLDATALOAD PUSH1 0xE0 SHR DUP1 PUSH4 0x7B0A47EE GT PUSH2 0x104 JUMPI DUP1 PUSH4 0xC8F33C91 GT PUSH2 0xA2 JUMPI DUP1 PUSH4 0xDF136D65 GT PUSH2 0x71 JUMPI DUP1 PUSH4 0xDF136D65 EQ PUSH2 0x536 JUMPI DUP1 PUSH4 0xE9FAD8EE EQ PUSH2 0x554 JUMPI DUP1 PUSH4 0xEBE2B12B EQ PUSH2 0x55E JUMPI DUP1 PUSH4 0xF2FDE38B EQ PUSH2 0x57C JUMPI PUSH2 0x1D9 JUMP JUMPDEST DUP1 PUSH4 0xC8F33C91 EQ PUSH2 0x4C0 JUMPI DUP1 PUSH4 0xCC1A378F EQ PUSH2 0x4DE JUMPI DUP1 PUSH4 0xCD3DAF9D EQ PUSH2 0x4FA JUMPI DUP1 PUSH4 0xD1AF0C7D EQ PUSH2 0x518 JUMPI PUSH2 0x1D9 JUMP JUMPDEST DUP1 PUSH4 0x8B876347 GT PUSH2 0xDE JUMPI DUP1 PUSH4 0x8B876347 EQ PUSH2 0x438 JUMPI DUP1 PUSH4 0x8DA5CB5B EQ PUSH2 0x468 JUMPI DUP1 PUSH4 0xA694FC3A EQ PUSH2 0x486 JUMPI DUP1 PUSH4 0xA85FE3B7 EQ PUSH2 0x4A2 JUMPI PUSH2 0x1D9 JUMP JUMPDEST DUP1 PUSH4 0x7B0A47EE EQ PUSH2 0x3E0 JUMPI DUP1 PUSH4 0x80FAA57D EQ PUSH2 0x3FE JUMPI DUP1 PUSH4 0x8980F11F EQ PUSH2 0x41C JUMPI PUSH2 0x1D9 JUMP JUMPDEST DUP1 PUSH4 0x386A9525 GT PUSH2 0x17C JUMPI DUP1 PUSH4 0x70A08231 GT PUSH2 0x14B JUMPI DUP1 PUSH4 0x70A08231 EQ PUSH2 0x358 JUMPI DUP1 PUSH4 0x715018A6 EQ PUSH2 0x388 JUMPI DUP1 PUSH4 0x72F702F3 EQ PUSH2 0x392 JUMPI DUP1 PUSH4 0x7AE2B5C7 EQ PUSH2 0x3B0 JUMPI PUSH2 0x1D9 JUMP JUMPDEST DUP1 PUSH4 0x386A9525 EQ PUSH2 0x2F6 JUMPI DUP1 PUSH4 0x3C6B16AB EQ PUSH2 0x314 JUMPI DUP1 PUSH4 0x3D18B912 EQ PUSH2 0x330 JUMPI DUP1 PUSH4 0x5C975ABB EQ PUSH2 0x33A JUMPI PUSH2 0x1D9 JUMP JUMPDEST DUP1 PUSH4 0x18160DDD GT PUSH2 0x1B8 JUMPI DUP1 PUSH4 0x18160DDD EQ PUSH2 0x26E JUMPI DUP1 PUSH4 0x1C1F78EB EQ PUSH2 0x28C JUMPI DUP1 PUSH4 0x2E1A7D4D EQ PUSH2 0x2AA JUMPI DUP1 PUSH4 0x2E4C697F EQ PUSH2 0x2C6 JUMPI PUSH2 0x1D9 JUMP JUMPDEST DUP1 PUSH3 0x8CC262 EQ PUSH2 0x1DE JUMPI DUP1 PUSH4 0x700037D EQ PUSH2 0x20E JUMPI DUP1 PUSH4 0x150B7A02 EQ PUSH2 0x23E JUMPI JUMPDEST PUSH1 0x0 DUP1 REVERT JUMPDEST PUSH2 0x1F8 PUSH1 0x4 DUP1 CALLDATASIZE SUB DUP2 ADD SWAP1 PUSH2 0x1F3 SWAP2 SWAP1 PUSH2 0x1FA6 JUMP JUMPDEST PUSH2 0x598 JUMP JUMPDEST PUSH1 0x40 MLOAD PUSH2 0x205 SWAP2 SWAP1 PUSH2 0x27A8 JUMP JUMPDEST PUSH1 0x40 MLOAD DUP1 SWAP2 SUB SWAP1 RETURN JUMPDEST PUSH2 0x228 PUSH1 0x4 DUP1 CALLDATASIZE SUB DUP2 ADD SWAP1 PUSH2 0x223 SWAP2 SWAP1 PUSH2 0x1FA6 JUMP JUMPDEST PUSH2 0x6B0 JUMP JUMPDEST PUSH1 0x40 MLOAD PUSH2 0x235 SWAP2 SWAP1 PUSH2 0x27A8 JUMP JUMPDEST PUSH1 0x40 MLOAD DUP1 SWAP2 SUB SWAP1 RETURN JUMPDEST PUSH2 0x258 PUSH1 0x4 DUP1 CALLDATASIZE SUB DUP2 ADD SWAP1 PUSH2 0x253 SWAP2 SWAP1 PUSH2 0x1FD3 JUMP JUMPDEST PUSH2 0x6C8 JUMP JUMPDEST PUSH1 0x40 MLOAD PUSH2 0x265 SWAP2 SWAP1 PUSH2 0x2570 JUMP JUMPDEST PUSH1 0x40 MLOAD DUP1 SWAP2 SUB SWAP1 RETURN JUMPDEST PUSH2 0x276 PUSH2 0x704 JUMP JUMPDEST PUSH1 0x40 MLOAD PUSH2 0x283 SWAP2 SWAP1 PUSH2 0x27A8 JUMP JUMPDEST PUSH1 0x40 MLOAD DUP1 SWAP2 SUB SWAP1 RETURN JUMPDEST PUSH2 0x294 PUSH2 0x70E JUMP JUMPDEST PUSH1 0x40 MLOAD PUSH2 0x2A1 SWAP2 SWAP1 PUSH2 0x27A8 JUMP JUMPDEST PUSH1 0x40 MLOAD DUP1 SWAP2 SUB SWAP1 RETURN JUMPDEST PUSH2 0x2C4 PUSH1 0x4 DUP1 CALLDATASIZE SUB DUP2 ADD SWAP1 PUSH2 0x2BF SWAP2 SWAP1 PUSH2 0x20C8 JUMP JUMPDEST PUSH2 0x72C JUMP JUMPDEST STOP JUMPDEST PUSH2 0x2E0 PUSH1 0x4 DUP1 CALLDATASIZE SUB DUP2 ADD SWAP1 PUSH2 0x2DB SWAP2 SWAP1 PUSH2 0x2122 JUMP JUMPDEST PUSH2 0x9B2 JUMP JUMPDEST PUSH1 0x40 MLOAD PUSH2 0x2ED SWAP2 SWAP1 PUSH2 0x27A8 JUMP JUMPDEST PUSH1 0x40 MLOAD DUP1 SWAP2 SUB SWAP1 RETURN JUMPDEST PUSH2 0x2FE PUSH2 0xA49 JUMP JUMPDEST PUSH1 0x40 MLOAD PUSH2 0x30B SWAP2 SWAP1 PUSH2 0x27A8 JUMP JUMPDEST PUSH1 0x40 MLOAD DUP1 SWAP2 SUB SWAP1 RETURN JUMPDEST PUSH2 0x32E PUSH1 0x4 DUP1 CALLDATASIZE SUB DUP2 ADD SWAP1 PUSH2 0x329 SWAP2 SWAP1 PUSH2 0x20C8 JUMP JUMPDEST PUSH2 0xA4F JUMP JUMPDEST STOP JUMPDEST PUSH2 0x338 PUSH2 0xD2D JUMP JUMPDEST STOP JUMPDEST PUSH2 0x342 PUSH2 0xF53 JUMP JUMPDEST PUSH1 0x40 MLOAD PUSH2 0x34F SWAP2 SWAP1 PUSH2 0x2555 JUMP JUMPDEST PUSH1 0x40 MLOAD DUP1 SWAP2 SUB SWAP1 RETURN JUMPDEST PUSH2 0x372 PUSH1 0x4 DUP1 CALLDATASIZE SUB DUP2 ADD SWAP1 PUSH2 0x36D SWAP2 SWAP1 PUSH2 0x1FA6 JUMP JUMPDEST PUSH2 0xF6A JUMP JUMPDEST PUSH1 0x40 MLOAD PUSH2 0x37F SWAP2 SWAP1 PUSH2 0x27A8 JUMP JUMPDEST PUSH1 0x40 MLOAD DUP1 SWAP2 SUB SWAP1 RETURN JUMPDEST PUSH2 0x390 PUSH2 0xFB3 JUMP JUMPDEST STOP JUMPDEST PUSH2 0x39A PUSH2 0xFC7 JUMP JUMPDEST PUSH1 0x40 MLOAD PUSH2 0x3A7 SWAP2 SWAP1 PUSH2 0x258B JUMP JUMPDEST PUSH1 0x40 MLOAD DUP1 SWAP2 SUB SWAP1 RETURN JUMPDEST PUSH2 0x3CA PUSH1 0x4 DUP1 CALLDATASIZE SUB DUP2 ADD SWAP1 PUSH2 0x3C5 SWAP2 SWAP1 PUSH2 0x2122 JUMP JUMPDEST PUSH2 0xFED JUMP JUMPDEST PUSH1 0x40 MLOAD PUSH2 0x3D7 SWAP2 SWAP1 PUSH2 0x27A8 JUMP JUMPDEST PUSH1 0x40 MLOAD DUP1 SWAP2 SUB SWAP1 RETURN JUMPDEST PUSH2 0x3E8 PUSH2 0x1006 JUMP JUMPDEST PUSH1 0x40 MLOAD PUSH2 0x3F5 SWAP2 SWAP1 PUSH2 0x27A8 JUMP JUMPDEST PUSH1 0x40 MLOAD DUP1 SWAP2 SUB SWAP1 RETURN JUMPDEST PUSH2 0x406 PUSH2 0x100C JUMP JUMPDEST PUSH1 0x40 MLOAD PUSH2 0x413 SWAP2 SWAP1 PUSH2 0x27A8 JUMP JUMPDEST PUSH1 0x40 MLOAD DUP1 SWAP2 SUB SWAP1 RETURN JUMPDEST PUSH2 0x436 PUSH1 0x4 DUP1 CALLDATASIZE SUB DUP2 ADD SWAP1 PUSH2 0x431 SWAP2 SWAP1 PUSH2 0x205B JUMP JUMPDEST PUSH2 0x101F JUMP JUMPDEST STOP JUMPDEST PUSH2 0x452 PUSH1 0x4 DUP1 CALLDATASIZE SUB DUP2 ADD SWAP1 PUSH2 0x44D SWAP2 SWAP1 PUSH2 0x1FA6 JUMP JUMPDEST PUSH2 0x11BC JUMP JUMPDEST PUSH1 0x40 MLOAD PUSH2 0x45F SWAP2 SWAP1 PUSH2 0x27A8 JUMP JUMPDEST PUSH1 0x40 MLOAD DUP1 SWAP2 SUB SWAP1 RETURN JUMPDEST PUSH2 0x470 PUSH2 0x11D4 JUMP JUMPDEST PUSH1 0x40 MLOAD PUSH2 0x47D SWAP2 SWAP1 PUSH2 0x24DA JUMP JUMPDEST PUSH1 0x40 MLOAD DUP1 SWAP2 SUB SWAP1 RETURN JUMPDEST PUSH2 0x4A0 PUSH1 0x4 DUP1 CALLDATASIZE SUB DUP2 ADD SWAP1 PUSH2 0x49B SWAP2 SWAP1 PUSH2 0x20C8 JUMP JUMPDEST PUSH2 0x11FC JUMP JUMPDEST STOP JUMPDEST PUSH2 0x4AA PUSH2 0x148C JUMP JUMPDEST PUSH1 0x40 MLOAD PUSH2 0x4B7 SWAP2 SWAP1 PUSH2 0x27A8 JUMP JUMPDEST PUSH1 0x40 MLOAD DUP1 SWAP2 SUB SWAP1 RETURN JUMPDEST PUSH2 0x4C8 PUSH2 0x1492 JUMP JUMPDEST PUSH1 0x40 MLOAD PUSH2 0x4D5 SWAP2 SWAP1 PUSH2 0x27A8 JUMP JUMPDEST PUSH1 0x40 MLOAD DUP1 SWAP2 SUB SWAP1 RETURN JUMPDEST PUSH2 0x4F8 PUSH1 0x4 DUP1 CALLDATASIZE SUB DUP2 ADD SWAP1 PUSH2 0x4F3 SWAP2 SWAP1 PUSH2 0x20C8 JUMP JUMPDEST PUSH2 0x1498 JUMP JUMPDEST STOP JUMPDEST PUSH2 0x502 PUSH2 0x1527 JUMP JUMPDEST PUSH1 0x40 MLOAD PUSH2 0x50F SWAP2 SWAP1 PUSH2 0x27A8 JUMP JUMPDEST PUSH1 0x40 MLOAD DUP1 SWAP2 SUB SWAP1 RETURN JUMPDEST PUSH2 0x520 PUSH2 0x15AF JUMP JUMPDEST PUSH1 0x40 MLOAD PUSH2 0x52D SWAP2 SWAP1 PUSH2 0x258B JUMP JUMPDEST PUSH1 0x40 MLOAD DUP1 SWAP2 SUB SWAP1 RETURN JUMPDEST PUSH2 0x53E PUSH2 0x15D5 JUMP JUMPDEST PUSH1 0x40 MLOAD PUSH2 0x54B SWAP2 SWAP1 PUSH2 0x27A8 JUMP JUMPDEST PUSH1 0x40 MLOAD DUP1 SWAP2 SUB SWAP1 RETURN JUMPDEST PUSH2 0x55C PUSH2 0x15DB JUMP JUMPDEST STOP JUMPDEST PUSH2 0x566 PUSH2 0x162D JUMP JUMPDEST PUSH1 0x40 MLOAD PUSH2 0x573 SWAP2 SWAP1 PUSH2 0x27A8 JUMP JUMPDEST PUSH1 0x40 MLOAD DUP1 SWAP2 SUB SWAP1 RETURN JUMPDEST PUSH2 0x596 PUSH1 0x4 DUP1 CALLDATASIZE SUB DUP2 ADD SWAP1 PUSH2 0x591 SWAP2 SWAP1 PUSH2 0x1FA6 JUMP JUMPDEST PUSH2 0x1633 JUMP JUMPDEST STOP JUMPDEST PUSH1 0x0 PUSH2 0x6A9 PUSH1 0xC PUSH1 0x0 DUP5 PUSH20 0xFFFFFFFFFFFFFFFFFFFFFFFFFFFFFFFFFFFFFFFF AND PUSH20 0xFFFFFFFFFFFFFFFFFFFFFFFFFFFFFFFFFFFFFFFF AND DUP2 MSTORE PUSH1 0x20 ADD SWAP1 DUP2 MSTORE PUSH1 0x20 ADD PUSH1 0x0 KECCAK256 SLOAD PUSH2 0x69B PUSH1 0x9 SLOAD PUSH2 0x68D PUSH2 0x63F PUSH1 0xB PUSH1 0x0 DUP10 PUSH20 0xFFFFFFFFFFFFFFFFFFFFFFFFFFFFFFFFFFFFFFFF AND PUSH20 0xFFFFFFFFFFFFFFFFFFFFFFFFFFFFFFFFFFFFFFFF AND DUP2 MSTORE PUSH1 0x20 ADD SWAP1 DUP2 MSTORE PUSH1 0x20 ADD PUSH1 0x0 KECCAK256 SLOAD PUSH2 0x631 PUSH2 0x1527 JUMP JUMPDEST PUSH2 0x17C6 SWAP1 SWAP2 SWAP1 PUSH4 0xFFFFFFFF AND JUMP JUMPDEST PUSH1 0xE PUSH1 0x0 DUP10 PUSH20 0xFFFFFFFFFFFFFFFFFFFFFFFFFFFFFFFFFFFFFFFF AND PUSH20 0xFFFFFFFFFFFFFFFFFFFFFFFFFFFFFFFFFFFFFFFF AND DUP2 MSTORE PUSH1 0x20 ADD SWAP1 DUP2 MSTORE PUSH1 0x20 ADD PUSH1 0x0 KECCAK256 SLOAD PUSH2 0x1701 SWAP1 SWAP2 SWAP1 PUSH4 0xFFFFFFFF AND JUMP JUMPDEST PUSH2 0x16B7 SWAP1 SWAP2 SWAP1 PUSH4 0xFFFFFFFF AND JUMP JUMPDEST PUSH2 0x1810 SWAP1 SWAP2 SWAP1 PUSH4 0xFFFFFFFF AND JUMP JUMPDEST SWAP1 POP SWAP2 SWAP1 POP JUMP JUMPDEST PUSH1 0xC PUSH1 0x20 MSTORE DUP1 PUSH1 0x0 MSTORE PUSH1 0x40 PUSH1 0x0 KECCAK256 PUSH1 0x0 SWAP2 POP SWAP1 POP SLOAD DUP2 JUMP JUMPDEST PUSH1 0x0 DUP6 DUP6 DUP6 DUP6 DUP6 PUSH1 0x40 MLOAD PUSH1 0x20 ADD PUSH2 0x6E3 SWAP6 SWAP5 SWAP4 SWAP3 SWAP2 SWAP1 PUSH2 0x2477 JUMP JUMPDEST PUSH1 0x40 MLOAD PUSH1 0x20 DUP2 DUP4 SUB SUB DUP2 MSTORE SWAP1 PUSH1 0x40 MSTORE DUP1 MLOAD SWAP1 PUSH1 0x20 ADD KECCAK256 SWAP1 POP SWAP6 SWAP5 POP POP POP POP POP JUMP JUMPDEST PUSH1 0x0 PUSH1 0xD SLOAD SWAP1 POP SWAP1 JUMP JUMPDEST PUSH1 0x0 PUSH2 0x727 PUSH1 0x6 SLOAD PUSH1 0x5 SLOAD PUSH2 0x1701 SWAP1 SWAP2 SWAP1 PUSH4 0xFFFFFFFF AND JUMP JUMPDEST SWAP1 POP SWAP1 JUMP JUMPDEST PUSH2 0x734 PUSH2 0x186E JUMP JUMPDEST CALLER PUSH2 0x73D PUSH2 0x1527 JUMP JUMPDEST PUSH1 0x8 DUP2 SWAP1 SSTORE POP PUSH2 0x74B PUSH2 0x100C JUMP JUMPDEST PUSH1 0x7 DUP2 SWAP1 SSTORE POP PUSH1 0x0 PUSH20 0xFFFFFFFFFFFFFFFFFFFFFFFFFFFFFFFFFFFFFFFF AND DUP2 PUSH20 0xFFFFFFFFFFFFFFFFFFFFFFFFFFFFFFFFFFFFFFFF AND EQ PUSH2 0x818 JUMPI PUSH2 0x78E DUP2 PUSH2 0x598 JUMP JUMPDEST PUSH1 0xC PUSH1 0x0 DUP4 PUSH20 0xFFFFFFFFFFFFFFFFFFFFFFFFFFFFFFFFFFFFFFFF AND PUSH20 0xFFFFFFFFFFFFFFFFFFFFFFFFFFFFFFFFFFFFFFFF AND DUP2 MSTORE PUSH1 0x20 ADD SWAP1 DUP2 MSTORE PUSH1 0x20 ADD PUSH1 0x0 KECCAK256 DUP2 SWAP1 SSTORE POP PUSH1 0x8 SLOAD PUSH1 0xB PUSH1 0x0 DUP4 PUSH20 0xFFFFFFFFFFFFFFFFFFFFFFFFFFFFFFFFFFFFFFFF AND PUSH20 0xFFFFFFFFFFFFFFFFFFFFFFFFFFFFFFFFFFFFFFFF AND DUP2 MSTORE PUSH1 0x20 ADD SWAP1 DUP2 MSTORE PUSH1 0x20 ADD PUSH1 0x0 KECCAK256 DUP2 SWAP1 SSTORE POP JUMPDEST PUSH1 0x0 DUP3 GT PUSH2 0x85B JUMPI PUSH1 0x40 MLOAD PUSH32 0x8C379A000000000000000000000000000000000000000000000000000000000 DUP2 MSTORE PUSH1 0x4 ADD PUSH2 0x852 SWAP1 PUSH2 0x26A8 JUMP JUMPDEST PUSH1 0x40 MLOAD DUP1 SWAP2 SUB SWAP1 REVERT JUMPDEST PUSH2 0x870 DUP3 PUSH1 0xD SLOAD PUSH2 0x17C6 SWAP1 SWAP2 SWAP1 PUSH4 0xFFFFFFFF AND JUMP JUMPDEST PUSH1 0xD DUP2 SWAP1 SSTORE POP PUSH2 0x8C8 DUP3 PUSH1 0xE PUSH1 0x0 CALLER PUSH20 0xFFFFFFFFFFFFFFFFFFFFFFFFFFFFFFFFFFFFFFFF AND PUSH20 0xFFFFFFFFFFFFFFFFFFFFFFFFFFFFFFFFFFFFFFFF AND DUP2 MSTORE PUSH1 0x20 ADD SWAP1 DUP2 MSTORE PUSH1 0x20 ADD PUSH1 0x0 KECCAK256 SLOAD PUSH2 0x17C6 SWAP1 SWAP2 SWAP1 PUSH4 0xFFFFFFFF AND JUMP JUMPDEST PUSH1 0xE PUSH1 0x0 CALLER PUSH20 0xFFFFFFFFFFFFFFFFFFFFFFFFFFFFFFFFFFFFFFFF AND PUSH20 0xFFFFFFFFFFFFFFFFFFFFFFFFFFFFFFFFFFFFFFFF AND DUP2 MSTORE PUSH1 0x20 ADD SWAP1 DUP2 MSTORE PUSH1 0x20 ADD PUSH1 0x0 KECCAK256 DUP2 SWAP1 SSTORE POP PUSH2 0x958 CALLER DUP4 PUSH1 0x3 PUSH1 0x0 SWAP1 SLOAD SWAP1 PUSH2 0x100 EXP SWAP1 DIV PUSH20 0xFFFFFFFFFFFFFFFFFFFFFFFFFFFFFFFFFFFFFFFF AND PUSH20 0xFFFFFFFFFFFFFFFFFFFFFFFFFFFFFFFFFFFFFFFF AND PUSH2 0x18BE SWAP1 SWAP3 SWAP2 SWAP1 PUSH4 0xFFFFFFFF AND JUMP JUMPDEST CALLER PUSH20 0xFFFFFFFFFFFFFFFFFFFFFFFFFFFFFFFFFFFFFFFF AND PUSH32 0x7084F5476618D8E60B11EF0D7D3F06914655ADB8793E28FF7F018D4C76D505D5 DUP4 PUSH1 0x40 MLOAD PUSH2 0x99E SWAP2 SWAP1 PUSH2 0x27A8 JUMP JUMPDEST PUSH1 0x40 MLOAD DUP1 SWAP2 SUB SWAP1 LOG2 POP PUSH2 0x9AF PUSH2 0x1944 JUMP JUMPDEST POP JUMP JUMPDEST PUSH1 0x0 DUP1 DUP3 EQ ISZERO PUSH2 0x9C5 JUMPI PUSH1 0x1 SWAP1 POP PUSH2 0xA43 JUMP JUMPDEST PUSH1 0x1 DUP3 EQ ISZERO PUSH2 0x9D6 JUMPI DUP3 SWAP1 POP PUSH2 0xA43 JUMP JUMPDEST PUSH1 0x0 PUSH2 0x9F5 DUP5 PUSH2 0x9F0 PUSH1 0x2 DUP7 PUSH2 0x16B7 SWAP1 SWAP2 SWAP1 PUSH4 0xFFFFFFFF AND JUMP JUMPDEST PUSH2 0x9B2 JUMP JUMPDEST SWAP1 POP PUSH2 0xA0A DUP2 DUP3 PUSH2 0x1701 SWAP1 SWAP2 SWAP1 PUSH4 0xFFFFFFFF AND JUMP JUMPDEST SWAP1 POP PUSH1 0x1 PUSH2 0xA22 PUSH1 0x2 DUP6 PUSH2 0x177C SWAP1 SWAP2 SWAP1 PUSH4 0xFFFFFFFF AND JUMP JUMPDEST EQ ISZERO PUSH2 0xA3E JUMPI PUSH2 0xA3B DUP5 DUP3 PUSH2 0x1701 SWAP1 SWAP2 SWAP1 PUSH4 0xFFFFFFFF AND JUMP JUMPDEST SWAP1 POP JUMPDEST DUP1 SWAP2 POP POP JUMPDEST SWAP3 SWAP2 POP POP JUMP JUMPDEST PUSH1 0x6 SLOAD DUP2 JUMP JUMPDEST PUSH2 0xA57 PUSH2 0x194E JUMP JUMPDEST PUSH1 0x0 PUSH2 0xA61 PUSH2 0x1527 JUMP JUMPDEST PUSH1 0x8 DUP2 SWAP1 SSTORE POP PUSH2 0xA6F PUSH2 0x100C JUMP JUMPDEST PUSH1 0x7 DUP2 SWAP1 SSTORE POP PUSH1 0x0 PUSH20 0xFFFFFFFFFFFFFFFFFFFFFFFFFFFFFFFFFFFFFFFF AND DUP2 PUSH20 0xFFFFFFFFFFFFFFFFFFFFFFFFFFFFFFFFFFFFFFFF AND EQ PUSH2 0xB3C JUMPI PUSH2 0xAB2 DUP2 PUSH2 0x598 JUMP JUMPDEST PUSH1 0xC PUSH1 0x0 DUP4 PUSH20 0xFFFFFFFFFFFFFFFFFFFFFFFFFFFFFFFFFFFFFFFF AND PUSH20 0xFFFFFFFFFFFFFFFFFFFFFFFFFFFFFFFFFFFFFFFF AND DUP2 MSTORE PUSH1 0x20 ADD SWAP1 DUP2 MSTORE PUSH1 0x20 ADD PUSH1 0x0 KECCAK256 DUP2 SWAP1 SSTORE POP PUSH1 0x8 SLOAD PUSH1 0xB PUSH1 0x0 DUP4 PUSH20 0xFFFFFFFFFFFFFFFFFFFFFFFFFFFFFFFFFFFFFFFF AND PUSH20 0xFFFFFFFFFFFFFFFFFFFFFFFFFFFFFFFFFFFFFFFF AND DUP2 MSTORE PUSH1 0x20 ADD SWAP1 DUP2 MSTORE PUSH1 0x20 ADD PUSH1 0x0 KECCAK256 DUP2 SWAP1 SSTORE POP JUMPDEST PUSH1 0x4 SLOAD TIMESTAMP LT PUSH2 0xB65 JUMPI PUSH2 0xB5A PUSH1 0x6 SLOAD DUP4 PUSH2 0x16B7 SWAP1 SWAP2 SWAP1 PUSH4 0xFFFFFFFF AND JUMP JUMPDEST PUSH1 0x5 DUP2 SWAP1 SSTORE POP PUSH2 0xBC7 JUMP JUMPDEST PUSH1 0x0 PUSH2 0xB7C TIMESTAMP PUSH1 0x4 SLOAD PUSH2 0x17C6 SWAP1 SWAP2 SWAP1 PUSH4 0xFFFFFFFF AND JUMP JUMPDEST SWAP1 POP PUSH1 0x0 PUSH2 0xB95 PUSH1 0x5 SLOAD DUP4 PUSH2 0x1701 SWAP1 SWAP2 SWAP1 PUSH4 0xFFFFFFFF AND JUMP JUMPDEST SWAP1 POP PUSH2 0xBBE PUSH1 0x6 SLOAD PUSH2 0xBB0 DUP4 DUP8 PUSH2 0x1810 SWAP1 SWAP2 SWAP1 PUSH4 0xFFFFFFFF AND JUMP JUMPDEST PUSH2 0x16B7 SWAP1 SWAP2 SWAP1 PUSH4 0xFFFFFFFF AND JUMP JUMPDEST PUSH1 0x5 DUP2 SWAP1 SSTORE POP POP POP JUMPDEST PUSH1 0x0 PUSH1 0x2 PUSH1 0x0 SWAP1 SLOAD SWAP1 PUSH2 0x100 EXP SWAP1 DIV PUSH20 0xFFFFFFFFFFFFFFFFFFFFFFFFFFFFFFFFFFFFFFFF AND PUSH20 0xFFFFFFFFFFFFFFFFFFFFFFFFFFFFFFFFFFFFFFFF AND PUSH4 0x70A08231 ADDRESS PUSH1 0x40 MLOAD DUP3 PUSH4 0xFFFFFFFF AND PUSH1 0xE0 SHL DUP2 MSTORE PUSH1 0x4 ADD PUSH2 0xC24 SWAP2 SWAP1 PUSH2 0x24DA JUMP JUMPDEST PUSH1 0x20 PUSH1 0x40 MLOAD DUP1 DUP4 SUB DUP2 DUP7 DUP1 EXTCODESIZE ISZERO DUP1 ISZERO PUSH2 0xC3C JUMPI PUSH1 0x0 DUP1 REVERT JUMPDEST POP GAS STATICCALL ISZERO DUP1 ISZERO PUSH2 0xC50 JUMPI RETURNDATASIZE PUSH1 0x0 DUP1 RETURNDATACOPY RETURNDATASIZE PUSH1 0x0 REVERT JUMPDEST POP POP POP POP PUSH1 0x40 MLOAD RETURNDATASIZE PUSH1 0x1F NOT PUSH1 0x1F DUP3 ADD AND DUP3 ADD DUP1 PUSH1 0x40 MSTORE POP DUP2 ADD SWAP1 PUSH2 0xC74 SWAP2 SWAP1 PUSH2 0x20F5 JUMP JUMPDEST SWAP1 POP PUSH2 0xC8B PUSH1 0x6 SLOAD DUP3 PUSH2 0x16B7 SWAP1 SWAP2 SWAP1 PUSH4 0xFFFFFFFF AND JUMP JUMPDEST PUSH1 0x5 SLOAD GT ISZERO PUSH2 0xCCF JUMPI PUSH1 0x40 MLOAD PUSH32 0x8C379A000000000000000000000000000000000000000000000000000000000 DUP2 MSTORE PUSH1 0x4 ADD PUSH2 0xCC6 SWAP1 PUSH2 0x2728 JUMP JUMPDEST PUSH1 0x40 MLOAD DUP1 SWAP2 SUB SWAP1 REVERT JUMPDEST TIMESTAMP PUSH1 0x7 DUP2 SWAP1 SSTORE POP PUSH2 0xCEB PUSH1 0x6 SLOAD TIMESTAMP PUSH2 0x1810 SWAP1 SWAP2 SWAP1 PUSH4 0xFFFFFFFF AND JUMP JUMPDEST PUSH1 0x4 DUP2 SWAP1 SSTORE POP PUSH32 0xDE88A922E0D3B88B24E9623EFEB464919C6BF9F66857A65E2BFCF2CE87A9433D DUP4 PUSH1 0x40 MLOAD PUSH2 0xD20 SWAP2 SWAP1 PUSH2 0x27A8 JUMP JUMPDEST PUSH1 0x40 MLOAD DUP1 SWAP2 SUB SWAP1 LOG1 POP POP POP JUMP JUMPDEST PUSH2 0xD35 PUSH2 0x186E JUMP JUMPDEST CALLER PUSH2 0xD3E PUSH2 0x1527 JUMP JUMPDEST PUSH1 0x8 DUP2 SWAP1 SSTORE POP PUSH2 0xD4C PUSH2 0x100C JUMP JUMPDEST PUSH1 0x7 DUP2 SWAP1 SSTORE POP PUSH1 0x0 PUSH20 0xFFFFFFFFFFFFFFFFFFFFFFFFFFFFFFFFFFFFFFFF AND DUP2 PUSH20 0xFFFFFFFFFFFFFFFFFFFFFFFFFFFFFFFFFFFFFFFF AND EQ PUSH2 0xE19 JUMPI PUSH2 0xD8F DUP2 PUSH2 0x598 JUMP JUMPDEST PUSH1 0xC PUSH1 0x0 DUP4 PUSH20 0xFFFFFFFFFFFFFFFFFFFFFFFFFFFFFFFFFFFFFFFF AND PUSH20 0xFFFFFFFFFFFFFFFFFFFFFFFFFFFFFFFFFFFFFFFF AND DUP2 MSTORE PUSH1 0x20 ADD SWAP1 DUP2 MSTORE PUSH1 0x20 ADD PUSH1 0x0 KECCAK256 DUP2 SWAP1 SSTORE POP PUSH1 0x8 SLOAD PUSH1 0xB PUSH1 0x0 DUP4 PUSH20 0xFFFFFFFFFFFFFFFFFFFFFFFFFFFFFFFFFFFFFFFF AND PUSH20 0xFFFFFFFFFFFFFFFFFFFFFFFFFFFFFFFFFFFFFFFF AND DUP2 MSTORE PUSH1 0x20 ADD SWAP1 DUP2 MSTORE PUSH1 0x20 ADD PUSH1 0x0 KECCAK256 DUP2 SWAP1 SSTORE POP JUMPDEST PUSH1 0x0 PUSH1 0xC PUSH1 0x0 CALLER PUSH20 0xFFFFFFFFFFFFFFFFFFFFFFFFFFFFFFFFFFFFFFFF AND PUSH20 0xFFFFFFFFFFFFFFFFFFFFFFFFFFFFFFFFFFFFFFFF AND DUP2 MSTORE PUSH1 0x20 ADD SWAP1 DUP2 MSTORE PUSH1 0x20 ADD PUSH1 0x0 KECCAK256 SLOAD SWAP1 POP PUSH1 0x0 DUP2 GT ISZERO PUSH2 0xF47 JUMPI PUSH1 0x0 PUSH1 0xC PUSH1 0x0 CALLER PUSH20 0xFFFFFFFFFFFFFFFFFFFFFFFFFFFFFFFFFFFFFFFF AND PUSH20 0xFFFFFFFFFFFFFFFFFFFFFFFFFFFFFFFFFFFFFFFF AND DUP2 MSTORE PUSH1 0x20 ADD SWAP1 DUP2 MSTORE PUSH1 0x20 ADD PUSH1 0x0 KECCAK256 DUP2 SWAP1 SSTORE POP PUSH2 0xEF8 CALLER DUP3 PUSH1 0x2 PUSH1 0x0 SWAP1 SLOAD SWAP1 PUSH2 0x100 EXP SWAP1 DIV PUSH20 0xFFFFFFFFFFFFFFFFFFFFFFFFFFFFFFFFFFFFFFFF AND PUSH20 0xFFFFFFFFFFFFFFFFFFFFFFFFFFFFFFFFFFFFFFFF AND PUSH2 0x18BE SWAP1 SWAP3 SWAP2 SWAP1 PUSH4 0xFFFFFFFF AND JUMP JUMPDEST CALLER PUSH20 0xFFFFFFFFFFFFFFFFFFFFFFFFFFFFFFFFFFFFFFFF AND PUSH32 0xE2403640BA68FED3A2F88B7557551D1993F84B99BB10FF833F0CF8DB0C5E0486 DUP3 PUSH1 0x40 MLOAD PUSH2 0xF3E SWAP2 SWAP1 PUSH2 0x27A8 JUMP JUMPDEST PUSH1 0x40 MLOAD DUP1 SWAP2 SUB SWAP1 LOG2 JUMPDEST POP POP PUSH2 0xF51 PUSH2 0x1944 JUMP JUMPDEST JUMP JUMPDEST PUSH1 0x0 PUSH1 0x1 PUSH1 0x0 SWAP1 SLOAD SWAP1 PUSH2 0x100 EXP SWAP1 DIV PUSH1 0xFF AND SWAP1 POP SWAP1 JUMP JUMPDEST PUSH1 0x0 PUSH1 0xE PUSH1 0x0 DUP4 PUSH20 0xFFFFFFFFFFFFFFFFFFFFFFFFFFFFFFFFFFFFFFFF AND PUSH20 0xFFFFFFFFFFFFFFFFFFFFFFFFFFFFFFFFFFFFFFFF AND DUP2 MSTORE PUSH1 0x20 ADD SWAP1 DUP2 MSTORE PUSH1 0x20 ADD PUSH1 0x0 KECCAK256 SLOAD SWAP1 POP SWAP2 SWAP1 POP JUMP JUMPDEST PUSH2 0xFBB PUSH2 0x194E JUMP JUMPDEST PUSH2 0xFC5 PUSH1 0x0 PUSH2 0x19CC JUMP JUMPDEST JUMP JUMPDEST PUSH1 0x3 PUSH1 0x0 SWAP1 SLOAD SWAP1 PUSH2 0x100 EXP SWAP1 DIV PUSH20 0xFFFFFFFFFFFFFFFFFFFFFFFFFFFFFFFFFFFFFFFF AND DUP2 JUMP JUMPDEST PUSH1 0x0 DUP2 DUP4 LT PUSH2 0xFFC JUMPI DUP2 PUSH2 0xFFE JUMP JUMPDEST DUP3 JUMPDEST SWAP1 POP SWAP3 SWAP2 POP POP JUMP JUMPDEST PUSH1 0x5 SLOAD DUP2 JUMP JUMPDEST PUSH1 0x0 PUSH2 0x101A TIMESTAMP PUSH1 0x4 SLOAD PUSH2 0xFED JUMP JUMPDEST SWAP1 POP SWAP1 JUMP JUMPDEST PUSH2 0x1027 PUSH2 0x194E JUMP JUMPDEST PUSH1 0x2 PUSH1 0x0 SWAP1 SLOAD SWAP1 PUSH2 0x100 EXP SWAP1 DIV PUSH20 0xFFFFFFFFFFFFFFFFFFFFFFFFFFFFFFFFFFFFFFFF AND PUSH20 0xFFFFFFFFFFFFFFFFFFFFFFFFFFFFFFFFFFFFFFFF AND DUP3 PUSH20 0xFFFFFFFFFFFFFFFFFFFFFFFFFFFFFFFFFFFFFFFF AND EQ ISZERO PUSH2 0x10B8 JUMPI PUSH1 0x40 MLOAD PUSH32 0x8C379A000000000000000000000000000000000000000000000000000000000 DUP2 MSTORE PUSH1 0x4 ADD PUSH2 0x10AF SWAP1 PUSH2 0x2648 JUMP JUMPDEST PUSH1 0x40 MLOAD DUP1 SWAP2 SUB SWAP1 REVERT JUMPDEST PUSH1 0x0 PUSH1 0xD SLOAD EQ PUSH2 0x1154 JUMPI PUSH1 0x3 PUSH1 0x0 SWAP1 SLOAD SWAP1 PUSH2 0x100 EXP SWAP1 DIV PUSH20 0xFFFFFFFFFFFFFFFFFFFFFFFFFFFFFFFFFFFFFFFF AND PUSH20 0xFFFFFFFFFFFFFFFFFFFFFFFFFFFFFFFFFFFFFFFF AND DUP3 PUSH20 0xFFFFFFFFFFFFFFFFFFFFFFFFFFFFFFFFFFFFFFFF AND EQ ISZERO PUSH2 0x1153 JUMPI PUSH1 0x40 MLOAD PUSH32 0x8C379A000000000000000000000000000000000000000000000000000000000 DUP2 MSTORE PUSH1 0x4 ADD PUSH2 0x114A SWAP1 PUSH2 0x2708 JUMP JUMPDEST PUSH1 0x40 MLOAD DUP1 SWAP2 SUB SWAP1 REVERT JUMPDEST JUMPDEST PUSH2 0x117F CALLER DUP3 DUP5 PUSH20 0xFFFFFFFFFFFFFFFFFFFFFFFFFFFFFFFFFFFFFFFF AND PUSH2 0x18BE SWAP1 SWAP3 SWAP2 SWAP1 PUSH4 0xFFFFFFFF AND JUMP JUMPDEST PUSH32 0x8C1256B8896378CD5044F80C202F9772B9D77DC85C8A6EB51967210B09BFAA28 DUP3 DUP3 PUSH1 0x40 MLOAD PUSH2 0x11B0 SWAP3 SWAP2 SWAP1 PUSH2 0x252C JUMP JUMPDEST PUSH1 0x40 MLOAD DUP1 SWAP2 SUB SWAP1 LOG1 POP POP JUMP JUMPDEST PUSH1 0xB PUSH1 0x20 MSTORE DUP1 PUSH1 0x0 MSTORE PUSH1 0x40 PUSH1 0x0 KECCAK256 PUSH1 0x0 SWAP2 POP SWAP1 POP SLOAD DUP2 JUMP JUMPDEST PUSH1 0x0 PUSH1 0x1 DUP1 SLOAD SWAP1 PUSH2 0x100 EXP SWAP1 DIV PUSH20 0xFFFFFFFFFFFFFFFFFFFFFFFFFFFFFFFFFFFFFFFF AND SWAP1 POP SWAP1 JUMP JUMPDEST PUSH2 0x1204 PUSH2 0x186E JUMP JUMPDEST PUSH2 0x120C PUSH2 0x1A8F JUMP JUMPDEST CALLER PUSH2 0x1215 PUSH2 0x1527 JUMP JUMPDEST PUSH1 0x8 DUP2 SWAP1 SSTORE POP PUSH2 0x1223 PUSH2 0x100C JUMP JUMPDEST PUSH1 0x7 DUP2 SWAP1 SSTORE POP PUSH1 0x0 PUSH20 0xFFFFFFFFFFFFFFFFFFFFFFFFFFFFFFFFFFFFFFFF AND DUP2 PUSH20 0xFFFFFFFFFFFFFFFFFFFFFFFFFFFFFFFFFFFFFFFF AND EQ PUSH2 0x12F0 JUMPI PUSH2 0x1266 DUP2 PUSH2 0x598 JUMP JUMPDEST PUSH1 0xC PUSH1 0x0 DUP4 PUSH20 0xFFFFFFFFFFFFFFFFFFFFFFFFFFFFFFFFFFFFFFFF AND PUSH20 0xFFFFFFFFFFFFFFFFFFFFFFFFFFFFFFFFFFFFFFFF AND DUP2 MSTORE PUSH1 0x20 ADD SWAP1 DUP2 MSTORE PUSH1 0x20 ADD PUSH1 0x0 KECCAK256 DUP2 SWAP1 SSTORE POP PUSH1 0x8 SLOAD PUSH1 0xB PUSH1 0x0 DUP4 PUSH20 0xFFFFFFFFFFFFFFFFFFFFFFFFFFFFFFFFFFFFFFFF AND PUSH20 0xFFFFFFFFFFFFFFFFFFFFFFFFFFFFFFFFFFFFFFFF AND DUP2 MSTORE PUSH1 0x20 ADD SWAP1 DUP2 MSTORE PUSH1 0x20 ADD PUSH1 0x0 KECCAK256 DUP2 SWAP1 SSTORE POP JUMPDEST PUSH1 0x0 DUP3 GT PUSH2 0x1333 JUMPI PUSH1 0x40 MLOAD PUSH32 0x8C379A000000000000000000000000000000000000000000000000000000000 DUP2 MSTORE PUSH1 0x4 ADD PUSH2 0x132A SWAP1 PUSH2 0x2608 JUMP JUMPDEST PUSH1 0x40 MLOAD DUP1 SWAP2 SUB SWAP1 REVERT JUMPDEST PUSH2 0x1348 DUP3 PUSH1 0xD SLOAD PUSH2 0x1810 SWAP1 SWAP2 SWAP1 PUSH4 0xFFFFFFFF AND JUMP JUMPDEST PUSH1 0xD DUP2 SWAP1 SSTORE POP PUSH2 0x13A0 DUP3 PUSH1 0xE PUSH1 0x0 CALLER PUSH20 0xFFFFFFFFFFFFFFFFFFFFFFFFFFFFFFFFFFFFFFFF AND PUSH20 0xFFFFFFFFFFFFFFFFFFFFFFFFFFFFFFFFFFFFFFFF AND DUP2 MSTORE PUSH1 0x20 ADD SWAP1 DUP2 MSTORE PUSH1 0x20 ADD PUSH1 0x0 KECCAK256 SLOAD PUSH2 0x1810 SWAP1 SWAP2 SWAP1 PUSH4 0xFFFFFFFF AND JUMP JUMPDEST PUSH1 0xE PUSH1 0x0 CALLER PUSH20 0xFFFFFFFFFFFFFFFFFFFFFFFFFFFFFFFFFFFFFFFF AND PUSH20 0xFFFFFFFFFFFFFFFFFFFFFFFFFFFFFFFFFFFFFFFF AND DUP2 MSTORE PUSH1 0x20 ADD SWAP1 DUP2 MSTORE PUSH1 0x20 ADD PUSH1 0x0 KECCAK256 DUP2 SWAP1 SSTORE POP PUSH2 0x1432 CALLER ADDRESS DUP5 PUSH1 0x3 PUSH1 0x0 SWAP1 SLOAD SWAP1 PUSH2 0x100 EXP SWAP1 DIV PUSH20 0xFFFFFFFFFFFFFFFFFFFFFFFFFFFFFFFFFFFFFFFF AND PUSH20 0xFFFFFFFFFFFFFFFFFFFFFFFFFFFFFFFFFFFFFFFF AND PUSH2 0x1AD9 SWAP1 SWAP4 SWAP3 SWAP2 SWAP1 PUSH4 0xFFFFFFFF AND JUMP JUMPDEST CALLER PUSH20 0xFFFFFFFFFFFFFFFFFFFFFFFFFFFFFFFFFFFFFFFF AND PUSH32 0x9E71BC8EEA02A63969F509818F2DAFB9254532904319F9DBDA79B67BD34A5F3D DUP4 PUSH1 0x40 MLOAD PUSH2 0x1478 SWAP2 SWAP1 PUSH2 0x27A8 JUMP JUMPDEST PUSH1 0x40 MLOAD DUP1 SWAP2 SUB SWAP1 LOG2 POP PUSH2 0x1489 PUSH2 0x1944 JUMP JUMPDEST POP JUMP JUMPDEST PUSH1 0x9 SLOAD DUP2 JUMP JUMPDEST PUSH1 0x7 SLOAD DUP2 JUMP JUMPDEST PUSH2 0x14A0 PUSH2 0x194E JUMP JUMPDEST PUSH1 0x4 SLOAD TIMESTAMP GT PUSH2 0x14E4 JUMPI PUSH1 0x40 MLOAD PUSH32 0x8C379A000000000000000000000000000000000000000000000000000000000 DUP2 MSTORE PUSH1 0x4 ADD PUSH2 0x14DB SWAP1 PUSH2 0x25C8 JUMP JUMPDEST PUSH1 0x40 MLOAD DUP1 SWAP2 SUB SWAP1 REVERT JUMPDEST DUP1 PUSH1 0x6 DUP2 SWAP1 SSTORE POP PUSH32 0xFB46CA5A5E06D4540D6387B930A7C978BCE0DB5F449EC6B3F5D07C6E1D44F2D3 PUSH1 0x6 SLOAD PUSH1 0x40 MLOAD PUSH2 0x151C SWAP2 SWAP1 PUSH2 0x27A8 JUMP JUMPDEST PUSH1 0x40 MLOAD DUP1 SWAP2 SUB SWAP1 LOG1 POP JUMP JUMPDEST PUSH1 0x0 DUP1 PUSH1 0xD SLOAD EQ ISZERO PUSH2 0x153D JUMPI PUSH1 0x8 SLOAD SWAP1 POP PUSH2 0x15AC JUMP JUMPDEST PUSH2 0x15A9 PUSH2 0x1598 PUSH1 0xD SLOAD PUSH2 0x158A PUSH1 0x9 SLOAD PUSH2 0x157C PUSH1 0x5 SLOAD PUSH2 0x156E PUSH1 0x7 SLOAD PUSH2 0x1560 PUSH2 0x100C JUMP JUMPDEST PUSH2 0x17C6 SWAP1 SWAP2 SWAP1 PUSH4 0xFFFFFFFF AND JUMP JUMPDEST PUSH2 0x1701 SWAP1 SWAP2 SWAP1 PUSH4 0xFFFFFFFF AND JUMP JUMPDEST PUSH2 0x1701 SWAP1 SWAP2 SWAP1 PUSH4 0xFFFFFFFF AND JUMP JUMPDEST PUSH2 0x16B7 SWAP1 SWAP2 SWAP1 PUSH4 0xFFFFFFFF AND JUMP JUMPDEST PUSH1 0x8 SLOAD PUSH2 0x1810 SWAP1 SWAP2 SWAP1 PUSH4 0xFFFFFFFF AND JUMP JUMPDEST SWAP1 POP JUMPDEST SWAP1 JUMP JUMPDEST PUSH1 0x2 PUSH1 0x0 SWAP1 SLOAD SWAP1 PUSH2 0x100 EXP SWAP1 DIV PUSH20 0xFFFFFFFFFFFFFFFFFFFFFFFFFFFFFFFFFFFFFFFF AND DUP2 JUMP JUMPDEST PUSH1 0x8 SLOAD DUP2 JUMP JUMPDEST PUSH2 0x1623 PUSH1 0xE PUSH1 0x0 CALLER PUSH20 0xFFFFFFFFFFFFFFFFFFFFFFFFFFFFFFFFFFFFFFFF AND PUSH20 0xFFFFFFFFFFFFFFFFFFFFFFFFFFFFFFFFFFFFFFFF AND DUP2 MSTORE PUSH1 0x20 ADD SWAP1 DUP2 MSTORE PUSH1 0x20 ADD PUSH1 0x0 KECCAK256 SLOAD PUSH2 0x72C JUMP JUMPDEST PUSH2 0x162B PUSH2 0xD2D JUMP JUMPDEST JUMP JUMPDEST PUSH1 0x4 SLOAD DUP2 JUMP JUMPDEST PUSH2 0x163B PUSH2 0x194E JUMP JUMPDEST PUSH1 0x0 PUSH20 0xFFFFFFFFFFFFFFFFFFFFFFFFFFFFFFFFFFFFFFFF AND DUP2 PUSH20 0xFFFFFFFFFFFFFFFFFFFFFFFFFFFFFFFFFFFFFFFF AND EQ ISZERO PUSH2 0x16AB JUMPI PUSH1 0x40 MLOAD PUSH32 0x8C379A000000000000000000000000000000000000000000000000000000000 DUP2 MSTORE PUSH1 0x4 ADD PUSH2 0x16A2 SWAP1 PUSH2 0x25E8 JUMP JUMPDEST PUSH1 0x40 MLOAD DUP1 SWAP2 SUB SWAP1 REVERT JUMPDEST PUSH2 0x16B4 DUP2 PUSH2 0x19CC JUMP JUMPDEST POP JUMP JUMPDEST PUSH1 0x0 PUSH2 0x16F9 DUP4 DUP4 PUSH1 0x40 MLOAD DUP1 PUSH1 0x40 ADD PUSH1 0x40 MSTORE DUP1 PUSH1 0x1A DUP2 MSTORE PUSH1 0x20 ADD PUSH32 0x536166654D6174683A206469766973696F6E206279207A65726F000000000000 DUP2 MSTORE POP PUSH2 0x1B62 JUMP JUMPDEST SWAP1 POP SWAP3 SWAP2 POP POP JUMP JUMPDEST PUSH1 0x0 DUP1 DUP4 EQ ISZERO PUSH2 0x1714 JUMPI PUSH1 0x0 SWAP1 POP PUSH2 0x1776 JUMP JUMPDEST PUSH1 0x0 DUP3 DUP5 PUSH2 0x1722 SWAP2 SWAP1 PUSH2 0x287C JUMP JUMPDEST SWAP1 POP DUP3 DUP5 DUP3 PUSH2 0x1731 SWAP2 SWAP1 PUSH2 0x284B JUMP JUMPDEST EQ PUSH2 0x1771 JUMPI PUSH1 0x40 MLOAD PUSH32 0x8C379A000000000000000000000000000000000000000000000000000000000 DUP2 MSTORE PUSH1 0x4 ADD PUSH2 0x1768 SWAP1 PUSH2 0x26C8 JUMP JUMPDEST PUSH1 0x40 MLOAD DUP1 SWAP2 SUB SWAP1 REVERT JUMPDEST DUP1 SWAP2 POP POP JUMPDEST SWAP3 SWAP2 POP POP JUMP JUMPDEST PUSH1 0x0 PUSH2 0x17BE DUP4 DUP4 PUSH1 0x40 MLOAD DUP1 PUSH1 0x40 ADD PUSH1 0x40 MSTORE DUP1 PUSH1 0x18 DUP2 MSTORE PUSH1 0x20 ADD PUSH32 0x536166654D6174683A206D6F64756C6F206279207A65726F0000000000000000 DUP2 MSTORE POP PUSH2 0x1BC5 JUMP JUMPDEST SWAP1 POP SWAP3 SWAP2 POP POP JUMP JUMPDEST PUSH1 0x0 PUSH2 0x1808 DUP4 DUP4 PUSH1 0x40 MLOAD DUP1 PUSH1 0x40 ADD PUSH1 0x40 MSTORE DUP1 PUSH1 0x1E DUP2 MSTORE PUSH1 0x20 ADD PUSH32 0x536166654D6174683A207375627472616374696F6E206F766572666C6F770000 DUP2 MSTORE POP PUSH2 0x1C23 JUMP JUMPDEST SWAP1 POP SWAP3 SWAP2 POP POP JUMP JUMPDEST PUSH1 0x0 DUP1 DUP3 DUP5 PUSH2 0x181F SWAP2 SWAP1 PUSH2 0x27F5 JUMP JUMPDEST SWAP1 POP DUP4 DUP2 LT ISZERO PUSH2 0x1864 JUMPI PUSH1 0x40 MLOAD PUSH32 0x8C379A000000000000000000000000000000000000000000000000000000000 DUP2 MSTORE PUSH1 0x4 ADD PUSH2 0x185B SWAP1 PUSH2 0x2628 JUMP JUMPDEST PUSH1 0x40 MLOAD DUP1 SWAP2 SUB SWAP1 REVERT JUMPDEST DUP1 SWAP2 POP POP SWAP3 SWAP2 POP POP JUMP JUMPDEST PUSH1 0x2 PUSH1 0x0 SLOAD EQ ISZERO PUSH2 0x18B4 JUMPI PUSH1 0x40 MLOAD PUSH32 0x8C379A000000000000000000000000000000000000000000000000000000000 DUP2 MSTORE PUSH1 0x4 ADD PUSH2 0x18AB SWAP1 PUSH2 0x2788 JUMP JUMPDEST PUSH1 0x40 MLOAD DUP1 SWAP2 SUB SWAP1 REVERT JUMPDEST PUSH1 0x2 PUSH1 0x0 DUP2 SWAP1 SSTORE POP JUMP JUMPDEST PUSH2 0x193F DUP4 PUSH4 0xA9059CBB PUSH1 0xE0 SHL DUP5 DUP5 PUSH1 0x40 MLOAD PUSH1 0x24 ADD PUSH2 0x18DD SWAP3 SWAP2 SWAP1 PUSH2 0x252C JUMP JUMPDEST PUSH1 0x40 MLOAD PUSH1 0x20 DUP2 DUP4 SUB SUB DUP2 MSTORE SWAP1 PUSH1 0x40 MSTORE SWAP1 PUSH28 0xFFFFFFFFFFFFFFFFFFFFFFFFFFFFFFFFFFFFFFFFFFFFFFFFFFFFFFFF NOT AND PUSH1 0x20 DUP3 ADD DUP1 MLOAD PUSH28 0xFFFFFFFFFFFFFFFFFFFFFFFFFFFFFFFFFFFFFFFFFFFFFFFFFFFFFFFF DUP4 DUP2 DUP4 AND OR DUP4 MSTORE POP POP POP POP PUSH2 0x1C87 JUMP JUMPDEST POP POP POP JUMP JUMPDEST PUSH1 0x1 PUSH1 0x0 DUP2 SWAP1 SSTORE POP JUMP JUMPDEST PUSH2 0x1956 PUSH2 0x1D4E JUMP JUMPDEST PUSH20 0xFFFFFFFFFFFFFFFFFFFFFFFFFFFFFFFFFFFFFFFF AND PUSH2 0x1974 PUSH2 0x11D4 JUMP JUMPDEST PUSH20 0xFFFFFFFFFFFFFFFFFFFFFFFFFFFFFFFFFFFFFFFF AND EQ PUSH2 0x19CA JUMPI PUSH1 0x40 MLOAD PUSH32 0x8C379A000000000000000000000000000000000000000000000000000000000 DUP2 MSTORE PUSH1 0x4 ADD PUSH2 0x19C1 SWAP1 PUSH2 0x26E8 JUMP JUMPDEST PUSH1 0x40 MLOAD DUP1 SWAP2 SUB SWAP1 REVERT JUMPDEST JUMP JUMPDEST PUSH1 0x0 PUSH1 0x1 DUP1 SLOAD SWAP1 PUSH2 0x100 EXP SWAP1 DIV PUSH20 0xFFFFFFFFFFFFFFFFFFFFFFFFFFFFFFFFFFFFFFFF AND SWAP1 POP DUP2 PUSH1 0x1 DUP1 PUSH2 0x100 EXP DUP2 SLOAD DUP2 PUSH20 0xFFFFFFFFFFFFFFFFFFFFFFFFFFFFFFFFFFFFFFFF MUL NOT AND SWAP1 DUP4 PUSH20 0xFFFFFFFFFFFFFFFFFFFFFFFFFFFFFFFFFFFFFFFF AND MUL OR SWAP1 SSTORE POP DUP2 PUSH20 0xFFFFFFFFFFFFFFFFFFFFFFFFFFFFFFFFFFFFFFFF AND DUP2 PUSH20 0xFFFFFFFFFFFFFFFFFFFFFFFFFFFFFFFFFFFFFFFF AND PUSH32 0x8BE0079C531659141344CD1FD0A4F28419497F9722A3DAAFE3B4186F6B6457E0 PUSH1 0x40 MLOAD PUSH1 0x40 MLOAD DUP1 SWAP2 SUB SWAP1 LOG3 POP POP JUMP JUMPDEST PUSH2 0x1A97 PUSH2 0xF53 JUMP JUMPDEST ISZERO PUSH2 0x1AD7 JUMPI PUSH1 0x40 MLOAD PUSH32 0x8C379A000000000000000000000000000000000000000000000000000000000 DUP2 MSTORE PUSH1 0x4 ADD PUSH2 0x1ACE SWAP1 PUSH2 0x2688 JUMP JUMPDEST PUSH1 0x40 MLOAD DUP1 SWAP2 SUB SWAP1 REVERT JUMPDEST JUMP JUMPDEST PUSH2 0x1B5C DUP5 PUSH4 0x23B872DD PUSH1 0xE0 SHL DUP6 DUP6 DUP6 PUSH1 0x40 MLOAD PUSH1 0x24 ADD PUSH2 0x1AFA SWAP4 SWAP3 SWAP2 SWAP1 PUSH2 0x24F5 JUMP JUMPDEST PUSH1 0x40 MLOAD PUSH1 0x20 DUP2 DUP4 SUB SUB DUP2 MSTORE SWAP1 PUSH1 0x40 MSTORE SWAP1 PUSH28 0xFFFFFFFFFFFFFFFFFFFFFFFFFFFFFFFFFFFFFFFFFFFFFFFFFFFFFFFF NOT AND PUSH1 0x20 DUP3 ADD DUP1 MLOAD PUSH28 0xFFFFFFFFFFFFFFFFFFFFFFFFFFFFFFFFFFFFFFFFFFFFFFFFFFFFFFFF DUP4 DUP2 DUP4 AND OR DUP4 MSTORE POP POP POP POP PUSH2 0x1C87 JUMP JUMPDEST POP POP POP POP JUMP JUMPDEST PUSH1 0x0 DUP1 DUP4 GT DUP3 SWAP1 PUSH2 0x1BA9 JUMPI PUSH1 0x40 MLOAD PUSH32 0x8C379A000000000000000000000000000000000000000000000000000000000 DUP2 MSTORE PUSH1 0x4 ADD PUSH2 0x1BA0 SWAP2 SWAP1 PUSH2 0x25A6 JUMP JUMPDEST PUSH1 0x40 MLOAD DUP1 SWAP2 SUB SWAP1 REVERT JUMPDEST POP PUSH1 0x0 DUP4 DUP6 PUSH2 0x1BB8 SWAP2 SWAP1 PUSH2 0x284B JUMP JUMPDEST SWAP1 POP DUP1 SWAP2 POP POP SWAP4 SWAP3 POP POP POP JUMP JUMPDEST PUSH1 0x0 DUP1 DUP4 EQ ISZERO DUP3 SWAP1 PUSH2 0x1C0D JUMPI PUSH1 0x40 MLOAD PUSH32 0x8C379A000000000000000000000000000000000000000000000000000000000 DUP2 MSTORE PUSH1 0x4 ADD PUSH2 0x1C04 SWAP2 SWAP1 PUSH2 0x25A6 JUMP JUMPDEST PUSH1 0x40 MLOAD DUP1 SWAP2 SUB SWAP1 REVERT JUMPDEST POP DUP3 DUP5 PUSH2 0x1C1A SWAP2 SWAP1 PUSH2 0x2A24 JUMP JUMPDEST SWAP1 POP SWAP4 SWAP3 POP POP POP JUMP JUMPDEST PUSH1 0x0 DUP4 DUP4 GT ISZERO DUP3 SWAP1 PUSH2 0x1C6B JUMPI PUSH1 0x40 MLOAD PUSH32 0x8C379A000000000000000000000000000000000000000000000000000000000 DUP2 MSTORE PUSH1 0x4 ADD PUSH2 0x1C62 SWAP2 SWAP1 PUSH2 0x25A6 JUMP JUMPDEST PUSH1 0x40 MLOAD DUP1 SWAP2 SUB SWAP1 REVERT JUMPDEST POP PUSH1 0x0 DUP4 DUP6 PUSH2 0x1C7A SWAP2 SWAP1 PUSH2 0x28D6 JUMP JUMPDEST SWAP1 POP DUP1 SWAP2 POP POP SWAP4 SWAP3 POP POP POP JUMP JUMPDEST PUSH1 0x0 PUSH2 0x1CE9 DUP3 PUSH1 0x40 MLOAD DUP1 PUSH1 0x40 ADD PUSH1 0x40 MSTORE DUP1 PUSH1 0x20 DUP2 MSTORE PUSH1 0x20 ADD PUSH32 0x5361666545524332303A206C6F772D6C6576656C2063616C6C206661696C6564 DUP2 MSTORE POP DUP6 PUSH20 0xFFFFFFFFFFFFFFFFFFFFFFFFFFFFFFFFFFFFFFFF AND PUSH2 0x1D56 SWAP1 SWAP3 SWAP2 SWAP1 PUSH4 0xFFFFFFFF AND JUMP JUMPDEST SWAP1 POP PUSH1 0x0 DUP2 MLOAD GT ISZERO PUSH2 0x1D49 JUMPI DUP1 DUP1 PUSH1 0x20 ADD SWAP1 MLOAD DUP2 ADD SWAP1 PUSH2 0x1D09 SWAP2 SWAP1 PUSH2 0x209B JUMP JUMPDEST PUSH2 0x1D48 JUMPI PUSH1 0x40 MLOAD PUSH32 0x8C379A000000000000000000000000000000000000000000000000000000000 DUP2 MSTORE PUSH1 0x4 ADD PUSH2 0x1D3F SWAP1 PUSH2 0x2768 JUMP JUMPDEST PUSH1 0x40 MLOAD DUP1 SWAP2 SUB SWAP1 REVERT JUMPDEST JUMPDEST POP POP POP JUMP JUMPDEST PUSH1 0x0 CALLER SWAP1 POP SWAP1 JUMP JUMPDEST PUSH1 0x60 PUSH2 0x1D65 DUP5 DUP5 PUSH1 0x0 DUP6 PUSH2 0x1D6E JUMP JUMPDEST SWAP1 POP SWAP4 SWAP3 POP POP POP JUMP JUMPDEST PUSH1 0x60 DUP3 SELFBALANCE LT ISZERO PUSH2 0x1DB3 JUMPI PUSH1 0x40 MLOAD PUSH32 0x8C379A000000000000000000000000000000000000000000000000000000000 DUP2 MSTORE PUSH1 0x4 ADD PUSH2 0x1DAA SWAP1 PUSH2 0x2668 JUMP JUMPDEST PUSH1 0x40 MLOAD DUP1 SWAP2 SUB SWAP1 REVERT JUMPDEST PUSH2 0x1DBC DUP6 PUSH2 0x1E82 JUMP JUMPDEST PUSH2 0x1DFB JUMPI PUSH1 0x40 MLOAD PUSH32 0x8C379A000000000000000000000000000000000000000000000000000000000 DUP2 MSTORE PUSH1 0x4 ADD PUSH2 0x1DF2 SWAP1 PUSH2 0x2748 JUMP JUMPDEST PUSH1 0x40 MLOAD DUP1 SWAP2 SUB SWAP1 REVERT JUMPDEST PUSH1 0x0 DUP1 DUP7 PUSH20 0xFFFFFFFFFFFFFFFFFFFFFFFFFFFFFFFFFFFFFFFF AND DUP6 DUP8 PUSH1 0x40 MLOAD PUSH2 0x1E24 SWAP2 SWAP1 PUSH2 0x24C3 JUMP JUMPDEST PUSH1 0x0 PUSH1 0x40 MLOAD DUP1 DUP4 SUB DUP2 DUP6 DUP8 GAS CALL SWAP3 POP POP POP RETURNDATASIZE DUP1 PUSH1 0x0 DUP2 EQ PUSH2 0x1E61 JUMPI PUSH1 0x40 MLOAD SWAP2 POP PUSH1 0x1F NOT PUSH1 0x3F RETURNDATASIZE ADD AND DUP3 ADD PUSH1 0x40 MSTORE RETURNDATASIZE DUP3 MSTORE RETURNDATASIZE PUSH1 0x0 PUSH1 0x20 DUP5 ADD RETURNDATACOPY PUSH2 0x1E66 JUMP JUMPDEST PUSH1 0x60 SWAP2 POP JUMPDEST POP SWAP2 POP SWAP2 POP PUSH2 0x1E76 DUP3 DUP3 DUP7 PUSH2 0x1E95 JUMP JUMPDEST SWAP3 POP POP POP SWAP5 SWAP4 POP POP POP POP JUMP JUMPDEST PUSH1 0x0 DUP1 DUP3 EXTCODESIZE SWAP1 POP PUSH1 0x0 DUP2 GT SWAP2 POP POP SWAP2 SWAP1 POP JUMP JUMPDEST PUSH1 0x60 DUP4 ISZERO PUSH2 0x1EA5 JUMPI DUP3 SWAP1 POP PUSH2 0x1EF5 JUMP JUMPDEST PUSH1 0x0 DUP4 MLOAD GT ISZERO PUSH2 0x1EB8 JUMPI DUP3 MLOAD DUP1 DUP5 PUSH1 0x20 ADD REVERT JUMPDEST DUP2 PUSH1 0x40 MLOAD PUSH32 0x8C379A000000000000000000000000000000000000000000000000000000000 DUP2 MSTORE PUSH1 0x4 ADD PUSH2 0x1EEC SWAP2 SWAP1 PUSH2 0x25A6 JUMP JUMPDEST PUSH1 0x40 MLOAD DUP1 SWAP2 SUB SWAP1 REVERT JUMPDEST SWAP4 SWAP3 POP POP POP JUMP JUMPDEST PUSH1 0x0 DUP2 CALLDATALOAD SWAP1 POP PUSH2 0x1F0B DUP2 PUSH2 0x2E81 JUMP JUMPDEST SWAP3 SWAP2 POP POP JUMP JUMPDEST PUSH1 0x0 DUP2 MLOAD SWAP1 POP PUSH2 0x1F20 DUP2 PUSH2 0x2E98 JUMP JUMPDEST SWAP3 SWAP2 POP POP JUMP JUMPDEST PUSH1 0x0 DUP1 DUP4 PUSH1 0x1F DUP5 ADD SLT PUSH2 0x1F3C JUMPI PUSH2 0x1F3B PUSH2 0x2AB8 JUMP JUMPDEST JUMPDEST DUP3 CALLDATALOAD SWAP1 POP PUSH8 0xFFFFFFFFFFFFFFFF DUP2 GT ISZERO PUSH2 0x1F59 JUMPI PUSH2 0x1F58 PUSH2 0x2AB3 JUMP JUMPDEST JUMPDEST PUSH1 0x20 DUP4 ADD SWAP2 POP DUP4 PUSH1 0x1 DUP3 MUL DUP4 ADD GT ISZERO PUSH2 0x1F75 JUMPI PUSH2 0x1F74 PUSH2 0x2ABD JUMP JUMPDEST JUMPDEST SWAP3 POP SWAP3 SWAP1 POP JUMP JUMPDEST PUSH1 0x0 DUP2 CALLDATALOAD SWAP1 POP PUSH2 0x1F8B DUP2 PUSH2 0x2EAF JUMP JUMPDEST SWAP3 SWAP2 POP POP JUMP JUMPDEST PUSH1 0x0 DUP2 MLOAD SWAP1 POP PUSH2 0x1FA0 DUP2 PUSH2 0x2EAF JUMP JUMPDEST SWAP3 SWAP2 POP POP JUMP JUMPDEST PUSH1 0x0 PUSH1 0x20 DUP3 DUP5 SUB SLT ISZERO PUSH2 0x1FBC JUMPI PUSH2 0x1FBB PUSH2 0x2AC7 JUMP JUMPDEST JUMPDEST PUSH1 0x0 PUSH2 0x1FCA DUP5 DUP3 DUP6 ADD PUSH2 0x1EFC JUMP JUMPDEST SWAP2 POP POP SWAP3 SWAP2 POP POP JUMP JUMPDEST PUSH1 0x0 DUP1 PUSH1 0x0 DUP1 PUSH1 0x0 PUSH1 0x80 DUP7 DUP9 SUB SLT ISZERO PUSH2 0x1FEF JUMPI PUSH2 0x1FEE PUSH2 0x2AC7 JUMP JUMPDEST JUMPDEST PUSH1 0x0 PUSH2 0x1FFD DUP9 DUP3 DUP10 ADD PUSH2 0x1EFC JUMP JUMPDEST SWAP6 POP POP PUSH1 0x20 PUSH2 0x200E DUP9 DUP3 DUP10 ADD PUSH2 0x1EFC JUMP JUMPDEST SWAP5 POP POP PUSH1 0x40 PUSH2 0x201F DUP9 DUP3 DUP10 ADD PUSH2 0x1F7C JUMP JUMPDEST SWAP4 POP POP PUSH1 0x60 DUP7 ADD CALLDATALOAD PUSH8 0xFFFFFFFFFFFFFFFF DUP2 GT ISZERO PUSH2 0x2040 JUMPI PUSH2 0x203F PUSH2 0x2AC2 JUMP JUMPDEST JUMPDEST PUSH2 0x204C DUP9 DUP3 DUP10 ADD PUSH2 0x1F26 JUMP JUMPDEST SWAP3 POP SWAP3 POP POP SWAP3 SWAP6 POP SWAP3 SWAP6 SWAP1 SWAP4 POP JUMP JUMPDEST PUSH1 0x0 DUP1 PUSH1 0x40 DUP4 DUP6 SUB SLT ISZERO PUSH2 0x2072 JUMPI PUSH2 0x2071 PUSH2 0x2AC7 JUMP JUMPDEST JUMPDEST PUSH1 0x0 PUSH2 0x2080 DUP6 DUP3 DUP7 ADD PUSH2 0x1EFC JUMP JUMPDEST SWAP3 POP POP PUSH1 0x20 PUSH2 0x2091 DUP6 DUP3 DUP7 ADD PUSH2 0x1F7C JUMP JUMPDEST SWAP2 POP POP SWAP3 POP SWAP3 SWAP1 POP JUMP JUMPDEST PUSH1 0x0 PUSH1 0x20 DUP3 DUP5 SUB SLT ISZERO PUSH2 0x20B1 JUMPI PUSH2 0x20B0 PUSH2 0x2AC7 JUMP JUMPDEST JUMPDEST PUSH1 0x0 PUSH2 0x20BF DUP5 DUP3 DUP6 ADD PUSH2 0x1F11 JUMP JUMPDEST SWAP2 POP POP SWAP3 SWAP2 POP POP JUMP JUMPDEST PUSH1 0x0 PUSH1 0x20 DUP3 DUP5 SUB SLT ISZERO PUSH2 0x20DE JUMPI PUSH2 0x20DD PUSH2 0x2AC7 JUMP JUMPDEST JUMPDEST PUSH1 0x0 PUSH2 0x20EC DUP5 DUP3 DUP6 ADD PUSH2 0x1F7C JUMP JUMPDEST SWAP2 POP POP SWAP3 SWAP2 POP POP JUMP JUMPDEST PUSH1 0x0 PUSH1 0x20 DUP3 DUP5 SUB SLT ISZERO PUSH2 0x210B JUMPI PUSH2 0x210A PUSH2 0x2AC7 JUMP JUMPDEST JUMPDEST PUSH1 0x0 PUSH2 0x2119 DUP5 DUP3 DUP6 ADD PUSH2 0x1F91 JUMP JUMPDEST SWAP2 POP POP SWAP3 SWAP2 POP POP JUMP JUMPDEST PUSH1 0x0 DUP1 PUSH1 0x40 DUP4 DUP6 SUB SLT ISZERO PUSH2 0x2139 JUMPI PUSH2 0x2138 PUSH2 0x2AC7 JUMP JUMPDEST JUMPDEST PUSH1 0x0 PUSH2 0x2147 DUP6 DUP3 DUP7 ADD PUSH2 0x1F7C JUMP JUMPDEST SWAP3 POP POP PUSH1 0x20 PUSH2 0x2158 DUP6 DUP3 DUP7 ADD PUSH2 0x1F7C JUMP JUMPDEST SWAP2 POP POP SWAP3 POP SWAP3 SWAP1 POP JUMP JUMPDEST PUSH2 0x216B DUP2 PUSH2 0x290A JUMP JUMPDEST DUP3 MSTORE POP POP JUMP JUMPDEST PUSH2 0x2182 PUSH2 0x217D DUP3 PUSH2 0x290A JUMP JUMPDEST PUSH2 0x29F6 JUMP JUMPDEST DUP3 MSTORE POP POP JUMP JUMPDEST PUSH2 0x2191 DUP2 PUSH2 0x291C JUMP JUMPDEST DUP3 MSTORE POP POP JUMP JUMPDEST PUSH2 0x21A0 DUP2 PUSH2 0x2928 JUMP JUMPDEST DUP3 MSTORE POP POP JUMP JUMPDEST PUSH1 0x0 PUSH2 0x21B2 DUP4 DUP6 PUSH2 0x27D9 JUMP JUMPDEST SWAP4 POP PUSH2 0x21BF DUP4 DUP6 DUP5 PUSH2 0x29B4 JUMP JUMPDEST DUP3 DUP5 ADD SWAP1 POP SWAP4 SWAP3 POP POP POP JUMP JUMPDEST PUSH1 0x0 PUSH2 0x21D6 DUP3 PUSH2 0x27C3 JUMP JUMPDEST PUSH2 0x21E0 DUP2 DUP6 PUSH2 0x27D9 JUMP JUMPDEST SWAP4 POP PUSH2 0x21F0 DUP2 DUP6 PUSH1 0x20 DUP7 ADD PUSH2 0x29C3 JUMP JUMPDEST DUP1 DUP5 ADD SWAP2 POP POP SWAP3 SWAP2 POP POP JUMP JUMPDEST PUSH2 0x2205 DUP2 PUSH2 0x297E JUMP JUMPDEST DUP3 MSTORE POP POP JUMP JUMPDEST PUSH1 0x0 PUSH2 0x2216 DUP3 PUSH2 0x27CE JUMP JUMPDEST PUSH2 0x2220 DUP2 DUP6 PUSH2 0x27E4 JUMP JUMPDEST SWAP4 POP PUSH2 0x2230 DUP2 DUP6 PUSH1 0x20 DUP7 ADD PUSH2 0x29C3 JUMP JUMPDEST PUSH2 0x2239 DUP2 PUSH2 0x2ACC JUMP JUMPDEST DUP5 ADD SWAP2 POP POP SWAP3 SWAP2 POP POP JUMP JUMPDEST PUSH1 0x0 PUSH2 0x2251 PUSH1 0x58 DUP4 PUSH2 0x27E4 JUMP JUMPDEST SWAP2 POP PUSH2 0x225C DUP3 PUSH2 0x2AEA JUMP JUMPDEST PUSH1 0x60 DUP3 ADD SWAP1 POP SWAP2 SWAP1 POP JUMP JUMPDEST PUSH1 0x0 PUSH2 0x2274 PUSH1 0x26 DUP4 PUSH2 0x27E4 JUMP JUMPDEST SWAP2 POP PUSH2 0x227F DUP3 PUSH2 0x2B5F JUMP JUMPDEST PUSH1 0x40 DUP3 ADD SWAP1 POP SWAP2 SWAP1 POP JUMP JUMPDEST PUSH1 0x0 PUSH2 0x2297 PUSH1 0xE DUP4 PUSH2 0x27E4 JUMP JUMPDEST SWAP2 POP PUSH2 0x22A2 DUP3 PUSH2 0x2BAE JUMP JUMPDEST PUSH1 0x20 DUP3 ADD SWAP1 POP SWAP2 SWAP1 POP JUMP JUMPDEST PUSH1 0x0 PUSH2 0x22BA PUSH1 0x1B DUP4 PUSH2 0x27E4 JUMP JUMPDEST SWAP2 POP PUSH2 0x22C5 DUP3 PUSH2 0x2BD7 JUMP JUMPDEST PUSH1 0x20 DUP3 ADD SWAP1 POP SWAP2 SWAP1 POP JUMP JUMPDEST PUSH1 0x0 PUSH2 0x22DD PUSH1 0x22 DUP4 PUSH2 0x27E4 JUMP JUMPDEST SWAP2 POP PUSH2 0x22E8 DUP3 PUSH2 0x2C00 JUMP JUMPDEST PUSH1 0x40 DUP3 ADD SWAP1 POP SWAP2 SWAP1 POP JUMP JUMPDEST PUSH1 0x0 PUSH2 0x2300 PUSH1 0x26 DUP4 PUSH2 0x27E4 JUMP JUMPDEST SWAP2 POP PUSH2 0x230B DUP3 PUSH2 0x2C4F JUMP JUMPDEST PUSH1 0x40 DUP3 ADD SWAP1 POP SWAP2 SWAP1 POP JUMP JUMPDEST PUSH1 0x0 PUSH2 0x2323 PUSH1 0x10 DUP4 PUSH2 0x27E4 JUMP JUMPDEST SWAP2 POP PUSH2 0x232E DUP3 PUSH2 0x2C9E JUMP JUMPDEST PUSH1 0x20 DUP3 ADD SWAP1 POP SWAP2 SWAP1 POP JUMP JUMPDEST PUSH1 0x0 PUSH2 0x2346 PUSH1 0x11 DUP4 PUSH2 0x27E4 JUMP JUMPDEST SWAP2 POP PUSH2 0x2351 DUP3 PUSH2 0x2CC7 JUMP JUMPDEST PUSH1 0x20 DUP3 ADD SWAP1 POP SWAP2 SWAP1 POP JUMP JUMPDEST PUSH1 0x0 PUSH2 0x2369 PUSH1 0x21 DUP4 PUSH2 0x27E4 JUMP JUMPDEST SWAP2 POP PUSH2 0x2374 DUP3 PUSH2 0x2CF0 JUMP JUMPDEST PUSH1 0x40 DUP3 ADD SWAP1 POP SWAP2 SWAP1 POP JUMP JUMPDEST PUSH1 0x0 PUSH2 0x238C PUSH1 0x20 DUP4 PUSH2 0x27E4 JUMP JUMPDEST SWAP2 POP PUSH2 0x2397 DUP3 PUSH2 0x2D3F JUMP JUMPDEST PUSH1 0x20 DUP3 ADD SWAP1 POP SWAP2 SWAP1 POP JUMP JUMPDEST PUSH1 0x0 PUSH2 0x23AF PUSH1 0x22 DUP4 PUSH2 0x27E4 JUMP JUMPDEST SWAP2 POP PUSH2 0x23BA DUP3 PUSH2 0x2D68 JUMP JUMPDEST PUSH1 0x40 DUP3 ADD SWAP1 POP SWAP2 SWAP1 POP JUMP JUMPDEST PUSH1 0x0 PUSH2 0x23D2 PUSH1 0x18 DUP4 PUSH2 0x27E4 JUMP JUMPDEST SWAP2 POP PUSH2 0x23DD DUP3 PUSH2 0x2DB7 JUMP JUMPDEST PUSH1 0x20 DUP3 ADD SWAP1 POP SWAP2 SWAP1 POP JUMP JUMPDEST PUSH1 0x0 PUSH2 0x23F5 PUSH1 0x1D DUP4 PUSH2 0x27E4 JUMP JUMPDEST SWAP2 POP PUSH2 0x2400 DUP3 PUSH2 0x2DE0 JUMP JUMPDEST PUSH1 0x20 DUP3 ADD SWAP1 POP SWAP2 SWAP1 POP JUMP JUMPDEST PUSH1 0x0 PUSH2 0x2418 PUSH1 0x2A DUP4 PUSH2 0x27E4 JUMP JUMPDEST SWAP2 POP PUSH2 0x2423 DUP3 PUSH2 0x2E09 JUMP JUMPDEST PUSH1 0x40 DUP3 ADD SWAP1 POP SWAP2 SWAP1 POP JUMP JUMPDEST PUSH1 0x0 PUSH2 0x243B PUSH1 0x1F DUP4 PUSH2 0x27E4 JUMP JUMPDEST SWAP2 POP PUSH2 0x2446 DUP3 PUSH2 0x2E58 JUMP JUMPDEST PUSH1 0x20 DUP3 ADD SWAP1 POP SWAP2 SWAP1 POP JUMP JUMPDEST PUSH2 0x245A DUP2 PUSH2 0x2974 JUMP JUMPDEST DUP3 MSTORE POP POP JUMP JUMPDEST PUSH2 0x2471 PUSH2 0x246C DUP3 PUSH2 0x2974 JUMP JUMPDEST PUSH2 0x2A1A JUMP JUMPDEST DUP3 MSTORE POP POP JUMP JUMPDEST PUSH1 0x0 PUSH2 0x2483 DUP3 DUP9 PUSH2 0x2171 JUMP JUMPDEST PUSH1 0x14 DUP3 ADD SWAP2 POP PUSH2 0x2493 DUP3 DUP8 PUSH2 0x2171 JUMP JUMPDEST PUSH1 0x14 DUP3 ADD SWAP2 POP PUSH2 0x24A3 DUP3 DUP7 PUSH2 0x2460 JUMP JUMPDEST PUSH1 0x20 DUP3 ADD SWAP2 POP PUSH2 0x24B4 DUP3 DUP5 DUP7 PUSH2 0x21A6 JUMP JUMPDEST SWAP2 POP DUP2 SWAP1 POP SWAP7 SWAP6 POP POP POP POP POP POP JUMP JUMPDEST PUSH1 0x0 PUSH2 0x24CF DUP3 DUP5 PUSH2 0x21CB JUMP JUMPDEST SWAP2 POP DUP2 SWAP1 POP SWAP3 SWAP2 POP POP JUMP JUMPDEST PUSH1 0x0 PUSH1 0x20 DUP3 ADD SWAP1 POP PUSH2 0x24EF PUSH1 0x0 DUP4 ADD DUP5 PUSH2 0x2162 JUMP JUMPDEST SWAP3 SWAP2 POP POP JUMP JUMPDEST PUSH1 0x0 PUSH1 0x60 DUP3 ADD SWAP1 POP PUSH2 0x250A PUSH1 0x0 DUP4 ADD DUP7 PUSH2 0x2162 JUMP JUMPDEST PUSH2 0x2517 PUSH1 0x20 DUP4 ADD DUP6 PUSH2 0x2162 JUMP JUMPDEST PUSH2 0x2524 PUSH1 0x40 DUP4 ADD DUP5 PUSH2 0x2451 JUMP JUMPDEST SWAP5 SWAP4 POP POP POP POP JUMP JUMPDEST PUSH1 0x0 PUSH1 0x40 DUP3 ADD SWAP1 POP PUSH2 0x2541 PUSH1 0x0 DUP4 ADD DUP6 PUSH2 0x2162 JUMP JUMPDEST PUSH2 0x254E PUSH1 0x20 DUP4 ADD DUP5 PUSH2 0x2451 JUMP JUMPDEST SWAP4 SWAP3 POP POP POP JUMP JUMPDEST PUSH1 0x0 PUSH1 0x20 DUP3 ADD SWAP1 POP PUSH2 0x256A PUSH1 0x0 DUP4 ADD DUP5 PUSH2 0x2188 JUMP JUMPDEST SWAP3 SWAP2 POP POP JUMP JUMPDEST PUSH1 0x0 PUSH1 0x20 DUP3 ADD SWAP1 POP PUSH2 0x2585 PUSH1 0x0 DUP4 ADD DUP5 PUSH2 0x2197 JUMP JUMPDEST SWAP3 SWAP2 POP POP JUMP JUMPDEST PUSH1 0x0 PUSH1 0x20 DUP3 ADD SWAP1 POP PUSH2 0x25A0 PUSH1 0x0 DUP4 ADD DUP5 PUSH2 0x21FC JUMP JUMPDEST SWAP3 SWAP2 POP POP JUMP JUMPDEST PUSH1 0x0 PUSH1 0x20 DUP3 ADD SWAP1 POP DUP2 DUP2 SUB PUSH1 0x0 DUP4 ADD MSTORE PUSH2 0x25C0 DUP2 DUP5 PUSH2 0x220B JUMP JUMPDEST SWAP1 POP SWAP3 SWAP2 POP POP JUMP JUMPDEST PUSH1 0x0 PUSH1 0x20 DUP3 ADD SWAP1 POP DUP2 DUP2 SUB PUSH1 0x0 DUP4 ADD MSTORE PUSH2 0x25E1 DUP2 PUSH2 0x2244 JUMP JUMPDEST SWAP1 POP SWAP2 SWAP1 POP JUMP JUMPDEST PUSH1 0x0 PUSH1 0x20 DUP3 ADD SWAP1 POP DUP2 DUP2 SUB PUSH1 0x0 DUP4 ADD MSTORE PUSH2 0x2601 DUP2 PUSH2 0x2267 JUMP JUMPDEST SWAP1 POP SWAP2 SWAP1 POP JUMP JUMPDEST PUSH1 0x0 PUSH1 0x20 DUP3 ADD SWAP1 POP DUP2 DUP2 SUB PUSH1 0x0 DUP4 ADD MSTORE PUSH2 0x2621 DUP2 PUSH2 0x228A JUMP JUMPDEST SWAP1 POP SWAP2 SWAP1 POP JUMP JUMPDEST PUSH1 0x0 PUSH1 0x20 DUP3 ADD SWAP1 POP DUP2 DUP2 SUB PUSH1 0x0 DUP4 ADD MSTORE PUSH2 0x2641 DUP2 PUSH2 0x22AD JUMP JUMPDEST SWAP1 POP SWAP2 SWAP1 POP JUMP JUMPDEST PUSH1 0x0 PUSH1 0x20 DUP3 ADD SWAP1 POP DUP2 DUP2 SUB PUSH1 0x0 DUP4 ADD MSTORE PUSH2 0x2661 DUP2 PUSH2 0x22D0 JUMP JUMPDEST SWAP1 POP SWAP2 SWAP1 POP JUMP JUMPDEST PUSH1 0x0 PUSH1 0x20 DUP3 ADD SWAP1 POP DUP2 DUP2 SUB PUSH1 0x0 DUP4 ADD MSTORE PUSH2 0x2681 DUP2 PUSH2 0x22F3 JUMP JUMPDEST SWAP1 POP SWAP2 SWAP1 POP JUMP JUMPDEST PUSH1 0x0 PUSH1 0x20 DUP3 ADD SWAP1 POP DUP2 DUP2 SUB PUSH1 0x0 DUP4 ADD MSTORE PUSH2 0x26A1 DUP2 PUSH2 0x2316 JUMP JUMPDEST SWAP1 POP SWAP2 SWAP1 POP JUMP JUMPDEST PUSH1 0x0 PUSH1 0x20 DUP3 ADD SWAP1 POP DUP2 DUP2 SUB PUSH1 0x0 DUP4 ADD MSTORE PUSH2 0x26C1 DUP2 PUSH2 0x2339 JUMP JUMPDEST SWAP1 POP SWAP2 SWAP1 POP JUMP JUMPDEST PUSH1 0x0 PUSH1 0x20 DUP3 ADD SWAP1 POP DUP2 DUP2 SUB PUSH1 0x0 DUP4 ADD MSTORE PUSH2 0x26E1 DUP2 PUSH2 0x235C JUMP JUMPDEST SWAP1 POP SWAP2 SWAP1 POP JUMP JUMPDEST PUSH1 0x0 PUSH1 0x20 DUP3 ADD SWAP1 POP DUP2 DUP2 SUB PUSH1 0x0 DUP4 ADD MSTORE PUSH2 0x2701 DUP2 PUSH2 0x237F JUMP JUMPDEST SWAP1 POP SWAP2 SWAP1 POP JUMP JUMPDEST PUSH1 0x0 PUSH1 0x20 DUP3 ADD SWAP1 POP DUP2 DUP2 SUB PUSH1 0x0 DUP4 ADD MSTORE PUSH2 0x2721 DUP2 PUSH2 0x23A2 JUMP JUMPDEST SWAP1 POP SWAP2 SWAP1 POP JUMP JUMPDEST PUSH1 0x0 PUSH1 0x20 DUP3 ADD SWAP1 POP DUP2 DUP2 SUB PUSH1 0x0 DUP4 ADD MSTORE PUSH2 0x2741 DUP2 PUSH2 0x23C5 JUMP JUMPDEST SWAP1 POP SWAP2 SWAP1 POP JUMP JUMPDEST PUSH1 0x0 PUSH1 0x20 DUP3 ADD SWAP1 POP DUP2 DUP2 SUB PUSH1 0x0 DUP4 ADD MSTORE PUSH2 0x2761 DUP2 PUSH2 0x23E8 JUMP JUMPDEST SWAP1 POP SWAP2 SWAP1 POP JUMP JUMPDEST PUSH1 0x0 PUSH1 0x20 DUP3 ADD SWAP1 POP DUP2 DUP2 SUB PUSH1 0x0 DUP4 ADD MSTORE PUSH2 0x2781 DUP2 PUSH2 0x240B JUMP JUMPDEST SWAP1 POP SWAP2 SWAP1 POP JUMP JUMPDEST PUSH1 0x0 PUSH1 0x20 DUP3 ADD SWAP1 POP DUP2 DUP2 SUB PUSH1 0x0 DUP4 ADD MSTORE PUSH2 0x27A1 DUP2 PUSH2 0x242E JUMP JUMPDEST SWAP1 POP SWAP2 SWAP1 POP JUMP JUMPDEST PUSH1 0x0 PUSH1 0x20 DUP3 ADD SWAP1 POP PUSH2 0x27BD PUSH1 0x0 DUP4 ADD DUP5 PUSH2 0x2451 JUMP JUMPDEST SWAP3 SWAP2 POP POP JUMP JUMPDEST PUSH1 0x0 DUP2 MLOAD SWAP1 POP SWAP2 SWAP1 POP JUMP JUMPDEST PUSH1 0x0 DUP2 MLOAD SWAP1 POP SWAP2 SWAP1 POP JUMP JUMPDEST PUSH1 0x0 DUP2 SWAP1 POP SWAP3 SWAP2 POP POP JUMP JUMPDEST PUSH1 0x0 DUP3 DUP3 MSTORE PUSH1 0x20 DUP3 ADD SWAP1 POP SWAP3 SWAP2 POP POP JUMP JUMPDEST PUSH1 0x0 PUSH2 0x2800 DUP3 PUSH2 0x2974 JUMP JUMPDEST SWAP2 POP PUSH2 0x280B DUP4 PUSH2 0x2974 JUMP JUMPDEST SWAP3 POP DUP3 PUSH32 0xFFFFFFFFFFFFFFFFFFFFFFFFFFFFFFFFFFFFFFFFFFFFFFFFFFFFFFFFFFFFFFFF SUB DUP3 GT ISZERO PUSH2 0x2840 JUMPI PUSH2 0x283F PUSH2 0x2A55 JUMP JUMPDEST JUMPDEST DUP3 DUP3 ADD SWAP1 POP SWAP3 SWAP2 POP POP JUMP JUMPDEST PUSH1 0x0 PUSH2 0x2856 DUP3 PUSH2 0x2974 JUMP JUMPDEST SWAP2 POP PUSH2 0x2861 DUP4 PUSH2 0x2974 JUMP JUMPDEST SWAP3 POP DUP3 PUSH2 0x2871 JUMPI PUSH2 0x2870 PUSH2 0x2A84 JUMP JUMPDEST JUMPDEST DUP3 DUP3 DIV SWAP1 POP SWAP3 SWAP2 POP POP JUMP JUMPDEST PUSH1 0x0 PUSH2 0x2887 DUP3 PUSH2 0x2974 JUMP JUMPDEST SWAP2 POP PUSH2 0x2892 DUP4 PUSH2 0x2974 JUMP JUMPDEST SWAP3 POP DUP2 PUSH32 0xFFFFFFFFFFFFFFFFFFFFFFFFFFFFFFFFFFFFFFFFFFFFFFFFFFFFFFFFFFFFFFFF DIV DUP4 GT DUP3 ISZERO ISZERO AND ISZERO PUSH2 0x28CB JUMPI PUSH2 0x28CA PUSH2 0x2A55 JUMP JUMPDEST JUMPDEST DUP3 DUP3 MUL SWAP1 POP SWAP3 SWAP2 POP POP JUMP JUMPDEST PUSH1 0x0 PUSH2 0x28E1 DUP3 PUSH2 0x2974 JUMP JUMPDEST SWAP2 POP PUSH2 0x28EC DUP4 PUSH2 0x2974 JUMP JUMPDEST SWAP3 POP DUP3 DUP3 LT ISZERO PUSH2 0x28FF JUMPI PUSH2 0x28FE PUSH2 0x2A55 JUMP JUMPDEST JUMPDEST DUP3 DUP3 SUB SWAP1 POP SWAP3 SWAP2 POP POP JUMP JUMPDEST PUSH1 0x0 PUSH2 0x2915 DUP3 PUSH2 0x2954 JUMP JUMPDEST SWAP1 POP SWAP2 SWAP1 POP JUMP JUMPDEST PUSH1 0x0 DUP2 ISZERO ISZERO SWAP1 POP SWAP2 SWAP1 POP JUMP JUMPDEST PUSH1 0x0 PUSH32 0xFFFFFFFF00000000000000000000000000000000000000000000000000000000 DUP3 AND SWAP1 POP SWAP2 SWAP1 POP JUMP JUMPDEST PUSH1 0x0 PUSH20 0xFFFFFFFFFFFFFFFFFFFFFFFFFFFFFFFFFFFFFFFF DUP3 AND SWAP1 POP SWAP2 SWAP1 POP JUMP JUMPDEST PUSH1 0x0 DUP2 SWAP1 POP SWAP2 SWAP1 POP JUMP JUMPDEST PUSH1 0x0 PUSH2 0x2989 DUP3 PUSH2 0x2990 JUMP JUMPDEST SWAP1 POP SWAP2 SWAP1 POP JUMP JUMPDEST PUSH1 0x0 PUSH2 0x299B DUP3 PUSH2 0x29A2 JUMP JUMPDEST SWAP1 POP SWAP2 SWAP1 POP JUMP JUMPDEST PUSH1 0x0 PUSH2 0x29AD DUP3 PUSH2 0x2954 JUMP JUMPDEST SWAP1 POP SWAP2 SWAP1 POP JUMP JUMPDEST DUP3 DUP2 DUP4 CALLDATACOPY PUSH1 0x0 DUP4 DUP4 ADD MSTORE POP POP POP JUMP JUMPDEST PUSH1 0x0 JUMPDEST DUP4 DUP2 LT ISZERO PUSH2 0x29E1 JUMPI DUP1 DUP3 ADD MLOAD DUP2 DUP5 ADD MSTORE PUSH1 0x20 DUP2 ADD SWAP1 POP PUSH2 0x29C6 JUMP JUMPDEST DUP4 DUP2 GT ISZERO PUSH2 0x29F0 JUMPI PUSH1 0x0 DUP5 DUP5 ADD MSTORE JUMPDEST POP POP POP POP JUMP JUMPDEST PUSH1 0x0 PUSH2 0x2A01 DUP3 PUSH2 0x2A08 JUMP JUMPDEST SWAP1 POP SWAP2 SWAP1 POP JUMP JUMPDEST PUSH1 0x0 PUSH2 0x2A13 DUP3 PUSH2 0x2ADD JUMP JUMPDEST SWAP1 POP SWAP2 SWAP1 POP JUMP JUMPDEST PUSH1 0x0 DUP2 SWAP1 POP SWAP2 SWAP1 POP JUMP JUMPDEST PUSH1 0x0 PUSH2 0x2A2F DUP3 PUSH2 0x2974 JUMP JUMPDEST SWAP2 POP PUSH2 0x2A3A DUP4 PUSH2 0x2974 JUMP JUMPDEST SWAP3 POP DUP3 PUSH2 0x2A4A JUMPI PUSH2 0x2A49 PUSH2 0x2A84 JUMP JUMPDEST JUMPDEST DUP3 DUP3 MOD SWAP1 POP SWAP3 SWAP2 POP POP JUMP JUMPDEST PUSH32 0x4E487B7100000000000000000000000000000000000000000000000000000000 PUSH1 0x0 MSTORE PUSH1 0x11 PUSH1 0x4 MSTORE PUSH1 0x24 PUSH1 0x0 REVERT JUMPDEST PUSH32 0x4E487B7100000000000000000000000000000000000000000000000000000000 PUSH1 0x0 MSTORE PUSH1 0x12 PUSH1 0x4 MSTORE PUSH1 0x24 PUSH1 0x0 REVERT JUMPDEST PUSH1 0x0 DUP1 REVERT JUMPDEST PUSH1 0x0 DUP1 REVERT JUMPDEST PUSH1 0x0 DUP1 REVERT JUMPDEST PUSH1 0x0 DUP1 REVERT JUMPDEST PUSH1 0x0 DUP1 REVERT JUMPDEST PUSH1 0x0 PUSH1 0x1F NOT PUSH1 0x1F DUP4 ADD AND SWAP1 POP SWAP2 SWAP1 POP JUMP JUMPDEST PUSH1 0x0 DUP2 PUSH1 0x60 SHL SWAP1 POP SWAP2 SWAP1 POP JUMP JUMPDEST PUSH32 0x50726576696F7573207265776172647320706572696F64206D75737420626520 PUSH1 0x0 DUP3 ADD MSTORE PUSH32 0x636F6D706C657465206265666F7265206368616E67696E672074686520647572 PUSH1 0x20 DUP3 ADD MSTORE PUSH32 0x6174696F6E20666F7220746865206E657720706572696F640000000000000000 PUSH1 0x40 DUP3 ADD MSTORE POP JUMP JUMPDEST PUSH32 0x4F776E61626C653A206E6577206F776E657220697320746865207A65726F2061 PUSH1 0x0 DUP3 ADD MSTORE PUSH32 0x6464726573730000000000000000000000000000000000000000000000000000 PUSH1 0x20 DUP3 ADD MSTORE POP JUMP JUMPDEST PUSH32 0x43616E6E6F74207374616B652030000000000000000000000000000000000000 PUSH1 0x0 DUP3 ADD MSTORE POP JUMP JUMPDEST PUSH32 0x536166654D6174683A206164646974696F6E206F766572666C6F770000000000 PUSH1 0x0 DUP3 ADD MSTORE POP JUMP JUMPDEST PUSH32 0x43616E6E6F7420776974686472617720746865207265776172647320746F6B65 PUSH1 0x0 DUP3 ADD MSTORE PUSH32 0x6E73000000000000000000000000000000000000000000000000000000000000 PUSH1 0x20 DUP3 ADD MSTORE POP JUMP JUMPDEST PUSH32 0x416464726573733A20696E73756666696369656E742062616C616E636520666F PUSH1 0x0 DUP3 ADD MSTORE PUSH32 0x722063616C6C0000000000000000000000000000000000000000000000000000 PUSH1 0x20 DUP3 ADD MSTORE POP JUMP JUMPDEST PUSH32 0x5061757361626C653A2070617573656400000000000000000000000000000000 PUSH1 0x0 DUP3 ADD MSTORE POP JUMP JUMPDEST PUSH32 0x43616E6E6F742077697468647261772030000000000000000000000000000000 PUSH1 0x0 DUP3 ADD MSTORE POP JUMP JUMPDEST PUSH32 0x536166654D6174683A206D756C7469706C69636174696F6E206F766572666C6F PUSH1 0x0 DUP3 ADD MSTORE PUSH32 0x7700000000000000000000000000000000000000000000000000000000000000 PUSH1 0x20 DUP3 ADD MSTORE POP JUMP JUMPDEST PUSH32 0x4F776E61626C653A2063616C6C6572206973206E6F7420746865206F776E6572 PUSH1 0x0 DUP3 ADD MSTORE POP JUMP JUMPDEST PUSH32 0x43616E6E6F7420776974686472617720746865207374616B696E6720746F6B65 PUSH1 0x0 DUP3 ADD MSTORE PUSH32 0x6E73000000000000000000000000000000000000000000000000000000000000 PUSH1 0x20 DUP3 ADD MSTORE POP JUMP JUMPDEST PUSH32 0x50726F76696465642072657761726420746F6F20686967680000000000000000 PUSH1 0x0 DUP3 ADD MSTORE POP JUMP JUMPDEST PUSH32 0x416464726573733A2063616C6C20746F206E6F6E2D636F6E7472616374000000 PUSH1 0x0 DUP3 ADD MSTORE POP JUMP JUMPDEST PUSH32 0x5361666545524332303A204552433230206F7065726174696F6E20646964206E PUSH1 0x0 DUP3 ADD MSTORE PUSH32 0x6F74207375636365656400000000000000000000000000000000000000000000 PUSH1 0x20 DUP3 ADD MSTORE POP JUMP JUMPDEST PUSH32 0x5265656E7472616E637947756172643A207265656E7472616E742063616C6C00 PUSH1 0x0 DUP3 ADD MSTORE POP JUMP JUMPDEST PUSH2 0x2E8A DUP2 PUSH2 0x290A JUMP JUMPDEST DUP2 EQ PUSH2 0x2E95 JUMPI PUSH1 0x0 DUP1 REVERT JUMPDEST POP JUMP JUMPDEST PUSH2 0x2EA1 DUP2 PUSH2 0x291C JUMP JUMPDEST DUP2 EQ PUSH2 0x2EAC JUMPI PUSH1 0x0 DUP1 REVERT JUMPDEST POP JUMP JUMPDEST PUSH2 0x2EB8 DUP2 PUSH2 0x2974 JUMP JUMPDEST DUP2 EQ PUSH2 0x2EC3 JUMPI PUSH1 0x0 DUP1 REVERT JUMPDEST POP JUMP INVALID LOG2 PUSH5 0x6970667358 0x22 SLT KECCAK256 DUP10 CALLDATACOPY CODESIZE ADDRESS SWAP2 0xA6 0xBC 0xF 0xB7 DUP13 DUP9 MSTORE8 SWAP10 CREATE2 0x25 0xDD 0xC4 LOG1 ADD PUSH16 0x462ACC6A02668156E8D993BA64736F6C PUSH4 0x43000807 STOP CALLER "
				},
				"gasEstimates": {
					"creation": {
						"codeDepositCost": "2405600",
						"executionCost": "infinite",
						"totalCost": "infinite"
					},
					"external": {
						"balanceOf(address)": "2886",
						"earned(address)": "infinite",
						"exit()": "infinite",
						"getReward()": "infinite",
						"getRewardForDuration()": "infinite",
						"lastTimeRewardApplicable()": "2586",
						"lastUpdateTime()": "2474",
						"min(uint256,uint256)": "infinite",
						"notifyRewardAmount(uint256)": "infinite",
						"onERC721Received(address,address,uint256,bytes)": "infinite",
						"owner()": "2636",
						"paused()": "2591",
						"periodFinish()": "2517",
						"pow(uint256,uint256)": "infinite",
						"recoverERC20(address,uint256)": "infinite",
						"renounceOwnership()": "30609",
						"rewardPerToken()": "infinite",
						"rewardPerTokenStored()": "2473",
						"rewardRate()": "2475",
						"rewards(address)": "2883",
						"rewardsDuration()": "2475",
						"rewardsToken()": "2711",
						"setRewardsDuration(uint256)": "infinite",
						"stake(uint256)": "infinite",
						"stakingToken()": "2689",
						"stakingTokensDecimalRate()": "2540",
						"totalSupply()": "2483",
						"transferOwnership(address)": "31001",
						"userRewardPerTokenPaid(address)": "2859",
						"withdraw(uint256)": "infinite"
					}
				},
				"methodIdentifiers": {
					"balanceOf(address)": "70a08231",
					"earned(address)": "008cc262",
					"exit()": "e9fad8ee",
					"getReward()": "3d18b912",
					"getRewardForDuration()": "1c1f78eb",
					"lastTimeRewardApplicable()": "80faa57d",
					"lastUpdateTime()": "c8f33c91",
					"min(uint256,uint256)": "7ae2b5c7",
					"notifyRewardAmount(uint256)": "3c6b16ab",
					"onERC721Received(address,address,uint256,bytes)": "150b7a02",
					"owner()": "8da5cb5b",
					"paused()": "5c975abb",
					"periodFinish()": "ebe2b12b",
					"pow(uint256,uint256)": "2e4c697f",
					"recoverERC20(address,uint256)": "8980f11f",
					"renounceOwnership()": "715018a6",
					"rewardPerToken()": "cd3daf9d",
					"rewardPerTokenStored()": "df136d65",
					"rewardRate()": "7b0a47ee",
					"rewards(address)": "0700037d",
					"rewardsDuration()": "386a9525",
					"rewardsToken()": "d1af0c7d",
					"setRewardsDuration(uint256)": "cc1a378f",
					"stake(uint256)": "a694fc3a",
					"stakingToken()": "72f702f3",
					"stakingTokensDecimalRate()": "a85fe3b7",
					"totalSupply()": "18160ddd",
					"transferOwnership(address)": "f2fde38b",
					"userRewardPerTokenPaid(address)": "8b876347",
					"withdraw(uint256)": "2e1a7d4d"
				}
			},
			"storageLayout": {
				"storage": [
					{
						"astId": 585,
						"contract": "Farm.sol:Farm",
						"label": "_status",
						"offset": 0,
						"slot": "0",
						"type": "t_uint256"
					},
					{
						"astId": 487,
						"contract": "Farm.sol:Farm",
						"label": "_paused",
						"offset": 0,
						"slot": "1",
						"type": "t_bool"
					},
					{
						"astId": 1038,
						"contract": "Farm.sol:Farm",
						"label": "_owner",
						"offset": 1,
						"slot": "1",
						"type": "t_address"
					},
					{
						"astId": 1161,
						"contract": "Farm.sol:Farm",
						"label": "rewardsToken",
						"offset": 0,
						"slot": "2",
						"type": "t_contract(IERC20)454"
					},
					{
						"astId": 1164,
						"contract": "Farm.sol:Farm",
						"label": "stakingToken",
						"offset": 0,
						"slot": "3",
						"type": "t_contract(IERC20)454"
					},
					{
						"astId": 1167,
						"contract": "Farm.sol:Farm",
						"label": "periodFinish",
						"offset": 0,
						"slot": "4",
						"type": "t_uint256"
					},
					{
						"astId": 1170,
						"contract": "Farm.sol:Farm",
						"label": "rewardRate",
						"offset": 0,
						"slot": "5",
						"type": "t_uint256"
					},
					{
						"astId": 1172,
						"contract": "Farm.sol:Farm",
						"label": "rewardsDuration",
						"offset": 0,
						"slot": "6",
						"type": "t_uint256"
					},
					{
						"astId": 1174,
						"contract": "Farm.sol:Farm",
						"label": "lastUpdateTime",
						"offset": 0,
						"slot": "7",
						"type": "t_uint256"
					},
					{
						"astId": 1176,
						"contract": "Farm.sol:Farm",
						"label": "rewardPerTokenStored",
						"offset": 0,
						"slot": "8",
						"type": "t_uint256"
					},
					{
						"astId": 1178,
						"contract": "Farm.sol:Farm",
						"label": "stakingTokensDecimalRate",
						"offset": 0,
						"slot": "9",
						"type": "t_uint256"
					},
					{
						"astId": 1180,
						"contract": "Farm.sol:Farm",
						"label": "initialised",
						"offset": 0,
						"slot": "10",
						"type": "t_bool"
					},
					{
						"astId": 1184,
						"contract": "Farm.sol:Farm",
						"label": "userRewardPerTokenPaid",
						"offset": 0,
						"slot": "11",
						"type": "t_mapping(t_address,t_uint256)"
					},
					{
						"astId": 1188,
						"contract": "Farm.sol:Farm",
						"label": "rewards",
						"offset": 0,
						"slot": "12",
						"type": "t_mapping(t_address,t_uint256)"
					},
					{
						"astId": 1190,
						"contract": "Farm.sol:Farm",
						"label": "_totalSupply",
						"offset": 0,
						"slot": "13",
						"type": "t_uint256"
					},
					{
						"astId": 1194,
						"contract": "Farm.sol:Farm",
						"label": "_balances",
						"offset": 0,
						"slot": "14",
						"type": "t_mapping(t_address,t_uint256)"
					}
				],
				"types": {
					"t_address": {
						"encoding": "inplace",
						"label": "address",
						"numberOfBytes": "20"
					},
					"t_bool": {
						"encoding": "inplace",
						"label": "bool",
						"numberOfBytes": "1"
					},
					"t_contract(IERC20)454": {
						"encoding": "inplace",
						"label": "contract IERC20",
						"numberOfBytes": "20"
					},
					"t_mapping(t_address,t_uint256)": {
						"encoding": "mapping",
						"key": "t_address",
						"label": "mapping(address => uint256)",
						"numberOfBytes": "32",
						"value": "t_uint256"
					},
					"t_uint256": {
						"encoding": "inplace",
						"label": "uint256",
						"numberOfBytes": "32"
					}
				}
			},
			"userdoc": {
				"kind": "user",
				"methods": {},
				"version": 1
			}
		}
	}
}