{
	"Farm.sol": {
		"Farm": {
			"abi": [
				{
					"inputs": [
						{
							"internalType": "contract IERC721",
							"name": "_stakingIERC721",
							"type": "address"
						},
						{
							"internalType": "contract IERC20",
							"name": "_rewardsToken",
							"type": "address"
						},
						{
							"internalType": "uint256",
							"name": "_rewardsPerHour",
							"type": "uint256"
						}
					],
					"stateMutability": "nonpayable",
					"type": "constructor"
				},
				{
					"anonymous": false,
					"inputs": [
						{
							"indexed": true,
							"internalType": "address",
							"name": "previousOwner",
							"type": "address"
						},
						{
							"indexed": true,
							"internalType": "address",
							"name": "newOwner",
							"type": "address"
						}
					],
					"name": "OwnershipTransferred",
					"type": "event"
				},
				{
					"anonymous": false,
					"inputs": [
						{
							"indexed": false,
							"internalType": "address",
							"name": "account",
							"type": "address"
						}
					],
					"name": "Paused",
					"type": "event"
				},
				{
					"anonymous": false,
					"inputs": [
						{
							"indexed": false,
							"internalType": "address",
							"name": "account",
							"type": "address"
						}
					],
					"name": "Unpaused",
					"type": "event"
				},
				{
					"inputs": [
						{
							"internalType": "address",
							"name": "operator",
							"type": "address"
						},
						{
							"internalType": "address",
							"name": "from",
							"type": "address"
						},
						{
							"internalType": "uint256",
							"name": "tokenId",
							"type": "uint256"
						},
						{
							"internalType": "bytes",
							"name": "data",
							"type": "bytes"
						}
					],
					"name": "onERC721Received",
					"outputs": [
						{
							"internalType": "bytes4",
							"name": "",
							"type": "bytes4"
						}
					],
					"stateMutability": "pure",
					"type": "function"
				},
				{
					"inputs": [],
					"name": "owner",
					"outputs": [
						{
							"internalType": "address",
							"name": "",
							"type": "address"
						}
					],
					"stateMutability": "view",
					"type": "function"
				},
				{
					"inputs": [],
					"name": "paused",
					"outputs": [
						{
							"internalType": "bool",
							"name": "",
							"type": "bool"
						}
					],
					"stateMutability": "view",
					"type": "function"
				},
				{
					"inputs": [],
					"name": "renounceOwnership",
					"outputs": [],
					"stateMutability": "nonpayable",
					"type": "function"
				},
				{
					"inputs": [],
					"name": "rewardsToken",
					"outputs": [
						{
							"internalType": "contract IERC20",
							"name": "",
							"type": "address"
						}
					],
					"stateMutability": "view",
					"type": "function"
				},
				{
					"inputs": [
						{
							"internalType": "uint256",
							"name": "",
							"type": "uint256"
						}
					],
					"name": "stakerAddress",
					"outputs": [
						{
							"internalType": "address",
							"name": "",
							"type": "address"
						}
					],
					"stateMutability": "view",
					"type": "function"
				},
				{
					"inputs": [
						{
							"internalType": "address",
							"name": "",
							"type": "address"
						}
					],
					"name": "stakers",
					"outputs": [
						{
							"internalType": "uint256",
							"name": "amountStaked",
							"type": "uint256"
						},
						{
							"internalType": "uint256",
							"name": "timeOfLastUpdate",
							"type": "uint256"
						},
						{
							"internalType": "uint256",
							"name": "unclaimedRewards",
							"type": "uint256"
						}
					],
					"stateMutability": "view",
					"type": "function"
				},
				{
					"inputs": [],
					"name": "stakingIERC721",
					"outputs": [
						{
							"internalType": "contract IERC721",
							"name": "",
							"type": "address"
						}
					],
					"stateMutability": "view",
					"type": "function"
				},
				{
					"inputs": [
						{
							"internalType": "address",
							"name": "newOwner",
							"type": "address"
						}
					],
					"name": "transferOwnership",
					"outputs": [],
					"stateMutability": "nonpayable",
					"type": "function"
				}
			],
			"devdoc": {
				"kind": "dev",
				"methods": {
					"onERC721Received(address,address,uint256,bytes)": {
						"details": "Whenever an {IERC721} `tokenId` token is transferred to this contract via {IERC721-safeTransferFrom} by `operator` from `from`, this function is called. It must return its Solidity selector to confirm the token transfer. If any other value is returned or the interface is not implemented by the recipient, the transfer will be reverted. The selector can be obtained in Solidity with `IERC721Receiver.onERC721Received.selector`."
					},
					"owner()": {
						"details": "Returns the address of the current owner."
					},
					"paused()": {
						"details": "Returns true if the contract is paused, and false otherwise."
					},
					"renounceOwnership()": {
						"details": "Leaves the contract without owner. It will not be possible to call `onlyOwner` functions anymore. Can only be called by the current owner. NOTE: Renouncing ownership will leave the contract without an owner, thereby removing any functionality that is only available to the owner."
					},
					"transferOwnership(address)": {
						"details": "Transfers ownership of the contract to a new account (`newOwner`). Can only be called by the current owner."
					}
				},
				"version": 1
			},
			"evm": {
				"assembly": "    /* \"Farm.sol\":29748:31022  contract Farm is ReentrancyGuard, Pausable, Ownable, IERC721Receiver {\r... */\n  mstore(0x40, 0x80)\n    /* \"Farm.sol\":30318:30324  100000 */\n  0x0186a0\n    /* \"Farm.sol\":30285:30324  uint256 private rewardsPerHour = 100000 */\n  0x04\n  sstore\n    /* \"Farm.sol\":30521:30738  constructor(IERC721 _stakingIERC721, IERC20 _rewardsToken, uint256 _rewardsPerHour) {\r... */\n  callvalue\n  dup1\n  iszero\n  tag_1\n  jumpi\n  0x00\n  dup1\n  revert\ntag_1:\n  pop\n  mload(0x40)\n  sub(codesize, bytecodeSize)\n  dup1\n  bytecodeSize\n  dup4\n  codecopy\n  dup2\n  dup2\n  add\n  0x40\n  mstore\n  dup2\n  add\n  swap1\n  tag_2\n  swap2\n  swap1\n  tag_3\n  jump\t// in\ntag_2:\n    /* \"Farm.sol\":18664:18665  1 */\n  0x01\n    /* \"Farm.sol\":18775:18782  _status */\n  0x00\n    /* \"Farm.sol\":18775:18797  _status = _NOT_ENTERED */\n  dup2\n  swap1\n  sstore\n  pop\n    /* \"Farm.sol\":16203:16208  false */\n  0x00\n    /* \"Farm.sol\":16193:16200  _paused */\n  0x01\n  0x00\n    /* \"Farm.sol\":16193:16208  _paused = false */\n  0x0100\n  exp\n  dup2\n  sload\n  dup2\n  0xff\n  mul\n  not\n  and\n  swap1\n  dup4\n  iszero\n  iszero\n  mul\n  or\n  swap1\n  sstore\n  pop\n    /* \"Farm.sol\":28002:28034  _transferOwnership(_msgSender()) */\n  tag_11\n    /* \"Farm.sol\":28021:28033  _msgSender() */\n  tag_12\n    /* \"Farm.sol\":28021:28031  _msgSender */\n  shl(0x20, tag_13)\n    /* \"Farm.sol\":28021:28033  _msgSender() */\n  0x20\n  shr\n  jump\t// in\ntag_12:\n    /* \"Farm.sol\":28002:28020  _transferOwnership */\n  shl(0x20, tag_14)\n    /* \"Farm.sol\":28002:28034  _transferOwnership(_msgSender()) */\n  0x20\n  shr\n  jump\t// in\ntag_11:\n    /* \"Farm.sol\":30633:30648  _stakingIERC721 */\n  dup3\n    /* \"Farm.sol\":30616:30630  stakingIERC721 */\n  0x03\n  0x00\n    /* \"Farm.sol\":30616:30648  stakingIERC721 = _stakingIERC721 */\n  0x0100\n  exp\n  dup2\n  sload\n  dup2\n  0xffffffffffffffffffffffffffffffffffffffff\n  mul\n  not\n  and\n  swap1\n  dup4\n  0xffffffffffffffffffffffffffffffffffffffff\n  and\n  mul\n  or\n  swap1\n  sstore\n  pop\n    /* \"Farm.sol\":30674:30687  _rewardsToken */\n  dup2\n    /* \"Farm.sol\":30659:30671  rewardsToken */\n  0x02\n  0x00\n    /* \"Farm.sol\":30659:30687  rewardsToken = _rewardsToken */\n  0x0100\n  exp\n  dup2\n  sload\n  dup2\n  0xffffffffffffffffffffffffffffffffffffffff\n  mul\n  not\n  and\n  swap1\n  dup4\n  0xffffffffffffffffffffffffffffffffffffffff\n  and\n  mul\n  or\n  swap1\n  sstore\n  pop\n    /* \"Farm.sol\":30715:30730  _rewardsPerHour */\n  dup1\n    /* \"Farm.sol\":30698:30712  rewardsPerHour */\n  0x04\n    /* \"Farm.sol\":30698:30730  rewardsPerHour = _rewardsPerHour */\n  dup2\n  swap1\n  sstore\n  pop\n    /* \"Farm.sol\":30521:30738  constructor(IERC721 _stakingIERC721, IERC20 _rewardsToken, uint256 _rewardsPerHour) {\r... */\n  pop\n  pop\n  pop\n    /* \"Farm.sol\":29748:31022  contract Farm is ReentrancyGuard, Pausable, Ownable, IERC721Receiver {\r... */\n  jump(tag_16)\n    /* \"Farm.sol\":15568:15666  function _msgSender() internal view virtual returns (address) {\r... */\ntag_13:\n    /* \"Farm.sol\":15621:15628  address */\n  0x00\n    /* \"Farm.sol\":15648:15658  msg.sender */\n  caller\n    /* \"Farm.sol\":15641:15658  return msg.sender */\n  swap1\n  pop\n    /* \"Farm.sol\":15568:15666  function _msgSender() internal view virtual returns (address) {\r... */\n  swap1\n  jump\t// out\n    /* \"Farm.sol\":29548:29739  function _transferOwnership(address newOwner) internal virtual {\r... */\ntag_14:\n    /* \"Farm.sol\":29622:29638  address oldOwner */\n  0x00\n    /* \"Farm.sol\":29641:29647  _owner */\n  0x01\n  dup1\n  sload\n  swap1\n  0x0100\n  exp\n  swap1\n  div\n  0xffffffffffffffffffffffffffffffffffffffff\n  and\n    /* \"Farm.sol\":29622:29647  address oldOwner = _owner */\n  swap1\n  pop\n    /* \"Farm.sol\":29667:29675  newOwner */\n  dup2\n    /* \"Farm.sol\":29658:29664  _owner */\n  0x01\n  dup1\n    /* \"Farm.sol\":29658:29675  _owner = newOwner */\n  0x0100\n  exp\n  dup2\n  sload\n  dup2\n  0xffffffffffffffffffffffffffffffffffffffff\n  mul\n  not\n  and\n  swap1\n  dup4\n  0xffffffffffffffffffffffffffffffffffffffff\n  and\n  mul\n  or\n  swap1\n  sstore\n  pop\n    /* \"Farm.sol\":29722:29730  newOwner */\n  dup2\n    /* \"Farm.sol\":29691:29731  OwnershipTransferred(oldOwner, newOwner) */\n  0xffffffffffffffffffffffffffffffffffffffff\n  and\n    /* \"Farm.sol\":29712:29720  oldOwner */\n  dup2\n    /* \"Farm.sol\":29691:29731  OwnershipTransferred(oldOwner, newOwner) */\n  0xffffffffffffffffffffffffffffffffffffffff\n  and\n  0x8be0079c531659141344cd1fd0a4f28419497f9722a3daafe3b4186f6b6457e0\n  mload(0x40)\n  mload(0x40)\n  dup1\n  swap2\n  sub\n  swap1\n  log3\n    /* \"Farm.sol\":29611:29739  {\r... */\n  pop\n    /* \"Farm.sol\":29548:29739  function _transferOwnership(address newOwner) internal virtual {\r... */\n  pop\n  jump\t// out\n    /* \"#utility.yul\":7:178   */\ntag_20:\n    /* \"#utility.yul\":78:83   */\n  0x00\n    /* \"#utility.yul\":109:115   */\n  dup2\n    /* \"#utility.yul\":103:116   */\n  mload\n    /* \"#utility.yul\":94:116   */\n  swap1\n  pop\n    /* \"#utility.yul\":125:172   */\n  tag_22\n    /* \"#utility.yul\":166:171   */\n  dup2\n    /* \"#utility.yul\":125:172   */\n  tag_23\n  jump\t// in\ntag_22:\n    /* \"#utility.yul\":7:178   */\n  swap3\n  swap2\n  pop\n  pop\n  jump\t// out\n    /* \"#utility.yul\":184:357   */\ntag_24:\n    /* \"#utility.yul\":256:261   */\n  0x00\n    /* \"#utility.yul\":287:293   */\n  dup2\n    /* \"#utility.yul\":281:294   */\n  mload\n    /* \"#utility.yul\":272:294   */\n  swap1\n  pop\n    /* \"#utility.yul\":303:351   */\n  tag_26\n    /* \"#utility.yul\":345:350   */\n  dup2\n    /* \"#utility.yul\":303:351   */\n  tag_27\n  jump\t// in\ntag_26:\n    /* \"#utility.yul\":184:357   */\n  swap3\n  swap2\n  pop\n  pop\n  jump\t// out\n    /* \"#utility.yul\":363:506   */\ntag_28:\n    /* \"#utility.yul\":420:425   */\n  0x00\n    /* \"#utility.yul\":451:457   */\n  dup2\n    /* \"#utility.yul\":445:458   */\n  mload\n    /* \"#utility.yul\":436:458   */\n  swap1\n  pop\n    /* \"#utility.yul\":467:500   */\n  tag_30\n    /* \"#utility.yul\":494:499   */\n  dup2\n    /* \"#utility.yul\":467:500   */\n  tag_31\n  jump\t// in\ntag_30:\n    /* \"#utility.yul\":363:506   */\n  swap3\n  swap2\n  pop\n  pop\n  jump\t// out\n    /* \"#utility.yul\":512:1233   */\ntag_3:\n    /* \"#utility.yul\":629:635   */\n  0x00\n    /* \"#utility.yul\":637:643   */\n  dup1\n    /* \"#utility.yul\":645:651   */\n  0x00\n    /* \"#utility.yul\":694:696   */\n  0x60\n    /* \"#utility.yul\":682:691   */\n  dup5\n    /* \"#utility.yul\":673:680   */\n  dup7\n    /* \"#utility.yul\":669:692   */\n  sub\n    /* \"#utility.yul\":665:697   */\n  slt\n    /* \"#utility.yul\":662:781   */\n  iszero\n  tag_33\n  jumpi\n    /* \"#utility.yul\":700:779   */\n  tag_34\n  tag_35\n  jump\t// in\ntag_34:\n    /* \"#utility.yul\":662:781   */\ntag_33:\n    /* \"#utility.yul\":820:821   */\n  0x00\n    /* \"#utility.yul\":845:924   */\n  tag_36\n    /* \"#utility.yul\":916:923   */\n  dup7\n    /* \"#utility.yul\":907:913   */\n  dup3\n    /* \"#utility.yul\":896:905   */\n  dup8\n    /* \"#utility.yul\":892:914   */\n  add\n    /* \"#utility.yul\":845:924   */\n  tag_24\n  jump\t// in\ntag_36:\n    /* \"#utility.yul\":835:924   */\n  swap4\n  pop\n    /* \"#utility.yul\":791:934   */\n  pop\n    /* \"#utility.yul\":973:975   */\n  0x20\n    /* \"#utility.yul\":999:1077   */\n  tag_37\n    /* \"#utility.yul\":1069:1076   */\n  dup7\n    /* \"#utility.yul\":1060:1066   */\n  dup3\n    /* \"#utility.yul\":1049:1058   */\n  dup8\n    /* \"#utility.yul\":1045:1067   */\n  add\n    /* \"#utility.yul\":999:1077   */\n  tag_20\n  jump\t// in\ntag_37:\n    /* \"#utility.yul\":989:1077   */\n  swap3\n  pop\n    /* \"#utility.yul\":944:1087   */\n  pop\n    /* \"#utility.yul\":1126:1128   */\n  0x40\n    /* \"#utility.yul\":1152:1216   */\n  tag_38\n    /* \"#utility.yul\":1208:1215   */\n  dup7\n    /* \"#utility.yul\":1199:1205   */\n  dup3\n    /* \"#utility.yul\":1188:1197   */\n  dup8\n    /* \"#utility.yul\":1184:1206   */\n  add\n    /* \"#utility.yul\":1152:1216   */\n  tag_28\n  jump\t// in\ntag_38:\n    /* \"#utility.yul\":1142:1216   */\n  swap2\n  pop\n    /* \"#utility.yul\":1097:1226   */\n  pop\n    /* \"#utility.yul\":512:1233   */\n  swap3\n  pop\n  swap3\n  pop\n  swap3\n  jump\t// out\n    /* \"#utility.yul\":1320:1416   */\ntag_41:\n    /* \"#utility.yul\":1357:1364   */\n  0x00\n    /* \"#utility.yul\":1386:1410   */\n  tag_43\n    /* \"#utility.yul\":1404:1409   */\n  dup3\n    /* \"#utility.yul\":1386:1410   */\n  tag_44\n  jump\t// in\ntag_43:\n    /* \"#utility.yul\":1375:1410   */\n  swap1\n  pop\n    /* \"#utility.yul\":1320:1416   */\n  swap2\n  swap1\n  pop\n  jump\t// out\n    /* \"#utility.yul\":1422:1532   */\ntag_45:\n    /* \"#utility.yul\":1473:1480   */\n  0x00\n    /* \"#utility.yul\":1502:1526   */\n  tag_47\n    /* \"#utility.yul\":1520:1525   */\n  dup3\n    /* \"#utility.yul\":1502:1526   */\n  tag_41\n  jump\t// in\ntag_47:\n    /* \"#utility.yul\":1491:1526   */\n  swap1\n  pop\n    /* \"#utility.yul\":1422:1532   */\n  swap2\n  swap1\n  pop\n  jump\t// out\n    /* \"#utility.yul\":1538:1649   */\ntag_48:\n    /* \"#utility.yul\":1590:1597   */\n  0x00\n    /* \"#utility.yul\":1619:1643   */\n  tag_50\n    /* \"#utility.yul\":1637:1642   */\n  dup3\n    /* \"#utility.yul\":1619:1643   */\n  tag_41\n  jump\t// in\ntag_50:\n    /* \"#utility.yul\":1608:1643   */\n  swap1\n  pop\n    /* \"#utility.yul\":1538:1649   */\n  swap2\n  swap1\n  pop\n  jump\t// out\n    /* \"#utility.yul\":1655:1781   */\ntag_44:\n    /* \"#utility.yul\":1692:1699   */\n  0x00\n    /* \"#utility.yul\":1732:1774   */\n  0xffffffffffffffffffffffffffffffffffffffff\n    /* \"#utility.yul\":1725:1730   */\n  dup3\n    /* \"#utility.yul\":1721:1775   */\n  and\n    /* \"#utility.yul\":1710:1775   */\n  swap1\n  pop\n    /* \"#utility.yul\":1655:1781   */\n  swap2\n  swap1\n  pop\n  jump\t// out\n    /* \"#utility.yul\":1787:1864   */\ntag_52:\n    /* \"#utility.yul\":1824:1831   */\n  0x00\n    /* \"#utility.yul\":1853:1858   */\n  dup2\n    /* \"#utility.yul\":1842:1858   */\n  swap1\n  pop\n    /* \"#utility.yul\":1787:1864   */\n  swap2\n  swap1\n  pop\n  jump\t// out\n    /* \"#utility.yul\":1993:2110   */\ntag_35:\n    /* \"#utility.yul\":2102:2103   */\n  0x00\n    /* \"#utility.yul\":2099:2100   */\n  dup1\n    /* \"#utility.yul\":2092:2104   */\n  revert\n    /* \"#utility.yul\":2116:2266   */\ntag_23:\n    /* \"#utility.yul\":2203:2241   */\n  tag_58\n    /* \"#utility.yul\":2235:2240   */\n  dup2\n    /* \"#utility.yul\":2203:2241   */\n  tag_45\n  jump\t// in\ntag_58:\n    /* \"#utility.yul\":2196:2201   */\n  dup2\n    /* \"#utility.yul\":2193:2242   */\n  eq\n    /* \"#utility.yul\":2183:2260   */\n  tag_59\n  jumpi\n    /* \"#utility.yul\":2256:2257   */\n  0x00\n    /* \"#utility.yul\":2253:2254   */\n  dup1\n    /* \"#utility.yul\":2246:2258   */\n  revert\n    /* \"#utility.yul\":2183:2260   */\ntag_59:\n    /* \"#utility.yul\":2116:2266   */\n  pop\n  jump\t// out\n    /* \"#utility.yul\":2272:2424   */\ntag_27:\n    /* \"#utility.yul\":2360:2399   */\n  tag_61\n    /* \"#utility.yul\":2393:2398   */\n  dup2\n    /* \"#utility.yul\":2360:2399   */\n  tag_48\n  jump\t// in\ntag_61:\n    /* \"#utility.yul\":2353:2358   */\n  dup2\n    /* \"#utility.yul\":2350:2400   */\n  eq\n    /* \"#utility.yul\":2340:2418   */\n  tag_62\n  jumpi\n    /* \"#utility.yul\":2414:2415   */\n  0x00\n    /* \"#utility.yul\":2411:2412   */\n  dup1\n    /* \"#utility.yul\":2404:2416   */\n  revert\n    /* \"#utility.yul\":2340:2418   */\ntag_62:\n    /* \"#utility.yul\":2272:2424   */\n  pop\n  jump\t// out\n    /* \"#utility.yul\":2430:2552   */\ntag_31:\n    /* \"#utility.yul\":2503:2527   */\n  tag_64\n    /* \"#utility.yul\":2521:2526   */\n  dup2\n    /* \"#utility.yul\":2503:2527   */\n  tag_52\n  jump\t// in\ntag_64:\n    /* \"#utility.yul\":2496:2501   */\n  dup2\n    /* \"#utility.yul\":2493:2528   */\n  eq\n    /* \"#utility.yul\":2483:2546   */\n  tag_65\n  jumpi\n    /* \"#utility.yul\":2542:2543   */\n  0x00\n    /* \"#utility.yul\":2539:2540   */\n  dup1\n    /* \"#utility.yul\":2532:2544   */\n  revert\n    /* \"#utility.yul\":2483:2546   */\ntag_65:\n    /* \"#utility.yul\":2430:2552   */\n  pop\n  jump\t// out\n    /* \"Farm.sol\":29748:31022  contract Farm is ReentrancyGuard, Pausable, Ownable, IERC721Receiver {\r... */\ntag_16:\n  dataSize(sub_0)\n  dup1\n  dataOffset(sub_0)\n  0x00\n  codecopy\n  0x00\n  return\nstop\n\nsub_0: assembly {\n        /* \"Farm.sol\":29748:31022  contract Farm is ReentrancyGuard, Pausable, Ownable, IERC721Receiver {\r... */\n      mstore(0x40, 0x80)\n      callvalue\n      dup1\n      iszero\n      tag_1\n      jumpi\n      0x00\n      dup1\n      revert\n    tag_1:\n      pop\n      jumpi(tag_2, lt(calldatasize, 0x04))\n      shr(0xe0, calldataload(0x00))\n      dup1\n      0x8da5cb5b\n      gt\n      tag_12\n      jumpi\n      dup1\n      0x8da5cb5b\n      eq\n      tag_7\n      jumpi\n      dup1\n      0x9168ae72\n      eq\n      tag_8\n      jumpi\n      dup1\n      0x94067045\n      eq\n      tag_9\n      jumpi\n      dup1\n      0xd1af0c7d\n      eq\n      tag_10\n      jumpi\n      dup1\n      0xf2fde38b\n      eq\n      tag_11\n      jumpi\n      jump(tag_2)\n    tag_12:\n      dup1\n      0x150b7a02\n      eq\n      tag_3\n      jumpi\n      dup1\n      0x5c975abb\n      eq\n      tag_4\n      jumpi\n      dup1\n      0x715018a6\n      eq\n      tag_5\n      jumpi\n      dup1\n      0x7f544728\n      eq\n      tag_6\n      jumpi\n    tag_2:\n      0x00\n      dup1\n      revert\n        /* \"Farm.sol\":30746:31017  function onERC721Received(\r... */\n    tag_3:\n      tag_13\n      0x04\n      dup1\n      calldatasize\n      sub\n      dup2\n      add\n      swap1\n      tag_14\n      swap2\n      swap1\n      tag_15\n      jump\t// in\n    tag_14:\n      tag_16\n      jump\t// in\n    tag_13:\n      mload(0x40)\n      tag_17\n      swap2\n      swap1\n      tag_18\n      jump\t// in\n    tag_17:\n      mload(0x40)\n      dup1\n      swap2\n      sub\n      swap1\n      return\n        /* \"Farm.sol\":16842:16928  function paused() public view virtual returns (bool) {\r... */\n    tag_4:\n      tag_19\n      tag_20\n      jump\t// in\n    tag_19:\n      mload(0x40)\n      tag_21\n      swap2\n      swap1\n      tag_22\n      jump\t// in\n    tag_21:\n      mload(0x40)\n      dup1\n      swap2\n      sub\n      swap1\n      return\n        /* \"Farm.sol\":28929:29032  function renounceOwnership() public virtual onlyOwner {\r... */\n    tag_5:\n      tag_23\n      tag_24\n      jump\t// in\n    tag_23:\n      stop\n        /* \"Farm.sol\":30197:30226  IERC721 public stakingIERC721 */\n    tag_6:\n      tag_25\n      tag_26\n      jump\t// in\n    tag_25:\n      mload(0x40)\n      tag_27\n      swap2\n      swap1\n      tag_28\n      jump\t// in\n    tag_27:\n      mload(0x40)\n      dup1\n      swap2\n      sub\n      swap1\n      return\n        /* \"Farm.sol\":28281:28368  function owner() public view virtual returns (address) {\r... */\n    tag_7:\n      tag_29\n      tag_30\n      jump\t// in\n    tag_29:\n      mload(0x40)\n      tag_31\n      swap2\n      swap1\n      tag_32\n      jump\t// in\n    tag_31:\n      mload(0x40)\n      dup1\n      swap2\n      sub\n      swap1\n      return\n        /* \"Farm.sol\":30337:30378  mapping(address => Staker) public stakers */\n    tag_8:\n      tag_33\n      0x04\n      dup1\n      calldatasize\n      sub\n      dup2\n      add\n      swap1\n      tag_34\n      swap2\n      swap1\n      tag_35\n      jump\t// in\n    tag_34:\n      tag_36\n      jump\t// in\n    tag_33:\n      mload(0x40)\n      tag_37\n      swap4\n      swap3\n      swap2\n      swap1\n      tag_38\n      jump\t// in\n    tag_37:\n      mload(0x40)\n      dup1\n      swap2\n      sub\n      swap1\n      return\n        /* \"Farm.sol\":30464:30512  mapping(uint256 => address) public stakerAddress */\n    tag_9:\n      tag_39\n      0x04\n      dup1\n      calldatasize\n      sub\n      dup2\n      add\n      swap1\n      tag_40\n      swap2\n      swap1\n      tag_41\n      jump\t// in\n    tag_40:\n      tag_42\n      jump\t// in\n    tag_39:\n      mload(0x40)\n      tag_43\n      swap2\n      swap1\n      tag_32\n      jump\t// in\n    tag_43:\n      mload(0x40)\n      dup1\n      swap2\n      sub\n      swap1\n      return\n        /* \"Farm.sol\":30164:30190  IERC20 public rewardsToken */\n    tag_10:\n      tag_44\n      tag_45\n      jump\t// in\n    tag_44:\n      mload(0x40)\n      tag_46\n      swap2\n      swap1\n      tag_47\n      jump\t// in\n    tag_46:\n      mload(0x40)\n      dup1\n      swap2\n      sub\n      swap1\n      return\n        /* \"Farm.sol\":29187:29388  function transferOwnership(address newOwner) public virtual onlyOwner {\r... */\n    tag_11:\n      tag_48\n      0x04\n      dup1\n      calldatasize\n      sub\n      dup2\n      add\n      swap1\n      tag_49\n      swap2\n      swap1\n      tag_35\n      jump\t// in\n    tag_49:\n      tag_50\n      jump\t// in\n    tag_48:\n      stop\n        /* \"Farm.sol\":30746:31017  function onERC721Received(\r... */\n    tag_16:\n        /* \"Farm.sol\":30917:30923  bytes4 */\n      0x00\n        /* \"Farm.sol\":30977:30985  operator */\n      dup6\n        /* \"Farm.sol\":30987:30991  from */\n      dup6\n        /* \"Farm.sol\":30993:31000  tokenId */\n      dup6\n        /* \"Farm.sol\":31002:31006  data */\n      dup6\n      dup6\n        /* \"Farm.sol\":30960:31007  abi.encodePacked(operator, from, tokenId, data) */\n      add(0x20, mload(0x40))\n      tag_52\n      swap6\n      swap5\n      swap4\n      swap3\n      swap2\n      swap1\n      tag_53\n      jump\t// in\n    tag_52:\n      mload(0x40)\n      0x20\n      dup2\n      dup4\n      sub\n      sub\n      dup2\n      mstore\n      swap1\n      0x40\n      mstore\n        /* \"Farm.sol\":30950:31008  keccak256(abi.encodePacked(operator, from, tokenId, data)) */\n      dup1\n      mload\n      swap1\n      0x20\n      add\n      keccak256\n        /* \"Farm.sol\":30936:31009  return bytes4(keccak256(abi.encodePacked(operator, from, tokenId, data))) */\n      swap1\n      pop\n        /* \"Farm.sol\":30746:31017  function onERC721Received(\r... */\n      swap6\n      swap5\n      pop\n      pop\n      pop\n      pop\n      pop\n      jump\t// out\n        /* \"Farm.sol\":16842:16928  function paused() public view virtual returns (bool) {\r... */\n    tag_20:\n        /* \"Farm.sol\":16889:16893  bool */\n      0x00\n        /* \"Farm.sol\":16913:16920  _paused */\n      0x01\n      0x00\n      swap1\n      sload\n      swap1\n      0x0100\n      exp\n      swap1\n      div\n      0xff\n      and\n        /* \"Farm.sol\":16906:16920  return _paused */\n      swap1\n      pop\n        /* \"Farm.sol\":16842:16928  function paused() public view virtual returns (bool) {\r... */\n      swap1\n      jump\t// out\n        /* \"Farm.sol\":28929:29032  function renounceOwnership() public virtual onlyOwner {\r... */\n    tag_24:\n        /* \"Farm.sol\":28167:28180  _checkOwner() */\n      tag_56\n        /* \"Farm.sol\":28167:28178  _checkOwner */\n      tag_57\n        /* \"Farm.sol\":28167:28180  _checkOwner() */\n      jump\t// in\n    tag_56:\n        /* \"Farm.sol\":28994:29024  _transferOwnership(address(0)) */\n      tag_59\n        /* \"Farm.sol\":29021:29022  0 */\n      0x00\n        /* \"Farm.sol\":28994:29012  _transferOwnership */\n      tag_60\n        /* \"Farm.sol\":28994:29024  _transferOwnership(address(0)) */\n      jump\t// in\n    tag_59:\n        /* \"Farm.sol\":28929:29032  function renounceOwnership() public virtual onlyOwner {\r... */\n      jump\t// out\n        /* \"Farm.sol\":30197:30226  IERC721 public stakingIERC721 */\n    tag_26:\n      0x03\n      0x00\n      swap1\n      sload\n      swap1\n      0x0100\n      exp\n      swap1\n      div\n      0xffffffffffffffffffffffffffffffffffffffff\n      and\n      dup2\n      jump\t// out\n        /* \"Farm.sol\":28281:28368  function owner() public view virtual returns (address) {\r... */\n    tag_30:\n        /* \"Farm.sol\":28327:28334  address */\n      0x00\n        /* \"Farm.sol\":28354:28360  _owner */\n      0x01\n      dup1\n      sload\n      swap1\n      0x0100\n      exp\n      swap1\n      div\n      0xffffffffffffffffffffffffffffffffffffffff\n      and\n        /* \"Farm.sol\":28347:28360  return _owner */\n      swap1\n      pop\n        /* \"Farm.sol\":28281:28368  function owner() public view virtual returns (address) {\r... */\n      swap1\n      jump\t// out\n        /* \"Farm.sol\":30337:30378  mapping(address => Staker) public stakers */\n    tag_36:\n      mstore(0x20, 0x05)\n      dup1\n      0x00\n      mstore\n      keccak256(0x00, 0x40)\n      0x00\n      swap2\n      pop\n      swap1\n      pop\n      dup1\n      0x00\n      add\n      sload\n      swap1\n      dup1\n      0x02\n      add\n      sload\n      swap1\n      dup1\n      0x03\n      add\n      sload\n      swap1\n      pop\n      dup4\n      jump\t// out\n        /* \"Farm.sol\":30464:30512  mapping(uint256 => address) public stakerAddress */\n    tag_42:\n      mstore(0x20, 0x06)\n      dup1\n      0x00\n      mstore\n      keccak256(0x00, 0x40)\n      0x00\n      swap2\n      pop\n      sload\n      swap1\n      0x0100\n      exp\n      swap1\n      div\n      0xffffffffffffffffffffffffffffffffffffffff\n      and\n      dup2\n      jump\t// out\n        /* \"Farm.sol\":30164:30190  IERC20 public rewardsToken */\n    tag_45:\n      0x02\n      0x00\n      swap1\n      sload\n      swap1\n      0x0100\n      exp\n      swap1\n      div\n      0xffffffffffffffffffffffffffffffffffffffff\n      and\n      dup2\n      jump\t// out\n        /* \"Farm.sol\":29187:29388  function transferOwnership(address newOwner) public virtual onlyOwner {\r... */\n    tag_50:\n        /* \"Farm.sol\":28167:28180  _checkOwner() */\n      tag_63\n        /* \"Farm.sol\":28167:28178  _checkOwner */\n      tag_57\n        /* \"Farm.sol\":28167:28180  _checkOwner() */\n      jump\t// in\n    tag_63:\n        /* \"Farm.sol\":29296:29297  0 */\n      0x00\n        /* \"Farm.sol\":29276:29298  newOwner != address(0) */\n      0xffffffffffffffffffffffffffffffffffffffff\n      and\n        /* \"Farm.sol\":29276:29284  newOwner */\n      dup2\n        /* \"Farm.sol\":29276:29298  newOwner != address(0) */\n      0xffffffffffffffffffffffffffffffffffffffff\n      and\n      eq\n      iszero\n        /* \"Farm.sol\":29268:29341  require(newOwner != address(0), \"Ownable: new owner is the zero address\") */\n      tag_65\n      jumpi\n      mload(0x40)\n      0x08c379a000000000000000000000000000000000000000000000000000000000\n      dup2\n      mstore\n      0x04\n      add\n      tag_66\n      swap1\n      tag_67\n      jump\t// in\n    tag_66:\n      mload(0x40)\n      dup1\n      swap2\n      sub\n      swap1\n      revert\n    tag_65:\n        /* \"Farm.sol\":29352:29380  _transferOwnership(newOwner) */\n      tag_68\n        /* \"Farm.sol\":29371:29379  newOwner */\n      dup2\n        /* \"Farm.sol\":29352:29370  _transferOwnership */\n      tag_60\n        /* \"Farm.sol\":29352:29380  _transferOwnership(newOwner) */\n      jump\t// in\n    tag_68:\n        /* \"Farm.sol\":29187:29388  function transferOwnership(address newOwner) public virtual onlyOwner {\r... */\n      pop\n      jump\t// out\n        /* \"Farm.sol\":28446:28578  function _checkOwner() internal view virtual {\r... */\n    tag_57:\n        /* \"Farm.sol\":28521:28533  _msgSender() */\n      tag_70\n        /* \"Farm.sol\":28521:28531  _msgSender */\n      tag_71\n        /* \"Farm.sol\":28521:28533  _msgSender() */\n      jump\t// in\n    tag_70:\n        /* \"Farm.sol\":28510:28533  owner() == _msgSender() */\n      0xffffffffffffffffffffffffffffffffffffffff\n      and\n        /* \"Farm.sol\":28510:28517  owner() */\n      tag_72\n        /* \"Farm.sol\":28510:28515  owner */\n      tag_30\n        /* \"Farm.sol\":28510:28517  owner() */\n      jump\t// in\n    tag_72:\n        /* \"Farm.sol\":28510:28533  owner() == _msgSender() */\n      0xffffffffffffffffffffffffffffffffffffffff\n      and\n      eq\n        /* \"Farm.sol\":28502:28570  require(owner() == _msgSender(), \"Ownable: caller is not the owner\") */\n      tag_73\n      jumpi\n      mload(0x40)\n      0x08c379a000000000000000000000000000000000000000000000000000000000\n      dup2\n      mstore\n      0x04\n      add\n      tag_74\n      swap1\n      tag_75\n      jump\t// in\n    tag_74:\n      mload(0x40)\n      dup1\n      swap2\n      sub\n      swap1\n      revert\n    tag_73:\n        /* \"Farm.sol\":28446:28578  function _checkOwner() internal view virtual {\r... */\n      jump\t// out\n        /* \"Farm.sol\":29548:29739  function _transferOwnership(address newOwner) internal virtual {\r... */\n    tag_60:\n        /* \"Farm.sol\":29622:29638  address oldOwner */\n      0x00\n        /* \"Farm.sol\":29641:29647  _owner */\n      0x01\n      dup1\n      sload\n      swap1\n      0x0100\n      exp\n      swap1\n      div\n      0xffffffffffffffffffffffffffffffffffffffff\n      and\n        /* \"Farm.sol\":29622:29647  address oldOwner = _owner */\n      swap1\n      pop\n        /* \"Farm.sol\":29667:29675  newOwner */\n      dup2\n        /* \"Farm.sol\":29658:29664  _owner */\n      0x01\n      dup1\n        /* \"Farm.sol\":29658:29675  _owner = newOwner */\n      0x0100\n      exp\n      dup2\n      sload\n      dup2\n      0xffffffffffffffffffffffffffffffffffffffff\n      mul\n      not\n      and\n      swap1\n      dup4\n      0xffffffffffffffffffffffffffffffffffffffff\n      and\n      mul\n      or\n      swap1\n      sstore\n      pop\n        /* \"Farm.sol\":29722:29730  newOwner */\n      dup2\n        /* \"Farm.sol\":29691:29731  OwnershipTransferred(oldOwner, newOwner) */\n      0xffffffffffffffffffffffffffffffffffffffff\n      and\n        /* \"Farm.sol\":29712:29720  oldOwner */\n      dup2\n        /* \"Farm.sol\":29691:29731  OwnershipTransferred(oldOwner, newOwner) */\n      0xffffffffffffffffffffffffffffffffffffffff\n      and\n      0x8be0079c531659141344cd1fd0a4f28419497f9722a3daafe3b4186f6b6457e0\n      mload(0x40)\n      mload(0x40)\n      dup1\n      swap2\n      sub\n      swap1\n      log3\n        /* \"Farm.sol\":29611:29739  {\r... */\n      pop\n        /* \"Farm.sol\":29548:29739  function _transferOwnership(address newOwner) internal virtual {\r... */\n      pop\n      jump\t// out\n        /* \"Farm.sol\":15568:15666  function _msgSender() internal view virtual returns (address) {\r... */\n    tag_71:\n        /* \"Farm.sol\":15621:15628  address */\n      0x00\n        /* \"Farm.sol\":15648:15658  msg.sender */\n      caller\n        /* \"Farm.sol\":15641:15658  return msg.sender */\n      swap1\n      pop\n        /* \"Farm.sol\":15568:15666  function _msgSender() internal view virtual returns (address) {\r... */\n      swap1\n      jump\t// out\n        /* \"#utility.yul\":7:146   */\n    tag_79:\n        /* \"#utility.yul\":53:58   */\n      0x00\n        /* \"#utility.yul\":91:97   */\n      dup2\n        /* \"#utility.yul\":78:98   */\n      calldataload\n        /* \"#utility.yul\":69:98   */\n      swap1\n      pop\n        /* \"#utility.yul\":107:140   */\n      tag_81\n        /* \"#utility.yul\":134:139   */\n      dup2\n        /* \"#utility.yul\":107:140   */\n      tag_82\n      jump\t// in\n    tag_81:\n        /* \"#utility.yul\":7:146   */\n      swap3\n      swap2\n      pop\n      pop\n      jump\t// out\n        /* \"#utility.yul\":165:717   */\n    tag_83:\n        /* \"#utility.yul\":222:230   */\n      0x00\n        /* \"#utility.yul\":232:238   */\n      dup1\n        /* \"#utility.yul\":282:285   */\n      dup4\n        /* \"#utility.yul\":275:279   */\n      0x1f\n        /* \"#utility.yul\":267:273   */\n      dup5\n        /* \"#utility.yul\":263:280   */\n      add\n        /* \"#utility.yul\":259:286   */\n      slt\n        /* \"#utility.yul\":249:371   */\n      tag_85\n      jumpi\n        /* \"#utility.yul\":290:369   */\n      tag_86\n      tag_87\n      jump\t// in\n    tag_86:\n        /* \"#utility.yul\":249:371   */\n    tag_85:\n        /* \"#utility.yul\":403:409   */\n      dup3\n        /* \"#utility.yul\":390:410   */\n      calldataload\n        /* \"#utility.yul\":380:410   */\n      swap1\n      pop\n        /* \"#utility.yul\":433:451   */\n      0xffffffffffffffff\n        /* \"#utility.yul\":425:431   */\n      dup2\n        /* \"#utility.yul\":422:452   */\n      gt\n        /* \"#utility.yul\":419:536   */\n      iszero\n      tag_88\n      jumpi\n        /* \"#utility.yul\":455:534   */\n      tag_89\n      tag_90\n      jump\t// in\n    tag_89:\n        /* \"#utility.yul\":419:536   */\n    tag_88:\n        /* \"#utility.yul\":569:573   */\n      0x20\n        /* \"#utility.yul\":561:567   */\n      dup4\n        /* \"#utility.yul\":557:574   */\n      add\n        /* \"#utility.yul\":545:574   */\n      swap2\n      pop\n        /* \"#utility.yul\":623:626   */\n      dup4\n        /* \"#utility.yul\":615:619   */\n      0x01\n        /* \"#utility.yul\":607:613   */\n      dup3\n        /* \"#utility.yul\":603:620   */\n      mul\n        /* \"#utility.yul\":593:601   */\n      dup4\n        /* \"#utility.yul\":589:621   */\n      add\n        /* \"#utility.yul\":586:627   */\n      gt\n        /* \"#utility.yul\":583:711   */\n      iszero\n      tag_91\n      jumpi\n        /* \"#utility.yul\":630:709   */\n      tag_92\n      tag_93\n      jump\t// in\n    tag_92:\n        /* \"#utility.yul\":583:711   */\n    tag_91:\n        /* \"#utility.yul\":165:717   */\n      swap3\n      pop\n      swap3\n      swap1\n      pop\n      jump\t// out\n        /* \"#utility.yul\":723:862   */\n    tag_94:\n        /* \"#utility.yul\":769:774   */\n      0x00\n        /* \"#utility.yul\":807:813   */\n      dup2\n        /* \"#utility.yul\":794:814   */\n      calldataload\n        /* \"#utility.yul\":785:814   */\n      swap1\n      pop\n        /* \"#utility.yul\":823:856   */\n      tag_96\n        /* \"#utility.yul\":850:855   */\n      dup2\n        /* \"#utility.yul\":823:856   */\n      tag_97\n      jump\t// in\n    tag_96:\n        /* \"#utility.yul\":723:862   */\n      swap3\n      swap2\n      pop\n      pop\n      jump\t// out\n        /* \"#utility.yul\":868:1197   */\n    tag_35:\n        /* \"#utility.yul\":927:933   */\n      0x00\n        /* \"#utility.yul\":976:978   */\n      0x20\n        /* \"#utility.yul\":964:973   */\n      dup3\n        /* \"#utility.yul\":955:962   */\n      dup5\n        /* \"#utility.yul\":951:974   */\n      sub\n        /* \"#utility.yul\":947:979   */\n      slt\n        /* \"#utility.yul\":944:1063   */\n      iszero\n      tag_99\n      jumpi\n        /* \"#utility.yul\":982:1061   */\n      tag_100\n      tag_101\n      jump\t// in\n    tag_100:\n        /* \"#utility.yul\":944:1063   */\n    tag_99:\n        /* \"#utility.yul\":1102:1103   */\n      0x00\n        /* \"#utility.yul\":1127:1180   */\n      tag_102\n        /* \"#utility.yul\":1172:1179   */\n      dup5\n        /* \"#utility.yul\":1163:1169   */\n      dup3\n        /* \"#utility.yul\":1152:1161   */\n      dup6\n        /* \"#utility.yul\":1148:1170   */\n      add\n        /* \"#utility.yul\":1127:1180   */\n      tag_79\n      jump\t// in\n    tag_102:\n        /* \"#utility.yul\":1117:1180   */\n      swap2\n      pop\n        /* \"#utility.yul\":1073:1190   */\n      pop\n        /* \"#utility.yul\":868:1197   */\n      swap3\n      swap2\n      pop\n      pop\n      jump\t// out\n        /* \"#utility.yul\":1203:2166   */\n    tag_15:\n        /* \"#utility.yul\":1300:1306   */\n      0x00\n        /* \"#utility.yul\":1308:1314   */\n      dup1\n        /* \"#utility.yul\":1316:1322   */\n      0x00\n        /* \"#utility.yul\":1324:1330   */\n      dup1\n        /* \"#utility.yul\":1332:1338   */\n      0x00\n        /* \"#utility.yul\":1381:1384   */\n      0x80\n        /* \"#utility.yul\":1369:1378   */\n      dup7\n        /* \"#utility.yul\":1360:1367   */\n      dup9\n        /* \"#utility.yul\":1356:1379   */\n      sub\n        /* \"#utility.yul\":1352:1385   */\n      slt\n        /* \"#utility.yul\":1349:1469   */\n      iszero\n      tag_104\n      jumpi\n        /* \"#utility.yul\":1388:1467   */\n      tag_105\n      tag_101\n      jump\t// in\n    tag_105:\n        /* \"#utility.yul\":1349:1469   */\n    tag_104:\n        /* \"#utility.yul\":1508:1509   */\n      0x00\n        /* \"#utility.yul\":1533:1586   */\n      tag_106\n        /* \"#utility.yul\":1578:1585   */\n      dup9\n        /* \"#utility.yul\":1569:1575   */\n      dup3\n        /* \"#utility.yul\":1558:1567   */\n      dup10\n        /* \"#utility.yul\":1554:1576   */\n      add\n        /* \"#utility.yul\":1533:1586   */\n      tag_79\n      jump\t// in\n    tag_106:\n        /* \"#utility.yul\":1523:1586   */\n      swap6\n      pop\n        /* \"#utility.yul\":1479:1596   */\n      pop\n        /* \"#utility.yul\":1635:1637   */\n      0x20\n        /* \"#utility.yul\":1661:1714   */\n      tag_107\n        /* \"#utility.yul\":1706:1713   */\n      dup9\n        /* \"#utility.yul\":1697:1703   */\n      dup3\n        /* \"#utility.yul\":1686:1695   */\n      dup10\n        /* \"#utility.yul\":1682:1704   */\n      add\n        /* \"#utility.yul\":1661:1714   */\n      tag_79\n      jump\t// in\n    tag_107:\n        /* \"#utility.yul\":1651:1714   */\n      swap5\n      pop\n        /* \"#utility.yul\":1606:1724   */\n      pop\n        /* \"#utility.yul\":1763:1765   */\n      0x40\n        /* \"#utility.yul\":1789:1842   */\n      tag_108\n        /* \"#utility.yul\":1834:1841   */\n      dup9\n        /* \"#utility.yul\":1825:1831   */\n      dup3\n        /* \"#utility.yul\":1814:1823   */\n      dup10\n        /* \"#utility.yul\":1810:1832   */\n      add\n        /* \"#utility.yul\":1789:1842   */\n      tag_94\n      jump\t// in\n    tag_108:\n        /* \"#utility.yul\":1779:1842   */\n      swap4\n      pop\n        /* \"#utility.yul\":1734:1852   */\n      pop\n        /* \"#utility.yul\":1919:1921   */\n      0x60\n        /* \"#utility.yul\":1908:1917   */\n      dup7\n        /* \"#utility.yul\":1904:1922   */\n      add\n        /* \"#utility.yul\":1891:1923   */\n      calldataload\n        /* \"#utility.yul\":1950:1968   */\n      0xffffffffffffffff\n        /* \"#utility.yul\":1942:1948   */\n      dup2\n        /* \"#utility.yul\":1939:1969   */\n      gt\n        /* \"#utility.yul\":1936:2053   */\n      iszero\n      tag_109\n      jumpi\n        /* \"#utility.yul\":1972:2051   */\n      tag_110\n      tag_111\n      jump\t// in\n    tag_110:\n        /* \"#utility.yul\":1936:2053   */\n    tag_109:\n        /* \"#utility.yul\":2085:2149   */\n      tag_112\n        /* \"#utility.yul\":2141:2148   */\n      dup9\n        /* \"#utility.yul\":2132:2138   */\n      dup3\n        /* \"#utility.yul\":2121:2130   */\n      dup10\n        /* \"#utility.yul\":2117:2139   */\n      add\n        /* \"#utility.yul\":2085:2149   */\n      tag_83\n      jump\t// in\n    tag_112:\n        /* \"#utility.yul\":2067:2149   */\n      swap3\n      pop\n      swap3\n      pop\n        /* \"#utility.yul\":1862:2159   */\n      pop\n        /* \"#utility.yul\":1203:2166   */\n      swap3\n      swap6\n      pop\n      swap3\n      swap6\n      swap1\n      swap4\n      pop\n      jump\t// out\n        /* \"#utility.yul\":2172:2501   */\n    tag_41:\n        /* \"#utility.yul\":2231:2237   */\n      0x00\n        /* \"#utility.yul\":2280:2282   */\n      0x20\n        /* \"#utility.yul\":2268:2277   */\n      dup3\n        /* \"#utility.yul\":2259:2266   */\n      dup5\n        /* \"#utility.yul\":2255:2278   */\n      sub\n        /* \"#utility.yul\":2251:2283   */\n      slt\n        /* \"#utility.yul\":2248:2367   */\n      iszero\n      tag_114\n      jumpi\n        /* \"#utility.yul\":2286:2365   */\n      tag_115\n      tag_101\n      jump\t// in\n    tag_115:\n        /* \"#utility.yul\":2248:2367   */\n    tag_114:\n        /* \"#utility.yul\":2406:2407   */\n      0x00\n        /* \"#utility.yul\":2431:2484   */\n      tag_116\n        /* \"#utility.yul\":2476:2483   */\n      dup5\n        /* \"#utility.yul\":2467:2473   */\n      dup3\n        /* \"#utility.yul\":2456:2465   */\n      dup6\n        /* \"#utility.yul\":2452:2474   */\n      add\n        /* \"#utility.yul\":2431:2484   */\n      tag_94\n      jump\t// in\n    tag_116:\n        /* \"#utility.yul\":2421:2484   */\n      swap2\n      pop\n        /* \"#utility.yul\":2377:2494   */\n      pop\n        /* \"#utility.yul\":2172:2501   */\n      swap3\n      swap2\n      pop\n      pop\n      jump\t// out\n        /* \"#utility.yul\":2507:2625   */\n    tag_117:\n        /* \"#utility.yul\":2594:2618   */\n      tag_119\n        /* \"#utility.yul\":2612:2617   */\n      dup2\n        /* \"#utility.yul\":2594:2618   */\n      tag_120\n      jump\t// in\n    tag_119:\n        /* \"#utility.yul\":2589:2592   */\n      dup3\n        /* \"#utility.yul\":2582:2619   */\n      mstore\n        /* \"#utility.yul\":2507:2625   */\n      pop\n      pop\n      jump\t// out\n        /* \"#utility.yul\":2631:2788   */\n    tag_121:\n        /* \"#utility.yul\":2736:2781   */\n      tag_123\n        /* \"#utility.yul\":2756:2780   */\n      tag_124\n        /* \"#utility.yul\":2774:2779   */\n      dup3\n        /* \"#utility.yul\":2756:2780   */\n      tag_120\n      jump\t// in\n    tag_124:\n        /* \"#utility.yul\":2736:2781   */\n      tag_125\n      jump\t// in\n    tag_123:\n        /* \"#utility.yul\":2731:2734   */\n      dup3\n        /* \"#utility.yul\":2724:2782   */\n      mstore\n        /* \"#utility.yul\":2631:2788   */\n      pop\n      pop\n      jump\t// out\n        /* \"#utility.yul\":2794:2903   */\n    tag_126:\n        /* \"#utility.yul\":2875:2896   */\n      tag_128\n        /* \"#utility.yul\":2890:2895   */\n      dup2\n        /* \"#utility.yul\":2875:2896   */\n      tag_129\n      jump\t// in\n    tag_128:\n        /* \"#utility.yul\":2870:2873   */\n      dup3\n        /* \"#utility.yul\":2863:2897   */\n      mstore\n        /* \"#utility.yul\":2794:2903   */\n      pop\n      pop\n      jump\t// out\n        /* \"#utility.yul\":2909:3024   */\n    tag_130:\n        /* \"#utility.yul\":2994:3017   */\n      tag_132\n        /* \"#utility.yul\":3011:3016   */\n      dup2\n        /* \"#utility.yul\":2994:3017   */\n      tag_133\n      jump\t// in\n    tag_132:\n        /* \"#utility.yul\":2989:2992   */\n      dup3\n        /* \"#utility.yul\":2982:3018   */\n      mstore\n        /* \"#utility.yul\":2909:3024   */\n      pop\n      pop\n      jump\t// out\n        /* \"#utility.yul\":3052:3366   */\n    tag_134:\n        /* \"#utility.yul\":3166:3169   */\n      0x00\n        /* \"#utility.yul\":3187:3275   */\n      tag_136\n        /* \"#utility.yul\":3268:3274   */\n      dup4\n        /* \"#utility.yul\":3263:3266   */\n      dup6\n        /* \"#utility.yul\":3187:3275   */\n      tag_137\n      jump\t// in\n    tag_136:\n        /* \"#utility.yul\":3180:3275   */\n      swap4\n      pop\n        /* \"#utility.yul\":3285:3328   */\n      tag_138\n        /* \"#utility.yul\":3321:3327   */\n      dup4\n        /* \"#utility.yul\":3316:3319   */\n      dup6\n        /* \"#utility.yul\":3309:3314   */\n      dup5\n        /* \"#utility.yul\":3285:3328   */\n      tag_139\n      jump\t// in\n    tag_138:\n        /* \"#utility.yul\":3353:3359   */\n      dup3\n        /* \"#utility.yul\":3348:3351   */\n      dup5\n        /* \"#utility.yul\":3344:3360   */\n      add\n        /* \"#utility.yul\":3337:3360   */\n      swap1\n      pop\n        /* \"#utility.yul\":3052:3366   */\n      swap4\n      swap3\n      pop\n      pop\n      pop\n      jump\t// out\n        /* \"#utility.yul\":3372:3531   */\n    tag_140:\n        /* \"#utility.yul\":3473:3524   */\n      tag_142\n        /* \"#utility.yul\":3518:3523   */\n      dup2\n        /* \"#utility.yul\":3473:3524   */\n      tag_143\n      jump\t// in\n    tag_142:\n        /* \"#utility.yul\":3468:3471   */\n      dup3\n        /* \"#utility.yul\":3461:3525   */\n      mstore\n        /* \"#utility.yul\":3372:3531   */\n      pop\n      pop\n      jump\t// out\n        /* \"#utility.yul\":3537:3698   */\n    tag_144:\n        /* \"#utility.yul\":3639:3691   */\n      tag_146\n        /* \"#utility.yul\":3685:3690   */\n      dup2\n        /* \"#utility.yul\":3639:3691   */\n      tag_147\n      jump\t// in\n    tag_146:\n        /* \"#utility.yul\":3634:3637   */\n      dup3\n        /* \"#utility.yul\":3627:3692   */\n      mstore\n        /* \"#utility.yul\":3537:3698   */\n      pop\n      pop\n      jump\t// out\n        /* \"#utility.yul\":3704:4070   */\n    tag_148:\n        /* \"#utility.yul\":3846:3849   */\n      0x00\n        /* \"#utility.yul\":3867:3934   */\n      tag_150\n        /* \"#utility.yul\":3931:3933   */\n      0x26\n        /* \"#utility.yul\":3926:3929   */\n      dup4\n        /* \"#utility.yul\":3867:3934   */\n      tag_151\n      jump\t// in\n    tag_150:\n        /* \"#utility.yul\":3860:3934   */\n      swap2\n      pop\n        /* \"#utility.yul\":3943:4036   */\n      tag_152\n        /* \"#utility.yul\":4032:4035   */\n      dup3\n        /* \"#utility.yul\":3943:4036   */\n      tag_153\n      jump\t// in\n    tag_152:\n        /* \"#utility.yul\":4061:4063   */\n      0x40\n        /* \"#utility.yul\":4056:4059   */\n      dup3\n        /* \"#utility.yul\":4052:4064   */\n      add\n        /* \"#utility.yul\":4045:4064   */\n      swap1\n      pop\n        /* \"#utility.yul\":3704:4070   */\n      swap2\n      swap1\n      pop\n      jump\t// out\n        /* \"#utility.yul\":4076:4442   */\n    tag_154:\n        /* \"#utility.yul\":4218:4221   */\n      0x00\n        /* \"#utility.yul\":4239:4306   */\n      tag_156\n        /* \"#utility.yul\":4303:4305   */\n      0x20\n        /* \"#utility.yul\":4298:4301   */\n      dup4\n        /* \"#utility.yul\":4239:4306   */\n      tag_151\n      jump\t// in\n    tag_156:\n        /* \"#utility.yul\":4232:4306   */\n      swap2\n      pop\n        /* \"#utility.yul\":4315:4408   */\n      tag_157\n        /* \"#utility.yul\":4404:4407   */\n      dup3\n        /* \"#utility.yul\":4315:4408   */\n      tag_158\n      jump\t// in\n    tag_157:\n        /* \"#utility.yul\":4433:4435   */\n      0x20\n        /* \"#utility.yul\":4428:4431   */\n      dup3\n        /* \"#utility.yul\":4424:4436   */\n      add\n        /* \"#utility.yul\":4417:4436   */\n      swap1\n      pop\n        /* \"#utility.yul\":4076:4442   */\n      swap2\n      swap1\n      pop\n      jump\t// out\n        /* \"#utility.yul\":4448:4566   */\n    tag_159:\n        /* \"#utility.yul\":4535:4559   */\n      tag_161\n        /* \"#utility.yul\":4553:4558   */\n      dup2\n        /* \"#utility.yul\":4535:4559   */\n      tag_162\n      jump\t// in\n    tag_161:\n        /* \"#utility.yul\":4530:4533   */\n      dup3\n        /* \"#utility.yul\":4523:4560   */\n      mstore\n        /* \"#utility.yul\":4448:4566   */\n      pop\n      pop\n      jump\t// out\n        /* \"#utility.yul\":4572:4729   */\n    tag_163:\n        /* \"#utility.yul\":4677:4722   */\n      tag_165\n        /* \"#utility.yul\":4697:4721   */\n      tag_166\n        /* \"#utility.yul\":4715:4720   */\n      dup3\n        /* \"#utility.yul\":4697:4721   */\n      tag_162\n      jump\t// in\n    tag_166:\n        /* \"#utility.yul\":4677:4722   */\n      tag_167\n      jump\t// in\n    tag_165:\n        /* \"#utility.yul\":4672:4675   */\n      dup3\n        /* \"#utility.yul\":4665:4723   */\n      mstore\n        /* \"#utility.yul\":4572:4729   */\n      pop\n      pop\n      jump\t// out\n        /* \"#utility.yul\":4735:5449   */\n    tag_53:\n        /* \"#utility.yul\":4959:4962   */\n      0x00\n        /* \"#utility.yul\":4974:5049   */\n      tag_169\n        /* \"#utility.yul\":5045:5048   */\n      dup3\n        /* \"#utility.yul\":5036:5042   */\n      dup9\n        /* \"#utility.yul\":4974:5049   */\n      tag_121\n      jump\t// in\n    tag_169:\n        /* \"#utility.yul\":5074:5076   */\n      0x14\n        /* \"#utility.yul\":5069:5072   */\n      dup3\n        /* \"#utility.yul\":5065:5077   */\n      add\n        /* \"#utility.yul\":5058:5077   */\n      swap2\n      pop\n        /* \"#utility.yul\":5087:5162   */\n      tag_170\n        /* \"#utility.yul\":5158:5161   */\n      dup3\n        /* \"#utility.yul\":5149:5155   */\n      dup8\n        /* \"#utility.yul\":5087:5162   */\n      tag_121\n      jump\t// in\n    tag_170:\n        /* \"#utility.yul\":5187:5189   */\n      0x14\n        /* \"#utility.yul\":5182:5185   */\n      dup3\n        /* \"#utility.yul\":5178:5190   */\n      add\n        /* \"#utility.yul\":5171:5190   */\n      swap2\n      pop\n        /* \"#utility.yul\":5200:5275   */\n      tag_171\n        /* \"#utility.yul\":5271:5274   */\n      dup3\n        /* \"#utility.yul\":5262:5268   */\n      dup7\n        /* \"#utility.yul\":5200:5275   */\n      tag_163\n      jump\t// in\n    tag_171:\n        /* \"#utility.yul\":5300:5302   */\n      0x20\n        /* \"#utility.yul\":5295:5298   */\n      dup3\n        /* \"#utility.yul\":5291:5303   */\n      add\n        /* \"#utility.yul\":5284:5303   */\n      swap2\n      pop\n        /* \"#utility.yul\":5320:5423   */\n      tag_172\n        /* \"#utility.yul\":5419:5422   */\n      dup3\n        /* \"#utility.yul\":5410:5416   */\n      dup5\n        /* \"#utility.yul\":5402:5408   */\n      dup7\n        /* \"#utility.yul\":5320:5423   */\n      tag_134\n      jump\t// in\n    tag_172:\n        /* \"#utility.yul\":5313:5423   */\n      swap2\n      pop\n        /* \"#utility.yul\":5440:5443   */\n      dup2\n        /* \"#utility.yul\":5433:5443   */\n      swap1\n      pop\n        /* \"#utility.yul\":4735:5449   */\n      swap7\n      swap6\n      pop\n      pop\n      pop\n      pop\n      pop\n      pop\n      jump\t// out\n        /* \"#utility.yul\":5455:5677   */\n    tag_32:\n        /* \"#utility.yul\":5548:5552   */\n      0x00\n        /* \"#utility.yul\":5586:5588   */\n      0x20\n        /* \"#utility.yul\":5575:5584   */\n      dup3\n        /* \"#utility.yul\":5571:5589   */\n      add\n        /* \"#utility.yul\":5563:5589   */\n      swap1\n      pop\n        /* \"#utility.yul\":5599:5670   */\n      tag_174\n        /* \"#utility.yul\":5667:5668   */\n      0x00\n        /* \"#utility.yul\":5656:5665   */\n      dup4\n        /* \"#utility.yul\":5652:5669   */\n      add\n        /* \"#utility.yul\":5643:5649   */\n      dup5\n        /* \"#utility.yul\":5599:5670   */\n      tag_117\n      jump\t// in\n    tag_174:\n        /* \"#utility.yul\":5455:5677   */\n      swap3\n      swap2\n      pop\n      pop\n      jump\t// out\n        /* \"#utility.yul\":5683:5893   */\n    tag_22:\n        /* \"#utility.yul\":5770:5774   */\n      0x00\n        /* \"#utility.yul\":5808:5810   */\n      0x20\n        /* \"#utility.yul\":5797:5806   */\n      dup3\n        /* \"#utility.yul\":5793:5811   */\n      add\n        /* \"#utility.yul\":5785:5811   */\n      swap1\n      pop\n        /* \"#utility.yul\":5821:5886   */\n      tag_176\n        /* \"#utility.yul\":5883:5884   */\n      0x00\n        /* \"#utility.yul\":5872:5881   */\n      dup4\n        /* \"#utility.yul\":5868:5885   */\n      add\n        /* \"#utility.yul\":5859:5865   */\n      dup5\n        /* \"#utility.yul\":5821:5886   */\n      tag_126\n      jump\t// in\n    tag_176:\n        /* \"#utility.yul\":5683:5893   */\n      swap3\n      swap2\n      pop\n      pop\n      jump\t// out\n        /* \"#utility.yul\":5899:6117   */\n    tag_18:\n        /* \"#utility.yul\":5990:5994   */\n      0x00\n        /* \"#utility.yul\":6028:6030   */\n      0x20\n        /* \"#utility.yul\":6017:6026   */\n      dup3\n        /* \"#utility.yul\":6013:6031   */\n      add\n        /* \"#utility.yul\":6005:6031   */\n      swap1\n      pop\n        /* \"#utility.yul\":6041:6110   */\n      tag_178\n        /* \"#utility.yul\":6107:6108   */\n      0x00\n        /* \"#utility.yul\":6096:6105   */\n      dup4\n        /* \"#utility.yul\":6092:6109   */\n      add\n        /* \"#utility.yul\":6083:6089   */\n      dup5\n        /* \"#utility.yul\":6041:6110   */\n      tag_130\n      jump\t// in\n    tag_178:\n        /* \"#utility.yul\":5899:6117   */\n      swap3\n      swap2\n      pop\n      pop\n      jump\t// out\n        /* \"#utility.yul\":6123:6373   */\n    tag_47:\n        /* \"#utility.yul\":6230:6234   */\n      0x00\n        /* \"#utility.yul\":6268:6270   */\n      0x20\n        /* \"#utility.yul\":6257:6266   */\n      dup3\n        /* \"#utility.yul\":6253:6271   */\n      add\n        /* \"#utility.yul\":6245:6271   */\n      swap1\n      pop\n        /* \"#utility.yul\":6281:6366   */\n      tag_180\n        /* \"#utility.yul\":6363:6364   */\n      0x00\n        /* \"#utility.yul\":6352:6361   */\n      dup4\n        /* \"#utility.yul\":6348:6365   */\n      add\n        /* \"#utility.yul\":6339:6345   */\n      dup5\n        /* \"#utility.yul\":6281:6366   */\n      tag_140\n      jump\t// in\n    tag_180:\n        /* \"#utility.yul\":6123:6373   */\n      swap3\n      swap2\n      pop\n      pop\n      jump\t// out\n        /* \"#utility.yul\":6379:6631   */\n    tag_28:\n        /* \"#utility.yul\":6487:6491   */\n      0x00\n        /* \"#utility.yul\":6525:6527   */\n      0x20\n        /* \"#utility.yul\":6514:6523   */\n      dup3\n        /* \"#utility.yul\":6510:6528   */\n      add\n        /* \"#utility.yul\":6502:6528   */\n      swap1\n      pop\n        /* \"#utility.yul\":6538:6624   */\n      tag_182\n        /* \"#utility.yul\":6621:6622   */\n      0x00\n        /* \"#utility.yul\":6610:6619   */\n      dup4\n        /* \"#utility.yul\":6606:6623   */\n      add\n        /* \"#utility.yul\":6597:6603   */\n      dup5\n        /* \"#utility.yul\":6538:6624   */\n      tag_144\n      jump\t// in\n    tag_182:\n        /* \"#utility.yul\":6379:6631   */\n      swap3\n      swap2\n      pop\n      pop\n      jump\t// out\n        /* \"#utility.yul\":6637:7056   */\n    tag_67:\n        /* \"#utility.yul\":6803:6807   */\n      0x00\n        /* \"#utility.yul\":6841:6843   */\n      0x20\n        /* \"#utility.yul\":6830:6839   */\n      dup3\n        /* \"#utility.yul\":6826:6844   */\n      add\n        /* \"#utility.yul\":6818:6844   */\n      swap1\n      pop\n        /* \"#utility.yul\":6890:6899   */\n      dup2\n        /* \"#utility.yul\":6884:6888   */\n      dup2\n        /* \"#utility.yul\":6880:6900   */\n      sub\n        /* \"#utility.yul\":6876:6877   */\n      0x00\n        /* \"#utility.yul\":6865:6874   */\n      dup4\n        /* \"#utility.yul\":6861:6878   */\n      add\n        /* \"#utility.yul\":6854:6901   */\n      mstore\n        /* \"#utility.yul\":6918:7049   */\n      tag_184\n        /* \"#utility.yul\":7044:7048   */\n      dup2\n        /* \"#utility.yul\":6918:7049   */\n      tag_148\n      jump\t// in\n    tag_184:\n        /* \"#utility.yul\":6910:7049   */\n      swap1\n      pop\n        /* \"#utility.yul\":6637:7056   */\n      swap2\n      swap1\n      pop\n      jump\t// out\n        /* \"#utility.yul\":7062:7481   */\n    tag_75:\n        /* \"#utility.yul\":7228:7232   */\n      0x00\n        /* \"#utility.yul\":7266:7268   */\n      0x20\n        /* \"#utility.yul\":7255:7264   */\n      dup3\n        /* \"#utility.yul\":7251:7269   */\n      add\n        /* \"#utility.yul\":7243:7269   */\n      swap1\n      pop\n        /* \"#utility.yul\":7315:7324   */\n      dup2\n        /* \"#utility.yul\":7309:7313   */\n      dup2\n        /* \"#utility.yul\":7305:7325   */\n      sub\n        /* \"#utility.yul\":7301:7302   */\n      0x00\n        /* \"#utility.yul\":7290:7299   */\n      dup4\n        /* \"#utility.yul\":7286:7303   */\n      add\n        /* \"#utility.yul\":7279:7326   */\n      mstore\n        /* \"#utility.yul\":7343:7474   */\n      tag_186\n        /* \"#utility.yul\":7469:7473   */\n      dup2\n        /* \"#utility.yul\":7343:7474   */\n      tag_154\n      jump\t// in\n    tag_186:\n        /* \"#utility.yul\":7335:7474   */\n      swap1\n      pop\n        /* \"#utility.yul\":7062:7481   */\n      swap2\n      swap1\n      pop\n      jump\t// out\n        /* \"#utility.yul\":7487:7929   */\n    tag_38:\n        /* \"#utility.yul\":7636:7640   */\n      0x00\n        /* \"#utility.yul\":7674:7676   */\n      0x60\n        /* \"#utility.yul\":7663:7672   */\n      dup3\n        /* \"#utility.yul\":7659:7677   */\n      add\n        /* \"#utility.yul\":7651:7677   */\n      swap1\n      pop\n        /* \"#utility.yul\":7687:7758   */\n      tag_188\n        /* \"#utility.yul\":7755:7756   */\n      0x00\n        /* \"#utility.yul\":7744:7753   */\n      dup4\n        /* \"#utility.yul\":7740:7757   */\n      add\n        /* \"#utility.yul\":7731:7737   */\n      dup7\n        /* \"#utility.yul\":7687:7758   */\n      tag_159\n      jump\t// in\n    tag_188:\n        /* \"#utility.yul\":7768:7840   */\n      tag_189\n        /* \"#utility.yul\":7836:7838   */\n      0x20\n        /* \"#utility.yul\":7825:7834   */\n      dup4\n        /* \"#utility.yul\":7821:7839   */\n      add\n        /* \"#utility.yul\":7812:7818   */\n      dup6\n        /* \"#utility.yul\":7768:7840   */\n      tag_159\n      jump\t// in\n    tag_189:\n        /* \"#utility.yul\":7850:7922   */\n      tag_190\n        /* \"#utility.yul\":7918:7920   */\n      0x40\n        /* \"#utility.yul\":7907:7916   */\n      dup4\n        /* \"#utility.yul\":7903:7921   */\n      add\n        /* \"#utility.yul\":7894:7900   */\n      dup5\n        /* \"#utility.yul\":7850:7922   */\n      tag_159\n      jump\t// in\n    tag_190:\n        /* \"#utility.yul\":7487:7929   */\n      swap5\n      swap4\n      pop\n      pop\n      pop\n      pop\n      jump\t// out\n        /* \"#utility.yul\":8016:8163   */\n    tag_137:\n        /* \"#utility.yul\":8117:8128   */\n      0x00\n        /* \"#utility.yul\":8154:8157   */\n      dup2\n        /* \"#utility.yul\":8139:8157   */\n      swap1\n      pop\n        /* \"#utility.yul\":8016:8163   */\n      swap3\n      swap2\n      pop\n      pop\n      jump\t// out\n        /* \"#utility.yul\":8169:8338   */\n    tag_151:\n        /* \"#utility.yul\":8253:8264   */\n      0x00\n        /* \"#utility.yul\":8287:8293   */\n      dup3\n        /* \"#utility.yul\":8282:8285   */\n      dup3\n        /* \"#utility.yul\":8275:8294   */\n      mstore\n        /* \"#utility.yul\":8327:8331   */\n      0x20\n        /* \"#utility.yul\":8322:8325   */\n      dup3\n        /* \"#utility.yul\":8318:8332   */\n      add\n        /* \"#utility.yul\":8303:8332   */\n      swap1\n      pop\n        /* \"#utility.yul\":8169:8338   */\n      swap3\n      swap2\n      pop\n      pop\n      jump\t// out\n        /* \"#utility.yul\":8344:8440   */\n    tag_120:\n        /* \"#utility.yul\":8381:8388   */\n      0x00\n        /* \"#utility.yul\":8410:8434   */\n      tag_196\n        /* \"#utility.yul\":8428:8433   */\n      dup3\n        /* \"#utility.yul\":8410:8434   */\n      tag_197\n      jump\t// in\n    tag_196:\n        /* \"#utility.yul\":8399:8434   */\n      swap1\n      pop\n        /* \"#utility.yul\":8344:8440   */\n      swap2\n      swap1\n      pop\n      jump\t// out\n        /* \"#utility.yul\":8446:8536   */\n    tag_129:\n        /* \"#utility.yul\":8480:8487   */\n      0x00\n        /* \"#utility.yul\":8523:8528   */\n      dup2\n        /* \"#utility.yul\":8516:8529   */\n      iszero\n        /* \"#utility.yul\":8509:8530   */\n      iszero\n        /* \"#utility.yul\":8498:8530   */\n      swap1\n      pop\n        /* \"#utility.yul\":8446:8536   */\n      swap2\n      swap1\n      pop\n      jump\t// out\n        /* \"#utility.yul\":8542:8691   */\n    tag_133:\n        /* \"#utility.yul\":8578:8585   */\n      0x00\n        /* \"#utility.yul\":8618:8684   */\n      0xffffffff00000000000000000000000000000000000000000000000000000000\n        /* \"#utility.yul\":8611:8616   */\n      dup3\n        /* \"#utility.yul\":8607:8685   */\n      and\n        /* \"#utility.yul\":8596:8685   */\n      swap1\n      pop\n        /* \"#utility.yul\":8542:8691   */\n      swap2\n      swap1\n      pop\n      jump\t// out\n        /* \"#utility.yul\":8697:8823   */\n    tag_197:\n        /* \"#utility.yul\":8734:8741   */\n      0x00\n        /* \"#utility.yul\":8774:8816   */\n      0xffffffffffffffffffffffffffffffffffffffff\n        /* \"#utility.yul\":8767:8772   */\n      dup3\n        /* \"#utility.yul\":8763:8817   */\n      and\n        /* \"#utility.yul\":8752:8817   */\n      swap1\n      pop\n        /* \"#utility.yul\":8697:8823   */\n      swap2\n      swap1\n      pop\n      jump\t// out\n        /* \"#utility.yul\":8829:8906   */\n    tag_162:\n        /* \"#utility.yul\":8866:8873   */\n      0x00\n        /* \"#utility.yul\":8895:8900   */\n      dup2\n        /* \"#utility.yul\":8884:8900   */\n      swap1\n      pop\n        /* \"#utility.yul\":8829:8906   */\n      swap2\n      swap1\n      pop\n      jump\t// out\n        /* \"#utility.yul\":8912:9052   */\n    tag_143:\n        /* \"#utility.yul\":8976:8985   */\n      0x00\n        /* \"#utility.yul\":9009:9046   */\n      tag_203\n        /* \"#utility.yul\":9040:9045   */\n      dup3\n        /* \"#utility.yul\":9009:9046   */\n      tag_204\n      jump\t// in\n    tag_203:\n        /* \"#utility.yul\":8996:9046   */\n      swap1\n      pop\n        /* \"#utility.yul\":8912:9052   */\n      swap2\n      swap1\n      pop\n      jump\t// out\n        /* \"#utility.yul\":9058:9199   */\n    tag_147:\n        /* \"#utility.yul\":9123:9132   */\n      0x00\n        /* \"#utility.yul\":9156:9193   */\n      tag_206\n        /* \"#utility.yul\":9187:9192   */\n      dup3\n        /* \"#utility.yul\":9156:9193   */\n      tag_204\n      jump\t// in\n    tag_206:\n        /* \"#utility.yul\":9143:9193   */\n      swap1\n      pop\n        /* \"#utility.yul\":9058:9199   */\n      swap2\n      swap1\n      pop\n      jump\t// out\n        /* \"#utility.yul\":9205:9331   */\n    tag_204:\n        /* \"#utility.yul\":9255:9264   */\n      0x00\n        /* \"#utility.yul\":9288:9325   */\n      tag_208\n        /* \"#utility.yul\":9319:9324   */\n      dup3\n        /* \"#utility.yul\":9288:9325   */\n      tag_209\n      jump\t// in\n    tag_208:\n        /* \"#utility.yul\":9275:9325   */\n      swap1\n      pop\n        /* \"#utility.yul\":9205:9331   */\n      swap2\n      swap1\n      pop\n      jump\t// out\n        /* \"#utility.yul\":9337:9450   */\n    tag_209:\n        /* \"#utility.yul\":9387:9396   */\n      0x00\n        /* \"#utility.yul\":9420:9444   */\n      tag_211\n        /* \"#utility.yul\":9438:9443   */\n      dup3\n        /* \"#utility.yul\":9420:9444   */\n      tag_197\n      jump\t// in\n    tag_211:\n        /* \"#utility.yul\":9407:9444   */\n      swap1\n      pop\n        /* \"#utility.yul\":9337:9450   */\n      swap2\n      swap1\n      pop\n      jump\t// out\n        /* \"#utility.yul\":9456:9610   */\n    tag_139:\n        /* \"#utility.yul\":9540:9546   */\n      dup3\n        /* \"#utility.yul\":9535:9538   */\n      dup2\n        /* \"#utility.yul\":9530:9533   */\n      dup4\n        /* \"#utility.yul\":9517:9547   */\n      calldatacopy\n        /* \"#utility.yul\":9602:9603   */\n      0x00\n        /* \"#utility.yul\":9593:9599   */\n      dup4\n        /* \"#utility.yul\":9588:9591   */\n      dup4\n        /* \"#utility.yul\":9584:9600   */\n      add\n        /* \"#utility.yul\":9577:9604   */\n      mstore\n        /* \"#utility.yul\":9456:9610   */\n      pop\n      pop\n      pop\n      jump\t// out\n        /* \"#utility.yul\":9616:9716   */\n    tag_125:\n        /* \"#utility.yul\":9655:9662   */\n      0x00\n        /* \"#utility.yul\":9684:9710   */\n      tag_214\n        /* \"#utility.yul\":9704:9709   */\n      dup3\n        /* \"#utility.yul\":9684:9710   */\n      tag_215\n      jump\t// in\n    tag_214:\n        /* \"#utility.yul\":9673:9710   */\n      swap1\n      pop\n        /* \"#utility.yul\":9616:9716   */\n      swap2\n      swap1\n      pop\n      jump\t// out\n        /* \"#utility.yul\":9722:9816   */\n    tag_215:\n        /* \"#utility.yul\":9761:9768   */\n      0x00\n        /* \"#utility.yul\":9790:9810   */\n      tag_217\n        /* \"#utility.yul\":9804:9809   */\n      dup3\n        /* \"#utility.yul\":9790:9810   */\n      tag_218\n      jump\t// in\n    tag_217:\n        /* \"#utility.yul\":9779:9810   */\n      swap1\n      pop\n        /* \"#utility.yul\":9722:9816   */\n      swap2\n      swap1\n      pop\n      jump\t// out\n        /* \"#utility.yul\":9822:9901   */\n    tag_167:\n        /* \"#utility.yul\":9861:9868   */\n      0x00\n        /* \"#utility.yul\":9890:9895   */\n      dup2\n        /* \"#utility.yul\":9879:9895   */\n      swap1\n      pop\n        /* \"#utility.yul\":9822:9901   */\n      swap2\n      swap1\n      pop\n      jump\t// out\n        /* \"#utility.yul\":9907:10024   */\n    tag_90:\n        /* \"#utility.yul\":10016:10017   */\n      0x00\n        /* \"#utility.yul\":10013:10014   */\n      dup1\n        /* \"#utility.yul\":10006:10018   */\n      revert\n        /* \"#utility.yul\":10030:10147   */\n    tag_87:\n        /* \"#utility.yul\":10139:10140   */\n      0x00\n        /* \"#utility.yul\":10136:10137   */\n      dup1\n        /* \"#utility.yul\":10129:10141   */\n      revert\n        /* \"#utility.yul\":10153:10270   */\n    tag_93:\n        /* \"#utility.yul\":10262:10263   */\n      0x00\n        /* \"#utility.yul\":10259:10260   */\n      dup1\n        /* \"#utility.yul\":10252:10264   */\n      revert\n        /* \"#utility.yul\":10276:10393   */\n    tag_111:\n        /* \"#utility.yul\":10385:10386   */\n      0x00\n        /* \"#utility.yul\":10382:10383   */\n      dup1\n        /* \"#utility.yul\":10375:10387   */\n      revert\n        /* \"#utility.yul\":10399:10516   */\n    tag_101:\n        /* \"#utility.yul\":10508:10509   */\n      0x00\n        /* \"#utility.yul\":10505:10506   */\n      dup1\n        /* \"#utility.yul\":10498:10510   */\n      revert\n        /* \"#utility.yul\":10522:10616   */\n    tag_218:\n        /* \"#utility.yul\":10555:10563   */\n      0x00\n        /* \"#utility.yul\":10603:10608   */\n      dup2\n        /* \"#utility.yul\":10599:10601   */\n      0x60\n        /* \"#utility.yul\":10595:10609   */\n      shl\n        /* \"#utility.yul\":10574:10609   */\n      swap1\n      pop\n        /* \"#utility.yul\":10522:10616   */\n      swap2\n      swap1\n      pop\n      jump\t// out\n        /* \"#utility.yul\":10622:10847   */\n    tag_153:\n        /* \"#utility.yul\":10762:10796   */\n      0x4f776e61626c653a206e6577206f776e657220697320746865207a65726f2061\n        /* \"#utility.yul\":10758:10759   */\n      0x00\n        /* \"#utility.yul\":10750:10756   */\n      dup3\n        /* \"#utility.yul\":10746:10760   */\n      add\n        /* \"#utility.yul\":10739:10797   */\n      mstore\n        /* \"#utility.yul\":10831:10839   */\n      0x6464726573730000000000000000000000000000000000000000000000000000\n        /* \"#utility.yul\":10826:10828   */\n      0x20\n        /* \"#utility.yul\":10818:10824   */\n      dup3\n        /* \"#utility.yul\":10814:10829   */\n      add\n        /* \"#utility.yul\":10807:10840   */\n      mstore\n        /* \"#utility.yul\":10622:10847   */\n      pop\n      jump\t// out\n        /* \"#utility.yul\":10853:11035   */\n    tag_158:\n        /* \"#utility.yul\":10993:11027   */\n      0x4f776e61626c653a2063616c6c6572206973206e6f7420746865206f776e6572\n        /* \"#utility.yul\":10989:10990   */\n      0x00\n        /* \"#utility.yul\":10981:10987   */\n      dup3\n        /* \"#utility.yul\":10977:10991   */\n      add\n        /* \"#utility.yul\":10970:11028   */\n      mstore\n        /* \"#utility.yul\":10853:11035   */\n      pop\n      jump\t// out\n        /* \"#utility.yul\":11041:11163   */\n    tag_82:\n        /* \"#utility.yul\":11114:11138   */\n      tag_229\n        /* \"#utility.yul\":11132:11137   */\n      dup2\n        /* \"#utility.yul\":11114:11138   */\n      tag_120\n      jump\t// in\n    tag_229:\n        /* \"#utility.yul\":11107:11112   */\n      dup2\n        /* \"#utility.yul\":11104:11139   */\n      eq\n        /* \"#utility.yul\":11094:11157   */\n      tag_230\n      jumpi\n        /* \"#utility.yul\":11153:11154   */\n      0x00\n        /* \"#utility.yul\":11150:11151   */\n      dup1\n        /* \"#utility.yul\":11143:11155   */\n      revert\n        /* \"#utility.yul\":11094:11157   */\n    tag_230:\n        /* \"#utility.yul\":11041:11163   */\n      pop\n      jump\t// out\n        /* \"#utility.yul\":11169:11291   */\n    tag_97:\n        /* \"#utility.yul\":11242:11266   */\n      tag_232\n        /* \"#utility.yul\":11260:11265   */\n      dup2\n        /* \"#utility.yul\":11242:11266   */\n      tag_162\n      jump\t// in\n    tag_232:\n        /* \"#utility.yul\":11235:11240   */\n      dup2\n        /* \"#utility.yul\":11232:11267   */\n      eq\n        /* \"#utility.yul\":11222:11285   */\n      tag_233\n      jumpi\n        /* \"#utility.yul\":11281:11282   */\n      0x00\n        /* \"#utility.yul\":11278:11279   */\n      dup1\n        /* \"#utility.yul\":11271:11283   */\n      revert\n        /* \"#utility.yul\":11222:11285   */\n    tag_233:\n        /* \"#utility.yul\":11169:11291   */\n      pop\n      jump\t// out\n\n    auxdata: 0xa2646970667358221220c2ee0624c49719d7150044fa99f22c37b91cba16e07c63e0be3bb4e029ab4ea764736f6c63430008070033\n}\n",
				"bytecode": {
					"linkReferences": {},
					"object": "6080604052620186a06004553480156200001857600080fd5b5060405162000dcb38038062000dcb83398181016040528101906200003e919062000223565b60016000819055506000600160006101000a81548160ff02191690831515021790555062000081620000756200011360201b60201c565b6200011b60201b60201c565b82600360006101000a81548173ffffffffffffffffffffffffffffffffffffffff021916908373ffffffffffffffffffffffffffffffffffffffff16021790555081600260006101000a81548173ffffffffffffffffffffffffffffffffffffffff021916908373ffffffffffffffffffffffffffffffffffffffff1602179055508060048190555050505062000338565b600033905090565b600060018054906101000a900473ffffffffffffffffffffffffffffffffffffffff169050816001806101000a81548173ffffffffffffffffffffffffffffffffffffffff021916908373ffffffffffffffffffffffffffffffffffffffff1602179055508173ffffffffffffffffffffffffffffffffffffffff168173ffffffffffffffffffffffffffffffffffffffff167f8be0079c531659141344cd1fd0a4f28419497f9722a3daafe3b4186f6b6457e060405160405180910390a35050565b600081519050620001ef81620002ea565b92915050565b600081519050620002068162000304565b92915050565b6000815190506200021d816200031e565b92915050565b6000806000606084860312156200023f576200023e620002e5565b5b60006200024f86828701620001f5565b93505060206200026286828701620001de565b925050604062000275868287016200020c565b9150509250925092565b60006200028c82620002bb565b9050919050565b6000620002a0826200027f565b9050919050565b6000620002b4826200027f565b9050919050565b600073ffffffffffffffffffffffffffffffffffffffff82169050919050565b6000819050919050565b600080fd5b620002f58162000293565b81146200030157600080fd5b50565b6200030f81620002a7565b81146200031b57600080fd5b50565b6200032981620002db565b81146200033557600080fd5b50565b610a8380620003486000396000f3fe608060405234801561001057600080fd5b50600436106100935760003560e01c80638da5cb5b116100665780638da5cb5b1461010e5780639168ae721461012c578063940670451461015e578063d1af0c7d1461018e578063f2fde38b146101ac57610093565b8063150b7a02146100985780635c975abb146100c8578063715018a6146100e65780637f544728146100f0575b600080fd5b6100b260048036038101906100ad919061057a565b6101c8565b6040516100bf91906107a4565b60405180910390f35b6100d0610204565b6040516100dd9190610789565b60405180910390f35b6100ee61021b565b005b6100f861022f565b60405161010591906107da565b60405180910390f35b610116610255565b604051610123919061076e565b60405180910390f35b6101466004803603810190610141919061054d565b61027d565b60405161015593929190610835565b60405180910390f35b61017860048036038101906101739190610602565b6102a7565b604051610185919061076e565b60405180910390f35b6101966102da565b6040516101a391906107bf565b60405180910390f35b6101c660048036038101906101c1919061054d565b610300565b005b600085858585856040516020016101e3959493929190610722565b60405160208183030381529060405280519060200120905095945050505050565b6000600160009054906101000a900460ff16905090565b610223610384565b61022d6000610402565b565b600360009054906101000a900473ffffffffffffffffffffffffffffffffffffffff1681565b600060018054906101000a900473ffffffffffffffffffffffffffffffffffffffff16905090565b60056020528060005260406000206000915090508060000154908060020154908060030154905083565b60066020528060005260406000206000915054906101000a900473ffffffffffffffffffffffffffffffffffffffff1681565b600260009054906101000a900473ffffffffffffffffffffffffffffffffffffffff1681565b610308610384565b600073ffffffffffffffffffffffffffffffffffffffff168173ffffffffffffffffffffffffffffffffffffffff161415610378576040517f08c379a000000000000000000000000000000000000000000000000000000000815260040161036f906107f5565b60405180910390fd5b61038181610402565b50565b61038c6104c5565b73ffffffffffffffffffffffffffffffffffffffff166103aa610255565b73ffffffffffffffffffffffffffffffffffffffff1614610400576040517f08c379a00000000000000000000000000000000000000000000000000000000081526004016103f790610815565b60405180910390fd5b565b600060018054906101000a900473ffffffffffffffffffffffffffffffffffffffff169050816001806101000a81548173ffffffffffffffffffffffffffffffffffffffff021916908373ffffffffffffffffffffffffffffffffffffffff1602179055508173ffffffffffffffffffffffffffffffffffffffff168173ffffffffffffffffffffffffffffffffffffffff167f8be0079c531659141344cd1fd0a4f28419497f9722a3daafe3b4186f6b6457e060405160405180910390a35050565b600033905090565b6000813590506104dc81610a1f565b92915050565b60008083601f8401126104f8576104f7610986565b5b8235905067ffffffffffffffff81111561051557610514610981565b5b6020830191508360018202830111156105315761053061098b565b5b9250929050565b60008135905061054781610a36565b92915050565b60006020828403121561056357610562610995565b5b6000610571848285016104cd565b91505092915050565b60008060008060006080868803121561059657610595610995565b5b60006105a4888289016104cd565b95505060206105b5888289016104cd565b94505060406105c688828901610538565b935050606086013567ffffffffffffffff8111156105e7576105e6610990565b5b6105f3888289016104e2565b92509250509295509295909350565b60006020828403121561061857610617610995565b5b600061062684828501610538565b91505092915050565b61063881610888565b82525050565b61064f61064a82610888565b610953565b82525050565b61065e8161089a565b82525050565b61066d816108a6565b82525050565b600061067f838561086c565b935061068c838584610944565b82840190509392505050565b6106a1816108fc565b82525050565b6106b08161090e565b82525050565b60006106c3602683610877565b91506106ce826109a7565b604082019050919050565b60006106e6602083610877565b91506106f1826109f6565b602082019050919050565b610705816108f2565b82525050565b61071c610717826108f2565b610977565b82525050565b600061072e828861063e565b60148201915061073e828761063e565b60148201915061074e828661070b565b60208201915061075f828486610673565b91508190509695505050505050565b6000602082019050610783600083018461062f565b92915050565b600060208201905061079e6000830184610655565b92915050565b60006020820190506107b96000830184610664565b92915050565b60006020820190506107d46000830184610698565b92915050565b60006020820190506107ef60008301846106a7565b92915050565b6000602082019050818103600083015261080e816106b6565b9050919050565b6000602082019050818103600083015261082e816106d9565b9050919050565b600060608201905061084a60008301866106fc565b61085760208301856106fc565b61086460408301846106fc565b949350505050565b600081905092915050565b600082825260208201905092915050565b6000610893826108d2565b9050919050565b60008115159050919050565b60007fffffffff0000000000000000000000000000000000000000000000000000000082169050919050565b600073ffffffffffffffffffffffffffffffffffffffff82169050919050565b6000819050919050565b600061090782610920565b9050919050565b600061091982610920565b9050919050565b600061092b82610932565b9050919050565b600061093d826108d2565b9050919050565b82818337600083830152505050565b600061095e82610965565b9050919050565b60006109708261099a565b9050919050565b6000819050919050565b600080fd5b600080fd5b600080fd5b600080fd5b600080fd5b60008160601b9050919050565b7f4f776e61626c653a206e6577206f776e657220697320746865207a65726f206160008201527f6464726573730000000000000000000000000000000000000000000000000000602082015250565b7f4f776e61626c653a2063616c6c6572206973206e6f7420746865206f776e6572600082015250565b610a2881610888565b8114610a3357600080fd5b50565b610a3f816108f2565b8114610a4a57600080fd5b5056fea2646970667358221220c2ee0624c49719d7150044fa99f22c37b91cba16e07c63e0be3bb4e029ab4ea764736f6c63430008070033",
					"opcodes": "PUSH1 0x80 PUSH1 0x40 MSTORE PUSH3 0x186A0 PUSH1 0x4 SSTORE CALLVALUE DUP1 ISZERO PUSH3 0x18 JUMPI PUSH1 0x0 DUP1 REVERT JUMPDEST POP PUSH1 0x40 MLOAD PUSH3 0xDCB CODESIZE SUB DUP1 PUSH3 0xDCB DUP4 CODECOPY DUP2 DUP2 ADD PUSH1 0x40 MSTORE DUP2 ADD SWAP1 PUSH3 0x3E SWAP2 SWAP1 PUSH3 0x223 JUMP JUMPDEST PUSH1 0x1 PUSH1 0x0 DUP2 SWAP1 SSTORE POP PUSH1 0x0 PUSH1 0x1 PUSH1 0x0 PUSH2 0x100 EXP DUP2 SLOAD DUP2 PUSH1 0xFF MUL NOT AND SWAP1 DUP4 ISZERO ISZERO MUL OR SWAP1 SSTORE POP PUSH3 0x81 PUSH3 0x75 PUSH3 0x113 PUSH1 0x20 SHL PUSH1 0x20 SHR JUMP JUMPDEST PUSH3 0x11B PUSH1 0x20 SHL PUSH1 0x20 SHR JUMP JUMPDEST DUP3 PUSH1 0x3 PUSH1 0x0 PUSH2 0x100 EXP DUP2 SLOAD DUP2 PUSH20 0xFFFFFFFFFFFFFFFFFFFFFFFFFFFFFFFFFFFFFFFF MUL NOT AND SWAP1 DUP4 PUSH20 0xFFFFFFFFFFFFFFFFFFFFFFFFFFFFFFFFFFFFFFFF AND MUL OR SWAP1 SSTORE POP DUP2 PUSH1 0x2 PUSH1 0x0 PUSH2 0x100 EXP DUP2 SLOAD DUP2 PUSH20 0xFFFFFFFFFFFFFFFFFFFFFFFFFFFFFFFFFFFFFFFF MUL NOT AND SWAP1 DUP4 PUSH20 0xFFFFFFFFFFFFFFFFFFFFFFFFFFFFFFFFFFFFFFFF AND MUL OR SWAP1 SSTORE POP DUP1 PUSH1 0x4 DUP2 SWAP1 SSTORE POP POP POP POP PUSH3 0x338 JUMP JUMPDEST PUSH1 0x0 CALLER SWAP1 POP SWAP1 JUMP JUMPDEST PUSH1 0x0 PUSH1 0x1 DUP1 SLOAD SWAP1 PUSH2 0x100 EXP SWAP1 DIV PUSH20 0xFFFFFFFFFFFFFFFFFFFFFFFFFFFFFFFFFFFFFFFF AND SWAP1 POP DUP2 PUSH1 0x1 DUP1 PUSH2 0x100 EXP DUP2 SLOAD DUP2 PUSH20 0xFFFFFFFFFFFFFFFFFFFFFFFFFFFFFFFFFFFFFFFF MUL NOT AND SWAP1 DUP4 PUSH20 0xFFFFFFFFFFFFFFFFFFFFFFFFFFFFFFFFFFFFFFFF AND MUL OR SWAP1 SSTORE POP DUP2 PUSH20 0xFFFFFFFFFFFFFFFFFFFFFFFFFFFFFFFFFFFFFFFF AND DUP2 PUSH20 0xFFFFFFFFFFFFFFFFFFFFFFFFFFFFFFFFFFFFFFFF AND PUSH32 0x8BE0079C531659141344CD1FD0A4F28419497F9722A3DAAFE3B4186F6B6457E0 PUSH1 0x40 MLOAD PUSH1 0x40 MLOAD DUP1 SWAP2 SUB SWAP1 LOG3 POP POP JUMP JUMPDEST PUSH1 0x0 DUP2 MLOAD SWAP1 POP PUSH3 0x1EF DUP2 PUSH3 0x2EA JUMP JUMPDEST SWAP3 SWAP2 POP POP JUMP JUMPDEST PUSH1 0x0 DUP2 MLOAD SWAP1 POP PUSH3 0x206 DUP2 PUSH3 0x304 JUMP JUMPDEST SWAP3 SWAP2 POP POP JUMP JUMPDEST PUSH1 0x0 DUP2 MLOAD SWAP1 POP PUSH3 0x21D DUP2 PUSH3 0x31E JUMP JUMPDEST SWAP3 SWAP2 POP POP JUMP JUMPDEST PUSH1 0x0 DUP1 PUSH1 0x0 PUSH1 0x60 DUP5 DUP7 SUB SLT ISZERO PUSH3 0x23F JUMPI PUSH3 0x23E PUSH3 0x2E5 JUMP JUMPDEST JUMPDEST PUSH1 0x0 PUSH3 0x24F DUP7 DUP3 DUP8 ADD PUSH3 0x1F5 JUMP JUMPDEST SWAP4 POP POP PUSH1 0x20 PUSH3 0x262 DUP7 DUP3 DUP8 ADD PUSH3 0x1DE JUMP JUMPDEST SWAP3 POP POP PUSH1 0x40 PUSH3 0x275 DUP7 DUP3 DUP8 ADD PUSH3 0x20C JUMP JUMPDEST SWAP2 POP POP SWAP3 POP SWAP3 POP SWAP3 JUMP JUMPDEST PUSH1 0x0 PUSH3 0x28C DUP3 PUSH3 0x2BB JUMP JUMPDEST SWAP1 POP SWAP2 SWAP1 POP JUMP JUMPDEST PUSH1 0x0 PUSH3 0x2A0 DUP3 PUSH3 0x27F JUMP JUMPDEST SWAP1 POP SWAP2 SWAP1 POP JUMP JUMPDEST PUSH1 0x0 PUSH3 0x2B4 DUP3 PUSH3 0x27F JUMP JUMPDEST SWAP1 POP SWAP2 SWAP1 POP JUMP JUMPDEST PUSH1 0x0 PUSH20 0xFFFFFFFFFFFFFFFFFFFFFFFFFFFFFFFFFFFFFFFF DUP3 AND SWAP1 POP SWAP2 SWAP1 POP JUMP JUMPDEST PUSH1 0x0 DUP2 SWAP1 POP SWAP2 SWAP1 POP JUMP JUMPDEST PUSH1 0x0 DUP1 REVERT JUMPDEST PUSH3 0x2F5 DUP2 PUSH3 0x293 JUMP JUMPDEST DUP2 EQ PUSH3 0x301 JUMPI PUSH1 0x0 DUP1 REVERT JUMPDEST POP JUMP JUMPDEST PUSH3 0x30F DUP2 PUSH3 0x2A7 JUMP JUMPDEST DUP2 EQ PUSH3 0x31B JUMPI PUSH1 0x0 DUP1 REVERT JUMPDEST POP JUMP JUMPDEST PUSH3 0x329 DUP2 PUSH3 0x2DB JUMP JUMPDEST DUP2 EQ PUSH3 0x335 JUMPI PUSH1 0x0 DUP1 REVERT JUMPDEST POP JUMP JUMPDEST PUSH2 0xA83 DUP1 PUSH3 0x348 PUSH1 0x0 CODECOPY PUSH1 0x0 RETURN INVALID PUSH1 0x80 PUSH1 0x40 MSTORE CALLVALUE DUP1 ISZERO PUSH2 0x10 JUMPI PUSH1 0x0 DUP1 REVERT JUMPDEST POP PUSH1 0x4 CALLDATASIZE LT PUSH2 0x93 JUMPI PUSH1 0x0 CALLDATALOAD PUSH1 0xE0 SHR DUP1 PUSH4 0x8DA5CB5B GT PUSH2 0x66 JUMPI DUP1 PUSH4 0x8DA5CB5B EQ PUSH2 0x10E JUMPI DUP1 PUSH4 0x9168AE72 EQ PUSH2 0x12C JUMPI DUP1 PUSH4 0x94067045 EQ PUSH2 0x15E JUMPI DUP1 PUSH4 0xD1AF0C7D EQ PUSH2 0x18E JUMPI DUP1 PUSH4 0xF2FDE38B EQ PUSH2 0x1AC JUMPI PUSH2 0x93 JUMP JUMPDEST DUP1 PUSH4 0x150B7A02 EQ PUSH2 0x98 JUMPI DUP1 PUSH4 0x5C975ABB EQ PUSH2 0xC8 JUMPI DUP1 PUSH4 0x715018A6 EQ PUSH2 0xE6 JUMPI DUP1 PUSH4 0x7F544728 EQ PUSH2 0xF0 JUMPI JUMPDEST PUSH1 0x0 DUP1 REVERT JUMPDEST PUSH2 0xB2 PUSH1 0x4 DUP1 CALLDATASIZE SUB DUP2 ADD SWAP1 PUSH2 0xAD SWAP2 SWAP1 PUSH2 0x57A JUMP JUMPDEST PUSH2 0x1C8 JUMP JUMPDEST PUSH1 0x40 MLOAD PUSH2 0xBF SWAP2 SWAP1 PUSH2 0x7A4 JUMP JUMPDEST PUSH1 0x40 MLOAD DUP1 SWAP2 SUB SWAP1 RETURN JUMPDEST PUSH2 0xD0 PUSH2 0x204 JUMP JUMPDEST PUSH1 0x40 MLOAD PUSH2 0xDD SWAP2 SWAP1 PUSH2 0x789 JUMP JUMPDEST PUSH1 0x40 MLOAD DUP1 SWAP2 SUB SWAP1 RETURN JUMPDEST PUSH2 0xEE PUSH2 0x21B JUMP JUMPDEST STOP JUMPDEST PUSH2 0xF8 PUSH2 0x22F JUMP JUMPDEST PUSH1 0x40 MLOAD PUSH2 0x105 SWAP2 SWAP1 PUSH2 0x7DA JUMP JUMPDEST PUSH1 0x40 MLOAD DUP1 SWAP2 SUB SWAP1 RETURN JUMPDEST PUSH2 0x116 PUSH2 0x255 JUMP JUMPDEST PUSH1 0x40 MLOAD PUSH2 0x123 SWAP2 SWAP1 PUSH2 0x76E JUMP JUMPDEST PUSH1 0x40 MLOAD DUP1 SWAP2 SUB SWAP1 RETURN JUMPDEST PUSH2 0x146 PUSH1 0x4 DUP1 CALLDATASIZE SUB DUP2 ADD SWAP1 PUSH2 0x141 SWAP2 SWAP1 PUSH2 0x54D JUMP JUMPDEST PUSH2 0x27D JUMP JUMPDEST PUSH1 0x40 MLOAD PUSH2 0x155 SWAP4 SWAP3 SWAP2 SWAP1 PUSH2 0x835 JUMP JUMPDEST PUSH1 0x40 MLOAD DUP1 SWAP2 SUB SWAP1 RETURN JUMPDEST PUSH2 0x178 PUSH1 0x4 DUP1 CALLDATASIZE SUB DUP2 ADD SWAP1 PUSH2 0x173 SWAP2 SWAP1 PUSH2 0x602 JUMP JUMPDEST PUSH2 0x2A7 JUMP JUMPDEST PUSH1 0x40 MLOAD PUSH2 0x185 SWAP2 SWAP1 PUSH2 0x76E JUMP JUMPDEST PUSH1 0x40 MLOAD DUP1 SWAP2 SUB SWAP1 RETURN JUMPDEST PUSH2 0x196 PUSH2 0x2DA JUMP JUMPDEST PUSH1 0x40 MLOAD PUSH2 0x1A3 SWAP2 SWAP1 PUSH2 0x7BF JUMP JUMPDEST PUSH1 0x40 MLOAD DUP1 SWAP2 SUB SWAP1 RETURN JUMPDEST PUSH2 0x1C6 PUSH1 0x4 DUP1 CALLDATASIZE SUB DUP2 ADD SWAP1 PUSH2 0x1C1 SWAP2 SWAP1 PUSH2 0x54D JUMP JUMPDEST PUSH2 0x300 JUMP JUMPDEST STOP JUMPDEST PUSH1 0x0 DUP6 DUP6 DUP6 DUP6 DUP6 PUSH1 0x40 MLOAD PUSH1 0x20 ADD PUSH2 0x1E3 SWAP6 SWAP5 SWAP4 SWAP3 SWAP2 SWAP1 PUSH2 0x722 JUMP JUMPDEST PUSH1 0x40 MLOAD PUSH1 0x20 DUP2 DUP4 SUB SUB DUP2 MSTORE SWAP1 PUSH1 0x40 MSTORE DUP1 MLOAD SWAP1 PUSH1 0x20 ADD KECCAK256 SWAP1 POP SWAP6 SWAP5 POP POP POP POP POP JUMP JUMPDEST PUSH1 0x0 PUSH1 0x1 PUSH1 0x0 SWAP1 SLOAD SWAP1 PUSH2 0x100 EXP SWAP1 DIV PUSH1 0xFF AND SWAP1 POP SWAP1 JUMP JUMPDEST PUSH2 0x223 PUSH2 0x384 JUMP JUMPDEST PUSH2 0x22D PUSH1 0x0 PUSH2 0x402 JUMP JUMPDEST JUMP JUMPDEST PUSH1 0x3 PUSH1 0x0 SWAP1 SLOAD SWAP1 PUSH2 0x100 EXP SWAP1 DIV PUSH20 0xFFFFFFFFFFFFFFFFFFFFFFFFFFFFFFFFFFFFFFFF AND DUP2 JUMP JUMPDEST PUSH1 0x0 PUSH1 0x1 DUP1 SLOAD SWAP1 PUSH2 0x100 EXP SWAP1 DIV PUSH20 0xFFFFFFFFFFFFFFFFFFFFFFFFFFFFFFFFFFFFFFFF AND SWAP1 POP SWAP1 JUMP JUMPDEST PUSH1 0x5 PUSH1 0x20 MSTORE DUP1 PUSH1 0x0 MSTORE PUSH1 0x40 PUSH1 0x0 KECCAK256 PUSH1 0x0 SWAP2 POP SWAP1 POP DUP1 PUSH1 0x0 ADD SLOAD SWAP1 DUP1 PUSH1 0x2 ADD SLOAD SWAP1 DUP1 PUSH1 0x3 ADD SLOAD SWAP1 POP DUP4 JUMP JUMPDEST PUSH1 0x6 PUSH1 0x20 MSTORE DUP1 PUSH1 0x0 MSTORE PUSH1 0x40 PUSH1 0x0 KECCAK256 PUSH1 0x0 SWAP2 POP SLOAD SWAP1 PUSH2 0x100 EXP SWAP1 DIV PUSH20 0xFFFFFFFFFFFFFFFFFFFFFFFFFFFFFFFFFFFFFFFF AND DUP2 JUMP JUMPDEST PUSH1 0x2 PUSH1 0x0 SWAP1 SLOAD SWAP1 PUSH2 0x100 EXP SWAP1 DIV PUSH20 0xFFFFFFFFFFFFFFFFFFFFFFFFFFFFFFFFFFFFFFFF AND DUP2 JUMP JUMPDEST PUSH2 0x308 PUSH2 0x384 JUMP JUMPDEST PUSH1 0x0 PUSH20 0xFFFFFFFFFFFFFFFFFFFFFFFFFFFFFFFFFFFFFFFF AND DUP2 PUSH20 0xFFFFFFFFFFFFFFFFFFFFFFFFFFFFFFFFFFFFFFFF AND EQ ISZERO PUSH2 0x378 JUMPI PUSH1 0x40 MLOAD PUSH32 0x8C379A000000000000000000000000000000000000000000000000000000000 DUP2 MSTORE PUSH1 0x4 ADD PUSH2 0x36F SWAP1 PUSH2 0x7F5 JUMP JUMPDEST PUSH1 0x40 MLOAD DUP1 SWAP2 SUB SWAP1 REVERT JUMPDEST PUSH2 0x381 DUP2 PUSH2 0x402 JUMP JUMPDEST POP JUMP JUMPDEST PUSH2 0x38C PUSH2 0x4C5 JUMP JUMPDEST PUSH20 0xFFFFFFFFFFFFFFFFFFFFFFFFFFFFFFFFFFFFFFFF AND PUSH2 0x3AA PUSH2 0x255 JUMP JUMPDEST PUSH20 0xFFFFFFFFFFFFFFFFFFFFFFFFFFFFFFFFFFFFFFFF AND EQ PUSH2 0x400 JUMPI PUSH1 0x40 MLOAD PUSH32 0x8C379A000000000000000000000000000000000000000000000000000000000 DUP2 MSTORE PUSH1 0x4 ADD PUSH2 0x3F7 SWAP1 PUSH2 0x815 JUMP JUMPDEST PUSH1 0x40 MLOAD DUP1 SWAP2 SUB SWAP1 REVERT JUMPDEST JUMP JUMPDEST PUSH1 0x0 PUSH1 0x1 DUP1 SLOAD SWAP1 PUSH2 0x100 EXP SWAP1 DIV PUSH20 0xFFFFFFFFFFFFFFFFFFFFFFFFFFFFFFFFFFFFFFFF AND SWAP1 POP DUP2 PUSH1 0x1 DUP1 PUSH2 0x100 EXP DUP2 SLOAD DUP2 PUSH20 0xFFFFFFFFFFFFFFFFFFFFFFFFFFFFFFFFFFFFFFFF MUL NOT AND SWAP1 DUP4 PUSH20 0xFFFFFFFFFFFFFFFFFFFFFFFFFFFFFFFFFFFFFFFF AND MUL OR SWAP1 SSTORE POP DUP2 PUSH20 0xFFFFFFFFFFFFFFFFFFFFFFFFFFFFFFFFFFFFFFFF AND DUP2 PUSH20 0xFFFFFFFFFFFFFFFFFFFFFFFFFFFFFFFFFFFFFFFF AND PUSH32 0x8BE0079C531659141344CD1FD0A4F28419497F9722A3DAAFE3B4186F6B6457E0 PUSH1 0x40 MLOAD PUSH1 0x40 MLOAD DUP1 SWAP2 SUB SWAP1 LOG3 POP POP JUMP JUMPDEST PUSH1 0x0 CALLER SWAP1 POP SWAP1 JUMP JUMPDEST PUSH1 0x0 DUP2 CALLDATALOAD SWAP1 POP PUSH2 0x4DC DUP2 PUSH2 0xA1F JUMP JUMPDEST SWAP3 SWAP2 POP POP JUMP JUMPDEST PUSH1 0x0 DUP1 DUP4 PUSH1 0x1F DUP5 ADD SLT PUSH2 0x4F8 JUMPI PUSH2 0x4F7 PUSH2 0x986 JUMP JUMPDEST JUMPDEST DUP3 CALLDATALOAD SWAP1 POP PUSH8 0xFFFFFFFFFFFFFFFF DUP2 GT ISZERO PUSH2 0x515 JUMPI PUSH2 0x514 PUSH2 0x981 JUMP JUMPDEST JUMPDEST PUSH1 0x20 DUP4 ADD SWAP2 POP DUP4 PUSH1 0x1 DUP3 MUL DUP4 ADD GT ISZERO PUSH2 0x531 JUMPI PUSH2 0x530 PUSH2 0x98B JUMP JUMPDEST JUMPDEST SWAP3 POP SWAP3 SWAP1 POP JUMP JUMPDEST PUSH1 0x0 DUP2 CALLDATALOAD SWAP1 POP PUSH2 0x547 DUP2 PUSH2 0xA36 JUMP JUMPDEST SWAP3 SWAP2 POP POP JUMP JUMPDEST PUSH1 0x0 PUSH1 0x20 DUP3 DUP5 SUB SLT ISZERO PUSH2 0x563 JUMPI PUSH2 0x562 PUSH2 0x995 JUMP JUMPDEST JUMPDEST PUSH1 0x0 PUSH2 0x571 DUP5 DUP3 DUP6 ADD PUSH2 0x4CD JUMP JUMPDEST SWAP2 POP POP SWAP3 SWAP2 POP POP JUMP JUMPDEST PUSH1 0x0 DUP1 PUSH1 0x0 DUP1 PUSH1 0x0 PUSH1 0x80 DUP7 DUP9 SUB SLT ISZERO PUSH2 0x596 JUMPI PUSH2 0x595 PUSH2 0x995 JUMP JUMPDEST JUMPDEST PUSH1 0x0 PUSH2 0x5A4 DUP9 DUP3 DUP10 ADD PUSH2 0x4CD JUMP JUMPDEST SWAP6 POP POP PUSH1 0x20 PUSH2 0x5B5 DUP9 DUP3 DUP10 ADD PUSH2 0x4CD JUMP JUMPDEST SWAP5 POP POP PUSH1 0x40 PUSH2 0x5C6 DUP9 DUP3 DUP10 ADD PUSH2 0x538 JUMP JUMPDEST SWAP4 POP POP PUSH1 0x60 DUP7 ADD CALLDATALOAD PUSH8 0xFFFFFFFFFFFFFFFF DUP2 GT ISZERO PUSH2 0x5E7 JUMPI PUSH2 0x5E6 PUSH2 0x990 JUMP JUMPDEST JUMPDEST PUSH2 0x5F3 DUP9 DUP3 DUP10 ADD PUSH2 0x4E2 JUMP JUMPDEST SWAP3 POP SWAP3 POP POP SWAP3 SWAP6 POP SWAP3 SWAP6 SWAP1 SWAP4 POP JUMP JUMPDEST PUSH1 0x0 PUSH1 0x20 DUP3 DUP5 SUB SLT ISZERO PUSH2 0x618 JUMPI PUSH2 0x617 PUSH2 0x995 JUMP JUMPDEST JUMPDEST PUSH1 0x0 PUSH2 0x626 DUP5 DUP3 DUP6 ADD PUSH2 0x538 JUMP JUMPDEST SWAP2 POP POP SWAP3 SWAP2 POP POP JUMP JUMPDEST PUSH2 0x638 DUP2 PUSH2 0x888 JUMP JUMPDEST DUP3 MSTORE POP POP JUMP JUMPDEST PUSH2 0x64F PUSH2 0x64A DUP3 PUSH2 0x888 JUMP JUMPDEST PUSH2 0x953 JUMP JUMPDEST DUP3 MSTORE POP POP JUMP JUMPDEST PUSH2 0x65E DUP2 PUSH2 0x89A JUMP JUMPDEST DUP3 MSTORE POP POP JUMP JUMPDEST PUSH2 0x66D DUP2 PUSH2 0x8A6 JUMP JUMPDEST DUP3 MSTORE POP POP JUMP JUMPDEST PUSH1 0x0 PUSH2 0x67F DUP4 DUP6 PUSH2 0x86C JUMP JUMPDEST SWAP4 POP PUSH2 0x68C DUP4 DUP6 DUP5 PUSH2 0x944 JUMP JUMPDEST DUP3 DUP5 ADD SWAP1 POP SWAP4 SWAP3 POP POP POP JUMP JUMPDEST PUSH2 0x6A1 DUP2 PUSH2 0x8FC JUMP JUMPDEST DUP3 MSTORE POP POP JUMP JUMPDEST PUSH2 0x6B0 DUP2 PUSH2 0x90E JUMP JUMPDEST DUP3 MSTORE POP POP JUMP JUMPDEST PUSH1 0x0 PUSH2 0x6C3 PUSH1 0x26 DUP4 PUSH2 0x877 JUMP JUMPDEST SWAP2 POP PUSH2 0x6CE DUP3 PUSH2 0x9A7 JUMP JUMPDEST PUSH1 0x40 DUP3 ADD SWAP1 POP SWAP2 SWAP1 POP JUMP JUMPDEST PUSH1 0x0 PUSH2 0x6E6 PUSH1 0x20 DUP4 PUSH2 0x877 JUMP JUMPDEST SWAP2 POP PUSH2 0x6F1 DUP3 PUSH2 0x9F6 JUMP JUMPDEST PUSH1 0x20 DUP3 ADD SWAP1 POP SWAP2 SWAP1 POP JUMP JUMPDEST PUSH2 0x705 DUP2 PUSH2 0x8F2 JUMP JUMPDEST DUP3 MSTORE POP POP JUMP JUMPDEST PUSH2 0x71C PUSH2 0x717 DUP3 PUSH2 0x8F2 JUMP JUMPDEST PUSH2 0x977 JUMP JUMPDEST DUP3 MSTORE POP POP JUMP JUMPDEST PUSH1 0x0 PUSH2 0x72E DUP3 DUP9 PUSH2 0x63E JUMP JUMPDEST PUSH1 0x14 DUP3 ADD SWAP2 POP PUSH2 0x73E DUP3 DUP8 PUSH2 0x63E JUMP JUMPDEST PUSH1 0x14 DUP3 ADD SWAP2 POP PUSH2 0x74E DUP3 DUP7 PUSH2 0x70B JUMP JUMPDEST PUSH1 0x20 DUP3 ADD SWAP2 POP PUSH2 0x75F DUP3 DUP5 DUP7 PUSH2 0x673 JUMP JUMPDEST SWAP2 POP DUP2 SWAP1 POP SWAP7 SWAP6 POP POP POP POP POP POP JUMP JUMPDEST PUSH1 0x0 PUSH1 0x20 DUP3 ADD SWAP1 POP PUSH2 0x783 PUSH1 0x0 DUP4 ADD DUP5 PUSH2 0x62F JUMP JUMPDEST SWAP3 SWAP2 POP POP JUMP JUMPDEST PUSH1 0x0 PUSH1 0x20 DUP3 ADD SWAP1 POP PUSH2 0x79E PUSH1 0x0 DUP4 ADD DUP5 PUSH2 0x655 JUMP JUMPDEST SWAP3 SWAP2 POP POP JUMP JUMPDEST PUSH1 0x0 PUSH1 0x20 DUP3 ADD SWAP1 POP PUSH2 0x7B9 PUSH1 0x0 DUP4 ADD DUP5 PUSH2 0x664 JUMP JUMPDEST SWAP3 SWAP2 POP POP JUMP JUMPDEST PUSH1 0x0 PUSH1 0x20 DUP3 ADD SWAP1 POP PUSH2 0x7D4 PUSH1 0x0 DUP4 ADD DUP5 PUSH2 0x698 JUMP JUMPDEST SWAP3 SWAP2 POP POP JUMP JUMPDEST PUSH1 0x0 PUSH1 0x20 DUP3 ADD SWAP1 POP PUSH2 0x7EF PUSH1 0x0 DUP4 ADD DUP5 PUSH2 0x6A7 JUMP JUMPDEST SWAP3 SWAP2 POP POP JUMP JUMPDEST PUSH1 0x0 PUSH1 0x20 DUP3 ADD SWAP1 POP DUP2 DUP2 SUB PUSH1 0x0 DUP4 ADD MSTORE PUSH2 0x80E DUP2 PUSH2 0x6B6 JUMP JUMPDEST SWAP1 POP SWAP2 SWAP1 POP JUMP JUMPDEST PUSH1 0x0 PUSH1 0x20 DUP3 ADD SWAP1 POP DUP2 DUP2 SUB PUSH1 0x0 DUP4 ADD MSTORE PUSH2 0x82E DUP2 PUSH2 0x6D9 JUMP JUMPDEST SWAP1 POP SWAP2 SWAP1 POP JUMP JUMPDEST PUSH1 0x0 PUSH1 0x60 DUP3 ADD SWAP1 POP PUSH2 0x84A PUSH1 0x0 DUP4 ADD DUP7 PUSH2 0x6FC JUMP JUMPDEST PUSH2 0x857 PUSH1 0x20 DUP4 ADD DUP6 PUSH2 0x6FC JUMP JUMPDEST PUSH2 0x864 PUSH1 0x40 DUP4 ADD DUP5 PUSH2 0x6FC JUMP JUMPDEST SWAP5 SWAP4 POP POP POP POP JUMP JUMPDEST PUSH1 0x0 DUP2 SWAP1 POP SWAP3 SWAP2 POP POP JUMP JUMPDEST PUSH1 0x0 DUP3 DUP3 MSTORE PUSH1 0x20 DUP3 ADD SWAP1 POP SWAP3 SWAP2 POP POP JUMP JUMPDEST PUSH1 0x0 PUSH2 0x893 DUP3 PUSH2 0x8D2 JUMP JUMPDEST SWAP1 POP SWAP2 SWAP1 POP JUMP JUMPDEST PUSH1 0x0 DUP2 ISZERO ISZERO SWAP1 POP SWAP2 SWAP1 POP JUMP JUMPDEST PUSH1 0x0 PUSH32 0xFFFFFFFF00000000000000000000000000000000000000000000000000000000 DUP3 AND SWAP1 POP SWAP2 SWAP1 POP JUMP JUMPDEST PUSH1 0x0 PUSH20 0xFFFFFFFFFFFFFFFFFFFFFFFFFFFFFFFFFFFFFFFF DUP3 AND SWAP1 POP SWAP2 SWAP1 POP JUMP JUMPDEST PUSH1 0x0 DUP2 SWAP1 POP SWAP2 SWAP1 POP JUMP JUMPDEST PUSH1 0x0 PUSH2 0x907 DUP3 PUSH2 0x920 JUMP JUMPDEST SWAP1 POP SWAP2 SWAP1 POP JUMP JUMPDEST PUSH1 0x0 PUSH2 0x919 DUP3 PUSH2 0x920 JUMP JUMPDEST SWAP1 POP SWAP2 SWAP1 POP JUMP JUMPDEST PUSH1 0x0 PUSH2 0x92B DUP3 PUSH2 0x932 JUMP JUMPDEST SWAP1 POP SWAP2 SWAP1 POP JUMP JUMPDEST PUSH1 0x0 PUSH2 0x93D DUP3 PUSH2 0x8D2 JUMP JUMPDEST SWAP1 POP SWAP2 SWAP1 POP JUMP JUMPDEST DUP3 DUP2 DUP4 CALLDATACOPY PUSH1 0x0 DUP4 DUP4 ADD MSTORE POP POP POP JUMP JUMPDEST PUSH1 0x0 PUSH2 0x95E DUP3 PUSH2 0x965 JUMP JUMPDEST SWAP1 POP SWAP2 SWAP1 POP JUMP JUMPDEST PUSH1 0x0 PUSH2 0x970 DUP3 PUSH2 0x99A JUMP JUMPDEST SWAP1 POP SWAP2 SWAP1 POP JUMP JUMPDEST PUSH1 0x0 DUP2 SWAP1 POP SWAP2 SWAP1 POP JUMP JUMPDEST PUSH1 0x0 DUP1 REVERT JUMPDEST PUSH1 0x0 DUP1 REVERT JUMPDEST PUSH1 0x0 DUP1 REVERT JUMPDEST PUSH1 0x0 DUP1 REVERT JUMPDEST PUSH1 0x0 DUP1 REVERT JUMPDEST PUSH1 0x0 DUP2 PUSH1 0x60 SHL SWAP1 POP SWAP2 SWAP1 POP JUMP JUMPDEST PUSH32 0x4F776E61626C653A206E6577206F776E657220697320746865207A65726F2061 PUSH1 0x0 DUP3 ADD MSTORE PUSH32 0x6464726573730000000000000000000000000000000000000000000000000000 PUSH1 0x20 DUP3 ADD MSTORE POP JUMP JUMPDEST PUSH32 0x4F776E61626C653A2063616C6C6572206973206E6F7420746865206F776E6572 PUSH1 0x0 DUP3 ADD MSTORE POP JUMP JUMPDEST PUSH2 0xA28 DUP2 PUSH2 0x888 JUMP JUMPDEST DUP2 EQ PUSH2 0xA33 JUMPI PUSH1 0x0 DUP1 REVERT JUMPDEST POP JUMP JUMPDEST PUSH2 0xA3F DUP2 PUSH2 0x8F2 JUMP JUMPDEST DUP2 EQ PUSH2 0xA4A JUMPI PUSH1 0x0 DUP1 REVERT JUMPDEST POP JUMP INVALID LOG2 PUSH5 0x6970667358 0x22 SLT KECCAK256 0xC2 0xEE MOD 0x24 0xC4 SWAP8 NOT 0xD7 ISZERO STOP DIFFICULTY STATICCALL SWAP10 CALLCODE 0x2C CALLDATACOPY 0xB9 SHR 0xBA AND 0xE0 PUSH29 0x63E0BE3BB4E029AB4EA764736F6C634300080700330000000000000000 "
				},
				"gasEstimates": {
					"creation": {
						"codeDepositCost": "538200",
						"executionCost": "infinite",
						"totalCost": "infinite"
					},
					"external": {
						"onERC721Received(address,address,uint256,bytes)": "infinite",
						"owner()": "2569",
						"paused()": "2502",
						"renounceOwnership()": "30587",
						"rewardsToken()": "2666",
						"stakerAddress(uint256)": "2883",
						"stakers(address)": "infinite",
						"stakingIERC721()": "2667",
						"transferOwnership(address)": "30979"
					}
				},
				"methodIdentifiers": {
					"onERC721Received(address,address,uint256,bytes)": "150b7a02",
					"owner()": "8da5cb5b",
					"paused()": "5c975abb",
					"renounceOwnership()": "715018a6",
					"rewardsToken()": "d1af0c7d",
					"stakerAddress(uint256)": "94067045",
					"stakers(address)": "9168ae72",
					"stakingIERC721()": "7f544728",
					"transferOwnership(address)": "f2fde38b"
				}
			},
			"storageLayout": {
				"storage": [
					{
						"astId": 585,
						"contract": "Farm.sol:Farm",
						"label": "_status",
						"offset": 0,
						"slot": "0",
						"type": "t_uint256"
					},
					{
						"astId": 487,
						"contract": "Farm.sol:Farm",
						"label": "_paused",
						"offset": 0,
						"slot": "1",
						"type": "t_bool"
					},
					{
						"astId": 1038,
						"contract": "Farm.sol:Farm",
						"label": "_owner",
						"offset": 1,
						"slot": "1",
						"type": "t_address"
					},
					{
						"astId": 1177,
						"contract": "Farm.sol:Farm",
						"label": "rewardsToken",
						"offset": 0,
						"slot": "2",
						"type": "t_contract(IERC20)454"
					},
					{
						"astId": 1180,
						"contract": "Farm.sol:Farm",
						"label": "stakingIERC721",
						"offset": 0,
						"slot": "3",
						"type": "t_contract(IERC721)138"
					},
					{
						"astId": 1183,
						"contract": "Farm.sol:Farm",
						"label": "rewardsPerHour",
						"offset": 0,
						"slot": "4",
						"type": "t_uint256"
					},
					{
						"astId": 1188,
						"contract": "Farm.sol:Farm",
						"label": "stakers",
						"offset": 0,
						"slot": "5",
						"type": "t_mapping(t_address,t_struct(Staker)1174_storage)"
					},
					{
						"astId": 1192,
						"contract": "Farm.sol:Farm",
						"label": "stakerAddress",
						"offset": 0,
						"slot": "6",
						"type": "t_mapping(t_uint256,t_address)"
					}
				],
				"types": {
					"t_address": {
						"encoding": "inplace",
						"label": "address",
						"numberOfBytes": "20"
					},
					"t_array(t_struct(StakedToken)1163_storage)dyn_storage": {
						"base": "t_struct(StakedToken)1163_storage",
						"encoding": "dynamic_array",
						"label": "struct Farm.StakedToken[]",
						"numberOfBytes": "32"
					},
					"t_bool": {
						"encoding": "inplace",
						"label": "bool",
						"numberOfBytes": "1"
					},
					"t_contract(IERC20)454": {
						"encoding": "inplace",
						"label": "contract IERC20",
						"numberOfBytes": "20"
					},
					"t_contract(IERC721)138": {
						"encoding": "inplace",
						"label": "contract IERC721",
						"numberOfBytes": "20"
					},
					"t_mapping(t_address,t_struct(Staker)1174_storage)": {
						"encoding": "mapping",
						"key": "t_address",
						"label": "mapping(address => struct Farm.Staker)",
						"numberOfBytes": "32",
						"value": "t_struct(Staker)1174_storage"
					},
					"t_mapping(t_uint256,t_address)": {
						"encoding": "mapping",
						"key": "t_uint256",
						"label": "mapping(uint256 => address)",
						"numberOfBytes": "32",
						"value": "t_address"
					},
					"t_struct(StakedToken)1163_storage": {
						"encoding": "inplace",
						"label": "struct Farm.StakedToken",
						"members": [
							{
								"astId": 1160,
								"contract": "Farm.sol:Farm",
								"label": "staker",
								"offset": 0,
								"slot": "0",
								"type": "t_address"
							},
							{
								"astId": 1162,
								"contract": "Farm.sol:Farm",
								"label": "tokenId",
								"offset": 0,
								"slot": "1",
								"type": "t_uint256"
							}
						],
						"numberOfBytes": "64"
					},
					"t_struct(Staker)1174_storage": {
						"encoding": "inplace",
						"label": "struct Farm.Staker",
						"members": [
							{
								"astId": 1165,
								"contract": "Farm.sol:Farm",
								"label": "amountStaked",
								"offset": 0,
								"slot": "0",
								"type": "t_uint256"
							},
							{
								"astId": 1169,
								"contract": "Farm.sol:Farm",
								"label": "stakedTokens",
								"offset": 0,
								"slot": "1",
								"type": "t_array(t_struct(StakedToken)1163_storage)dyn_storage"
							},
							{
								"astId": 1171,
								"contract": "Farm.sol:Farm",
								"label": "timeOfLastUpdate",
								"offset": 0,
								"slot": "2",
								"type": "t_uint256"
							},
							{
								"astId": 1173,
								"contract": "Farm.sol:Farm",
								"label": "unclaimedRewards",
								"offset": 0,
								"slot": "3",
								"type": "t_uint256"
							}
						],
						"numberOfBytes": "128"
					},
					"t_uint256": {
						"encoding": "inplace",
						"label": "uint256",
						"numberOfBytes": "32"
					}
				}
			},
			"userdoc": {
				"kind": "user",
				"methods": {},
				"version": 1
			}
		}
	}
}