{
	"Farm.sol": {
		"Farm": {
			"abi": [
				{
					"inputs": [
						{
							"internalType": "address",
							"name": "_nftCollection",
							"type": "address"
						},
						{
							"internalType": "contract IERC20",
							"name": "_rewardsToken",
							"type": "address"
						},
						{
							"internalType": "uint256",
							"name": "_rewardsPerHour",
							"type": "uint256"
						}
					],
					"stateMutability": "nonpayable",
					"type": "constructor"
				},
				{
					"anonymous": false,
					"inputs": [
						{
							"indexed": true,
							"internalType": "address",
							"name": "previousOwner",
							"type": "address"
						},
						{
							"indexed": true,
							"internalType": "address",
							"name": "newOwner",
							"type": "address"
						}
					],
					"name": "OwnershipTransferred",
					"type": "event"
				},
				{
					"anonymous": false,
					"inputs": [
						{
							"indexed": false,
							"internalType": "address",
							"name": "account",
							"type": "address"
						}
					],
					"name": "Paused",
					"type": "event"
				},
				{
					"anonymous": false,
					"inputs": [
						{
							"indexed": false,
							"internalType": "address",
							"name": "account",
							"type": "address"
						}
					],
					"name": "Unpaused",
					"type": "event"
				},
				{
					"inputs": [],
					"name": "adminWithdrawRewards",
					"outputs": [],
					"stateMutability": "nonpayable",
					"type": "function"
				},
				{
					"inputs": [
						{
							"internalType": "address",
							"name": "_staker",
							"type": "address"
						}
					],
					"name": "availableRewards",
					"outputs": [
						{
							"internalType": "uint256",
							"name": "",
							"type": "uint256"
						}
					],
					"stateMutability": "view",
					"type": "function"
				},
				{
					"inputs": [],
					"name": "claimRewards",
					"outputs": [],
					"stateMutability": "nonpayable",
					"type": "function"
				},
				{
					"inputs": [
						{
							"internalType": "address",
							"name": "_user",
							"type": "address"
						}
					],
					"name": "getStakedTokens",
					"outputs": [
						{
							"components": [
								{
									"internalType": "address",
									"name": "staker",
									"type": "address"
								},
								{
									"internalType": "uint256",
									"name": "tokenId",
									"type": "uint256"
								}
							],
							"internalType": "struct Farm.StakedToken[]",
							"name": "",
							"type": "tuple[]"
						}
					],
					"stateMutability": "view",
					"type": "function"
				},
				{
					"inputs": [],
					"name": "nftCollection",
					"outputs": [
						{
							"internalType": "contract IERC721",
							"name": "",
							"type": "address"
						}
					],
					"stateMutability": "view",
					"type": "function"
				},
				{
					"inputs": [],
					"name": "owner",
					"outputs": [
						{
							"internalType": "address",
							"name": "",
							"type": "address"
						}
					],
					"stateMutability": "view",
					"type": "function"
				},
				{
					"inputs": [],
					"name": "paused",
					"outputs": [
						{
							"internalType": "bool",
							"name": "",
							"type": "bool"
						}
					],
					"stateMutability": "view",
					"type": "function"
				},
				{
					"inputs": [],
					"name": "renounceOwnership",
					"outputs": [],
					"stateMutability": "nonpayable",
					"type": "function"
				},
				{
					"inputs": [],
					"name": "rewardsToken",
					"outputs": [
						{
							"internalType": "contract IERC20",
							"name": "",
							"type": "address"
						}
					],
					"stateMutability": "view",
					"type": "function"
				},
				{
					"inputs": [
						{
							"internalType": "uint256",
							"name": "_tokenId",
							"type": "uint256"
						}
					],
					"name": "stake",
					"outputs": [],
					"stateMutability": "nonpayable",
					"type": "function"
				},
				{
					"inputs": [
						{
							"internalType": "uint256",
							"name": "",
							"type": "uint256"
						}
					],
					"name": "stakerAddress",
					"outputs": [
						{
							"internalType": "address",
							"name": "",
							"type": "address"
						}
					],
					"stateMutability": "view",
					"type": "function"
				},
				{
					"inputs": [
						{
							"internalType": "address",
							"name": "",
							"type": "address"
						}
					],
					"name": "stakers",
					"outputs": [
						{
							"internalType": "uint256",
							"name": "amountStaked",
							"type": "uint256"
						},
						{
							"internalType": "uint256",
							"name": "timeOfLastUpdate",
							"type": "uint256"
						},
						{
							"internalType": "uint256",
							"name": "unclaimedRewards",
							"type": "uint256"
						}
					],
					"stateMutability": "view",
					"type": "function"
				},
				{
					"inputs": [
						{
							"internalType": "address",
							"name": "newOwner",
							"type": "address"
						}
					],
					"name": "transferOwnership",
					"outputs": [],
					"stateMutability": "nonpayable",
					"type": "function"
				},
				{
					"inputs": [
						{
							"internalType": "uint256",
							"name": "_tokenId",
							"type": "uint256"
						}
					],
					"name": "withdraw",
					"outputs": [],
					"stateMutability": "nonpayable",
					"type": "function"
				}
			],
			"devdoc": {
				"kind": "dev",
				"methods": {
					"owner()": {
						"details": "Returns the address of the current owner."
					},
					"paused()": {
						"details": "Returns true if the contract is paused, and false otherwise."
					},
					"renounceOwnership()": {
						"details": "Leaves the contract without owner. It will not be possible to call `onlyOwner` functions anymore. Can only be called by the current owner. NOTE: Renouncing ownership will leave the contract without an owner, thereby removing any functionality that is only available to the owner."
					},
					"transferOwnership(address)": {
						"details": "Transfers ownership of the contract to a new account (`newOwner`). Can only be called by the current owner."
					}
				},
				"version": 1
			},
			"evm": {
				"assembly": "    /* \"Farm.sol\":28878:33672  contract Farm is ReentrancyGuard, Pausable, Ownable {\r... */\n  mstore(0x40, 0x80)\n    /* \"Farm.sol\":29473:29479  100000 */\n  0x0186a0\n    /* \"Farm.sol\":29440:29479  uint256 private rewardsPerHour = 100000 */\n  0x05\n  sstore\n    /* \"Farm.sol\":29676:29947  constructor(address _nftCollection, IERC20 _rewardsToken, uint256 _rewardsPerHour) {\r... */\n  callvalue\n  dup1\n  iszero\n  tag_1\n  jumpi\n  0x00\n  dup1\n  revert\ntag_1:\n  pop\n  mload(0x40)\n  sub(codesize, bytecodeSize)\n  dup1\n  bytecodeSize\n  dup4\n  codecopy\n  dup2\n  dup2\n  add\n  0x40\n  mstore\n  dup2\n  add\n  swap1\n  tag_2\n  swap2\n  swap1\n  tag_3\n  jump\t// in\ntag_2:\n    /* \"Farm.sol\":17794:17795  1 */\n  0x01\n    /* \"Farm.sol\":17905:17912  _status */\n  0x00\n    /* \"Farm.sol\":17905:17927  _status = _NOT_ENTERED */\n  dup2\n  swap1\n  sstore\n  pop\n    /* \"Farm.sol\":15333:15338  false */\n  0x00\n    /* \"Farm.sol\":15323:15330  _paused */\n  0x01\n  0x00\n    /* \"Farm.sol\":15323:15338  _paused = false */\n  0x0100\n  exp\n  dup2\n  sload\n  dup2\n  0xff\n  mul\n  not\n  and\n  swap1\n  dup4\n  iszero\n  iszero\n  mul\n  or\n  swap1\n  sstore\n  pop\n    /* \"Farm.sol\":27132:27164  _transferOwnership(_msgSender()) */\n  tag_11\n    /* \"Farm.sol\":27151:27163  _msgSender() */\n  tag_12\n    /* \"Farm.sol\":27151:27161  _msgSender */\n  shl(0x20, tag_13)\n    /* \"Farm.sol\":27151:27163  _msgSender() */\n  0x20\n  shr\n  jump\t// in\ntag_12:\n    /* \"Farm.sol\":27132:27150  _transferOwnership */\n  shl(0x20, tag_14)\n    /* \"Farm.sol\":27132:27164  _transferOwnership(_msgSender()) */\n  0x20\n  shr\n  jump\t// in\ntag_11:\n    /* \"Farm.sol\":29794:29808  _nftCollection */\n  dup3\n    /* \"Farm.sol\":29770:29783  nftCollection */\n  0x03\n  0x00\n    /* \"Farm.sol\":29770:29809  nftCollection = IERC721(_nftCollection) */\n  0x0100\n  exp\n  dup2\n  sload\n  dup2\n  0xffffffffffffffffffffffffffffffffffffffff\n  mul\n  not\n  and\n  swap1\n  dup4\n  0xffffffffffffffffffffffffffffffffffffffff\n  and\n  mul\n  or\n  swap1\n  sstore\n  pop\n    /* \"Farm.sol\":29843:29857  _nftCollection */\n  dup3\n    /* \"Farm.sol\":29820:29840  nftCollectionAddress */\n  0x04\n  0x00\n    /* \"Farm.sol\":29820:29857  nftCollectionAddress = _nftCollection */\n  0x0100\n  exp\n  dup2\n  sload\n  dup2\n  0xffffffffffffffffffffffffffffffffffffffff\n  mul\n  not\n  and\n  swap1\n  dup4\n  0xffffffffffffffffffffffffffffffffffffffff\n  and\n  mul\n  or\n  swap1\n  sstore\n  pop\n    /* \"Farm.sol\":29883:29896  _rewardsToken */\n  dup2\n    /* \"Farm.sol\":29868:29880  rewardsToken */\n  0x02\n  0x00\n    /* \"Farm.sol\":29868:29896  rewardsToken = _rewardsToken */\n  0x0100\n  exp\n  dup2\n  sload\n  dup2\n  0xffffffffffffffffffffffffffffffffffffffff\n  mul\n  not\n  and\n  swap1\n  dup4\n  0xffffffffffffffffffffffffffffffffffffffff\n  and\n  mul\n  or\n  swap1\n  sstore\n  pop\n    /* \"Farm.sol\":29924:29939  _rewardsPerHour */\n  dup1\n    /* \"Farm.sol\":29907:29921  rewardsPerHour */\n  0x05\n    /* \"Farm.sol\":29907:29939  rewardsPerHour = _rewardsPerHour */\n  dup2\n  swap1\n  sstore\n  pop\n    /* \"Farm.sol\":29676:29947  constructor(address _nftCollection, IERC20 _rewardsToken, uint256 _rewardsPerHour) {\r... */\n  pop\n  pop\n  pop\n    /* \"Farm.sol\":28878:33672  contract Farm is ReentrancyGuard, Pausable, Ownable {\r... */\n  jump(tag_16)\n    /* \"Farm.sol\":14698:14796  function _msgSender() internal view virtual returns (address) {\r... */\ntag_13:\n    /* \"Farm.sol\":14751:14758  address */\n  0x00\n    /* \"Farm.sol\":14778:14788  msg.sender */\n  caller\n    /* \"Farm.sol\":14771:14788  return msg.sender */\n  swap1\n  pop\n    /* \"Farm.sol\":14698:14796  function _msgSender() internal view virtual returns (address) {\r... */\n  swap1\n  jump\t// out\n    /* \"Farm.sol\":28678:28869  function _transferOwnership(address newOwner) internal virtual {\r... */\ntag_14:\n    /* \"Farm.sol\":28752:28768  address oldOwner */\n  0x00\n    /* \"Farm.sol\":28771:28777  _owner */\n  0x01\n  dup1\n  sload\n  swap1\n  0x0100\n  exp\n  swap1\n  div\n  0xffffffffffffffffffffffffffffffffffffffff\n  and\n    /* \"Farm.sol\":28752:28777  address oldOwner = _owner */\n  swap1\n  pop\n    /* \"Farm.sol\":28797:28805  newOwner */\n  dup2\n    /* \"Farm.sol\":28788:28794  _owner */\n  0x01\n  dup1\n    /* \"Farm.sol\":28788:28805  _owner = newOwner */\n  0x0100\n  exp\n  dup2\n  sload\n  dup2\n  0xffffffffffffffffffffffffffffffffffffffff\n  mul\n  not\n  and\n  swap1\n  dup4\n  0xffffffffffffffffffffffffffffffffffffffff\n  and\n  mul\n  or\n  swap1\n  sstore\n  pop\n    /* \"Farm.sol\":28852:28860  newOwner */\n  dup2\n    /* \"Farm.sol\":28821:28861  OwnershipTransferred(oldOwner, newOwner) */\n  0xffffffffffffffffffffffffffffffffffffffff\n  and\n    /* \"Farm.sol\":28842:28850  oldOwner */\n  dup2\n    /* \"Farm.sol\":28821:28861  OwnershipTransferred(oldOwner, newOwner) */\n  0xffffffffffffffffffffffffffffffffffffffff\n  and\n  0x8be0079c531659141344cd1fd0a4f28419497f9722a3daafe3b4186f6b6457e0\n  mload(0x40)\n  mload(0x40)\n  dup1\n  swap2\n  sub\n  swap1\n  log3\n    /* \"Farm.sol\":28678:28869  function _transferOwnership(address newOwner) internal virtual {\r... */\n  pop\n  pop\n  jump\t// out\n    /* \"#utility.yul\":7:150   */\ntag_20:\n  0x00\n    /* \"#utility.yul\":95:101   */\n  dup2\n    /* \"#utility.yul\":89:102   */\n  mload\n    /* \"#utility.yul\":80:102   */\n  swap1\n  pop\n    /* \"#utility.yul\":111:144   */\n  tag_22\n    /* \"#utility.yul\":138:143   */\n  dup2\n    /* \"#utility.yul\":111:144   */\n  tag_23\n  jump\t// in\ntag_22:\n    /* \"#utility.yul\":70:150   */\n  swap3\n  swap2\n  pop\n  pop\n  jump\t// out\n    /* \"#utility.yul\":156:327   */\ntag_24:\n  0x00\n    /* \"#utility.yul\":258:264   */\n  dup2\n    /* \"#utility.yul\":252:265   */\n  mload\n    /* \"#utility.yul\":243:265   */\n  swap1\n  pop\n    /* \"#utility.yul\":274:321   */\n  tag_26\n    /* \"#utility.yul\":315:320   */\n  dup2\n    /* \"#utility.yul\":274:321   */\n  tag_27\n  jump\t// in\ntag_26:\n    /* \"#utility.yul\":233:327   */\n  swap3\n  swap2\n  pop\n  pop\n  jump\t// out\n    /* \"#utility.yul\":333:476   */\ntag_28:\n  0x00\n    /* \"#utility.yul\":421:427   */\n  dup2\n    /* \"#utility.yul\":415:428   */\n  mload\n    /* \"#utility.yul\":406:428   */\n  swap1\n  pop\n    /* \"#utility.yul\":437:470   */\n  tag_30\n    /* \"#utility.yul\":464:469   */\n  dup2\n    /* \"#utility.yul\":437:470   */\n  tag_31\n  jump\t// in\ntag_30:\n    /* \"#utility.yul\":396:476   */\n  swap3\n  swap2\n  pop\n  pop\n  jump\t// out\n    /* \"#utility.yul\":482:1106   */\ntag_3:\n  0x00\n  dup1\n  0x00\n    /* \"#utility.yul\":649:651   */\n  0x60\n    /* \"#utility.yul\":637:646   */\n  dup5\n    /* \"#utility.yul\":628:635   */\n  dup7\n    /* \"#utility.yul\":624:647   */\n  sub\n    /* \"#utility.yul\":620:652   */\n  slt\n    /* \"#utility.yul\":617:619   */\n  iszero\n  tag_33\n  jumpi\n    /* \"#utility.yul\":665:666   */\n  0x00\n    /* \"#utility.yul\":662:663   */\n  dup1\n    /* \"#utility.yul\":655:667   */\n  revert\n    /* \"#utility.yul\":617:619   */\ntag_33:\n    /* \"#utility.yul\":708:709   */\n  0x00\n    /* \"#utility.yul\":733:797   */\n  tag_34\n    /* \"#utility.yul\":789:796   */\n  dup7\n    /* \"#utility.yul\":780:786   */\n  dup3\n    /* \"#utility.yul\":769:778   */\n  dup8\n    /* \"#utility.yul\":765:787   */\n  add\n    /* \"#utility.yul\":733:797   */\n  tag_20\n  jump\t// in\ntag_34:\n    /* \"#utility.yul\":723:797   */\n  swap4\n  pop\n    /* \"#utility.yul\":679:807   */\n  pop\n    /* \"#utility.yul\":846:848   */\n  0x20\n    /* \"#utility.yul\":872:950   */\n  tag_35\n    /* \"#utility.yul\":942:949   */\n  dup7\n    /* \"#utility.yul\":933:939   */\n  dup3\n    /* \"#utility.yul\":922:931   */\n  dup8\n    /* \"#utility.yul\":918:940   */\n  add\n    /* \"#utility.yul\":872:950   */\n  tag_24\n  jump\t// in\ntag_35:\n    /* \"#utility.yul\":862:950   */\n  swap3\n  pop\n    /* \"#utility.yul\":817:960   */\n  pop\n    /* \"#utility.yul\":999:1001   */\n  0x40\n    /* \"#utility.yul\":1025:1089   */\n  tag_36\n    /* \"#utility.yul\":1081:1088   */\n  dup7\n    /* \"#utility.yul\":1072:1078   */\n  dup3\n    /* \"#utility.yul\":1061:1070   */\n  dup8\n    /* \"#utility.yul\":1057:1079   */\n  add\n    /* \"#utility.yul\":1025:1089   */\n  tag_28\n  jump\t// in\ntag_36:\n    /* \"#utility.yul\":1015:1089   */\n  swap2\n  pop\n    /* \"#utility.yul\":970:1099   */\n  pop\n    /* \"#utility.yul\":607:1106   */\n  swap3\n  pop\n  swap3\n  pop\n  swap3\n  jump\t// out\n    /* \"#utility.yul\":1112:1208   */\ntag_37:\n  0x00\n    /* \"#utility.yul\":1178:1202   */\n  tag_39\n    /* \"#utility.yul\":1196:1201   */\n  dup3\n    /* \"#utility.yul\":1178:1202   */\n  tag_40\n  jump\t// in\ntag_39:\n    /* \"#utility.yul\":1167:1202   */\n  swap1\n  pop\n    /* \"#utility.yul\":1157:1208   */\n  swap2\n  swap1\n  pop\n  jump\t// out\n    /* \"#utility.yul\":1214:1324   */\ntag_41:\n  0x00\n    /* \"#utility.yul\":1294:1318   */\n  tag_43\n    /* \"#utility.yul\":1312:1317   */\n  dup3\n    /* \"#utility.yul\":1294:1318   */\n  tag_37\n  jump\t// in\ntag_43:\n    /* \"#utility.yul\":1283:1318   */\n  swap1\n  pop\n    /* \"#utility.yul\":1273:1324   */\n  swap2\n  swap1\n  pop\n  jump\t// out\n    /* \"#utility.yul\":1330:1456   */\ntag_40:\n  0x00\n    /* \"#utility.yul\":1407:1449   */\n  0xffffffffffffffffffffffffffffffffffffffff\n    /* \"#utility.yul\":1400:1405   */\n  dup3\n    /* \"#utility.yul\":1396:1450   */\n  and\n    /* \"#utility.yul\":1385:1450   */\n  swap1\n  pop\n    /* \"#utility.yul\":1375:1456   */\n  swap2\n  swap1\n  pop\n  jump\t// out\n    /* \"#utility.yul\":1462:1539   */\ntag_45:\n  0x00\n    /* \"#utility.yul\":1528:1533   */\n  dup2\n    /* \"#utility.yul\":1517:1533   */\n  swap1\n  pop\n    /* \"#utility.yul\":1507:1539   */\n  swap2\n  swap1\n  pop\n  jump\t// out\n    /* \"#utility.yul\":1545:1667   */\ntag_23:\n    /* \"#utility.yul\":1618:1642   */\n  tag_48\n    /* \"#utility.yul\":1636:1641   */\n  dup2\n    /* \"#utility.yul\":1618:1642   */\n  tag_37\n  jump\t// in\ntag_48:\n    /* \"#utility.yul\":1611:1616   */\n  dup2\n    /* \"#utility.yul\":1608:1643   */\n  eq\n    /* \"#utility.yul\":1598:1600   */\n  tag_49\n  jumpi\n    /* \"#utility.yul\":1657:1658   */\n  0x00\n    /* \"#utility.yul\":1654:1655   */\n  dup1\n    /* \"#utility.yul\":1647:1659   */\n  revert\n    /* \"#utility.yul\":1598:1600   */\ntag_49:\n    /* \"#utility.yul\":1588:1667   */\n  pop\n  jump\t// out\n    /* \"#utility.yul\":1673:1823   */\ntag_27:\n    /* \"#utility.yul\":1760:1798   */\n  tag_51\n    /* \"#utility.yul\":1792:1797   */\n  dup2\n    /* \"#utility.yul\":1760:1798   */\n  tag_41\n  jump\t// in\ntag_51:\n    /* \"#utility.yul\":1753:1758   */\n  dup2\n    /* \"#utility.yul\":1750:1799   */\n  eq\n    /* \"#utility.yul\":1740:1742   */\n  tag_52\n  jumpi\n    /* \"#utility.yul\":1813:1814   */\n  0x00\n    /* \"#utility.yul\":1810:1811   */\n  dup1\n    /* \"#utility.yul\":1803:1815   */\n  revert\n    /* \"#utility.yul\":1740:1742   */\ntag_52:\n    /* \"#utility.yul\":1730:1823   */\n  pop\n  jump\t// out\n    /* \"#utility.yul\":1829:1951   */\ntag_31:\n    /* \"#utility.yul\":1902:1926   */\n  tag_54\n    /* \"#utility.yul\":1920:1925   */\n  dup2\n    /* \"#utility.yul\":1902:1926   */\n  tag_45\n  jump\t// in\ntag_54:\n    /* \"#utility.yul\":1895:1900   */\n  dup2\n    /* \"#utility.yul\":1892:1927   */\n  eq\n    /* \"#utility.yul\":1882:1884   */\n  tag_55\n  jumpi\n    /* \"#utility.yul\":1941:1942   */\n  0x00\n    /* \"#utility.yul\":1938:1939   */\n  dup1\n    /* \"#utility.yul\":1931:1943   */\n  revert\n    /* \"#utility.yul\":1882:1884   */\ntag_55:\n    /* \"#utility.yul\":1872:1951   */\n  pop\n  jump\t// out\n    /* \"Farm.sol\":28878:33672  contract Farm is ReentrancyGuard, Pausable, Ownable {\r... */\ntag_16:\n  dataSize(sub_0)\n  dup1\n  dataOffset(sub_0)\n  0x00\n  codecopy\n  0x00\n  return\nstop\n\nsub_0: assembly {\n        /* \"Farm.sol\":28878:33672  contract Farm is ReentrancyGuard, Pausable, Ownable {\r... */\n      mstore(0x40, 0x80)\n      callvalue\n      dup1\n      iszero\n      tag_1\n      jumpi\n      0x00\n      dup1\n      revert\n    tag_1:\n      pop\n      jumpi(tag_2, lt(calldatasize, 0x04))\n      shr(0xe0, calldataload(0x00))\n      dup1\n      0x9168ae72\n      gt\n      tag_17\n      jumpi\n      dup1\n      0xd1af0c7d\n      gt\n      tag_18\n      jumpi\n      dup1\n      0xd1af0c7d\n      eq\n      tag_13\n      jumpi\n      dup1\n      0xf2fde38b\n      eq\n      tag_14\n      jumpi\n      dup1\n      0xf854a27f\n      eq\n      tag_15\n      jumpi\n      dup1\n      0xf995441b\n      eq\n      tag_16\n      jumpi\n      jump(tag_2)\n    tag_18:\n      dup1\n      0x9168ae72\n      eq\n      tag_10\n      jumpi\n      dup1\n      0x94067045\n      eq\n      tag_11\n      jumpi\n      dup1\n      0xa694fc3a\n      eq\n      tag_12\n      jumpi\n      jump(tag_2)\n    tag_17:\n      dup1\n      0x63c28db1\n      gt\n      tag_19\n      jumpi\n      dup1\n      0x63c28db1\n      eq\n      tag_6\n      jumpi\n      dup1\n      0x6588103b\n      eq\n      tag_7\n      jumpi\n      dup1\n      0x715018a6\n      eq\n      tag_8\n      jumpi\n      dup1\n      0x8da5cb5b\n      eq\n      tag_9\n      jumpi\n      jump(tag_2)\n    tag_19:\n      dup1\n      0x2e1a7d4d\n      eq\n      tag_3\n      jumpi\n      dup1\n      0x372500ab\n      eq\n      tag_4\n      jumpi\n      dup1\n      0x5c975abb\n      eq\n      tag_5\n      jumpi\n    tag_2:\n      0x00\n      dup1\n      revert\n        /* \"Farm.sol\":30996:32060  function withdraw(uint256 _tokenId) external nonReentrant {\r... */\n    tag_3:\n      tag_20\n      0x04\n      dup1\n      calldatasize\n      sub\n      dup2\n      add\n      swap1\n      tag_21\n      swap2\n      swap1\n      tag_22\n      jump\t// in\n    tag_21:\n      tag_23\n      jump\t// in\n    tag_20:\n      stop\n        /* \"Farm.sol\":32376:32762  function claimRewards() external {\r... */\n    tag_4:\n      tag_24\n      tag_25\n      jump\t// in\n    tag_24:\n      stop\n        /* \"Farm.sol\":15972:16058  function paused() public view virtual returns (bool) {\r... */\n    tag_5:\n      tag_26\n      tag_27\n      jump\t// in\n    tag_26:\n      mload(0x40)\n      tag_28\n      swap2\n      swap1\n      tag_29\n      jump\t// in\n    tag_28:\n      mload(0x40)\n      dup1\n      swap2\n      sub\n      swap1\n      return\n        /* \"Farm.sol\":32770:33450  function getStakedTokens(address _user) public view returns (StakedToken[] memory) {\r... */\n    tag_6:\n      tag_30\n      0x04\n      dup1\n      calldatasize\n      sub\n      dup2\n      add\n      swap1\n      tag_31\n      swap2\n      swap1\n      tag_32\n      jump\t// in\n    tag_31:\n      tag_33\n      jump\t// in\n    tag_30:\n      mload(0x40)\n      tag_34\n      swap2\n      swap1\n      tag_35\n      jump\t// in\n    tag_34:\n      mload(0x40)\n      dup1\n      swap2\n      sub\n      swap1\n      return\n        /* \"Farm.sol\":29310:29338  IERC721 public nftCollection */\n    tag_7:\n      tag_36\n      tag_37\n      jump\t// in\n    tag_36:\n      mload(0x40)\n      tag_38\n      swap2\n      swap1\n      tag_39\n      jump\t// in\n    tag_38:\n      mload(0x40)\n      dup1\n      swap2\n      sub\n      swap1\n      return\n        /* \"Farm.sol\":28059:28162  function renounceOwnership() public virtual onlyOwner {\r... */\n    tag_8:\n      tag_40\n      tag_41\n      jump\t// in\n    tag_40:\n      stop\n        /* \"Farm.sol\":27411:27498  function owner() public view virtual returns (address) {\r... */\n    tag_9:\n      tag_42\n      tag_43\n      jump\t// in\n    tag_42:\n      mload(0x40)\n      tag_44\n      swap2\n      swap1\n      tag_45\n      jump\t// in\n    tag_44:\n      mload(0x40)\n      dup1\n      swap2\n      sub\n      swap1\n      return\n        /* \"Farm.sol\":29492:29533  mapping(address => Staker) public stakers */\n    tag_10:\n      tag_46\n      0x04\n      dup1\n      calldatasize\n      sub\n      dup2\n      add\n      swap1\n      tag_47\n      swap2\n      swap1\n      tag_32\n      jump\t// in\n    tag_47:\n      tag_48\n      jump\t// in\n    tag_46:\n      mload(0x40)\n      tag_49\n      swap4\n      swap3\n      swap2\n      swap1\n      tag_50\n      jump\t// in\n    tag_49:\n      mload(0x40)\n      dup1\n      swap2\n      sub\n      swap1\n      return\n        /* \"Farm.sol\":29619:29667  mapping(uint256 => address) public stakerAddress */\n    tag_11:\n      tag_51\n      0x04\n      dup1\n      calldatasize\n      sub\n      dup2\n      add\n      swap1\n      tag_52\n      swap2\n      swap1\n      tag_22\n      jump\t// in\n    tag_52:\n      tag_53\n      jump\t// in\n    tag_51:\n      mload(0x40)\n      tag_54\n      swap2\n      swap1\n      tag_45\n      jump\t// in\n    tag_54:\n      mload(0x40)\n      dup1\n      swap2\n      sub\n      swap1\n      return\n        /* \"Farm.sol\":30886:30988  function stake(uint256 _tokenId) external nonReentrant {\r... */\n    tag_12:\n      tag_55\n      0x04\n      dup1\n      calldatasize\n      sub\n      dup2\n      add\n      swap1\n      tag_56\n      swap2\n      swap1\n      tag_22\n      jump\t// in\n    tag_56:\n      tag_57\n      jump\t// in\n    tag_55:\n      stop\n        /* \"Farm.sol\":29277:29303  IERC20 public rewardsToken */\n    tag_13:\n      tag_58\n      tag_59\n      jump\t// in\n    tag_58:\n      mload(0x40)\n      tag_60\n      swap2\n      swap1\n      tag_61\n      jump\t// in\n    tag_60:\n      mload(0x40)\n      dup1\n      swap2\n      sub\n      swap1\n      return\n        /* \"Farm.sol\":28317:28518  function transferOwnership(address newOwner) public virtual onlyOwner {\r... */\n    tag_14:\n      tag_62\n      0x04\n      dup1\n      calldatasize\n      sub\n      dup2\n      add\n      swap1\n      tag_63\n      swap2\n      swap1\n      tag_32\n      jump\t// in\n    tag_63:\n      tag_64\n      jump\t// in\n    tag_62:\n      stop\n        /* \"Farm.sol\":33458:33667  function availableRewards(address _staker) public view returns (uint256) {\r... */\n    tag_15:\n      tag_65\n      0x04\n      dup1\n      calldatasize\n      sub\n      dup2\n      add\n      swap1\n      tag_66\n      swap2\n      swap1\n      tag_32\n      jump\t// in\n    tag_66:\n      tag_67\n      jump\t// in\n    tag_65:\n      mload(0x40)\n      tag_68\n      swap2\n      swap1\n      tag_69\n      jump\t// in\n    tag_68:\n      mload(0x40)\n      dup1\n      swap2\n      sub\n      swap1\n      return\n        /* \"Farm.sol\":30694:30878  function adminWithdrawRewards() external onlyOwner {\r... */\n    tag_16:\n      tag_70\n      tag_71\n      jump\t// in\n    tag_70:\n      stop\n        /* \"Farm.sol\":30996:32060  function withdraw(uint256 _tokenId) external nonReentrant {\r... */\n    tag_23:\n        /* \"Farm.sol\":18356:18377  _nonReentrantBefore() */\n      tag_73\n        /* \"Farm.sol\":18356:18375  _nonReentrantBefore */\n      tag_74\n        /* \"Farm.sol\":18356:18377  _nonReentrantBefore() */\n      jump\t// in\n    tag_73:\n        /* \"Farm.sol\":31122:31123  0 */\n      0x00\n        /* \"Farm.sol\":31087:31094  stakers */\n      0x06\n        /* \"Farm.sol\":31087:31106  stakers[msg.sender] */\n      0x00\n        /* \"Farm.sol\":31095:31105  msg.sender */\n      caller\n        /* \"Farm.sol\":31087:31106  stakers[msg.sender] */\n      0xffffffffffffffffffffffffffffffffffffffff\n      and\n      0xffffffffffffffffffffffffffffffffffffffff\n      and\n      dup2\n      mstore\n      0x20\n      add\n      swap1\n      dup2\n      mstore\n      0x20\n      add\n      0x00\n      keccak256\n        /* \"Farm.sol\":31087:31119  stakers[msg.sender].amountStaked */\n      0x00\n      add\n      sload\n        /* \"Farm.sol\":31087:31123  stakers[msg.sender].amountStaked > 0 */\n      gt\n        /* \"Farm.sol\":31065:31176  require(\r... */\n      tag_76\n      jumpi\n      mload(0x40)\n      0x08c379a000000000000000000000000000000000000000000000000000000000\n      dup2\n      mstore\n      0x04\n      add\n      tag_77\n      swap1\n      tag_78\n      jump\t// in\n    tag_77:\n      mload(0x40)\n      dup1\n      swap2\n      sub\n      swap1\n      revert\n    tag_76:\n        /* \"Farm.sol\":31222:31232  msg.sender */\n      caller\n        /* \"Farm.sol\":31195:31232  stakerAddress[_tokenId] == msg.sender */\n      0xffffffffffffffffffffffffffffffffffffffff\n      and\n        /* \"Farm.sol\":31195:31208  stakerAddress */\n      0x07\n        /* \"Farm.sol\":31195:31218  stakerAddress[_tokenId] */\n      0x00\n        /* \"Farm.sol\":31209:31217  _tokenId */\n      dup4\n        /* \"Farm.sol\":31195:31218  stakerAddress[_tokenId] */\n      dup2\n      mstore\n      0x20\n      add\n      swap1\n      dup2\n      mstore\n      0x20\n      add\n      0x00\n      keccak256\n      0x00\n      swap1\n      sload\n      swap1\n      0x0100\n      exp\n      swap1\n      div\n      0xffffffffffffffffffffffffffffffffffffffff\n      and\n        /* \"Farm.sol\":31195:31232  stakerAddress[_tokenId] == msg.sender */\n      0xffffffffffffffffffffffffffffffffffffffff\n      and\n      eq\n        /* \"Farm.sol\":31187:31262  require(stakerAddress[_tokenId] == msg.sender, \"You don't own this token!\") */\n      tag_79\n      jumpi\n      mload(0x40)\n      0x08c379a000000000000000000000000000000000000000000000000000000000\n      dup2\n      mstore\n      0x04\n      add\n      tag_80\n      swap1\n      tag_81\n      jump\t// in\n    tag_80:\n      mload(0x40)\n      dup1\n      swap2\n      sub\n      swap1\n      revert\n    tag_79:\n        /* \"Farm.sol\":31374:31389  uint256 rewards */\n      0x00\n        /* \"Farm.sol\":31392:31420  calculateRewards(msg.sender) */\n      tag_82\n        /* \"Farm.sol\":31409:31419  msg.sender */\n      caller\n        /* \"Farm.sol\":31392:31408  calculateRewards */\n      tag_83\n        /* \"Farm.sol\":31392:31420  calculateRewards(msg.sender) */\n      jump\t// in\n    tag_82:\n        /* \"Farm.sol\":31374:31420  uint256 rewards = calculateRewards(msg.sender) */\n      swap1\n      pop\n        /* \"Farm.sol\":31471:31478  rewards */\n      dup1\n        /* \"Farm.sol\":31431:31438  stakers */\n      0x06\n        /* \"Farm.sol\":31431:31450  stakers[msg.sender] */\n      0x00\n        /* \"Farm.sol\":31439:31449  msg.sender */\n      caller\n        /* \"Farm.sol\":31431:31450  stakers[msg.sender] */\n      0xffffffffffffffffffffffffffffffffffffffff\n      and\n      0xffffffffffffffffffffffffffffffffffffffff\n      and\n      dup2\n      mstore\n      0x20\n      add\n      swap1\n      dup2\n      mstore\n      0x20\n      add\n      0x00\n      keccak256\n        /* \"Farm.sol\":31431:31467  stakers[msg.sender].unclaimedRewards */\n      0x03\n      add\n      0x00\n        /* \"Farm.sol\":31431:31478  stakers[msg.sender].unclaimedRewards += rewards */\n      dup3\n      dup3\n      sload\n      tag_84\n      swap2\n      swap1\n      tag_85\n      jump\t// in\n    tag_84:\n      swap3\n      pop\n      pop\n      dup2\n      swap1\n      sstore\n      pop\n        /* \"Farm.sol\":31493:31506  uint256 index */\n      0x00\n        /* \"Farm.sol\":31526:31535  uint256 i */\n      dup1\n        /* \"Farm.sol\":31521:31746  for (uint256 i = 0; i < stakers[msg.sender].stakedTokens.length; i++) {\r... */\n    tag_86:\n        /* \"Farm.sol\":31545:31552  stakers */\n      0x06\n        /* \"Farm.sol\":31545:31564  stakers[msg.sender] */\n      0x00\n        /* \"Farm.sol\":31553:31563  msg.sender */\n      caller\n        /* \"Farm.sol\":31545:31564  stakers[msg.sender] */\n      0xffffffffffffffffffffffffffffffffffffffff\n      and\n      0xffffffffffffffffffffffffffffffffffffffff\n      and\n      dup2\n      mstore\n      0x20\n      add\n      swap1\n      dup2\n      mstore\n      0x20\n      add\n      0x00\n      keccak256\n        /* \"Farm.sol\":31545:31577  stakers[msg.sender].stakedTokens */\n      0x01\n      add\n        /* \"Farm.sol\":31545:31584  stakers[msg.sender].stakedTokens.length */\n      dup1\n      sload\n      swap1\n      pop\n        /* \"Farm.sol\":31541:31542  i */\n      dup2\n        /* \"Farm.sol\":31541:31584  i < stakers[msg.sender].stakedTokens.length */\n      lt\n        /* \"Farm.sol\":31521:31746  for (uint256 i = 0; i < stakers[msg.sender].stakedTokens.length; i++) {\r... */\n      iszero\n      tag_87\n      jumpi\n        /* \"Farm.sol\":31657:31665  _tokenId */\n      dup4\n        /* \"Farm.sol\":31610:31617  stakers */\n      0x06\n        /* \"Farm.sol\":31610:31629  stakers[msg.sender] */\n      0x00\n        /* \"Farm.sol\":31618:31628  msg.sender */\n      caller\n        /* \"Farm.sol\":31610:31629  stakers[msg.sender] */\n      0xffffffffffffffffffffffffffffffffffffffff\n      and\n      0xffffffffffffffffffffffffffffffffffffffff\n      and\n      dup2\n      mstore\n      0x20\n      add\n      swap1\n      dup2\n      mstore\n      0x20\n      add\n      0x00\n      keccak256\n        /* \"Farm.sol\":31610:31642  stakers[msg.sender].stakedTokens */\n      0x01\n      add\n        /* \"Farm.sol\":31643:31644  i */\n      dup3\n        /* \"Farm.sol\":31610:31645  stakers[msg.sender].stakedTokens[i] */\n      dup2\n      sload\n      dup2\n      lt\n      tag_89\n      jumpi\n      mstore(0x00, 0x4e487b7100000000000000000000000000000000000000000000000000000000)\n      mstore(0x04, 0x32)\n      revert(0x00, 0x24)\n    tag_89:\n      swap1\n      0x00\n      mstore\n      keccak256(0x00, 0x20)\n      swap1\n      0x02\n      mul\n      add\n        /* \"Farm.sol\":31610:31653  stakers[msg.sender].stakedTokens[i].tokenId */\n      0x01\n      add\n      sload\n        /* \"Farm.sol\":31610:31665  stakers[msg.sender].stakedTokens[i].tokenId == _tokenId */\n      eq\n        /* \"Farm.sol\":31606:31735  if (stakers[msg.sender].stakedTokens[i].tokenId == _tokenId) {\r... */\n      iszero\n      tag_91\n      jumpi\n        /* \"Farm.sol\":31694:31695  i */\n      dup1\n        /* \"Farm.sol\":31686:31695  index = i */\n      swap2\n      pop\n        /* \"Farm.sol\":31714:31719  break */\n      jump(tag_87)\n        /* \"Farm.sol\":31606:31735  if (stakers[msg.sender].stakedTokens[i].tokenId == _tokenId) {\r... */\n    tag_91:\n        /* \"Farm.sol\":31586:31589  i++ */\n      dup1\n      dup1\n      tag_92\n      swap1\n      tag_93\n      jump\t// in\n    tag_92:\n      swap2\n      pop\n      pop\n        /* \"Farm.sol\":31521:31746  for (uint256 i = 0; i < stakers[msg.sender].stakedTokens.length; i++) {\r... */\n      jump(tag_86)\n    tag_87:\n      pop\n        /* \"Farm.sol\":31817:31818  0 */\n      0x00\n        /* \"Farm.sol\":31760:31767  stakers */\n      0x06\n        /* \"Farm.sol\":31760:31779  stakers[msg.sender] */\n      0x00\n        /* \"Farm.sol\":31768:31778  msg.sender */\n      caller\n        /* \"Farm.sol\":31760:31779  stakers[msg.sender] */\n      0xffffffffffffffffffffffffffffffffffffffff\n      and\n      0xffffffffffffffffffffffffffffffffffffffff\n      and\n      dup2\n      mstore\n      0x20\n      add\n      swap1\n      dup2\n      mstore\n      0x20\n      add\n      0x00\n      keccak256\n        /* \"Farm.sol\":31760:31792  stakers[msg.sender].stakedTokens */\n      0x01\n      add\n        /* \"Farm.sol\":31793:31798  index */\n      dup3\n        /* \"Farm.sol\":31760:31799  stakers[msg.sender].stakedTokens[index] */\n      dup2\n      sload\n      dup2\n      lt\n      tag_94\n      jumpi\n      mstore(0x00, 0x4e487b7100000000000000000000000000000000000000000000000000000000)\n      mstore(0x04, 0x32)\n      revert(0x00, 0x24)\n    tag_94:\n      swap1\n      0x00\n      mstore\n      keccak256(0x00, 0x20)\n      swap1\n      0x02\n      mul\n      add\n        /* \"Farm.sol\":31760:31806  stakers[msg.sender].stakedTokens[index].staker */\n      0x00\n      add\n      0x00\n        /* \"Farm.sol\":31760:31819  stakers[msg.sender].stakedTokens[index].staker = address(0) */\n      0x0100\n      exp\n      dup2\n      sload\n      dup2\n      0xffffffffffffffffffffffffffffffffffffffff\n      mul\n      not\n      and\n      swap1\n      dup4\n      0xffffffffffffffffffffffffffffffffffffffff\n      and\n      mul\n      or\n      swap1\n      sstore\n      pop\n        /* \"Farm.sol\":31830:31837  stakers */\n      0x06\n        /* \"Farm.sol\":31830:31849  stakers[msg.sender] */\n      0x00\n        /* \"Farm.sol\":31838:31848  msg.sender */\n      caller\n        /* \"Farm.sol\":31830:31849  stakers[msg.sender] */\n      0xffffffffffffffffffffffffffffffffffffffff\n      and\n      0xffffffffffffffffffffffffffffffffffffffff\n      and\n      dup2\n      mstore\n      0x20\n      add\n      swap1\n      dup2\n      mstore\n      0x20\n      add\n      0x00\n      keccak256\n        /* \"Farm.sol\":31830:31862  stakers[msg.sender].amountStaked */\n      0x00\n      add\n      0x00\n        /* \"Farm.sol\":31830:31864  stakers[msg.sender].amountStaked-- */\n      dup2\n      sload\n      dup1\n      swap3\n      swap2\n      swap1\n      tag_96\n      swap1\n      tag_97\n      jump\t// in\n    tag_96:\n      swap2\n      swap1\n      pop\n      sstore\n      pop\n        /* \"Farm.sol\":31909:31910  0 */\n      0x00\n        /* \"Farm.sol\":31875:31888  stakerAddress */\n      0x07\n        /* \"Farm.sol\":31875:31898  stakerAddress[_tokenId] */\n      0x00\n        /* \"Farm.sol\":31889:31897  _tokenId */\n      dup6\n        /* \"Farm.sol\":31875:31898  stakerAddress[_tokenId] */\n      dup2\n      mstore\n      0x20\n      add\n      swap1\n      dup2\n      mstore\n      0x20\n      add\n      0x00\n      keccak256\n      0x00\n        /* \"Farm.sol\":31875:31911  stakerAddress[_tokenId] = address(0) */\n      0x0100\n      exp\n      dup2\n      sload\n      dup2\n      0xffffffffffffffffffffffffffffffffffffffff\n      mul\n      not\n      and\n      swap1\n      dup4\n      0xffffffffffffffffffffffffffffffffffffffff\n      and\n      mul\n      or\n      swap1\n      sstore\n      pop\n        /* \"Farm.sol\":31924:31937  nftCollection */\n      0x03\n      0x00\n      swap1\n      sload\n      swap1\n      0x0100\n      exp\n      swap1\n      div\n      0xffffffffffffffffffffffffffffffffffffffff\n      and\n        /* \"Farm.sol\":31924:31950  nftCollection.transferFrom */\n      0xffffffffffffffffffffffffffffffffffffffff\n      and\n      0x23b872dd\n        /* \"Farm.sol\":31959:31963  this */\n      address\n        /* \"Farm.sol\":31966:31976  msg.sender */\n      caller\n        /* \"Farm.sol\":31978:31986  _tokenId */\n      dup7\n        /* \"Farm.sol\":31924:31987  nftCollection.transferFrom(address(this), msg.sender, _tokenId) */\n      mload(0x40)\n      dup5\n      0xffffffff\n      and\n      0xe0\n      shl\n      dup2\n      mstore\n      0x04\n      add\n      tag_98\n      swap4\n      swap3\n      swap2\n      swap1\n      tag_99\n      jump\t// in\n    tag_98:\n      0x00\n      mload(0x40)\n      dup1\n      dup4\n      sub\n      dup2\n      0x00\n      dup8\n      dup1\n      extcodesize\n      iszero\n      dup1\n      iszero\n      tag_100\n      jumpi\n      0x00\n      dup1\n      revert\n    tag_100:\n      pop\n      gas\n      call\n      iszero\n      dup1\n      iszero\n      tag_102\n      jumpi\n      returndatasize\n      0x00\n      dup1\n      returndatacopy\n      revert(0x00, returndatasize)\n    tag_102:\n      pop\n      pop\n      pop\n      pop\n        /* \"Farm.sol\":32037:32052  block.timestamp */\n      timestamp\n        /* \"Farm.sol\":31998:32005  stakers */\n      0x06\n        /* \"Farm.sol\":31998:32017  stakers[msg.sender] */\n      0x00\n        /* \"Farm.sol\":32006:32016  msg.sender */\n      caller\n        /* \"Farm.sol\":31998:32017  stakers[msg.sender] */\n      0xffffffffffffffffffffffffffffffffffffffff\n      and\n      0xffffffffffffffffffffffffffffffffffffffff\n      and\n      dup2\n      mstore\n      0x20\n      add\n      swap1\n      dup2\n      mstore\n      0x20\n      add\n      0x00\n      keccak256\n        /* \"Farm.sol\":31998:32034  stakers[msg.sender].timeOfLastUpdate */\n      0x02\n      add\n        /* \"Farm.sol\":31998:32052  stakers[msg.sender].timeOfLastUpdate = block.timestamp */\n      dup2\n      swap1\n      sstore\n      pop\n        /* \"Farm.sol\":18388:18389  _ */\n      pop\n      pop\n        /* \"Farm.sol\":18400:18420  _nonReentrantAfter() */\n      tag_103\n        /* \"Farm.sol\":18400:18418  _nonReentrantAfter */\n      tag_104\n        /* \"Farm.sol\":18400:18420  _nonReentrantAfter() */\n      jump\t// in\n    tag_103:\n        /* \"Farm.sol\":30996:32060  function withdraw(uint256 _tokenId) external nonReentrant {\r... */\n      pop\n      jump\t// out\n        /* \"Farm.sol\":32376:32762  function claimRewards() external {\r... */\n    tag_25:\n        /* \"Farm.sol\":32420:32435  uint256 rewards */\n      0x00\n        /* \"Farm.sol\":32482:32489  stakers */\n      0x06\n        /* \"Farm.sol\":32482:32501  stakers[msg.sender] */\n      0x00\n        /* \"Farm.sol\":32490:32500  msg.sender */\n      caller\n        /* \"Farm.sol\":32482:32501  stakers[msg.sender] */\n      0xffffffffffffffffffffffffffffffffffffffff\n      and\n      0xffffffffffffffffffffffffffffffffffffffff\n      and\n      dup2\n      mstore\n      0x20\n      add\n      swap1\n      dup2\n      mstore\n      0x20\n      add\n      0x00\n      keccak256\n        /* \"Farm.sol\":32482:32518  stakers[msg.sender].unclaimedRewards */\n      0x03\n      add\n      sload\n        /* \"Farm.sol\":32438:32466  calculateRewards(msg.sender) */\n      tag_106\n        /* \"Farm.sol\":32455:32465  msg.sender */\n      caller\n        /* \"Farm.sol\":32438:32454  calculateRewards */\n      tag_83\n        /* \"Farm.sol\":32438:32466  calculateRewards(msg.sender) */\n      jump\t// in\n    tag_106:\n        /* \"Farm.sol\":32438:32518  calculateRewards(msg.sender) +\r... */\n      tag_107\n      swap2\n      swap1\n      tag_85\n      jump\t// in\n    tag_107:\n        /* \"Farm.sol\":32420:32518  uint256 rewards = calculateRewards(msg.sender) +\r... */\n      swap1\n      pop\n        /* \"Farm.sol\":32547:32548  0 */\n      0x00\n        /* \"Farm.sol\":32537:32544  rewards */\n      dup2\n        /* \"Farm.sol\":32537:32548  rewards > 0 */\n      gt\n        /* \"Farm.sol\":32529:32581  require(rewards > 0, \"You have no rewards to claim\") */\n      tag_108\n      jumpi\n      mload(0x40)\n      0x08c379a000000000000000000000000000000000000000000000000000000000\n      dup2\n      mstore\n      0x04\n      add\n      tag_109\n      swap1\n      tag_110\n      jump\t// in\n    tag_109:\n      mload(0x40)\n      dup1\n      swap2\n      sub\n      swap1\n      revert\n    tag_108:\n        /* \"Farm.sol\":32631:32646  block.timestamp */\n      timestamp\n        /* \"Farm.sol\":32592:32599  stakers */\n      0x06\n        /* \"Farm.sol\":32592:32611  stakers[msg.sender] */\n      0x00\n        /* \"Farm.sol\":32600:32610  msg.sender */\n      caller\n        /* \"Farm.sol\":32592:32611  stakers[msg.sender] */\n      0xffffffffffffffffffffffffffffffffffffffff\n      and\n      0xffffffffffffffffffffffffffffffffffffffff\n      and\n      dup2\n      mstore\n      0x20\n      add\n      swap1\n      dup2\n      mstore\n      0x20\n      add\n      0x00\n      keccak256\n        /* \"Farm.sol\":32592:32628  stakers[msg.sender].timeOfLastUpdate */\n      0x02\n      add\n        /* \"Farm.sol\":32592:32646  stakers[msg.sender].timeOfLastUpdate = block.timestamp */\n      dup2\n      swap1\n      sstore\n      pop\n        /* \"Farm.sol\":32696:32697  0 */\n      0x00\n        /* \"Farm.sol\":32657:32664  stakers */\n      0x06\n        /* \"Farm.sol\":32657:32676  stakers[msg.sender] */\n      0x00\n        /* \"Farm.sol\":32665:32675  msg.sender */\n      caller\n        /* \"Farm.sol\":32657:32676  stakers[msg.sender] */\n      0xffffffffffffffffffffffffffffffffffffffff\n      and\n      0xffffffffffffffffffffffffffffffffffffffff\n      and\n      dup2\n      mstore\n      0x20\n      add\n      swap1\n      dup2\n      mstore\n      0x20\n      add\n      0x00\n      keccak256\n        /* \"Farm.sol\":32657:32693  stakers[msg.sender].unclaimedRewards */\n      0x03\n      add\n        /* \"Farm.sol\":32657:32697  stakers[msg.sender].unclaimedRewards = 0 */\n      dup2\n      swap1\n      sstore\n      pop\n        /* \"Farm.sol\":32708:32754  rewardsToken.safeTransfer(msg.sender, rewards) */\n      tag_111\n        /* \"Farm.sol\":32734:32744  msg.sender */\n      caller\n        /* \"Farm.sol\":32746:32753  rewards */\n      dup3\n        /* \"Farm.sol\":32708:32720  rewardsToken */\n      0x02\n      0x00\n      swap1\n      sload\n      swap1\n      0x0100\n      exp\n      swap1\n      div\n      0xffffffffffffffffffffffffffffffffffffffff\n      and\n        /* \"Farm.sol\":32708:32733  rewardsToken.safeTransfer */\n      0xffffffffffffffffffffffffffffffffffffffff\n      and\n      tag_112\n      swap1\n        /* \"Farm.sol\":32708:32754  rewardsToken.safeTransfer(msg.sender, rewards) */\n      swap3\n      swap2\n      swap1\n      0xffffffff\n      and\n      jump\t// in\n    tag_111:\n        /* \"Farm.sol\":32376:32762  function claimRewards() external {\r... */\n      pop\n      jump\t// out\n        /* \"Farm.sol\":15972:16058  function paused() public view virtual returns (bool) {\r... */\n    tag_27:\n        /* \"Farm.sol\":16019:16023  bool */\n      0x00\n        /* \"Farm.sol\":16043:16050  _paused */\n      0x01\n      0x00\n      swap1\n      sload\n      swap1\n      0x0100\n      exp\n      swap1\n      div\n      0xff\n      and\n        /* \"Farm.sol\":16036:16050  return _paused */\n      swap1\n      pop\n        /* \"Farm.sol\":15972:16058  function paused() public view virtual returns (bool) {\r... */\n      swap1\n      jump\t// out\n        /* \"Farm.sol\":32770:33450  function getStakedTokens(address _user) public view returns (StakedToken[] memory) {\r... */\n    tag_33:\n        /* \"Farm.sol\":32831:32851  StakedToken[] memory */\n      0x60\n        /* \"Farm.sol\":32898:32899  0 */\n      0x00\n        /* \"Farm.sol\":32868:32875  stakers */\n      0x06\n        /* \"Farm.sol\":32868:32882  stakers[_user] */\n      0x00\n        /* \"Farm.sol\":32876:32881  _user */\n      dup5\n        /* \"Farm.sol\":32868:32882  stakers[_user] */\n      0xffffffffffffffffffffffffffffffffffffffff\n      and\n      0xffffffffffffffffffffffffffffffffffffffff\n      and\n      dup2\n      mstore\n      0x20\n      add\n      swap1\n      dup2\n      mstore\n      0x20\n      add\n      0x00\n      keccak256\n        /* \"Farm.sol\":32868:32895  stakers[_user].amountStaked */\n      0x00\n      add\n      sload\n        /* \"Farm.sol\":32868:32899  stakers[_user].amountStaked > 0 */\n      gt\n        /* \"Farm.sol\":32864:33443  if (stakers[_user].amountStaked > 0) {\r... */\n      iszero\n      tag_115\n      jumpi\n        /* \"Farm.sol\":32916:32950  StakedToken[] memory _stakedTokens */\n      0x00\n        /* \"Farm.sol\":32971:32978  stakers */\n      0x06\n        /* \"Farm.sol\":32971:32985  stakers[_user] */\n      0x00\n        /* \"Farm.sol\":32979:32984  _user */\n      dup5\n        /* \"Farm.sol\":32971:32985  stakers[_user] */\n      0xffffffffffffffffffffffffffffffffffffffff\n      and\n      0xffffffffffffffffffffffffffffffffffffffff\n      and\n      dup2\n      mstore\n      0x20\n      add\n      swap1\n      dup2\n      mstore\n      0x20\n      add\n      0x00\n      keccak256\n        /* \"Farm.sol\":32971:32998  stakers[_user].amountStaked */\n      0x00\n      add\n      sload\n        /* \"Farm.sol\":32953:32999  new StakedToken[](stakers[_user].amountStaked) */\n      0xffffffffffffffff\n      dup2\n      gt\n      iszero\n      tag_116\n      jumpi\n      mstore(0x00, 0x4e487b7100000000000000000000000000000000000000000000000000000000)\n      mstore(0x04, 0x41)\n      revert(0x00, 0x24)\n    tag_116:\n      mload(0x40)\n      swap1\n      dup1\n      dup3\n      mstore\n      dup1\n      0x20\n      mul\n      0x20\n      add\n      dup3\n      add\n      0x40\n      mstore\n      dup1\n      iszero\n      tag_117\n      jumpi\n      dup2\n      0x20\n      add\n    tag_118:\n      tag_119\n      tag_120\n      jump\t// in\n    tag_119:\n      dup2\n      mstore\n      0x20\n      add\n      swap1\n      0x01\n      swap1\n      sub\n      swap1\n      dup2\n      tag_118\n      jumpi\n      swap1\n      pop\n    tag_117:\n      pop\n        /* \"Farm.sol\":32916:32999  StakedToken[] memory _stakedTokens = new StakedToken[](stakers[_user].amountStaked) */\n      swap1\n      pop\n        /* \"Farm.sol\":33014:33028  uint256 _index */\n      0x00\n        /* \"Farm.sol\":33054:33063  uint256 j */\n      dup1\n        /* \"Farm.sol\":33049:33335  for (uint256 j = 0; j < stakers[_user].stakedTokens.length; j++) {\r... */\n    tag_121:\n        /* \"Farm.sol\":33073:33080  stakers */\n      0x06\n        /* \"Farm.sol\":33073:33087  stakers[_user] */\n      0x00\n        /* \"Farm.sol\":33081:33086  _user */\n      dup7\n        /* \"Farm.sol\":33073:33087  stakers[_user] */\n      0xffffffffffffffffffffffffffffffffffffffff\n      and\n      0xffffffffffffffffffffffffffffffffffffffff\n      and\n      dup2\n      mstore\n      0x20\n      add\n      swap1\n      dup2\n      mstore\n      0x20\n      add\n      0x00\n      keccak256\n        /* \"Farm.sol\":33073:33100  stakers[_user].stakedTokens */\n      0x01\n      add\n        /* \"Farm.sol\":33073:33107  stakers[_user].stakedTokens.length */\n      dup1\n      sload\n      swap1\n      pop\n        /* \"Farm.sol\":33069:33070  j */\n      dup2\n        /* \"Farm.sol\":33069:33107  j < stakers[_user].stakedTokens.length */\n      lt\n        /* \"Farm.sol\":33049:33335  for (uint256 j = 0; j < stakers[_user].stakedTokens.length; j++) {\r... */\n      iszero\n      tag_122\n      jumpi\n        /* \"Farm.sol\":33187:33188  0 */\n      0x00\n        /* \"Farm.sol\":33137:33190  stakers[_user].stakedTokens[j].staker != (address(0)) */\n      0xffffffffffffffffffffffffffffffffffffffff\n      and\n        /* \"Farm.sol\":33137:33144  stakers */\n      0x06\n        /* \"Farm.sol\":33137:33151  stakers[_user] */\n      0x00\n        /* \"Farm.sol\":33145:33150  _user */\n      dup8\n        /* \"Farm.sol\":33137:33151  stakers[_user] */\n      0xffffffffffffffffffffffffffffffffffffffff\n      and\n      0xffffffffffffffffffffffffffffffffffffffff\n      and\n      dup2\n      mstore\n      0x20\n      add\n      swap1\n      dup2\n      mstore\n      0x20\n      add\n      0x00\n      keccak256\n        /* \"Farm.sol\":33137:33164  stakers[_user].stakedTokens */\n      0x01\n      add\n        /* \"Farm.sol\":33165:33166  j */\n      dup3\n        /* \"Farm.sol\":33137:33167  stakers[_user].stakedTokens[j] */\n      dup2\n      sload\n      dup2\n      lt\n      tag_124\n      jumpi\n      mstore(0x00, 0x4e487b7100000000000000000000000000000000000000000000000000000000)\n      mstore(0x04, 0x32)\n      revert(0x00, 0x24)\n    tag_124:\n      swap1\n      0x00\n      mstore\n      keccak256(0x00, 0x20)\n      swap1\n      0x02\n      mul\n      add\n        /* \"Farm.sol\":33137:33174  stakers[_user].stakedTokens[j].staker */\n      0x00\n      add\n      0x00\n      swap1\n      sload\n      swap1\n      0x0100\n      exp\n      swap1\n      div\n      0xffffffffffffffffffffffffffffffffffffffff\n      and\n        /* \"Farm.sol\":33137:33190  stakers[_user].stakedTokens[j].staker != (address(0)) */\n      0xffffffffffffffffffffffffffffffffffffffff\n      and\n      eq\n        /* \"Farm.sol\":33133:33320  if (stakers[_user].stakedTokens[j].staker != (address(0))) {\r... */\n      tag_126\n      jumpi\n        /* \"Farm.sol\":33239:33246  stakers */\n      0x06\n        /* \"Farm.sol\":33239:33253  stakers[_user] */\n      0x00\n        /* \"Farm.sol\":33247:33252  _user */\n      dup7\n        /* \"Farm.sol\":33239:33253  stakers[_user] */\n      0xffffffffffffffffffffffffffffffffffffffff\n      and\n      0xffffffffffffffffffffffffffffffffffffffff\n      and\n      dup2\n      mstore\n      0x20\n      add\n      swap1\n      dup2\n      mstore\n      0x20\n      add\n      0x00\n      keccak256\n        /* \"Farm.sol\":33239:33266  stakers[_user].stakedTokens */\n      0x01\n      add\n        /* \"Farm.sol\":33267:33268  j */\n      dup2\n        /* \"Farm.sol\":33239:33269  stakers[_user].stakedTokens[j] */\n      dup2\n      sload\n      dup2\n      lt\n      tag_127\n      jumpi\n      mstore(0x00, 0x4e487b7100000000000000000000000000000000000000000000000000000000)\n      mstore(0x04, 0x32)\n      revert(0x00, 0x24)\n    tag_127:\n      swap1\n      0x00\n      mstore\n      keccak256(0x00, 0x20)\n      swap1\n      0x02\n      mul\n      add\n        /* \"Farm.sol\":33215:33269  _stakedTokens[_index] = stakers[_user].stakedTokens[j] */\n      mload(0x40)\n      dup1\n      0x40\n      add\n      0x40\n      mstore\n      swap1\n      dup2\n      0x00\n      dup3\n      add\n      0x00\n      swap1\n      sload\n      swap1\n      0x0100\n      exp\n      swap1\n      div\n      0xffffffffffffffffffffffffffffffffffffffff\n      and\n      0xffffffffffffffffffffffffffffffffffffffff\n      and\n      0xffffffffffffffffffffffffffffffffffffffff\n      and\n      dup2\n      mstore\n      0x20\n      add\n      0x01\n      dup3\n      add\n      sload\n      dup2\n      mstore\n      pop\n      pop\n        /* \"Farm.sol\":33215:33228  _stakedTokens */\n      dup4\n        /* \"Farm.sol\":33229:33235  _index */\n      dup4\n        /* \"Farm.sol\":33215:33236  _stakedTokens[_index] */\n      dup2\n      mload\n      dup2\n      lt\n      tag_129\n      jumpi\n      mstore(0x00, 0x4e487b7100000000000000000000000000000000000000000000000000000000)\n      mstore(0x04, 0x32)\n      revert(0x00, 0x24)\n    tag_129:\n      0x20\n      mul\n      0x20\n      add\n      add\n        /* \"Farm.sol\":33215:33269  _stakedTokens[_index] = stakers[_user].stakedTokens[j] */\n      dup2\n      swap1\n      mstore\n      pop\n        /* \"Farm.sol\":33292:33300  _index++ */\n      dup2\n      dup1\n      tag_130\n      swap1\n      tag_93\n      jump\t// in\n    tag_130:\n      swap3\n      pop\n      pop\n        /* \"Farm.sol\":33133:33320  if (stakers[_user].stakedTokens[j].staker != (address(0))) {\r... */\n    tag_126:\n        /* \"Farm.sol\":33109:33112  j++ */\n      dup1\n      dup1\n      tag_131\n      swap1\n      tag_93\n      jump\t// in\n    tag_131:\n      swap2\n      pop\n      pop\n        /* \"Farm.sol\":33049:33335  for (uint256 j = 0; j < stakers[_user].stakedTokens.length; j++) {\r... */\n      jump(tag_121)\n    tag_122:\n      pop\n        /* \"Farm.sol\":33358:33371  _stakedTokens */\n      dup2\n        /* \"Farm.sol\":33351:33371  return _stakedTokens */\n      swap3\n      pop\n      pop\n      pop\n      jump(tag_114)\n        /* \"Farm.sol\":32864:33443  if (stakers[_user].amountStaked > 0) {\r... */\n    tag_115:\n        /* \"Farm.sol\":33429:33430  0 */\n      0x00\n        /* \"Farm.sol\":33411:33431  new StakedToken[](0) */\n      0xffffffffffffffff\n      dup2\n      gt\n      iszero\n      tag_133\n      jumpi\n      mstore(0x00, 0x4e487b7100000000000000000000000000000000000000000000000000000000)\n      mstore(0x04, 0x41)\n      revert(0x00, 0x24)\n    tag_133:\n      mload(0x40)\n      swap1\n      dup1\n      dup3\n      mstore\n      dup1\n      0x20\n      mul\n      0x20\n      add\n      dup3\n      add\n      0x40\n      mstore\n      dup1\n      iszero\n      tag_134\n      jumpi\n      dup2\n      0x20\n      add\n    tag_135:\n      tag_136\n      tag_120\n      jump\t// in\n    tag_136:\n      dup2\n      mstore\n      0x20\n      add\n      swap1\n      0x01\n      swap1\n      sub\n      swap1\n      dup2\n      tag_135\n      jumpi\n      swap1\n      pop\n    tag_134:\n      pop\n        /* \"Farm.sol\":33404:33431  return new StakedToken[](0) */\n      swap1\n      pop\n        /* \"Farm.sol\":32770:33450  function getStakedTokens(address _user) public view returns (StakedToken[] memory) {\r... */\n    tag_114:\n      swap2\n      swap1\n      pop\n      jump\t// out\n        /* \"Farm.sol\":29310:29338  IERC721 public nftCollection */\n    tag_37:\n      0x03\n      0x00\n      swap1\n      sload\n      swap1\n      0x0100\n      exp\n      swap1\n      div\n      0xffffffffffffffffffffffffffffffffffffffff\n      and\n      dup2\n      jump\t// out\n        /* \"Farm.sol\":28059:28162  function renounceOwnership() public virtual onlyOwner {\r... */\n    tag_41:\n        /* \"Farm.sol\":27297:27310  _checkOwner() */\n      tag_138\n        /* \"Farm.sol\":27297:27308  _checkOwner */\n      tag_139\n        /* \"Farm.sol\":27297:27310  _checkOwner() */\n      jump\t// in\n    tag_138:\n        /* \"Farm.sol\":28124:28154  _transferOwnership(address(0)) */\n      tag_141\n        /* \"Farm.sol\":28151:28152  0 */\n      0x00\n        /* \"Farm.sol\":28124:28142  _transferOwnership */\n      tag_142\n        /* \"Farm.sol\":28124:28154  _transferOwnership(address(0)) */\n      jump\t// in\n    tag_141:\n        /* \"Farm.sol\":28059:28162  function renounceOwnership() public virtual onlyOwner {\r... */\n      jump\t// out\n        /* \"Farm.sol\":27411:27498  function owner() public view virtual returns (address) {\r... */\n    tag_43:\n        /* \"Farm.sol\":27457:27464  address */\n      0x00\n        /* \"Farm.sol\":27484:27490  _owner */\n      0x01\n      dup1\n      sload\n      swap1\n      0x0100\n      exp\n      swap1\n      div\n      0xffffffffffffffffffffffffffffffffffffffff\n      and\n        /* \"Farm.sol\":27477:27490  return _owner */\n      swap1\n      pop\n        /* \"Farm.sol\":27411:27498  function owner() public view virtual returns (address) {\r... */\n      swap1\n      jump\t// out\n        /* \"Farm.sol\":29492:29533  mapping(address => Staker) public stakers */\n    tag_48:\n      mstore(0x20, 0x06)\n      dup1\n      0x00\n      mstore\n      keccak256(0x00, 0x40)\n      0x00\n      swap2\n      pop\n      swap1\n      pop\n      dup1\n      0x00\n      add\n      sload\n      swap1\n      dup1\n      0x02\n      add\n      sload\n      swap1\n      dup1\n      0x03\n      add\n      sload\n      swap1\n      pop\n      dup4\n      jump\t// out\n        /* \"Farm.sol\":29619:29667  mapping(uint256 => address) public stakerAddress */\n    tag_53:\n      mstore(0x20, 0x07)\n      dup1\n      0x00\n      mstore\n      keccak256(0x00, 0x40)\n      0x00\n      swap2\n      pop\n      sload\n      swap1\n      0x0100\n      exp\n      swap1\n      div\n      0xffffffffffffffffffffffffffffffffffffffff\n      and\n      dup2\n      jump\t// out\n        /* \"Farm.sol\":30886:30988  function stake(uint256 _tokenId) external nonReentrant {\r... */\n    tag_57:\n        /* \"Farm.sol\":18356:18377  _nonReentrantBefore() */\n      tag_145\n        /* \"Farm.sol\":18356:18375  _nonReentrantBefore */\n      tag_74\n        /* \"Farm.sol\":18356:18377  _nonReentrantBefore() */\n      jump\t// in\n    tag_145:\n        /* \"Farm.sol\":30952:30980  _stake(msg.sender, _tokenId) */\n      tag_147\n        /* \"Farm.sol\":30959:30969  msg.sender */\n      caller\n        /* \"Farm.sol\":30971:30979  _tokenId */\n      dup3\n        /* \"Farm.sol\":30952:30958  _stake */\n      tag_148\n        /* \"Farm.sol\":30952:30980  _stake(msg.sender, _tokenId) */\n      jump\t// in\n    tag_147:\n        /* \"Farm.sol\":18400:18420  _nonReentrantAfter() */\n      tag_149\n        /* \"Farm.sol\":18400:18418  _nonReentrantAfter */\n      tag_104\n        /* \"Farm.sol\":18400:18420  _nonReentrantAfter() */\n      jump\t// in\n    tag_149:\n        /* \"Farm.sol\":30886:30988  function stake(uint256 _tokenId) external nonReentrant {\r... */\n      pop\n      jump\t// out\n        /* \"Farm.sol\":29277:29303  IERC20 public rewardsToken */\n    tag_59:\n      0x02\n      0x00\n      swap1\n      sload\n      swap1\n      0x0100\n      exp\n      swap1\n      div\n      0xffffffffffffffffffffffffffffffffffffffff\n      and\n      dup2\n      jump\t// out\n        /* \"Farm.sol\":28317:28518  function transferOwnership(address newOwner) public virtual onlyOwner {\r... */\n    tag_64:\n        /* \"Farm.sol\":27297:27310  _checkOwner() */\n      tag_151\n        /* \"Farm.sol\":27297:27308  _checkOwner */\n      tag_139\n        /* \"Farm.sol\":27297:27310  _checkOwner() */\n      jump\t// in\n    tag_151:\n        /* \"Farm.sol\":28426:28427  0 */\n      0x00\n        /* \"Farm.sol\":28406:28428  newOwner != address(0) */\n      0xffffffffffffffffffffffffffffffffffffffff\n      and\n        /* \"Farm.sol\":28406:28414  newOwner */\n      dup2\n        /* \"Farm.sol\":28406:28428  newOwner != address(0) */\n      0xffffffffffffffffffffffffffffffffffffffff\n      and\n      eq\n      iszero\n        /* \"Farm.sol\":28398:28471  require(newOwner != address(0), \"Ownable: new owner is the zero address\") */\n      tag_153\n      jumpi\n      mload(0x40)\n      0x08c379a000000000000000000000000000000000000000000000000000000000\n      dup2\n      mstore\n      0x04\n      add\n      tag_154\n      swap1\n      tag_155\n      jump\t// in\n    tag_154:\n      mload(0x40)\n      dup1\n      swap2\n      sub\n      swap1\n      revert\n    tag_153:\n        /* \"Farm.sol\":28482:28510  _transferOwnership(newOwner) */\n      tag_156\n        /* \"Farm.sol\":28501:28509  newOwner */\n      dup2\n        /* \"Farm.sol\":28482:28500  _transferOwnership */\n      tag_142\n        /* \"Farm.sol\":28482:28510  _transferOwnership(newOwner) */\n      jump\t// in\n    tag_156:\n        /* \"Farm.sol\":28317:28518  function transferOwnership(address newOwner) public virtual onlyOwner {\r... */\n      pop\n      jump\t// out\n        /* \"Farm.sol\":33458:33667  function availableRewards(address _staker) public view returns (uint256) {\r... */\n    tag_67:\n        /* \"Farm.sol\":33522:33529  uint256 */\n      0x00\n        /* \"Farm.sol\":33542:33557  uint256 rewards */\n      dup1\n        /* \"Farm.sol\":33601:33608  stakers */\n      0x06\n        /* \"Farm.sol\":33601:33617  stakers[_staker] */\n      0x00\n        /* \"Farm.sol\":33609:33616  _staker */\n      dup5\n        /* \"Farm.sol\":33601:33617  stakers[_staker] */\n      0xffffffffffffffffffffffffffffffffffffffff\n      and\n      0xffffffffffffffffffffffffffffffffffffffff\n      and\n      dup2\n      mstore\n      0x20\n      add\n      swap1\n      dup2\n      mstore\n      0x20\n      add\n      0x00\n      keccak256\n        /* \"Farm.sol\":33601:33634  stakers[_staker].unclaimedRewards */\n      0x03\n      add\n      sload\n        /* \"Farm.sol\":33560:33585  calculateRewards(_staker) */\n      tag_158\n        /* \"Farm.sol\":33577:33584  _staker */\n      dup5\n        /* \"Farm.sol\":33560:33576  calculateRewards */\n      tag_83\n        /* \"Farm.sol\":33560:33585  calculateRewards(_staker) */\n      jump\t// in\n    tag_158:\n        /* \"Farm.sol\":33560:33634  calculateRewards(_staker) +\r... */\n      tag_159\n      swap2\n      swap1\n      tag_85\n      jump\t// in\n    tag_159:\n        /* \"Farm.sol\":33542:33634  uint256 rewards = calculateRewards(_staker) +\r... */\n      swap1\n      pop\n        /* \"Farm.sol\":33652:33659  rewards */\n      dup1\n        /* \"Farm.sol\":33645:33659  return rewards */\n      swap2\n      pop\n      pop\n        /* \"Farm.sol\":33458:33667  function availableRewards(address _staker) public view returns (uint256) {\r... */\n      swap2\n      swap1\n      pop\n      jump\t// out\n        /* \"Farm.sol\":30694:30878  function adminWithdrawRewards() external onlyOwner {\r... */\n    tag_71:\n        /* \"Farm.sol\":27297:27310  _checkOwner() */\n      tag_161\n        /* \"Farm.sol\":27297:27308  _checkOwner */\n      tag_139\n        /* \"Farm.sol\":27297:27310  _checkOwner() */\n      jump\t// in\n    tag_161:\n        /* \"Farm.sol\":30756:30772  uint256 _balance */\n      0x00\n        /* \"Farm.sol\":30775:30787  rewardsToken */\n      0x02\n      0x00\n      swap1\n      sload\n      swap1\n      0x0100\n      exp\n      swap1\n      div\n      0xffffffffffffffffffffffffffffffffffffffff\n      and\n        /* \"Farm.sol\":30775:30797  rewardsToken.balanceOf */\n      0xffffffffffffffffffffffffffffffffffffffff\n      and\n      0x70a08231\n        /* \"Farm.sol\":30806:30810  this */\n      address\n        /* \"Farm.sol\":30775:30812  rewardsToken.balanceOf(address(this)) */\n      mload(0x40)\n      dup3\n      0xffffffff\n      and\n      0xe0\n      shl\n      dup2\n      mstore\n      0x04\n      add\n      tag_163\n      swap2\n      swap1\n      tag_45\n      jump\t// in\n    tag_163:\n      0x20\n      mload(0x40)\n      dup1\n      dup4\n      sub\n      dup2\n      dup7\n      dup1\n      extcodesize\n      iszero\n      dup1\n      iszero\n      tag_164\n      jumpi\n      0x00\n      dup1\n      revert\n    tag_164:\n      pop\n      gas\n      staticcall\n      iszero\n      dup1\n      iszero\n      tag_166\n      jumpi\n      returndatasize\n      0x00\n      dup1\n      returndatacopy\n      revert(0x00, returndatasize)\n    tag_166:\n      pop\n      pop\n      pop\n      pop\n      mload(0x40)\n      returndatasize\n      not(0x1f)\n      0x1f\n      dup3\n      add\n      and\n      dup3\n      add\n      dup1\n      0x40\n      mstore\n      pop\n      dup2\n      add\n      swap1\n      tag_167\n      swap2\n      swap1\n      tag_168\n      jump\t// in\n    tag_167:\n        /* \"Farm.sol\":30756:30812  uint256 _balance = rewardsToken.balanceOf(address(this)) */\n      swap1\n      pop\n        /* \"Farm.sol\":30823:30870  rewardsToken.safeTransfer(msg.sender, _balance) */\n      tag_169\n        /* \"Farm.sol\":30849:30859  msg.sender */\n      caller\n        /* \"Farm.sol\":30861:30869  _balance */\n      dup3\n        /* \"Farm.sol\":30823:30835  rewardsToken */\n      0x02\n      0x00\n      swap1\n      sload\n      swap1\n      0x0100\n      exp\n      swap1\n      div\n      0xffffffffffffffffffffffffffffffffffffffff\n      and\n        /* \"Farm.sol\":30823:30848  rewardsToken.safeTransfer */\n      0xffffffffffffffffffffffffffffffffffffffff\n      and\n      tag_112\n      swap1\n        /* \"Farm.sol\":30823:30870  rewardsToken.safeTransfer(msg.sender, _balance) */\n      swap3\n      swap2\n      swap1\n      0xffffffff\n      and\n      jump\t// in\n    tag_169:\n        /* \"Farm.sol\":27321:27322  _ */\n      pop\n        /* \"Farm.sol\":30694:30878  function adminWithdrawRewards() external onlyOwner {\r... */\n      jump\t// out\n        /* \"Farm.sol\":18436:18725  function _nonReentrantBefore() private {\r... */\n    tag_74:\n        /* \"Farm.sol\":17838:17839  2 */\n      0x02\n        /* \"Farm.sol\":18566:18573  _status */\n      sload(0x00)\n        /* \"Farm.sol\":18566:18585  _status != _ENTERED */\n      eq\n      iszero\n        /* \"Farm.sol\":18558:18621  require(_status != _ENTERED, \"ReentrancyGuard: reentrant call\") */\n      tag_171\n      jumpi\n      mload(0x40)\n      0x08c379a000000000000000000000000000000000000000000000000000000000\n      dup2\n      mstore\n      0x04\n      add\n      tag_172\n      swap1\n      tag_173\n      jump\t// in\n    tag_172:\n      mload(0x40)\n      dup1\n      swap2\n      sub\n      swap1\n      revert\n    tag_171:\n        /* \"Farm.sol\":17838:17839  2 */\n      0x02\n        /* \"Farm.sol\":18699:18706  _status */\n      0x00\n        /* \"Farm.sol\":18699:18717  _status = _ENTERED */\n      dup2\n      swap1\n      sstore\n      pop\n        /* \"Farm.sol\":18436:18725  function _nonReentrantBefore() private {\r... */\n      jump\t// out\n        /* \"Farm.sol\":32068:32368  function calculateRewards(address _staker)\r... */\n    tag_83:\n        /* \"Farm.sol\":32161:32177  uint256 _rewards */\n      0x00\n        /* \"Farm.sol\":32355:32359  3600 */\n      0x0e10\n        /* \"Farm.sol\":32337:32351  rewardsPerHour */\n      sload(0x05)\n        /* \"Farm.sol\":32293:32300  stakers */\n      0x06\n        /* \"Farm.sol\":32293:32309  stakers[_staker] */\n      0x00\n        /* \"Farm.sol\":32301:32308  _staker */\n      dup6\n        /* \"Farm.sol\":32293:32309  stakers[_staker] */\n      0xffffffffffffffffffffffffffffffffffffffff\n      and\n      0xffffffffffffffffffffffffffffffffffffffff\n      and\n      dup2\n      mstore\n      0x20\n      add\n      swap1\n      dup2\n      mstore\n      0x20\n      add\n      0x00\n      keccak256\n        /* \"Farm.sol\":32293:32322  stakers[_staker].amountStaked */\n      0x00\n      add\n      sload\n        /* \"Farm.sol\":32239:32246  stakers */\n      0x06\n        /* \"Farm.sol\":32239:32255  stakers[_staker] */\n      0x00\n        /* \"Farm.sol\":32247:32254  _staker */\n      dup7\n        /* \"Farm.sol\":32239:32255  stakers[_staker] */\n      0xffffffffffffffffffffffffffffffffffffffff\n      and\n      0xffffffffffffffffffffffffffffffffffffffff\n      and\n      dup2\n      mstore\n      0x20\n      add\n      swap1\n      dup2\n      mstore\n      0x20\n      add\n      0x00\n      keccak256\n        /* \"Farm.sol\":32239:32272  stakers[_staker].timeOfLastUpdate */\n      0x02\n      add\n      sload\n        /* \"Farm.sol\":32221:32236  block.timestamp */\n      timestamp\n        /* \"Farm.sol\":32221:32272  block.timestamp - stakers[_staker].timeOfLastUpdate */\n      tag_175\n      swap2\n      swap1\n      tag_176\n      jump\t// in\n    tag_175:\n        /* \"Farm.sol\":32220:32322  (block.timestamp - stakers[_staker].timeOfLastUpdate) *\r... */\n      tag_177\n      swap2\n      swap1\n      tag_178\n      jump\t// in\n    tag_177:\n        /* \"Farm.sol\":32204:32351  (\r... */\n      tag_179\n      swap2\n      swap1\n      tag_178\n      jump\t// in\n    tag_179:\n        /* \"Farm.sol\":32203:32359  ((\r... */\n      tag_180\n      swap2\n      swap1\n      tag_181\n      jump\t// in\n    tag_180:\n        /* \"Farm.sol\":32195:32360  return (((\r... */\n      swap1\n      pop\n        /* \"Farm.sol\":32068:32368  function calculateRewards(address _staker)\r... */\n      swap2\n      swap1\n      pop\n      jump\t// out\n        /* \"Farm.sol\":18733:18946  function _nonReentrantAfter() private {\r... */\n    tag_104:\n        /* \"Farm.sol\":17794:17795  1 */\n      0x01\n        /* \"Farm.sol\":18916:18923  _status */\n      0x00\n        /* \"Farm.sol\":18916:18938  _status = _NOT_ENTERED */\n      dup2\n      swap1\n      sstore\n      pop\n        /* \"Farm.sol\":18733:18946  function _nonReentrantAfter() private {\r... */\n      jump\t// out\n        /* \"Farm.sol\":23768:23945  function safeTransfer(IERC20 token, address to, uint256 value) internal {\r... */\n    tag_112:\n        /* \"Farm.sol\":23851:23937  _callOptionalReturn(token, abi.encodeWithSelector(token.transfer.selector, to, value)) */\n      tag_184\n        /* \"Farm.sol\":23871:23876  token */\n      dup4\n        /* \"Farm.sol\":23901:23924  token.transfer.selector */\n      shl(0xe0, 0xa9059cbb)\n        /* \"Farm.sol\":23926:23928  to */\n      dup5\n        /* \"Farm.sol\":23930:23935  value */\n      dup5\n        /* \"Farm.sol\":23878:23936  abi.encodeWithSelector(token.transfer.selector, to, value) */\n      add(0x24, mload(0x40))\n      tag_185\n      swap3\n      swap2\n      swap1\n      tag_186\n      jump\t// in\n    tag_185:\n      mload(0x40)\n      0x20\n      dup2\n      dup4\n      sub\n      sub\n      dup2\n      mstore\n      swap1\n      0x40\n      mstore\n      swap1\n      not(0xffffffffffffffffffffffffffffffffffffffffffffffffffffffff)\n      and\n      0x20\n      dup3\n      add\n      dup1\n      mload\n      0xffffffffffffffffffffffffffffffffffffffffffffffffffffffff\n      dup4\n      dup2\n      dup4\n      and\n      or\n      dup4\n      mstore\n      pop\n      pop\n      pop\n      pop\n        /* \"Farm.sol\":23851:23870  _callOptionalReturn */\n      tag_187\n        /* \"Farm.sol\":23851:23937  _callOptionalReturn(token, abi.encodeWithSelector(token.transfer.selector, to, value)) */\n      jump\t// in\n    tag_184:\n        /* \"Farm.sol\":23768:23945  function safeTransfer(IERC20 token, address to, uint256 value) internal {\r... */\n      pop\n      pop\n      pop\n      jump\t// out\n        /* \"Farm.sol\":27576:27708  function _checkOwner() internal view virtual {\r... */\n    tag_139:\n        /* \"Farm.sol\":27651:27663  _msgSender() */\n      tag_189\n        /* \"Farm.sol\":27651:27661  _msgSender */\n      tag_190\n        /* \"Farm.sol\":27651:27663  _msgSender() */\n      jump\t// in\n    tag_189:\n        /* \"Farm.sol\":27640:27663  owner() == _msgSender() */\n      0xffffffffffffffffffffffffffffffffffffffff\n      and\n        /* \"Farm.sol\":27640:27647  owner() */\n      tag_191\n        /* \"Farm.sol\":27640:27645  owner */\n      tag_43\n        /* \"Farm.sol\":27640:27647  owner() */\n      jump\t// in\n    tag_191:\n        /* \"Farm.sol\":27640:27663  owner() == _msgSender() */\n      0xffffffffffffffffffffffffffffffffffffffff\n      and\n      eq\n        /* \"Farm.sol\":27632:27700  require(owner() == _msgSender(), \"Ownable: caller is not the owner\") */\n      tag_192\n      jumpi\n      mload(0x40)\n      0x08c379a000000000000000000000000000000000000000000000000000000000\n      dup2\n      mstore\n      0x04\n      add\n      tag_193\n      swap1\n      tag_194\n      jump\t// in\n    tag_193:\n      mload(0x40)\n      dup1\n      swap2\n      sub\n      swap1\n      revert\n    tag_192:\n        /* \"Farm.sol\":27576:27708  function _checkOwner() internal view virtual {\r... */\n      jump\t// out\n        /* \"Farm.sol\":28678:28869  function _transferOwnership(address newOwner) internal virtual {\r... */\n    tag_142:\n        /* \"Farm.sol\":28752:28768  address oldOwner */\n      0x00\n        /* \"Farm.sol\":28771:28777  _owner */\n      0x01\n      dup1\n      sload\n      swap1\n      0x0100\n      exp\n      swap1\n      div\n      0xffffffffffffffffffffffffffffffffffffffff\n      and\n        /* \"Farm.sol\":28752:28777  address oldOwner = _owner */\n      swap1\n      pop\n        /* \"Farm.sol\":28797:28805  newOwner */\n      dup2\n        /* \"Farm.sol\":28788:28794  _owner */\n      0x01\n      dup1\n        /* \"Farm.sol\":28788:28805  _owner = newOwner */\n      0x0100\n      exp\n      dup2\n      sload\n      dup2\n      0xffffffffffffffffffffffffffffffffffffffff\n      mul\n      not\n      and\n      swap1\n      dup4\n      0xffffffffffffffffffffffffffffffffffffffff\n      and\n      mul\n      or\n      swap1\n      sstore\n      pop\n        /* \"Farm.sol\":28852:28860  newOwner */\n      dup2\n        /* \"Farm.sol\":28821:28861  OwnershipTransferred(oldOwner, newOwner) */\n      0xffffffffffffffffffffffffffffffffffffffff\n      and\n        /* \"Farm.sol\":28842:28850  oldOwner */\n      dup2\n        /* \"Farm.sol\":28821:28861  OwnershipTransferred(oldOwner, newOwner) */\n      0xffffffffffffffffffffffffffffffffffffffff\n      and\n      0x8be0079c531659141344cd1fd0a4f28419497f9722a3daafe3b4186f6b6457e0\n      mload(0x40)\n      mload(0x40)\n      dup1\n      swap2\n      sub\n      swap1\n      log3\n        /* \"Farm.sol\":28678:28869  function _transferOwnership(address newOwner) internal virtual {\r... */\n      pop\n      pop\n      jump\t// out\n        /* \"Farm.sol\":29955:30686  function _stake(address _staker, uint256 _tokenId) internal {\r... */\n    tag_148:\n        /* \"Farm.sol\":30083:30090  _staker */\n      dup2\n        /* \"Farm.sol\":30048:30090  nftCollection.ownerOf(_tokenId) == _staker */\n      0xffffffffffffffffffffffffffffffffffffffff\n      and\n        /* \"Farm.sol\":30048:30061  nftCollection */\n      0x03\n      0x00\n      swap1\n      sload\n      swap1\n      0x0100\n      exp\n      swap1\n      div\n      0xffffffffffffffffffffffffffffffffffffffff\n      and\n        /* \"Farm.sol\":30048:30069  nftCollection.ownerOf */\n      0xffffffffffffffffffffffffffffffffffffffff\n      and\n      0x6352211e\n        /* \"Farm.sol\":30070:30078  _tokenId */\n      dup4\n        /* \"Farm.sol\":30048:30079  nftCollection.ownerOf(_tokenId) */\n      mload(0x40)\n      dup3\n      0xffffffff\n      and\n      0xe0\n      shl\n      dup2\n      mstore\n      0x04\n      add\n      tag_197\n      swap2\n      swap1\n      tag_69\n      jump\t// in\n    tag_197:\n      0x20\n      mload(0x40)\n      dup1\n      dup4\n      sub\n      dup2\n      dup7\n      dup1\n      extcodesize\n      iszero\n      dup1\n      iszero\n      tag_198\n      jumpi\n      0x00\n      dup1\n      revert\n    tag_198:\n      pop\n      gas\n      staticcall\n      iszero\n      dup1\n      iszero\n      tag_200\n      jumpi\n      returndatasize\n      0x00\n      dup1\n      returndatacopy\n      revert(0x00, returndatasize)\n    tag_200:\n      pop\n      pop\n      pop\n      pop\n      mload(0x40)\n      returndatasize\n      not(0x1f)\n      0x1f\n      dup3\n      add\n      and\n      dup3\n      add\n      dup1\n      0x40\n      mstore\n      pop\n      dup2\n      add\n      swap1\n      tag_201\n      swap2\n      swap1\n      tag_202\n      jump\t// in\n    tag_201:\n        /* \"Farm.sol\":30048:30090  nftCollection.ownerOf(_tokenId) == _staker */\n      0xffffffffffffffffffffffffffffffffffffffff\n      and\n      eq\n        /* \"Farm.sol\":30026:30143  require(\r... */\n      tag_203\n      jumpi\n      mload(0x40)\n      0x08c379a000000000000000000000000000000000000000000000000000000000\n      dup2\n      mstore\n      0x04\n      add\n      tag_204\n      swap1\n      tag_81\n      jump\t// in\n    tag_204:\n      mload(0x40)\n      dup1\n      swap2\n      sub\n      swap1\n      revert\n    tag_203:\n        /* \"Farm.sol\":30192:30193  0 */\n      0x00\n        /* \"Farm.sol\":30160:30167  stakers */\n      0x06\n        /* \"Farm.sol\":30160:30176  stakers[_staker] */\n      0x00\n        /* \"Farm.sol\":30168:30175  _staker */\n      dup5\n        /* \"Farm.sol\":30160:30176  stakers[_staker] */\n      0xffffffffffffffffffffffffffffffffffffffff\n      and\n      0xffffffffffffffffffffffffffffffffffffffff\n      and\n      dup2\n      mstore\n      0x20\n      add\n      swap1\n      dup2\n      mstore\n      0x20\n      add\n      0x00\n      keccak256\n        /* \"Farm.sol\":30160:30189  stakers[_staker].amountStaked */\n      0x00\n      add\n      sload\n        /* \"Farm.sol\":30160:30193  stakers[_staker].amountStaked > 0 */\n      gt\n        /* \"Farm.sol\":30156:30324  if (stakers[_staker].amountStaked > 0) {\r... */\n      iszero\n      tag_205\n      jumpi\n        /* \"Farm.sol\":30210:30225  uint256 rewards */\n      0x00\n        /* \"Farm.sol\":30228:30253  calculateRewards(_staker) */\n      tag_206\n        /* \"Farm.sol\":30245:30252  _staker */\n      dup4\n        /* \"Farm.sol\":30228:30244  calculateRewards */\n      tag_83\n        /* \"Farm.sol\":30228:30253  calculateRewards(_staker) */\n      jump\t// in\n    tag_206:\n        /* \"Farm.sol\":30210:30253  uint256 rewards = calculateRewards(_staker) */\n      swap1\n      pop\n        /* \"Farm.sol\":30305:30312  rewards */\n      dup1\n        /* \"Farm.sol\":30268:30275  stakers */\n      0x06\n        /* \"Farm.sol\":30268:30284  stakers[_staker] */\n      0x00\n        /* \"Farm.sol\":30276:30283  _staker */\n      dup6\n        /* \"Farm.sol\":30268:30284  stakers[_staker] */\n      0xffffffffffffffffffffffffffffffffffffffff\n      and\n      0xffffffffffffffffffffffffffffffffffffffff\n      and\n      dup2\n      mstore\n      0x20\n      add\n      swap1\n      dup2\n      mstore\n      0x20\n      add\n      0x00\n      keccak256\n        /* \"Farm.sol\":30268:30301  stakers[_staker].unclaimedRewards */\n      0x03\n      add\n      0x00\n        /* \"Farm.sol\":30268:30312  stakers[_staker].unclaimedRewards += rewards */\n      dup3\n      dup3\n      sload\n      tag_207\n      swap2\n      swap1\n      tag_85\n      jump\t// in\n    tag_207:\n      swap3\n      pop\n      pop\n      dup2\n      swap1\n      sstore\n      pop\n        /* \"Farm.sol\":30156:30324  if (stakers[_staker].amountStaked > 0) {\r... */\n      pop\n    tag_205:\n        /* \"Farm.sol\":30336:30349  nftCollection */\n      0x03\n      0x00\n      swap1\n      sload\n      swap1\n      0x0100\n      exp\n      swap1\n      div\n      0xffffffffffffffffffffffffffffffffffffffff\n      and\n        /* \"Farm.sol\":30336:30362  nftCollection.transferFrom */\n      0xffffffffffffffffffffffffffffffffffffffff\n      and\n      0x23b872dd\n        /* \"Farm.sol\":30363:30370  _staker */\n      dup4\n        /* \"Farm.sol\":30380:30384  this */\n      address\n        /* \"Farm.sol\":30387:30395  _tokenId */\n      dup5\n        /* \"Farm.sol\":30336:30396  nftCollection.transferFrom(_staker, address(this), _tokenId) */\n      mload(0x40)\n      dup5\n      0xffffffff\n      and\n      0xe0\n      shl\n      dup2\n      mstore\n      0x04\n      add\n      tag_208\n      swap4\n      swap3\n      swap2\n      swap1\n      tag_99\n      jump\t// in\n    tag_208:\n      0x00\n      mload(0x40)\n      dup1\n      dup4\n      sub\n      dup2\n      0x00\n      dup8\n      dup1\n      extcodesize\n      iszero\n      dup1\n      iszero\n      tag_209\n      jumpi\n      0x00\n      dup1\n      revert\n    tag_209:\n      pop\n      gas\n      call\n      iszero\n      dup1\n      iszero\n      tag_211\n      jumpi\n      returndatasize\n      0x00\n      dup1\n      returndatacopy\n      revert(0x00, returndatasize)\n    tag_211:\n      pop\n      pop\n      pop\n      pop\n        /* \"Farm.sol\":30409:30439  StakedToken memory stakedToken */\n      0x00\n        /* \"Farm.sol\":30442:30472  StakedToken(_staker, _tokenId) */\n      mload(0x40)\n      dup1\n      0x40\n      add\n      0x40\n      mstore\n      dup1\n        /* \"Farm.sol\":30454:30461  _staker */\n      dup5\n        /* \"Farm.sol\":30442:30472  StakedToken(_staker, _tokenId) */\n      0xffffffffffffffffffffffffffffffffffffffff\n      and\n      dup2\n      mstore\n      0x20\n      add\n        /* \"Farm.sol\":30463:30471  _tokenId */\n      dup4\n        /* \"Farm.sol\":30442:30472  StakedToken(_staker, _tokenId) */\n      dup2\n      mstore\n      pop\n        /* \"Farm.sol\":30409:30472  StakedToken memory stakedToken = StakedToken(_staker, _tokenId) */\n      swap1\n      pop\n        /* \"Farm.sol\":30483:30490  stakers */\n      0x06\n        /* \"Farm.sol\":30483:30499  stakers[_staker] */\n      0x00\n        /* \"Farm.sol\":30491:30498  _staker */\n      dup5\n        /* \"Farm.sol\":30483:30499  stakers[_staker] */\n      0xffffffffffffffffffffffffffffffffffffffff\n      and\n      0xffffffffffffffffffffffffffffffffffffffff\n      and\n      dup2\n      mstore\n      0x20\n      add\n      swap1\n      dup2\n      mstore\n      0x20\n      add\n      0x00\n      keccak256\n        /* \"Farm.sol\":30483:30512  stakers[_staker].stakedTokens */\n      0x01\n      add\n        /* \"Farm.sol\":30518:30529  stakedToken */\n      dup2\n        /* \"Farm.sol\":30483:30530  stakers[_staker].stakedTokens.push(stakedToken) */\n      swap1\n      dup1\n      0x01\n      dup2\n      sload\n      add\n      dup1\n      dup3\n      sstore\n      dup1\n      swap2\n      pop\n      pop\n      0x01\n      swap1\n      sub\n      swap1\n      0x00\n      mstore\n      keccak256(0x00, 0x20)\n      swap1\n      0x02\n      mul\n      add\n      0x00\n      swap1\n      swap2\n      swap1\n      swap2\n      swap1\n      swap2\n      pop\n      0x00\n      dup3\n      add\n      mload\n      dup2\n      0x00\n      add\n      exp(0x0100, 0x00)\n      dup2\n      sload\n      dup2\n      0xffffffffffffffffffffffffffffffffffffffff\n      mul\n      not\n      and\n      swap1\n      dup4\n      0xffffffffffffffffffffffffffffffffffffffff\n      and\n      mul\n      or\n      swap1\n      sstore\n      pop\n      0x20\n      dup3\n      add\n      mload\n      dup2\n      0x01\n      add\n      sstore\n      pop\n      pop\n        /* \"Farm.sol\":30541:30548  stakers */\n      0x06\n        /* \"Farm.sol\":30541:30557  stakers[_staker] */\n      0x00\n        /* \"Farm.sol\":30549:30556  _staker */\n      dup5\n        /* \"Farm.sol\":30541:30557  stakers[_staker] */\n      0xffffffffffffffffffffffffffffffffffffffff\n      and\n      0xffffffffffffffffffffffffffffffffffffffff\n      and\n      dup2\n      mstore\n      0x20\n      add\n      swap1\n      dup2\n      mstore\n      0x20\n      add\n      0x00\n      keccak256\n        /* \"Farm.sol\":30541:30570  stakers[_staker].amountStaked */\n      0x00\n      add\n      0x00\n        /* \"Farm.sol\":30541:30572  stakers[_staker].amountStaked++ */\n      dup2\n      sload\n      dup1\n      swap3\n      swap2\n      swap1\n      tag_213\n      swap1\n      tag_93\n      jump\t// in\n    tag_213:\n      swap2\n      swap1\n      pop\n      sstore\n      pop\n        /* \"Farm.sol\":30609:30616  _staker */\n      dup3\n        /* \"Farm.sol\":30583:30596  stakerAddress */\n      0x07\n        /* \"Farm.sol\":30583:30606  stakerAddress[_tokenId] */\n      0x00\n        /* \"Farm.sol\":30597:30605  _tokenId */\n      dup5\n        /* \"Farm.sol\":30583:30606  stakerAddress[_tokenId] */\n      dup2\n      mstore\n      0x20\n      add\n      swap1\n      dup2\n      mstore\n      0x20\n      add\n      0x00\n      keccak256\n      0x00\n        /* \"Farm.sol\":30583:30616  stakerAddress[_tokenId] = _staker */\n      0x0100\n      exp\n      dup2\n      sload\n      dup2\n      0xffffffffffffffffffffffffffffffffffffffff\n      mul\n      not\n      and\n      swap1\n      dup4\n      0xffffffffffffffffffffffffffffffffffffffff\n      and\n      mul\n      or\n      swap1\n      sstore\n      pop\n        /* \"Farm.sol\":30663:30678  block.timestamp */\n      timestamp\n        /* \"Farm.sol\":30627:30634  stakers */\n      0x06\n        /* \"Farm.sol\":30627:30643  stakers[_staker] */\n      0x00\n        /* \"Farm.sol\":30635:30642  _staker */\n      dup6\n        /* \"Farm.sol\":30627:30643  stakers[_staker] */\n      0xffffffffffffffffffffffffffffffffffffffff\n      and\n      0xffffffffffffffffffffffffffffffffffffffff\n      and\n      dup2\n      mstore\n      0x20\n      add\n      swap1\n      dup2\n      mstore\n      0x20\n      add\n      0x00\n      keccak256\n        /* \"Farm.sol\":30627:30660  stakers[_staker].timeOfLastUpdate */\n      0x02\n      add\n        /* \"Farm.sol\":30627:30678  stakers[_staker].timeOfLastUpdate = block.timestamp */\n      dup2\n      swap1\n      sstore\n      pop\n        /* \"Farm.sol\":29955:30686  function _stake(address _staker, uint256 _tokenId) internal {\r... */\n      pop\n      pop\n      pop\n      jump\t// out\n        /* \"Farm.sol\":26073:26834  function _callOptionalReturn(IERC20 token, bytes memory data) private {\r... */\n    tag_187:\n        /* \"Farm.sol\":26497:26520  bytes memory returndata */\n      0x00\n        /* \"Farm.sol\":26523:26592  address(token).functionCall(data, \"SafeERC20: low-level call failed\") */\n      tag_215\n        /* \"Farm.sol\":26551:26555  data */\n      dup3\n        /* \"Farm.sol\":26523:26592  address(token).functionCall(data, \"SafeERC20: low-level call failed\") */\n      mload(0x40)\n      dup1\n      0x40\n      add\n      0x40\n      mstore\n      dup1\n      0x20\n      dup2\n      mstore\n      0x20\n      add\n      0x5361666545524332303a206c6f772d6c6576656c2063616c6c206661696c6564\n      dup2\n      mstore\n      pop\n        /* \"Farm.sol\":26531:26536  token */\n      dup6\n        /* \"Farm.sol\":26523:26550  address(token).functionCall */\n      0xffffffffffffffffffffffffffffffffffffffff\n      and\n      tag_216\n      swap1\n        /* \"Farm.sol\":26523:26592  address(token).functionCall(data, \"SafeERC20: low-level call failed\") */\n      swap3\n      swap2\n      swap1\n      0xffffffff\n      and\n      jump\t// in\n    tag_215:\n        /* \"Farm.sol\":26497:26592  bytes memory returndata = address(token).functionCall(data, \"SafeERC20: low-level call failed\") */\n      swap1\n      pop\n        /* \"Farm.sol\":26627:26628  0 */\n      0x00\n        /* \"Farm.sol\":26607:26617  returndata */\n      dup2\n        /* \"Farm.sol\":26607:26624  returndata.length */\n      mload\n        /* \"Farm.sol\":26607:26628  returndata.length > 0 */\n      gt\n        /* \"Farm.sol\":26603:26827  if (returndata.length > 0) { // Return data is optional\r... */\n      iszero\n      tag_217\n      jumpi\n        /* \"Farm.sol\":26749:26759  returndata */\n      dup1\n        /* \"Farm.sol\":26738:26768  abi.decode(returndata, (bool)) */\n      dup1\n      0x20\n      add\n      swap1\n      mload\n      dup2\n      add\n      swap1\n      tag_218\n      swap2\n      swap1\n      tag_219\n      jump\t// in\n    tag_218:\n        /* \"Farm.sol\":26730:26815  require(abi.decode(returndata, (bool)), \"SafeERC20: ERC20 operation did not succeed\") */\n      tag_220\n      jumpi\n      mload(0x40)\n      0x08c379a000000000000000000000000000000000000000000000000000000000\n      dup2\n      mstore\n      0x04\n      add\n      tag_221\n      swap1\n      tag_222\n      jump\t// in\n    tag_221:\n      mload(0x40)\n      dup1\n      swap2\n      sub\n      swap1\n      revert\n    tag_220:\n        /* \"Farm.sol\":26603:26827  if (returndata.length > 0) { // Return data is optional\r... */\n    tag_217:\n        /* \"Farm.sol\":26073:26834  function _callOptionalReturn(IERC20 token, bytes memory data) private {\r... */\n      pop\n      pop\n      pop\n      jump\t// out\n        /* \"Farm.sol\":14698:14796  function _msgSender() internal view virtual returns (address) {\r... */\n    tag_190:\n        /* \"Farm.sol\":14751:14758  address */\n      0x00\n        /* \"Farm.sol\":14778:14788  msg.sender */\n      caller\n        /* \"Farm.sol\":14771:14788  return msg.sender */\n      swap1\n      pop\n        /* \"Farm.sol\":14698:14796  function _msgSender() internal view virtual returns (address) {\r... */\n      swap1\n      jump\t// out\n        /* \"Farm.sol\":8687:8882  function functionCall(address target, bytes memory data, string memory errorMessage) internal returns (bytes memory) {\r... */\n    tag_216:\n        /* \"Farm.sol\":8790:8802  bytes memory */\n      0x60\n        /* \"Farm.sol\":8822:8874  functionCallWithValue(target, data, 0, errorMessage) */\n      tag_225\n        /* \"Farm.sol\":8844:8850  target */\n      dup5\n        /* \"Farm.sol\":8852:8856  data */\n      dup5\n        /* \"Farm.sol\":8858:8859  0 */\n      0x00\n        /* \"Farm.sol\":8861:8873  errorMessage */\n      dup6\n        /* \"Farm.sol\":8822:8843  functionCallWithValue */\n      tag_226\n        /* \"Farm.sol\":8822:8874  functionCallWithValue(target, data, 0, errorMessage) */\n      jump\t// in\n    tag_225:\n        /* \"Farm.sol\":8815:8874  return functionCallWithValue(target, data, 0, errorMessage) */\n      swap1\n      pop\n        /* \"Farm.sol\":8687:8882  function functionCall(address target, bytes memory data, string memory errorMessage) internal returns (bytes memory) {\r... */\n      swap4\n      swap3\n      pop\n      pop\n      pop\n      jump\t// out\n        /* \"Farm.sol\":9739:10269  function functionCallWithValue(address target, bytes memory data, uint256 value, string memory errorMessage) internal returns (bytes memory) {\r... */\n    tag_226:\n        /* \"Farm.sol\":9866:9878  bytes memory */\n      0x60\n        /* \"Farm.sol\":9924:9929  value */\n      dup3\n        /* \"Farm.sol\":9899:9920  address(this).balance */\n      selfbalance\n        /* \"Farm.sol\":9899:9929  address(this).balance >= value */\n      lt\n      iszero\n        /* \"Farm.sol\":9891:9972  require(address(this).balance >= value, \"Address: insufficient balance for call\") */\n      tag_228\n      jumpi\n      mload(0x40)\n      0x08c379a000000000000000000000000000000000000000000000000000000000\n      dup2\n      mstore\n      0x04\n      add\n      tag_229\n      swap1\n      tag_230\n      jump\t// in\n    tag_229:\n      mload(0x40)\n      dup1\n      swap2\n      sub\n      swap1\n      revert\n    tag_228:\n        /* \"Farm.sol\":9991:10009  isContract(target) */\n      tag_231\n        /* \"Farm.sol\":10002:10008  target */\n      dup6\n        /* \"Farm.sol\":9991:10001  isContract */\n      tag_232\n        /* \"Farm.sol\":9991:10009  isContract(target) */\n      jump\t// in\n    tag_231:\n        /* \"Farm.sol\":9983:10043  require(isContract(target), \"Address: call to non-contract\") */\n      tag_233\n      jumpi\n      mload(0x40)\n      0x08c379a000000000000000000000000000000000000000000000000000000000\n      dup2\n      mstore\n      0x04\n      add\n      tag_234\n      swap1\n      tag_235\n      jump\t// in\n    tag_234:\n      mload(0x40)\n      dup1\n      swap2\n      sub\n      swap1\n      revert\n    tag_233:\n        /* \"Farm.sol\":10117:10129  bool success */\n      0x00\n        /* \"Farm.sol\":10131:10154  bytes memory returndata */\n      dup1\n        /* \"Farm.sol\":10158:10164  target */\n      dup7\n        /* \"Farm.sol\":10158:10169  target.call */\n      0xffffffffffffffffffffffffffffffffffffffff\n      and\n        /* \"Farm.sol\":10178:10183  value */\n      dup6\n        /* \"Farm.sol\":10186:10190  data */\n      dup8\n        /* \"Farm.sol\":10158:10191  target.call{ value: value }(data) */\n      mload(0x40)\n      tag_236\n      swap2\n      swap1\n      tag_237\n      jump\t// in\n    tag_236:\n      0x00\n      mload(0x40)\n      dup1\n      dup4\n      sub\n      dup2\n      dup6\n      dup8\n      gas\n      call\n      swap3\n      pop\n      pop\n      pop\n      returndatasize\n      dup1\n      0x00\n      dup2\n      eq\n      tag_240\n      jumpi\n      mload(0x40)\n      swap2\n      pop\n      and(add(returndatasize, 0x3f), not(0x1f))\n      dup3\n      add\n      0x40\n      mstore\n      returndatasize\n      dup3\n      mstore\n      returndatasize\n      0x00\n      0x20\n      dup5\n      add\n      returndatacopy\n      jump(tag_239)\n    tag_240:\n      0x60\n      swap2\n      pop\n    tag_239:\n      pop\n        /* \"Farm.sol\":10116:10191  (bool success, bytes memory returndata) = target.call{ value: value }(data) */\n      swap2\n      pop\n      swap2\n      pop\n        /* \"Farm.sol\":10209:10261  _verifyCallResult(success, returndata, errorMessage) */\n      tag_241\n        /* \"Farm.sol\":10227:10234  success */\n      dup3\n        /* \"Farm.sol\":10236:10246  returndata */\n      dup3\n        /* \"Farm.sol\":10248:10260  errorMessage */\n      dup7\n        /* \"Farm.sol\":10209:10226  _verifyCallResult */\n      tag_242\n        /* \"Farm.sol\":10209:10261  _verifyCallResult(success, returndata, errorMessage) */\n      jump\t// in\n    tag_241:\n        /* \"Farm.sol\":10202:10261  return _verifyCallResult(success, returndata, errorMessage) */\n      swap3\n      pop\n      pop\n      pop\n        /* \"Farm.sol\":9739:10269  function functionCallWithValue(address target, bytes memory data, uint256 value, string memory errorMessage) internal returns (bytes memory) {\r... */\n      swap5\n      swap4\n      pop\n      pop\n      pop\n      pop\n      jump\t// out\n        /* \"Farm.sol\":5769:6191  function isContract(address account) internal view returns (bool) {\r... */\n    tag_232:\n        /* \"Farm.sol\":5829:5833  bool */\n      0x00\n        /* \"Farm.sol\":6037:6049  uint256 size */\n      dup1\n        /* \"Farm.sol\":6148:6155  account */\n      dup3\n        /* \"Farm.sol\":6136:6156  extcodesize(account) */\n      extcodesize\n        /* \"Farm.sol\":6128:6156  size := extcodesize(account) */\n      swap1\n      pop\n        /* \"Farm.sol\":6182:6183  0 */\n      0x00\n        /* \"Farm.sol\":6175:6179  size */\n      dup2\n        /* \"Farm.sol\":6175:6183  size > 0 */\n      gt\n        /* \"Farm.sol\":6168:6183  return size > 0 */\n      swap2\n      pop\n      pop\n        /* \"Farm.sol\":5769:6191  function isContract(address account) internal view returns (bool) {\r... */\n      swap2\n      swap1\n      pop\n      jump\t// out\n        /* \"Farm.sol\":11275:12017  function _verifyCallResult(bool success, bytes memory returndata, string memory errorMessage) private pure returns(bytes memory) {\r... */\n    tag_242:\n        /* \"Farm.sol\":11390:11402  bytes memory */\n      0x60\n        /* \"Farm.sol\":11419:11426  success */\n      dup4\n        /* \"Farm.sol\":11415:12010  if (success) {\r... */\n      iszero\n      tag_245\n      jumpi\n        /* \"Farm.sol\":11450:11460  returndata */\n      dup3\n        /* \"Farm.sol\":11443:11460  return returndata */\n      swap1\n      pop\n      jump(tag_244)\n        /* \"Farm.sol\":11415:12010  if (success) {\r... */\n    tag_245:\n        /* \"Farm.sol\":11584:11585  0 */\n      0x00\n        /* \"Farm.sol\":11564:11574  returndata */\n      dup4\n        /* \"Farm.sol\":11564:11581  returndata.length */\n      mload\n        /* \"Farm.sol\":11564:11585  returndata.length > 0 */\n      gt\n        /* \"Farm.sol\":11560:11999  if (returndata.length > 0) {\r... */\n      iszero\n      tag_247\n      jumpi\n        /* \"Farm.sol\":11827:11837  returndata */\n      dup3\n        /* \"Farm.sol\":11821:11838  mload(returndata) */\n      mload\n        /* \"Farm.sol\":11888:11903  returndata_size */\n      dup1\n        /* \"Farm.sol\":11875:11885  returndata */\n      dup5\n        /* \"Farm.sol\":11871:11873  32 */\n      0x20\n        /* \"Farm.sol\":11867:11886  add(32, returndata) */\n      add\n        /* \"Farm.sol\":11860:11904  revert(add(32, returndata), returndata_size) */\n      revert\n        /* \"Farm.sol\":11775:11923  {\r... */\n    tag_247:\n        /* \"Farm.sol\":11970:11982  errorMessage */\n      dup2\n        /* \"Farm.sol\":11963:11983  revert(errorMessage) */\n      mload(0x40)\n      0x08c379a000000000000000000000000000000000000000000000000000000000\n      dup2\n      mstore\n      0x04\n      add\n      tag_249\n      swap2\n      swap1\n      tag_250\n      jump\t// in\n    tag_249:\n      mload(0x40)\n      dup1\n      swap2\n      sub\n      swap1\n      revert\n        /* \"Farm.sol\":11275:12017  function _verifyCallResult(bool success, bytes memory returndata, string memory errorMessage) private pure returns(bytes memory) {\r... */\n    tag_244:\n      swap4\n      swap3\n      pop\n      pop\n      pop\n      jump\t// out\n    tag_120:\n      mload(0x40)\n      dup1\n      0x40\n      add\n      0x40\n      mstore\n      dup1\n      and(0xffffffffffffffffffffffffffffffffffffffff, 0x00)\n      dup2\n      mstore\n      0x20\n      add\n      0x00\n      dup2\n      mstore\n      pop\n      swap1\n      jump\t// out\n        /* \"#utility.yul\":7:146   */\n    tag_252:\n      0x00\n        /* \"#utility.yul\":91:97   */\n      dup2\n        /* \"#utility.yul\":78:98   */\n      calldataload\n        /* \"#utility.yul\":69:98   */\n      swap1\n      pop\n        /* \"#utility.yul\":107:140   */\n      tag_254\n        /* \"#utility.yul\":134:139   */\n      dup2\n        /* \"#utility.yul\":107:140   */\n      tag_255\n      jump\t// in\n    tag_254:\n        /* \"#utility.yul\":59:146   */\n      swap3\n      swap2\n      pop\n      pop\n      jump\t// out\n        /* \"#utility.yul\":152:295   */\n    tag_256:\n      0x00\n        /* \"#utility.yul\":240:246   */\n      dup2\n        /* \"#utility.yul\":234:247   */\n      mload\n        /* \"#utility.yul\":225:247   */\n      swap1\n      pop\n        /* \"#utility.yul\":256:289   */\n      tag_258\n        /* \"#utility.yul\":283:288   */\n      dup2\n        /* \"#utility.yul\":256:289   */\n      tag_255\n      jump\t// in\n    tag_258:\n        /* \"#utility.yul\":215:295   */\n      swap3\n      swap2\n      pop\n      pop\n      jump\t// out\n        /* \"#utility.yul\":301:438   */\n    tag_259:\n      0x00\n        /* \"#utility.yul\":386:392   */\n      dup2\n        /* \"#utility.yul\":380:393   */\n      mload\n        /* \"#utility.yul\":371:393   */\n      swap1\n      pop\n        /* \"#utility.yul\":402:432   */\n      tag_261\n        /* \"#utility.yul\":426:431   */\n      dup2\n        /* \"#utility.yul\":402:432   */\n      tag_262\n      jump\t// in\n    tag_261:\n        /* \"#utility.yul\":361:438   */\n      swap3\n      swap2\n      pop\n      pop\n      jump\t// out\n        /* \"#utility.yul\":444:583   */\n    tag_263:\n      0x00\n        /* \"#utility.yul\":528:534   */\n      dup2\n        /* \"#utility.yul\":515:535   */\n      calldataload\n        /* \"#utility.yul\":506:535   */\n      swap1\n      pop\n        /* \"#utility.yul\":544:577   */\n      tag_265\n        /* \"#utility.yul\":571:576   */\n      dup2\n        /* \"#utility.yul\":544:577   */\n      tag_266\n      jump\t// in\n    tag_265:\n        /* \"#utility.yul\":496:583   */\n      swap3\n      swap2\n      pop\n      pop\n      jump\t// out\n        /* \"#utility.yul\":589:732   */\n    tag_267:\n      0x00\n        /* \"#utility.yul\":677:683   */\n      dup2\n        /* \"#utility.yul\":671:684   */\n      mload\n        /* \"#utility.yul\":662:684   */\n      swap1\n      pop\n        /* \"#utility.yul\":693:726   */\n      tag_269\n        /* \"#utility.yul\":720:725   */\n      dup2\n        /* \"#utility.yul\":693:726   */\n      tag_266\n      jump\t// in\n    tag_269:\n        /* \"#utility.yul\":652:732   */\n      swap3\n      swap2\n      pop\n      pop\n      jump\t// out\n        /* \"#utility.yul\":738:1000   */\n    tag_32:\n      0x00\n        /* \"#utility.yul\":846:848   */\n      0x20\n        /* \"#utility.yul\":834:843   */\n      dup3\n        /* \"#utility.yul\":825:832   */\n      dup5\n        /* \"#utility.yul\":821:844   */\n      sub\n        /* \"#utility.yul\":817:849   */\n      slt\n        /* \"#utility.yul\":814:816   */\n      iszero\n      tag_271\n      jumpi\n        /* \"#utility.yul\":862:863   */\n      0x00\n        /* \"#utility.yul\":859:860   */\n      dup1\n        /* \"#utility.yul\":852:864   */\n      revert\n        /* \"#utility.yul\":814:816   */\n    tag_271:\n        /* \"#utility.yul\":905:906   */\n      0x00\n        /* \"#utility.yul\":930:983   */\n      tag_272\n        /* \"#utility.yul\":975:982   */\n      dup5\n        /* \"#utility.yul\":966:972   */\n      dup3\n        /* \"#utility.yul\":955:964   */\n      dup6\n        /* \"#utility.yul\":951:973   */\n      add\n        /* \"#utility.yul\":930:983   */\n      tag_252\n      jump\t// in\n    tag_272:\n        /* \"#utility.yul\":920:983   */\n      swap2\n      pop\n        /* \"#utility.yul\":876:993   */\n      pop\n        /* \"#utility.yul\":804:1000   */\n      swap3\n      swap2\n      pop\n      pop\n      jump\t// out\n        /* \"#utility.yul\":1006:1290   */\n    tag_202:\n      0x00\n        /* \"#utility.yul\":1125:1127   */\n      0x20\n        /* \"#utility.yul\":1113:1122   */\n      dup3\n        /* \"#utility.yul\":1104:1111   */\n      dup5\n        /* \"#utility.yul\":1100:1123   */\n      sub\n        /* \"#utility.yul\":1096:1128   */\n      slt\n        /* \"#utility.yul\":1093:1095   */\n      iszero\n      tag_274\n      jumpi\n        /* \"#utility.yul\":1141:1142   */\n      0x00\n        /* \"#utility.yul\":1138:1139   */\n      dup1\n        /* \"#utility.yul\":1131:1143   */\n      revert\n        /* \"#utility.yul\":1093:1095   */\n    tag_274:\n        /* \"#utility.yul\":1184:1185   */\n      0x00\n        /* \"#utility.yul\":1209:1273   */\n      tag_275\n        /* \"#utility.yul\":1265:1272   */\n      dup5\n        /* \"#utility.yul\":1256:1262   */\n      dup3\n        /* \"#utility.yul\":1245:1254   */\n      dup6\n        /* \"#utility.yul\":1241:1263   */\n      add\n        /* \"#utility.yul\":1209:1273   */\n      tag_256\n      jump\t// in\n    tag_275:\n        /* \"#utility.yul\":1199:1273   */\n      swap2\n      pop\n        /* \"#utility.yul\":1155:1283   */\n      pop\n        /* \"#utility.yul\":1083:1290   */\n      swap3\n      swap2\n      pop\n      pop\n      jump\t// out\n        /* \"#utility.yul\":1296:1574   */\n    tag_219:\n      0x00\n        /* \"#utility.yul\":1412:1414   */\n      0x20\n        /* \"#utility.yul\":1400:1409   */\n      dup3\n        /* \"#utility.yul\":1391:1398   */\n      dup5\n        /* \"#utility.yul\":1387:1410   */\n      sub\n        /* \"#utility.yul\":1383:1415   */\n      slt\n        /* \"#utility.yul\":1380:1382   */\n      iszero\n      tag_277\n      jumpi\n        /* \"#utility.yul\":1428:1429   */\n      0x00\n        /* \"#utility.yul\":1425:1426   */\n      dup1\n        /* \"#utility.yul\":1418:1430   */\n      revert\n        /* \"#utility.yul\":1380:1382   */\n    tag_277:\n        /* \"#utility.yul\":1471:1472   */\n      0x00\n        /* \"#utility.yul\":1496:1557   */\n      tag_278\n        /* \"#utility.yul\":1549:1556   */\n      dup5\n        /* \"#utility.yul\":1540:1546   */\n      dup3\n        /* \"#utility.yul\":1529:1538   */\n      dup6\n        /* \"#utility.yul\":1525:1547   */\n      add\n        /* \"#utility.yul\":1496:1557   */\n      tag_259\n      jump\t// in\n    tag_278:\n        /* \"#utility.yul\":1486:1557   */\n      swap2\n      pop\n        /* \"#utility.yul\":1442:1567   */\n      pop\n        /* \"#utility.yul\":1370:1574   */\n      swap3\n      swap2\n      pop\n      pop\n      jump\t// out\n        /* \"#utility.yul\":1580:1842   */\n    tag_22:\n      0x00\n        /* \"#utility.yul\":1688:1690   */\n      0x20\n        /* \"#utility.yul\":1676:1685   */\n      dup3\n        /* \"#utility.yul\":1667:1674   */\n      dup5\n        /* \"#utility.yul\":1663:1686   */\n      sub\n        /* \"#utility.yul\":1659:1691   */\n      slt\n        /* \"#utility.yul\":1656:1658   */\n      iszero\n      tag_280\n      jumpi\n        /* \"#utility.yul\":1704:1705   */\n      0x00\n        /* \"#utility.yul\":1701:1702   */\n      dup1\n        /* \"#utility.yul\":1694:1706   */\n      revert\n        /* \"#utility.yul\":1656:1658   */\n    tag_280:\n        /* \"#utility.yul\":1747:1748   */\n      0x00\n        /* \"#utility.yul\":1772:1825   */\n      tag_281\n        /* \"#utility.yul\":1817:1824   */\n      dup5\n        /* \"#utility.yul\":1808:1814   */\n      dup3\n        /* \"#utility.yul\":1797:1806   */\n      dup6\n        /* \"#utility.yul\":1793:1815   */\n      add\n        /* \"#utility.yul\":1772:1825   */\n      tag_263\n      jump\t// in\n    tag_281:\n        /* \"#utility.yul\":1762:1825   */\n      swap2\n      pop\n        /* \"#utility.yul\":1718:1835   */\n      pop\n        /* \"#utility.yul\":1646:1842   */\n      swap3\n      swap2\n      pop\n      pop\n      jump\t// out\n        /* \"#utility.yul\":1848:2132   */\n    tag_168:\n      0x00\n        /* \"#utility.yul\":1967:1969   */\n      0x20\n        /* \"#utility.yul\":1955:1964   */\n      dup3\n        /* \"#utility.yul\":1946:1953   */\n      dup5\n        /* \"#utility.yul\":1942:1965   */\n      sub\n        /* \"#utility.yul\":1938:1970   */\n      slt\n        /* \"#utility.yul\":1935:1937   */\n      iszero\n      tag_283\n      jumpi\n        /* \"#utility.yul\":1983:1984   */\n      0x00\n        /* \"#utility.yul\":1980:1981   */\n      dup1\n        /* \"#utility.yul\":1973:1985   */\n      revert\n        /* \"#utility.yul\":1935:1937   */\n    tag_283:\n        /* \"#utility.yul\":2026:2027   */\n      0x00\n        /* \"#utility.yul\":2051:2115   */\n      tag_284\n        /* \"#utility.yul\":2107:2114   */\n      dup5\n        /* \"#utility.yul\":2098:2104   */\n      dup3\n        /* \"#utility.yul\":2087:2096   */\n      dup6\n        /* \"#utility.yul\":2083:2105   */\n      add\n        /* \"#utility.yul\":2051:2115   */\n      tag_267\n      jump\t// in\n    tag_284:\n        /* \"#utility.yul\":2041:2115   */\n      swap2\n      pop\n        /* \"#utility.yul\":1997:2125   */\n      pop\n        /* \"#utility.yul\":1925:2132   */\n      swap3\n      swap2\n      pop\n      pop\n      jump\t// out\n        /* \"#utility.yul\":2138:2433   */\n    tag_285:\n      0x00\n        /* \"#utility.yul\":2286:2390   */\n      tag_287\n        /* \"#utility.yul\":2386:2389   */\n      dup4\n        /* \"#utility.yul\":2378:2384   */\n      dup4\n        /* \"#utility.yul\":2286:2390   */\n      tag_288\n      jump\t// in\n    tag_287:\n        /* \"#utility.yul\":2422:2426   */\n      0x40\n        /* \"#utility.yul\":2417:2420   */\n      dup4\n        /* \"#utility.yul\":2413:2427   */\n      add\n        /* \"#utility.yul\":2399:2427   */\n      swap1\n      pop\n        /* \"#utility.yul\":2276:2433   */\n      swap3\n      swap2\n      pop\n      pop\n      jump\t// out\n        /* \"#utility.yul\":2439:2547   */\n    tag_289:\n        /* \"#utility.yul\":2516:2540   */\n      tag_291\n        /* \"#utility.yul\":2534:2539   */\n      dup2\n        /* \"#utility.yul\":2516:2540   */\n      tag_292\n      jump\t// in\n    tag_291:\n        /* \"#utility.yul\":2511:2514   */\n      dup3\n        /* \"#utility.yul\":2504:2541   */\n      mstore\n        /* \"#utility.yul\":2494:2547   */\n      pop\n      pop\n      jump\t// out\n        /* \"#utility.yul\":2553:2671   */\n    tag_293:\n        /* \"#utility.yul\":2640:2664   */\n      tag_295\n        /* \"#utility.yul\":2658:2663   */\n      dup2\n        /* \"#utility.yul\":2640:2664   */\n      tag_292\n      jump\t// in\n    tag_295:\n        /* \"#utility.yul\":2635:2638   */\n      dup3\n        /* \"#utility.yul\":2628:2665   */\n      mstore\n        /* \"#utility.yul\":2618:2671   */\n      pop\n      pop\n      jump\t// out\n        /* \"#utility.yul\":2739:3703   */\n    tag_296:\n      0x00\n        /* \"#utility.yul\":2945:3028   */\n      tag_298\n        /* \"#utility.yul\":3022:3027   */\n      dup3\n        /* \"#utility.yul\":2945:3028   */\n      tag_299\n      jump\t// in\n    tag_298:\n        /* \"#utility.yul\":3044:3159   */\n      tag_300\n        /* \"#utility.yul\":3152:3158   */\n      dup2\n        /* \"#utility.yul\":3147:3150   */\n      dup6\n        /* \"#utility.yul\":3044:3159   */\n      tag_301\n      jump\t// in\n    tag_300:\n        /* \"#utility.yul\":3037:3159   */\n      swap4\n      pop\n        /* \"#utility.yul\":3183:3268   */\n      tag_302\n        /* \"#utility.yul\":3262:3267   */\n      dup4\n        /* \"#utility.yul\":3183:3268   */\n      tag_303\n      jump\t// in\n    tag_302:\n        /* \"#utility.yul\":3291:3298   */\n      dup1\n        /* \"#utility.yul\":3322:3323   */\n      0x00\n        /* \"#utility.yul\":3307:3678   */\n    tag_304:\n        /* \"#utility.yul\":3332:3338   */\n      dup4\n        /* \"#utility.yul\":3329:3330   */\n      dup2\n        /* \"#utility.yul\":3326:3339   */\n      lt\n        /* \"#utility.yul\":3307:3678   */\n      iszero\n      tag_306\n      jumpi\n        /* \"#utility.yul\":3408:3414   */\n      dup2\n        /* \"#utility.yul\":3402:3415   */\n      mload\n        /* \"#utility.yul\":3435:3556   */\n      tag_307\n        /* \"#utility.yul\":3552:3555   */\n      dup9\n        /* \"#utility.yul\":3537:3550   */\n      dup3\n        /* \"#utility.yul\":3435:3556   */\n      tag_285\n      jump\t// in\n    tag_307:\n        /* \"#utility.yul\":3428:3556   */\n      swap8\n      pop\n        /* \"#utility.yul\":3579:3668   */\n      tag_308\n        /* \"#utility.yul\":3661:3667   */\n      dup4\n        /* \"#utility.yul\":3579:3668   */\n      tag_309\n      jump\t// in\n    tag_308:\n        /* \"#utility.yul\":3569:3668   */\n      swap3\n      pop\n        /* \"#utility.yul\":3367:3678   */\n      pop\n        /* \"#utility.yul\":3354:3355   */\n      0x01\n        /* \"#utility.yul\":3351:3352   */\n      dup2\n        /* \"#utility.yul\":3347:3356   */\n      add\n        /* \"#utility.yul\":3342:3356   */\n      swap1\n      pop\n        /* \"#utility.yul\":3307:3678   */\n      jump(tag_304)\n    tag_306:\n        /* \"#utility.yul\":3311:3325   */\n      pop\n        /* \"#utility.yul\":3694:3697   */\n      dup6\n        /* \"#utility.yul\":3687:3697   */\n      swap4\n      pop\n        /* \"#utility.yul\":2921:3703   */\n      pop\n      pop\n      pop\n      swap3\n      swap2\n      pop\n      pop\n      jump\t// out\n        /* \"#utility.yul\":3709:3818   */\n    tag_310:\n        /* \"#utility.yul\":3790:3811   */\n      tag_312\n        /* \"#utility.yul\":3805:3810   */\n      dup2\n        /* \"#utility.yul\":3790:3811   */\n      tag_313\n      jump\t// in\n    tag_312:\n        /* \"#utility.yul\":3785:3788   */\n      dup3\n        /* \"#utility.yul\":3778:3812   */\n      mstore\n        /* \"#utility.yul\":3768:3818   */\n      pop\n      pop\n      jump\t// out\n        /* \"#utility.yul\":3824:4197   */\n    tag_314:\n      0x00\n        /* \"#utility.yul\":3956:3994   */\n      tag_316\n        /* \"#utility.yul\":3988:3993   */\n      dup3\n        /* \"#utility.yul\":3956:3994   */\n      tag_317\n      jump\t// in\n    tag_316:\n        /* \"#utility.yul\":4010:4098   */\n      tag_318\n        /* \"#utility.yul\":4091:4097   */\n      dup2\n        /* \"#utility.yul\":4086:4089   */\n      dup6\n        /* \"#utility.yul\":4010:4098   */\n      tag_319\n      jump\t// in\n    tag_318:\n        /* \"#utility.yul\":4003:4098   */\n      swap4\n      pop\n        /* \"#utility.yul\":4107:4159   */\n      tag_320\n        /* \"#utility.yul\":4152:4158   */\n      dup2\n        /* \"#utility.yul\":4147:4150   */\n      dup6\n        /* \"#utility.yul\":4140:4144   */\n      0x20\n        /* \"#utility.yul\":4133:4138   */\n      dup7\n        /* \"#utility.yul\":4129:4145   */\n      add\n        /* \"#utility.yul\":4107:4159   */\n      tag_321\n      jump\t// in\n    tag_320:\n        /* \"#utility.yul\":4184:4190   */\n      dup1\n        /* \"#utility.yul\":4179:4182   */\n      dup5\n        /* \"#utility.yul\":4175:4191   */\n      add\n        /* \"#utility.yul\":4168:4191   */\n      swap2\n      pop\n        /* \"#utility.yul\":3932:4197   */\n      pop\n      swap3\n      swap2\n      pop\n      pop\n      jump\t// out\n        /* \"#utility.yul\":4203:4362   */\n    tag_322:\n        /* \"#utility.yul\":4304:4355   */\n      tag_324\n        /* \"#utility.yul\":4349:4354   */\n      dup2\n        /* \"#utility.yul\":4304:4355   */\n      tag_325\n      jump\t// in\n    tag_324:\n        /* \"#utility.yul\":4299:4302   */\n      dup3\n        /* \"#utility.yul\":4292:4356   */\n      mstore\n        /* \"#utility.yul\":4282:4362   */\n      pop\n      pop\n      jump\t// out\n        /* \"#utility.yul\":4368:4529   */\n    tag_326:\n        /* \"#utility.yul\":4470:4522   */\n      tag_328\n        /* \"#utility.yul\":4516:4521   */\n      dup2\n        /* \"#utility.yul\":4470:4522   */\n      tag_329\n      jump\t// in\n    tag_328:\n        /* \"#utility.yul\":4465:4468   */\n      dup3\n        /* \"#utility.yul\":4458:4523   */\n      mstore\n        /* \"#utility.yul\":4448:4529   */\n      pop\n      pop\n      jump\t// out\n        /* \"#utility.yul\":4535:4899   */\n    tag_330:\n      0x00\n        /* \"#utility.yul\":4651:4690   */\n      tag_332\n        /* \"#utility.yul\":4684:4689   */\n      dup3\n        /* \"#utility.yul\":4651:4690   */\n      tag_333\n      jump\t// in\n    tag_332:\n        /* \"#utility.yul\":4706:4777   */\n      tag_334\n        /* \"#utility.yul\":4770:4776   */\n      dup2\n        /* \"#utility.yul\":4765:4768   */\n      dup6\n        /* \"#utility.yul\":4706:4777   */\n      tag_335\n      jump\t// in\n    tag_334:\n        /* \"#utility.yul\":4699:4777   */\n      swap4\n      pop\n        /* \"#utility.yul\":4786:4838   */\n      tag_336\n        /* \"#utility.yul\":4831:4837   */\n      dup2\n        /* \"#utility.yul\":4826:4829   */\n      dup6\n        /* \"#utility.yul\":4819:4823   */\n      0x20\n        /* \"#utility.yul\":4812:4817   */\n      dup7\n        /* \"#utility.yul\":4808:4824   */\n      add\n        /* \"#utility.yul\":4786:4838   */\n      tag_321\n      jump\t// in\n    tag_336:\n        /* \"#utility.yul\":4863:4892   */\n      tag_337\n        /* \"#utility.yul\":4885:4891   */\n      dup2\n        /* \"#utility.yul\":4863:4892   */\n      tag_338\n      jump\t// in\n    tag_337:\n        /* \"#utility.yul\":4858:4861   */\n      dup5\n        /* \"#utility.yul\":4854:4893   */\n      add\n        /* \"#utility.yul\":4847:4893   */\n      swap2\n      pop\n        /* \"#utility.yul\":4627:4899   */\n      pop\n      swap3\n      swap2\n      pop\n      pop\n      jump\t// out\n        /* \"#utility.yul\":4905:5228   */\n    tag_339:\n      0x00\n        /* \"#utility.yul\":5068:5135   */\n      tag_341\n        /* \"#utility.yul\":5132:5134   */\n      0x19\n        /* \"#utility.yul\":5127:5130   */\n      dup4\n        /* \"#utility.yul\":5068:5135   */\n      tag_335\n      jump\t// in\n    tag_341:\n        /* \"#utility.yul\":5061:5135   */\n      swap2\n      pop\n        /* \"#utility.yul\":5165:5192   */\n      0x596f7520646f6e2774206f776e207468697320746f6b656e2100000000000000\n        /* \"#utility.yul\":5161:5162   */\n      0x00\n        /* \"#utility.yul\":5156:5159   */\n      dup4\n        /* \"#utility.yul\":5152:5163   */\n      add\n        /* \"#utility.yul\":5145:5193   */\n      mstore\n        /* \"#utility.yul\":5219:5221   */\n      0x20\n        /* \"#utility.yul\":5214:5217   */\n      dup3\n        /* \"#utility.yul\":5210:5222   */\n      add\n        /* \"#utility.yul\":5203:5222   */\n      swap1\n      pop\n        /* \"#utility.yul\":5051:5228   */\n      swap2\n      swap1\n      pop\n      jump\t// out\n        /* \"#utility.yul\":5234:5604   */\n    tag_342:\n      0x00\n        /* \"#utility.yul\":5397:5464   */\n      tag_344\n        /* \"#utility.yul\":5461:5463   */\n      0x26\n        /* \"#utility.yul\":5456:5459   */\n      dup4\n        /* \"#utility.yul\":5397:5464   */\n      tag_335\n      jump\t// in\n    tag_344:\n        /* \"#utility.yul\":5390:5464   */\n      swap2\n      pop\n        /* \"#utility.yul\":5494:5528   */\n      0x4f776e61626c653a206e6577206f776e657220697320746865207a65726f2061\n        /* \"#utility.yul\":5490:5491   */\n      0x00\n        /* \"#utility.yul\":5485:5488   */\n      dup4\n        /* \"#utility.yul\":5481:5492   */\n      add\n        /* \"#utility.yul\":5474:5529   */\n      mstore\n        /* \"#utility.yul\":5560:5568   */\n      0x6464726573730000000000000000000000000000000000000000000000000000\n        /* \"#utility.yul\":5555:5557   */\n      0x20\n        /* \"#utility.yul\":5550:5553   */\n      dup4\n        /* \"#utility.yul\":5546:5558   */\n      add\n        /* \"#utility.yul\":5539:5569   */\n      mstore\n        /* \"#utility.yul\":5595:5597   */\n      0x40\n        /* \"#utility.yul\":5590:5593   */\n      dup3\n        /* \"#utility.yul\":5586:5598   */\n      add\n        /* \"#utility.yul\":5579:5598   */\n      swap1\n      pop\n        /* \"#utility.yul\":5380:5604   */\n      swap2\n      swap1\n      pop\n      jump\t// out\n        /* \"#utility.yul\":5610:5933   */\n    tag_345:\n      0x00\n        /* \"#utility.yul\":5773:5840   */\n      tag_347\n        /* \"#utility.yul\":5837:5839   */\n      0x19\n        /* \"#utility.yul\":5832:5835   */\n      dup4\n        /* \"#utility.yul\":5773:5840   */\n      tag_335\n      jump\t// in\n    tag_347:\n        /* \"#utility.yul\":5766:5840   */\n      swap2\n      pop\n        /* \"#utility.yul\":5870:5897   */\n      0x596f752068617665206e6f20746f6b656e73207374616b656400000000000000\n        /* \"#utility.yul\":5866:5867   */\n      0x00\n        /* \"#utility.yul\":5861:5864   */\n      dup4\n        /* \"#utility.yul\":5857:5868   */\n      add\n        /* \"#utility.yul\":5850:5898   */\n      mstore\n        /* \"#utility.yul\":5924:5926   */\n      0x20\n        /* \"#utility.yul\":5919:5922   */\n      dup3\n        /* \"#utility.yul\":5915:5927   */\n      add\n        /* \"#utility.yul\":5908:5927   */\n      swap1\n      pop\n        /* \"#utility.yul\":5756:5933   */\n      swap2\n      swap1\n      pop\n      jump\t// out\n        /* \"#utility.yul\":5939:6309   */\n    tag_348:\n      0x00\n        /* \"#utility.yul\":6102:6169   */\n      tag_350\n        /* \"#utility.yul\":6166:6168   */\n      0x26\n        /* \"#utility.yul\":6161:6164   */\n      dup4\n        /* \"#utility.yul\":6102:6169   */\n      tag_335\n      jump\t// in\n    tag_350:\n        /* \"#utility.yul\":6095:6169   */\n      swap2\n      pop\n        /* \"#utility.yul\":6199:6233   */\n      0x416464726573733a20696e73756666696369656e742062616c616e636520666f\n        /* \"#utility.yul\":6195:6196   */\n      0x00\n        /* \"#utility.yul\":6190:6193   */\n      dup4\n        /* \"#utility.yul\":6186:6197   */\n      add\n        /* \"#utility.yul\":6179:6234   */\n      mstore\n        /* \"#utility.yul\":6265:6273   */\n      0x722063616c6c0000000000000000000000000000000000000000000000000000\n        /* \"#utility.yul\":6260:6262   */\n      0x20\n        /* \"#utility.yul\":6255:6258   */\n      dup4\n        /* \"#utility.yul\":6251:6263   */\n      add\n        /* \"#utility.yul\":6244:6274   */\n      mstore\n        /* \"#utility.yul\":6300:6302   */\n      0x40\n        /* \"#utility.yul\":6295:6298   */\n      dup3\n        /* \"#utility.yul\":6291:6303   */\n      add\n        /* \"#utility.yul\":6284:6303   */\n      swap1\n      pop\n        /* \"#utility.yul\":6085:6309   */\n      swap2\n      swap1\n      pop\n      jump\t// out\n        /* \"#utility.yul\":6315:6645   */\n    tag_351:\n      0x00\n        /* \"#utility.yul\":6478:6545   */\n      tag_353\n        /* \"#utility.yul\":6542:6544   */\n      0x20\n        /* \"#utility.yul\":6537:6540   */\n      dup4\n        /* \"#utility.yul\":6478:6545   */\n      tag_335\n      jump\t// in\n    tag_353:\n        /* \"#utility.yul\":6471:6545   */\n      swap2\n      pop\n        /* \"#utility.yul\":6575:6609   */\n      0x4f776e61626c653a2063616c6c6572206973206e6f7420746865206f776e6572\n        /* \"#utility.yul\":6571:6572   */\n      0x00\n        /* \"#utility.yul\":6566:6569   */\n      dup4\n        /* \"#utility.yul\":6562:6573   */\n      add\n        /* \"#utility.yul\":6555:6610   */\n      mstore\n        /* \"#utility.yul\":6636:6638   */\n      0x20\n        /* \"#utility.yul\":6631:6634   */\n      dup3\n        /* \"#utility.yul\":6627:6639   */\n      add\n        /* \"#utility.yul\":6620:6639   */\n      swap1\n      pop\n        /* \"#utility.yul\":6461:6645   */\n      swap2\n      swap1\n      pop\n      jump\t// out\n        /* \"#utility.yul\":6651:6977   */\n    tag_354:\n      0x00\n        /* \"#utility.yul\":6814:6881   */\n      tag_356\n        /* \"#utility.yul\":6878:6880   */\n      0x1c\n        /* \"#utility.yul\":6873:6876   */\n      dup4\n        /* \"#utility.yul\":6814:6881   */\n      tag_335\n      jump\t// in\n    tag_356:\n        /* \"#utility.yul\":6807:6881   */\n      swap2\n      pop\n        /* \"#utility.yul\":6911:6941   */\n      0x596f752068617665206e6f207265776172647320746f20636c61696d00000000\n        /* \"#utility.yul\":6907:6908   */\n      0x00\n        /* \"#utility.yul\":6902:6905   */\n      dup4\n        /* \"#utility.yul\":6898:6909   */\n      add\n        /* \"#utility.yul\":6891:6942   */\n      mstore\n        /* \"#utility.yul\":6968:6970   */\n      0x20\n        /* \"#utility.yul\":6963:6966   */\n      dup3\n        /* \"#utility.yul\":6959:6971   */\n      add\n        /* \"#utility.yul\":6952:6971   */\n      swap1\n      pop\n        /* \"#utility.yul\":6797:6977   */\n      swap2\n      swap1\n      pop\n      jump\t// out\n        /* \"#utility.yul\":6983:7310   */\n    tag_357:\n      0x00\n        /* \"#utility.yul\":7146:7213   */\n      tag_359\n        /* \"#utility.yul\":7210:7212   */\n      0x1d\n        /* \"#utility.yul\":7205:7208   */\n      dup4\n        /* \"#utility.yul\":7146:7213   */\n      tag_335\n      jump\t// in\n    tag_359:\n        /* \"#utility.yul\":7139:7213   */\n      swap2\n      pop\n        /* \"#utility.yul\":7243:7274   */\n      0x416464726573733a2063616c6c20746f206e6f6e2d636f6e7472616374000000\n        /* \"#utility.yul\":7239:7240   */\n      0x00\n        /* \"#utility.yul\":7234:7237   */\n      dup4\n        /* \"#utility.yul\":7230:7241   */\n      add\n        /* \"#utility.yul\":7223:7275   */\n      mstore\n        /* \"#utility.yul\":7301:7303   */\n      0x20\n        /* \"#utility.yul\":7296:7299   */\n      dup3\n        /* \"#utility.yul\":7292:7304   */\n      add\n        /* \"#utility.yul\":7285:7304   */\n      swap1\n      pop\n        /* \"#utility.yul\":7129:7310   */\n      swap2\n      swap1\n      pop\n      jump\t// out\n        /* \"#utility.yul\":7316:7690   */\n    tag_360:\n      0x00\n        /* \"#utility.yul\":7479:7546   */\n      tag_362\n        /* \"#utility.yul\":7543:7545   */\n      0x2a\n        /* \"#utility.yul\":7538:7541   */\n      dup4\n        /* \"#utility.yul\":7479:7546   */\n      tag_335\n      jump\t// in\n    tag_362:\n        /* \"#utility.yul\":7472:7546   */\n      swap2\n      pop\n        /* \"#utility.yul\":7576:7610   */\n      0x5361666545524332303a204552433230206f7065726174696f6e20646964206e\n        /* \"#utility.yul\":7572:7573   */\n      0x00\n        /* \"#utility.yul\":7567:7570   */\n      dup4\n        /* \"#utility.yul\":7563:7574   */\n      add\n        /* \"#utility.yul\":7556:7611   */\n      mstore\n        /* \"#utility.yul\":7642:7654   */\n      0x6f74207375636365656400000000000000000000000000000000000000000000\n        /* \"#utility.yul\":7637:7639   */\n      0x20\n        /* \"#utility.yul\":7632:7635   */\n      dup4\n        /* \"#utility.yul\":7628:7640   */\n      add\n        /* \"#utility.yul\":7621:7655   */\n      mstore\n        /* \"#utility.yul\":7681:7683   */\n      0x40\n        /* \"#utility.yul\":7676:7679   */\n      dup3\n        /* \"#utility.yul\":7672:7684   */\n      add\n        /* \"#utility.yul\":7665:7684   */\n      swap1\n      pop\n        /* \"#utility.yul\":7462:7690   */\n      swap2\n      swap1\n      pop\n      jump\t// out\n        /* \"#utility.yul\":7696:8025   */\n    tag_363:\n      0x00\n        /* \"#utility.yul\":7859:7926   */\n      tag_365\n        /* \"#utility.yul\":7923:7925   */\n      0x1f\n        /* \"#utility.yul\":7918:7921   */\n      dup4\n        /* \"#utility.yul\":7859:7926   */\n      tag_335\n      jump\t// in\n    tag_365:\n        /* \"#utility.yul\":7852:7926   */\n      swap2\n      pop\n        /* \"#utility.yul\":7956:7989   */\n      0x5265656e7472616e637947756172643a207265656e7472616e742063616c6c00\n        /* \"#utility.yul\":7952:7953   */\n      0x00\n        /* \"#utility.yul\":7947:7950   */\n      dup4\n        /* \"#utility.yul\":7943:7954   */\n      add\n        /* \"#utility.yul\":7936:7990   */\n      mstore\n        /* \"#utility.yul\":8016:8018   */\n      0x20\n        /* \"#utility.yul\":8011:8014   */\n      dup3\n        /* \"#utility.yul\":8007:8019   */\n      add\n        /* \"#utility.yul\":8000:8019   */\n      swap1\n      pop\n        /* \"#utility.yul\":7842:8025   */\n      swap2\n      swap1\n      pop\n      jump\t// out\n        /* \"#utility.yul\":8089:8599   */\n    tag_288:\n        /* \"#utility.yul\":8234:8238   */\n      0x40\n        /* \"#utility.yul\":8229:8232   */\n      dup3\n        /* \"#utility.yul\":8225:8239   */\n      add\n        /* \"#utility.yul\":8323:8327   */\n      0x00\n        /* \"#utility.yul\":8316:8321   */\n      dup3\n        /* \"#utility.yul\":8312:8328   */\n      add\n        /* \"#utility.yul\":8306:8329   */\n      mload\n        /* \"#utility.yul\":8342:8405   */\n      tag_367\n        /* \"#utility.yul\":8399:8403   */\n      0x00\n        /* \"#utility.yul\":8394:8397   */\n      dup6\n        /* \"#utility.yul\":8390:8404   */\n      add\n        /* \"#utility.yul\":8376:8388   */\n      dup3\n        /* \"#utility.yul\":8342:8405   */\n      tag_289\n      jump\t// in\n    tag_367:\n        /* \"#utility.yul\":8249:8415   */\n      pop\n        /* \"#utility.yul\":8500:8504   */\n      0x20\n        /* \"#utility.yul\":8493:8498   */\n      dup3\n        /* \"#utility.yul\":8489:8505   */\n      add\n        /* \"#utility.yul\":8483:8506   */\n      mload\n        /* \"#utility.yul\":8519:8582   */\n      tag_368\n        /* \"#utility.yul\":8576:8580   */\n      0x20\n        /* \"#utility.yul\":8571:8574   */\n      dup6\n        /* \"#utility.yul\":8567:8581   */\n      add\n        /* \"#utility.yul\":8553:8565   */\n      dup3\n        /* \"#utility.yul\":8519:8582   */\n      tag_369\n      jump\t// in\n    tag_368:\n        /* \"#utility.yul\":8425:8592   */\n      pop\n        /* \"#utility.yul\":8203:8599   */\n      pop\n      pop\n      pop\n      jump\t// out\n        /* \"#utility.yul\":8605:8713   */\n    tag_369:\n        /* \"#utility.yul\":8682:8706   */\n      tag_371\n        /* \"#utility.yul\":8700:8705   */\n      dup2\n        /* \"#utility.yul\":8682:8706   */\n      tag_372\n      jump\t// in\n    tag_371:\n        /* \"#utility.yul\":8677:8680   */\n      dup3\n        /* \"#utility.yul\":8670:8707   */\n      mstore\n        /* \"#utility.yul\":8660:8713   */\n      pop\n      pop\n      jump\t// out\n        /* \"#utility.yul\":8719:8837   */\n    tag_373:\n        /* \"#utility.yul\":8806:8830   */\n      tag_375\n        /* \"#utility.yul\":8824:8829   */\n      dup2\n        /* \"#utility.yul\":8806:8830   */\n      tag_372\n      jump\t// in\n    tag_375:\n        /* \"#utility.yul\":8801:8804   */\n      dup3\n        /* \"#utility.yul\":8794:8831   */\n      mstore\n        /* \"#utility.yul\":8784:8837   */\n      pop\n      pop\n      jump\t// out\n        /* \"#utility.yul\":8843:9114   */\n    tag_237:\n      0x00\n        /* \"#utility.yul\":8995:9088   */\n      tag_377\n        /* \"#utility.yul\":9084:9087   */\n      dup3\n        /* \"#utility.yul\":9075:9081   */\n      dup5\n        /* \"#utility.yul\":8995:9088   */\n      tag_314\n      jump\t// in\n    tag_377:\n        /* \"#utility.yul\":8988:9088   */\n      swap2\n      pop\n        /* \"#utility.yul\":9105:9108   */\n      dup2\n        /* \"#utility.yul\":9098:9108   */\n      swap1\n      pop\n        /* \"#utility.yul\":8977:9114   */\n      swap3\n      swap2\n      pop\n      pop\n      jump\t// out\n        /* \"#utility.yul\":9120:9342   */\n    tag_45:\n      0x00\n        /* \"#utility.yul\":9251:9253   */\n      0x20\n        /* \"#utility.yul\":9240:9249   */\n      dup3\n        /* \"#utility.yul\":9236:9254   */\n      add\n        /* \"#utility.yul\":9228:9254   */\n      swap1\n      pop\n        /* \"#utility.yul\":9264:9335   */\n      tag_379\n        /* \"#utility.yul\":9332:9333   */\n      0x00\n        /* \"#utility.yul\":9321:9330   */\n      dup4\n        /* \"#utility.yul\":9317:9334   */\n      add\n        /* \"#utility.yul\":9308:9314   */\n      dup5\n        /* \"#utility.yul\":9264:9335   */\n      tag_293\n      jump\t// in\n    tag_379:\n        /* \"#utility.yul\":9218:9342   */\n      swap3\n      swap2\n      pop\n      pop\n      jump\t// out\n        /* \"#utility.yul\":9348:9790   */\n    tag_99:\n      0x00\n        /* \"#utility.yul\":9535:9537   */\n      0x60\n        /* \"#utility.yul\":9524:9533   */\n      dup3\n        /* \"#utility.yul\":9520:9538   */\n      add\n        /* \"#utility.yul\":9512:9538   */\n      swap1\n      pop\n        /* \"#utility.yul\":9548:9619   */\n      tag_381\n        /* \"#utility.yul\":9616:9617   */\n      0x00\n        /* \"#utility.yul\":9605:9614   */\n      dup4\n        /* \"#utility.yul\":9601:9618   */\n      add\n        /* \"#utility.yul\":9592:9598   */\n      dup7\n        /* \"#utility.yul\":9548:9619   */\n      tag_293\n      jump\t// in\n    tag_381:\n        /* \"#utility.yul\":9629:9701   */\n      tag_382\n        /* \"#utility.yul\":9697:9699   */\n      0x20\n        /* \"#utility.yul\":9686:9695   */\n      dup4\n        /* \"#utility.yul\":9682:9700   */\n      add\n        /* \"#utility.yul\":9673:9679   */\n      dup6\n        /* \"#utility.yul\":9629:9701   */\n      tag_293\n      jump\t// in\n    tag_382:\n        /* \"#utility.yul\":9711:9783   */\n      tag_383\n        /* \"#utility.yul\":9779:9781   */\n      0x40\n        /* \"#utility.yul\":9768:9777   */\n      dup4\n        /* \"#utility.yul\":9764:9782   */\n      add\n        /* \"#utility.yul\":9755:9761   */\n      dup5\n        /* \"#utility.yul\":9711:9783   */\n      tag_373\n      jump\t// in\n    tag_383:\n        /* \"#utility.yul\":9502:9790   */\n      swap5\n      swap4\n      pop\n      pop\n      pop\n      pop\n      jump\t// out\n        /* \"#utility.yul\":9796:10128   */\n    tag_186:\n      0x00\n        /* \"#utility.yul\":9955:9957   */\n      0x40\n        /* \"#utility.yul\":9944:9953   */\n      dup3\n        /* \"#utility.yul\":9940:9958   */\n      add\n        /* \"#utility.yul\":9932:9958   */\n      swap1\n      pop\n        /* \"#utility.yul\":9968:10039   */\n      tag_385\n        /* \"#utility.yul\":10036:10037   */\n      0x00\n        /* \"#utility.yul\":10025:10034   */\n      dup4\n        /* \"#utility.yul\":10021:10038   */\n      add\n        /* \"#utility.yul\":10012:10018   */\n      dup6\n        /* \"#utility.yul\":9968:10039   */\n      tag_293\n      jump\t// in\n    tag_385:\n        /* \"#utility.yul\":10049:10121   */\n      tag_386\n        /* \"#utility.yul\":10117:10119   */\n      0x20\n        /* \"#utility.yul\":10106:10115   */\n      dup4\n        /* \"#utility.yul\":10102:10120   */\n      add\n        /* \"#utility.yul\":10093:10099   */\n      dup5\n        /* \"#utility.yul\":10049:10121   */\n      tag_373\n      jump\t// in\n    tag_386:\n        /* \"#utility.yul\":9922:10128   */\n      swap4\n      swap3\n      pop\n      pop\n      pop\n      jump\t// out\n        /* \"#utility.yul\":10134:10623   */\n    tag_35:\n      0x00\n        /* \"#utility.yul\":10373:10375   */\n      0x20\n        /* \"#utility.yul\":10362:10371   */\n      dup3\n        /* \"#utility.yul\":10358:10376   */\n      add\n        /* \"#utility.yul\":10350:10376   */\n      swap1\n      pop\n        /* \"#utility.yul\":10422:10431   */\n      dup2\n        /* \"#utility.yul\":10416:10420   */\n      dup2\n        /* \"#utility.yul\":10412:10432   */\n      sub\n        /* \"#utility.yul\":10408:10409   */\n      0x00\n        /* \"#utility.yul\":10397:10406   */\n      dup4\n        /* \"#utility.yul\":10393:10410   */\n      add\n        /* \"#utility.yul\":10386:10433   */\n      mstore\n        /* \"#utility.yul\":10450:10616   */\n      tag_388\n        /* \"#utility.yul\":10611:10615   */\n      dup2\n        /* \"#utility.yul\":10602:10608   */\n      dup5\n        /* \"#utility.yul\":10450:10616   */\n      tag_296\n      jump\t// in\n    tag_388:\n        /* \"#utility.yul\":10442:10616   */\n      swap1\n      pop\n        /* \"#utility.yul\":10340:10623   */\n      swap3\n      swap2\n      pop\n      pop\n      jump\t// out\n        /* \"#utility.yul\":10629:10839   */\n    tag_29:\n      0x00\n        /* \"#utility.yul\":10754:10756   */\n      0x20\n        /* \"#utility.yul\":10743:10752   */\n      dup3\n        /* \"#utility.yul\":10739:10757   */\n      add\n        /* \"#utility.yul\":10731:10757   */\n      swap1\n      pop\n        /* \"#utility.yul\":10767:10832   */\n      tag_390\n        /* \"#utility.yul\":10829:10830   */\n      0x00\n        /* \"#utility.yul\":10818:10827   */\n      dup4\n        /* \"#utility.yul\":10814:10831   */\n      add\n        /* \"#utility.yul\":10805:10811   */\n      dup5\n        /* \"#utility.yul\":10767:10832   */\n      tag_310\n      jump\t// in\n    tag_390:\n        /* \"#utility.yul\":10721:10839   */\n      swap3\n      swap2\n      pop\n      pop\n      jump\t// out\n        /* \"#utility.yul\":10845:11095   */\n    tag_61:\n      0x00\n        /* \"#utility.yul\":10990:10992   */\n      0x20\n        /* \"#utility.yul\":10979:10988   */\n      dup3\n        /* \"#utility.yul\":10975:10993   */\n      add\n        /* \"#utility.yul\":10967:10993   */\n      swap1\n      pop\n        /* \"#utility.yul\":11003:11088   */\n      tag_392\n        /* \"#utility.yul\":11085:11086   */\n      0x00\n        /* \"#utility.yul\":11074:11083   */\n      dup4\n        /* \"#utility.yul\":11070:11087   */\n      add\n        /* \"#utility.yul\":11061:11067   */\n      dup5\n        /* \"#utility.yul\":11003:11088   */\n      tag_322\n      jump\t// in\n    tag_392:\n        /* \"#utility.yul\":10957:11095   */\n      swap3\n      swap2\n      pop\n      pop\n      jump\t// out\n        /* \"#utility.yul\":11101:11353   */\n    tag_39:\n      0x00\n        /* \"#utility.yul\":11247:11249   */\n      0x20\n        /* \"#utility.yul\":11236:11245   */\n      dup3\n        /* \"#utility.yul\":11232:11250   */\n      add\n        /* \"#utility.yul\":11224:11250   */\n      swap1\n      pop\n        /* \"#utility.yul\":11260:11346   */\n      tag_394\n        /* \"#utility.yul\":11343:11344   */\n      0x00\n        /* \"#utility.yul\":11332:11341   */\n      dup4\n        /* \"#utility.yul\":11328:11345   */\n      add\n        /* \"#utility.yul\":11319:11325   */\n      dup5\n        /* \"#utility.yul\":11260:11346   */\n      tag_326\n      jump\t// in\n    tag_394:\n        /* \"#utility.yul\":11214:11353   */\n      swap3\n      swap2\n      pop\n      pop\n      jump\t// out\n        /* \"#utility.yul\":11359:11672   */\n    tag_250:\n      0x00\n        /* \"#utility.yul\":11510:11512   */\n      0x20\n        /* \"#utility.yul\":11499:11508   */\n      dup3\n        /* \"#utility.yul\":11495:11513   */\n      add\n        /* \"#utility.yul\":11487:11513   */\n      swap1\n      pop\n        /* \"#utility.yul\":11559:11568   */\n      dup2\n        /* \"#utility.yul\":11553:11557   */\n      dup2\n        /* \"#utility.yul\":11549:11569   */\n      sub\n        /* \"#utility.yul\":11545:11546   */\n      0x00\n        /* \"#utility.yul\":11534:11543   */\n      dup4\n        /* \"#utility.yul\":11530:11547   */\n      add\n        /* \"#utility.yul\":11523:11570   */\n      mstore\n        /* \"#utility.yul\":11587:11665   */\n      tag_396\n        /* \"#utility.yul\":11660:11664   */\n      dup2\n        /* \"#utility.yul\":11651:11657   */\n      dup5\n        /* \"#utility.yul\":11587:11665   */\n      tag_330\n      jump\t// in\n    tag_396:\n        /* \"#utility.yul\":11579:11665   */\n      swap1\n      pop\n        /* \"#utility.yul\":11477:11672   */\n      swap3\n      swap2\n      pop\n      pop\n      jump\t// out\n        /* \"#utility.yul\":11678:12097   */\n    tag_81:\n      0x00\n        /* \"#utility.yul\":11882:11884   */\n      0x20\n        /* \"#utility.yul\":11871:11880   */\n      dup3\n        /* \"#utility.yul\":11867:11885   */\n      add\n        /* \"#utility.yul\":11859:11885   */\n      swap1\n      pop\n        /* \"#utility.yul\":11931:11940   */\n      dup2\n        /* \"#utility.yul\":11925:11929   */\n      dup2\n        /* \"#utility.yul\":11921:11941   */\n      sub\n        /* \"#utility.yul\":11917:11918   */\n      0x00\n        /* \"#utility.yul\":11906:11915   */\n      dup4\n        /* \"#utility.yul\":11902:11919   */\n      add\n        /* \"#utility.yul\":11895:11942   */\n      mstore\n        /* \"#utility.yul\":11959:12090   */\n      tag_398\n        /* \"#utility.yul\":12085:12089   */\n      dup2\n        /* \"#utility.yul\":11959:12090   */\n      tag_339\n      jump\t// in\n    tag_398:\n        /* \"#utility.yul\":11951:12090   */\n      swap1\n      pop\n        /* \"#utility.yul\":11849:12097   */\n      swap2\n      swap1\n      pop\n      jump\t// out\n        /* \"#utility.yul\":12103:12522   */\n    tag_155:\n      0x00\n        /* \"#utility.yul\":12307:12309   */\n      0x20\n        /* \"#utility.yul\":12296:12305   */\n      dup3\n        /* \"#utility.yul\":12292:12310   */\n      add\n        /* \"#utility.yul\":12284:12310   */\n      swap1\n      pop\n        /* \"#utility.yul\":12356:12365   */\n      dup2\n        /* \"#utility.yul\":12350:12354   */\n      dup2\n        /* \"#utility.yul\":12346:12366   */\n      sub\n        /* \"#utility.yul\":12342:12343   */\n      0x00\n        /* \"#utility.yul\":12331:12340   */\n      dup4\n        /* \"#utility.yul\":12327:12344   */\n      add\n        /* \"#utility.yul\":12320:12367   */\n      mstore\n        /* \"#utility.yul\":12384:12515   */\n      tag_400\n        /* \"#utility.yul\":12510:12514   */\n      dup2\n        /* \"#utility.yul\":12384:12515   */\n      tag_342\n      jump\t// in\n    tag_400:\n        /* \"#utility.yul\":12376:12515   */\n      swap1\n      pop\n        /* \"#utility.yul\":12274:12522   */\n      swap2\n      swap1\n      pop\n      jump\t// out\n        /* \"#utility.yul\":12528:12947   */\n    tag_78:\n      0x00\n        /* \"#utility.yul\":12732:12734   */\n      0x20\n        /* \"#utility.yul\":12721:12730   */\n      dup3\n        /* \"#utility.yul\":12717:12735   */\n      add\n        /* \"#utility.yul\":12709:12735   */\n      swap1\n      pop\n        /* \"#utility.yul\":12781:12790   */\n      dup2\n        /* \"#utility.yul\":12775:12779   */\n      dup2\n        /* \"#utility.yul\":12771:12791   */\n      sub\n        /* \"#utility.yul\":12767:12768   */\n      0x00\n        /* \"#utility.yul\":12756:12765   */\n      dup4\n        /* \"#utility.yul\":12752:12769   */\n      add\n        /* \"#utility.yul\":12745:12792   */\n      mstore\n        /* \"#utility.yul\":12809:12940   */\n      tag_402\n        /* \"#utility.yul\":12935:12939   */\n      dup2\n        /* \"#utility.yul\":12809:12940   */\n      tag_345\n      jump\t// in\n    tag_402:\n        /* \"#utility.yul\":12801:12940   */\n      swap1\n      pop\n        /* \"#utility.yul\":12699:12947   */\n      swap2\n      swap1\n      pop\n      jump\t// out\n        /* \"#utility.yul\":12953:13372   */\n    tag_230:\n      0x00\n        /* \"#utility.yul\":13157:13159   */\n      0x20\n        /* \"#utility.yul\":13146:13155   */\n      dup3\n        /* \"#utility.yul\":13142:13160   */\n      add\n        /* \"#utility.yul\":13134:13160   */\n      swap1\n      pop\n        /* \"#utility.yul\":13206:13215   */\n      dup2\n        /* \"#utility.yul\":13200:13204   */\n      dup2\n        /* \"#utility.yul\":13196:13216   */\n      sub\n        /* \"#utility.yul\":13192:13193   */\n      0x00\n        /* \"#utility.yul\":13181:13190   */\n      dup4\n        /* \"#utility.yul\":13177:13194   */\n      add\n        /* \"#utility.yul\":13170:13217   */\n      mstore\n        /* \"#utility.yul\":13234:13365   */\n      tag_404\n        /* \"#utility.yul\":13360:13364   */\n      dup2\n        /* \"#utility.yul\":13234:13365   */\n      tag_348\n      jump\t// in\n    tag_404:\n        /* \"#utility.yul\":13226:13365   */\n      swap1\n      pop\n        /* \"#utility.yul\":13124:13372   */\n      swap2\n      swap1\n      pop\n      jump\t// out\n        /* \"#utility.yul\":13378:13797   */\n    tag_194:\n      0x00\n        /* \"#utility.yul\":13582:13584   */\n      0x20\n        /* \"#utility.yul\":13571:13580   */\n      dup3\n        /* \"#utility.yul\":13567:13585   */\n      add\n        /* \"#utility.yul\":13559:13585   */\n      swap1\n      pop\n        /* \"#utility.yul\":13631:13640   */\n      dup2\n        /* \"#utility.yul\":13625:13629   */\n      dup2\n        /* \"#utility.yul\":13621:13641   */\n      sub\n        /* \"#utility.yul\":13617:13618   */\n      0x00\n        /* \"#utility.yul\":13606:13615   */\n      dup4\n        /* \"#utility.yul\":13602:13619   */\n      add\n        /* \"#utility.yul\":13595:13642   */\n      mstore\n        /* \"#utility.yul\":13659:13790   */\n      tag_406\n        /* \"#utility.yul\":13785:13789   */\n      dup2\n        /* \"#utility.yul\":13659:13790   */\n      tag_351\n      jump\t// in\n    tag_406:\n        /* \"#utility.yul\":13651:13790   */\n      swap1\n      pop\n        /* \"#utility.yul\":13549:13797   */\n      swap2\n      swap1\n      pop\n      jump\t// out\n        /* \"#utility.yul\":13803:14222   */\n    tag_110:\n      0x00\n        /* \"#utility.yul\":14007:14009   */\n      0x20\n        /* \"#utility.yul\":13996:14005   */\n      dup3\n        /* \"#utility.yul\":13992:14010   */\n      add\n        /* \"#utility.yul\":13984:14010   */\n      swap1\n      pop\n        /* \"#utility.yul\":14056:14065   */\n      dup2\n        /* \"#utility.yul\":14050:14054   */\n      dup2\n        /* \"#utility.yul\":14046:14066   */\n      sub\n        /* \"#utility.yul\":14042:14043   */\n      0x00\n        /* \"#utility.yul\":14031:14040   */\n      dup4\n        /* \"#utility.yul\":14027:14044   */\n      add\n        /* \"#utility.yul\":14020:14067   */\n      mstore\n        /* \"#utility.yul\":14084:14215   */\n      tag_408\n        /* \"#utility.yul\":14210:14214   */\n      dup2\n        /* \"#utility.yul\":14084:14215   */\n      tag_354\n      jump\t// in\n    tag_408:\n        /* \"#utility.yul\":14076:14215   */\n      swap1\n      pop\n        /* \"#utility.yul\":13974:14222   */\n      swap2\n      swap1\n      pop\n      jump\t// out\n        /* \"#utility.yul\":14228:14647   */\n    tag_235:\n      0x00\n        /* \"#utility.yul\":14432:14434   */\n      0x20\n        /* \"#utility.yul\":14421:14430   */\n      dup3\n        /* \"#utility.yul\":14417:14435   */\n      add\n        /* \"#utility.yul\":14409:14435   */\n      swap1\n      pop\n        /* \"#utility.yul\":14481:14490   */\n      dup2\n        /* \"#utility.yul\":14475:14479   */\n      dup2\n        /* \"#utility.yul\":14471:14491   */\n      sub\n        /* \"#utility.yul\":14467:14468   */\n      0x00\n        /* \"#utility.yul\":14456:14465   */\n      dup4\n        /* \"#utility.yul\":14452:14469   */\n      add\n        /* \"#utility.yul\":14445:14492   */\n      mstore\n        /* \"#utility.yul\":14509:14640   */\n      tag_410\n        /* \"#utility.yul\":14635:14639   */\n      dup2\n        /* \"#utility.yul\":14509:14640   */\n      tag_357\n      jump\t// in\n    tag_410:\n        /* \"#utility.yul\":14501:14640   */\n      swap1\n      pop\n        /* \"#utility.yul\":14399:14647   */\n      swap2\n      swap1\n      pop\n      jump\t// out\n        /* \"#utility.yul\":14653:15072   */\n    tag_222:\n      0x00\n        /* \"#utility.yul\":14857:14859   */\n      0x20\n        /* \"#utility.yul\":14846:14855   */\n      dup3\n        /* \"#utility.yul\":14842:14860   */\n      add\n        /* \"#utility.yul\":14834:14860   */\n      swap1\n      pop\n        /* \"#utility.yul\":14906:14915   */\n      dup2\n        /* \"#utility.yul\":14900:14904   */\n      dup2\n        /* \"#utility.yul\":14896:14916   */\n      sub\n        /* \"#utility.yul\":14892:14893   */\n      0x00\n        /* \"#utility.yul\":14881:14890   */\n      dup4\n        /* \"#utility.yul\":14877:14894   */\n      add\n        /* \"#utility.yul\":14870:14917   */\n      mstore\n        /* \"#utility.yul\":14934:15065   */\n      tag_412\n        /* \"#utility.yul\":15060:15064   */\n      dup2\n        /* \"#utility.yul\":14934:15065   */\n      tag_360\n      jump\t// in\n    tag_412:\n        /* \"#utility.yul\":14926:15065   */\n      swap1\n      pop\n        /* \"#utility.yul\":14824:15072   */\n      swap2\n      swap1\n      pop\n      jump\t// out\n        /* \"#utility.yul\":15078:15497   */\n    tag_173:\n      0x00\n        /* \"#utility.yul\":15282:15284   */\n      0x20\n        /* \"#utility.yul\":15271:15280   */\n      dup3\n        /* \"#utility.yul\":15267:15285   */\n      add\n        /* \"#utility.yul\":15259:15285   */\n      swap1\n      pop\n        /* \"#utility.yul\":15331:15340   */\n      dup2\n        /* \"#utility.yul\":15325:15329   */\n      dup2\n        /* \"#utility.yul\":15321:15341   */\n      sub\n        /* \"#utility.yul\":15317:15318   */\n      0x00\n        /* \"#utility.yul\":15306:15315   */\n      dup4\n        /* \"#utility.yul\":15302:15319   */\n      add\n        /* \"#utility.yul\":15295:15342   */\n      mstore\n        /* \"#utility.yul\":15359:15490   */\n      tag_414\n        /* \"#utility.yul\":15485:15489   */\n      dup2\n        /* \"#utility.yul\":15359:15490   */\n      tag_363\n      jump\t// in\n    tag_414:\n        /* \"#utility.yul\":15351:15490   */\n      swap1\n      pop\n        /* \"#utility.yul\":15249:15497   */\n      swap2\n      swap1\n      pop\n      jump\t// out\n        /* \"#utility.yul\":15503:15725   */\n    tag_69:\n      0x00\n        /* \"#utility.yul\":15634:15636   */\n      0x20\n        /* \"#utility.yul\":15623:15632   */\n      dup3\n        /* \"#utility.yul\":15619:15637   */\n      add\n        /* \"#utility.yul\":15611:15637   */\n      swap1\n      pop\n        /* \"#utility.yul\":15647:15718   */\n      tag_416\n        /* \"#utility.yul\":15715:15716   */\n      0x00\n        /* \"#utility.yul\":15704:15713   */\n      dup4\n        /* \"#utility.yul\":15700:15717   */\n      add\n        /* \"#utility.yul\":15691:15697   */\n      dup5\n        /* \"#utility.yul\":15647:15718   */\n      tag_373\n      jump\t// in\n    tag_416:\n        /* \"#utility.yul\":15601:15725   */\n      swap3\n      swap2\n      pop\n      pop\n      jump\t// out\n        /* \"#utility.yul\":15731:16173   */\n    tag_50:\n      0x00\n        /* \"#utility.yul\":15918:15920   */\n      0x60\n        /* \"#utility.yul\":15907:15916   */\n      dup3\n        /* \"#utility.yul\":15903:15921   */\n      add\n        /* \"#utility.yul\":15895:15921   */\n      swap1\n      pop\n        /* \"#utility.yul\":15931:16002   */\n      tag_418\n        /* \"#utility.yul\":15999:16000   */\n      0x00\n        /* \"#utility.yul\":15988:15997   */\n      dup4\n        /* \"#utility.yul\":15984:16001   */\n      add\n        /* \"#utility.yul\":15975:15981   */\n      dup7\n        /* \"#utility.yul\":15931:16002   */\n      tag_373\n      jump\t// in\n    tag_418:\n        /* \"#utility.yul\":16012:16084   */\n      tag_419\n        /* \"#utility.yul\":16080:16082   */\n      0x20\n        /* \"#utility.yul\":16069:16078   */\n      dup4\n        /* \"#utility.yul\":16065:16083   */\n      add\n        /* \"#utility.yul\":16056:16062   */\n      dup6\n        /* \"#utility.yul\":16012:16084   */\n      tag_373\n      jump\t// in\n    tag_419:\n        /* \"#utility.yul\":16094:16166   */\n      tag_420\n        /* \"#utility.yul\":16162:16164   */\n      0x40\n        /* \"#utility.yul\":16151:16160   */\n      dup4\n        /* \"#utility.yul\":16147:16165   */\n      add\n        /* \"#utility.yul\":16138:16144   */\n      dup5\n        /* \"#utility.yul\":16094:16166   */\n      tag_373\n      jump\t// in\n    tag_420:\n        /* \"#utility.yul\":15885:16173   */\n      swap5\n      swap4\n      pop\n      pop\n      pop\n      pop\n      jump\t// out\n        /* \"#utility.yul\":16179:16340   */\n    tag_303:\n      0x00\n        /* \"#utility.yul\":16298:16301   */\n      dup2\n        /* \"#utility.yul\":16290:16301   */\n      swap1\n      pop\n        /* \"#utility.yul\":16328:16332   */\n      0x20\n        /* \"#utility.yul\":16323:16326   */\n      dup3\n        /* \"#utility.yul\":16319:16333   */\n      add\n        /* \"#utility.yul\":16311:16333   */\n      swap1\n      pop\n        /* \"#utility.yul\":16280:16340   */\n      swap2\n      swap1\n      pop\n      jump\t// out\n        /* \"#utility.yul\":16346:16489   */\n    tag_299:\n      0x00\n        /* \"#utility.yul\":16476:16481   */\n      dup2\n        /* \"#utility.yul\":16470:16482   */\n      mload\n        /* \"#utility.yul\":16460:16482   */\n      swap1\n      pop\n        /* \"#utility.yul\":16449:16489   */\n      swap2\n      swap1\n      pop\n      jump\t// out\n        /* \"#utility.yul\":16495:16593   */\n    tag_317:\n      0x00\n        /* \"#utility.yul\":16580:16585   */\n      dup2\n        /* \"#utility.yul\":16574:16586   */\n      mload\n        /* \"#utility.yul\":16564:16586   */\n      swap1\n      pop\n        /* \"#utility.yul\":16553:16593   */\n      swap2\n      swap1\n      pop\n      jump\t// out\n        /* \"#utility.yul\":16599:16698   */\n    tag_333:\n      0x00\n        /* \"#utility.yul\":16685:16690   */\n      dup2\n        /* \"#utility.yul\":16679:16691   */\n      mload\n        /* \"#utility.yul\":16669:16691   */\n      swap1\n      pop\n        /* \"#utility.yul\":16658:16698   */\n      swap2\n      swap1\n      pop\n      jump\t// out\n        /* \"#utility.yul\":16704:16846   */\n    tag_309:\n      0x00\n        /* \"#utility.yul\":16835:16839   */\n      0x20\n        /* \"#utility.yul\":16830:16833   */\n      dup3\n        /* \"#utility.yul\":16826:16840   */\n      add\n        /* \"#utility.yul\":16818:16840   */\n      swap1\n      pop\n        /* \"#utility.yul\":16808:16846   */\n      swap2\n      swap1\n      pop\n      jump\t// out\n        /* \"#utility.yul\":16852:17065   */\n    tag_301:\n      0x00\n        /* \"#utility.yul\":17014:17020   */\n      dup3\n        /* \"#utility.yul\":17009:17012   */\n      dup3\n        /* \"#utility.yul\":17002:17021   */\n      mstore\n        /* \"#utility.yul\":17054:17058   */\n      0x20\n        /* \"#utility.yul\":17049:17052   */\n      dup3\n        /* \"#utility.yul\":17045:17059   */\n      add\n        /* \"#utility.yul\":17030:17059   */\n      swap1\n      pop\n        /* \"#utility.yul\":16992:17065   */\n      swap3\n      swap2\n      pop\n      pop\n      jump\t// out\n        /* \"#utility.yul\":17071:17218   */\n    tag_319:\n      0x00\n        /* \"#utility.yul\":17209:17212   */\n      dup2\n        /* \"#utility.yul\":17194:17212   */\n      swap1\n      pop\n        /* \"#utility.yul\":17184:17218   */\n      swap3\n      swap2\n      pop\n      pop\n      jump\t// out\n        /* \"#utility.yul\":17224:17393   */\n    tag_335:\n      0x00\n        /* \"#utility.yul\":17342:17348   */\n      dup3\n        /* \"#utility.yul\":17337:17340   */\n      dup3\n        /* \"#utility.yul\":17330:17349   */\n      mstore\n        /* \"#utility.yul\":17382:17386   */\n      0x20\n        /* \"#utility.yul\":17377:17380   */\n      dup3\n        /* \"#utility.yul\":17373:17387   */\n      add\n        /* \"#utility.yul\":17358:17387   */\n      swap1\n      pop\n        /* \"#utility.yul\":17320:17393   */\n      swap3\n      swap2\n      pop\n      pop\n      jump\t// out\n        /* \"#utility.yul\":17399:17704   */\n    tag_85:\n      0x00\n        /* \"#utility.yul\":17458:17478   */\n      tag_430\n        /* \"#utility.yul\":17476:17477   */\n      dup3\n        /* \"#utility.yul\":17458:17478   */\n      tag_372\n      jump\t// in\n    tag_430:\n        /* \"#utility.yul\":17453:17478   */\n      swap2\n      pop\n        /* \"#utility.yul\":17492:17512   */\n      tag_431\n        /* \"#utility.yul\":17510:17511   */\n      dup4\n        /* \"#utility.yul\":17492:17512   */\n      tag_372\n      jump\t// in\n    tag_431:\n        /* \"#utility.yul\":17487:17512   */\n      swap3\n      pop\n        /* \"#utility.yul\":17646:17647   */\n      dup3\n        /* \"#utility.yul\":17578:17644   */\n      0xffffffffffffffffffffffffffffffffffffffffffffffffffffffffffffffff\n        /* \"#utility.yul\":17574:17648   */\n      sub\n        /* \"#utility.yul\":17571:17572   */\n      dup3\n        /* \"#utility.yul\":17568:17649   */\n      gt\n        /* \"#utility.yul\":17565:17567   */\n      iszero\n      tag_432\n      jumpi\n        /* \"#utility.yul\":17652:17670   */\n      tag_433\n      tag_434\n      jump\t// in\n    tag_433:\n        /* \"#utility.yul\":17565:17567   */\n    tag_432:\n        /* \"#utility.yul\":17696:17697   */\n      dup3\n        /* \"#utility.yul\":17693:17694   */\n      dup3\n        /* \"#utility.yul\":17689:17698   */\n      add\n        /* \"#utility.yul\":17682:17698   */\n      swap1\n      pop\n        /* \"#utility.yul\":17443:17704   */\n      swap3\n      swap2\n      pop\n      pop\n      jump\t// out\n        /* \"#utility.yul\":17710:17895   */\n    tag_181:\n      0x00\n        /* \"#utility.yul\":17767:17787   */\n      tag_436\n        /* \"#utility.yul\":17785:17786   */\n      dup3\n        /* \"#utility.yul\":17767:17787   */\n      tag_372\n      jump\t// in\n    tag_436:\n        /* \"#utility.yul\":17762:17787   */\n      swap2\n      pop\n        /* \"#utility.yul\":17801:17821   */\n      tag_437\n        /* \"#utility.yul\":17819:17820   */\n      dup4\n        /* \"#utility.yul\":17801:17821   */\n      tag_372\n      jump\t// in\n    tag_437:\n        /* \"#utility.yul\":17796:17821   */\n      swap3\n      pop\n        /* \"#utility.yul\":17840:17841   */\n      dup3\n        /* \"#utility.yul\":17830:17832   */\n      tag_438\n      jumpi\n        /* \"#utility.yul\":17845:17863   */\n      tag_439\n      tag_440\n      jump\t// in\n    tag_439:\n        /* \"#utility.yul\":17830:17832   */\n    tag_438:\n        /* \"#utility.yul\":17887:17888   */\n      dup3\n        /* \"#utility.yul\":17884:17885   */\n      dup3\n        /* \"#utility.yul\":17880:17889   */\n      div\n        /* \"#utility.yul\":17875:17889   */\n      swap1\n      pop\n        /* \"#utility.yul\":17752:17895   */\n      swap3\n      swap2\n      pop\n      pop\n      jump\t// out\n        /* \"#utility.yul\":17901:18249   */\n    tag_178:\n      0x00\n        /* \"#utility.yul\":17964:17984   */\n      tag_442\n        /* \"#utility.yul\":17982:17983   */\n      dup3\n        /* \"#utility.yul\":17964:17984   */\n      tag_372\n      jump\t// in\n    tag_442:\n        /* \"#utility.yul\":17959:17984   */\n      swap2\n      pop\n        /* \"#utility.yul\":17998:18018   */\n      tag_443\n        /* \"#utility.yul\":18016:18017   */\n      dup4\n        /* \"#utility.yul\":17998:18018   */\n      tag_372\n      jump\t// in\n    tag_443:\n        /* \"#utility.yul\":17993:18018   */\n      swap3\n      pop\n        /* \"#utility.yul\":18186:18187   */\n      dup2\n        /* \"#utility.yul\":18118:18184   */\n      0xffffffffffffffffffffffffffffffffffffffffffffffffffffffffffffffff\n        /* \"#utility.yul\":18114:18188   */\n      div\n        /* \"#utility.yul\":18111:18112   */\n      dup4\n        /* \"#utility.yul\":18108:18189   */\n      gt\n        /* \"#utility.yul\":18103:18104   */\n      dup3\n        /* \"#utility.yul\":18096:18105   */\n      iszero\n        /* \"#utility.yul\":18089:18106   */\n      iszero\n        /* \"#utility.yul\":18085:18190   */\n      and\n        /* \"#utility.yul\":18082:18084   */\n      iszero\n      tag_444\n      jumpi\n        /* \"#utility.yul\":18193:18211   */\n      tag_445\n      tag_434\n      jump\t// in\n    tag_445:\n        /* \"#utility.yul\":18082:18084   */\n    tag_444:\n        /* \"#utility.yul\":18241:18242   */\n      dup3\n        /* \"#utility.yul\":18238:18239   */\n      dup3\n        /* \"#utility.yul\":18234:18243   */\n      mul\n        /* \"#utility.yul\":18223:18243   */\n      swap1\n      pop\n        /* \"#utility.yul\":17949:18249   */\n      swap3\n      swap2\n      pop\n      pop\n      jump\t// out\n        /* \"#utility.yul\":18255:18446   */\n    tag_176:\n      0x00\n        /* \"#utility.yul\":18315:18335   */\n      tag_447\n        /* \"#utility.yul\":18333:18334   */\n      dup3\n        /* \"#utility.yul\":18315:18335   */\n      tag_372\n      jump\t// in\n    tag_447:\n        /* \"#utility.yul\":18310:18335   */\n      swap2\n      pop\n        /* \"#utility.yul\":18349:18369   */\n      tag_448\n        /* \"#utility.yul\":18367:18368   */\n      dup4\n        /* \"#utility.yul\":18349:18369   */\n      tag_372\n      jump\t// in\n    tag_448:\n        /* \"#utility.yul\":18344:18369   */\n      swap3\n      pop\n        /* \"#utility.yul\":18388:18389   */\n      dup3\n        /* \"#utility.yul\":18385:18386   */\n      dup3\n        /* \"#utility.yul\":18382:18390   */\n      lt\n        /* \"#utility.yul\":18379:18381   */\n      iszero\n      tag_449\n      jumpi\n        /* \"#utility.yul\":18393:18411   */\n      tag_450\n      tag_434\n      jump\t// in\n    tag_450:\n        /* \"#utility.yul\":18379:18381   */\n    tag_449:\n        /* \"#utility.yul\":18438:18439   */\n      dup3\n        /* \"#utility.yul\":18435:18436   */\n      dup3\n        /* \"#utility.yul\":18431:18440   */\n      sub\n        /* \"#utility.yul\":18423:18440   */\n      swap1\n      pop\n        /* \"#utility.yul\":18300:18446   */\n      swap3\n      swap2\n      pop\n      pop\n      jump\t// out\n        /* \"#utility.yul\":18452:18548   */\n    tag_292:\n      0x00\n        /* \"#utility.yul\":18518:18542   */\n      tag_452\n        /* \"#utility.yul\":18536:18541   */\n      dup3\n        /* \"#utility.yul\":18518:18542   */\n      tag_453\n      jump\t// in\n    tag_452:\n        /* \"#utility.yul\":18507:18542   */\n      swap1\n      pop\n        /* \"#utility.yul\":18497:18548   */\n      swap2\n      swap1\n      pop\n      jump\t// out\n        /* \"#utility.yul\":18554:18644   */\n    tag_313:\n      0x00\n        /* \"#utility.yul\":18631:18636   */\n      dup2\n        /* \"#utility.yul\":18624:18637   */\n      iszero\n        /* \"#utility.yul\":18617:18638   */\n      iszero\n        /* \"#utility.yul\":18606:18638   */\n      swap1\n      pop\n        /* \"#utility.yul\":18596:18644   */\n      swap2\n      swap1\n      pop\n      jump\t// out\n        /* \"#utility.yul\":18650:18776   */\n    tag_453:\n      0x00\n        /* \"#utility.yul\":18727:18769   */\n      0xffffffffffffffffffffffffffffffffffffffff\n        /* \"#utility.yul\":18720:18725   */\n      dup3\n        /* \"#utility.yul\":18716:18770   */\n      and\n        /* \"#utility.yul\":18705:18770   */\n      swap1\n      pop\n        /* \"#utility.yul\":18695:18776   */\n      swap2\n      swap1\n      pop\n      jump\t// out\n        /* \"#utility.yul\":18782:18859   */\n    tag_372:\n      0x00\n        /* \"#utility.yul\":18848:18853   */\n      dup2\n        /* \"#utility.yul\":18837:18853   */\n      swap1\n      pop\n        /* \"#utility.yul\":18827:18859   */\n      swap2\n      swap1\n      pop\n      jump\t// out\n        /* \"#utility.yul\":18865:19019   */\n    tag_325:\n      0x00\n        /* \"#utility.yul\":18962:19013   */\n      tag_458\n        /* \"#utility.yul\":19007:19012   */\n      dup3\n        /* \"#utility.yul\":18962:19013   */\n      tag_459\n      jump\t// in\n    tag_458:\n        /* \"#utility.yul\":18949:19013   */\n      swap1\n      pop\n        /* \"#utility.yul\":18939:19019   */\n      swap2\n      swap1\n      pop\n      jump\t// out\n        /* \"#utility.yul\":19025:19152   */\n    tag_459:\n      0x00\n        /* \"#utility.yul\":19122:19146   */\n      tag_461\n        /* \"#utility.yul\":19140:19145   */\n      dup3\n        /* \"#utility.yul\":19122:19146   */\n      tag_453\n      jump\t// in\n    tag_461:\n        /* \"#utility.yul\":19109:19146   */\n      swap1\n      pop\n        /* \"#utility.yul\":19099:19152   */\n      swap2\n      swap1\n      pop\n      jump\t// out\n        /* \"#utility.yul\":19158:19314   */\n    tag_329:\n      0x00\n        /* \"#utility.yul\":19256:19308   */\n      tag_463\n        /* \"#utility.yul\":19302:19307   */\n      dup3\n        /* \"#utility.yul\":19256:19308   */\n      tag_464\n      jump\t// in\n    tag_463:\n        /* \"#utility.yul\":19243:19308   */\n      swap1\n      pop\n        /* \"#utility.yul\":19233:19314   */\n      swap2\n      swap1\n      pop\n      jump\t// out\n        /* \"#utility.yul\":19320:19448   */\n    tag_464:\n      0x00\n        /* \"#utility.yul\":19418:19442   */\n      tag_466\n        /* \"#utility.yul\":19436:19441   */\n      dup3\n        /* \"#utility.yul\":19418:19442   */\n      tag_453\n      jump\t// in\n    tag_466:\n        /* \"#utility.yul\":19405:19442   */\n      swap1\n      pop\n        /* \"#utility.yul\":19395:19448   */\n      swap2\n      swap1\n      pop\n      jump\t// out\n        /* \"#utility.yul\":19454:19761   */\n    tag_321:\n        /* \"#utility.yul\":19522:19523   */\n      0x00\n        /* \"#utility.yul\":19532:19645   */\n    tag_468:\n        /* \"#utility.yul\":19546:19552   */\n      dup4\n        /* \"#utility.yul\":19543:19544   */\n      dup2\n        /* \"#utility.yul\":19540:19553   */\n      lt\n        /* \"#utility.yul\":19532:19645   */\n      iszero\n      tag_470\n      jumpi\n        /* \"#utility.yul\":19631:19632   */\n      dup1\n        /* \"#utility.yul\":19626:19629   */\n      dup3\n        /* \"#utility.yul\":19622:19633   */\n      add\n        /* \"#utility.yul\":19616:19634   */\n      mload\n        /* \"#utility.yul\":19612:19613   */\n      dup2\n        /* \"#utility.yul\":19607:19610   */\n      dup5\n        /* \"#utility.yul\":19603:19614   */\n      add\n        /* \"#utility.yul\":19596:19635   */\n      mstore\n        /* \"#utility.yul\":19568:19570   */\n      0x20\n        /* \"#utility.yul\":19565:19566   */\n      dup2\n        /* \"#utility.yul\":19561:19571   */\n      add\n        /* \"#utility.yul\":19556:19571   */\n      swap1\n      pop\n        /* \"#utility.yul\":19532:19645   */\n      jump(tag_468)\n    tag_470:\n        /* \"#utility.yul\":19663:19669   */\n      dup4\n        /* \"#utility.yul\":19660:19661   */\n      dup2\n        /* \"#utility.yul\":19657:19670   */\n      gt\n        /* \"#utility.yul\":19654:19656   */\n      iszero\n      tag_471\n      jumpi\n        /* \"#utility.yul\":19743:19744   */\n      0x00\n        /* \"#utility.yul\":19734:19740   */\n      dup5\n        /* \"#utility.yul\":19729:19732   */\n      dup5\n        /* \"#utility.yul\":19725:19741   */\n      add\n        /* \"#utility.yul\":19718:19745   */\n      mstore\n        /* \"#utility.yul\":19654:19656   */\n    tag_471:\n        /* \"#utility.yul\":19503:19761   */\n      pop\n      pop\n      pop\n      pop\n      jump\t// out\n        /* \"#utility.yul\":19767:19938   */\n    tag_97:\n      0x00\n        /* \"#utility.yul\":19829:19853   */\n      tag_473\n        /* \"#utility.yul\":19847:19852   */\n      dup3\n        /* \"#utility.yul\":19829:19853   */\n      tag_372\n      jump\t// in\n    tag_473:\n        /* \"#utility.yul\":19820:19853   */\n      swap2\n      pop\n        /* \"#utility.yul\":19875:19879   */\n      0x00\n        /* \"#utility.yul\":19868:19873   */\n      dup3\n        /* \"#utility.yul\":19865:19880   */\n      eq\n        /* \"#utility.yul\":19862:19864   */\n      iszero\n      tag_474\n      jumpi\n        /* \"#utility.yul\":19883:19901   */\n      tag_475\n      tag_434\n      jump\t// in\n    tag_475:\n        /* \"#utility.yul\":19862:19864   */\n    tag_474:\n        /* \"#utility.yul\":19930:19931   */\n      0x01\n        /* \"#utility.yul\":19923:19928   */\n      dup3\n        /* \"#utility.yul\":19919:19932   */\n      sub\n        /* \"#utility.yul\":19912:19932   */\n      swap1\n      pop\n        /* \"#utility.yul\":19810:19938   */\n      swap2\n      swap1\n      pop\n      jump\t// out\n        /* \"#utility.yul\":19944:20177   */\n    tag_93:\n      0x00\n        /* \"#utility.yul\":20006:20030   */\n      tag_477\n        /* \"#utility.yul\":20024:20029   */\n      dup3\n        /* \"#utility.yul\":20006:20030   */\n      tag_372\n      jump\t// in\n    tag_477:\n        /* \"#utility.yul\":19997:20030   */\n      swap2\n      pop\n        /* \"#utility.yul\":20052:20118   */\n      0xffffffffffffffffffffffffffffffffffffffffffffffffffffffffffffffff\n        /* \"#utility.yul\":20045:20050   */\n      dup3\n        /* \"#utility.yul\":20042:20119   */\n      eq\n        /* \"#utility.yul\":20039:20041   */\n      iszero\n      tag_478\n      jumpi\n        /* \"#utility.yul\":20122:20140   */\n      tag_479\n      tag_434\n      jump\t// in\n    tag_479:\n        /* \"#utility.yul\":20039:20041   */\n    tag_478:\n        /* \"#utility.yul\":20169:20170   */\n      0x01\n        /* \"#utility.yul\":20162:20167   */\n      dup3\n        /* \"#utility.yul\":20158:20171   */\n      add\n        /* \"#utility.yul\":20151:20171   */\n      swap1\n      pop\n        /* \"#utility.yul\":19987:20177   */\n      swap2\n      swap1\n      pop\n      jump\t// out\n        /* \"#utility.yul\":20183:20363   */\n    tag_434:\n        /* \"#utility.yul\":20231:20308   */\n      0x4e487b7100000000000000000000000000000000000000000000000000000000\n        /* \"#utility.yul\":20228:20229   */\n      0x00\n        /* \"#utility.yul\":20221:20309   */\n      mstore\n        /* \"#utility.yul\":20328:20332   */\n      0x11\n        /* \"#utility.yul\":20325:20326   */\n      0x04\n        /* \"#utility.yul\":20318:20333   */\n      mstore\n        /* \"#utility.yul\":20352:20356   */\n      0x24\n        /* \"#utility.yul\":20349:20350   */\n      0x00\n        /* \"#utility.yul\":20342:20357   */\n      revert\n        /* \"#utility.yul\":20369:20549   */\n    tag_440:\n        /* \"#utility.yul\":20417:20494   */\n      0x4e487b7100000000000000000000000000000000000000000000000000000000\n        /* \"#utility.yul\":20414:20415   */\n      0x00\n        /* \"#utility.yul\":20407:20495   */\n      mstore\n        /* \"#utility.yul\":20514:20518   */\n      0x12\n        /* \"#utility.yul\":20511:20512   */\n      0x04\n        /* \"#utility.yul\":20504:20519   */\n      mstore\n        /* \"#utility.yul\":20538:20542   */\n      0x24\n        /* \"#utility.yul\":20535:20536   */\n      0x00\n        /* \"#utility.yul\":20528:20543   */\n      revert\n        /* \"#utility.yul\":20555:20657   */\n    tag_338:\n      0x00\n        /* \"#utility.yul\":20647:20649   */\n      0x1f\n        /* \"#utility.yul\":20643:20650   */\n      not\n        /* \"#utility.yul\":20638:20640   */\n      0x1f\n        /* \"#utility.yul\":20631:20636   */\n      dup4\n        /* \"#utility.yul\":20627:20641   */\n      add\n        /* \"#utility.yul\":20623:20651   */\n      and\n        /* \"#utility.yul\":20613:20651   */\n      swap1\n      pop\n        /* \"#utility.yul\":20603:20657   */\n      swap2\n      swap1\n      pop\n      jump\t// out\n        /* \"#utility.yul\":20663:20785   */\n    tag_255:\n        /* \"#utility.yul\":20736:20760   */\n      tag_484\n        /* \"#utility.yul\":20754:20759   */\n      dup2\n        /* \"#utility.yul\":20736:20760   */\n      tag_292\n      jump\t// in\n    tag_484:\n        /* \"#utility.yul\":20729:20734   */\n      dup2\n        /* \"#utility.yul\":20726:20761   */\n      eq\n        /* \"#utility.yul\":20716:20718   */\n      tag_485\n      jumpi\n        /* \"#utility.yul\":20775:20776   */\n      0x00\n        /* \"#utility.yul\":20772:20773   */\n      dup1\n        /* \"#utility.yul\":20765:20777   */\n      revert\n        /* \"#utility.yul\":20716:20718   */\n    tag_485:\n        /* \"#utility.yul\":20706:20785   */\n      pop\n      jump\t// out\n        /* \"#utility.yul\":20791:20907   */\n    tag_262:\n        /* \"#utility.yul\":20861:20882   */\n      tag_487\n        /* \"#utility.yul\":20876:20881   */\n      dup2\n        /* \"#utility.yul\":20861:20882   */\n      tag_313\n      jump\t// in\n    tag_487:\n        /* \"#utility.yul\":20854:20859   */\n      dup2\n        /* \"#utility.yul\":20851:20883   */\n      eq\n        /* \"#utility.yul\":20841:20843   */\n      tag_488\n      jumpi\n        /* \"#utility.yul\":20897:20898   */\n      0x00\n        /* \"#utility.yul\":20894:20895   */\n      dup1\n        /* \"#utility.yul\":20887:20899   */\n      revert\n        /* \"#utility.yul\":20841:20843   */\n    tag_488:\n        /* \"#utility.yul\":20831:20907   */\n      pop\n      jump\t// out\n        /* \"#utility.yul\":20913:21035   */\n    tag_266:\n        /* \"#utility.yul\":20986:21010   */\n      tag_490\n        /* \"#utility.yul\":21004:21009   */\n      dup2\n        /* \"#utility.yul\":20986:21010   */\n      tag_372\n      jump\t// in\n    tag_490:\n        /* \"#utility.yul\":20979:20984   */\n      dup2\n        /* \"#utility.yul\":20976:21011   */\n      eq\n        /* \"#utility.yul\":20966:20968   */\n      tag_491\n      jumpi\n        /* \"#utility.yul\":21025:21026   */\n      0x00\n        /* \"#utility.yul\":21022:21023   */\n      dup1\n        /* \"#utility.yul\":21015:21027   */\n      revert\n        /* \"#utility.yul\":20966:20968   */\n    tag_491:\n        /* \"#utility.yul\":20956:21035   */\n      pop\n      jump\t// out\n\n    auxdata: 0xa2646970667358221220b665f200cdfeff35abb94b512d2885a9491d311e83be43332a8ea806924a2da364736f6c63430008000033\n}\n",
				"bytecode": {
					"linkReferences": {},
					"object": "6080604052620186a06005553480156200001857600080fd5b50604051620028f9380380620028f983398181016040528101906200003e919062000264565b60016000819055506000600160006101000a81548160ff02191690831515021790555062000081620000756200015460201b60201c565b6200015c60201b60201c565b82600360006101000a81548173ffffffffffffffffffffffffffffffffffffffff021916908373ffffffffffffffffffffffffffffffffffffffff16021790555082600460006101000a81548173ffffffffffffffffffffffffffffffffffffffff021916908373ffffffffffffffffffffffffffffffffffffffff16021790555081600260006101000a81548173ffffffffffffffffffffffffffffffffffffffff021916908373ffffffffffffffffffffffffffffffffffffffff160217905550806005819055505050506200035a565b600033905090565b600060018054906101000a900473ffffffffffffffffffffffffffffffffffffffff169050816001806101000a81548173ffffffffffffffffffffffffffffffffffffffff021916908373ffffffffffffffffffffffffffffffffffffffff1602179055508173ffffffffffffffffffffffffffffffffffffffff168173ffffffffffffffffffffffffffffffffffffffff167f8be0079c531659141344cd1fd0a4f28419497f9722a3daafe3b4186f6b6457e060405160405180910390a35050565b60008151905062000230816200030c565b92915050565b600081519050620002478162000326565b92915050565b6000815190506200025e8162000340565b92915050565b6000806000606084860312156200027a57600080fd5b60006200028a868287016200021f565b93505060206200029d8682870162000236565b9250506040620002b0868287016200024d565b9150509250925092565b6000620002c782620002e2565b9050919050565b6000620002db82620002ba565b9050919050565b600073ffffffffffffffffffffffffffffffffffffffff82169050919050565b6000819050919050565b6200031781620002ba565b81146200032357600080fd5b50565b6200033181620002ce565b81146200033d57600080fd5b50565b6200034b8162000302565b81146200035757600080fd5b50565b61258f806200036a6000396000f3fe608060405234801561001057600080fd5b50600436106100ea5760003560e01c80639168ae721161008c578063d1af0c7d11610066578063d1af0c7d14610227578063f2fde38b14610245578063f854a27f14610261578063f995441b14610291576100ea565b80639168ae72146101a957806394067045146101db578063a694fc3a1461020b576100ea565b806363c28db1116100c857806363c28db1146101335780636588103b14610163578063715018a6146101815780638da5cb5b1461018b576100ea565b80632e1a7d4d146100ef578063372500ab1461010b5780635c975abb14610115575b600080fd5b61010960048036038101906101049190611ada565b61029b565b005b61011361078a565b005b61011d610906565b60405161012a919061200a565b60405180910390f35b61014d60048036038101906101489190611a5f565b61091d565b60405161015a9190611fe8565b60405180910390f35b61016b610d41565b6040516101789190612040565b60405180910390f35b610189610d67565b005b610193610d7b565b6040516101a09190611f6d565b60405180910390f35b6101c360048036038101906101be9190611a5f565b610da3565b6040516101d2939291906121b8565b60405180910390f35b6101f560048036038101906101f09190611ada565b610dcd565b6040516102029190611f6d565b60405180910390f35b61022560048036038101906102209190611ada565b610e00565b005b61022f610e1d565b60405161023c9190612025565b60405180910390f35b61025f600480360381019061025a9190611a5f565b610e43565b005b61027b60048036038101906102769190611a5f565b610ec7565b604051610288919061219d565b60405180910390f35b610299610f2b565b005b6102a3611032565b6000600660003373ffffffffffffffffffffffffffffffffffffffff1673ffffffffffffffffffffffffffffffffffffffff1681526020019081526020016000206000015411610328576040517f08c379a000000000000000000000000000000000000000000000000000000000815260040161031f906120bd565b60405180910390fd5b3373ffffffffffffffffffffffffffffffffffffffff166007600083815260200190815260200160002060009054906101000a900473ffffffffffffffffffffffffffffffffffffffff1673ffffffffffffffffffffffffffffffffffffffff16146103c9576040517f08c379a00000000000000000000000000000000000000000000000000000000081526004016103c09061207d565b60405180910390fd5b60006103d433611082565b905080600660003373ffffffffffffffffffffffffffffffffffffffff1673ffffffffffffffffffffffffffffffffffffffff1681526020019081526020016000206003016000828254610428919061225a565b925050819055506000805b600660003373ffffffffffffffffffffffffffffffffffffffff1673ffffffffffffffffffffffffffffffffffffffff1681526020019081526020016000206001018054905081101561052e5783600660003373ffffffffffffffffffffffffffffffffffffffff1673ffffffffffffffffffffffffffffffffffffffff16815260200190815260200160002060010182815481106104fb577f4e487b7100000000000000000000000000000000000000000000000000000000600052603260045260246000fd5b906000526020600020906002020160010154141561051b5780915061052e565b80806105269061245c565b915050610433565b506000600660003373ffffffffffffffffffffffffffffffffffffffff1673ffffffffffffffffffffffffffffffffffffffff16815260200190815260200160002060010182815481106105ab577f4e487b7100000000000000000000000000000000000000000000000000000000600052603260045260246000fd5b906000526020600020906002020160000160006101000a81548173ffffffffffffffffffffffffffffffffffffffff021916908373ffffffffffffffffffffffffffffffffffffffff160217905550600660003373ffffffffffffffffffffffffffffffffffffffff1673ffffffffffffffffffffffffffffffffffffffff168152602001908152602001600020600001600081548092919061064d90612432565b919050555060006007600085815260200190815260200160002060006101000a81548173ffffffffffffffffffffffffffffffffffffffff021916908373ffffffffffffffffffffffffffffffffffffffff160217905550600360009054906101000a900473ffffffffffffffffffffffffffffffffffffffff1673ffffffffffffffffffffffffffffffffffffffff166323b872dd3033866040518463ffffffff1660e01b815260040161070493929190611f88565b600060405180830381600087803b15801561071e57600080fd5b505af1158015610732573d6000803e3d6000fd5b5050505042600660003373ffffffffffffffffffffffffffffffffffffffff1673ffffffffffffffffffffffffffffffffffffffff168152602001908152602001600020600201819055505050610787611140565b50565b6000600660003373ffffffffffffffffffffffffffffffffffffffff1673ffffffffffffffffffffffffffffffffffffffff168152602001908152602001600020600301546107d833611082565b6107e2919061225a565b905060008111610827576040517f08c379a000000000000000000000000000000000000000000000000000000000815260040161081e9061211d565b60405180910390fd5b42600660003373ffffffffffffffffffffffffffffffffffffffff1673ffffffffffffffffffffffffffffffffffffffff168152602001908152602001600020600201819055506000600660003373ffffffffffffffffffffffffffffffffffffffff1673ffffffffffffffffffffffffffffffffffffffff168152602001908152602001600020600301819055506109033382600260009054906101000a900473ffffffffffffffffffffffffffffffffffffffff1673ffffffffffffffffffffffffffffffffffffffff1661114a9092919063ffffffff16565b50565b6000600160009054906101000a900460ff16905090565b60606000600660008473ffffffffffffffffffffffffffffffffffffffff1673ffffffffffffffffffffffffffffffffffffffff168152602001908152602001600020600001541115610cbe576000600660008473ffffffffffffffffffffffffffffffffffffffff1673ffffffffffffffffffffffffffffffffffffffff1681526020019081526020016000206000015467ffffffffffffffff8111156109ee577f4e487b7100000000000000000000000000000000000000000000000000000000600052604160045260246000fd5b604051908082528060200260200182016040528015610a2757816020015b610a146119c6565b815260200190600190039081610a0c5790505b5090506000805b600660008673ffffffffffffffffffffffffffffffffffffffff1673ffffffffffffffffffffffffffffffffffffffff16815260200190815260200160002060010180549050811015610cb357600073ffffffffffffffffffffffffffffffffffffffff16600660008773ffffffffffffffffffffffffffffffffffffffff1673ffffffffffffffffffffffffffffffffffffffff1681526020019081526020016000206001018281548110610b0d577f4e487b7100000000000000000000000000000000000000000000000000000000600052603260045260246000fd5b906000526020600020906002020160000160009054906101000a900473ffffffffffffffffffffffffffffffffffffffff1673ffffffffffffffffffffffffffffffffffffffff1614610ca057600660008673ffffffffffffffffffffffffffffffffffffffff1673ffffffffffffffffffffffffffffffffffffffff1681526020019081526020016000206001018181548110610bd4577f4e487b7100000000000000000000000000000000000000000000000000000000600052603260045260246000fd5b90600052602060002090600202016040518060400160405290816000820160009054906101000a900473ffffffffffffffffffffffffffffffffffffffff1673ffffffffffffffffffffffffffffffffffffffff1673ffffffffffffffffffffffffffffffffffffffff168152602001600182015481525050838381518110610c86577f4e487b7100000000000000000000000000000000000000000000000000000000600052603260045260246000fd5b60200260200101819052508180610c9c9061245c565b9250505b8080610cab9061245c565b915050610a2e565b508192505050610d3c565b600067ffffffffffffffff811115610cff577f4e487b7100000000000000000000000000000000000000000000000000000000600052604160045260246000fd5b604051908082528060200260200182016040528015610d3857816020015b610d256119c6565b815260200190600190039081610d1d5790505b5090505b919050565b600360009054906101000a900473ffffffffffffffffffffffffffffffffffffffff1681565b610d6f6111d0565b610d79600061124e565b565b600060018054906101000a900473ffffffffffffffffffffffffffffffffffffffff16905090565b60066020528060005260406000206000915090508060000154908060020154908060030154905083565b60076020528060005260406000206000915054906101000a900473ffffffffffffffffffffffffffffffffffffffff1681565b610e08611032565b610e123382611311565b610e1a611140565b50565b600260009054906101000a900473ffffffffffffffffffffffffffffffffffffffff1681565b610e4b6111d0565b600073ffffffffffffffffffffffffffffffffffffffff168173ffffffffffffffffffffffffffffffffffffffff161415610ebb576040517f08c379a0000000000000000000000000000000000000000000000000000000008152600401610eb29061209d565b60405180910390fd5b610ec48161124e565b50565b600080600660008473ffffffffffffffffffffffffffffffffffffffff1673ffffffffffffffffffffffffffffffffffffffff16815260200190815260200160002060030154610f1684611082565b610f20919061225a565b905080915050919050565b610f336111d0565b6000600260009054906101000a900473ffffffffffffffffffffffffffffffffffffffff1673ffffffffffffffffffffffffffffffffffffffff166370a08231306040518263ffffffff1660e01b8152600401610f909190611f6d565b60206040518083038186803b158015610fa857600080fd5b505afa158015610fbc573d6000803e3d6000fd5b505050506040513d601f19601f82011682018060405250810190610fe09190611b03565b905061102f3382600260009054906101000a900473ffffffffffffffffffffffffffffffffffffffff1673ffffffffffffffffffffffffffffffffffffffff1661114a9092919063ffffffff16565b50565b60026000541415611078576040517f08c379a000000000000000000000000000000000000000000000000000000000815260040161106f9061217d565b60405180910390fd5b6002600081905550565b6000610e10600554600660008573ffffffffffffffffffffffffffffffffffffffff1673ffffffffffffffffffffffffffffffffffffffff16815260200190815260200160002060000154600660008673ffffffffffffffffffffffffffffffffffffffff1673ffffffffffffffffffffffffffffffffffffffff168152602001908152602001600020600201544261111b919061233b565b61112591906122e1565b61112f91906122e1565b61113991906122b0565b9050919050565b6001600081905550565b6111cb8363a9059cbb60e01b8484604051602401611169929190611fbf565b604051602081830303815290604052907bffffffffffffffffffffffffffffffffffffffffffffffffffffffff19166020820180517bffffffffffffffffffffffffffffffffffffffffffffffffffffffff8381831617835250505050611751565b505050565b6111d8611818565b73ffffffffffffffffffffffffffffffffffffffff166111f6610d7b565b73ffffffffffffffffffffffffffffffffffffffff161461124c576040517f08c379a0000000000000000000000000000000000000000000000000000000008152600401611243906120fd565b60405180910390fd5b565b600060018054906101000a900473ffffffffffffffffffffffffffffffffffffffff169050816001806101000a81548173ffffffffffffffffffffffffffffffffffffffff021916908373ffffffffffffffffffffffffffffffffffffffff1602179055508173ffffffffffffffffffffffffffffffffffffffff168173ffffffffffffffffffffffffffffffffffffffff167f8be0079c531659141344cd1fd0a4f28419497f9722a3daafe3b4186f6b6457e060405160405180910390a35050565b8173ffffffffffffffffffffffffffffffffffffffff16600360009054906101000a900473ffffffffffffffffffffffffffffffffffffffff1673ffffffffffffffffffffffffffffffffffffffff16636352211e836040518263ffffffff1660e01b8152600401611383919061219d565b60206040518083038186803b15801561139b57600080fd5b505afa1580156113af573d6000803e3d6000fd5b505050506040513d601f19601f820116820180604052508101906113d39190611a88565b73ffffffffffffffffffffffffffffffffffffffff1614611429576040517f08c379a00000000000000000000000000000000000000000000000000000000081526004016114209061207d565b60405180910390fd5b6000600660008473ffffffffffffffffffffffffffffffffffffffff1673ffffffffffffffffffffffffffffffffffffffff1681526020019081526020016000206000015411156114dc57600061147f83611082565b905080600660008573ffffffffffffffffffffffffffffffffffffffff1673ffffffffffffffffffffffffffffffffffffffff16815260200190815260200160002060030160008282546114d3919061225a565b92505081905550505b600360009054906101000a900473ffffffffffffffffffffffffffffffffffffffff1673ffffffffffffffffffffffffffffffffffffffff166323b872dd8330846040518463ffffffff1660e01b815260040161153b93929190611f88565b600060405180830381600087803b15801561155557600080fd5b505af1158015611569573d6000803e3d6000fd5b50505050600060405180604001604052808473ffffffffffffffffffffffffffffffffffffffff168152602001838152509050600660008473ffffffffffffffffffffffffffffffffffffffff1673ffffffffffffffffffffffffffffffffffffffff16815260200190815260200160002060010181908060018154018082558091505060019003906000526020600020906002020160009091909190915060008201518160000160006101000a81548173ffffffffffffffffffffffffffffffffffffffff021916908373ffffffffffffffffffffffffffffffffffffffff160217905550602082015181600101555050600660008473ffffffffffffffffffffffffffffffffffffffff1673ffffffffffffffffffffffffffffffffffffffff16815260200190815260200160002060000160008154809291906116ae9061245c565b9190505550826007600084815260200190815260200160002060006101000a81548173ffffffffffffffffffffffffffffffffffffffff021916908373ffffffffffffffffffffffffffffffffffffffff16021790555042600660008573ffffffffffffffffffffffffffffffffffffffff1673ffffffffffffffffffffffffffffffffffffffff16815260200190815260200160002060020181905550505050565b60006117b3826040518060400160405280602081526020017f5361666545524332303a206c6f772d6c6576656c2063616c6c206661696c65648152508573ffffffffffffffffffffffffffffffffffffffff166118209092919063ffffffff16565b905060008151111561181357808060200190518101906117d39190611ab1565b611812576040517f08c379a00000000000000000000000000000000000000000000000000000000081526004016118099061215d565b60405180910390fd5b5b505050565b600033905090565b606061182f8484600085611838565b90509392505050565b60608247101561187d576040517f08c379a0000000000000000000000000000000000000000000000000000000008152600401611874906120dd565b60405180910390fd5b6118868561194c565b6118c5576040517f08c379a00000000000000000000000000000000000000000000000000000000081526004016118bc9061213d565b60405180910390fd5b6000808673ffffffffffffffffffffffffffffffffffffffff1685876040516118ee9190611f56565b60006040518083038185875af1925050503d806000811461192b576040519150601f19603f3d011682016040523d82523d6000602084013e611930565b606091505b509150915061194082828661195f565b92505050949350505050565b600080823b905060008111915050919050565b6060831561196f578290506119bf565b6000835111156119825782518084602001fd5b816040517f08c379a00000000000000000000000000000000000000000000000000000000081526004016119b6919061205b565b60405180910390fd5b9392505050565b6040518060400160405280600073ffffffffffffffffffffffffffffffffffffffff168152602001600081525090565b600081359050611a0581612514565b92915050565b600081519050611a1a81612514565b92915050565b600081519050611a2f8161252b565b92915050565b600081359050611a4481612542565b92915050565b600081519050611a5981612542565b92915050565b600060208284031215611a7157600080fd5b6000611a7f848285016119f6565b91505092915050565b600060208284031215611a9a57600080fd5b6000611aa884828501611a0b565b91505092915050565b600060208284031215611ac357600080fd5b6000611ad184828501611a20565b91505092915050565b600060208284031215611aec57600080fd5b6000611afa84828501611a35565b91505092915050565b600060208284031215611b1557600080fd5b6000611b2384828501611a4a565b91505092915050565b6000611b388383611f09565b60408301905092915050565b611b4d8161236f565b82525050565b611b5c8161236f565b82525050565b6000611b6d826121ff565b611b77818561222d565b9350611b82836121ef565b8060005b83811015611bb3578151611b9a8882611b2c565b9750611ba583612220565b925050600181019050611b86565b5085935050505092915050565b611bc981612381565b82525050565b6000611bda8261220a565b611be4818561223e565b9350611bf48185602086016123ff565b80840191505092915050565b611c09816123b7565b82525050565b611c18816123db565b82525050565b6000611c2982612215565b611c338185612249565b9350611c438185602086016123ff565b611c4c81612503565b840191505092915050565b6000611c64601983612249565b91507f596f7520646f6e2774206f776e207468697320746f6b656e21000000000000006000830152602082019050919050565b6000611ca4602683612249565b91507f4f776e61626c653a206e6577206f776e657220697320746865207a65726f206160008301527f64647265737300000000000000000000000000000000000000000000000000006020830152604082019050919050565b6000611d0a601983612249565b91507f596f752068617665206e6f20746f6b656e73207374616b6564000000000000006000830152602082019050919050565b6000611d4a602683612249565b91507f416464726573733a20696e73756666696369656e742062616c616e636520666f60008301527f722063616c6c00000000000000000000000000000000000000000000000000006020830152604082019050919050565b6000611db0602083612249565b91507f4f776e61626c653a2063616c6c6572206973206e6f7420746865206f776e65726000830152602082019050919050565b6000611df0601c83612249565b91507f596f752068617665206e6f207265776172647320746f20636c61696d000000006000830152602082019050919050565b6000611e30601d83612249565b91507f416464726573733a2063616c6c20746f206e6f6e2d636f6e74726163740000006000830152602082019050919050565b6000611e70602a83612249565b91507f5361666545524332303a204552433230206f7065726174696f6e20646964206e60008301527f6f742073756363656564000000000000000000000000000000000000000000006020830152604082019050919050565b6000611ed6601f83612249565b91507f5265656e7472616e637947756172643a207265656e7472616e742063616c6c006000830152602082019050919050565b604082016000820151611f1f6000850182611b44565b506020820151611f326020850182611f38565b50505050565b611f41816123ad565b82525050565b611f50816123ad565b82525050565b6000611f628284611bcf565b915081905092915050565b6000602082019050611f826000830184611b53565b92915050565b6000606082019050611f9d6000830186611b53565b611faa6020830185611b53565b611fb76040830184611f47565b949350505050565b6000604082019050611fd46000830185611b53565b611fe16020830184611f47565b9392505050565b600060208201905081810360008301526120028184611b62565b905092915050565b600060208201905061201f6000830184611bc0565b92915050565b600060208201905061203a6000830184611c00565b92915050565b60006020820190506120556000830184611c0f565b92915050565b600060208201905081810360008301526120758184611c1e565b905092915050565b6000602082019050818103600083015261209681611c57565b9050919050565b600060208201905081810360008301526120b681611c97565b9050919050565b600060208201905081810360008301526120d681611cfd565b9050919050565b600060208201905081810360008301526120f681611d3d565b9050919050565b6000602082019050818103600083015261211681611da3565b9050919050565b6000602082019050818103600083015261213681611de3565b9050919050565b6000602082019050818103600083015261215681611e23565b9050919050565b6000602082019050818103600083015261217681611e63565b9050919050565b6000602082019050818103600083015261219681611ec9565b9050919050565b60006020820190506121b26000830184611f47565b92915050565b60006060820190506121cd6000830186611f47565b6121da6020830185611f47565b6121e76040830184611f47565b949350505050565b6000819050602082019050919050565b600081519050919050565b600081519050919050565b600081519050919050565b6000602082019050919050565b600082825260208201905092915050565b600081905092915050565b600082825260208201905092915050565b6000612265826123ad565b9150612270836123ad565b9250827fffffffffffffffffffffffffffffffffffffffffffffffffffffffffffffffff038211156122a5576122a46124a5565b5b828201905092915050565b60006122bb826123ad565b91506122c6836123ad565b9250826122d6576122d56124d4565b5b828204905092915050565b60006122ec826123ad565b91506122f7836123ad565b9250817fffffffffffffffffffffffffffffffffffffffffffffffffffffffffffffffff04831182151516156123305761232f6124a5565b5b828202905092915050565b6000612346826123ad565b9150612351836123ad565b925082821015612364576123636124a5565b5b828203905092915050565b600061237a8261238d565b9050919050565b60008115159050919050565b600073ffffffffffffffffffffffffffffffffffffffff82169050919050565b6000819050919050565b60006123c2826123c9565b9050919050565b60006123d48261238d565b9050919050565b60006123e6826123ed565b9050919050565b60006123f88261238d565b9050919050565b60005b8381101561241d578082015181840152602081019050612402565b8381111561242c576000848401525b50505050565b600061243d826123ad565b91506000821415612451576124506124a5565b5b600182039050919050565b6000612467826123ad565b91507fffffffffffffffffffffffffffffffffffffffffffffffffffffffffffffffff82141561249a576124996124a5565b5b600182019050919050565b7f4e487b7100000000000000000000000000000000000000000000000000000000600052601160045260246000fd5b7f4e487b7100000000000000000000000000000000000000000000000000000000600052601260045260246000fd5b6000601f19601f8301169050919050565b61251d8161236f565b811461252857600080fd5b50565b61253481612381565b811461253f57600080fd5b50565b61254b816123ad565b811461255657600080fd5b5056fea2646970667358221220b665f200cdfeff35abb94b512d2885a9491d311e83be43332a8ea806924a2da364736f6c63430008000033",
					"opcodes": "PUSH1 0x80 PUSH1 0x40 MSTORE PUSH3 0x186A0 PUSH1 0x5 SSTORE CALLVALUE DUP1 ISZERO PUSH3 0x18 JUMPI PUSH1 0x0 DUP1 REVERT JUMPDEST POP PUSH1 0x40 MLOAD PUSH3 0x28F9 CODESIZE SUB DUP1 PUSH3 0x28F9 DUP4 CODECOPY DUP2 DUP2 ADD PUSH1 0x40 MSTORE DUP2 ADD SWAP1 PUSH3 0x3E SWAP2 SWAP1 PUSH3 0x264 JUMP JUMPDEST PUSH1 0x1 PUSH1 0x0 DUP2 SWAP1 SSTORE POP PUSH1 0x0 PUSH1 0x1 PUSH1 0x0 PUSH2 0x100 EXP DUP2 SLOAD DUP2 PUSH1 0xFF MUL NOT AND SWAP1 DUP4 ISZERO ISZERO MUL OR SWAP1 SSTORE POP PUSH3 0x81 PUSH3 0x75 PUSH3 0x154 PUSH1 0x20 SHL PUSH1 0x20 SHR JUMP JUMPDEST PUSH3 0x15C PUSH1 0x20 SHL PUSH1 0x20 SHR JUMP JUMPDEST DUP3 PUSH1 0x3 PUSH1 0x0 PUSH2 0x100 EXP DUP2 SLOAD DUP2 PUSH20 0xFFFFFFFFFFFFFFFFFFFFFFFFFFFFFFFFFFFFFFFF MUL NOT AND SWAP1 DUP4 PUSH20 0xFFFFFFFFFFFFFFFFFFFFFFFFFFFFFFFFFFFFFFFF AND MUL OR SWAP1 SSTORE POP DUP3 PUSH1 0x4 PUSH1 0x0 PUSH2 0x100 EXP DUP2 SLOAD DUP2 PUSH20 0xFFFFFFFFFFFFFFFFFFFFFFFFFFFFFFFFFFFFFFFF MUL NOT AND SWAP1 DUP4 PUSH20 0xFFFFFFFFFFFFFFFFFFFFFFFFFFFFFFFFFFFFFFFF AND MUL OR SWAP1 SSTORE POP DUP2 PUSH1 0x2 PUSH1 0x0 PUSH2 0x100 EXP DUP2 SLOAD DUP2 PUSH20 0xFFFFFFFFFFFFFFFFFFFFFFFFFFFFFFFFFFFFFFFF MUL NOT AND SWAP1 DUP4 PUSH20 0xFFFFFFFFFFFFFFFFFFFFFFFFFFFFFFFFFFFFFFFF AND MUL OR SWAP1 SSTORE POP DUP1 PUSH1 0x5 DUP2 SWAP1 SSTORE POP POP POP POP PUSH3 0x35A JUMP JUMPDEST PUSH1 0x0 CALLER SWAP1 POP SWAP1 JUMP JUMPDEST PUSH1 0x0 PUSH1 0x1 DUP1 SLOAD SWAP1 PUSH2 0x100 EXP SWAP1 DIV PUSH20 0xFFFFFFFFFFFFFFFFFFFFFFFFFFFFFFFFFFFFFFFF AND SWAP1 POP DUP2 PUSH1 0x1 DUP1 PUSH2 0x100 EXP DUP2 SLOAD DUP2 PUSH20 0xFFFFFFFFFFFFFFFFFFFFFFFFFFFFFFFFFFFFFFFF MUL NOT AND SWAP1 DUP4 PUSH20 0xFFFFFFFFFFFFFFFFFFFFFFFFFFFFFFFFFFFFFFFF AND MUL OR SWAP1 SSTORE POP DUP2 PUSH20 0xFFFFFFFFFFFFFFFFFFFFFFFFFFFFFFFFFFFFFFFF AND DUP2 PUSH20 0xFFFFFFFFFFFFFFFFFFFFFFFFFFFFFFFFFFFFFFFF AND PUSH32 0x8BE0079C531659141344CD1FD0A4F28419497F9722A3DAAFE3B4186F6B6457E0 PUSH1 0x40 MLOAD PUSH1 0x40 MLOAD DUP1 SWAP2 SUB SWAP1 LOG3 POP POP JUMP JUMPDEST PUSH1 0x0 DUP2 MLOAD SWAP1 POP PUSH3 0x230 DUP2 PUSH3 0x30C JUMP JUMPDEST SWAP3 SWAP2 POP POP JUMP JUMPDEST PUSH1 0x0 DUP2 MLOAD SWAP1 POP PUSH3 0x247 DUP2 PUSH3 0x326 JUMP JUMPDEST SWAP3 SWAP2 POP POP JUMP JUMPDEST PUSH1 0x0 DUP2 MLOAD SWAP1 POP PUSH3 0x25E DUP2 PUSH3 0x340 JUMP JUMPDEST SWAP3 SWAP2 POP POP JUMP JUMPDEST PUSH1 0x0 DUP1 PUSH1 0x0 PUSH1 0x60 DUP5 DUP7 SUB SLT ISZERO PUSH3 0x27A JUMPI PUSH1 0x0 DUP1 REVERT JUMPDEST PUSH1 0x0 PUSH3 0x28A DUP7 DUP3 DUP8 ADD PUSH3 0x21F JUMP JUMPDEST SWAP4 POP POP PUSH1 0x20 PUSH3 0x29D DUP7 DUP3 DUP8 ADD PUSH3 0x236 JUMP JUMPDEST SWAP3 POP POP PUSH1 0x40 PUSH3 0x2B0 DUP7 DUP3 DUP8 ADD PUSH3 0x24D JUMP JUMPDEST SWAP2 POP POP SWAP3 POP SWAP3 POP SWAP3 JUMP JUMPDEST PUSH1 0x0 PUSH3 0x2C7 DUP3 PUSH3 0x2E2 JUMP JUMPDEST SWAP1 POP SWAP2 SWAP1 POP JUMP JUMPDEST PUSH1 0x0 PUSH3 0x2DB DUP3 PUSH3 0x2BA JUMP JUMPDEST SWAP1 POP SWAP2 SWAP1 POP JUMP JUMPDEST PUSH1 0x0 PUSH20 0xFFFFFFFFFFFFFFFFFFFFFFFFFFFFFFFFFFFFFFFF DUP3 AND SWAP1 POP SWAP2 SWAP1 POP JUMP JUMPDEST PUSH1 0x0 DUP2 SWAP1 POP SWAP2 SWAP1 POP JUMP JUMPDEST PUSH3 0x317 DUP2 PUSH3 0x2BA JUMP JUMPDEST DUP2 EQ PUSH3 0x323 JUMPI PUSH1 0x0 DUP1 REVERT JUMPDEST POP JUMP JUMPDEST PUSH3 0x331 DUP2 PUSH3 0x2CE JUMP JUMPDEST DUP2 EQ PUSH3 0x33D JUMPI PUSH1 0x0 DUP1 REVERT JUMPDEST POP JUMP JUMPDEST PUSH3 0x34B DUP2 PUSH3 0x302 JUMP JUMPDEST DUP2 EQ PUSH3 0x357 JUMPI PUSH1 0x0 DUP1 REVERT JUMPDEST POP JUMP JUMPDEST PUSH2 0x258F DUP1 PUSH3 0x36A PUSH1 0x0 CODECOPY PUSH1 0x0 RETURN INVALID PUSH1 0x80 PUSH1 0x40 MSTORE CALLVALUE DUP1 ISZERO PUSH2 0x10 JUMPI PUSH1 0x0 DUP1 REVERT JUMPDEST POP PUSH1 0x4 CALLDATASIZE LT PUSH2 0xEA JUMPI PUSH1 0x0 CALLDATALOAD PUSH1 0xE0 SHR DUP1 PUSH4 0x9168AE72 GT PUSH2 0x8C JUMPI DUP1 PUSH4 0xD1AF0C7D GT PUSH2 0x66 JUMPI DUP1 PUSH4 0xD1AF0C7D EQ PUSH2 0x227 JUMPI DUP1 PUSH4 0xF2FDE38B EQ PUSH2 0x245 JUMPI DUP1 PUSH4 0xF854A27F EQ PUSH2 0x261 JUMPI DUP1 PUSH4 0xF995441B EQ PUSH2 0x291 JUMPI PUSH2 0xEA JUMP JUMPDEST DUP1 PUSH4 0x9168AE72 EQ PUSH2 0x1A9 JUMPI DUP1 PUSH4 0x94067045 EQ PUSH2 0x1DB JUMPI DUP1 PUSH4 0xA694FC3A EQ PUSH2 0x20B JUMPI PUSH2 0xEA JUMP JUMPDEST DUP1 PUSH4 0x63C28DB1 GT PUSH2 0xC8 JUMPI DUP1 PUSH4 0x63C28DB1 EQ PUSH2 0x133 JUMPI DUP1 PUSH4 0x6588103B EQ PUSH2 0x163 JUMPI DUP1 PUSH4 0x715018A6 EQ PUSH2 0x181 JUMPI DUP1 PUSH4 0x8DA5CB5B EQ PUSH2 0x18B JUMPI PUSH2 0xEA JUMP JUMPDEST DUP1 PUSH4 0x2E1A7D4D EQ PUSH2 0xEF JUMPI DUP1 PUSH4 0x372500AB EQ PUSH2 0x10B JUMPI DUP1 PUSH4 0x5C975ABB EQ PUSH2 0x115 JUMPI JUMPDEST PUSH1 0x0 DUP1 REVERT JUMPDEST PUSH2 0x109 PUSH1 0x4 DUP1 CALLDATASIZE SUB DUP2 ADD SWAP1 PUSH2 0x104 SWAP2 SWAP1 PUSH2 0x1ADA JUMP JUMPDEST PUSH2 0x29B JUMP JUMPDEST STOP JUMPDEST PUSH2 0x113 PUSH2 0x78A JUMP JUMPDEST STOP JUMPDEST PUSH2 0x11D PUSH2 0x906 JUMP JUMPDEST PUSH1 0x40 MLOAD PUSH2 0x12A SWAP2 SWAP1 PUSH2 0x200A JUMP JUMPDEST PUSH1 0x40 MLOAD DUP1 SWAP2 SUB SWAP1 RETURN JUMPDEST PUSH2 0x14D PUSH1 0x4 DUP1 CALLDATASIZE SUB DUP2 ADD SWAP1 PUSH2 0x148 SWAP2 SWAP1 PUSH2 0x1A5F JUMP JUMPDEST PUSH2 0x91D JUMP JUMPDEST PUSH1 0x40 MLOAD PUSH2 0x15A SWAP2 SWAP1 PUSH2 0x1FE8 JUMP JUMPDEST PUSH1 0x40 MLOAD DUP1 SWAP2 SUB SWAP1 RETURN JUMPDEST PUSH2 0x16B PUSH2 0xD41 JUMP JUMPDEST PUSH1 0x40 MLOAD PUSH2 0x178 SWAP2 SWAP1 PUSH2 0x2040 JUMP JUMPDEST PUSH1 0x40 MLOAD DUP1 SWAP2 SUB SWAP1 RETURN JUMPDEST PUSH2 0x189 PUSH2 0xD67 JUMP JUMPDEST STOP JUMPDEST PUSH2 0x193 PUSH2 0xD7B JUMP JUMPDEST PUSH1 0x40 MLOAD PUSH2 0x1A0 SWAP2 SWAP1 PUSH2 0x1F6D JUMP JUMPDEST PUSH1 0x40 MLOAD DUP1 SWAP2 SUB SWAP1 RETURN JUMPDEST PUSH2 0x1C3 PUSH1 0x4 DUP1 CALLDATASIZE SUB DUP2 ADD SWAP1 PUSH2 0x1BE SWAP2 SWAP1 PUSH2 0x1A5F JUMP JUMPDEST PUSH2 0xDA3 JUMP JUMPDEST PUSH1 0x40 MLOAD PUSH2 0x1D2 SWAP4 SWAP3 SWAP2 SWAP1 PUSH2 0x21B8 JUMP JUMPDEST PUSH1 0x40 MLOAD DUP1 SWAP2 SUB SWAP1 RETURN JUMPDEST PUSH2 0x1F5 PUSH1 0x4 DUP1 CALLDATASIZE SUB DUP2 ADD SWAP1 PUSH2 0x1F0 SWAP2 SWAP1 PUSH2 0x1ADA JUMP JUMPDEST PUSH2 0xDCD JUMP JUMPDEST PUSH1 0x40 MLOAD PUSH2 0x202 SWAP2 SWAP1 PUSH2 0x1F6D JUMP JUMPDEST PUSH1 0x40 MLOAD DUP1 SWAP2 SUB SWAP1 RETURN JUMPDEST PUSH2 0x225 PUSH1 0x4 DUP1 CALLDATASIZE SUB DUP2 ADD SWAP1 PUSH2 0x220 SWAP2 SWAP1 PUSH2 0x1ADA JUMP JUMPDEST PUSH2 0xE00 JUMP JUMPDEST STOP JUMPDEST PUSH2 0x22F PUSH2 0xE1D JUMP JUMPDEST PUSH1 0x40 MLOAD PUSH2 0x23C SWAP2 SWAP1 PUSH2 0x2025 JUMP JUMPDEST PUSH1 0x40 MLOAD DUP1 SWAP2 SUB SWAP1 RETURN JUMPDEST PUSH2 0x25F PUSH1 0x4 DUP1 CALLDATASIZE SUB DUP2 ADD SWAP1 PUSH2 0x25A SWAP2 SWAP1 PUSH2 0x1A5F JUMP JUMPDEST PUSH2 0xE43 JUMP JUMPDEST STOP JUMPDEST PUSH2 0x27B PUSH1 0x4 DUP1 CALLDATASIZE SUB DUP2 ADD SWAP1 PUSH2 0x276 SWAP2 SWAP1 PUSH2 0x1A5F JUMP JUMPDEST PUSH2 0xEC7 JUMP JUMPDEST PUSH1 0x40 MLOAD PUSH2 0x288 SWAP2 SWAP1 PUSH2 0x219D JUMP JUMPDEST PUSH1 0x40 MLOAD DUP1 SWAP2 SUB SWAP1 RETURN JUMPDEST PUSH2 0x299 PUSH2 0xF2B JUMP JUMPDEST STOP JUMPDEST PUSH2 0x2A3 PUSH2 0x1032 JUMP JUMPDEST PUSH1 0x0 PUSH1 0x6 PUSH1 0x0 CALLER PUSH20 0xFFFFFFFFFFFFFFFFFFFFFFFFFFFFFFFFFFFFFFFF AND PUSH20 0xFFFFFFFFFFFFFFFFFFFFFFFFFFFFFFFFFFFFFFFF AND DUP2 MSTORE PUSH1 0x20 ADD SWAP1 DUP2 MSTORE PUSH1 0x20 ADD PUSH1 0x0 KECCAK256 PUSH1 0x0 ADD SLOAD GT PUSH2 0x328 JUMPI PUSH1 0x40 MLOAD PUSH32 0x8C379A000000000000000000000000000000000000000000000000000000000 DUP2 MSTORE PUSH1 0x4 ADD PUSH2 0x31F SWAP1 PUSH2 0x20BD JUMP JUMPDEST PUSH1 0x40 MLOAD DUP1 SWAP2 SUB SWAP1 REVERT JUMPDEST CALLER PUSH20 0xFFFFFFFFFFFFFFFFFFFFFFFFFFFFFFFFFFFFFFFF AND PUSH1 0x7 PUSH1 0x0 DUP4 DUP2 MSTORE PUSH1 0x20 ADD SWAP1 DUP2 MSTORE PUSH1 0x20 ADD PUSH1 0x0 KECCAK256 PUSH1 0x0 SWAP1 SLOAD SWAP1 PUSH2 0x100 EXP SWAP1 DIV PUSH20 0xFFFFFFFFFFFFFFFFFFFFFFFFFFFFFFFFFFFFFFFF AND PUSH20 0xFFFFFFFFFFFFFFFFFFFFFFFFFFFFFFFFFFFFFFFF AND EQ PUSH2 0x3C9 JUMPI PUSH1 0x40 MLOAD PUSH32 0x8C379A000000000000000000000000000000000000000000000000000000000 DUP2 MSTORE PUSH1 0x4 ADD PUSH2 0x3C0 SWAP1 PUSH2 0x207D JUMP JUMPDEST PUSH1 0x40 MLOAD DUP1 SWAP2 SUB SWAP1 REVERT JUMPDEST PUSH1 0x0 PUSH2 0x3D4 CALLER PUSH2 0x1082 JUMP JUMPDEST SWAP1 POP DUP1 PUSH1 0x6 PUSH1 0x0 CALLER PUSH20 0xFFFFFFFFFFFFFFFFFFFFFFFFFFFFFFFFFFFFFFFF AND PUSH20 0xFFFFFFFFFFFFFFFFFFFFFFFFFFFFFFFFFFFFFFFF AND DUP2 MSTORE PUSH1 0x20 ADD SWAP1 DUP2 MSTORE PUSH1 0x20 ADD PUSH1 0x0 KECCAK256 PUSH1 0x3 ADD PUSH1 0x0 DUP3 DUP3 SLOAD PUSH2 0x428 SWAP2 SWAP1 PUSH2 0x225A JUMP JUMPDEST SWAP3 POP POP DUP2 SWAP1 SSTORE POP PUSH1 0x0 DUP1 JUMPDEST PUSH1 0x6 PUSH1 0x0 CALLER PUSH20 0xFFFFFFFFFFFFFFFFFFFFFFFFFFFFFFFFFFFFFFFF AND PUSH20 0xFFFFFFFFFFFFFFFFFFFFFFFFFFFFFFFFFFFFFFFF AND DUP2 MSTORE PUSH1 0x20 ADD SWAP1 DUP2 MSTORE PUSH1 0x20 ADD PUSH1 0x0 KECCAK256 PUSH1 0x1 ADD DUP1 SLOAD SWAP1 POP DUP2 LT ISZERO PUSH2 0x52E JUMPI DUP4 PUSH1 0x6 PUSH1 0x0 CALLER PUSH20 0xFFFFFFFFFFFFFFFFFFFFFFFFFFFFFFFFFFFFFFFF AND PUSH20 0xFFFFFFFFFFFFFFFFFFFFFFFFFFFFFFFFFFFFFFFF AND DUP2 MSTORE PUSH1 0x20 ADD SWAP1 DUP2 MSTORE PUSH1 0x20 ADD PUSH1 0x0 KECCAK256 PUSH1 0x1 ADD DUP3 DUP2 SLOAD DUP2 LT PUSH2 0x4FB JUMPI PUSH32 0x4E487B7100000000000000000000000000000000000000000000000000000000 PUSH1 0x0 MSTORE PUSH1 0x32 PUSH1 0x4 MSTORE PUSH1 0x24 PUSH1 0x0 REVERT JUMPDEST SWAP1 PUSH1 0x0 MSTORE PUSH1 0x20 PUSH1 0x0 KECCAK256 SWAP1 PUSH1 0x2 MUL ADD PUSH1 0x1 ADD SLOAD EQ ISZERO PUSH2 0x51B JUMPI DUP1 SWAP2 POP PUSH2 0x52E JUMP JUMPDEST DUP1 DUP1 PUSH2 0x526 SWAP1 PUSH2 0x245C JUMP JUMPDEST SWAP2 POP POP PUSH2 0x433 JUMP JUMPDEST POP PUSH1 0x0 PUSH1 0x6 PUSH1 0x0 CALLER PUSH20 0xFFFFFFFFFFFFFFFFFFFFFFFFFFFFFFFFFFFFFFFF AND PUSH20 0xFFFFFFFFFFFFFFFFFFFFFFFFFFFFFFFFFFFFFFFF AND DUP2 MSTORE PUSH1 0x20 ADD SWAP1 DUP2 MSTORE PUSH1 0x20 ADD PUSH1 0x0 KECCAK256 PUSH1 0x1 ADD DUP3 DUP2 SLOAD DUP2 LT PUSH2 0x5AB JUMPI PUSH32 0x4E487B7100000000000000000000000000000000000000000000000000000000 PUSH1 0x0 MSTORE PUSH1 0x32 PUSH1 0x4 MSTORE PUSH1 0x24 PUSH1 0x0 REVERT JUMPDEST SWAP1 PUSH1 0x0 MSTORE PUSH1 0x20 PUSH1 0x0 KECCAK256 SWAP1 PUSH1 0x2 MUL ADD PUSH1 0x0 ADD PUSH1 0x0 PUSH2 0x100 EXP DUP2 SLOAD DUP2 PUSH20 0xFFFFFFFFFFFFFFFFFFFFFFFFFFFFFFFFFFFFFFFF MUL NOT AND SWAP1 DUP4 PUSH20 0xFFFFFFFFFFFFFFFFFFFFFFFFFFFFFFFFFFFFFFFF AND MUL OR SWAP1 SSTORE POP PUSH1 0x6 PUSH1 0x0 CALLER PUSH20 0xFFFFFFFFFFFFFFFFFFFFFFFFFFFFFFFFFFFFFFFF AND PUSH20 0xFFFFFFFFFFFFFFFFFFFFFFFFFFFFFFFFFFFFFFFF AND DUP2 MSTORE PUSH1 0x20 ADD SWAP1 DUP2 MSTORE PUSH1 0x20 ADD PUSH1 0x0 KECCAK256 PUSH1 0x0 ADD PUSH1 0x0 DUP2 SLOAD DUP1 SWAP3 SWAP2 SWAP1 PUSH2 0x64D SWAP1 PUSH2 0x2432 JUMP JUMPDEST SWAP2 SWAP1 POP SSTORE POP PUSH1 0x0 PUSH1 0x7 PUSH1 0x0 DUP6 DUP2 MSTORE PUSH1 0x20 ADD SWAP1 DUP2 MSTORE PUSH1 0x20 ADD PUSH1 0x0 KECCAK256 PUSH1 0x0 PUSH2 0x100 EXP DUP2 SLOAD DUP2 PUSH20 0xFFFFFFFFFFFFFFFFFFFFFFFFFFFFFFFFFFFFFFFF MUL NOT AND SWAP1 DUP4 PUSH20 0xFFFFFFFFFFFFFFFFFFFFFFFFFFFFFFFFFFFFFFFF AND MUL OR SWAP1 SSTORE POP PUSH1 0x3 PUSH1 0x0 SWAP1 SLOAD SWAP1 PUSH2 0x100 EXP SWAP1 DIV PUSH20 0xFFFFFFFFFFFFFFFFFFFFFFFFFFFFFFFFFFFFFFFF AND PUSH20 0xFFFFFFFFFFFFFFFFFFFFFFFFFFFFFFFFFFFFFFFF AND PUSH4 0x23B872DD ADDRESS CALLER DUP7 PUSH1 0x40 MLOAD DUP5 PUSH4 0xFFFFFFFF AND PUSH1 0xE0 SHL DUP2 MSTORE PUSH1 0x4 ADD PUSH2 0x704 SWAP4 SWAP3 SWAP2 SWAP1 PUSH2 0x1F88 JUMP JUMPDEST PUSH1 0x0 PUSH1 0x40 MLOAD DUP1 DUP4 SUB DUP2 PUSH1 0x0 DUP8 DUP1 EXTCODESIZE ISZERO DUP1 ISZERO PUSH2 0x71E JUMPI PUSH1 0x0 DUP1 REVERT JUMPDEST POP GAS CALL ISZERO DUP1 ISZERO PUSH2 0x732 JUMPI RETURNDATASIZE PUSH1 0x0 DUP1 RETURNDATACOPY RETURNDATASIZE PUSH1 0x0 REVERT JUMPDEST POP POP POP POP TIMESTAMP PUSH1 0x6 PUSH1 0x0 CALLER PUSH20 0xFFFFFFFFFFFFFFFFFFFFFFFFFFFFFFFFFFFFFFFF AND PUSH20 0xFFFFFFFFFFFFFFFFFFFFFFFFFFFFFFFFFFFFFFFF AND DUP2 MSTORE PUSH1 0x20 ADD SWAP1 DUP2 MSTORE PUSH1 0x20 ADD PUSH1 0x0 KECCAK256 PUSH1 0x2 ADD DUP2 SWAP1 SSTORE POP POP POP PUSH2 0x787 PUSH2 0x1140 JUMP JUMPDEST POP JUMP JUMPDEST PUSH1 0x0 PUSH1 0x6 PUSH1 0x0 CALLER PUSH20 0xFFFFFFFFFFFFFFFFFFFFFFFFFFFFFFFFFFFFFFFF AND PUSH20 0xFFFFFFFFFFFFFFFFFFFFFFFFFFFFFFFFFFFFFFFF AND DUP2 MSTORE PUSH1 0x20 ADD SWAP1 DUP2 MSTORE PUSH1 0x20 ADD PUSH1 0x0 KECCAK256 PUSH1 0x3 ADD SLOAD PUSH2 0x7D8 CALLER PUSH2 0x1082 JUMP JUMPDEST PUSH2 0x7E2 SWAP2 SWAP1 PUSH2 0x225A JUMP JUMPDEST SWAP1 POP PUSH1 0x0 DUP2 GT PUSH2 0x827 JUMPI PUSH1 0x40 MLOAD PUSH32 0x8C379A000000000000000000000000000000000000000000000000000000000 DUP2 MSTORE PUSH1 0x4 ADD PUSH2 0x81E SWAP1 PUSH2 0x211D JUMP JUMPDEST PUSH1 0x40 MLOAD DUP1 SWAP2 SUB SWAP1 REVERT JUMPDEST TIMESTAMP PUSH1 0x6 PUSH1 0x0 CALLER PUSH20 0xFFFFFFFFFFFFFFFFFFFFFFFFFFFFFFFFFFFFFFFF AND PUSH20 0xFFFFFFFFFFFFFFFFFFFFFFFFFFFFFFFFFFFFFFFF AND DUP2 MSTORE PUSH1 0x20 ADD SWAP1 DUP2 MSTORE PUSH1 0x20 ADD PUSH1 0x0 KECCAK256 PUSH1 0x2 ADD DUP2 SWAP1 SSTORE POP PUSH1 0x0 PUSH1 0x6 PUSH1 0x0 CALLER PUSH20 0xFFFFFFFFFFFFFFFFFFFFFFFFFFFFFFFFFFFFFFFF AND PUSH20 0xFFFFFFFFFFFFFFFFFFFFFFFFFFFFFFFFFFFFFFFF AND DUP2 MSTORE PUSH1 0x20 ADD SWAP1 DUP2 MSTORE PUSH1 0x20 ADD PUSH1 0x0 KECCAK256 PUSH1 0x3 ADD DUP2 SWAP1 SSTORE POP PUSH2 0x903 CALLER DUP3 PUSH1 0x2 PUSH1 0x0 SWAP1 SLOAD SWAP1 PUSH2 0x100 EXP SWAP1 DIV PUSH20 0xFFFFFFFFFFFFFFFFFFFFFFFFFFFFFFFFFFFFFFFF AND PUSH20 0xFFFFFFFFFFFFFFFFFFFFFFFFFFFFFFFFFFFFFFFF AND PUSH2 0x114A SWAP1 SWAP3 SWAP2 SWAP1 PUSH4 0xFFFFFFFF AND JUMP JUMPDEST POP JUMP JUMPDEST PUSH1 0x0 PUSH1 0x1 PUSH1 0x0 SWAP1 SLOAD SWAP1 PUSH2 0x100 EXP SWAP1 DIV PUSH1 0xFF AND SWAP1 POP SWAP1 JUMP JUMPDEST PUSH1 0x60 PUSH1 0x0 PUSH1 0x6 PUSH1 0x0 DUP5 PUSH20 0xFFFFFFFFFFFFFFFFFFFFFFFFFFFFFFFFFFFFFFFF AND PUSH20 0xFFFFFFFFFFFFFFFFFFFFFFFFFFFFFFFFFFFFFFFF AND DUP2 MSTORE PUSH1 0x20 ADD SWAP1 DUP2 MSTORE PUSH1 0x20 ADD PUSH1 0x0 KECCAK256 PUSH1 0x0 ADD SLOAD GT ISZERO PUSH2 0xCBE JUMPI PUSH1 0x0 PUSH1 0x6 PUSH1 0x0 DUP5 PUSH20 0xFFFFFFFFFFFFFFFFFFFFFFFFFFFFFFFFFFFFFFFF AND PUSH20 0xFFFFFFFFFFFFFFFFFFFFFFFFFFFFFFFFFFFFFFFF AND DUP2 MSTORE PUSH1 0x20 ADD SWAP1 DUP2 MSTORE PUSH1 0x20 ADD PUSH1 0x0 KECCAK256 PUSH1 0x0 ADD SLOAD PUSH8 0xFFFFFFFFFFFFFFFF DUP2 GT ISZERO PUSH2 0x9EE JUMPI PUSH32 0x4E487B7100000000000000000000000000000000000000000000000000000000 PUSH1 0x0 MSTORE PUSH1 0x41 PUSH1 0x4 MSTORE PUSH1 0x24 PUSH1 0x0 REVERT JUMPDEST PUSH1 0x40 MLOAD SWAP1 DUP1 DUP3 MSTORE DUP1 PUSH1 0x20 MUL PUSH1 0x20 ADD DUP3 ADD PUSH1 0x40 MSTORE DUP1 ISZERO PUSH2 0xA27 JUMPI DUP2 PUSH1 0x20 ADD JUMPDEST PUSH2 0xA14 PUSH2 0x19C6 JUMP JUMPDEST DUP2 MSTORE PUSH1 0x20 ADD SWAP1 PUSH1 0x1 SWAP1 SUB SWAP1 DUP2 PUSH2 0xA0C JUMPI SWAP1 POP JUMPDEST POP SWAP1 POP PUSH1 0x0 DUP1 JUMPDEST PUSH1 0x6 PUSH1 0x0 DUP7 PUSH20 0xFFFFFFFFFFFFFFFFFFFFFFFFFFFFFFFFFFFFFFFF AND PUSH20 0xFFFFFFFFFFFFFFFFFFFFFFFFFFFFFFFFFFFFFFFF AND DUP2 MSTORE PUSH1 0x20 ADD SWAP1 DUP2 MSTORE PUSH1 0x20 ADD PUSH1 0x0 KECCAK256 PUSH1 0x1 ADD DUP1 SLOAD SWAP1 POP DUP2 LT ISZERO PUSH2 0xCB3 JUMPI PUSH1 0x0 PUSH20 0xFFFFFFFFFFFFFFFFFFFFFFFFFFFFFFFFFFFFFFFF AND PUSH1 0x6 PUSH1 0x0 DUP8 PUSH20 0xFFFFFFFFFFFFFFFFFFFFFFFFFFFFFFFFFFFFFFFF AND PUSH20 0xFFFFFFFFFFFFFFFFFFFFFFFFFFFFFFFFFFFFFFFF AND DUP2 MSTORE PUSH1 0x20 ADD SWAP1 DUP2 MSTORE PUSH1 0x20 ADD PUSH1 0x0 KECCAK256 PUSH1 0x1 ADD DUP3 DUP2 SLOAD DUP2 LT PUSH2 0xB0D JUMPI PUSH32 0x4E487B7100000000000000000000000000000000000000000000000000000000 PUSH1 0x0 MSTORE PUSH1 0x32 PUSH1 0x4 MSTORE PUSH1 0x24 PUSH1 0x0 REVERT JUMPDEST SWAP1 PUSH1 0x0 MSTORE PUSH1 0x20 PUSH1 0x0 KECCAK256 SWAP1 PUSH1 0x2 MUL ADD PUSH1 0x0 ADD PUSH1 0x0 SWAP1 SLOAD SWAP1 PUSH2 0x100 EXP SWAP1 DIV PUSH20 0xFFFFFFFFFFFFFFFFFFFFFFFFFFFFFFFFFFFFFFFF AND PUSH20 0xFFFFFFFFFFFFFFFFFFFFFFFFFFFFFFFFFFFFFFFF AND EQ PUSH2 0xCA0 JUMPI PUSH1 0x6 PUSH1 0x0 DUP7 PUSH20 0xFFFFFFFFFFFFFFFFFFFFFFFFFFFFFFFFFFFFFFFF AND PUSH20 0xFFFFFFFFFFFFFFFFFFFFFFFFFFFFFFFFFFFFFFFF AND DUP2 MSTORE PUSH1 0x20 ADD SWAP1 DUP2 MSTORE PUSH1 0x20 ADD PUSH1 0x0 KECCAK256 PUSH1 0x1 ADD DUP2 DUP2 SLOAD DUP2 LT PUSH2 0xBD4 JUMPI PUSH32 0x4E487B7100000000000000000000000000000000000000000000000000000000 PUSH1 0x0 MSTORE PUSH1 0x32 PUSH1 0x4 MSTORE PUSH1 0x24 PUSH1 0x0 REVERT JUMPDEST SWAP1 PUSH1 0x0 MSTORE PUSH1 0x20 PUSH1 0x0 KECCAK256 SWAP1 PUSH1 0x2 MUL ADD PUSH1 0x40 MLOAD DUP1 PUSH1 0x40 ADD PUSH1 0x40 MSTORE SWAP1 DUP2 PUSH1 0x0 DUP3 ADD PUSH1 0x0 SWAP1 SLOAD SWAP1 PUSH2 0x100 EXP SWAP1 DIV PUSH20 0xFFFFFFFFFFFFFFFFFFFFFFFFFFFFFFFFFFFFFFFF AND PUSH20 0xFFFFFFFFFFFFFFFFFFFFFFFFFFFFFFFFFFFFFFFF AND PUSH20 0xFFFFFFFFFFFFFFFFFFFFFFFFFFFFFFFFFFFFFFFF AND DUP2 MSTORE PUSH1 0x20 ADD PUSH1 0x1 DUP3 ADD SLOAD DUP2 MSTORE POP POP DUP4 DUP4 DUP2 MLOAD DUP2 LT PUSH2 0xC86 JUMPI PUSH32 0x4E487B7100000000000000000000000000000000000000000000000000000000 PUSH1 0x0 MSTORE PUSH1 0x32 PUSH1 0x4 MSTORE PUSH1 0x24 PUSH1 0x0 REVERT JUMPDEST PUSH1 0x20 MUL PUSH1 0x20 ADD ADD DUP2 SWAP1 MSTORE POP DUP2 DUP1 PUSH2 0xC9C SWAP1 PUSH2 0x245C JUMP JUMPDEST SWAP3 POP POP JUMPDEST DUP1 DUP1 PUSH2 0xCAB SWAP1 PUSH2 0x245C JUMP JUMPDEST SWAP2 POP POP PUSH2 0xA2E JUMP JUMPDEST POP DUP2 SWAP3 POP POP POP PUSH2 0xD3C JUMP JUMPDEST PUSH1 0x0 PUSH8 0xFFFFFFFFFFFFFFFF DUP2 GT ISZERO PUSH2 0xCFF JUMPI PUSH32 0x4E487B7100000000000000000000000000000000000000000000000000000000 PUSH1 0x0 MSTORE PUSH1 0x41 PUSH1 0x4 MSTORE PUSH1 0x24 PUSH1 0x0 REVERT JUMPDEST PUSH1 0x40 MLOAD SWAP1 DUP1 DUP3 MSTORE DUP1 PUSH1 0x20 MUL PUSH1 0x20 ADD DUP3 ADD PUSH1 0x40 MSTORE DUP1 ISZERO PUSH2 0xD38 JUMPI DUP2 PUSH1 0x20 ADD JUMPDEST PUSH2 0xD25 PUSH2 0x19C6 JUMP JUMPDEST DUP2 MSTORE PUSH1 0x20 ADD SWAP1 PUSH1 0x1 SWAP1 SUB SWAP1 DUP2 PUSH2 0xD1D JUMPI SWAP1 POP JUMPDEST POP SWAP1 POP JUMPDEST SWAP2 SWAP1 POP JUMP JUMPDEST PUSH1 0x3 PUSH1 0x0 SWAP1 SLOAD SWAP1 PUSH2 0x100 EXP SWAP1 DIV PUSH20 0xFFFFFFFFFFFFFFFFFFFFFFFFFFFFFFFFFFFFFFFF AND DUP2 JUMP JUMPDEST PUSH2 0xD6F PUSH2 0x11D0 JUMP JUMPDEST PUSH2 0xD79 PUSH1 0x0 PUSH2 0x124E JUMP JUMPDEST JUMP JUMPDEST PUSH1 0x0 PUSH1 0x1 DUP1 SLOAD SWAP1 PUSH2 0x100 EXP SWAP1 DIV PUSH20 0xFFFFFFFFFFFFFFFFFFFFFFFFFFFFFFFFFFFFFFFF AND SWAP1 POP SWAP1 JUMP JUMPDEST PUSH1 0x6 PUSH1 0x20 MSTORE DUP1 PUSH1 0x0 MSTORE PUSH1 0x40 PUSH1 0x0 KECCAK256 PUSH1 0x0 SWAP2 POP SWAP1 POP DUP1 PUSH1 0x0 ADD SLOAD SWAP1 DUP1 PUSH1 0x2 ADD SLOAD SWAP1 DUP1 PUSH1 0x3 ADD SLOAD SWAP1 POP DUP4 JUMP JUMPDEST PUSH1 0x7 PUSH1 0x20 MSTORE DUP1 PUSH1 0x0 MSTORE PUSH1 0x40 PUSH1 0x0 KECCAK256 PUSH1 0x0 SWAP2 POP SLOAD SWAP1 PUSH2 0x100 EXP SWAP1 DIV PUSH20 0xFFFFFFFFFFFFFFFFFFFFFFFFFFFFFFFFFFFFFFFF AND DUP2 JUMP JUMPDEST PUSH2 0xE08 PUSH2 0x1032 JUMP JUMPDEST PUSH2 0xE12 CALLER DUP3 PUSH2 0x1311 JUMP JUMPDEST PUSH2 0xE1A PUSH2 0x1140 JUMP JUMPDEST POP JUMP JUMPDEST PUSH1 0x2 PUSH1 0x0 SWAP1 SLOAD SWAP1 PUSH2 0x100 EXP SWAP1 DIV PUSH20 0xFFFFFFFFFFFFFFFFFFFFFFFFFFFFFFFFFFFFFFFF AND DUP2 JUMP JUMPDEST PUSH2 0xE4B PUSH2 0x11D0 JUMP JUMPDEST PUSH1 0x0 PUSH20 0xFFFFFFFFFFFFFFFFFFFFFFFFFFFFFFFFFFFFFFFF AND DUP2 PUSH20 0xFFFFFFFFFFFFFFFFFFFFFFFFFFFFFFFFFFFFFFFF AND EQ ISZERO PUSH2 0xEBB JUMPI PUSH1 0x40 MLOAD PUSH32 0x8C379A000000000000000000000000000000000000000000000000000000000 DUP2 MSTORE PUSH1 0x4 ADD PUSH2 0xEB2 SWAP1 PUSH2 0x209D JUMP JUMPDEST PUSH1 0x40 MLOAD DUP1 SWAP2 SUB SWAP1 REVERT JUMPDEST PUSH2 0xEC4 DUP2 PUSH2 0x124E JUMP JUMPDEST POP JUMP JUMPDEST PUSH1 0x0 DUP1 PUSH1 0x6 PUSH1 0x0 DUP5 PUSH20 0xFFFFFFFFFFFFFFFFFFFFFFFFFFFFFFFFFFFFFFFF AND PUSH20 0xFFFFFFFFFFFFFFFFFFFFFFFFFFFFFFFFFFFFFFFF AND DUP2 MSTORE PUSH1 0x20 ADD SWAP1 DUP2 MSTORE PUSH1 0x20 ADD PUSH1 0x0 KECCAK256 PUSH1 0x3 ADD SLOAD PUSH2 0xF16 DUP5 PUSH2 0x1082 JUMP JUMPDEST PUSH2 0xF20 SWAP2 SWAP1 PUSH2 0x225A JUMP JUMPDEST SWAP1 POP DUP1 SWAP2 POP POP SWAP2 SWAP1 POP JUMP JUMPDEST PUSH2 0xF33 PUSH2 0x11D0 JUMP JUMPDEST PUSH1 0x0 PUSH1 0x2 PUSH1 0x0 SWAP1 SLOAD SWAP1 PUSH2 0x100 EXP SWAP1 DIV PUSH20 0xFFFFFFFFFFFFFFFFFFFFFFFFFFFFFFFFFFFFFFFF AND PUSH20 0xFFFFFFFFFFFFFFFFFFFFFFFFFFFFFFFFFFFFFFFF AND PUSH4 0x70A08231 ADDRESS PUSH1 0x40 MLOAD DUP3 PUSH4 0xFFFFFFFF AND PUSH1 0xE0 SHL DUP2 MSTORE PUSH1 0x4 ADD PUSH2 0xF90 SWAP2 SWAP1 PUSH2 0x1F6D JUMP JUMPDEST PUSH1 0x20 PUSH1 0x40 MLOAD DUP1 DUP4 SUB DUP2 DUP7 DUP1 EXTCODESIZE ISZERO DUP1 ISZERO PUSH2 0xFA8 JUMPI PUSH1 0x0 DUP1 REVERT JUMPDEST POP GAS STATICCALL ISZERO DUP1 ISZERO PUSH2 0xFBC JUMPI RETURNDATASIZE PUSH1 0x0 DUP1 RETURNDATACOPY RETURNDATASIZE PUSH1 0x0 REVERT JUMPDEST POP POP POP POP PUSH1 0x40 MLOAD RETURNDATASIZE PUSH1 0x1F NOT PUSH1 0x1F DUP3 ADD AND DUP3 ADD DUP1 PUSH1 0x40 MSTORE POP DUP2 ADD SWAP1 PUSH2 0xFE0 SWAP2 SWAP1 PUSH2 0x1B03 JUMP JUMPDEST SWAP1 POP PUSH2 0x102F CALLER DUP3 PUSH1 0x2 PUSH1 0x0 SWAP1 SLOAD SWAP1 PUSH2 0x100 EXP SWAP1 DIV PUSH20 0xFFFFFFFFFFFFFFFFFFFFFFFFFFFFFFFFFFFFFFFF AND PUSH20 0xFFFFFFFFFFFFFFFFFFFFFFFFFFFFFFFFFFFFFFFF AND PUSH2 0x114A SWAP1 SWAP3 SWAP2 SWAP1 PUSH4 0xFFFFFFFF AND JUMP JUMPDEST POP JUMP JUMPDEST PUSH1 0x2 PUSH1 0x0 SLOAD EQ ISZERO PUSH2 0x1078 JUMPI PUSH1 0x40 MLOAD PUSH32 0x8C379A000000000000000000000000000000000000000000000000000000000 DUP2 MSTORE PUSH1 0x4 ADD PUSH2 0x106F SWAP1 PUSH2 0x217D JUMP JUMPDEST PUSH1 0x40 MLOAD DUP1 SWAP2 SUB SWAP1 REVERT JUMPDEST PUSH1 0x2 PUSH1 0x0 DUP2 SWAP1 SSTORE POP JUMP JUMPDEST PUSH1 0x0 PUSH2 0xE10 PUSH1 0x5 SLOAD PUSH1 0x6 PUSH1 0x0 DUP6 PUSH20 0xFFFFFFFFFFFFFFFFFFFFFFFFFFFFFFFFFFFFFFFF AND PUSH20 0xFFFFFFFFFFFFFFFFFFFFFFFFFFFFFFFFFFFFFFFF AND DUP2 MSTORE PUSH1 0x20 ADD SWAP1 DUP2 MSTORE PUSH1 0x20 ADD PUSH1 0x0 KECCAK256 PUSH1 0x0 ADD SLOAD PUSH1 0x6 PUSH1 0x0 DUP7 PUSH20 0xFFFFFFFFFFFFFFFFFFFFFFFFFFFFFFFFFFFFFFFF AND PUSH20 0xFFFFFFFFFFFFFFFFFFFFFFFFFFFFFFFFFFFFFFFF AND DUP2 MSTORE PUSH1 0x20 ADD SWAP1 DUP2 MSTORE PUSH1 0x20 ADD PUSH1 0x0 KECCAK256 PUSH1 0x2 ADD SLOAD TIMESTAMP PUSH2 0x111B SWAP2 SWAP1 PUSH2 0x233B JUMP JUMPDEST PUSH2 0x1125 SWAP2 SWAP1 PUSH2 0x22E1 JUMP JUMPDEST PUSH2 0x112F SWAP2 SWAP1 PUSH2 0x22E1 JUMP JUMPDEST PUSH2 0x1139 SWAP2 SWAP1 PUSH2 0x22B0 JUMP JUMPDEST SWAP1 POP SWAP2 SWAP1 POP JUMP JUMPDEST PUSH1 0x1 PUSH1 0x0 DUP2 SWAP1 SSTORE POP JUMP JUMPDEST PUSH2 0x11CB DUP4 PUSH4 0xA9059CBB PUSH1 0xE0 SHL DUP5 DUP5 PUSH1 0x40 MLOAD PUSH1 0x24 ADD PUSH2 0x1169 SWAP3 SWAP2 SWAP1 PUSH2 0x1FBF JUMP JUMPDEST PUSH1 0x40 MLOAD PUSH1 0x20 DUP2 DUP4 SUB SUB DUP2 MSTORE SWAP1 PUSH1 0x40 MSTORE SWAP1 PUSH28 0xFFFFFFFFFFFFFFFFFFFFFFFFFFFFFFFFFFFFFFFFFFFFFFFFFFFFFFFF NOT AND PUSH1 0x20 DUP3 ADD DUP1 MLOAD PUSH28 0xFFFFFFFFFFFFFFFFFFFFFFFFFFFFFFFFFFFFFFFFFFFFFFFFFFFFFFFF DUP4 DUP2 DUP4 AND OR DUP4 MSTORE POP POP POP POP PUSH2 0x1751 JUMP JUMPDEST POP POP POP JUMP JUMPDEST PUSH2 0x11D8 PUSH2 0x1818 JUMP JUMPDEST PUSH20 0xFFFFFFFFFFFFFFFFFFFFFFFFFFFFFFFFFFFFFFFF AND PUSH2 0x11F6 PUSH2 0xD7B JUMP JUMPDEST PUSH20 0xFFFFFFFFFFFFFFFFFFFFFFFFFFFFFFFFFFFFFFFF AND EQ PUSH2 0x124C JUMPI PUSH1 0x40 MLOAD PUSH32 0x8C379A000000000000000000000000000000000000000000000000000000000 DUP2 MSTORE PUSH1 0x4 ADD PUSH2 0x1243 SWAP1 PUSH2 0x20FD JUMP JUMPDEST PUSH1 0x40 MLOAD DUP1 SWAP2 SUB SWAP1 REVERT JUMPDEST JUMP JUMPDEST PUSH1 0x0 PUSH1 0x1 DUP1 SLOAD SWAP1 PUSH2 0x100 EXP SWAP1 DIV PUSH20 0xFFFFFFFFFFFFFFFFFFFFFFFFFFFFFFFFFFFFFFFF AND SWAP1 POP DUP2 PUSH1 0x1 DUP1 PUSH2 0x100 EXP DUP2 SLOAD DUP2 PUSH20 0xFFFFFFFFFFFFFFFFFFFFFFFFFFFFFFFFFFFFFFFF MUL NOT AND SWAP1 DUP4 PUSH20 0xFFFFFFFFFFFFFFFFFFFFFFFFFFFFFFFFFFFFFFFF AND MUL OR SWAP1 SSTORE POP DUP2 PUSH20 0xFFFFFFFFFFFFFFFFFFFFFFFFFFFFFFFFFFFFFFFF AND DUP2 PUSH20 0xFFFFFFFFFFFFFFFFFFFFFFFFFFFFFFFFFFFFFFFF AND PUSH32 0x8BE0079C531659141344CD1FD0A4F28419497F9722A3DAAFE3B4186F6B6457E0 PUSH1 0x40 MLOAD PUSH1 0x40 MLOAD DUP1 SWAP2 SUB SWAP1 LOG3 POP POP JUMP JUMPDEST DUP2 PUSH20 0xFFFFFFFFFFFFFFFFFFFFFFFFFFFFFFFFFFFFFFFF AND PUSH1 0x3 PUSH1 0x0 SWAP1 SLOAD SWAP1 PUSH2 0x100 EXP SWAP1 DIV PUSH20 0xFFFFFFFFFFFFFFFFFFFFFFFFFFFFFFFFFFFFFFFF AND PUSH20 0xFFFFFFFFFFFFFFFFFFFFFFFFFFFFFFFFFFFFFFFF AND PUSH4 0x6352211E DUP4 PUSH1 0x40 MLOAD DUP3 PUSH4 0xFFFFFFFF AND PUSH1 0xE0 SHL DUP2 MSTORE PUSH1 0x4 ADD PUSH2 0x1383 SWAP2 SWAP1 PUSH2 0x219D JUMP JUMPDEST PUSH1 0x20 PUSH1 0x40 MLOAD DUP1 DUP4 SUB DUP2 DUP7 DUP1 EXTCODESIZE ISZERO DUP1 ISZERO PUSH2 0x139B JUMPI PUSH1 0x0 DUP1 REVERT JUMPDEST POP GAS STATICCALL ISZERO DUP1 ISZERO PUSH2 0x13AF JUMPI RETURNDATASIZE PUSH1 0x0 DUP1 RETURNDATACOPY RETURNDATASIZE PUSH1 0x0 REVERT JUMPDEST POP POP POP POP PUSH1 0x40 MLOAD RETURNDATASIZE PUSH1 0x1F NOT PUSH1 0x1F DUP3 ADD AND DUP3 ADD DUP1 PUSH1 0x40 MSTORE POP DUP2 ADD SWAP1 PUSH2 0x13D3 SWAP2 SWAP1 PUSH2 0x1A88 JUMP JUMPDEST PUSH20 0xFFFFFFFFFFFFFFFFFFFFFFFFFFFFFFFFFFFFFFFF AND EQ PUSH2 0x1429 JUMPI PUSH1 0x40 MLOAD PUSH32 0x8C379A000000000000000000000000000000000000000000000000000000000 DUP2 MSTORE PUSH1 0x4 ADD PUSH2 0x1420 SWAP1 PUSH2 0x207D JUMP JUMPDEST PUSH1 0x40 MLOAD DUP1 SWAP2 SUB SWAP1 REVERT JUMPDEST PUSH1 0x0 PUSH1 0x6 PUSH1 0x0 DUP5 PUSH20 0xFFFFFFFFFFFFFFFFFFFFFFFFFFFFFFFFFFFFFFFF AND PUSH20 0xFFFFFFFFFFFFFFFFFFFFFFFFFFFFFFFFFFFFFFFF AND DUP2 MSTORE PUSH1 0x20 ADD SWAP1 DUP2 MSTORE PUSH1 0x20 ADD PUSH1 0x0 KECCAK256 PUSH1 0x0 ADD SLOAD GT ISZERO PUSH2 0x14DC JUMPI PUSH1 0x0 PUSH2 0x147F DUP4 PUSH2 0x1082 JUMP JUMPDEST SWAP1 POP DUP1 PUSH1 0x6 PUSH1 0x0 DUP6 PUSH20 0xFFFFFFFFFFFFFFFFFFFFFFFFFFFFFFFFFFFFFFFF AND PUSH20 0xFFFFFFFFFFFFFFFFFFFFFFFFFFFFFFFFFFFFFFFF AND DUP2 MSTORE PUSH1 0x20 ADD SWAP1 DUP2 MSTORE PUSH1 0x20 ADD PUSH1 0x0 KECCAK256 PUSH1 0x3 ADD PUSH1 0x0 DUP3 DUP3 SLOAD PUSH2 0x14D3 SWAP2 SWAP1 PUSH2 0x225A JUMP JUMPDEST SWAP3 POP POP DUP2 SWAP1 SSTORE POP POP JUMPDEST PUSH1 0x3 PUSH1 0x0 SWAP1 SLOAD SWAP1 PUSH2 0x100 EXP SWAP1 DIV PUSH20 0xFFFFFFFFFFFFFFFFFFFFFFFFFFFFFFFFFFFFFFFF AND PUSH20 0xFFFFFFFFFFFFFFFFFFFFFFFFFFFFFFFFFFFFFFFF AND PUSH4 0x23B872DD DUP4 ADDRESS DUP5 PUSH1 0x40 MLOAD DUP5 PUSH4 0xFFFFFFFF AND PUSH1 0xE0 SHL DUP2 MSTORE PUSH1 0x4 ADD PUSH2 0x153B SWAP4 SWAP3 SWAP2 SWAP1 PUSH2 0x1F88 JUMP JUMPDEST PUSH1 0x0 PUSH1 0x40 MLOAD DUP1 DUP4 SUB DUP2 PUSH1 0x0 DUP8 DUP1 EXTCODESIZE ISZERO DUP1 ISZERO PUSH2 0x1555 JUMPI PUSH1 0x0 DUP1 REVERT JUMPDEST POP GAS CALL ISZERO DUP1 ISZERO PUSH2 0x1569 JUMPI RETURNDATASIZE PUSH1 0x0 DUP1 RETURNDATACOPY RETURNDATASIZE PUSH1 0x0 REVERT JUMPDEST POP POP POP POP PUSH1 0x0 PUSH1 0x40 MLOAD DUP1 PUSH1 0x40 ADD PUSH1 0x40 MSTORE DUP1 DUP5 PUSH20 0xFFFFFFFFFFFFFFFFFFFFFFFFFFFFFFFFFFFFFFFF AND DUP2 MSTORE PUSH1 0x20 ADD DUP4 DUP2 MSTORE POP SWAP1 POP PUSH1 0x6 PUSH1 0x0 DUP5 PUSH20 0xFFFFFFFFFFFFFFFFFFFFFFFFFFFFFFFFFFFFFFFF AND PUSH20 0xFFFFFFFFFFFFFFFFFFFFFFFFFFFFFFFFFFFFFFFF AND DUP2 MSTORE PUSH1 0x20 ADD SWAP1 DUP2 MSTORE PUSH1 0x20 ADD PUSH1 0x0 KECCAK256 PUSH1 0x1 ADD DUP2 SWAP1 DUP1 PUSH1 0x1 DUP2 SLOAD ADD DUP1 DUP3 SSTORE DUP1 SWAP2 POP POP PUSH1 0x1 SWAP1 SUB SWAP1 PUSH1 0x0 MSTORE PUSH1 0x20 PUSH1 0x0 KECCAK256 SWAP1 PUSH1 0x2 MUL ADD PUSH1 0x0 SWAP1 SWAP2 SWAP1 SWAP2 SWAP1 SWAP2 POP PUSH1 0x0 DUP3 ADD MLOAD DUP2 PUSH1 0x0 ADD PUSH1 0x0 PUSH2 0x100 EXP DUP2 SLOAD DUP2 PUSH20 0xFFFFFFFFFFFFFFFFFFFFFFFFFFFFFFFFFFFFFFFF MUL NOT AND SWAP1 DUP4 PUSH20 0xFFFFFFFFFFFFFFFFFFFFFFFFFFFFFFFFFFFFFFFF AND MUL OR SWAP1 SSTORE POP PUSH1 0x20 DUP3 ADD MLOAD DUP2 PUSH1 0x1 ADD SSTORE POP POP PUSH1 0x6 PUSH1 0x0 DUP5 PUSH20 0xFFFFFFFFFFFFFFFFFFFFFFFFFFFFFFFFFFFFFFFF AND PUSH20 0xFFFFFFFFFFFFFFFFFFFFFFFFFFFFFFFFFFFFFFFF AND DUP2 MSTORE PUSH1 0x20 ADD SWAP1 DUP2 MSTORE PUSH1 0x20 ADD PUSH1 0x0 KECCAK256 PUSH1 0x0 ADD PUSH1 0x0 DUP2 SLOAD DUP1 SWAP3 SWAP2 SWAP1 PUSH2 0x16AE SWAP1 PUSH2 0x245C JUMP JUMPDEST SWAP2 SWAP1 POP SSTORE POP DUP3 PUSH1 0x7 PUSH1 0x0 DUP5 DUP2 MSTORE PUSH1 0x20 ADD SWAP1 DUP2 MSTORE PUSH1 0x20 ADD PUSH1 0x0 KECCAK256 PUSH1 0x0 PUSH2 0x100 EXP DUP2 SLOAD DUP2 PUSH20 0xFFFFFFFFFFFFFFFFFFFFFFFFFFFFFFFFFFFFFFFF MUL NOT AND SWAP1 DUP4 PUSH20 0xFFFFFFFFFFFFFFFFFFFFFFFFFFFFFFFFFFFFFFFF AND MUL OR SWAP1 SSTORE POP TIMESTAMP PUSH1 0x6 PUSH1 0x0 DUP6 PUSH20 0xFFFFFFFFFFFFFFFFFFFFFFFFFFFFFFFFFFFFFFFF AND PUSH20 0xFFFFFFFFFFFFFFFFFFFFFFFFFFFFFFFFFFFFFFFF AND DUP2 MSTORE PUSH1 0x20 ADD SWAP1 DUP2 MSTORE PUSH1 0x20 ADD PUSH1 0x0 KECCAK256 PUSH1 0x2 ADD DUP2 SWAP1 SSTORE POP POP POP POP JUMP JUMPDEST PUSH1 0x0 PUSH2 0x17B3 DUP3 PUSH1 0x40 MLOAD DUP1 PUSH1 0x40 ADD PUSH1 0x40 MSTORE DUP1 PUSH1 0x20 DUP2 MSTORE PUSH1 0x20 ADD PUSH32 0x5361666545524332303A206C6F772D6C6576656C2063616C6C206661696C6564 DUP2 MSTORE POP DUP6 PUSH20 0xFFFFFFFFFFFFFFFFFFFFFFFFFFFFFFFFFFFFFFFF AND PUSH2 0x1820 SWAP1 SWAP3 SWAP2 SWAP1 PUSH4 0xFFFFFFFF AND JUMP JUMPDEST SWAP1 POP PUSH1 0x0 DUP2 MLOAD GT ISZERO PUSH2 0x1813 JUMPI DUP1 DUP1 PUSH1 0x20 ADD SWAP1 MLOAD DUP2 ADD SWAP1 PUSH2 0x17D3 SWAP2 SWAP1 PUSH2 0x1AB1 JUMP JUMPDEST PUSH2 0x1812 JUMPI PUSH1 0x40 MLOAD PUSH32 0x8C379A000000000000000000000000000000000000000000000000000000000 DUP2 MSTORE PUSH1 0x4 ADD PUSH2 0x1809 SWAP1 PUSH2 0x215D JUMP JUMPDEST PUSH1 0x40 MLOAD DUP1 SWAP2 SUB SWAP1 REVERT JUMPDEST JUMPDEST POP POP POP JUMP JUMPDEST PUSH1 0x0 CALLER SWAP1 POP SWAP1 JUMP JUMPDEST PUSH1 0x60 PUSH2 0x182F DUP5 DUP5 PUSH1 0x0 DUP6 PUSH2 0x1838 JUMP JUMPDEST SWAP1 POP SWAP4 SWAP3 POP POP POP JUMP JUMPDEST PUSH1 0x60 DUP3 SELFBALANCE LT ISZERO PUSH2 0x187D JUMPI PUSH1 0x40 MLOAD PUSH32 0x8C379A000000000000000000000000000000000000000000000000000000000 DUP2 MSTORE PUSH1 0x4 ADD PUSH2 0x1874 SWAP1 PUSH2 0x20DD JUMP JUMPDEST PUSH1 0x40 MLOAD DUP1 SWAP2 SUB SWAP1 REVERT JUMPDEST PUSH2 0x1886 DUP6 PUSH2 0x194C JUMP JUMPDEST PUSH2 0x18C5 JUMPI PUSH1 0x40 MLOAD PUSH32 0x8C379A000000000000000000000000000000000000000000000000000000000 DUP2 MSTORE PUSH1 0x4 ADD PUSH2 0x18BC SWAP1 PUSH2 0x213D JUMP JUMPDEST PUSH1 0x40 MLOAD DUP1 SWAP2 SUB SWAP1 REVERT JUMPDEST PUSH1 0x0 DUP1 DUP7 PUSH20 0xFFFFFFFFFFFFFFFFFFFFFFFFFFFFFFFFFFFFFFFF AND DUP6 DUP8 PUSH1 0x40 MLOAD PUSH2 0x18EE SWAP2 SWAP1 PUSH2 0x1F56 JUMP JUMPDEST PUSH1 0x0 PUSH1 0x40 MLOAD DUP1 DUP4 SUB DUP2 DUP6 DUP8 GAS CALL SWAP3 POP POP POP RETURNDATASIZE DUP1 PUSH1 0x0 DUP2 EQ PUSH2 0x192B JUMPI PUSH1 0x40 MLOAD SWAP2 POP PUSH1 0x1F NOT PUSH1 0x3F RETURNDATASIZE ADD AND DUP3 ADD PUSH1 0x40 MSTORE RETURNDATASIZE DUP3 MSTORE RETURNDATASIZE PUSH1 0x0 PUSH1 0x20 DUP5 ADD RETURNDATACOPY PUSH2 0x1930 JUMP JUMPDEST PUSH1 0x60 SWAP2 POP JUMPDEST POP SWAP2 POP SWAP2 POP PUSH2 0x1940 DUP3 DUP3 DUP7 PUSH2 0x195F JUMP JUMPDEST SWAP3 POP POP POP SWAP5 SWAP4 POP POP POP POP JUMP JUMPDEST PUSH1 0x0 DUP1 DUP3 EXTCODESIZE SWAP1 POP PUSH1 0x0 DUP2 GT SWAP2 POP POP SWAP2 SWAP1 POP JUMP JUMPDEST PUSH1 0x60 DUP4 ISZERO PUSH2 0x196F JUMPI DUP3 SWAP1 POP PUSH2 0x19BF JUMP JUMPDEST PUSH1 0x0 DUP4 MLOAD GT ISZERO PUSH2 0x1982 JUMPI DUP3 MLOAD DUP1 DUP5 PUSH1 0x20 ADD REVERT JUMPDEST DUP2 PUSH1 0x40 MLOAD PUSH32 0x8C379A000000000000000000000000000000000000000000000000000000000 DUP2 MSTORE PUSH1 0x4 ADD PUSH2 0x19B6 SWAP2 SWAP1 PUSH2 0x205B JUMP JUMPDEST PUSH1 0x40 MLOAD DUP1 SWAP2 SUB SWAP1 REVERT JUMPDEST SWAP4 SWAP3 POP POP POP JUMP JUMPDEST PUSH1 0x40 MLOAD DUP1 PUSH1 0x40 ADD PUSH1 0x40 MSTORE DUP1 PUSH1 0x0 PUSH20 0xFFFFFFFFFFFFFFFFFFFFFFFFFFFFFFFFFFFFFFFF AND DUP2 MSTORE PUSH1 0x20 ADD PUSH1 0x0 DUP2 MSTORE POP SWAP1 JUMP JUMPDEST PUSH1 0x0 DUP2 CALLDATALOAD SWAP1 POP PUSH2 0x1A05 DUP2 PUSH2 0x2514 JUMP JUMPDEST SWAP3 SWAP2 POP POP JUMP JUMPDEST PUSH1 0x0 DUP2 MLOAD SWAP1 POP PUSH2 0x1A1A DUP2 PUSH2 0x2514 JUMP JUMPDEST SWAP3 SWAP2 POP POP JUMP JUMPDEST PUSH1 0x0 DUP2 MLOAD SWAP1 POP PUSH2 0x1A2F DUP2 PUSH2 0x252B JUMP JUMPDEST SWAP3 SWAP2 POP POP JUMP JUMPDEST PUSH1 0x0 DUP2 CALLDATALOAD SWAP1 POP PUSH2 0x1A44 DUP2 PUSH2 0x2542 JUMP JUMPDEST SWAP3 SWAP2 POP POP JUMP JUMPDEST PUSH1 0x0 DUP2 MLOAD SWAP1 POP PUSH2 0x1A59 DUP2 PUSH2 0x2542 JUMP JUMPDEST SWAP3 SWAP2 POP POP JUMP JUMPDEST PUSH1 0x0 PUSH1 0x20 DUP3 DUP5 SUB SLT ISZERO PUSH2 0x1A71 JUMPI PUSH1 0x0 DUP1 REVERT JUMPDEST PUSH1 0x0 PUSH2 0x1A7F DUP5 DUP3 DUP6 ADD PUSH2 0x19F6 JUMP JUMPDEST SWAP2 POP POP SWAP3 SWAP2 POP POP JUMP JUMPDEST PUSH1 0x0 PUSH1 0x20 DUP3 DUP5 SUB SLT ISZERO PUSH2 0x1A9A JUMPI PUSH1 0x0 DUP1 REVERT JUMPDEST PUSH1 0x0 PUSH2 0x1AA8 DUP5 DUP3 DUP6 ADD PUSH2 0x1A0B JUMP JUMPDEST SWAP2 POP POP SWAP3 SWAP2 POP POP JUMP JUMPDEST PUSH1 0x0 PUSH1 0x20 DUP3 DUP5 SUB SLT ISZERO PUSH2 0x1AC3 JUMPI PUSH1 0x0 DUP1 REVERT JUMPDEST PUSH1 0x0 PUSH2 0x1AD1 DUP5 DUP3 DUP6 ADD PUSH2 0x1A20 JUMP JUMPDEST SWAP2 POP POP SWAP3 SWAP2 POP POP JUMP JUMPDEST PUSH1 0x0 PUSH1 0x20 DUP3 DUP5 SUB SLT ISZERO PUSH2 0x1AEC JUMPI PUSH1 0x0 DUP1 REVERT JUMPDEST PUSH1 0x0 PUSH2 0x1AFA DUP5 DUP3 DUP6 ADD PUSH2 0x1A35 JUMP JUMPDEST SWAP2 POP POP SWAP3 SWAP2 POP POP JUMP JUMPDEST PUSH1 0x0 PUSH1 0x20 DUP3 DUP5 SUB SLT ISZERO PUSH2 0x1B15 JUMPI PUSH1 0x0 DUP1 REVERT JUMPDEST PUSH1 0x0 PUSH2 0x1B23 DUP5 DUP3 DUP6 ADD PUSH2 0x1A4A JUMP JUMPDEST SWAP2 POP POP SWAP3 SWAP2 POP POP JUMP JUMPDEST PUSH1 0x0 PUSH2 0x1B38 DUP4 DUP4 PUSH2 0x1F09 JUMP JUMPDEST PUSH1 0x40 DUP4 ADD SWAP1 POP SWAP3 SWAP2 POP POP JUMP JUMPDEST PUSH2 0x1B4D DUP2 PUSH2 0x236F JUMP JUMPDEST DUP3 MSTORE POP POP JUMP JUMPDEST PUSH2 0x1B5C DUP2 PUSH2 0x236F JUMP JUMPDEST DUP3 MSTORE POP POP JUMP JUMPDEST PUSH1 0x0 PUSH2 0x1B6D DUP3 PUSH2 0x21FF JUMP JUMPDEST PUSH2 0x1B77 DUP2 DUP6 PUSH2 0x222D JUMP JUMPDEST SWAP4 POP PUSH2 0x1B82 DUP4 PUSH2 0x21EF JUMP JUMPDEST DUP1 PUSH1 0x0 JUMPDEST DUP4 DUP2 LT ISZERO PUSH2 0x1BB3 JUMPI DUP2 MLOAD PUSH2 0x1B9A DUP9 DUP3 PUSH2 0x1B2C JUMP JUMPDEST SWAP8 POP PUSH2 0x1BA5 DUP4 PUSH2 0x2220 JUMP JUMPDEST SWAP3 POP POP PUSH1 0x1 DUP2 ADD SWAP1 POP PUSH2 0x1B86 JUMP JUMPDEST POP DUP6 SWAP4 POP POP POP POP SWAP3 SWAP2 POP POP JUMP JUMPDEST PUSH2 0x1BC9 DUP2 PUSH2 0x2381 JUMP JUMPDEST DUP3 MSTORE POP POP JUMP JUMPDEST PUSH1 0x0 PUSH2 0x1BDA DUP3 PUSH2 0x220A JUMP JUMPDEST PUSH2 0x1BE4 DUP2 DUP6 PUSH2 0x223E JUMP JUMPDEST SWAP4 POP PUSH2 0x1BF4 DUP2 DUP6 PUSH1 0x20 DUP7 ADD PUSH2 0x23FF JUMP JUMPDEST DUP1 DUP5 ADD SWAP2 POP POP SWAP3 SWAP2 POP POP JUMP JUMPDEST PUSH2 0x1C09 DUP2 PUSH2 0x23B7 JUMP JUMPDEST DUP3 MSTORE POP POP JUMP JUMPDEST PUSH2 0x1C18 DUP2 PUSH2 0x23DB JUMP JUMPDEST DUP3 MSTORE POP POP JUMP JUMPDEST PUSH1 0x0 PUSH2 0x1C29 DUP3 PUSH2 0x2215 JUMP JUMPDEST PUSH2 0x1C33 DUP2 DUP6 PUSH2 0x2249 JUMP JUMPDEST SWAP4 POP PUSH2 0x1C43 DUP2 DUP6 PUSH1 0x20 DUP7 ADD PUSH2 0x23FF JUMP JUMPDEST PUSH2 0x1C4C DUP2 PUSH2 0x2503 JUMP JUMPDEST DUP5 ADD SWAP2 POP POP SWAP3 SWAP2 POP POP JUMP JUMPDEST PUSH1 0x0 PUSH2 0x1C64 PUSH1 0x19 DUP4 PUSH2 0x2249 JUMP JUMPDEST SWAP2 POP PUSH32 0x596F7520646F6E2774206F776E207468697320746F6B656E2100000000000000 PUSH1 0x0 DUP4 ADD MSTORE PUSH1 0x20 DUP3 ADD SWAP1 POP SWAP2 SWAP1 POP JUMP JUMPDEST PUSH1 0x0 PUSH2 0x1CA4 PUSH1 0x26 DUP4 PUSH2 0x2249 JUMP JUMPDEST SWAP2 POP PUSH32 0x4F776E61626C653A206E6577206F776E657220697320746865207A65726F2061 PUSH1 0x0 DUP4 ADD MSTORE PUSH32 0x6464726573730000000000000000000000000000000000000000000000000000 PUSH1 0x20 DUP4 ADD MSTORE PUSH1 0x40 DUP3 ADD SWAP1 POP SWAP2 SWAP1 POP JUMP JUMPDEST PUSH1 0x0 PUSH2 0x1D0A PUSH1 0x19 DUP4 PUSH2 0x2249 JUMP JUMPDEST SWAP2 POP PUSH32 0x596F752068617665206E6F20746F6B656E73207374616B656400000000000000 PUSH1 0x0 DUP4 ADD MSTORE PUSH1 0x20 DUP3 ADD SWAP1 POP SWAP2 SWAP1 POP JUMP JUMPDEST PUSH1 0x0 PUSH2 0x1D4A PUSH1 0x26 DUP4 PUSH2 0x2249 JUMP JUMPDEST SWAP2 POP PUSH32 0x416464726573733A20696E73756666696369656E742062616C616E636520666F PUSH1 0x0 DUP4 ADD MSTORE PUSH32 0x722063616C6C0000000000000000000000000000000000000000000000000000 PUSH1 0x20 DUP4 ADD MSTORE PUSH1 0x40 DUP3 ADD SWAP1 POP SWAP2 SWAP1 POP JUMP JUMPDEST PUSH1 0x0 PUSH2 0x1DB0 PUSH1 0x20 DUP4 PUSH2 0x2249 JUMP JUMPDEST SWAP2 POP PUSH32 0x4F776E61626C653A2063616C6C6572206973206E6F7420746865206F776E6572 PUSH1 0x0 DUP4 ADD MSTORE PUSH1 0x20 DUP3 ADD SWAP1 POP SWAP2 SWAP1 POP JUMP JUMPDEST PUSH1 0x0 PUSH2 0x1DF0 PUSH1 0x1C DUP4 PUSH2 0x2249 JUMP JUMPDEST SWAP2 POP PUSH32 0x596F752068617665206E6F207265776172647320746F20636C61696D00000000 PUSH1 0x0 DUP4 ADD MSTORE PUSH1 0x20 DUP3 ADD SWAP1 POP SWAP2 SWAP1 POP JUMP JUMPDEST PUSH1 0x0 PUSH2 0x1E30 PUSH1 0x1D DUP4 PUSH2 0x2249 JUMP JUMPDEST SWAP2 POP PUSH32 0x416464726573733A2063616C6C20746F206E6F6E2D636F6E7472616374000000 PUSH1 0x0 DUP4 ADD MSTORE PUSH1 0x20 DUP3 ADD SWAP1 POP SWAP2 SWAP1 POP JUMP JUMPDEST PUSH1 0x0 PUSH2 0x1E70 PUSH1 0x2A DUP4 PUSH2 0x2249 JUMP JUMPDEST SWAP2 POP PUSH32 0x5361666545524332303A204552433230206F7065726174696F6E20646964206E PUSH1 0x0 DUP4 ADD MSTORE PUSH32 0x6F74207375636365656400000000000000000000000000000000000000000000 PUSH1 0x20 DUP4 ADD MSTORE PUSH1 0x40 DUP3 ADD SWAP1 POP SWAP2 SWAP1 POP JUMP JUMPDEST PUSH1 0x0 PUSH2 0x1ED6 PUSH1 0x1F DUP4 PUSH2 0x2249 JUMP JUMPDEST SWAP2 POP PUSH32 0x5265656E7472616E637947756172643A207265656E7472616E742063616C6C00 PUSH1 0x0 DUP4 ADD MSTORE PUSH1 0x20 DUP3 ADD SWAP1 POP SWAP2 SWAP1 POP JUMP JUMPDEST PUSH1 0x40 DUP3 ADD PUSH1 0x0 DUP3 ADD MLOAD PUSH2 0x1F1F PUSH1 0x0 DUP6 ADD DUP3 PUSH2 0x1B44 JUMP JUMPDEST POP PUSH1 0x20 DUP3 ADD MLOAD PUSH2 0x1F32 PUSH1 0x20 DUP6 ADD DUP3 PUSH2 0x1F38 JUMP JUMPDEST POP POP POP POP JUMP JUMPDEST PUSH2 0x1F41 DUP2 PUSH2 0x23AD JUMP JUMPDEST DUP3 MSTORE POP POP JUMP JUMPDEST PUSH2 0x1F50 DUP2 PUSH2 0x23AD JUMP JUMPDEST DUP3 MSTORE POP POP JUMP JUMPDEST PUSH1 0x0 PUSH2 0x1F62 DUP3 DUP5 PUSH2 0x1BCF JUMP JUMPDEST SWAP2 POP DUP2 SWAP1 POP SWAP3 SWAP2 POP POP JUMP JUMPDEST PUSH1 0x0 PUSH1 0x20 DUP3 ADD SWAP1 POP PUSH2 0x1F82 PUSH1 0x0 DUP4 ADD DUP5 PUSH2 0x1B53 JUMP JUMPDEST SWAP3 SWAP2 POP POP JUMP JUMPDEST PUSH1 0x0 PUSH1 0x60 DUP3 ADD SWAP1 POP PUSH2 0x1F9D PUSH1 0x0 DUP4 ADD DUP7 PUSH2 0x1B53 JUMP JUMPDEST PUSH2 0x1FAA PUSH1 0x20 DUP4 ADD DUP6 PUSH2 0x1B53 JUMP JUMPDEST PUSH2 0x1FB7 PUSH1 0x40 DUP4 ADD DUP5 PUSH2 0x1F47 JUMP JUMPDEST SWAP5 SWAP4 POP POP POP POP JUMP JUMPDEST PUSH1 0x0 PUSH1 0x40 DUP3 ADD SWAP1 POP PUSH2 0x1FD4 PUSH1 0x0 DUP4 ADD DUP6 PUSH2 0x1B53 JUMP JUMPDEST PUSH2 0x1FE1 PUSH1 0x20 DUP4 ADD DUP5 PUSH2 0x1F47 JUMP JUMPDEST SWAP4 SWAP3 POP POP POP JUMP JUMPDEST PUSH1 0x0 PUSH1 0x20 DUP3 ADD SWAP1 POP DUP2 DUP2 SUB PUSH1 0x0 DUP4 ADD MSTORE PUSH2 0x2002 DUP2 DUP5 PUSH2 0x1B62 JUMP JUMPDEST SWAP1 POP SWAP3 SWAP2 POP POP JUMP JUMPDEST PUSH1 0x0 PUSH1 0x20 DUP3 ADD SWAP1 POP PUSH2 0x201F PUSH1 0x0 DUP4 ADD DUP5 PUSH2 0x1BC0 JUMP JUMPDEST SWAP3 SWAP2 POP POP JUMP JUMPDEST PUSH1 0x0 PUSH1 0x20 DUP3 ADD SWAP1 POP PUSH2 0x203A PUSH1 0x0 DUP4 ADD DUP5 PUSH2 0x1C00 JUMP JUMPDEST SWAP3 SWAP2 POP POP JUMP JUMPDEST PUSH1 0x0 PUSH1 0x20 DUP3 ADD SWAP1 POP PUSH2 0x2055 PUSH1 0x0 DUP4 ADD DUP5 PUSH2 0x1C0F JUMP JUMPDEST SWAP3 SWAP2 POP POP JUMP JUMPDEST PUSH1 0x0 PUSH1 0x20 DUP3 ADD SWAP1 POP DUP2 DUP2 SUB PUSH1 0x0 DUP4 ADD MSTORE PUSH2 0x2075 DUP2 DUP5 PUSH2 0x1C1E JUMP JUMPDEST SWAP1 POP SWAP3 SWAP2 POP POP JUMP JUMPDEST PUSH1 0x0 PUSH1 0x20 DUP3 ADD SWAP1 POP DUP2 DUP2 SUB PUSH1 0x0 DUP4 ADD MSTORE PUSH2 0x2096 DUP2 PUSH2 0x1C57 JUMP JUMPDEST SWAP1 POP SWAP2 SWAP1 POP JUMP JUMPDEST PUSH1 0x0 PUSH1 0x20 DUP3 ADD SWAP1 POP DUP2 DUP2 SUB PUSH1 0x0 DUP4 ADD MSTORE PUSH2 0x20B6 DUP2 PUSH2 0x1C97 JUMP JUMPDEST SWAP1 POP SWAP2 SWAP1 POP JUMP JUMPDEST PUSH1 0x0 PUSH1 0x20 DUP3 ADD SWAP1 POP DUP2 DUP2 SUB PUSH1 0x0 DUP4 ADD MSTORE PUSH2 0x20D6 DUP2 PUSH2 0x1CFD JUMP JUMPDEST SWAP1 POP SWAP2 SWAP1 POP JUMP JUMPDEST PUSH1 0x0 PUSH1 0x20 DUP3 ADD SWAP1 POP DUP2 DUP2 SUB PUSH1 0x0 DUP4 ADD MSTORE PUSH2 0x20F6 DUP2 PUSH2 0x1D3D JUMP JUMPDEST SWAP1 POP SWAP2 SWAP1 POP JUMP JUMPDEST PUSH1 0x0 PUSH1 0x20 DUP3 ADD SWAP1 POP DUP2 DUP2 SUB PUSH1 0x0 DUP4 ADD MSTORE PUSH2 0x2116 DUP2 PUSH2 0x1DA3 JUMP JUMPDEST SWAP1 POP SWAP2 SWAP1 POP JUMP JUMPDEST PUSH1 0x0 PUSH1 0x20 DUP3 ADD SWAP1 POP DUP2 DUP2 SUB PUSH1 0x0 DUP4 ADD MSTORE PUSH2 0x2136 DUP2 PUSH2 0x1DE3 JUMP JUMPDEST SWAP1 POP SWAP2 SWAP1 POP JUMP JUMPDEST PUSH1 0x0 PUSH1 0x20 DUP3 ADD SWAP1 POP DUP2 DUP2 SUB PUSH1 0x0 DUP4 ADD MSTORE PUSH2 0x2156 DUP2 PUSH2 0x1E23 JUMP JUMPDEST SWAP1 POP SWAP2 SWAP1 POP JUMP JUMPDEST PUSH1 0x0 PUSH1 0x20 DUP3 ADD SWAP1 POP DUP2 DUP2 SUB PUSH1 0x0 DUP4 ADD MSTORE PUSH2 0x2176 DUP2 PUSH2 0x1E63 JUMP JUMPDEST SWAP1 POP SWAP2 SWAP1 POP JUMP JUMPDEST PUSH1 0x0 PUSH1 0x20 DUP3 ADD SWAP1 POP DUP2 DUP2 SUB PUSH1 0x0 DUP4 ADD MSTORE PUSH2 0x2196 DUP2 PUSH2 0x1EC9 JUMP JUMPDEST SWAP1 POP SWAP2 SWAP1 POP JUMP JUMPDEST PUSH1 0x0 PUSH1 0x20 DUP3 ADD SWAP1 POP PUSH2 0x21B2 PUSH1 0x0 DUP4 ADD DUP5 PUSH2 0x1F47 JUMP JUMPDEST SWAP3 SWAP2 POP POP JUMP JUMPDEST PUSH1 0x0 PUSH1 0x60 DUP3 ADD SWAP1 POP PUSH2 0x21CD PUSH1 0x0 DUP4 ADD DUP7 PUSH2 0x1F47 JUMP JUMPDEST PUSH2 0x21DA PUSH1 0x20 DUP4 ADD DUP6 PUSH2 0x1F47 JUMP JUMPDEST PUSH2 0x21E7 PUSH1 0x40 DUP4 ADD DUP5 PUSH2 0x1F47 JUMP JUMPDEST SWAP5 SWAP4 POP POP POP POP JUMP JUMPDEST PUSH1 0x0 DUP2 SWAP1 POP PUSH1 0x20 DUP3 ADD SWAP1 POP SWAP2 SWAP1 POP JUMP JUMPDEST PUSH1 0x0 DUP2 MLOAD SWAP1 POP SWAP2 SWAP1 POP JUMP JUMPDEST PUSH1 0x0 DUP2 MLOAD SWAP1 POP SWAP2 SWAP1 POP JUMP JUMPDEST PUSH1 0x0 DUP2 MLOAD SWAP1 POP SWAP2 SWAP1 POP JUMP JUMPDEST PUSH1 0x0 PUSH1 0x20 DUP3 ADD SWAP1 POP SWAP2 SWAP1 POP JUMP JUMPDEST PUSH1 0x0 DUP3 DUP3 MSTORE PUSH1 0x20 DUP3 ADD SWAP1 POP SWAP3 SWAP2 POP POP JUMP JUMPDEST PUSH1 0x0 DUP2 SWAP1 POP SWAP3 SWAP2 POP POP JUMP JUMPDEST PUSH1 0x0 DUP3 DUP3 MSTORE PUSH1 0x20 DUP3 ADD SWAP1 POP SWAP3 SWAP2 POP POP JUMP JUMPDEST PUSH1 0x0 PUSH2 0x2265 DUP3 PUSH2 0x23AD JUMP JUMPDEST SWAP2 POP PUSH2 0x2270 DUP4 PUSH2 0x23AD JUMP JUMPDEST SWAP3 POP DUP3 PUSH32 0xFFFFFFFFFFFFFFFFFFFFFFFFFFFFFFFFFFFFFFFFFFFFFFFFFFFFFFFFFFFFFFFF SUB DUP3 GT ISZERO PUSH2 0x22A5 JUMPI PUSH2 0x22A4 PUSH2 0x24A5 JUMP JUMPDEST JUMPDEST DUP3 DUP3 ADD SWAP1 POP SWAP3 SWAP2 POP POP JUMP JUMPDEST PUSH1 0x0 PUSH2 0x22BB DUP3 PUSH2 0x23AD JUMP JUMPDEST SWAP2 POP PUSH2 0x22C6 DUP4 PUSH2 0x23AD JUMP JUMPDEST SWAP3 POP DUP3 PUSH2 0x22D6 JUMPI PUSH2 0x22D5 PUSH2 0x24D4 JUMP JUMPDEST JUMPDEST DUP3 DUP3 DIV SWAP1 POP SWAP3 SWAP2 POP POP JUMP JUMPDEST PUSH1 0x0 PUSH2 0x22EC DUP3 PUSH2 0x23AD JUMP JUMPDEST SWAP2 POP PUSH2 0x22F7 DUP4 PUSH2 0x23AD JUMP JUMPDEST SWAP3 POP DUP2 PUSH32 0xFFFFFFFFFFFFFFFFFFFFFFFFFFFFFFFFFFFFFFFFFFFFFFFFFFFFFFFFFFFFFFFF DIV DUP4 GT DUP3 ISZERO ISZERO AND ISZERO PUSH2 0x2330 JUMPI PUSH2 0x232F PUSH2 0x24A5 JUMP JUMPDEST JUMPDEST DUP3 DUP3 MUL SWAP1 POP SWAP3 SWAP2 POP POP JUMP JUMPDEST PUSH1 0x0 PUSH2 0x2346 DUP3 PUSH2 0x23AD JUMP JUMPDEST SWAP2 POP PUSH2 0x2351 DUP4 PUSH2 0x23AD JUMP JUMPDEST SWAP3 POP DUP3 DUP3 LT ISZERO PUSH2 0x2364 JUMPI PUSH2 0x2363 PUSH2 0x24A5 JUMP JUMPDEST JUMPDEST DUP3 DUP3 SUB SWAP1 POP SWAP3 SWAP2 POP POP JUMP JUMPDEST PUSH1 0x0 PUSH2 0x237A DUP3 PUSH2 0x238D JUMP JUMPDEST SWAP1 POP SWAP2 SWAP1 POP JUMP JUMPDEST PUSH1 0x0 DUP2 ISZERO ISZERO SWAP1 POP SWAP2 SWAP1 POP JUMP JUMPDEST PUSH1 0x0 PUSH20 0xFFFFFFFFFFFFFFFFFFFFFFFFFFFFFFFFFFFFFFFF DUP3 AND SWAP1 POP SWAP2 SWAP1 POP JUMP JUMPDEST PUSH1 0x0 DUP2 SWAP1 POP SWAP2 SWAP1 POP JUMP JUMPDEST PUSH1 0x0 PUSH2 0x23C2 DUP3 PUSH2 0x23C9 JUMP JUMPDEST SWAP1 POP SWAP2 SWAP1 POP JUMP JUMPDEST PUSH1 0x0 PUSH2 0x23D4 DUP3 PUSH2 0x238D JUMP JUMPDEST SWAP1 POP SWAP2 SWAP1 POP JUMP JUMPDEST PUSH1 0x0 PUSH2 0x23E6 DUP3 PUSH2 0x23ED JUMP JUMPDEST SWAP1 POP SWAP2 SWAP1 POP JUMP JUMPDEST PUSH1 0x0 PUSH2 0x23F8 DUP3 PUSH2 0x238D JUMP JUMPDEST SWAP1 POP SWAP2 SWAP1 POP JUMP JUMPDEST PUSH1 0x0 JUMPDEST DUP4 DUP2 LT ISZERO PUSH2 0x241D JUMPI DUP1 DUP3 ADD MLOAD DUP2 DUP5 ADD MSTORE PUSH1 0x20 DUP2 ADD SWAP1 POP PUSH2 0x2402 JUMP JUMPDEST DUP4 DUP2 GT ISZERO PUSH2 0x242C JUMPI PUSH1 0x0 DUP5 DUP5 ADD MSTORE JUMPDEST POP POP POP POP JUMP JUMPDEST PUSH1 0x0 PUSH2 0x243D DUP3 PUSH2 0x23AD JUMP JUMPDEST SWAP2 POP PUSH1 0x0 DUP3 EQ ISZERO PUSH2 0x2451 JUMPI PUSH2 0x2450 PUSH2 0x24A5 JUMP JUMPDEST JUMPDEST PUSH1 0x1 DUP3 SUB SWAP1 POP SWAP2 SWAP1 POP JUMP JUMPDEST PUSH1 0x0 PUSH2 0x2467 DUP3 PUSH2 0x23AD JUMP JUMPDEST SWAP2 POP PUSH32 0xFFFFFFFFFFFFFFFFFFFFFFFFFFFFFFFFFFFFFFFFFFFFFFFFFFFFFFFFFFFFFFFF DUP3 EQ ISZERO PUSH2 0x249A JUMPI PUSH2 0x2499 PUSH2 0x24A5 JUMP JUMPDEST JUMPDEST PUSH1 0x1 DUP3 ADD SWAP1 POP SWAP2 SWAP1 POP JUMP JUMPDEST PUSH32 0x4E487B7100000000000000000000000000000000000000000000000000000000 PUSH1 0x0 MSTORE PUSH1 0x11 PUSH1 0x4 MSTORE PUSH1 0x24 PUSH1 0x0 REVERT JUMPDEST PUSH32 0x4E487B7100000000000000000000000000000000000000000000000000000000 PUSH1 0x0 MSTORE PUSH1 0x12 PUSH1 0x4 MSTORE PUSH1 0x24 PUSH1 0x0 REVERT JUMPDEST PUSH1 0x0 PUSH1 0x1F NOT PUSH1 0x1F DUP4 ADD AND SWAP1 POP SWAP2 SWAP1 POP JUMP JUMPDEST PUSH2 0x251D DUP2 PUSH2 0x236F JUMP JUMPDEST DUP2 EQ PUSH2 0x2528 JUMPI PUSH1 0x0 DUP1 REVERT JUMPDEST POP JUMP JUMPDEST PUSH2 0x2534 DUP2 PUSH2 0x2381 JUMP JUMPDEST DUP2 EQ PUSH2 0x253F JUMPI PUSH1 0x0 DUP1 REVERT JUMPDEST POP JUMP JUMPDEST PUSH2 0x254B DUP2 PUSH2 0x23AD JUMP JUMPDEST DUP2 EQ PUSH2 0x2556 JUMPI PUSH1 0x0 DUP1 REVERT JUMPDEST POP JUMP INVALID LOG2 PUSH5 0x6970667358 0x22 SLT KECCAK256 0xB6 PUSH6 0xF200CDFEFF35 0xAB 0xB9 0x4B MLOAD 0x2D 0x28 DUP6 0xA9 0x49 SAR BALANCE 0x1E DUP4 0xBE NUMBER CALLER 0x2A DUP15 0xA8 MOD SWAP3 0x4A 0x2D LOG3 PUSH5 0x736F6C6343 STOP ADDMOD STOP STOP CALLER "
				},
				"gasEstimates": {
					"creation": {
						"codeDepositCost": "1923000",
						"executionCost": "infinite",
						"totalCost": "infinite"
					},
					"external": {
						"adminWithdrawRewards()": "infinite",
						"availableRewards(address)": "infinite",
						"claimRewards()": "infinite",
						"getStakedTokens(address)": "infinite",
						"nftCollection()": "1302",
						"owner()": "1358",
						"paused()": "1247",
						"renounceOwnership()": "24609",
						"rewardsToken()": "1279",
						"stake(uint256)": "infinite",
						"stakerAddress(uint256)": "1584",
						"stakers(address)": "infinite",
						"transferOwnership(address)": "24935",
						"withdraw(uint256)": "infinite"
					},
					"internal": {
						"_stake(address,uint256)": "infinite",
						"calculateRewards(address)": "infinite"
					}
				},
				"methodIdentifiers": {
					"adminWithdrawRewards()": "f995441b",
					"availableRewards(address)": "f854a27f",
					"claimRewards()": "372500ab",
					"getStakedTokens(address)": "63c28db1",
					"nftCollection()": "6588103b",
					"owner()": "8da5cb5b",
					"paused()": "5c975abb",
					"renounceOwnership()": "715018a6",
					"rewardsToken()": "d1af0c7d",
					"stake(uint256)": "a694fc3a",
					"stakerAddress(uint256)": "94067045",
					"stakers(address)": "9168ae72",
					"transferOwnership(address)": "f2fde38b",
					"withdraw(uint256)": "2e1a7d4d"
				}
			},
			"storageLayout": {
				"storage": [
					{
						"astId": 569,
						"contract": "Farm.sol:Farm",
						"label": "_status",
						"offset": 0,
						"slot": "0",
						"type": "t_uint256"
					},
					{
						"astId": 471,
						"contract": "Farm.sol:Farm",
						"label": "_paused",
						"offset": 0,
						"slot": "1",
						"type": "t_bool"
					},
					{
						"astId": 1022,
						"contract": "Farm.sol:Farm",
						"label": "_owner",
						"offset": 1,
						"slot": "1",
						"type": "t_address"
					},
					{
						"astId": 1159,
						"contract": "Farm.sol:Farm",
						"label": "rewardsToken",
						"offset": 0,
						"slot": "2",
						"type": "t_contract(IERC20)438"
					},
					{
						"astId": 1162,
						"contract": "Farm.sol:Farm",
						"label": "nftCollection",
						"offset": 0,
						"slot": "3",
						"type": "t_contract(IERC721)122"
					},
					{
						"astId": 1164,
						"contract": "Farm.sol:Farm",
						"label": "nftCollectionAddress",
						"offset": 0,
						"slot": "4",
						"type": "t_address"
					},
					{
						"astId": 1167,
						"contract": "Farm.sol:Farm",
						"label": "rewardsPerHour",
						"offset": 0,
						"slot": "5",
						"type": "t_uint256"
					},
					{
						"astId": 1172,
						"contract": "Farm.sol:Farm",
						"label": "stakers",
						"offset": 0,
						"slot": "6",
						"type": "t_mapping(t_address,t_struct(Staker)1156_storage)"
					},
					{
						"astId": 1176,
						"contract": "Farm.sol:Farm",
						"label": "stakerAddress",
						"offset": 0,
						"slot": "7",
						"type": "t_mapping(t_uint256,t_address)"
					}
				],
				"types": {
					"t_address": {
						"encoding": "inplace",
						"label": "address",
						"numberOfBytes": "20"
					},
					"t_array(t_struct(StakedToken)1145_storage)dyn_storage": {
						"base": "t_struct(StakedToken)1145_storage",
						"encoding": "dynamic_array",
						"label": "struct Farm.StakedToken[]",
						"numberOfBytes": "32"
					},
					"t_bool": {
						"encoding": "inplace",
						"label": "bool",
						"numberOfBytes": "1"
					},
					"t_contract(IERC20)438": {
						"encoding": "inplace",
						"label": "contract IERC20",
						"numberOfBytes": "20"
					},
					"t_contract(IERC721)122": {
						"encoding": "inplace",
						"label": "contract IERC721",
						"numberOfBytes": "20"
					},
					"t_mapping(t_address,t_struct(Staker)1156_storage)": {
						"encoding": "mapping",
						"key": "t_address",
						"label": "mapping(address => struct Farm.Staker)",
						"numberOfBytes": "32",
						"value": "t_struct(Staker)1156_storage"
					},
					"t_mapping(t_uint256,t_address)": {
						"encoding": "mapping",
						"key": "t_uint256",
						"label": "mapping(uint256 => address)",
						"numberOfBytes": "32",
						"value": "t_address"
					},
					"t_struct(StakedToken)1145_storage": {
						"encoding": "inplace",
						"label": "struct Farm.StakedToken",
						"members": [
							{
								"astId": 1142,
								"contract": "Farm.sol:Farm",
								"label": "staker",
								"offset": 0,
								"slot": "0",
								"type": "t_address"
							},
							{
								"astId": 1144,
								"contract": "Farm.sol:Farm",
								"label": "tokenId",
								"offset": 0,
								"slot": "1",
								"type": "t_uint256"
							}
						],
						"numberOfBytes": "64"
					},
					"t_struct(Staker)1156_storage": {
						"encoding": "inplace",
						"label": "struct Farm.Staker",
						"members": [
							{
								"astId": 1147,
								"contract": "Farm.sol:Farm",
								"label": "amountStaked",
								"offset": 0,
								"slot": "0",
								"type": "t_uint256"
							},
							{
								"astId": 1151,
								"contract": "Farm.sol:Farm",
								"label": "stakedTokens",
								"offset": 0,
								"slot": "1",
								"type": "t_array(t_struct(StakedToken)1145_storage)dyn_storage"
							},
							{
								"astId": 1153,
								"contract": "Farm.sol:Farm",
								"label": "timeOfLastUpdate",
								"offset": 0,
								"slot": "2",
								"type": "t_uint256"
							},
							{
								"astId": 1155,
								"contract": "Farm.sol:Farm",
								"label": "unclaimedRewards",
								"offset": 0,
								"slot": "3",
								"type": "t_uint256"
							}
						],
						"numberOfBytes": "128"
					},
					"t_uint256": {
						"encoding": "inplace",
						"label": "uint256",
						"numberOfBytes": "32"
					}
				}
			},
			"userdoc": {
				"kind": "user",
				"methods": {},
				"version": 1
			}
		}
	}
}