{
	"Farm.sol": {
		"Farm": {
			"abi": [
				{
					"inputs": [
						{
							"internalType": "contract IERC721",
							"name": "_nftCollection",
							"type": "address"
						},
						{
							"internalType": "contract IERC20",
							"name": "_rewardsToken",
							"type": "address"
						},
						{
							"internalType": "uint256",
							"name": "_rewardsPerHour",
							"type": "uint256"
						}
					],
					"stateMutability": "nonpayable",
					"type": "constructor"
				},
				{
					"anonymous": false,
					"inputs": [
						{
							"indexed": true,
							"internalType": "address",
							"name": "previousOwner",
							"type": "address"
						},
						{
							"indexed": true,
							"internalType": "address",
							"name": "newOwner",
							"type": "address"
						}
					],
					"name": "OwnershipTransferred",
					"type": "event"
				},
				{
					"anonymous": false,
					"inputs": [
						{
							"indexed": false,
							"internalType": "address",
							"name": "account",
							"type": "address"
						}
					],
					"name": "Paused",
					"type": "event"
				},
				{
					"anonymous": false,
					"inputs": [
						{
							"indexed": false,
							"internalType": "address",
							"name": "account",
							"type": "address"
						}
					],
					"name": "Unpaused",
					"type": "event"
				},
				{
					"inputs": [],
					"name": "nftCollection",
					"outputs": [
						{
							"internalType": "contract IERC721",
							"name": "",
							"type": "address"
						}
					],
					"stateMutability": "view",
					"type": "function"
				},
				{
					"inputs": [
						{
							"internalType": "address",
							"name": "operator",
							"type": "address"
						},
						{
							"internalType": "address",
							"name": "from",
							"type": "address"
						},
						{
							"internalType": "uint256",
							"name": "tokenId",
							"type": "uint256"
						},
						{
							"internalType": "bytes",
							"name": "data",
							"type": "bytes"
						}
					],
					"name": "onERC721Received",
					"outputs": [
						{
							"internalType": "bytes4",
							"name": "",
							"type": "bytes4"
						}
					],
					"stateMutability": "pure",
					"type": "function"
				},
				{
					"inputs": [],
					"name": "owner",
					"outputs": [
						{
							"internalType": "address",
							"name": "",
							"type": "address"
						}
					],
					"stateMutability": "view",
					"type": "function"
				},
				{
					"inputs": [],
					"name": "paused",
					"outputs": [
						{
							"internalType": "bool",
							"name": "",
							"type": "bool"
						}
					],
					"stateMutability": "view",
					"type": "function"
				},
				{
					"inputs": [],
					"name": "renounceOwnership",
					"outputs": [],
					"stateMutability": "nonpayable",
					"type": "function"
				},
				{
					"inputs": [],
					"name": "rewardsToken",
					"outputs": [
						{
							"internalType": "contract IERC20",
							"name": "",
							"type": "address"
						}
					],
					"stateMutability": "view",
					"type": "function"
				},
				{
					"inputs": [
						{
							"internalType": "uint256",
							"name": "_tokenId",
							"type": "uint256"
						}
					],
					"name": "stake",
					"outputs": [],
					"stateMutability": "nonpayable",
					"type": "function"
				},
				{
					"inputs": [
						{
							"internalType": "uint256",
							"name": "",
							"type": "uint256"
						}
					],
					"name": "stakerAddress",
					"outputs": [
						{
							"internalType": "address",
							"name": "",
							"type": "address"
						}
					],
					"stateMutability": "view",
					"type": "function"
				},
				{
					"inputs": [
						{
							"internalType": "address",
							"name": "",
							"type": "address"
						}
					],
					"name": "stakers",
					"outputs": [
						{
							"internalType": "uint256",
							"name": "amountStaked",
							"type": "uint256"
						},
						{
							"internalType": "uint256",
							"name": "timeOfLastUpdate",
							"type": "uint256"
						},
						{
							"internalType": "uint256",
							"name": "unclaimedRewards",
							"type": "uint256"
						}
					],
					"stateMutability": "view",
					"type": "function"
				},
				{
					"inputs": [
						{
							"internalType": "address",
							"name": "newOwner",
							"type": "address"
						}
					],
					"name": "transferOwnership",
					"outputs": [],
					"stateMutability": "nonpayable",
					"type": "function"
				},
				{
					"inputs": [
						{
							"internalType": "uint256",
							"name": "_tokenId",
							"type": "uint256"
						}
					],
					"name": "withdraw",
					"outputs": [],
					"stateMutability": "nonpayable",
					"type": "function"
				}
			],
			"devdoc": {
				"kind": "dev",
				"methods": {
					"onERC721Received(address,address,uint256,bytes)": {
						"details": "Whenever an {IERC721} `tokenId` token is transferred to this contract via {IERC721-safeTransferFrom} by `operator` from `from`, this function is called. It must return its Solidity selector to confirm the token transfer. If any other value is returned or the interface is not implemented by the recipient, the transfer will be reverted. The selector can be obtained in Solidity with `IERC721Receiver.onERC721Received.selector`."
					},
					"owner()": {
						"details": "Returns the address of the current owner."
					},
					"paused()": {
						"details": "Returns true if the contract is paused, and false otherwise."
					},
					"renounceOwnership()": {
						"details": "Leaves the contract without owner. It will not be possible to call `onlyOwner` functions anymore. Can only be called by the current owner. NOTE: Renouncing ownership will leave the contract without an owner, thereby removing any functionality that is only available to the owner."
					},
					"transferOwnership(address)": {
						"details": "Transfers ownership of the contract to a new account (`newOwner`). Can only be called by the current owner."
					}
				},
				"version": 1
			},
			"evm": {
				"assembly": "    /* \"Farm.sol\":29748:33162  contract Farm is ReentrancyGuard, Pausable, Ownable, IERC721Receiver {\r... */\n  mstore(0x40, 0x80)\n    /* \"Farm.sol\":30317:30323  100000 */\n  0x0186a0\n    /* \"Farm.sol\":30284:30323  uint256 private rewardsPerHour = 100000 */\n  0x04\n  sstore\n    /* \"Farm.sol\":30520:30734  constructor(IERC721 _nftCollection, IERC20 _rewardsToken, uint256 _rewardsPerHour) {\r... */\n  callvalue\n  dup1\n  iszero\n  tag_1\n  jumpi\n  0x00\n  dup1\n  revert\ntag_1:\n  pop\n  mload(0x40)\n  sub(codesize, bytecodeSize)\n  dup1\n  bytecodeSize\n  dup4\n  codecopy\n  dup2\n  dup2\n  add\n  0x40\n  mstore\n  dup2\n  add\n  swap1\n  tag_2\n  swap2\n  swap1\n  tag_3\n  jump\t// in\ntag_2:\n    /* \"Farm.sol\":18664:18665  1 */\n  0x01\n    /* \"Farm.sol\":18775:18782  _status */\n  0x00\n    /* \"Farm.sol\":18775:18797  _status = _NOT_ENTERED */\n  dup2\n  swap1\n  sstore\n  pop\n    /* \"Farm.sol\":16203:16208  false */\n  0x00\n    /* \"Farm.sol\":16193:16200  _paused */\n  0x01\n  0x00\n    /* \"Farm.sol\":16193:16208  _paused = false */\n  0x0100\n  exp\n  dup2\n  sload\n  dup2\n  0xff\n  mul\n  not\n  and\n  swap1\n  dup4\n  iszero\n  iszero\n  mul\n  or\n  swap1\n  sstore\n  pop\n    /* \"Farm.sol\":28002:28034  _transferOwnership(_msgSender()) */\n  tag_11\n    /* \"Farm.sol\":28021:28033  _msgSender() */\n  tag_12\n    /* \"Farm.sol\":28021:28031  _msgSender */\n  shl(0x20, tag_13)\n    /* \"Farm.sol\":28021:28033  _msgSender() */\n  0x20\n  shr\n  jump\t// in\ntag_12:\n    /* \"Farm.sol\":28002:28020  _transferOwnership */\n  shl(0x20, tag_14)\n    /* \"Farm.sol\":28002:28034  _transferOwnership(_msgSender()) */\n  0x20\n  shr\n  jump\t// in\ntag_11:\n    /* \"Farm.sol\":30630:30644  _nftCollection */\n  dup3\n    /* \"Farm.sol\":30614:30627  nftCollection */\n  0x03\n  0x00\n    /* \"Farm.sol\":30614:30644  nftCollection = _nftCollection */\n  0x0100\n  exp\n  dup2\n  sload\n  dup2\n  0xffffffffffffffffffffffffffffffffffffffff\n  mul\n  not\n  and\n  swap1\n  dup4\n  0xffffffffffffffffffffffffffffffffffffffff\n  and\n  mul\n  or\n  swap1\n  sstore\n  pop\n    /* \"Farm.sol\":30670:30683  _rewardsToken */\n  dup2\n    /* \"Farm.sol\":30655:30667  rewardsToken */\n  0x02\n  0x00\n    /* \"Farm.sol\":30655:30683  rewardsToken = _rewardsToken */\n  0x0100\n  exp\n  dup2\n  sload\n  dup2\n  0xffffffffffffffffffffffffffffffffffffffff\n  mul\n  not\n  and\n  swap1\n  dup4\n  0xffffffffffffffffffffffffffffffffffffffff\n  and\n  mul\n  or\n  swap1\n  sstore\n  pop\n    /* \"Farm.sol\":30711:30726  _rewardsPerHour */\n  dup1\n    /* \"Farm.sol\":30694:30708  rewardsPerHour */\n  0x04\n    /* \"Farm.sol\":30694:30726  rewardsPerHour = _rewardsPerHour */\n  dup2\n  swap1\n  sstore\n  pop\n    /* \"Farm.sol\":30520:30734  constructor(IERC721 _nftCollection, IERC20 _rewardsToken, uint256 _rewardsPerHour) {\r... */\n  pop\n  pop\n  pop\n    /* \"Farm.sol\":29748:33162  contract Farm is ReentrancyGuard, Pausable, Ownable, IERC721Receiver {\r... */\n  jump(tag_16)\n    /* \"Farm.sol\":15568:15666  function _msgSender() internal view virtual returns (address) {\r... */\ntag_13:\n    /* \"Farm.sol\":15621:15628  address */\n  0x00\n    /* \"Farm.sol\":15648:15658  msg.sender */\n  caller\n    /* \"Farm.sol\":15641:15658  return msg.sender */\n  swap1\n  pop\n    /* \"Farm.sol\":15568:15666  function _msgSender() internal view virtual returns (address) {\r... */\n  swap1\n  jump\t// out\n    /* \"Farm.sol\":29548:29739  function _transferOwnership(address newOwner) internal virtual {\r... */\ntag_14:\n    /* \"Farm.sol\":29622:29638  address oldOwner */\n  0x00\n    /* \"Farm.sol\":29641:29647  _owner */\n  0x01\n  dup1\n  sload\n  swap1\n  0x0100\n  exp\n  swap1\n  div\n  0xffffffffffffffffffffffffffffffffffffffff\n  and\n    /* \"Farm.sol\":29622:29647  address oldOwner = _owner */\n  swap1\n  pop\n    /* \"Farm.sol\":29667:29675  newOwner */\n  dup2\n    /* \"Farm.sol\":29658:29664  _owner */\n  0x01\n  dup1\n    /* \"Farm.sol\":29658:29675  _owner = newOwner */\n  0x0100\n  exp\n  dup2\n  sload\n  dup2\n  0xffffffffffffffffffffffffffffffffffffffff\n  mul\n  not\n  and\n  swap1\n  dup4\n  0xffffffffffffffffffffffffffffffffffffffff\n  and\n  mul\n  or\n  swap1\n  sstore\n  pop\n    /* \"Farm.sol\":29722:29730  newOwner */\n  dup2\n    /* \"Farm.sol\":29691:29731  OwnershipTransferred(oldOwner, newOwner) */\n  0xffffffffffffffffffffffffffffffffffffffff\n  and\n    /* \"Farm.sol\":29712:29720  oldOwner */\n  dup2\n    /* \"Farm.sol\":29691:29731  OwnershipTransferred(oldOwner, newOwner) */\n  0xffffffffffffffffffffffffffffffffffffffff\n  and\n  0x8be0079c531659141344cd1fd0a4f28419497f9722a3daafe3b4186f6b6457e0\n  mload(0x40)\n  mload(0x40)\n  dup1\n  swap2\n  sub\n  swap1\n  log3\n    /* \"Farm.sol\":29611:29739  {\r... */\n  pop\n    /* \"Farm.sol\":29548:29739  function _transferOwnership(address newOwner) internal virtual {\r... */\n  pop\n  jump\t// out\n    /* \"#utility.yul\":7:178   */\ntag_20:\n    /* \"#utility.yul\":78:83   */\n  0x00\n    /* \"#utility.yul\":109:115   */\n  dup2\n    /* \"#utility.yul\":103:116   */\n  mload\n    /* \"#utility.yul\":94:116   */\n  swap1\n  pop\n    /* \"#utility.yul\":125:172   */\n  tag_22\n    /* \"#utility.yul\":166:171   */\n  dup2\n    /* \"#utility.yul\":125:172   */\n  tag_23\n  jump\t// in\ntag_22:\n    /* \"#utility.yul\":7:178   */\n  swap3\n  swap2\n  pop\n  pop\n  jump\t// out\n    /* \"#utility.yul\":184:357   */\ntag_24:\n    /* \"#utility.yul\":256:261   */\n  0x00\n    /* \"#utility.yul\":287:293   */\n  dup2\n    /* \"#utility.yul\":281:294   */\n  mload\n    /* \"#utility.yul\":272:294   */\n  swap1\n  pop\n    /* \"#utility.yul\":303:351   */\n  tag_26\n    /* \"#utility.yul\":345:350   */\n  dup2\n    /* \"#utility.yul\":303:351   */\n  tag_27\n  jump\t// in\ntag_26:\n    /* \"#utility.yul\":184:357   */\n  swap3\n  swap2\n  pop\n  pop\n  jump\t// out\n    /* \"#utility.yul\":363:506   */\ntag_28:\n    /* \"#utility.yul\":420:425   */\n  0x00\n    /* \"#utility.yul\":451:457   */\n  dup2\n    /* \"#utility.yul\":445:458   */\n  mload\n    /* \"#utility.yul\":436:458   */\n  swap1\n  pop\n    /* \"#utility.yul\":467:500   */\n  tag_30\n    /* \"#utility.yul\":494:499   */\n  dup2\n    /* \"#utility.yul\":467:500   */\n  tag_31\n  jump\t// in\ntag_30:\n    /* \"#utility.yul\":363:506   */\n  swap3\n  swap2\n  pop\n  pop\n  jump\t// out\n    /* \"#utility.yul\":512:1233   */\ntag_3:\n    /* \"#utility.yul\":629:635   */\n  0x00\n    /* \"#utility.yul\":637:643   */\n  dup1\n    /* \"#utility.yul\":645:651   */\n  0x00\n    /* \"#utility.yul\":694:696   */\n  0x60\n    /* \"#utility.yul\":682:691   */\n  dup5\n    /* \"#utility.yul\":673:680   */\n  dup7\n    /* \"#utility.yul\":669:692   */\n  sub\n    /* \"#utility.yul\":665:697   */\n  slt\n    /* \"#utility.yul\":662:781   */\n  iszero\n  tag_33\n  jumpi\n    /* \"#utility.yul\":700:779   */\n  tag_34\n  tag_35\n  jump\t// in\ntag_34:\n    /* \"#utility.yul\":662:781   */\ntag_33:\n    /* \"#utility.yul\":820:821   */\n  0x00\n    /* \"#utility.yul\":845:924   */\n  tag_36\n    /* \"#utility.yul\":916:923   */\n  dup7\n    /* \"#utility.yul\":907:913   */\n  dup3\n    /* \"#utility.yul\":896:905   */\n  dup8\n    /* \"#utility.yul\":892:914   */\n  add\n    /* \"#utility.yul\":845:924   */\n  tag_24\n  jump\t// in\ntag_36:\n    /* \"#utility.yul\":835:924   */\n  swap4\n  pop\n    /* \"#utility.yul\":791:934   */\n  pop\n    /* \"#utility.yul\":973:975   */\n  0x20\n    /* \"#utility.yul\":999:1077   */\n  tag_37\n    /* \"#utility.yul\":1069:1076   */\n  dup7\n    /* \"#utility.yul\":1060:1066   */\n  dup3\n    /* \"#utility.yul\":1049:1058   */\n  dup8\n    /* \"#utility.yul\":1045:1067   */\n  add\n    /* \"#utility.yul\":999:1077   */\n  tag_20\n  jump\t// in\ntag_37:\n    /* \"#utility.yul\":989:1077   */\n  swap3\n  pop\n    /* \"#utility.yul\":944:1087   */\n  pop\n    /* \"#utility.yul\":1126:1128   */\n  0x40\n    /* \"#utility.yul\":1152:1216   */\n  tag_38\n    /* \"#utility.yul\":1208:1215   */\n  dup7\n    /* \"#utility.yul\":1199:1205   */\n  dup3\n    /* \"#utility.yul\":1188:1197   */\n  dup8\n    /* \"#utility.yul\":1184:1206   */\n  add\n    /* \"#utility.yul\":1152:1216   */\n  tag_28\n  jump\t// in\ntag_38:\n    /* \"#utility.yul\":1142:1216   */\n  swap2\n  pop\n    /* \"#utility.yul\":1097:1226   */\n  pop\n    /* \"#utility.yul\":512:1233   */\n  swap3\n  pop\n  swap3\n  pop\n  swap3\n  jump\t// out\n    /* \"#utility.yul\":1320:1416   */\ntag_41:\n    /* \"#utility.yul\":1357:1364   */\n  0x00\n    /* \"#utility.yul\":1386:1410   */\n  tag_43\n    /* \"#utility.yul\":1404:1409   */\n  dup3\n    /* \"#utility.yul\":1386:1410   */\n  tag_44\n  jump\t// in\ntag_43:\n    /* \"#utility.yul\":1375:1410   */\n  swap1\n  pop\n    /* \"#utility.yul\":1320:1416   */\n  swap2\n  swap1\n  pop\n  jump\t// out\n    /* \"#utility.yul\":1422:1532   */\ntag_45:\n    /* \"#utility.yul\":1473:1480   */\n  0x00\n    /* \"#utility.yul\":1502:1526   */\n  tag_47\n    /* \"#utility.yul\":1520:1525   */\n  dup3\n    /* \"#utility.yul\":1502:1526   */\n  tag_41\n  jump\t// in\ntag_47:\n    /* \"#utility.yul\":1491:1526   */\n  swap1\n  pop\n    /* \"#utility.yul\":1422:1532   */\n  swap2\n  swap1\n  pop\n  jump\t// out\n    /* \"#utility.yul\":1538:1649   */\ntag_48:\n    /* \"#utility.yul\":1590:1597   */\n  0x00\n    /* \"#utility.yul\":1619:1643   */\n  tag_50\n    /* \"#utility.yul\":1637:1642   */\n  dup3\n    /* \"#utility.yul\":1619:1643   */\n  tag_41\n  jump\t// in\ntag_50:\n    /* \"#utility.yul\":1608:1643   */\n  swap1\n  pop\n    /* \"#utility.yul\":1538:1649   */\n  swap2\n  swap1\n  pop\n  jump\t// out\n    /* \"#utility.yul\":1655:1781   */\ntag_44:\n    /* \"#utility.yul\":1692:1699   */\n  0x00\n    /* \"#utility.yul\":1732:1774   */\n  0xffffffffffffffffffffffffffffffffffffffff\n    /* \"#utility.yul\":1725:1730   */\n  dup3\n    /* \"#utility.yul\":1721:1775   */\n  and\n    /* \"#utility.yul\":1710:1775   */\n  swap1\n  pop\n    /* \"#utility.yul\":1655:1781   */\n  swap2\n  swap1\n  pop\n  jump\t// out\n    /* \"#utility.yul\":1787:1864   */\ntag_52:\n    /* \"#utility.yul\":1824:1831   */\n  0x00\n    /* \"#utility.yul\":1853:1858   */\n  dup2\n    /* \"#utility.yul\":1842:1858   */\n  swap1\n  pop\n    /* \"#utility.yul\":1787:1864   */\n  swap2\n  swap1\n  pop\n  jump\t// out\n    /* \"#utility.yul\":1993:2110   */\ntag_35:\n    /* \"#utility.yul\":2102:2103   */\n  0x00\n    /* \"#utility.yul\":2099:2100   */\n  dup1\n    /* \"#utility.yul\":2092:2104   */\n  revert\n    /* \"#utility.yul\":2116:2266   */\ntag_23:\n    /* \"#utility.yul\":2203:2241   */\n  tag_58\n    /* \"#utility.yul\":2235:2240   */\n  dup2\n    /* \"#utility.yul\":2203:2241   */\n  tag_45\n  jump\t// in\ntag_58:\n    /* \"#utility.yul\":2196:2201   */\n  dup2\n    /* \"#utility.yul\":2193:2242   */\n  eq\n    /* \"#utility.yul\":2183:2260   */\n  tag_59\n  jumpi\n    /* \"#utility.yul\":2256:2257   */\n  0x00\n    /* \"#utility.yul\":2253:2254   */\n  dup1\n    /* \"#utility.yul\":2246:2258   */\n  revert\n    /* \"#utility.yul\":2183:2260   */\ntag_59:\n    /* \"#utility.yul\":2116:2266   */\n  pop\n  jump\t// out\n    /* \"#utility.yul\":2272:2424   */\ntag_27:\n    /* \"#utility.yul\":2360:2399   */\n  tag_61\n    /* \"#utility.yul\":2393:2398   */\n  dup2\n    /* \"#utility.yul\":2360:2399   */\n  tag_48\n  jump\t// in\ntag_61:\n    /* \"#utility.yul\":2353:2358   */\n  dup2\n    /* \"#utility.yul\":2350:2400   */\n  eq\n    /* \"#utility.yul\":2340:2418   */\n  tag_62\n  jumpi\n    /* \"#utility.yul\":2414:2415   */\n  0x00\n    /* \"#utility.yul\":2411:2412   */\n  dup1\n    /* \"#utility.yul\":2404:2416   */\n  revert\n    /* \"#utility.yul\":2340:2418   */\ntag_62:\n    /* \"#utility.yul\":2272:2424   */\n  pop\n  jump\t// out\n    /* \"#utility.yul\":2430:2552   */\ntag_31:\n    /* \"#utility.yul\":2503:2527   */\n  tag_64\n    /* \"#utility.yul\":2521:2526   */\n  dup2\n    /* \"#utility.yul\":2503:2527   */\n  tag_52\n  jump\t// in\ntag_64:\n    /* \"#utility.yul\":2496:2501   */\n  dup2\n    /* \"#utility.yul\":2493:2528   */\n  eq\n    /* \"#utility.yul\":2483:2546   */\n  tag_65\n  jumpi\n    /* \"#utility.yul\":2542:2543   */\n  0x00\n    /* \"#utility.yul\":2539:2540   */\n  dup1\n    /* \"#utility.yul\":2532:2544   */\n  revert\n    /* \"#utility.yul\":2483:2546   */\ntag_65:\n    /* \"#utility.yul\":2430:2552   */\n  pop\n  jump\t// out\n    /* \"Farm.sol\":29748:33162  contract Farm is ReentrancyGuard, Pausable, Ownable, IERC721Receiver {\r... */\ntag_16:\n  dataSize(sub_0)\n  dup1\n  dataOffset(sub_0)\n  0x00\n  codecopy\n  0x00\n  return\nstop\n\nsub_0: assembly {\n        /* \"Farm.sol\":29748:33162  contract Farm is ReentrancyGuard, Pausable, Ownable, IERC721Receiver {\r... */\n      mstore(0x40, 0x80)\n      callvalue\n      dup1\n      iszero\n      tag_1\n      jumpi\n      0x00\n      dup1\n      revert\n    tag_1:\n      pop\n      jumpi(tag_2, lt(calldatasize, 0x04))\n      shr(0xe0, calldataload(0x00))\n      dup1\n      0x8da5cb5b\n      gt\n      tag_14\n      jumpi\n      dup1\n      0x8da5cb5b\n      eq\n      tag_8\n      jumpi\n      dup1\n      0x9168ae72\n      eq\n      tag_9\n      jumpi\n      dup1\n      0x94067045\n      eq\n      tag_10\n      jumpi\n      dup1\n      0xa694fc3a\n      eq\n      tag_11\n      jumpi\n      dup1\n      0xd1af0c7d\n      eq\n      tag_12\n      jumpi\n      dup1\n      0xf2fde38b\n      eq\n      tag_13\n      jumpi\n      jump(tag_2)\n    tag_14:\n      dup1\n      0x150b7a02\n      eq\n      tag_3\n      jumpi\n      dup1\n      0x2e1a7d4d\n      eq\n      tag_4\n      jumpi\n      dup1\n      0x5c975abb\n      eq\n      tag_5\n      jumpi\n      dup1\n      0x6588103b\n      eq\n      tag_6\n      jumpi\n      dup1\n      0x715018a6\n      eq\n      tag_7\n      jumpi\n    tag_2:\n      0x00\n      dup1\n      revert\n        /* \"Farm.sol\":30742:31013  function onERC721Received(\r... */\n    tag_3:\n      tag_15\n      0x04\n      dup1\n      calldatasize\n      sub\n      dup2\n      add\n      swap1\n      tag_16\n      swap2\n      swap1\n      tag_17\n      jump\t// in\n    tag_16:\n      tag_18\n      jump\t// in\n    tag_15:\n      mload(0x40)\n      tag_19\n      swap2\n      swap1\n      tag_20\n      jump\t// in\n    tag_19:\n      mload(0x40)\n      dup1\n      swap2\n      sub\n      swap1\n      return\n        /* \"Farm.sol\":31785:32849  function withdraw(uint256 _tokenId) external nonReentrant {\r... */\n    tag_4:\n      tag_21\n      0x04\n      dup1\n      calldatasize\n      sub\n      dup2\n      add\n      swap1\n      tag_22\n      swap2\n      swap1\n      tag_23\n      jump\t// in\n    tag_22:\n      tag_24\n      jump\t// in\n    tag_21:\n      stop\n        /* \"Farm.sol\":16842:16928  function paused() public view virtual returns (bool) {\r... */\n    tag_5:\n      tag_25\n      tag_26\n      jump\t// in\n    tag_25:\n      mload(0x40)\n      tag_27\n      swap2\n      swap1\n      tag_28\n      jump\t// in\n    tag_27:\n      mload(0x40)\n      dup1\n      swap2\n      sub\n      swap1\n      return\n        /* \"Farm.sol\":30197:30225  IERC721 public nftCollection */\n    tag_6:\n      tag_29\n      tag_30\n      jump\t// in\n    tag_29:\n      mload(0x40)\n      tag_31\n      swap2\n      swap1\n      tag_32\n      jump\t// in\n    tag_31:\n      mload(0x40)\n      dup1\n      swap2\n      sub\n      swap1\n      return\n        /* \"Farm.sol\":28929:29032  function renounceOwnership() public virtual onlyOwner {\r... */\n    tag_7:\n      tag_33\n      tag_34\n      jump\t// in\n    tag_33:\n      stop\n        /* \"Farm.sol\":28281:28368  function owner() public view virtual returns (address) {\r... */\n    tag_8:\n      tag_35\n      tag_36\n      jump\t// in\n    tag_35:\n      mload(0x40)\n      tag_37\n      swap2\n      swap1\n      tag_38\n      jump\t// in\n    tag_37:\n      mload(0x40)\n      dup1\n      swap2\n      sub\n      swap1\n      return\n        /* \"Farm.sol\":30336:30377  mapping(address => Staker) public stakers */\n    tag_9:\n      tag_39\n      0x04\n      dup1\n      calldatasize\n      sub\n      dup2\n      add\n      swap1\n      tag_40\n      swap2\n      swap1\n      tag_41\n      jump\t// in\n    tag_40:\n      tag_42\n      jump\t// in\n    tag_39:\n      mload(0x40)\n      tag_43\n      swap4\n      swap3\n      swap2\n      swap1\n      tag_44\n      jump\t// in\n    tag_43:\n      mload(0x40)\n      dup1\n      swap2\n      sub\n      swap1\n      return\n        /* \"Farm.sol\":30463:30511  mapping(uint256 => address) public stakerAddress */\n    tag_10:\n      tag_45\n      0x04\n      dup1\n      calldatasize\n      sub\n      dup2\n      add\n      swap1\n      tag_46\n      swap2\n      swap1\n      tag_23\n      jump\t// in\n    tag_46:\n      tag_47\n      jump\t// in\n    tag_45:\n      mload(0x40)\n      tag_48\n      swap2\n      swap1\n      tag_38\n      jump\t// in\n    tag_48:\n      mload(0x40)\n      dup1\n      swap2\n      sub\n      swap1\n      return\n        /* \"Farm.sol\":31021:31777  function stake(uint256 _tokenId) external nonReentrant {\r... */\n    tag_11:\n      tag_49\n      0x04\n      dup1\n      calldatasize\n      sub\n      dup2\n      add\n      swap1\n      tag_50\n      swap2\n      swap1\n      tag_23\n      jump\t// in\n    tag_50:\n      tag_51\n      jump\t// in\n    tag_49:\n      stop\n        /* \"Farm.sol\":30164:30190  IERC20 public rewardsToken */\n    tag_12:\n      tag_52\n      tag_53\n      jump\t// in\n    tag_52:\n      mload(0x40)\n      tag_54\n      swap2\n      swap1\n      tag_55\n      jump\t// in\n    tag_54:\n      mload(0x40)\n      dup1\n      swap2\n      sub\n      swap1\n      return\n        /* \"Farm.sol\":29187:29388  function transferOwnership(address newOwner) public virtual onlyOwner {\r... */\n    tag_13:\n      tag_56\n      0x04\n      dup1\n      calldatasize\n      sub\n      dup2\n      add\n      swap1\n      tag_57\n      swap2\n      swap1\n      tag_41\n      jump\t// in\n    tag_57:\n      tag_58\n      jump\t// in\n    tag_56:\n      stop\n        /* \"Farm.sol\":30742:31013  function onERC721Received(\r... */\n    tag_18:\n        /* \"Farm.sol\":30913:30919  bytes4 */\n      0x00\n        /* \"Farm.sol\":30973:30981  operator */\n      dup6\n        /* \"Farm.sol\":30983:30987  from */\n      dup6\n        /* \"Farm.sol\":30989:30996  tokenId */\n      dup6\n        /* \"Farm.sol\":30998:31002  data */\n      dup6\n      dup6\n        /* \"Farm.sol\":30956:31003  abi.encodePacked(operator, from, tokenId, data) */\n      add(0x20, mload(0x40))\n      tag_60\n      swap6\n      swap5\n      swap4\n      swap3\n      swap2\n      swap1\n      tag_61\n      jump\t// in\n    tag_60:\n      mload(0x40)\n      0x20\n      dup2\n      dup4\n      sub\n      sub\n      dup2\n      mstore\n      swap1\n      0x40\n      mstore\n        /* \"Farm.sol\":30946:31004  keccak256(abi.encodePacked(operator, from, tokenId, data)) */\n      dup1\n      mload\n      swap1\n      0x20\n      add\n      keccak256\n        /* \"Farm.sol\":30932:31005  return bytes4(keccak256(abi.encodePacked(operator, from, tokenId, data))) */\n      swap1\n      pop\n        /* \"Farm.sol\":30742:31013  function onERC721Received(\r... */\n      swap6\n      swap5\n      pop\n      pop\n      pop\n      pop\n      pop\n      jump\t// out\n        /* \"Farm.sol\":31785:32849  function withdraw(uint256 _tokenId) external nonReentrant {\r... */\n    tag_24:\n        /* \"Farm.sol\":19226:19247  _nonReentrantBefore() */\n      tag_63\n        /* \"Farm.sol\":19226:19245  _nonReentrantBefore */\n      tag_64\n        /* \"Farm.sol\":19226:19247  _nonReentrantBefore() */\n      jump\t// in\n    tag_63:\n        /* \"Farm.sol\":31911:31912  0 */\n      0x00\n        /* \"Farm.sol\":31876:31883  stakers */\n      0x05\n        /* \"Farm.sol\":31876:31895  stakers[msg.sender] */\n      0x00\n        /* \"Farm.sol\":31884:31894  msg.sender */\n      caller\n        /* \"Farm.sol\":31876:31895  stakers[msg.sender] */\n      0xffffffffffffffffffffffffffffffffffffffff\n      and\n      0xffffffffffffffffffffffffffffffffffffffff\n      and\n      dup2\n      mstore\n      0x20\n      add\n      swap1\n      dup2\n      mstore\n      0x20\n      add\n      0x00\n      keccak256\n        /* \"Farm.sol\":31876:31908  stakers[msg.sender].amountStaked */\n      0x00\n      add\n      sload\n        /* \"Farm.sol\":31876:31912  stakers[msg.sender].amountStaked > 0 */\n      gt\n        /* \"Farm.sol\":31854:31965  require(\r... */\n      tag_66\n      jumpi\n      mload(0x40)\n      0x08c379a000000000000000000000000000000000000000000000000000000000\n      dup2\n      mstore\n      0x04\n      add\n      tag_67\n      swap1\n      tag_68\n      jump\t// in\n    tag_67:\n      mload(0x40)\n      dup1\n      swap2\n      sub\n      swap1\n      revert\n    tag_66:\n        /* \"Farm.sol\":32011:32021  msg.sender */\n      caller\n        /* \"Farm.sol\":31984:32021  stakerAddress[_tokenId] == msg.sender */\n      0xffffffffffffffffffffffffffffffffffffffff\n      and\n        /* \"Farm.sol\":31984:31997  stakerAddress */\n      0x06\n        /* \"Farm.sol\":31984:32007  stakerAddress[_tokenId] */\n      0x00\n        /* \"Farm.sol\":31998:32006  _tokenId */\n      dup4\n        /* \"Farm.sol\":31984:32007  stakerAddress[_tokenId] */\n      dup2\n      mstore\n      0x20\n      add\n      swap1\n      dup2\n      mstore\n      0x20\n      add\n      0x00\n      keccak256\n      0x00\n      swap1\n      sload\n      swap1\n      0x0100\n      exp\n      swap1\n      div\n      0xffffffffffffffffffffffffffffffffffffffff\n      and\n        /* \"Farm.sol\":31984:32021  stakerAddress[_tokenId] == msg.sender */\n      0xffffffffffffffffffffffffffffffffffffffff\n      and\n      eq\n        /* \"Farm.sol\":31976:32051  require(stakerAddress[_tokenId] == msg.sender, \"You don't own this token!\") */\n      tag_69\n      jumpi\n      mload(0x40)\n      0x08c379a000000000000000000000000000000000000000000000000000000000\n      dup2\n      mstore\n      0x04\n      add\n      tag_70\n      swap1\n      tag_71\n      jump\t// in\n    tag_70:\n      mload(0x40)\n      dup1\n      swap2\n      sub\n      swap1\n      revert\n    tag_69:\n        /* \"Farm.sol\":32163:32178  uint256 rewards */\n      0x00\n        /* \"Farm.sol\":32181:32209  calculateRewards(msg.sender) */\n      tag_72\n        /* \"Farm.sol\":32198:32208  msg.sender */\n      caller\n        /* \"Farm.sol\":32181:32197  calculateRewards */\n      tag_73\n        /* \"Farm.sol\":32181:32209  calculateRewards(msg.sender) */\n      jump\t// in\n    tag_72:\n        /* \"Farm.sol\":32163:32209  uint256 rewards = calculateRewards(msg.sender) */\n      swap1\n      pop\n        /* \"Farm.sol\":32260:32267  rewards */\n      dup1\n        /* \"Farm.sol\":32220:32227  stakers */\n      0x05\n        /* \"Farm.sol\":32220:32239  stakers[msg.sender] */\n      0x00\n        /* \"Farm.sol\":32228:32238  msg.sender */\n      caller\n        /* \"Farm.sol\":32220:32239  stakers[msg.sender] */\n      0xffffffffffffffffffffffffffffffffffffffff\n      and\n      0xffffffffffffffffffffffffffffffffffffffff\n      and\n      dup2\n      mstore\n      0x20\n      add\n      swap1\n      dup2\n      mstore\n      0x20\n      add\n      0x00\n      keccak256\n        /* \"Farm.sol\":32220:32256  stakers[msg.sender].unclaimedRewards */\n      0x03\n      add\n      0x00\n        /* \"Farm.sol\":32220:32267  stakers[msg.sender].unclaimedRewards += rewards */\n      dup3\n      dup3\n      sload\n      tag_74\n      swap2\n      swap1\n      tag_75\n      jump\t// in\n    tag_74:\n      swap3\n      pop\n      pop\n      dup2\n      swap1\n      sstore\n      pop\n        /* \"Farm.sol\":32282:32295  uint256 index */\n      0x00\n        /* \"Farm.sol\":32315:32324  uint256 i */\n      dup1\n        /* \"Farm.sol\":32310:32535  for (uint256 i = 0; i < stakers[msg.sender].stakedTokens.length; i++) {\r... */\n    tag_76:\n        /* \"Farm.sol\":32334:32341  stakers */\n      0x05\n        /* \"Farm.sol\":32334:32353  stakers[msg.sender] */\n      0x00\n        /* \"Farm.sol\":32342:32352  msg.sender */\n      caller\n        /* \"Farm.sol\":32334:32353  stakers[msg.sender] */\n      0xffffffffffffffffffffffffffffffffffffffff\n      and\n      0xffffffffffffffffffffffffffffffffffffffff\n      and\n      dup2\n      mstore\n      0x20\n      add\n      swap1\n      dup2\n      mstore\n      0x20\n      add\n      0x00\n      keccak256\n        /* \"Farm.sol\":32334:32366  stakers[msg.sender].stakedTokens */\n      0x01\n      add\n        /* \"Farm.sol\":32334:32373  stakers[msg.sender].stakedTokens.length */\n      dup1\n      sload\n      swap1\n      pop\n        /* \"Farm.sol\":32330:32331  i */\n      dup2\n        /* \"Farm.sol\":32330:32373  i < stakers[msg.sender].stakedTokens.length */\n      lt\n        /* \"Farm.sol\":32310:32535  for (uint256 i = 0; i < stakers[msg.sender].stakedTokens.length; i++) {\r... */\n      iszero\n      tag_77\n      jumpi\n        /* \"Farm.sol\":32446:32454  _tokenId */\n      dup4\n        /* \"Farm.sol\":32399:32406  stakers */\n      0x05\n        /* \"Farm.sol\":32399:32418  stakers[msg.sender] */\n      0x00\n        /* \"Farm.sol\":32407:32417  msg.sender */\n      caller\n        /* \"Farm.sol\":32399:32418  stakers[msg.sender] */\n      0xffffffffffffffffffffffffffffffffffffffff\n      and\n      0xffffffffffffffffffffffffffffffffffffffff\n      and\n      dup2\n      mstore\n      0x20\n      add\n      swap1\n      dup2\n      mstore\n      0x20\n      add\n      0x00\n      keccak256\n        /* \"Farm.sol\":32399:32431  stakers[msg.sender].stakedTokens */\n      0x01\n      add\n        /* \"Farm.sol\":32432:32433  i */\n      dup3\n        /* \"Farm.sol\":32399:32434  stakers[msg.sender].stakedTokens[i] */\n      dup2\n      sload\n      dup2\n      lt\n      tag_79\n      jumpi\n      tag_80\n      tag_81\n      jump\t// in\n    tag_80:\n    tag_79:\n      swap1\n      0x00\n      mstore\n      keccak256(0x00, 0x20)\n      swap1\n      0x02\n      mul\n      add\n        /* \"Farm.sol\":32399:32442  stakers[msg.sender].stakedTokens[i].tokenId */\n      0x01\n      add\n      sload\n        /* \"Farm.sol\":32399:32454  stakers[msg.sender].stakedTokens[i].tokenId == _tokenId */\n      eq\n        /* \"Farm.sol\":32395:32524  if (stakers[msg.sender].stakedTokens[i].tokenId == _tokenId) {\r... */\n      iszero\n      tag_83\n      jumpi\n        /* \"Farm.sol\":32483:32484  i */\n      dup1\n        /* \"Farm.sol\":32475:32484  index = i */\n      swap2\n      pop\n        /* \"Farm.sol\":32503:32508  break */\n      jump(tag_77)\n        /* \"Farm.sol\":32395:32524  if (stakers[msg.sender].stakedTokens[i].tokenId == _tokenId) {\r... */\n    tag_83:\n        /* \"Farm.sol\":32375:32378  i++ */\n      dup1\n      dup1\n      tag_84\n      swap1\n      tag_85\n      jump\t// in\n    tag_84:\n      swap2\n      pop\n      pop\n        /* \"Farm.sol\":32310:32535  for (uint256 i = 0; i < stakers[msg.sender].stakedTokens.length; i++) {\r... */\n      jump(tag_76)\n    tag_77:\n      pop\n        /* \"Farm.sol\":32606:32607  0 */\n      0x00\n        /* \"Farm.sol\":32549:32556  stakers */\n      0x05\n        /* \"Farm.sol\":32549:32568  stakers[msg.sender] */\n      0x00\n        /* \"Farm.sol\":32557:32567  msg.sender */\n      caller\n        /* \"Farm.sol\":32549:32568  stakers[msg.sender] */\n      0xffffffffffffffffffffffffffffffffffffffff\n      and\n      0xffffffffffffffffffffffffffffffffffffffff\n      and\n      dup2\n      mstore\n      0x20\n      add\n      swap1\n      dup2\n      mstore\n      0x20\n      add\n      0x00\n      keccak256\n        /* \"Farm.sol\":32549:32581  stakers[msg.sender].stakedTokens */\n      0x01\n      add\n        /* \"Farm.sol\":32582:32587  index */\n      dup3\n        /* \"Farm.sol\":32549:32588  stakers[msg.sender].stakedTokens[index] */\n      dup2\n      sload\n      dup2\n      lt\n      tag_86\n      jumpi\n      tag_87\n      tag_81\n      jump\t// in\n    tag_87:\n    tag_86:\n      swap1\n      0x00\n      mstore\n      keccak256(0x00, 0x20)\n      swap1\n      0x02\n      mul\n      add\n        /* \"Farm.sol\":32549:32595  stakers[msg.sender].stakedTokens[index].staker */\n      0x00\n      add\n      0x00\n        /* \"Farm.sol\":32549:32608  stakers[msg.sender].stakedTokens[index].staker = address(0) */\n      0x0100\n      exp\n      dup2\n      sload\n      dup2\n      0xffffffffffffffffffffffffffffffffffffffff\n      mul\n      not\n      and\n      swap1\n      dup4\n      0xffffffffffffffffffffffffffffffffffffffff\n      and\n      mul\n      or\n      swap1\n      sstore\n      pop\n        /* \"Farm.sol\":32619:32626  stakers */\n      0x05\n        /* \"Farm.sol\":32619:32638  stakers[msg.sender] */\n      0x00\n        /* \"Farm.sol\":32627:32637  msg.sender */\n      caller\n        /* \"Farm.sol\":32619:32638  stakers[msg.sender] */\n      0xffffffffffffffffffffffffffffffffffffffff\n      and\n      0xffffffffffffffffffffffffffffffffffffffff\n      and\n      dup2\n      mstore\n      0x20\n      add\n      swap1\n      dup2\n      mstore\n      0x20\n      add\n      0x00\n      keccak256\n        /* \"Farm.sol\":32619:32651  stakers[msg.sender].amountStaked */\n      0x00\n      add\n      0x00\n        /* \"Farm.sol\":32619:32653  stakers[msg.sender].amountStaked-- */\n      dup2\n      sload\n      dup1\n      swap3\n      swap2\n      swap1\n      tag_89\n      swap1\n      tag_90\n      jump\t// in\n    tag_89:\n      swap2\n      swap1\n      pop\n      sstore\n      pop\n        /* \"Farm.sol\":32698:32699  0 */\n      0x00\n        /* \"Farm.sol\":32664:32677  stakerAddress */\n      0x06\n        /* \"Farm.sol\":32664:32687  stakerAddress[_tokenId] */\n      0x00\n        /* \"Farm.sol\":32678:32686  _tokenId */\n      dup6\n        /* \"Farm.sol\":32664:32687  stakerAddress[_tokenId] */\n      dup2\n      mstore\n      0x20\n      add\n      swap1\n      dup2\n      mstore\n      0x20\n      add\n      0x00\n      keccak256\n      0x00\n        /* \"Farm.sol\":32664:32700  stakerAddress[_tokenId] = address(0) */\n      0x0100\n      exp\n      dup2\n      sload\n      dup2\n      0xffffffffffffffffffffffffffffffffffffffff\n      mul\n      not\n      and\n      swap1\n      dup4\n      0xffffffffffffffffffffffffffffffffffffffff\n      and\n      mul\n      or\n      swap1\n      sstore\n      pop\n        /* \"Farm.sol\":32713:32726  nftCollection */\n      0x03\n      0x00\n      swap1\n      sload\n      swap1\n      0x0100\n      exp\n      swap1\n      div\n      0xffffffffffffffffffffffffffffffffffffffff\n      and\n        /* \"Farm.sol\":32713:32739  nftCollection.transferFrom */\n      0xffffffffffffffffffffffffffffffffffffffff\n      and\n      0x23b872dd\n        /* \"Farm.sol\":32748:32752  this */\n      address\n        /* \"Farm.sol\":32755:32765  msg.sender */\n      caller\n        /* \"Farm.sol\":32767:32775  _tokenId */\n      dup7\n        /* \"Farm.sol\":32713:32776  nftCollection.transferFrom(address(this), msg.sender, _tokenId) */\n      mload(0x40)\n      dup5\n      0xffffffff\n      and\n      0xe0\n      shl\n      dup2\n      mstore\n      0x04\n      add\n      tag_91\n      swap4\n      swap3\n      swap2\n      swap1\n      tag_92\n      jump\t// in\n    tag_91:\n      0x00\n      mload(0x40)\n      dup1\n      dup4\n      sub\n      dup2\n      0x00\n      dup8\n      dup1\n      extcodesize\n      iszero\n      dup1\n      iszero\n      tag_93\n      jumpi\n      0x00\n      dup1\n      revert\n    tag_93:\n      pop\n      gas\n      call\n      iszero\n      dup1\n      iszero\n      tag_95\n      jumpi\n      returndatasize\n      0x00\n      dup1\n      returndatacopy\n      revert(0x00, returndatasize)\n    tag_95:\n      pop\n      pop\n      pop\n      pop\n        /* \"Farm.sol\":32826:32841  block.timestamp */\n      timestamp\n        /* \"Farm.sol\":32787:32794  stakers */\n      0x05\n        /* \"Farm.sol\":32787:32806  stakers[msg.sender] */\n      0x00\n        /* \"Farm.sol\":32795:32805  msg.sender */\n      caller\n        /* \"Farm.sol\":32787:32806  stakers[msg.sender] */\n      0xffffffffffffffffffffffffffffffffffffffff\n      and\n      0xffffffffffffffffffffffffffffffffffffffff\n      and\n      dup2\n      mstore\n      0x20\n      add\n      swap1\n      dup2\n      mstore\n      0x20\n      add\n      0x00\n      keccak256\n        /* \"Farm.sol\":32787:32823  stakers[msg.sender].timeOfLastUpdate */\n      0x02\n      add\n        /* \"Farm.sol\":32787:32841  stakers[msg.sender].timeOfLastUpdate = block.timestamp */\n      dup2\n      swap1\n      sstore\n      pop\n        /* \"Farm.sol\":31843:32849  {\r... */\n      pop\n      pop\n        /* \"Farm.sol\":19270:19290  _nonReentrantAfter() */\n      tag_96\n        /* \"Farm.sol\":19270:19288  _nonReentrantAfter */\n      tag_97\n        /* \"Farm.sol\":19270:19290  _nonReentrantAfter() */\n      jump\t// in\n    tag_96:\n        /* \"Farm.sol\":31785:32849  function withdraw(uint256 _tokenId) external nonReentrant {\r... */\n      pop\n      jump\t// out\n        /* \"Farm.sol\":16842:16928  function paused() public view virtual returns (bool) {\r... */\n    tag_26:\n        /* \"Farm.sol\":16889:16893  bool */\n      0x00\n        /* \"Farm.sol\":16913:16920  _paused */\n      0x01\n      0x00\n      swap1\n      sload\n      swap1\n      0x0100\n      exp\n      swap1\n      div\n      0xff\n      and\n        /* \"Farm.sol\":16906:16920  return _paused */\n      swap1\n      pop\n        /* \"Farm.sol\":16842:16928  function paused() public view virtual returns (bool) {\r... */\n      swap1\n      jump\t// out\n        /* \"Farm.sol\":30197:30225  IERC721 public nftCollection */\n    tag_30:\n      0x03\n      0x00\n      swap1\n      sload\n      swap1\n      0x0100\n      exp\n      swap1\n      div\n      0xffffffffffffffffffffffffffffffffffffffff\n      and\n      dup2\n      jump\t// out\n        /* \"Farm.sol\":28929:29032  function renounceOwnership() public virtual onlyOwner {\r... */\n    tag_34:\n        /* \"Farm.sol\":28167:28180  _checkOwner() */\n      tag_100\n        /* \"Farm.sol\":28167:28178  _checkOwner */\n      tag_101\n        /* \"Farm.sol\":28167:28180  _checkOwner() */\n      jump\t// in\n    tag_100:\n        /* \"Farm.sol\":28994:29024  _transferOwnership(address(0)) */\n      tag_103\n        /* \"Farm.sol\":29021:29022  0 */\n      0x00\n        /* \"Farm.sol\":28994:29012  _transferOwnership */\n      tag_104\n        /* \"Farm.sol\":28994:29024  _transferOwnership(address(0)) */\n      jump\t// in\n    tag_103:\n        /* \"Farm.sol\":28929:29032  function renounceOwnership() public virtual onlyOwner {\r... */\n      jump\t// out\n        /* \"Farm.sol\":28281:28368  function owner() public view virtual returns (address) {\r... */\n    tag_36:\n        /* \"Farm.sol\":28327:28334  address */\n      0x00\n        /* \"Farm.sol\":28354:28360  _owner */\n      0x01\n      dup1\n      sload\n      swap1\n      0x0100\n      exp\n      swap1\n      div\n      0xffffffffffffffffffffffffffffffffffffffff\n      and\n        /* \"Farm.sol\":28347:28360  return _owner */\n      swap1\n      pop\n        /* \"Farm.sol\":28281:28368  function owner() public view virtual returns (address) {\r... */\n      swap1\n      jump\t// out\n        /* \"Farm.sol\":30336:30377  mapping(address => Staker) public stakers */\n    tag_42:\n      mstore(0x20, 0x05)\n      dup1\n      0x00\n      mstore\n      keccak256(0x00, 0x40)\n      0x00\n      swap2\n      pop\n      swap1\n      pop\n      dup1\n      0x00\n      add\n      sload\n      swap1\n      dup1\n      0x02\n      add\n      sload\n      swap1\n      dup1\n      0x03\n      add\n      sload\n      swap1\n      pop\n      dup4\n      jump\t// out\n        /* \"Farm.sol\":30463:30511  mapping(uint256 => address) public stakerAddress */\n    tag_47:\n      mstore(0x20, 0x06)\n      dup1\n      0x00\n      mstore\n      keccak256(0x00, 0x40)\n      0x00\n      swap2\n      pop\n      sload\n      swap1\n      0x0100\n      exp\n      swap1\n      div\n      0xffffffffffffffffffffffffffffffffffffffff\n      and\n      dup2\n      jump\t// out\n        /* \"Farm.sol\":31021:31777  function stake(uint256 _tokenId) external nonReentrant {\r... */\n    tag_51:\n        /* \"Farm.sol\":19226:19247  _nonReentrantBefore() */\n      tag_107\n        /* \"Farm.sol\":19226:19245  _nonReentrantBefore */\n      tag_64\n        /* \"Farm.sol\":19226:19247  _nonReentrantBefore() */\n      jump\t// in\n    tag_107:\n        /* \"Farm.sol\":31144:31154  msg.sender */\n      caller\n        /* \"Farm.sol\":31109:31154  nftCollection.ownerOf(_tokenId) == msg.sender */\n      0xffffffffffffffffffffffffffffffffffffffff\n      and\n        /* \"Farm.sol\":31109:31122  nftCollection */\n      0x03\n      0x00\n      swap1\n      sload\n      swap1\n      0x0100\n      exp\n      swap1\n      div\n      0xffffffffffffffffffffffffffffffffffffffff\n      and\n        /* \"Farm.sol\":31109:31130  nftCollection.ownerOf */\n      0xffffffffffffffffffffffffffffffffffffffff\n      and\n      0x6352211e\n        /* \"Farm.sol\":31131:31139  _tokenId */\n      dup4\n        /* \"Farm.sol\":31109:31140  nftCollection.ownerOf(_tokenId) */\n      mload(0x40)\n      dup3\n      0xffffffff\n      and\n      0xe0\n      shl\n      dup2\n      mstore\n      0x04\n      add\n      tag_109\n      swap2\n      swap1\n      tag_110\n      jump\t// in\n    tag_109:\n      0x20\n      mload(0x40)\n      dup1\n      dup4\n      sub\n      dup2\n      dup7\n      dup1\n      extcodesize\n      iszero\n      dup1\n      iszero\n      tag_111\n      jumpi\n      0x00\n      dup1\n      revert\n    tag_111:\n      pop\n      gas\n      staticcall\n      iszero\n      dup1\n      iszero\n      tag_113\n      jumpi\n      returndatasize\n      0x00\n      dup1\n      returndatacopy\n      revert(0x00, returndatasize)\n    tag_113:\n      pop\n      pop\n      pop\n      pop\n      mload(0x40)\n      returndatasize\n      not(0x1f)\n      0x1f\n      dup3\n      add\n      and\n      dup3\n      add\n      dup1\n      0x40\n      mstore\n      pop\n      dup2\n      add\n      swap1\n      tag_114\n      swap2\n      swap1\n      tag_115\n      jump\t// in\n    tag_114:\n        /* \"Farm.sol\":31109:31154  nftCollection.ownerOf(_tokenId) == msg.sender */\n      0xffffffffffffffffffffffffffffffffffffffff\n      and\n      eq\n        /* \"Farm.sol\":31087:31207  require(\r... */\n      tag_116\n      jumpi\n      mload(0x40)\n      0x08c379a000000000000000000000000000000000000000000000000000000000\n      dup2\n      mstore\n      0x04\n      add\n      tag_117\n      swap1\n      tag_71\n      jump\t// in\n    tag_117:\n      mload(0x40)\n      dup1\n      swap2\n      sub\n      swap1\n      revert\n    tag_116:\n        /* \"Farm.sol\":31259:31260  0 */\n      0x00\n        /* \"Farm.sol\":31224:31231  stakers */\n      0x05\n        /* \"Farm.sol\":31224:31243  stakers[msg.sender] */\n      0x00\n        /* \"Farm.sol\":31232:31242  msg.sender */\n      caller\n        /* \"Farm.sol\":31224:31243  stakers[msg.sender] */\n      0xffffffffffffffffffffffffffffffffffffffff\n      and\n      0xffffffffffffffffffffffffffffffffffffffff\n      and\n      dup2\n      mstore\n      0x20\n      add\n      swap1\n      dup2\n      mstore\n      0x20\n      add\n      0x00\n      keccak256\n        /* \"Farm.sol\":31224:31256  stakers[msg.sender].amountStaked */\n      0x00\n      add\n      sload\n        /* \"Farm.sol\":31224:31260  stakers[msg.sender].amountStaked > 0 */\n      gt\n        /* \"Farm.sol\":31220:31397  if (stakers[msg.sender].amountStaked > 0) {\r... */\n      iszero\n      tag_118\n      jumpi\n        /* \"Farm.sol\":31277:31292  uint256 rewards */\n      0x00\n        /* \"Farm.sol\":31295:31323  calculateRewards(msg.sender) */\n      tag_119\n        /* \"Farm.sol\":31312:31322  msg.sender */\n      caller\n        /* \"Farm.sol\":31295:31311  calculateRewards */\n      tag_73\n        /* \"Farm.sol\":31295:31323  calculateRewards(msg.sender) */\n      jump\t// in\n    tag_119:\n        /* \"Farm.sol\":31277:31323  uint256 rewards = calculateRewards(msg.sender) */\n      swap1\n      pop\n        /* \"Farm.sol\":31378:31385  rewards */\n      dup1\n        /* \"Farm.sol\":31338:31345  stakers */\n      0x05\n        /* \"Farm.sol\":31338:31357  stakers[msg.sender] */\n      0x00\n        /* \"Farm.sol\":31346:31356  msg.sender */\n      caller\n        /* \"Farm.sol\":31338:31357  stakers[msg.sender] */\n      0xffffffffffffffffffffffffffffffffffffffff\n      and\n      0xffffffffffffffffffffffffffffffffffffffff\n      and\n      dup2\n      mstore\n      0x20\n      add\n      swap1\n      dup2\n      mstore\n      0x20\n      add\n      0x00\n      keccak256\n        /* \"Farm.sol\":31338:31374  stakers[msg.sender].unclaimedRewards */\n      0x03\n      add\n      0x00\n        /* \"Farm.sol\":31338:31385  stakers[msg.sender].unclaimedRewards += rewards */\n      dup3\n      dup3\n      sload\n      tag_120\n      swap2\n      swap1\n      tag_75\n      jump\t// in\n    tag_120:\n      swap3\n      pop\n      pop\n      dup2\n      swap1\n      sstore\n      pop\n        /* \"Farm.sol\":31262:31397  {\r... */\n      pop\n        /* \"Farm.sol\":31220:31397  if (stakers[msg.sender].amountStaked > 0) {\r... */\n    tag_118:\n        /* \"Farm.sol\":31409:31422  nftCollection */\n      0x03\n      0x00\n      swap1\n      sload\n      swap1\n      0x0100\n      exp\n      swap1\n      div\n      0xffffffffffffffffffffffffffffffffffffffff\n      and\n        /* \"Farm.sol\":31409:31435  nftCollection.transferFrom */\n      0xffffffffffffffffffffffffffffffffffffffff\n      and\n      0x23b872dd\n        /* \"Farm.sol\":31436:31446  msg.sender */\n      caller\n        /* \"Farm.sol\":31456:31460  this */\n      address\n        /* \"Farm.sol\":31463:31471  _tokenId */\n      dup5\n        /* \"Farm.sol\":31409:31472  nftCollection.transferFrom(msg.sender, address(this), _tokenId) */\n      mload(0x40)\n      dup5\n      0xffffffff\n      and\n      0xe0\n      shl\n      dup2\n      mstore\n      0x04\n      add\n      tag_121\n      swap4\n      swap3\n      swap2\n      swap1\n      tag_92\n      jump\t// in\n    tag_121:\n      0x00\n      mload(0x40)\n      dup1\n      dup4\n      sub\n      dup2\n      0x00\n      dup8\n      dup1\n      extcodesize\n      iszero\n      dup1\n      iszero\n      tag_122\n      jumpi\n      0x00\n      dup1\n      revert\n    tag_122:\n      pop\n      gas\n      call\n      iszero\n      dup1\n      iszero\n      tag_124\n      jumpi\n      returndatasize\n      0x00\n      dup1\n      returndatacopy\n      revert(0x00, returndatasize)\n    tag_124:\n      pop\n      pop\n      pop\n      pop\n        /* \"Farm.sol\":31485:31515  StakedToken memory stakedToken */\n      0x00\n        /* \"Farm.sol\":31518:31551  StakedToken(msg.sender, _tokenId) */\n      mload(0x40)\n      dup1\n      0x40\n      add\n      0x40\n      mstore\n      dup1\n        /* \"Farm.sol\":31530:31540  msg.sender */\n      caller\n        /* \"Farm.sol\":31518:31551  StakedToken(msg.sender, _tokenId) */\n      0xffffffffffffffffffffffffffffffffffffffff\n      and\n      dup2\n      mstore\n      0x20\n      add\n        /* \"Farm.sol\":31542:31550  _tokenId */\n      dup4\n        /* \"Farm.sol\":31518:31551  StakedToken(msg.sender, _tokenId) */\n      dup2\n      mstore\n      pop\n        /* \"Farm.sol\":31485:31551  StakedToken memory stakedToken = StakedToken(msg.sender, _tokenId) */\n      swap1\n      pop\n        /* \"Farm.sol\":31562:31569  stakers */\n      0x05\n        /* \"Farm.sol\":31562:31581  stakers[msg.sender] */\n      0x00\n        /* \"Farm.sol\":31570:31580  msg.sender */\n      caller\n        /* \"Farm.sol\":31562:31581  stakers[msg.sender] */\n      0xffffffffffffffffffffffffffffffffffffffff\n      and\n      0xffffffffffffffffffffffffffffffffffffffff\n      and\n      dup2\n      mstore\n      0x20\n      add\n      swap1\n      dup2\n      mstore\n      0x20\n      add\n      0x00\n      keccak256\n        /* \"Farm.sol\":31562:31594  stakers[msg.sender].stakedTokens */\n      0x01\n      add\n        /* \"Farm.sol\":31600:31611  stakedToken */\n      dup2\n        /* \"Farm.sol\":31562:31612  stakers[msg.sender].stakedTokens.push(stakedToken) */\n      swap1\n      dup1\n      0x01\n      dup2\n      sload\n      add\n      dup1\n      dup3\n      sstore\n      dup1\n      swap2\n      pop\n      pop\n      0x01\n      swap1\n      sub\n      swap1\n      0x00\n      mstore\n      keccak256(0x00, 0x20)\n      swap1\n      0x02\n      mul\n      add\n      0x00\n      swap1\n      swap2\n      swap1\n      swap2\n      swap1\n      swap2\n      pop\n      0x00\n      dup3\n      add\n      mload\n      dup2\n      0x00\n      add\n      exp(0x0100, 0x00)\n      dup2\n      sload\n      dup2\n      0xffffffffffffffffffffffffffffffffffffffff\n      mul\n      not\n      and\n      swap1\n      dup4\n      0xffffffffffffffffffffffffffffffffffffffff\n      and\n      mul\n      or\n      swap1\n      sstore\n      pop\n      0x20\n      dup3\n      add\n      mload\n      dup2\n      0x01\n      add\n      sstore\n      pop\n      pop\n        /* \"Farm.sol\":31623:31630  stakers */\n      0x05\n        /* \"Farm.sol\":31623:31642  stakers[msg.sender] */\n      0x00\n        /* \"Farm.sol\":31631:31641  msg.sender */\n      caller\n        /* \"Farm.sol\":31623:31642  stakers[msg.sender] */\n      0xffffffffffffffffffffffffffffffffffffffff\n      and\n      0xffffffffffffffffffffffffffffffffffffffff\n      and\n      dup2\n      mstore\n      0x20\n      add\n      swap1\n      dup2\n      mstore\n      0x20\n      add\n      0x00\n      keccak256\n        /* \"Farm.sol\":31623:31655  stakers[msg.sender].amountStaked */\n      0x00\n      add\n      0x00\n        /* \"Farm.sol\":31623:31657  stakers[msg.sender].amountStaked++ */\n      dup2\n      sload\n      dup1\n      swap3\n      swap2\n      swap1\n      tag_126\n      swap1\n      tag_85\n      jump\t// in\n    tag_126:\n      swap2\n      swap1\n      pop\n      sstore\n      pop\n        /* \"Farm.sol\":31694:31704  msg.sender */\n      caller\n        /* \"Farm.sol\":31668:31681  stakerAddress */\n      0x06\n        /* \"Farm.sol\":31668:31691  stakerAddress[_tokenId] */\n      0x00\n        /* \"Farm.sol\":31682:31690  _tokenId */\n      dup5\n        /* \"Farm.sol\":31668:31691  stakerAddress[_tokenId] */\n      dup2\n      mstore\n      0x20\n      add\n      swap1\n      dup2\n      mstore\n      0x20\n      add\n      0x00\n      keccak256\n      0x00\n        /* \"Farm.sol\":31668:31704  stakerAddress[_tokenId] = msg.sender */\n      0x0100\n      exp\n      dup2\n      sload\n      dup2\n      0xffffffffffffffffffffffffffffffffffffffff\n      mul\n      not\n      and\n      swap1\n      dup4\n      0xffffffffffffffffffffffffffffffffffffffff\n      and\n      mul\n      or\n      swap1\n      sstore\n      pop\n        /* \"Farm.sol\":31754:31769  block.timestamp */\n      timestamp\n        /* \"Farm.sol\":31715:31722  stakers */\n      0x05\n        /* \"Farm.sol\":31715:31734  stakers[msg.sender] */\n      0x00\n        /* \"Farm.sol\":31723:31733  msg.sender */\n      caller\n        /* \"Farm.sol\":31715:31734  stakers[msg.sender] */\n      0xffffffffffffffffffffffffffffffffffffffff\n      and\n      0xffffffffffffffffffffffffffffffffffffffff\n      and\n      dup2\n      mstore\n      0x20\n      add\n      swap1\n      dup2\n      mstore\n      0x20\n      add\n      0x00\n      keccak256\n        /* \"Farm.sol\":31715:31751  stakers[msg.sender].timeOfLastUpdate */\n      0x02\n      add\n        /* \"Farm.sol\":31715:31769  stakers[msg.sender].timeOfLastUpdate = block.timestamp */\n      dup2\n      swap1\n      sstore\n      pop\n        /* \"Farm.sol\":31076:31777  {\r... */\n      pop\n        /* \"Farm.sol\":19270:19290  _nonReentrantAfter() */\n      tag_127\n        /* \"Farm.sol\":19270:19288  _nonReentrantAfter */\n      tag_97\n        /* \"Farm.sol\":19270:19290  _nonReentrantAfter() */\n      jump\t// in\n    tag_127:\n        /* \"Farm.sol\":31021:31777  function stake(uint256 _tokenId) external nonReentrant {\r... */\n      pop\n      jump\t// out\n        /* \"Farm.sol\":30164:30190  IERC20 public rewardsToken */\n    tag_53:\n      0x02\n      0x00\n      swap1\n      sload\n      swap1\n      0x0100\n      exp\n      swap1\n      div\n      0xffffffffffffffffffffffffffffffffffffffff\n      and\n      dup2\n      jump\t// out\n        /* \"Farm.sol\":29187:29388  function transferOwnership(address newOwner) public virtual onlyOwner {\r... */\n    tag_58:\n        /* \"Farm.sol\":28167:28180  _checkOwner() */\n      tag_129\n        /* \"Farm.sol\":28167:28178  _checkOwner */\n      tag_101\n        /* \"Farm.sol\":28167:28180  _checkOwner() */\n      jump\t// in\n    tag_129:\n        /* \"Farm.sol\":29296:29297  0 */\n      0x00\n        /* \"Farm.sol\":29276:29298  newOwner != address(0) */\n      0xffffffffffffffffffffffffffffffffffffffff\n      and\n        /* \"Farm.sol\":29276:29284  newOwner */\n      dup2\n        /* \"Farm.sol\":29276:29298  newOwner != address(0) */\n      0xffffffffffffffffffffffffffffffffffffffff\n      and\n      eq\n      iszero\n        /* \"Farm.sol\":29268:29341  require(newOwner != address(0), \"Ownable: new owner is the zero address\") */\n      tag_131\n      jumpi\n      mload(0x40)\n      0x08c379a000000000000000000000000000000000000000000000000000000000\n      dup2\n      mstore\n      0x04\n      add\n      tag_132\n      swap1\n      tag_133\n      jump\t// in\n    tag_132:\n      mload(0x40)\n      dup1\n      swap2\n      sub\n      swap1\n      revert\n    tag_131:\n        /* \"Farm.sol\":29352:29380  _transferOwnership(newOwner) */\n      tag_134\n        /* \"Farm.sol\":29371:29379  newOwner */\n      dup2\n        /* \"Farm.sol\":29352:29370  _transferOwnership */\n      tag_104\n        /* \"Farm.sol\":29352:29380  _transferOwnership(newOwner) */\n      jump\t// in\n    tag_134:\n        /* \"Farm.sol\":29187:29388  function transferOwnership(address newOwner) public virtual onlyOwner {\r... */\n      pop\n      jump\t// out\n        /* \"Farm.sol\":19306:19595  function _nonReentrantBefore() private {\r... */\n    tag_64:\n        /* \"Farm.sol\":18708:18709  2 */\n      0x02\n        /* \"Farm.sol\":19436:19443  _status */\n      sload(0x00)\n        /* \"Farm.sol\":19436:19455  _status != _ENTERED */\n      eq\n      iszero\n        /* \"Farm.sol\":19428:19491  require(_status != _ENTERED, \"ReentrancyGuard: reentrant call\") */\n      tag_136\n      jumpi\n      mload(0x40)\n      0x08c379a000000000000000000000000000000000000000000000000000000000\n      dup2\n      mstore\n      0x04\n      add\n      tag_137\n      swap1\n      tag_138\n      jump\t// in\n    tag_137:\n      mload(0x40)\n      dup1\n      swap2\n      sub\n      swap1\n      revert\n    tag_136:\n        /* \"Farm.sol\":18708:18709  2 */\n      0x02\n        /* \"Farm.sol\":19569:19576  _status */\n      0x00\n        /* \"Farm.sol\":19569:19587  _status = _ENTERED */\n      dup2\n      swap1\n      sstore\n      pop\n        /* \"Farm.sol\":19306:19595  function _nonReentrantBefore() private {\r... */\n      jump\t// out\n        /* \"Farm.sol\":32857:33157  function calculateRewards(address _staker)\r... */\n    tag_73:\n        /* \"Farm.sol\":32950:32966  uint256 _rewards */\n      0x00\n        /* \"Farm.sol\":33144:33148  3600 */\n      0x0e10\n        /* \"Farm.sol\":33126:33140  rewardsPerHour */\n      sload(0x04)\n        /* \"Farm.sol\":33082:33089  stakers */\n      0x05\n        /* \"Farm.sol\":33082:33098  stakers[_staker] */\n      0x00\n        /* \"Farm.sol\":33090:33097  _staker */\n      dup6\n        /* \"Farm.sol\":33082:33098  stakers[_staker] */\n      0xffffffffffffffffffffffffffffffffffffffff\n      and\n      0xffffffffffffffffffffffffffffffffffffffff\n      and\n      dup2\n      mstore\n      0x20\n      add\n      swap1\n      dup2\n      mstore\n      0x20\n      add\n      0x00\n      keccak256\n        /* \"Farm.sol\":33082:33111  stakers[_staker].amountStaked */\n      0x00\n      add\n      sload\n        /* \"Farm.sol\":33028:33035  stakers */\n      0x05\n        /* \"Farm.sol\":33028:33044  stakers[_staker] */\n      0x00\n        /* \"Farm.sol\":33036:33043  _staker */\n      dup7\n        /* \"Farm.sol\":33028:33044  stakers[_staker] */\n      0xffffffffffffffffffffffffffffffffffffffff\n      and\n      0xffffffffffffffffffffffffffffffffffffffff\n      and\n      dup2\n      mstore\n      0x20\n      add\n      swap1\n      dup2\n      mstore\n      0x20\n      add\n      0x00\n      keccak256\n        /* \"Farm.sol\":33028:33061  stakers[_staker].timeOfLastUpdate */\n      0x02\n      add\n      sload\n        /* \"Farm.sol\":33010:33025  block.timestamp */\n      timestamp\n        /* \"Farm.sol\":33010:33061  block.timestamp - stakers[_staker].timeOfLastUpdate */\n      tag_140\n      swap2\n      swap1\n      tag_141\n      jump\t// in\n    tag_140:\n        /* \"Farm.sol\":33009:33111  (block.timestamp - stakers[_staker].timeOfLastUpdate) *\r... */\n      tag_142\n      swap2\n      swap1\n      tag_143\n      jump\t// in\n    tag_142:\n        /* \"Farm.sol\":32993:33140  (\r... */\n      tag_144\n      swap2\n      swap1\n      tag_143\n      jump\t// in\n    tag_144:\n        /* \"Farm.sol\":32992:33148  ((\r... */\n      tag_145\n      swap2\n      swap1\n      tag_146\n      jump\t// in\n    tag_145:\n        /* \"Farm.sol\":32984:33149  return (((\r... */\n      swap1\n      pop\n        /* \"Farm.sol\":32857:33157  function calculateRewards(address _staker)\r... */\n      swap2\n      swap1\n      pop\n      jump\t// out\n        /* \"Farm.sol\":19603:19816  function _nonReentrantAfter() private {\r... */\n    tag_97:\n        /* \"Farm.sol\":18664:18665  1 */\n      0x01\n        /* \"Farm.sol\":19786:19793  _status */\n      0x00\n        /* \"Farm.sol\":19786:19808  _status = _NOT_ENTERED */\n      dup2\n      swap1\n      sstore\n      pop\n        /* \"Farm.sol\":19603:19816  function _nonReentrantAfter() private {\r... */\n      jump\t// out\n        /* \"Farm.sol\":28446:28578  function _checkOwner() internal view virtual {\r... */\n    tag_101:\n        /* \"Farm.sol\":28521:28533  _msgSender() */\n      tag_149\n        /* \"Farm.sol\":28521:28531  _msgSender */\n      tag_150\n        /* \"Farm.sol\":28521:28533  _msgSender() */\n      jump\t// in\n    tag_149:\n        /* \"Farm.sol\":28510:28533  owner() == _msgSender() */\n      0xffffffffffffffffffffffffffffffffffffffff\n      and\n        /* \"Farm.sol\":28510:28517  owner() */\n      tag_151\n        /* \"Farm.sol\":28510:28515  owner */\n      tag_36\n        /* \"Farm.sol\":28510:28517  owner() */\n      jump\t// in\n    tag_151:\n        /* \"Farm.sol\":28510:28533  owner() == _msgSender() */\n      0xffffffffffffffffffffffffffffffffffffffff\n      and\n      eq\n        /* \"Farm.sol\":28502:28570  require(owner() == _msgSender(), \"Ownable: caller is not the owner\") */\n      tag_152\n      jumpi\n      mload(0x40)\n      0x08c379a000000000000000000000000000000000000000000000000000000000\n      dup2\n      mstore\n      0x04\n      add\n      tag_153\n      swap1\n      tag_154\n      jump\t// in\n    tag_153:\n      mload(0x40)\n      dup1\n      swap2\n      sub\n      swap1\n      revert\n    tag_152:\n        /* \"Farm.sol\":28446:28578  function _checkOwner() internal view virtual {\r... */\n      jump\t// out\n        /* \"Farm.sol\":29548:29739  function _transferOwnership(address newOwner) internal virtual {\r... */\n    tag_104:\n        /* \"Farm.sol\":29622:29638  address oldOwner */\n      0x00\n        /* \"Farm.sol\":29641:29647  _owner */\n      0x01\n      dup1\n      sload\n      swap1\n      0x0100\n      exp\n      swap1\n      div\n      0xffffffffffffffffffffffffffffffffffffffff\n      and\n        /* \"Farm.sol\":29622:29647  address oldOwner = _owner */\n      swap1\n      pop\n        /* \"Farm.sol\":29667:29675  newOwner */\n      dup2\n        /* \"Farm.sol\":29658:29664  _owner */\n      0x01\n      dup1\n        /* \"Farm.sol\":29658:29675  _owner = newOwner */\n      0x0100\n      exp\n      dup2\n      sload\n      dup2\n      0xffffffffffffffffffffffffffffffffffffffff\n      mul\n      not\n      and\n      swap1\n      dup4\n      0xffffffffffffffffffffffffffffffffffffffff\n      and\n      mul\n      or\n      swap1\n      sstore\n      pop\n        /* \"Farm.sol\":29722:29730  newOwner */\n      dup2\n        /* \"Farm.sol\":29691:29731  OwnershipTransferred(oldOwner, newOwner) */\n      0xffffffffffffffffffffffffffffffffffffffff\n      and\n        /* \"Farm.sol\":29712:29720  oldOwner */\n      dup2\n        /* \"Farm.sol\":29691:29731  OwnershipTransferred(oldOwner, newOwner) */\n      0xffffffffffffffffffffffffffffffffffffffff\n      and\n      0x8be0079c531659141344cd1fd0a4f28419497f9722a3daafe3b4186f6b6457e0\n      mload(0x40)\n      mload(0x40)\n      dup1\n      swap2\n      sub\n      swap1\n      log3\n        /* \"Farm.sol\":29611:29739  {\r... */\n      pop\n        /* \"Farm.sol\":29548:29739  function _transferOwnership(address newOwner) internal virtual {\r... */\n      pop\n      jump\t// out\n        /* \"Farm.sol\":15568:15666  function _msgSender() internal view virtual returns (address) {\r... */\n    tag_150:\n        /* \"Farm.sol\":15621:15628  address */\n      0x00\n        /* \"Farm.sol\":15648:15658  msg.sender */\n      caller\n        /* \"Farm.sol\":15641:15658  return msg.sender */\n      swap1\n      pop\n        /* \"Farm.sol\":15568:15666  function _msgSender() internal view virtual returns (address) {\r... */\n      swap1\n      jump\t// out\n        /* \"#utility.yul\":7:146   */\n    tag_158:\n        /* \"#utility.yul\":53:58   */\n      0x00\n        /* \"#utility.yul\":91:97   */\n      dup2\n        /* \"#utility.yul\":78:98   */\n      calldataload\n        /* \"#utility.yul\":69:98   */\n      swap1\n      pop\n        /* \"#utility.yul\":107:140   */\n      tag_160\n        /* \"#utility.yul\":134:139   */\n      dup2\n        /* \"#utility.yul\":107:140   */\n      tag_161\n      jump\t// in\n    tag_160:\n        /* \"#utility.yul\":7:146   */\n      swap3\n      swap2\n      pop\n      pop\n      jump\t// out\n        /* \"#utility.yul\":152:295   */\n    tag_162:\n        /* \"#utility.yul\":209:214   */\n      0x00\n        /* \"#utility.yul\":240:246   */\n      dup2\n        /* \"#utility.yul\":234:247   */\n      mload\n        /* \"#utility.yul\":225:247   */\n      swap1\n      pop\n        /* \"#utility.yul\":256:289   */\n      tag_164\n        /* \"#utility.yul\":283:288   */\n      dup2\n        /* \"#utility.yul\":256:289   */\n      tag_161\n      jump\t// in\n    tag_164:\n        /* \"#utility.yul\":152:295   */\n      swap3\n      swap2\n      pop\n      pop\n      jump\t// out\n        /* \"#utility.yul\":314:866   */\n    tag_165:\n        /* \"#utility.yul\":371:379   */\n      0x00\n        /* \"#utility.yul\":381:387   */\n      dup1\n        /* \"#utility.yul\":431:434   */\n      dup4\n        /* \"#utility.yul\":424:428   */\n      0x1f\n        /* \"#utility.yul\":416:422   */\n      dup5\n        /* \"#utility.yul\":412:429   */\n      add\n        /* \"#utility.yul\":408:435   */\n      slt\n        /* \"#utility.yul\":398:520   */\n      tag_167\n      jumpi\n        /* \"#utility.yul\":439:518   */\n      tag_168\n      tag_169\n      jump\t// in\n    tag_168:\n        /* \"#utility.yul\":398:520   */\n    tag_167:\n        /* \"#utility.yul\":552:558   */\n      dup3\n        /* \"#utility.yul\":539:559   */\n      calldataload\n        /* \"#utility.yul\":529:559   */\n      swap1\n      pop\n        /* \"#utility.yul\":582:600   */\n      0xffffffffffffffff\n        /* \"#utility.yul\":574:580   */\n      dup2\n        /* \"#utility.yul\":571:601   */\n      gt\n        /* \"#utility.yul\":568:685   */\n      iszero\n      tag_170\n      jumpi\n        /* \"#utility.yul\":604:683   */\n      tag_171\n      tag_172\n      jump\t// in\n    tag_171:\n        /* \"#utility.yul\":568:685   */\n    tag_170:\n        /* \"#utility.yul\":718:722   */\n      0x20\n        /* \"#utility.yul\":710:716   */\n      dup4\n        /* \"#utility.yul\":706:723   */\n      add\n        /* \"#utility.yul\":694:723   */\n      swap2\n      pop\n        /* \"#utility.yul\":772:775   */\n      dup4\n        /* \"#utility.yul\":764:768   */\n      0x01\n        /* \"#utility.yul\":756:762   */\n      dup3\n        /* \"#utility.yul\":752:769   */\n      mul\n        /* \"#utility.yul\":742:750   */\n      dup4\n        /* \"#utility.yul\":738:770   */\n      add\n        /* \"#utility.yul\":735:776   */\n      gt\n        /* \"#utility.yul\":732:860   */\n      iszero\n      tag_173\n      jumpi\n        /* \"#utility.yul\":779:858   */\n      tag_174\n      tag_175\n      jump\t// in\n    tag_174:\n        /* \"#utility.yul\":732:860   */\n    tag_173:\n        /* \"#utility.yul\":314:866   */\n      swap3\n      pop\n      swap3\n      swap1\n      pop\n      jump\t// out\n        /* \"#utility.yul\":872:1011   */\n    tag_176:\n        /* \"#utility.yul\":918:923   */\n      0x00\n        /* \"#utility.yul\":956:962   */\n      dup2\n        /* \"#utility.yul\":943:963   */\n      calldataload\n        /* \"#utility.yul\":934:963   */\n      swap1\n      pop\n        /* \"#utility.yul\":972:1005   */\n      tag_178\n        /* \"#utility.yul\":999:1004   */\n      dup2\n        /* \"#utility.yul\":972:1005   */\n      tag_179\n      jump\t// in\n    tag_178:\n        /* \"#utility.yul\":872:1011   */\n      swap3\n      swap2\n      pop\n      pop\n      jump\t// out\n        /* \"#utility.yul\":1017:1346   */\n    tag_41:\n        /* \"#utility.yul\":1076:1082   */\n      0x00\n        /* \"#utility.yul\":1125:1127   */\n      0x20\n        /* \"#utility.yul\":1113:1122   */\n      dup3\n        /* \"#utility.yul\":1104:1111   */\n      dup5\n        /* \"#utility.yul\":1100:1123   */\n      sub\n        /* \"#utility.yul\":1096:1128   */\n      slt\n        /* \"#utility.yul\":1093:1212   */\n      iszero\n      tag_181\n      jumpi\n        /* \"#utility.yul\":1131:1210   */\n      tag_182\n      tag_183\n      jump\t// in\n    tag_182:\n        /* \"#utility.yul\":1093:1212   */\n    tag_181:\n        /* \"#utility.yul\":1251:1252   */\n      0x00\n        /* \"#utility.yul\":1276:1329   */\n      tag_184\n        /* \"#utility.yul\":1321:1328   */\n      dup5\n        /* \"#utility.yul\":1312:1318   */\n      dup3\n        /* \"#utility.yul\":1301:1310   */\n      dup6\n        /* \"#utility.yul\":1297:1319   */\n      add\n        /* \"#utility.yul\":1276:1329   */\n      tag_158\n      jump\t// in\n    tag_184:\n        /* \"#utility.yul\":1266:1329   */\n      swap2\n      pop\n        /* \"#utility.yul\":1222:1339   */\n      pop\n        /* \"#utility.yul\":1017:1346   */\n      swap3\n      swap2\n      pop\n      pop\n      jump\t// out\n        /* \"#utility.yul\":1352:1703   */\n    tag_115:\n        /* \"#utility.yul\":1422:1428   */\n      0x00\n        /* \"#utility.yul\":1471:1473   */\n      0x20\n        /* \"#utility.yul\":1459:1468   */\n      dup3\n        /* \"#utility.yul\":1450:1457   */\n      dup5\n        /* \"#utility.yul\":1446:1469   */\n      sub\n        /* \"#utility.yul\":1442:1474   */\n      slt\n        /* \"#utility.yul\":1439:1558   */\n      iszero\n      tag_186\n      jumpi\n        /* \"#utility.yul\":1477:1556   */\n      tag_187\n      tag_183\n      jump\t// in\n    tag_187:\n        /* \"#utility.yul\":1439:1558   */\n    tag_186:\n        /* \"#utility.yul\":1597:1598   */\n      0x00\n        /* \"#utility.yul\":1622:1686   */\n      tag_188\n        /* \"#utility.yul\":1678:1685   */\n      dup5\n        /* \"#utility.yul\":1669:1675   */\n      dup3\n        /* \"#utility.yul\":1658:1667   */\n      dup6\n        /* \"#utility.yul\":1654:1676   */\n      add\n        /* \"#utility.yul\":1622:1686   */\n      tag_162\n      jump\t// in\n    tag_188:\n        /* \"#utility.yul\":1612:1686   */\n      swap2\n      pop\n        /* \"#utility.yul\":1568:1696   */\n      pop\n        /* \"#utility.yul\":1352:1703   */\n      swap3\n      swap2\n      pop\n      pop\n      jump\t// out\n        /* \"#utility.yul\":1709:2672   */\n    tag_17:\n        /* \"#utility.yul\":1806:1812   */\n      0x00\n        /* \"#utility.yul\":1814:1820   */\n      dup1\n        /* \"#utility.yul\":1822:1828   */\n      0x00\n        /* \"#utility.yul\":1830:1836   */\n      dup1\n        /* \"#utility.yul\":1838:1844   */\n      0x00\n        /* \"#utility.yul\":1887:1890   */\n      0x80\n        /* \"#utility.yul\":1875:1884   */\n      dup7\n        /* \"#utility.yul\":1866:1873   */\n      dup9\n        /* \"#utility.yul\":1862:1885   */\n      sub\n        /* \"#utility.yul\":1858:1891   */\n      slt\n        /* \"#utility.yul\":1855:1975   */\n      iszero\n      tag_190\n      jumpi\n        /* \"#utility.yul\":1894:1973   */\n      tag_191\n      tag_183\n      jump\t// in\n    tag_191:\n        /* \"#utility.yul\":1855:1975   */\n    tag_190:\n        /* \"#utility.yul\":2014:2015   */\n      0x00\n        /* \"#utility.yul\":2039:2092   */\n      tag_192\n        /* \"#utility.yul\":2084:2091   */\n      dup9\n        /* \"#utility.yul\":2075:2081   */\n      dup3\n        /* \"#utility.yul\":2064:2073   */\n      dup10\n        /* \"#utility.yul\":2060:2082   */\n      add\n        /* \"#utility.yul\":2039:2092   */\n      tag_158\n      jump\t// in\n    tag_192:\n        /* \"#utility.yul\":2029:2092   */\n      swap6\n      pop\n        /* \"#utility.yul\":1985:2102   */\n      pop\n        /* \"#utility.yul\":2141:2143   */\n      0x20\n        /* \"#utility.yul\":2167:2220   */\n      tag_193\n        /* \"#utility.yul\":2212:2219   */\n      dup9\n        /* \"#utility.yul\":2203:2209   */\n      dup3\n        /* \"#utility.yul\":2192:2201   */\n      dup10\n        /* \"#utility.yul\":2188:2210   */\n      add\n        /* \"#utility.yul\":2167:2220   */\n      tag_158\n      jump\t// in\n    tag_193:\n        /* \"#utility.yul\":2157:2220   */\n      swap5\n      pop\n        /* \"#utility.yul\":2112:2230   */\n      pop\n        /* \"#utility.yul\":2269:2271   */\n      0x40\n        /* \"#utility.yul\":2295:2348   */\n      tag_194\n        /* \"#utility.yul\":2340:2347   */\n      dup9\n        /* \"#utility.yul\":2331:2337   */\n      dup3\n        /* \"#utility.yul\":2320:2329   */\n      dup10\n        /* \"#utility.yul\":2316:2338   */\n      add\n        /* \"#utility.yul\":2295:2348   */\n      tag_176\n      jump\t// in\n    tag_194:\n        /* \"#utility.yul\":2285:2348   */\n      swap4\n      pop\n        /* \"#utility.yul\":2240:2358   */\n      pop\n        /* \"#utility.yul\":2425:2427   */\n      0x60\n        /* \"#utility.yul\":2414:2423   */\n      dup7\n        /* \"#utility.yul\":2410:2428   */\n      add\n        /* \"#utility.yul\":2397:2429   */\n      calldataload\n        /* \"#utility.yul\":2456:2474   */\n      0xffffffffffffffff\n        /* \"#utility.yul\":2448:2454   */\n      dup2\n        /* \"#utility.yul\":2445:2475   */\n      gt\n        /* \"#utility.yul\":2442:2559   */\n      iszero\n      tag_195\n      jumpi\n        /* \"#utility.yul\":2478:2557   */\n      tag_196\n      tag_197\n      jump\t// in\n    tag_196:\n        /* \"#utility.yul\":2442:2559   */\n    tag_195:\n        /* \"#utility.yul\":2591:2655   */\n      tag_198\n        /* \"#utility.yul\":2647:2654   */\n      dup9\n        /* \"#utility.yul\":2638:2644   */\n      dup3\n        /* \"#utility.yul\":2627:2636   */\n      dup10\n        /* \"#utility.yul\":2623:2645   */\n      add\n        /* \"#utility.yul\":2591:2655   */\n      tag_165\n      jump\t// in\n    tag_198:\n        /* \"#utility.yul\":2573:2655   */\n      swap3\n      pop\n      swap3\n      pop\n        /* \"#utility.yul\":2368:2665   */\n      pop\n        /* \"#utility.yul\":1709:2672   */\n      swap3\n      swap6\n      pop\n      swap3\n      swap6\n      swap1\n      swap4\n      pop\n      jump\t// out\n        /* \"#utility.yul\":2678:3007   */\n    tag_23:\n        /* \"#utility.yul\":2737:2743   */\n      0x00\n        /* \"#utility.yul\":2786:2788   */\n      0x20\n        /* \"#utility.yul\":2774:2783   */\n      dup3\n        /* \"#utility.yul\":2765:2772   */\n      dup5\n        /* \"#utility.yul\":2761:2784   */\n      sub\n        /* \"#utility.yul\":2757:2789   */\n      slt\n        /* \"#utility.yul\":2754:2873   */\n      iszero\n      tag_200\n      jumpi\n        /* \"#utility.yul\":2792:2871   */\n      tag_201\n      tag_183\n      jump\t// in\n    tag_201:\n        /* \"#utility.yul\":2754:2873   */\n    tag_200:\n        /* \"#utility.yul\":2912:2913   */\n      0x00\n        /* \"#utility.yul\":2937:2990   */\n      tag_202\n        /* \"#utility.yul\":2982:2989   */\n      dup5\n        /* \"#utility.yul\":2973:2979   */\n      dup3\n        /* \"#utility.yul\":2962:2971   */\n      dup6\n        /* \"#utility.yul\":2958:2980   */\n      add\n        /* \"#utility.yul\":2937:2990   */\n      tag_176\n      jump\t// in\n    tag_202:\n        /* \"#utility.yul\":2927:2990   */\n      swap2\n      pop\n        /* \"#utility.yul\":2883:3000   */\n      pop\n        /* \"#utility.yul\":2678:3007   */\n      swap3\n      swap2\n      pop\n      pop\n      jump\t// out\n        /* \"#utility.yul\":3013:3131   */\n    tag_203:\n        /* \"#utility.yul\":3100:3124   */\n      tag_205\n        /* \"#utility.yul\":3118:3123   */\n      dup2\n        /* \"#utility.yul\":3100:3124   */\n      tag_206\n      jump\t// in\n    tag_205:\n        /* \"#utility.yul\":3095:3098   */\n      dup3\n        /* \"#utility.yul\":3088:3125   */\n      mstore\n        /* \"#utility.yul\":3013:3131   */\n      pop\n      pop\n      jump\t// out\n        /* \"#utility.yul\":3137:3294   */\n    tag_207:\n        /* \"#utility.yul\":3242:3287   */\n      tag_209\n        /* \"#utility.yul\":3262:3286   */\n      tag_210\n        /* \"#utility.yul\":3280:3285   */\n      dup3\n        /* \"#utility.yul\":3262:3286   */\n      tag_206\n      jump\t// in\n    tag_210:\n        /* \"#utility.yul\":3242:3287   */\n      tag_211\n      jump\t// in\n    tag_209:\n        /* \"#utility.yul\":3237:3240   */\n      dup3\n        /* \"#utility.yul\":3230:3288   */\n      mstore\n        /* \"#utility.yul\":3137:3294   */\n      pop\n      pop\n      jump\t// out\n        /* \"#utility.yul\":3300:3409   */\n    tag_212:\n        /* \"#utility.yul\":3381:3402   */\n      tag_214\n        /* \"#utility.yul\":3396:3401   */\n      dup2\n        /* \"#utility.yul\":3381:3402   */\n      tag_215\n      jump\t// in\n    tag_214:\n        /* \"#utility.yul\":3376:3379   */\n      dup3\n        /* \"#utility.yul\":3369:3403   */\n      mstore\n        /* \"#utility.yul\":3300:3409   */\n      pop\n      pop\n      jump\t// out\n        /* \"#utility.yul\":3415:3530   */\n    tag_216:\n        /* \"#utility.yul\":3500:3523   */\n      tag_218\n        /* \"#utility.yul\":3517:3522   */\n      dup2\n        /* \"#utility.yul\":3500:3523   */\n      tag_219\n      jump\t// in\n    tag_218:\n        /* \"#utility.yul\":3495:3498   */\n      dup3\n        /* \"#utility.yul\":3488:3524   */\n      mstore\n        /* \"#utility.yul\":3415:3530   */\n      pop\n      pop\n      jump\t// out\n        /* \"#utility.yul\":3558:3872   */\n    tag_220:\n        /* \"#utility.yul\":3672:3675   */\n      0x00\n        /* \"#utility.yul\":3693:3781   */\n      tag_222\n        /* \"#utility.yul\":3774:3780   */\n      dup4\n        /* \"#utility.yul\":3769:3772   */\n      dup6\n        /* \"#utility.yul\":3693:3781   */\n      tag_223\n      jump\t// in\n    tag_222:\n        /* \"#utility.yul\":3686:3781   */\n      swap4\n      pop\n        /* \"#utility.yul\":3791:3834   */\n      tag_224\n        /* \"#utility.yul\":3827:3833   */\n      dup4\n        /* \"#utility.yul\":3822:3825   */\n      dup6\n        /* \"#utility.yul\":3815:3820   */\n      dup5\n        /* \"#utility.yul\":3791:3834   */\n      tag_225\n      jump\t// in\n    tag_224:\n        /* \"#utility.yul\":3859:3865   */\n      dup3\n        /* \"#utility.yul\":3854:3857   */\n      dup5\n        /* \"#utility.yul\":3850:3866   */\n      add\n        /* \"#utility.yul\":3843:3866   */\n      swap1\n      pop\n        /* \"#utility.yul\":3558:3872   */\n      swap4\n      swap3\n      pop\n      pop\n      pop\n      jump\t// out\n        /* \"#utility.yul\":3878:4037   */\n    tag_226:\n        /* \"#utility.yul\":3979:4030   */\n      tag_228\n        /* \"#utility.yul\":4024:4029   */\n      dup2\n        /* \"#utility.yul\":3979:4030   */\n      tag_229\n      jump\t// in\n    tag_228:\n        /* \"#utility.yul\":3974:3977   */\n      dup3\n        /* \"#utility.yul\":3967:4031   */\n      mstore\n        /* \"#utility.yul\":3878:4037   */\n      pop\n      pop\n      jump\t// out\n        /* \"#utility.yul\":4043:4204   */\n    tag_230:\n        /* \"#utility.yul\":4145:4197   */\n      tag_232\n        /* \"#utility.yul\":4191:4196   */\n      dup2\n        /* \"#utility.yul\":4145:4197   */\n      tag_233\n      jump\t// in\n    tag_232:\n        /* \"#utility.yul\":4140:4143   */\n      dup3\n        /* \"#utility.yul\":4133:4198   */\n      mstore\n        /* \"#utility.yul\":4043:4204   */\n      pop\n      pop\n      jump\t// out\n        /* \"#utility.yul\":4210:4576   */\n    tag_234:\n        /* \"#utility.yul\":4352:4355   */\n      0x00\n        /* \"#utility.yul\":4373:4440   */\n      tag_236\n        /* \"#utility.yul\":4437:4439   */\n      0x19\n        /* \"#utility.yul\":4432:4435   */\n      dup4\n        /* \"#utility.yul\":4373:4440   */\n      tag_237\n      jump\t// in\n    tag_236:\n        /* \"#utility.yul\":4366:4440   */\n      swap2\n      pop\n        /* \"#utility.yul\":4449:4542   */\n      tag_238\n        /* \"#utility.yul\":4538:4541   */\n      dup3\n        /* \"#utility.yul\":4449:4542   */\n      tag_239\n      jump\t// in\n    tag_238:\n        /* \"#utility.yul\":4567:4569   */\n      0x20\n        /* \"#utility.yul\":4562:4565   */\n      dup3\n        /* \"#utility.yul\":4558:4570   */\n      add\n        /* \"#utility.yul\":4551:4570   */\n      swap1\n      pop\n        /* \"#utility.yul\":4210:4576   */\n      swap2\n      swap1\n      pop\n      jump\t// out\n        /* \"#utility.yul\":4582:4948   */\n    tag_240:\n        /* \"#utility.yul\":4724:4727   */\n      0x00\n        /* \"#utility.yul\":4745:4812   */\n      tag_242\n        /* \"#utility.yul\":4809:4811   */\n      0x26\n        /* \"#utility.yul\":4804:4807   */\n      dup4\n        /* \"#utility.yul\":4745:4812   */\n      tag_237\n      jump\t// in\n    tag_242:\n        /* \"#utility.yul\":4738:4812   */\n      swap2\n      pop\n        /* \"#utility.yul\":4821:4914   */\n      tag_243\n        /* \"#utility.yul\":4910:4913   */\n      dup3\n        /* \"#utility.yul\":4821:4914   */\n      tag_244\n      jump\t// in\n    tag_243:\n        /* \"#utility.yul\":4939:4941   */\n      0x40\n        /* \"#utility.yul\":4934:4937   */\n      dup3\n        /* \"#utility.yul\":4930:4942   */\n      add\n        /* \"#utility.yul\":4923:4942   */\n      swap1\n      pop\n        /* \"#utility.yul\":4582:4948   */\n      swap2\n      swap1\n      pop\n      jump\t// out\n        /* \"#utility.yul\":4954:5320   */\n    tag_245:\n        /* \"#utility.yul\":5096:5099   */\n      0x00\n        /* \"#utility.yul\":5117:5184   */\n      tag_247\n        /* \"#utility.yul\":5181:5183   */\n      0x19\n        /* \"#utility.yul\":5176:5179   */\n      dup4\n        /* \"#utility.yul\":5117:5184   */\n      tag_237\n      jump\t// in\n    tag_247:\n        /* \"#utility.yul\":5110:5184   */\n      swap2\n      pop\n        /* \"#utility.yul\":5193:5286   */\n      tag_248\n        /* \"#utility.yul\":5282:5285   */\n      dup3\n        /* \"#utility.yul\":5193:5286   */\n      tag_249\n      jump\t// in\n    tag_248:\n        /* \"#utility.yul\":5311:5313   */\n      0x20\n        /* \"#utility.yul\":5306:5309   */\n      dup3\n        /* \"#utility.yul\":5302:5314   */\n      add\n        /* \"#utility.yul\":5295:5314   */\n      swap1\n      pop\n        /* \"#utility.yul\":4954:5320   */\n      swap2\n      swap1\n      pop\n      jump\t// out\n        /* \"#utility.yul\":5326:5692   */\n    tag_250:\n        /* \"#utility.yul\":5468:5471   */\n      0x00\n        /* \"#utility.yul\":5489:5556   */\n      tag_252\n        /* \"#utility.yul\":5553:5555   */\n      0x20\n        /* \"#utility.yul\":5548:5551   */\n      dup4\n        /* \"#utility.yul\":5489:5556   */\n      tag_237\n      jump\t// in\n    tag_252:\n        /* \"#utility.yul\":5482:5556   */\n      swap2\n      pop\n        /* \"#utility.yul\":5565:5658   */\n      tag_253\n        /* \"#utility.yul\":5654:5657   */\n      dup3\n        /* \"#utility.yul\":5565:5658   */\n      tag_254\n      jump\t// in\n    tag_253:\n        /* \"#utility.yul\":5683:5685   */\n      0x20\n        /* \"#utility.yul\":5678:5681   */\n      dup3\n        /* \"#utility.yul\":5674:5686   */\n      add\n        /* \"#utility.yul\":5667:5686   */\n      swap1\n      pop\n        /* \"#utility.yul\":5326:5692   */\n      swap2\n      swap1\n      pop\n      jump\t// out\n        /* \"#utility.yul\":5698:6064   */\n    tag_255:\n        /* \"#utility.yul\":5840:5843   */\n      0x00\n        /* \"#utility.yul\":5861:5928   */\n      tag_257\n        /* \"#utility.yul\":5925:5927   */\n      0x1f\n        /* \"#utility.yul\":5920:5923   */\n      dup4\n        /* \"#utility.yul\":5861:5928   */\n      tag_237\n      jump\t// in\n    tag_257:\n        /* \"#utility.yul\":5854:5928   */\n      swap2\n      pop\n        /* \"#utility.yul\":5937:6030   */\n      tag_258\n        /* \"#utility.yul\":6026:6029   */\n      dup3\n        /* \"#utility.yul\":5937:6030   */\n      tag_259\n      jump\t// in\n    tag_258:\n        /* \"#utility.yul\":6055:6057   */\n      0x20\n        /* \"#utility.yul\":6050:6053   */\n      dup3\n        /* \"#utility.yul\":6046:6058   */\n      add\n        /* \"#utility.yul\":6039:6058   */\n      swap1\n      pop\n        /* \"#utility.yul\":5698:6064   */\n      swap2\n      swap1\n      pop\n      jump\t// out\n        /* \"#utility.yul\":6070:6188   */\n    tag_260:\n        /* \"#utility.yul\":6157:6181   */\n      tag_262\n        /* \"#utility.yul\":6175:6180   */\n      dup2\n        /* \"#utility.yul\":6157:6181   */\n      tag_263\n      jump\t// in\n    tag_262:\n        /* \"#utility.yul\":6152:6155   */\n      dup3\n        /* \"#utility.yul\":6145:6182   */\n      mstore\n        /* \"#utility.yul\":6070:6188   */\n      pop\n      pop\n      jump\t// out\n        /* \"#utility.yul\":6194:6351   */\n    tag_264:\n        /* \"#utility.yul\":6299:6344   */\n      tag_266\n        /* \"#utility.yul\":6319:6343   */\n      tag_267\n        /* \"#utility.yul\":6337:6342   */\n      dup3\n        /* \"#utility.yul\":6319:6343   */\n      tag_263\n      jump\t// in\n    tag_267:\n        /* \"#utility.yul\":6299:6344   */\n      tag_268\n      jump\t// in\n    tag_266:\n        /* \"#utility.yul\":6294:6297   */\n      dup3\n        /* \"#utility.yul\":6287:6345   */\n      mstore\n        /* \"#utility.yul\":6194:6351   */\n      pop\n      pop\n      jump\t// out\n        /* \"#utility.yul\":6357:7071   */\n    tag_61:\n        /* \"#utility.yul\":6581:6584   */\n      0x00\n        /* \"#utility.yul\":6596:6671   */\n      tag_270\n        /* \"#utility.yul\":6667:6670   */\n      dup3\n        /* \"#utility.yul\":6658:6664   */\n      dup9\n        /* \"#utility.yul\":6596:6671   */\n      tag_207\n      jump\t// in\n    tag_270:\n        /* \"#utility.yul\":6696:6698   */\n      0x14\n        /* \"#utility.yul\":6691:6694   */\n      dup3\n        /* \"#utility.yul\":6687:6699   */\n      add\n        /* \"#utility.yul\":6680:6699   */\n      swap2\n      pop\n        /* \"#utility.yul\":6709:6784   */\n      tag_271\n        /* \"#utility.yul\":6780:6783   */\n      dup3\n        /* \"#utility.yul\":6771:6777   */\n      dup8\n        /* \"#utility.yul\":6709:6784   */\n      tag_207\n      jump\t// in\n    tag_271:\n        /* \"#utility.yul\":6809:6811   */\n      0x14\n        /* \"#utility.yul\":6804:6807   */\n      dup3\n        /* \"#utility.yul\":6800:6812   */\n      add\n        /* \"#utility.yul\":6793:6812   */\n      swap2\n      pop\n        /* \"#utility.yul\":6822:6897   */\n      tag_272\n        /* \"#utility.yul\":6893:6896   */\n      dup3\n        /* \"#utility.yul\":6884:6890   */\n      dup7\n        /* \"#utility.yul\":6822:6897   */\n      tag_264\n      jump\t// in\n    tag_272:\n        /* \"#utility.yul\":6922:6924   */\n      0x20\n        /* \"#utility.yul\":6917:6920   */\n      dup3\n        /* \"#utility.yul\":6913:6925   */\n      add\n        /* \"#utility.yul\":6906:6925   */\n      swap2\n      pop\n        /* \"#utility.yul\":6942:7045   */\n      tag_273\n        /* \"#utility.yul\":7041:7044   */\n      dup3\n        /* \"#utility.yul\":7032:7038   */\n      dup5\n        /* \"#utility.yul\":7024:7030   */\n      dup7\n        /* \"#utility.yul\":6942:7045   */\n      tag_220\n      jump\t// in\n    tag_273:\n        /* \"#utility.yul\":6935:7045   */\n      swap2\n      pop\n        /* \"#utility.yul\":7062:7065   */\n      dup2\n        /* \"#utility.yul\":7055:7065   */\n      swap1\n      pop\n        /* \"#utility.yul\":6357:7071   */\n      swap7\n      swap6\n      pop\n      pop\n      pop\n      pop\n      pop\n      pop\n      jump\t// out\n        /* \"#utility.yul\":7077:7299   */\n    tag_38:\n        /* \"#utility.yul\":7170:7174   */\n      0x00\n        /* \"#utility.yul\":7208:7210   */\n      0x20\n        /* \"#utility.yul\":7197:7206   */\n      dup3\n        /* \"#utility.yul\":7193:7211   */\n      add\n        /* \"#utility.yul\":7185:7211   */\n      swap1\n      pop\n        /* \"#utility.yul\":7221:7292   */\n      tag_275\n        /* \"#utility.yul\":7289:7290   */\n      0x00\n        /* \"#utility.yul\":7278:7287   */\n      dup4\n        /* \"#utility.yul\":7274:7291   */\n      add\n        /* \"#utility.yul\":7265:7271   */\n      dup5\n        /* \"#utility.yul\":7221:7292   */\n      tag_203\n      jump\t// in\n    tag_275:\n        /* \"#utility.yul\":7077:7299   */\n      swap3\n      swap2\n      pop\n      pop\n      jump\t// out\n        /* \"#utility.yul\":7305:7747   */\n    tag_92:\n        /* \"#utility.yul\":7454:7458   */\n      0x00\n        /* \"#utility.yul\":7492:7494   */\n      0x60\n        /* \"#utility.yul\":7481:7490   */\n      dup3\n        /* \"#utility.yul\":7477:7495   */\n      add\n        /* \"#utility.yul\":7469:7495   */\n      swap1\n      pop\n        /* \"#utility.yul\":7505:7576   */\n      tag_277\n        /* \"#utility.yul\":7573:7574   */\n      0x00\n        /* \"#utility.yul\":7562:7571   */\n      dup4\n        /* \"#utility.yul\":7558:7575   */\n      add\n        /* \"#utility.yul\":7549:7555   */\n      dup7\n        /* \"#utility.yul\":7505:7576   */\n      tag_203\n      jump\t// in\n    tag_277:\n        /* \"#utility.yul\":7586:7658   */\n      tag_278\n        /* \"#utility.yul\":7654:7656   */\n      0x20\n        /* \"#utility.yul\":7643:7652   */\n      dup4\n        /* \"#utility.yul\":7639:7657   */\n      add\n        /* \"#utility.yul\":7630:7636   */\n      dup6\n        /* \"#utility.yul\":7586:7658   */\n      tag_203\n      jump\t// in\n    tag_278:\n        /* \"#utility.yul\":7668:7740   */\n      tag_279\n        /* \"#utility.yul\":7736:7738   */\n      0x40\n        /* \"#utility.yul\":7725:7734   */\n      dup4\n        /* \"#utility.yul\":7721:7739   */\n      add\n        /* \"#utility.yul\":7712:7718   */\n      dup5\n        /* \"#utility.yul\":7668:7740   */\n      tag_260\n      jump\t// in\n    tag_279:\n        /* \"#utility.yul\":7305:7747   */\n      swap5\n      swap4\n      pop\n      pop\n      pop\n      pop\n      jump\t// out\n        /* \"#utility.yul\":7753:7963   */\n    tag_28:\n        /* \"#utility.yul\":7840:7844   */\n      0x00\n        /* \"#utility.yul\":7878:7880   */\n      0x20\n        /* \"#utility.yul\":7867:7876   */\n      dup3\n        /* \"#utility.yul\":7863:7881   */\n      add\n        /* \"#utility.yul\":7855:7881   */\n      swap1\n      pop\n        /* \"#utility.yul\":7891:7956   */\n      tag_281\n        /* \"#utility.yul\":7953:7954   */\n      0x00\n        /* \"#utility.yul\":7942:7951   */\n      dup4\n        /* \"#utility.yul\":7938:7955   */\n      add\n        /* \"#utility.yul\":7929:7935   */\n      dup5\n        /* \"#utility.yul\":7891:7956   */\n      tag_212\n      jump\t// in\n    tag_281:\n        /* \"#utility.yul\":7753:7963   */\n      swap3\n      swap2\n      pop\n      pop\n      jump\t// out\n        /* \"#utility.yul\":7969:8187   */\n    tag_20:\n        /* \"#utility.yul\":8060:8064   */\n      0x00\n        /* \"#utility.yul\":8098:8100   */\n      0x20\n        /* \"#utility.yul\":8087:8096   */\n      dup3\n        /* \"#utility.yul\":8083:8101   */\n      add\n        /* \"#utility.yul\":8075:8101   */\n      swap1\n      pop\n        /* \"#utility.yul\":8111:8180   */\n      tag_283\n        /* \"#utility.yul\":8177:8178   */\n      0x00\n        /* \"#utility.yul\":8166:8175   */\n      dup4\n        /* \"#utility.yul\":8162:8179   */\n      add\n        /* \"#utility.yul\":8153:8159   */\n      dup5\n        /* \"#utility.yul\":8111:8180   */\n      tag_216\n      jump\t// in\n    tag_283:\n        /* \"#utility.yul\":7969:8187   */\n      swap3\n      swap2\n      pop\n      pop\n      jump\t// out\n        /* \"#utility.yul\":8193:8443   */\n    tag_55:\n        /* \"#utility.yul\":8300:8304   */\n      0x00\n        /* \"#utility.yul\":8338:8340   */\n      0x20\n        /* \"#utility.yul\":8327:8336   */\n      dup3\n        /* \"#utility.yul\":8323:8341   */\n      add\n        /* \"#utility.yul\":8315:8341   */\n      swap1\n      pop\n        /* \"#utility.yul\":8351:8436   */\n      tag_285\n        /* \"#utility.yul\":8433:8434   */\n      0x00\n        /* \"#utility.yul\":8422:8431   */\n      dup4\n        /* \"#utility.yul\":8418:8435   */\n      add\n        /* \"#utility.yul\":8409:8415   */\n      dup5\n        /* \"#utility.yul\":8351:8436   */\n      tag_226\n      jump\t// in\n    tag_285:\n        /* \"#utility.yul\":8193:8443   */\n      swap3\n      swap2\n      pop\n      pop\n      jump\t// out\n        /* \"#utility.yul\":8449:8701   */\n    tag_32:\n        /* \"#utility.yul\":8557:8561   */\n      0x00\n        /* \"#utility.yul\":8595:8597   */\n      0x20\n        /* \"#utility.yul\":8584:8593   */\n      dup3\n        /* \"#utility.yul\":8580:8598   */\n      add\n        /* \"#utility.yul\":8572:8598   */\n      swap1\n      pop\n        /* \"#utility.yul\":8608:8694   */\n      tag_287\n        /* \"#utility.yul\":8691:8692   */\n      0x00\n        /* \"#utility.yul\":8680:8689   */\n      dup4\n        /* \"#utility.yul\":8676:8693   */\n      add\n        /* \"#utility.yul\":8667:8673   */\n      dup5\n        /* \"#utility.yul\":8608:8694   */\n      tag_230\n      jump\t// in\n    tag_287:\n        /* \"#utility.yul\":8449:8701   */\n      swap3\n      swap2\n      pop\n      pop\n      jump\t// out\n        /* \"#utility.yul\":8707:9126   */\n    tag_71:\n        /* \"#utility.yul\":8873:8877   */\n      0x00\n        /* \"#utility.yul\":8911:8913   */\n      0x20\n        /* \"#utility.yul\":8900:8909   */\n      dup3\n        /* \"#utility.yul\":8896:8914   */\n      add\n        /* \"#utility.yul\":8888:8914   */\n      swap1\n      pop\n        /* \"#utility.yul\":8960:8969   */\n      dup2\n        /* \"#utility.yul\":8954:8958   */\n      dup2\n        /* \"#utility.yul\":8950:8970   */\n      sub\n        /* \"#utility.yul\":8946:8947   */\n      0x00\n        /* \"#utility.yul\":8935:8944   */\n      dup4\n        /* \"#utility.yul\":8931:8948   */\n      add\n        /* \"#utility.yul\":8924:8971   */\n      mstore\n        /* \"#utility.yul\":8988:9119   */\n      tag_289\n        /* \"#utility.yul\":9114:9118   */\n      dup2\n        /* \"#utility.yul\":8988:9119   */\n      tag_234\n      jump\t// in\n    tag_289:\n        /* \"#utility.yul\":8980:9119   */\n      swap1\n      pop\n        /* \"#utility.yul\":8707:9126   */\n      swap2\n      swap1\n      pop\n      jump\t// out\n        /* \"#utility.yul\":9132:9551   */\n    tag_133:\n        /* \"#utility.yul\":9298:9302   */\n      0x00\n        /* \"#utility.yul\":9336:9338   */\n      0x20\n        /* \"#utility.yul\":9325:9334   */\n      dup3\n        /* \"#utility.yul\":9321:9339   */\n      add\n        /* \"#utility.yul\":9313:9339   */\n      swap1\n      pop\n        /* \"#utility.yul\":9385:9394   */\n      dup2\n        /* \"#utility.yul\":9379:9383   */\n      dup2\n        /* \"#utility.yul\":9375:9395   */\n      sub\n        /* \"#utility.yul\":9371:9372   */\n      0x00\n        /* \"#utility.yul\":9360:9369   */\n      dup4\n        /* \"#utility.yul\":9356:9373   */\n      add\n        /* \"#utility.yul\":9349:9396   */\n      mstore\n        /* \"#utility.yul\":9413:9544   */\n      tag_291\n        /* \"#utility.yul\":9539:9543   */\n      dup2\n        /* \"#utility.yul\":9413:9544   */\n      tag_240\n      jump\t// in\n    tag_291:\n        /* \"#utility.yul\":9405:9544   */\n      swap1\n      pop\n        /* \"#utility.yul\":9132:9551   */\n      swap2\n      swap1\n      pop\n      jump\t// out\n        /* \"#utility.yul\":9557:9976   */\n    tag_68:\n        /* \"#utility.yul\":9723:9727   */\n      0x00\n        /* \"#utility.yul\":9761:9763   */\n      0x20\n        /* \"#utility.yul\":9750:9759   */\n      dup3\n        /* \"#utility.yul\":9746:9764   */\n      add\n        /* \"#utility.yul\":9738:9764   */\n      swap1\n      pop\n        /* \"#utility.yul\":9810:9819   */\n      dup2\n        /* \"#utility.yul\":9804:9808   */\n      dup2\n        /* \"#utility.yul\":9800:9820   */\n      sub\n        /* \"#utility.yul\":9796:9797   */\n      0x00\n        /* \"#utility.yul\":9785:9794   */\n      dup4\n        /* \"#utility.yul\":9781:9798   */\n      add\n        /* \"#utility.yul\":9774:9821   */\n      mstore\n        /* \"#utility.yul\":9838:9969   */\n      tag_293\n        /* \"#utility.yul\":9964:9968   */\n      dup2\n        /* \"#utility.yul\":9838:9969   */\n      tag_245\n      jump\t// in\n    tag_293:\n        /* \"#utility.yul\":9830:9969   */\n      swap1\n      pop\n        /* \"#utility.yul\":9557:9976   */\n      swap2\n      swap1\n      pop\n      jump\t// out\n        /* \"#utility.yul\":9982:10401   */\n    tag_154:\n        /* \"#utility.yul\":10148:10152   */\n      0x00\n        /* \"#utility.yul\":10186:10188   */\n      0x20\n        /* \"#utility.yul\":10175:10184   */\n      dup3\n        /* \"#utility.yul\":10171:10189   */\n      add\n        /* \"#utility.yul\":10163:10189   */\n      swap1\n      pop\n        /* \"#utility.yul\":10235:10244   */\n      dup2\n        /* \"#utility.yul\":10229:10233   */\n      dup2\n        /* \"#utility.yul\":10225:10245   */\n      sub\n        /* \"#utility.yul\":10221:10222   */\n      0x00\n        /* \"#utility.yul\":10210:10219   */\n      dup4\n        /* \"#utility.yul\":10206:10223   */\n      add\n        /* \"#utility.yul\":10199:10246   */\n      mstore\n        /* \"#utility.yul\":10263:10394   */\n      tag_295\n        /* \"#utility.yul\":10389:10393   */\n      dup2\n        /* \"#utility.yul\":10263:10394   */\n      tag_250\n      jump\t// in\n    tag_295:\n        /* \"#utility.yul\":10255:10394   */\n      swap1\n      pop\n        /* \"#utility.yul\":9982:10401   */\n      swap2\n      swap1\n      pop\n      jump\t// out\n        /* \"#utility.yul\":10407:10826   */\n    tag_138:\n        /* \"#utility.yul\":10573:10577   */\n      0x00\n        /* \"#utility.yul\":10611:10613   */\n      0x20\n        /* \"#utility.yul\":10600:10609   */\n      dup3\n        /* \"#utility.yul\":10596:10614   */\n      add\n        /* \"#utility.yul\":10588:10614   */\n      swap1\n      pop\n        /* \"#utility.yul\":10660:10669   */\n      dup2\n        /* \"#utility.yul\":10654:10658   */\n      dup2\n        /* \"#utility.yul\":10650:10670   */\n      sub\n        /* \"#utility.yul\":10646:10647   */\n      0x00\n        /* \"#utility.yul\":10635:10644   */\n      dup4\n        /* \"#utility.yul\":10631:10648   */\n      add\n        /* \"#utility.yul\":10624:10671   */\n      mstore\n        /* \"#utility.yul\":10688:10819   */\n      tag_297\n        /* \"#utility.yul\":10814:10818   */\n      dup2\n        /* \"#utility.yul\":10688:10819   */\n      tag_255\n      jump\t// in\n    tag_297:\n        /* \"#utility.yul\":10680:10819   */\n      swap1\n      pop\n        /* \"#utility.yul\":10407:10826   */\n      swap2\n      swap1\n      pop\n      jump\t// out\n        /* \"#utility.yul\":10832:11054   */\n    tag_110:\n        /* \"#utility.yul\":10925:10929   */\n      0x00\n        /* \"#utility.yul\":10963:10965   */\n      0x20\n        /* \"#utility.yul\":10952:10961   */\n      dup3\n        /* \"#utility.yul\":10948:10966   */\n      add\n        /* \"#utility.yul\":10940:10966   */\n      swap1\n      pop\n        /* \"#utility.yul\":10976:11047   */\n      tag_299\n        /* \"#utility.yul\":11044:11045   */\n      0x00\n        /* \"#utility.yul\":11033:11042   */\n      dup4\n        /* \"#utility.yul\":11029:11046   */\n      add\n        /* \"#utility.yul\":11020:11026   */\n      dup5\n        /* \"#utility.yul\":10976:11047   */\n      tag_260\n      jump\t// in\n    tag_299:\n        /* \"#utility.yul\":10832:11054   */\n      swap3\n      swap2\n      pop\n      pop\n      jump\t// out\n        /* \"#utility.yul\":11060:11502   */\n    tag_44:\n        /* \"#utility.yul\":11209:11213   */\n      0x00\n        /* \"#utility.yul\":11247:11249   */\n      0x60\n        /* \"#utility.yul\":11236:11245   */\n      dup3\n        /* \"#utility.yul\":11232:11250   */\n      add\n        /* \"#utility.yul\":11224:11250   */\n      swap1\n      pop\n        /* \"#utility.yul\":11260:11331   */\n      tag_301\n        /* \"#utility.yul\":11328:11329   */\n      0x00\n        /* \"#utility.yul\":11317:11326   */\n      dup4\n        /* \"#utility.yul\":11313:11330   */\n      add\n        /* \"#utility.yul\":11304:11310   */\n      dup7\n        /* \"#utility.yul\":11260:11331   */\n      tag_260\n      jump\t// in\n    tag_301:\n        /* \"#utility.yul\":11341:11413   */\n      tag_302\n        /* \"#utility.yul\":11409:11411   */\n      0x20\n        /* \"#utility.yul\":11398:11407   */\n      dup4\n        /* \"#utility.yul\":11394:11412   */\n      add\n        /* \"#utility.yul\":11385:11391   */\n      dup6\n        /* \"#utility.yul\":11341:11413   */\n      tag_260\n      jump\t// in\n    tag_302:\n        /* \"#utility.yul\":11423:11495   */\n      tag_303\n        /* \"#utility.yul\":11491:11493   */\n      0x40\n        /* \"#utility.yul\":11480:11489   */\n      dup4\n        /* \"#utility.yul\":11476:11494   */\n      add\n        /* \"#utility.yul\":11467:11473   */\n      dup5\n        /* \"#utility.yul\":11423:11495   */\n      tag_260\n      jump\t// in\n    tag_303:\n        /* \"#utility.yul\":11060:11502   */\n      swap5\n      swap4\n      pop\n      pop\n      pop\n      pop\n      jump\t// out\n        /* \"#utility.yul\":11589:11736   */\n    tag_223:\n        /* \"#utility.yul\":11690:11701   */\n      0x00\n        /* \"#utility.yul\":11727:11730   */\n      dup2\n        /* \"#utility.yul\":11712:11730   */\n      swap1\n      pop\n        /* \"#utility.yul\":11589:11736   */\n      swap3\n      swap2\n      pop\n      pop\n      jump\t// out\n        /* \"#utility.yul\":11742:11911   */\n    tag_237:\n        /* \"#utility.yul\":11826:11837   */\n      0x00\n        /* \"#utility.yul\":11860:11866   */\n      dup3\n        /* \"#utility.yul\":11855:11858   */\n      dup3\n        /* \"#utility.yul\":11848:11867   */\n      mstore\n        /* \"#utility.yul\":11900:11904   */\n      0x20\n        /* \"#utility.yul\":11895:11898   */\n      dup3\n        /* \"#utility.yul\":11891:11905   */\n      add\n        /* \"#utility.yul\":11876:11905   */\n      swap1\n      pop\n        /* \"#utility.yul\":11742:11911   */\n      swap3\n      swap2\n      pop\n      pop\n      jump\t// out\n        /* \"#utility.yul\":11917:12222   */\n    tag_75:\n        /* \"#utility.yul\":11957:11960   */\n      0x00\n        /* \"#utility.yul\":11976:11996   */\n      tag_309\n        /* \"#utility.yul\":11994:11995   */\n      dup3\n        /* \"#utility.yul\":11976:11996   */\n      tag_263\n      jump\t// in\n    tag_309:\n        /* \"#utility.yul\":11971:11996   */\n      swap2\n      pop\n        /* \"#utility.yul\":12010:12030   */\n      tag_310\n        /* \"#utility.yul\":12028:12029   */\n      dup4\n        /* \"#utility.yul\":12010:12030   */\n      tag_263\n      jump\t// in\n    tag_310:\n        /* \"#utility.yul\":12005:12030   */\n      swap3\n      pop\n        /* \"#utility.yul\":12164:12165   */\n      dup3\n        /* \"#utility.yul\":12096:12162   */\n      0xffffffffffffffffffffffffffffffffffffffffffffffffffffffffffffffff\n        /* \"#utility.yul\":12092:12166   */\n      sub\n        /* \"#utility.yul\":12089:12090   */\n      dup3\n        /* \"#utility.yul\":12086:12167   */\n      gt\n        /* \"#utility.yul\":12083:12190   */\n      iszero\n      tag_311\n      jumpi\n        /* \"#utility.yul\":12170:12188   */\n      tag_312\n      tag_313\n      jump\t// in\n    tag_312:\n        /* \"#utility.yul\":12083:12190   */\n    tag_311:\n        /* \"#utility.yul\":12214:12215   */\n      dup3\n        /* \"#utility.yul\":12211:12212   */\n      dup3\n        /* \"#utility.yul\":12207:12216   */\n      add\n        /* \"#utility.yul\":12200:12216   */\n      swap1\n      pop\n        /* \"#utility.yul\":11917:12222   */\n      swap3\n      swap2\n      pop\n      pop\n      jump\t// out\n        /* \"#utility.yul\":12228:12413   */\n    tag_146:\n        /* \"#utility.yul\":12268:12269   */\n      0x00\n        /* \"#utility.yul\":12285:12305   */\n      tag_315\n        /* \"#utility.yul\":12303:12304   */\n      dup3\n        /* \"#utility.yul\":12285:12305   */\n      tag_263\n      jump\t// in\n    tag_315:\n        /* \"#utility.yul\":12280:12305   */\n      swap2\n      pop\n        /* \"#utility.yul\":12319:12339   */\n      tag_316\n        /* \"#utility.yul\":12337:12338   */\n      dup4\n        /* \"#utility.yul\":12319:12339   */\n      tag_263\n      jump\t// in\n    tag_316:\n        /* \"#utility.yul\":12314:12339   */\n      swap3\n      pop\n        /* \"#utility.yul\":12358:12359   */\n      dup3\n        /* \"#utility.yul\":12348:12383   */\n      tag_317\n      jumpi\n        /* \"#utility.yul\":12363:12381   */\n      tag_318\n      tag_319\n      jump\t// in\n    tag_318:\n        /* \"#utility.yul\":12348:12383   */\n    tag_317:\n        /* \"#utility.yul\":12405:12406   */\n      dup3\n        /* \"#utility.yul\":12402:12403   */\n      dup3\n        /* \"#utility.yul\":12398:12407   */\n      div\n        /* \"#utility.yul\":12393:12407   */\n      swap1\n      pop\n        /* \"#utility.yul\":12228:12413   */\n      swap3\n      swap2\n      pop\n      pop\n      jump\t// out\n        /* \"#utility.yul\":12419:12767   */\n    tag_143:\n        /* \"#utility.yul\":12459:12466   */\n      0x00\n        /* \"#utility.yul\":12482:12502   */\n      tag_321\n        /* \"#utility.yul\":12500:12501   */\n      dup3\n        /* \"#utility.yul\":12482:12502   */\n      tag_263\n      jump\t// in\n    tag_321:\n        /* \"#utility.yul\":12477:12502   */\n      swap2\n      pop\n        /* \"#utility.yul\":12516:12536   */\n      tag_322\n        /* \"#utility.yul\":12534:12535   */\n      dup4\n        /* \"#utility.yul\":12516:12536   */\n      tag_263\n      jump\t// in\n    tag_322:\n        /* \"#utility.yul\":12511:12536   */\n      swap3\n      pop\n        /* \"#utility.yul\":12704:12705   */\n      dup2\n        /* \"#utility.yul\":12636:12702   */\n      0xffffffffffffffffffffffffffffffffffffffffffffffffffffffffffffffff\n        /* \"#utility.yul\":12632:12706   */\n      div\n        /* \"#utility.yul\":12629:12630   */\n      dup4\n        /* \"#utility.yul\":12626:12707   */\n      gt\n        /* \"#utility.yul\":12621:12622   */\n      dup3\n        /* \"#utility.yul\":12614:12623   */\n      iszero\n        /* \"#utility.yul\":12607:12624   */\n      iszero\n        /* \"#utility.yul\":12603:12708   */\n      and\n        /* \"#utility.yul\":12600:12731   */\n      iszero\n      tag_323\n      jumpi\n        /* \"#utility.yul\":12711:12729   */\n      tag_324\n      tag_313\n      jump\t// in\n    tag_324:\n        /* \"#utility.yul\":12600:12731   */\n    tag_323:\n        /* \"#utility.yul\":12759:12760   */\n      dup3\n        /* \"#utility.yul\":12756:12757   */\n      dup3\n        /* \"#utility.yul\":12752:12761   */\n      mul\n        /* \"#utility.yul\":12741:12761   */\n      swap1\n      pop\n        /* \"#utility.yul\":12419:12767   */\n      swap3\n      swap2\n      pop\n      pop\n      jump\t// out\n        /* \"#utility.yul\":12773:12964   */\n    tag_141:\n        /* \"#utility.yul\":12813:12817   */\n      0x00\n        /* \"#utility.yul\":12833:12853   */\n      tag_326\n        /* \"#utility.yul\":12851:12852   */\n      dup3\n        /* \"#utility.yul\":12833:12853   */\n      tag_263\n      jump\t// in\n    tag_326:\n        /* \"#utility.yul\":12828:12853   */\n      swap2\n      pop\n        /* \"#utility.yul\":12867:12887   */\n      tag_327\n        /* \"#utility.yul\":12885:12886   */\n      dup4\n        /* \"#utility.yul\":12867:12887   */\n      tag_263\n      jump\t// in\n    tag_327:\n        /* \"#utility.yul\":12862:12887   */\n      swap3\n      pop\n        /* \"#utility.yul\":12906:12907   */\n      dup3\n        /* \"#utility.yul\":12903:12904   */\n      dup3\n        /* \"#utility.yul\":12900:12908   */\n      lt\n        /* \"#utility.yul\":12897:12931   */\n      iszero\n      tag_328\n      jumpi\n        /* \"#utility.yul\":12911:12929   */\n      tag_329\n      tag_313\n      jump\t// in\n    tag_329:\n        /* \"#utility.yul\":12897:12931   */\n    tag_328:\n        /* \"#utility.yul\":12956:12957   */\n      dup3\n        /* \"#utility.yul\":12953:12954   */\n      dup3\n        /* \"#utility.yul\":12949:12958   */\n      sub\n        /* \"#utility.yul\":12941:12958   */\n      swap1\n      pop\n        /* \"#utility.yul\":12773:12964   */\n      swap3\n      swap2\n      pop\n      pop\n      jump\t// out\n        /* \"#utility.yul\":12970:13066   */\n    tag_206:\n        /* \"#utility.yul\":13007:13014   */\n      0x00\n        /* \"#utility.yul\":13036:13060   */\n      tag_331\n        /* \"#utility.yul\":13054:13059   */\n      dup3\n        /* \"#utility.yul\":13036:13060   */\n      tag_332\n      jump\t// in\n    tag_331:\n        /* \"#utility.yul\":13025:13060   */\n      swap1\n      pop\n        /* \"#utility.yul\":12970:13066   */\n      swap2\n      swap1\n      pop\n      jump\t// out\n        /* \"#utility.yul\":13072:13162   */\n    tag_215:\n        /* \"#utility.yul\":13106:13113   */\n      0x00\n        /* \"#utility.yul\":13149:13154   */\n      dup2\n        /* \"#utility.yul\":13142:13155   */\n      iszero\n        /* \"#utility.yul\":13135:13156   */\n      iszero\n        /* \"#utility.yul\":13124:13156   */\n      swap1\n      pop\n        /* \"#utility.yul\":13072:13162   */\n      swap2\n      swap1\n      pop\n      jump\t// out\n        /* \"#utility.yul\":13168:13317   */\n    tag_219:\n        /* \"#utility.yul\":13204:13211   */\n      0x00\n        /* \"#utility.yul\":13244:13310   */\n      0xffffffff00000000000000000000000000000000000000000000000000000000\n        /* \"#utility.yul\":13237:13242   */\n      dup3\n        /* \"#utility.yul\":13233:13311   */\n      and\n        /* \"#utility.yul\":13222:13311   */\n      swap1\n      pop\n        /* \"#utility.yul\":13168:13317   */\n      swap2\n      swap1\n      pop\n      jump\t// out\n        /* \"#utility.yul\":13323:13449   */\n    tag_332:\n        /* \"#utility.yul\":13360:13367   */\n      0x00\n        /* \"#utility.yul\":13400:13442   */\n      0xffffffffffffffffffffffffffffffffffffffff\n        /* \"#utility.yul\":13393:13398   */\n      dup3\n        /* \"#utility.yul\":13389:13443   */\n      and\n        /* \"#utility.yul\":13378:13443   */\n      swap1\n      pop\n        /* \"#utility.yul\":13323:13449   */\n      swap2\n      swap1\n      pop\n      jump\t// out\n        /* \"#utility.yul\":13455:13532   */\n    tag_263:\n        /* \"#utility.yul\":13492:13499   */\n      0x00\n        /* \"#utility.yul\":13521:13526   */\n      dup2\n        /* \"#utility.yul\":13510:13526   */\n      swap1\n      pop\n        /* \"#utility.yul\":13455:13532   */\n      swap2\n      swap1\n      pop\n      jump\t// out\n        /* \"#utility.yul\":13538:13678   */\n    tag_229:\n        /* \"#utility.yul\":13602:13611   */\n      0x00\n        /* \"#utility.yul\":13635:13672   */\n      tag_338\n        /* \"#utility.yul\":13666:13671   */\n      dup3\n        /* \"#utility.yul\":13635:13672   */\n      tag_339\n      jump\t// in\n    tag_338:\n        /* \"#utility.yul\":13622:13672   */\n      swap1\n      pop\n        /* \"#utility.yul\":13538:13678   */\n      swap2\n      swap1\n      pop\n      jump\t// out\n        /* \"#utility.yul\":13684:13825   */\n    tag_233:\n        /* \"#utility.yul\":13749:13758   */\n      0x00\n        /* \"#utility.yul\":13782:13819   */\n      tag_341\n        /* \"#utility.yul\":13813:13818   */\n      dup3\n        /* \"#utility.yul\":13782:13819   */\n      tag_339\n      jump\t// in\n    tag_341:\n        /* \"#utility.yul\":13769:13819   */\n      swap1\n      pop\n        /* \"#utility.yul\":13684:13825   */\n      swap2\n      swap1\n      pop\n      jump\t// out\n        /* \"#utility.yul\":13831:13957   */\n    tag_339:\n        /* \"#utility.yul\":13881:13890   */\n      0x00\n        /* \"#utility.yul\":13914:13951   */\n      tag_343\n        /* \"#utility.yul\":13945:13950   */\n      dup3\n        /* \"#utility.yul\":13914:13951   */\n      tag_344\n      jump\t// in\n    tag_343:\n        /* \"#utility.yul\":13901:13951   */\n      swap1\n      pop\n        /* \"#utility.yul\":13831:13957   */\n      swap2\n      swap1\n      pop\n      jump\t// out\n        /* \"#utility.yul\":13963:14076   */\n    tag_344:\n        /* \"#utility.yul\":14013:14022   */\n      0x00\n        /* \"#utility.yul\":14046:14070   */\n      tag_346\n        /* \"#utility.yul\":14064:14069   */\n      dup3\n        /* \"#utility.yul\":14046:14070   */\n      tag_332\n      jump\t// in\n    tag_346:\n        /* \"#utility.yul\":14033:14070   */\n      swap1\n      pop\n        /* \"#utility.yul\":13963:14076   */\n      swap2\n      swap1\n      pop\n      jump\t// out\n        /* \"#utility.yul\":14082:14236   */\n    tag_225:\n        /* \"#utility.yul\":14166:14172   */\n      dup3\n        /* \"#utility.yul\":14161:14164   */\n      dup2\n        /* \"#utility.yul\":14156:14159   */\n      dup4\n        /* \"#utility.yul\":14143:14173   */\n      calldatacopy\n        /* \"#utility.yul\":14228:14229   */\n      0x00\n        /* \"#utility.yul\":14219:14225   */\n      dup4\n        /* \"#utility.yul\":14214:14217   */\n      dup4\n        /* \"#utility.yul\":14210:14226   */\n      add\n        /* \"#utility.yul\":14203:14230   */\n      mstore\n        /* \"#utility.yul\":14082:14236   */\n      pop\n      pop\n      pop\n      jump\t// out\n        /* \"#utility.yul\":14242:14413   */\n    tag_90:\n        /* \"#utility.yul\":14281:14284   */\n      0x00\n        /* \"#utility.yul\":14304:14328   */\n      tag_349\n        /* \"#utility.yul\":14322:14327   */\n      dup3\n        /* \"#utility.yul\":14304:14328   */\n      tag_263\n      jump\t// in\n    tag_349:\n        /* \"#utility.yul\":14295:14328   */\n      swap2\n      pop\n        /* \"#utility.yul\":14350:14354   */\n      0x00\n        /* \"#utility.yul\":14343:14348   */\n      dup3\n        /* \"#utility.yul\":14340:14355   */\n      eq\n        /* \"#utility.yul\":14337:14378   */\n      iszero\n      tag_350\n      jumpi\n        /* \"#utility.yul\":14358:14376   */\n      tag_351\n      tag_313\n      jump\t// in\n    tag_351:\n        /* \"#utility.yul\":14337:14378   */\n    tag_350:\n        /* \"#utility.yul\":14405:14406   */\n      0x01\n        /* \"#utility.yul\":14398:14403   */\n      dup3\n        /* \"#utility.yul\":14394:14407   */\n      sub\n        /* \"#utility.yul\":14387:14407   */\n      swap1\n      pop\n        /* \"#utility.yul\":14242:14413   */\n      swap2\n      swap1\n      pop\n      jump\t// out\n        /* \"#utility.yul\":14419:14652   */\n    tag_85:\n        /* \"#utility.yul\":14458:14461   */\n      0x00\n        /* \"#utility.yul\":14481:14505   */\n      tag_353\n        /* \"#utility.yul\":14499:14504   */\n      dup3\n        /* \"#utility.yul\":14481:14505   */\n      tag_263\n      jump\t// in\n    tag_353:\n        /* \"#utility.yul\":14472:14505   */\n      swap2\n      pop\n        /* \"#utility.yul\":14527:14593   */\n      0xffffffffffffffffffffffffffffffffffffffffffffffffffffffffffffffff\n        /* \"#utility.yul\":14520:14525   */\n      dup3\n        /* \"#utility.yul\":14517:14594   */\n      eq\n        /* \"#utility.yul\":14514:14617   */\n      iszero\n      tag_354\n      jumpi\n        /* \"#utility.yul\":14597:14615   */\n      tag_355\n      tag_313\n      jump\t// in\n    tag_355:\n        /* \"#utility.yul\":14514:14617   */\n    tag_354:\n        /* \"#utility.yul\":14644:14645   */\n      0x01\n        /* \"#utility.yul\":14637:14642   */\n      dup3\n        /* \"#utility.yul\":14633:14646   */\n      add\n        /* \"#utility.yul\":14626:14646   */\n      swap1\n      pop\n        /* \"#utility.yul\":14419:14652   */\n      swap2\n      swap1\n      pop\n      jump\t// out\n        /* \"#utility.yul\":14658:14758   */\n    tag_211:\n        /* \"#utility.yul\":14697:14704   */\n      0x00\n        /* \"#utility.yul\":14726:14752   */\n      tag_357\n        /* \"#utility.yul\":14746:14751   */\n      dup3\n        /* \"#utility.yul\":14726:14752   */\n      tag_358\n      jump\t// in\n    tag_357:\n        /* \"#utility.yul\":14715:14752   */\n      swap1\n      pop\n        /* \"#utility.yul\":14658:14758   */\n      swap2\n      swap1\n      pop\n      jump\t// out\n        /* \"#utility.yul\":14764:14858   */\n    tag_358:\n        /* \"#utility.yul\":14803:14810   */\n      0x00\n        /* \"#utility.yul\":14832:14852   */\n      tag_360\n        /* \"#utility.yul\":14846:14851   */\n      dup3\n        /* \"#utility.yul\":14832:14852   */\n      tag_361\n      jump\t// in\n    tag_360:\n        /* \"#utility.yul\":14821:14852   */\n      swap1\n      pop\n        /* \"#utility.yul\":14764:14858   */\n      swap2\n      swap1\n      pop\n      jump\t// out\n        /* \"#utility.yul\":14864:14943   */\n    tag_268:\n        /* \"#utility.yul\":14903:14910   */\n      0x00\n        /* \"#utility.yul\":14932:14937   */\n      dup2\n        /* \"#utility.yul\":14921:14937   */\n      swap1\n      pop\n        /* \"#utility.yul\":14864:14943   */\n      swap2\n      swap1\n      pop\n      jump\t// out\n        /* \"#utility.yul\":14949:15129   */\n    tag_313:\n        /* \"#utility.yul\":14997:15074   */\n      0x4e487b7100000000000000000000000000000000000000000000000000000000\n        /* \"#utility.yul\":14994:14995   */\n      0x00\n        /* \"#utility.yul\":14987:15075   */\n      mstore\n        /* \"#utility.yul\":15094:15098   */\n      0x11\n        /* \"#utility.yul\":15091:15092   */\n      0x04\n        /* \"#utility.yul\":15084:15099   */\n      mstore\n        /* \"#utility.yul\":15118:15122   */\n      0x24\n        /* \"#utility.yul\":15115:15116   */\n      0x00\n        /* \"#utility.yul\":15108:15123   */\n      revert\n        /* \"#utility.yul\":15135:15315   */\n    tag_319:\n        /* \"#utility.yul\":15183:15260   */\n      0x4e487b7100000000000000000000000000000000000000000000000000000000\n        /* \"#utility.yul\":15180:15181   */\n      0x00\n        /* \"#utility.yul\":15173:15261   */\n      mstore\n        /* \"#utility.yul\":15280:15284   */\n      0x12\n        /* \"#utility.yul\":15277:15278   */\n      0x04\n        /* \"#utility.yul\":15270:15285   */\n      mstore\n        /* \"#utility.yul\":15304:15308   */\n      0x24\n        /* \"#utility.yul\":15301:15302   */\n      0x00\n        /* \"#utility.yul\":15294:15309   */\n      revert\n        /* \"#utility.yul\":15321:15501   */\n    tag_81:\n        /* \"#utility.yul\":15369:15446   */\n      0x4e487b7100000000000000000000000000000000000000000000000000000000\n        /* \"#utility.yul\":15366:15367   */\n      0x00\n        /* \"#utility.yul\":15359:15447   */\n      mstore\n        /* \"#utility.yul\":15466:15470   */\n      0x32\n        /* \"#utility.yul\":15463:15464   */\n      0x04\n        /* \"#utility.yul\":15456:15471   */\n      mstore\n        /* \"#utility.yul\":15490:15494   */\n      0x24\n        /* \"#utility.yul\":15487:15488   */\n      0x00\n        /* \"#utility.yul\":15480:15495   */\n      revert\n        /* \"#utility.yul\":15507:15624   */\n    tag_172:\n        /* \"#utility.yul\":15616:15617   */\n      0x00\n        /* \"#utility.yul\":15613:15614   */\n      dup1\n        /* \"#utility.yul\":15606:15618   */\n      revert\n        /* \"#utility.yul\":15630:15747   */\n    tag_169:\n        /* \"#utility.yul\":15739:15740   */\n      0x00\n        /* \"#utility.yul\":15736:15737   */\n      dup1\n        /* \"#utility.yul\":15729:15741   */\n      revert\n        /* \"#utility.yul\":15753:15870   */\n    tag_175:\n        /* \"#utility.yul\":15862:15863   */\n      0x00\n        /* \"#utility.yul\":15859:15860   */\n      dup1\n        /* \"#utility.yul\":15852:15864   */\n      revert\n        /* \"#utility.yul\":15876:15993   */\n    tag_197:\n        /* \"#utility.yul\":15985:15986   */\n      0x00\n        /* \"#utility.yul\":15982:15983   */\n      dup1\n        /* \"#utility.yul\":15975:15987   */\n      revert\n        /* \"#utility.yul\":15999:16116   */\n    tag_183:\n        /* \"#utility.yul\":16108:16109   */\n      0x00\n        /* \"#utility.yul\":16105:16106   */\n      dup1\n        /* \"#utility.yul\":16098:16110   */\n      revert\n        /* \"#utility.yul\":16122:16216   */\n    tag_361:\n        /* \"#utility.yul\":16155:16163   */\n      0x00\n        /* \"#utility.yul\":16203:16208   */\n      dup2\n        /* \"#utility.yul\":16199:16201   */\n      0x60\n        /* \"#utility.yul\":16195:16209   */\n      shl\n        /* \"#utility.yul\":16174:16209   */\n      swap1\n      pop\n        /* \"#utility.yul\":16122:16216   */\n      swap2\n      swap1\n      pop\n      jump\t// out\n        /* \"#utility.yul\":16222:16397   */\n    tag_239:\n        /* \"#utility.yul\":16362:16389   */\n      0x596f7520646f6e2774206f776e207468697320746f6b656e2100000000000000\n        /* \"#utility.yul\":16358:16359   */\n      0x00\n        /* \"#utility.yul\":16350:16356   */\n      dup3\n        /* \"#utility.yul\":16346:16360   */\n      add\n        /* \"#utility.yul\":16339:16390   */\n      mstore\n        /* \"#utility.yul\":16222:16397   */\n      pop\n      jump\t// out\n        /* \"#utility.yul\":16403:16628   */\n    tag_244:\n        /* \"#utility.yul\":16543:16577   */\n      0x4f776e61626c653a206e6577206f776e657220697320746865207a65726f2061\n        /* \"#utility.yul\":16539:16540   */\n      0x00\n        /* \"#utility.yul\":16531:16537   */\n      dup3\n        /* \"#utility.yul\":16527:16541   */\n      add\n        /* \"#utility.yul\":16520:16578   */\n      mstore\n        /* \"#utility.yul\":16612:16620   */\n      0x6464726573730000000000000000000000000000000000000000000000000000\n        /* \"#utility.yul\":16607:16609   */\n      0x20\n        /* \"#utility.yul\":16599:16605   */\n      dup3\n        /* \"#utility.yul\":16595:16610   */\n      add\n        /* \"#utility.yul\":16588:16621   */\n      mstore\n        /* \"#utility.yul\":16403:16628   */\n      pop\n      jump\t// out\n        /* \"#utility.yul\":16634:16809   */\n    tag_249:\n        /* \"#utility.yul\":16774:16801   */\n      0x596f752068617665206e6f20746f6b656e73207374616b656400000000000000\n        /* \"#utility.yul\":16770:16771   */\n      0x00\n        /* \"#utility.yul\":16762:16768   */\n      dup3\n        /* \"#utility.yul\":16758:16772   */\n      add\n        /* \"#utility.yul\":16751:16802   */\n      mstore\n        /* \"#utility.yul\":16634:16809   */\n      pop\n      jump\t// out\n        /* \"#utility.yul\":16815:16997   */\n    tag_254:\n        /* \"#utility.yul\":16955:16989   */\n      0x4f776e61626c653a2063616c6c6572206973206e6f7420746865206f776e6572\n        /* \"#utility.yul\":16951:16952   */\n      0x00\n        /* \"#utility.yul\":16943:16949   */\n      dup3\n        /* \"#utility.yul\":16939:16953   */\n      add\n        /* \"#utility.yul\":16932:16990   */\n      mstore\n        /* \"#utility.yul\":16815:16997   */\n      pop\n      jump\t// out\n        /* \"#utility.yul\":17003:17184   */\n    tag_259:\n        /* \"#utility.yul\":17143:17176   */\n      0x5265656e7472616e637947756172643a207265656e7472616e742063616c6c00\n        /* \"#utility.yul\":17139:17140   */\n      0x00\n        /* \"#utility.yul\":17131:17137   */\n      dup3\n        /* \"#utility.yul\":17127:17141   */\n      add\n        /* \"#utility.yul\":17120:17177   */\n      mstore\n        /* \"#utility.yul\":17003:17184   */\n      pop\n      jump\t// out\n        /* \"#utility.yul\":17190:17312   */\n    tag_161:\n        /* \"#utility.yul\":17263:17287   */\n      tag_378\n        /* \"#utility.yul\":17281:17286   */\n      dup2\n        /* \"#utility.yul\":17263:17287   */\n      tag_206\n      jump\t// in\n    tag_378:\n        /* \"#utility.yul\":17256:17261   */\n      dup2\n        /* \"#utility.yul\":17253:17288   */\n      eq\n        /* \"#utility.yul\":17243:17306   */\n      tag_379\n      jumpi\n        /* \"#utility.yul\":17302:17303   */\n      0x00\n        /* \"#utility.yul\":17299:17300   */\n      dup1\n        /* \"#utility.yul\":17292:17304   */\n      revert\n        /* \"#utility.yul\":17243:17306   */\n    tag_379:\n        /* \"#utility.yul\":17190:17312   */\n      pop\n      jump\t// out\n        /* \"#utility.yul\":17318:17440   */\n    tag_179:\n        /* \"#utility.yul\":17391:17415   */\n      tag_381\n        /* \"#utility.yul\":17409:17414   */\n      dup2\n        /* \"#utility.yul\":17391:17415   */\n      tag_263\n      jump\t// in\n    tag_381:\n        /* \"#utility.yul\":17384:17389   */\n      dup2\n        /* \"#utility.yul\":17381:17416   */\n      eq\n        /* \"#utility.yul\":17371:17434   */\n      tag_382\n      jumpi\n        /* \"#utility.yul\":17430:17431   */\n      0x00\n        /* \"#utility.yul\":17427:17428   */\n      dup1\n        /* \"#utility.yul\":17420:17432   */\n      revert\n        /* \"#utility.yul\":17371:17434   */\n    tag_382:\n        /* \"#utility.yul\":17318:17440   */\n      pop\n      jump\t// out\n\n    auxdata: 0xa2646970667358221220f4d42088f2c25f90fa883e06a987ec9d7289e8c49f59a406f99b5b363613c66764736f6c63430008070033\n}\n",
				"bytecode": {
					"linkReferences": {},
					"object": "6080604052620186a06004553480156200001857600080fd5b5060405162001c1038038062001c1083398181016040528101906200003e919062000223565b60016000819055506000600160006101000a81548160ff02191690831515021790555062000081620000756200011360201b60201c565b6200011b60201b60201c565b82600360006101000a81548173ffffffffffffffffffffffffffffffffffffffff021916908373ffffffffffffffffffffffffffffffffffffffff16021790555081600260006101000a81548173ffffffffffffffffffffffffffffffffffffffff021916908373ffffffffffffffffffffffffffffffffffffffff1602179055508060048190555050505062000338565b600033905090565b600060018054906101000a900473ffffffffffffffffffffffffffffffffffffffff169050816001806101000a81548173ffffffffffffffffffffffffffffffffffffffff021916908373ffffffffffffffffffffffffffffffffffffffff1602179055508173ffffffffffffffffffffffffffffffffffffffff168173ffffffffffffffffffffffffffffffffffffffff167f8be0079c531659141344cd1fd0a4f28419497f9722a3daafe3b4186f6b6457e060405160405180910390a35050565b600081519050620001ef81620002ea565b92915050565b600081519050620002068162000304565b92915050565b6000815190506200021d816200031e565b92915050565b6000806000606084860312156200023f576200023e620002e5565b5b60006200024f86828701620001f5565b93505060206200026286828701620001de565b925050604062000275868287016200020c565b9150509250925092565b60006200028c82620002bb565b9050919050565b6000620002a0826200027f565b9050919050565b6000620002b4826200027f565b9050919050565b600073ffffffffffffffffffffffffffffffffffffffff82169050919050565b6000819050919050565b600080fd5b620002f58162000293565b81146200030157600080fd5b50565b6200030f81620002a7565b81146200031b57600080fd5b50565b6200032981620002db565b81146200033557600080fd5b50565b6118c880620003486000396000f3fe608060405234801561001057600080fd5b50600436106100a95760003560e01c80638da5cb5b116100715780638da5cb5b146101405780639168ae721461015e5780639406704514610190578063a694fc3a146101c0578063d1af0c7d146101dc578063f2fde38b146101fa576100a9565b8063150b7a02146100ae5780632e1a7d4d146100de5780635c975abb146100fa5780636588103b14610118578063715018a614610136575b600080fd5b6100c860048036038101906100c39190611014565b610216565b6040516100d591906112de565b60405180910390f35b6100f860048036038101906100f3919061109c565b610252565b005b6101026106f5565b60405161010f91906112c3565b60405180910390f35b61012061070c565b60405161012d9190611314565b60405180910390f35b61013e610732565b005b610148610746565b6040516101559190611271565b60405180910390f35b61017860048036038101906101739190610fba565b61076e565b604051610187939291906113ea565b60405180910390f35b6101aa60048036038101906101a5919061109c565b610798565b6040516101b79190611271565b60405180910390f35b6101da60048036038101906101d5919061109c565b6107cb565b005b6101e4610c1a565b6040516101f191906112f9565b60405180910390f35b610214600480360381019061020f9190610fba565b610c40565b005b60008585858585604051602001610231959493929190611225565b60405160208183030381529060405280519060200120905095945050505050565b61025a610cc4565b6000600560003373ffffffffffffffffffffffffffffffffffffffff1673ffffffffffffffffffffffffffffffffffffffff16815260200190815260200160002060000154116102df576040517f08c379a00000000000000000000000000000000000000000000000000000000081526004016102d69061136f565b60405180910390fd5b3373ffffffffffffffffffffffffffffffffffffffff166006600083815260200190815260200160002060009054906101000a900473ffffffffffffffffffffffffffffffffffffffff1673ffffffffffffffffffffffffffffffffffffffff1614610380576040517f08c379a00000000000000000000000000000000000000000000000000000000081526004016103779061132f565b60405180910390fd5b600061038b33610d14565b905080600560003373ffffffffffffffffffffffffffffffffffffffff1673ffffffffffffffffffffffffffffffffffffffff16815260200190815260200160002060030160008282546103df919061143d565b925050819055506000805b600560003373ffffffffffffffffffffffffffffffffffffffff1673ffffffffffffffffffffffffffffffffffffffff168152602001908152602001600020600101805490508110156104bf5783600560003373ffffffffffffffffffffffffffffffffffffffff1673ffffffffffffffffffffffffffffffffffffffff168152602001908152602001600020600101828154811061048c5761048b61171c565b5b90600052602060002090600202016001015414156104ac578091506104bf565b80806104b790611647565b9150506103ea565b506000600560003373ffffffffffffffffffffffffffffffffffffffff1673ffffffffffffffffffffffffffffffffffffffff16815260200190815260200160002060010182815481106105165761051561171c565b5b906000526020600020906002020160000160006101000a81548173ffffffffffffffffffffffffffffffffffffffff021916908373ffffffffffffffffffffffffffffffffffffffff160217905550600560003373ffffffffffffffffffffffffffffffffffffffff1673ffffffffffffffffffffffffffffffffffffffff16815260200190815260200160002060000160008154809291906105b89061161d565b919050555060006006600085815260200190815260200160002060006101000a81548173ffffffffffffffffffffffffffffffffffffffff021916908373ffffffffffffffffffffffffffffffffffffffff160217905550600360009054906101000a900473ffffffffffffffffffffffffffffffffffffffff1673ffffffffffffffffffffffffffffffffffffffff166323b872dd3033866040518463ffffffff1660e01b815260040161066f9392919061128c565b600060405180830381600087803b15801561068957600080fd5b505af115801561069d573d6000803e3d6000fd5b5050505042600560003373ffffffffffffffffffffffffffffffffffffffff1673ffffffffffffffffffffffffffffffffffffffff1681526020019081526020016000206002018190555050506106f2610dd2565b50565b6000600160009054906101000a900460ff16905090565b600360009054906101000a900473ffffffffffffffffffffffffffffffffffffffff1681565b61073a610ddc565b6107446000610e5a565b565b600060018054906101000a900473ffffffffffffffffffffffffffffffffffffffff16905090565b60056020528060005260406000206000915090508060000154908060020154908060030154905083565b60066020528060005260406000206000915054906101000a900473ffffffffffffffffffffffffffffffffffffffff1681565b6107d3610cc4565b3373ffffffffffffffffffffffffffffffffffffffff16600360009054906101000a900473ffffffffffffffffffffffffffffffffffffffff1673ffffffffffffffffffffffffffffffffffffffff16636352211e836040518263ffffffff1660e01b815260040161084591906113cf565b60206040518083038186803b15801561085d57600080fd5b505afa158015610871573d6000803e3d6000fd5b505050506040513d601f19601f820116820180604052508101906108959190610fe7565b73ffffffffffffffffffffffffffffffffffffffff16146108eb576040517f08c379a00000000000000000000000000000000000000000000000000000000081526004016108e29061132f565b60405180910390fd5b6000600560003373ffffffffffffffffffffffffffffffffffffffff1673ffffffffffffffffffffffffffffffffffffffff16815260200190815260200160002060000154111561099e57600061094133610d14565b905080600560003373ffffffffffffffffffffffffffffffffffffffff1673ffffffffffffffffffffffffffffffffffffffff1681526020019081526020016000206003016000828254610995919061143d565b92505081905550505b600360009054906101000a900473ffffffffffffffffffffffffffffffffffffffff1673ffffffffffffffffffffffffffffffffffffffff166323b872dd3330846040518463ffffffff1660e01b81526004016109fd9392919061128c565b600060405180830381600087803b158015610a1757600080fd5b505af1158015610a2b573d6000803e3d6000fd5b50505050600060405180604001604052803373ffffffffffffffffffffffffffffffffffffffff168152602001838152509050600560003373ffffffffffffffffffffffffffffffffffffffff1673ffffffffffffffffffffffffffffffffffffffff16815260200190815260200160002060010181908060018154018082558091505060019003906000526020600020906002020160009091909190915060008201518160000160006101000a81548173ffffffffffffffffffffffffffffffffffffffff021916908373ffffffffffffffffffffffffffffffffffffffff160217905550602082015181600101555050600560003373ffffffffffffffffffffffffffffffffffffffff1673ffffffffffffffffffffffffffffffffffffffff1681526020019081526020016000206000016000815480929190610b7090611647565b9190505550336006600084815260200190815260200160002060006101000a81548173ffffffffffffffffffffffffffffffffffffffff021916908373ffffffffffffffffffffffffffffffffffffffff16021790555042600560003373ffffffffffffffffffffffffffffffffffffffff1673ffffffffffffffffffffffffffffffffffffffff1681526020019081526020016000206002018190555050610c17610dd2565b50565b600260009054906101000a900473ffffffffffffffffffffffffffffffffffffffff1681565b610c48610ddc565b600073ffffffffffffffffffffffffffffffffffffffff168173ffffffffffffffffffffffffffffffffffffffff161415610cb8576040517f08c379a0000000000000000000000000000000000000000000000000000000008152600401610caf9061134f565b60405180910390fd5b610cc181610e5a565b50565b60026000541415610d0a576040517f08c379a0000000000000000000000000000000000000000000000000000000008152600401610d01906113af565b60405180910390fd5b6002600081905550565b6000610e10600454600560008573ffffffffffffffffffffffffffffffffffffffff1673ffffffffffffffffffffffffffffffffffffffff16815260200190815260200160002060000154600560008673ffffffffffffffffffffffffffffffffffffffff1673ffffffffffffffffffffffffffffffffffffffff1681526020019081526020016000206002015442610dad919061151e565b610db791906114c4565b610dc191906114c4565b610dcb9190611493565b9050919050565b6001600081905550565b610de4610f1d565b73ffffffffffffffffffffffffffffffffffffffff16610e02610746565b73ffffffffffffffffffffffffffffffffffffffff1614610e58576040517f08c379a0000000000000000000000000000000000000000000000000000000008152600401610e4f9061138f565b60405180910390fd5b565b600060018054906101000a900473ffffffffffffffffffffffffffffffffffffffff169050816001806101000a81548173ffffffffffffffffffffffffffffffffffffffff021916908373ffffffffffffffffffffffffffffffffffffffff1602179055508173ffffffffffffffffffffffffffffffffffffffff168173ffffffffffffffffffffffffffffffffffffffff167f8be0079c531659141344cd1fd0a4f28419497f9722a3daafe3b4186f6b6457e060405160405180910390a35050565b600033905090565b600081359050610f3481611864565b92915050565b600081519050610f4981611864565b92915050565b60008083601f840112610f6557610f64611750565b5b8235905067ffffffffffffffff811115610f8257610f8161174b565b5b602083019150836001820283011115610f9e57610f9d611755565b5b9250929050565b600081359050610fb48161187b565b92915050565b600060208284031215610fd057610fcf61175f565b5b6000610fde84828501610f25565b91505092915050565b600060208284031215610ffd57610ffc61175f565b5b600061100b84828501610f3a565b91505092915050565b6000806000806000608086880312156110305761102f61175f565b5b600061103e88828901610f25565b955050602061104f88828901610f25565b945050604061106088828901610fa5565b935050606086013567ffffffffffffffff8111156110815761108061175a565b5b61108d88828901610f4f565b92509250509295509295909350565b6000602082840312156110b2576110b161175f565b5b60006110c084828501610fa5565b91505092915050565b6110d281611552565b82525050565b6110e96110e482611552565b611690565b82525050565b6110f881611564565b82525050565b61110781611570565b82525050565b60006111198385611421565b935061112683858461160e565b82840190509392505050565b61113b816115c6565b82525050565b61114a816115d8565b82525050565b600061115d60198361142c565b915061116882611771565b602082019050919050565b600061118060268361142c565b915061118b8261179a565b604082019050919050565b60006111a360198361142c565b91506111ae826117e9565b602082019050919050565b60006111c660208361142c565b91506111d182611812565b602082019050919050565b60006111e9601f8361142c565b91506111f48261183b565b602082019050919050565b611208816115bc565b82525050565b61121f61121a826115bc565b6116b4565b82525050565b600061123182886110d8565b60148201915061124182876110d8565b601482019150611251828661120e565b60208201915061126282848661110d565b91508190509695505050505050565b600060208201905061128660008301846110c9565b92915050565b60006060820190506112a160008301866110c9565b6112ae60208301856110c9565b6112bb60408301846111ff565b949350505050565b60006020820190506112d860008301846110ef565b92915050565b60006020820190506112f360008301846110fe565b92915050565b600060208201905061130e6000830184611132565b92915050565b60006020820190506113296000830184611141565b92915050565b6000602082019050818103600083015261134881611150565b9050919050565b6000602082019050818103600083015261136881611173565b9050919050565b6000602082019050818103600083015261138881611196565b9050919050565b600060208201905081810360008301526113a8816111b9565b9050919050565b600060208201905081810360008301526113c8816111dc565b9050919050565b60006020820190506113e460008301846111ff565b92915050565b60006060820190506113ff60008301866111ff565b61140c60208301856111ff565b61141960408301846111ff565b949350505050565b600081905092915050565b600082825260208201905092915050565b6000611448826115bc565b9150611453836115bc565b9250827fffffffffffffffffffffffffffffffffffffffffffffffffffffffffffffffff03821115611488576114876116be565b5b828201905092915050565b600061149e826115bc565b91506114a9836115bc565b9250826114b9576114b86116ed565b5b828204905092915050565b60006114cf826115bc565b91506114da836115bc565b9250817fffffffffffffffffffffffffffffffffffffffffffffffffffffffffffffffff0483118215151615611513576115126116be565b5b828202905092915050565b6000611529826115bc565b9150611534836115bc565b925082821015611547576115466116be565b5b828203905092915050565b600061155d8261159c565b9050919050565b60008115159050919050565b60007fffffffff0000000000000000000000000000000000000000000000000000000082169050919050565b600073ffffffffffffffffffffffffffffffffffffffff82169050919050565b6000819050919050565b60006115d1826115ea565b9050919050565b60006115e3826115ea565b9050919050565b60006115f5826115fc565b9050919050565b60006116078261159c565b9050919050565b82818337600083830152505050565b6000611628826115bc565b9150600082141561163c5761163b6116be565b5b600182039050919050565b6000611652826115bc565b91507fffffffffffffffffffffffffffffffffffffffffffffffffffffffffffffffff821415611685576116846116be565b5b600182019050919050565b600061169b826116a2565b9050919050565b60006116ad82611764565b9050919050565b6000819050919050565b7f4e487b7100000000000000000000000000000000000000000000000000000000600052601160045260246000fd5b7f4e487b7100000000000000000000000000000000000000000000000000000000600052601260045260246000fd5b7f4e487b7100000000000000000000000000000000000000000000000000000000600052603260045260246000fd5b600080fd5b600080fd5b600080fd5b600080fd5b600080fd5b60008160601b9050919050565b7f596f7520646f6e2774206f776e207468697320746f6b656e2100000000000000600082015250565b7f4f776e61626c653a206e6577206f776e657220697320746865207a65726f206160008201527f6464726573730000000000000000000000000000000000000000000000000000602082015250565b7f596f752068617665206e6f20746f6b656e73207374616b656400000000000000600082015250565b7f4f776e61626c653a2063616c6c6572206973206e6f7420746865206f776e6572600082015250565b7f5265656e7472616e637947756172643a207265656e7472616e742063616c6c00600082015250565b61186d81611552565b811461187857600080fd5b50565b611884816115bc565b811461188f57600080fd5b5056fea2646970667358221220f4d42088f2c25f90fa883e06a987ec9d7289e8c49f59a406f99b5b363613c66764736f6c63430008070033",
					"opcodes": "PUSH1 0x80 PUSH1 0x40 MSTORE PUSH3 0x186A0 PUSH1 0x4 SSTORE CALLVALUE DUP1 ISZERO PUSH3 0x18 JUMPI PUSH1 0x0 DUP1 REVERT JUMPDEST POP PUSH1 0x40 MLOAD PUSH3 0x1C10 CODESIZE SUB DUP1 PUSH3 0x1C10 DUP4 CODECOPY DUP2 DUP2 ADD PUSH1 0x40 MSTORE DUP2 ADD SWAP1 PUSH3 0x3E SWAP2 SWAP1 PUSH3 0x223 JUMP JUMPDEST PUSH1 0x1 PUSH1 0x0 DUP2 SWAP1 SSTORE POP PUSH1 0x0 PUSH1 0x1 PUSH1 0x0 PUSH2 0x100 EXP DUP2 SLOAD DUP2 PUSH1 0xFF MUL NOT AND SWAP1 DUP4 ISZERO ISZERO MUL OR SWAP1 SSTORE POP PUSH3 0x81 PUSH3 0x75 PUSH3 0x113 PUSH1 0x20 SHL PUSH1 0x20 SHR JUMP JUMPDEST PUSH3 0x11B PUSH1 0x20 SHL PUSH1 0x20 SHR JUMP JUMPDEST DUP3 PUSH1 0x3 PUSH1 0x0 PUSH2 0x100 EXP DUP2 SLOAD DUP2 PUSH20 0xFFFFFFFFFFFFFFFFFFFFFFFFFFFFFFFFFFFFFFFF MUL NOT AND SWAP1 DUP4 PUSH20 0xFFFFFFFFFFFFFFFFFFFFFFFFFFFFFFFFFFFFFFFF AND MUL OR SWAP1 SSTORE POP DUP2 PUSH1 0x2 PUSH1 0x0 PUSH2 0x100 EXP DUP2 SLOAD DUP2 PUSH20 0xFFFFFFFFFFFFFFFFFFFFFFFFFFFFFFFFFFFFFFFF MUL NOT AND SWAP1 DUP4 PUSH20 0xFFFFFFFFFFFFFFFFFFFFFFFFFFFFFFFFFFFFFFFF AND MUL OR SWAP1 SSTORE POP DUP1 PUSH1 0x4 DUP2 SWAP1 SSTORE POP POP POP POP PUSH3 0x338 JUMP JUMPDEST PUSH1 0x0 CALLER SWAP1 POP SWAP1 JUMP JUMPDEST PUSH1 0x0 PUSH1 0x1 DUP1 SLOAD SWAP1 PUSH2 0x100 EXP SWAP1 DIV PUSH20 0xFFFFFFFFFFFFFFFFFFFFFFFFFFFFFFFFFFFFFFFF AND SWAP1 POP DUP2 PUSH1 0x1 DUP1 PUSH2 0x100 EXP DUP2 SLOAD DUP2 PUSH20 0xFFFFFFFFFFFFFFFFFFFFFFFFFFFFFFFFFFFFFFFF MUL NOT AND SWAP1 DUP4 PUSH20 0xFFFFFFFFFFFFFFFFFFFFFFFFFFFFFFFFFFFFFFFF AND MUL OR SWAP1 SSTORE POP DUP2 PUSH20 0xFFFFFFFFFFFFFFFFFFFFFFFFFFFFFFFFFFFFFFFF AND DUP2 PUSH20 0xFFFFFFFFFFFFFFFFFFFFFFFFFFFFFFFFFFFFFFFF AND PUSH32 0x8BE0079C531659141344CD1FD0A4F28419497F9722A3DAAFE3B4186F6B6457E0 PUSH1 0x40 MLOAD PUSH1 0x40 MLOAD DUP1 SWAP2 SUB SWAP1 LOG3 POP POP JUMP JUMPDEST PUSH1 0x0 DUP2 MLOAD SWAP1 POP PUSH3 0x1EF DUP2 PUSH3 0x2EA JUMP JUMPDEST SWAP3 SWAP2 POP POP JUMP JUMPDEST PUSH1 0x0 DUP2 MLOAD SWAP1 POP PUSH3 0x206 DUP2 PUSH3 0x304 JUMP JUMPDEST SWAP3 SWAP2 POP POP JUMP JUMPDEST PUSH1 0x0 DUP2 MLOAD SWAP1 POP PUSH3 0x21D DUP2 PUSH3 0x31E JUMP JUMPDEST SWAP3 SWAP2 POP POP JUMP JUMPDEST PUSH1 0x0 DUP1 PUSH1 0x0 PUSH1 0x60 DUP5 DUP7 SUB SLT ISZERO PUSH3 0x23F JUMPI PUSH3 0x23E PUSH3 0x2E5 JUMP JUMPDEST JUMPDEST PUSH1 0x0 PUSH3 0x24F DUP7 DUP3 DUP8 ADD PUSH3 0x1F5 JUMP JUMPDEST SWAP4 POP POP PUSH1 0x20 PUSH3 0x262 DUP7 DUP3 DUP8 ADD PUSH3 0x1DE JUMP JUMPDEST SWAP3 POP POP PUSH1 0x40 PUSH3 0x275 DUP7 DUP3 DUP8 ADD PUSH3 0x20C JUMP JUMPDEST SWAP2 POP POP SWAP3 POP SWAP3 POP SWAP3 JUMP JUMPDEST PUSH1 0x0 PUSH3 0x28C DUP3 PUSH3 0x2BB JUMP JUMPDEST SWAP1 POP SWAP2 SWAP1 POP JUMP JUMPDEST PUSH1 0x0 PUSH3 0x2A0 DUP3 PUSH3 0x27F JUMP JUMPDEST SWAP1 POP SWAP2 SWAP1 POP JUMP JUMPDEST PUSH1 0x0 PUSH3 0x2B4 DUP3 PUSH3 0x27F JUMP JUMPDEST SWAP1 POP SWAP2 SWAP1 POP JUMP JUMPDEST PUSH1 0x0 PUSH20 0xFFFFFFFFFFFFFFFFFFFFFFFFFFFFFFFFFFFFFFFF DUP3 AND SWAP1 POP SWAP2 SWAP1 POP JUMP JUMPDEST PUSH1 0x0 DUP2 SWAP1 POP SWAP2 SWAP1 POP JUMP JUMPDEST PUSH1 0x0 DUP1 REVERT JUMPDEST PUSH3 0x2F5 DUP2 PUSH3 0x293 JUMP JUMPDEST DUP2 EQ PUSH3 0x301 JUMPI PUSH1 0x0 DUP1 REVERT JUMPDEST POP JUMP JUMPDEST PUSH3 0x30F DUP2 PUSH3 0x2A7 JUMP JUMPDEST DUP2 EQ PUSH3 0x31B JUMPI PUSH1 0x0 DUP1 REVERT JUMPDEST POP JUMP JUMPDEST PUSH3 0x329 DUP2 PUSH3 0x2DB JUMP JUMPDEST DUP2 EQ PUSH3 0x335 JUMPI PUSH1 0x0 DUP1 REVERT JUMPDEST POP JUMP JUMPDEST PUSH2 0x18C8 DUP1 PUSH3 0x348 PUSH1 0x0 CODECOPY PUSH1 0x0 RETURN INVALID PUSH1 0x80 PUSH1 0x40 MSTORE CALLVALUE DUP1 ISZERO PUSH2 0x10 JUMPI PUSH1 0x0 DUP1 REVERT JUMPDEST POP PUSH1 0x4 CALLDATASIZE LT PUSH2 0xA9 JUMPI PUSH1 0x0 CALLDATALOAD PUSH1 0xE0 SHR DUP1 PUSH4 0x8DA5CB5B GT PUSH2 0x71 JUMPI DUP1 PUSH4 0x8DA5CB5B EQ PUSH2 0x140 JUMPI DUP1 PUSH4 0x9168AE72 EQ PUSH2 0x15E JUMPI DUP1 PUSH4 0x94067045 EQ PUSH2 0x190 JUMPI DUP1 PUSH4 0xA694FC3A EQ PUSH2 0x1C0 JUMPI DUP1 PUSH4 0xD1AF0C7D EQ PUSH2 0x1DC JUMPI DUP1 PUSH4 0xF2FDE38B EQ PUSH2 0x1FA JUMPI PUSH2 0xA9 JUMP JUMPDEST DUP1 PUSH4 0x150B7A02 EQ PUSH2 0xAE JUMPI DUP1 PUSH4 0x2E1A7D4D EQ PUSH2 0xDE JUMPI DUP1 PUSH4 0x5C975ABB EQ PUSH2 0xFA JUMPI DUP1 PUSH4 0x6588103B EQ PUSH2 0x118 JUMPI DUP1 PUSH4 0x715018A6 EQ PUSH2 0x136 JUMPI JUMPDEST PUSH1 0x0 DUP1 REVERT JUMPDEST PUSH2 0xC8 PUSH1 0x4 DUP1 CALLDATASIZE SUB DUP2 ADD SWAP1 PUSH2 0xC3 SWAP2 SWAP1 PUSH2 0x1014 JUMP JUMPDEST PUSH2 0x216 JUMP JUMPDEST PUSH1 0x40 MLOAD PUSH2 0xD5 SWAP2 SWAP1 PUSH2 0x12DE JUMP JUMPDEST PUSH1 0x40 MLOAD DUP1 SWAP2 SUB SWAP1 RETURN JUMPDEST PUSH2 0xF8 PUSH1 0x4 DUP1 CALLDATASIZE SUB DUP2 ADD SWAP1 PUSH2 0xF3 SWAP2 SWAP1 PUSH2 0x109C JUMP JUMPDEST PUSH2 0x252 JUMP JUMPDEST STOP JUMPDEST PUSH2 0x102 PUSH2 0x6F5 JUMP JUMPDEST PUSH1 0x40 MLOAD PUSH2 0x10F SWAP2 SWAP1 PUSH2 0x12C3 JUMP JUMPDEST PUSH1 0x40 MLOAD DUP1 SWAP2 SUB SWAP1 RETURN JUMPDEST PUSH2 0x120 PUSH2 0x70C JUMP JUMPDEST PUSH1 0x40 MLOAD PUSH2 0x12D SWAP2 SWAP1 PUSH2 0x1314 JUMP JUMPDEST PUSH1 0x40 MLOAD DUP1 SWAP2 SUB SWAP1 RETURN JUMPDEST PUSH2 0x13E PUSH2 0x732 JUMP JUMPDEST STOP JUMPDEST PUSH2 0x148 PUSH2 0x746 JUMP JUMPDEST PUSH1 0x40 MLOAD PUSH2 0x155 SWAP2 SWAP1 PUSH2 0x1271 JUMP JUMPDEST PUSH1 0x40 MLOAD DUP1 SWAP2 SUB SWAP1 RETURN JUMPDEST PUSH2 0x178 PUSH1 0x4 DUP1 CALLDATASIZE SUB DUP2 ADD SWAP1 PUSH2 0x173 SWAP2 SWAP1 PUSH2 0xFBA JUMP JUMPDEST PUSH2 0x76E JUMP JUMPDEST PUSH1 0x40 MLOAD PUSH2 0x187 SWAP4 SWAP3 SWAP2 SWAP1 PUSH2 0x13EA JUMP JUMPDEST PUSH1 0x40 MLOAD DUP1 SWAP2 SUB SWAP1 RETURN JUMPDEST PUSH2 0x1AA PUSH1 0x4 DUP1 CALLDATASIZE SUB DUP2 ADD SWAP1 PUSH2 0x1A5 SWAP2 SWAP1 PUSH2 0x109C JUMP JUMPDEST PUSH2 0x798 JUMP JUMPDEST PUSH1 0x40 MLOAD PUSH2 0x1B7 SWAP2 SWAP1 PUSH2 0x1271 JUMP JUMPDEST PUSH1 0x40 MLOAD DUP1 SWAP2 SUB SWAP1 RETURN JUMPDEST PUSH2 0x1DA PUSH1 0x4 DUP1 CALLDATASIZE SUB DUP2 ADD SWAP1 PUSH2 0x1D5 SWAP2 SWAP1 PUSH2 0x109C JUMP JUMPDEST PUSH2 0x7CB JUMP JUMPDEST STOP JUMPDEST PUSH2 0x1E4 PUSH2 0xC1A JUMP JUMPDEST PUSH1 0x40 MLOAD PUSH2 0x1F1 SWAP2 SWAP1 PUSH2 0x12F9 JUMP JUMPDEST PUSH1 0x40 MLOAD DUP1 SWAP2 SUB SWAP1 RETURN JUMPDEST PUSH2 0x214 PUSH1 0x4 DUP1 CALLDATASIZE SUB DUP2 ADD SWAP1 PUSH2 0x20F SWAP2 SWAP1 PUSH2 0xFBA JUMP JUMPDEST PUSH2 0xC40 JUMP JUMPDEST STOP JUMPDEST PUSH1 0x0 DUP6 DUP6 DUP6 DUP6 DUP6 PUSH1 0x40 MLOAD PUSH1 0x20 ADD PUSH2 0x231 SWAP6 SWAP5 SWAP4 SWAP3 SWAP2 SWAP1 PUSH2 0x1225 JUMP JUMPDEST PUSH1 0x40 MLOAD PUSH1 0x20 DUP2 DUP4 SUB SUB DUP2 MSTORE SWAP1 PUSH1 0x40 MSTORE DUP1 MLOAD SWAP1 PUSH1 0x20 ADD KECCAK256 SWAP1 POP SWAP6 SWAP5 POP POP POP POP POP JUMP JUMPDEST PUSH2 0x25A PUSH2 0xCC4 JUMP JUMPDEST PUSH1 0x0 PUSH1 0x5 PUSH1 0x0 CALLER PUSH20 0xFFFFFFFFFFFFFFFFFFFFFFFFFFFFFFFFFFFFFFFF AND PUSH20 0xFFFFFFFFFFFFFFFFFFFFFFFFFFFFFFFFFFFFFFFF AND DUP2 MSTORE PUSH1 0x20 ADD SWAP1 DUP2 MSTORE PUSH1 0x20 ADD PUSH1 0x0 KECCAK256 PUSH1 0x0 ADD SLOAD GT PUSH2 0x2DF JUMPI PUSH1 0x40 MLOAD PUSH32 0x8C379A000000000000000000000000000000000000000000000000000000000 DUP2 MSTORE PUSH1 0x4 ADD PUSH2 0x2D6 SWAP1 PUSH2 0x136F JUMP JUMPDEST PUSH1 0x40 MLOAD DUP1 SWAP2 SUB SWAP1 REVERT JUMPDEST CALLER PUSH20 0xFFFFFFFFFFFFFFFFFFFFFFFFFFFFFFFFFFFFFFFF AND PUSH1 0x6 PUSH1 0x0 DUP4 DUP2 MSTORE PUSH1 0x20 ADD SWAP1 DUP2 MSTORE PUSH1 0x20 ADD PUSH1 0x0 KECCAK256 PUSH1 0x0 SWAP1 SLOAD SWAP1 PUSH2 0x100 EXP SWAP1 DIV PUSH20 0xFFFFFFFFFFFFFFFFFFFFFFFFFFFFFFFFFFFFFFFF AND PUSH20 0xFFFFFFFFFFFFFFFFFFFFFFFFFFFFFFFFFFFFFFFF AND EQ PUSH2 0x380 JUMPI PUSH1 0x40 MLOAD PUSH32 0x8C379A000000000000000000000000000000000000000000000000000000000 DUP2 MSTORE PUSH1 0x4 ADD PUSH2 0x377 SWAP1 PUSH2 0x132F JUMP JUMPDEST PUSH1 0x40 MLOAD DUP1 SWAP2 SUB SWAP1 REVERT JUMPDEST PUSH1 0x0 PUSH2 0x38B CALLER PUSH2 0xD14 JUMP JUMPDEST SWAP1 POP DUP1 PUSH1 0x5 PUSH1 0x0 CALLER PUSH20 0xFFFFFFFFFFFFFFFFFFFFFFFFFFFFFFFFFFFFFFFF AND PUSH20 0xFFFFFFFFFFFFFFFFFFFFFFFFFFFFFFFFFFFFFFFF AND DUP2 MSTORE PUSH1 0x20 ADD SWAP1 DUP2 MSTORE PUSH1 0x20 ADD PUSH1 0x0 KECCAK256 PUSH1 0x3 ADD PUSH1 0x0 DUP3 DUP3 SLOAD PUSH2 0x3DF SWAP2 SWAP1 PUSH2 0x143D JUMP JUMPDEST SWAP3 POP POP DUP2 SWAP1 SSTORE POP PUSH1 0x0 DUP1 JUMPDEST PUSH1 0x5 PUSH1 0x0 CALLER PUSH20 0xFFFFFFFFFFFFFFFFFFFFFFFFFFFFFFFFFFFFFFFF AND PUSH20 0xFFFFFFFFFFFFFFFFFFFFFFFFFFFFFFFFFFFFFFFF AND DUP2 MSTORE PUSH1 0x20 ADD SWAP1 DUP2 MSTORE PUSH1 0x20 ADD PUSH1 0x0 KECCAK256 PUSH1 0x1 ADD DUP1 SLOAD SWAP1 POP DUP2 LT ISZERO PUSH2 0x4BF JUMPI DUP4 PUSH1 0x5 PUSH1 0x0 CALLER PUSH20 0xFFFFFFFFFFFFFFFFFFFFFFFFFFFFFFFFFFFFFFFF AND PUSH20 0xFFFFFFFFFFFFFFFFFFFFFFFFFFFFFFFFFFFFFFFF AND DUP2 MSTORE PUSH1 0x20 ADD SWAP1 DUP2 MSTORE PUSH1 0x20 ADD PUSH1 0x0 KECCAK256 PUSH1 0x1 ADD DUP3 DUP2 SLOAD DUP2 LT PUSH2 0x48C JUMPI PUSH2 0x48B PUSH2 0x171C JUMP JUMPDEST JUMPDEST SWAP1 PUSH1 0x0 MSTORE PUSH1 0x20 PUSH1 0x0 KECCAK256 SWAP1 PUSH1 0x2 MUL ADD PUSH1 0x1 ADD SLOAD EQ ISZERO PUSH2 0x4AC JUMPI DUP1 SWAP2 POP PUSH2 0x4BF JUMP JUMPDEST DUP1 DUP1 PUSH2 0x4B7 SWAP1 PUSH2 0x1647 JUMP JUMPDEST SWAP2 POP POP PUSH2 0x3EA JUMP JUMPDEST POP PUSH1 0x0 PUSH1 0x5 PUSH1 0x0 CALLER PUSH20 0xFFFFFFFFFFFFFFFFFFFFFFFFFFFFFFFFFFFFFFFF AND PUSH20 0xFFFFFFFFFFFFFFFFFFFFFFFFFFFFFFFFFFFFFFFF AND DUP2 MSTORE PUSH1 0x20 ADD SWAP1 DUP2 MSTORE PUSH1 0x20 ADD PUSH1 0x0 KECCAK256 PUSH1 0x1 ADD DUP3 DUP2 SLOAD DUP2 LT PUSH2 0x516 JUMPI PUSH2 0x515 PUSH2 0x171C JUMP JUMPDEST JUMPDEST SWAP1 PUSH1 0x0 MSTORE PUSH1 0x20 PUSH1 0x0 KECCAK256 SWAP1 PUSH1 0x2 MUL ADD PUSH1 0x0 ADD PUSH1 0x0 PUSH2 0x100 EXP DUP2 SLOAD DUP2 PUSH20 0xFFFFFFFFFFFFFFFFFFFFFFFFFFFFFFFFFFFFFFFF MUL NOT AND SWAP1 DUP4 PUSH20 0xFFFFFFFFFFFFFFFFFFFFFFFFFFFFFFFFFFFFFFFF AND MUL OR SWAP1 SSTORE POP PUSH1 0x5 PUSH1 0x0 CALLER PUSH20 0xFFFFFFFFFFFFFFFFFFFFFFFFFFFFFFFFFFFFFFFF AND PUSH20 0xFFFFFFFFFFFFFFFFFFFFFFFFFFFFFFFFFFFFFFFF AND DUP2 MSTORE PUSH1 0x20 ADD SWAP1 DUP2 MSTORE PUSH1 0x20 ADD PUSH1 0x0 KECCAK256 PUSH1 0x0 ADD PUSH1 0x0 DUP2 SLOAD DUP1 SWAP3 SWAP2 SWAP1 PUSH2 0x5B8 SWAP1 PUSH2 0x161D JUMP JUMPDEST SWAP2 SWAP1 POP SSTORE POP PUSH1 0x0 PUSH1 0x6 PUSH1 0x0 DUP6 DUP2 MSTORE PUSH1 0x20 ADD SWAP1 DUP2 MSTORE PUSH1 0x20 ADD PUSH1 0x0 KECCAK256 PUSH1 0x0 PUSH2 0x100 EXP DUP2 SLOAD DUP2 PUSH20 0xFFFFFFFFFFFFFFFFFFFFFFFFFFFFFFFFFFFFFFFF MUL NOT AND SWAP1 DUP4 PUSH20 0xFFFFFFFFFFFFFFFFFFFFFFFFFFFFFFFFFFFFFFFF AND MUL OR SWAP1 SSTORE POP PUSH1 0x3 PUSH1 0x0 SWAP1 SLOAD SWAP1 PUSH2 0x100 EXP SWAP1 DIV PUSH20 0xFFFFFFFFFFFFFFFFFFFFFFFFFFFFFFFFFFFFFFFF AND PUSH20 0xFFFFFFFFFFFFFFFFFFFFFFFFFFFFFFFFFFFFFFFF AND PUSH4 0x23B872DD ADDRESS CALLER DUP7 PUSH1 0x40 MLOAD DUP5 PUSH4 0xFFFFFFFF AND PUSH1 0xE0 SHL DUP2 MSTORE PUSH1 0x4 ADD PUSH2 0x66F SWAP4 SWAP3 SWAP2 SWAP1 PUSH2 0x128C JUMP JUMPDEST PUSH1 0x0 PUSH1 0x40 MLOAD DUP1 DUP4 SUB DUP2 PUSH1 0x0 DUP8 DUP1 EXTCODESIZE ISZERO DUP1 ISZERO PUSH2 0x689 JUMPI PUSH1 0x0 DUP1 REVERT JUMPDEST POP GAS CALL ISZERO DUP1 ISZERO PUSH2 0x69D JUMPI RETURNDATASIZE PUSH1 0x0 DUP1 RETURNDATACOPY RETURNDATASIZE PUSH1 0x0 REVERT JUMPDEST POP POP POP POP TIMESTAMP PUSH1 0x5 PUSH1 0x0 CALLER PUSH20 0xFFFFFFFFFFFFFFFFFFFFFFFFFFFFFFFFFFFFFFFF AND PUSH20 0xFFFFFFFFFFFFFFFFFFFFFFFFFFFFFFFFFFFFFFFF AND DUP2 MSTORE PUSH1 0x20 ADD SWAP1 DUP2 MSTORE PUSH1 0x20 ADD PUSH1 0x0 KECCAK256 PUSH1 0x2 ADD DUP2 SWAP1 SSTORE POP POP POP PUSH2 0x6F2 PUSH2 0xDD2 JUMP JUMPDEST POP JUMP JUMPDEST PUSH1 0x0 PUSH1 0x1 PUSH1 0x0 SWAP1 SLOAD SWAP1 PUSH2 0x100 EXP SWAP1 DIV PUSH1 0xFF AND SWAP1 POP SWAP1 JUMP JUMPDEST PUSH1 0x3 PUSH1 0x0 SWAP1 SLOAD SWAP1 PUSH2 0x100 EXP SWAP1 DIV PUSH20 0xFFFFFFFFFFFFFFFFFFFFFFFFFFFFFFFFFFFFFFFF AND DUP2 JUMP JUMPDEST PUSH2 0x73A PUSH2 0xDDC JUMP JUMPDEST PUSH2 0x744 PUSH1 0x0 PUSH2 0xE5A JUMP JUMPDEST JUMP JUMPDEST PUSH1 0x0 PUSH1 0x1 DUP1 SLOAD SWAP1 PUSH2 0x100 EXP SWAP1 DIV PUSH20 0xFFFFFFFFFFFFFFFFFFFFFFFFFFFFFFFFFFFFFFFF AND SWAP1 POP SWAP1 JUMP JUMPDEST PUSH1 0x5 PUSH1 0x20 MSTORE DUP1 PUSH1 0x0 MSTORE PUSH1 0x40 PUSH1 0x0 KECCAK256 PUSH1 0x0 SWAP2 POP SWAP1 POP DUP1 PUSH1 0x0 ADD SLOAD SWAP1 DUP1 PUSH1 0x2 ADD SLOAD SWAP1 DUP1 PUSH1 0x3 ADD SLOAD SWAP1 POP DUP4 JUMP JUMPDEST PUSH1 0x6 PUSH1 0x20 MSTORE DUP1 PUSH1 0x0 MSTORE PUSH1 0x40 PUSH1 0x0 KECCAK256 PUSH1 0x0 SWAP2 POP SLOAD SWAP1 PUSH2 0x100 EXP SWAP1 DIV PUSH20 0xFFFFFFFFFFFFFFFFFFFFFFFFFFFFFFFFFFFFFFFF AND DUP2 JUMP JUMPDEST PUSH2 0x7D3 PUSH2 0xCC4 JUMP JUMPDEST CALLER PUSH20 0xFFFFFFFFFFFFFFFFFFFFFFFFFFFFFFFFFFFFFFFF AND PUSH1 0x3 PUSH1 0x0 SWAP1 SLOAD SWAP1 PUSH2 0x100 EXP SWAP1 DIV PUSH20 0xFFFFFFFFFFFFFFFFFFFFFFFFFFFFFFFFFFFFFFFF AND PUSH20 0xFFFFFFFFFFFFFFFFFFFFFFFFFFFFFFFFFFFFFFFF AND PUSH4 0x6352211E DUP4 PUSH1 0x40 MLOAD DUP3 PUSH4 0xFFFFFFFF AND PUSH1 0xE0 SHL DUP2 MSTORE PUSH1 0x4 ADD PUSH2 0x845 SWAP2 SWAP1 PUSH2 0x13CF JUMP JUMPDEST PUSH1 0x20 PUSH1 0x40 MLOAD DUP1 DUP4 SUB DUP2 DUP7 DUP1 EXTCODESIZE ISZERO DUP1 ISZERO PUSH2 0x85D JUMPI PUSH1 0x0 DUP1 REVERT JUMPDEST POP GAS STATICCALL ISZERO DUP1 ISZERO PUSH2 0x871 JUMPI RETURNDATASIZE PUSH1 0x0 DUP1 RETURNDATACOPY RETURNDATASIZE PUSH1 0x0 REVERT JUMPDEST POP POP POP POP PUSH1 0x40 MLOAD RETURNDATASIZE PUSH1 0x1F NOT PUSH1 0x1F DUP3 ADD AND DUP3 ADD DUP1 PUSH1 0x40 MSTORE POP DUP2 ADD SWAP1 PUSH2 0x895 SWAP2 SWAP1 PUSH2 0xFE7 JUMP JUMPDEST PUSH20 0xFFFFFFFFFFFFFFFFFFFFFFFFFFFFFFFFFFFFFFFF AND EQ PUSH2 0x8EB JUMPI PUSH1 0x40 MLOAD PUSH32 0x8C379A000000000000000000000000000000000000000000000000000000000 DUP2 MSTORE PUSH1 0x4 ADD PUSH2 0x8E2 SWAP1 PUSH2 0x132F JUMP JUMPDEST PUSH1 0x40 MLOAD DUP1 SWAP2 SUB SWAP1 REVERT JUMPDEST PUSH1 0x0 PUSH1 0x5 PUSH1 0x0 CALLER PUSH20 0xFFFFFFFFFFFFFFFFFFFFFFFFFFFFFFFFFFFFFFFF AND PUSH20 0xFFFFFFFFFFFFFFFFFFFFFFFFFFFFFFFFFFFFFFFF AND DUP2 MSTORE PUSH1 0x20 ADD SWAP1 DUP2 MSTORE PUSH1 0x20 ADD PUSH1 0x0 KECCAK256 PUSH1 0x0 ADD SLOAD GT ISZERO PUSH2 0x99E JUMPI PUSH1 0x0 PUSH2 0x941 CALLER PUSH2 0xD14 JUMP JUMPDEST SWAP1 POP DUP1 PUSH1 0x5 PUSH1 0x0 CALLER PUSH20 0xFFFFFFFFFFFFFFFFFFFFFFFFFFFFFFFFFFFFFFFF AND PUSH20 0xFFFFFFFFFFFFFFFFFFFFFFFFFFFFFFFFFFFFFFFF AND DUP2 MSTORE PUSH1 0x20 ADD SWAP1 DUP2 MSTORE PUSH1 0x20 ADD PUSH1 0x0 KECCAK256 PUSH1 0x3 ADD PUSH1 0x0 DUP3 DUP3 SLOAD PUSH2 0x995 SWAP2 SWAP1 PUSH2 0x143D JUMP JUMPDEST SWAP3 POP POP DUP2 SWAP1 SSTORE POP POP JUMPDEST PUSH1 0x3 PUSH1 0x0 SWAP1 SLOAD SWAP1 PUSH2 0x100 EXP SWAP1 DIV PUSH20 0xFFFFFFFFFFFFFFFFFFFFFFFFFFFFFFFFFFFFFFFF AND PUSH20 0xFFFFFFFFFFFFFFFFFFFFFFFFFFFFFFFFFFFFFFFF AND PUSH4 0x23B872DD CALLER ADDRESS DUP5 PUSH1 0x40 MLOAD DUP5 PUSH4 0xFFFFFFFF AND PUSH1 0xE0 SHL DUP2 MSTORE PUSH1 0x4 ADD PUSH2 0x9FD SWAP4 SWAP3 SWAP2 SWAP1 PUSH2 0x128C JUMP JUMPDEST PUSH1 0x0 PUSH1 0x40 MLOAD DUP1 DUP4 SUB DUP2 PUSH1 0x0 DUP8 DUP1 EXTCODESIZE ISZERO DUP1 ISZERO PUSH2 0xA17 JUMPI PUSH1 0x0 DUP1 REVERT JUMPDEST POP GAS CALL ISZERO DUP1 ISZERO PUSH2 0xA2B JUMPI RETURNDATASIZE PUSH1 0x0 DUP1 RETURNDATACOPY RETURNDATASIZE PUSH1 0x0 REVERT JUMPDEST POP POP POP POP PUSH1 0x0 PUSH1 0x40 MLOAD DUP1 PUSH1 0x40 ADD PUSH1 0x40 MSTORE DUP1 CALLER PUSH20 0xFFFFFFFFFFFFFFFFFFFFFFFFFFFFFFFFFFFFFFFF AND DUP2 MSTORE PUSH1 0x20 ADD DUP4 DUP2 MSTORE POP SWAP1 POP PUSH1 0x5 PUSH1 0x0 CALLER PUSH20 0xFFFFFFFFFFFFFFFFFFFFFFFFFFFFFFFFFFFFFFFF AND PUSH20 0xFFFFFFFFFFFFFFFFFFFFFFFFFFFFFFFFFFFFFFFF AND DUP2 MSTORE PUSH1 0x20 ADD SWAP1 DUP2 MSTORE PUSH1 0x20 ADD PUSH1 0x0 KECCAK256 PUSH1 0x1 ADD DUP2 SWAP1 DUP1 PUSH1 0x1 DUP2 SLOAD ADD DUP1 DUP3 SSTORE DUP1 SWAP2 POP POP PUSH1 0x1 SWAP1 SUB SWAP1 PUSH1 0x0 MSTORE PUSH1 0x20 PUSH1 0x0 KECCAK256 SWAP1 PUSH1 0x2 MUL ADD PUSH1 0x0 SWAP1 SWAP2 SWAP1 SWAP2 SWAP1 SWAP2 POP PUSH1 0x0 DUP3 ADD MLOAD DUP2 PUSH1 0x0 ADD PUSH1 0x0 PUSH2 0x100 EXP DUP2 SLOAD DUP2 PUSH20 0xFFFFFFFFFFFFFFFFFFFFFFFFFFFFFFFFFFFFFFFF MUL NOT AND SWAP1 DUP4 PUSH20 0xFFFFFFFFFFFFFFFFFFFFFFFFFFFFFFFFFFFFFFFF AND MUL OR SWAP1 SSTORE POP PUSH1 0x20 DUP3 ADD MLOAD DUP2 PUSH1 0x1 ADD SSTORE POP POP PUSH1 0x5 PUSH1 0x0 CALLER PUSH20 0xFFFFFFFFFFFFFFFFFFFFFFFFFFFFFFFFFFFFFFFF AND PUSH20 0xFFFFFFFFFFFFFFFFFFFFFFFFFFFFFFFFFFFFFFFF AND DUP2 MSTORE PUSH1 0x20 ADD SWAP1 DUP2 MSTORE PUSH1 0x20 ADD PUSH1 0x0 KECCAK256 PUSH1 0x0 ADD PUSH1 0x0 DUP2 SLOAD DUP1 SWAP3 SWAP2 SWAP1 PUSH2 0xB70 SWAP1 PUSH2 0x1647 JUMP JUMPDEST SWAP2 SWAP1 POP SSTORE POP CALLER PUSH1 0x6 PUSH1 0x0 DUP5 DUP2 MSTORE PUSH1 0x20 ADD SWAP1 DUP2 MSTORE PUSH1 0x20 ADD PUSH1 0x0 KECCAK256 PUSH1 0x0 PUSH2 0x100 EXP DUP2 SLOAD DUP2 PUSH20 0xFFFFFFFFFFFFFFFFFFFFFFFFFFFFFFFFFFFFFFFF MUL NOT AND SWAP1 DUP4 PUSH20 0xFFFFFFFFFFFFFFFFFFFFFFFFFFFFFFFFFFFFFFFF AND MUL OR SWAP1 SSTORE POP TIMESTAMP PUSH1 0x5 PUSH1 0x0 CALLER PUSH20 0xFFFFFFFFFFFFFFFFFFFFFFFFFFFFFFFFFFFFFFFF AND PUSH20 0xFFFFFFFFFFFFFFFFFFFFFFFFFFFFFFFFFFFFFFFF AND DUP2 MSTORE PUSH1 0x20 ADD SWAP1 DUP2 MSTORE PUSH1 0x20 ADD PUSH1 0x0 KECCAK256 PUSH1 0x2 ADD DUP2 SWAP1 SSTORE POP POP PUSH2 0xC17 PUSH2 0xDD2 JUMP JUMPDEST POP JUMP JUMPDEST PUSH1 0x2 PUSH1 0x0 SWAP1 SLOAD SWAP1 PUSH2 0x100 EXP SWAP1 DIV PUSH20 0xFFFFFFFFFFFFFFFFFFFFFFFFFFFFFFFFFFFFFFFF AND DUP2 JUMP JUMPDEST PUSH2 0xC48 PUSH2 0xDDC JUMP JUMPDEST PUSH1 0x0 PUSH20 0xFFFFFFFFFFFFFFFFFFFFFFFFFFFFFFFFFFFFFFFF AND DUP2 PUSH20 0xFFFFFFFFFFFFFFFFFFFFFFFFFFFFFFFFFFFFFFFF AND EQ ISZERO PUSH2 0xCB8 JUMPI PUSH1 0x40 MLOAD PUSH32 0x8C379A000000000000000000000000000000000000000000000000000000000 DUP2 MSTORE PUSH1 0x4 ADD PUSH2 0xCAF SWAP1 PUSH2 0x134F JUMP JUMPDEST PUSH1 0x40 MLOAD DUP1 SWAP2 SUB SWAP1 REVERT JUMPDEST PUSH2 0xCC1 DUP2 PUSH2 0xE5A JUMP JUMPDEST POP JUMP JUMPDEST PUSH1 0x2 PUSH1 0x0 SLOAD EQ ISZERO PUSH2 0xD0A JUMPI PUSH1 0x40 MLOAD PUSH32 0x8C379A000000000000000000000000000000000000000000000000000000000 DUP2 MSTORE PUSH1 0x4 ADD PUSH2 0xD01 SWAP1 PUSH2 0x13AF JUMP JUMPDEST PUSH1 0x40 MLOAD DUP1 SWAP2 SUB SWAP1 REVERT JUMPDEST PUSH1 0x2 PUSH1 0x0 DUP2 SWAP1 SSTORE POP JUMP JUMPDEST PUSH1 0x0 PUSH2 0xE10 PUSH1 0x4 SLOAD PUSH1 0x5 PUSH1 0x0 DUP6 PUSH20 0xFFFFFFFFFFFFFFFFFFFFFFFFFFFFFFFFFFFFFFFF AND PUSH20 0xFFFFFFFFFFFFFFFFFFFFFFFFFFFFFFFFFFFFFFFF AND DUP2 MSTORE PUSH1 0x20 ADD SWAP1 DUP2 MSTORE PUSH1 0x20 ADD PUSH1 0x0 KECCAK256 PUSH1 0x0 ADD SLOAD PUSH1 0x5 PUSH1 0x0 DUP7 PUSH20 0xFFFFFFFFFFFFFFFFFFFFFFFFFFFFFFFFFFFFFFFF AND PUSH20 0xFFFFFFFFFFFFFFFFFFFFFFFFFFFFFFFFFFFFFFFF AND DUP2 MSTORE PUSH1 0x20 ADD SWAP1 DUP2 MSTORE PUSH1 0x20 ADD PUSH1 0x0 KECCAK256 PUSH1 0x2 ADD SLOAD TIMESTAMP PUSH2 0xDAD SWAP2 SWAP1 PUSH2 0x151E JUMP JUMPDEST PUSH2 0xDB7 SWAP2 SWAP1 PUSH2 0x14C4 JUMP JUMPDEST PUSH2 0xDC1 SWAP2 SWAP1 PUSH2 0x14C4 JUMP JUMPDEST PUSH2 0xDCB SWAP2 SWAP1 PUSH2 0x1493 JUMP JUMPDEST SWAP1 POP SWAP2 SWAP1 POP JUMP JUMPDEST PUSH1 0x1 PUSH1 0x0 DUP2 SWAP1 SSTORE POP JUMP JUMPDEST PUSH2 0xDE4 PUSH2 0xF1D JUMP JUMPDEST PUSH20 0xFFFFFFFFFFFFFFFFFFFFFFFFFFFFFFFFFFFFFFFF AND PUSH2 0xE02 PUSH2 0x746 JUMP JUMPDEST PUSH20 0xFFFFFFFFFFFFFFFFFFFFFFFFFFFFFFFFFFFFFFFF AND EQ PUSH2 0xE58 JUMPI PUSH1 0x40 MLOAD PUSH32 0x8C379A000000000000000000000000000000000000000000000000000000000 DUP2 MSTORE PUSH1 0x4 ADD PUSH2 0xE4F SWAP1 PUSH2 0x138F JUMP JUMPDEST PUSH1 0x40 MLOAD DUP1 SWAP2 SUB SWAP1 REVERT JUMPDEST JUMP JUMPDEST PUSH1 0x0 PUSH1 0x1 DUP1 SLOAD SWAP1 PUSH2 0x100 EXP SWAP1 DIV PUSH20 0xFFFFFFFFFFFFFFFFFFFFFFFFFFFFFFFFFFFFFFFF AND SWAP1 POP DUP2 PUSH1 0x1 DUP1 PUSH2 0x100 EXP DUP2 SLOAD DUP2 PUSH20 0xFFFFFFFFFFFFFFFFFFFFFFFFFFFFFFFFFFFFFFFF MUL NOT AND SWAP1 DUP4 PUSH20 0xFFFFFFFFFFFFFFFFFFFFFFFFFFFFFFFFFFFFFFFF AND MUL OR SWAP1 SSTORE POP DUP2 PUSH20 0xFFFFFFFFFFFFFFFFFFFFFFFFFFFFFFFFFFFFFFFF AND DUP2 PUSH20 0xFFFFFFFFFFFFFFFFFFFFFFFFFFFFFFFFFFFFFFFF AND PUSH32 0x8BE0079C531659141344CD1FD0A4F28419497F9722A3DAAFE3B4186F6B6457E0 PUSH1 0x40 MLOAD PUSH1 0x40 MLOAD DUP1 SWAP2 SUB SWAP1 LOG3 POP POP JUMP JUMPDEST PUSH1 0x0 CALLER SWAP1 POP SWAP1 JUMP JUMPDEST PUSH1 0x0 DUP2 CALLDATALOAD SWAP1 POP PUSH2 0xF34 DUP2 PUSH2 0x1864 JUMP JUMPDEST SWAP3 SWAP2 POP POP JUMP JUMPDEST PUSH1 0x0 DUP2 MLOAD SWAP1 POP PUSH2 0xF49 DUP2 PUSH2 0x1864 JUMP JUMPDEST SWAP3 SWAP2 POP POP JUMP JUMPDEST PUSH1 0x0 DUP1 DUP4 PUSH1 0x1F DUP5 ADD SLT PUSH2 0xF65 JUMPI PUSH2 0xF64 PUSH2 0x1750 JUMP JUMPDEST JUMPDEST DUP3 CALLDATALOAD SWAP1 POP PUSH8 0xFFFFFFFFFFFFFFFF DUP2 GT ISZERO PUSH2 0xF82 JUMPI PUSH2 0xF81 PUSH2 0x174B JUMP JUMPDEST JUMPDEST PUSH1 0x20 DUP4 ADD SWAP2 POP DUP4 PUSH1 0x1 DUP3 MUL DUP4 ADD GT ISZERO PUSH2 0xF9E JUMPI PUSH2 0xF9D PUSH2 0x1755 JUMP JUMPDEST JUMPDEST SWAP3 POP SWAP3 SWAP1 POP JUMP JUMPDEST PUSH1 0x0 DUP2 CALLDATALOAD SWAP1 POP PUSH2 0xFB4 DUP2 PUSH2 0x187B JUMP JUMPDEST SWAP3 SWAP2 POP POP JUMP JUMPDEST PUSH1 0x0 PUSH1 0x20 DUP3 DUP5 SUB SLT ISZERO PUSH2 0xFD0 JUMPI PUSH2 0xFCF PUSH2 0x175F JUMP JUMPDEST JUMPDEST PUSH1 0x0 PUSH2 0xFDE DUP5 DUP3 DUP6 ADD PUSH2 0xF25 JUMP JUMPDEST SWAP2 POP POP SWAP3 SWAP2 POP POP JUMP JUMPDEST PUSH1 0x0 PUSH1 0x20 DUP3 DUP5 SUB SLT ISZERO PUSH2 0xFFD JUMPI PUSH2 0xFFC PUSH2 0x175F JUMP JUMPDEST JUMPDEST PUSH1 0x0 PUSH2 0x100B DUP5 DUP3 DUP6 ADD PUSH2 0xF3A JUMP JUMPDEST SWAP2 POP POP SWAP3 SWAP2 POP POP JUMP JUMPDEST PUSH1 0x0 DUP1 PUSH1 0x0 DUP1 PUSH1 0x0 PUSH1 0x80 DUP7 DUP9 SUB SLT ISZERO PUSH2 0x1030 JUMPI PUSH2 0x102F PUSH2 0x175F JUMP JUMPDEST JUMPDEST PUSH1 0x0 PUSH2 0x103E DUP9 DUP3 DUP10 ADD PUSH2 0xF25 JUMP JUMPDEST SWAP6 POP POP PUSH1 0x20 PUSH2 0x104F DUP9 DUP3 DUP10 ADD PUSH2 0xF25 JUMP JUMPDEST SWAP5 POP POP PUSH1 0x40 PUSH2 0x1060 DUP9 DUP3 DUP10 ADD PUSH2 0xFA5 JUMP JUMPDEST SWAP4 POP POP PUSH1 0x60 DUP7 ADD CALLDATALOAD PUSH8 0xFFFFFFFFFFFFFFFF DUP2 GT ISZERO PUSH2 0x1081 JUMPI PUSH2 0x1080 PUSH2 0x175A JUMP JUMPDEST JUMPDEST PUSH2 0x108D DUP9 DUP3 DUP10 ADD PUSH2 0xF4F JUMP JUMPDEST SWAP3 POP SWAP3 POP POP SWAP3 SWAP6 POP SWAP3 SWAP6 SWAP1 SWAP4 POP JUMP JUMPDEST PUSH1 0x0 PUSH1 0x20 DUP3 DUP5 SUB SLT ISZERO PUSH2 0x10B2 JUMPI PUSH2 0x10B1 PUSH2 0x175F JUMP JUMPDEST JUMPDEST PUSH1 0x0 PUSH2 0x10C0 DUP5 DUP3 DUP6 ADD PUSH2 0xFA5 JUMP JUMPDEST SWAP2 POP POP SWAP3 SWAP2 POP POP JUMP JUMPDEST PUSH2 0x10D2 DUP2 PUSH2 0x1552 JUMP JUMPDEST DUP3 MSTORE POP POP JUMP JUMPDEST PUSH2 0x10E9 PUSH2 0x10E4 DUP3 PUSH2 0x1552 JUMP JUMPDEST PUSH2 0x1690 JUMP JUMPDEST DUP3 MSTORE POP POP JUMP JUMPDEST PUSH2 0x10F8 DUP2 PUSH2 0x1564 JUMP JUMPDEST DUP3 MSTORE POP POP JUMP JUMPDEST PUSH2 0x1107 DUP2 PUSH2 0x1570 JUMP JUMPDEST DUP3 MSTORE POP POP JUMP JUMPDEST PUSH1 0x0 PUSH2 0x1119 DUP4 DUP6 PUSH2 0x1421 JUMP JUMPDEST SWAP4 POP PUSH2 0x1126 DUP4 DUP6 DUP5 PUSH2 0x160E JUMP JUMPDEST DUP3 DUP5 ADD SWAP1 POP SWAP4 SWAP3 POP POP POP JUMP JUMPDEST PUSH2 0x113B DUP2 PUSH2 0x15C6 JUMP JUMPDEST DUP3 MSTORE POP POP JUMP JUMPDEST PUSH2 0x114A DUP2 PUSH2 0x15D8 JUMP JUMPDEST DUP3 MSTORE POP POP JUMP JUMPDEST PUSH1 0x0 PUSH2 0x115D PUSH1 0x19 DUP4 PUSH2 0x142C JUMP JUMPDEST SWAP2 POP PUSH2 0x1168 DUP3 PUSH2 0x1771 JUMP JUMPDEST PUSH1 0x20 DUP3 ADD SWAP1 POP SWAP2 SWAP1 POP JUMP JUMPDEST PUSH1 0x0 PUSH2 0x1180 PUSH1 0x26 DUP4 PUSH2 0x142C JUMP JUMPDEST SWAP2 POP PUSH2 0x118B DUP3 PUSH2 0x179A JUMP JUMPDEST PUSH1 0x40 DUP3 ADD SWAP1 POP SWAP2 SWAP1 POP JUMP JUMPDEST PUSH1 0x0 PUSH2 0x11A3 PUSH1 0x19 DUP4 PUSH2 0x142C JUMP JUMPDEST SWAP2 POP PUSH2 0x11AE DUP3 PUSH2 0x17E9 JUMP JUMPDEST PUSH1 0x20 DUP3 ADD SWAP1 POP SWAP2 SWAP1 POP JUMP JUMPDEST PUSH1 0x0 PUSH2 0x11C6 PUSH1 0x20 DUP4 PUSH2 0x142C JUMP JUMPDEST SWAP2 POP PUSH2 0x11D1 DUP3 PUSH2 0x1812 JUMP JUMPDEST PUSH1 0x20 DUP3 ADD SWAP1 POP SWAP2 SWAP1 POP JUMP JUMPDEST PUSH1 0x0 PUSH2 0x11E9 PUSH1 0x1F DUP4 PUSH2 0x142C JUMP JUMPDEST SWAP2 POP PUSH2 0x11F4 DUP3 PUSH2 0x183B JUMP JUMPDEST PUSH1 0x20 DUP3 ADD SWAP1 POP SWAP2 SWAP1 POP JUMP JUMPDEST PUSH2 0x1208 DUP2 PUSH2 0x15BC JUMP JUMPDEST DUP3 MSTORE POP POP JUMP JUMPDEST PUSH2 0x121F PUSH2 0x121A DUP3 PUSH2 0x15BC JUMP JUMPDEST PUSH2 0x16B4 JUMP JUMPDEST DUP3 MSTORE POP POP JUMP JUMPDEST PUSH1 0x0 PUSH2 0x1231 DUP3 DUP9 PUSH2 0x10D8 JUMP JUMPDEST PUSH1 0x14 DUP3 ADD SWAP2 POP PUSH2 0x1241 DUP3 DUP8 PUSH2 0x10D8 JUMP JUMPDEST PUSH1 0x14 DUP3 ADD SWAP2 POP PUSH2 0x1251 DUP3 DUP7 PUSH2 0x120E JUMP JUMPDEST PUSH1 0x20 DUP3 ADD SWAP2 POP PUSH2 0x1262 DUP3 DUP5 DUP7 PUSH2 0x110D JUMP JUMPDEST SWAP2 POP DUP2 SWAP1 POP SWAP7 SWAP6 POP POP POP POP POP POP JUMP JUMPDEST PUSH1 0x0 PUSH1 0x20 DUP3 ADD SWAP1 POP PUSH2 0x1286 PUSH1 0x0 DUP4 ADD DUP5 PUSH2 0x10C9 JUMP JUMPDEST SWAP3 SWAP2 POP POP JUMP JUMPDEST PUSH1 0x0 PUSH1 0x60 DUP3 ADD SWAP1 POP PUSH2 0x12A1 PUSH1 0x0 DUP4 ADD DUP7 PUSH2 0x10C9 JUMP JUMPDEST PUSH2 0x12AE PUSH1 0x20 DUP4 ADD DUP6 PUSH2 0x10C9 JUMP JUMPDEST PUSH2 0x12BB PUSH1 0x40 DUP4 ADD DUP5 PUSH2 0x11FF JUMP JUMPDEST SWAP5 SWAP4 POP POP POP POP JUMP JUMPDEST PUSH1 0x0 PUSH1 0x20 DUP3 ADD SWAP1 POP PUSH2 0x12D8 PUSH1 0x0 DUP4 ADD DUP5 PUSH2 0x10EF JUMP JUMPDEST SWAP3 SWAP2 POP POP JUMP JUMPDEST PUSH1 0x0 PUSH1 0x20 DUP3 ADD SWAP1 POP PUSH2 0x12F3 PUSH1 0x0 DUP4 ADD DUP5 PUSH2 0x10FE JUMP JUMPDEST SWAP3 SWAP2 POP POP JUMP JUMPDEST PUSH1 0x0 PUSH1 0x20 DUP3 ADD SWAP1 POP PUSH2 0x130E PUSH1 0x0 DUP4 ADD DUP5 PUSH2 0x1132 JUMP JUMPDEST SWAP3 SWAP2 POP POP JUMP JUMPDEST PUSH1 0x0 PUSH1 0x20 DUP3 ADD SWAP1 POP PUSH2 0x1329 PUSH1 0x0 DUP4 ADD DUP5 PUSH2 0x1141 JUMP JUMPDEST SWAP3 SWAP2 POP POP JUMP JUMPDEST PUSH1 0x0 PUSH1 0x20 DUP3 ADD SWAP1 POP DUP2 DUP2 SUB PUSH1 0x0 DUP4 ADD MSTORE PUSH2 0x1348 DUP2 PUSH2 0x1150 JUMP JUMPDEST SWAP1 POP SWAP2 SWAP1 POP JUMP JUMPDEST PUSH1 0x0 PUSH1 0x20 DUP3 ADD SWAP1 POP DUP2 DUP2 SUB PUSH1 0x0 DUP4 ADD MSTORE PUSH2 0x1368 DUP2 PUSH2 0x1173 JUMP JUMPDEST SWAP1 POP SWAP2 SWAP1 POP JUMP JUMPDEST PUSH1 0x0 PUSH1 0x20 DUP3 ADD SWAP1 POP DUP2 DUP2 SUB PUSH1 0x0 DUP4 ADD MSTORE PUSH2 0x1388 DUP2 PUSH2 0x1196 JUMP JUMPDEST SWAP1 POP SWAP2 SWAP1 POP JUMP JUMPDEST PUSH1 0x0 PUSH1 0x20 DUP3 ADD SWAP1 POP DUP2 DUP2 SUB PUSH1 0x0 DUP4 ADD MSTORE PUSH2 0x13A8 DUP2 PUSH2 0x11B9 JUMP JUMPDEST SWAP1 POP SWAP2 SWAP1 POP JUMP JUMPDEST PUSH1 0x0 PUSH1 0x20 DUP3 ADD SWAP1 POP DUP2 DUP2 SUB PUSH1 0x0 DUP4 ADD MSTORE PUSH2 0x13C8 DUP2 PUSH2 0x11DC JUMP JUMPDEST SWAP1 POP SWAP2 SWAP1 POP JUMP JUMPDEST PUSH1 0x0 PUSH1 0x20 DUP3 ADD SWAP1 POP PUSH2 0x13E4 PUSH1 0x0 DUP4 ADD DUP5 PUSH2 0x11FF JUMP JUMPDEST SWAP3 SWAP2 POP POP JUMP JUMPDEST PUSH1 0x0 PUSH1 0x60 DUP3 ADD SWAP1 POP PUSH2 0x13FF PUSH1 0x0 DUP4 ADD DUP7 PUSH2 0x11FF JUMP JUMPDEST PUSH2 0x140C PUSH1 0x20 DUP4 ADD DUP6 PUSH2 0x11FF JUMP JUMPDEST PUSH2 0x1419 PUSH1 0x40 DUP4 ADD DUP5 PUSH2 0x11FF JUMP JUMPDEST SWAP5 SWAP4 POP POP POP POP JUMP JUMPDEST PUSH1 0x0 DUP2 SWAP1 POP SWAP3 SWAP2 POP POP JUMP JUMPDEST PUSH1 0x0 DUP3 DUP3 MSTORE PUSH1 0x20 DUP3 ADD SWAP1 POP SWAP3 SWAP2 POP POP JUMP JUMPDEST PUSH1 0x0 PUSH2 0x1448 DUP3 PUSH2 0x15BC JUMP JUMPDEST SWAP2 POP PUSH2 0x1453 DUP4 PUSH2 0x15BC JUMP JUMPDEST SWAP3 POP DUP3 PUSH32 0xFFFFFFFFFFFFFFFFFFFFFFFFFFFFFFFFFFFFFFFFFFFFFFFFFFFFFFFFFFFFFFFF SUB DUP3 GT ISZERO PUSH2 0x1488 JUMPI PUSH2 0x1487 PUSH2 0x16BE JUMP JUMPDEST JUMPDEST DUP3 DUP3 ADD SWAP1 POP SWAP3 SWAP2 POP POP JUMP JUMPDEST PUSH1 0x0 PUSH2 0x149E DUP3 PUSH2 0x15BC JUMP JUMPDEST SWAP2 POP PUSH2 0x14A9 DUP4 PUSH2 0x15BC JUMP JUMPDEST SWAP3 POP DUP3 PUSH2 0x14B9 JUMPI PUSH2 0x14B8 PUSH2 0x16ED JUMP JUMPDEST JUMPDEST DUP3 DUP3 DIV SWAP1 POP SWAP3 SWAP2 POP POP JUMP JUMPDEST PUSH1 0x0 PUSH2 0x14CF DUP3 PUSH2 0x15BC JUMP JUMPDEST SWAP2 POP PUSH2 0x14DA DUP4 PUSH2 0x15BC JUMP JUMPDEST SWAP3 POP DUP2 PUSH32 0xFFFFFFFFFFFFFFFFFFFFFFFFFFFFFFFFFFFFFFFFFFFFFFFFFFFFFFFFFFFFFFFF DIV DUP4 GT DUP3 ISZERO ISZERO AND ISZERO PUSH2 0x1513 JUMPI PUSH2 0x1512 PUSH2 0x16BE JUMP JUMPDEST JUMPDEST DUP3 DUP3 MUL SWAP1 POP SWAP3 SWAP2 POP POP JUMP JUMPDEST PUSH1 0x0 PUSH2 0x1529 DUP3 PUSH2 0x15BC JUMP JUMPDEST SWAP2 POP PUSH2 0x1534 DUP4 PUSH2 0x15BC JUMP JUMPDEST SWAP3 POP DUP3 DUP3 LT ISZERO PUSH2 0x1547 JUMPI PUSH2 0x1546 PUSH2 0x16BE JUMP JUMPDEST JUMPDEST DUP3 DUP3 SUB SWAP1 POP SWAP3 SWAP2 POP POP JUMP JUMPDEST PUSH1 0x0 PUSH2 0x155D DUP3 PUSH2 0x159C JUMP JUMPDEST SWAP1 POP SWAP2 SWAP1 POP JUMP JUMPDEST PUSH1 0x0 DUP2 ISZERO ISZERO SWAP1 POP SWAP2 SWAP1 POP JUMP JUMPDEST PUSH1 0x0 PUSH32 0xFFFFFFFF00000000000000000000000000000000000000000000000000000000 DUP3 AND SWAP1 POP SWAP2 SWAP1 POP JUMP JUMPDEST PUSH1 0x0 PUSH20 0xFFFFFFFFFFFFFFFFFFFFFFFFFFFFFFFFFFFFFFFF DUP3 AND SWAP1 POP SWAP2 SWAP1 POP JUMP JUMPDEST PUSH1 0x0 DUP2 SWAP1 POP SWAP2 SWAP1 POP JUMP JUMPDEST PUSH1 0x0 PUSH2 0x15D1 DUP3 PUSH2 0x15EA JUMP JUMPDEST SWAP1 POP SWAP2 SWAP1 POP JUMP JUMPDEST PUSH1 0x0 PUSH2 0x15E3 DUP3 PUSH2 0x15EA JUMP JUMPDEST SWAP1 POP SWAP2 SWAP1 POP JUMP JUMPDEST PUSH1 0x0 PUSH2 0x15F5 DUP3 PUSH2 0x15FC JUMP JUMPDEST SWAP1 POP SWAP2 SWAP1 POP JUMP JUMPDEST PUSH1 0x0 PUSH2 0x1607 DUP3 PUSH2 0x159C JUMP JUMPDEST SWAP1 POP SWAP2 SWAP1 POP JUMP JUMPDEST DUP3 DUP2 DUP4 CALLDATACOPY PUSH1 0x0 DUP4 DUP4 ADD MSTORE POP POP POP JUMP JUMPDEST PUSH1 0x0 PUSH2 0x1628 DUP3 PUSH2 0x15BC JUMP JUMPDEST SWAP2 POP PUSH1 0x0 DUP3 EQ ISZERO PUSH2 0x163C JUMPI PUSH2 0x163B PUSH2 0x16BE JUMP JUMPDEST JUMPDEST PUSH1 0x1 DUP3 SUB SWAP1 POP SWAP2 SWAP1 POP JUMP JUMPDEST PUSH1 0x0 PUSH2 0x1652 DUP3 PUSH2 0x15BC JUMP JUMPDEST SWAP2 POP PUSH32 0xFFFFFFFFFFFFFFFFFFFFFFFFFFFFFFFFFFFFFFFFFFFFFFFFFFFFFFFFFFFFFFFF DUP3 EQ ISZERO PUSH2 0x1685 JUMPI PUSH2 0x1684 PUSH2 0x16BE JUMP JUMPDEST JUMPDEST PUSH1 0x1 DUP3 ADD SWAP1 POP SWAP2 SWAP1 POP JUMP JUMPDEST PUSH1 0x0 PUSH2 0x169B DUP3 PUSH2 0x16A2 JUMP JUMPDEST SWAP1 POP SWAP2 SWAP1 POP JUMP JUMPDEST PUSH1 0x0 PUSH2 0x16AD DUP3 PUSH2 0x1764 JUMP JUMPDEST SWAP1 POP SWAP2 SWAP1 POP JUMP JUMPDEST PUSH1 0x0 DUP2 SWAP1 POP SWAP2 SWAP1 POP JUMP JUMPDEST PUSH32 0x4E487B7100000000000000000000000000000000000000000000000000000000 PUSH1 0x0 MSTORE PUSH1 0x11 PUSH1 0x4 MSTORE PUSH1 0x24 PUSH1 0x0 REVERT JUMPDEST PUSH32 0x4E487B7100000000000000000000000000000000000000000000000000000000 PUSH1 0x0 MSTORE PUSH1 0x12 PUSH1 0x4 MSTORE PUSH1 0x24 PUSH1 0x0 REVERT JUMPDEST PUSH32 0x4E487B7100000000000000000000000000000000000000000000000000000000 PUSH1 0x0 MSTORE PUSH1 0x32 PUSH1 0x4 MSTORE PUSH1 0x24 PUSH1 0x0 REVERT JUMPDEST PUSH1 0x0 DUP1 REVERT JUMPDEST PUSH1 0x0 DUP1 REVERT JUMPDEST PUSH1 0x0 DUP1 REVERT JUMPDEST PUSH1 0x0 DUP1 REVERT JUMPDEST PUSH1 0x0 DUP1 REVERT JUMPDEST PUSH1 0x0 DUP2 PUSH1 0x60 SHL SWAP1 POP SWAP2 SWAP1 POP JUMP JUMPDEST PUSH32 0x596F7520646F6E2774206F776E207468697320746F6B656E2100000000000000 PUSH1 0x0 DUP3 ADD MSTORE POP JUMP JUMPDEST PUSH32 0x4F776E61626C653A206E6577206F776E657220697320746865207A65726F2061 PUSH1 0x0 DUP3 ADD MSTORE PUSH32 0x6464726573730000000000000000000000000000000000000000000000000000 PUSH1 0x20 DUP3 ADD MSTORE POP JUMP JUMPDEST PUSH32 0x596F752068617665206E6F20746F6B656E73207374616B656400000000000000 PUSH1 0x0 DUP3 ADD MSTORE POP JUMP JUMPDEST PUSH32 0x4F776E61626C653A2063616C6C6572206973206E6F7420746865206F776E6572 PUSH1 0x0 DUP3 ADD MSTORE POP JUMP JUMPDEST PUSH32 0x5265656E7472616E637947756172643A207265656E7472616E742063616C6C00 PUSH1 0x0 DUP3 ADD MSTORE POP JUMP JUMPDEST PUSH2 0x186D DUP2 PUSH2 0x1552 JUMP JUMPDEST DUP2 EQ PUSH2 0x1878 JUMPI PUSH1 0x0 DUP1 REVERT JUMPDEST POP JUMP JUMPDEST PUSH2 0x1884 DUP2 PUSH2 0x15BC JUMP JUMPDEST DUP2 EQ PUSH2 0x188F JUMPI PUSH1 0x0 DUP1 REVERT JUMPDEST POP JUMP INVALID LOG2 PUSH5 0x6970667358 0x22 SLT KECCAK256 DELEGATECALL 0xD4 KECCAK256 DUP9 CALLCODE 0xC2 0x5F SWAP1 STATICCALL DUP9 RETURNDATACOPY MOD 0xA9 DUP8 0xEC SWAP14 PUSH19 0x89E8C49F59A406F99B5B363613C66764736F6C PUSH4 0x43000807 STOP CALLER "
				},
				"gasEstimates": {
					"creation": {
						"codeDepositCost": "1268800",
						"executionCost": "infinite",
						"totalCost": "infinite"
					},
					"external": {
						"nftCollection()": "2667",
						"onERC721Received(address,address,uint256,bytes)": "infinite",
						"owner()": "2569",
						"paused()": "2524",
						"renounceOwnership()": "30631",
						"rewardsToken()": "2688",
						"stake(uint256)": "infinite",
						"stakerAddress(uint256)": "2883",
						"stakers(address)": "infinite",
						"transferOwnership(address)": "31001",
						"withdraw(uint256)": "infinite"
					},
					"internal": {
						"calculateRewards(address)": "infinite"
					}
				},
				"methodIdentifiers": {
					"nftCollection()": "6588103b",
					"onERC721Received(address,address,uint256,bytes)": "150b7a02",
					"owner()": "8da5cb5b",
					"paused()": "5c975abb",
					"renounceOwnership()": "715018a6",
					"rewardsToken()": "d1af0c7d",
					"stake(uint256)": "a694fc3a",
					"stakerAddress(uint256)": "94067045",
					"stakers(address)": "9168ae72",
					"transferOwnership(address)": "f2fde38b",
					"withdraw(uint256)": "2e1a7d4d"
				}
			},
			"storageLayout": {
				"storage": [
					{
						"astId": 585,
						"contract": "Farm.sol:Farm",
						"label": "_status",
						"offset": 0,
						"slot": "0",
						"type": "t_uint256"
					},
					{
						"astId": 487,
						"contract": "Farm.sol:Farm",
						"label": "_paused",
						"offset": 0,
						"slot": "1",
						"type": "t_bool"
					},
					{
						"astId": 1038,
						"contract": "Farm.sol:Farm",
						"label": "_owner",
						"offset": 1,
						"slot": "1",
						"type": "t_address"
					},
					{
						"astId": 1177,
						"contract": "Farm.sol:Farm",
						"label": "rewardsToken",
						"offset": 0,
						"slot": "2",
						"type": "t_contract(IERC20)454"
					},
					{
						"astId": 1180,
						"contract": "Farm.sol:Farm",
						"label": "nftCollection",
						"offset": 0,
						"slot": "3",
						"type": "t_contract(IERC721)138"
					},
					{
						"astId": 1183,
						"contract": "Farm.sol:Farm",
						"label": "rewardsPerHour",
						"offset": 0,
						"slot": "4",
						"type": "t_uint256"
					},
					{
						"astId": 1188,
						"contract": "Farm.sol:Farm",
						"label": "stakers",
						"offset": 0,
						"slot": "5",
						"type": "t_mapping(t_address,t_struct(Staker)1174_storage)"
					},
					{
						"astId": 1192,
						"contract": "Farm.sol:Farm",
						"label": "stakerAddress",
						"offset": 0,
						"slot": "6",
						"type": "t_mapping(t_uint256,t_address)"
					}
				],
				"types": {
					"t_address": {
						"encoding": "inplace",
						"label": "address",
						"numberOfBytes": "20"
					},
					"t_array(t_struct(StakedToken)1163_storage)dyn_storage": {
						"base": "t_struct(StakedToken)1163_storage",
						"encoding": "dynamic_array",
						"label": "struct Farm.StakedToken[]",
						"numberOfBytes": "32"
					},
					"t_bool": {
						"encoding": "inplace",
						"label": "bool",
						"numberOfBytes": "1"
					},
					"t_contract(IERC20)454": {
						"encoding": "inplace",
						"label": "contract IERC20",
						"numberOfBytes": "20"
					},
					"t_contract(IERC721)138": {
						"encoding": "inplace",
						"label": "contract IERC721",
						"numberOfBytes": "20"
					},
					"t_mapping(t_address,t_struct(Staker)1174_storage)": {
						"encoding": "mapping",
						"key": "t_address",
						"label": "mapping(address => struct Farm.Staker)",
						"numberOfBytes": "32",
						"value": "t_struct(Staker)1174_storage"
					},
					"t_mapping(t_uint256,t_address)": {
						"encoding": "mapping",
						"key": "t_uint256",
						"label": "mapping(uint256 => address)",
						"numberOfBytes": "32",
						"value": "t_address"
					},
					"t_struct(StakedToken)1163_storage": {
						"encoding": "inplace",
						"label": "struct Farm.StakedToken",
						"members": [
							{
								"astId": 1160,
								"contract": "Farm.sol:Farm",
								"label": "staker",
								"offset": 0,
								"slot": "0",
								"type": "t_address"
							},
							{
								"astId": 1162,
								"contract": "Farm.sol:Farm",
								"label": "tokenId",
								"offset": 0,
								"slot": "1",
								"type": "t_uint256"
							}
						],
						"numberOfBytes": "64"
					},
					"t_struct(Staker)1174_storage": {
						"encoding": "inplace",
						"label": "struct Farm.Staker",
						"members": [
							{
								"astId": 1165,
								"contract": "Farm.sol:Farm",
								"label": "amountStaked",
								"offset": 0,
								"slot": "0",
								"type": "t_uint256"
							},
							{
								"astId": 1169,
								"contract": "Farm.sol:Farm",
								"label": "stakedTokens",
								"offset": 0,
								"slot": "1",
								"type": "t_array(t_struct(StakedToken)1163_storage)dyn_storage"
							},
							{
								"astId": 1171,
								"contract": "Farm.sol:Farm",
								"label": "timeOfLastUpdate",
								"offset": 0,
								"slot": "2",
								"type": "t_uint256"
							},
							{
								"astId": 1173,
								"contract": "Farm.sol:Farm",
								"label": "unclaimedRewards",
								"offset": 0,
								"slot": "3",
								"type": "t_uint256"
							}
						],
						"numberOfBytes": "128"
					},
					"t_uint256": {
						"encoding": "inplace",
						"label": "uint256",
						"numberOfBytes": "32"
					}
				}
			},
			"userdoc": {
				"kind": "user",
				"methods": {},
				"version": 1
			}
		}
	}
}