{
	"Farm.sol": {
		"Farm": {
			"abi": [
				{
					"inputs": [
						{
							"internalType": "address",
							"name": "_nftCollection",
							"type": "address"
						},
						{
							"internalType": "contract IERC20",
							"name": "_rewardsToken",
							"type": "address"
						},
						{
							"internalType": "uint256",
							"name": "_rewardsPerHour",
							"type": "uint256"
						}
					],
					"stateMutability": "nonpayable",
					"type": "constructor"
				},
				{
					"anonymous": false,
					"inputs": [
						{
							"indexed": true,
							"internalType": "address",
							"name": "previousOwner",
							"type": "address"
						},
						{
							"indexed": true,
							"internalType": "address",
							"name": "newOwner",
							"type": "address"
						}
					],
					"name": "OwnershipTransferred",
					"type": "event"
				},
				{
					"anonymous": false,
					"inputs": [
						{
							"indexed": false,
							"internalType": "address",
							"name": "account",
							"type": "address"
						}
					],
					"name": "Paused",
					"type": "event"
				},
				{
					"anonymous": false,
					"inputs": [
						{
							"indexed": false,
							"internalType": "address",
							"name": "account",
							"type": "address"
						}
					],
					"name": "Unpaused",
					"type": "event"
				},
				{
					"inputs": [],
					"name": "adminWithdrawRewards",
					"outputs": [],
					"stateMutability": "nonpayable",
					"type": "function"
				},
				{
					"inputs": [
						{
							"internalType": "address",
							"name": "_staker",
							"type": "address"
						}
					],
					"name": "availableRewards",
					"outputs": [
						{
							"internalType": "uint256",
							"name": "",
							"type": "uint256"
						}
					],
					"stateMutability": "view",
					"type": "function"
				},
				{
					"inputs": [],
					"name": "claimRewards",
					"outputs": [],
					"stateMutability": "nonpayable",
					"type": "function"
				},
				{
					"inputs": [
						{
							"internalType": "address",
							"name": "_user",
							"type": "address"
						}
					],
					"name": "getStakedTokens",
					"outputs": [
						{
							"components": [
								{
									"internalType": "address",
									"name": "staker",
									"type": "address"
								},
								{
									"internalType": "uint256",
									"name": "tokenId",
									"type": "uint256"
								}
							],
							"internalType": "struct Farm.StakedToken[]",
							"name": "",
							"type": "tuple[]"
						}
					],
					"stateMutability": "view",
					"type": "function"
				},
				{
					"inputs": [],
					"name": "nftCollection",
					"outputs": [
						{
							"internalType": "contract IERC721",
							"name": "",
							"type": "address"
						}
					],
					"stateMutability": "view",
					"type": "function"
				},
				{
					"inputs": [],
					"name": "owner",
					"outputs": [
						{
							"internalType": "address",
							"name": "",
							"type": "address"
						}
					],
					"stateMutability": "view",
					"type": "function"
				},
				{
					"inputs": [],
					"name": "paused",
					"outputs": [
						{
							"internalType": "bool",
							"name": "",
							"type": "bool"
						}
					],
					"stateMutability": "view",
					"type": "function"
				},
				{
					"inputs": [],
					"name": "renounceOwnership",
					"outputs": [],
					"stateMutability": "nonpayable",
					"type": "function"
				},
				{
					"inputs": [],
					"name": "rewardsToken",
					"outputs": [
						{
							"internalType": "contract IERC20",
							"name": "",
							"type": "address"
						}
					],
					"stateMutability": "view",
					"type": "function"
				},
				{
					"inputs": [
						{
							"internalType": "uint256",
							"name": "_tokenId",
							"type": "uint256"
						}
					],
					"name": "stake",
					"outputs": [],
					"stateMutability": "nonpayable",
					"type": "function"
				},
				{
					"inputs": [
						{
							"internalType": "uint256",
							"name": "",
							"type": "uint256"
						}
					],
					"name": "stakerAddress",
					"outputs": [
						{
							"internalType": "address",
							"name": "",
							"type": "address"
						}
					],
					"stateMutability": "view",
					"type": "function"
				},
				{
					"inputs": [
						{
							"internalType": "address",
							"name": "",
							"type": "address"
						}
					],
					"name": "stakers",
					"outputs": [
						{
							"internalType": "uint256",
							"name": "amountStaked",
							"type": "uint256"
						},
						{
							"internalType": "uint256",
							"name": "timeOfLastUpdate",
							"type": "uint256"
						},
						{
							"internalType": "uint256",
							"name": "unclaimedRewards",
							"type": "uint256"
						}
					],
					"stateMutability": "view",
					"type": "function"
				},
				{
					"inputs": [
						{
							"internalType": "address",
							"name": "newOwner",
							"type": "address"
						}
					],
					"name": "transferOwnership",
					"outputs": [],
					"stateMutability": "nonpayable",
					"type": "function"
				},
				{
					"inputs": [
						{
							"internalType": "uint256",
							"name": "_tokenId",
							"type": "uint256"
						}
					],
					"name": "withdraw",
					"outputs": [],
					"stateMutability": "nonpayable",
					"type": "function"
				}
			],
			"devdoc": {
				"kind": "dev",
				"methods": {
					"owner()": {
						"details": "Returns the address of the current owner."
					},
					"paused()": {
						"details": "Returns true if the contract is paused, and false otherwise."
					},
					"renounceOwnership()": {
						"details": "Leaves the contract without owner. It will not be possible to call `onlyOwner` functions anymore. Can only be called by the current owner. NOTE: Renouncing ownership will leave the contract without an owner, thereby removing any functionality that is only available to the owner."
					},
					"transferOwnership(address)": {
						"details": "Transfers ownership of the contract to a new account (`newOwner`). Can only be called by the current owner."
					}
				},
				"version": 1
			},
			"evm": {
				"assembly": "    /* \"Farm.sol\":28878:33697  contract Farm is ReentrancyGuard, Pausable, Ownable {\r... */\n  mstore(0x40, 0x80)\n    /* \"Farm.sol\":29473:29479  100000 */\n  0x0186a0\n    /* \"Farm.sol\":29440:29479  uint256 private rewardsPerHour = 100000 */\n  0x05\n  sstore\n    /* \"Farm.sol\":29676:29947  constructor(address _nftCollection, IERC20 _rewardsToken, uint256 _rewardsPerHour) {\r... */\n  callvalue\n  dup1\n  iszero\n  tag_1\n  jumpi\n  0x00\n  dup1\n  revert\ntag_1:\n  pop\n  mload(0x40)\n  sub(codesize, bytecodeSize)\n  dup1\n  bytecodeSize\n  dup4\n  codecopy\n  dup2\n  dup2\n  add\n  0x40\n  mstore\n  dup2\n  add\n  swap1\n  tag_2\n  swap2\n  swap1\n  tag_3\n  jump\t// in\ntag_2:\n    /* \"Farm.sol\":17794:17795  1 */\n  0x01\n    /* \"Farm.sol\":17905:17912  _status */\n  0x00\n    /* \"Farm.sol\":17905:17927  _status = _NOT_ENTERED */\n  dup2\n  swap1\n  sstore\n  pop\n    /* \"Farm.sol\":15333:15338  false */\n  0x00\n    /* \"Farm.sol\":15323:15330  _paused */\n  0x01\n  0x00\n    /* \"Farm.sol\":15323:15338  _paused = false */\n  0x0100\n  exp\n  dup2\n  sload\n  dup2\n  0xff\n  mul\n  not\n  and\n  swap1\n  dup4\n  iszero\n  iszero\n  mul\n  or\n  swap1\n  sstore\n  pop\n    /* \"Farm.sol\":27132:27164  _transferOwnership(_msgSender()) */\n  tag_11\n    /* \"Farm.sol\":27151:27163  _msgSender() */\n  tag_12\n    /* \"Farm.sol\":27151:27161  _msgSender */\n  shl(0x20, tag_13)\n    /* \"Farm.sol\":27151:27163  _msgSender() */\n  0x20\n  shr\n  jump\t// in\ntag_12:\n    /* \"Farm.sol\":27132:27150  _transferOwnership */\n  shl(0x20, tag_14)\n    /* \"Farm.sol\":27132:27164  _transferOwnership(_msgSender()) */\n  0x20\n  shr\n  jump\t// in\ntag_11:\n    /* \"Farm.sol\":29794:29808  _nftCollection */\n  dup3\n    /* \"Farm.sol\":29770:29783  nftCollection */\n  0x03\n  0x00\n    /* \"Farm.sol\":29770:29809  nftCollection = IERC721(_nftCollection) */\n  0x0100\n  exp\n  dup2\n  sload\n  dup2\n  0xffffffffffffffffffffffffffffffffffffffff\n  mul\n  not\n  and\n  swap1\n  dup4\n  0xffffffffffffffffffffffffffffffffffffffff\n  and\n  mul\n  or\n  swap1\n  sstore\n  pop\n    /* \"Farm.sol\":29843:29857  _nftCollection */\n  dup3\n    /* \"Farm.sol\":29820:29840  nftCollectionAddress */\n  0x04\n  0x00\n    /* \"Farm.sol\":29820:29857  nftCollectionAddress = _nftCollection */\n  0x0100\n  exp\n  dup2\n  sload\n  dup2\n  0xffffffffffffffffffffffffffffffffffffffff\n  mul\n  not\n  and\n  swap1\n  dup4\n  0xffffffffffffffffffffffffffffffffffffffff\n  and\n  mul\n  or\n  swap1\n  sstore\n  pop\n    /* \"Farm.sol\":29883:29896  _rewardsToken */\n  dup2\n    /* \"Farm.sol\":29868:29880  rewardsToken */\n  0x02\n  0x00\n    /* \"Farm.sol\":29868:29896  rewardsToken = _rewardsToken */\n  0x0100\n  exp\n  dup2\n  sload\n  dup2\n  0xffffffffffffffffffffffffffffffffffffffff\n  mul\n  not\n  and\n  swap1\n  dup4\n  0xffffffffffffffffffffffffffffffffffffffff\n  and\n  mul\n  or\n  swap1\n  sstore\n  pop\n    /* \"Farm.sol\":29924:29939  _rewardsPerHour */\n  dup1\n    /* \"Farm.sol\":29907:29921  rewardsPerHour */\n  0x05\n    /* \"Farm.sol\":29907:29939  rewardsPerHour = _rewardsPerHour */\n  dup2\n  swap1\n  sstore\n  pop\n    /* \"Farm.sol\":29676:29947  constructor(address _nftCollection, IERC20 _rewardsToken, uint256 _rewardsPerHour) {\r... */\n  pop\n  pop\n  pop\n    /* \"Farm.sol\":28878:33697  contract Farm is ReentrancyGuard, Pausable, Ownable {\r... */\n  jump(tag_16)\n    /* \"Farm.sol\":14698:14796  function _msgSender() internal view virtual returns (address) {\r... */\ntag_13:\n    /* \"Farm.sol\":14751:14758  address */\n  0x00\n    /* \"Farm.sol\":14778:14788  msg.sender */\n  caller\n    /* \"Farm.sol\":14771:14788  return msg.sender */\n  swap1\n  pop\n    /* \"Farm.sol\":14698:14796  function _msgSender() internal view virtual returns (address) {\r... */\n  swap1\n  jump\t// out\n    /* \"Farm.sol\":28678:28869  function _transferOwnership(address newOwner) internal virtual {\r... */\ntag_14:\n    /* \"Farm.sol\":28752:28768  address oldOwner */\n  0x00\n    /* \"Farm.sol\":28771:28777  _owner */\n  0x01\n  dup1\n  sload\n  swap1\n  0x0100\n  exp\n  swap1\n  div\n  0xffffffffffffffffffffffffffffffffffffffff\n  and\n    /* \"Farm.sol\":28752:28777  address oldOwner = _owner */\n  swap1\n  pop\n    /* \"Farm.sol\":28797:28805  newOwner */\n  dup2\n    /* \"Farm.sol\":28788:28794  _owner */\n  0x01\n  dup1\n    /* \"Farm.sol\":28788:28805  _owner = newOwner */\n  0x0100\n  exp\n  dup2\n  sload\n  dup2\n  0xffffffffffffffffffffffffffffffffffffffff\n  mul\n  not\n  and\n  swap1\n  dup4\n  0xffffffffffffffffffffffffffffffffffffffff\n  and\n  mul\n  or\n  swap1\n  sstore\n  pop\n    /* \"Farm.sol\":28852:28860  newOwner */\n  dup2\n    /* \"Farm.sol\":28821:28861  OwnershipTransferred(oldOwner, newOwner) */\n  0xffffffffffffffffffffffffffffffffffffffff\n  and\n    /* \"Farm.sol\":28842:28850  oldOwner */\n  dup2\n    /* \"Farm.sol\":28821:28861  OwnershipTransferred(oldOwner, newOwner) */\n  0xffffffffffffffffffffffffffffffffffffffff\n  and\n  0x8be0079c531659141344cd1fd0a4f28419497f9722a3daafe3b4186f6b6457e0\n  mload(0x40)\n  mload(0x40)\n  dup1\n  swap2\n  sub\n  swap1\n  log3\n    /* \"Farm.sol\":28678:28869  function _transferOwnership(address newOwner) internal virtual {\r... */\n  pop\n  pop\n  jump\t// out\n    /* \"#utility.yul\":7:150   */\ntag_20:\n  0x00\n    /* \"#utility.yul\":95:101   */\n  dup2\n    /* \"#utility.yul\":89:102   */\n  mload\n    /* \"#utility.yul\":80:102   */\n  swap1\n  pop\n    /* \"#utility.yul\":111:144   */\n  tag_22\n    /* \"#utility.yul\":138:143   */\n  dup2\n    /* \"#utility.yul\":111:144   */\n  tag_23\n  jump\t// in\ntag_22:\n    /* \"#utility.yul\":70:150   */\n  swap3\n  swap2\n  pop\n  pop\n  jump\t// out\n    /* \"#utility.yul\":156:327   */\ntag_24:\n  0x00\n    /* \"#utility.yul\":258:264   */\n  dup2\n    /* \"#utility.yul\":252:265   */\n  mload\n    /* \"#utility.yul\":243:265   */\n  swap1\n  pop\n    /* \"#utility.yul\":274:321   */\n  tag_26\n    /* \"#utility.yul\":315:320   */\n  dup2\n    /* \"#utility.yul\":274:321   */\n  tag_27\n  jump\t// in\ntag_26:\n    /* \"#utility.yul\":233:327   */\n  swap3\n  swap2\n  pop\n  pop\n  jump\t// out\n    /* \"#utility.yul\":333:476   */\ntag_28:\n  0x00\n    /* \"#utility.yul\":421:427   */\n  dup2\n    /* \"#utility.yul\":415:428   */\n  mload\n    /* \"#utility.yul\":406:428   */\n  swap1\n  pop\n    /* \"#utility.yul\":437:470   */\n  tag_30\n    /* \"#utility.yul\":464:469   */\n  dup2\n    /* \"#utility.yul\":437:470   */\n  tag_31\n  jump\t// in\ntag_30:\n    /* \"#utility.yul\":396:476   */\n  swap3\n  swap2\n  pop\n  pop\n  jump\t// out\n    /* \"#utility.yul\":482:1106   */\ntag_3:\n  0x00\n  dup1\n  0x00\n    /* \"#utility.yul\":649:651   */\n  0x60\n    /* \"#utility.yul\":637:646   */\n  dup5\n    /* \"#utility.yul\":628:635   */\n  dup7\n    /* \"#utility.yul\":624:647   */\n  sub\n    /* \"#utility.yul\":620:652   */\n  slt\n    /* \"#utility.yul\":617:619   */\n  iszero\n  tag_33\n  jumpi\n    /* \"#utility.yul\":665:666   */\n  0x00\n    /* \"#utility.yul\":662:663   */\n  dup1\n    /* \"#utility.yul\":655:667   */\n  revert\n    /* \"#utility.yul\":617:619   */\ntag_33:\n    /* \"#utility.yul\":708:709   */\n  0x00\n    /* \"#utility.yul\":733:797   */\n  tag_34\n    /* \"#utility.yul\":789:796   */\n  dup7\n    /* \"#utility.yul\":780:786   */\n  dup3\n    /* \"#utility.yul\":769:778   */\n  dup8\n    /* \"#utility.yul\":765:787   */\n  add\n    /* \"#utility.yul\":733:797   */\n  tag_20\n  jump\t// in\ntag_34:\n    /* \"#utility.yul\":723:797   */\n  swap4\n  pop\n    /* \"#utility.yul\":679:807   */\n  pop\n    /* \"#utility.yul\":846:848   */\n  0x20\n    /* \"#utility.yul\":872:950   */\n  tag_35\n    /* \"#utility.yul\":942:949   */\n  dup7\n    /* \"#utility.yul\":933:939   */\n  dup3\n    /* \"#utility.yul\":922:931   */\n  dup8\n    /* \"#utility.yul\":918:940   */\n  add\n    /* \"#utility.yul\":872:950   */\n  tag_24\n  jump\t// in\ntag_35:\n    /* \"#utility.yul\":862:950   */\n  swap3\n  pop\n    /* \"#utility.yul\":817:960   */\n  pop\n    /* \"#utility.yul\":999:1001   */\n  0x40\n    /* \"#utility.yul\":1025:1089   */\n  tag_36\n    /* \"#utility.yul\":1081:1088   */\n  dup7\n    /* \"#utility.yul\":1072:1078   */\n  dup3\n    /* \"#utility.yul\":1061:1070   */\n  dup8\n    /* \"#utility.yul\":1057:1079   */\n  add\n    /* \"#utility.yul\":1025:1089   */\n  tag_28\n  jump\t// in\ntag_36:\n    /* \"#utility.yul\":1015:1089   */\n  swap2\n  pop\n    /* \"#utility.yul\":970:1099   */\n  pop\n    /* \"#utility.yul\":607:1106   */\n  swap3\n  pop\n  swap3\n  pop\n  swap3\n  jump\t// out\n    /* \"#utility.yul\":1112:1208   */\ntag_37:\n  0x00\n    /* \"#utility.yul\":1178:1202   */\n  tag_39\n    /* \"#utility.yul\":1196:1201   */\n  dup3\n    /* \"#utility.yul\":1178:1202   */\n  tag_40\n  jump\t// in\ntag_39:\n    /* \"#utility.yul\":1167:1202   */\n  swap1\n  pop\n    /* \"#utility.yul\":1157:1208   */\n  swap2\n  swap1\n  pop\n  jump\t// out\n    /* \"#utility.yul\":1214:1324   */\ntag_41:\n  0x00\n    /* \"#utility.yul\":1294:1318   */\n  tag_43\n    /* \"#utility.yul\":1312:1317   */\n  dup3\n    /* \"#utility.yul\":1294:1318   */\n  tag_37\n  jump\t// in\ntag_43:\n    /* \"#utility.yul\":1283:1318   */\n  swap1\n  pop\n    /* \"#utility.yul\":1273:1324   */\n  swap2\n  swap1\n  pop\n  jump\t// out\n    /* \"#utility.yul\":1330:1456   */\ntag_40:\n  0x00\n    /* \"#utility.yul\":1407:1449   */\n  0xffffffffffffffffffffffffffffffffffffffff\n    /* \"#utility.yul\":1400:1405   */\n  dup3\n    /* \"#utility.yul\":1396:1450   */\n  and\n    /* \"#utility.yul\":1385:1450   */\n  swap1\n  pop\n    /* \"#utility.yul\":1375:1456   */\n  swap2\n  swap1\n  pop\n  jump\t// out\n    /* \"#utility.yul\":1462:1539   */\ntag_45:\n  0x00\n    /* \"#utility.yul\":1528:1533   */\n  dup2\n    /* \"#utility.yul\":1517:1533   */\n  swap1\n  pop\n    /* \"#utility.yul\":1507:1539   */\n  swap2\n  swap1\n  pop\n  jump\t// out\n    /* \"#utility.yul\":1545:1667   */\ntag_23:\n    /* \"#utility.yul\":1618:1642   */\n  tag_48\n    /* \"#utility.yul\":1636:1641   */\n  dup2\n    /* \"#utility.yul\":1618:1642   */\n  tag_37\n  jump\t// in\ntag_48:\n    /* \"#utility.yul\":1611:1616   */\n  dup2\n    /* \"#utility.yul\":1608:1643   */\n  eq\n    /* \"#utility.yul\":1598:1600   */\n  tag_49\n  jumpi\n    /* \"#utility.yul\":1657:1658   */\n  0x00\n    /* \"#utility.yul\":1654:1655   */\n  dup1\n    /* \"#utility.yul\":1647:1659   */\n  revert\n    /* \"#utility.yul\":1598:1600   */\ntag_49:\n    /* \"#utility.yul\":1588:1667   */\n  pop\n  jump\t// out\n    /* \"#utility.yul\":1673:1823   */\ntag_27:\n    /* \"#utility.yul\":1760:1798   */\n  tag_51\n    /* \"#utility.yul\":1792:1797   */\n  dup2\n    /* \"#utility.yul\":1760:1798   */\n  tag_41\n  jump\t// in\ntag_51:\n    /* \"#utility.yul\":1753:1758   */\n  dup2\n    /* \"#utility.yul\":1750:1799   */\n  eq\n    /* \"#utility.yul\":1740:1742   */\n  tag_52\n  jumpi\n    /* \"#utility.yul\":1813:1814   */\n  0x00\n    /* \"#utility.yul\":1810:1811   */\n  dup1\n    /* \"#utility.yul\":1803:1815   */\n  revert\n    /* \"#utility.yul\":1740:1742   */\ntag_52:\n    /* \"#utility.yul\":1730:1823   */\n  pop\n  jump\t// out\n    /* \"#utility.yul\":1829:1951   */\ntag_31:\n    /* \"#utility.yul\":1902:1926   */\n  tag_54\n    /* \"#utility.yul\":1920:1925   */\n  dup2\n    /* \"#utility.yul\":1902:1926   */\n  tag_45\n  jump\t// in\ntag_54:\n    /* \"#utility.yul\":1895:1900   */\n  dup2\n    /* \"#utility.yul\":1892:1927   */\n  eq\n    /* \"#utility.yul\":1882:1884   */\n  tag_55\n  jumpi\n    /* \"#utility.yul\":1941:1942   */\n  0x00\n    /* \"#utility.yul\":1938:1939   */\n  dup1\n    /* \"#utility.yul\":1931:1943   */\n  revert\n    /* \"#utility.yul\":1882:1884   */\ntag_55:\n    /* \"#utility.yul\":1872:1951   */\n  pop\n  jump\t// out\n    /* \"Farm.sol\":28878:33697  contract Farm is ReentrancyGuard, Pausable, Ownable {\r... */\ntag_16:\n  dataSize(sub_0)\n  dup1\n  dataOffset(sub_0)\n  0x00\n  codecopy\n  0x00\n  return\nstop\n\nsub_0: assembly {\n        /* \"Farm.sol\":28878:33697  contract Farm is ReentrancyGuard, Pausable, Ownable {\r... */\n      mstore(0x40, 0x80)\n      callvalue\n      dup1\n      iszero\n      tag_1\n      jumpi\n      0x00\n      dup1\n      revert\n    tag_1:\n      pop\n      jumpi(tag_2, lt(calldatasize, 0x04))\n      shr(0xe0, calldataload(0x00))\n      dup1\n      0x9168ae72\n      gt\n      tag_17\n      jumpi\n      dup1\n      0xd1af0c7d\n      gt\n      tag_18\n      jumpi\n      dup1\n      0xd1af0c7d\n      eq\n      tag_13\n      jumpi\n      dup1\n      0xf2fde38b\n      eq\n      tag_14\n      jumpi\n      dup1\n      0xf854a27f\n      eq\n      tag_15\n      jumpi\n      dup1\n      0xf995441b\n      eq\n      tag_16\n      jumpi\n      jump(tag_2)\n    tag_18:\n      dup1\n      0x9168ae72\n      eq\n      tag_10\n      jumpi\n      dup1\n      0x94067045\n      eq\n      tag_11\n      jumpi\n      dup1\n      0xa694fc3a\n      eq\n      tag_12\n      jumpi\n      jump(tag_2)\n    tag_17:\n      dup1\n      0x63c28db1\n      gt\n      tag_19\n      jumpi\n      dup1\n      0x63c28db1\n      eq\n      tag_6\n      jumpi\n      dup1\n      0x6588103b\n      eq\n      tag_7\n      jumpi\n      dup1\n      0x715018a6\n      eq\n      tag_8\n      jumpi\n      dup1\n      0x8da5cb5b\n      eq\n      tag_9\n      jumpi\n      jump(tag_2)\n    tag_19:\n      dup1\n      0x2e1a7d4d\n      eq\n      tag_3\n      jumpi\n      dup1\n      0x372500ab\n      eq\n      tag_4\n      jumpi\n      dup1\n      0x5c975abb\n      eq\n      tag_5\n      jumpi\n    tag_2:\n      0x00\n      dup1\n      revert\n        /* \"Farm.sol\":31021:32085  function withdraw(uint256 _tokenId) external nonReentrant {\r... */\n    tag_3:\n      tag_20\n      0x04\n      dup1\n      calldatasize\n      sub\n      dup2\n      add\n      swap1\n      tag_21\n      swap2\n      swap1\n      tag_22\n      jump\t// in\n    tag_21:\n      tag_23\n      jump\t// in\n    tag_20:\n      stop\n        /* \"Farm.sol\":32401:32787  function claimRewards() external {\r... */\n    tag_4:\n      tag_24\n      tag_25\n      jump\t// in\n    tag_24:\n      stop\n        /* \"Farm.sol\":15972:16058  function paused() public view virtual returns (bool) {\r... */\n    tag_5:\n      tag_26\n      tag_27\n      jump\t// in\n    tag_26:\n      mload(0x40)\n      tag_28\n      swap2\n      swap1\n      tag_29\n      jump\t// in\n    tag_28:\n      mload(0x40)\n      dup1\n      swap2\n      sub\n      swap1\n      return\n        /* \"Farm.sol\":32795:33475  function getStakedTokens(address _user) public view returns (StakedToken[] memory) {\r... */\n    tag_6:\n      tag_30\n      0x04\n      dup1\n      calldatasize\n      sub\n      dup2\n      add\n      swap1\n      tag_31\n      swap2\n      swap1\n      tag_32\n      jump\t// in\n    tag_31:\n      tag_33\n      jump\t// in\n    tag_30:\n      mload(0x40)\n      tag_34\n      swap2\n      swap1\n      tag_35\n      jump\t// in\n    tag_34:\n      mload(0x40)\n      dup1\n      swap2\n      sub\n      swap1\n      return\n        /* \"Farm.sol\":29310:29338  IERC721 public nftCollection */\n    tag_7:\n      tag_36\n      tag_37\n      jump\t// in\n    tag_36:\n      mload(0x40)\n      tag_38\n      swap2\n      swap1\n      tag_39\n      jump\t// in\n    tag_38:\n      mload(0x40)\n      dup1\n      swap2\n      sub\n      swap1\n      return\n        /* \"Farm.sol\":28059:28162  function renounceOwnership() public virtual onlyOwner {\r... */\n    tag_8:\n      tag_40\n      tag_41\n      jump\t// in\n    tag_40:\n      stop\n        /* \"Farm.sol\":27411:27498  function owner() public view virtual returns (address) {\r... */\n    tag_9:\n      tag_42\n      tag_43\n      jump\t// in\n    tag_42:\n      mload(0x40)\n      tag_44\n      swap2\n      swap1\n      tag_45\n      jump\t// in\n    tag_44:\n      mload(0x40)\n      dup1\n      swap2\n      sub\n      swap1\n      return\n        /* \"Farm.sol\":29492:29533  mapping(address => Staker) public stakers */\n    tag_10:\n      tag_46\n      0x04\n      dup1\n      calldatasize\n      sub\n      dup2\n      add\n      swap1\n      tag_47\n      swap2\n      swap1\n      tag_32\n      jump\t// in\n    tag_47:\n      tag_48\n      jump\t// in\n    tag_46:\n      mload(0x40)\n      tag_49\n      swap4\n      swap3\n      swap2\n      swap1\n      tag_50\n      jump\t// in\n    tag_49:\n      mload(0x40)\n      dup1\n      swap2\n      sub\n      swap1\n      return\n        /* \"Farm.sol\":29619:29667  mapping(uint256 => address) public stakerAddress */\n    tag_11:\n      tag_51\n      0x04\n      dup1\n      calldatasize\n      sub\n      dup2\n      add\n      swap1\n      tag_52\n      swap2\n      swap1\n      tag_22\n      jump\t// in\n    tag_52:\n      tag_53\n      jump\t// in\n    tag_51:\n      mload(0x40)\n      tag_54\n      swap2\n      swap1\n      tag_45\n      jump\t// in\n    tag_54:\n      mload(0x40)\n      dup1\n      swap2\n      sub\n      swap1\n      return\n        /* \"Farm.sol\":30897:31013  function stake(uint256 _tokenId) external nonReentrant whenNotPaused {\r... */\n    tag_12:\n      tag_55\n      0x04\n      dup1\n      calldatasize\n      sub\n      dup2\n      add\n      swap1\n      tag_56\n      swap2\n      swap1\n      tag_22\n      jump\t// in\n    tag_56:\n      tag_57\n      jump\t// in\n    tag_55:\n      stop\n        /* \"Farm.sol\":29277:29303  IERC20 public rewardsToken */\n    tag_13:\n      tag_58\n      tag_59\n      jump\t// in\n    tag_58:\n      mload(0x40)\n      tag_60\n      swap2\n      swap1\n      tag_61\n      jump\t// in\n    tag_60:\n      mload(0x40)\n      dup1\n      swap2\n      sub\n      swap1\n      return\n        /* \"Farm.sol\":28317:28518  function transferOwnership(address newOwner) public virtual onlyOwner {\r... */\n    tag_14:\n      tag_62\n      0x04\n      dup1\n      calldatasize\n      sub\n      dup2\n      add\n      swap1\n      tag_63\n      swap2\n      swap1\n      tag_32\n      jump\t// in\n    tag_63:\n      tag_64\n      jump\t// in\n    tag_62:\n      stop\n        /* \"Farm.sol\":33483:33692  function availableRewards(address _staker) public view returns (uint256) {\r... */\n    tag_15:\n      tag_65\n      0x04\n      dup1\n      calldatasize\n      sub\n      dup2\n      add\n      swap1\n      tag_66\n      swap2\n      swap1\n      tag_32\n      jump\t// in\n    tag_66:\n      tag_67\n      jump\t// in\n    tag_65:\n      mload(0x40)\n      tag_68\n      swap2\n      swap1\n      tag_69\n      jump\t// in\n    tag_68:\n      mload(0x40)\n      dup1\n      swap2\n      sub\n      swap1\n      return\n        /* \"Farm.sol\":30694:30889  function adminWithdrawRewards() external onlyOwner whenPaused {\r... */\n    tag_16:\n      tag_70\n      tag_71\n      jump\t// in\n    tag_70:\n      stop\n        /* \"Farm.sol\":31021:32085  function withdraw(uint256 _tokenId) external nonReentrant {\r... */\n    tag_23:\n        /* \"Farm.sol\":18356:18377  _nonReentrantBefore() */\n      tag_73\n        /* \"Farm.sol\":18356:18375  _nonReentrantBefore */\n      tag_74\n        /* \"Farm.sol\":18356:18377  _nonReentrantBefore() */\n      jump\t// in\n    tag_73:\n        /* \"Farm.sol\":31147:31148  0 */\n      0x00\n        /* \"Farm.sol\":31112:31119  stakers */\n      0x06\n        /* \"Farm.sol\":31112:31131  stakers[msg.sender] */\n      0x00\n        /* \"Farm.sol\":31120:31130  msg.sender */\n      caller\n        /* \"Farm.sol\":31112:31131  stakers[msg.sender] */\n      0xffffffffffffffffffffffffffffffffffffffff\n      and\n      0xffffffffffffffffffffffffffffffffffffffff\n      and\n      dup2\n      mstore\n      0x20\n      add\n      swap1\n      dup2\n      mstore\n      0x20\n      add\n      0x00\n      keccak256\n        /* \"Farm.sol\":31112:31144  stakers[msg.sender].amountStaked */\n      0x00\n      add\n      sload\n        /* \"Farm.sol\":31112:31148  stakers[msg.sender].amountStaked > 0 */\n      gt\n        /* \"Farm.sol\":31090:31201  require(\r... */\n      tag_76\n      jumpi\n      mload(0x40)\n      0x08c379a000000000000000000000000000000000000000000000000000000000\n      dup2\n      mstore\n      0x04\n      add\n      tag_77\n      swap1\n      tag_78\n      jump\t// in\n    tag_77:\n      mload(0x40)\n      dup1\n      swap2\n      sub\n      swap1\n      revert\n    tag_76:\n        /* \"Farm.sol\":31247:31257  msg.sender */\n      caller\n        /* \"Farm.sol\":31220:31257  stakerAddress[_tokenId] == msg.sender */\n      0xffffffffffffffffffffffffffffffffffffffff\n      and\n        /* \"Farm.sol\":31220:31233  stakerAddress */\n      0x07\n        /* \"Farm.sol\":31220:31243  stakerAddress[_tokenId] */\n      0x00\n        /* \"Farm.sol\":31234:31242  _tokenId */\n      dup4\n        /* \"Farm.sol\":31220:31243  stakerAddress[_tokenId] */\n      dup2\n      mstore\n      0x20\n      add\n      swap1\n      dup2\n      mstore\n      0x20\n      add\n      0x00\n      keccak256\n      0x00\n      swap1\n      sload\n      swap1\n      0x0100\n      exp\n      swap1\n      div\n      0xffffffffffffffffffffffffffffffffffffffff\n      and\n        /* \"Farm.sol\":31220:31257  stakerAddress[_tokenId] == msg.sender */\n      0xffffffffffffffffffffffffffffffffffffffff\n      and\n      eq\n        /* \"Farm.sol\":31212:31287  require(stakerAddress[_tokenId] == msg.sender, \"You don't own this token!\") */\n      tag_79\n      jumpi\n      mload(0x40)\n      0x08c379a000000000000000000000000000000000000000000000000000000000\n      dup2\n      mstore\n      0x04\n      add\n      tag_80\n      swap1\n      tag_81\n      jump\t// in\n    tag_80:\n      mload(0x40)\n      dup1\n      swap2\n      sub\n      swap1\n      revert\n    tag_79:\n        /* \"Farm.sol\":31399:31414  uint256 rewards */\n      0x00\n        /* \"Farm.sol\":31417:31445  calculateRewards(msg.sender) */\n      tag_82\n        /* \"Farm.sol\":31434:31444  msg.sender */\n      caller\n        /* \"Farm.sol\":31417:31433  calculateRewards */\n      tag_83\n        /* \"Farm.sol\":31417:31445  calculateRewards(msg.sender) */\n      jump\t// in\n    tag_82:\n        /* \"Farm.sol\":31399:31445  uint256 rewards = calculateRewards(msg.sender) */\n      swap1\n      pop\n        /* \"Farm.sol\":31496:31503  rewards */\n      dup1\n        /* \"Farm.sol\":31456:31463  stakers */\n      0x06\n        /* \"Farm.sol\":31456:31475  stakers[msg.sender] */\n      0x00\n        /* \"Farm.sol\":31464:31474  msg.sender */\n      caller\n        /* \"Farm.sol\":31456:31475  stakers[msg.sender] */\n      0xffffffffffffffffffffffffffffffffffffffff\n      and\n      0xffffffffffffffffffffffffffffffffffffffff\n      and\n      dup2\n      mstore\n      0x20\n      add\n      swap1\n      dup2\n      mstore\n      0x20\n      add\n      0x00\n      keccak256\n        /* \"Farm.sol\":31456:31492  stakers[msg.sender].unclaimedRewards */\n      0x03\n      add\n      0x00\n        /* \"Farm.sol\":31456:31503  stakers[msg.sender].unclaimedRewards += rewards */\n      dup3\n      dup3\n      sload\n      tag_84\n      swap2\n      swap1\n      tag_85\n      jump\t// in\n    tag_84:\n      swap3\n      pop\n      pop\n      dup2\n      swap1\n      sstore\n      pop\n        /* \"Farm.sol\":31518:31531  uint256 index */\n      0x00\n        /* \"Farm.sol\":31551:31560  uint256 i */\n      dup1\n        /* \"Farm.sol\":31546:31771  for (uint256 i = 0; i < stakers[msg.sender].stakedTokens.length; i++) {\r... */\n    tag_86:\n        /* \"Farm.sol\":31570:31577  stakers */\n      0x06\n        /* \"Farm.sol\":31570:31589  stakers[msg.sender] */\n      0x00\n        /* \"Farm.sol\":31578:31588  msg.sender */\n      caller\n        /* \"Farm.sol\":31570:31589  stakers[msg.sender] */\n      0xffffffffffffffffffffffffffffffffffffffff\n      and\n      0xffffffffffffffffffffffffffffffffffffffff\n      and\n      dup2\n      mstore\n      0x20\n      add\n      swap1\n      dup2\n      mstore\n      0x20\n      add\n      0x00\n      keccak256\n        /* \"Farm.sol\":31570:31602  stakers[msg.sender].stakedTokens */\n      0x01\n      add\n        /* \"Farm.sol\":31570:31609  stakers[msg.sender].stakedTokens.length */\n      dup1\n      sload\n      swap1\n      pop\n        /* \"Farm.sol\":31566:31567  i */\n      dup2\n        /* \"Farm.sol\":31566:31609  i < stakers[msg.sender].stakedTokens.length */\n      lt\n        /* \"Farm.sol\":31546:31771  for (uint256 i = 0; i < stakers[msg.sender].stakedTokens.length; i++) {\r... */\n      iszero\n      tag_87\n      jumpi\n        /* \"Farm.sol\":31682:31690  _tokenId */\n      dup4\n        /* \"Farm.sol\":31635:31642  stakers */\n      0x06\n        /* \"Farm.sol\":31635:31654  stakers[msg.sender] */\n      0x00\n        /* \"Farm.sol\":31643:31653  msg.sender */\n      caller\n        /* \"Farm.sol\":31635:31654  stakers[msg.sender] */\n      0xffffffffffffffffffffffffffffffffffffffff\n      and\n      0xffffffffffffffffffffffffffffffffffffffff\n      and\n      dup2\n      mstore\n      0x20\n      add\n      swap1\n      dup2\n      mstore\n      0x20\n      add\n      0x00\n      keccak256\n        /* \"Farm.sol\":31635:31667  stakers[msg.sender].stakedTokens */\n      0x01\n      add\n        /* \"Farm.sol\":31668:31669  i */\n      dup3\n        /* \"Farm.sol\":31635:31670  stakers[msg.sender].stakedTokens[i] */\n      dup2\n      sload\n      dup2\n      lt\n      tag_89\n      jumpi\n      mstore(0x00, 0x4e487b7100000000000000000000000000000000000000000000000000000000)\n      mstore(0x04, 0x32)\n      revert(0x00, 0x24)\n    tag_89:\n      swap1\n      0x00\n      mstore\n      keccak256(0x00, 0x20)\n      swap1\n      0x02\n      mul\n      add\n        /* \"Farm.sol\":31635:31678  stakers[msg.sender].stakedTokens[i].tokenId */\n      0x01\n      add\n      sload\n        /* \"Farm.sol\":31635:31690  stakers[msg.sender].stakedTokens[i].tokenId == _tokenId */\n      eq\n        /* \"Farm.sol\":31631:31760  if (stakers[msg.sender].stakedTokens[i].tokenId == _tokenId) {\r... */\n      iszero\n      tag_91\n      jumpi\n        /* \"Farm.sol\":31719:31720  i */\n      dup1\n        /* \"Farm.sol\":31711:31720  index = i */\n      swap2\n      pop\n        /* \"Farm.sol\":31739:31744  break */\n      jump(tag_87)\n        /* \"Farm.sol\":31631:31760  if (stakers[msg.sender].stakedTokens[i].tokenId == _tokenId) {\r... */\n    tag_91:\n        /* \"Farm.sol\":31611:31614  i++ */\n      dup1\n      dup1\n      tag_92\n      swap1\n      tag_93\n      jump\t// in\n    tag_92:\n      swap2\n      pop\n      pop\n        /* \"Farm.sol\":31546:31771  for (uint256 i = 0; i < stakers[msg.sender].stakedTokens.length; i++) {\r... */\n      jump(tag_86)\n    tag_87:\n      pop\n        /* \"Farm.sol\":31842:31843  0 */\n      0x00\n        /* \"Farm.sol\":31785:31792  stakers */\n      0x06\n        /* \"Farm.sol\":31785:31804  stakers[msg.sender] */\n      0x00\n        /* \"Farm.sol\":31793:31803  msg.sender */\n      caller\n        /* \"Farm.sol\":31785:31804  stakers[msg.sender] */\n      0xffffffffffffffffffffffffffffffffffffffff\n      and\n      0xffffffffffffffffffffffffffffffffffffffff\n      and\n      dup2\n      mstore\n      0x20\n      add\n      swap1\n      dup2\n      mstore\n      0x20\n      add\n      0x00\n      keccak256\n        /* \"Farm.sol\":31785:31817  stakers[msg.sender].stakedTokens */\n      0x01\n      add\n        /* \"Farm.sol\":31818:31823  index */\n      dup3\n        /* \"Farm.sol\":31785:31824  stakers[msg.sender].stakedTokens[index] */\n      dup2\n      sload\n      dup2\n      lt\n      tag_94\n      jumpi\n      mstore(0x00, 0x4e487b7100000000000000000000000000000000000000000000000000000000)\n      mstore(0x04, 0x32)\n      revert(0x00, 0x24)\n    tag_94:\n      swap1\n      0x00\n      mstore\n      keccak256(0x00, 0x20)\n      swap1\n      0x02\n      mul\n      add\n        /* \"Farm.sol\":31785:31831  stakers[msg.sender].stakedTokens[index].staker */\n      0x00\n      add\n      0x00\n        /* \"Farm.sol\":31785:31844  stakers[msg.sender].stakedTokens[index].staker = address(0) */\n      0x0100\n      exp\n      dup2\n      sload\n      dup2\n      0xffffffffffffffffffffffffffffffffffffffff\n      mul\n      not\n      and\n      swap1\n      dup4\n      0xffffffffffffffffffffffffffffffffffffffff\n      and\n      mul\n      or\n      swap1\n      sstore\n      pop\n        /* \"Farm.sol\":31855:31862  stakers */\n      0x06\n        /* \"Farm.sol\":31855:31874  stakers[msg.sender] */\n      0x00\n        /* \"Farm.sol\":31863:31873  msg.sender */\n      caller\n        /* \"Farm.sol\":31855:31874  stakers[msg.sender] */\n      0xffffffffffffffffffffffffffffffffffffffff\n      and\n      0xffffffffffffffffffffffffffffffffffffffff\n      and\n      dup2\n      mstore\n      0x20\n      add\n      swap1\n      dup2\n      mstore\n      0x20\n      add\n      0x00\n      keccak256\n        /* \"Farm.sol\":31855:31887  stakers[msg.sender].amountStaked */\n      0x00\n      add\n      0x00\n        /* \"Farm.sol\":31855:31889  stakers[msg.sender].amountStaked-- */\n      dup2\n      sload\n      dup1\n      swap3\n      swap2\n      swap1\n      tag_96\n      swap1\n      tag_97\n      jump\t// in\n    tag_96:\n      swap2\n      swap1\n      pop\n      sstore\n      pop\n        /* \"Farm.sol\":31934:31935  0 */\n      0x00\n        /* \"Farm.sol\":31900:31913  stakerAddress */\n      0x07\n        /* \"Farm.sol\":31900:31923  stakerAddress[_tokenId] */\n      0x00\n        /* \"Farm.sol\":31914:31922  _tokenId */\n      dup6\n        /* \"Farm.sol\":31900:31923  stakerAddress[_tokenId] */\n      dup2\n      mstore\n      0x20\n      add\n      swap1\n      dup2\n      mstore\n      0x20\n      add\n      0x00\n      keccak256\n      0x00\n        /* \"Farm.sol\":31900:31936  stakerAddress[_tokenId] = address(0) */\n      0x0100\n      exp\n      dup2\n      sload\n      dup2\n      0xffffffffffffffffffffffffffffffffffffffff\n      mul\n      not\n      and\n      swap1\n      dup4\n      0xffffffffffffffffffffffffffffffffffffffff\n      and\n      mul\n      or\n      swap1\n      sstore\n      pop\n        /* \"Farm.sol\":31949:31962  nftCollection */\n      0x03\n      0x00\n      swap1\n      sload\n      swap1\n      0x0100\n      exp\n      swap1\n      div\n      0xffffffffffffffffffffffffffffffffffffffff\n      and\n        /* \"Farm.sol\":31949:31975  nftCollection.transferFrom */\n      0xffffffffffffffffffffffffffffffffffffffff\n      and\n      0x23b872dd\n        /* \"Farm.sol\":31984:31988  this */\n      address\n        /* \"Farm.sol\":31991:32001  msg.sender */\n      caller\n        /* \"Farm.sol\":32003:32011  _tokenId */\n      dup7\n        /* \"Farm.sol\":31949:32012  nftCollection.transferFrom(address(this), msg.sender, _tokenId) */\n      mload(0x40)\n      dup5\n      0xffffffff\n      and\n      0xe0\n      shl\n      dup2\n      mstore\n      0x04\n      add\n      tag_98\n      swap4\n      swap3\n      swap2\n      swap1\n      tag_99\n      jump\t// in\n    tag_98:\n      0x00\n      mload(0x40)\n      dup1\n      dup4\n      sub\n      dup2\n      0x00\n      dup8\n      dup1\n      extcodesize\n      iszero\n      dup1\n      iszero\n      tag_100\n      jumpi\n      0x00\n      dup1\n      revert\n    tag_100:\n      pop\n      gas\n      call\n      iszero\n      dup1\n      iszero\n      tag_102\n      jumpi\n      returndatasize\n      0x00\n      dup1\n      returndatacopy\n      revert(0x00, returndatasize)\n    tag_102:\n      pop\n      pop\n      pop\n      pop\n        /* \"Farm.sol\":32062:32077  block.timestamp */\n      timestamp\n        /* \"Farm.sol\":32023:32030  stakers */\n      0x06\n        /* \"Farm.sol\":32023:32042  stakers[msg.sender] */\n      0x00\n        /* \"Farm.sol\":32031:32041  msg.sender */\n      caller\n        /* \"Farm.sol\":32023:32042  stakers[msg.sender] */\n      0xffffffffffffffffffffffffffffffffffffffff\n      and\n      0xffffffffffffffffffffffffffffffffffffffff\n      and\n      dup2\n      mstore\n      0x20\n      add\n      swap1\n      dup2\n      mstore\n      0x20\n      add\n      0x00\n      keccak256\n        /* \"Farm.sol\":32023:32059  stakers[msg.sender].timeOfLastUpdate */\n      0x02\n      add\n        /* \"Farm.sol\":32023:32077  stakers[msg.sender].timeOfLastUpdate = block.timestamp */\n      dup2\n      swap1\n      sstore\n      pop\n        /* \"Farm.sol\":18388:18389  _ */\n      pop\n      pop\n        /* \"Farm.sol\":18400:18420  _nonReentrantAfter() */\n      tag_103\n        /* \"Farm.sol\":18400:18418  _nonReentrantAfter */\n      tag_104\n        /* \"Farm.sol\":18400:18420  _nonReentrantAfter() */\n      jump\t// in\n    tag_103:\n        /* \"Farm.sol\":31021:32085  function withdraw(uint256 _tokenId) external nonReentrant {\r... */\n      pop\n      jump\t// out\n        /* \"Farm.sol\":32401:32787  function claimRewards() external {\r... */\n    tag_25:\n        /* \"Farm.sol\":32445:32460  uint256 rewards */\n      0x00\n        /* \"Farm.sol\":32507:32514  stakers */\n      0x06\n        /* \"Farm.sol\":32507:32526  stakers[msg.sender] */\n      0x00\n        /* \"Farm.sol\":32515:32525  msg.sender */\n      caller\n        /* \"Farm.sol\":32507:32526  stakers[msg.sender] */\n      0xffffffffffffffffffffffffffffffffffffffff\n      and\n      0xffffffffffffffffffffffffffffffffffffffff\n      and\n      dup2\n      mstore\n      0x20\n      add\n      swap1\n      dup2\n      mstore\n      0x20\n      add\n      0x00\n      keccak256\n        /* \"Farm.sol\":32507:32543  stakers[msg.sender].unclaimedRewards */\n      0x03\n      add\n      sload\n        /* \"Farm.sol\":32463:32491  calculateRewards(msg.sender) */\n      tag_106\n        /* \"Farm.sol\":32480:32490  msg.sender */\n      caller\n        /* \"Farm.sol\":32463:32479  calculateRewards */\n      tag_83\n        /* \"Farm.sol\":32463:32491  calculateRewards(msg.sender) */\n      jump\t// in\n    tag_106:\n        /* \"Farm.sol\":32463:32543  calculateRewards(msg.sender) +\r... */\n      tag_107\n      swap2\n      swap1\n      tag_85\n      jump\t// in\n    tag_107:\n        /* \"Farm.sol\":32445:32543  uint256 rewards = calculateRewards(msg.sender) +\r... */\n      swap1\n      pop\n        /* \"Farm.sol\":32572:32573  0 */\n      0x00\n        /* \"Farm.sol\":32562:32569  rewards */\n      dup2\n        /* \"Farm.sol\":32562:32573  rewards > 0 */\n      gt\n        /* \"Farm.sol\":32554:32606  require(rewards > 0, \"You have no rewards to claim\") */\n      tag_108\n      jumpi\n      mload(0x40)\n      0x08c379a000000000000000000000000000000000000000000000000000000000\n      dup2\n      mstore\n      0x04\n      add\n      tag_109\n      swap1\n      tag_110\n      jump\t// in\n    tag_109:\n      mload(0x40)\n      dup1\n      swap2\n      sub\n      swap1\n      revert\n    tag_108:\n        /* \"Farm.sol\":32656:32671  block.timestamp */\n      timestamp\n        /* \"Farm.sol\":32617:32624  stakers */\n      0x06\n        /* \"Farm.sol\":32617:32636  stakers[msg.sender] */\n      0x00\n        /* \"Farm.sol\":32625:32635  msg.sender */\n      caller\n        /* \"Farm.sol\":32617:32636  stakers[msg.sender] */\n      0xffffffffffffffffffffffffffffffffffffffff\n      and\n      0xffffffffffffffffffffffffffffffffffffffff\n      and\n      dup2\n      mstore\n      0x20\n      add\n      swap1\n      dup2\n      mstore\n      0x20\n      add\n      0x00\n      keccak256\n        /* \"Farm.sol\":32617:32653  stakers[msg.sender].timeOfLastUpdate */\n      0x02\n      add\n        /* \"Farm.sol\":32617:32671  stakers[msg.sender].timeOfLastUpdate = block.timestamp */\n      dup2\n      swap1\n      sstore\n      pop\n        /* \"Farm.sol\":32721:32722  0 */\n      0x00\n        /* \"Farm.sol\":32682:32689  stakers */\n      0x06\n        /* \"Farm.sol\":32682:32701  stakers[msg.sender] */\n      0x00\n        /* \"Farm.sol\":32690:32700  msg.sender */\n      caller\n        /* \"Farm.sol\":32682:32701  stakers[msg.sender] */\n      0xffffffffffffffffffffffffffffffffffffffff\n      and\n      0xffffffffffffffffffffffffffffffffffffffff\n      and\n      dup2\n      mstore\n      0x20\n      add\n      swap1\n      dup2\n      mstore\n      0x20\n      add\n      0x00\n      keccak256\n        /* \"Farm.sol\":32682:32718  stakers[msg.sender].unclaimedRewards */\n      0x03\n      add\n        /* \"Farm.sol\":32682:32722  stakers[msg.sender].unclaimedRewards = 0 */\n      dup2\n      swap1\n      sstore\n      pop\n        /* \"Farm.sol\":32733:32779  rewardsToken.safeTransfer(msg.sender, rewards) */\n      tag_111\n        /* \"Farm.sol\":32759:32769  msg.sender */\n      caller\n        /* \"Farm.sol\":32771:32778  rewards */\n      dup3\n        /* \"Farm.sol\":32733:32745  rewardsToken */\n      0x02\n      0x00\n      swap1\n      sload\n      swap1\n      0x0100\n      exp\n      swap1\n      div\n      0xffffffffffffffffffffffffffffffffffffffff\n      and\n        /* \"Farm.sol\":32733:32758  rewardsToken.safeTransfer */\n      0xffffffffffffffffffffffffffffffffffffffff\n      and\n      tag_112\n      swap1\n        /* \"Farm.sol\":32733:32779  rewardsToken.safeTransfer(msg.sender, rewards) */\n      swap3\n      swap2\n      swap1\n      0xffffffff\n      and\n      jump\t// in\n    tag_111:\n        /* \"Farm.sol\":32401:32787  function claimRewards() external {\r... */\n      pop\n      jump\t// out\n        /* \"Farm.sol\":15972:16058  function paused() public view virtual returns (bool) {\r... */\n    tag_27:\n        /* \"Farm.sol\":16019:16023  bool */\n      0x00\n        /* \"Farm.sol\":16043:16050  _paused */\n      0x01\n      0x00\n      swap1\n      sload\n      swap1\n      0x0100\n      exp\n      swap1\n      div\n      0xff\n      and\n        /* \"Farm.sol\":16036:16050  return _paused */\n      swap1\n      pop\n        /* \"Farm.sol\":15972:16058  function paused() public view virtual returns (bool) {\r... */\n      swap1\n      jump\t// out\n        /* \"Farm.sol\":32795:33475  function getStakedTokens(address _user) public view returns (StakedToken[] memory) {\r... */\n    tag_33:\n        /* \"Farm.sol\":32856:32876  StakedToken[] memory */\n      0x60\n        /* \"Farm.sol\":32923:32924  0 */\n      0x00\n        /* \"Farm.sol\":32893:32900  stakers */\n      0x06\n        /* \"Farm.sol\":32893:32907  stakers[_user] */\n      0x00\n        /* \"Farm.sol\":32901:32906  _user */\n      dup5\n        /* \"Farm.sol\":32893:32907  stakers[_user] */\n      0xffffffffffffffffffffffffffffffffffffffff\n      and\n      0xffffffffffffffffffffffffffffffffffffffff\n      and\n      dup2\n      mstore\n      0x20\n      add\n      swap1\n      dup2\n      mstore\n      0x20\n      add\n      0x00\n      keccak256\n        /* \"Farm.sol\":32893:32920  stakers[_user].amountStaked */\n      0x00\n      add\n      sload\n        /* \"Farm.sol\":32893:32924  stakers[_user].amountStaked > 0 */\n      gt\n        /* \"Farm.sol\":32889:33468  if (stakers[_user].amountStaked > 0) {\r... */\n      iszero\n      tag_115\n      jumpi\n        /* \"Farm.sol\":32941:32975  StakedToken[] memory _stakedTokens */\n      0x00\n        /* \"Farm.sol\":32996:33003  stakers */\n      0x06\n        /* \"Farm.sol\":32996:33010  stakers[_user] */\n      0x00\n        /* \"Farm.sol\":33004:33009  _user */\n      dup5\n        /* \"Farm.sol\":32996:33010  stakers[_user] */\n      0xffffffffffffffffffffffffffffffffffffffff\n      and\n      0xffffffffffffffffffffffffffffffffffffffff\n      and\n      dup2\n      mstore\n      0x20\n      add\n      swap1\n      dup2\n      mstore\n      0x20\n      add\n      0x00\n      keccak256\n        /* \"Farm.sol\":32996:33023  stakers[_user].amountStaked */\n      0x00\n      add\n      sload\n        /* \"Farm.sol\":32978:33024  new StakedToken[](stakers[_user].amountStaked) */\n      0xffffffffffffffff\n      dup2\n      gt\n      iszero\n      tag_116\n      jumpi\n      mstore(0x00, 0x4e487b7100000000000000000000000000000000000000000000000000000000)\n      mstore(0x04, 0x41)\n      revert(0x00, 0x24)\n    tag_116:\n      mload(0x40)\n      swap1\n      dup1\n      dup3\n      mstore\n      dup1\n      0x20\n      mul\n      0x20\n      add\n      dup3\n      add\n      0x40\n      mstore\n      dup1\n      iszero\n      tag_117\n      jumpi\n      dup2\n      0x20\n      add\n    tag_118:\n      tag_119\n      tag_120\n      jump\t// in\n    tag_119:\n      dup2\n      mstore\n      0x20\n      add\n      swap1\n      0x01\n      swap1\n      sub\n      swap1\n      dup2\n      tag_118\n      jumpi\n      swap1\n      pop\n    tag_117:\n      pop\n        /* \"Farm.sol\":32941:33024  StakedToken[] memory _stakedTokens = new StakedToken[](stakers[_user].amountStaked) */\n      swap1\n      pop\n        /* \"Farm.sol\":33039:33053  uint256 _index */\n      0x00\n        /* \"Farm.sol\":33079:33088  uint256 j */\n      dup1\n        /* \"Farm.sol\":33074:33360  for (uint256 j = 0; j < stakers[_user].stakedTokens.length; j++) {\r... */\n    tag_121:\n        /* \"Farm.sol\":33098:33105  stakers */\n      0x06\n        /* \"Farm.sol\":33098:33112  stakers[_user] */\n      0x00\n        /* \"Farm.sol\":33106:33111  _user */\n      dup7\n        /* \"Farm.sol\":33098:33112  stakers[_user] */\n      0xffffffffffffffffffffffffffffffffffffffff\n      and\n      0xffffffffffffffffffffffffffffffffffffffff\n      and\n      dup2\n      mstore\n      0x20\n      add\n      swap1\n      dup2\n      mstore\n      0x20\n      add\n      0x00\n      keccak256\n        /* \"Farm.sol\":33098:33125  stakers[_user].stakedTokens */\n      0x01\n      add\n        /* \"Farm.sol\":33098:33132  stakers[_user].stakedTokens.length */\n      dup1\n      sload\n      swap1\n      pop\n        /* \"Farm.sol\":33094:33095  j */\n      dup2\n        /* \"Farm.sol\":33094:33132  j < stakers[_user].stakedTokens.length */\n      lt\n        /* \"Farm.sol\":33074:33360  for (uint256 j = 0; j < stakers[_user].stakedTokens.length; j++) {\r... */\n      iszero\n      tag_122\n      jumpi\n        /* \"Farm.sol\":33212:33213  0 */\n      0x00\n        /* \"Farm.sol\":33162:33215  stakers[_user].stakedTokens[j].staker != (address(0)) */\n      0xffffffffffffffffffffffffffffffffffffffff\n      and\n        /* \"Farm.sol\":33162:33169  stakers */\n      0x06\n        /* \"Farm.sol\":33162:33176  stakers[_user] */\n      0x00\n        /* \"Farm.sol\":33170:33175  _user */\n      dup8\n        /* \"Farm.sol\":33162:33176  stakers[_user] */\n      0xffffffffffffffffffffffffffffffffffffffff\n      and\n      0xffffffffffffffffffffffffffffffffffffffff\n      and\n      dup2\n      mstore\n      0x20\n      add\n      swap1\n      dup2\n      mstore\n      0x20\n      add\n      0x00\n      keccak256\n        /* \"Farm.sol\":33162:33189  stakers[_user].stakedTokens */\n      0x01\n      add\n        /* \"Farm.sol\":33190:33191  j */\n      dup3\n        /* \"Farm.sol\":33162:33192  stakers[_user].stakedTokens[j] */\n      dup2\n      sload\n      dup2\n      lt\n      tag_124\n      jumpi\n      mstore(0x00, 0x4e487b7100000000000000000000000000000000000000000000000000000000)\n      mstore(0x04, 0x32)\n      revert(0x00, 0x24)\n    tag_124:\n      swap1\n      0x00\n      mstore\n      keccak256(0x00, 0x20)\n      swap1\n      0x02\n      mul\n      add\n        /* \"Farm.sol\":33162:33199  stakers[_user].stakedTokens[j].staker */\n      0x00\n      add\n      0x00\n      swap1\n      sload\n      swap1\n      0x0100\n      exp\n      swap1\n      div\n      0xffffffffffffffffffffffffffffffffffffffff\n      and\n        /* \"Farm.sol\":33162:33215  stakers[_user].stakedTokens[j].staker != (address(0)) */\n      0xffffffffffffffffffffffffffffffffffffffff\n      and\n      eq\n        /* \"Farm.sol\":33158:33345  if (stakers[_user].stakedTokens[j].staker != (address(0))) {\r... */\n      tag_126\n      jumpi\n        /* \"Farm.sol\":33264:33271  stakers */\n      0x06\n        /* \"Farm.sol\":33264:33278  stakers[_user] */\n      0x00\n        /* \"Farm.sol\":33272:33277  _user */\n      dup7\n        /* \"Farm.sol\":33264:33278  stakers[_user] */\n      0xffffffffffffffffffffffffffffffffffffffff\n      and\n      0xffffffffffffffffffffffffffffffffffffffff\n      and\n      dup2\n      mstore\n      0x20\n      add\n      swap1\n      dup2\n      mstore\n      0x20\n      add\n      0x00\n      keccak256\n        /* \"Farm.sol\":33264:33291  stakers[_user].stakedTokens */\n      0x01\n      add\n        /* \"Farm.sol\":33292:33293  j */\n      dup2\n        /* \"Farm.sol\":33264:33294  stakers[_user].stakedTokens[j] */\n      dup2\n      sload\n      dup2\n      lt\n      tag_127\n      jumpi\n      mstore(0x00, 0x4e487b7100000000000000000000000000000000000000000000000000000000)\n      mstore(0x04, 0x32)\n      revert(0x00, 0x24)\n    tag_127:\n      swap1\n      0x00\n      mstore\n      keccak256(0x00, 0x20)\n      swap1\n      0x02\n      mul\n      add\n        /* \"Farm.sol\":33240:33294  _stakedTokens[_index] = stakers[_user].stakedTokens[j] */\n      mload(0x40)\n      dup1\n      0x40\n      add\n      0x40\n      mstore\n      swap1\n      dup2\n      0x00\n      dup3\n      add\n      0x00\n      swap1\n      sload\n      swap1\n      0x0100\n      exp\n      swap1\n      div\n      0xffffffffffffffffffffffffffffffffffffffff\n      and\n      0xffffffffffffffffffffffffffffffffffffffff\n      and\n      0xffffffffffffffffffffffffffffffffffffffff\n      and\n      dup2\n      mstore\n      0x20\n      add\n      0x01\n      dup3\n      add\n      sload\n      dup2\n      mstore\n      pop\n      pop\n        /* \"Farm.sol\":33240:33253  _stakedTokens */\n      dup4\n        /* \"Farm.sol\":33254:33260  _index */\n      dup4\n        /* \"Farm.sol\":33240:33261  _stakedTokens[_index] */\n      dup2\n      mload\n      dup2\n      lt\n      tag_129\n      jumpi\n      mstore(0x00, 0x4e487b7100000000000000000000000000000000000000000000000000000000)\n      mstore(0x04, 0x32)\n      revert(0x00, 0x24)\n    tag_129:\n      0x20\n      mul\n      0x20\n      add\n      add\n        /* \"Farm.sol\":33240:33294  _stakedTokens[_index] = stakers[_user].stakedTokens[j] */\n      dup2\n      swap1\n      mstore\n      pop\n        /* \"Farm.sol\":33317:33325  _index++ */\n      dup2\n      dup1\n      tag_130\n      swap1\n      tag_93\n      jump\t// in\n    tag_130:\n      swap3\n      pop\n      pop\n        /* \"Farm.sol\":33158:33345  if (stakers[_user].stakedTokens[j].staker != (address(0))) {\r... */\n    tag_126:\n        /* \"Farm.sol\":33134:33137  j++ */\n      dup1\n      dup1\n      tag_131\n      swap1\n      tag_93\n      jump\t// in\n    tag_131:\n      swap2\n      pop\n      pop\n        /* \"Farm.sol\":33074:33360  for (uint256 j = 0; j < stakers[_user].stakedTokens.length; j++) {\r... */\n      jump(tag_121)\n    tag_122:\n      pop\n        /* \"Farm.sol\":33383:33396  _stakedTokens */\n      dup2\n        /* \"Farm.sol\":33376:33396  return _stakedTokens */\n      swap3\n      pop\n      pop\n      pop\n      jump(tag_114)\n        /* \"Farm.sol\":32889:33468  if (stakers[_user].amountStaked > 0) {\r... */\n    tag_115:\n        /* \"Farm.sol\":33454:33455  0 */\n      0x00\n        /* \"Farm.sol\":33436:33456  new StakedToken[](0) */\n      0xffffffffffffffff\n      dup2\n      gt\n      iszero\n      tag_133\n      jumpi\n      mstore(0x00, 0x4e487b7100000000000000000000000000000000000000000000000000000000)\n      mstore(0x04, 0x41)\n      revert(0x00, 0x24)\n    tag_133:\n      mload(0x40)\n      swap1\n      dup1\n      dup3\n      mstore\n      dup1\n      0x20\n      mul\n      0x20\n      add\n      dup3\n      add\n      0x40\n      mstore\n      dup1\n      iszero\n      tag_134\n      jumpi\n      dup2\n      0x20\n      add\n    tag_135:\n      tag_136\n      tag_120\n      jump\t// in\n    tag_136:\n      dup2\n      mstore\n      0x20\n      add\n      swap1\n      0x01\n      swap1\n      sub\n      swap1\n      dup2\n      tag_135\n      jumpi\n      swap1\n      pop\n    tag_134:\n      pop\n        /* \"Farm.sol\":33429:33456  return new StakedToken[](0) */\n      swap1\n      pop\n        /* \"Farm.sol\":32795:33475  function getStakedTokens(address _user) public view returns (StakedToken[] memory) {\r... */\n    tag_114:\n      swap2\n      swap1\n      pop\n      jump\t// out\n        /* \"Farm.sol\":29310:29338  IERC721 public nftCollection */\n    tag_37:\n      0x03\n      0x00\n      swap1\n      sload\n      swap1\n      0x0100\n      exp\n      swap1\n      div\n      0xffffffffffffffffffffffffffffffffffffffff\n      and\n      dup2\n      jump\t// out\n        /* \"Farm.sol\":28059:28162  function renounceOwnership() public virtual onlyOwner {\r... */\n    tag_41:\n        /* \"Farm.sol\":27297:27310  _checkOwner() */\n      tag_138\n        /* \"Farm.sol\":27297:27308  _checkOwner */\n      tag_139\n        /* \"Farm.sol\":27297:27310  _checkOwner() */\n      jump\t// in\n    tag_138:\n        /* \"Farm.sol\":28124:28154  _transferOwnership(address(0)) */\n      tag_141\n        /* \"Farm.sol\":28151:28152  0 */\n      0x00\n        /* \"Farm.sol\":28124:28142  _transferOwnership */\n      tag_142\n        /* \"Farm.sol\":28124:28154  _transferOwnership(address(0)) */\n      jump\t// in\n    tag_141:\n        /* \"Farm.sol\":28059:28162  function renounceOwnership() public virtual onlyOwner {\r... */\n      jump\t// out\n        /* \"Farm.sol\":27411:27498  function owner() public view virtual returns (address) {\r... */\n    tag_43:\n        /* \"Farm.sol\":27457:27464  address */\n      0x00\n        /* \"Farm.sol\":27484:27490  _owner */\n      0x01\n      dup1\n      sload\n      swap1\n      0x0100\n      exp\n      swap1\n      div\n      0xffffffffffffffffffffffffffffffffffffffff\n      and\n        /* \"Farm.sol\":27477:27490  return _owner */\n      swap1\n      pop\n        /* \"Farm.sol\":27411:27498  function owner() public view virtual returns (address) {\r... */\n      swap1\n      jump\t// out\n        /* \"Farm.sol\":29492:29533  mapping(address => Staker) public stakers */\n    tag_48:\n      mstore(0x20, 0x06)\n      dup1\n      0x00\n      mstore\n      keccak256(0x00, 0x40)\n      0x00\n      swap2\n      pop\n      swap1\n      pop\n      dup1\n      0x00\n      add\n      sload\n      swap1\n      dup1\n      0x02\n      add\n      sload\n      swap1\n      dup1\n      0x03\n      add\n      sload\n      swap1\n      pop\n      dup4\n      jump\t// out\n        /* \"Farm.sol\":29619:29667  mapping(uint256 => address) public stakerAddress */\n    tag_53:\n      mstore(0x20, 0x07)\n      dup1\n      0x00\n      mstore\n      keccak256(0x00, 0x40)\n      0x00\n      swap2\n      pop\n      sload\n      swap1\n      0x0100\n      exp\n      swap1\n      div\n      0xffffffffffffffffffffffffffffffffffffffff\n      and\n      dup2\n      jump\t// out\n        /* \"Farm.sol\":30897:31013  function stake(uint256 _tokenId) external nonReentrant whenNotPaused {\r... */\n    tag_57:\n        /* \"Farm.sol\":18356:18377  _nonReentrantBefore() */\n      tag_145\n        /* \"Farm.sol\":18356:18375  _nonReentrantBefore */\n      tag_74\n        /* \"Farm.sol\":18356:18377  _nonReentrantBefore() */\n      jump\t// in\n    tag_145:\n        /* \"Farm.sol\":15577:15596  _requireNotPaused() */\n      tag_147\n        /* \"Farm.sol\":15577:15594  _requireNotPaused */\n      tag_148\n        /* \"Farm.sol\":15577:15596  _requireNotPaused() */\n      jump\t// in\n    tag_147:\n        /* \"Farm.sol\":30977:31005  _stake(msg.sender, _tokenId) */\n      tag_150\n        /* \"Farm.sol\":30984:30994  msg.sender */\n      caller\n        /* \"Farm.sol\":30996:31004  _tokenId */\n      dup3\n        /* \"Farm.sol\":30977:30983  _stake */\n      tag_151\n        /* \"Farm.sol\":30977:31005  _stake(msg.sender, _tokenId) */\n      jump\t// in\n    tag_150:\n        /* \"Farm.sol\":18400:18420  _nonReentrantAfter() */\n      tag_152\n        /* \"Farm.sol\":18400:18418  _nonReentrantAfter */\n      tag_104\n        /* \"Farm.sol\":18400:18420  _nonReentrantAfter() */\n      jump\t// in\n    tag_152:\n        /* \"Farm.sol\":30897:31013  function stake(uint256 _tokenId) external nonReentrant whenNotPaused {\r... */\n      pop\n      jump\t// out\n        /* \"Farm.sol\":29277:29303  IERC20 public rewardsToken */\n    tag_59:\n      0x02\n      0x00\n      swap1\n      sload\n      swap1\n      0x0100\n      exp\n      swap1\n      div\n      0xffffffffffffffffffffffffffffffffffffffff\n      and\n      dup2\n      jump\t// out\n        /* \"Farm.sol\":28317:28518  function transferOwnership(address newOwner) public virtual onlyOwner {\r... */\n    tag_64:\n        /* \"Farm.sol\":27297:27310  _checkOwner() */\n      tag_154\n        /* \"Farm.sol\":27297:27308  _checkOwner */\n      tag_139\n        /* \"Farm.sol\":27297:27310  _checkOwner() */\n      jump\t// in\n    tag_154:\n        /* \"Farm.sol\":28426:28427  0 */\n      0x00\n        /* \"Farm.sol\":28406:28428  newOwner != address(0) */\n      0xffffffffffffffffffffffffffffffffffffffff\n      and\n        /* \"Farm.sol\":28406:28414  newOwner */\n      dup2\n        /* \"Farm.sol\":28406:28428  newOwner != address(0) */\n      0xffffffffffffffffffffffffffffffffffffffff\n      and\n      eq\n      iszero\n        /* \"Farm.sol\":28398:28471  require(newOwner != address(0), \"Ownable: new owner is the zero address\") */\n      tag_156\n      jumpi\n      mload(0x40)\n      0x08c379a000000000000000000000000000000000000000000000000000000000\n      dup2\n      mstore\n      0x04\n      add\n      tag_157\n      swap1\n      tag_158\n      jump\t// in\n    tag_157:\n      mload(0x40)\n      dup1\n      swap2\n      sub\n      swap1\n      revert\n    tag_156:\n        /* \"Farm.sol\":28482:28510  _transferOwnership(newOwner) */\n      tag_159\n        /* \"Farm.sol\":28501:28509  newOwner */\n      dup2\n        /* \"Farm.sol\":28482:28500  _transferOwnership */\n      tag_142\n        /* \"Farm.sol\":28482:28510  _transferOwnership(newOwner) */\n      jump\t// in\n    tag_159:\n        /* \"Farm.sol\":28317:28518  function transferOwnership(address newOwner) public virtual onlyOwner {\r... */\n      pop\n      jump\t// out\n        /* \"Farm.sol\":33483:33692  function availableRewards(address _staker) public view returns (uint256) {\r... */\n    tag_67:\n        /* \"Farm.sol\":33547:33554  uint256 */\n      0x00\n        /* \"Farm.sol\":33567:33582  uint256 rewards */\n      dup1\n        /* \"Farm.sol\":33626:33633  stakers */\n      0x06\n        /* \"Farm.sol\":33626:33642  stakers[_staker] */\n      0x00\n        /* \"Farm.sol\":33634:33641  _staker */\n      dup5\n        /* \"Farm.sol\":33626:33642  stakers[_staker] */\n      0xffffffffffffffffffffffffffffffffffffffff\n      and\n      0xffffffffffffffffffffffffffffffffffffffff\n      and\n      dup2\n      mstore\n      0x20\n      add\n      swap1\n      dup2\n      mstore\n      0x20\n      add\n      0x00\n      keccak256\n        /* \"Farm.sol\":33626:33659  stakers[_staker].unclaimedRewards */\n      0x03\n      add\n      sload\n        /* \"Farm.sol\":33585:33610  calculateRewards(_staker) */\n      tag_161\n        /* \"Farm.sol\":33602:33609  _staker */\n      dup5\n        /* \"Farm.sol\":33585:33601  calculateRewards */\n      tag_83\n        /* \"Farm.sol\":33585:33610  calculateRewards(_staker) */\n      jump\t// in\n    tag_161:\n        /* \"Farm.sol\":33585:33659  calculateRewards(_staker) +\r... */\n      tag_162\n      swap2\n      swap1\n      tag_85\n      jump\t// in\n    tag_162:\n        /* \"Farm.sol\":33567:33659  uint256 rewards = calculateRewards(_staker) +\r... */\n      swap1\n      pop\n        /* \"Farm.sol\":33677:33684  rewards */\n      dup1\n        /* \"Farm.sol\":33670:33684  return rewards */\n      swap2\n      pop\n      pop\n        /* \"Farm.sol\":33483:33692  function availableRewards(address _staker) public view returns (uint256) {\r... */\n      swap2\n      swap1\n      pop\n      jump\t// out\n        /* \"Farm.sol\":30694:30889  function adminWithdrawRewards() external onlyOwner whenPaused {\r... */\n    tag_71:\n        /* \"Farm.sol\":27297:27310  _checkOwner() */\n      tag_164\n        /* \"Farm.sol\":27297:27308  _checkOwner */\n      tag_139\n        /* \"Farm.sol\":27297:27310  _checkOwner() */\n      jump\t// in\n    tag_164:\n        /* \"Farm.sol\":15836:15852  _requirePaused() */\n      tag_166\n        /* \"Farm.sol\":15836:15850  _requirePaused */\n      tag_167\n        /* \"Farm.sol\":15836:15852  _requirePaused() */\n      jump\t// in\n    tag_166:\n        /* \"Farm.sol\":30767:30783  uint256 _balance */\n      0x00\n        /* \"Farm.sol\":30786:30798  rewardsToken */\n      0x02\n      0x00\n      swap1\n      sload\n      swap1\n      0x0100\n      exp\n      swap1\n      div\n      0xffffffffffffffffffffffffffffffffffffffff\n      and\n        /* \"Farm.sol\":30786:30808  rewardsToken.balanceOf */\n      0xffffffffffffffffffffffffffffffffffffffff\n      and\n      0x70a08231\n        /* \"Farm.sol\":30817:30821  this */\n      address\n        /* \"Farm.sol\":30786:30823  rewardsToken.balanceOf(address(this)) */\n      mload(0x40)\n      dup3\n      0xffffffff\n      and\n      0xe0\n      shl\n      dup2\n      mstore\n      0x04\n      add\n      tag_169\n      swap2\n      swap1\n      tag_45\n      jump\t// in\n    tag_169:\n      0x20\n      mload(0x40)\n      dup1\n      dup4\n      sub\n      dup2\n      dup7\n      dup1\n      extcodesize\n      iszero\n      dup1\n      iszero\n      tag_170\n      jumpi\n      0x00\n      dup1\n      revert\n    tag_170:\n      pop\n      gas\n      staticcall\n      iszero\n      dup1\n      iszero\n      tag_172\n      jumpi\n      returndatasize\n      0x00\n      dup1\n      returndatacopy\n      revert(0x00, returndatasize)\n    tag_172:\n      pop\n      pop\n      pop\n      pop\n      mload(0x40)\n      returndatasize\n      not(0x1f)\n      0x1f\n      dup3\n      add\n      and\n      dup3\n      add\n      dup1\n      0x40\n      mstore\n      pop\n      dup2\n      add\n      swap1\n      tag_173\n      swap2\n      swap1\n      tag_174\n      jump\t// in\n    tag_173:\n        /* \"Farm.sol\":30767:30823  uint256 _balance = rewardsToken.balanceOf(address(this)) */\n      swap1\n      pop\n        /* \"Farm.sol\":30834:30881  rewardsToken.safeTransfer(msg.sender, _balance) */\n      tag_175\n        /* \"Farm.sol\":30860:30870  msg.sender */\n      caller\n        /* \"Farm.sol\":30872:30880  _balance */\n      dup3\n        /* \"Farm.sol\":30834:30846  rewardsToken */\n      0x02\n      0x00\n      swap1\n      sload\n      swap1\n      0x0100\n      exp\n      swap1\n      div\n      0xffffffffffffffffffffffffffffffffffffffff\n      and\n        /* \"Farm.sol\":30834:30859  rewardsToken.safeTransfer */\n      0xffffffffffffffffffffffffffffffffffffffff\n      and\n      tag_112\n      swap1\n        /* \"Farm.sol\":30834:30881  rewardsToken.safeTransfer(msg.sender, _balance) */\n      swap3\n      swap2\n      swap1\n      0xffffffff\n      and\n      jump\t// in\n    tag_175:\n        /* \"Farm.sol\":15863:15864  _ */\n      pop\n        /* \"Farm.sol\":30694:30889  function adminWithdrawRewards() external onlyOwner whenPaused {\r... */\n      jump\t// out\n        /* \"Farm.sol\":18436:18725  function _nonReentrantBefore() private {\r... */\n    tag_74:\n        /* \"Farm.sol\":17838:17839  2 */\n      0x02\n        /* \"Farm.sol\":18566:18573  _status */\n      sload(0x00)\n        /* \"Farm.sol\":18566:18585  _status != _ENTERED */\n      eq\n      iszero\n        /* \"Farm.sol\":18558:18621  require(_status != _ENTERED, \"ReentrancyGuard: reentrant call\") */\n      tag_177\n      jumpi\n      mload(0x40)\n      0x08c379a000000000000000000000000000000000000000000000000000000000\n      dup2\n      mstore\n      0x04\n      add\n      tag_178\n      swap1\n      tag_179\n      jump\t// in\n    tag_178:\n      mload(0x40)\n      dup1\n      swap2\n      sub\n      swap1\n      revert\n    tag_177:\n        /* \"Farm.sol\":17838:17839  2 */\n      0x02\n        /* \"Farm.sol\":18699:18706  _status */\n      0x00\n        /* \"Farm.sol\":18699:18717  _status = _ENTERED */\n      dup2\n      swap1\n      sstore\n      pop\n        /* \"Farm.sol\":18436:18725  function _nonReentrantBefore() private {\r... */\n      jump\t// out\n        /* \"Farm.sol\":32093:32393  function calculateRewards(address _staker)\r... */\n    tag_83:\n        /* \"Farm.sol\":32186:32202  uint256 _rewards */\n      0x00\n        /* \"Farm.sol\":32380:32384  3600 */\n      0x0e10\n        /* \"Farm.sol\":32362:32376  rewardsPerHour */\n      sload(0x05)\n        /* \"Farm.sol\":32318:32325  stakers */\n      0x06\n        /* \"Farm.sol\":32318:32334  stakers[_staker] */\n      0x00\n        /* \"Farm.sol\":32326:32333  _staker */\n      dup6\n        /* \"Farm.sol\":32318:32334  stakers[_staker] */\n      0xffffffffffffffffffffffffffffffffffffffff\n      and\n      0xffffffffffffffffffffffffffffffffffffffff\n      and\n      dup2\n      mstore\n      0x20\n      add\n      swap1\n      dup2\n      mstore\n      0x20\n      add\n      0x00\n      keccak256\n        /* \"Farm.sol\":32318:32347  stakers[_staker].amountStaked */\n      0x00\n      add\n      sload\n        /* \"Farm.sol\":32264:32271  stakers */\n      0x06\n        /* \"Farm.sol\":32264:32280  stakers[_staker] */\n      0x00\n        /* \"Farm.sol\":32272:32279  _staker */\n      dup7\n        /* \"Farm.sol\":32264:32280  stakers[_staker] */\n      0xffffffffffffffffffffffffffffffffffffffff\n      and\n      0xffffffffffffffffffffffffffffffffffffffff\n      and\n      dup2\n      mstore\n      0x20\n      add\n      swap1\n      dup2\n      mstore\n      0x20\n      add\n      0x00\n      keccak256\n        /* \"Farm.sol\":32264:32297  stakers[_staker].timeOfLastUpdate */\n      0x02\n      add\n      sload\n        /* \"Farm.sol\":32246:32261  block.timestamp */\n      timestamp\n        /* \"Farm.sol\":32246:32297  block.timestamp - stakers[_staker].timeOfLastUpdate */\n      tag_181\n      swap2\n      swap1\n      tag_182\n      jump\t// in\n    tag_181:\n        /* \"Farm.sol\":32245:32347  (block.timestamp - stakers[_staker].timeOfLastUpdate) *\r... */\n      tag_183\n      swap2\n      swap1\n      tag_184\n      jump\t// in\n    tag_183:\n        /* \"Farm.sol\":32229:32376  (\r... */\n      tag_185\n      swap2\n      swap1\n      tag_184\n      jump\t// in\n    tag_185:\n        /* \"Farm.sol\":32228:32384  ((\r... */\n      tag_186\n      swap2\n      swap1\n      tag_187\n      jump\t// in\n    tag_186:\n        /* \"Farm.sol\":32220:32385  return (((\r... */\n      swap1\n      pop\n        /* \"Farm.sol\":32093:32393  function calculateRewards(address _staker)\r... */\n      swap2\n      swap1\n      pop\n      jump\t// out\n        /* \"Farm.sol\":18733:18946  function _nonReentrantAfter() private {\r... */\n    tag_104:\n        /* \"Farm.sol\":17794:17795  1 */\n      0x01\n        /* \"Farm.sol\":18916:18923  _status */\n      0x00\n        /* \"Farm.sol\":18916:18938  _status = _NOT_ENTERED */\n      dup2\n      swap1\n      sstore\n      pop\n        /* \"Farm.sol\":18733:18946  function _nonReentrantAfter() private {\r... */\n      jump\t// out\n        /* \"Farm.sol\":23768:23945  function safeTransfer(IERC20 token, address to, uint256 value) internal {\r... */\n    tag_112:\n        /* \"Farm.sol\":23851:23937  _callOptionalReturn(token, abi.encodeWithSelector(token.transfer.selector, to, value)) */\n      tag_190\n        /* \"Farm.sol\":23871:23876  token */\n      dup4\n        /* \"Farm.sol\":23901:23924  token.transfer.selector */\n      shl(0xe0, 0xa9059cbb)\n        /* \"Farm.sol\":23926:23928  to */\n      dup5\n        /* \"Farm.sol\":23930:23935  value */\n      dup5\n        /* \"Farm.sol\":23878:23936  abi.encodeWithSelector(token.transfer.selector, to, value) */\n      add(0x24, mload(0x40))\n      tag_191\n      swap3\n      swap2\n      swap1\n      tag_192\n      jump\t// in\n    tag_191:\n      mload(0x40)\n      0x20\n      dup2\n      dup4\n      sub\n      sub\n      dup2\n      mstore\n      swap1\n      0x40\n      mstore\n      swap1\n      not(0xffffffffffffffffffffffffffffffffffffffffffffffffffffffff)\n      and\n      0x20\n      dup3\n      add\n      dup1\n      mload\n      0xffffffffffffffffffffffffffffffffffffffffffffffffffffffff\n      dup4\n      dup2\n      dup4\n      and\n      or\n      dup4\n      mstore\n      pop\n      pop\n      pop\n      pop\n        /* \"Farm.sol\":23851:23870  _callOptionalReturn */\n      tag_193\n        /* \"Farm.sol\":23851:23937  _callOptionalReturn(token, abi.encodeWithSelector(token.transfer.selector, to, value)) */\n      jump\t// in\n    tag_190:\n        /* \"Farm.sol\":23768:23945  function safeTransfer(IERC20 token, address to, uint256 value) internal {\r... */\n      pop\n      pop\n      pop\n      jump\t// out\n        /* \"Farm.sol\":27576:27708  function _checkOwner() internal view virtual {\r... */\n    tag_139:\n        /* \"Farm.sol\":27651:27663  _msgSender() */\n      tag_195\n        /* \"Farm.sol\":27651:27661  _msgSender */\n      tag_196\n        /* \"Farm.sol\":27651:27663  _msgSender() */\n      jump\t// in\n    tag_195:\n        /* \"Farm.sol\":27640:27663  owner() == _msgSender() */\n      0xffffffffffffffffffffffffffffffffffffffff\n      and\n        /* \"Farm.sol\":27640:27647  owner() */\n      tag_197\n        /* \"Farm.sol\":27640:27645  owner */\n      tag_43\n        /* \"Farm.sol\":27640:27647  owner() */\n      jump\t// in\n    tag_197:\n        /* \"Farm.sol\":27640:27663  owner() == _msgSender() */\n      0xffffffffffffffffffffffffffffffffffffffff\n      and\n      eq\n        /* \"Farm.sol\":27632:27700  require(owner() == _msgSender(), \"Ownable: caller is not the owner\") */\n      tag_198\n      jumpi\n      mload(0x40)\n      0x08c379a000000000000000000000000000000000000000000000000000000000\n      dup2\n      mstore\n      0x04\n      add\n      tag_199\n      swap1\n      tag_200\n      jump\t// in\n    tag_199:\n      mload(0x40)\n      dup1\n      swap2\n      sub\n      swap1\n      revert\n    tag_198:\n        /* \"Farm.sol\":27576:27708  function _checkOwner() internal view virtual {\r... */\n      jump\t// out\n        /* \"Farm.sol\":28678:28869  function _transferOwnership(address newOwner) internal virtual {\r... */\n    tag_142:\n        /* \"Farm.sol\":28752:28768  address oldOwner */\n      0x00\n        /* \"Farm.sol\":28771:28777  _owner */\n      0x01\n      dup1\n      sload\n      swap1\n      0x0100\n      exp\n      swap1\n      div\n      0xffffffffffffffffffffffffffffffffffffffff\n      and\n        /* \"Farm.sol\":28752:28777  address oldOwner = _owner */\n      swap1\n      pop\n        /* \"Farm.sol\":28797:28805  newOwner */\n      dup2\n        /* \"Farm.sol\":28788:28794  _owner */\n      0x01\n      dup1\n        /* \"Farm.sol\":28788:28805  _owner = newOwner */\n      0x0100\n      exp\n      dup2\n      sload\n      dup2\n      0xffffffffffffffffffffffffffffffffffffffff\n      mul\n      not\n      and\n      swap1\n      dup4\n      0xffffffffffffffffffffffffffffffffffffffff\n      and\n      mul\n      or\n      swap1\n      sstore\n      pop\n        /* \"Farm.sol\":28852:28860  newOwner */\n      dup2\n        /* \"Farm.sol\":28821:28861  OwnershipTransferred(oldOwner, newOwner) */\n      0xffffffffffffffffffffffffffffffffffffffff\n      and\n        /* \"Farm.sol\":28842:28850  oldOwner */\n      dup2\n        /* \"Farm.sol\":28821:28861  OwnershipTransferred(oldOwner, newOwner) */\n      0xffffffffffffffffffffffffffffffffffffffff\n      and\n      0x8be0079c531659141344cd1fd0a4f28419497f9722a3daafe3b4186f6b6457e0\n      mload(0x40)\n      mload(0x40)\n      dup1\n      swap2\n      sub\n      swap1\n      log3\n        /* \"Farm.sol\":28678:28869  function _transferOwnership(address newOwner) internal virtual {\r... */\n      pop\n      pop\n      jump\t// out\n        /* \"Farm.sol\":16131:16239  function _requireNotPaused() internal view virtual {\r... */\n    tag_148:\n        /* \"Farm.sol\":16202:16210  paused() */\n      tag_203\n        /* \"Farm.sol\":16202:16208  paused */\n      tag_27\n        /* \"Farm.sol\":16202:16210  paused() */\n      jump\t// in\n    tag_203:\n        /* \"Farm.sol\":16201:16210  !paused() */\n      iszero\n        /* \"Farm.sol\":16193:16231  require(!paused(), \"Pausable: paused\") */\n      tag_204\n      jumpi\n      mload(0x40)\n      0x08c379a000000000000000000000000000000000000000000000000000000000\n      dup2\n      mstore\n      0x04\n      add\n      tag_205\n      swap1\n      tag_206\n      jump\t// in\n    tag_205:\n      mload(0x40)\n      dup1\n      swap2\n      sub\n      swap1\n      revert\n    tag_204:\n        /* \"Farm.sol\":16131:16239  function _requireNotPaused() internal view virtual {\r... */\n      jump\t// out\n        /* \"Farm.sol\":29955:30686  function _stake(address _staker, uint256 _tokenId) internal {\r... */\n    tag_151:\n        /* \"Farm.sol\":30083:30090  _staker */\n      dup2\n        /* \"Farm.sol\":30048:30090  nftCollection.ownerOf(_tokenId) == _staker */\n      0xffffffffffffffffffffffffffffffffffffffff\n      and\n        /* \"Farm.sol\":30048:30061  nftCollection */\n      0x03\n      0x00\n      swap1\n      sload\n      swap1\n      0x0100\n      exp\n      swap1\n      div\n      0xffffffffffffffffffffffffffffffffffffffff\n      and\n        /* \"Farm.sol\":30048:30069  nftCollection.ownerOf */\n      0xffffffffffffffffffffffffffffffffffffffff\n      and\n      0x6352211e\n        /* \"Farm.sol\":30070:30078  _tokenId */\n      dup4\n        /* \"Farm.sol\":30048:30079  nftCollection.ownerOf(_tokenId) */\n      mload(0x40)\n      dup3\n      0xffffffff\n      and\n      0xe0\n      shl\n      dup2\n      mstore\n      0x04\n      add\n      tag_208\n      swap2\n      swap1\n      tag_69\n      jump\t// in\n    tag_208:\n      0x20\n      mload(0x40)\n      dup1\n      dup4\n      sub\n      dup2\n      dup7\n      dup1\n      extcodesize\n      iszero\n      dup1\n      iszero\n      tag_209\n      jumpi\n      0x00\n      dup1\n      revert\n    tag_209:\n      pop\n      gas\n      staticcall\n      iszero\n      dup1\n      iszero\n      tag_211\n      jumpi\n      returndatasize\n      0x00\n      dup1\n      returndatacopy\n      revert(0x00, returndatasize)\n    tag_211:\n      pop\n      pop\n      pop\n      pop\n      mload(0x40)\n      returndatasize\n      not(0x1f)\n      0x1f\n      dup3\n      add\n      and\n      dup3\n      add\n      dup1\n      0x40\n      mstore\n      pop\n      dup2\n      add\n      swap1\n      tag_212\n      swap2\n      swap1\n      tag_213\n      jump\t// in\n    tag_212:\n        /* \"Farm.sol\":30048:30090  nftCollection.ownerOf(_tokenId) == _staker */\n      0xffffffffffffffffffffffffffffffffffffffff\n      and\n      eq\n        /* \"Farm.sol\":30026:30143  require(\r... */\n      tag_214\n      jumpi\n      mload(0x40)\n      0x08c379a000000000000000000000000000000000000000000000000000000000\n      dup2\n      mstore\n      0x04\n      add\n      tag_215\n      swap1\n      tag_81\n      jump\t// in\n    tag_215:\n      mload(0x40)\n      dup1\n      swap2\n      sub\n      swap1\n      revert\n    tag_214:\n        /* \"Farm.sol\":30192:30193  0 */\n      0x00\n        /* \"Farm.sol\":30160:30167  stakers */\n      0x06\n        /* \"Farm.sol\":30160:30176  stakers[_staker] */\n      0x00\n        /* \"Farm.sol\":30168:30175  _staker */\n      dup5\n        /* \"Farm.sol\":30160:30176  stakers[_staker] */\n      0xffffffffffffffffffffffffffffffffffffffff\n      and\n      0xffffffffffffffffffffffffffffffffffffffff\n      and\n      dup2\n      mstore\n      0x20\n      add\n      swap1\n      dup2\n      mstore\n      0x20\n      add\n      0x00\n      keccak256\n        /* \"Farm.sol\":30160:30189  stakers[_staker].amountStaked */\n      0x00\n      add\n      sload\n        /* \"Farm.sol\":30160:30193  stakers[_staker].amountStaked > 0 */\n      gt\n        /* \"Farm.sol\":30156:30324  if (stakers[_staker].amountStaked > 0) {\r... */\n      iszero\n      tag_216\n      jumpi\n        /* \"Farm.sol\":30210:30225  uint256 rewards */\n      0x00\n        /* \"Farm.sol\":30228:30253  calculateRewards(_staker) */\n      tag_217\n        /* \"Farm.sol\":30245:30252  _staker */\n      dup4\n        /* \"Farm.sol\":30228:30244  calculateRewards */\n      tag_83\n        /* \"Farm.sol\":30228:30253  calculateRewards(_staker) */\n      jump\t// in\n    tag_217:\n        /* \"Farm.sol\":30210:30253  uint256 rewards = calculateRewards(_staker) */\n      swap1\n      pop\n        /* \"Farm.sol\":30305:30312  rewards */\n      dup1\n        /* \"Farm.sol\":30268:30275  stakers */\n      0x06\n        /* \"Farm.sol\":30268:30284  stakers[_staker] */\n      0x00\n        /* \"Farm.sol\":30276:30283  _staker */\n      dup6\n        /* \"Farm.sol\":30268:30284  stakers[_staker] */\n      0xffffffffffffffffffffffffffffffffffffffff\n      and\n      0xffffffffffffffffffffffffffffffffffffffff\n      and\n      dup2\n      mstore\n      0x20\n      add\n      swap1\n      dup2\n      mstore\n      0x20\n      add\n      0x00\n      keccak256\n        /* \"Farm.sol\":30268:30301  stakers[_staker].unclaimedRewards */\n      0x03\n      add\n      0x00\n        /* \"Farm.sol\":30268:30312  stakers[_staker].unclaimedRewards += rewards */\n      dup3\n      dup3\n      sload\n      tag_218\n      swap2\n      swap1\n      tag_85\n      jump\t// in\n    tag_218:\n      swap3\n      pop\n      pop\n      dup2\n      swap1\n      sstore\n      pop\n        /* \"Farm.sol\":30156:30324  if (stakers[_staker].amountStaked > 0) {\r... */\n      pop\n    tag_216:\n        /* \"Farm.sol\":30336:30349  nftCollection */\n      0x03\n      0x00\n      swap1\n      sload\n      swap1\n      0x0100\n      exp\n      swap1\n      div\n      0xffffffffffffffffffffffffffffffffffffffff\n      and\n        /* \"Farm.sol\":30336:30362  nftCollection.transferFrom */\n      0xffffffffffffffffffffffffffffffffffffffff\n      and\n      0x23b872dd\n        /* \"Farm.sol\":30363:30370  _staker */\n      dup4\n        /* \"Farm.sol\":30380:30384  this */\n      address\n        /* \"Farm.sol\":30387:30395  _tokenId */\n      dup5\n        /* \"Farm.sol\":30336:30396  nftCollection.transferFrom(_staker, address(this), _tokenId) */\n      mload(0x40)\n      dup5\n      0xffffffff\n      and\n      0xe0\n      shl\n      dup2\n      mstore\n      0x04\n      add\n      tag_219\n      swap4\n      swap3\n      swap2\n      swap1\n      tag_99\n      jump\t// in\n    tag_219:\n      0x00\n      mload(0x40)\n      dup1\n      dup4\n      sub\n      dup2\n      0x00\n      dup8\n      dup1\n      extcodesize\n      iszero\n      dup1\n      iszero\n      tag_220\n      jumpi\n      0x00\n      dup1\n      revert\n    tag_220:\n      pop\n      gas\n      call\n      iszero\n      dup1\n      iszero\n      tag_222\n      jumpi\n      returndatasize\n      0x00\n      dup1\n      returndatacopy\n      revert(0x00, returndatasize)\n    tag_222:\n      pop\n      pop\n      pop\n      pop\n        /* \"Farm.sol\":30409:30439  StakedToken memory stakedToken */\n      0x00\n        /* \"Farm.sol\":30442:30472  StakedToken(_staker, _tokenId) */\n      mload(0x40)\n      dup1\n      0x40\n      add\n      0x40\n      mstore\n      dup1\n        /* \"Farm.sol\":30454:30461  _staker */\n      dup5\n        /* \"Farm.sol\":30442:30472  StakedToken(_staker, _tokenId) */\n      0xffffffffffffffffffffffffffffffffffffffff\n      and\n      dup2\n      mstore\n      0x20\n      add\n        /* \"Farm.sol\":30463:30471  _tokenId */\n      dup4\n        /* \"Farm.sol\":30442:30472  StakedToken(_staker, _tokenId) */\n      dup2\n      mstore\n      pop\n        /* \"Farm.sol\":30409:30472  StakedToken memory stakedToken = StakedToken(_staker, _tokenId) */\n      swap1\n      pop\n        /* \"Farm.sol\":30483:30490  stakers */\n      0x06\n        /* \"Farm.sol\":30483:30499  stakers[_staker] */\n      0x00\n        /* \"Farm.sol\":30491:30498  _staker */\n      dup5\n        /* \"Farm.sol\":30483:30499  stakers[_staker] */\n      0xffffffffffffffffffffffffffffffffffffffff\n      and\n      0xffffffffffffffffffffffffffffffffffffffff\n      and\n      dup2\n      mstore\n      0x20\n      add\n      swap1\n      dup2\n      mstore\n      0x20\n      add\n      0x00\n      keccak256\n        /* \"Farm.sol\":30483:30512  stakers[_staker].stakedTokens */\n      0x01\n      add\n        /* \"Farm.sol\":30518:30529  stakedToken */\n      dup2\n        /* \"Farm.sol\":30483:30530  stakers[_staker].stakedTokens.push(stakedToken) */\n      swap1\n      dup1\n      0x01\n      dup2\n      sload\n      add\n      dup1\n      dup3\n      sstore\n      dup1\n      swap2\n      pop\n      pop\n      0x01\n      swap1\n      sub\n      swap1\n      0x00\n      mstore\n      keccak256(0x00, 0x20)\n      swap1\n      0x02\n      mul\n      add\n      0x00\n      swap1\n      swap2\n      swap1\n      swap2\n      swap1\n      swap2\n      pop\n      0x00\n      dup3\n      add\n      mload\n      dup2\n      0x00\n      add\n      exp(0x0100, 0x00)\n      dup2\n      sload\n      dup2\n      0xffffffffffffffffffffffffffffffffffffffff\n      mul\n      not\n      and\n      swap1\n      dup4\n      0xffffffffffffffffffffffffffffffffffffffff\n      and\n      mul\n      or\n      swap1\n      sstore\n      pop\n      0x20\n      dup3\n      add\n      mload\n      dup2\n      0x01\n      add\n      sstore\n      pop\n      pop\n        /* \"Farm.sol\":30541:30548  stakers */\n      0x06\n        /* \"Farm.sol\":30541:30557  stakers[_staker] */\n      0x00\n        /* \"Farm.sol\":30549:30556  _staker */\n      dup5\n        /* \"Farm.sol\":30541:30557  stakers[_staker] */\n      0xffffffffffffffffffffffffffffffffffffffff\n      and\n      0xffffffffffffffffffffffffffffffffffffffff\n      and\n      dup2\n      mstore\n      0x20\n      add\n      swap1\n      dup2\n      mstore\n      0x20\n      add\n      0x00\n      keccak256\n        /* \"Farm.sol\":30541:30570  stakers[_staker].amountStaked */\n      0x00\n      add\n      0x00\n        /* \"Farm.sol\":30541:30572  stakers[_staker].amountStaked++ */\n      dup2\n      sload\n      dup1\n      swap3\n      swap2\n      swap1\n      tag_224\n      swap1\n      tag_93\n      jump\t// in\n    tag_224:\n      swap2\n      swap1\n      pop\n      sstore\n      pop\n        /* \"Farm.sol\":30609:30616  _staker */\n      dup3\n        /* \"Farm.sol\":30583:30596  stakerAddress */\n      0x07\n        /* \"Farm.sol\":30583:30606  stakerAddress[_tokenId] */\n      0x00\n        /* \"Farm.sol\":30597:30605  _tokenId */\n      dup5\n        /* \"Farm.sol\":30583:30606  stakerAddress[_tokenId] */\n      dup2\n      mstore\n      0x20\n      add\n      swap1\n      dup2\n      mstore\n      0x20\n      add\n      0x00\n      keccak256\n      0x00\n        /* \"Farm.sol\":30583:30616  stakerAddress[_tokenId] = _staker */\n      0x0100\n      exp\n      dup2\n      sload\n      dup2\n      0xffffffffffffffffffffffffffffffffffffffff\n      mul\n      not\n      and\n      swap1\n      dup4\n      0xffffffffffffffffffffffffffffffffffffffff\n      and\n      mul\n      or\n      swap1\n      sstore\n      pop\n        /* \"Farm.sol\":30663:30678  block.timestamp */\n      timestamp\n        /* \"Farm.sol\":30627:30634  stakers */\n      0x06\n        /* \"Farm.sol\":30627:30643  stakers[_staker] */\n      0x00\n        /* \"Farm.sol\":30635:30642  _staker */\n      dup6\n        /* \"Farm.sol\":30627:30643  stakers[_staker] */\n      0xffffffffffffffffffffffffffffffffffffffff\n      and\n      0xffffffffffffffffffffffffffffffffffffffff\n      and\n      dup2\n      mstore\n      0x20\n      add\n      swap1\n      dup2\n      mstore\n      0x20\n      add\n      0x00\n      keccak256\n        /* \"Farm.sol\":30627:30660  stakers[_staker].timeOfLastUpdate */\n      0x02\n      add\n        /* \"Farm.sol\":30627:30678  stakers[_staker].timeOfLastUpdate = block.timestamp */\n      dup2\n      swap1\n      sstore\n      pop\n        /* \"Farm.sol\":29955:30686  function _stake(address _staker, uint256 _tokenId) internal {\r... */\n      pop\n      pop\n      pop\n      jump\t// out\n        /* \"Farm.sol\":16316:16424  function _requirePaused() internal view virtual {\r... */\n    tag_167:\n        /* \"Farm.sol\":16383:16391  paused() */\n      tag_226\n        /* \"Farm.sol\":16383:16389  paused */\n      tag_27\n        /* \"Farm.sol\":16383:16391  paused() */\n      jump\t// in\n    tag_226:\n        /* \"Farm.sol\":16375:16416  require(paused(), \"Pausable: not paused\") */\n      tag_227\n      jumpi\n      mload(0x40)\n      0x08c379a000000000000000000000000000000000000000000000000000000000\n      dup2\n      mstore\n      0x04\n      add\n      tag_228\n      swap1\n      tag_229\n      jump\t// in\n    tag_228:\n      mload(0x40)\n      dup1\n      swap2\n      sub\n      swap1\n      revert\n    tag_227:\n        /* \"Farm.sol\":16316:16424  function _requirePaused() internal view virtual {\r... */\n      jump\t// out\n        /* \"Farm.sol\":26073:26834  function _callOptionalReturn(IERC20 token, bytes memory data) private {\r... */\n    tag_193:\n        /* \"Farm.sol\":26497:26520  bytes memory returndata */\n      0x00\n        /* \"Farm.sol\":26523:26592  address(token).functionCall(data, \"SafeERC20: low-level call failed\") */\n      tag_231\n        /* \"Farm.sol\":26551:26555  data */\n      dup3\n        /* \"Farm.sol\":26523:26592  address(token).functionCall(data, \"SafeERC20: low-level call failed\") */\n      mload(0x40)\n      dup1\n      0x40\n      add\n      0x40\n      mstore\n      dup1\n      0x20\n      dup2\n      mstore\n      0x20\n      add\n      0x5361666545524332303a206c6f772d6c6576656c2063616c6c206661696c6564\n      dup2\n      mstore\n      pop\n        /* \"Farm.sol\":26531:26536  token */\n      dup6\n        /* \"Farm.sol\":26523:26550  address(token).functionCall */\n      0xffffffffffffffffffffffffffffffffffffffff\n      and\n      tag_232\n      swap1\n        /* \"Farm.sol\":26523:26592  address(token).functionCall(data, \"SafeERC20: low-level call failed\") */\n      swap3\n      swap2\n      swap1\n      0xffffffff\n      and\n      jump\t// in\n    tag_231:\n        /* \"Farm.sol\":26497:26592  bytes memory returndata = address(token).functionCall(data, \"SafeERC20: low-level call failed\") */\n      swap1\n      pop\n        /* \"Farm.sol\":26627:26628  0 */\n      0x00\n        /* \"Farm.sol\":26607:26617  returndata */\n      dup2\n        /* \"Farm.sol\":26607:26624  returndata.length */\n      mload\n        /* \"Farm.sol\":26607:26628  returndata.length > 0 */\n      gt\n        /* \"Farm.sol\":26603:26827  if (returndata.length > 0) { // Return data is optional\r... */\n      iszero\n      tag_233\n      jumpi\n        /* \"Farm.sol\":26749:26759  returndata */\n      dup1\n        /* \"Farm.sol\":26738:26768  abi.decode(returndata, (bool)) */\n      dup1\n      0x20\n      add\n      swap1\n      mload\n      dup2\n      add\n      swap1\n      tag_234\n      swap2\n      swap1\n      tag_235\n      jump\t// in\n    tag_234:\n        /* \"Farm.sol\":26730:26815  require(abi.decode(returndata, (bool)), \"SafeERC20: ERC20 operation did not succeed\") */\n      tag_236\n      jumpi\n      mload(0x40)\n      0x08c379a000000000000000000000000000000000000000000000000000000000\n      dup2\n      mstore\n      0x04\n      add\n      tag_237\n      swap1\n      tag_238\n      jump\t// in\n    tag_237:\n      mload(0x40)\n      dup1\n      swap2\n      sub\n      swap1\n      revert\n    tag_236:\n        /* \"Farm.sol\":26603:26827  if (returndata.length > 0) { // Return data is optional\r... */\n    tag_233:\n        /* \"Farm.sol\":26073:26834  function _callOptionalReturn(IERC20 token, bytes memory data) private {\r... */\n      pop\n      pop\n      pop\n      jump\t// out\n        /* \"Farm.sol\":14698:14796  function _msgSender() internal view virtual returns (address) {\r... */\n    tag_196:\n        /* \"Farm.sol\":14751:14758  address */\n      0x00\n        /* \"Farm.sol\":14778:14788  msg.sender */\n      caller\n        /* \"Farm.sol\":14771:14788  return msg.sender */\n      swap1\n      pop\n        /* \"Farm.sol\":14698:14796  function _msgSender() internal view virtual returns (address) {\r... */\n      swap1\n      jump\t// out\n        /* \"Farm.sol\":8687:8882  function functionCall(address target, bytes memory data, string memory errorMessage) internal returns (bytes memory) {\r... */\n    tag_232:\n        /* \"Farm.sol\":8790:8802  bytes memory */\n      0x60\n        /* \"Farm.sol\":8822:8874  functionCallWithValue(target, data, 0, errorMessage) */\n      tag_241\n        /* \"Farm.sol\":8844:8850  target */\n      dup5\n        /* \"Farm.sol\":8852:8856  data */\n      dup5\n        /* \"Farm.sol\":8858:8859  0 */\n      0x00\n        /* \"Farm.sol\":8861:8873  errorMessage */\n      dup6\n        /* \"Farm.sol\":8822:8843  functionCallWithValue */\n      tag_242\n        /* \"Farm.sol\":8822:8874  functionCallWithValue(target, data, 0, errorMessage) */\n      jump\t// in\n    tag_241:\n        /* \"Farm.sol\":8815:8874  return functionCallWithValue(target, data, 0, errorMessage) */\n      swap1\n      pop\n        /* \"Farm.sol\":8687:8882  function functionCall(address target, bytes memory data, string memory errorMessage) internal returns (bytes memory) {\r... */\n      swap4\n      swap3\n      pop\n      pop\n      pop\n      jump\t// out\n        /* \"Farm.sol\":9739:10269  function functionCallWithValue(address target, bytes memory data, uint256 value, string memory errorMessage) internal returns (bytes memory) {\r... */\n    tag_242:\n        /* \"Farm.sol\":9866:9878  bytes memory */\n      0x60\n        /* \"Farm.sol\":9924:9929  value */\n      dup3\n        /* \"Farm.sol\":9899:9920  address(this).balance */\n      selfbalance\n        /* \"Farm.sol\":9899:9929  address(this).balance >= value */\n      lt\n      iszero\n        /* \"Farm.sol\":9891:9972  require(address(this).balance >= value, \"Address: insufficient balance for call\") */\n      tag_244\n      jumpi\n      mload(0x40)\n      0x08c379a000000000000000000000000000000000000000000000000000000000\n      dup2\n      mstore\n      0x04\n      add\n      tag_245\n      swap1\n      tag_246\n      jump\t// in\n    tag_245:\n      mload(0x40)\n      dup1\n      swap2\n      sub\n      swap1\n      revert\n    tag_244:\n        /* \"Farm.sol\":9991:10009  isContract(target) */\n      tag_247\n        /* \"Farm.sol\":10002:10008  target */\n      dup6\n        /* \"Farm.sol\":9991:10001  isContract */\n      tag_248\n        /* \"Farm.sol\":9991:10009  isContract(target) */\n      jump\t// in\n    tag_247:\n        /* \"Farm.sol\":9983:10043  require(isContract(target), \"Address: call to non-contract\") */\n      tag_249\n      jumpi\n      mload(0x40)\n      0x08c379a000000000000000000000000000000000000000000000000000000000\n      dup2\n      mstore\n      0x04\n      add\n      tag_250\n      swap1\n      tag_251\n      jump\t// in\n    tag_250:\n      mload(0x40)\n      dup1\n      swap2\n      sub\n      swap1\n      revert\n    tag_249:\n        /* \"Farm.sol\":10117:10129  bool success */\n      0x00\n        /* \"Farm.sol\":10131:10154  bytes memory returndata */\n      dup1\n        /* \"Farm.sol\":10158:10164  target */\n      dup7\n        /* \"Farm.sol\":10158:10169  target.call */\n      0xffffffffffffffffffffffffffffffffffffffff\n      and\n        /* \"Farm.sol\":10178:10183  value */\n      dup6\n        /* \"Farm.sol\":10186:10190  data */\n      dup8\n        /* \"Farm.sol\":10158:10191  target.call{ value: value }(data) */\n      mload(0x40)\n      tag_252\n      swap2\n      swap1\n      tag_253\n      jump\t// in\n    tag_252:\n      0x00\n      mload(0x40)\n      dup1\n      dup4\n      sub\n      dup2\n      dup6\n      dup8\n      gas\n      call\n      swap3\n      pop\n      pop\n      pop\n      returndatasize\n      dup1\n      0x00\n      dup2\n      eq\n      tag_256\n      jumpi\n      mload(0x40)\n      swap2\n      pop\n      and(add(returndatasize, 0x3f), not(0x1f))\n      dup3\n      add\n      0x40\n      mstore\n      returndatasize\n      dup3\n      mstore\n      returndatasize\n      0x00\n      0x20\n      dup5\n      add\n      returndatacopy\n      jump(tag_255)\n    tag_256:\n      0x60\n      swap2\n      pop\n    tag_255:\n      pop\n        /* \"Farm.sol\":10116:10191  (bool success, bytes memory returndata) = target.call{ value: value }(data) */\n      swap2\n      pop\n      swap2\n      pop\n        /* \"Farm.sol\":10209:10261  _verifyCallResult(success, returndata, errorMessage) */\n      tag_257\n        /* \"Farm.sol\":10227:10234  success */\n      dup3\n        /* \"Farm.sol\":10236:10246  returndata */\n      dup3\n        /* \"Farm.sol\":10248:10260  errorMessage */\n      dup7\n        /* \"Farm.sol\":10209:10226  _verifyCallResult */\n      tag_258\n        /* \"Farm.sol\":10209:10261  _verifyCallResult(success, returndata, errorMessage) */\n      jump\t// in\n    tag_257:\n        /* \"Farm.sol\":10202:10261  return _verifyCallResult(success, returndata, errorMessage) */\n      swap3\n      pop\n      pop\n      pop\n        /* \"Farm.sol\":9739:10269  function functionCallWithValue(address target, bytes memory data, uint256 value, string memory errorMessage) internal returns (bytes memory) {\r... */\n      swap5\n      swap4\n      pop\n      pop\n      pop\n      pop\n      jump\t// out\n        /* \"Farm.sol\":5769:6191  function isContract(address account) internal view returns (bool) {\r... */\n    tag_248:\n        /* \"Farm.sol\":5829:5833  bool */\n      0x00\n        /* \"Farm.sol\":6037:6049  uint256 size */\n      dup1\n        /* \"Farm.sol\":6148:6155  account */\n      dup3\n        /* \"Farm.sol\":6136:6156  extcodesize(account) */\n      extcodesize\n        /* \"Farm.sol\":6128:6156  size := extcodesize(account) */\n      swap1\n      pop\n        /* \"Farm.sol\":6182:6183  0 */\n      0x00\n        /* \"Farm.sol\":6175:6179  size */\n      dup2\n        /* \"Farm.sol\":6175:6183  size > 0 */\n      gt\n        /* \"Farm.sol\":6168:6183  return size > 0 */\n      swap2\n      pop\n      pop\n        /* \"Farm.sol\":5769:6191  function isContract(address account) internal view returns (bool) {\r... */\n      swap2\n      swap1\n      pop\n      jump\t// out\n        /* \"Farm.sol\":11275:12017  function _verifyCallResult(bool success, bytes memory returndata, string memory errorMessage) private pure returns(bytes memory) {\r... */\n    tag_258:\n        /* \"Farm.sol\":11390:11402  bytes memory */\n      0x60\n        /* \"Farm.sol\":11419:11426  success */\n      dup4\n        /* \"Farm.sol\":11415:12010  if (success) {\r... */\n      iszero\n      tag_261\n      jumpi\n        /* \"Farm.sol\":11450:11460  returndata */\n      dup3\n        /* \"Farm.sol\":11443:11460  return returndata */\n      swap1\n      pop\n      jump(tag_260)\n        /* \"Farm.sol\":11415:12010  if (success) {\r... */\n    tag_261:\n        /* \"Farm.sol\":11584:11585  0 */\n      0x00\n        /* \"Farm.sol\":11564:11574  returndata */\n      dup4\n        /* \"Farm.sol\":11564:11581  returndata.length */\n      mload\n        /* \"Farm.sol\":11564:11585  returndata.length > 0 */\n      gt\n        /* \"Farm.sol\":11560:11999  if (returndata.length > 0) {\r... */\n      iszero\n      tag_263\n      jumpi\n        /* \"Farm.sol\":11827:11837  returndata */\n      dup3\n        /* \"Farm.sol\":11821:11838  mload(returndata) */\n      mload\n        /* \"Farm.sol\":11888:11903  returndata_size */\n      dup1\n        /* \"Farm.sol\":11875:11885  returndata */\n      dup5\n        /* \"Farm.sol\":11871:11873  32 */\n      0x20\n        /* \"Farm.sol\":11867:11886  add(32, returndata) */\n      add\n        /* \"Farm.sol\":11860:11904  revert(add(32, returndata), returndata_size) */\n      revert\n        /* \"Farm.sol\":11775:11923  {\r... */\n    tag_263:\n        /* \"Farm.sol\":11970:11982  errorMessage */\n      dup2\n        /* \"Farm.sol\":11963:11983  revert(errorMessage) */\n      mload(0x40)\n      0x08c379a000000000000000000000000000000000000000000000000000000000\n      dup2\n      mstore\n      0x04\n      add\n      tag_265\n      swap2\n      swap1\n      tag_266\n      jump\t// in\n    tag_265:\n      mload(0x40)\n      dup1\n      swap2\n      sub\n      swap1\n      revert\n        /* \"Farm.sol\":11275:12017  function _verifyCallResult(bool success, bytes memory returndata, string memory errorMessage) private pure returns(bytes memory) {\r... */\n    tag_260:\n      swap4\n      swap3\n      pop\n      pop\n      pop\n      jump\t// out\n    tag_120:\n      mload(0x40)\n      dup1\n      0x40\n      add\n      0x40\n      mstore\n      dup1\n      and(0xffffffffffffffffffffffffffffffffffffffff, 0x00)\n      dup2\n      mstore\n      0x20\n      add\n      0x00\n      dup2\n      mstore\n      pop\n      swap1\n      jump\t// out\n        /* \"#utility.yul\":7:146   */\n    tag_268:\n      0x00\n        /* \"#utility.yul\":91:97   */\n      dup2\n        /* \"#utility.yul\":78:98   */\n      calldataload\n        /* \"#utility.yul\":69:98   */\n      swap1\n      pop\n        /* \"#utility.yul\":107:140   */\n      tag_270\n        /* \"#utility.yul\":134:139   */\n      dup2\n        /* \"#utility.yul\":107:140   */\n      tag_271\n      jump\t// in\n    tag_270:\n        /* \"#utility.yul\":59:146   */\n      swap3\n      swap2\n      pop\n      pop\n      jump\t// out\n        /* \"#utility.yul\":152:295   */\n    tag_272:\n      0x00\n        /* \"#utility.yul\":240:246   */\n      dup2\n        /* \"#utility.yul\":234:247   */\n      mload\n        /* \"#utility.yul\":225:247   */\n      swap1\n      pop\n        /* \"#utility.yul\":256:289   */\n      tag_274\n        /* \"#utility.yul\":283:288   */\n      dup2\n        /* \"#utility.yul\":256:289   */\n      tag_271\n      jump\t// in\n    tag_274:\n        /* \"#utility.yul\":215:295   */\n      swap3\n      swap2\n      pop\n      pop\n      jump\t// out\n        /* \"#utility.yul\":301:438   */\n    tag_275:\n      0x00\n        /* \"#utility.yul\":386:392   */\n      dup2\n        /* \"#utility.yul\":380:393   */\n      mload\n        /* \"#utility.yul\":371:393   */\n      swap1\n      pop\n        /* \"#utility.yul\":402:432   */\n      tag_277\n        /* \"#utility.yul\":426:431   */\n      dup2\n        /* \"#utility.yul\":402:432   */\n      tag_278\n      jump\t// in\n    tag_277:\n        /* \"#utility.yul\":361:438   */\n      swap3\n      swap2\n      pop\n      pop\n      jump\t// out\n        /* \"#utility.yul\":444:583   */\n    tag_279:\n      0x00\n        /* \"#utility.yul\":528:534   */\n      dup2\n        /* \"#utility.yul\":515:535   */\n      calldataload\n        /* \"#utility.yul\":506:535   */\n      swap1\n      pop\n        /* \"#utility.yul\":544:577   */\n      tag_281\n        /* \"#utility.yul\":571:576   */\n      dup2\n        /* \"#utility.yul\":544:577   */\n      tag_282\n      jump\t// in\n    tag_281:\n        /* \"#utility.yul\":496:583   */\n      swap3\n      swap2\n      pop\n      pop\n      jump\t// out\n        /* \"#utility.yul\":589:732   */\n    tag_283:\n      0x00\n        /* \"#utility.yul\":677:683   */\n      dup2\n        /* \"#utility.yul\":671:684   */\n      mload\n        /* \"#utility.yul\":662:684   */\n      swap1\n      pop\n        /* \"#utility.yul\":693:726   */\n      tag_285\n        /* \"#utility.yul\":720:725   */\n      dup2\n        /* \"#utility.yul\":693:726   */\n      tag_282\n      jump\t// in\n    tag_285:\n        /* \"#utility.yul\":652:732   */\n      swap3\n      swap2\n      pop\n      pop\n      jump\t// out\n        /* \"#utility.yul\":738:1000   */\n    tag_32:\n      0x00\n        /* \"#utility.yul\":846:848   */\n      0x20\n        /* \"#utility.yul\":834:843   */\n      dup3\n        /* \"#utility.yul\":825:832   */\n      dup5\n        /* \"#utility.yul\":821:844   */\n      sub\n        /* \"#utility.yul\":817:849   */\n      slt\n        /* \"#utility.yul\":814:816   */\n      iszero\n      tag_287\n      jumpi\n        /* \"#utility.yul\":862:863   */\n      0x00\n        /* \"#utility.yul\":859:860   */\n      dup1\n        /* \"#utility.yul\":852:864   */\n      revert\n        /* \"#utility.yul\":814:816   */\n    tag_287:\n        /* \"#utility.yul\":905:906   */\n      0x00\n        /* \"#utility.yul\":930:983   */\n      tag_288\n        /* \"#utility.yul\":975:982   */\n      dup5\n        /* \"#utility.yul\":966:972   */\n      dup3\n        /* \"#utility.yul\":955:964   */\n      dup6\n        /* \"#utility.yul\":951:973   */\n      add\n        /* \"#utility.yul\":930:983   */\n      tag_268\n      jump\t// in\n    tag_288:\n        /* \"#utility.yul\":920:983   */\n      swap2\n      pop\n        /* \"#utility.yul\":876:993   */\n      pop\n        /* \"#utility.yul\":804:1000   */\n      swap3\n      swap2\n      pop\n      pop\n      jump\t// out\n        /* \"#utility.yul\":1006:1290   */\n    tag_213:\n      0x00\n        /* \"#utility.yul\":1125:1127   */\n      0x20\n        /* \"#utility.yul\":1113:1122   */\n      dup3\n        /* \"#utility.yul\":1104:1111   */\n      dup5\n        /* \"#utility.yul\":1100:1123   */\n      sub\n        /* \"#utility.yul\":1096:1128   */\n      slt\n        /* \"#utility.yul\":1093:1095   */\n      iszero\n      tag_290\n      jumpi\n        /* \"#utility.yul\":1141:1142   */\n      0x00\n        /* \"#utility.yul\":1138:1139   */\n      dup1\n        /* \"#utility.yul\":1131:1143   */\n      revert\n        /* \"#utility.yul\":1093:1095   */\n    tag_290:\n        /* \"#utility.yul\":1184:1185   */\n      0x00\n        /* \"#utility.yul\":1209:1273   */\n      tag_291\n        /* \"#utility.yul\":1265:1272   */\n      dup5\n        /* \"#utility.yul\":1256:1262   */\n      dup3\n        /* \"#utility.yul\":1245:1254   */\n      dup6\n        /* \"#utility.yul\":1241:1263   */\n      add\n        /* \"#utility.yul\":1209:1273   */\n      tag_272\n      jump\t// in\n    tag_291:\n        /* \"#utility.yul\":1199:1273   */\n      swap2\n      pop\n        /* \"#utility.yul\":1155:1283   */\n      pop\n        /* \"#utility.yul\":1083:1290   */\n      swap3\n      swap2\n      pop\n      pop\n      jump\t// out\n        /* \"#utility.yul\":1296:1574   */\n    tag_235:\n      0x00\n        /* \"#utility.yul\":1412:1414   */\n      0x20\n        /* \"#utility.yul\":1400:1409   */\n      dup3\n        /* \"#utility.yul\":1391:1398   */\n      dup5\n        /* \"#utility.yul\":1387:1410   */\n      sub\n        /* \"#utility.yul\":1383:1415   */\n      slt\n        /* \"#utility.yul\":1380:1382   */\n      iszero\n      tag_293\n      jumpi\n        /* \"#utility.yul\":1428:1429   */\n      0x00\n        /* \"#utility.yul\":1425:1426   */\n      dup1\n        /* \"#utility.yul\":1418:1430   */\n      revert\n        /* \"#utility.yul\":1380:1382   */\n    tag_293:\n        /* \"#utility.yul\":1471:1472   */\n      0x00\n        /* \"#utility.yul\":1496:1557   */\n      tag_294\n        /* \"#utility.yul\":1549:1556   */\n      dup5\n        /* \"#utility.yul\":1540:1546   */\n      dup3\n        /* \"#utility.yul\":1529:1538   */\n      dup6\n        /* \"#utility.yul\":1525:1547   */\n      add\n        /* \"#utility.yul\":1496:1557   */\n      tag_275\n      jump\t// in\n    tag_294:\n        /* \"#utility.yul\":1486:1557   */\n      swap2\n      pop\n        /* \"#utility.yul\":1442:1567   */\n      pop\n        /* \"#utility.yul\":1370:1574   */\n      swap3\n      swap2\n      pop\n      pop\n      jump\t// out\n        /* \"#utility.yul\":1580:1842   */\n    tag_22:\n      0x00\n        /* \"#utility.yul\":1688:1690   */\n      0x20\n        /* \"#utility.yul\":1676:1685   */\n      dup3\n        /* \"#utility.yul\":1667:1674   */\n      dup5\n        /* \"#utility.yul\":1663:1686   */\n      sub\n        /* \"#utility.yul\":1659:1691   */\n      slt\n        /* \"#utility.yul\":1656:1658   */\n      iszero\n      tag_296\n      jumpi\n        /* \"#utility.yul\":1704:1705   */\n      0x00\n        /* \"#utility.yul\":1701:1702   */\n      dup1\n        /* \"#utility.yul\":1694:1706   */\n      revert\n        /* \"#utility.yul\":1656:1658   */\n    tag_296:\n        /* \"#utility.yul\":1747:1748   */\n      0x00\n        /* \"#utility.yul\":1772:1825   */\n      tag_297\n        /* \"#utility.yul\":1817:1824   */\n      dup5\n        /* \"#utility.yul\":1808:1814   */\n      dup3\n        /* \"#utility.yul\":1797:1806   */\n      dup6\n        /* \"#utility.yul\":1793:1815   */\n      add\n        /* \"#utility.yul\":1772:1825   */\n      tag_279\n      jump\t// in\n    tag_297:\n        /* \"#utility.yul\":1762:1825   */\n      swap2\n      pop\n        /* \"#utility.yul\":1718:1835   */\n      pop\n        /* \"#utility.yul\":1646:1842   */\n      swap3\n      swap2\n      pop\n      pop\n      jump\t// out\n        /* \"#utility.yul\":1848:2132   */\n    tag_174:\n      0x00\n        /* \"#utility.yul\":1967:1969   */\n      0x20\n        /* \"#utility.yul\":1955:1964   */\n      dup3\n        /* \"#utility.yul\":1946:1953   */\n      dup5\n        /* \"#utility.yul\":1942:1965   */\n      sub\n        /* \"#utility.yul\":1938:1970   */\n      slt\n        /* \"#utility.yul\":1935:1937   */\n      iszero\n      tag_299\n      jumpi\n        /* \"#utility.yul\":1983:1984   */\n      0x00\n        /* \"#utility.yul\":1980:1981   */\n      dup1\n        /* \"#utility.yul\":1973:1985   */\n      revert\n        /* \"#utility.yul\":1935:1937   */\n    tag_299:\n        /* \"#utility.yul\":2026:2027   */\n      0x00\n        /* \"#utility.yul\":2051:2115   */\n      tag_300\n        /* \"#utility.yul\":2107:2114   */\n      dup5\n        /* \"#utility.yul\":2098:2104   */\n      dup3\n        /* \"#utility.yul\":2087:2096   */\n      dup6\n        /* \"#utility.yul\":2083:2105   */\n      add\n        /* \"#utility.yul\":2051:2115   */\n      tag_283\n      jump\t// in\n    tag_300:\n        /* \"#utility.yul\":2041:2115   */\n      swap2\n      pop\n        /* \"#utility.yul\":1997:2125   */\n      pop\n        /* \"#utility.yul\":1925:2132   */\n      swap3\n      swap2\n      pop\n      pop\n      jump\t// out\n        /* \"#utility.yul\":2138:2433   */\n    tag_301:\n      0x00\n        /* \"#utility.yul\":2286:2390   */\n      tag_303\n        /* \"#utility.yul\":2386:2389   */\n      dup4\n        /* \"#utility.yul\":2378:2384   */\n      dup4\n        /* \"#utility.yul\":2286:2390   */\n      tag_304\n      jump\t// in\n    tag_303:\n        /* \"#utility.yul\":2422:2426   */\n      0x40\n        /* \"#utility.yul\":2417:2420   */\n      dup4\n        /* \"#utility.yul\":2413:2427   */\n      add\n        /* \"#utility.yul\":2399:2427   */\n      swap1\n      pop\n        /* \"#utility.yul\":2276:2433   */\n      swap3\n      swap2\n      pop\n      pop\n      jump\t// out\n        /* \"#utility.yul\":2439:2547   */\n    tag_305:\n        /* \"#utility.yul\":2516:2540   */\n      tag_307\n        /* \"#utility.yul\":2534:2539   */\n      dup2\n        /* \"#utility.yul\":2516:2540   */\n      tag_308\n      jump\t// in\n    tag_307:\n        /* \"#utility.yul\":2511:2514   */\n      dup3\n        /* \"#utility.yul\":2504:2541   */\n      mstore\n        /* \"#utility.yul\":2494:2547   */\n      pop\n      pop\n      jump\t// out\n        /* \"#utility.yul\":2553:2671   */\n    tag_309:\n        /* \"#utility.yul\":2640:2664   */\n      tag_311\n        /* \"#utility.yul\":2658:2663   */\n      dup2\n        /* \"#utility.yul\":2640:2664   */\n      tag_308\n      jump\t// in\n    tag_311:\n        /* \"#utility.yul\":2635:2638   */\n      dup3\n        /* \"#utility.yul\":2628:2665   */\n      mstore\n        /* \"#utility.yul\":2618:2671   */\n      pop\n      pop\n      jump\t// out\n        /* \"#utility.yul\":2739:3703   */\n    tag_312:\n      0x00\n        /* \"#utility.yul\":2945:3028   */\n      tag_314\n        /* \"#utility.yul\":3022:3027   */\n      dup3\n        /* \"#utility.yul\":2945:3028   */\n      tag_315\n      jump\t// in\n    tag_314:\n        /* \"#utility.yul\":3044:3159   */\n      tag_316\n        /* \"#utility.yul\":3152:3158   */\n      dup2\n        /* \"#utility.yul\":3147:3150   */\n      dup6\n        /* \"#utility.yul\":3044:3159   */\n      tag_317\n      jump\t// in\n    tag_316:\n        /* \"#utility.yul\":3037:3159   */\n      swap4\n      pop\n        /* \"#utility.yul\":3183:3268   */\n      tag_318\n        /* \"#utility.yul\":3262:3267   */\n      dup4\n        /* \"#utility.yul\":3183:3268   */\n      tag_319\n      jump\t// in\n    tag_318:\n        /* \"#utility.yul\":3291:3298   */\n      dup1\n        /* \"#utility.yul\":3322:3323   */\n      0x00\n        /* \"#utility.yul\":3307:3678   */\n    tag_320:\n        /* \"#utility.yul\":3332:3338   */\n      dup4\n        /* \"#utility.yul\":3329:3330   */\n      dup2\n        /* \"#utility.yul\":3326:3339   */\n      lt\n        /* \"#utility.yul\":3307:3678   */\n      iszero\n      tag_322\n      jumpi\n        /* \"#utility.yul\":3408:3414   */\n      dup2\n        /* \"#utility.yul\":3402:3415   */\n      mload\n        /* \"#utility.yul\":3435:3556   */\n      tag_323\n        /* \"#utility.yul\":3552:3555   */\n      dup9\n        /* \"#utility.yul\":3537:3550   */\n      dup3\n        /* \"#utility.yul\":3435:3556   */\n      tag_301\n      jump\t// in\n    tag_323:\n        /* \"#utility.yul\":3428:3556   */\n      swap8\n      pop\n        /* \"#utility.yul\":3579:3668   */\n      tag_324\n        /* \"#utility.yul\":3661:3667   */\n      dup4\n        /* \"#utility.yul\":3579:3668   */\n      tag_325\n      jump\t// in\n    tag_324:\n        /* \"#utility.yul\":3569:3668   */\n      swap3\n      pop\n        /* \"#utility.yul\":3367:3678   */\n      pop\n        /* \"#utility.yul\":3354:3355   */\n      0x01\n        /* \"#utility.yul\":3351:3352   */\n      dup2\n        /* \"#utility.yul\":3347:3356   */\n      add\n        /* \"#utility.yul\":3342:3356   */\n      swap1\n      pop\n        /* \"#utility.yul\":3307:3678   */\n      jump(tag_320)\n    tag_322:\n        /* \"#utility.yul\":3311:3325   */\n      pop\n        /* \"#utility.yul\":3694:3697   */\n      dup6\n        /* \"#utility.yul\":3687:3697   */\n      swap4\n      pop\n        /* \"#utility.yul\":2921:3703   */\n      pop\n      pop\n      pop\n      swap3\n      swap2\n      pop\n      pop\n      jump\t// out\n        /* \"#utility.yul\":3709:3818   */\n    tag_326:\n        /* \"#utility.yul\":3790:3811   */\n      tag_328\n        /* \"#utility.yul\":3805:3810   */\n      dup2\n        /* \"#utility.yul\":3790:3811   */\n      tag_329\n      jump\t// in\n    tag_328:\n        /* \"#utility.yul\":3785:3788   */\n      dup3\n        /* \"#utility.yul\":3778:3812   */\n      mstore\n        /* \"#utility.yul\":3768:3818   */\n      pop\n      pop\n      jump\t// out\n        /* \"#utility.yul\":3824:4197   */\n    tag_330:\n      0x00\n        /* \"#utility.yul\":3956:3994   */\n      tag_332\n        /* \"#utility.yul\":3988:3993   */\n      dup3\n        /* \"#utility.yul\":3956:3994   */\n      tag_333\n      jump\t// in\n    tag_332:\n        /* \"#utility.yul\":4010:4098   */\n      tag_334\n        /* \"#utility.yul\":4091:4097   */\n      dup2\n        /* \"#utility.yul\":4086:4089   */\n      dup6\n        /* \"#utility.yul\":4010:4098   */\n      tag_335\n      jump\t// in\n    tag_334:\n        /* \"#utility.yul\":4003:4098   */\n      swap4\n      pop\n        /* \"#utility.yul\":4107:4159   */\n      tag_336\n        /* \"#utility.yul\":4152:4158   */\n      dup2\n        /* \"#utility.yul\":4147:4150   */\n      dup6\n        /* \"#utility.yul\":4140:4144   */\n      0x20\n        /* \"#utility.yul\":4133:4138   */\n      dup7\n        /* \"#utility.yul\":4129:4145   */\n      add\n        /* \"#utility.yul\":4107:4159   */\n      tag_337\n      jump\t// in\n    tag_336:\n        /* \"#utility.yul\":4184:4190   */\n      dup1\n        /* \"#utility.yul\":4179:4182   */\n      dup5\n        /* \"#utility.yul\":4175:4191   */\n      add\n        /* \"#utility.yul\":4168:4191   */\n      swap2\n      pop\n        /* \"#utility.yul\":3932:4197   */\n      pop\n      swap3\n      swap2\n      pop\n      pop\n      jump\t// out\n        /* \"#utility.yul\":4203:4362   */\n    tag_338:\n        /* \"#utility.yul\":4304:4355   */\n      tag_340\n        /* \"#utility.yul\":4349:4354   */\n      dup2\n        /* \"#utility.yul\":4304:4355   */\n      tag_341\n      jump\t// in\n    tag_340:\n        /* \"#utility.yul\":4299:4302   */\n      dup3\n        /* \"#utility.yul\":4292:4356   */\n      mstore\n        /* \"#utility.yul\":4282:4362   */\n      pop\n      pop\n      jump\t// out\n        /* \"#utility.yul\":4368:4529   */\n    tag_342:\n        /* \"#utility.yul\":4470:4522   */\n      tag_344\n        /* \"#utility.yul\":4516:4521   */\n      dup2\n        /* \"#utility.yul\":4470:4522   */\n      tag_345\n      jump\t// in\n    tag_344:\n        /* \"#utility.yul\":4465:4468   */\n      dup3\n        /* \"#utility.yul\":4458:4523   */\n      mstore\n        /* \"#utility.yul\":4448:4529   */\n      pop\n      pop\n      jump\t// out\n        /* \"#utility.yul\":4535:4899   */\n    tag_346:\n      0x00\n        /* \"#utility.yul\":4651:4690   */\n      tag_348\n        /* \"#utility.yul\":4684:4689   */\n      dup3\n        /* \"#utility.yul\":4651:4690   */\n      tag_349\n      jump\t// in\n    tag_348:\n        /* \"#utility.yul\":4706:4777   */\n      tag_350\n        /* \"#utility.yul\":4770:4776   */\n      dup2\n        /* \"#utility.yul\":4765:4768   */\n      dup6\n        /* \"#utility.yul\":4706:4777   */\n      tag_351\n      jump\t// in\n    tag_350:\n        /* \"#utility.yul\":4699:4777   */\n      swap4\n      pop\n        /* \"#utility.yul\":4786:4838   */\n      tag_352\n        /* \"#utility.yul\":4831:4837   */\n      dup2\n        /* \"#utility.yul\":4826:4829   */\n      dup6\n        /* \"#utility.yul\":4819:4823   */\n      0x20\n        /* \"#utility.yul\":4812:4817   */\n      dup7\n        /* \"#utility.yul\":4808:4824   */\n      add\n        /* \"#utility.yul\":4786:4838   */\n      tag_337\n      jump\t// in\n    tag_352:\n        /* \"#utility.yul\":4863:4892   */\n      tag_353\n        /* \"#utility.yul\":4885:4891   */\n      dup2\n        /* \"#utility.yul\":4863:4892   */\n      tag_354\n      jump\t// in\n    tag_353:\n        /* \"#utility.yul\":4858:4861   */\n      dup5\n        /* \"#utility.yul\":4854:4893   */\n      add\n        /* \"#utility.yul\":4847:4893   */\n      swap2\n      pop\n        /* \"#utility.yul\":4627:4899   */\n      pop\n      swap3\n      swap2\n      pop\n      pop\n      jump\t// out\n        /* \"#utility.yul\":4905:5228   */\n    tag_355:\n      0x00\n        /* \"#utility.yul\":5068:5135   */\n      tag_357\n        /* \"#utility.yul\":5132:5134   */\n      0x19\n        /* \"#utility.yul\":5127:5130   */\n      dup4\n        /* \"#utility.yul\":5068:5135   */\n      tag_351\n      jump\t// in\n    tag_357:\n        /* \"#utility.yul\":5061:5135   */\n      swap2\n      pop\n        /* \"#utility.yul\":5165:5192   */\n      0x596f7520646f6e2774206f776e207468697320746f6b656e2100000000000000\n        /* \"#utility.yul\":5161:5162   */\n      0x00\n        /* \"#utility.yul\":5156:5159   */\n      dup4\n        /* \"#utility.yul\":5152:5163   */\n      add\n        /* \"#utility.yul\":5145:5193   */\n      mstore\n        /* \"#utility.yul\":5219:5221   */\n      0x20\n        /* \"#utility.yul\":5214:5217   */\n      dup3\n        /* \"#utility.yul\":5210:5222   */\n      add\n        /* \"#utility.yul\":5203:5222   */\n      swap1\n      pop\n        /* \"#utility.yul\":5051:5228   */\n      swap2\n      swap1\n      pop\n      jump\t// out\n        /* \"#utility.yul\":5234:5552   */\n    tag_358:\n      0x00\n        /* \"#utility.yul\":5397:5464   */\n      tag_360\n        /* \"#utility.yul\":5461:5463   */\n      0x14\n        /* \"#utility.yul\":5456:5459   */\n      dup4\n        /* \"#utility.yul\":5397:5464   */\n      tag_351\n      jump\t// in\n    tag_360:\n        /* \"#utility.yul\":5390:5464   */\n      swap2\n      pop\n        /* \"#utility.yul\":5494:5516   */\n      0x5061757361626c653a206e6f7420706175736564000000000000000000000000\n        /* \"#utility.yul\":5490:5491   */\n      0x00\n        /* \"#utility.yul\":5485:5488   */\n      dup4\n        /* \"#utility.yul\":5481:5492   */\n      add\n        /* \"#utility.yul\":5474:5517   */\n      mstore\n        /* \"#utility.yul\":5543:5545   */\n      0x20\n        /* \"#utility.yul\":5538:5541   */\n      dup3\n        /* \"#utility.yul\":5534:5546   */\n      add\n        /* \"#utility.yul\":5527:5546   */\n      swap1\n      pop\n        /* \"#utility.yul\":5380:5552   */\n      swap2\n      swap1\n      pop\n      jump\t// out\n        /* \"#utility.yul\":5558:5928   */\n    tag_361:\n      0x00\n        /* \"#utility.yul\":5721:5788   */\n      tag_363\n        /* \"#utility.yul\":5785:5787   */\n      0x26\n        /* \"#utility.yul\":5780:5783   */\n      dup4\n        /* \"#utility.yul\":5721:5788   */\n      tag_351\n      jump\t// in\n    tag_363:\n        /* \"#utility.yul\":5714:5788   */\n      swap2\n      pop\n        /* \"#utility.yul\":5818:5852   */\n      0x4f776e61626c653a206e6577206f776e657220697320746865207a65726f2061\n        /* \"#utility.yul\":5814:5815   */\n      0x00\n        /* \"#utility.yul\":5809:5812   */\n      dup4\n        /* \"#utility.yul\":5805:5816   */\n      add\n        /* \"#utility.yul\":5798:5853   */\n      mstore\n        /* \"#utility.yul\":5884:5892   */\n      0x6464726573730000000000000000000000000000000000000000000000000000\n        /* \"#utility.yul\":5879:5881   */\n      0x20\n        /* \"#utility.yul\":5874:5877   */\n      dup4\n        /* \"#utility.yul\":5870:5882   */\n      add\n        /* \"#utility.yul\":5863:5893   */\n      mstore\n        /* \"#utility.yul\":5919:5921   */\n      0x40\n        /* \"#utility.yul\":5914:5917   */\n      dup3\n        /* \"#utility.yul\":5910:5922   */\n      add\n        /* \"#utility.yul\":5903:5922   */\n      swap1\n      pop\n        /* \"#utility.yul\":5704:5928   */\n      swap2\n      swap1\n      pop\n      jump\t// out\n        /* \"#utility.yul\":5934:6257   */\n    tag_364:\n      0x00\n        /* \"#utility.yul\":6097:6164   */\n      tag_366\n        /* \"#utility.yul\":6161:6163   */\n      0x19\n        /* \"#utility.yul\":6156:6159   */\n      dup4\n        /* \"#utility.yul\":6097:6164   */\n      tag_351\n      jump\t// in\n    tag_366:\n        /* \"#utility.yul\":6090:6164   */\n      swap2\n      pop\n        /* \"#utility.yul\":6194:6221   */\n      0x596f752068617665206e6f20746f6b656e73207374616b656400000000000000\n        /* \"#utility.yul\":6190:6191   */\n      0x00\n        /* \"#utility.yul\":6185:6188   */\n      dup4\n        /* \"#utility.yul\":6181:6192   */\n      add\n        /* \"#utility.yul\":6174:6222   */\n      mstore\n        /* \"#utility.yul\":6248:6250   */\n      0x20\n        /* \"#utility.yul\":6243:6246   */\n      dup3\n        /* \"#utility.yul\":6239:6251   */\n      add\n        /* \"#utility.yul\":6232:6251   */\n      swap1\n      pop\n        /* \"#utility.yul\":6080:6257   */\n      swap2\n      swap1\n      pop\n      jump\t// out\n        /* \"#utility.yul\":6263:6633   */\n    tag_367:\n      0x00\n        /* \"#utility.yul\":6426:6493   */\n      tag_369\n        /* \"#utility.yul\":6490:6492   */\n      0x26\n        /* \"#utility.yul\":6485:6488   */\n      dup4\n        /* \"#utility.yul\":6426:6493   */\n      tag_351\n      jump\t// in\n    tag_369:\n        /* \"#utility.yul\":6419:6493   */\n      swap2\n      pop\n        /* \"#utility.yul\":6523:6557   */\n      0x416464726573733a20696e73756666696369656e742062616c616e636520666f\n        /* \"#utility.yul\":6519:6520   */\n      0x00\n        /* \"#utility.yul\":6514:6517   */\n      dup4\n        /* \"#utility.yul\":6510:6521   */\n      add\n        /* \"#utility.yul\":6503:6558   */\n      mstore\n        /* \"#utility.yul\":6589:6597   */\n      0x722063616c6c0000000000000000000000000000000000000000000000000000\n        /* \"#utility.yul\":6584:6586   */\n      0x20\n        /* \"#utility.yul\":6579:6582   */\n      dup4\n        /* \"#utility.yul\":6575:6587   */\n      add\n        /* \"#utility.yul\":6568:6598   */\n      mstore\n        /* \"#utility.yul\":6624:6626   */\n      0x40\n        /* \"#utility.yul\":6619:6622   */\n      dup3\n        /* \"#utility.yul\":6615:6627   */\n      add\n        /* \"#utility.yul\":6608:6627   */\n      swap1\n      pop\n        /* \"#utility.yul\":6409:6633   */\n      swap2\n      swap1\n      pop\n      jump\t// out\n        /* \"#utility.yul\":6639:6953   */\n    tag_370:\n      0x00\n        /* \"#utility.yul\":6802:6869   */\n      tag_372\n        /* \"#utility.yul\":6866:6868   */\n      0x10\n        /* \"#utility.yul\":6861:6864   */\n      dup4\n        /* \"#utility.yul\":6802:6869   */\n      tag_351\n      jump\t// in\n    tag_372:\n        /* \"#utility.yul\":6795:6869   */\n      swap2\n      pop\n        /* \"#utility.yul\":6899:6917   */\n      0x5061757361626c653a2070617573656400000000000000000000000000000000\n        /* \"#utility.yul\":6895:6896   */\n      0x00\n        /* \"#utility.yul\":6890:6893   */\n      dup4\n        /* \"#utility.yul\":6886:6897   */\n      add\n        /* \"#utility.yul\":6879:6918   */\n      mstore\n        /* \"#utility.yul\":6944:6946   */\n      0x20\n        /* \"#utility.yul\":6939:6942   */\n      dup3\n        /* \"#utility.yul\":6935:6947   */\n      add\n        /* \"#utility.yul\":6928:6947   */\n      swap1\n      pop\n        /* \"#utility.yul\":6785:6953   */\n      swap2\n      swap1\n      pop\n      jump\t// out\n        /* \"#utility.yul\":6959:7289   */\n    tag_373:\n      0x00\n        /* \"#utility.yul\":7122:7189   */\n      tag_375\n        /* \"#utility.yul\":7186:7188   */\n      0x20\n        /* \"#utility.yul\":7181:7184   */\n      dup4\n        /* \"#utility.yul\":7122:7189   */\n      tag_351\n      jump\t// in\n    tag_375:\n        /* \"#utility.yul\":7115:7189   */\n      swap2\n      pop\n        /* \"#utility.yul\":7219:7253   */\n      0x4f776e61626c653a2063616c6c6572206973206e6f7420746865206f776e6572\n        /* \"#utility.yul\":7215:7216   */\n      0x00\n        /* \"#utility.yul\":7210:7213   */\n      dup4\n        /* \"#utility.yul\":7206:7217   */\n      add\n        /* \"#utility.yul\":7199:7254   */\n      mstore\n        /* \"#utility.yul\":7280:7282   */\n      0x20\n        /* \"#utility.yul\":7275:7278   */\n      dup3\n        /* \"#utility.yul\":7271:7283   */\n      add\n        /* \"#utility.yul\":7264:7283   */\n      swap1\n      pop\n        /* \"#utility.yul\":7105:7289   */\n      swap2\n      swap1\n      pop\n      jump\t// out\n        /* \"#utility.yul\":7295:7621   */\n    tag_376:\n      0x00\n        /* \"#utility.yul\":7458:7525   */\n      tag_378\n        /* \"#utility.yul\":7522:7524   */\n      0x1c\n        /* \"#utility.yul\":7517:7520   */\n      dup4\n        /* \"#utility.yul\":7458:7525   */\n      tag_351\n      jump\t// in\n    tag_378:\n        /* \"#utility.yul\":7451:7525   */\n      swap2\n      pop\n        /* \"#utility.yul\":7555:7585   */\n      0x596f752068617665206e6f207265776172647320746f20636c61696d00000000\n        /* \"#utility.yul\":7551:7552   */\n      0x00\n        /* \"#utility.yul\":7546:7549   */\n      dup4\n        /* \"#utility.yul\":7542:7553   */\n      add\n        /* \"#utility.yul\":7535:7586   */\n      mstore\n        /* \"#utility.yul\":7612:7614   */\n      0x20\n        /* \"#utility.yul\":7607:7610   */\n      dup3\n        /* \"#utility.yul\":7603:7615   */\n      add\n        /* \"#utility.yul\":7596:7615   */\n      swap1\n      pop\n        /* \"#utility.yul\":7441:7621   */\n      swap2\n      swap1\n      pop\n      jump\t// out\n        /* \"#utility.yul\":7627:7954   */\n    tag_379:\n      0x00\n        /* \"#utility.yul\":7790:7857   */\n      tag_381\n        /* \"#utility.yul\":7854:7856   */\n      0x1d\n        /* \"#utility.yul\":7849:7852   */\n      dup4\n        /* \"#utility.yul\":7790:7857   */\n      tag_351\n      jump\t// in\n    tag_381:\n        /* \"#utility.yul\":7783:7857   */\n      swap2\n      pop\n        /* \"#utility.yul\":7887:7918   */\n      0x416464726573733a2063616c6c20746f206e6f6e2d636f6e7472616374000000\n        /* \"#utility.yul\":7883:7884   */\n      0x00\n        /* \"#utility.yul\":7878:7881   */\n      dup4\n        /* \"#utility.yul\":7874:7885   */\n      add\n        /* \"#utility.yul\":7867:7919   */\n      mstore\n        /* \"#utility.yul\":7945:7947   */\n      0x20\n        /* \"#utility.yul\":7940:7943   */\n      dup3\n        /* \"#utility.yul\":7936:7948   */\n      add\n        /* \"#utility.yul\":7929:7948   */\n      swap1\n      pop\n        /* \"#utility.yul\":7773:7954   */\n      swap2\n      swap1\n      pop\n      jump\t// out\n        /* \"#utility.yul\":7960:8334   */\n    tag_382:\n      0x00\n        /* \"#utility.yul\":8123:8190   */\n      tag_384\n        /* \"#utility.yul\":8187:8189   */\n      0x2a\n        /* \"#utility.yul\":8182:8185   */\n      dup4\n        /* \"#utility.yul\":8123:8190   */\n      tag_351\n      jump\t// in\n    tag_384:\n        /* \"#utility.yul\":8116:8190   */\n      swap2\n      pop\n        /* \"#utility.yul\":8220:8254   */\n      0x5361666545524332303a204552433230206f7065726174696f6e20646964206e\n        /* \"#utility.yul\":8216:8217   */\n      0x00\n        /* \"#utility.yul\":8211:8214   */\n      dup4\n        /* \"#utility.yul\":8207:8218   */\n      add\n        /* \"#utility.yul\":8200:8255   */\n      mstore\n        /* \"#utility.yul\":8286:8298   */\n      0x6f74207375636365656400000000000000000000000000000000000000000000\n        /* \"#utility.yul\":8281:8283   */\n      0x20\n        /* \"#utility.yul\":8276:8279   */\n      dup4\n        /* \"#utility.yul\":8272:8284   */\n      add\n        /* \"#utility.yul\":8265:8299   */\n      mstore\n        /* \"#utility.yul\":8325:8327   */\n      0x40\n        /* \"#utility.yul\":8320:8323   */\n      dup3\n        /* \"#utility.yul\":8316:8328   */\n      add\n        /* \"#utility.yul\":8309:8328   */\n      swap1\n      pop\n        /* \"#utility.yul\":8106:8334   */\n      swap2\n      swap1\n      pop\n      jump\t// out\n        /* \"#utility.yul\":8340:8669   */\n    tag_385:\n      0x00\n        /* \"#utility.yul\":8503:8570   */\n      tag_387\n        /* \"#utility.yul\":8567:8569   */\n      0x1f\n        /* \"#utility.yul\":8562:8565   */\n      dup4\n        /* \"#utility.yul\":8503:8570   */\n      tag_351\n      jump\t// in\n    tag_387:\n        /* \"#utility.yul\":8496:8570   */\n      swap2\n      pop\n        /* \"#utility.yul\":8600:8633   */\n      0x5265656e7472616e637947756172643a207265656e7472616e742063616c6c00\n        /* \"#utility.yul\":8596:8597   */\n      0x00\n        /* \"#utility.yul\":8591:8594   */\n      dup4\n        /* \"#utility.yul\":8587:8598   */\n      add\n        /* \"#utility.yul\":8580:8634   */\n      mstore\n        /* \"#utility.yul\":8660:8662   */\n      0x20\n        /* \"#utility.yul\":8655:8658   */\n      dup3\n        /* \"#utility.yul\":8651:8663   */\n      add\n        /* \"#utility.yul\":8644:8663   */\n      swap1\n      pop\n        /* \"#utility.yul\":8486:8669   */\n      swap2\n      swap1\n      pop\n      jump\t// out\n        /* \"#utility.yul\":8733:9243   */\n    tag_304:\n        /* \"#utility.yul\":8878:8882   */\n      0x40\n        /* \"#utility.yul\":8873:8876   */\n      dup3\n        /* \"#utility.yul\":8869:8883   */\n      add\n        /* \"#utility.yul\":8967:8971   */\n      0x00\n        /* \"#utility.yul\":8960:8965   */\n      dup3\n        /* \"#utility.yul\":8956:8972   */\n      add\n        /* \"#utility.yul\":8950:8973   */\n      mload\n        /* \"#utility.yul\":8986:9049   */\n      tag_389\n        /* \"#utility.yul\":9043:9047   */\n      0x00\n        /* \"#utility.yul\":9038:9041   */\n      dup6\n        /* \"#utility.yul\":9034:9048   */\n      add\n        /* \"#utility.yul\":9020:9032   */\n      dup3\n        /* \"#utility.yul\":8986:9049   */\n      tag_305\n      jump\t// in\n    tag_389:\n        /* \"#utility.yul\":8893:9059   */\n      pop\n        /* \"#utility.yul\":9144:9148   */\n      0x20\n        /* \"#utility.yul\":9137:9142   */\n      dup3\n        /* \"#utility.yul\":9133:9149   */\n      add\n        /* \"#utility.yul\":9127:9150   */\n      mload\n        /* \"#utility.yul\":9163:9226   */\n      tag_390\n        /* \"#utility.yul\":9220:9224   */\n      0x20\n        /* \"#utility.yul\":9215:9218   */\n      dup6\n        /* \"#utility.yul\":9211:9225   */\n      add\n        /* \"#utility.yul\":9197:9209   */\n      dup3\n        /* \"#utility.yul\":9163:9226   */\n      tag_391\n      jump\t// in\n    tag_390:\n        /* \"#utility.yul\":9069:9236   */\n      pop\n        /* \"#utility.yul\":8847:9243   */\n      pop\n      pop\n      pop\n      jump\t// out\n        /* \"#utility.yul\":9249:9357   */\n    tag_391:\n        /* \"#utility.yul\":9326:9350   */\n      tag_393\n        /* \"#utility.yul\":9344:9349   */\n      dup2\n        /* \"#utility.yul\":9326:9350   */\n      tag_394\n      jump\t// in\n    tag_393:\n        /* \"#utility.yul\":9321:9324   */\n      dup3\n        /* \"#utility.yul\":9314:9351   */\n      mstore\n        /* \"#utility.yul\":9304:9357   */\n      pop\n      pop\n      jump\t// out\n        /* \"#utility.yul\":9363:9481   */\n    tag_395:\n        /* \"#utility.yul\":9450:9474   */\n      tag_397\n        /* \"#utility.yul\":9468:9473   */\n      dup2\n        /* \"#utility.yul\":9450:9474   */\n      tag_394\n      jump\t// in\n    tag_397:\n        /* \"#utility.yul\":9445:9448   */\n      dup3\n        /* \"#utility.yul\":9438:9475   */\n      mstore\n        /* \"#utility.yul\":9428:9481   */\n      pop\n      pop\n      jump\t// out\n        /* \"#utility.yul\":9487:9758   */\n    tag_253:\n      0x00\n        /* \"#utility.yul\":9639:9732   */\n      tag_399\n        /* \"#utility.yul\":9728:9731   */\n      dup3\n        /* \"#utility.yul\":9719:9725   */\n      dup5\n        /* \"#utility.yul\":9639:9732   */\n      tag_330\n      jump\t// in\n    tag_399:\n        /* \"#utility.yul\":9632:9732   */\n      swap2\n      pop\n        /* \"#utility.yul\":9749:9752   */\n      dup2\n        /* \"#utility.yul\":9742:9752   */\n      swap1\n      pop\n        /* \"#utility.yul\":9621:9758   */\n      swap3\n      swap2\n      pop\n      pop\n      jump\t// out\n        /* \"#utility.yul\":9764:9986   */\n    tag_45:\n      0x00\n        /* \"#utility.yul\":9895:9897   */\n      0x20\n        /* \"#utility.yul\":9884:9893   */\n      dup3\n        /* \"#utility.yul\":9880:9898   */\n      add\n        /* \"#utility.yul\":9872:9898   */\n      swap1\n      pop\n        /* \"#utility.yul\":9908:9979   */\n      tag_401\n        /* \"#utility.yul\":9976:9977   */\n      0x00\n        /* \"#utility.yul\":9965:9974   */\n      dup4\n        /* \"#utility.yul\":9961:9978   */\n      add\n        /* \"#utility.yul\":9952:9958   */\n      dup5\n        /* \"#utility.yul\":9908:9979   */\n      tag_309\n      jump\t// in\n    tag_401:\n        /* \"#utility.yul\":9862:9986   */\n      swap3\n      swap2\n      pop\n      pop\n      jump\t// out\n        /* \"#utility.yul\":9992:10434   */\n    tag_99:\n      0x00\n        /* \"#utility.yul\":10179:10181   */\n      0x60\n        /* \"#utility.yul\":10168:10177   */\n      dup3\n        /* \"#utility.yul\":10164:10182   */\n      add\n        /* \"#utility.yul\":10156:10182   */\n      swap1\n      pop\n        /* \"#utility.yul\":10192:10263   */\n      tag_403\n        /* \"#utility.yul\":10260:10261   */\n      0x00\n        /* \"#utility.yul\":10249:10258   */\n      dup4\n        /* \"#utility.yul\":10245:10262   */\n      add\n        /* \"#utility.yul\":10236:10242   */\n      dup7\n        /* \"#utility.yul\":10192:10263   */\n      tag_309\n      jump\t// in\n    tag_403:\n        /* \"#utility.yul\":10273:10345   */\n      tag_404\n        /* \"#utility.yul\":10341:10343   */\n      0x20\n        /* \"#utility.yul\":10330:10339   */\n      dup4\n        /* \"#utility.yul\":10326:10344   */\n      add\n        /* \"#utility.yul\":10317:10323   */\n      dup6\n        /* \"#utility.yul\":10273:10345   */\n      tag_309\n      jump\t// in\n    tag_404:\n        /* \"#utility.yul\":10355:10427   */\n      tag_405\n        /* \"#utility.yul\":10423:10425   */\n      0x40\n        /* \"#utility.yul\":10412:10421   */\n      dup4\n        /* \"#utility.yul\":10408:10426   */\n      add\n        /* \"#utility.yul\":10399:10405   */\n      dup5\n        /* \"#utility.yul\":10355:10427   */\n      tag_395\n      jump\t// in\n    tag_405:\n        /* \"#utility.yul\":10146:10434   */\n      swap5\n      swap4\n      pop\n      pop\n      pop\n      pop\n      jump\t// out\n        /* \"#utility.yul\":10440:10772   */\n    tag_192:\n      0x00\n        /* \"#utility.yul\":10599:10601   */\n      0x40\n        /* \"#utility.yul\":10588:10597   */\n      dup3\n        /* \"#utility.yul\":10584:10602   */\n      add\n        /* \"#utility.yul\":10576:10602   */\n      swap1\n      pop\n        /* \"#utility.yul\":10612:10683   */\n      tag_407\n        /* \"#utility.yul\":10680:10681   */\n      0x00\n        /* \"#utility.yul\":10669:10678   */\n      dup4\n        /* \"#utility.yul\":10665:10682   */\n      add\n        /* \"#utility.yul\":10656:10662   */\n      dup6\n        /* \"#utility.yul\":10612:10683   */\n      tag_309\n      jump\t// in\n    tag_407:\n        /* \"#utility.yul\":10693:10765   */\n      tag_408\n        /* \"#utility.yul\":10761:10763   */\n      0x20\n        /* \"#utility.yul\":10750:10759   */\n      dup4\n        /* \"#utility.yul\":10746:10764   */\n      add\n        /* \"#utility.yul\":10737:10743   */\n      dup5\n        /* \"#utility.yul\":10693:10765   */\n      tag_395\n      jump\t// in\n    tag_408:\n        /* \"#utility.yul\":10566:10772   */\n      swap4\n      swap3\n      pop\n      pop\n      pop\n      jump\t// out\n        /* \"#utility.yul\":10778:11267   */\n    tag_35:\n      0x00\n        /* \"#utility.yul\":11017:11019   */\n      0x20\n        /* \"#utility.yul\":11006:11015   */\n      dup3\n        /* \"#utility.yul\":11002:11020   */\n      add\n        /* \"#utility.yul\":10994:11020   */\n      swap1\n      pop\n        /* \"#utility.yul\":11066:11075   */\n      dup2\n        /* \"#utility.yul\":11060:11064   */\n      dup2\n        /* \"#utility.yul\":11056:11076   */\n      sub\n        /* \"#utility.yul\":11052:11053   */\n      0x00\n        /* \"#utility.yul\":11041:11050   */\n      dup4\n        /* \"#utility.yul\":11037:11054   */\n      add\n        /* \"#utility.yul\":11030:11077   */\n      mstore\n        /* \"#utility.yul\":11094:11260   */\n      tag_410\n        /* \"#utility.yul\":11255:11259   */\n      dup2\n        /* \"#utility.yul\":11246:11252   */\n      dup5\n        /* \"#utility.yul\":11094:11260   */\n      tag_312\n      jump\t// in\n    tag_410:\n        /* \"#utility.yul\":11086:11260   */\n      swap1\n      pop\n        /* \"#utility.yul\":10984:11267   */\n      swap3\n      swap2\n      pop\n      pop\n      jump\t// out\n        /* \"#utility.yul\":11273:11483   */\n    tag_29:\n      0x00\n        /* \"#utility.yul\":11398:11400   */\n      0x20\n        /* \"#utility.yul\":11387:11396   */\n      dup3\n        /* \"#utility.yul\":11383:11401   */\n      add\n        /* \"#utility.yul\":11375:11401   */\n      swap1\n      pop\n        /* \"#utility.yul\":11411:11476   */\n      tag_412\n        /* \"#utility.yul\":11473:11474   */\n      0x00\n        /* \"#utility.yul\":11462:11471   */\n      dup4\n        /* \"#utility.yul\":11458:11475   */\n      add\n        /* \"#utility.yul\":11449:11455   */\n      dup5\n        /* \"#utility.yul\":11411:11476   */\n      tag_326\n      jump\t// in\n    tag_412:\n        /* \"#utility.yul\":11365:11483   */\n      swap3\n      swap2\n      pop\n      pop\n      jump\t// out\n        /* \"#utility.yul\":11489:11739   */\n    tag_61:\n      0x00\n        /* \"#utility.yul\":11634:11636   */\n      0x20\n        /* \"#utility.yul\":11623:11632   */\n      dup3\n        /* \"#utility.yul\":11619:11637   */\n      add\n        /* \"#utility.yul\":11611:11637   */\n      swap1\n      pop\n        /* \"#utility.yul\":11647:11732   */\n      tag_414\n        /* \"#utility.yul\":11729:11730   */\n      0x00\n        /* \"#utility.yul\":11718:11727   */\n      dup4\n        /* \"#utility.yul\":11714:11731   */\n      add\n        /* \"#utility.yul\":11705:11711   */\n      dup5\n        /* \"#utility.yul\":11647:11732   */\n      tag_338\n      jump\t// in\n    tag_414:\n        /* \"#utility.yul\":11601:11739   */\n      swap3\n      swap2\n      pop\n      pop\n      jump\t// out\n        /* \"#utility.yul\":11745:11997   */\n    tag_39:\n      0x00\n        /* \"#utility.yul\":11891:11893   */\n      0x20\n        /* \"#utility.yul\":11880:11889   */\n      dup3\n        /* \"#utility.yul\":11876:11894   */\n      add\n        /* \"#utility.yul\":11868:11894   */\n      swap1\n      pop\n        /* \"#utility.yul\":11904:11990   */\n      tag_416\n        /* \"#utility.yul\":11987:11988   */\n      0x00\n        /* \"#utility.yul\":11976:11985   */\n      dup4\n        /* \"#utility.yul\":11972:11989   */\n      add\n        /* \"#utility.yul\":11963:11969   */\n      dup5\n        /* \"#utility.yul\":11904:11990   */\n      tag_342\n      jump\t// in\n    tag_416:\n        /* \"#utility.yul\":11858:11997   */\n      swap3\n      swap2\n      pop\n      pop\n      jump\t// out\n        /* \"#utility.yul\":12003:12316   */\n    tag_266:\n      0x00\n        /* \"#utility.yul\":12154:12156   */\n      0x20\n        /* \"#utility.yul\":12143:12152   */\n      dup3\n        /* \"#utility.yul\":12139:12157   */\n      add\n        /* \"#utility.yul\":12131:12157   */\n      swap1\n      pop\n        /* \"#utility.yul\":12203:12212   */\n      dup2\n        /* \"#utility.yul\":12197:12201   */\n      dup2\n        /* \"#utility.yul\":12193:12213   */\n      sub\n        /* \"#utility.yul\":12189:12190   */\n      0x00\n        /* \"#utility.yul\":12178:12187   */\n      dup4\n        /* \"#utility.yul\":12174:12191   */\n      add\n        /* \"#utility.yul\":12167:12214   */\n      mstore\n        /* \"#utility.yul\":12231:12309   */\n      tag_418\n        /* \"#utility.yul\":12304:12308   */\n      dup2\n        /* \"#utility.yul\":12295:12301   */\n      dup5\n        /* \"#utility.yul\":12231:12309   */\n      tag_346\n      jump\t// in\n    tag_418:\n        /* \"#utility.yul\":12223:12309   */\n      swap1\n      pop\n        /* \"#utility.yul\":12121:12316   */\n      swap3\n      swap2\n      pop\n      pop\n      jump\t// out\n        /* \"#utility.yul\":12322:12741   */\n    tag_81:\n      0x00\n        /* \"#utility.yul\":12526:12528   */\n      0x20\n        /* \"#utility.yul\":12515:12524   */\n      dup3\n        /* \"#utility.yul\":12511:12529   */\n      add\n        /* \"#utility.yul\":12503:12529   */\n      swap1\n      pop\n        /* \"#utility.yul\":12575:12584   */\n      dup2\n        /* \"#utility.yul\":12569:12573   */\n      dup2\n        /* \"#utility.yul\":12565:12585   */\n      sub\n        /* \"#utility.yul\":12561:12562   */\n      0x00\n        /* \"#utility.yul\":12550:12559   */\n      dup4\n        /* \"#utility.yul\":12546:12563   */\n      add\n        /* \"#utility.yul\":12539:12586   */\n      mstore\n        /* \"#utility.yul\":12603:12734   */\n      tag_420\n        /* \"#utility.yul\":12729:12733   */\n      dup2\n        /* \"#utility.yul\":12603:12734   */\n      tag_355\n      jump\t// in\n    tag_420:\n        /* \"#utility.yul\":12595:12734   */\n      swap1\n      pop\n        /* \"#utility.yul\":12493:12741   */\n      swap2\n      swap1\n      pop\n      jump\t// out\n        /* \"#utility.yul\":12747:13166   */\n    tag_229:\n      0x00\n        /* \"#utility.yul\":12951:12953   */\n      0x20\n        /* \"#utility.yul\":12940:12949   */\n      dup3\n        /* \"#utility.yul\":12936:12954   */\n      add\n        /* \"#utility.yul\":12928:12954   */\n      swap1\n      pop\n        /* \"#utility.yul\":13000:13009   */\n      dup2\n        /* \"#utility.yul\":12994:12998   */\n      dup2\n        /* \"#utility.yul\":12990:13010   */\n      sub\n        /* \"#utility.yul\":12986:12987   */\n      0x00\n        /* \"#utility.yul\":12975:12984   */\n      dup4\n        /* \"#utility.yul\":12971:12988   */\n      add\n        /* \"#utility.yul\":12964:13011   */\n      mstore\n        /* \"#utility.yul\":13028:13159   */\n      tag_422\n        /* \"#utility.yul\":13154:13158   */\n      dup2\n        /* \"#utility.yul\":13028:13159   */\n      tag_358\n      jump\t// in\n    tag_422:\n        /* \"#utility.yul\":13020:13159   */\n      swap1\n      pop\n        /* \"#utility.yul\":12918:13166   */\n      swap2\n      swap1\n      pop\n      jump\t// out\n        /* \"#utility.yul\":13172:13591   */\n    tag_158:\n      0x00\n        /* \"#utility.yul\":13376:13378   */\n      0x20\n        /* \"#utility.yul\":13365:13374   */\n      dup3\n        /* \"#utility.yul\":13361:13379   */\n      add\n        /* \"#utility.yul\":13353:13379   */\n      swap1\n      pop\n        /* \"#utility.yul\":13425:13434   */\n      dup2\n        /* \"#utility.yul\":13419:13423   */\n      dup2\n        /* \"#utility.yul\":13415:13435   */\n      sub\n        /* \"#utility.yul\":13411:13412   */\n      0x00\n        /* \"#utility.yul\":13400:13409   */\n      dup4\n        /* \"#utility.yul\":13396:13413   */\n      add\n        /* \"#utility.yul\":13389:13436   */\n      mstore\n        /* \"#utility.yul\":13453:13584   */\n      tag_424\n        /* \"#utility.yul\":13579:13583   */\n      dup2\n        /* \"#utility.yul\":13453:13584   */\n      tag_361\n      jump\t// in\n    tag_424:\n        /* \"#utility.yul\":13445:13584   */\n      swap1\n      pop\n        /* \"#utility.yul\":13343:13591   */\n      swap2\n      swap1\n      pop\n      jump\t// out\n        /* \"#utility.yul\":13597:14016   */\n    tag_78:\n      0x00\n        /* \"#utility.yul\":13801:13803   */\n      0x20\n        /* \"#utility.yul\":13790:13799   */\n      dup3\n        /* \"#utility.yul\":13786:13804   */\n      add\n        /* \"#utility.yul\":13778:13804   */\n      swap1\n      pop\n        /* \"#utility.yul\":13850:13859   */\n      dup2\n        /* \"#utility.yul\":13844:13848   */\n      dup2\n        /* \"#utility.yul\":13840:13860   */\n      sub\n        /* \"#utility.yul\":13836:13837   */\n      0x00\n        /* \"#utility.yul\":13825:13834   */\n      dup4\n        /* \"#utility.yul\":13821:13838   */\n      add\n        /* \"#utility.yul\":13814:13861   */\n      mstore\n        /* \"#utility.yul\":13878:14009   */\n      tag_426\n        /* \"#utility.yul\":14004:14008   */\n      dup2\n        /* \"#utility.yul\":13878:14009   */\n      tag_364\n      jump\t// in\n    tag_426:\n        /* \"#utility.yul\":13870:14009   */\n      swap1\n      pop\n        /* \"#utility.yul\":13768:14016   */\n      swap2\n      swap1\n      pop\n      jump\t// out\n        /* \"#utility.yul\":14022:14441   */\n    tag_246:\n      0x00\n        /* \"#utility.yul\":14226:14228   */\n      0x20\n        /* \"#utility.yul\":14215:14224   */\n      dup3\n        /* \"#utility.yul\":14211:14229   */\n      add\n        /* \"#utility.yul\":14203:14229   */\n      swap1\n      pop\n        /* \"#utility.yul\":14275:14284   */\n      dup2\n        /* \"#utility.yul\":14269:14273   */\n      dup2\n        /* \"#utility.yul\":14265:14285   */\n      sub\n        /* \"#utility.yul\":14261:14262   */\n      0x00\n        /* \"#utility.yul\":14250:14259   */\n      dup4\n        /* \"#utility.yul\":14246:14263   */\n      add\n        /* \"#utility.yul\":14239:14286   */\n      mstore\n        /* \"#utility.yul\":14303:14434   */\n      tag_428\n        /* \"#utility.yul\":14429:14433   */\n      dup2\n        /* \"#utility.yul\":14303:14434   */\n      tag_367\n      jump\t// in\n    tag_428:\n        /* \"#utility.yul\":14295:14434   */\n      swap1\n      pop\n        /* \"#utility.yul\":14193:14441   */\n      swap2\n      swap1\n      pop\n      jump\t// out\n        /* \"#utility.yul\":14447:14866   */\n    tag_206:\n      0x00\n        /* \"#utility.yul\":14651:14653   */\n      0x20\n        /* \"#utility.yul\":14640:14649   */\n      dup3\n        /* \"#utility.yul\":14636:14654   */\n      add\n        /* \"#utility.yul\":14628:14654   */\n      swap1\n      pop\n        /* \"#utility.yul\":14700:14709   */\n      dup2\n        /* \"#utility.yul\":14694:14698   */\n      dup2\n        /* \"#utility.yul\":14690:14710   */\n      sub\n        /* \"#utility.yul\":14686:14687   */\n      0x00\n        /* \"#utility.yul\":14675:14684   */\n      dup4\n        /* \"#utility.yul\":14671:14688   */\n      add\n        /* \"#utility.yul\":14664:14711   */\n      mstore\n        /* \"#utility.yul\":14728:14859   */\n      tag_430\n        /* \"#utility.yul\":14854:14858   */\n      dup2\n        /* \"#utility.yul\":14728:14859   */\n      tag_370\n      jump\t// in\n    tag_430:\n        /* \"#utility.yul\":14720:14859   */\n      swap1\n      pop\n        /* \"#utility.yul\":14618:14866   */\n      swap2\n      swap1\n      pop\n      jump\t// out\n        /* \"#utility.yul\":14872:15291   */\n    tag_200:\n      0x00\n        /* \"#utility.yul\":15076:15078   */\n      0x20\n        /* \"#utility.yul\":15065:15074   */\n      dup3\n        /* \"#utility.yul\":15061:15079   */\n      add\n        /* \"#utility.yul\":15053:15079   */\n      swap1\n      pop\n        /* \"#utility.yul\":15125:15134   */\n      dup2\n        /* \"#utility.yul\":15119:15123   */\n      dup2\n        /* \"#utility.yul\":15115:15135   */\n      sub\n        /* \"#utility.yul\":15111:15112   */\n      0x00\n        /* \"#utility.yul\":15100:15109   */\n      dup4\n        /* \"#utility.yul\":15096:15113   */\n      add\n        /* \"#utility.yul\":15089:15136   */\n      mstore\n        /* \"#utility.yul\":15153:15284   */\n      tag_432\n        /* \"#utility.yul\":15279:15283   */\n      dup2\n        /* \"#utility.yul\":15153:15284   */\n      tag_373\n      jump\t// in\n    tag_432:\n        /* \"#utility.yul\":15145:15284   */\n      swap1\n      pop\n        /* \"#utility.yul\":15043:15291   */\n      swap2\n      swap1\n      pop\n      jump\t// out\n        /* \"#utility.yul\":15297:15716   */\n    tag_110:\n      0x00\n        /* \"#utility.yul\":15501:15503   */\n      0x20\n        /* \"#utility.yul\":15490:15499   */\n      dup3\n        /* \"#utility.yul\":15486:15504   */\n      add\n        /* \"#utility.yul\":15478:15504   */\n      swap1\n      pop\n        /* \"#utility.yul\":15550:15559   */\n      dup2\n        /* \"#utility.yul\":15544:15548   */\n      dup2\n        /* \"#utility.yul\":15540:15560   */\n      sub\n        /* \"#utility.yul\":15536:15537   */\n      0x00\n        /* \"#utility.yul\":15525:15534   */\n      dup4\n        /* \"#utility.yul\":15521:15538   */\n      add\n        /* \"#utility.yul\":15514:15561   */\n      mstore\n        /* \"#utility.yul\":15578:15709   */\n      tag_434\n        /* \"#utility.yul\":15704:15708   */\n      dup2\n        /* \"#utility.yul\":15578:15709   */\n      tag_376\n      jump\t// in\n    tag_434:\n        /* \"#utility.yul\":15570:15709   */\n      swap1\n      pop\n        /* \"#utility.yul\":15468:15716   */\n      swap2\n      swap1\n      pop\n      jump\t// out\n        /* \"#utility.yul\":15722:16141   */\n    tag_251:\n      0x00\n        /* \"#utility.yul\":15926:15928   */\n      0x20\n        /* \"#utility.yul\":15915:15924   */\n      dup3\n        /* \"#utility.yul\":15911:15929   */\n      add\n        /* \"#utility.yul\":15903:15929   */\n      swap1\n      pop\n        /* \"#utility.yul\":15975:15984   */\n      dup2\n        /* \"#utility.yul\":15969:15973   */\n      dup2\n        /* \"#utility.yul\":15965:15985   */\n      sub\n        /* \"#utility.yul\":15961:15962   */\n      0x00\n        /* \"#utility.yul\":15950:15959   */\n      dup4\n        /* \"#utility.yul\":15946:15963   */\n      add\n        /* \"#utility.yul\":15939:15986   */\n      mstore\n        /* \"#utility.yul\":16003:16134   */\n      tag_436\n        /* \"#utility.yul\":16129:16133   */\n      dup2\n        /* \"#utility.yul\":16003:16134   */\n      tag_379\n      jump\t// in\n    tag_436:\n        /* \"#utility.yul\":15995:16134   */\n      swap1\n      pop\n        /* \"#utility.yul\":15893:16141   */\n      swap2\n      swap1\n      pop\n      jump\t// out\n        /* \"#utility.yul\":16147:16566   */\n    tag_238:\n      0x00\n        /* \"#utility.yul\":16351:16353   */\n      0x20\n        /* \"#utility.yul\":16340:16349   */\n      dup3\n        /* \"#utility.yul\":16336:16354   */\n      add\n        /* \"#utility.yul\":16328:16354   */\n      swap1\n      pop\n        /* \"#utility.yul\":16400:16409   */\n      dup2\n        /* \"#utility.yul\":16394:16398   */\n      dup2\n        /* \"#utility.yul\":16390:16410   */\n      sub\n        /* \"#utility.yul\":16386:16387   */\n      0x00\n        /* \"#utility.yul\":16375:16384   */\n      dup4\n        /* \"#utility.yul\":16371:16388   */\n      add\n        /* \"#utility.yul\":16364:16411   */\n      mstore\n        /* \"#utility.yul\":16428:16559   */\n      tag_438\n        /* \"#utility.yul\":16554:16558   */\n      dup2\n        /* \"#utility.yul\":16428:16559   */\n      tag_382\n      jump\t// in\n    tag_438:\n        /* \"#utility.yul\":16420:16559   */\n      swap1\n      pop\n        /* \"#utility.yul\":16318:16566   */\n      swap2\n      swap1\n      pop\n      jump\t// out\n        /* \"#utility.yul\":16572:16991   */\n    tag_179:\n      0x00\n        /* \"#utility.yul\":16776:16778   */\n      0x20\n        /* \"#utility.yul\":16765:16774   */\n      dup3\n        /* \"#utility.yul\":16761:16779   */\n      add\n        /* \"#utility.yul\":16753:16779   */\n      swap1\n      pop\n        /* \"#utility.yul\":16825:16834   */\n      dup2\n        /* \"#utility.yul\":16819:16823   */\n      dup2\n        /* \"#utility.yul\":16815:16835   */\n      sub\n        /* \"#utility.yul\":16811:16812   */\n      0x00\n        /* \"#utility.yul\":16800:16809   */\n      dup4\n        /* \"#utility.yul\":16796:16813   */\n      add\n        /* \"#utility.yul\":16789:16836   */\n      mstore\n        /* \"#utility.yul\":16853:16984   */\n      tag_440\n        /* \"#utility.yul\":16979:16983   */\n      dup2\n        /* \"#utility.yul\":16853:16984   */\n      tag_385\n      jump\t// in\n    tag_440:\n        /* \"#utility.yul\":16845:16984   */\n      swap1\n      pop\n        /* \"#utility.yul\":16743:16991   */\n      swap2\n      swap1\n      pop\n      jump\t// out\n        /* \"#utility.yul\":16997:17219   */\n    tag_69:\n      0x00\n        /* \"#utility.yul\":17128:17130   */\n      0x20\n        /* \"#utility.yul\":17117:17126   */\n      dup3\n        /* \"#utility.yul\":17113:17131   */\n      add\n        /* \"#utility.yul\":17105:17131   */\n      swap1\n      pop\n        /* \"#utility.yul\":17141:17212   */\n      tag_442\n        /* \"#utility.yul\":17209:17210   */\n      0x00\n        /* \"#utility.yul\":17198:17207   */\n      dup4\n        /* \"#utility.yul\":17194:17211   */\n      add\n        /* \"#utility.yul\":17185:17191   */\n      dup5\n        /* \"#utility.yul\":17141:17212   */\n      tag_395\n      jump\t// in\n    tag_442:\n        /* \"#utility.yul\":17095:17219   */\n      swap3\n      swap2\n      pop\n      pop\n      jump\t// out\n        /* \"#utility.yul\":17225:17667   */\n    tag_50:\n      0x00\n        /* \"#utility.yul\":17412:17414   */\n      0x60\n        /* \"#utility.yul\":17401:17410   */\n      dup3\n        /* \"#utility.yul\":17397:17415   */\n      add\n        /* \"#utility.yul\":17389:17415   */\n      swap1\n      pop\n        /* \"#utility.yul\":17425:17496   */\n      tag_444\n        /* \"#utility.yul\":17493:17494   */\n      0x00\n        /* \"#utility.yul\":17482:17491   */\n      dup4\n        /* \"#utility.yul\":17478:17495   */\n      add\n        /* \"#utility.yul\":17469:17475   */\n      dup7\n        /* \"#utility.yul\":17425:17496   */\n      tag_395\n      jump\t// in\n    tag_444:\n        /* \"#utility.yul\":17506:17578   */\n      tag_445\n        /* \"#utility.yul\":17574:17576   */\n      0x20\n        /* \"#utility.yul\":17563:17572   */\n      dup4\n        /* \"#utility.yul\":17559:17577   */\n      add\n        /* \"#utility.yul\":17550:17556   */\n      dup6\n        /* \"#utility.yul\":17506:17578   */\n      tag_395\n      jump\t// in\n    tag_445:\n        /* \"#utility.yul\":17588:17660   */\n      tag_446\n        /* \"#utility.yul\":17656:17658   */\n      0x40\n        /* \"#utility.yul\":17645:17654   */\n      dup4\n        /* \"#utility.yul\":17641:17659   */\n      add\n        /* \"#utility.yul\":17632:17638   */\n      dup5\n        /* \"#utility.yul\":17588:17660   */\n      tag_395\n      jump\t// in\n    tag_446:\n        /* \"#utility.yul\":17379:17667   */\n      swap5\n      swap4\n      pop\n      pop\n      pop\n      pop\n      jump\t// out\n        /* \"#utility.yul\":17673:17834   */\n    tag_319:\n      0x00\n        /* \"#utility.yul\":17792:17795   */\n      dup2\n        /* \"#utility.yul\":17784:17795   */\n      swap1\n      pop\n        /* \"#utility.yul\":17822:17826   */\n      0x20\n        /* \"#utility.yul\":17817:17820   */\n      dup3\n        /* \"#utility.yul\":17813:17827   */\n      add\n        /* \"#utility.yul\":17805:17827   */\n      swap1\n      pop\n        /* \"#utility.yul\":17774:17834   */\n      swap2\n      swap1\n      pop\n      jump\t// out\n        /* \"#utility.yul\":17840:17983   */\n    tag_315:\n      0x00\n        /* \"#utility.yul\":17970:17975   */\n      dup2\n        /* \"#utility.yul\":17964:17976   */\n      mload\n        /* \"#utility.yul\":17954:17976   */\n      swap1\n      pop\n        /* \"#utility.yul\":17943:17983   */\n      swap2\n      swap1\n      pop\n      jump\t// out\n        /* \"#utility.yul\":17989:18087   */\n    tag_333:\n      0x00\n        /* \"#utility.yul\":18074:18079   */\n      dup2\n        /* \"#utility.yul\":18068:18080   */\n      mload\n        /* \"#utility.yul\":18058:18080   */\n      swap1\n      pop\n        /* \"#utility.yul\":18047:18087   */\n      swap2\n      swap1\n      pop\n      jump\t// out\n        /* \"#utility.yul\":18093:18192   */\n    tag_349:\n      0x00\n        /* \"#utility.yul\":18179:18184   */\n      dup2\n        /* \"#utility.yul\":18173:18185   */\n      mload\n        /* \"#utility.yul\":18163:18185   */\n      swap1\n      pop\n        /* \"#utility.yul\":18152:18192   */\n      swap2\n      swap1\n      pop\n      jump\t// out\n        /* \"#utility.yul\":18198:18340   */\n    tag_325:\n      0x00\n        /* \"#utility.yul\":18329:18333   */\n      0x20\n        /* \"#utility.yul\":18324:18327   */\n      dup3\n        /* \"#utility.yul\":18320:18334   */\n      add\n        /* \"#utility.yul\":18312:18334   */\n      swap1\n      pop\n        /* \"#utility.yul\":18302:18340   */\n      swap2\n      swap1\n      pop\n      jump\t// out\n        /* \"#utility.yul\":18346:18559   */\n    tag_317:\n      0x00\n        /* \"#utility.yul\":18508:18514   */\n      dup3\n        /* \"#utility.yul\":18503:18506   */\n      dup3\n        /* \"#utility.yul\":18496:18515   */\n      mstore\n        /* \"#utility.yul\":18548:18552   */\n      0x20\n        /* \"#utility.yul\":18543:18546   */\n      dup3\n        /* \"#utility.yul\":18539:18553   */\n      add\n        /* \"#utility.yul\":18524:18553   */\n      swap1\n      pop\n        /* \"#utility.yul\":18486:18559   */\n      swap3\n      swap2\n      pop\n      pop\n      jump\t// out\n        /* \"#utility.yul\":18565:18712   */\n    tag_335:\n      0x00\n        /* \"#utility.yul\":18703:18706   */\n      dup2\n        /* \"#utility.yul\":18688:18706   */\n      swap1\n      pop\n        /* \"#utility.yul\":18678:18712   */\n      swap3\n      swap2\n      pop\n      pop\n      jump\t// out\n        /* \"#utility.yul\":18718:18887   */\n    tag_351:\n      0x00\n        /* \"#utility.yul\":18836:18842   */\n      dup3\n        /* \"#utility.yul\":18831:18834   */\n      dup3\n        /* \"#utility.yul\":18824:18843   */\n      mstore\n        /* \"#utility.yul\":18876:18880   */\n      0x20\n        /* \"#utility.yul\":18871:18874   */\n      dup3\n        /* \"#utility.yul\":18867:18881   */\n      add\n        /* \"#utility.yul\":18852:18881   */\n      swap1\n      pop\n        /* \"#utility.yul\":18814:18887   */\n      swap3\n      swap2\n      pop\n      pop\n      jump\t// out\n        /* \"#utility.yul\":18893:19198   */\n    tag_85:\n      0x00\n        /* \"#utility.yul\":18952:18972   */\n      tag_456\n        /* \"#utility.yul\":18970:18971   */\n      dup3\n        /* \"#utility.yul\":18952:18972   */\n      tag_394\n      jump\t// in\n    tag_456:\n        /* \"#utility.yul\":18947:18972   */\n      swap2\n      pop\n        /* \"#utility.yul\":18986:19006   */\n      tag_457\n        /* \"#utility.yul\":19004:19005   */\n      dup4\n        /* \"#utility.yul\":18986:19006   */\n      tag_394\n      jump\t// in\n    tag_457:\n        /* \"#utility.yul\":18981:19006   */\n      swap3\n      pop\n        /* \"#utility.yul\":19140:19141   */\n      dup3\n        /* \"#utility.yul\":19072:19138   */\n      0xffffffffffffffffffffffffffffffffffffffffffffffffffffffffffffffff\n        /* \"#utility.yul\":19068:19142   */\n      sub\n        /* \"#utility.yul\":19065:19066   */\n      dup3\n        /* \"#utility.yul\":19062:19143   */\n      gt\n        /* \"#utility.yul\":19059:19061   */\n      iszero\n      tag_458\n      jumpi\n        /* \"#utility.yul\":19146:19164   */\n      tag_459\n      tag_460\n      jump\t// in\n    tag_459:\n        /* \"#utility.yul\":19059:19061   */\n    tag_458:\n        /* \"#utility.yul\":19190:19191   */\n      dup3\n        /* \"#utility.yul\":19187:19188   */\n      dup3\n        /* \"#utility.yul\":19183:19192   */\n      add\n        /* \"#utility.yul\":19176:19192   */\n      swap1\n      pop\n        /* \"#utility.yul\":18937:19198   */\n      swap3\n      swap2\n      pop\n      pop\n      jump\t// out\n        /* \"#utility.yul\":19204:19389   */\n    tag_187:\n      0x00\n        /* \"#utility.yul\":19261:19281   */\n      tag_462\n        /* \"#utility.yul\":19279:19280   */\n      dup3\n        /* \"#utility.yul\":19261:19281   */\n      tag_394\n      jump\t// in\n    tag_462:\n        /* \"#utility.yul\":19256:19281   */\n      swap2\n      pop\n        /* \"#utility.yul\":19295:19315   */\n      tag_463\n        /* \"#utility.yul\":19313:19314   */\n      dup4\n        /* \"#utility.yul\":19295:19315   */\n      tag_394\n      jump\t// in\n    tag_463:\n        /* \"#utility.yul\":19290:19315   */\n      swap3\n      pop\n        /* \"#utility.yul\":19334:19335   */\n      dup3\n        /* \"#utility.yul\":19324:19326   */\n      tag_464\n      jumpi\n        /* \"#utility.yul\":19339:19357   */\n      tag_465\n      tag_466\n      jump\t// in\n    tag_465:\n        /* \"#utility.yul\":19324:19326   */\n    tag_464:\n        /* \"#utility.yul\":19381:19382   */\n      dup3\n        /* \"#utility.yul\":19378:19379   */\n      dup3\n        /* \"#utility.yul\":19374:19383   */\n      div\n        /* \"#utility.yul\":19369:19383   */\n      swap1\n      pop\n        /* \"#utility.yul\":19246:19389   */\n      swap3\n      swap2\n      pop\n      pop\n      jump\t// out\n        /* \"#utility.yul\":19395:19743   */\n    tag_184:\n      0x00\n        /* \"#utility.yul\":19458:19478   */\n      tag_468\n        /* \"#utility.yul\":19476:19477   */\n      dup3\n        /* \"#utility.yul\":19458:19478   */\n      tag_394\n      jump\t// in\n    tag_468:\n        /* \"#utility.yul\":19453:19478   */\n      swap2\n      pop\n        /* \"#utility.yul\":19492:19512   */\n      tag_469\n        /* \"#utility.yul\":19510:19511   */\n      dup4\n        /* \"#utility.yul\":19492:19512   */\n      tag_394\n      jump\t// in\n    tag_469:\n        /* \"#utility.yul\":19487:19512   */\n      swap3\n      pop\n        /* \"#utility.yul\":19680:19681   */\n      dup2\n        /* \"#utility.yul\":19612:19678   */\n      0xffffffffffffffffffffffffffffffffffffffffffffffffffffffffffffffff\n        /* \"#utility.yul\":19608:19682   */\n      div\n        /* \"#utility.yul\":19605:19606   */\n      dup4\n        /* \"#utility.yul\":19602:19683   */\n      gt\n        /* \"#utility.yul\":19597:19598   */\n      dup3\n        /* \"#utility.yul\":19590:19599   */\n      iszero\n        /* \"#utility.yul\":19583:19600   */\n      iszero\n        /* \"#utility.yul\":19579:19684   */\n      and\n        /* \"#utility.yul\":19576:19578   */\n      iszero\n      tag_470\n      jumpi\n        /* \"#utility.yul\":19687:19705   */\n      tag_471\n      tag_460\n      jump\t// in\n    tag_471:\n        /* \"#utility.yul\":19576:19578   */\n    tag_470:\n        /* \"#utility.yul\":19735:19736   */\n      dup3\n        /* \"#utility.yul\":19732:19733   */\n      dup3\n        /* \"#utility.yul\":19728:19737   */\n      mul\n        /* \"#utility.yul\":19717:19737   */\n      swap1\n      pop\n        /* \"#utility.yul\":19443:19743   */\n      swap3\n      swap2\n      pop\n      pop\n      jump\t// out\n        /* \"#utility.yul\":19749:19940   */\n    tag_182:\n      0x00\n        /* \"#utility.yul\":19809:19829   */\n      tag_473\n        /* \"#utility.yul\":19827:19828   */\n      dup3\n        /* \"#utility.yul\":19809:19829   */\n      tag_394\n      jump\t// in\n    tag_473:\n        /* \"#utility.yul\":19804:19829   */\n      swap2\n      pop\n        /* \"#utility.yul\":19843:19863   */\n      tag_474\n        /* \"#utility.yul\":19861:19862   */\n      dup4\n        /* \"#utility.yul\":19843:19863   */\n      tag_394\n      jump\t// in\n    tag_474:\n        /* \"#utility.yul\":19838:19863   */\n      swap3\n      pop\n        /* \"#utility.yul\":19882:19883   */\n      dup3\n        /* \"#utility.yul\":19879:19880   */\n      dup3\n        /* \"#utility.yul\":19876:19884   */\n      lt\n        /* \"#utility.yul\":19873:19875   */\n      iszero\n      tag_475\n      jumpi\n        /* \"#utility.yul\":19887:19905   */\n      tag_476\n      tag_460\n      jump\t// in\n    tag_476:\n        /* \"#utility.yul\":19873:19875   */\n    tag_475:\n        /* \"#utility.yul\":19932:19933   */\n      dup3\n        /* \"#utility.yul\":19929:19930   */\n      dup3\n        /* \"#utility.yul\":19925:19934   */\n      sub\n        /* \"#utility.yul\":19917:19934   */\n      swap1\n      pop\n        /* \"#utility.yul\":19794:19940   */\n      swap3\n      swap2\n      pop\n      pop\n      jump\t// out\n        /* \"#utility.yul\":19946:20042   */\n    tag_308:\n      0x00\n        /* \"#utility.yul\":20012:20036   */\n      tag_478\n        /* \"#utility.yul\":20030:20035   */\n      dup3\n        /* \"#utility.yul\":20012:20036   */\n      tag_479\n      jump\t// in\n    tag_478:\n        /* \"#utility.yul\":20001:20036   */\n      swap1\n      pop\n        /* \"#utility.yul\":19991:20042   */\n      swap2\n      swap1\n      pop\n      jump\t// out\n        /* \"#utility.yul\":20048:20138   */\n    tag_329:\n      0x00\n        /* \"#utility.yul\":20125:20130   */\n      dup2\n        /* \"#utility.yul\":20118:20131   */\n      iszero\n        /* \"#utility.yul\":20111:20132   */\n      iszero\n        /* \"#utility.yul\":20100:20132   */\n      swap1\n      pop\n        /* \"#utility.yul\":20090:20138   */\n      swap2\n      swap1\n      pop\n      jump\t// out\n        /* \"#utility.yul\":20144:20270   */\n    tag_479:\n      0x00\n        /* \"#utility.yul\":20221:20263   */\n      0xffffffffffffffffffffffffffffffffffffffff\n        /* \"#utility.yul\":20214:20219   */\n      dup3\n        /* \"#utility.yul\":20210:20264   */\n      and\n        /* \"#utility.yul\":20199:20264   */\n      swap1\n      pop\n        /* \"#utility.yul\":20189:20270   */\n      swap2\n      swap1\n      pop\n      jump\t// out\n        /* \"#utility.yul\":20276:20353   */\n    tag_394:\n      0x00\n        /* \"#utility.yul\":20342:20347   */\n      dup2\n        /* \"#utility.yul\":20331:20347   */\n      swap1\n      pop\n        /* \"#utility.yul\":20321:20353   */\n      swap2\n      swap1\n      pop\n      jump\t// out\n        /* \"#utility.yul\":20359:20513   */\n    tag_341:\n      0x00\n        /* \"#utility.yul\":20456:20507   */\n      tag_484\n        /* \"#utility.yul\":20501:20506   */\n      dup3\n        /* \"#utility.yul\":20456:20507   */\n      tag_485\n      jump\t// in\n    tag_484:\n        /* \"#utility.yul\":20443:20507   */\n      swap1\n      pop\n        /* \"#utility.yul\":20433:20513   */\n      swap2\n      swap1\n      pop\n      jump\t// out\n        /* \"#utility.yul\":20519:20646   */\n    tag_485:\n      0x00\n        /* \"#utility.yul\":20616:20640   */\n      tag_487\n        /* \"#utility.yul\":20634:20639   */\n      dup3\n        /* \"#utility.yul\":20616:20640   */\n      tag_479\n      jump\t// in\n    tag_487:\n        /* \"#utility.yul\":20603:20640   */\n      swap1\n      pop\n        /* \"#utility.yul\":20593:20646   */\n      swap2\n      swap1\n      pop\n      jump\t// out\n        /* \"#utility.yul\":20652:20808   */\n    tag_345:\n      0x00\n        /* \"#utility.yul\":20750:20802   */\n      tag_489\n        /* \"#utility.yul\":20796:20801   */\n      dup3\n        /* \"#utility.yul\":20750:20802   */\n      tag_490\n      jump\t// in\n    tag_489:\n        /* \"#utility.yul\":20737:20802   */\n      swap1\n      pop\n        /* \"#utility.yul\":20727:20808   */\n      swap2\n      swap1\n      pop\n      jump\t// out\n        /* \"#utility.yul\":20814:20942   */\n    tag_490:\n      0x00\n        /* \"#utility.yul\":20912:20936   */\n      tag_492\n        /* \"#utility.yul\":20930:20935   */\n      dup3\n        /* \"#utility.yul\":20912:20936   */\n      tag_479\n      jump\t// in\n    tag_492:\n        /* \"#utility.yul\":20899:20936   */\n      swap1\n      pop\n        /* \"#utility.yul\":20889:20942   */\n      swap2\n      swap1\n      pop\n      jump\t// out\n        /* \"#utility.yul\":20948:21255   */\n    tag_337:\n        /* \"#utility.yul\":21016:21017   */\n      0x00\n        /* \"#utility.yul\":21026:21139   */\n    tag_494:\n        /* \"#utility.yul\":21040:21046   */\n      dup4\n        /* \"#utility.yul\":21037:21038   */\n      dup2\n        /* \"#utility.yul\":21034:21047   */\n      lt\n        /* \"#utility.yul\":21026:21139   */\n      iszero\n      tag_496\n      jumpi\n        /* \"#utility.yul\":21125:21126   */\n      dup1\n        /* \"#utility.yul\":21120:21123   */\n      dup3\n        /* \"#utility.yul\":21116:21127   */\n      add\n        /* \"#utility.yul\":21110:21128   */\n      mload\n        /* \"#utility.yul\":21106:21107   */\n      dup2\n        /* \"#utility.yul\":21101:21104   */\n      dup5\n        /* \"#utility.yul\":21097:21108   */\n      add\n        /* \"#utility.yul\":21090:21129   */\n      mstore\n        /* \"#utility.yul\":21062:21064   */\n      0x20\n        /* \"#utility.yul\":21059:21060   */\n      dup2\n        /* \"#utility.yul\":21055:21065   */\n      add\n        /* \"#utility.yul\":21050:21065   */\n      swap1\n      pop\n        /* \"#utility.yul\":21026:21139   */\n      jump(tag_494)\n    tag_496:\n        /* \"#utility.yul\":21157:21163   */\n      dup4\n        /* \"#utility.yul\":21154:21155   */\n      dup2\n        /* \"#utility.yul\":21151:21164   */\n      gt\n        /* \"#utility.yul\":21148:21150   */\n      iszero\n      tag_497\n      jumpi\n        /* \"#utility.yul\":21237:21238   */\n      0x00\n        /* \"#utility.yul\":21228:21234   */\n      dup5\n        /* \"#utility.yul\":21223:21226   */\n      dup5\n        /* \"#utility.yul\":21219:21235   */\n      add\n        /* \"#utility.yul\":21212:21239   */\n      mstore\n        /* \"#utility.yul\":21148:21150   */\n    tag_497:\n        /* \"#utility.yul\":20997:21255   */\n      pop\n      pop\n      pop\n      pop\n      jump\t// out\n        /* \"#utility.yul\":21261:21432   */\n    tag_97:\n      0x00\n        /* \"#utility.yul\":21323:21347   */\n      tag_499\n        /* \"#utility.yul\":21341:21346   */\n      dup3\n        /* \"#utility.yul\":21323:21347   */\n      tag_394\n      jump\t// in\n    tag_499:\n        /* \"#utility.yul\":21314:21347   */\n      swap2\n      pop\n        /* \"#utility.yul\":21369:21373   */\n      0x00\n        /* \"#utility.yul\":21362:21367   */\n      dup3\n        /* \"#utility.yul\":21359:21374   */\n      eq\n        /* \"#utility.yul\":21356:21358   */\n      iszero\n      tag_500\n      jumpi\n        /* \"#utility.yul\":21377:21395   */\n      tag_501\n      tag_460\n      jump\t// in\n    tag_501:\n        /* \"#utility.yul\":21356:21358   */\n    tag_500:\n        /* \"#utility.yul\":21424:21425   */\n      0x01\n        /* \"#utility.yul\":21417:21422   */\n      dup3\n        /* \"#utility.yul\":21413:21426   */\n      sub\n        /* \"#utility.yul\":21406:21426   */\n      swap1\n      pop\n        /* \"#utility.yul\":21304:21432   */\n      swap2\n      swap1\n      pop\n      jump\t// out\n        /* \"#utility.yul\":21438:21671   */\n    tag_93:\n      0x00\n        /* \"#utility.yul\":21500:21524   */\n      tag_503\n        /* \"#utility.yul\":21518:21523   */\n      dup3\n        /* \"#utility.yul\":21500:21524   */\n      tag_394\n      jump\t// in\n    tag_503:\n        /* \"#utility.yul\":21491:21524   */\n      swap2\n      pop\n        /* \"#utility.yul\":21546:21612   */\n      0xffffffffffffffffffffffffffffffffffffffffffffffffffffffffffffffff\n        /* \"#utility.yul\":21539:21544   */\n      dup3\n        /* \"#utility.yul\":21536:21613   */\n      eq\n        /* \"#utility.yul\":21533:21535   */\n      iszero\n      tag_504\n      jumpi\n        /* \"#utility.yul\":21616:21634   */\n      tag_505\n      tag_460\n      jump\t// in\n    tag_505:\n        /* \"#utility.yul\":21533:21535   */\n    tag_504:\n        /* \"#utility.yul\":21663:21664   */\n      0x01\n        /* \"#utility.yul\":21656:21661   */\n      dup3\n        /* \"#utility.yul\":21652:21665   */\n      add\n        /* \"#utility.yul\":21645:21665   */\n      swap1\n      pop\n        /* \"#utility.yul\":21481:21671   */\n      swap2\n      swap1\n      pop\n      jump\t// out\n        /* \"#utility.yul\":21677:21857   */\n    tag_460:\n        /* \"#utility.yul\":21725:21802   */\n      0x4e487b7100000000000000000000000000000000000000000000000000000000\n        /* \"#utility.yul\":21722:21723   */\n      0x00\n        /* \"#utility.yul\":21715:21803   */\n      mstore\n        /* \"#utility.yul\":21822:21826   */\n      0x11\n        /* \"#utility.yul\":21819:21820   */\n      0x04\n        /* \"#utility.yul\":21812:21827   */\n      mstore\n        /* \"#utility.yul\":21846:21850   */\n      0x24\n        /* \"#utility.yul\":21843:21844   */\n      0x00\n        /* \"#utility.yul\":21836:21851   */\n      revert\n        /* \"#utility.yul\":21863:22043   */\n    tag_466:\n        /* \"#utility.yul\":21911:21988   */\n      0x4e487b7100000000000000000000000000000000000000000000000000000000\n        /* \"#utility.yul\":21908:21909   */\n      0x00\n        /* \"#utility.yul\":21901:21989   */\n      mstore\n        /* \"#utility.yul\":22008:22012   */\n      0x12\n        /* \"#utility.yul\":22005:22006   */\n      0x04\n        /* \"#utility.yul\":21998:22013   */\n      mstore\n        /* \"#utility.yul\":22032:22036   */\n      0x24\n        /* \"#utility.yul\":22029:22030   */\n      0x00\n        /* \"#utility.yul\":22022:22037   */\n      revert\n        /* \"#utility.yul\":22049:22151   */\n    tag_354:\n      0x00\n        /* \"#utility.yul\":22141:22143   */\n      0x1f\n        /* \"#utility.yul\":22137:22144   */\n      not\n        /* \"#utility.yul\":22132:22134   */\n      0x1f\n        /* \"#utility.yul\":22125:22130   */\n      dup4\n        /* \"#utility.yul\":22121:22135   */\n      add\n        /* \"#utility.yul\":22117:22145   */\n      and\n        /* \"#utility.yul\":22107:22145   */\n      swap1\n      pop\n        /* \"#utility.yul\":22097:22151   */\n      swap2\n      swap1\n      pop\n      jump\t// out\n        /* \"#utility.yul\":22157:22279   */\n    tag_271:\n        /* \"#utility.yul\":22230:22254   */\n      tag_510\n        /* \"#utility.yul\":22248:22253   */\n      dup2\n        /* \"#utility.yul\":22230:22254   */\n      tag_308\n      jump\t// in\n    tag_510:\n        /* \"#utility.yul\":22223:22228   */\n      dup2\n        /* \"#utility.yul\":22220:22255   */\n      eq\n        /* \"#utility.yul\":22210:22212   */\n      tag_511\n      jumpi\n        /* \"#utility.yul\":22269:22270   */\n      0x00\n        /* \"#utility.yul\":22266:22267   */\n      dup1\n        /* \"#utility.yul\":22259:22271   */\n      revert\n        /* \"#utility.yul\":22210:22212   */\n    tag_511:\n        /* \"#utility.yul\":22200:22279   */\n      pop\n      jump\t// out\n        /* \"#utility.yul\":22285:22401   */\n    tag_278:\n        /* \"#utility.yul\":22355:22376   */\n      tag_513\n        /* \"#utility.yul\":22370:22375   */\n      dup2\n        /* \"#utility.yul\":22355:22376   */\n      tag_329\n      jump\t// in\n    tag_513:\n        /* \"#utility.yul\":22348:22353   */\n      dup2\n        /* \"#utility.yul\":22345:22377   */\n      eq\n        /* \"#utility.yul\":22335:22337   */\n      tag_514\n      jumpi\n        /* \"#utility.yul\":22391:22392   */\n      0x00\n        /* \"#utility.yul\":22388:22389   */\n      dup1\n        /* \"#utility.yul\":22381:22393   */\n      revert\n        /* \"#utility.yul\":22335:22337   */\n    tag_514:\n        /* \"#utility.yul\":22325:22401   */\n      pop\n      jump\t// out\n        /* \"#utility.yul\":22407:22529   */\n    tag_282:\n        /* \"#utility.yul\":22480:22504   */\n      tag_516\n        /* \"#utility.yul\":22498:22503   */\n      dup2\n        /* \"#utility.yul\":22480:22504   */\n      tag_394\n      jump\t// in\n    tag_516:\n        /* \"#utility.yul\":22473:22478   */\n      dup2\n        /* \"#utility.yul\":22470:22505   */\n      eq\n        /* \"#utility.yul\":22460:22462   */\n      tag_517\n      jumpi\n        /* \"#utility.yul\":22519:22520   */\n      0x00\n        /* \"#utility.yul\":22516:22517   */\n      dup1\n        /* \"#utility.yul\":22509:22521   */\n      revert\n        /* \"#utility.yul\":22460:22462   */\n    tag_517:\n        /* \"#utility.yul\":22450:22529   */\n      pop\n      jump\t// out\n\n    auxdata: 0xa2646970667358221220cddcee6dfd817547ed4b439668f23c6d86b9894b204fffd2b340e05d24f58acc64736f6c63430008000033\n}\n",
				"bytecode": {
					"linkReferences": {},
					"object": "6080604052620186a06005553480156200001857600080fd5b5060405162002a5c38038062002a5c83398181016040528101906200003e919062000264565b60016000819055506000600160006101000a81548160ff02191690831515021790555062000081620000756200015460201b60201c565b6200015c60201b60201c565b82600360006101000a81548173ffffffffffffffffffffffffffffffffffffffff021916908373ffffffffffffffffffffffffffffffffffffffff16021790555082600460006101000a81548173ffffffffffffffffffffffffffffffffffffffff021916908373ffffffffffffffffffffffffffffffffffffffff16021790555081600260006101000a81548173ffffffffffffffffffffffffffffffffffffffff021916908373ffffffffffffffffffffffffffffffffffffffff160217905550806005819055505050506200035a565b600033905090565b600060018054906101000a900473ffffffffffffffffffffffffffffffffffffffff169050816001806101000a81548173ffffffffffffffffffffffffffffffffffffffff021916908373ffffffffffffffffffffffffffffffffffffffff1602179055508173ffffffffffffffffffffffffffffffffffffffff168173ffffffffffffffffffffffffffffffffffffffff167f8be0079c531659141344cd1fd0a4f28419497f9722a3daafe3b4186f6b6457e060405160405180910390a35050565b60008151905062000230816200030c565b92915050565b600081519050620002478162000326565b92915050565b6000815190506200025e8162000340565b92915050565b6000806000606084860312156200027a57600080fd5b60006200028a868287016200021f565b93505060206200029d8682870162000236565b9250506040620002b0868287016200024d565b9150509250925092565b6000620002c782620002e2565b9050919050565b6000620002db82620002ba565b9050919050565b600073ffffffffffffffffffffffffffffffffffffffff82169050919050565b6000819050919050565b6200031781620002ba565b81146200032357600080fd5b50565b6200033181620002ce565b81146200033d57600080fd5b50565b6200034b8162000302565b81146200035757600080fd5b50565b6126f2806200036a6000396000f3fe608060405234801561001057600080fd5b50600436106100ea5760003560e01c80639168ae721161008c578063d1af0c7d11610066578063d1af0c7d14610227578063f2fde38b14610245578063f854a27f14610261578063f995441b14610291576100ea565b80639168ae72146101a957806394067045146101db578063a694fc3a1461020b576100ea565b806363c28db1116100c857806363c28db1146101335780636588103b14610163578063715018a6146101815780638da5cb5b1461018b576100ea565b80632e1a7d4d146100ef578063372500ab1461010b5780635c975abb14610115575b600080fd5b61010960048036038101906101049190611b7d565b61029b565b005b61011361078a565b005b61011d610906565b60405161012a919061212d565b60405180910390f35b61014d60048036038101906101489190611b02565b61091d565b60405161015a919061210b565b60405180910390f35b61016b610d41565b6040516101789190612163565b60405180910390f35b610189610d67565b005b610193610d7b565b6040516101a09190612090565b60405180910390f35b6101c360048036038101906101be9190611b02565b610da3565b6040516101d29392919061231b565b60405180910390f35b6101f560048036038101906101f09190611b7d565b610dcd565b6040516102029190612090565b60405180910390f35b61022560048036038101906102209190611b7d565b610e00565b005b61022f610e25565b60405161023c9190612148565b60405180910390f35b61025f600480360381019061025a9190611b02565b610e4b565b005b61027b60048036038101906102769190611b02565b610ecf565b6040516102889190612300565b60405180910390f35b610299610f33565b005b6102a3611042565b6000600660003373ffffffffffffffffffffffffffffffffffffffff1673ffffffffffffffffffffffffffffffffffffffff1681526020019081526020016000206000015411610328576040517f08c379a000000000000000000000000000000000000000000000000000000000815260040161031f90612200565b60405180910390fd5b3373ffffffffffffffffffffffffffffffffffffffff166007600083815260200190815260200160002060009054906101000a900473ffffffffffffffffffffffffffffffffffffffff1673ffffffffffffffffffffffffffffffffffffffff16146103c9576040517f08c379a00000000000000000000000000000000000000000000000000000000081526004016103c0906121a0565b60405180910390fd5b60006103d433611092565b905080600660003373ffffffffffffffffffffffffffffffffffffffff1673ffffffffffffffffffffffffffffffffffffffff168152602001908152602001600020600301600082825461042891906123bd565b925050819055506000805b600660003373ffffffffffffffffffffffffffffffffffffffff1673ffffffffffffffffffffffffffffffffffffffff1681526020019081526020016000206001018054905081101561052e5783600660003373ffffffffffffffffffffffffffffffffffffffff1673ffffffffffffffffffffffffffffffffffffffff16815260200190815260200160002060010182815481106104fb577f4e487b7100000000000000000000000000000000000000000000000000000000600052603260045260246000fd5b906000526020600020906002020160010154141561051b5780915061052e565b8080610526906125bf565b915050610433565b506000600660003373ffffffffffffffffffffffffffffffffffffffff1673ffffffffffffffffffffffffffffffffffffffff16815260200190815260200160002060010182815481106105ab577f4e487b7100000000000000000000000000000000000000000000000000000000600052603260045260246000fd5b906000526020600020906002020160000160006101000a81548173ffffffffffffffffffffffffffffffffffffffff021916908373ffffffffffffffffffffffffffffffffffffffff160217905550600660003373ffffffffffffffffffffffffffffffffffffffff1673ffffffffffffffffffffffffffffffffffffffff168152602001908152602001600020600001600081548092919061064d90612595565b919050555060006007600085815260200190815260200160002060006101000a81548173ffffffffffffffffffffffffffffffffffffffff021916908373ffffffffffffffffffffffffffffffffffffffff160217905550600360009054906101000a900473ffffffffffffffffffffffffffffffffffffffff1673ffffffffffffffffffffffffffffffffffffffff166323b872dd3033866040518463ffffffff1660e01b8152600401610704939291906120ab565b600060405180830381600087803b15801561071e57600080fd5b505af1158015610732573d6000803e3d6000fd5b5050505042600660003373ffffffffffffffffffffffffffffffffffffffff1673ffffffffffffffffffffffffffffffffffffffff168152602001908152602001600020600201819055505050610787611150565b50565b6000600660003373ffffffffffffffffffffffffffffffffffffffff1673ffffffffffffffffffffffffffffffffffffffff168152602001908152602001600020600301546107d833611092565b6107e291906123bd565b905060008111610827576040517f08c379a000000000000000000000000000000000000000000000000000000000815260040161081e90612280565b60405180910390fd5b42600660003373ffffffffffffffffffffffffffffffffffffffff1673ffffffffffffffffffffffffffffffffffffffff168152602001908152602001600020600201819055506000600660003373ffffffffffffffffffffffffffffffffffffffff1673ffffffffffffffffffffffffffffffffffffffff168152602001908152602001600020600301819055506109033382600260009054906101000a900473ffffffffffffffffffffffffffffffffffffffff1673ffffffffffffffffffffffffffffffffffffffff1661115a9092919063ffffffff16565b50565b6000600160009054906101000a900460ff16905090565b60606000600660008473ffffffffffffffffffffffffffffffffffffffff1673ffffffffffffffffffffffffffffffffffffffff168152602001908152602001600020600001541115610cbe576000600660008473ffffffffffffffffffffffffffffffffffffffff1673ffffffffffffffffffffffffffffffffffffffff1681526020019081526020016000206000015467ffffffffffffffff8111156109ee577f4e487b7100000000000000000000000000000000000000000000000000000000600052604160045260246000fd5b604051908082528060200260200182016040528015610a2757816020015b610a14611a69565b815260200190600190039081610a0c5790505b5090506000805b600660008673ffffffffffffffffffffffffffffffffffffffff1673ffffffffffffffffffffffffffffffffffffffff16815260200190815260200160002060010180549050811015610cb357600073ffffffffffffffffffffffffffffffffffffffff16600660008773ffffffffffffffffffffffffffffffffffffffff1673ffffffffffffffffffffffffffffffffffffffff1681526020019081526020016000206001018281548110610b0d577f4e487b7100000000000000000000000000000000000000000000000000000000600052603260045260246000fd5b906000526020600020906002020160000160009054906101000a900473ffffffffffffffffffffffffffffffffffffffff1673ffffffffffffffffffffffffffffffffffffffff1614610ca057600660008673ffffffffffffffffffffffffffffffffffffffff1673ffffffffffffffffffffffffffffffffffffffff1681526020019081526020016000206001018181548110610bd4577f4e487b7100000000000000000000000000000000000000000000000000000000600052603260045260246000fd5b90600052602060002090600202016040518060400160405290816000820160009054906101000a900473ffffffffffffffffffffffffffffffffffffffff1673ffffffffffffffffffffffffffffffffffffffff1673ffffffffffffffffffffffffffffffffffffffff168152602001600182015481525050838381518110610c86577f4e487b7100000000000000000000000000000000000000000000000000000000600052603260045260246000fd5b60200260200101819052508180610c9c906125bf565b9250505b8080610cab906125bf565b915050610a2e565b508192505050610d3c565b600067ffffffffffffffff811115610cff577f4e487b7100000000000000000000000000000000000000000000000000000000600052604160045260246000fd5b604051908082528060200260200182016040528015610d3857816020015b610d25611a69565b815260200190600190039081610d1d5790505b5090505b919050565b600360009054906101000a900473ffffffffffffffffffffffffffffffffffffffff1681565b610d6f6111e0565b610d79600061125e565b565b600060018054906101000a900473ffffffffffffffffffffffffffffffffffffffff16905090565b60066020528060005260406000206000915090508060000154908060020154908060030154905083565b60076020528060005260406000206000915054906101000a900473ffffffffffffffffffffffffffffffffffffffff1681565b610e08611042565b610e10611321565b610e1a338261136b565b610e22611150565b50565b600260009054906101000a900473ffffffffffffffffffffffffffffffffffffffff1681565b610e536111e0565b600073ffffffffffffffffffffffffffffffffffffffff168173ffffffffffffffffffffffffffffffffffffffff161415610ec3576040517f08c379a0000000000000000000000000000000000000000000000000000000008152600401610eba906121e0565b60405180910390fd5b610ecc8161125e565b50565b600080600660008473ffffffffffffffffffffffffffffffffffffffff1673ffffffffffffffffffffffffffffffffffffffff16815260200190815260200160002060030154610f1e84611092565b610f2891906123bd565b905080915050919050565b610f3b6111e0565b610f436117ab565b6000600260009054906101000a900473ffffffffffffffffffffffffffffffffffffffff1673ffffffffffffffffffffffffffffffffffffffff166370a08231306040518263ffffffff1660e01b8152600401610fa09190612090565b60206040518083038186803b158015610fb857600080fd5b505afa158015610fcc573d6000803e3d6000fd5b505050506040513d601f19601f82011682018060405250810190610ff09190611ba6565b905061103f3382600260009054906101000a900473ffffffffffffffffffffffffffffffffffffffff1673ffffffffffffffffffffffffffffffffffffffff1661115a9092919063ffffffff16565b50565b60026000541415611088576040517f08c379a000000000000000000000000000000000000000000000000000000000815260040161107f906122e0565b60405180910390fd5b6002600081905550565b6000610e10600554600660008573ffffffffffffffffffffffffffffffffffffffff1673ffffffffffffffffffffffffffffffffffffffff16815260200190815260200160002060000154600660008673ffffffffffffffffffffffffffffffffffffffff1673ffffffffffffffffffffffffffffffffffffffff168152602001908152602001600020600201544261112b919061249e565b6111359190612444565b61113f9190612444565b6111499190612413565b9050919050565b6001600081905550565b6111db8363a9059cbb60e01b84846040516024016111799291906120e2565b604051602081830303815290604052907bffffffffffffffffffffffffffffffffffffffffffffffffffffffff19166020820180517bffffffffffffffffffffffffffffffffffffffffffffffffffffffff83818316178352505050506117f4565b505050565b6111e86118bb565b73ffffffffffffffffffffffffffffffffffffffff16611206610d7b565b73ffffffffffffffffffffffffffffffffffffffff161461125c576040517f08c379a000000000000000000000000000000000000000000000000000000000815260040161125390612260565b60405180910390fd5b565b600060018054906101000a900473ffffffffffffffffffffffffffffffffffffffff169050816001806101000a81548173ffffffffffffffffffffffffffffffffffffffff021916908373ffffffffffffffffffffffffffffffffffffffff1602179055508173ffffffffffffffffffffffffffffffffffffffff168173ffffffffffffffffffffffffffffffffffffffff167f8be0079c531659141344cd1fd0a4f28419497f9722a3daafe3b4186f6b6457e060405160405180910390a35050565b611329610906565b15611369576040517f08c379a000000000000000000000000000000000000000000000000000000000815260040161136090612240565b60405180910390fd5b565b8173ffffffffffffffffffffffffffffffffffffffff16600360009054906101000a900473ffffffffffffffffffffffffffffffffffffffff1673ffffffffffffffffffffffffffffffffffffffff16636352211e836040518263ffffffff1660e01b81526004016113dd9190612300565b60206040518083038186803b1580156113f557600080fd5b505afa158015611409573d6000803e3d6000fd5b505050506040513d601f19601f8201168201806040525081019061142d9190611b2b565b73ffffffffffffffffffffffffffffffffffffffff1614611483576040517f08c379a000000000000000000000000000000000000000000000000000000000815260040161147a906121a0565b60405180910390fd5b6000600660008473ffffffffffffffffffffffffffffffffffffffff1673ffffffffffffffffffffffffffffffffffffffff1681526020019081526020016000206000015411156115365760006114d983611092565b905080600660008573ffffffffffffffffffffffffffffffffffffffff1673ffffffffffffffffffffffffffffffffffffffff168152602001908152602001600020600301600082825461152d91906123bd565b92505081905550505b600360009054906101000a900473ffffffffffffffffffffffffffffffffffffffff1673ffffffffffffffffffffffffffffffffffffffff166323b872dd8330846040518463ffffffff1660e01b8152600401611595939291906120ab565b600060405180830381600087803b1580156115af57600080fd5b505af11580156115c3573d6000803e3d6000fd5b50505050600060405180604001604052808473ffffffffffffffffffffffffffffffffffffffff168152602001838152509050600660008473ffffffffffffffffffffffffffffffffffffffff1673ffffffffffffffffffffffffffffffffffffffff16815260200190815260200160002060010181908060018154018082558091505060019003906000526020600020906002020160009091909190915060008201518160000160006101000a81548173ffffffffffffffffffffffffffffffffffffffff021916908373ffffffffffffffffffffffffffffffffffffffff160217905550602082015181600101555050600660008473ffffffffffffffffffffffffffffffffffffffff1673ffffffffffffffffffffffffffffffffffffffff1681526020019081526020016000206000016000815480929190611708906125bf565b9190505550826007600084815260200190815260200160002060006101000a81548173ffffffffffffffffffffffffffffffffffffffff021916908373ffffffffffffffffffffffffffffffffffffffff16021790555042600660008573ffffffffffffffffffffffffffffffffffffffff1673ffffffffffffffffffffffffffffffffffffffff16815260200190815260200160002060020181905550505050565b6117b3610906565b6117f2576040517f08c379a00000000000000000000000000000000000000000000000000000000081526004016117e9906121c0565b60405180910390fd5b565b6000611856826040518060400160405280602081526020017f5361666545524332303a206c6f772d6c6576656c2063616c6c206661696c65648152508573ffffffffffffffffffffffffffffffffffffffff166118c39092919063ffffffff16565b90506000815111156118b657808060200190518101906118769190611b54565b6118b5576040517f08c379a00000000000000000000000000000000000000000000000000000000081526004016118ac906122c0565b60405180910390fd5b5b505050565b600033905090565b60606118d284846000856118db565b90509392505050565b606082471015611920576040517f08c379a000000000000000000000000000000000000000000000000000000000815260040161191790612220565b60405180910390fd5b611929856119ef565b611968576040517f08c379a000000000000000000000000000000000000000000000000000000000815260040161195f906122a0565b60405180910390fd5b6000808673ffffffffffffffffffffffffffffffffffffffff1685876040516119919190612079565b60006040518083038185875af1925050503d80600081146119ce576040519150601f19603f3d011682016040523d82523d6000602084013e6119d3565b606091505b50915091506119e3828286611a02565b92505050949350505050565b600080823b905060008111915050919050565b60608315611a1257829050611a62565b600083511115611a255782518084602001fd5b816040517f08c379a0000000000000000000000000000000000000000000000000000000008152600401611a59919061217e565b60405180910390fd5b9392505050565b6040518060400160405280600073ffffffffffffffffffffffffffffffffffffffff168152602001600081525090565b600081359050611aa881612677565b92915050565b600081519050611abd81612677565b92915050565b600081519050611ad28161268e565b92915050565b600081359050611ae7816126a5565b92915050565b600081519050611afc816126a5565b92915050565b600060208284031215611b1457600080fd5b6000611b2284828501611a99565b91505092915050565b600060208284031215611b3d57600080fd5b6000611b4b84828501611aae565b91505092915050565b600060208284031215611b6657600080fd5b6000611b7484828501611ac3565b91505092915050565b600060208284031215611b8f57600080fd5b6000611b9d84828501611ad8565b91505092915050565b600060208284031215611bb857600080fd5b6000611bc684828501611aed565b91505092915050565b6000611bdb838361202c565b60408301905092915050565b611bf0816124d2565b82525050565b611bff816124d2565b82525050565b6000611c1082612362565b611c1a8185612390565b9350611c2583612352565b8060005b83811015611c56578151611c3d8882611bcf565b9750611c4883612383565b925050600181019050611c29565b5085935050505092915050565b611c6c816124e4565b82525050565b6000611c7d8261236d565b611c8781856123a1565b9350611c97818560208601612562565b80840191505092915050565b611cac8161251a565b82525050565b611cbb8161253e565b82525050565b6000611ccc82612378565b611cd681856123ac565b9350611ce6818560208601612562565b611cef81612666565b840191505092915050565b6000611d076019836123ac565b91507f596f7520646f6e2774206f776e207468697320746f6b656e21000000000000006000830152602082019050919050565b6000611d476014836123ac565b91507f5061757361626c653a206e6f74207061757365640000000000000000000000006000830152602082019050919050565b6000611d876026836123ac565b91507f4f776e61626c653a206e6577206f776e657220697320746865207a65726f206160008301527f64647265737300000000000000000000000000000000000000000000000000006020830152604082019050919050565b6000611ded6019836123ac565b91507f596f752068617665206e6f20746f6b656e73207374616b6564000000000000006000830152602082019050919050565b6000611e2d6026836123ac565b91507f416464726573733a20696e73756666696369656e742062616c616e636520666f60008301527f722063616c6c00000000000000000000000000000000000000000000000000006020830152604082019050919050565b6000611e936010836123ac565b91507f5061757361626c653a20706175736564000000000000000000000000000000006000830152602082019050919050565b6000611ed36020836123ac565b91507f4f776e61626c653a2063616c6c6572206973206e6f7420746865206f776e65726000830152602082019050919050565b6000611f13601c836123ac565b91507f596f752068617665206e6f207265776172647320746f20636c61696d000000006000830152602082019050919050565b6000611f53601d836123ac565b91507f416464726573733a2063616c6c20746f206e6f6e2d636f6e74726163740000006000830152602082019050919050565b6000611f93602a836123ac565b91507f5361666545524332303a204552433230206f7065726174696f6e20646964206e60008301527f6f742073756363656564000000000000000000000000000000000000000000006020830152604082019050919050565b6000611ff9601f836123ac565b91507f5265656e7472616e637947756172643a207265656e7472616e742063616c6c006000830152602082019050919050565b6040820160008201516120426000850182611be7565b506020820151612055602085018261205b565b50505050565b61206481612510565b82525050565b61207381612510565b82525050565b60006120858284611c72565b915081905092915050565b60006020820190506120a56000830184611bf6565b92915050565b60006060820190506120c06000830186611bf6565b6120cd6020830185611bf6565b6120da604083018461206a565b949350505050565b60006040820190506120f76000830185611bf6565b612104602083018461206a565b9392505050565b600060208201905081810360008301526121258184611c05565b905092915050565b60006020820190506121426000830184611c63565b92915050565b600060208201905061215d6000830184611ca3565b92915050565b60006020820190506121786000830184611cb2565b92915050565b600060208201905081810360008301526121988184611cc1565b905092915050565b600060208201905081810360008301526121b981611cfa565b9050919050565b600060208201905081810360008301526121d981611d3a565b9050919050565b600060208201905081810360008301526121f981611d7a565b9050919050565b6000602082019050818103600083015261221981611de0565b9050919050565b6000602082019050818103600083015261223981611e20565b9050919050565b6000602082019050818103600083015261225981611e86565b9050919050565b6000602082019050818103600083015261227981611ec6565b9050919050565b6000602082019050818103600083015261229981611f06565b9050919050565b600060208201905081810360008301526122b981611f46565b9050919050565b600060208201905081810360008301526122d981611f86565b9050919050565b600060208201905081810360008301526122f981611fec565b9050919050565b6000602082019050612315600083018461206a565b92915050565b6000606082019050612330600083018661206a565b61233d602083018561206a565b61234a604083018461206a565b949350505050565b6000819050602082019050919050565b600081519050919050565b600081519050919050565b600081519050919050565b6000602082019050919050565b600082825260208201905092915050565b600081905092915050565b600082825260208201905092915050565b60006123c882612510565b91506123d383612510565b9250827fffffffffffffffffffffffffffffffffffffffffffffffffffffffffffffffff0382111561240857612407612608565b5b828201905092915050565b600061241e82612510565b915061242983612510565b92508261243957612438612637565b5b828204905092915050565b600061244f82612510565b915061245a83612510565b9250817fffffffffffffffffffffffffffffffffffffffffffffffffffffffffffffffff048311821515161561249357612492612608565b5b828202905092915050565b60006124a982612510565b91506124b483612510565b9250828210156124c7576124c6612608565b5b828203905092915050565b60006124dd826124f0565b9050919050565b60008115159050919050565b600073ffffffffffffffffffffffffffffffffffffffff82169050919050565b6000819050919050565b60006125258261252c565b9050919050565b6000612537826124f0565b9050919050565b600061254982612550565b9050919050565b600061255b826124f0565b9050919050565b60005b83811015612580578082015181840152602081019050612565565b8381111561258f576000848401525b50505050565b60006125a082612510565b915060008214156125b4576125b3612608565b5b600182039050919050565b60006125ca82612510565b91507fffffffffffffffffffffffffffffffffffffffffffffffffffffffffffffffff8214156125fd576125fc612608565b5b600182019050919050565b7f4e487b7100000000000000000000000000000000000000000000000000000000600052601160045260246000fd5b7f4e487b7100000000000000000000000000000000000000000000000000000000600052601260045260246000fd5b6000601f19601f8301169050919050565b612680816124d2565b811461268b57600080fd5b50565b612697816124e4565b81146126a257600080fd5b50565b6126ae81612510565b81146126b957600080fd5b5056fea2646970667358221220cddcee6dfd817547ed4b439668f23c6d86b9894b204fffd2b340e05d24f58acc64736f6c63430008000033",
					"opcodes": "PUSH1 0x80 PUSH1 0x40 MSTORE PUSH3 0x186A0 PUSH1 0x5 SSTORE CALLVALUE DUP1 ISZERO PUSH3 0x18 JUMPI PUSH1 0x0 DUP1 REVERT JUMPDEST POP PUSH1 0x40 MLOAD PUSH3 0x2A5C CODESIZE SUB DUP1 PUSH3 0x2A5C DUP4 CODECOPY DUP2 DUP2 ADD PUSH1 0x40 MSTORE DUP2 ADD SWAP1 PUSH3 0x3E SWAP2 SWAP1 PUSH3 0x264 JUMP JUMPDEST PUSH1 0x1 PUSH1 0x0 DUP2 SWAP1 SSTORE POP PUSH1 0x0 PUSH1 0x1 PUSH1 0x0 PUSH2 0x100 EXP DUP2 SLOAD DUP2 PUSH1 0xFF MUL NOT AND SWAP1 DUP4 ISZERO ISZERO MUL OR SWAP1 SSTORE POP PUSH3 0x81 PUSH3 0x75 PUSH3 0x154 PUSH1 0x20 SHL PUSH1 0x20 SHR JUMP JUMPDEST PUSH3 0x15C PUSH1 0x20 SHL PUSH1 0x20 SHR JUMP JUMPDEST DUP3 PUSH1 0x3 PUSH1 0x0 PUSH2 0x100 EXP DUP2 SLOAD DUP2 PUSH20 0xFFFFFFFFFFFFFFFFFFFFFFFFFFFFFFFFFFFFFFFF MUL NOT AND SWAP1 DUP4 PUSH20 0xFFFFFFFFFFFFFFFFFFFFFFFFFFFFFFFFFFFFFFFF AND MUL OR SWAP1 SSTORE POP DUP3 PUSH1 0x4 PUSH1 0x0 PUSH2 0x100 EXP DUP2 SLOAD DUP2 PUSH20 0xFFFFFFFFFFFFFFFFFFFFFFFFFFFFFFFFFFFFFFFF MUL NOT AND SWAP1 DUP4 PUSH20 0xFFFFFFFFFFFFFFFFFFFFFFFFFFFFFFFFFFFFFFFF AND MUL OR SWAP1 SSTORE POP DUP2 PUSH1 0x2 PUSH1 0x0 PUSH2 0x100 EXP DUP2 SLOAD DUP2 PUSH20 0xFFFFFFFFFFFFFFFFFFFFFFFFFFFFFFFFFFFFFFFF MUL NOT AND SWAP1 DUP4 PUSH20 0xFFFFFFFFFFFFFFFFFFFFFFFFFFFFFFFFFFFFFFFF AND MUL OR SWAP1 SSTORE POP DUP1 PUSH1 0x5 DUP2 SWAP1 SSTORE POP POP POP POP PUSH3 0x35A JUMP JUMPDEST PUSH1 0x0 CALLER SWAP1 POP SWAP1 JUMP JUMPDEST PUSH1 0x0 PUSH1 0x1 DUP1 SLOAD SWAP1 PUSH2 0x100 EXP SWAP1 DIV PUSH20 0xFFFFFFFFFFFFFFFFFFFFFFFFFFFFFFFFFFFFFFFF AND SWAP1 POP DUP2 PUSH1 0x1 DUP1 PUSH2 0x100 EXP DUP2 SLOAD DUP2 PUSH20 0xFFFFFFFFFFFFFFFFFFFFFFFFFFFFFFFFFFFFFFFF MUL NOT AND SWAP1 DUP4 PUSH20 0xFFFFFFFFFFFFFFFFFFFFFFFFFFFFFFFFFFFFFFFF AND MUL OR SWAP1 SSTORE POP DUP2 PUSH20 0xFFFFFFFFFFFFFFFFFFFFFFFFFFFFFFFFFFFFFFFF AND DUP2 PUSH20 0xFFFFFFFFFFFFFFFFFFFFFFFFFFFFFFFFFFFFFFFF AND PUSH32 0x8BE0079C531659141344CD1FD0A4F28419497F9722A3DAAFE3B4186F6B6457E0 PUSH1 0x40 MLOAD PUSH1 0x40 MLOAD DUP1 SWAP2 SUB SWAP1 LOG3 POP POP JUMP JUMPDEST PUSH1 0x0 DUP2 MLOAD SWAP1 POP PUSH3 0x230 DUP2 PUSH3 0x30C JUMP JUMPDEST SWAP3 SWAP2 POP POP JUMP JUMPDEST PUSH1 0x0 DUP2 MLOAD SWAP1 POP PUSH3 0x247 DUP2 PUSH3 0x326 JUMP JUMPDEST SWAP3 SWAP2 POP POP JUMP JUMPDEST PUSH1 0x0 DUP2 MLOAD SWAP1 POP PUSH3 0x25E DUP2 PUSH3 0x340 JUMP JUMPDEST SWAP3 SWAP2 POP POP JUMP JUMPDEST PUSH1 0x0 DUP1 PUSH1 0x0 PUSH1 0x60 DUP5 DUP7 SUB SLT ISZERO PUSH3 0x27A JUMPI PUSH1 0x0 DUP1 REVERT JUMPDEST PUSH1 0x0 PUSH3 0x28A DUP7 DUP3 DUP8 ADD PUSH3 0x21F JUMP JUMPDEST SWAP4 POP POP PUSH1 0x20 PUSH3 0x29D DUP7 DUP3 DUP8 ADD PUSH3 0x236 JUMP JUMPDEST SWAP3 POP POP PUSH1 0x40 PUSH3 0x2B0 DUP7 DUP3 DUP8 ADD PUSH3 0x24D JUMP JUMPDEST SWAP2 POP POP SWAP3 POP SWAP3 POP SWAP3 JUMP JUMPDEST PUSH1 0x0 PUSH3 0x2C7 DUP3 PUSH3 0x2E2 JUMP JUMPDEST SWAP1 POP SWAP2 SWAP1 POP JUMP JUMPDEST PUSH1 0x0 PUSH3 0x2DB DUP3 PUSH3 0x2BA JUMP JUMPDEST SWAP1 POP SWAP2 SWAP1 POP JUMP JUMPDEST PUSH1 0x0 PUSH20 0xFFFFFFFFFFFFFFFFFFFFFFFFFFFFFFFFFFFFFFFF DUP3 AND SWAP1 POP SWAP2 SWAP1 POP JUMP JUMPDEST PUSH1 0x0 DUP2 SWAP1 POP SWAP2 SWAP1 POP JUMP JUMPDEST PUSH3 0x317 DUP2 PUSH3 0x2BA JUMP JUMPDEST DUP2 EQ PUSH3 0x323 JUMPI PUSH1 0x0 DUP1 REVERT JUMPDEST POP JUMP JUMPDEST PUSH3 0x331 DUP2 PUSH3 0x2CE JUMP JUMPDEST DUP2 EQ PUSH3 0x33D JUMPI PUSH1 0x0 DUP1 REVERT JUMPDEST POP JUMP JUMPDEST PUSH3 0x34B DUP2 PUSH3 0x302 JUMP JUMPDEST DUP2 EQ PUSH3 0x357 JUMPI PUSH1 0x0 DUP1 REVERT JUMPDEST POP JUMP JUMPDEST PUSH2 0x26F2 DUP1 PUSH3 0x36A PUSH1 0x0 CODECOPY PUSH1 0x0 RETURN INVALID PUSH1 0x80 PUSH1 0x40 MSTORE CALLVALUE DUP1 ISZERO PUSH2 0x10 JUMPI PUSH1 0x0 DUP1 REVERT JUMPDEST POP PUSH1 0x4 CALLDATASIZE LT PUSH2 0xEA JUMPI PUSH1 0x0 CALLDATALOAD PUSH1 0xE0 SHR DUP1 PUSH4 0x9168AE72 GT PUSH2 0x8C JUMPI DUP1 PUSH4 0xD1AF0C7D GT PUSH2 0x66 JUMPI DUP1 PUSH4 0xD1AF0C7D EQ PUSH2 0x227 JUMPI DUP1 PUSH4 0xF2FDE38B EQ PUSH2 0x245 JUMPI DUP1 PUSH4 0xF854A27F EQ PUSH2 0x261 JUMPI DUP1 PUSH4 0xF995441B EQ PUSH2 0x291 JUMPI PUSH2 0xEA JUMP JUMPDEST DUP1 PUSH4 0x9168AE72 EQ PUSH2 0x1A9 JUMPI DUP1 PUSH4 0x94067045 EQ PUSH2 0x1DB JUMPI DUP1 PUSH4 0xA694FC3A EQ PUSH2 0x20B JUMPI PUSH2 0xEA JUMP JUMPDEST DUP1 PUSH4 0x63C28DB1 GT PUSH2 0xC8 JUMPI DUP1 PUSH4 0x63C28DB1 EQ PUSH2 0x133 JUMPI DUP1 PUSH4 0x6588103B EQ PUSH2 0x163 JUMPI DUP1 PUSH4 0x715018A6 EQ PUSH2 0x181 JUMPI DUP1 PUSH4 0x8DA5CB5B EQ PUSH2 0x18B JUMPI PUSH2 0xEA JUMP JUMPDEST DUP1 PUSH4 0x2E1A7D4D EQ PUSH2 0xEF JUMPI DUP1 PUSH4 0x372500AB EQ PUSH2 0x10B JUMPI DUP1 PUSH4 0x5C975ABB EQ PUSH2 0x115 JUMPI JUMPDEST PUSH1 0x0 DUP1 REVERT JUMPDEST PUSH2 0x109 PUSH1 0x4 DUP1 CALLDATASIZE SUB DUP2 ADD SWAP1 PUSH2 0x104 SWAP2 SWAP1 PUSH2 0x1B7D JUMP JUMPDEST PUSH2 0x29B JUMP JUMPDEST STOP JUMPDEST PUSH2 0x113 PUSH2 0x78A JUMP JUMPDEST STOP JUMPDEST PUSH2 0x11D PUSH2 0x906 JUMP JUMPDEST PUSH1 0x40 MLOAD PUSH2 0x12A SWAP2 SWAP1 PUSH2 0x212D JUMP JUMPDEST PUSH1 0x40 MLOAD DUP1 SWAP2 SUB SWAP1 RETURN JUMPDEST PUSH2 0x14D PUSH1 0x4 DUP1 CALLDATASIZE SUB DUP2 ADD SWAP1 PUSH2 0x148 SWAP2 SWAP1 PUSH2 0x1B02 JUMP JUMPDEST PUSH2 0x91D JUMP JUMPDEST PUSH1 0x40 MLOAD PUSH2 0x15A SWAP2 SWAP1 PUSH2 0x210B JUMP JUMPDEST PUSH1 0x40 MLOAD DUP1 SWAP2 SUB SWAP1 RETURN JUMPDEST PUSH2 0x16B PUSH2 0xD41 JUMP JUMPDEST PUSH1 0x40 MLOAD PUSH2 0x178 SWAP2 SWAP1 PUSH2 0x2163 JUMP JUMPDEST PUSH1 0x40 MLOAD DUP1 SWAP2 SUB SWAP1 RETURN JUMPDEST PUSH2 0x189 PUSH2 0xD67 JUMP JUMPDEST STOP JUMPDEST PUSH2 0x193 PUSH2 0xD7B JUMP JUMPDEST PUSH1 0x40 MLOAD PUSH2 0x1A0 SWAP2 SWAP1 PUSH2 0x2090 JUMP JUMPDEST PUSH1 0x40 MLOAD DUP1 SWAP2 SUB SWAP1 RETURN JUMPDEST PUSH2 0x1C3 PUSH1 0x4 DUP1 CALLDATASIZE SUB DUP2 ADD SWAP1 PUSH2 0x1BE SWAP2 SWAP1 PUSH2 0x1B02 JUMP JUMPDEST PUSH2 0xDA3 JUMP JUMPDEST PUSH1 0x40 MLOAD PUSH2 0x1D2 SWAP4 SWAP3 SWAP2 SWAP1 PUSH2 0x231B JUMP JUMPDEST PUSH1 0x40 MLOAD DUP1 SWAP2 SUB SWAP1 RETURN JUMPDEST PUSH2 0x1F5 PUSH1 0x4 DUP1 CALLDATASIZE SUB DUP2 ADD SWAP1 PUSH2 0x1F0 SWAP2 SWAP1 PUSH2 0x1B7D JUMP JUMPDEST PUSH2 0xDCD JUMP JUMPDEST PUSH1 0x40 MLOAD PUSH2 0x202 SWAP2 SWAP1 PUSH2 0x2090 JUMP JUMPDEST PUSH1 0x40 MLOAD DUP1 SWAP2 SUB SWAP1 RETURN JUMPDEST PUSH2 0x225 PUSH1 0x4 DUP1 CALLDATASIZE SUB DUP2 ADD SWAP1 PUSH2 0x220 SWAP2 SWAP1 PUSH2 0x1B7D JUMP JUMPDEST PUSH2 0xE00 JUMP JUMPDEST STOP JUMPDEST PUSH2 0x22F PUSH2 0xE25 JUMP JUMPDEST PUSH1 0x40 MLOAD PUSH2 0x23C SWAP2 SWAP1 PUSH2 0x2148 JUMP JUMPDEST PUSH1 0x40 MLOAD DUP1 SWAP2 SUB SWAP1 RETURN JUMPDEST PUSH2 0x25F PUSH1 0x4 DUP1 CALLDATASIZE SUB DUP2 ADD SWAP1 PUSH2 0x25A SWAP2 SWAP1 PUSH2 0x1B02 JUMP JUMPDEST PUSH2 0xE4B JUMP JUMPDEST STOP JUMPDEST PUSH2 0x27B PUSH1 0x4 DUP1 CALLDATASIZE SUB DUP2 ADD SWAP1 PUSH2 0x276 SWAP2 SWAP1 PUSH2 0x1B02 JUMP JUMPDEST PUSH2 0xECF JUMP JUMPDEST PUSH1 0x40 MLOAD PUSH2 0x288 SWAP2 SWAP1 PUSH2 0x2300 JUMP JUMPDEST PUSH1 0x40 MLOAD DUP1 SWAP2 SUB SWAP1 RETURN JUMPDEST PUSH2 0x299 PUSH2 0xF33 JUMP JUMPDEST STOP JUMPDEST PUSH2 0x2A3 PUSH2 0x1042 JUMP JUMPDEST PUSH1 0x0 PUSH1 0x6 PUSH1 0x0 CALLER PUSH20 0xFFFFFFFFFFFFFFFFFFFFFFFFFFFFFFFFFFFFFFFF AND PUSH20 0xFFFFFFFFFFFFFFFFFFFFFFFFFFFFFFFFFFFFFFFF AND DUP2 MSTORE PUSH1 0x20 ADD SWAP1 DUP2 MSTORE PUSH1 0x20 ADD PUSH1 0x0 KECCAK256 PUSH1 0x0 ADD SLOAD GT PUSH2 0x328 JUMPI PUSH1 0x40 MLOAD PUSH32 0x8C379A000000000000000000000000000000000000000000000000000000000 DUP2 MSTORE PUSH1 0x4 ADD PUSH2 0x31F SWAP1 PUSH2 0x2200 JUMP JUMPDEST PUSH1 0x40 MLOAD DUP1 SWAP2 SUB SWAP1 REVERT JUMPDEST CALLER PUSH20 0xFFFFFFFFFFFFFFFFFFFFFFFFFFFFFFFFFFFFFFFF AND PUSH1 0x7 PUSH1 0x0 DUP4 DUP2 MSTORE PUSH1 0x20 ADD SWAP1 DUP2 MSTORE PUSH1 0x20 ADD PUSH1 0x0 KECCAK256 PUSH1 0x0 SWAP1 SLOAD SWAP1 PUSH2 0x100 EXP SWAP1 DIV PUSH20 0xFFFFFFFFFFFFFFFFFFFFFFFFFFFFFFFFFFFFFFFF AND PUSH20 0xFFFFFFFFFFFFFFFFFFFFFFFFFFFFFFFFFFFFFFFF AND EQ PUSH2 0x3C9 JUMPI PUSH1 0x40 MLOAD PUSH32 0x8C379A000000000000000000000000000000000000000000000000000000000 DUP2 MSTORE PUSH1 0x4 ADD PUSH2 0x3C0 SWAP1 PUSH2 0x21A0 JUMP JUMPDEST PUSH1 0x40 MLOAD DUP1 SWAP2 SUB SWAP1 REVERT JUMPDEST PUSH1 0x0 PUSH2 0x3D4 CALLER PUSH2 0x1092 JUMP JUMPDEST SWAP1 POP DUP1 PUSH1 0x6 PUSH1 0x0 CALLER PUSH20 0xFFFFFFFFFFFFFFFFFFFFFFFFFFFFFFFFFFFFFFFF AND PUSH20 0xFFFFFFFFFFFFFFFFFFFFFFFFFFFFFFFFFFFFFFFF AND DUP2 MSTORE PUSH1 0x20 ADD SWAP1 DUP2 MSTORE PUSH1 0x20 ADD PUSH1 0x0 KECCAK256 PUSH1 0x3 ADD PUSH1 0x0 DUP3 DUP3 SLOAD PUSH2 0x428 SWAP2 SWAP1 PUSH2 0x23BD JUMP JUMPDEST SWAP3 POP POP DUP2 SWAP1 SSTORE POP PUSH1 0x0 DUP1 JUMPDEST PUSH1 0x6 PUSH1 0x0 CALLER PUSH20 0xFFFFFFFFFFFFFFFFFFFFFFFFFFFFFFFFFFFFFFFF AND PUSH20 0xFFFFFFFFFFFFFFFFFFFFFFFFFFFFFFFFFFFFFFFF AND DUP2 MSTORE PUSH1 0x20 ADD SWAP1 DUP2 MSTORE PUSH1 0x20 ADD PUSH1 0x0 KECCAK256 PUSH1 0x1 ADD DUP1 SLOAD SWAP1 POP DUP2 LT ISZERO PUSH2 0x52E JUMPI DUP4 PUSH1 0x6 PUSH1 0x0 CALLER PUSH20 0xFFFFFFFFFFFFFFFFFFFFFFFFFFFFFFFFFFFFFFFF AND PUSH20 0xFFFFFFFFFFFFFFFFFFFFFFFFFFFFFFFFFFFFFFFF AND DUP2 MSTORE PUSH1 0x20 ADD SWAP1 DUP2 MSTORE PUSH1 0x20 ADD PUSH1 0x0 KECCAK256 PUSH1 0x1 ADD DUP3 DUP2 SLOAD DUP2 LT PUSH2 0x4FB JUMPI PUSH32 0x4E487B7100000000000000000000000000000000000000000000000000000000 PUSH1 0x0 MSTORE PUSH1 0x32 PUSH1 0x4 MSTORE PUSH1 0x24 PUSH1 0x0 REVERT JUMPDEST SWAP1 PUSH1 0x0 MSTORE PUSH1 0x20 PUSH1 0x0 KECCAK256 SWAP1 PUSH1 0x2 MUL ADD PUSH1 0x1 ADD SLOAD EQ ISZERO PUSH2 0x51B JUMPI DUP1 SWAP2 POP PUSH2 0x52E JUMP JUMPDEST DUP1 DUP1 PUSH2 0x526 SWAP1 PUSH2 0x25BF JUMP JUMPDEST SWAP2 POP POP PUSH2 0x433 JUMP JUMPDEST POP PUSH1 0x0 PUSH1 0x6 PUSH1 0x0 CALLER PUSH20 0xFFFFFFFFFFFFFFFFFFFFFFFFFFFFFFFFFFFFFFFF AND PUSH20 0xFFFFFFFFFFFFFFFFFFFFFFFFFFFFFFFFFFFFFFFF AND DUP2 MSTORE PUSH1 0x20 ADD SWAP1 DUP2 MSTORE PUSH1 0x20 ADD PUSH1 0x0 KECCAK256 PUSH1 0x1 ADD DUP3 DUP2 SLOAD DUP2 LT PUSH2 0x5AB JUMPI PUSH32 0x4E487B7100000000000000000000000000000000000000000000000000000000 PUSH1 0x0 MSTORE PUSH1 0x32 PUSH1 0x4 MSTORE PUSH1 0x24 PUSH1 0x0 REVERT JUMPDEST SWAP1 PUSH1 0x0 MSTORE PUSH1 0x20 PUSH1 0x0 KECCAK256 SWAP1 PUSH1 0x2 MUL ADD PUSH1 0x0 ADD PUSH1 0x0 PUSH2 0x100 EXP DUP2 SLOAD DUP2 PUSH20 0xFFFFFFFFFFFFFFFFFFFFFFFFFFFFFFFFFFFFFFFF MUL NOT AND SWAP1 DUP4 PUSH20 0xFFFFFFFFFFFFFFFFFFFFFFFFFFFFFFFFFFFFFFFF AND MUL OR SWAP1 SSTORE POP PUSH1 0x6 PUSH1 0x0 CALLER PUSH20 0xFFFFFFFFFFFFFFFFFFFFFFFFFFFFFFFFFFFFFFFF AND PUSH20 0xFFFFFFFFFFFFFFFFFFFFFFFFFFFFFFFFFFFFFFFF AND DUP2 MSTORE PUSH1 0x20 ADD SWAP1 DUP2 MSTORE PUSH1 0x20 ADD PUSH1 0x0 KECCAK256 PUSH1 0x0 ADD PUSH1 0x0 DUP2 SLOAD DUP1 SWAP3 SWAP2 SWAP1 PUSH2 0x64D SWAP1 PUSH2 0x2595 JUMP JUMPDEST SWAP2 SWAP1 POP SSTORE POP PUSH1 0x0 PUSH1 0x7 PUSH1 0x0 DUP6 DUP2 MSTORE PUSH1 0x20 ADD SWAP1 DUP2 MSTORE PUSH1 0x20 ADD PUSH1 0x0 KECCAK256 PUSH1 0x0 PUSH2 0x100 EXP DUP2 SLOAD DUP2 PUSH20 0xFFFFFFFFFFFFFFFFFFFFFFFFFFFFFFFFFFFFFFFF MUL NOT AND SWAP1 DUP4 PUSH20 0xFFFFFFFFFFFFFFFFFFFFFFFFFFFFFFFFFFFFFFFF AND MUL OR SWAP1 SSTORE POP PUSH1 0x3 PUSH1 0x0 SWAP1 SLOAD SWAP1 PUSH2 0x100 EXP SWAP1 DIV PUSH20 0xFFFFFFFFFFFFFFFFFFFFFFFFFFFFFFFFFFFFFFFF AND PUSH20 0xFFFFFFFFFFFFFFFFFFFFFFFFFFFFFFFFFFFFFFFF AND PUSH4 0x23B872DD ADDRESS CALLER DUP7 PUSH1 0x40 MLOAD DUP5 PUSH4 0xFFFFFFFF AND PUSH1 0xE0 SHL DUP2 MSTORE PUSH1 0x4 ADD PUSH2 0x704 SWAP4 SWAP3 SWAP2 SWAP1 PUSH2 0x20AB JUMP JUMPDEST PUSH1 0x0 PUSH1 0x40 MLOAD DUP1 DUP4 SUB DUP2 PUSH1 0x0 DUP8 DUP1 EXTCODESIZE ISZERO DUP1 ISZERO PUSH2 0x71E JUMPI PUSH1 0x0 DUP1 REVERT JUMPDEST POP GAS CALL ISZERO DUP1 ISZERO PUSH2 0x732 JUMPI RETURNDATASIZE PUSH1 0x0 DUP1 RETURNDATACOPY RETURNDATASIZE PUSH1 0x0 REVERT JUMPDEST POP POP POP POP TIMESTAMP PUSH1 0x6 PUSH1 0x0 CALLER PUSH20 0xFFFFFFFFFFFFFFFFFFFFFFFFFFFFFFFFFFFFFFFF AND PUSH20 0xFFFFFFFFFFFFFFFFFFFFFFFFFFFFFFFFFFFFFFFF AND DUP2 MSTORE PUSH1 0x20 ADD SWAP1 DUP2 MSTORE PUSH1 0x20 ADD PUSH1 0x0 KECCAK256 PUSH1 0x2 ADD DUP2 SWAP1 SSTORE POP POP POP PUSH2 0x787 PUSH2 0x1150 JUMP JUMPDEST POP JUMP JUMPDEST PUSH1 0x0 PUSH1 0x6 PUSH1 0x0 CALLER PUSH20 0xFFFFFFFFFFFFFFFFFFFFFFFFFFFFFFFFFFFFFFFF AND PUSH20 0xFFFFFFFFFFFFFFFFFFFFFFFFFFFFFFFFFFFFFFFF AND DUP2 MSTORE PUSH1 0x20 ADD SWAP1 DUP2 MSTORE PUSH1 0x20 ADD PUSH1 0x0 KECCAK256 PUSH1 0x3 ADD SLOAD PUSH2 0x7D8 CALLER PUSH2 0x1092 JUMP JUMPDEST PUSH2 0x7E2 SWAP2 SWAP1 PUSH2 0x23BD JUMP JUMPDEST SWAP1 POP PUSH1 0x0 DUP2 GT PUSH2 0x827 JUMPI PUSH1 0x40 MLOAD PUSH32 0x8C379A000000000000000000000000000000000000000000000000000000000 DUP2 MSTORE PUSH1 0x4 ADD PUSH2 0x81E SWAP1 PUSH2 0x2280 JUMP JUMPDEST PUSH1 0x40 MLOAD DUP1 SWAP2 SUB SWAP1 REVERT JUMPDEST TIMESTAMP PUSH1 0x6 PUSH1 0x0 CALLER PUSH20 0xFFFFFFFFFFFFFFFFFFFFFFFFFFFFFFFFFFFFFFFF AND PUSH20 0xFFFFFFFFFFFFFFFFFFFFFFFFFFFFFFFFFFFFFFFF AND DUP2 MSTORE PUSH1 0x20 ADD SWAP1 DUP2 MSTORE PUSH1 0x20 ADD PUSH1 0x0 KECCAK256 PUSH1 0x2 ADD DUP2 SWAP1 SSTORE POP PUSH1 0x0 PUSH1 0x6 PUSH1 0x0 CALLER PUSH20 0xFFFFFFFFFFFFFFFFFFFFFFFFFFFFFFFFFFFFFFFF AND PUSH20 0xFFFFFFFFFFFFFFFFFFFFFFFFFFFFFFFFFFFFFFFF AND DUP2 MSTORE PUSH1 0x20 ADD SWAP1 DUP2 MSTORE PUSH1 0x20 ADD PUSH1 0x0 KECCAK256 PUSH1 0x3 ADD DUP2 SWAP1 SSTORE POP PUSH2 0x903 CALLER DUP3 PUSH1 0x2 PUSH1 0x0 SWAP1 SLOAD SWAP1 PUSH2 0x100 EXP SWAP1 DIV PUSH20 0xFFFFFFFFFFFFFFFFFFFFFFFFFFFFFFFFFFFFFFFF AND PUSH20 0xFFFFFFFFFFFFFFFFFFFFFFFFFFFFFFFFFFFFFFFF AND PUSH2 0x115A SWAP1 SWAP3 SWAP2 SWAP1 PUSH4 0xFFFFFFFF AND JUMP JUMPDEST POP JUMP JUMPDEST PUSH1 0x0 PUSH1 0x1 PUSH1 0x0 SWAP1 SLOAD SWAP1 PUSH2 0x100 EXP SWAP1 DIV PUSH1 0xFF AND SWAP1 POP SWAP1 JUMP JUMPDEST PUSH1 0x60 PUSH1 0x0 PUSH1 0x6 PUSH1 0x0 DUP5 PUSH20 0xFFFFFFFFFFFFFFFFFFFFFFFFFFFFFFFFFFFFFFFF AND PUSH20 0xFFFFFFFFFFFFFFFFFFFFFFFFFFFFFFFFFFFFFFFF AND DUP2 MSTORE PUSH1 0x20 ADD SWAP1 DUP2 MSTORE PUSH1 0x20 ADD PUSH1 0x0 KECCAK256 PUSH1 0x0 ADD SLOAD GT ISZERO PUSH2 0xCBE JUMPI PUSH1 0x0 PUSH1 0x6 PUSH1 0x0 DUP5 PUSH20 0xFFFFFFFFFFFFFFFFFFFFFFFFFFFFFFFFFFFFFFFF AND PUSH20 0xFFFFFFFFFFFFFFFFFFFFFFFFFFFFFFFFFFFFFFFF AND DUP2 MSTORE PUSH1 0x20 ADD SWAP1 DUP2 MSTORE PUSH1 0x20 ADD PUSH1 0x0 KECCAK256 PUSH1 0x0 ADD SLOAD PUSH8 0xFFFFFFFFFFFFFFFF DUP2 GT ISZERO PUSH2 0x9EE JUMPI PUSH32 0x4E487B7100000000000000000000000000000000000000000000000000000000 PUSH1 0x0 MSTORE PUSH1 0x41 PUSH1 0x4 MSTORE PUSH1 0x24 PUSH1 0x0 REVERT JUMPDEST PUSH1 0x40 MLOAD SWAP1 DUP1 DUP3 MSTORE DUP1 PUSH1 0x20 MUL PUSH1 0x20 ADD DUP3 ADD PUSH1 0x40 MSTORE DUP1 ISZERO PUSH2 0xA27 JUMPI DUP2 PUSH1 0x20 ADD JUMPDEST PUSH2 0xA14 PUSH2 0x1A69 JUMP JUMPDEST DUP2 MSTORE PUSH1 0x20 ADD SWAP1 PUSH1 0x1 SWAP1 SUB SWAP1 DUP2 PUSH2 0xA0C JUMPI SWAP1 POP JUMPDEST POP SWAP1 POP PUSH1 0x0 DUP1 JUMPDEST PUSH1 0x6 PUSH1 0x0 DUP7 PUSH20 0xFFFFFFFFFFFFFFFFFFFFFFFFFFFFFFFFFFFFFFFF AND PUSH20 0xFFFFFFFFFFFFFFFFFFFFFFFFFFFFFFFFFFFFFFFF AND DUP2 MSTORE PUSH1 0x20 ADD SWAP1 DUP2 MSTORE PUSH1 0x20 ADD PUSH1 0x0 KECCAK256 PUSH1 0x1 ADD DUP1 SLOAD SWAP1 POP DUP2 LT ISZERO PUSH2 0xCB3 JUMPI PUSH1 0x0 PUSH20 0xFFFFFFFFFFFFFFFFFFFFFFFFFFFFFFFFFFFFFFFF AND PUSH1 0x6 PUSH1 0x0 DUP8 PUSH20 0xFFFFFFFFFFFFFFFFFFFFFFFFFFFFFFFFFFFFFFFF AND PUSH20 0xFFFFFFFFFFFFFFFFFFFFFFFFFFFFFFFFFFFFFFFF AND DUP2 MSTORE PUSH1 0x20 ADD SWAP1 DUP2 MSTORE PUSH1 0x20 ADD PUSH1 0x0 KECCAK256 PUSH1 0x1 ADD DUP3 DUP2 SLOAD DUP2 LT PUSH2 0xB0D JUMPI PUSH32 0x4E487B7100000000000000000000000000000000000000000000000000000000 PUSH1 0x0 MSTORE PUSH1 0x32 PUSH1 0x4 MSTORE PUSH1 0x24 PUSH1 0x0 REVERT JUMPDEST SWAP1 PUSH1 0x0 MSTORE PUSH1 0x20 PUSH1 0x0 KECCAK256 SWAP1 PUSH1 0x2 MUL ADD PUSH1 0x0 ADD PUSH1 0x0 SWAP1 SLOAD SWAP1 PUSH2 0x100 EXP SWAP1 DIV PUSH20 0xFFFFFFFFFFFFFFFFFFFFFFFFFFFFFFFFFFFFFFFF AND PUSH20 0xFFFFFFFFFFFFFFFFFFFFFFFFFFFFFFFFFFFFFFFF AND EQ PUSH2 0xCA0 JUMPI PUSH1 0x6 PUSH1 0x0 DUP7 PUSH20 0xFFFFFFFFFFFFFFFFFFFFFFFFFFFFFFFFFFFFFFFF AND PUSH20 0xFFFFFFFFFFFFFFFFFFFFFFFFFFFFFFFFFFFFFFFF AND DUP2 MSTORE PUSH1 0x20 ADD SWAP1 DUP2 MSTORE PUSH1 0x20 ADD PUSH1 0x0 KECCAK256 PUSH1 0x1 ADD DUP2 DUP2 SLOAD DUP2 LT PUSH2 0xBD4 JUMPI PUSH32 0x4E487B7100000000000000000000000000000000000000000000000000000000 PUSH1 0x0 MSTORE PUSH1 0x32 PUSH1 0x4 MSTORE PUSH1 0x24 PUSH1 0x0 REVERT JUMPDEST SWAP1 PUSH1 0x0 MSTORE PUSH1 0x20 PUSH1 0x0 KECCAK256 SWAP1 PUSH1 0x2 MUL ADD PUSH1 0x40 MLOAD DUP1 PUSH1 0x40 ADD PUSH1 0x40 MSTORE SWAP1 DUP2 PUSH1 0x0 DUP3 ADD PUSH1 0x0 SWAP1 SLOAD SWAP1 PUSH2 0x100 EXP SWAP1 DIV PUSH20 0xFFFFFFFFFFFFFFFFFFFFFFFFFFFFFFFFFFFFFFFF AND PUSH20 0xFFFFFFFFFFFFFFFFFFFFFFFFFFFFFFFFFFFFFFFF AND PUSH20 0xFFFFFFFFFFFFFFFFFFFFFFFFFFFFFFFFFFFFFFFF AND DUP2 MSTORE PUSH1 0x20 ADD PUSH1 0x1 DUP3 ADD SLOAD DUP2 MSTORE POP POP DUP4 DUP4 DUP2 MLOAD DUP2 LT PUSH2 0xC86 JUMPI PUSH32 0x4E487B7100000000000000000000000000000000000000000000000000000000 PUSH1 0x0 MSTORE PUSH1 0x32 PUSH1 0x4 MSTORE PUSH1 0x24 PUSH1 0x0 REVERT JUMPDEST PUSH1 0x20 MUL PUSH1 0x20 ADD ADD DUP2 SWAP1 MSTORE POP DUP2 DUP1 PUSH2 0xC9C SWAP1 PUSH2 0x25BF JUMP JUMPDEST SWAP3 POP POP JUMPDEST DUP1 DUP1 PUSH2 0xCAB SWAP1 PUSH2 0x25BF JUMP JUMPDEST SWAP2 POP POP PUSH2 0xA2E JUMP JUMPDEST POP DUP2 SWAP3 POP POP POP PUSH2 0xD3C JUMP JUMPDEST PUSH1 0x0 PUSH8 0xFFFFFFFFFFFFFFFF DUP2 GT ISZERO PUSH2 0xCFF JUMPI PUSH32 0x4E487B7100000000000000000000000000000000000000000000000000000000 PUSH1 0x0 MSTORE PUSH1 0x41 PUSH1 0x4 MSTORE PUSH1 0x24 PUSH1 0x0 REVERT JUMPDEST PUSH1 0x40 MLOAD SWAP1 DUP1 DUP3 MSTORE DUP1 PUSH1 0x20 MUL PUSH1 0x20 ADD DUP3 ADD PUSH1 0x40 MSTORE DUP1 ISZERO PUSH2 0xD38 JUMPI DUP2 PUSH1 0x20 ADD JUMPDEST PUSH2 0xD25 PUSH2 0x1A69 JUMP JUMPDEST DUP2 MSTORE PUSH1 0x20 ADD SWAP1 PUSH1 0x1 SWAP1 SUB SWAP1 DUP2 PUSH2 0xD1D JUMPI SWAP1 POP JUMPDEST POP SWAP1 POP JUMPDEST SWAP2 SWAP1 POP JUMP JUMPDEST PUSH1 0x3 PUSH1 0x0 SWAP1 SLOAD SWAP1 PUSH2 0x100 EXP SWAP1 DIV PUSH20 0xFFFFFFFFFFFFFFFFFFFFFFFFFFFFFFFFFFFFFFFF AND DUP2 JUMP JUMPDEST PUSH2 0xD6F PUSH2 0x11E0 JUMP JUMPDEST PUSH2 0xD79 PUSH1 0x0 PUSH2 0x125E JUMP JUMPDEST JUMP JUMPDEST PUSH1 0x0 PUSH1 0x1 DUP1 SLOAD SWAP1 PUSH2 0x100 EXP SWAP1 DIV PUSH20 0xFFFFFFFFFFFFFFFFFFFFFFFFFFFFFFFFFFFFFFFF AND SWAP1 POP SWAP1 JUMP JUMPDEST PUSH1 0x6 PUSH1 0x20 MSTORE DUP1 PUSH1 0x0 MSTORE PUSH1 0x40 PUSH1 0x0 KECCAK256 PUSH1 0x0 SWAP2 POP SWAP1 POP DUP1 PUSH1 0x0 ADD SLOAD SWAP1 DUP1 PUSH1 0x2 ADD SLOAD SWAP1 DUP1 PUSH1 0x3 ADD SLOAD SWAP1 POP DUP4 JUMP JUMPDEST PUSH1 0x7 PUSH1 0x20 MSTORE DUP1 PUSH1 0x0 MSTORE PUSH1 0x40 PUSH1 0x0 KECCAK256 PUSH1 0x0 SWAP2 POP SLOAD SWAP1 PUSH2 0x100 EXP SWAP1 DIV PUSH20 0xFFFFFFFFFFFFFFFFFFFFFFFFFFFFFFFFFFFFFFFF AND DUP2 JUMP JUMPDEST PUSH2 0xE08 PUSH2 0x1042 JUMP JUMPDEST PUSH2 0xE10 PUSH2 0x1321 JUMP JUMPDEST PUSH2 0xE1A CALLER DUP3 PUSH2 0x136B JUMP JUMPDEST PUSH2 0xE22 PUSH2 0x1150 JUMP JUMPDEST POP JUMP JUMPDEST PUSH1 0x2 PUSH1 0x0 SWAP1 SLOAD SWAP1 PUSH2 0x100 EXP SWAP1 DIV PUSH20 0xFFFFFFFFFFFFFFFFFFFFFFFFFFFFFFFFFFFFFFFF AND DUP2 JUMP JUMPDEST PUSH2 0xE53 PUSH2 0x11E0 JUMP JUMPDEST PUSH1 0x0 PUSH20 0xFFFFFFFFFFFFFFFFFFFFFFFFFFFFFFFFFFFFFFFF AND DUP2 PUSH20 0xFFFFFFFFFFFFFFFFFFFFFFFFFFFFFFFFFFFFFFFF AND EQ ISZERO PUSH2 0xEC3 JUMPI PUSH1 0x40 MLOAD PUSH32 0x8C379A000000000000000000000000000000000000000000000000000000000 DUP2 MSTORE PUSH1 0x4 ADD PUSH2 0xEBA SWAP1 PUSH2 0x21E0 JUMP JUMPDEST PUSH1 0x40 MLOAD DUP1 SWAP2 SUB SWAP1 REVERT JUMPDEST PUSH2 0xECC DUP2 PUSH2 0x125E JUMP JUMPDEST POP JUMP JUMPDEST PUSH1 0x0 DUP1 PUSH1 0x6 PUSH1 0x0 DUP5 PUSH20 0xFFFFFFFFFFFFFFFFFFFFFFFFFFFFFFFFFFFFFFFF AND PUSH20 0xFFFFFFFFFFFFFFFFFFFFFFFFFFFFFFFFFFFFFFFF AND DUP2 MSTORE PUSH1 0x20 ADD SWAP1 DUP2 MSTORE PUSH1 0x20 ADD PUSH1 0x0 KECCAK256 PUSH1 0x3 ADD SLOAD PUSH2 0xF1E DUP5 PUSH2 0x1092 JUMP JUMPDEST PUSH2 0xF28 SWAP2 SWAP1 PUSH2 0x23BD JUMP JUMPDEST SWAP1 POP DUP1 SWAP2 POP POP SWAP2 SWAP1 POP JUMP JUMPDEST PUSH2 0xF3B PUSH2 0x11E0 JUMP JUMPDEST PUSH2 0xF43 PUSH2 0x17AB JUMP JUMPDEST PUSH1 0x0 PUSH1 0x2 PUSH1 0x0 SWAP1 SLOAD SWAP1 PUSH2 0x100 EXP SWAP1 DIV PUSH20 0xFFFFFFFFFFFFFFFFFFFFFFFFFFFFFFFFFFFFFFFF AND PUSH20 0xFFFFFFFFFFFFFFFFFFFFFFFFFFFFFFFFFFFFFFFF AND PUSH4 0x70A08231 ADDRESS PUSH1 0x40 MLOAD DUP3 PUSH4 0xFFFFFFFF AND PUSH1 0xE0 SHL DUP2 MSTORE PUSH1 0x4 ADD PUSH2 0xFA0 SWAP2 SWAP1 PUSH2 0x2090 JUMP JUMPDEST PUSH1 0x20 PUSH1 0x40 MLOAD DUP1 DUP4 SUB DUP2 DUP7 DUP1 EXTCODESIZE ISZERO DUP1 ISZERO PUSH2 0xFB8 JUMPI PUSH1 0x0 DUP1 REVERT JUMPDEST POP GAS STATICCALL ISZERO DUP1 ISZERO PUSH2 0xFCC JUMPI RETURNDATASIZE PUSH1 0x0 DUP1 RETURNDATACOPY RETURNDATASIZE PUSH1 0x0 REVERT JUMPDEST POP POP POP POP PUSH1 0x40 MLOAD RETURNDATASIZE PUSH1 0x1F NOT PUSH1 0x1F DUP3 ADD AND DUP3 ADD DUP1 PUSH1 0x40 MSTORE POP DUP2 ADD SWAP1 PUSH2 0xFF0 SWAP2 SWAP1 PUSH2 0x1BA6 JUMP JUMPDEST SWAP1 POP PUSH2 0x103F CALLER DUP3 PUSH1 0x2 PUSH1 0x0 SWAP1 SLOAD SWAP1 PUSH2 0x100 EXP SWAP1 DIV PUSH20 0xFFFFFFFFFFFFFFFFFFFFFFFFFFFFFFFFFFFFFFFF AND PUSH20 0xFFFFFFFFFFFFFFFFFFFFFFFFFFFFFFFFFFFFFFFF AND PUSH2 0x115A SWAP1 SWAP3 SWAP2 SWAP1 PUSH4 0xFFFFFFFF AND JUMP JUMPDEST POP JUMP JUMPDEST PUSH1 0x2 PUSH1 0x0 SLOAD EQ ISZERO PUSH2 0x1088 JUMPI PUSH1 0x40 MLOAD PUSH32 0x8C379A000000000000000000000000000000000000000000000000000000000 DUP2 MSTORE PUSH1 0x4 ADD PUSH2 0x107F SWAP1 PUSH2 0x22E0 JUMP JUMPDEST PUSH1 0x40 MLOAD DUP1 SWAP2 SUB SWAP1 REVERT JUMPDEST PUSH1 0x2 PUSH1 0x0 DUP2 SWAP1 SSTORE POP JUMP JUMPDEST PUSH1 0x0 PUSH2 0xE10 PUSH1 0x5 SLOAD PUSH1 0x6 PUSH1 0x0 DUP6 PUSH20 0xFFFFFFFFFFFFFFFFFFFFFFFFFFFFFFFFFFFFFFFF AND PUSH20 0xFFFFFFFFFFFFFFFFFFFFFFFFFFFFFFFFFFFFFFFF AND DUP2 MSTORE PUSH1 0x20 ADD SWAP1 DUP2 MSTORE PUSH1 0x20 ADD PUSH1 0x0 KECCAK256 PUSH1 0x0 ADD SLOAD PUSH1 0x6 PUSH1 0x0 DUP7 PUSH20 0xFFFFFFFFFFFFFFFFFFFFFFFFFFFFFFFFFFFFFFFF AND PUSH20 0xFFFFFFFFFFFFFFFFFFFFFFFFFFFFFFFFFFFFFFFF AND DUP2 MSTORE PUSH1 0x20 ADD SWAP1 DUP2 MSTORE PUSH1 0x20 ADD PUSH1 0x0 KECCAK256 PUSH1 0x2 ADD SLOAD TIMESTAMP PUSH2 0x112B SWAP2 SWAP1 PUSH2 0x249E JUMP JUMPDEST PUSH2 0x1135 SWAP2 SWAP1 PUSH2 0x2444 JUMP JUMPDEST PUSH2 0x113F SWAP2 SWAP1 PUSH2 0x2444 JUMP JUMPDEST PUSH2 0x1149 SWAP2 SWAP1 PUSH2 0x2413 JUMP JUMPDEST SWAP1 POP SWAP2 SWAP1 POP JUMP JUMPDEST PUSH1 0x1 PUSH1 0x0 DUP2 SWAP1 SSTORE POP JUMP JUMPDEST PUSH2 0x11DB DUP4 PUSH4 0xA9059CBB PUSH1 0xE0 SHL DUP5 DUP5 PUSH1 0x40 MLOAD PUSH1 0x24 ADD PUSH2 0x1179 SWAP3 SWAP2 SWAP1 PUSH2 0x20E2 JUMP JUMPDEST PUSH1 0x40 MLOAD PUSH1 0x20 DUP2 DUP4 SUB SUB DUP2 MSTORE SWAP1 PUSH1 0x40 MSTORE SWAP1 PUSH28 0xFFFFFFFFFFFFFFFFFFFFFFFFFFFFFFFFFFFFFFFFFFFFFFFFFFFFFFFF NOT AND PUSH1 0x20 DUP3 ADD DUP1 MLOAD PUSH28 0xFFFFFFFFFFFFFFFFFFFFFFFFFFFFFFFFFFFFFFFFFFFFFFFFFFFFFFFF DUP4 DUP2 DUP4 AND OR DUP4 MSTORE POP POP POP POP PUSH2 0x17F4 JUMP JUMPDEST POP POP POP JUMP JUMPDEST PUSH2 0x11E8 PUSH2 0x18BB JUMP JUMPDEST PUSH20 0xFFFFFFFFFFFFFFFFFFFFFFFFFFFFFFFFFFFFFFFF AND PUSH2 0x1206 PUSH2 0xD7B JUMP JUMPDEST PUSH20 0xFFFFFFFFFFFFFFFFFFFFFFFFFFFFFFFFFFFFFFFF AND EQ PUSH2 0x125C JUMPI PUSH1 0x40 MLOAD PUSH32 0x8C379A000000000000000000000000000000000000000000000000000000000 DUP2 MSTORE PUSH1 0x4 ADD PUSH2 0x1253 SWAP1 PUSH2 0x2260 JUMP JUMPDEST PUSH1 0x40 MLOAD DUP1 SWAP2 SUB SWAP1 REVERT JUMPDEST JUMP JUMPDEST PUSH1 0x0 PUSH1 0x1 DUP1 SLOAD SWAP1 PUSH2 0x100 EXP SWAP1 DIV PUSH20 0xFFFFFFFFFFFFFFFFFFFFFFFFFFFFFFFFFFFFFFFF AND SWAP1 POP DUP2 PUSH1 0x1 DUP1 PUSH2 0x100 EXP DUP2 SLOAD DUP2 PUSH20 0xFFFFFFFFFFFFFFFFFFFFFFFFFFFFFFFFFFFFFFFF MUL NOT AND SWAP1 DUP4 PUSH20 0xFFFFFFFFFFFFFFFFFFFFFFFFFFFFFFFFFFFFFFFF AND MUL OR SWAP1 SSTORE POP DUP2 PUSH20 0xFFFFFFFFFFFFFFFFFFFFFFFFFFFFFFFFFFFFFFFF AND DUP2 PUSH20 0xFFFFFFFFFFFFFFFFFFFFFFFFFFFFFFFFFFFFFFFF AND PUSH32 0x8BE0079C531659141344CD1FD0A4F28419497F9722A3DAAFE3B4186F6B6457E0 PUSH1 0x40 MLOAD PUSH1 0x40 MLOAD DUP1 SWAP2 SUB SWAP1 LOG3 POP POP JUMP JUMPDEST PUSH2 0x1329 PUSH2 0x906 JUMP JUMPDEST ISZERO PUSH2 0x1369 JUMPI PUSH1 0x40 MLOAD PUSH32 0x8C379A000000000000000000000000000000000000000000000000000000000 DUP2 MSTORE PUSH1 0x4 ADD PUSH2 0x1360 SWAP1 PUSH2 0x2240 JUMP JUMPDEST PUSH1 0x40 MLOAD DUP1 SWAP2 SUB SWAP1 REVERT JUMPDEST JUMP JUMPDEST DUP2 PUSH20 0xFFFFFFFFFFFFFFFFFFFFFFFFFFFFFFFFFFFFFFFF AND PUSH1 0x3 PUSH1 0x0 SWAP1 SLOAD SWAP1 PUSH2 0x100 EXP SWAP1 DIV PUSH20 0xFFFFFFFFFFFFFFFFFFFFFFFFFFFFFFFFFFFFFFFF AND PUSH20 0xFFFFFFFFFFFFFFFFFFFFFFFFFFFFFFFFFFFFFFFF AND PUSH4 0x6352211E DUP4 PUSH1 0x40 MLOAD DUP3 PUSH4 0xFFFFFFFF AND PUSH1 0xE0 SHL DUP2 MSTORE PUSH1 0x4 ADD PUSH2 0x13DD SWAP2 SWAP1 PUSH2 0x2300 JUMP JUMPDEST PUSH1 0x20 PUSH1 0x40 MLOAD DUP1 DUP4 SUB DUP2 DUP7 DUP1 EXTCODESIZE ISZERO DUP1 ISZERO PUSH2 0x13F5 JUMPI PUSH1 0x0 DUP1 REVERT JUMPDEST POP GAS STATICCALL ISZERO DUP1 ISZERO PUSH2 0x1409 JUMPI RETURNDATASIZE PUSH1 0x0 DUP1 RETURNDATACOPY RETURNDATASIZE PUSH1 0x0 REVERT JUMPDEST POP POP POP POP PUSH1 0x40 MLOAD RETURNDATASIZE PUSH1 0x1F NOT PUSH1 0x1F DUP3 ADD AND DUP3 ADD DUP1 PUSH1 0x40 MSTORE POP DUP2 ADD SWAP1 PUSH2 0x142D SWAP2 SWAP1 PUSH2 0x1B2B JUMP JUMPDEST PUSH20 0xFFFFFFFFFFFFFFFFFFFFFFFFFFFFFFFFFFFFFFFF AND EQ PUSH2 0x1483 JUMPI PUSH1 0x40 MLOAD PUSH32 0x8C379A000000000000000000000000000000000000000000000000000000000 DUP2 MSTORE PUSH1 0x4 ADD PUSH2 0x147A SWAP1 PUSH2 0x21A0 JUMP JUMPDEST PUSH1 0x40 MLOAD DUP1 SWAP2 SUB SWAP1 REVERT JUMPDEST PUSH1 0x0 PUSH1 0x6 PUSH1 0x0 DUP5 PUSH20 0xFFFFFFFFFFFFFFFFFFFFFFFFFFFFFFFFFFFFFFFF AND PUSH20 0xFFFFFFFFFFFFFFFFFFFFFFFFFFFFFFFFFFFFFFFF AND DUP2 MSTORE PUSH1 0x20 ADD SWAP1 DUP2 MSTORE PUSH1 0x20 ADD PUSH1 0x0 KECCAK256 PUSH1 0x0 ADD SLOAD GT ISZERO PUSH2 0x1536 JUMPI PUSH1 0x0 PUSH2 0x14D9 DUP4 PUSH2 0x1092 JUMP JUMPDEST SWAP1 POP DUP1 PUSH1 0x6 PUSH1 0x0 DUP6 PUSH20 0xFFFFFFFFFFFFFFFFFFFFFFFFFFFFFFFFFFFFFFFF AND PUSH20 0xFFFFFFFFFFFFFFFFFFFFFFFFFFFFFFFFFFFFFFFF AND DUP2 MSTORE PUSH1 0x20 ADD SWAP1 DUP2 MSTORE PUSH1 0x20 ADD PUSH1 0x0 KECCAK256 PUSH1 0x3 ADD PUSH1 0x0 DUP3 DUP3 SLOAD PUSH2 0x152D SWAP2 SWAP1 PUSH2 0x23BD JUMP JUMPDEST SWAP3 POP POP DUP2 SWAP1 SSTORE POP POP JUMPDEST PUSH1 0x3 PUSH1 0x0 SWAP1 SLOAD SWAP1 PUSH2 0x100 EXP SWAP1 DIV PUSH20 0xFFFFFFFFFFFFFFFFFFFFFFFFFFFFFFFFFFFFFFFF AND PUSH20 0xFFFFFFFFFFFFFFFFFFFFFFFFFFFFFFFFFFFFFFFF AND PUSH4 0x23B872DD DUP4 ADDRESS DUP5 PUSH1 0x40 MLOAD DUP5 PUSH4 0xFFFFFFFF AND PUSH1 0xE0 SHL DUP2 MSTORE PUSH1 0x4 ADD PUSH2 0x1595 SWAP4 SWAP3 SWAP2 SWAP1 PUSH2 0x20AB JUMP JUMPDEST PUSH1 0x0 PUSH1 0x40 MLOAD DUP1 DUP4 SUB DUP2 PUSH1 0x0 DUP8 DUP1 EXTCODESIZE ISZERO DUP1 ISZERO PUSH2 0x15AF JUMPI PUSH1 0x0 DUP1 REVERT JUMPDEST POP GAS CALL ISZERO DUP1 ISZERO PUSH2 0x15C3 JUMPI RETURNDATASIZE PUSH1 0x0 DUP1 RETURNDATACOPY RETURNDATASIZE PUSH1 0x0 REVERT JUMPDEST POP POP POP POP PUSH1 0x0 PUSH1 0x40 MLOAD DUP1 PUSH1 0x40 ADD PUSH1 0x40 MSTORE DUP1 DUP5 PUSH20 0xFFFFFFFFFFFFFFFFFFFFFFFFFFFFFFFFFFFFFFFF AND DUP2 MSTORE PUSH1 0x20 ADD DUP4 DUP2 MSTORE POP SWAP1 POP PUSH1 0x6 PUSH1 0x0 DUP5 PUSH20 0xFFFFFFFFFFFFFFFFFFFFFFFFFFFFFFFFFFFFFFFF AND PUSH20 0xFFFFFFFFFFFFFFFFFFFFFFFFFFFFFFFFFFFFFFFF AND DUP2 MSTORE PUSH1 0x20 ADD SWAP1 DUP2 MSTORE PUSH1 0x20 ADD PUSH1 0x0 KECCAK256 PUSH1 0x1 ADD DUP2 SWAP1 DUP1 PUSH1 0x1 DUP2 SLOAD ADD DUP1 DUP3 SSTORE DUP1 SWAP2 POP POP PUSH1 0x1 SWAP1 SUB SWAP1 PUSH1 0x0 MSTORE PUSH1 0x20 PUSH1 0x0 KECCAK256 SWAP1 PUSH1 0x2 MUL ADD PUSH1 0x0 SWAP1 SWAP2 SWAP1 SWAP2 SWAP1 SWAP2 POP PUSH1 0x0 DUP3 ADD MLOAD DUP2 PUSH1 0x0 ADD PUSH1 0x0 PUSH2 0x100 EXP DUP2 SLOAD DUP2 PUSH20 0xFFFFFFFFFFFFFFFFFFFFFFFFFFFFFFFFFFFFFFFF MUL NOT AND SWAP1 DUP4 PUSH20 0xFFFFFFFFFFFFFFFFFFFFFFFFFFFFFFFFFFFFFFFF AND MUL OR SWAP1 SSTORE POP PUSH1 0x20 DUP3 ADD MLOAD DUP2 PUSH1 0x1 ADD SSTORE POP POP PUSH1 0x6 PUSH1 0x0 DUP5 PUSH20 0xFFFFFFFFFFFFFFFFFFFFFFFFFFFFFFFFFFFFFFFF AND PUSH20 0xFFFFFFFFFFFFFFFFFFFFFFFFFFFFFFFFFFFFFFFF AND DUP2 MSTORE PUSH1 0x20 ADD SWAP1 DUP2 MSTORE PUSH1 0x20 ADD PUSH1 0x0 KECCAK256 PUSH1 0x0 ADD PUSH1 0x0 DUP2 SLOAD DUP1 SWAP3 SWAP2 SWAP1 PUSH2 0x1708 SWAP1 PUSH2 0x25BF JUMP JUMPDEST SWAP2 SWAP1 POP SSTORE POP DUP3 PUSH1 0x7 PUSH1 0x0 DUP5 DUP2 MSTORE PUSH1 0x20 ADD SWAP1 DUP2 MSTORE PUSH1 0x20 ADD PUSH1 0x0 KECCAK256 PUSH1 0x0 PUSH2 0x100 EXP DUP2 SLOAD DUP2 PUSH20 0xFFFFFFFFFFFFFFFFFFFFFFFFFFFFFFFFFFFFFFFF MUL NOT AND SWAP1 DUP4 PUSH20 0xFFFFFFFFFFFFFFFFFFFFFFFFFFFFFFFFFFFFFFFF AND MUL OR SWAP1 SSTORE POP TIMESTAMP PUSH1 0x6 PUSH1 0x0 DUP6 PUSH20 0xFFFFFFFFFFFFFFFFFFFFFFFFFFFFFFFFFFFFFFFF AND PUSH20 0xFFFFFFFFFFFFFFFFFFFFFFFFFFFFFFFFFFFFFFFF AND DUP2 MSTORE PUSH1 0x20 ADD SWAP1 DUP2 MSTORE PUSH1 0x20 ADD PUSH1 0x0 KECCAK256 PUSH1 0x2 ADD DUP2 SWAP1 SSTORE POP POP POP POP JUMP JUMPDEST PUSH2 0x17B3 PUSH2 0x906 JUMP JUMPDEST PUSH2 0x17F2 JUMPI PUSH1 0x40 MLOAD PUSH32 0x8C379A000000000000000000000000000000000000000000000000000000000 DUP2 MSTORE PUSH1 0x4 ADD PUSH2 0x17E9 SWAP1 PUSH2 0x21C0 JUMP JUMPDEST PUSH1 0x40 MLOAD DUP1 SWAP2 SUB SWAP1 REVERT JUMPDEST JUMP JUMPDEST PUSH1 0x0 PUSH2 0x1856 DUP3 PUSH1 0x40 MLOAD DUP1 PUSH1 0x40 ADD PUSH1 0x40 MSTORE DUP1 PUSH1 0x20 DUP2 MSTORE PUSH1 0x20 ADD PUSH32 0x5361666545524332303A206C6F772D6C6576656C2063616C6C206661696C6564 DUP2 MSTORE POP DUP6 PUSH20 0xFFFFFFFFFFFFFFFFFFFFFFFFFFFFFFFFFFFFFFFF AND PUSH2 0x18C3 SWAP1 SWAP3 SWAP2 SWAP1 PUSH4 0xFFFFFFFF AND JUMP JUMPDEST SWAP1 POP PUSH1 0x0 DUP2 MLOAD GT ISZERO PUSH2 0x18B6 JUMPI DUP1 DUP1 PUSH1 0x20 ADD SWAP1 MLOAD DUP2 ADD SWAP1 PUSH2 0x1876 SWAP2 SWAP1 PUSH2 0x1B54 JUMP JUMPDEST PUSH2 0x18B5 JUMPI PUSH1 0x40 MLOAD PUSH32 0x8C379A000000000000000000000000000000000000000000000000000000000 DUP2 MSTORE PUSH1 0x4 ADD PUSH2 0x18AC SWAP1 PUSH2 0x22C0 JUMP JUMPDEST PUSH1 0x40 MLOAD DUP1 SWAP2 SUB SWAP1 REVERT JUMPDEST JUMPDEST POP POP POP JUMP JUMPDEST PUSH1 0x0 CALLER SWAP1 POP SWAP1 JUMP JUMPDEST PUSH1 0x60 PUSH2 0x18D2 DUP5 DUP5 PUSH1 0x0 DUP6 PUSH2 0x18DB JUMP JUMPDEST SWAP1 POP SWAP4 SWAP3 POP POP POP JUMP JUMPDEST PUSH1 0x60 DUP3 SELFBALANCE LT ISZERO PUSH2 0x1920 JUMPI PUSH1 0x40 MLOAD PUSH32 0x8C379A000000000000000000000000000000000000000000000000000000000 DUP2 MSTORE PUSH1 0x4 ADD PUSH2 0x1917 SWAP1 PUSH2 0x2220 JUMP JUMPDEST PUSH1 0x40 MLOAD DUP1 SWAP2 SUB SWAP1 REVERT JUMPDEST PUSH2 0x1929 DUP6 PUSH2 0x19EF JUMP JUMPDEST PUSH2 0x1968 JUMPI PUSH1 0x40 MLOAD PUSH32 0x8C379A000000000000000000000000000000000000000000000000000000000 DUP2 MSTORE PUSH1 0x4 ADD PUSH2 0x195F SWAP1 PUSH2 0x22A0 JUMP JUMPDEST PUSH1 0x40 MLOAD DUP1 SWAP2 SUB SWAP1 REVERT JUMPDEST PUSH1 0x0 DUP1 DUP7 PUSH20 0xFFFFFFFFFFFFFFFFFFFFFFFFFFFFFFFFFFFFFFFF AND DUP6 DUP8 PUSH1 0x40 MLOAD PUSH2 0x1991 SWAP2 SWAP1 PUSH2 0x2079 JUMP JUMPDEST PUSH1 0x0 PUSH1 0x40 MLOAD DUP1 DUP4 SUB DUP2 DUP6 DUP8 GAS CALL SWAP3 POP POP POP RETURNDATASIZE DUP1 PUSH1 0x0 DUP2 EQ PUSH2 0x19CE JUMPI PUSH1 0x40 MLOAD SWAP2 POP PUSH1 0x1F NOT PUSH1 0x3F RETURNDATASIZE ADD AND DUP3 ADD PUSH1 0x40 MSTORE RETURNDATASIZE DUP3 MSTORE RETURNDATASIZE PUSH1 0x0 PUSH1 0x20 DUP5 ADD RETURNDATACOPY PUSH2 0x19D3 JUMP JUMPDEST PUSH1 0x60 SWAP2 POP JUMPDEST POP SWAP2 POP SWAP2 POP PUSH2 0x19E3 DUP3 DUP3 DUP7 PUSH2 0x1A02 JUMP JUMPDEST SWAP3 POP POP POP SWAP5 SWAP4 POP POP POP POP JUMP JUMPDEST PUSH1 0x0 DUP1 DUP3 EXTCODESIZE SWAP1 POP PUSH1 0x0 DUP2 GT SWAP2 POP POP SWAP2 SWAP1 POP JUMP JUMPDEST PUSH1 0x60 DUP4 ISZERO PUSH2 0x1A12 JUMPI DUP3 SWAP1 POP PUSH2 0x1A62 JUMP JUMPDEST PUSH1 0x0 DUP4 MLOAD GT ISZERO PUSH2 0x1A25 JUMPI DUP3 MLOAD DUP1 DUP5 PUSH1 0x20 ADD REVERT JUMPDEST DUP2 PUSH1 0x40 MLOAD PUSH32 0x8C379A000000000000000000000000000000000000000000000000000000000 DUP2 MSTORE PUSH1 0x4 ADD PUSH2 0x1A59 SWAP2 SWAP1 PUSH2 0x217E JUMP JUMPDEST PUSH1 0x40 MLOAD DUP1 SWAP2 SUB SWAP1 REVERT JUMPDEST SWAP4 SWAP3 POP POP POP JUMP JUMPDEST PUSH1 0x40 MLOAD DUP1 PUSH1 0x40 ADD PUSH1 0x40 MSTORE DUP1 PUSH1 0x0 PUSH20 0xFFFFFFFFFFFFFFFFFFFFFFFFFFFFFFFFFFFFFFFF AND DUP2 MSTORE PUSH1 0x20 ADD PUSH1 0x0 DUP2 MSTORE POP SWAP1 JUMP JUMPDEST PUSH1 0x0 DUP2 CALLDATALOAD SWAP1 POP PUSH2 0x1AA8 DUP2 PUSH2 0x2677 JUMP JUMPDEST SWAP3 SWAP2 POP POP JUMP JUMPDEST PUSH1 0x0 DUP2 MLOAD SWAP1 POP PUSH2 0x1ABD DUP2 PUSH2 0x2677 JUMP JUMPDEST SWAP3 SWAP2 POP POP JUMP JUMPDEST PUSH1 0x0 DUP2 MLOAD SWAP1 POP PUSH2 0x1AD2 DUP2 PUSH2 0x268E JUMP JUMPDEST SWAP3 SWAP2 POP POP JUMP JUMPDEST PUSH1 0x0 DUP2 CALLDATALOAD SWAP1 POP PUSH2 0x1AE7 DUP2 PUSH2 0x26A5 JUMP JUMPDEST SWAP3 SWAP2 POP POP JUMP JUMPDEST PUSH1 0x0 DUP2 MLOAD SWAP1 POP PUSH2 0x1AFC DUP2 PUSH2 0x26A5 JUMP JUMPDEST SWAP3 SWAP2 POP POP JUMP JUMPDEST PUSH1 0x0 PUSH1 0x20 DUP3 DUP5 SUB SLT ISZERO PUSH2 0x1B14 JUMPI PUSH1 0x0 DUP1 REVERT JUMPDEST PUSH1 0x0 PUSH2 0x1B22 DUP5 DUP3 DUP6 ADD PUSH2 0x1A99 JUMP JUMPDEST SWAP2 POP POP SWAP3 SWAP2 POP POP JUMP JUMPDEST PUSH1 0x0 PUSH1 0x20 DUP3 DUP5 SUB SLT ISZERO PUSH2 0x1B3D JUMPI PUSH1 0x0 DUP1 REVERT JUMPDEST PUSH1 0x0 PUSH2 0x1B4B DUP5 DUP3 DUP6 ADD PUSH2 0x1AAE JUMP JUMPDEST SWAP2 POP POP SWAP3 SWAP2 POP POP JUMP JUMPDEST PUSH1 0x0 PUSH1 0x20 DUP3 DUP5 SUB SLT ISZERO PUSH2 0x1B66 JUMPI PUSH1 0x0 DUP1 REVERT JUMPDEST PUSH1 0x0 PUSH2 0x1B74 DUP5 DUP3 DUP6 ADD PUSH2 0x1AC3 JUMP JUMPDEST SWAP2 POP POP SWAP3 SWAP2 POP POP JUMP JUMPDEST PUSH1 0x0 PUSH1 0x20 DUP3 DUP5 SUB SLT ISZERO PUSH2 0x1B8F JUMPI PUSH1 0x0 DUP1 REVERT JUMPDEST PUSH1 0x0 PUSH2 0x1B9D DUP5 DUP3 DUP6 ADD PUSH2 0x1AD8 JUMP JUMPDEST SWAP2 POP POP SWAP3 SWAP2 POP POP JUMP JUMPDEST PUSH1 0x0 PUSH1 0x20 DUP3 DUP5 SUB SLT ISZERO PUSH2 0x1BB8 JUMPI PUSH1 0x0 DUP1 REVERT JUMPDEST PUSH1 0x0 PUSH2 0x1BC6 DUP5 DUP3 DUP6 ADD PUSH2 0x1AED JUMP JUMPDEST SWAP2 POP POP SWAP3 SWAP2 POP POP JUMP JUMPDEST PUSH1 0x0 PUSH2 0x1BDB DUP4 DUP4 PUSH2 0x202C JUMP JUMPDEST PUSH1 0x40 DUP4 ADD SWAP1 POP SWAP3 SWAP2 POP POP JUMP JUMPDEST PUSH2 0x1BF0 DUP2 PUSH2 0x24D2 JUMP JUMPDEST DUP3 MSTORE POP POP JUMP JUMPDEST PUSH2 0x1BFF DUP2 PUSH2 0x24D2 JUMP JUMPDEST DUP3 MSTORE POP POP JUMP JUMPDEST PUSH1 0x0 PUSH2 0x1C10 DUP3 PUSH2 0x2362 JUMP JUMPDEST PUSH2 0x1C1A DUP2 DUP6 PUSH2 0x2390 JUMP JUMPDEST SWAP4 POP PUSH2 0x1C25 DUP4 PUSH2 0x2352 JUMP JUMPDEST DUP1 PUSH1 0x0 JUMPDEST DUP4 DUP2 LT ISZERO PUSH2 0x1C56 JUMPI DUP2 MLOAD PUSH2 0x1C3D DUP9 DUP3 PUSH2 0x1BCF JUMP JUMPDEST SWAP8 POP PUSH2 0x1C48 DUP4 PUSH2 0x2383 JUMP JUMPDEST SWAP3 POP POP PUSH1 0x1 DUP2 ADD SWAP1 POP PUSH2 0x1C29 JUMP JUMPDEST POP DUP6 SWAP4 POP POP POP POP SWAP3 SWAP2 POP POP JUMP JUMPDEST PUSH2 0x1C6C DUP2 PUSH2 0x24E4 JUMP JUMPDEST DUP3 MSTORE POP POP JUMP JUMPDEST PUSH1 0x0 PUSH2 0x1C7D DUP3 PUSH2 0x236D JUMP JUMPDEST PUSH2 0x1C87 DUP2 DUP6 PUSH2 0x23A1 JUMP JUMPDEST SWAP4 POP PUSH2 0x1C97 DUP2 DUP6 PUSH1 0x20 DUP7 ADD PUSH2 0x2562 JUMP JUMPDEST DUP1 DUP5 ADD SWAP2 POP POP SWAP3 SWAP2 POP POP JUMP JUMPDEST PUSH2 0x1CAC DUP2 PUSH2 0x251A JUMP JUMPDEST DUP3 MSTORE POP POP JUMP JUMPDEST PUSH2 0x1CBB DUP2 PUSH2 0x253E JUMP JUMPDEST DUP3 MSTORE POP POP JUMP JUMPDEST PUSH1 0x0 PUSH2 0x1CCC DUP3 PUSH2 0x2378 JUMP JUMPDEST PUSH2 0x1CD6 DUP2 DUP6 PUSH2 0x23AC JUMP JUMPDEST SWAP4 POP PUSH2 0x1CE6 DUP2 DUP6 PUSH1 0x20 DUP7 ADD PUSH2 0x2562 JUMP JUMPDEST PUSH2 0x1CEF DUP2 PUSH2 0x2666 JUMP JUMPDEST DUP5 ADD SWAP2 POP POP SWAP3 SWAP2 POP POP JUMP JUMPDEST PUSH1 0x0 PUSH2 0x1D07 PUSH1 0x19 DUP4 PUSH2 0x23AC JUMP JUMPDEST SWAP2 POP PUSH32 0x596F7520646F6E2774206F776E207468697320746F6B656E2100000000000000 PUSH1 0x0 DUP4 ADD MSTORE PUSH1 0x20 DUP3 ADD SWAP1 POP SWAP2 SWAP1 POP JUMP JUMPDEST PUSH1 0x0 PUSH2 0x1D47 PUSH1 0x14 DUP4 PUSH2 0x23AC JUMP JUMPDEST SWAP2 POP PUSH32 0x5061757361626C653A206E6F7420706175736564000000000000000000000000 PUSH1 0x0 DUP4 ADD MSTORE PUSH1 0x20 DUP3 ADD SWAP1 POP SWAP2 SWAP1 POP JUMP JUMPDEST PUSH1 0x0 PUSH2 0x1D87 PUSH1 0x26 DUP4 PUSH2 0x23AC JUMP JUMPDEST SWAP2 POP PUSH32 0x4F776E61626C653A206E6577206F776E657220697320746865207A65726F2061 PUSH1 0x0 DUP4 ADD MSTORE PUSH32 0x6464726573730000000000000000000000000000000000000000000000000000 PUSH1 0x20 DUP4 ADD MSTORE PUSH1 0x40 DUP3 ADD SWAP1 POP SWAP2 SWAP1 POP JUMP JUMPDEST PUSH1 0x0 PUSH2 0x1DED PUSH1 0x19 DUP4 PUSH2 0x23AC JUMP JUMPDEST SWAP2 POP PUSH32 0x596F752068617665206E6F20746F6B656E73207374616B656400000000000000 PUSH1 0x0 DUP4 ADD MSTORE PUSH1 0x20 DUP3 ADD SWAP1 POP SWAP2 SWAP1 POP JUMP JUMPDEST PUSH1 0x0 PUSH2 0x1E2D PUSH1 0x26 DUP4 PUSH2 0x23AC JUMP JUMPDEST SWAP2 POP PUSH32 0x416464726573733A20696E73756666696369656E742062616C616E636520666F PUSH1 0x0 DUP4 ADD MSTORE PUSH32 0x722063616C6C0000000000000000000000000000000000000000000000000000 PUSH1 0x20 DUP4 ADD MSTORE PUSH1 0x40 DUP3 ADD SWAP1 POP SWAP2 SWAP1 POP JUMP JUMPDEST PUSH1 0x0 PUSH2 0x1E93 PUSH1 0x10 DUP4 PUSH2 0x23AC JUMP JUMPDEST SWAP2 POP PUSH32 0x5061757361626C653A2070617573656400000000000000000000000000000000 PUSH1 0x0 DUP4 ADD MSTORE PUSH1 0x20 DUP3 ADD SWAP1 POP SWAP2 SWAP1 POP JUMP JUMPDEST PUSH1 0x0 PUSH2 0x1ED3 PUSH1 0x20 DUP4 PUSH2 0x23AC JUMP JUMPDEST SWAP2 POP PUSH32 0x4F776E61626C653A2063616C6C6572206973206E6F7420746865206F776E6572 PUSH1 0x0 DUP4 ADD MSTORE PUSH1 0x20 DUP3 ADD SWAP1 POP SWAP2 SWAP1 POP JUMP JUMPDEST PUSH1 0x0 PUSH2 0x1F13 PUSH1 0x1C DUP4 PUSH2 0x23AC JUMP JUMPDEST SWAP2 POP PUSH32 0x596F752068617665206E6F207265776172647320746F20636C61696D00000000 PUSH1 0x0 DUP4 ADD MSTORE PUSH1 0x20 DUP3 ADD SWAP1 POP SWAP2 SWAP1 POP JUMP JUMPDEST PUSH1 0x0 PUSH2 0x1F53 PUSH1 0x1D DUP4 PUSH2 0x23AC JUMP JUMPDEST SWAP2 POP PUSH32 0x416464726573733A2063616C6C20746F206E6F6E2D636F6E7472616374000000 PUSH1 0x0 DUP4 ADD MSTORE PUSH1 0x20 DUP3 ADD SWAP1 POP SWAP2 SWAP1 POP JUMP JUMPDEST PUSH1 0x0 PUSH2 0x1F93 PUSH1 0x2A DUP4 PUSH2 0x23AC JUMP JUMPDEST SWAP2 POP PUSH32 0x5361666545524332303A204552433230206F7065726174696F6E20646964206E PUSH1 0x0 DUP4 ADD MSTORE PUSH32 0x6F74207375636365656400000000000000000000000000000000000000000000 PUSH1 0x20 DUP4 ADD MSTORE PUSH1 0x40 DUP3 ADD SWAP1 POP SWAP2 SWAP1 POP JUMP JUMPDEST PUSH1 0x0 PUSH2 0x1FF9 PUSH1 0x1F DUP4 PUSH2 0x23AC JUMP JUMPDEST SWAP2 POP PUSH32 0x5265656E7472616E637947756172643A207265656E7472616E742063616C6C00 PUSH1 0x0 DUP4 ADD MSTORE PUSH1 0x20 DUP3 ADD SWAP1 POP SWAP2 SWAP1 POP JUMP JUMPDEST PUSH1 0x40 DUP3 ADD PUSH1 0x0 DUP3 ADD MLOAD PUSH2 0x2042 PUSH1 0x0 DUP6 ADD DUP3 PUSH2 0x1BE7 JUMP JUMPDEST POP PUSH1 0x20 DUP3 ADD MLOAD PUSH2 0x2055 PUSH1 0x20 DUP6 ADD DUP3 PUSH2 0x205B JUMP JUMPDEST POP POP POP POP JUMP JUMPDEST PUSH2 0x2064 DUP2 PUSH2 0x2510 JUMP JUMPDEST DUP3 MSTORE POP POP JUMP JUMPDEST PUSH2 0x2073 DUP2 PUSH2 0x2510 JUMP JUMPDEST DUP3 MSTORE POP POP JUMP JUMPDEST PUSH1 0x0 PUSH2 0x2085 DUP3 DUP5 PUSH2 0x1C72 JUMP JUMPDEST SWAP2 POP DUP2 SWAP1 POP SWAP3 SWAP2 POP POP JUMP JUMPDEST PUSH1 0x0 PUSH1 0x20 DUP3 ADD SWAP1 POP PUSH2 0x20A5 PUSH1 0x0 DUP4 ADD DUP5 PUSH2 0x1BF6 JUMP JUMPDEST SWAP3 SWAP2 POP POP JUMP JUMPDEST PUSH1 0x0 PUSH1 0x60 DUP3 ADD SWAP1 POP PUSH2 0x20C0 PUSH1 0x0 DUP4 ADD DUP7 PUSH2 0x1BF6 JUMP JUMPDEST PUSH2 0x20CD PUSH1 0x20 DUP4 ADD DUP6 PUSH2 0x1BF6 JUMP JUMPDEST PUSH2 0x20DA PUSH1 0x40 DUP4 ADD DUP5 PUSH2 0x206A JUMP JUMPDEST SWAP5 SWAP4 POP POP POP POP JUMP JUMPDEST PUSH1 0x0 PUSH1 0x40 DUP3 ADD SWAP1 POP PUSH2 0x20F7 PUSH1 0x0 DUP4 ADD DUP6 PUSH2 0x1BF6 JUMP JUMPDEST PUSH2 0x2104 PUSH1 0x20 DUP4 ADD DUP5 PUSH2 0x206A JUMP JUMPDEST SWAP4 SWAP3 POP POP POP JUMP JUMPDEST PUSH1 0x0 PUSH1 0x20 DUP3 ADD SWAP1 POP DUP2 DUP2 SUB PUSH1 0x0 DUP4 ADD MSTORE PUSH2 0x2125 DUP2 DUP5 PUSH2 0x1C05 JUMP JUMPDEST SWAP1 POP SWAP3 SWAP2 POP POP JUMP JUMPDEST PUSH1 0x0 PUSH1 0x20 DUP3 ADD SWAP1 POP PUSH2 0x2142 PUSH1 0x0 DUP4 ADD DUP5 PUSH2 0x1C63 JUMP JUMPDEST SWAP3 SWAP2 POP POP JUMP JUMPDEST PUSH1 0x0 PUSH1 0x20 DUP3 ADD SWAP1 POP PUSH2 0x215D PUSH1 0x0 DUP4 ADD DUP5 PUSH2 0x1CA3 JUMP JUMPDEST SWAP3 SWAP2 POP POP JUMP JUMPDEST PUSH1 0x0 PUSH1 0x20 DUP3 ADD SWAP1 POP PUSH2 0x2178 PUSH1 0x0 DUP4 ADD DUP5 PUSH2 0x1CB2 JUMP JUMPDEST SWAP3 SWAP2 POP POP JUMP JUMPDEST PUSH1 0x0 PUSH1 0x20 DUP3 ADD SWAP1 POP DUP2 DUP2 SUB PUSH1 0x0 DUP4 ADD MSTORE PUSH2 0x2198 DUP2 DUP5 PUSH2 0x1CC1 JUMP JUMPDEST SWAP1 POP SWAP3 SWAP2 POP POP JUMP JUMPDEST PUSH1 0x0 PUSH1 0x20 DUP3 ADD SWAP1 POP DUP2 DUP2 SUB PUSH1 0x0 DUP4 ADD MSTORE PUSH2 0x21B9 DUP2 PUSH2 0x1CFA JUMP JUMPDEST SWAP1 POP SWAP2 SWAP1 POP JUMP JUMPDEST PUSH1 0x0 PUSH1 0x20 DUP3 ADD SWAP1 POP DUP2 DUP2 SUB PUSH1 0x0 DUP4 ADD MSTORE PUSH2 0x21D9 DUP2 PUSH2 0x1D3A JUMP JUMPDEST SWAP1 POP SWAP2 SWAP1 POP JUMP JUMPDEST PUSH1 0x0 PUSH1 0x20 DUP3 ADD SWAP1 POP DUP2 DUP2 SUB PUSH1 0x0 DUP4 ADD MSTORE PUSH2 0x21F9 DUP2 PUSH2 0x1D7A JUMP JUMPDEST SWAP1 POP SWAP2 SWAP1 POP JUMP JUMPDEST PUSH1 0x0 PUSH1 0x20 DUP3 ADD SWAP1 POP DUP2 DUP2 SUB PUSH1 0x0 DUP4 ADD MSTORE PUSH2 0x2219 DUP2 PUSH2 0x1DE0 JUMP JUMPDEST SWAP1 POP SWAP2 SWAP1 POP JUMP JUMPDEST PUSH1 0x0 PUSH1 0x20 DUP3 ADD SWAP1 POP DUP2 DUP2 SUB PUSH1 0x0 DUP4 ADD MSTORE PUSH2 0x2239 DUP2 PUSH2 0x1E20 JUMP JUMPDEST SWAP1 POP SWAP2 SWAP1 POP JUMP JUMPDEST PUSH1 0x0 PUSH1 0x20 DUP3 ADD SWAP1 POP DUP2 DUP2 SUB PUSH1 0x0 DUP4 ADD MSTORE PUSH2 0x2259 DUP2 PUSH2 0x1E86 JUMP JUMPDEST SWAP1 POP SWAP2 SWAP1 POP JUMP JUMPDEST PUSH1 0x0 PUSH1 0x20 DUP3 ADD SWAP1 POP DUP2 DUP2 SUB PUSH1 0x0 DUP4 ADD MSTORE PUSH2 0x2279 DUP2 PUSH2 0x1EC6 JUMP JUMPDEST SWAP1 POP SWAP2 SWAP1 POP JUMP JUMPDEST PUSH1 0x0 PUSH1 0x20 DUP3 ADD SWAP1 POP DUP2 DUP2 SUB PUSH1 0x0 DUP4 ADD MSTORE PUSH2 0x2299 DUP2 PUSH2 0x1F06 JUMP JUMPDEST SWAP1 POP SWAP2 SWAP1 POP JUMP JUMPDEST PUSH1 0x0 PUSH1 0x20 DUP3 ADD SWAP1 POP DUP2 DUP2 SUB PUSH1 0x0 DUP4 ADD MSTORE PUSH2 0x22B9 DUP2 PUSH2 0x1F46 JUMP JUMPDEST SWAP1 POP SWAP2 SWAP1 POP JUMP JUMPDEST PUSH1 0x0 PUSH1 0x20 DUP3 ADD SWAP1 POP DUP2 DUP2 SUB PUSH1 0x0 DUP4 ADD MSTORE PUSH2 0x22D9 DUP2 PUSH2 0x1F86 JUMP JUMPDEST SWAP1 POP SWAP2 SWAP1 POP JUMP JUMPDEST PUSH1 0x0 PUSH1 0x20 DUP3 ADD SWAP1 POP DUP2 DUP2 SUB PUSH1 0x0 DUP4 ADD MSTORE PUSH2 0x22F9 DUP2 PUSH2 0x1FEC JUMP JUMPDEST SWAP1 POP SWAP2 SWAP1 POP JUMP JUMPDEST PUSH1 0x0 PUSH1 0x20 DUP3 ADD SWAP1 POP PUSH2 0x2315 PUSH1 0x0 DUP4 ADD DUP5 PUSH2 0x206A JUMP JUMPDEST SWAP3 SWAP2 POP POP JUMP JUMPDEST PUSH1 0x0 PUSH1 0x60 DUP3 ADD SWAP1 POP PUSH2 0x2330 PUSH1 0x0 DUP4 ADD DUP7 PUSH2 0x206A JUMP JUMPDEST PUSH2 0x233D PUSH1 0x20 DUP4 ADD DUP6 PUSH2 0x206A JUMP JUMPDEST PUSH2 0x234A PUSH1 0x40 DUP4 ADD DUP5 PUSH2 0x206A JUMP JUMPDEST SWAP5 SWAP4 POP POP POP POP JUMP JUMPDEST PUSH1 0x0 DUP2 SWAP1 POP PUSH1 0x20 DUP3 ADD SWAP1 POP SWAP2 SWAP1 POP JUMP JUMPDEST PUSH1 0x0 DUP2 MLOAD SWAP1 POP SWAP2 SWAP1 POP JUMP JUMPDEST PUSH1 0x0 DUP2 MLOAD SWAP1 POP SWAP2 SWAP1 POP JUMP JUMPDEST PUSH1 0x0 DUP2 MLOAD SWAP1 POP SWAP2 SWAP1 POP JUMP JUMPDEST PUSH1 0x0 PUSH1 0x20 DUP3 ADD SWAP1 POP SWAP2 SWAP1 POP JUMP JUMPDEST PUSH1 0x0 DUP3 DUP3 MSTORE PUSH1 0x20 DUP3 ADD SWAP1 POP SWAP3 SWAP2 POP POP JUMP JUMPDEST PUSH1 0x0 DUP2 SWAP1 POP SWAP3 SWAP2 POP POP JUMP JUMPDEST PUSH1 0x0 DUP3 DUP3 MSTORE PUSH1 0x20 DUP3 ADD SWAP1 POP SWAP3 SWAP2 POP POP JUMP JUMPDEST PUSH1 0x0 PUSH2 0x23C8 DUP3 PUSH2 0x2510 JUMP JUMPDEST SWAP2 POP PUSH2 0x23D3 DUP4 PUSH2 0x2510 JUMP JUMPDEST SWAP3 POP DUP3 PUSH32 0xFFFFFFFFFFFFFFFFFFFFFFFFFFFFFFFFFFFFFFFFFFFFFFFFFFFFFFFFFFFFFFFF SUB DUP3 GT ISZERO PUSH2 0x2408 JUMPI PUSH2 0x2407 PUSH2 0x2608 JUMP JUMPDEST JUMPDEST DUP3 DUP3 ADD SWAP1 POP SWAP3 SWAP2 POP POP JUMP JUMPDEST PUSH1 0x0 PUSH2 0x241E DUP3 PUSH2 0x2510 JUMP JUMPDEST SWAP2 POP PUSH2 0x2429 DUP4 PUSH2 0x2510 JUMP JUMPDEST SWAP3 POP DUP3 PUSH2 0x2439 JUMPI PUSH2 0x2438 PUSH2 0x2637 JUMP JUMPDEST JUMPDEST DUP3 DUP3 DIV SWAP1 POP SWAP3 SWAP2 POP POP JUMP JUMPDEST PUSH1 0x0 PUSH2 0x244F DUP3 PUSH2 0x2510 JUMP JUMPDEST SWAP2 POP PUSH2 0x245A DUP4 PUSH2 0x2510 JUMP JUMPDEST SWAP3 POP DUP2 PUSH32 0xFFFFFFFFFFFFFFFFFFFFFFFFFFFFFFFFFFFFFFFFFFFFFFFFFFFFFFFFFFFFFFFF DIV DUP4 GT DUP3 ISZERO ISZERO AND ISZERO PUSH2 0x2493 JUMPI PUSH2 0x2492 PUSH2 0x2608 JUMP JUMPDEST JUMPDEST DUP3 DUP3 MUL SWAP1 POP SWAP3 SWAP2 POP POP JUMP JUMPDEST PUSH1 0x0 PUSH2 0x24A9 DUP3 PUSH2 0x2510 JUMP JUMPDEST SWAP2 POP PUSH2 0x24B4 DUP4 PUSH2 0x2510 JUMP JUMPDEST SWAP3 POP DUP3 DUP3 LT ISZERO PUSH2 0x24C7 JUMPI PUSH2 0x24C6 PUSH2 0x2608 JUMP JUMPDEST JUMPDEST DUP3 DUP3 SUB SWAP1 POP SWAP3 SWAP2 POP POP JUMP JUMPDEST PUSH1 0x0 PUSH2 0x24DD DUP3 PUSH2 0x24F0 JUMP JUMPDEST SWAP1 POP SWAP2 SWAP1 POP JUMP JUMPDEST PUSH1 0x0 DUP2 ISZERO ISZERO SWAP1 POP SWAP2 SWAP1 POP JUMP JUMPDEST PUSH1 0x0 PUSH20 0xFFFFFFFFFFFFFFFFFFFFFFFFFFFFFFFFFFFFFFFF DUP3 AND SWAP1 POP SWAP2 SWAP1 POP JUMP JUMPDEST PUSH1 0x0 DUP2 SWAP1 POP SWAP2 SWAP1 POP JUMP JUMPDEST PUSH1 0x0 PUSH2 0x2525 DUP3 PUSH2 0x252C JUMP JUMPDEST SWAP1 POP SWAP2 SWAP1 POP JUMP JUMPDEST PUSH1 0x0 PUSH2 0x2537 DUP3 PUSH2 0x24F0 JUMP JUMPDEST SWAP1 POP SWAP2 SWAP1 POP JUMP JUMPDEST PUSH1 0x0 PUSH2 0x2549 DUP3 PUSH2 0x2550 JUMP JUMPDEST SWAP1 POP SWAP2 SWAP1 POP JUMP JUMPDEST PUSH1 0x0 PUSH2 0x255B DUP3 PUSH2 0x24F0 JUMP JUMPDEST SWAP1 POP SWAP2 SWAP1 POP JUMP JUMPDEST PUSH1 0x0 JUMPDEST DUP4 DUP2 LT ISZERO PUSH2 0x2580 JUMPI DUP1 DUP3 ADD MLOAD DUP2 DUP5 ADD MSTORE PUSH1 0x20 DUP2 ADD SWAP1 POP PUSH2 0x2565 JUMP JUMPDEST DUP4 DUP2 GT ISZERO PUSH2 0x258F JUMPI PUSH1 0x0 DUP5 DUP5 ADD MSTORE JUMPDEST POP POP POP POP JUMP JUMPDEST PUSH1 0x0 PUSH2 0x25A0 DUP3 PUSH2 0x2510 JUMP JUMPDEST SWAP2 POP PUSH1 0x0 DUP3 EQ ISZERO PUSH2 0x25B4 JUMPI PUSH2 0x25B3 PUSH2 0x2608 JUMP JUMPDEST JUMPDEST PUSH1 0x1 DUP3 SUB SWAP1 POP SWAP2 SWAP1 POP JUMP JUMPDEST PUSH1 0x0 PUSH2 0x25CA DUP3 PUSH2 0x2510 JUMP JUMPDEST SWAP2 POP PUSH32 0xFFFFFFFFFFFFFFFFFFFFFFFFFFFFFFFFFFFFFFFFFFFFFFFFFFFFFFFFFFFFFFFF DUP3 EQ ISZERO PUSH2 0x25FD JUMPI PUSH2 0x25FC PUSH2 0x2608 JUMP JUMPDEST JUMPDEST PUSH1 0x1 DUP3 ADD SWAP1 POP SWAP2 SWAP1 POP JUMP JUMPDEST PUSH32 0x4E487B7100000000000000000000000000000000000000000000000000000000 PUSH1 0x0 MSTORE PUSH1 0x11 PUSH1 0x4 MSTORE PUSH1 0x24 PUSH1 0x0 REVERT JUMPDEST PUSH32 0x4E487B7100000000000000000000000000000000000000000000000000000000 PUSH1 0x0 MSTORE PUSH1 0x12 PUSH1 0x4 MSTORE PUSH1 0x24 PUSH1 0x0 REVERT JUMPDEST PUSH1 0x0 PUSH1 0x1F NOT PUSH1 0x1F DUP4 ADD AND SWAP1 POP SWAP2 SWAP1 POP JUMP JUMPDEST PUSH2 0x2680 DUP2 PUSH2 0x24D2 JUMP JUMPDEST DUP2 EQ PUSH2 0x268B JUMPI PUSH1 0x0 DUP1 REVERT JUMPDEST POP JUMP JUMPDEST PUSH2 0x2697 DUP2 PUSH2 0x24E4 JUMP JUMPDEST DUP2 EQ PUSH2 0x26A2 JUMPI PUSH1 0x0 DUP1 REVERT JUMPDEST POP JUMP JUMPDEST PUSH2 0x26AE DUP2 PUSH2 0x2510 JUMP JUMPDEST DUP2 EQ PUSH2 0x26B9 JUMPI PUSH1 0x0 DUP1 REVERT JUMPDEST POP JUMP INVALID LOG2 PUSH5 0x6970667358 0x22 SLT KECCAK256 0xCD 0xDC 0xEE PUSH14 0xFD817547ED4B439668F23C6D86B9 DUP10 0x4B KECCAK256 0x4F SELFDESTRUCT 0xD2 0xB3 BLOCKHASH 0xE0 0x5D 0x24 CREATE2 DUP11 0xCC PUSH5 0x736F6C6343 STOP ADDMOD STOP STOP CALLER "
				},
				"gasEstimates": {
					"creation": {
						"codeDepositCost": "1994000",
						"executionCost": "infinite",
						"totalCost": "infinite"
					},
					"external": {
						"adminWithdrawRewards()": "infinite",
						"availableRewards(address)": "infinite",
						"claimRewards()": "infinite",
						"getStakedTokens(address)": "infinite",
						"nftCollection()": "1302",
						"owner()": "1358",
						"paused()": "1247",
						"renounceOwnership()": "24609",
						"rewardsToken()": "1279",
						"stake(uint256)": "infinite",
						"stakerAddress(uint256)": "1584",
						"stakers(address)": "infinite",
						"transferOwnership(address)": "24935",
						"withdraw(uint256)": "infinite"
					},
					"internal": {
						"_stake(address,uint256)": "infinite",
						"calculateRewards(address)": "infinite"
					}
				},
				"methodIdentifiers": {
					"adminWithdrawRewards()": "f995441b",
					"availableRewards(address)": "f854a27f",
					"claimRewards()": "372500ab",
					"getStakedTokens(address)": "63c28db1",
					"nftCollection()": "6588103b",
					"owner()": "8da5cb5b",
					"paused()": "5c975abb",
					"renounceOwnership()": "715018a6",
					"rewardsToken()": "d1af0c7d",
					"stake(uint256)": "a694fc3a",
					"stakerAddress(uint256)": "94067045",
					"stakers(address)": "9168ae72",
					"transferOwnership(address)": "f2fde38b",
					"withdraw(uint256)": "2e1a7d4d"
				}
			},
			"storageLayout": {
				"storage": [
					{
						"astId": 569,
						"contract": "Farm.sol:Farm",
						"label": "_status",
						"offset": 0,
						"slot": "0",
						"type": "t_uint256"
					},
					{
						"astId": 471,
						"contract": "Farm.sol:Farm",
						"label": "_paused",
						"offset": 0,
						"slot": "1",
						"type": "t_bool"
					},
					{
						"astId": 1022,
						"contract": "Farm.sol:Farm",
						"label": "_owner",
						"offset": 1,
						"slot": "1",
						"type": "t_address"
					},
					{
						"astId": 1159,
						"contract": "Farm.sol:Farm",
						"label": "rewardsToken",
						"offset": 0,
						"slot": "2",
						"type": "t_contract(IERC20)438"
					},
					{
						"astId": 1162,
						"contract": "Farm.sol:Farm",
						"label": "nftCollection",
						"offset": 0,
						"slot": "3",
						"type": "t_contract(IERC721)122"
					},
					{
						"astId": 1164,
						"contract": "Farm.sol:Farm",
						"label": "nftCollectionAddress",
						"offset": 0,
						"slot": "4",
						"type": "t_address"
					},
					{
						"astId": 1167,
						"contract": "Farm.sol:Farm",
						"label": "rewardsPerHour",
						"offset": 0,
						"slot": "5",
						"type": "t_uint256"
					},
					{
						"astId": 1172,
						"contract": "Farm.sol:Farm",
						"label": "stakers",
						"offset": 0,
						"slot": "6",
						"type": "t_mapping(t_address,t_struct(Staker)1156_storage)"
					},
					{
						"astId": 1176,
						"contract": "Farm.sol:Farm",
						"label": "stakerAddress",
						"offset": 0,
						"slot": "7",
						"type": "t_mapping(t_uint256,t_address)"
					}
				],
				"types": {
					"t_address": {
						"encoding": "inplace",
						"label": "address",
						"numberOfBytes": "20"
					},
					"t_array(t_struct(StakedToken)1145_storage)dyn_storage": {
						"base": "t_struct(StakedToken)1145_storage",
						"encoding": "dynamic_array",
						"label": "struct Farm.StakedToken[]",
						"numberOfBytes": "32"
					},
					"t_bool": {
						"encoding": "inplace",
						"label": "bool",
						"numberOfBytes": "1"
					},
					"t_contract(IERC20)438": {
						"encoding": "inplace",
						"label": "contract IERC20",
						"numberOfBytes": "20"
					},
					"t_contract(IERC721)122": {
						"encoding": "inplace",
						"label": "contract IERC721",
						"numberOfBytes": "20"
					},
					"t_mapping(t_address,t_struct(Staker)1156_storage)": {
						"encoding": "mapping",
						"key": "t_address",
						"label": "mapping(address => struct Farm.Staker)",
						"numberOfBytes": "32",
						"value": "t_struct(Staker)1156_storage"
					},
					"t_mapping(t_uint256,t_address)": {
						"encoding": "mapping",
						"key": "t_uint256",
						"label": "mapping(uint256 => address)",
						"numberOfBytes": "32",
						"value": "t_address"
					},
					"t_struct(StakedToken)1145_storage": {
						"encoding": "inplace",
						"label": "struct Farm.StakedToken",
						"members": [
							{
								"astId": 1142,
								"contract": "Farm.sol:Farm",
								"label": "staker",
								"offset": 0,
								"slot": "0",
								"type": "t_address"
							},
							{
								"astId": 1144,
								"contract": "Farm.sol:Farm",
								"label": "tokenId",
								"offset": 0,
								"slot": "1",
								"type": "t_uint256"
							}
						],
						"numberOfBytes": "64"
					},
					"t_struct(Staker)1156_storage": {
						"encoding": "inplace",
						"label": "struct Farm.Staker",
						"members": [
							{
								"astId": 1147,
								"contract": "Farm.sol:Farm",
								"label": "amountStaked",
								"offset": 0,
								"slot": "0",
								"type": "t_uint256"
							},
							{
								"astId": 1151,
								"contract": "Farm.sol:Farm",
								"label": "stakedTokens",
								"offset": 0,
								"slot": "1",
								"type": "t_array(t_struct(StakedToken)1145_storage)dyn_storage"
							},
							{
								"astId": 1153,
								"contract": "Farm.sol:Farm",
								"label": "timeOfLastUpdate",
								"offset": 0,
								"slot": "2",
								"type": "t_uint256"
							},
							{
								"astId": 1155,
								"contract": "Farm.sol:Farm",
								"label": "unclaimedRewards",
								"offset": 0,
								"slot": "3",
								"type": "t_uint256"
							}
						],
						"numberOfBytes": "128"
					},
					"t_uint256": {
						"encoding": "inplace",
						"label": "uint256",
						"numberOfBytes": "32"
					}
				}
			},
			"userdoc": {
				"kind": "user",
				"methods": {},
				"version": 1
			}
		}
	}
}