{
	"Farm.sol": {
		"Farm": {
			"abi": [
				{
					"inputs": [
						{
							"internalType": "contract IERC721",
							"name": "_nftCollection",
							"type": "address"
						},
						{
							"internalType": "contract IERC20",
							"name": "_rewardsToken",
							"type": "address"
						},
						{
							"internalType": "uint256",
							"name": "_rewardsPerHour",
							"type": "uint256"
						}
					],
					"stateMutability": "nonpayable",
					"type": "constructor"
				},
				{
					"anonymous": false,
					"inputs": [
						{
							"indexed": true,
							"internalType": "address",
							"name": "previousOwner",
							"type": "address"
						},
						{
							"indexed": true,
							"internalType": "address",
							"name": "newOwner",
							"type": "address"
						}
					],
					"name": "OwnershipTransferred",
					"type": "event"
				},
				{
					"anonymous": false,
					"inputs": [
						{
							"indexed": false,
							"internalType": "address",
							"name": "account",
							"type": "address"
						}
					],
					"name": "Paused",
					"type": "event"
				},
				{
					"anonymous": false,
					"inputs": [
						{
							"indexed": false,
							"internalType": "address",
							"name": "account",
							"type": "address"
						}
					],
					"name": "Unpaused",
					"type": "event"
				},
				{
					"inputs": [
						{
							"internalType": "address",
							"name": "_staker",
							"type": "address"
						}
					],
					"name": "availableRewards",
					"outputs": [
						{
							"internalType": "uint256",
							"name": "",
							"type": "uint256"
						}
					],
					"stateMutability": "view",
					"type": "function"
				},
				{
					"inputs": [],
					"name": "claimRewards",
					"outputs": [],
					"stateMutability": "nonpayable",
					"type": "function"
				},
				{
					"inputs": [
						{
							"internalType": "address",
							"name": "_user",
							"type": "address"
						}
					],
					"name": "getStakedTokens",
					"outputs": [
						{
							"components": [
								{
									"internalType": "address",
									"name": "staker",
									"type": "address"
								},
								{
									"internalType": "uint256",
									"name": "tokenId",
									"type": "uint256"
								}
							],
							"internalType": "struct Farm.StakedToken[]",
							"name": "",
							"type": "tuple[]"
						}
					],
					"stateMutability": "view",
					"type": "function"
				},
				{
					"inputs": [],
					"name": "nftCollection",
					"outputs": [
						{
							"internalType": "contract IERC721",
							"name": "",
							"type": "address"
						}
					],
					"stateMutability": "view",
					"type": "function"
				},
				{
					"inputs": [
						{
							"internalType": "address",
							"name": "operator",
							"type": "address"
						},
						{
							"internalType": "address",
							"name": "from",
							"type": "address"
						},
						{
							"internalType": "uint256",
							"name": "tokenId",
							"type": "uint256"
						},
						{
							"internalType": "bytes",
							"name": "data",
							"type": "bytes"
						}
					],
					"name": "onERC721Received",
					"outputs": [
						{
							"internalType": "bytes4",
							"name": "",
							"type": "bytes4"
						}
					],
					"stateMutability": "nonpayable",
					"type": "function"
				},
				{
					"inputs": [],
					"name": "owner",
					"outputs": [
						{
							"internalType": "address",
							"name": "",
							"type": "address"
						}
					],
					"stateMutability": "view",
					"type": "function"
				},
				{
					"inputs": [],
					"name": "paused",
					"outputs": [
						{
							"internalType": "bool",
							"name": "",
							"type": "bool"
						}
					],
					"stateMutability": "view",
					"type": "function"
				},
				{
					"inputs": [],
					"name": "renounceOwnership",
					"outputs": [],
					"stateMutability": "nonpayable",
					"type": "function"
				},
				{
					"inputs": [],
					"name": "rewardsToken",
					"outputs": [
						{
							"internalType": "contract IERC20",
							"name": "",
							"type": "address"
						}
					],
					"stateMutability": "view",
					"type": "function"
				},
				{
					"inputs": [
						{
							"internalType": "uint256",
							"name": "_tokenId",
							"type": "uint256"
						}
					],
					"name": "stake",
					"outputs": [],
					"stateMutability": "nonpayable",
					"type": "function"
				},
				{
					"inputs": [
						{
							"internalType": "uint256",
							"name": "",
							"type": "uint256"
						}
					],
					"name": "stakerAddress",
					"outputs": [
						{
							"internalType": "address",
							"name": "",
							"type": "address"
						}
					],
					"stateMutability": "view",
					"type": "function"
				},
				{
					"inputs": [
						{
							"internalType": "address",
							"name": "",
							"type": "address"
						}
					],
					"name": "stakers",
					"outputs": [
						{
							"internalType": "uint256",
							"name": "amountStaked",
							"type": "uint256"
						},
						{
							"internalType": "uint256",
							"name": "timeOfLastUpdate",
							"type": "uint256"
						},
						{
							"internalType": "uint256",
							"name": "unclaimedRewards",
							"type": "uint256"
						}
					],
					"stateMutability": "view",
					"type": "function"
				},
				{
					"inputs": [
						{
							"internalType": "address",
							"name": "newOwner",
							"type": "address"
						}
					],
					"name": "transferOwnership",
					"outputs": [],
					"stateMutability": "nonpayable",
					"type": "function"
				},
				{
					"inputs": [
						{
							"internalType": "uint256",
							"name": "_tokenId",
							"type": "uint256"
						}
					],
					"name": "withdraw",
					"outputs": [],
					"stateMutability": "nonpayable",
					"type": "function"
				}
			],
			"devdoc": {
				"kind": "dev",
				"methods": {
					"onERC721Received(address,address,uint256,bytes)": {
						"details": "Whenever an {IERC721} `tokenId` token is transferred to this contract via {IERC721-safeTransferFrom} by `operator` from `from`, this function is called. It must return its Solidity selector to confirm the token transfer. If any other value is returned or the interface is not implemented by the recipient, the transfer will be reverted. The selector can be obtained in Solidity with `IERC721Receiver.onERC721Received.selector`."
					},
					"owner()": {
						"details": "Returns the address of the current owner."
					},
					"paused()": {
						"details": "Returns true if the contract is paused, and false otherwise."
					},
					"renounceOwnership()": {
						"details": "Leaves the contract without owner. It will not be possible to call `onlyOwner` functions anymore. Can only be called by the current owner. NOTE: Renouncing ownership will leave the contract without an owner, thereby removing any functionality that is only available to the owner."
					},
					"transferOwnership(address)": {
						"details": "Transfers ownership of the contract to a new account (`newOwner`). Can only be called by the current owner."
					}
				},
				"version": 1
			},
			"evm": {
				"assembly": "    /* \"Farm.sol\":29748:34540  contract Farm is ReentrancyGuard, Pausable, Ownable, IERC721Receiver {\r... */\n  mstore(0x40, 0x80)\n    /* \"Farm.sol\":30317:30323  100000 */\n  0x0186a0\n    /* \"Farm.sol\":30284:30323  uint256 private rewardsPerHour = 100000 */\n  0x04\n  sstore\n    /* \"Farm.sol\":30520:30734  constructor(IERC721 _nftCollection, IERC20 _rewardsToken, uint256 _rewardsPerHour) {\r... */\n  callvalue\n  dup1\n  iszero\n  tag_1\n  jumpi\n  0x00\n  dup1\n  revert\ntag_1:\n  pop\n  mload(0x40)\n  sub(codesize, bytecodeSize)\n  dup1\n  bytecodeSize\n  dup4\n  codecopy\n  dup2\n  dup2\n  add\n  0x40\n  mstore\n  dup2\n  add\n  swap1\n  tag_2\n  swap2\n  swap1\n  tag_3\n  jump\t// in\ntag_2:\n    /* \"Farm.sol\":18664:18665  1 */\n  0x01\n    /* \"Farm.sol\":18775:18782  _status */\n  0x00\n    /* \"Farm.sol\":18775:18797  _status = _NOT_ENTERED */\n  dup2\n  swap1\n  sstore\n  pop\n    /* \"Farm.sol\":16203:16208  false */\n  0x00\n    /* \"Farm.sol\":16193:16200  _paused */\n  0x01\n  0x00\n    /* \"Farm.sol\":16193:16208  _paused = false */\n  0x0100\n  exp\n  dup2\n  sload\n  dup2\n  0xff\n  mul\n  not\n  and\n  swap1\n  dup4\n  iszero\n  iszero\n  mul\n  or\n  swap1\n  sstore\n  pop\n    /* \"Farm.sol\":28002:28034  _transferOwnership(_msgSender()) */\n  tag_11\n    /* \"Farm.sol\":28021:28033  _msgSender() */\n  tag_12\n    /* \"Farm.sol\":28021:28031  _msgSender */\n  shl(0x20, tag_13)\n    /* \"Farm.sol\":28021:28033  _msgSender() */\n  0x20\n  shr\n  jump\t// in\ntag_12:\n    /* \"Farm.sol\":28002:28020  _transferOwnership */\n  shl(0x20, tag_14)\n    /* \"Farm.sol\":28002:28034  _transferOwnership(_msgSender()) */\n  0x20\n  shr\n  jump\t// in\ntag_11:\n    /* \"Farm.sol\":30630:30644  _nftCollection */\n  dup3\n    /* \"Farm.sol\":30614:30627  nftCollection */\n  0x03\n  0x00\n    /* \"Farm.sol\":30614:30644  nftCollection = _nftCollection */\n  0x0100\n  exp\n  dup2\n  sload\n  dup2\n  0xffffffffffffffffffffffffffffffffffffffff\n  mul\n  not\n  and\n  swap1\n  dup4\n  0xffffffffffffffffffffffffffffffffffffffff\n  and\n  mul\n  or\n  swap1\n  sstore\n  pop\n    /* \"Farm.sol\":30670:30683  _rewardsToken */\n  dup2\n    /* \"Farm.sol\":30655:30667  rewardsToken */\n  0x02\n  0x00\n    /* \"Farm.sol\":30655:30683  rewardsToken = _rewardsToken */\n  0x0100\n  exp\n  dup2\n  sload\n  dup2\n  0xffffffffffffffffffffffffffffffffffffffff\n  mul\n  not\n  and\n  swap1\n  dup4\n  0xffffffffffffffffffffffffffffffffffffffff\n  and\n  mul\n  or\n  swap1\n  sstore\n  pop\n    /* \"Farm.sol\":30711:30726  _rewardsPerHour */\n  dup1\n    /* \"Farm.sol\":30694:30708  rewardsPerHour */\n  0x04\n    /* \"Farm.sol\":30694:30726  rewardsPerHour = _rewardsPerHour */\n  dup2\n  swap1\n  sstore\n  pop\n    /* \"Farm.sol\":30520:30734  constructor(IERC721 _nftCollection, IERC20 _rewardsToken, uint256 _rewardsPerHour) {\r... */\n  pop\n  pop\n  pop\n    /* \"Farm.sol\":29748:34540  contract Farm is ReentrancyGuard, Pausable, Ownable, IERC721Receiver {\r... */\n  jump(tag_16)\n    /* \"Farm.sol\":15568:15666  function _msgSender() internal view virtual returns (address) {\r... */\ntag_13:\n    /* \"Farm.sol\":15621:15628  address */\n  0x00\n    /* \"Farm.sol\":15648:15658  msg.sender */\n  caller\n    /* \"Farm.sol\":15641:15658  return msg.sender */\n  swap1\n  pop\n    /* \"Farm.sol\":15568:15666  function _msgSender() internal view virtual returns (address) {\r... */\n  swap1\n  jump\t// out\n    /* \"Farm.sol\":29548:29739  function _transferOwnership(address newOwner) internal virtual {\r... */\ntag_14:\n    /* \"Farm.sol\":29622:29638  address oldOwner */\n  0x00\n    /* \"Farm.sol\":29641:29647  _owner */\n  0x01\n  dup1\n  sload\n  swap1\n  0x0100\n  exp\n  swap1\n  div\n  0xffffffffffffffffffffffffffffffffffffffff\n  and\n    /* \"Farm.sol\":29622:29647  address oldOwner = _owner */\n  swap1\n  pop\n    /* \"Farm.sol\":29667:29675  newOwner */\n  dup2\n    /* \"Farm.sol\":29658:29664  _owner */\n  0x01\n  dup1\n    /* \"Farm.sol\":29658:29675  _owner = newOwner */\n  0x0100\n  exp\n  dup2\n  sload\n  dup2\n  0xffffffffffffffffffffffffffffffffffffffff\n  mul\n  not\n  and\n  swap1\n  dup4\n  0xffffffffffffffffffffffffffffffffffffffff\n  and\n  mul\n  or\n  swap1\n  sstore\n  pop\n    /* \"Farm.sol\":29722:29730  newOwner */\n  dup2\n    /* \"Farm.sol\":29691:29731  OwnershipTransferred(oldOwner, newOwner) */\n  0xffffffffffffffffffffffffffffffffffffffff\n  and\n    /* \"Farm.sol\":29712:29720  oldOwner */\n  dup2\n    /* \"Farm.sol\":29691:29731  OwnershipTransferred(oldOwner, newOwner) */\n  0xffffffffffffffffffffffffffffffffffffffff\n  and\n  0x8be0079c531659141344cd1fd0a4f28419497f9722a3daafe3b4186f6b6457e0\n  mload(0x40)\n  mload(0x40)\n  dup1\n  swap2\n  sub\n  swap1\n  log3\n    /* \"Farm.sol\":29548:29739  function _transferOwnership(address newOwner) internal virtual {\r... */\n  pop\n  pop\n  jump\t// out\n    /* \"#utility.yul\":7:178   */\ntag_20:\n  0x00\n    /* \"#utility.yul\":109:115   */\n  dup2\n    /* \"#utility.yul\":103:116   */\n  mload\n    /* \"#utility.yul\":94:116   */\n  swap1\n  pop\n    /* \"#utility.yul\":125:172   */\n  tag_22\n    /* \"#utility.yul\":166:171   */\n  dup2\n    /* \"#utility.yul\":125:172   */\n  tag_23\n  jump\t// in\ntag_22:\n    /* \"#utility.yul\":84:178   */\n  swap3\n  swap2\n  pop\n  pop\n  jump\t// out\n    /* \"#utility.yul\":184:357   */\ntag_24:\n  0x00\n    /* \"#utility.yul\":287:293   */\n  dup2\n    /* \"#utility.yul\":281:294   */\n  mload\n    /* \"#utility.yul\":272:294   */\n  swap1\n  pop\n    /* \"#utility.yul\":303:351   */\n  tag_26\n    /* \"#utility.yul\":345:350   */\n  dup2\n    /* \"#utility.yul\":303:351   */\n  tag_27\n  jump\t// in\ntag_26:\n    /* \"#utility.yul\":262:357   */\n  swap3\n  swap2\n  pop\n  pop\n  jump\t// out\n    /* \"#utility.yul\":363:506   */\ntag_28:\n  0x00\n    /* \"#utility.yul\":451:457   */\n  dup2\n    /* \"#utility.yul\":445:458   */\n  mload\n    /* \"#utility.yul\":436:458   */\n  swap1\n  pop\n    /* \"#utility.yul\":467:500   */\n  tag_30\n    /* \"#utility.yul\":494:499   */\n  dup2\n    /* \"#utility.yul\":467:500   */\n  tag_31\n  jump\t// in\ntag_30:\n    /* \"#utility.yul\":426:506   */\n  swap3\n  swap2\n  pop\n  pop\n  jump\t// out\n    /* \"#utility.yul\":512:1166   */\ntag_3:\n  0x00\n  dup1\n  0x00\n    /* \"#utility.yul\":694:696   */\n  0x60\n    /* \"#utility.yul\":682:691   */\n  dup5\n    /* \"#utility.yul\":673:680   */\n  dup7\n    /* \"#utility.yul\":669:692   */\n  sub\n    /* \"#utility.yul\":665:697   */\n  slt\n    /* \"#utility.yul\":662:664   */\n  iszero\n  tag_33\n  jumpi\n    /* \"#utility.yul\":710:711   */\n  0x00\n    /* \"#utility.yul\":707:708   */\n  dup1\n    /* \"#utility.yul\":700:712   */\n  revert\n    /* \"#utility.yul\":662:664   */\ntag_33:\n    /* \"#utility.yul\":753:754   */\n  0x00\n    /* \"#utility.yul\":778:857   */\n  tag_34\n    /* \"#utility.yul\":849:856   */\n  dup7\n    /* \"#utility.yul\":840:846   */\n  dup3\n    /* \"#utility.yul\":829:838   */\n  dup8\n    /* \"#utility.yul\":825:847   */\n  add\n    /* \"#utility.yul\":778:857   */\n  tag_24\n  jump\t// in\ntag_34:\n    /* \"#utility.yul\":768:857   */\n  swap4\n  pop\n    /* \"#utility.yul\":724:867   */\n  pop\n    /* \"#utility.yul\":906:908   */\n  0x20\n    /* \"#utility.yul\":932:1010   */\n  tag_35\n    /* \"#utility.yul\":1002:1009   */\n  dup7\n    /* \"#utility.yul\":993:999   */\n  dup3\n    /* \"#utility.yul\":982:991   */\n  dup8\n    /* \"#utility.yul\":978:1000   */\n  add\n    /* \"#utility.yul\":932:1010   */\n  tag_20\n  jump\t// in\ntag_35:\n    /* \"#utility.yul\":922:1010   */\n  swap3\n  pop\n    /* \"#utility.yul\":877:1020   */\n  pop\n    /* \"#utility.yul\":1059:1061   */\n  0x40\n    /* \"#utility.yul\":1085:1149   */\n  tag_36\n    /* \"#utility.yul\":1141:1148   */\n  dup7\n    /* \"#utility.yul\":1132:1138   */\n  dup3\n    /* \"#utility.yul\":1121:1130   */\n  dup8\n    /* \"#utility.yul\":1117:1139   */\n  add\n    /* \"#utility.yul\":1085:1149   */\n  tag_28\n  jump\t// in\ntag_36:\n    /* \"#utility.yul\":1075:1149   */\n  swap2\n  pop\n    /* \"#utility.yul\":1030:1159   */\n  pop\n    /* \"#utility.yul\":652:1166   */\n  swap3\n  pop\n  swap3\n  pop\n  swap3\n  jump\t// out\n    /* \"#utility.yul\":1172:1268   */\ntag_37:\n  0x00\n    /* \"#utility.yul\":1238:1262   */\n  tag_39\n    /* \"#utility.yul\":1256:1261   */\n  dup3\n    /* \"#utility.yul\":1238:1262   */\n  tag_40\n  jump\t// in\ntag_39:\n    /* \"#utility.yul\":1227:1262   */\n  swap1\n  pop\n    /* \"#utility.yul\":1217:1268   */\n  swap2\n  swap1\n  pop\n  jump\t// out\n    /* \"#utility.yul\":1274:1384   */\ntag_41:\n  0x00\n    /* \"#utility.yul\":1354:1378   */\n  tag_43\n    /* \"#utility.yul\":1372:1377   */\n  dup3\n    /* \"#utility.yul\":1354:1378   */\n  tag_37\n  jump\t// in\ntag_43:\n    /* \"#utility.yul\":1343:1378   */\n  swap1\n  pop\n    /* \"#utility.yul\":1333:1384   */\n  swap2\n  swap1\n  pop\n  jump\t// out\n    /* \"#utility.yul\":1390:1501   */\ntag_44:\n  0x00\n    /* \"#utility.yul\":1471:1495   */\n  tag_46\n    /* \"#utility.yul\":1489:1494   */\n  dup3\n    /* \"#utility.yul\":1471:1495   */\n  tag_37\n  jump\t// in\ntag_46:\n    /* \"#utility.yul\":1460:1495   */\n  swap1\n  pop\n    /* \"#utility.yul\":1450:1501   */\n  swap2\n  swap1\n  pop\n  jump\t// out\n    /* \"#utility.yul\":1507:1633   */\ntag_40:\n  0x00\n    /* \"#utility.yul\":1584:1626   */\n  0xffffffffffffffffffffffffffffffffffffffff\n    /* \"#utility.yul\":1577:1582   */\n  dup3\n    /* \"#utility.yul\":1573:1627   */\n  and\n    /* \"#utility.yul\":1562:1627   */\n  swap1\n  pop\n    /* \"#utility.yul\":1552:1633   */\n  swap2\n  swap1\n  pop\n  jump\t// out\n    /* \"#utility.yul\":1639:1716   */\ntag_48:\n  0x00\n    /* \"#utility.yul\":1705:1710   */\n  dup2\n    /* \"#utility.yul\":1694:1710   */\n  swap1\n  pop\n    /* \"#utility.yul\":1684:1716   */\n  swap2\n  swap1\n  pop\n  jump\t// out\n    /* \"#utility.yul\":1722:1872   */\ntag_23:\n    /* \"#utility.yul\":1809:1847   */\n  tag_51\n    /* \"#utility.yul\":1841:1846   */\n  dup2\n    /* \"#utility.yul\":1809:1847   */\n  tag_41\n  jump\t// in\ntag_51:\n    /* \"#utility.yul\":1802:1807   */\n  dup2\n    /* \"#utility.yul\":1799:1848   */\n  eq\n    /* \"#utility.yul\":1789:1791   */\n  tag_52\n  jumpi\n    /* \"#utility.yul\":1862:1863   */\n  0x00\n    /* \"#utility.yul\":1859:1860   */\n  dup1\n    /* \"#utility.yul\":1852:1864   */\n  revert\n    /* \"#utility.yul\":1789:1791   */\ntag_52:\n    /* \"#utility.yul\":1779:1872   */\n  pop\n  jump\t// out\n    /* \"#utility.yul\":1878:2030   */\ntag_27:\n    /* \"#utility.yul\":1966:2005   */\n  tag_54\n    /* \"#utility.yul\":1999:2004   */\n  dup2\n    /* \"#utility.yul\":1966:2005   */\n  tag_44\n  jump\t// in\ntag_54:\n    /* \"#utility.yul\":1959:1964   */\n  dup2\n    /* \"#utility.yul\":1956:2006   */\n  eq\n    /* \"#utility.yul\":1946:1948   */\n  tag_55\n  jumpi\n    /* \"#utility.yul\":2020:2021   */\n  0x00\n    /* \"#utility.yul\":2017:2018   */\n  dup1\n    /* \"#utility.yul\":2010:2022   */\n  revert\n    /* \"#utility.yul\":1946:1948   */\ntag_55:\n    /* \"#utility.yul\":1936:2030   */\n  pop\n  jump\t// out\n    /* \"#utility.yul\":2036:2158   */\ntag_31:\n    /* \"#utility.yul\":2109:2133   */\n  tag_57\n    /* \"#utility.yul\":2127:2132   */\n  dup2\n    /* \"#utility.yul\":2109:2133   */\n  tag_48\n  jump\t// in\ntag_57:\n    /* \"#utility.yul\":2102:2107   */\n  dup2\n    /* \"#utility.yul\":2099:2134   */\n  eq\n    /* \"#utility.yul\":2089:2091   */\n  tag_58\n  jumpi\n    /* \"#utility.yul\":2148:2149   */\n  0x00\n    /* \"#utility.yul\":2145:2146   */\n  dup1\n    /* \"#utility.yul\":2138:2150   */\n  revert\n    /* \"#utility.yul\":2089:2091   */\ntag_58:\n    /* \"#utility.yul\":2079:2158   */\n  pop\n  jump\t// out\n    /* \"Farm.sol\":29748:34540  contract Farm is ReentrancyGuard, Pausable, Ownable, IERC721Receiver {\r... */\ntag_16:\n  dataSize(sub_0)\n  dup1\n  dataOffset(sub_0)\n  0x00\n  codecopy\n  0x00\n  return\nstop\n\nsub_0: assembly {\n        /* \"Farm.sol\":29748:34540  contract Farm is ReentrancyGuard, Pausable, Ownable, IERC721Receiver {\r... */\n      mstore(0x40, 0x80)\n      callvalue\n      dup1\n      iszero\n      tag_1\n      jumpi\n      0x00\n      dup1\n      revert\n    tag_1:\n      pop\n      jumpi(tag_2, lt(calldatasize, 0x04))\n      shr(0xe0, calldataload(0x00))\n      dup1\n      0x8da5cb5b\n      gt\n      tag_17\n      jumpi\n      dup1\n      0xa694fc3a\n      gt\n      tag_18\n      jumpi\n      dup1\n      0xa694fc3a\n      eq\n      tag_13\n      jumpi\n      dup1\n      0xd1af0c7d\n      eq\n      tag_14\n      jumpi\n      dup1\n      0xf2fde38b\n      eq\n      tag_15\n      jumpi\n      dup1\n      0xf854a27f\n      eq\n      tag_16\n      jumpi\n      jump(tag_2)\n    tag_18:\n      dup1\n      0x8da5cb5b\n      eq\n      tag_10\n      jumpi\n      dup1\n      0x9168ae72\n      eq\n      tag_11\n      jumpi\n      dup1\n      0x94067045\n      eq\n      tag_12\n      jumpi\n      jump(tag_2)\n    tag_17:\n      dup1\n      0x5c975abb\n      gt\n      tag_19\n      jumpi\n      dup1\n      0x5c975abb\n      eq\n      tag_6\n      jumpi\n      dup1\n      0x63c28db1\n      eq\n      tag_7\n      jumpi\n      dup1\n      0x6588103b\n      eq\n      tag_8\n      jumpi\n      dup1\n      0x715018a6\n      eq\n      tag_9\n      jumpi\n      jump(tag_2)\n    tag_19:\n      dup1\n      0x150b7a02\n      eq\n      tag_3\n      jumpi\n      dup1\n      0x2e1a7d4d\n      eq\n      tag_4\n      jumpi\n      dup1\n      0x372500ab\n      eq\n      tag_5\n      jumpi\n    tag_2:\n      0x00\n      dup1\n      revert\n        /* \"Farm.sol\":30742:31092  function onERC721Received(\r... */\n    tag_3:\n      tag_20\n      0x04\n      dup1\n      calldatasize\n      sub\n      dup2\n      add\n      swap1\n      tag_21\n      swap2\n      swap1\n      tag_22\n      jump\t// in\n    tag_21:\n      tag_23\n      jump\t// in\n    tag_20:\n      mload(0x40)\n      tag_24\n      swap2\n      swap1\n      tag_25\n      jump\t// in\n    tag_24:\n      mload(0x40)\n      dup1\n      swap2\n      sub\n      swap1\n      return\n        /* \"Farm.sol\":31864:32928  function withdraw(uint256 _tokenId) external nonReentrant {\r... */\n    tag_4:\n      tag_26\n      0x04\n      dup1\n      calldatasize\n      sub\n      dup2\n      add\n      swap1\n      tag_27\n      swap2\n      swap1\n      tag_28\n      jump\t// in\n    tag_27:\n      tag_29\n      jump\t// in\n    tag_26:\n      stop\n        /* \"Farm.sol\":33244:33630  function claimRewards() external {\r... */\n    tag_5:\n      tag_30\n      tag_31\n      jump\t// in\n    tag_30:\n      stop\n        /* \"Farm.sol\":16842:16928  function paused() public view virtual returns (bool) {\r... */\n    tag_6:\n      tag_32\n      tag_33\n      jump\t// in\n    tag_32:\n      mload(0x40)\n      tag_34\n      swap2\n      swap1\n      tag_35\n      jump\t// in\n    tag_34:\n      mload(0x40)\n      dup1\n      swap2\n      sub\n      swap1\n      return\n        /* \"Farm.sol\":33638:34318  function getStakedTokens(address _user) public view returns (StakedToken[] memory) {\r... */\n    tag_7:\n      tag_36\n      0x04\n      dup1\n      calldatasize\n      sub\n      dup2\n      add\n      swap1\n      tag_37\n      swap2\n      swap1\n      tag_38\n      jump\t// in\n    tag_37:\n      tag_39\n      jump\t// in\n    tag_36:\n      mload(0x40)\n      tag_40\n      swap2\n      swap1\n      tag_41\n      jump\t// in\n    tag_40:\n      mload(0x40)\n      dup1\n      swap2\n      sub\n      swap1\n      return\n        /* \"Farm.sol\":30197:30225  IERC721 public nftCollection */\n    tag_8:\n      tag_42\n      tag_43\n      jump\t// in\n    tag_42:\n      mload(0x40)\n      tag_44\n      swap2\n      swap1\n      tag_45\n      jump\t// in\n    tag_44:\n      mload(0x40)\n      dup1\n      swap2\n      sub\n      swap1\n      return\n        /* \"Farm.sol\":28929:29032  function renounceOwnership() public virtual onlyOwner {\r... */\n    tag_9:\n      tag_46\n      tag_47\n      jump\t// in\n    tag_46:\n      stop\n        /* \"Farm.sol\":28281:28368  function owner() public view virtual returns (address) {\r... */\n    tag_10:\n      tag_48\n      tag_49\n      jump\t// in\n    tag_48:\n      mload(0x40)\n      tag_50\n      swap2\n      swap1\n      tag_51\n      jump\t// in\n    tag_50:\n      mload(0x40)\n      dup1\n      swap2\n      sub\n      swap1\n      return\n        /* \"Farm.sol\":30336:30377  mapping(address => Staker) public stakers */\n    tag_11:\n      tag_52\n      0x04\n      dup1\n      calldatasize\n      sub\n      dup2\n      add\n      swap1\n      tag_53\n      swap2\n      swap1\n      tag_38\n      jump\t// in\n    tag_53:\n      tag_54\n      jump\t// in\n    tag_52:\n      mload(0x40)\n      tag_55\n      swap4\n      swap3\n      swap2\n      swap1\n      tag_56\n      jump\t// in\n    tag_55:\n      mload(0x40)\n      dup1\n      swap2\n      sub\n      swap1\n      return\n        /* \"Farm.sol\":30463:30511  mapping(uint256 => address) public stakerAddress */\n    tag_12:\n      tag_57\n      0x04\n      dup1\n      calldatasize\n      sub\n      dup2\n      add\n      swap1\n      tag_58\n      swap2\n      swap1\n      tag_28\n      jump\t// in\n    tag_58:\n      tag_59\n      jump\t// in\n    tag_57:\n      mload(0x40)\n      tag_60\n      swap2\n      swap1\n      tag_51\n      jump\t// in\n    tag_60:\n      mload(0x40)\n      dup1\n      swap2\n      sub\n      swap1\n      return\n        /* \"Farm.sol\":31100:31856  function stake(uint256 _tokenId) external nonReentrant {\r... */\n    tag_13:\n      tag_61\n      0x04\n      dup1\n      calldatasize\n      sub\n      dup2\n      add\n      swap1\n      tag_62\n      swap2\n      swap1\n      tag_28\n      jump\t// in\n    tag_62:\n      tag_63\n      jump\t// in\n    tag_61:\n      stop\n        /* \"Farm.sol\":30164:30190  IERC20 public rewardsToken */\n    tag_14:\n      tag_64\n      tag_65\n      jump\t// in\n    tag_64:\n      mload(0x40)\n      tag_66\n      swap2\n      swap1\n      tag_67\n      jump\t// in\n    tag_66:\n      mload(0x40)\n      dup1\n      swap2\n      sub\n      swap1\n      return\n        /* \"Farm.sol\":29187:29388  function transferOwnership(address newOwner) public virtual onlyOwner {\r... */\n    tag_15:\n      tag_68\n      0x04\n      dup1\n      calldatasize\n      sub\n      dup2\n      add\n      swap1\n      tag_69\n      swap2\n      swap1\n      tag_38\n      jump\t// in\n    tag_69:\n      tag_70\n      jump\t// in\n    tag_68:\n      stop\n        /* \"Farm.sol\":34326:34535  function availableRewards(address _staker) public view returns (uint256) {\r... */\n    tag_16:\n      tag_71\n      0x04\n      dup1\n      calldatasize\n      sub\n      dup2\n      add\n      swap1\n      tag_72\n      swap2\n      swap1\n      tag_38\n      jump\t// in\n    tag_72:\n      tag_73\n      jump\t// in\n    tag_71:\n      mload(0x40)\n      tag_74\n      swap2\n      swap1\n      tag_75\n      jump\t// in\n    tag_74:\n      mload(0x40)\n      dup1\n      swap2\n      sub\n      swap1\n      return\n        /* \"Farm.sol\":30742:31092  function onERC721Received(\r... */\n    tag_23:\n        /* \"Farm.sol\":30908:30914  bytes4 */\n      0x00\n        /* \"Farm.sol\":30952:30965  nftCollection */\n      0x03\n      0x00\n      swap1\n      sload\n      swap1\n      0x0100\n      exp\n      swap1\n      div\n      0xffffffffffffffffffffffffffffffffffffffff\n      and\n        /* \"Farm.sol\":30935:30965  IERC721(from) == nftCollection */\n      0xffffffffffffffffffffffffffffffffffffffff\n      and\n        /* \"Farm.sol\":30943:30947  from */\n      dup6\n        /* \"Farm.sol\":30935:30965  IERC721(from) == nftCollection */\n      0xffffffffffffffffffffffffffffffffffffffff\n      and\n      eq\n        /* \"Farm.sol\":30927:30998  require(IERC721(from) == nftCollection, \"Not supported NFT Collection\") */\n      tag_77\n      jumpi\n      mload(0x40)\n      0x08c379a000000000000000000000000000000000000000000000000000000000\n      dup2\n      mstore\n      0x04\n      add\n      tag_78\n      swap1\n      tag_79\n      jump\t// in\n    tag_78:\n      mload(0x40)\n      dup1\n      swap2\n      sub\n      swap1\n      revert\n    tag_77:\n        /* \"Farm.sol\":31023:31083  keccak256(\"onERC721Received(address,address,uint256,bytes)\") */\n      0x150b7a023d4804d13e8c85fb27262cb750cf6ba9f9dd3bb30d90f482ceeb4b1f\n        /* \"Farm.sol\":31009:31084  return bytes4(keccak256(\"onERC721Received(address,address,uint256,bytes)\")) */\n      swap1\n      pop\n        /* \"Farm.sol\":30742:31092  function onERC721Received(\r... */\n      swap6\n      swap5\n      pop\n      pop\n      pop\n      pop\n      pop\n      jump\t// out\n        /* \"Farm.sol\":31864:32928  function withdraw(uint256 _tokenId) external nonReentrant {\r... */\n    tag_29:\n        /* \"Farm.sol\":19226:19247  _nonReentrantBefore() */\n      tag_81\n        /* \"Farm.sol\":19226:19245  _nonReentrantBefore */\n      tag_82\n        /* \"Farm.sol\":19226:19247  _nonReentrantBefore() */\n      jump\t// in\n    tag_81:\n        /* \"Farm.sol\":31990:31991  0 */\n      0x00\n        /* \"Farm.sol\":31955:31962  stakers */\n      0x05\n        /* \"Farm.sol\":31955:31974  stakers[msg.sender] */\n      0x00\n        /* \"Farm.sol\":31963:31973  msg.sender */\n      caller\n        /* \"Farm.sol\":31955:31974  stakers[msg.sender] */\n      0xffffffffffffffffffffffffffffffffffffffff\n      and\n      0xffffffffffffffffffffffffffffffffffffffff\n      and\n      dup2\n      mstore\n      0x20\n      add\n      swap1\n      dup2\n      mstore\n      0x20\n      add\n      0x00\n      keccak256\n        /* \"Farm.sol\":31955:31987  stakers[msg.sender].amountStaked */\n      0x00\n      add\n      sload\n        /* \"Farm.sol\":31955:31991  stakers[msg.sender].amountStaked > 0 */\n      gt\n        /* \"Farm.sol\":31933:32044  require(\r... */\n      tag_84\n      jumpi\n      mload(0x40)\n      0x08c379a000000000000000000000000000000000000000000000000000000000\n      dup2\n      mstore\n      0x04\n      add\n      tag_85\n      swap1\n      tag_86\n      jump\t// in\n    tag_85:\n      mload(0x40)\n      dup1\n      swap2\n      sub\n      swap1\n      revert\n    tag_84:\n        /* \"Farm.sol\":32090:32100  msg.sender */\n      caller\n        /* \"Farm.sol\":32063:32100  stakerAddress[_tokenId] == msg.sender */\n      0xffffffffffffffffffffffffffffffffffffffff\n      and\n        /* \"Farm.sol\":32063:32076  stakerAddress */\n      0x06\n        /* \"Farm.sol\":32063:32086  stakerAddress[_tokenId] */\n      0x00\n        /* \"Farm.sol\":32077:32085  _tokenId */\n      dup4\n        /* \"Farm.sol\":32063:32086  stakerAddress[_tokenId] */\n      dup2\n      mstore\n      0x20\n      add\n      swap1\n      dup2\n      mstore\n      0x20\n      add\n      0x00\n      keccak256\n      0x00\n      swap1\n      sload\n      swap1\n      0x0100\n      exp\n      swap1\n      div\n      0xffffffffffffffffffffffffffffffffffffffff\n      and\n        /* \"Farm.sol\":32063:32100  stakerAddress[_tokenId] == msg.sender */\n      0xffffffffffffffffffffffffffffffffffffffff\n      and\n      eq\n        /* \"Farm.sol\":32055:32130  require(stakerAddress[_tokenId] == msg.sender, \"You don't own this token!\") */\n      tag_87\n      jumpi\n      mload(0x40)\n      0x08c379a000000000000000000000000000000000000000000000000000000000\n      dup2\n      mstore\n      0x04\n      add\n      tag_88\n      swap1\n      tag_89\n      jump\t// in\n    tag_88:\n      mload(0x40)\n      dup1\n      swap2\n      sub\n      swap1\n      revert\n    tag_87:\n        /* \"Farm.sol\":32242:32257  uint256 rewards */\n      0x00\n        /* \"Farm.sol\":32260:32288  calculateRewards(msg.sender) */\n      tag_90\n        /* \"Farm.sol\":32277:32287  msg.sender */\n      caller\n        /* \"Farm.sol\":32260:32276  calculateRewards */\n      tag_91\n        /* \"Farm.sol\":32260:32288  calculateRewards(msg.sender) */\n      jump\t// in\n    tag_90:\n        /* \"Farm.sol\":32242:32288  uint256 rewards = calculateRewards(msg.sender) */\n      swap1\n      pop\n        /* \"Farm.sol\":32339:32346  rewards */\n      dup1\n        /* \"Farm.sol\":32299:32306  stakers */\n      0x05\n        /* \"Farm.sol\":32299:32318  stakers[msg.sender] */\n      0x00\n        /* \"Farm.sol\":32307:32317  msg.sender */\n      caller\n        /* \"Farm.sol\":32299:32318  stakers[msg.sender] */\n      0xffffffffffffffffffffffffffffffffffffffff\n      and\n      0xffffffffffffffffffffffffffffffffffffffff\n      and\n      dup2\n      mstore\n      0x20\n      add\n      swap1\n      dup2\n      mstore\n      0x20\n      add\n      0x00\n      keccak256\n        /* \"Farm.sol\":32299:32335  stakers[msg.sender].unclaimedRewards */\n      0x03\n      add\n      0x00\n        /* \"Farm.sol\":32299:32346  stakers[msg.sender].unclaimedRewards += rewards */\n      dup3\n      dup3\n      sload\n      tag_92\n      swap2\n      swap1\n      tag_93\n      jump\t// in\n    tag_92:\n      swap3\n      pop\n      pop\n      dup2\n      swap1\n      sstore\n      pop\n        /* \"Farm.sol\":32361:32374  uint256 index */\n      0x00\n        /* \"Farm.sol\":32394:32403  uint256 i */\n      dup1\n        /* \"Farm.sol\":32389:32614  for (uint256 i = 0; i < stakers[msg.sender].stakedTokens.length; i++) {\r... */\n    tag_94:\n        /* \"Farm.sol\":32413:32420  stakers */\n      0x05\n        /* \"Farm.sol\":32413:32432  stakers[msg.sender] */\n      0x00\n        /* \"Farm.sol\":32421:32431  msg.sender */\n      caller\n        /* \"Farm.sol\":32413:32432  stakers[msg.sender] */\n      0xffffffffffffffffffffffffffffffffffffffff\n      and\n      0xffffffffffffffffffffffffffffffffffffffff\n      and\n      dup2\n      mstore\n      0x20\n      add\n      swap1\n      dup2\n      mstore\n      0x20\n      add\n      0x00\n      keccak256\n        /* \"Farm.sol\":32413:32445  stakers[msg.sender].stakedTokens */\n      0x01\n      add\n        /* \"Farm.sol\":32413:32452  stakers[msg.sender].stakedTokens.length */\n      dup1\n      sload\n      swap1\n      pop\n        /* \"Farm.sol\":32409:32410  i */\n      dup2\n        /* \"Farm.sol\":32409:32452  i < stakers[msg.sender].stakedTokens.length */\n      lt\n        /* \"Farm.sol\":32389:32614  for (uint256 i = 0; i < stakers[msg.sender].stakedTokens.length; i++) {\r... */\n      iszero\n      tag_95\n      jumpi\n        /* \"Farm.sol\":32525:32533  _tokenId */\n      dup4\n        /* \"Farm.sol\":32478:32485  stakers */\n      0x05\n        /* \"Farm.sol\":32478:32497  stakers[msg.sender] */\n      0x00\n        /* \"Farm.sol\":32486:32496  msg.sender */\n      caller\n        /* \"Farm.sol\":32478:32497  stakers[msg.sender] */\n      0xffffffffffffffffffffffffffffffffffffffff\n      and\n      0xffffffffffffffffffffffffffffffffffffffff\n      and\n      dup2\n      mstore\n      0x20\n      add\n      swap1\n      dup2\n      mstore\n      0x20\n      add\n      0x00\n      keccak256\n        /* \"Farm.sol\":32478:32510  stakers[msg.sender].stakedTokens */\n      0x01\n      add\n        /* \"Farm.sol\":32511:32512  i */\n      dup3\n        /* \"Farm.sol\":32478:32513  stakers[msg.sender].stakedTokens[i] */\n      dup2\n      sload\n      dup2\n      lt\n      tag_97\n      jumpi\n      mstore(0x00, 0x4e487b7100000000000000000000000000000000000000000000000000000000)\n      mstore(0x04, 0x32)\n      revert(0x00, 0x24)\n    tag_97:\n      swap1\n      0x00\n      mstore\n      keccak256(0x00, 0x20)\n      swap1\n      0x02\n      mul\n      add\n        /* \"Farm.sol\":32478:32521  stakers[msg.sender].stakedTokens[i].tokenId */\n      0x01\n      add\n      sload\n        /* \"Farm.sol\":32478:32533  stakers[msg.sender].stakedTokens[i].tokenId == _tokenId */\n      eq\n        /* \"Farm.sol\":32474:32603  if (stakers[msg.sender].stakedTokens[i].tokenId == _tokenId) {\r... */\n      iszero\n      tag_99\n      jumpi\n        /* \"Farm.sol\":32562:32563  i */\n      dup1\n        /* \"Farm.sol\":32554:32563  index = i */\n      swap2\n      pop\n        /* \"Farm.sol\":32582:32587  break */\n      jump(tag_95)\n        /* \"Farm.sol\":32474:32603  if (stakers[msg.sender].stakedTokens[i].tokenId == _tokenId) {\r... */\n    tag_99:\n        /* \"Farm.sol\":32454:32457  i++ */\n      dup1\n      dup1\n      tag_100\n      swap1\n      tag_101\n      jump\t// in\n    tag_100:\n      swap2\n      pop\n      pop\n        /* \"Farm.sol\":32389:32614  for (uint256 i = 0; i < stakers[msg.sender].stakedTokens.length; i++) {\r... */\n      jump(tag_94)\n    tag_95:\n      pop\n        /* \"Farm.sol\":32685:32686  0 */\n      0x00\n        /* \"Farm.sol\":32628:32635  stakers */\n      0x05\n        /* \"Farm.sol\":32628:32647  stakers[msg.sender] */\n      0x00\n        /* \"Farm.sol\":32636:32646  msg.sender */\n      caller\n        /* \"Farm.sol\":32628:32647  stakers[msg.sender] */\n      0xffffffffffffffffffffffffffffffffffffffff\n      and\n      0xffffffffffffffffffffffffffffffffffffffff\n      and\n      dup2\n      mstore\n      0x20\n      add\n      swap1\n      dup2\n      mstore\n      0x20\n      add\n      0x00\n      keccak256\n        /* \"Farm.sol\":32628:32660  stakers[msg.sender].stakedTokens */\n      0x01\n      add\n        /* \"Farm.sol\":32661:32666  index */\n      dup3\n        /* \"Farm.sol\":32628:32667  stakers[msg.sender].stakedTokens[index] */\n      dup2\n      sload\n      dup2\n      lt\n      tag_102\n      jumpi\n      mstore(0x00, 0x4e487b7100000000000000000000000000000000000000000000000000000000)\n      mstore(0x04, 0x32)\n      revert(0x00, 0x24)\n    tag_102:\n      swap1\n      0x00\n      mstore\n      keccak256(0x00, 0x20)\n      swap1\n      0x02\n      mul\n      add\n        /* \"Farm.sol\":32628:32674  stakers[msg.sender].stakedTokens[index].staker */\n      0x00\n      add\n      0x00\n        /* \"Farm.sol\":32628:32687  stakers[msg.sender].stakedTokens[index].staker = address(0) */\n      0x0100\n      exp\n      dup2\n      sload\n      dup2\n      0xffffffffffffffffffffffffffffffffffffffff\n      mul\n      not\n      and\n      swap1\n      dup4\n      0xffffffffffffffffffffffffffffffffffffffff\n      and\n      mul\n      or\n      swap1\n      sstore\n      pop\n        /* \"Farm.sol\":32698:32705  stakers */\n      0x05\n        /* \"Farm.sol\":32698:32717  stakers[msg.sender] */\n      0x00\n        /* \"Farm.sol\":32706:32716  msg.sender */\n      caller\n        /* \"Farm.sol\":32698:32717  stakers[msg.sender] */\n      0xffffffffffffffffffffffffffffffffffffffff\n      and\n      0xffffffffffffffffffffffffffffffffffffffff\n      and\n      dup2\n      mstore\n      0x20\n      add\n      swap1\n      dup2\n      mstore\n      0x20\n      add\n      0x00\n      keccak256\n        /* \"Farm.sol\":32698:32730  stakers[msg.sender].amountStaked */\n      0x00\n      add\n      0x00\n        /* \"Farm.sol\":32698:32732  stakers[msg.sender].amountStaked-- */\n      dup2\n      sload\n      dup1\n      swap3\n      swap2\n      swap1\n      tag_104\n      swap1\n      tag_105\n      jump\t// in\n    tag_104:\n      swap2\n      swap1\n      pop\n      sstore\n      pop\n        /* \"Farm.sol\":32777:32778  0 */\n      0x00\n        /* \"Farm.sol\":32743:32756  stakerAddress */\n      0x06\n        /* \"Farm.sol\":32743:32766  stakerAddress[_tokenId] */\n      0x00\n        /* \"Farm.sol\":32757:32765  _tokenId */\n      dup6\n        /* \"Farm.sol\":32743:32766  stakerAddress[_tokenId] */\n      dup2\n      mstore\n      0x20\n      add\n      swap1\n      dup2\n      mstore\n      0x20\n      add\n      0x00\n      keccak256\n      0x00\n        /* \"Farm.sol\":32743:32779  stakerAddress[_tokenId] = address(0) */\n      0x0100\n      exp\n      dup2\n      sload\n      dup2\n      0xffffffffffffffffffffffffffffffffffffffff\n      mul\n      not\n      and\n      swap1\n      dup4\n      0xffffffffffffffffffffffffffffffffffffffff\n      and\n      mul\n      or\n      swap1\n      sstore\n      pop\n        /* \"Farm.sol\":32792:32805  nftCollection */\n      0x03\n      0x00\n      swap1\n      sload\n      swap1\n      0x0100\n      exp\n      swap1\n      div\n      0xffffffffffffffffffffffffffffffffffffffff\n      and\n        /* \"Farm.sol\":32792:32818  nftCollection.transferFrom */\n      0xffffffffffffffffffffffffffffffffffffffff\n      and\n      0x23b872dd\n        /* \"Farm.sol\":32827:32831  this */\n      address\n        /* \"Farm.sol\":32834:32844  msg.sender */\n      caller\n        /* \"Farm.sol\":32846:32854  _tokenId */\n      dup7\n        /* \"Farm.sol\":32792:32855  nftCollection.transferFrom(address(this), msg.sender, _tokenId) */\n      mload(0x40)\n      dup5\n      0xffffffff\n      and\n      0xe0\n      shl\n      dup2\n      mstore\n      0x04\n      add\n      tag_106\n      swap4\n      swap3\n      swap2\n      swap1\n      tag_107\n      jump\t// in\n    tag_106:\n      0x00\n      mload(0x40)\n      dup1\n      dup4\n      sub\n      dup2\n      0x00\n      dup8\n      dup1\n      extcodesize\n      iszero\n      dup1\n      iszero\n      tag_108\n      jumpi\n      0x00\n      dup1\n      revert\n    tag_108:\n      pop\n      gas\n      call\n      iszero\n      dup1\n      iszero\n      tag_110\n      jumpi\n      returndatasize\n      0x00\n      dup1\n      returndatacopy\n      revert(0x00, returndatasize)\n    tag_110:\n      pop\n      pop\n      pop\n      pop\n        /* \"Farm.sol\":32905:32920  block.timestamp */\n      timestamp\n        /* \"Farm.sol\":32866:32873  stakers */\n      0x05\n        /* \"Farm.sol\":32866:32885  stakers[msg.sender] */\n      0x00\n        /* \"Farm.sol\":32874:32884  msg.sender */\n      caller\n        /* \"Farm.sol\":32866:32885  stakers[msg.sender] */\n      0xffffffffffffffffffffffffffffffffffffffff\n      and\n      0xffffffffffffffffffffffffffffffffffffffff\n      and\n      dup2\n      mstore\n      0x20\n      add\n      swap1\n      dup2\n      mstore\n      0x20\n      add\n      0x00\n      keccak256\n        /* \"Farm.sol\":32866:32902  stakers[msg.sender].timeOfLastUpdate */\n      0x02\n      add\n        /* \"Farm.sol\":32866:32920  stakers[msg.sender].timeOfLastUpdate = block.timestamp */\n      dup2\n      swap1\n      sstore\n      pop\n        /* \"Farm.sol\":19258:19259  _ */\n      pop\n      pop\n        /* \"Farm.sol\":19270:19290  _nonReentrantAfter() */\n      tag_111\n        /* \"Farm.sol\":19270:19288  _nonReentrantAfter */\n      tag_112\n        /* \"Farm.sol\":19270:19290  _nonReentrantAfter() */\n      jump\t// in\n    tag_111:\n        /* \"Farm.sol\":31864:32928  function withdraw(uint256 _tokenId) external nonReentrant {\r... */\n      pop\n      jump\t// out\n        /* \"Farm.sol\":33244:33630  function claimRewards() external {\r... */\n    tag_31:\n        /* \"Farm.sol\":33288:33303  uint256 rewards */\n      0x00\n        /* \"Farm.sol\":33350:33357  stakers */\n      0x05\n        /* \"Farm.sol\":33350:33369  stakers[msg.sender] */\n      0x00\n        /* \"Farm.sol\":33358:33368  msg.sender */\n      caller\n        /* \"Farm.sol\":33350:33369  stakers[msg.sender] */\n      0xffffffffffffffffffffffffffffffffffffffff\n      and\n      0xffffffffffffffffffffffffffffffffffffffff\n      and\n      dup2\n      mstore\n      0x20\n      add\n      swap1\n      dup2\n      mstore\n      0x20\n      add\n      0x00\n      keccak256\n        /* \"Farm.sol\":33350:33386  stakers[msg.sender].unclaimedRewards */\n      0x03\n      add\n      sload\n        /* \"Farm.sol\":33306:33334  calculateRewards(msg.sender) */\n      tag_114\n        /* \"Farm.sol\":33323:33333  msg.sender */\n      caller\n        /* \"Farm.sol\":33306:33322  calculateRewards */\n      tag_91\n        /* \"Farm.sol\":33306:33334  calculateRewards(msg.sender) */\n      jump\t// in\n    tag_114:\n        /* \"Farm.sol\":33306:33386  calculateRewards(msg.sender) +\r... */\n      tag_115\n      swap2\n      swap1\n      tag_93\n      jump\t// in\n    tag_115:\n        /* \"Farm.sol\":33288:33386  uint256 rewards = calculateRewards(msg.sender) +\r... */\n      swap1\n      pop\n        /* \"Farm.sol\":33415:33416  0 */\n      0x00\n        /* \"Farm.sol\":33405:33412  rewards */\n      dup2\n        /* \"Farm.sol\":33405:33416  rewards > 0 */\n      gt\n        /* \"Farm.sol\":33397:33449  require(rewards > 0, \"You have no rewards to claim\") */\n      tag_116\n      jumpi\n      mload(0x40)\n      0x08c379a000000000000000000000000000000000000000000000000000000000\n      dup2\n      mstore\n      0x04\n      add\n      tag_117\n      swap1\n      tag_118\n      jump\t// in\n    tag_117:\n      mload(0x40)\n      dup1\n      swap2\n      sub\n      swap1\n      revert\n    tag_116:\n        /* \"Farm.sol\":33499:33514  block.timestamp */\n      timestamp\n        /* \"Farm.sol\":33460:33467  stakers */\n      0x05\n        /* \"Farm.sol\":33460:33479  stakers[msg.sender] */\n      0x00\n        /* \"Farm.sol\":33468:33478  msg.sender */\n      caller\n        /* \"Farm.sol\":33460:33479  stakers[msg.sender] */\n      0xffffffffffffffffffffffffffffffffffffffff\n      and\n      0xffffffffffffffffffffffffffffffffffffffff\n      and\n      dup2\n      mstore\n      0x20\n      add\n      swap1\n      dup2\n      mstore\n      0x20\n      add\n      0x00\n      keccak256\n        /* \"Farm.sol\":33460:33496  stakers[msg.sender].timeOfLastUpdate */\n      0x02\n      add\n        /* \"Farm.sol\":33460:33514  stakers[msg.sender].timeOfLastUpdate = block.timestamp */\n      dup2\n      swap1\n      sstore\n      pop\n        /* \"Farm.sol\":33564:33565  0 */\n      0x00\n        /* \"Farm.sol\":33525:33532  stakers */\n      0x05\n        /* \"Farm.sol\":33525:33544  stakers[msg.sender] */\n      0x00\n        /* \"Farm.sol\":33533:33543  msg.sender */\n      caller\n        /* \"Farm.sol\":33525:33544  stakers[msg.sender] */\n      0xffffffffffffffffffffffffffffffffffffffff\n      and\n      0xffffffffffffffffffffffffffffffffffffffff\n      and\n      dup2\n      mstore\n      0x20\n      add\n      swap1\n      dup2\n      mstore\n      0x20\n      add\n      0x00\n      keccak256\n        /* \"Farm.sol\":33525:33561  stakers[msg.sender].unclaimedRewards */\n      0x03\n      add\n        /* \"Farm.sol\":33525:33565  stakers[msg.sender].unclaimedRewards = 0 */\n      dup2\n      swap1\n      sstore\n      pop\n        /* \"Farm.sol\":33576:33622  rewardsToken.safeTransfer(msg.sender, rewards) */\n      tag_119\n        /* \"Farm.sol\":33602:33612  msg.sender */\n      caller\n        /* \"Farm.sol\":33614:33621  rewards */\n      dup3\n        /* \"Farm.sol\":33576:33588  rewardsToken */\n      0x02\n      0x00\n      swap1\n      sload\n      swap1\n      0x0100\n      exp\n      swap1\n      div\n      0xffffffffffffffffffffffffffffffffffffffff\n      and\n        /* \"Farm.sol\":33576:33601  rewardsToken.safeTransfer */\n      0xffffffffffffffffffffffffffffffffffffffff\n      and\n      tag_120\n      swap1\n        /* \"Farm.sol\":33576:33622  rewardsToken.safeTransfer(msg.sender, rewards) */\n      swap3\n      swap2\n      swap1\n      0xffffffff\n      and\n      jump\t// in\n    tag_119:\n        /* \"Farm.sol\":33244:33630  function claimRewards() external {\r... */\n      pop\n      jump\t// out\n        /* \"Farm.sol\":16842:16928  function paused() public view virtual returns (bool) {\r... */\n    tag_33:\n        /* \"Farm.sol\":16889:16893  bool */\n      0x00\n        /* \"Farm.sol\":16913:16920  _paused */\n      0x01\n      0x00\n      swap1\n      sload\n      swap1\n      0x0100\n      exp\n      swap1\n      div\n      0xff\n      and\n        /* \"Farm.sol\":16906:16920  return _paused */\n      swap1\n      pop\n        /* \"Farm.sol\":16842:16928  function paused() public view virtual returns (bool) {\r... */\n      swap1\n      jump\t// out\n        /* \"Farm.sol\":33638:34318  function getStakedTokens(address _user) public view returns (StakedToken[] memory) {\r... */\n    tag_39:\n        /* \"Farm.sol\":33699:33719  StakedToken[] memory */\n      0x60\n        /* \"Farm.sol\":33766:33767  0 */\n      0x00\n        /* \"Farm.sol\":33736:33743  stakers */\n      0x05\n        /* \"Farm.sol\":33736:33750  stakers[_user] */\n      0x00\n        /* \"Farm.sol\":33744:33749  _user */\n      dup5\n        /* \"Farm.sol\":33736:33750  stakers[_user] */\n      0xffffffffffffffffffffffffffffffffffffffff\n      and\n      0xffffffffffffffffffffffffffffffffffffffff\n      and\n      dup2\n      mstore\n      0x20\n      add\n      swap1\n      dup2\n      mstore\n      0x20\n      add\n      0x00\n      keccak256\n        /* \"Farm.sol\":33736:33763  stakers[_user].amountStaked */\n      0x00\n      add\n      sload\n        /* \"Farm.sol\":33736:33767  stakers[_user].amountStaked > 0 */\n      gt\n        /* \"Farm.sol\":33732:34311  if (stakers[_user].amountStaked > 0) {\r... */\n      iszero\n      tag_123\n      jumpi\n        /* \"Farm.sol\":33784:33818  StakedToken[] memory _stakedTokens */\n      0x00\n        /* \"Farm.sol\":33839:33846  stakers */\n      0x05\n        /* \"Farm.sol\":33839:33853  stakers[_user] */\n      0x00\n        /* \"Farm.sol\":33847:33852  _user */\n      dup5\n        /* \"Farm.sol\":33839:33853  stakers[_user] */\n      0xffffffffffffffffffffffffffffffffffffffff\n      and\n      0xffffffffffffffffffffffffffffffffffffffff\n      and\n      dup2\n      mstore\n      0x20\n      add\n      swap1\n      dup2\n      mstore\n      0x20\n      add\n      0x00\n      keccak256\n        /* \"Farm.sol\":33839:33866  stakers[_user].amountStaked */\n      0x00\n      add\n      sload\n        /* \"Farm.sol\":33821:33867  new StakedToken[](stakers[_user].amountStaked) */\n      0xffffffffffffffff\n      dup2\n      gt\n      iszero\n      tag_124\n      jumpi\n      mstore(0x00, 0x4e487b7100000000000000000000000000000000000000000000000000000000)\n      mstore(0x04, 0x41)\n      revert(0x00, 0x24)\n    tag_124:\n      mload(0x40)\n      swap1\n      dup1\n      dup3\n      mstore\n      dup1\n      0x20\n      mul\n      0x20\n      add\n      dup3\n      add\n      0x40\n      mstore\n      dup1\n      iszero\n      tag_125\n      jumpi\n      dup2\n      0x20\n      add\n    tag_126:\n      tag_127\n      tag_128\n      jump\t// in\n    tag_127:\n      dup2\n      mstore\n      0x20\n      add\n      swap1\n      0x01\n      swap1\n      sub\n      swap1\n      dup2\n      tag_126\n      jumpi\n      swap1\n      pop\n    tag_125:\n      pop\n        /* \"Farm.sol\":33784:33867  StakedToken[] memory _stakedTokens = new StakedToken[](stakers[_user].amountStaked) */\n      swap1\n      pop\n        /* \"Farm.sol\":33882:33896  uint256 _index */\n      0x00\n        /* \"Farm.sol\":33922:33931  uint256 j */\n      dup1\n        /* \"Farm.sol\":33917:34203  for (uint256 j = 0; j < stakers[_user].stakedTokens.length; j++) {\r... */\n    tag_129:\n        /* \"Farm.sol\":33941:33948  stakers */\n      0x05\n        /* \"Farm.sol\":33941:33955  stakers[_user] */\n      0x00\n        /* \"Farm.sol\":33949:33954  _user */\n      dup7\n        /* \"Farm.sol\":33941:33955  stakers[_user] */\n      0xffffffffffffffffffffffffffffffffffffffff\n      and\n      0xffffffffffffffffffffffffffffffffffffffff\n      and\n      dup2\n      mstore\n      0x20\n      add\n      swap1\n      dup2\n      mstore\n      0x20\n      add\n      0x00\n      keccak256\n        /* \"Farm.sol\":33941:33968  stakers[_user].stakedTokens */\n      0x01\n      add\n        /* \"Farm.sol\":33941:33975  stakers[_user].stakedTokens.length */\n      dup1\n      sload\n      swap1\n      pop\n        /* \"Farm.sol\":33937:33938  j */\n      dup2\n        /* \"Farm.sol\":33937:33975  j < stakers[_user].stakedTokens.length */\n      lt\n        /* \"Farm.sol\":33917:34203  for (uint256 j = 0; j < stakers[_user].stakedTokens.length; j++) {\r... */\n      iszero\n      tag_130\n      jumpi\n        /* \"Farm.sol\":34055:34056  0 */\n      0x00\n        /* \"Farm.sol\":34005:34058  stakers[_user].stakedTokens[j].staker != (address(0)) */\n      0xffffffffffffffffffffffffffffffffffffffff\n      and\n        /* \"Farm.sol\":34005:34012  stakers */\n      0x05\n        /* \"Farm.sol\":34005:34019  stakers[_user] */\n      0x00\n        /* \"Farm.sol\":34013:34018  _user */\n      dup8\n        /* \"Farm.sol\":34005:34019  stakers[_user] */\n      0xffffffffffffffffffffffffffffffffffffffff\n      and\n      0xffffffffffffffffffffffffffffffffffffffff\n      and\n      dup2\n      mstore\n      0x20\n      add\n      swap1\n      dup2\n      mstore\n      0x20\n      add\n      0x00\n      keccak256\n        /* \"Farm.sol\":34005:34032  stakers[_user].stakedTokens */\n      0x01\n      add\n        /* \"Farm.sol\":34033:34034  j */\n      dup3\n        /* \"Farm.sol\":34005:34035  stakers[_user].stakedTokens[j] */\n      dup2\n      sload\n      dup2\n      lt\n      tag_132\n      jumpi\n      mstore(0x00, 0x4e487b7100000000000000000000000000000000000000000000000000000000)\n      mstore(0x04, 0x32)\n      revert(0x00, 0x24)\n    tag_132:\n      swap1\n      0x00\n      mstore\n      keccak256(0x00, 0x20)\n      swap1\n      0x02\n      mul\n      add\n        /* \"Farm.sol\":34005:34042  stakers[_user].stakedTokens[j].staker */\n      0x00\n      add\n      0x00\n      swap1\n      sload\n      swap1\n      0x0100\n      exp\n      swap1\n      div\n      0xffffffffffffffffffffffffffffffffffffffff\n      and\n        /* \"Farm.sol\":34005:34058  stakers[_user].stakedTokens[j].staker != (address(0)) */\n      0xffffffffffffffffffffffffffffffffffffffff\n      and\n      eq\n        /* \"Farm.sol\":34001:34188  if (stakers[_user].stakedTokens[j].staker != (address(0))) {\r... */\n      tag_134\n      jumpi\n        /* \"Farm.sol\":34107:34114  stakers */\n      0x05\n        /* \"Farm.sol\":34107:34121  stakers[_user] */\n      0x00\n        /* \"Farm.sol\":34115:34120  _user */\n      dup7\n        /* \"Farm.sol\":34107:34121  stakers[_user] */\n      0xffffffffffffffffffffffffffffffffffffffff\n      and\n      0xffffffffffffffffffffffffffffffffffffffff\n      and\n      dup2\n      mstore\n      0x20\n      add\n      swap1\n      dup2\n      mstore\n      0x20\n      add\n      0x00\n      keccak256\n        /* \"Farm.sol\":34107:34134  stakers[_user].stakedTokens */\n      0x01\n      add\n        /* \"Farm.sol\":34135:34136  j */\n      dup2\n        /* \"Farm.sol\":34107:34137  stakers[_user].stakedTokens[j] */\n      dup2\n      sload\n      dup2\n      lt\n      tag_135\n      jumpi\n      mstore(0x00, 0x4e487b7100000000000000000000000000000000000000000000000000000000)\n      mstore(0x04, 0x32)\n      revert(0x00, 0x24)\n    tag_135:\n      swap1\n      0x00\n      mstore\n      keccak256(0x00, 0x20)\n      swap1\n      0x02\n      mul\n      add\n        /* \"Farm.sol\":34083:34137  _stakedTokens[_index] = stakers[_user].stakedTokens[j] */\n      mload(0x40)\n      dup1\n      0x40\n      add\n      0x40\n      mstore\n      swap1\n      dup2\n      0x00\n      dup3\n      add\n      0x00\n      swap1\n      sload\n      swap1\n      0x0100\n      exp\n      swap1\n      div\n      0xffffffffffffffffffffffffffffffffffffffff\n      and\n      0xffffffffffffffffffffffffffffffffffffffff\n      and\n      0xffffffffffffffffffffffffffffffffffffffff\n      and\n      dup2\n      mstore\n      0x20\n      add\n      0x01\n      dup3\n      add\n      sload\n      dup2\n      mstore\n      pop\n      pop\n        /* \"Farm.sol\":34083:34096  _stakedTokens */\n      dup4\n        /* \"Farm.sol\":34097:34103  _index */\n      dup4\n        /* \"Farm.sol\":34083:34104  _stakedTokens[_index] */\n      dup2\n      mload\n      dup2\n      lt\n      tag_137\n      jumpi\n      mstore(0x00, 0x4e487b7100000000000000000000000000000000000000000000000000000000)\n      mstore(0x04, 0x32)\n      revert(0x00, 0x24)\n    tag_137:\n      0x20\n      mul\n      0x20\n      add\n      add\n        /* \"Farm.sol\":34083:34137  _stakedTokens[_index] = stakers[_user].stakedTokens[j] */\n      dup2\n      swap1\n      mstore\n      pop\n        /* \"Farm.sol\":34160:34168  _index++ */\n      dup2\n      dup1\n      tag_138\n      swap1\n      tag_101\n      jump\t// in\n    tag_138:\n      swap3\n      pop\n      pop\n        /* \"Farm.sol\":34001:34188  if (stakers[_user].stakedTokens[j].staker != (address(0))) {\r... */\n    tag_134:\n        /* \"Farm.sol\":33977:33980  j++ */\n      dup1\n      dup1\n      tag_139\n      swap1\n      tag_101\n      jump\t// in\n    tag_139:\n      swap2\n      pop\n      pop\n        /* \"Farm.sol\":33917:34203  for (uint256 j = 0; j < stakers[_user].stakedTokens.length; j++) {\r... */\n      jump(tag_129)\n    tag_130:\n      pop\n        /* \"Farm.sol\":34226:34239  _stakedTokens */\n      dup2\n        /* \"Farm.sol\":34219:34239  return _stakedTokens */\n      swap3\n      pop\n      pop\n      pop\n      jump(tag_122)\n        /* \"Farm.sol\":33732:34311  if (stakers[_user].amountStaked > 0) {\r... */\n    tag_123:\n        /* \"Farm.sol\":34297:34298  0 */\n      0x00\n        /* \"Farm.sol\":34279:34299  new StakedToken[](0) */\n      0xffffffffffffffff\n      dup2\n      gt\n      iszero\n      tag_141\n      jumpi\n      mstore(0x00, 0x4e487b7100000000000000000000000000000000000000000000000000000000)\n      mstore(0x04, 0x41)\n      revert(0x00, 0x24)\n    tag_141:\n      mload(0x40)\n      swap1\n      dup1\n      dup3\n      mstore\n      dup1\n      0x20\n      mul\n      0x20\n      add\n      dup3\n      add\n      0x40\n      mstore\n      dup1\n      iszero\n      tag_142\n      jumpi\n      dup2\n      0x20\n      add\n    tag_143:\n      tag_144\n      tag_128\n      jump\t// in\n    tag_144:\n      dup2\n      mstore\n      0x20\n      add\n      swap1\n      0x01\n      swap1\n      sub\n      swap1\n      dup2\n      tag_143\n      jumpi\n      swap1\n      pop\n    tag_142:\n      pop\n        /* \"Farm.sol\":34272:34299  return new StakedToken[](0) */\n      swap1\n      pop\n        /* \"Farm.sol\":33638:34318  function getStakedTokens(address _user) public view returns (StakedToken[] memory) {\r... */\n    tag_122:\n      swap2\n      swap1\n      pop\n      jump\t// out\n        /* \"Farm.sol\":30197:30225  IERC721 public nftCollection */\n    tag_43:\n      0x03\n      0x00\n      swap1\n      sload\n      swap1\n      0x0100\n      exp\n      swap1\n      div\n      0xffffffffffffffffffffffffffffffffffffffff\n      and\n      dup2\n      jump\t// out\n        /* \"Farm.sol\":28929:29032  function renounceOwnership() public virtual onlyOwner {\r... */\n    tag_47:\n        /* \"Farm.sol\":28167:28180  _checkOwner() */\n      tag_146\n        /* \"Farm.sol\":28167:28178  _checkOwner */\n      tag_147\n        /* \"Farm.sol\":28167:28180  _checkOwner() */\n      jump\t// in\n    tag_146:\n        /* \"Farm.sol\":28994:29024  _transferOwnership(address(0)) */\n      tag_149\n        /* \"Farm.sol\":29021:29022  0 */\n      0x00\n        /* \"Farm.sol\":28994:29012  _transferOwnership */\n      tag_150\n        /* \"Farm.sol\":28994:29024  _transferOwnership(address(0)) */\n      jump\t// in\n    tag_149:\n        /* \"Farm.sol\":28929:29032  function renounceOwnership() public virtual onlyOwner {\r... */\n      jump\t// out\n        /* \"Farm.sol\":28281:28368  function owner() public view virtual returns (address) {\r... */\n    tag_49:\n        /* \"Farm.sol\":28327:28334  address */\n      0x00\n        /* \"Farm.sol\":28354:28360  _owner */\n      0x01\n      dup1\n      sload\n      swap1\n      0x0100\n      exp\n      swap1\n      div\n      0xffffffffffffffffffffffffffffffffffffffff\n      and\n        /* \"Farm.sol\":28347:28360  return _owner */\n      swap1\n      pop\n        /* \"Farm.sol\":28281:28368  function owner() public view virtual returns (address) {\r... */\n      swap1\n      jump\t// out\n        /* \"Farm.sol\":30336:30377  mapping(address => Staker) public stakers */\n    tag_54:\n      mstore(0x20, 0x05)\n      dup1\n      0x00\n      mstore\n      keccak256(0x00, 0x40)\n      0x00\n      swap2\n      pop\n      swap1\n      pop\n      dup1\n      0x00\n      add\n      sload\n      swap1\n      dup1\n      0x02\n      add\n      sload\n      swap1\n      dup1\n      0x03\n      add\n      sload\n      swap1\n      pop\n      dup4\n      jump\t// out\n        /* \"Farm.sol\":30463:30511  mapping(uint256 => address) public stakerAddress */\n    tag_59:\n      mstore(0x20, 0x06)\n      dup1\n      0x00\n      mstore\n      keccak256(0x00, 0x40)\n      0x00\n      swap2\n      pop\n      sload\n      swap1\n      0x0100\n      exp\n      swap1\n      div\n      0xffffffffffffffffffffffffffffffffffffffff\n      and\n      dup2\n      jump\t// out\n        /* \"Farm.sol\":31100:31856  function stake(uint256 _tokenId) external nonReentrant {\r... */\n    tag_63:\n        /* \"Farm.sol\":19226:19247  _nonReentrantBefore() */\n      tag_153\n        /* \"Farm.sol\":19226:19245  _nonReentrantBefore */\n      tag_82\n        /* \"Farm.sol\":19226:19247  _nonReentrantBefore() */\n      jump\t// in\n    tag_153:\n        /* \"Farm.sol\":31223:31233  msg.sender */\n      caller\n        /* \"Farm.sol\":31188:31233  nftCollection.ownerOf(_tokenId) == msg.sender */\n      0xffffffffffffffffffffffffffffffffffffffff\n      and\n        /* \"Farm.sol\":31188:31201  nftCollection */\n      0x03\n      0x00\n      swap1\n      sload\n      swap1\n      0x0100\n      exp\n      swap1\n      div\n      0xffffffffffffffffffffffffffffffffffffffff\n      and\n        /* \"Farm.sol\":31188:31209  nftCollection.ownerOf */\n      0xffffffffffffffffffffffffffffffffffffffff\n      and\n      0x6352211e\n        /* \"Farm.sol\":31210:31218  _tokenId */\n      dup4\n        /* \"Farm.sol\":31188:31219  nftCollection.ownerOf(_tokenId) */\n      mload(0x40)\n      dup3\n      0xffffffff\n      and\n      0xe0\n      shl\n      dup2\n      mstore\n      0x04\n      add\n      tag_155\n      swap2\n      swap1\n      tag_75\n      jump\t// in\n    tag_155:\n      0x20\n      mload(0x40)\n      dup1\n      dup4\n      sub\n      dup2\n      dup7\n      dup1\n      extcodesize\n      iszero\n      dup1\n      iszero\n      tag_156\n      jumpi\n      0x00\n      dup1\n      revert\n    tag_156:\n      pop\n      gas\n      staticcall\n      iszero\n      dup1\n      iszero\n      tag_158\n      jumpi\n      returndatasize\n      0x00\n      dup1\n      returndatacopy\n      revert(0x00, returndatasize)\n    tag_158:\n      pop\n      pop\n      pop\n      pop\n      mload(0x40)\n      returndatasize\n      not(0x1f)\n      0x1f\n      dup3\n      add\n      and\n      dup3\n      add\n      dup1\n      0x40\n      mstore\n      pop\n      dup2\n      add\n      swap1\n      tag_159\n      swap2\n      swap1\n      tag_160\n      jump\t// in\n    tag_159:\n        /* \"Farm.sol\":31188:31233  nftCollection.ownerOf(_tokenId) == msg.sender */\n      0xffffffffffffffffffffffffffffffffffffffff\n      and\n      eq\n        /* \"Farm.sol\":31166:31286  require(\r... */\n      tag_161\n      jumpi\n      mload(0x40)\n      0x08c379a000000000000000000000000000000000000000000000000000000000\n      dup2\n      mstore\n      0x04\n      add\n      tag_162\n      swap1\n      tag_89\n      jump\t// in\n    tag_162:\n      mload(0x40)\n      dup1\n      swap2\n      sub\n      swap1\n      revert\n    tag_161:\n        /* \"Farm.sol\":31338:31339  0 */\n      0x00\n        /* \"Farm.sol\":31303:31310  stakers */\n      0x05\n        /* \"Farm.sol\":31303:31322  stakers[msg.sender] */\n      0x00\n        /* \"Farm.sol\":31311:31321  msg.sender */\n      caller\n        /* \"Farm.sol\":31303:31322  stakers[msg.sender] */\n      0xffffffffffffffffffffffffffffffffffffffff\n      and\n      0xffffffffffffffffffffffffffffffffffffffff\n      and\n      dup2\n      mstore\n      0x20\n      add\n      swap1\n      dup2\n      mstore\n      0x20\n      add\n      0x00\n      keccak256\n        /* \"Farm.sol\":31303:31335  stakers[msg.sender].amountStaked */\n      0x00\n      add\n      sload\n        /* \"Farm.sol\":31303:31339  stakers[msg.sender].amountStaked > 0 */\n      gt\n        /* \"Farm.sol\":31299:31476  if (stakers[msg.sender].amountStaked > 0) {\r... */\n      iszero\n      tag_163\n      jumpi\n        /* \"Farm.sol\":31356:31371  uint256 rewards */\n      0x00\n        /* \"Farm.sol\":31374:31402  calculateRewards(msg.sender) */\n      tag_164\n        /* \"Farm.sol\":31391:31401  msg.sender */\n      caller\n        /* \"Farm.sol\":31374:31390  calculateRewards */\n      tag_91\n        /* \"Farm.sol\":31374:31402  calculateRewards(msg.sender) */\n      jump\t// in\n    tag_164:\n        /* \"Farm.sol\":31356:31402  uint256 rewards = calculateRewards(msg.sender) */\n      swap1\n      pop\n        /* \"Farm.sol\":31457:31464  rewards */\n      dup1\n        /* \"Farm.sol\":31417:31424  stakers */\n      0x05\n        /* \"Farm.sol\":31417:31436  stakers[msg.sender] */\n      0x00\n        /* \"Farm.sol\":31425:31435  msg.sender */\n      caller\n        /* \"Farm.sol\":31417:31436  stakers[msg.sender] */\n      0xffffffffffffffffffffffffffffffffffffffff\n      and\n      0xffffffffffffffffffffffffffffffffffffffff\n      and\n      dup2\n      mstore\n      0x20\n      add\n      swap1\n      dup2\n      mstore\n      0x20\n      add\n      0x00\n      keccak256\n        /* \"Farm.sol\":31417:31453  stakers[msg.sender].unclaimedRewards */\n      0x03\n      add\n      0x00\n        /* \"Farm.sol\":31417:31464  stakers[msg.sender].unclaimedRewards += rewards */\n      dup3\n      dup3\n      sload\n      tag_165\n      swap2\n      swap1\n      tag_93\n      jump\t// in\n    tag_165:\n      swap3\n      pop\n      pop\n      dup2\n      swap1\n      sstore\n      pop\n        /* \"Farm.sol\":31299:31476  if (stakers[msg.sender].amountStaked > 0) {\r... */\n      pop\n    tag_163:\n        /* \"Farm.sol\":31488:31501  nftCollection */\n      0x03\n      0x00\n      swap1\n      sload\n      swap1\n      0x0100\n      exp\n      swap1\n      div\n      0xffffffffffffffffffffffffffffffffffffffff\n      and\n        /* \"Farm.sol\":31488:31514  nftCollection.transferFrom */\n      0xffffffffffffffffffffffffffffffffffffffff\n      and\n      0x23b872dd\n        /* \"Farm.sol\":31515:31525  msg.sender */\n      caller\n        /* \"Farm.sol\":31535:31539  this */\n      address\n        /* \"Farm.sol\":31542:31550  _tokenId */\n      dup5\n        /* \"Farm.sol\":31488:31551  nftCollection.transferFrom(msg.sender, address(this), _tokenId) */\n      mload(0x40)\n      dup5\n      0xffffffff\n      and\n      0xe0\n      shl\n      dup2\n      mstore\n      0x04\n      add\n      tag_166\n      swap4\n      swap3\n      swap2\n      swap1\n      tag_107\n      jump\t// in\n    tag_166:\n      0x00\n      mload(0x40)\n      dup1\n      dup4\n      sub\n      dup2\n      0x00\n      dup8\n      dup1\n      extcodesize\n      iszero\n      dup1\n      iszero\n      tag_167\n      jumpi\n      0x00\n      dup1\n      revert\n    tag_167:\n      pop\n      gas\n      call\n      iszero\n      dup1\n      iszero\n      tag_169\n      jumpi\n      returndatasize\n      0x00\n      dup1\n      returndatacopy\n      revert(0x00, returndatasize)\n    tag_169:\n      pop\n      pop\n      pop\n      pop\n        /* \"Farm.sol\":31564:31594  StakedToken memory stakedToken */\n      0x00\n        /* \"Farm.sol\":31597:31630  StakedToken(msg.sender, _tokenId) */\n      mload(0x40)\n      dup1\n      0x40\n      add\n      0x40\n      mstore\n      dup1\n        /* \"Farm.sol\":31609:31619  msg.sender */\n      caller\n        /* \"Farm.sol\":31597:31630  StakedToken(msg.sender, _tokenId) */\n      0xffffffffffffffffffffffffffffffffffffffff\n      and\n      dup2\n      mstore\n      0x20\n      add\n        /* \"Farm.sol\":31621:31629  _tokenId */\n      dup4\n        /* \"Farm.sol\":31597:31630  StakedToken(msg.sender, _tokenId) */\n      dup2\n      mstore\n      pop\n        /* \"Farm.sol\":31564:31630  StakedToken memory stakedToken = StakedToken(msg.sender, _tokenId) */\n      swap1\n      pop\n        /* \"Farm.sol\":31641:31648  stakers */\n      0x05\n        /* \"Farm.sol\":31641:31660  stakers[msg.sender] */\n      0x00\n        /* \"Farm.sol\":31649:31659  msg.sender */\n      caller\n        /* \"Farm.sol\":31641:31660  stakers[msg.sender] */\n      0xffffffffffffffffffffffffffffffffffffffff\n      and\n      0xffffffffffffffffffffffffffffffffffffffff\n      and\n      dup2\n      mstore\n      0x20\n      add\n      swap1\n      dup2\n      mstore\n      0x20\n      add\n      0x00\n      keccak256\n        /* \"Farm.sol\":31641:31673  stakers[msg.sender].stakedTokens */\n      0x01\n      add\n        /* \"Farm.sol\":31679:31690  stakedToken */\n      dup2\n        /* \"Farm.sol\":31641:31691  stakers[msg.sender].stakedTokens.push(stakedToken) */\n      swap1\n      dup1\n      0x01\n      dup2\n      sload\n      add\n      dup1\n      dup3\n      sstore\n      dup1\n      swap2\n      pop\n      pop\n      0x01\n      swap1\n      sub\n      swap1\n      0x00\n      mstore\n      keccak256(0x00, 0x20)\n      swap1\n      0x02\n      mul\n      add\n      0x00\n      swap1\n      swap2\n      swap1\n      swap2\n      swap1\n      swap2\n      pop\n      0x00\n      dup3\n      add\n      mload\n      dup2\n      0x00\n      add\n      exp(0x0100, 0x00)\n      dup2\n      sload\n      dup2\n      0xffffffffffffffffffffffffffffffffffffffff\n      mul\n      not\n      and\n      swap1\n      dup4\n      0xffffffffffffffffffffffffffffffffffffffff\n      and\n      mul\n      or\n      swap1\n      sstore\n      pop\n      0x20\n      dup3\n      add\n      mload\n      dup2\n      0x01\n      add\n      sstore\n      pop\n      pop\n        /* \"Farm.sol\":31702:31709  stakers */\n      0x05\n        /* \"Farm.sol\":31702:31721  stakers[msg.sender] */\n      0x00\n        /* \"Farm.sol\":31710:31720  msg.sender */\n      caller\n        /* \"Farm.sol\":31702:31721  stakers[msg.sender] */\n      0xffffffffffffffffffffffffffffffffffffffff\n      and\n      0xffffffffffffffffffffffffffffffffffffffff\n      and\n      dup2\n      mstore\n      0x20\n      add\n      swap1\n      dup2\n      mstore\n      0x20\n      add\n      0x00\n      keccak256\n        /* \"Farm.sol\":31702:31734  stakers[msg.sender].amountStaked */\n      0x00\n      add\n      0x00\n        /* \"Farm.sol\":31702:31736  stakers[msg.sender].amountStaked++ */\n      dup2\n      sload\n      dup1\n      swap3\n      swap2\n      swap1\n      tag_171\n      swap1\n      tag_101\n      jump\t// in\n    tag_171:\n      swap2\n      swap1\n      pop\n      sstore\n      pop\n        /* \"Farm.sol\":31773:31783  msg.sender */\n      caller\n        /* \"Farm.sol\":31747:31760  stakerAddress */\n      0x06\n        /* \"Farm.sol\":31747:31770  stakerAddress[_tokenId] */\n      0x00\n        /* \"Farm.sol\":31761:31769  _tokenId */\n      dup5\n        /* \"Farm.sol\":31747:31770  stakerAddress[_tokenId] */\n      dup2\n      mstore\n      0x20\n      add\n      swap1\n      dup2\n      mstore\n      0x20\n      add\n      0x00\n      keccak256\n      0x00\n        /* \"Farm.sol\":31747:31783  stakerAddress[_tokenId] = msg.sender */\n      0x0100\n      exp\n      dup2\n      sload\n      dup2\n      0xffffffffffffffffffffffffffffffffffffffff\n      mul\n      not\n      and\n      swap1\n      dup4\n      0xffffffffffffffffffffffffffffffffffffffff\n      and\n      mul\n      or\n      swap1\n      sstore\n      pop\n        /* \"Farm.sol\":31833:31848  block.timestamp */\n      timestamp\n        /* \"Farm.sol\":31794:31801  stakers */\n      0x05\n        /* \"Farm.sol\":31794:31813  stakers[msg.sender] */\n      0x00\n        /* \"Farm.sol\":31802:31812  msg.sender */\n      caller\n        /* \"Farm.sol\":31794:31813  stakers[msg.sender] */\n      0xffffffffffffffffffffffffffffffffffffffff\n      and\n      0xffffffffffffffffffffffffffffffffffffffff\n      and\n      dup2\n      mstore\n      0x20\n      add\n      swap1\n      dup2\n      mstore\n      0x20\n      add\n      0x00\n      keccak256\n        /* \"Farm.sol\":31794:31830  stakers[msg.sender].timeOfLastUpdate */\n      0x02\n      add\n        /* \"Farm.sol\":31794:31848  stakers[msg.sender].timeOfLastUpdate = block.timestamp */\n      dup2\n      swap1\n      sstore\n      pop\n        /* \"Farm.sol\":19258:19259  _ */\n      pop\n        /* \"Farm.sol\":19270:19290  _nonReentrantAfter() */\n      tag_172\n        /* \"Farm.sol\":19270:19288  _nonReentrantAfter */\n      tag_112\n        /* \"Farm.sol\":19270:19290  _nonReentrantAfter() */\n      jump\t// in\n    tag_172:\n        /* \"Farm.sol\":31100:31856  function stake(uint256 _tokenId) external nonReentrant {\r... */\n      pop\n      jump\t// out\n        /* \"Farm.sol\":30164:30190  IERC20 public rewardsToken */\n    tag_65:\n      0x02\n      0x00\n      swap1\n      sload\n      swap1\n      0x0100\n      exp\n      swap1\n      div\n      0xffffffffffffffffffffffffffffffffffffffff\n      and\n      dup2\n      jump\t// out\n        /* \"Farm.sol\":29187:29388  function transferOwnership(address newOwner) public virtual onlyOwner {\r... */\n    tag_70:\n        /* \"Farm.sol\":28167:28180  _checkOwner() */\n      tag_174\n        /* \"Farm.sol\":28167:28178  _checkOwner */\n      tag_147\n        /* \"Farm.sol\":28167:28180  _checkOwner() */\n      jump\t// in\n    tag_174:\n        /* \"Farm.sol\":29296:29297  0 */\n      0x00\n        /* \"Farm.sol\":29276:29298  newOwner != address(0) */\n      0xffffffffffffffffffffffffffffffffffffffff\n      and\n        /* \"Farm.sol\":29276:29284  newOwner */\n      dup2\n        /* \"Farm.sol\":29276:29298  newOwner != address(0) */\n      0xffffffffffffffffffffffffffffffffffffffff\n      and\n      eq\n      iszero\n        /* \"Farm.sol\":29268:29341  require(newOwner != address(0), \"Ownable: new owner is the zero address\") */\n      tag_176\n      jumpi\n      mload(0x40)\n      0x08c379a000000000000000000000000000000000000000000000000000000000\n      dup2\n      mstore\n      0x04\n      add\n      tag_177\n      swap1\n      tag_178\n      jump\t// in\n    tag_177:\n      mload(0x40)\n      dup1\n      swap2\n      sub\n      swap1\n      revert\n    tag_176:\n        /* \"Farm.sol\":29352:29380  _transferOwnership(newOwner) */\n      tag_179\n        /* \"Farm.sol\":29371:29379  newOwner */\n      dup2\n        /* \"Farm.sol\":29352:29370  _transferOwnership */\n      tag_150\n        /* \"Farm.sol\":29352:29380  _transferOwnership(newOwner) */\n      jump\t// in\n    tag_179:\n        /* \"Farm.sol\":29187:29388  function transferOwnership(address newOwner) public virtual onlyOwner {\r... */\n      pop\n      jump\t// out\n        /* \"Farm.sol\":34326:34535  function availableRewards(address _staker) public view returns (uint256) {\r... */\n    tag_73:\n        /* \"Farm.sol\":34390:34397  uint256 */\n      0x00\n        /* \"Farm.sol\":34410:34425  uint256 rewards */\n      dup1\n        /* \"Farm.sol\":34469:34476  stakers */\n      0x05\n        /* \"Farm.sol\":34469:34485  stakers[_staker] */\n      0x00\n        /* \"Farm.sol\":34477:34484  _staker */\n      dup5\n        /* \"Farm.sol\":34469:34485  stakers[_staker] */\n      0xffffffffffffffffffffffffffffffffffffffff\n      and\n      0xffffffffffffffffffffffffffffffffffffffff\n      and\n      dup2\n      mstore\n      0x20\n      add\n      swap1\n      dup2\n      mstore\n      0x20\n      add\n      0x00\n      keccak256\n        /* \"Farm.sol\":34469:34502  stakers[_staker].unclaimedRewards */\n      0x03\n      add\n      sload\n        /* \"Farm.sol\":34428:34453  calculateRewards(_staker) */\n      tag_181\n        /* \"Farm.sol\":34445:34452  _staker */\n      dup5\n        /* \"Farm.sol\":34428:34444  calculateRewards */\n      tag_91\n        /* \"Farm.sol\":34428:34453  calculateRewards(_staker) */\n      jump\t// in\n    tag_181:\n        /* \"Farm.sol\":34428:34502  calculateRewards(_staker) +\r... */\n      tag_182\n      swap2\n      swap1\n      tag_93\n      jump\t// in\n    tag_182:\n        /* \"Farm.sol\":34410:34502  uint256 rewards = calculateRewards(_staker) +\r... */\n      swap1\n      pop\n        /* \"Farm.sol\":34520:34527  rewards */\n      dup1\n        /* \"Farm.sol\":34513:34527  return rewards */\n      swap2\n      pop\n      pop\n        /* \"Farm.sol\":34326:34535  function availableRewards(address _staker) public view returns (uint256) {\r... */\n      swap2\n      swap1\n      pop\n      jump\t// out\n        /* \"Farm.sol\":19306:19595  function _nonReentrantBefore() private {\r... */\n    tag_82:\n        /* \"Farm.sol\":18708:18709  2 */\n      0x02\n        /* \"Farm.sol\":19436:19443  _status */\n      sload(0x00)\n        /* \"Farm.sol\":19436:19455  _status != _ENTERED */\n      eq\n      iszero\n        /* \"Farm.sol\":19428:19491  require(_status != _ENTERED, \"ReentrancyGuard: reentrant call\") */\n      tag_184\n      jumpi\n      mload(0x40)\n      0x08c379a000000000000000000000000000000000000000000000000000000000\n      dup2\n      mstore\n      0x04\n      add\n      tag_185\n      swap1\n      tag_186\n      jump\t// in\n    tag_185:\n      mload(0x40)\n      dup1\n      swap2\n      sub\n      swap1\n      revert\n    tag_184:\n        /* \"Farm.sol\":18708:18709  2 */\n      0x02\n        /* \"Farm.sol\":19569:19576  _status */\n      0x00\n        /* \"Farm.sol\":19569:19587  _status = _ENTERED */\n      dup2\n      swap1\n      sstore\n      pop\n        /* \"Farm.sol\":19306:19595  function _nonReentrantBefore() private {\r... */\n      jump\t// out\n        /* \"Farm.sol\":32936:33236  function calculateRewards(address _staker)\r... */\n    tag_91:\n        /* \"Farm.sol\":33029:33045  uint256 _rewards */\n      0x00\n        /* \"Farm.sol\":33223:33227  3600 */\n      0x0e10\n        /* \"Farm.sol\":33205:33219  rewardsPerHour */\n      sload(0x04)\n        /* \"Farm.sol\":33161:33168  stakers */\n      0x05\n        /* \"Farm.sol\":33161:33177  stakers[_staker] */\n      0x00\n        /* \"Farm.sol\":33169:33176  _staker */\n      dup6\n        /* \"Farm.sol\":33161:33177  stakers[_staker] */\n      0xffffffffffffffffffffffffffffffffffffffff\n      and\n      0xffffffffffffffffffffffffffffffffffffffff\n      and\n      dup2\n      mstore\n      0x20\n      add\n      swap1\n      dup2\n      mstore\n      0x20\n      add\n      0x00\n      keccak256\n        /* \"Farm.sol\":33161:33190  stakers[_staker].amountStaked */\n      0x00\n      add\n      sload\n        /* \"Farm.sol\":33107:33114  stakers */\n      0x05\n        /* \"Farm.sol\":33107:33123  stakers[_staker] */\n      0x00\n        /* \"Farm.sol\":33115:33122  _staker */\n      dup7\n        /* \"Farm.sol\":33107:33123  stakers[_staker] */\n      0xffffffffffffffffffffffffffffffffffffffff\n      and\n      0xffffffffffffffffffffffffffffffffffffffff\n      and\n      dup2\n      mstore\n      0x20\n      add\n      swap1\n      dup2\n      mstore\n      0x20\n      add\n      0x00\n      keccak256\n        /* \"Farm.sol\":33107:33140  stakers[_staker].timeOfLastUpdate */\n      0x02\n      add\n      sload\n        /* \"Farm.sol\":33089:33104  block.timestamp */\n      timestamp\n        /* \"Farm.sol\":33089:33140  block.timestamp - stakers[_staker].timeOfLastUpdate */\n      tag_188\n      swap2\n      swap1\n      tag_189\n      jump\t// in\n    tag_188:\n        /* \"Farm.sol\":33088:33190  (block.timestamp - stakers[_staker].timeOfLastUpdate) *\r... */\n      tag_190\n      swap2\n      swap1\n      tag_191\n      jump\t// in\n    tag_190:\n        /* \"Farm.sol\":33072:33219  (\r... */\n      tag_192\n      swap2\n      swap1\n      tag_191\n      jump\t// in\n    tag_192:\n        /* \"Farm.sol\":33071:33227  ((\r... */\n      tag_193\n      swap2\n      swap1\n      tag_194\n      jump\t// in\n    tag_193:\n        /* \"Farm.sol\":33063:33228  return (((\r... */\n      swap1\n      pop\n        /* \"Farm.sol\":32936:33236  function calculateRewards(address _staker)\r... */\n      swap2\n      swap1\n      pop\n      jump\t// out\n        /* \"Farm.sol\":19603:19816  function _nonReentrantAfter() private {\r... */\n    tag_112:\n        /* \"Farm.sol\":18664:18665  1 */\n      0x01\n        /* \"Farm.sol\":19786:19793  _status */\n      0x00\n        /* \"Farm.sol\":19786:19808  _status = _NOT_ENTERED */\n      dup2\n      swap1\n      sstore\n      pop\n        /* \"Farm.sol\":19603:19816  function _nonReentrantAfter() private {\r... */\n      jump\t// out\n        /* \"Farm.sol\":24638:24815  function safeTransfer(IERC20 token, address to, uint256 value) internal {\r... */\n    tag_120:\n        /* \"Farm.sol\":24721:24807  _callOptionalReturn(token, abi.encodeWithSelector(token.transfer.selector, to, value)) */\n      tag_197\n        /* \"Farm.sol\":24741:24746  token */\n      dup4\n        /* \"Farm.sol\":24771:24794  token.transfer.selector */\n      shl(0xe0, 0xa9059cbb)\n        /* \"Farm.sol\":24796:24798  to */\n      dup5\n        /* \"Farm.sol\":24800:24805  value */\n      dup5\n        /* \"Farm.sol\":24748:24806  abi.encodeWithSelector(token.transfer.selector, to, value) */\n      add(0x24, mload(0x40))\n      tag_198\n      swap3\n      swap2\n      swap1\n      tag_199\n      jump\t// in\n    tag_198:\n      mload(0x40)\n      0x20\n      dup2\n      dup4\n      sub\n      sub\n      dup2\n      mstore\n      swap1\n      0x40\n      mstore\n      swap1\n      not(0xffffffffffffffffffffffffffffffffffffffffffffffffffffffff)\n      and\n      0x20\n      dup3\n      add\n      dup1\n      mload\n      0xffffffffffffffffffffffffffffffffffffffffffffffffffffffff\n      dup4\n      dup2\n      dup4\n      and\n      or\n      dup4\n      mstore\n      pop\n      pop\n      pop\n      pop\n        /* \"Farm.sol\":24721:24740  _callOptionalReturn */\n      tag_200\n        /* \"Farm.sol\":24721:24807  _callOptionalReturn(token, abi.encodeWithSelector(token.transfer.selector, to, value)) */\n      jump\t// in\n    tag_197:\n        /* \"Farm.sol\":24638:24815  function safeTransfer(IERC20 token, address to, uint256 value) internal {\r... */\n      pop\n      pop\n      pop\n      jump\t// out\n        /* \"Farm.sol\":28446:28578  function _checkOwner() internal view virtual {\r... */\n    tag_147:\n        /* \"Farm.sol\":28521:28533  _msgSender() */\n      tag_202\n        /* \"Farm.sol\":28521:28531  _msgSender */\n      tag_203\n        /* \"Farm.sol\":28521:28533  _msgSender() */\n      jump\t// in\n    tag_202:\n        /* \"Farm.sol\":28510:28533  owner() == _msgSender() */\n      0xffffffffffffffffffffffffffffffffffffffff\n      and\n        /* \"Farm.sol\":28510:28517  owner() */\n      tag_204\n        /* \"Farm.sol\":28510:28515  owner */\n      tag_49\n        /* \"Farm.sol\":28510:28517  owner() */\n      jump\t// in\n    tag_204:\n        /* \"Farm.sol\":28510:28533  owner() == _msgSender() */\n      0xffffffffffffffffffffffffffffffffffffffff\n      and\n      eq\n        /* \"Farm.sol\":28502:28570  require(owner() == _msgSender(), \"Ownable: caller is not the owner\") */\n      tag_205\n      jumpi\n      mload(0x40)\n      0x08c379a000000000000000000000000000000000000000000000000000000000\n      dup2\n      mstore\n      0x04\n      add\n      tag_206\n      swap1\n      tag_207\n      jump\t// in\n    tag_206:\n      mload(0x40)\n      dup1\n      swap2\n      sub\n      swap1\n      revert\n    tag_205:\n        /* \"Farm.sol\":28446:28578  function _checkOwner() internal view virtual {\r... */\n      jump\t// out\n        /* \"Farm.sol\":29548:29739  function _transferOwnership(address newOwner) internal virtual {\r... */\n    tag_150:\n        /* \"Farm.sol\":29622:29638  address oldOwner */\n      0x00\n        /* \"Farm.sol\":29641:29647  _owner */\n      0x01\n      dup1\n      sload\n      swap1\n      0x0100\n      exp\n      swap1\n      div\n      0xffffffffffffffffffffffffffffffffffffffff\n      and\n        /* \"Farm.sol\":29622:29647  address oldOwner = _owner */\n      swap1\n      pop\n        /* \"Farm.sol\":29667:29675  newOwner */\n      dup2\n        /* \"Farm.sol\":29658:29664  _owner */\n      0x01\n      dup1\n        /* \"Farm.sol\":29658:29675  _owner = newOwner */\n      0x0100\n      exp\n      dup2\n      sload\n      dup2\n      0xffffffffffffffffffffffffffffffffffffffff\n      mul\n      not\n      and\n      swap1\n      dup4\n      0xffffffffffffffffffffffffffffffffffffffff\n      and\n      mul\n      or\n      swap1\n      sstore\n      pop\n        /* \"Farm.sol\":29722:29730  newOwner */\n      dup2\n        /* \"Farm.sol\":29691:29731  OwnershipTransferred(oldOwner, newOwner) */\n      0xffffffffffffffffffffffffffffffffffffffff\n      and\n        /* \"Farm.sol\":29712:29720  oldOwner */\n      dup2\n        /* \"Farm.sol\":29691:29731  OwnershipTransferred(oldOwner, newOwner) */\n      0xffffffffffffffffffffffffffffffffffffffff\n      and\n      0x8be0079c531659141344cd1fd0a4f28419497f9722a3daafe3b4186f6b6457e0\n      mload(0x40)\n      mload(0x40)\n      dup1\n      swap2\n      sub\n      swap1\n      log3\n        /* \"Farm.sol\":29548:29739  function _transferOwnership(address newOwner) internal virtual {\r... */\n      pop\n      pop\n      jump\t// out\n        /* \"Farm.sol\":26943:27704  function _callOptionalReturn(IERC20 token, bytes memory data) private {\r... */\n    tag_200:\n        /* \"Farm.sol\":27367:27390  bytes memory returndata */\n      0x00\n        /* \"Farm.sol\":27393:27462  address(token).functionCall(data, \"SafeERC20: low-level call failed\") */\n      tag_210\n        /* \"Farm.sol\":27421:27425  data */\n      dup3\n        /* \"Farm.sol\":27393:27462  address(token).functionCall(data, \"SafeERC20: low-level call failed\") */\n      mload(0x40)\n      dup1\n      0x40\n      add\n      0x40\n      mstore\n      dup1\n      0x20\n      dup2\n      mstore\n      0x20\n      add\n      0x5361666545524332303a206c6f772d6c6576656c2063616c6c206661696c6564\n      dup2\n      mstore\n      pop\n        /* \"Farm.sol\":27401:27406  token */\n      dup6\n        /* \"Farm.sol\":27393:27420  address(token).functionCall */\n      0xffffffffffffffffffffffffffffffffffffffff\n      and\n      tag_211\n      swap1\n        /* \"Farm.sol\":27393:27462  address(token).functionCall(data, \"SafeERC20: low-level call failed\") */\n      swap3\n      swap2\n      swap1\n      0xffffffff\n      and\n      jump\t// in\n    tag_210:\n        /* \"Farm.sol\":27367:27462  bytes memory returndata = address(token).functionCall(data, \"SafeERC20: low-level call failed\") */\n      swap1\n      pop\n        /* \"Farm.sol\":27497:27498  0 */\n      0x00\n        /* \"Farm.sol\":27477:27487  returndata */\n      dup2\n        /* \"Farm.sol\":27477:27494  returndata.length */\n      mload\n        /* \"Farm.sol\":27477:27498  returndata.length > 0 */\n      gt\n        /* \"Farm.sol\":27473:27697  if (returndata.length > 0) { // Return data is optional\r... */\n      iszero\n      tag_212\n      jumpi\n        /* \"Farm.sol\":27619:27629  returndata */\n      dup1\n        /* \"Farm.sol\":27608:27638  abi.decode(returndata, (bool)) */\n      dup1\n      0x20\n      add\n      swap1\n      mload\n      dup2\n      add\n      swap1\n      tag_213\n      swap2\n      swap1\n      tag_214\n      jump\t// in\n    tag_213:\n        /* \"Farm.sol\":27600:27685  require(abi.decode(returndata, (bool)), \"SafeERC20: ERC20 operation did not succeed\") */\n      tag_215\n      jumpi\n      mload(0x40)\n      0x08c379a000000000000000000000000000000000000000000000000000000000\n      dup2\n      mstore\n      0x04\n      add\n      tag_216\n      swap1\n      tag_217\n      jump\t// in\n    tag_216:\n      mload(0x40)\n      dup1\n      swap2\n      sub\n      swap1\n      revert\n    tag_215:\n        /* \"Farm.sol\":27473:27697  if (returndata.length > 0) { // Return data is optional\r... */\n    tag_212:\n        /* \"Farm.sol\":26943:27704  function _callOptionalReturn(IERC20 token, bytes memory data) private {\r... */\n      pop\n      pop\n      pop\n      jump\t// out\n        /* \"Farm.sol\":15568:15666  function _msgSender() internal view virtual returns (address) {\r... */\n    tag_203:\n        /* \"Farm.sol\":15621:15628  address */\n      0x00\n        /* \"Farm.sol\":15648:15658  msg.sender */\n      caller\n        /* \"Farm.sol\":15641:15658  return msg.sender */\n      swap1\n      pop\n        /* \"Farm.sol\":15568:15666  function _msgSender() internal view virtual returns (address) {\r... */\n      swap1\n      jump\t// out\n        /* \"Farm.sol\":9557:9752  function functionCall(address target, bytes memory data, string memory errorMessage) internal returns (bytes memory) {\r... */\n    tag_211:\n        /* \"Farm.sol\":9660:9672  bytes memory */\n      0x60\n        /* \"Farm.sol\":9692:9744  functionCallWithValue(target, data, 0, errorMessage) */\n      tag_220\n        /* \"Farm.sol\":9714:9720  target */\n      dup5\n        /* \"Farm.sol\":9722:9726  data */\n      dup5\n        /* \"Farm.sol\":9728:9729  0 */\n      0x00\n        /* \"Farm.sol\":9731:9743  errorMessage */\n      dup6\n        /* \"Farm.sol\":9692:9713  functionCallWithValue */\n      tag_221\n        /* \"Farm.sol\":9692:9744  functionCallWithValue(target, data, 0, errorMessage) */\n      jump\t// in\n    tag_220:\n        /* \"Farm.sol\":9685:9744  return functionCallWithValue(target, data, 0, errorMessage) */\n      swap1\n      pop\n        /* \"Farm.sol\":9557:9752  function functionCall(address target, bytes memory data, string memory errorMessage) internal returns (bytes memory) {\r... */\n      swap4\n      swap3\n      pop\n      pop\n      pop\n      jump\t// out\n        /* \"Farm.sol\":10609:11139  function functionCallWithValue(address target, bytes memory data, uint256 value, string memory errorMessage) internal returns (bytes memory) {\r... */\n    tag_221:\n        /* \"Farm.sol\":10736:10748  bytes memory */\n      0x60\n        /* \"Farm.sol\":10794:10799  value */\n      dup3\n        /* \"Farm.sol\":10769:10790  address(this).balance */\n      selfbalance\n        /* \"Farm.sol\":10769:10799  address(this).balance >= value */\n      lt\n      iszero\n        /* \"Farm.sol\":10761:10842  require(address(this).balance >= value, \"Address: insufficient balance for call\") */\n      tag_223\n      jumpi\n      mload(0x40)\n      0x08c379a000000000000000000000000000000000000000000000000000000000\n      dup2\n      mstore\n      0x04\n      add\n      tag_224\n      swap1\n      tag_225\n      jump\t// in\n    tag_224:\n      mload(0x40)\n      dup1\n      swap2\n      sub\n      swap1\n      revert\n    tag_223:\n        /* \"Farm.sol\":10861:10879  isContract(target) */\n      tag_226\n        /* \"Farm.sol\":10872:10878  target */\n      dup6\n        /* \"Farm.sol\":10861:10871  isContract */\n      tag_227\n        /* \"Farm.sol\":10861:10879  isContract(target) */\n      jump\t// in\n    tag_226:\n        /* \"Farm.sol\":10853:10913  require(isContract(target), \"Address: call to non-contract\") */\n      tag_228\n      jumpi\n      mload(0x40)\n      0x08c379a000000000000000000000000000000000000000000000000000000000\n      dup2\n      mstore\n      0x04\n      add\n      tag_229\n      swap1\n      tag_230\n      jump\t// in\n    tag_229:\n      mload(0x40)\n      dup1\n      swap2\n      sub\n      swap1\n      revert\n    tag_228:\n        /* \"Farm.sol\":10987:10999  bool success */\n      0x00\n        /* \"Farm.sol\":11001:11024  bytes memory returndata */\n      dup1\n        /* \"Farm.sol\":11028:11034  target */\n      dup7\n        /* \"Farm.sol\":11028:11039  target.call */\n      0xffffffffffffffffffffffffffffffffffffffff\n      and\n        /* \"Farm.sol\":11048:11053  value */\n      dup6\n        /* \"Farm.sol\":11056:11060  data */\n      dup8\n        /* \"Farm.sol\":11028:11061  target.call{ value: value }(data) */\n      mload(0x40)\n      tag_231\n      swap2\n      swap1\n      tag_232\n      jump\t// in\n    tag_231:\n      0x00\n      mload(0x40)\n      dup1\n      dup4\n      sub\n      dup2\n      dup6\n      dup8\n      gas\n      call\n      swap3\n      pop\n      pop\n      pop\n      returndatasize\n      dup1\n      0x00\n      dup2\n      eq\n      tag_235\n      jumpi\n      mload(0x40)\n      swap2\n      pop\n      and(add(returndatasize, 0x3f), not(0x1f))\n      dup3\n      add\n      0x40\n      mstore\n      returndatasize\n      dup3\n      mstore\n      returndatasize\n      0x00\n      0x20\n      dup5\n      add\n      returndatacopy\n      jump(tag_234)\n    tag_235:\n      0x60\n      swap2\n      pop\n    tag_234:\n      pop\n        /* \"Farm.sol\":10986:11061  (bool success, bytes memory returndata) = target.call{ value: value }(data) */\n      swap2\n      pop\n      swap2\n      pop\n        /* \"Farm.sol\":11079:11131  _verifyCallResult(success, returndata, errorMessage) */\n      tag_236\n        /* \"Farm.sol\":11097:11104  success */\n      dup3\n        /* \"Farm.sol\":11106:11116  returndata */\n      dup3\n        /* \"Farm.sol\":11118:11130  errorMessage */\n      dup7\n        /* \"Farm.sol\":11079:11096  _verifyCallResult */\n      tag_237\n        /* \"Farm.sol\":11079:11131  _verifyCallResult(success, returndata, errorMessage) */\n      jump\t// in\n    tag_236:\n        /* \"Farm.sol\":11072:11131  return _verifyCallResult(success, returndata, errorMessage) */\n      swap3\n      pop\n      pop\n      pop\n        /* \"Farm.sol\":10609:11139  function functionCallWithValue(address target, bytes memory data, uint256 value, string memory errorMessage) internal returns (bytes memory) {\r... */\n      swap5\n      swap4\n      pop\n      pop\n      pop\n      pop\n      jump\t// out\n        /* \"Farm.sol\":6639:7061  function isContract(address account) internal view returns (bool) {\r... */\n    tag_227:\n        /* \"Farm.sol\":6699:6703  bool */\n      0x00\n        /* \"Farm.sol\":6907:6919  uint256 size */\n      dup1\n        /* \"Farm.sol\":7018:7025  account */\n      dup3\n        /* \"Farm.sol\":7006:7026  extcodesize(account) */\n      extcodesize\n        /* \"Farm.sol\":6998:7026  size := extcodesize(account) */\n      swap1\n      pop\n        /* \"Farm.sol\":7052:7053  0 */\n      0x00\n        /* \"Farm.sol\":7045:7049  size */\n      dup2\n        /* \"Farm.sol\":7045:7053  size > 0 */\n      gt\n        /* \"Farm.sol\":7038:7053  return size > 0 */\n      swap2\n      pop\n      pop\n        /* \"Farm.sol\":6639:7061  function isContract(address account) internal view returns (bool) {\r... */\n      swap2\n      swap1\n      pop\n      jump\t// out\n        /* \"Farm.sol\":12145:12887  function _verifyCallResult(bool success, bytes memory returndata, string memory errorMessage) private pure returns(bytes memory) {\r... */\n    tag_237:\n        /* \"Farm.sol\":12260:12272  bytes memory */\n      0x60\n        /* \"Farm.sol\":12289:12296  success */\n      dup4\n        /* \"Farm.sol\":12285:12880  if (success) {\r... */\n      iszero\n      tag_240\n      jumpi\n        /* \"Farm.sol\":12320:12330  returndata */\n      dup3\n        /* \"Farm.sol\":12313:12330  return returndata */\n      swap1\n      pop\n      jump(tag_239)\n        /* \"Farm.sol\":12285:12880  if (success) {\r... */\n    tag_240:\n        /* \"Farm.sol\":12454:12455  0 */\n      0x00\n        /* \"Farm.sol\":12434:12444  returndata */\n      dup4\n        /* \"Farm.sol\":12434:12451  returndata.length */\n      mload\n        /* \"Farm.sol\":12434:12455  returndata.length > 0 */\n      gt\n        /* \"Farm.sol\":12430:12869  if (returndata.length > 0) {\r... */\n      iszero\n      tag_242\n      jumpi\n        /* \"Farm.sol\":12697:12707  returndata */\n      dup3\n        /* \"Farm.sol\":12691:12708  mload(returndata) */\n      mload\n        /* \"Farm.sol\":12758:12773  returndata_size */\n      dup1\n        /* \"Farm.sol\":12745:12755  returndata */\n      dup5\n        /* \"Farm.sol\":12741:12743  32 */\n      0x20\n        /* \"Farm.sol\":12737:12756  add(32, returndata) */\n      add\n        /* \"Farm.sol\":12730:12774  revert(add(32, returndata), returndata_size) */\n      revert\n        /* \"Farm.sol\":12645:12793  {\r... */\n    tag_242:\n        /* \"Farm.sol\":12840:12852  errorMessage */\n      dup2\n        /* \"Farm.sol\":12833:12853  revert(errorMessage) */\n      mload(0x40)\n      0x08c379a000000000000000000000000000000000000000000000000000000000\n      dup2\n      mstore\n      0x04\n      add\n      tag_244\n      swap2\n      swap1\n      tag_245\n      jump\t// in\n    tag_244:\n      mload(0x40)\n      dup1\n      swap2\n      sub\n      swap1\n      revert\n        /* \"Farm.sol\":12145:12887  function _verifyCallResult(bool success, bytes memory returndata, string memory errorMessage) private pure returns(bytes memory) {\r... */\n    tag_239:\n      swap4\n      swap3\n      pop\n      pop\n      pop\n      jump\t// out\n    tag_128:\n      mload(0x40)\n      dup1\n      0x40\n      add\n      0x40\n      mstore\n      dup1\n      and(0xffffffffffffffffffffffffffffffffffffffff, 0x00)\n      dup2\n      mstore\n      0x20\n      add\n      0x00\n      dup2\n      mstore\n      pop\n      swap1\n      jump\t// out\n        /* \"#utility.yul\":7:146   */\n    tag_247:\n      0x00\n        /* \"#utility.yul\":91:97   */\n      dup2\n        /* \"#utility.yul\":78:98   */\n      calldataload\n        /* \"#utility.yul\":69:98   */\n      swap1\n      pop\n        /* \"#utility.yul\":107:140   */\n      tag_249\n        /* \"#utility.yul\":134:139   */\n      dup2\n        /* \"#utility.yul\":107:140   */\n      tag_250\n      jump\t// in\n    tag_249:\n        /* \"#utility.yul\":59:146   */\n      swap3\n      swap2\n      pop\n      pop\n      jump\t// out\n        /* \"#utility.yul\":152:295   */\n    tag_251:\n      0x00\n        /* \"#utility.yul\":240:246   */\n      dup2\n        /* \"#utility.yul\":234:247   */\n      mload\n        /* \"#utility.yul\":225:247   */\n      swap1\n      pop\n        /* \"#utility.yul\":256:289   */\n      tag_253\n        /* \"#utility.yul\":283:288   */\n      dup2\n        /* \"#utility.yul\":256:289   */\n      tag_250\n      jump\t// in\n    tag_253:\n        /* \"#utility.yul\":215:295   */\n      swap3\n      swap2\n      pop\n      pop\n      jump\t// out\n        /* \"#utility.yul\":301:438   */\n    tag_254:\n      0x00\n        /* \"#utility.yul\":386:392   */\n      dup2\n        /* \"#utility.yul\":380:393   */\n      mload\n        /* \"#utility.yul\":371:393   */\n      swap1\n      pop\n        /* \"#utility.yul\":402:432   */\n      tag_256\n        /* \"#utility.yul\":426:431   */\n      dup2\n        /* \"#utility.yul\":402:432   */\n      tag_257\n      jump\t// in\n    tag_256:\n        /* \"#utility.yul\":361:438   */\n      swap3\n      swap2\n      pop\n      pop\n      jump\t// out\n        /* \"#utility.yul\":457:808   */\n    tag_258:\n      0x00\n      dup1\n        /* \"#utility.yul\":574:577   */\n      dup4\n        /* \"#utility.yul\":567:571   */\n      0x1f\n        /* \"#utility.yul\":559:565   */\n      dup5\n        /* \"#utility.yul\":555:572   */\n      add\n        /* \"#utility.yul\":551:578   */\n      slt\n        /* \"#utility.yul\":541:543   */\n      tag_260\n      jumpi\n        /* \"#utility.yul\":592:593   */\n      0x00\n        /* \"#utility.yul\":589:590   */\n      dup1\n        /* \"#utility.yul\":582:594   */\n      revert\n        /* \"#utility.yul\":541:543   */\n    tag_260:\n        /* \"#utility.yul\":628:634   */\n      dup3\n        /* \"#utility.yul\":615:635   */\n      calldataload\n        /* \"#utility.yul\":605:635   */\n      swap1\n      pop\n        /* \"#utility.yul\":658:676   */\n      0xffffffffffffffff\n        /* \"#utility.yul\":650:656   */\n      dup2\n        /* \"#utility.yul\":647:677   */\n      gt\n        /* \"#utility.yul\":644:646   */\n      iszero\n      tag_261\n      jumpi\n        /* \"#utility.yul\":690:691   */\n      0x00\n        /* \"#utility.yul\":687:688   */\n      dup1\n        /* \"#utility.yul\":680:692   */\n      revert\n        /* \"#utility.yul\":644:646   */\n    tag_261:\n        /* \"#utility.yul\":727:731   */\n      0x20\n        /* \"#utility.yul\":719:725   */\n      dup4\n        /* \"#utility.yul\":715:732   */\n      add\n        /* \"#utility.yul\":703:732   */\n      swap2\n      pop\n        /* \"#utility.yul\":781:784   */\n      dup4\n        /* \"#utility.yul\":773:777   */\n      0x01\n        /* \"#utility.yul\":765:771   */\n      dup3\n        /* \"#utility.yul\":761:778   */\n      mul\n        /* \"#utility.yul\":751:759   */\n      dup4\n        /* \"#utility.yul\":747:779   */\n      add\n        /* \"#utility.yul\":744:785   */\n      gt\n        /* \"#utility.yul\":741:743   */\n      iszero\n      tag_262\n      jumpi\n        /* \"#utility.yul\":798:799   */\n      0x00\n        /* \"#utility.yul\":795:796   */\n      dup1\n        /* \"#utility.yul\":788:800   */\n      revert\n        /* \"#utility.yul\":741:743   */\n    tag_262:\n        /* \"#utility.yul\":531:808   */\n      swap3\n      pop\n      swap3\n      swap1\n      pop\n      jump\t// out\n        /* \"#utility.yul\":814:953   */\n    tag_263:\n      0x00\n        /* \"#utility.yul\":898:904   */\n      dup2\n        /* \"#utility.yul\":885:905   */\n      calldataload\n        /* \"#utility.yul\":876:905   */\n      swap1\n      pop\n        /* \"#utility.yul\":914:947   */\n      tag_265\n        /* \"#utility.yul\":941:946   */\n      dup2\n        /* \"#utility.yul\":914:947   */\n      tag_266\n      jump\t// in\n    tag_265:\n        /* \"#utility.yul\":866:953   */\n      swap3\n      swap2\n      pop\n      pop\n      jump\t// out\n        /* \"#utility.yul\":959:1221   */\n    tag_38:\n      0x00\n        /* \"#utility.yul\":1067:1069   */\n      0x20\n        /* \"#utility.yul\":1055:1064   */\n      dup3\n        /* \"#utility.yul\":1046:1053   */\n      dup5\n        /* \"#utility.yul\":1042:1065   */\n      sub\n        /* \"#utility.yul\":1038:1070   */\n      slt\n        /* \"#utility.yul\":1035:1037   */\n      iszero\n      tag_268\n      jumpi\n        /* \"#utility.yul\":1083:1084   */\n      0x00\n        /* \"#utility.yul\":1080:1081   */\n      dup1\n        /* \"#utility.yul\":1073:1085   */\n      revert\n        /* \"#utility.yul\":1035:1037   */\n    tag_268:\n        /* \"#utility.yul\":1126:1127   */\n      0x00\n        /* \"#utility.yul\":1151:1204   */\n      tag_269\n        /* \"#utility.yul\":1196:1203   */\n      dup5\n        /* \"#utility.yul\":1187:1193   */\n      dup3\n        /* \"#utility.yul\":1176:1185   */\n      dup6\n        /* \"#utility.yul\":1172:1194   */\n      add\n        /* \"#utility.yul\":1151:1204   */\n      tag_247\n      jump\t// in\n    tag_269:\n        /* \"#utility.yul\":1141:1204   */\n      swap2\n      pop\n        /* \"#utility.yul\":1097:1214   */\n      pop\n        /* \"#utility.yul\":1025:1221   */\n      swap3\n      swap2\n      pop\n      pop\n      jump\t// out\n        /* \"#utility.yul\":1227:1511   */\n    tag_160:\n      0x00\n        /* \"#utility.yul\":1346:1348   */\n      0x20\n        /* \"#utility.yul\":1334:1343   */\n      dup3\n        /* \"#utility.yul\":1325:1332   */\n      dup5\n        /* \"#utility.yul\":1321:1344   */\n      sub\n        /* \"#utility.yul\":1317:1349   */\n      slt\n        /* \"#utility.yul\":1314:1316   */\n      iszero\n      tag_271\n      jumpi\n        /* \"#utility.yul\":1362:1363   */\n      0x00\n        /* \"#utility.yul\":1359:1360   */\n      dup1\n        /* \"#utility.yul\":1352:1364   */\n      revert\n        /* \"#utility.yul\":1314:1316   */\n    tag_271:\n        /* \"#utility.yul\":1405:1406   */\n      0x00\n        /* \"#utility.yul\":1430:1494   */\n      tag_272\n        /* \"#utility.yul\":1486:1493   */\n      dup5\n        /* \"#utility.yul\":1477:1483   */\n      dup3\n        /* \"#utility.yul\":1466:1475   */\n      dup6\n        /* \"#utility.yul\":1462:1484   */\n      add\n        /* \"#utility.yul\":1430:1494   */\n      tag_251\n      jump\t// in\n    tag_272:\n        /* \"#utility.yul\":1420:1494   */\n      swap2\n      pop\n        /* \"#utility.yul\":1376:1504   */\n      pop\n        /* \"#utility.yul\":1304:1511   */\n      swap3\n      swap2\n      pop\n      pop\n      jump\t// out\n        /* \"#utility.yul\":1517:2346   */\n    tag_22:\n      0x00\n      dup1\n      0x00\n      dup1\n      0x00\n        /* \"#utility.yul\":1695:1698   */\n      0x80\n        /* \"#utility.yul\":1683:1692   */\n      dup7\n        /* \"#utility.yul\":1674:1681   */\n      dup9\n        /* \"#utility.yul\":1670:1693   */\n      sub\n        /* \"#utility.yul\":1666:1699   */\n      slt\n        /* \"#utility.yul\":1663:1665   */\n      iszero\n      tag_274\n      jumpi\n        /* \"#utility.yul\":1712:1713   */\n      0x00\n        /* \"#utility.yul\":1709:1710   */\n      dup1\n        /* \"#utility.yul\":1702:1714   */\n      revert\n        /* \"#utility.yul\":1663:1665   */\n    tag_274:\n        /* \"#utility.yul\":1755:1756   */\n      0x00\n        /* \"#utility.yul\":1780:1833   */\n      tag_275\n        /* \"#utility.yul\":1825:1832   */\n      dup9\n        /* \"#utility.yul\":1816:1822   */\n      dup3\n        /* \"#utility.yul\":1805:1814   */\n      dup10\n        /* \"#utility.yul\":1801:1823   */\n      add\n        /* \"#utility.yul\":1780:1833   */\n      tag_247\n      jump\t// in\n    tag_275:\n        /* \"#utility.yul\":1770:1833   */\n      swap6\n      pop\n        /* \"#utility.yul\":1726:1843   */\n      pop\n        /* \"#utility.yul\":1882:1884   */\n      0x20\n        /* \"#utility.yul\":1908:1961   */\n      tag_276\n        /* \"#utility.yul\":1953:1960   */\n      dup9\n        /* \"#utility.yul\":1944:1950   */\n      dup3\n        /* \"#utility.yul\":1933:1942   */\n      dup10\n        /* \"#utility.yul\":1929:1951   */\n      add\n        /* \"#utility.yul\":1908:1961   */\n      tag_247\n      jump\t// in\n    tag_276:\n        /* \"#utility.yul\":1898:1961   */\n      swap5\n      pop\n        /* \"#utility.yul\":1853:1971   */\n      pop\n        /* \"#utility.yul\":2010:2012   */\n      0x40\n        /* \"#utility.yul\":2036:2089   */\n      tag_277\n        /* \"#utility.yul\":2081:2088   */\n      dup9\n        /* \"#utility.yul\":2072:2078   */\n      dup3\n        /* \"#utility.yul\":2061:2070   */\n      dup10\n        /* \"#utility.yul\":2057:2079   */\n      add\n        /* \"#utility.yul\":2036:2089   */\n      tag_263\n      jump\t// in\n    tag_277:\n        /* \"#utility.yul\":2026:2089   */\n      swap4\n      pop\n        /* \"#utility.yul\":1981:2099   */\n      pop\n        /* \"#utility.yul\":2166:2168   */\n      0x60\n        /* \"#utility.yul\":2155:2164   */\n      dup7\n        /* \"#utility.yul\":2151:2169   */\n      add\n        /* \"#utility.yul\":2138:2170   */\n      calldataload\n        /* \"#utility.yul\":2197:2215   */\n      0xffffffffffffffff\n        /* \"#utility.yul\":2189:2195   */\n      dup2\n        /* \"#utility.yul\":2186:2216   */\n      gt\n        /* \"#utility.yul\":2183:2185   */\n      iszero\n      tag_278\n      jumpi\n        /* \"#utility.yul\":2229:2230   */\n      0x00\n        /* \"#utility.yul\":2226:2227   */\n      dup1\n        /* \"#utility.yul\":2219:2231   */\n      revert\n        /* \"#utility.yul\":2183:2185   */\n    tag_278:\n        /* \"#utility.yul\":2265:2329   */\n      tag_279\n        /* \"#utility.yul\":2321:2328   */\n      dup9\n        /* \"#utility.yul\":2312:2318   */\n      dup3\n        /* \"#utility.yul\":2301:2310   */\n      dup10\n        /* \"#utility.yul\":2297:2319   */\n      add\n        /* \"#utility.yul\":2265:2329   */\n      tag_258\n      jump\t// in\n    tag_279:\n        /* \"#utility.yul\":2247:2329   */\n      swap3\n      pop\n      swap3\n      pop\n        /* \"#utility.yul\":2109:2339   */\n      pop\n        /* \"#utility.yul\":1653:2346   */\n      swap3\n      swap6\n      pop\n      swap3\n      swap6\n      swap1\n      swap4\n      pop\n      jump\t// out\n        /* \"#utility.yul\":2352:2630   */\n    tag_214:\n      0x00\n        /* \"#utility.yul\":2468:2470   */\n      0x20\n        /* \"#utility.yul\":2456:2465   */\n      dup3\n        /* \"#utility.yul\":2447:2454   */\n      dup5\n        /* \"#utility.yul\":2443:2466   */\n      sub\n        /* \"#utility.yul\":2439:2471   */\n      slt\n        /* \"#utility.yul\":2436:2438   */\n      iszero\n      tag_281\n      jumpi\n        /* \"#utility.yul\":2484:2485   */\n      0x00\n        /* \"#utility.yul\":2481:2482   */\n      dup1\n        /* \"#utility.yul\":2474:2486   */\n      revert\n        /* \"#utility.yul\":2436:2438   */\n    tag_281:\n        /* \"#utility.yul\":2527:2528   */\n      0x00\n        /* \"#utility.yul\":2552:2613   */\n      tag_282\n        /* \"#utility.yul\":2605:2612   */\n      dup5\n        /* \"#utility.yul\":2596:2602   */\n      dup3\n        /* \"#utility.yul\":2585:2594   */\n      dup6\n        /* \"#utility.yul\":2581:2603   */\n      add\n        /* \"#utility.yul\":2552:2613   */\n      tag_254\n      jump\t// in\n    tag_282:\n        /* \"#utility.yul\":2542:2613   */\n      swap2\n      pop\n        /* \"#utility.yul\":2498:2623   */\n      pop\n        /* \"#utility.yul\":2426:2630   */\n      swap3\n      swap2\n      pop\n      pop\n      jump\t// out\n        /* \"#utility.yul\":2636:2898   */\n    tag_28:\n      0x00\n        /* \"#utility.yul\":2744:2746   */\n      0x20\n        /* \"#utility.yul\":2732:2741   */\n      dup3\n        /* \"#utility.yul\":2723:2730   */\n      dup5\n        /* \"#utility.yul\":2719:2742   */\n      sub\n        /* \"#utility.yul\":2715:2747   */\n      slt\n        /* \"#utility.yul\":2712:2714   */\n      iszero\n      tag_284\n      jumpi\n        /* \"#utility.yul\":2760:2761   */\n      0x00\n        /* \"#utility.yul\":2757:2758   */\n      dup1\n        /* \"#utility.yul\":2750:2762   */\n      revert\n        /* \"#utility.yul\":2712:2714   */\n    tag_284:\n        /* \"#utility.yul\":2803:2804   */\n      0x00\n        /* \"#utility.yul\":2828:2881   */\n      tag_285\n        /* \"#utility.yul\":2873:2880   */\n      dup5\n        /* \"#utility.yul\":2864:2870   */\n      dup3\n        /* \"#utility.yul\":2853:2862   */\n      dup6\n        /* \"#utility.yul\":2849:2871   */\n      add\n        /* \"#utility.yul\":2828:2881   */\n      tag_263\n      jump\t// in\n    tag_285:\n        /* \"#utility.yul\":2818:2881   */\n      swap2\n      pop\n        /* \"#utility.yul\":2774:2891   */\n      pop\n        /* \"#utility.yul\":2702:2898   */\n      swap3\n      swap2\n      pop\n      pop\n      jump\t// out\n        /* \"#utility.yul\":2904:3199   */\n    tag_286:\n      0x00\n        /* \"#utility.yul\":3052:3156   */\n      tag_288\n        /* \"#utility.yul\":3152:3155   */\n      dup4\n        /* \"#utility.yul\":3144:3150   */\n      dup4\n        /* \"#utility.yul\":3052:3156   */\n      tag_289\n      jump\t// in\n    tag_288:\n        /* \"#utility.yul\":3188:3192   */\n      0x40\n        /* \"#utility.yul\":3183:3186   */\n      dup4\n        /* \"#utility.yul\":3179:3193   */\n      add\n        /* \"#utility.yul\":3165:3193   */\n      swap1\n      pop\n        /* \"#utility.yul\":3042:3199   */\n      swap3\n      swap2\n      pop\n      pop\n      jump\t// out\n        /* \"#utility.yul\":3205:3313   */\n    tag_290:\n        /* \"#utility.yul\":3282:3306   */\n      tag_292\n        /* \"#utility.yul\":3300:3305   */\n      dup2\n        /* \"#utility.yul\":3282:3306   */\n      tag_293\n      jump\t// in\n    tag_292:\n        /* \"#utility.yul\":3277:3280   */\n      dup3\n        /* \"#utility.yul\":3270:3307   */\n      mstore\n        /* \"#utility.yul\":3260:3313   */\n      pop\n      pop\n      jump\t// out\n        /* \"#utility.yul\":3319:3437   */\n    tag_294:\n        /* \"#utility.yul\":3406:3430   */\n      tag_296\n        /* \"#utility.yul\":3424:3429   */\n      dup2\n        /* \"#utility.yul\":3406:3430   */\n      tag_293\n      jump\t// in\n    tag_296:\n        /* \"#utility.yul\":3401:3404   */\n      dup3\n        /* \"#utility.yul\":3394:3431   */\n      mstore\n        /* \"#utility.yul\":3384:3437   */\n      pop\n      pop\n      jump\t// out\n        /* \"#utility.yul\":3505:4469   */\n    tag_297:\n      0x00\n        /* \"#utility.yul\":3711:3794   */\n      tag_299\n        /* \"#utility.yul\":3788:3793   */\n      dup3\n        /* \"#utility.yul\":3711:3794   */\n      tag_300\n      jump\t// in\n    tag_299:\n        /* \"#utility.yul\":3810:3925   */\n      tag_301\n        /* \"#utility.yul\":3918:3924   */\n      dup2\n        /* \"#utility.yul\":3913:3916   */\n      dup6\n        /* \"#utility.yul\":3810:3925   */\n      tag_302\n      jump\t// in\n    tag_301:\n        /* \"#utility.yul\":3803:3925   */\n      swap4\n      pop\n        /* \"#utility.yul\":3949:4034   */\n      tag_303\n        /* \"#utility.yul\":4028:4033   */\n      dup4\n        /* \"#utility.yul\":3949:4034   */\n      tag_304\n      jump\t// in\n    tag_303:\n        /* \"#utility.yul\":4057:4064   */\n      dup1\n        /* \"#utility.yul\":4088:4089   */\n      0x00\n        /* \"#utility.yul\":4073:4444   */\n    tag_305:\n        /* \"#utility.yul\":4098:4104   */\n      dup4\n        /* \"#utility.yul\":4095:4096   */\n      dup2\n        /* \"#utility.yul\":4092:4105   */\n      lt\n        /* \"#utility.yul\":4073:4444   */\n      iszero\n      tag_307\n      jumpi\n        /* \"#utility.yul\":4174:4180   */\n      dup2\n        /* \"#utility.yul\":4168:4181   */\n      mload\n        /* \"#utility.yul\":4201:4322   */\n      tag_308\n        /* \"#utility.yul\":4318:4321   */\n      dup9\n        /* \"#utility.yul\":4303:4316   */\n      dup3\n        /* \"#utility.yul\":4201:4322   */\n      tag_286\n      jump\t// in\n    tag_308:\n        /* \"#utility.yul\":4194:4322   */\n      swap8\n      pop\n        /* \"#utility.yul\":4345:4434   */\n      tag_309\n        /* \"#utility.yul\":4427:4433   */\n      dup4\n        /* \"#utility.yul\":4345:4434   */\n      tag_310\n      jump\t// in\n    tag_309:\n        /* \"#utility.yul\":4335:4434   */\n      swap3\n      pop\n        /* \"#utility.yul\":4133:4444   */\n      pop\n        /* \"#utility.yul\":4120:4121   */\n      0x01\n        /* \"#utility.yul\":4117:4118   */\n      dup2\n        /* \"#utility.yul\":4113:4122   */\n      add\n        /* \"#utility.yul\":4108:4122   */\n      swap1\n      pop\n        /* \"#utility.yul\":4073:4444   */\n      jump(tag_305)\n    tag_307:\n        /* \"#utility.yul\":4077:4091   */\n      pop\n        /* \"#utility.yul\":4460:4463   */\n      dup6\n        /* \"#utility.yul\":4453:4463   */\n      swap4\n      pop\n        /* \"#utility.yul\":3687:4469   */\n      pop\n      pop\n      pop\n      swap3\n      swap2\n      pop\n      pop\n      jump\t// out\n        /* \"#utility.yul\":4475:4584   */\n    tag_311:\n        /* \"#utility.yul\":4556:4577   */\n      tag_313\n        /* \"#utility.yul\":4571:4576   */\n      dup2\n        /* \"#utility.yul\":4556:4577   */\n      tag_314\n      jump\t// in\n    tag_313:\n        /* \"#utility.yul\":4551:4554   */\n      dup3\n        /* \"#utility.yul\":4544:4578   */\n      mstore\n        /* \"#utility.yul\":4534:4584   */\n      pop\n      pop\n      jump\t// out\n        /* \"#utility.yul\":4590:4705   */\n    tag_315:\n        /* \"#utility.yul\":4675:4698   */\n      tag_317\n        /* \"#utility.yul\":4692:4697   */\n      dup2\n        /* \"#utility.yul\":4675:4698   */\n      tag_318\n      jump\t// in\n    tag_317:\n        /* \"#utility.yul\":4670:4673   */\n      dup3\n        /* \"#utility.yul\":4663:4699   */\n      mstore\n        /* \"#utility.yul\":4653:4705   */\n      pop\n      pop\n      jump\t// out\n        /* \"#utility.yul\":4711:5084   */\n    tag_319:\n      0x00\n        /* \"#utility.yul\":4843:4881   */\n      tag_321\n        /* \"#utility.yul\":4875:4880   */\n      dup3\n        /* \"#utility.yul\":4843:4881   */\n      tag_322\n      jump\t// in\n    tag_321:\n        /* \"#utility.yul\":4897:4985   */\n      tag_323\n        /* \"#utility.yul\":4978:4984   */\n      dup2\n        /* \"#utility.yul\":4973:4976   */\n      dup6\n        /* \"#utility.yul\":4897:4985   */\n      tag_324\n      jump\t// in\n    tag_323:\n        /* \"#utility.yul\":4890:4985   */\n      swap4\n      pop\n        /* \"#utility.yul\":4994:5046   */\n      tag_325\n        /* \"#utility.yul\":5039:5045   */\n      dup2\n        /* \"#utility.yul\":5034:5037   */\n      dup6\n        /* \"#utility.yul\":5027:5031   */\n      0x20\n        /* \"#utility.yul\":5020:5025   */\n      dup7\n        /* \"#utility.yul\":5016:5032   */\n      add\n        /* \"#utility.yul\":4994:5046   */\n      tag_326\n      jump\t// in\n    tag_325:\n        /* \"#utility.yul\":5071:5077   */\n      dup1\n        /* \"#utility.yul\":5066:5069   */\n      dup5\n        /* \"#utility.yul\":5062:5078   */\n      add\n        /* \"#utility.yul\":5055:5078   */\n      swap2\n      pop\n        /* \"#utility.yul\":4819:5084   */\n      pop\n      swap3\n      swap2\n      pop\n      pop\n      jump\t// out\n        /* \"#utility.yul\":5090:5249   */\n    tag_327:\n        /* \"#utility.yul\":5191:5242   */\n      tag_329\n        /* \"#utility.yul\":5236:5241   */\n      dup2\n        /* \"#utility.yul\":5191:5242   */\n      tag_330\n      jump\t// in\n    tag_329:\n        /* \"#utility.yul\":5186:5189   */\n      dup3\n        /* \"#utility.yul\":5179:5243   */\n      mstore\n        /* \"#utility.yul\":5169:5249   */\n      pop\n      pop\n      jump\t// out\n        /* \"#utility.yul\":5255:5416   */\n    tag_331:\n        /* \"#utility.yul\":5357:5409   */\n      tag_333\n        /* \"#utility.yul\":5403:5408   */\n      dup2\n        /* \"#utility.yul\":5357:5409   */\n      tag_334\n      jump\t// in\n    tag_333:\n        /* \"#utility.yul\":5352:5355   */\n      dup3\n        /* \"#utility.yul\":5345:5410   */\n      mstore\n        /* \"#utility.yul\":5335:5416   */\n      pop\n      pop\n      jump\t// out\n        /* \"#utility.yul\":5422:5786   */\n    tag_335:\n      0x00\n        /* \"#utility.yul\":5538:5577   */\n      tag_337\n        /* \"#utility.yul\":5571:5576   */\n      dup3\n        /* \"#utility.yul\":5538:5577   */\n      tag_338\n      jump\t// in\n    tag_337:\n        /* \"#utility.yul\":5593:5664   */\n      tag_339\n        /* \"#utility.yul\":5657:5663   */\n      dup2\n        /* \"#utility.yul\":5652:5655   */\n      dup6\n        /* \"#utility.yul\":5593:5664   */\n      tag_340\n      jump\t// in\n    tag_339:\n        /* \"#utility.yul\":5586:5664   */\n      swap4\n      pop\n        /* \"#utility.yul\":5673:5725   */\n      tag_341\n        /* \"#utility.yul\":5718:5724   */\n      dup2\n        /* \"#utility.yul\":5713:5716   */\n      dup6\n        /* \"#utility.yul\":5706:5710   */\n      0x20\n        /* \"#utility.yul\":5699:5704   */\n      dup7\n        /* \"#utility.yul\":5695:5711   */\n      add\n        /* \"#utility.yul\":5673:5725   */\n      tag_326\n      jump\t// in\n    tag_341:\n        /* \"#utility.yul\":5750:5779   */\n      tag_342\n        /* \"#utility.yul\":5772:5778   */\n      dup2\n        /* \"#utility.yul\":5750:5779   */\n      tag_343\n      jump\t// in\n    tag_342:\n        /* \"#utility.yul\":5745:5748   */\n      dup5\n        /* \"#utility.yul\":5741:5780   */\n      add\n        /* \"#utility.yul\":5734:5780   */\n      swap2\n      pop\n        /* \"#utility.yul\":5514:5786   */\n      pop\n      swap3\n      swap2\n      pop\n      pop\n      jump\t// out\n        /* \"#utility.yul\":5792:6115   */\n    tag_344:\n      0x00\n        /* \"#utility.yul\":5955:6022   */\n      tag_346\n        /* \"#utility.yul\":6019:6021   */\n      0x19\n        /* \"#utility.yul\":6014:6017   */\n      dup4\n        /* \"#utility.yul\":5955:6022   */\n      tag_340\n      jump\t// in\n    tag_346:\n        /* \"#utility.yul\":5948:6022   */\n      swap2\n      pop\n        /* \"#utility.yul\":6052:6079   */\n      0x596f7520646f6e2774206f776e207468697320746f6b656e2100000000000000\n        /* \"#utility.yul\":6048:6049   */\n      0x00\n        /* \"#utility.yul\":6043:6046   */\n      dup4\n        /* \"#utility.yul\":6039:6050   */\n      add\n        /* \"#utility.yul\":6032:6080   */\n      mstore\n        /* \"#utility.yul\":6106:6108   */\n      0x20\n        /* \"#utility.yul\":6101:6104   */\n      dup3\n        /* \"#utility.yul\":6097:6109   */\n      add\n        /* \"#utility.yul\":6090:6109   */\n      swap1\n      pop\n        /* \"#utility.yul\":5938:6115   */\n      swap2\n      swap1\n      pop\n      jump\t// out\n        /* \"#utility.yul\":6121:6491   */\n    tag_347:\n      0x00\n        /* \"#utility.yul\":6284:6351   */\n      tag_349\n        /* \"#utility.yul\":6348:6350   */\n      0x26\n        /* \"#utility.yul\":6343:6346   */\n      dup4\n        /* \"#utility.yul\":6284:6351   */\n      tag_340\n      jump\t// in\n    tag_349:\n        /* \"#utility.yul\":6277:6351   */\n      swap2\n      pop\n        /* \"#utility.yul\":6381:6415   */\n      0x4f776e61626c653a206e6577206f776e657220697320746865207a65726f2061\n        /* \"#utility.yul\":6377:6378   */\n      0x00\n        /* \"#utility.yul\":6372:6375   */\n      dup4\n        /* \"#utility.yul\":6368:6379   */\n      add\n        /* \"#utility.yul\":6361:6416   */\n      mstore\n        /* \"#utility.yul\":6447:6455   */\n      0x6464726573730000000000000000000000000000000000000000000000000000\n        /* \"#utility.yul\":6442:6444   */\n      0x20\n        /* \"#utility.yul\":6437:6440   */\n      dup4\n        /* \"#utility.yul\":6433:6445   */\n      add\n        /* \"#utility.yul\":6426:6456   */\n      mstore\n        /* \"#utility.yul\":6482:6484   */\n      0x40\n        /* \"#utility.yul\":6477:6480   */\n      dup3\n        /* \"#utility.yul\":6473:6485   */\n      add\n        /* \"#utility.yul\":6466:6485   */\n      swap1\n      pop\n        /* \"#utility.yul\":6267:6491   */\n      swap2\n      swap1\n      pop\n      jump\t// out\n        /* \"#utility.yul\":6497:6820   */\n    tag_350:\n      0x00\n        /* \"#utility.yul\":6660:6727   */\n      tag_352\n        /* \"#utility.yul\":6724:6726   */\n      0x19\n        /* \"#utility.yul\":6719:6722   */\n      dup4\n        /* \"#utility.yul\":6660:6727   */\n      tag_340\n      jump\t// in\n    tag_352:\n        /* \"#utility.yul\":6653:6727   */\n      swap2\n      pop\n        /* \"#utility.yul\":6757:6784   */\n      0x596f752068617665206e6f20746f6b656e73207374616b656400000000000000\n        /* \"#utility.yul\":6753:6754   */\n      0x00\n        /* \"#utility.yul\":6748:6751   */\n      dup4\n        /* \"#utility.yul\":6744:6755   */\n      add\n        /* \"#utility.yul\":6737:6785   */\n      mstore\n        /* \"#utility.yul\":6811:6813   */\n      0x20\n        /* \"#utility.yul\":6806:6809   */\n      dup3\n        /* \"#utility.yul\":6802:6814   */\n      add\n        /* \"#utility.yul\":6795:6814   */\n      swap1\n      pop\n        /* \"#utility.yul\":6643:6820   */\n      swap2\n      swap1\n      pop\n      jump\t// out\n        /* \"#utility.yul\":6826:7152   */\n    tag_353:\n      0x00\n        /* \"#utility.yul\":6989:7056   */\n      tag_355\n        /* \"#utility.yul\":7053:7055   */\n      0x1c\n        /* \"#utility.yul\":7048:7051   */\n      dup4\n        /* \"#utility.yul\":6989:7056   */\n      tag_340\n      jump\t// in\n    tag_355:\n        /* \"#utility.yul\":6982:7056   */\n      swap2\n      pop\n        /* \"#utility.yul\":7086:7116   */\n      0x4e6f7420737570706f72746564204e465420436f6c6c656374696f6e00000000\n        /* \"#utility.yul\":7082:7083   */\n      0x00\n        /* \"#utility.yul\":7077:7080   */\n      dup4\n        /* \"#utility.yul\":7073:7084   */\n      add\n        /* \"#utility.yul\":7066:7117   */\n      mstore\n        /* \"#utility.yul\":7143:7145   */\n      0x20\n        /* \"#utility.yul\":7138:7141   */\n      dup3\n        /* \"#utility.yul\":7134:7146   */\n      add\n        /* \"#utility.yul\":7127:7146   */\n      swap1\n      pop\n        /* \"#utility.yul\":6972:7152   */\n      swap2\n      swap1\n      pop\n      jump\t// out\n        /* \"#utility.yul\":7158:7528   */\n    tag_356:\n      0x00\n        /* \"#utility.yul\":7321:7388   */\n      tag_358\n        /* \"#utility.yul\":7385:7387   */\n      0x26\n        /* \"#utility.yul\":7380:7383   */\n      dup4\n        /* \"#utility.yul\":7321:7388   */\n      tag_340\n      jump\t// in\n    tag_358:\n        /* \"#utility.yul\":7314:7388   */\n      swap2\n      pop\n        /* \"#utility.yul\":7418:7452   */\n      0x416464726573733a20696e73756666696369656e742062616c616e636520666f\n        /* \"#utility.yul\":7414:7415   */\n      0x00\n        /* \"#utility.yul\":7409:7412   */\n      dup4\n        /* \"#utility.yul\":7405:7416   */\n      add\n        /* \"#utility.yul\":7398:7453   */\n      mstore\n        /* \"#utility.yul\":7484:7492   */\n      0x722063616c6c0000000000000000000000000000000000000000000000000000\n        /* \"#utility.yul\":7479:7481   */\n      0x20\n        /* \"#utility.yul\":7474:7477   */\n      dup4\n        /* \"#utility.yul\":7470:7482   */\n      add\n        /* \"#utility.yul\":7463:7493   */\n      mstore\n        /* \"#utility.yul\":7519:7521   */\n      0x40\n        /* \"#utility.yul\":7514:7517   */\n      dup3\n        /* \"#utility.yul\":7510:7522   */\n      add\n        /* \"#utility.yul\":7503:7522   */\n      swap1\n      pop\n        /* \"#utility.yul\":7304:7528   */\n      swap2\n      swap1\n      pop\n      jump\t// out\n        /* \"#utility.yul\":7534:7864   */\n    tag_359:\n      0x00\n        /* \"#utility.yul\":7697:7764   */\n      tag_361\n        /* \"#utility.yul\":7761:7763   */\n      0x20\n        /* \"#utility.yul\":7756:7759   */\n      dup4\n        /* \"#utility.yul\":7697:7764   */\n      tag_340\n      jump\t// in\n    tag_361:\n        /* \"#utility.yul\":7690:7764   */\n      swap2\n      pop\n        /* \"#utility.yul\":7794:7828   */\n      0x4f776e61626c653a2063616c6c6572206973206e6f7420746865206f776e6572\n        /* \"#utility.yul\":7790:7791   */\n      0x00\n        /* \"#utility.yul\":7785:7788   */\n      dup4\n        /* \"#utility.yul\":7781:7792   */\n      add\n        /* \"#utility.yul\":7774:7829   */\n      mstore\n        /* \"#utility.yul\":7855:7857   */\n      0x20\n        /* \"#utility.yul\":7850:7853   */\n      dup3\n        /* \"#utility.yul\":7846:7858   */\n      add\n        /* \"#utility.yul\":7839:7858   */\n      swap1\n      pop\n        /* \"#utility.yul\":7680:7864   */\n      swap2\n      swap1\n      pop\n      jump\t// out\n        /* \"#utility.yul\":7870:8196   */\n    tag_362:\n      0x00\n        /* \"#utility.yul\":8033:8100   */\n      tag_364\n        /* \"#utility.yul\":8097:8099   */\n      0x1c\n        /* \"#utility.yul\":8092:8095   */\n      dup4\n        /* \"#utility.yul\":8033:8100   */\n      tag_340\n      jump\t// in\n    tag_364:\n        /* \"#utility.yul\":8026:8100   */\n      swap2\n      pop\n        /* \"#utility.yul\":8130:8160   */\n      0x596f752068617665206e6f207265776172647320746f20636c61696d00000000\n        /* \"#utility.yul\":8126:8127   */\n      0x00\n        /* \"#utility.yul\":8121:8124   */\n      dup4\n        /* \"#utility.yul\":8117:8128   */\n      add\n        /* \"#utility.yul\":8110:8161   */\n      mstore\n        /* \"#utility.yul\":8187:8189   */\n      0x20\n        /* \"#utility.yul\":8182:8185   */\n      dup3\n        /* \"#utility.yul\":8178:8190   */\n      add\n        /* \"#utility.yul\":8171:8190   */\n      swap1\n      pop\n        /* \"#utility.yul\":8016:8196   */\n      swap2\n      swap1\n      pop\n      jump\t// out\n        /* \"#utility.yul\":8202:8529   */\n    tag_365:\n      0x00\n        /* \"#utility.yul\":8365:8432   */\n      tag_367\n        /* \"#utility.yul\":8429:8431   */\n      0x1d\n        /* \"#utility.yul\":8424:8427   */\n      dup4\n        /* \"#utility.yul\":8365:8432   */\n      tag_340\n      jump\t// in\n    tag_367:\n        /* \"#utility.yul\":8358:8432   */\n      swap2\n      pop\n        /* \"#utility.yul\":8462:8493   */\n      0x416464726573733a2063616c6c20746f206e6f6e2d636f6e7472616374000000\n        /* \"#utility.yul\":8458:8459   */\n      0x00\n        /* \"#utility.yul\":8453:8456   */\n      dup4\n        /* \"#utility.yul\":8449:8460   */\n      add\n        /* \"#utility.yul\":8442:8494   */\n      mstore\n        /* \"#utility.yul\":8520:8522   */\n      0x20\n        /* \"#utility.yul\":8515:8518   */\n      dup3\n        /* \"#utility.yul\":8511:8523   */\n      add\n        /* \"#utility.yul\":8504:8523   */\n      swap1\n      pop\n        /* \"#utility.yul\":8348:8529   */\n      swap2\n      swap1\n      pop\n      jump\t// out\n        /* \"#utility.yul\":8535:8909   */\n    tag_368:\n      0x00\n        /* \"#utility.yul\":8698:8765   */\n      tag_370\n        /* \"#utility.yul\":8762:8764   */\n      0x2a\n        /* \"#utility.yul\":8757:8760   */\n      dup4\n        /* \"#utility.yul\":8698:8765   */\n      tag_340\n      jump\t// in\n    tag_370:\n        /* \"#utility.yul\":8691:8765   */\n      swap2\n      pop\n        /* \"#utility.yul\":8795:8829   */\n      0x5361666545524332303a204552433230206f7065726174696f6e20646964206e\n        /* \"#utility.yul\":8791:8792   */\n      0x00\n        /* \"#utility.yul\":8786:8789   */\n      dup4\n        /* \"#utility.yul\":8782:8793   */\n      add\n        /* \"#utility.yul\":8775:8830   */\n      mstore\n        /* \"#utility.yul\":8861:8873   */\n      0x6f74207375636365656400000000000000000000000000000000000000000000\n        /* \"#utility.yul\":8856:8858   */\n      0x20\n        /* \"#utility.yul\":8851:8854   */\n      dup4\n        /* \"#utility.yul\":8847:8859   */\n      add\n        /* \"#utility.yul\":8840:8874   */\n      mstore\n        /* \"#utility.yul\":8900:8902   */\n      0x40\n        /* \"#utility.yul\":8895:8898   */\n      dup3\n        /* \"#utility.yul\":8891:8903   */\n      add\n        /* \"#utility.yul\":8884:8903   */\n      swap1\n      pop\n        /* \"#utility.yul\":8681:8909   */\n      swap2\n      swap1\n      pop\n      jump\t// out\n        /* \"#utility.yul\":8915:9244   */\n    tag_371:\n      0x00\n        /* \"#utility.yul\":9078:9145   */\n      tag_373\n        /* \"#utility.yul\":9142:9144   */\n      0x1f\n        /* \"#utility.yul\":9137:9140   */\n      dup4\n        /* \"#utility.yul\":9078:9145   */\n      tag_340\n      jump\t// in\n    tag_373:\n        /* \"#utility.yul\":9071:9145   */\n      swap2\n      pop\n        /* \"#utility.yul\":9175:9208   */\n      0x5265656e7472616e637947756172643a207265656e7472616e742063616c6c00\n        /* \"#utility.yul\":9171:9172   */\n      0x00\n        /* \"#utility.yul\":9166:9169   */\n      dup4\n        /* \"#utility.yul\":9162:9173   */\n      add\n        /* \"#utility.yul\":9155:9209   */\n      mstore\n        /* \"#utility.yul\":9235:9237   */\n      0x20\n        /* \"#utility.yul\":9230:9233   */\n      dup3\n        /* \"#utility.yul\":9226:9238   */\n      add\n        /* \"#utility.yul\":9219:9238   */\n      swap1\n      pop\n        /* \"#utility.yul\":9061:9244   */\n      swap2\n      swap1\n      pop\n      jump\t// out\n        /* \"#utility.yul\":9308:9818   */\n    tag_289:\n        /* \"#utility.yul\":9453:9457   */\n      0x40\n        /* \"#utility.yul\":9448:9451   */\n      dup3\n        /* \"#utility.yul\":9444:9458   */\n      add\n        /* \"#utility.yul\":9542:9546   */\n      0x00\n        /* \"#utility.yul\":9535:9540   */\n      dup3\n        /* \"#utility.yul\":9531:9547   */\n      add\n        /* \"#utility.yul\":9525:9548   */\n      mload\n        /* \"#utility.yul\":9561:9624   */\n      tag_375\n        /* \"#utility.yul\":9618:9622   */\n      0x00\n        /* \"#utility.yul\":9613:9616   */\n      dup6\n        /* \"#utility.yul\":9609:9623   */\n      add\n        /* \"#utility.yul\":9595:9607   */\n      dup3\n        /* \"#utility.yul\":9561:9624   */\n      tag_290\n      jump\t// in\n    tag_375:\n        /* \"#utility.yul\":9468:9634   */\n      pop\n        /* \"#utility.yul\":9719:9723   */\n      0x20\n        /* \"#utility.yul\":9712:9717   */\n      dup3\n        /* \"#utility.yul\":9708:9724   */\n      add\n        /* \"#utility.yul\":9702:9725   */\n      mload\n        /* \"#utility.yul\":9738:9801   */\n      tag_376\n        /* \"#utility.yul\":9795:9799   */\n      0x20\n        /* \"#utility.yul\":9790:9793   */\n      dup6\n        /* \"#utility.yul\":9786:9800   */\n      add\n        /* \"#utility.yul\":9772:9784   */\n      dup3\n        /* \"#utility.yul\":9738:9801   */\n      tag_377\n      jump\t// in\n    tag_376:\n        /* \"#utility.yul\":9644:9811   */\n      pop\n        /* \"#utility.yul\":9422:9818   */\n      pop\n      pop\n      pop\n      jump\t// out\n        /* \"#utility.yul\":9824:9932   */\n    tag_377:\n        /* \"#utility.yul\":9901:9925   */\n      tag_379\n        /* \"#utility.yul\":9919:9924   */\n      dup2\n        /* \"#utility.yul\":9901:9925   */\n      tag_380\n      jump\t// in\n    tag_379:\n        /* \"#utility.yul\":9896:9899   */\n      dup3\n        /* \"#utility.yul\":9889:9926   */\n      mstore\n        /* \"#utility.yul\":9879:9932   */\n      pop\n      pop\n      jump\t// out\n        /* \"#utility.yul\":9938:10056   */\n    tag_381:\n        /* \"#utility.yul\":10025:10049   */\n      tag_383\n        /* \"#utility.yul\":10043:10048   */\n      dup2\n        /* \"#utility.yul\":10025:10049   */\n      tag_380\n      jump\t// in\n    tag_383:\n        /* \"#utility.yul\":10020:10023   */\n      dup3\n        /* \"#utility.yul\":10013:10050   */\n      mstore\n        /* \"#utility.yul\":10003:10056   */\n      pop\n      pop\n      jump\t// out\n        /* \"#utility.yul\":10062:10333   */\n    tag_232:\n      0x00\n        /* \"#utility.yul\":10214:10307   */\n      tag_385\n        /* \"#utility.yul\":10303:10306   */\n      dup3\n        /* \"#utility.yul\":10294:10300   */\n      dup5\n        /* \"#utility.yul\":10214:10307   */\n      tag_319\n      jump\t// in\n    tag_385:\n        /* \"#utility.yul\":10207:10307   */\n      swap2\n      pop\n        /* \"#utility.yul\":10324:10327   */\n      dup2\n        /* \"#utility.yul\":10317:10327   */\n      swap1\n      pop\n        /* \"#utility.yul\":10196:10333   */\n      swap3\n      swap2\n      pop\n      pop\n      jump\t// out\n        /* \"#utility.yul\":10339:10561   */\n    tag_51:\n      0x00\n        /* \"#utility.yul\":10470:10472   */\n      0x20\n        /* \"#utility.yul\":10459:10468   */\n      dup3\n        /* \"#utility.yul\":10455:10473   */\n      add\n        /* \"#utility.yul\":10447:10473   */\n      swap1\n      pop\n        /* \"#utility.yul\":10483:10554   */\n      tag_387\n        /* \"#utility.yul\":10551:10552   */\n      0x00\n        /* \"#utility.yul\":10540:10549   */\n      dup4\n        /* \"#utility.yul\":10536:10553   */\n      add\n        /* \"#utility.yul\":10527:10533   */\n      dup5\n        /* \"#utility.yul\":10483:10554   */\n      tag_294\n      jump\t// in\n    tag_387:\n        /* \"#utility.yul\":10437:10561   */\n      swap3\n      swap2\n      pop\n      pop\n      jump\t// out\n        /* \"#utility.yul\":10567:11009   */\n    tag_107:\n      0x00\n        /* \"#utility.yul\":10754:10756   */\n      0x60\n        /* \"#utility.yul\":10743:10752   */\n      dup3\n        /* \"#utility.yul\":10739:10757   */\n      add\n        /* \"#utility.yul\":10731:10757   */\n      swap1\n      pop\n        /* \"#utility.yul\":10767:10838   */\n      tag_389\n        /* \"#utility.yul\":10835:10836   */\n      0x00\n        /* \"#utility.yul\":10824:10833   */\n      dup4\n        /* \"#utility.yul\":10820:10837   */\n      add\n        /* \"#utility.yul\":10811:10817   */\n      dup7\n        /* \"#utility.yul\":10767:10838   */\n      tag_294\n      jump\t// in\n    tag_389:\n        /* \"#utility.yul\":10848:10920   */\n      tag_390\n        /* \"#utility.yul\":10916:10918   */\n      0x20\n        /* \"#utility.yul\":10905:10914   */\n      dup4\n        /* \"#utility.yul\":10901:10919   */\n      add\n        /* \"#utility.yul\":10892:10898   */\n      dup6\n        /* \"#utility.yul\":10848:10920   */\n      tag_294\n      jump\t// in\n    tag_390:\n        /* \"#utility.yul\":10930:11002   */\n      tag_391\n        /* \"#utility.yul\":10998:11000   */\n      0x40\n        /* \"#utility.yul\":10987:10996   */\n      dup4\n        /* \"#utility.yul\":10983:11001   */\n      add\n        /* \"#utility.yul\":10974:10980   */\n      dup5\n        /* \"#utility.yul\":10930:11002   */\n      tag_381\n      jump\t// in\n    tag_391:\n        /* \"#utility.yul\":10721:11009   */\n      swap5\n      swap4\n      pop\n      pop\n      pop\n      pop\n      jump\t// out\n        /* \"#utility.yul\":11015:11347   */\n    tag_199:\n      0x00\n        /* \"#utility.yul\":11174:11176   */\n      0x40\n        /* \"#utility.yul\":11163:11172   */\n      dup3\n        /* \"#utility.yul\":11159:11177   */\n      add\n        /* \"#utility.yul\":11151:11177   */\n      swap1\n      pop\n        /* \"#utility.yul\":11187:11258   */\n      tag_393\n        /* \"#utility.yul\":11255:11256   */\n      0x00\n        /* \"#utility.yul\":11244:11253   */\n      dup4\n        /* \"#utility.yul\":11240:11257   */\n      add\n        /* \"#utility.yul\":11231:11237   */\n      dup6\n        /* \"#utility.yul\":11187:11258   */\n      tag_294\n      jump\t// in\n    tag_393:\n        /* \"#utility.yul\":11268:11340   */\n      tag_394\n        /* \"#utility.yul\":11336:11338   */\n      0x20\n        /* \"#utility.yul\":11325:11334   */\n      dup4\n        /* \"#utility.yul\":11321:11339   */\n      add\n        /* \"#utility.yul\":11312:11318   */\n      dup5\n        /* \"#utility.yul\":11268:11340   */\n      tag_381\n      jump\t// in\n    tag_394:\n        /* \"#utility.yul\":11141:11347   */\n      swap4\n      swap3\n      pop\n      pop\n      pop\n      jump\t// out\n        /* \"#utility.yul\":11353:11842   */\n    tag_41:\n      0x00\n        /* \"#utility.yul\":11592:11594   */\n      0x20\n        /* \"#utility.yul\":11581:11590   */\n      dup3\n        /* \"#utility.yul\":11577:11595   */\n      add\n        /* \"#utility.yul\":11569:11595   */\n      swap1\n      pop\n        /* \"#utility.yul\":11641:11650   */\n      dup2\n        /* \"#utility.yul\":11635:11639   */\n      dup2\n        /* \"#utility.yul\":11631:11651   */\n      sub\n        /* \"#utility.yul\":11627:11628   */\n      0x00\n        /* \"#utility.yul\":11616:11625   */\n      dup4\n        /* \"#utility.yul\":11612:11629   */\n      add\n        /* \"#utility.yul\":11605:11652   */\n      mstore\n        /* \"#utility.yul\":11669:11835   */\n      tag_396\n        /* \"#utility.yul\":11830:11834   */\n      dup2\n        /* \"#utility.yul\":11821:11827   */\n      dup5\n        /* \"#utility.yul\":11669:11835   */\n      tag_297\n      jump\t// in\n    tag_396:\n        /* \"#utility.yul\":11661:11835   */\n      swap1\n      pop\n        /* \"#utility.yul\":11559:11842   */\n      swap3\n      swap2\n      pop\n      pop\n      jump\t// out\n        /* \"#utility.yul\":11848:12058   */\n    tag_35:\n      0x00\n        /* \"#utility.yul\":11973:11975   */\n      0x20\n        /* \"#utility.yul\":11962:11971   */\n      dup3\n        /* \"#utility.yul\":11958:11976   */\n      add\n        /* \"#utility.yul\":11950:11976   */\n      swap1\n      pop\n        /* \"#utility.yul\":11986:12051   */\n      tag_398\n        /* \"#utility.yul\":12048:12049   */\n      0x00\n        /* \"#utility.yul\":12037:12046   */\n      dup4\n        /* \"#utility.yul\":12033:12050   */\n      add\n        /* \"#utility.yul\":12024:12030   */\n      dup5\n        /* \"#utility.yul\":11986:12051   */\n      tag_311\n      jump\t// in\n    tag_398:\n        /* \"#utility.yul\":11940:12058   */\n      swap3\n      swap2\n      pop\n      pop\n      jump\t// out\n        /* \"#utility.yul\":12064:12282   */\n    tag_25:\n      0x00\n        /* \"#utility.yul\":12193:12195   */\n      0x20\n        /* \"#utility.yul\":12182:12191   */\n      dup3\n        /* \"#utility.yul\":12178:12196   */\n      add\n        /* \"#utility.yul\":12170:12196   */\n      swap1\n      pop\n        /* \"#utility.yul\":12206:12275   */\n      tag_400\n        /* \"#utility.yul\":12272:12273   */\n      0x00\n        /* \"#utility.yul\":12261:12270   */\n      dup4\n        /* \"#utility.yul\":12257:12274   */\n      add\n        /* \"#utility.yul\":12248:12254   */\n      dup5\n        /* \"#utility.yul\":12206:12275   */\n      tag_315\n      jump\t// in\n    tag_400:\n        /* \"#utility.yul\":12160:12282   */\n      swap3\n      swap2\n      pop\n      pop\n      jump\t// out\n        /* \"#utility.yul\":12288:12538   */\n    tag_67:\n      0x00\n        /* \"#utility.yul\":12433:12435   */\n      0x20\n        /* \"#utility.yul\":12422:12431   */\n      dup3\n        /* \"#utility.yul\":12418:12436   */\n      add\n        /* \"#utility.yul\":12410:12436   */\n      swap1\n      pop\n        /* \"#utility.yul\":12446:12531   */\n      tag_402\n        /* \"#utility.yul\":12528:12529   */\n      0x00\n        /* \"#utility.yul\":12517:12526   */\n      dup4\n        /* \"#utility.yul\":12513:12530   */\n      add\n        /* \"#utility.yul\":12504:12510   */\n      dup5\n        /* \"#utility.yul\":12446:12531   */\n      tag_327\n      jump\t// in\n    tag_402:\n        /* \"#utility.yul\":12400:12538   */\n      swap3\n      swap2\n      pop\n      pop\n      jump\t// out\n        /* \"#utility.yul\":12544:12796   */\n    tag_45:\n      0x00\n        /* \"#utility.yul\":12690:12692   */\n      0x20\n        /* \"#utility.yul\":12679:12688   */\n      dup3\n        /* \"#utility.yul\":12675:12693   */\n      add\n        /* \"#utility.yul\":12667:12693   */\n      swap1\n      pop\n        /* \"#utility.yul\":12703:12789   */\n      tag_404\n        /* \"#utility.yul\":12786:12787   */\n      0x00\n        /* \"#utility.yul\":12775:12784   */\n      dup4\n        /* \"#utility.yul\":12771:12788   */\n      add\n        /* \"#utility.yul\":12762:12768   */\n      dup5\n        /* \"#utility.yul\":12703:12789   */\n      tag_331\n      jump\t// in\n    tag_404:\n        /* \"#utility.yul\":12657:12796   */\n      swap3\n      swap2\n      pop\n      pop\n      jump\t// out\n        /* \"#utility.yul\":12802:13115   */\n    tag_245:\n      0x00\n        /* \"#utility.yul\":12953:12955   */\n      0x20\n        /* \"#utility.yul\":12942:12951   */\n      dup3\n        /* \"#utility.yul\":12938:12956   */\n      add\n        /* \"#utility.yul\":12930:12956   */\n      swap1\n      pop\n        /* \"#utility.yul\":13002:13011   */\n      dup2\n        /* \"#utility.yul\":12996:13000   */\n      dup2\n        /* \"#utility.yul\":12992:13012   */\n      sub\n        /* \"#utility.yul\":12988:12989   */\n      0x00\n        /* \"#utility.yul\":12977:12986   */\n      dup4\n        /* \"#utility.yul\":12973:12990   */\n      add\n        /* \"#utility.yul\":12966:13013   */\n      mstore\n        /* \"#utility.yul\":13030:13108   */\n      tag_406\n        /* \"#utility.yul\":13103:13107   */\n      dup2\n        /* \"#utility.yul\":13094:13100   */\n      dup5\n        /* \"#utility.yul\":13030:13108   */\n      tag_335\n      jump\t// in\n    tag_406:\n        /* \"#utility.yul\":13022:13108   */\n      swap1\n      pop\n        /* \"#utility.yul\":12920:13115   */\n      swap3\n      swap2\n      pop\n      pop\n      jump\t// out\n        /* \"#utility.yul\":13121:13540   */\n    tag_89:\n      0x00\n        /* \"#utility.yul\":13325:13327   */\n      0x20\n        /* \"#utility.yul\":13314:13323   */\n      dup3\n        /* \"#utility.yul\":13310:13328   */\n      add\n        /* \"#utility.yul\":13302:13328   */\n      swap1\n      pop\n        /* \"#utility.yul\":13374:13383   */\n      dup2\n        /* \"#utility.yul\":13368:13372   */\n      dup2\n        /* \"#utility.yul\":13364:13384   */\n      sub\n        /* \"#utility.yul\":13360:13361   */\n      0x00\n        /* \"#utility.yul\":13349:13358   */\n      dup4\n        /* \"#utility.yul\":13345:13362   */\n      add\n        /* \"#utility.yul\":13338:13385   */\n      mstore\n        /* \"#utility.yul\":13402:13533   */\n      tag_408\n        /* \"#utility.yul\":13528:13532   */\n      dup2\n        /* \"#utility.yul\":13402:13533   */\n      tag_344\n      jump\t// in\n    tag_408:\n        /* \"#utility.yul\":13394:13533   */\n      swap1\n      pop\n        /* \"#utility.yul\":13292:13540   */\n      swap2\n      swap1\n      pop\n      jump\t// out\n        /* \"#utility.yul\":13546:13965   */\n    tag_178:\n      0x00\n        /* \"#utility.yul\":13750:13752   */\n      0x20\n        /* \"#utility.yul\":13739:13748   */\n      dup3\n        /* \"#utility.yul\":13735:13753   */\n      add\n        /* \"#utility.yul\":13727:13753   */\n      swap1\n      pop\n        /* \"#utility.yul\":13799:13808   */\n      dup2\n        /* \"#utility.yul\":13793:13797   */\n      dup2\n        /* \"#utility.yul\":13789:13809   */\n      sub\n        /* \"#utility.yul\":13785:13786   */\n      0x00\n        /* \"#utility.yul\":13774:13783   */\n      dup4\n        /* \"#utility.yul\":13770:13787   */\n      add\n        /* \"#utility.yul\":13763:13810   */\n      mstore\n        /* \"#utility.yul\":13827:13958   */\n      tag_410\n        /* \"#utility.yul\":13953:13957   */\n      dup2\n        /* \"#utility.yul\":13827:13958   */\n      tag_347\n      jump\t// in\n    tag_410:\n        /* \"#utility.yul\":13819:13958   */\n      swap1\n      pop\n        /* \"#utility.yul\":13717:13965   */\n      swap2\n      swap1\n      pop\n      jump\t// out\n        /* \"#utility.yul\":13971:14390   */\n    tag_86:\n      0x00\n        /* \"#utility.yul\":14175:14177   */\n      0x20\n        /* \"#utility.yul\":14164:14173   */\n      dup3\n        /* \"#utility.yul\":14160:14178   */\n      add\n        /* \"#utility.yul\":14152:14178   */\n      swap1\n      pop\n        /* \"#utility.yul\":14224:14233   */\n      dup2\n        /* \"#utility.yul\":14218:14222   */\n      dup2\n        /* \"#utility.yul\":14214:14234   */\n      sub\n        /* \"#utility.yul\":14210:14211   */\n      0x00\n        /* \"#utility.yul\":14199:14208   */\n      dup4\n        /* \"#utility.yul\":14195:14212   */\n      add\n        /* \"#utility.yul\":14188:14235   */\n      mstore\n        /* \"#utility.yul\":14252:14383   */\n      tag_412\n        /* \"#utility.yul\":14378:14382   */\n      dup2\n        /* \"#utility.yul\":14252:14383   */\n      tag_350\n      jump\t// in\n    tag_412:\n        /* \"#utility.yul\":14244:14383   */\n      swap1\n      pop\n        /* \"#utility.yul\":14142:14390   */\n      swap2\n      swap1\n      pop\n      jump\t// out\n        /* \"#utility.yul\":14396:14815   */\n    tag_79:\n      0x00\n        /* \"#utility.yul\":14600:14602   */\n      0x20\n        /* \"#utility.yul\":14589:14598   */\n      dup3\n        /* \"#utility.yul\":14585:14603   */\n      add\n        /* \"#utility.yul\":14577:14603   */\n      swap1\n      pop\n        /* \"#utility.yul\":14649:14658   */\n      dup2\n        /* \"#utility.yul\":14643:14647   */\n      dup2\n        /* \"#utility.yul\":14639:14659   */\n      sub\n        /* \"#utility.yul\":14635:14636   */\n      0x00\n        /* \"#utility.yul\":14624:14633   */\n      dup4\n        /* \"#utility.yul\":14620:14637   */\n      add\n        /* \"#utility.yul\":14613:14660   */\n      mstore\n        /* \"#utility.yul\":14677:14808   */\n      tag_414\n        /* \"#utility.yul\":14803:14807   */\n      dup2\n        /* \"#utility.yul\":14677:14808   */\n      tag_353\n      jump\t// in\n    tag_414:\n        /* \"#utility.yul\":14669:14808   */\n      swap1\n      pop\n        /* \"#utility.yul\":14567:14815   */\n      swap2\n      swap1\n      pop\n      jump\t// out\n        /* \"#utility.yul\":14821:15240   */\n    tag_225:\n      0x00\n        /* \"#utility.yul\":15025:15027   */\n      0x20\n        /* \"#utility.yul\":15014:15023   */\n      dup3\n        /* \"#utility.yul\":15010:15028   */\n      add\n        /* \"#utility.yul\":15002:15028   */\n      swap1\n      pop\n        /* \"#utility.yul\":15074:15083   */\n      dup2\n        /* \"#utility.yul\":15068:15072   */\n      dup2\n        /* \"#utility.yul\":15064:15084   */\n      sub\n        /* \"#utility.yul\":15060:15061   */\n      0x00\n        /* \"#utility.yul\":15049:15058   */\n      dup4\n        /* \"#utility.yul\":15045:15062   */\n      add\n        /* \"#utility.yul\":15038:15085   */\n      mstore\n        /* \"#utility.yul\":15102:15233   */\n      tag_416\n        /* \"#utility.yul\":15228:15232   */\n      dup2\n        /* \"#utility.yul\":15102:15233   */\n      tag_356\n      jump\t// in\n    tag_416:\n        /* \"#utility.yul\":15094:15233   */\n      swap1\n      pop\n        /* \"#utility.yul\":14992:15240   */\n      swap2\n      swap1\n      pop\n      jump\t// out\n        /* \"#utility.yul\":15246:15665   */\n    tag_207:\n      0x00\n        /* \"#utility.yul\":15450:15452   */\n      0x20\n        /* \"#utility.yul\":15439:15448   */\n      dup3\n        /* \"#utility.yul\":15435:15453   */\n      add\n        /* \"#utility.yul\":15427:15453   */\n      swap1\n      pop\n        /* \"#utility.yul\":15499:15508   */\n      dup2\n        /* \"#utility.yul\":15493:15497   */\n      dup2\n        /* \"#utility.yul\":15489:15509   */\n      sub\n        /* \"#utility.yul\":15485:15486   */\n      0x00\n        /* \"#utility.yul\":15474:15483   */\n      dup4\n        /* \"#utility.yul\":15470:15487   */\n      add\n        /* \"#utility.yul\":15463:15510   */\n      mstore\n        /* \"#utility.yul\":15527:15658   */\n      tag_418\n        /* \"#utility.yul\":15653:15657   */\n      dup2\n        /* \"#utility.yul\":15527:15658   */\n      tag_359\n      jump\t// in\n    tag_418:\n        /* \"#utility.yul\":15519:15658   */\n      swap1\n      pop\n        /* \"#utility.yul\":15417:15665   */\n      swap2\n      swap1\n      pop\n      jump\t// out\n        /* \"#utility.yul\":15671:16090   */\n    tag_118:\n      0x00\n        /* \"#utility.yul\":15875:15877   */\n      0x20\n        /* \"#utility.yul\":15864:15873   */\n      dup3\n        /* \"#utility.yul\":15860:15878   */\n      add\n        /* \"#utility.yul\":15852:15878   */\n      swap1\n      pop\n        /* \"#utility.yul\":15924:15933   */\n      dup2\n        /* \"#utility.yul\":15918:15922   */\n      dup2\n        /* \"#utility.yul\":15914:15934   */\n      sub\n        /* \"#utility.yul\":15910:15911   */\n      0x00\n        /* \"#utility.yul\":15899:15908   */\n      dup4\n        /* \"#utility.yul\":15895:15912   */\n      add\n        /* \"#utility.yul\":15888:15935   */\n      mstore\n        /* \"#utility.yul\":15952:16083   */\n      tag_420\n        /* \"#utility.yul\":16078:16082   */\n      dup2\n        /* \"#utility.yul\":15952:16083   */\n      tag_362\n      jump\t// in\n    tag_420:\n        /* \"#utility.yul\":15944:16083   */\n      swap1\n      pop\n        /* \"#utility.yul\":15842:16090   */\n      swap2\n      swap1\n      pop\n      jump\t// out\n        /* \"#utility.yul\":16096:16515   */\n    tag_230:\n      0x00\n        /* \"#utility.yul\":16300:16302   */\n      0x20\n        /* \"#utility.yul\":16289:16298   */\n      dup3\n        /* \"#utility.yul\":16285:16303   */\n      add\n        /* \"#utility.yul\":16277:16303   */\n      swap1\n      pop\n        /* \"#utility.yul\":16349:16358   */\n      dup2\n        /* \"#utility.yul\":16343:16347   */\n      dup2\n        /* \"#utility.yul\":16339:16359   */\n      sub\n        /* \"#utility.yul\":16335:16336   */\n      0x00\n        /* \"#utility.yul\":16324:16333   */\n      dup4\n        /* \"#utility.yul\":16320:16337   */\n      add\n        /* \"#utility.yul\":16313:16360   */\n      mstore\n        /* \"#utility.yul\":16377:16508   */\n      tag_422\n        /* \"#utility.yul\":16503:16507   */\n      dup2\n        /* \"#utility.yul\":16377:16508   */\n      tag_365\n      jump\t// in\n    tag_422:\n        /* \"#utility.yul\":16369:16508   */\n      swap1\n      pop\n        /* \"#utility.yul\":16267:16515   */\n      swap2\n      swap1\n      pop\n      jump\t// out\n        /* \"#utility.yul\":16521:16940   */\n    tag_217:\n      0x00\n        /* \"#utility.yul\":16725:16727   */\n      0x20\n        /* \"#utility.yul\":16714:16723   */\n      dup3\n        /* \"#utility.yul\":16710:16728   */\n      add\n        /* \"#utility.yul\":16702:16728   */\n      swap1\n      pop\n        /* \"#utility.yul\":16774:16783   */\n      dup2\n        /* \"#utility.yul\":16768:16772   */\n      dup2\n        /* \"#utility.yul\":16764:16784   */\n      sub\n        /* \"#utility.yul\":16760:16761   */\n      0x00\n        /* \"#utility.yul\":16749:16758   */\n      dup4\n        /* \"#utility.yul\":16745:16762   */\n      add\n        /* \"#utility.yul\":16738:16785   */\n      mstore\n        /* \"#utility.yul\":16802:16933   */\n      tag_424\n        /* \"#utility.yul\":16928:16932   */\n      dup2\n        /* \"#utility.yul\":16802:16933   */\n      tag_368\n      jump\t// in\n    tag_424:\n        /* \"#utility.yul\":16794:16933   */\n      swap1\n      pop\n        /* \"#utility.yul\":16692:16940   */\n      swap2\n      swap1\n      pop\n      jump\t// out\n        /* \"#utility.yul\":16946:17365   */\n    tag_186:\n      0x00\n        /* \"#utility.yul\":17150:17152   */\n      0x20\n        /* \"#utility.yul\":17139:17148   */\n      dup3\n        /* \"#utility.yul\":17135:17153   */\n      add\n        /* \"#utility.yul\":17127:17153   */\n      swap1\n      pop\n        /* \"#utility.yul\":17199:17208   */\n      dup2\n        /* \"#utility.yul\":17193:17197   */\n      dup2\n        /* \"#utility.yul\":17189:17209   */\n      sub\n        /* \"#utility.yul\":17185:17186   */\n      0x00\n        /* \"#utility.yul\":17174:17183   */\n      dup4\n        /* \"#utility.yul\":17170:17187   */\n      add\n        /* \"#utility.yul\":17163:17210   */\n      mstore\n        /* \"#utility.yul\":17227:17358   */\n      tag_426\n        /* \"#utility.yul\":17353:17357   */\n      dup2\n        /* \"#utility.yul\":17227:17358   */\n      tag_371\n      jump\t// in\n    tag_426:\n        /* \"#utility.yul\":17219:17358   */\n      swap1\n      pop\n        /* \"#utility.yul\":17117:17365   */\n      swap2\n      swap1\n      pop\n      jump\t// out\n        /* \"#utility.yul\":17371:17593   */\n    tag_75:\n      0x00\n        /* \"#utility.yul\":17502:17504   */\n      0x20\n        /* \"#utility.yul\":17491:17500   */\n      dup3\n        /* \"#utility.yul\":17487:17505   */\n      add\n        /* \"#utility.yul\":17479:17505   */\n      swap1\n      pop\n        /* \"#utility.yul\":17515:17586   */\n      tag_428\n        /* \"#utility.yul\":17583:17584   */\n      0x00\n        /* \"#utility.yul\":17572:17581   */\n      dup4\n        /* \"#utility.yul\":17568:17585   */\n      add\n        /* \"#utility.yul\":17559:17565   */\n      dup5\n        /* \"#utility.yul\":17515:17586   */\n      tag_381\n      jump\t// in\n    tag_428:\n        /* \"#utility.yul\":17469:17593   */\n      swap3\n      swap2\n      pop\n      pop\n      jump\t// out\n        /* \"#utility.yul\":17599:18041   */\n    tag_56:\n      0x00\n        /* \"#utility.yul\":17786:17788   */\n      0x60\n        /* \"#utility.yul\":17775:17784   */\n      dup3\n        /* \"#utility.yul\":17771:17789   */\n      add\n        /* \"#utility.yul\":17763:17789   */\n      swap1\n      pop\n        /* \"#utility.yul\":17799:17870   */\n      tag_430\n        /* \"#utility.yul\":17867:17868   */\n      0x00\n        /* \"#utility.yul\":17856:17865   */\n      dup4\n        /* \"#utility.yul\":17852:17869   */\n      add\n        /* \"#utility.yul\":17843:17849   */\n      dup7\n        /* \"#utility.yul\":17799:17870   */\n      tag_381\n      jump\t// in\n    tag_430:\n        /* \"#utility.yul\":17880:17952   */\n      tag_431\n        /* \"#utility.yul\":17948:17950   */\n      0x20\n        /* \"#utility.yul\":17937:17946   */\n      dup4\n        /* \"#utility.yul\":17933:17951   */\n      add\n        /* \"#utility.yul\":17924:17930   */\n      dup6\n        /* \"#utility.yul\":17880:17952   */\n      tag_381\n      jump\t// in\n    tag_431:\n        /* \"#utility.yul\":17962:18034   */\n      tag_432\n        /* \"#utility.yul\":18030:18032   */\n      0x40\n        /* \"#utility.yul\":18019:18028   */\n      dup4\n        /* \"#utility.yul\":18015:18033   */\n      add\n        /* \"#utility.yul\":18006:18012   */\n      dup5\n        /* \"#utility.yul\":17962:18034   */\n      tag_381\n      jump\t// in\n    tag_432:\n        /* \"#utility.yul\":17753:18041   */\n      swap5\n      swap4\n      pop\n      pop\n      pop\n      pop\n      jump\t// out\n        /* \"#utility.yul\":18047:18208   */\n    tag_304:\n      0x00\n        /* \"#utility.yul\":18166:18169   */\n      dup2\n        /* \"#utility.yul\":18158:18169   */\n      swap1\n      pop\n        /* \"#utility.yul\":18196:18200   */\n      0x20\n        /* \"#utility.yul\":18191:18194   */\n      dup3\n        /* \"#utility.yul\":18187:18201   */\n      add\n        /* \"#utility.yul\":18179:18201   */\n      swap1\n      pop\n        /* \"#utility.yul\":18148:18208   */\n      swap2\n      swap1\n      pop\n      jump\t// out\n        /* \"#utility.yul\":18214:18357   */\n    tag_300:\n      0x00\n        /* \"#utility.yul\":18344:18349   */\n      dup2\n        /* \"#utility.yul\":18338:18350   */\n      mload\n        /* \"#utility.yul\":18328:18350   */\n      swap1\n      pop\n        /* \"#utility.yul\":18317:18357   */\n      swap2\n      swap1\n      pop\n      jump\t// out\n        /* \"#utility.yul\":18363:18461   */\n    tag_322:\n      0x00\n        /* \"#utility.yul\":18448:18453   */\n      dup2\n        /* \"#utility.yul\":18442:18454   */\n      mload\n        /* \"#utility.yul\":18432:18454   */\n      swap1\n      pop\n        /* \"#utility.yul\":18421:18461   */\n      swap2\n      swap1\n      pop\n      jump\t// out\n        /* \"#utility.yul\":18467:18566   */\n    tag_338:\n      0x00\n        /* \"#utility.yul\":18553:18558   */\n      dup2\n        /* \"#utility.yul\":18547:18559   */\n      mload\n        /* \"#utility.yul\":18537:18559   */\n      swap1\n      pop\n        /* \"#utility.yul\":18526:18566   */\n      swap2\n      swap1\n      pop\n      jump\t// out\n        /* \"#utility.yul\":18572:18714   */\n    tag_310:\n      0x00\n        /* \"#utility.yul\":18703:18707   */\n      0x20\n        /* \"#utility.yul\":18698:18701   */\n      dup3\n        /* \"#utility.yul\":18694:18708   */\n      add\n        /* \"#utility.yul\":18686:18708   */\n      swap1\n      pop\n        /* \"#utility.yul\":18676:18714   */\n      swap2\n      swap1\n      pop\n      jump\t// out\n        /* \"#utility.yul\":18720:18933   */\n    tag_302:\n      0x00\n        /* \"#utility.yul\":18882:18888   */\n      dup3\n        /* \"#utility.yul\":18877:18880   */\n      dup3\n        /* \"#utility.yul\":18870:18889   */\n      mstore\n        /* \"#utility.yul\":18922:18926   */\n      0x20\n        /* \"#utility.yul\":18917:18920   */\n      dup3\n        /* \"#utility.yul\":18913:18927   */\n      add\n        /* \"#utility.yul\":18898:18927   */\n      swap1\n      pop\n        /* \"#utility.yul\":18860:18933   */\n      swap3\n      swap2\n      pop\n      pop\n      jump\t// out\n        /* \"#utility.yul\":18939:19086   */\n    tag_324:\n      0x00\n        /* \"#utility.yul\":19077:19080   */\n      dup2\n        /* \"#utility.yul\":19062:19080   */\n      swap1\n      pop\n        /* \"#utility.yul\":19052:19086   */\n      swap3\n      swap2\n      pop\n      pop\n      jump\t// out\n        /* \"#utility.yul\":19092:19261   */\n    tag_340:\n      0x00\n        /* \"#utility.yul\":19210:19216   */\n      dup3\n        /* \"#utility.yul\":19205:19208   */\n      dup3\n        /* \"#utility.yul\":19198:19217   */\n      mstore\n        /* \"#utility.yul\":19250:19254   */\n      0x20\n        /* \"#utility.yul\":19245:19248   */\n      dup3\n        /* \"#utility.yul\":19241:19255   */\n      add\n        /* \"#utility.yul\":19226:19255   */\n      swap1\n      pop\n        /* \"#utility.yul\":19188:19261   */\n      swap3\n      swap2\n      pop\n      pop\n      jump\t// out\n        /* \"#utility.yul\":19267:19572   */\n    tag_93:\n      0x00\n        /* \"#utility.yul\":19326:19346   */\n      tag_442\n        /* \"#utility.yul\":19344:19345   */\n      dup3\n        /* \"#utility.yul\":19326:19346   */\n      tag_380\n      jump\t// in\n    tag_442:\n        /* \"#utility.yul\":19321:19346   */\n      swap2\n      pop\n        /* \"#utility.yul\":19360:19380   */\n      tag_443\n        /* \"#utility.yul\":19378:19379   */\n      dup4\n        /* \"#utility.yul\":19360:19380   */\n      tag_380\n      jump\t// in\n    tag_443:\n        /* \"#utility.yul\":19355:19380   */\n      swap3\n      pop\n        /* \"#utility.yul\":19514:19515   */\n      dup3\n        /* \"#utility.yul\":19446:19512   */\n      0xffffffffffffffffffffffffffffffffffffffffffffffffffffffffffffffff\n        /* \"#utility.yul\":19442:19516   */\n      sub\n        /* \"#utility.yul\":19439:19440   */\n      dup3\n        /* \"#utility.yul\":19436:19517   */\n      gt\n        /* \"#utility.yul\":19433:19435   */\n      iszero\n      tag_444\n      jumpi\n        /* \"#utility.yul\":19520:19538   */\n      tag_445\n      tag_446\n      jump\t// in\n    tag_445:\n        /* \"#utility.yul\":19433:19435   */\n    tag_444:\n        /* \"#utility.yul\":19564:19565   */\n      dup3\n        /* \"#utility.yul\":19561:19562   */\n      dup3\n        /* \"#utility.yul\":19557:19566   */\n      add\n        /* \"#utility.yul\":19550:19566   */\n      swap1\n      pop\n        /* \"#utility.yul\":19311:19572   */\n      swap3\n      swap2\n      pop\n      pop\n      jump\t// out\n        /* \"#utility.yul\":19578:19763   */\n    tag_194:\n      0x00\n        /* \"#utility.yul\":19635:19655   */\n      tag_448\n        /* \"#utility.yul\":19653:19654   */\n      dup3\n        /* \"#utility.yul\":19635:19655   */\n      tag_380\n      jump\t// in\n    tag_448:\n        /* \"#utility.yul\":19630:19655   */\n      swap2\n      pop\n        /* \"#utility.yul\":19669:19689   */\n      tag_449\n        /* \"#utility.yul\":19687:19688   */\n      dup4\n        /* \"#utility.yul\":19669:19689   */\n      tag_380\n      jump\t// in\n    tag_449:\n        /* \"#utility.yul\":19664:19689   */\n      swap3\n      pop\n        /* \"#utility.yul\":19708:19709   */\n      dup3\n        /* \"#utility.yul\":19698:19700   */\n      tag_450\n      jumpi\n        /* \"#utility.yul\":19713:19731   */\n      tag_451\n      tag_452\n      jump\t// in\n    tag_451:\n        /* \"#utility.yul\":19698:19700   */\n    tag_450:\n        /* \"#utility.yul\":19755:19756   */\n      dup3\n        /* \"#utility.yul\":19752:19753   */\n      dup3\n        /* \"#utility.yul\":19748:19757   */\n      div\n        /* \"#utility.yul\":19743:19757   */\n      swap1\n      pop\n        /* \"#utility.yul\":19620:19763   */\n      swap3\n      swap2\n      pop\n      pop\n      jump\t// out\n        /* \"#utility.yul\":19769:20117   */\n    tag_191:\n      0x00\n        /* \"#utility.yul\":19832:19852   */\n      tag_454\n        /* \"#utility.yul\":19850:19851   */\n      dup3\n        /* \"#utility.yul\":19832:19852   */\n      tag_380\n      jump\t// in\n    tag_454:\n        /* \"#utility.yul\":19827:19852   */\n      swap2\n      pop\n        /* \"#utility.yul\":19866:19886   */\n      tag_455\n        /* \"#utility.yul\":19884:19885   */\n      dup4\n        /* \"#utility.yul\":19866:19886   */\n      tag_380\n      jump\t// in\n    tag_455:\n        /* \"#utility.yul\":19861:19886   */\n      swap3\n      pop\n        /* \"#utility.yul\":20054:20055   */\n      dup2\n        /* \"#utility.yul\":19986:20052   */\n      0xffffffffffffffffffffffffffffffffffffffffffffffffffffffffffffffff\n        /* \"#utility.yul\":19982:20056   */\n      div\n        /* \"#utility.yul\":19979:19980   */\n      dup4\n        /* \"#utility.yul\":19976:20057   */\n      gt\n        /* \"#utility.yul\":19971:19972   */\n      dup3\n        /* \"#utility.yul\":19964:19973   */\n      iszero\n        /* \"#utility.yul\":19957:19974   */\n      iszero\n        /* \"#utility.yul\":19953:20058   */\n      and\n        /* \"#utility.yul\":19950:19952   */\n      iszero\n      tag_456\n      jumpi\n        /* \"#utility.yul\":20061:20079   */\n      tag_457\n      tag_446\n      jump\t// in\n    tag_457:\n        /* \"#utility.yul\":19950:19952   */\n    tag_456:\n        /* \"#utility.yul\":20109:20110   */\n      dup3\n        /* \"#utility.yul\":20106:20107   */\n      dup3\n        /* \"#utility.yul\":20102:20111   */\n      mul\n        /* \"#utility.yul\":20091:20111   */\n      swap1\n      pop\n        /* \"#utility.yul\":19817:20117   */\n      swap3\n      swap2\n      pop\n      pop\n      jump\t// out\n        /* \"#utility.yul\":20123:20314   */\n    tag_189:\n      0x00\n        /* \"#utility.yul\":20183:20203   */\n      tag_459\n        /* \"#utility.yul\":20201:20202   */\n      dup3\n        /* \"#utility.yul\":20183:20203   */\n      tag_380\n      jump\t// in\n    tag_459:\n        /* \"#utility.yul\":20178:20203   */\n      swap2\n      pop\n        /* \"#utility.yul\":20217:20237   */\n      tag_460\n        /* \"#utility.yul\":20235:20236   */\n      dup4\n        /* \"#utility.yul\":20217:20237   */\n      tag_380\n      jump\t// in\n    tag_460:\n        /* \"#utility.yul\":20212:20237   */\n      swap3\n      pop\n        /* \"#utility.yul\":20256:20257   */\n      dup3\n        /* \"#utility.yul\":20253:20254   */\n      dup3\n        /* \"#utility.yul\":20250:20258   */\n      lt\n        /* \"#utility.yul\":20247:20249   */\n      iszero\n      tag_461\n      jumpi\n        /* \"#utility.yul\":20261:20279   */\n      tag_462\n      tag_446\n      jump\t// in\n    tag_462:\n        /* \"#utility.yul\":20247:20249   */\n    tag_461:\n        /* \"#utility.yul\":20306:20307   */\n      dup3\n        /* \"#utility.yul\":20303:20304   */\n      dup3\n        /* \"#utility.yul\":20299:20308   */\n      sub\n        /* \"#utility.yul\":20291:20308   */\n      swap1\n      pop\n        /* \"#utility.yul\":20168:20314   */\n      swap3\n      swap2\n      pop\n      pop\n      jump\t// out\n        /* \"#utility.yul\":20320:20416   */\n    tag_293:\n      0x00\n        /* \"#utility.yul\":20386:20410   */\n      tag_464\n        /* \"#utility.yul\":20404:20409   */\n      dup3\n        /* \"#utility.yul\":20386:20410   */\n      tag_465\n      jump\t// in\n    tag_464:\n        /* \"#utility.yul\":20375:20410   */\n      swap1\n      pop\n        /* \"#utility.yul\":20365:20416   */\n      swap2\n      swap1\n      pop\n      jump\t// out\n        /* \"#utility.yul\":20422:20512   */\n    tag_314:\n      0x00\n        /* \"#utility.yul\":20499:20504   */\n      dup2\n        /* \"#utility.yul\":20492:20505   */\n      iszero\n        /* \"#utility.yul\":20485:20506   */\n      iszero\n        /* \"#utility.yul\":20474:20506   */\n      swap1\n      pop\n        /* \"#utility.yul\":20464:20512   */\n      swap2\n      swap1\n      pop\n      jump\t// out\n        /* \"#utility.yul\":20518:20667   */\n    tag_318:\n      0x00\n        /* \"#utility.yul\":20594:20660   */\n      0xffffffff00000000000000000000000000000000000000000000000000000000\n        /* \"#utility.yul\":20587:20592   */\n      dup3\n        /* \"#utility.yul\":20583:20661   */\n      and\n        /* \"#utility.yul\":20572:20661   */\n      swap1\n      pop\n        /* \"#utility.yul\":20562:20667   */\n      swap2\n      swap1\n      pop\n      jump\t// out\n        /* \"#utility.yul\":20673:20799   */\n    tag_465:\n      0x00\n        /* \"#utility.yul\":20750:20792   */\n      0xffffffffffffffffffffffffffffffffffffffff\n        /* \"#utility.yul\":20743:20748   */\n      dup3\n        /* \"#utility.yul\":20739:20793   */\n      and\n        /* \"#utility.yul\":20728:20793   */\n      swap1\n      pop\n        /* \"#utility.yul\":20718:20799   */\n      swap2\n      swap1\n      pop\n      jump\t// out\n        /* \"#utility.yul\":20805:20882   */\n    tag_380:\n      0x00\n        /* \"#utility.yul\":20871:20876   */\n      dup2\n        /* \"#utility.yul\":20860:20876   */\n      swap1\n      pop\n        /* \"#utility.yul\":20850:20882   */\n      swap2\n      swap1\n      pop\n      jump\t// out\n        /* \"#utility.yul\":20888:21042   */\n    tag_330:\n      0x00\n        /* \"#utility.yul\":20985:21036   */\n      tag_471\n        /* \"#utility.yul\":21030:21035   */\n      dup3\n        /* \"#utility.yul\":20985:21036   */\n      tag_472\n      jump\t// in\n    tag_471:\n        /* \"#utility.yul\":20972:21036   */\n      swap1\n      pop\n        /* \"#utility.yul\":20962:21042   */\n      swap2\n      swap1\n      pop\n      jump\t// out\n        /* \"#utility.yul\":21048:21175   */\n    tag_472:\n      0x00\n        /* \"#utility.yul\":21145:21169   */\n      tag_474\n        /* \"#utility.yul\":21163:21168   */\n      dup3\n        /* \"#utility.yul\":21145:21169   */\n      tag_465\n      jump\t// in\n    tag_474:\n        /* \"#utility.yul\":21132:21169   */\n      swap1\n      pop\n        /* \"#utility.yul\":21122:21175   */\n      swap2\n      swap1\n      pop\n      jump\t// out\n        /* \"#utility.yul\":21181:21337   */\n    tag_334:\n      0x00\n        /* \"#utility.yul\":21279:21331   */\n      tag_476\n        /* \"#utility.yul\":21325:21330   */\n      dup3\n        /* \"#utility.yul\":21279:21331   */\n      tag_477\n      jump\t// in\n    tag_476:\n        /* \"#utility.yul\":21266:21331   */\n      swap1\n      pop\n        /* \"#utility.yul\":21256:21337   */\n      swap2\n      swap1\n      pop\n      jump\t// out\n        /* \"#utility.yul\":21343:21471   */\n    tag_477:\n      0x00\n        /* \"#utility.yul\":21441:21465   */\n      tag_479\n        /* \"#utility.yul\":21459:21464   */\n      dup3\n        /* \"#utility.yul\":21441:21465   */\n      tag_465\n      jump\t// in\n    tag_479:\n        /* \"#utility.yul\":21428:21465   */\n      swap1\n      pop\n        /* \"#utility.yul\":21418:21471   */\n      swap2\n      swap1\n      pop\n      jump\t// out\n        /* \"#utility.yul\":21477:21784   */\n    tag_326:\n        /* \"#utility.yul\":21545:21546   */\n      0x00\n        /* \"#utility.yul\":21555:21668   */\n    tag_481:\n        /* \"#utility.yul\":21569:21575   */\n      dup4\n        /* \"#utility.yul\":21566:21567   */\n      dup2\n        /* \"#utility.yul\":21563:21576   */\n      lt\n        /* \"#utility.yul\":21555:21668   */\n      iszero\n      tag_483\n      jumpi\n        /* \"#utility.yul\":21654:21655   */\n      dup1\n        /* \"#utility.yul\":21649:21652   */\n      dup3\n        /* \"#utility.yul\":21645:21656   */\n      add\n        /* \"#utility.yul\":21639:21657   */\n      mload\n        /* \"#utility.yul\":21635:21636   */\n      dup2\n        /* \"#utility.yul\":21630:21633   */\n      dup5\n        /* \"#utility.yul\":21626:21637   */\n      add\n        /* \"#utility.yul\":21619:21658   */\n      mstore\n        /* \"#utility.yul\":21591:21593   */\n      0x20\n        /* \"#utility.yul\":21588:21589   */\n      dup2\n        /* \"#utility.yul\":21584:21594   */\n      add\n        /* \"#utility.yul\":21579:21594   */\n      swap1\n      pop\n        /* \"#utility.yul\":21555:21668   */\n      jump(tag_481)\n    tag_483:\n        /* \"#utility.yul\":21686:21692   */\n      dup4\n        /* \"#utility.yul\":21683:21684   */\n      dup2\n        /* \"#utility.yul\":21680:21693   */\n      gt\n        /* \"#utility.yul\":21677:21679   */\n      iszero\n      tag_484\n      jumpi\n        /* \"#utility.yul\":21766:21767   */\n      0x00\n        /* \"#utility.yul\":21757:21763   */\n      dup5\n        /* \"#utility.yul\":21752:21755   */\n      dup5\n        /* \"#utility.yul\":21748:21764   */\n      add\n        /* \"#utility.yul\":21741:21768   */\n      mstore\n        /* \"#utility.yul\":21677:21679   */\n    tag_484:\n        /* \"#utility.yul\":21526:21784   */\n      pop\n      pop\n      pop\n      pop\n      jump\t// out\n        /* \"#utility.yul\":21790:21961   */\n    tag_105:\n      0x00\n        /* \"#utility.yul\":21852:21876   */\n      tag_486\n        /* \"#utility.yul\":21870:21875   */\n      dup3\n        /* \"#utility.yul\":21852:21876   */\n      tag_380\n      jump\t// in\n    tag_486:\n        /* \"#utility.yul\":21843:21876   */\n      swap2\n      pop\n        /* \"#utility.yul\":21898:21902   */\n      0x00\n        /* \"#utility.yul\":21891:21896   */\n      dup3\n        /* \"#utility.yul\":21888:21903   */\n      eq\n        /* \"#utility.yul\":21885:21887   */\n      iszero\n      tag_487\n      jumpi\n        /* \"#utility.yul\":21906:21924   */\n      tag_488\n      tag_446\n      jump\t// in\n    tag_488:\n        /* \"#utility.yul\":21885:21887   */\n    tag_487:\n        /* \"#utility.yul\":21953:21954   */\n      0x01\n        /* \"#utility.yul\":21946:21951   */\n      dup3\n        /* \"#utility.yul\":21942:21955   */\n      sub\n        /* \"#utility.yul\":21935:21955   */\n      swap1\n      pop\n        /* \"#utility.yul\":21833:21961   */\n      swap2\n      swap1\n      pop\n      jump\t// out\n        /* \"#utility.yul\":21967:22200   */\n    tag_101:\n      0x00\n        /* \"#utility.yul\":22029:22053   */\n      tag_490\n        /* \"#utility.yul\":22047:22052   */\n      dup3\n        /* \"#utility.yul\":22029:22053   */\n      tag_380\n      jump\t// in\n    tag_490:\n        /* \"#utility.yul\":22020:22053   */\n      swap2\n      pop\n        /* \"#utility.yul\":22075:22141   */\n      0xffffffffffffffffffffffffffffffffffffffffffffffffffffffffffffffff\n        /* \"#utility.yul\":22068:22073   */\n      dup3\n        /* \"#utility.yul\":22065:22142   */\n      eq\n        /* \"#utility.yul\":22062:22064   */\n      iszero\n      tag_491\n      jumpi\n        /* \"#utility.yul\":22145:22163   */\n      tag_492\n      tag_446\n      jump\t// in\n    tag_492:\n        /* \"#utility.yul\":22062:22064   */\n    tag_491:\n        /* \"#utility.yul\":22192:22193   */\n      0x01\n        /* \"#utility.yul\":22185:22190   */\n      dup3\n        /* \"#utility.yul\":22181:22194   */\n      add\n        /* \"#utility.yul\":22174:22194   */\n      swap1\n      pop\n        /* \"#utility.yul\":22010:22200   */\n      swap2\n      swap1\n      pop\n      jump\t// out\n        /* \"#utility.yul\":22206:22386   */\n    tag_446:\n        /* \"#utility.yul\":22254:22331   */\n      0x4e487b7100000000000000000000000000000000000000000000000000000000\n        /* \"#utility.yul\":22251:22252   */\n      0x00\n        /* \"#utility.yul\":22244:22332   */\n      mstore\n        /* \"#utility.yul\":22351:22355   */\n      0x11\n        /* \"#utility.yul\":22348:22349   */\n      0x04\n        /* \"#utility.yul\":22341:22356   */\n      mstore\n        /* \"#utility.yul\":22375:22379   */\n      0x24\n        /* \"#utility.yul\":22372:22373   */\n      0x00\n        /* \"#utility.yul\":22365:22380   */\n      revert\n        /* \"#utility.yul\":22392:22572   */\n    tag_452:\n        /* \"#utility.yul\":22440:22517   */\n      0x4e487b7100000000000000000000000000000000000000000000000000000000\n        /* \"#utility.yul\":22437:22438   */\n      0x00\n        /* \"#utility.yul\":22430:22518   */\n      mstore\n        /* \"#utility.yul\":22537:22541   */\n      0x12\n        /* \"#utility.yul\":22534:22535   */\n      0x04\n        /* \"#utility.yul\":22527:22542   */\n      mstore\n        /* \"#utility.yul\":22561:22565   */\n      0x24\n        /* \"#utility.yul\":22558:22559   */\n      0x00\n        /* \"#utility.yul\":22551:22566   */\n      revert\n        /* \"#utility.yul\":22578:22680   */\n    tag_343:\n      0x00\n        /* \"#utility.yul\":22670:22672   */\n      0x1f\n        /* \"#utility.yul\":22666:22673   */\n      not\n        /* \"#utility.yul\":22661:22663   */\n      0x1f\n        /* \"#utility.yul\":22654:22659   */\n      dup4\n        /* \"#utility.yul\":22650:22664   */\n      add\n        /* \"#utility.yul\":22646:22674   */\n      and\n        /* \"#utility.yul\":22636:22674   */\n      swap1\n      pop\n        /* \"#utility.yul\":22626:22680   */\n      swap2\n      swap1\n      pop\n      jump\t// out\n        /* \"#utility.yul\":22686:22808   */\n    tag_250:\n        /* \"#utility.yul\":22759:22783   */\n      tag_497\n        /* \"#utility.yul\":22777:22782   */\n      dup2\n        /* \"#utility.yul\":22759:22783   */\n      tag_293\n      jump\t// in\n    tag_497:\n        /* \"#utility.yul\":22752:22757   */\n      dup2\n        /* \"#utility.yul\":22749:22784   */\n      eq\n        /* \"#utility.yul\":22739:22741   */\n      tag_498\n      jumpi\n        /* \"#utility.yul\":22798:22799   */\n      0x00\n        /* \"#utility.yul\":22795:22796   */\n      dup1\n        /* \"#utility.yul\":22788:22800   */\n      revert\n        /* \"#utility.yul\":22739:22741   */\n    tag_498:\n        /* \"#utility.yul\":22729:22808   */\n      pop\n      jump\t// out\n        /* \"#utility.yul\":22814:22930   */\n    tag_257:\n        /* \"#utility.yul\":22884:22905   */\n      tag_500\n        /* \"#utility.yul\":22899:22904   */\n      dup2\n        /* \"#utility.yul\":22884:22905   */\n      tag_314\n      jump\t// in\n    tag_500:\n        /* \"#utility.yul\":22877:22882   */\n      dup2\n        /* \"#utility.yul\":22874:22906   */\n      eq\n        /* \"#utility.yul\":22864:22866   */\n      tag_501\n      jumpi\n        /* \"#utility.yul\":22920:22921   */\n      0x00\n        /* \"#utility.yul\":22917:22918   */\n      dup1\n        /* \"#utility.yul\":22910:22922   */\n      revert\n        /* \"#utility.yul\":22864:22866   */\n    tag_501:\n        /* \"#utility.yul\":22854:22930   */\n      pop\n      jump\t// out\n        /* \"#utility.yul\":22936:23058   */\n    tag_266:\n        /* \"#utility.yul\":23009:23033   */\n      tag_503\n        /* \"#utility.yul\":23027:23032   */\n      dup2\n        /* \"#utility.yul\":23009:23033   */\n      tag_380\n      jump\t// in\n    tag_503:\n        /* \"#utility.yul\":23002:23007   */\n      dup2\n        /* \"#utility.yul\":22999:23034   */\n      eq\n        /* \"#utility.yul\":22989:22991   */\n      tag_504\n      jumpi\n        /* \"#utility.yul\":23048:23049   */\n      0x00\n        /* \"#utility.yul\":23045:23046   */\n      dup1\n        /* \"#utility.yul\":23038:23050   */\n      revert\n        /* \"#utility.yul\":22989:22991   */\n    tag_504:\n        /* \"#utility.yul\":22979:23058   */\n      pop\n      jump\t// out\n\n    auxdata: 0xa264697066735822122000262feceb431cf8645cb0fd57dde6e712c0798a7e1d4e5f62e7163cd9ea41a664736f6c63430008000033\n}\n",
				"bytecode": {
					"linkReferences": {},
					"object": "6080604052620186a06004553480156200001857600080fd5b50604051620029dd380380620029dd83398181016040528101906200003e919062000223565b60016000819055506000600160006101000a81548160ff02191690831515021790555062000081620000756200011360201b60201c565b6200011b60201b60201c565b82600360006101000a81548173ffffffffffffffffffffffffffffffffffffffff021916908373ffffffffffffffffffffffffffffffffffffffff16021790555081600260006101000a81548173ffffffffffffffffffffffffffffffffffffffff021916908373ffffffffffffffffffffffffffffffffffffffff160217905550806004819055505050506200032d565b600033905090565b600060018054906101000a900473ffffffffffffffffffffffffffffffffffffffff169050816001806101000a81548173ffffffffffffffffffffffffffffffffffffffff021916908373ffffffffffffffffffffffffffffffffffffffff1602179055508173ffffffffffffffffffffffffffffffffffffffff168173ffffffffffffffffffffffffffffffffffffffff167f8be0079c531659141344cd1fd0a4f28419497f9722a3daafe3b4186f6b6457e060405160405180910390a35050565b600081519050620001ef81620002df565b92915050565b6000815190506200020681620002f9565b92915050565b6000815190506200021d8162000313565b92915050565b6000806000606084860312156200023957600080fd5b60006200024986828701620001f5565b93505060206200025c86828701620001de565b92505060406200026f868287016200020c565b9150509250925092565b60006200028682620002b5565b9050919050565b60006200029a8262000279565b9050919050565b6000620002ae8262000279565b9050919050565b600073ffffffffffffffffffffffffffffffffffffffff82169050919050565b6000819050919050565b620002ea816200028d565b8114620002f657600080fd5b50565b6200030481620002a1565b81146200031057600080fd5b50565b6200031e81620002d5565b81146200032a57600080fd5b50565b6126a0806200033d6000396000f3fe608060405234801561001057600080fd5b50600436106100ea5760003560e01c80638da5cb5b1161008c578063a694fc3a11610066578063a694fc3a1461023b578063d1af0c7d14610257578063f2fde38b14610275578063f854a27f14610291576100ea565b80638da5cb5b146101bb5780639168ae72146101d9578063940670451461020b576100ea565b80635c975abb116100c85780635c975abb1461014557806363c28db1146101635780636588103b14610193578063715018a6146101b1576100ea565b8063150b7a02146100ef5780632e1a7d4d1461011f578063372500ab1461013b575b600080fd5b61010960048036038101906101049190611ab5565b6102c1565b60405161011691906120cf565b60405180910390f35b61013960048036038101906101349190611b5e565b61037f565b005b61014361086e565b005b61014d6109ea565b60405161015a91906120b4565b60405180910390f35b61017d60048036038101906101789190611a63565b610a01565b60405161018a9190612092565b60405180910390f35b61019b610e25565b6040516101a89190612105565b60405180910390f35b6101b9610e4b565b005b6101c3610e5f565b6040516101d09190612017565b60405180910390f35b6101f360048036038101906101ee9190611a63565b610e87565b6040516102029392919061229d565b60405180910390f35b61022560048036038101906102209190611b5e565b610eb1565b6040516102329190612017565b60405180910390f35b61025560048036038101906102509190611b5e565b610ee4565b005b61025f611333565b60405161026c91906120ea565b60405180910390f35b61028f600480360381019061028a9190611a63565b611359565b005b6102ab60048036038101906102a69190611a63565b6113dd565b6040516102b89190612282565b60405180910390f35b6000600360009054906101000a900473ffffffffffffffffffffffffffffffffffffffff1673ffffffffffffffffffffffffffffffffffffffff168573ffffffffffffffffffffffffffffffffffffffff1614610353576040517f08c379a000000000000000000000000000000000000000000000000000000000815260040161034a906121a2565b60405180910390fd5b7f150b7a023d4804d13e8c85fb27262cb750cf6ba9f9dd3bb30d90f482ceeb4b1f905095945050505050565b610387611441565b6000600560003373ffffffffffffffffffffffffffffffffffffffff1673ffffffffffffffffffffffffffffffffffffffff168152602001908152602001600020600001541161040c576040517f08c379a000000000000000000000000000000000000000000000000000000000815260040161040390612182565b60405180910390fd5b3373ffffffffffffffffffffffffffffffffffffffff166006600083815260200190815260200160002060009054906101000a900473ffffffffffffffffffffffffffffffffffffffff1673ffffffffffffffffffffffffffffffffffffffff16146104ad576040517f08c379a00000000000000000000000000000000000000000000000000000000081526004016104a490612142565b60405180910390fd5b60006104b833611491565b905080600560003373ffffffffffffffffffffffffffffffffffffffff1673ffffffffffffffffffffffffffffffffffffffff168152602001908152602001600020600301600082825461050c919061233f565b925050819055506000805b600560003373ffffffffffffffffffffffffffffffffffffffff1673ffffffffffffffffffffffffffffffffffffffff168152602001908152602001600020600101805490508110156106125783600560003373ffffffffffffffffffffffffffffffffffffffff1673ffffffffffffffffffffffffffffffffffffffff16815260200190815260200160002060010182815481106105df577f4e487b7100000000000000000000000000000000000000000000000000000000600052603260045260246000fd5b90600052602060002090600202016001015414156105ff57809150610612565b808061060a9061256d565b915050610517565b506000600560003373ffffffffffffffffffffffffffffffffffffffff1673ffffffffffffffffffffffffffffffffffffffff168152602001908152602001600020600101828154811061068f577f4e487b7100000000000000000000000000000000000000000000000000000000600052603260045260246000fd5b906000526020600020906002020160000160006101000a81548173ffffffffffffffffffffffffffffffffffffffff021916908373ffffffffffffffffffffffffffffffffffffffff160217905550600560003373ffffffffffffffffffffffffffffffffffffffff1673ffffffffffffffffffffffffffffffffffffffff168152602001908152602001600020600001600081548092919061073190612543565b919050555060006006600085815260200190815260200160002060006101000a81548173ffffffffffffffffffffffffffffffffffffffff021916908373ffffffffffffffffffffffffffffffffffffffff160217905550600360009054906101000a900473ffffffffffffffffffffffffffffffffffffffff1673ffffffffffffffffffffffffffffffffffffffff166323b872dd3033866040518463ffffffff1660e01b81526004016107e893929190612032565b600060405180830381600087803b15801561080257600080fd5b505af1158015610816573d6000803e3d6000fd5b5050505042600560003373ffffffffffffffffffffffffffffffffffffffff1673ffffffffffffffffffffffffffffffffffffffff16815260200190815260200160002060020181905550505061086b61154f565b50565b6000600560003373ffffffffffffffffffffffffffffffffffffffff1673ffffffffffffffffffffffffffffffffffffffff168152602001908152602001600020600301546108bc33611491565b6108c6919061233f565b90506000811161090b576040517f08c379a000000000000000000000000000000000000000000000000000000000815260040161090290612202565b60405180910390fd5b42600560003373ffffffffffffffffffffffffffffffffffffffff1673ffffffffffffffffffffffffffffffffffffffff168152602001908152602001600020600201819055506000600560003373ffffffffffffffffffffffffffffffffffffffff1673ffffffffffffffffffffffffffffffffffffffff168152602001908152602001600020600301819055506109e73382600260009054906101000a900473ffffffffffffffffffffffffffffffffffffffff1673ffffffffffffffffffffffffffffffffffffffff166115599092919063ffffffff16565b50565b6000600160009054906101000a900460ff16905090565b60606000600560008473ffffffffffffffffffffffffffffffffffffffff1673ffffffffffffffffffffffffffffffffffffffff168152602001908152602001600020600001541115610da2576000600560008473ffffffffffffffffffffffffffffffffffffffff1673ffffffffffffffffffffffffffffffffffffffff1681526020019081526020016000206000015467ffffffffffffffff811115610ad2577f4e487b7100000000000000000000000000000000000000000000000000000000600052604160045260246000fd5b604051908082528060200260200182016040528015610b0b57816020015b610af8611995565b815260200190600190039081610af05790505b5090506000805b600560008673ffffffffffffffffffffffffffffffffffffffff1673ffffffffffffffffffffffffffffffffffffffff16815260200190815260200160002060010180549050811015610d9757600073ffffffffffffffffffffffffffffffffffffffff16600560008773ffffffffffffffffffffffffffffffffffffffff1673ffffffffffffffffffffffffffffffffffffffff1681526020019081526020016000206001018281548110610bf1577f4e487b7100000000000000000000000000000000000000000000000000000000600052603260045260246000fd5b906000526020600020906002020160000160009054906101000a900473ffffffffffffffffffffffffffffffffffffffff1673ffffffffffffffffffffffffffffffffffffffff1614610d8457600560008673ffffffffffffffffffffffffffffffffffffffff1673ffffffffffffffffffffffffffffffffffffffff1681526020019081526020016000206001018181548110610cb8577f4e487b7100000000000000000000000000000000000000000000000000000000600052603260045260246000fd5b90600052602060002090600202016040518060400160405290816000820160009054906101000a900473ffffffffffffffffffffffffffffffffffffffff1673ffffffffffffffffffffffffffffffffffffffff1673ffffffffffffffffffffffffffffffffffffffff168152602001600182015481525050838381518110610d6a577f4e487b7100000000000000000000000000000000000000000000000000000000600052603260045260246000fd5b60200260200101819052508180610d809061256d565b9250505b8080610d8f9061256d565b915050610b12565b508192505050610e20565b600067ffffffffffffffff811115610de3577f4e487b7100000000000000000000000000000000000000000000000000000000600052604160045260246000fd5b604051908082528060200260200182016040528015610e1c57816020015b610e09611995565b815260200190600190039081610e015790505b5090505b919050565b600360009054906101000a900473ffffffffffffffffffffffffffffffffffffffff1681565b610e536115df565b610e5d600061165d565b565b600060018054906101000a900473ffffffffffffffffffffffffffffffffffffffff16905090565b60056020528060005260406000206000915090508060000154908060020154908060030154905083565b60066020528060005260406000206000915054906101000a900473ffffffffffffffffffffffffffffffffffffffff1681565b610eec611441565b3373ffffffffffffffffffffffffffffffffffffffff16600360009054906101000a900473ffffffffffffffffffffffffffffffffffffffff1673ffffffffffffffffffffffffffffffffffffffff16636352211e836040518263ffffffff1660e01b8152600401610f5e9190612282565b60206040518083038186803b158015610f7657600080fd5b505afa158015610f8a573d6000803e3d6000fd5b505050506040513d601f19601f82011682018060405250810190610fae9190611a8c565b73ffffffffffffffffffffffffffffffffffffffff1614611004576040517f08c379a0000000000000000000000000000000000000000000000000000000008152600401610ffb90612142565b60405180910390fd5b6000600560003373ffffffffffffffffffffffffffffffffffffffff1673ffffffffffffffffffffffffffffffffffffffff1681526020019081526020016000206000015411156110b757600061105a33611491565b905080600560003373ffffffffffffffffffffffffffffffffffffffff1673ffffffffffffffffffffffffffffffffffffffff16815260200190815260200160002060030160008282546110ae919061233f565b92505081905550505b600360009054906101000a900473ffffffffffffffffffffffffffffffffffffffff1673ffffffffffffffffffffffffffffffffffffffff166323b872dd3330846040518463ffffffff1660e01b815260040161111693929190612032565b600060405180830381600087803b15801561113057600080fd5b505af1158015611144573d6000803e3d6000fd5b50505050600060405180604001604052803373ffffffffffffffffffffffffffffffffffffffff168152602001838152509050600560003373ffffffffffffffffffffffffffffffffffffffff1673ffffffffffffffffffffffffffffffffffffffff16815260200190815260200160002060010181908060018154018082558091505060019003906000526020600020906002020160009091909190915060008201518160000160006101000a81548173ffffffffffffffffffffffffffffffffffffffff021916908373ffffffffffffffffffffffffffffffffffffffff160217905550602082015181600101555050600560003373ffffffffffffffffffffffffffffffffffffffff1673ffffffffffffffffffffffffffffffffffffffff16815260200190815260200160002060000160008154809291906112899061256d565b9190505550336006600084815260200190815260200160002060006101000a81548173ffffffffffffffffffffffffffffffffffffffff021916908373ffffffffffffffffffffffffffffffffffffffff16021790555042600560003373ffffffffffffffffffffffffffffffffffffffff1673ffffffffffffffffffffffffffffffffffffffff168152602001908152602001600020600201819055505061133061154f565b50565b600260009054906101000a900473ffffffffffffffffffffffffffffffffffffffff1681565b6113616115df565b600073ffffffffffffffffffffffffffffffffffffffff168173ffffffffffffffffffffffffffffffffffffffff1614156113d1576040517f08c379a00000000000000000000000000000000000000000000000000000000081526004016113c890612162565b60405180910390fd5b6113da8161165d565b50565b600080600560008473ffffffffffffffffffffffffffffffffffffffff1673ffffffffffffffffffffffffffffffffffffffff1681526020019081526020016000206003015461142c84611491565b611436919061233f565b905080915050919050565b60026000541415611487576040517f08c379a000000000000000000000000000000000000000000000000000000000815260040161147e90612262565b60405180910390fd5b6002600081905550565b6000610e10600454600560008573ffffffffffffffffffffffffffffffffffffffff1673ffffffffffffffffffffffffffffffffffffffff16815260200190815260200160002060000154600560008673ffffffffffffffffffffffffffffffffffffffff1673ffffffffffffffffffffffffffffffffffffffff168152602001908152602001600020600201544261152a9190612420565b61153491906123c6565b61153e91906123c6565b6115489190612395565b9050919050565b6001600081905550565b6115da8363a9059cbb60e01b8484604051602401611578929190612069565b604051602081830303815290604052907bffffffffffffffffffffffffffffffffffffffffffffffffffffffff19166020820180517bffffffffffffffffffffffffffffffffffffffffffffffffffffffff8381831617835250505050611720565b505050565b6115e76117e7565b73ffffffffffffffffffffffffffffffffffffffff16611605610e5f565b73ffffffffffffffffffffffffffffffffffffffff161461165b576040517f08c379a0000000000000000000000000000000000000000000000000000000008152600401611652906121e2565b60405180910390fd5b565b600060018054906101000a900473ffffffffffffffffffffffffffffffffffffffff169050816001806101000a81548173ffffffffffffffffffffffffffffffffffffffff021916908373ffffffffffffffffffffffffffffffffffffffff1602179055508173ffffffffffffffffffffffffffffffffffffffff168173ffffffffffffffffffffffffffffffffffffffff167f8be0079c531659141344cd1fd0a4f28419497f9722a3daafe3b4186f6b6457e060405160405180910390a35050565b6000611782826040518060400160405280602081526020017f5361666545524332303a206c6f772d6c6576656c2063616c6c206661696c65648152508573ffffffffffffffffffffffffffffffffffffffff166117ef9092919063ffffffff16565b90506000815111156117e257808060200190518101906117a29190611b35565b6117e1576040517f08c379a00000000000000000000000000000000000000000000000000000000081526004016117d890612242565b60405180910390fd5b5b505050565b600033905090565b60606117fe8484600085611807565b90509392505050565b60608247101561184c576040517f08c379a0000000000000000000000000000000000000000000000000000000008152600401611843906121c2565b60405180910390fd5b6118558561191b565b611894576040517f08c379a000000000000000000000000000000000000000000000000000000000815260040161188b90612222565b60405180910390fd5b6000808673ffffffffffffffffffffffffffffffffffffffff1685876040516118bd9190612000565b60006040518083038185875af1925050503d80600081146118fa576040519150601f19603f3d011682016040523d82523d6000602084013e6118ff565b606091505b509150915061190f82828661192e565b92505050949350505050565b600080823b905060008111915050919050565b6060831561193e5782905061198e565b6000835111156119515782518084602001fd5b816040517f08c379a00000000000000000000000000000000000000000000000000000000081526004016119859190612120565b60405180910390fd5b9392505050565b6040518060400160405280600073ffffffffffffffffffffffffffffffffffffffff168152602001600081525090565b6000813590506119d481612625565b92915050565b6000815190506119e981612625565b92915050565b6000815190506119fe8161263c565b92915050565b60008083601f840112611a1657600080fd5b8235905067ffffffffffffffff811115611a2f57600080fd5b602083019150836001820283011115611a4757600080fd5b9250929050565b600081359050611a5d81612653565b92915050565b600060208284031215611a7557600080fd5b6000611a83848285016119c5565b91505092915050565b600060208284031215611a9e57600080fd5b6000611aac848285016119da565b91505092915050565b600080600080600060808688031215611acd57600080fd5b6000611adb888289016119c5565b9550506020611aec888289016119c5565b9450506040611afd88828901611a4e565b935050606086013567ffffffffffffffff811115611b1a57600080fd5b611b2688828901611a04565b92509250509295509295909350565b600060208284031215611b4757600080fd5b6000611b55848285016119ef565b91505092915050565b600060208284031215611b7057600080fd5b6000611b7e84828501611a4e565b91505092915050565b6000611b938383611fb3565b60408301905092915050565b611ba881612454565b82525050565b611bb781612454565b82525050565b6000611bc8826122e4565b611bd28185612312565b9350611bdd836122d4565b8060005b83811015611c0e578151611bf58882611b87565b9750611c0083612305565b925050600181019050611be1565b5085935050505092915050565b611c2481612466565b82525050565b611c3381612472565b82525050565b6000611c44826122ef565b611c4e8185612323565b9350611c5e818560208601612510565b80840191505092915050565b611c73816124c8565b82525050565b611c82816124ec565b82525050565b6000611c93826122fa565b611c9d818561232e565b9350611cad818560208601612510565b611cb681612614565b840191505092915050565b6000611cce60198361232e565b91507f596f7520646f6e2774206f776e207468697320746f6b656e21000000000000006000830152602082019050919050565b6000611d0e60268361232e565b91507f4f776e61626c653a206e6577206f776e657220697320746865207a65726f206160008301527f64647265737300000000000000000000000000000000000000000000000000006020830152604082019050919050565b6000611d7460198361232e565b91507f596f752068617665206e6f20746f6b656e73207374616b6564000000000000006000830152602082019050919050565b6000611db4601c8361232e565b91507f4e6f7420737570706f72746564204e465420436f6c6c656374696f6e000000006000830152602082019050919050565b6000611df460268361232e565b91507f416464726573733a20696e73756666696369656e742062616c616e636520666f60008301527f722063616c6c00000000000000000000000000000000000000000000000000006020830152604082019050919050565b6000611e5a60208361232e565b91507f4f776e61626c653a2063616c6c6572206973206e6f7420746865206f776e65726000830152602082019050919050565b6000611e9a601c8361232e565b91507f596f752068617665206e6f207265776172647320746f20636c61696d000000006000830152602082019050919050565b6000611eda601d8361232e565b91507f416464726573733a2063616c6c20746f206e6f6e2d636f6e74726163740000006000830152602082019050919050565b6000611f1a602a8361232e565b91507f5361666545524332303a204552433230206f7065726174696f6e20646964206e60008301527f6f742073756363656564000000000000000000000000000000000000000000006020830152604082019050919050565b6000611f80601f8361232e565b91507f5265656e7472616e637947756172643a207265656e7472616e742063616c6c006000830152602082019050919050565b604082016000820151611fc96000850182611b9f565b506020820151611fdc6020850182611fe2565b50505050565b611feb816124be565b82525050565b611ffa816124be565b82525050565b600061200c8284611c39565b915081905092915050565b600060208201905061202c6000830184611bae565b92915050565b60006060820190506120476000830186611bae565b6120546020830185611bae565b6120616040830184611ff1565b949350505050565b600060408201905061207e6000830185611bae565b61208b6020830184611ff1565b9392505050565b600060208201905081810360008301526120ac8184611bbd565b905092915050565b60006020820190506120c96000830184611c1b565b92915050565b60006020820190506120e46000830184611c2a565b92915050565b60006020820190506120ff6000830184611c6a565b92915050565b600060208201905061211a6000830184611c79565b92915050565b6000602082019050818103600083015261213a8184611c88565b905092915050565b6000602082019050818103600083015261215b81611cc1565b9050919050565b6000602082019050818103600083015261217b81611d01565b9050919050565b6000602082019050818103600083015261219b81611d67565b9050919050565b600060208201905081810360008301526121bb81611da7565b9050919050565b600060208201905081810360008301526121db81611de7565b9050919050565b600060208201905081810360008301526121fb81611e4d565b9050919050565b6000602082019050818103600083015261221b81611e8d565b9050919050565b6000602082019050818103600083015261223b81611ecd565b9050919050565b6000602082019050818103600083015261225b81611f0d565b9050919050565b6000602082019050818103600083015261227b81611f73565b9050919050565b60006020820190506122976000830184611ff1565b92915050565b60006060820190506122b26000830186611ff1565b6122bf6020830185611ff1565b6122cc6040830184611ff1565b949350505050565b6000819050602082019050919050565b600081519050919050565b600081519050919050565b600081519050919050565b6000602082019050919050565b600082825260208201905092915050565b600081905092915050565b600082825260208201905092915050565b600061234a826124be565b9150612355836124be565b9250827fffffffffffffffffffffffffffffffffffffffffffffffffffffffffffffffff0382111561238a576123896125b6565b5b828201905092915050565b60006123a0826124be565b91506123ab836124be565b9250826123bb576123ba6125e5565b5b828204905092915050565b60006123d1826124be565b91506123dc836124be565b9250817fffffffffffffffffffffffffffffffffffffffffffffffffffffffffffffffff0483118215151615612415576124146125b6565b5b828202905092915050565b600061242b826124be565b9150612436836124be565b925082821015612449576124486125b6565b5b828203905092915050565b600061245f8261249e565b9050919050565b60008115159050919050565b60007fffffffff0000000000000000000000000000000000000000000000000000000082169050919050565b600073ffffffffffffffffffffffffffffffffffffffff82169050919050565b6000819050919050565b60006124d3826124da565b9050919050565b60006124e58261249e565b9050919050565b60006124f7826124fe565b9050919050565b60006125098261249e565b9050919050565b60005b8381101561252e578082015181840152602081019050612513565b8381111561253d576000848401525b50505050565b600061254e826124be565b91506000821415612562576125616125b6565b5b600182039050919050565b6000612578826124be565b91507fffffffffffffffffffffffffffffffffffffffffffffffffffffffffffffffff8214156125ab576125aa6125b6565b5b600182019050919050565b7f4e487b7100000000000000000000000000000000000000000000000000000000600052601160045260246000fd5b7f4e487b7100000000000000000000000000000000000000000000000000000000600052601260045260246000fd5b6000601f19601f8301169050919050565b61262e81612454565b811461263957600080fd5b50565b61264581612466565b811461265057600080fd5b50565b61265c816124be565b811461266757600080fd5b5056fea264697066735822122000262feceb431cf8645cb0fd57dde6e712c0798a7e1d4e5f62e7163cd9ea41a664736f6c63430008000033",
					"opcodes": "PUSH1 0x80 PUSH1 0x40 MSTORE PUSH3 0x186A0 PUSH1 0x4 SSTORE CALLVALUE DUP1 ISZERO PUSH3 0x18 JUMPI PUSH1 0x0 DUP1 REVERT JUMPDEST POP PUSH1 0x40 MLOAD PUSH3 0x29DD CODESIZE SUB DUP1 PUSH3 0x29DD DUP4 CODECOPY DUP2 DUP2 ADD PUSH1 0x40 MSTORE DUP2 ADD SWAP1 PUSH3 0x3E SWAP2 SWAP1 PUSH3 0x223 JUMP JUMPDEST PUSH1 0x1 PUSH1 0x0 DUP2 SWAP1 SSTORE POP PUSH1 0x0 PUSH1 0x1 PUSH1 0x0 PUSH2 0x100 EXP DUP2 SLOAD DUP2 PUSH1 0xFF MUL NOT AND SWAP1 DUP4 ISZERO ISZERO MUL OR SWAP1 SSTORE POP PUSH3 0x81 PUSH3 0x75 PUSH3 0x113 PUSH1 0x20 SHL PUSH1 0x20 SHR JUMP JUMPDEST PUSH3 0x11B PUSH1 0x20 SHL PUSH1 0x20 SHR JUMP JUMPDEST DUP3 PUSH1 0x3 PUSH1 0x0 PUSH2 0x100 EXP DUP2 SLOAD DUP2 PUSH20 0xFFFFFFFFFFFFFFFFFFFFFFFFFFFFFFFFFFFFFFFF MUL NOT AND SWAP1 DUP4 PUSH20 0xFFFFFFFFFFFFFFFFFFFFFFFFFFFFFFFFFFFFFFFF AND MUL OR SWAP1 SSTORE POP DUP2 PUSH1 0x2 PUSH1 0x0 PUSH2 0x100 EXP DUP2 SLOAD DUP2 PUSH20 0xFFFFFFFFFFFFFFFFFFFFFFFFFFFFFFFFFFFFFFFF MUL NOT AND SWAP1 DUP4 PUSH20 0xFFFFFFFFFFFFFFFFFFFFFFFFFFFFFFFFFFFFFFFF AND MUL OR SWAP1 SSTORE POP DUP1 PUSH1 0x4 DUP2 SWAP1 SSTORE POP POP POP POP PUSH3 0x32D JUMP JUMPDEST PUSH1 0x0 CALLER SWAP1 POP SWAP1 JUMP JUMPDEST PUSH1 0x0 PUSH1 0x1 DUP1 SLOAD SWAP1 PUSH2 0x100 EXP SWAP1 DIV PUSH20 0xFFFFFFFFFFFFFFFFFFFFFFFFFFFFFFFFFFFFFFFF AND SWAP1 POP DUP2 PUSH1 0x1 DUP1 PUSH2 0x100 EXP DUP2 SLOAD DUP2 PUSH20 0xFFFFFFFFFFFFFFFFFFFFFFFFFFFFFFFFFFFFFFFF MUL NOT AND SWAP1 DUP4 PUSH20 0xFFFFFFFFFFFFFFFFFFFFFFFFFFFFFFFFFFFFFFFF AND MUL OR SWAP1 SSTORE POP DUP2 PUSH20 0xFFFFFFFFFFFFFFFFFFFFFFFFFFFFFFFFFFFFFFFF AND DUP2 PUSH20 0xFFFFFFFFFFFFFFFFFFFFFFFFFFFFFFFFFFFFFFFF AND PUSH32 0x8BE0079C531659141344CD1FD0A4F28419497F9722A3DAAFE3B4186F6B6457E0 PUSH1 0x40 MLOAD PUSH1 0x40 MLOAD DUP1 SWAP2 SUB SWAP1 LOG3 POP POP JUMP JUMPDEST PUSH1 0x0 DUP2 MLOAD SWAP1 POP PUSH3 0x1EF DUP2 PUSH3 0x2DF JUMP JUMPDEST SWAP3 SWAP2 POP POP JUMP JUMPDEST PUSH1 0x0 DUP2 MLOAD SWAP1 POP PUSH3 0x206 DUP2 PUSH3 0x2F9 JUMP JUMPDEST SWAP3 SWAP2 POP POP JUMP JUMPDEST PUSH1 0x0 DUP2 MLOAD SWAP1 POP PUSH3 0x21D DUP2 PUSH3 0x313 JUMP JUMPDEST SWAP3 SWAP2 POP POP JUMP JUMPDEST PUSH1 0x0 DUP1 PUSH1 0x0 PUSH1 0x60 DUP5 DUP7 SUB SLT ISZERO PUSH3 0x239 JUMPI PUSH1 0x0 DUP1 REVERT JUMPDEST PUSH1 0x0 PUSH3 0x249 DUP7 DUP3 DUP8 ADD PUSH3 0x1F5 JUMP JUMPDEST SWAP4 POP POP PUSH1 0x20 PUSH3 0x25C DUP7 DUP3 DUP8 ADD PUSH3 0x1DE JUMP JUMPDEST SWAP3 POP POP PUSH1 0x40 PUSH3 0x26F DUP7 DUP3 DUP8 ADD PUSH3 0x20C JUMP JUMPDEST SWAP2 POP POP SWAP3 POP SWAP3 POP SWAP3 JUMP JUMPDEST PUSH1 0x0 PUSH3 0x286 DUP3 PUSH3 0x2B5 JUMP JUMPDEST SWAP1 POP SWAP2 SWAP1 POP JUMP JUMPDEST PUSH1 0x0 PUSH3 0x29A DUP3 PUSH3 0x279 JUMP JUMPDEST SWAP1 POP SWAP2 SWAP1 POP JUMP JUMPDEST PUSH1 0x0 PUSH3 0x2AE DUP3 PUSH3 0x279 JUMP JUMPDEST SWAP1 POP SWAP2 SWAP1 POP JUMP JUMPDEST PUSH1 0x0 PUSH20 0xFFFFFFFFFFFFFFFFFFFFFFFFFFFFFFFFFFFFFFFF DUP3 AND SWAP1 POP SWAP2 SWAP1 POP JUMP JUMPDEST PUSH1 0x0 DUP2 SWAP1 POP SWAP2 SWAP1 POP JUMP JUMPDEST PUSH3 0x2EA DUP2 PUSH3 0x28D JUMP JUMPDEST DUP2 EQ PUSH3 0x2F6 JUMPI PUSH1 0x0 DUP1 REVERT JUMPDEST POP JUMP JUMPDEST PUSH3 0x304 DUP2 PUSH3 0x2A1 JUMP JUMPDEST DUP2 EQ PUSH3 0x310 JUMPI PUSH1 0x0 DUP1 REVERT JUMPDEST POP JUMP JUMPDEST PUSH3 0x31E DUP2 PUSH3 0x2D5 JUMP JUMPDEST DUP2 EQ PUSH3 0x32A JUMPI PUSH1 0x0 DUP1 REVERT JUMPDEST POP JUMP JUMPDEST PUSH2 0x26A0 DUP1 PUSH3 0x33D PUSH1 0x0 CODECOPY PUSH1 0x0 RETURN INVALID PUSH1 0x80 PUSH1 0x40 MSTORE CALLVALUE DUP1 ISZERO PUSH2 0x10 JUMPI PUSH1 0x0 DUP1 REVERT JUMPDEST POP PUSH1 0x4 CALLDATASIZE LT PUSH2 0xEA JUMPI PUSH1 0x0 CALLDATALOAD PUSH1 0xE0 SHR DUP1 PUSH4 0x8DA5CB5B GT PUSH2 0x8C JUMPI DUP1 PUSH4 0xA694FC3A GT PUSH2 0x66 JUMPI DUP1 PUSH4 0xA694FC3A EQ PUSH2 0x23B JUMPI DUP1 PUSH4 0xD1AF0C7D EQ PUSH2 0x257 JUMPI DUP1 PUSH4 0xF2FDE38B EQ PUSH2 0x275 JUMPI DUP1 PUSH4 0xF854A27F EQ PUSH2 0x291 JUMPI PUSH2 0xEA JUMP JUMPDEST DUP1 PUSH4 0x8DA5CB5B EQ PUSH2 0x1BB JUMPI DUP1 PUSH4 0x9168AE72 EQ PUSH2 0x1D9 JUMPI DUP1 PUSH4 0x94067045 EQ PUSH2 0x20B JUMPI PUSH2 0xEA JUMP JUMPDEST DUP1 PUSH4 0x5C975ABB GT PUSH2 0xC8 JUMPI DUP1 PUSH4 0x5C975ABB EQ PUSH2 0x145 JUMPI DUP1 PUSH4 0x63C28DB1 EQ PUSH2 0x163 JUMPI DUP1 PUSH4 0x6588103B EQ PUSH2 0x193 JUMPI DUP1 PUSH4 0x715018A6 EQ PUSH2 0x1B1 JUMPI PUSH2 0xEA JUMP JUMPDEST DUP1 PUSH4 0x150B7A02 EQ PUSH2 0xEF JUMPI DUP1 PUSH4 0x2E1A7D4D EQ PUSH2 0x11F JUMPI DUP1 PUSH4 0x372500AB EQ PUSH2 0x13B JUMPI JUMPDEST PUSH1 0x0 DUP1 REVERT JUMPDEST PUSH2 0x109 PUSH1 0x4 DUP1 CALLDATASIZE SUB DUP2 ADD SWAP1 PUSH2 0x104 SWAP2 SWAP1 PUSH2 0x1AB5 JUMP JUMPDEST PUSH2 0x2C1 JUMP JUMPDEST PUSH1 0x40 MLOAD PUSH2 0x116 SWAP2 SWAP1 PUSH2 0x20CF JUMP JUMPDEST PUSH1 0x40 MLOAD DUP1 SWAP2 SUB SWAP1 RETURN JUMPDEST PUSH2 0x139 PUSH1 0x4 DUP1 CALLDATASIZE SUB DUP2 ADD SWAP1 PUSH2 0x134 SWAP2 SWAP1 PUSH2 0x1B5E JUMP JUMPDEST PUSH2 0x37F JUMP JUMPDEST STOP JUMPDEST PUSH2 0x143 PUSH2 0x86E JUMP JUMPDEST STOP JUMPDEST PUSH2 0x14D PUSH2 0x9EA JUMP JUMPDEST PUSH1 0x40 MLOAD PUSH2 0x15A SWAP2 SWAP1 PUSH2 0x20B4 JUMP JUMPDEST PUSH1 0x40 MLOAD DUP1 SWAP2 SUB SWAP1 RETURN JUMPDEST PUSH2 0x17D PUSH1 0x4 DUP1 CALLDATASIZE SUB DUP2 ADD SWAP1 PUSH2 0x178 SWAP2 SWAP1 PUSH2 0x1A63 JUMP JUMPDEST PUSH2 0xA01 JUMP JUMPDEST PUSH1 0x40 MLOAD PUSH2 0x18A SWAP2 SWAP1 PUSH2 0x2092 JUMP JUMPDEST PUSH1 0x40 MLOAD DUP1 SWAP2 SUB SWAP1 RETURN JUMPDEST PUSH2 0x19B PUSH2 0xE25 JUMP JUMPDEST PUSH1 0x40 MLOAD PUSH2 0x1A8 SWAP2 SWAP1 PUSH2 0x2105 JUMP JUMPDEST PUSH1 0x40 MLOAD DUP1 SWAP2 SUB SWAP1 RETURN JUMPDEST PUSH2 0x1B9 PUSH2 0xE4B JUMP JUMPDEST STOP JUMPDEST PUSH2 0x1C3 PUSH2 0xE5F JUMP JUMPDEST PUSH1 0x40 MLOAD PUSH2 0x1D0 SWAP2 SWAP1 PUSH2 0x2017 JUMP JUMPDEST PUSH1 0x40 MLOAD DUP1 SWAP2 SUB SWAP1 RETURN JUMPDEST PUSH2 0x1F3 PUSH1 0x4 DUP1 CALLDATASIZE SUB DUP2 ADD SWAP1 PUSH2 0x1EE SWAP2 SWAP1 PUSH2 0x1A63 JUMP JUMPDEST PUSH2 0xE87 JUMP JUMPDEST PUSH1 0x40 MLOAD PUSH2 0x202 SWAP4 SWAP3 SWAP2 SWAP1 PUSH2 0x229D JUMP JUMPDEST PUSH1 0x40 MLOAD DUP1 SWAP2 SUB SWAP1 RETURN JUMPDEST PUSH2 0x225 PUSH1 0x4 DUP1 CALLDATASIZE SUB DUP2 ADD SWAP1 PUSH2 0x220 SWAP2 SWAP1 PUSH2 0x1B5E JUMP JUMPDEST PUSH2 0xEB1 JUMP JUMPDEST PUSH1 0x40 MLOAD PUSH2 0x232 SWAP2 SWAP1 PUSH2 0x2017 JUMP JUMPDEST PUSH1 0x40 MLOAD DUP1 SWAP2 SUB SWAP1 RETURN JUMPDEST PUSH2 0x255 PUSH1 0x4 DUP1 CALLDATASIZE SUB DUP2 ADD SWAP1 PUSH2 0x250 SWAP2 SWAP1 PUSH2 0x1B5E JUMP JUMPDEST PUSH2 0xEE4 JUMP JUMPDEST STOP JUMPDEST PUSH2 0x25F PUSH2 0x1333 JUMP JUMPDEST PUSH1 0x40 MLOAD PUSH2 0x26C SWAP2 SWAP1 PUSH2 0x20EA JUMP JUMPDEST PUSH1 0x40 MLOAD DUP1 SWAP2 SUB SWAP1 RETURN JUMPDEST PUSH2 0x28F PUSH1 0x4 DUP1 CALLDATASIZE SUB DUP2 ADD SWAP1 PUSH2 0x28A SWAP2 SWAP1 PUSH2 0x1A63 JUMP JUMPDEST PUSH2 0x1359 JUMP JUMPDEST STOP JUMPDEST PUSH2 0x2AB PUSH1 0x4 DUP1 CALLDATASIZE SUB DUP2 ADD SWAP1 PUSH2 0x2A6 SWAP2 SWAP1 PUSH2 0x1A63 JUMP JUMPDEST PUSH2 0x13DD JUMP JUMPDEST PUSH1 0x40 MLOAD PUSH2 0x2B8 SWAP2 SWAP1 PUSH2 0x2282 JUMP JUMPDEST PUSH1 0x40 MLOAD DUP1 SWAP2 SUB SWAP1 RETURN JUMPDEST PUSH1 0x0 PUSH1 0x3 PUSH1 0x0 SWAP1 SLOAD SWAP1 PUSH2 0x100 EXP SWAP1 DIV PUSH20 0xFFFFFFFFFFFFFFFFFFFFFFFFFFFFFFFFFFFFFFFF AND PUSH20 0xFFFFFFFFFFFFFFFFFFFFFFFFFFFFFFFFFFFFFFFF AND DUP6 PUSH20 0xFFFFFFFFFFFFFFFFFFFFFFFFFFFFFFFFFFFFFFFF AND EQ PUSH2 0x353 JUMPI PUSH1 0x40 MLOAD PUSH32 0x8C379A000000000000000000000000000000000000000000000000000000000 DUP2 MSTORE PUSH1 0x4 ADD PUSH2 0x34A SWAP1 PUSH2 0x21A2 JUMP JUMPDEST PUSH1 0x40 MLOAD DUP1 SWAP2 SUB SWAP1 REVERT JUMPDEST PUSH32 0x150B7A023D4804D13E8C85FB27262CB750CF6BA9F9DD3BB30D90F482CEEB4B1F SWAP1 POP SWAP6 SWAP5 POP POP POP POP POP JUMP JUMPDEST PUSH2 0x387 PUSH2 0x1441 JUMP JUMPDEST PUSH1 0x0 PUSH1 0x5 PUSH1 0x0 CALLER PUSH20 0xFFFFFFFFFFFFFFFFFFFFFFFFFFFFFFFFFFFFFFFF AND PUSH20 0xFFFFFFFFFFFFFFFFFFFFFFFFFFFFFFFFFFFFFFFF AND DUP2 MSTORE PUSH1 0x20 ADD SWAP1 DUP2 MSTORE PUSH1 0x20 ADD PUSH1 0x0 KECCAK256 PUSH1 0x0 ADD SLOAD GT PUSH2 0x40C JUMPI PUSH1 0x40 MLOAD PUSH32 0x8C379A000000000000000000000000000000000000000000000000000000000 DUP2 MSTORE PUSH1 0x4 ADD PUSH2 0x403 SWAP1 PUSH2 0x2182 JUMP JUMPDEST PUSH1 0x40 MLOAD DUP1 SWAP2 SUB SWAP1 REVERT JUMPDEST CALLER PUSH20 0xFFFFFFFFFFFFFFFFFFFFFFFFFFFFFFFFFFFFFFFF AND PUSH1 0x6 PUSH1 0x0 DUP4 DUP2 MSTORE PUSH1 0x20 ADD SWAP1 DUP2 MSTORE PUSH1 0x20 ADD PUSH1 0x0 KECCAK256 PUSH1 0x0 SWAP1 SLOAD SWAP1 PUSH2 0x100 EXP SWAP1 DIV PUSH20 0xFFFFFFFFFFFFFFFFFFFFFFFFFFFFFFFFFFFFFFFF AND PUSH20 0xFFFFFFFFFFFFFFFFFFFFFFFFFFFFFFFFFFFFFFFF AND EQ PUSH2 0x4AD JUMPI PUSH1 0x40 MLOAD PUSH32 0x8C379A000000000000000000000000000000000000000000000000000000000 DUP2 MSTORE PUSH1 0x4 ADD PUSH2 0x4A4 SWAP1 PUSH2 0x2142 JUMP JUMPDEST PUSH1 0x40 MLOAD DUP1 SWAP2 SUB SWAP1 REVERT JUMPDEST PUSH1 0x0 PUSH2 0x4B8 CALLER PUSH2 0x1491 JUMP JUMPDEST SWAP1 POP DUP1 PUSH1 0x5 PUSH1 0x0 CALLER PUSH20 0xFFFFFFFFFFFFFFFFFFFFFFFFFFFFFFFFFFFFFFFF AND PUSH20 0xFFFFFFFFFFFFFFFFFFFFFFFFFFFFFFFFFFFFFFFF AND DUP2 MSTORE PUSH1 0x20 ADD SWAP1 DUP2 MSTORE PUSH1 0x20 ADD PUSH1 0x0 KECCAK256 PUSH1 0x3 ADD PUSH1 0x0 DUP3 DUP3 SLOAD PUSH2 0x50C SWAP2 SWAP1 PUSH2 0x233F JUMP JUMPDEST SWAP3 POP POP DUP2 SWAP1 SSTORE POP PUSH1 0x0 DUP1 JUMPDEST PUSH1 0x5 PUSH1 0x0 CALLER PUSH20 0xFFFFFFFFFFFFFFFFFFFFFFFFFFFFFFFFFFFFFFFF AND PUSH20 0xFFFFFFFFFFFFFFFFFFFFFFFFFFFFFFFFFFFFFFFF AND DUP2 MSTORE PUSH1 0x20 ADD SWAP1 DUP2 MSTORE PUSH1 0x20 ADD PUSH1 0x0 KECCAK256 PUSH1 0x1 ADD DUP1 SLOAD SWAP1 POP DUP2 LT ISZERO PUSH2 0x612 JUMPI DUP4 PUSH1 0x5 PUSH1 0x0 CALLER PUSH20 0xFFFFFFFFFFFFFFFFFFFFFFFFFFFFFFFFFFFFFFFF AND PUSH20 0xFFFFFFFFFFFFFFFFFFFFFFFFFFFFFFFFFFFFFFFF AND DUP2 MSTORE PUSH1 0x20 ADD SWAP1 DUP2 MSTORE PUSH1 0x20 ADD PUSH1 0x0 KECCAK256 PUSH1 0x1 ADD DUP3 DUP2 SLOAD DUP2 LT PUSH2 0x5DF JUMPI PUSH32 0x4E487B7100000000000000000000000000000000000000000000000000000000 PUSH1 0x0 MSTORE PUSH1 0x32 PUSH1 0x4 MSTORE PUSH1 0x24 PUSH1 0x0 REVERT JUMPDEST SWAP1 PUSH1 0x0 MSTORE PUSH1 0x20 PUSH1 0x0 KECCAK256 SWAP1 PUSH1 0x2 MUL ADD PUSH1 0x1 ADD SLOAD EQ ISZERO PUSH2 0x5FF JUMPI DUP1 SWAP2 POP PUSH2 0x612 JUMP JUMPDEST DUP1 DUP1 PUSH2 0x60A SWAP1 PUSH2 0x256D JUMP JUMPDEST SWAP2 POP POP PUSH2 0x517 JUMP JUMPDEST POP PUSH1 0x0 PUSH1 0x5 PUSH1 0x0 CALLER PUSH20 0xFFFFFFFFFFFFFFFFFFFFFFFFFFFFFFFFFFFFFFFF AND PUSH20 0xFFFFFFFFFFFFFFFFFFFFFFFFFFFFFFFFFFFFFFFF AND DUP2 MSTORE PUSH1 0x20 ADD SWAP1 DUP2 MSTORE PUSH1 0x20 ADD PUSH1 0x0 KECCAK256 PUSH1 0x1 ADD DUP3 DUP2 SLOAD DUP2 LT PUSH2 0x68F JUMPI PUSH32 0x4E487B7100000000000000000000000000000000000000000000000000000000 PUSH1 0x0 MSTORE PUSH1 0x32 PUSH1 0x4 MSTORE PUSH1 0x24 PUSH1 0x0 REVERT JUMPDEST SWAP1 PUSH1 0x0 MSTORE PUSH1 0x20 PUSH1 0x0 KECCAK256 SWAP1 PUSH1 0x2 MUL ADD PUSH1 0x0 ADD PUSH1 0x0 PUSH2 0x100 EXP DUP2 SLOAD DUP2 PUSH20 0xFFFFFFFFFFFFFFFFFFFFFFFFFFFFFFFFFFFFFFFF MUL NOT AND SWAP1 DUP4 PUSH20 0xFFFFFFFFFFFFFFFFFFFFFFFFFFFFFFFFFFFFFFFF AND MUL OR SWAP1 SSTORE POP PUSH1 0x5 PUSH1 0x0 CALLER PUSH20 0xFFFFFFFFFFFFFFFFFFFFFFFFFFFFFFFFFFFFFFFF AND PUSH20 0xFFFFFFFFFFFFFFFFFFFFFFFFFFFFFFFFFFFFFFFF AND DUP2 MSTORE PUSH1 0x20 ADD SWAP1 DUP2 MSTORE PUSH1 0x20 ADD PUSH1 0x0 KECCAK256 PUSH1 0x0 ADD PUSH1 0x0 DUP2 SLOAD DUP1 SWAP3 SWAP2 SWAP1 PUSH2 0x731 SWAP1 PUSH2 0x2543 JUMP JUMPDEST SWAP2 SWAP1 POP SSTORE POP PUSH1 0x0 PUSH1 0x6 PUSH1 0x0 DUP6 DUP2 MSTORE PUSH1 0x20 ADD SWAP1 DUP2 MSTORE PUSH1 0x20 ADD PUSH1 0x0 KECCAK256 PUSH1 0x0 PUSH2 0x100 EXP DUP2 SLOAD DUP2 PUSH20 0xFFFFFFFFFFFFFFFFFFFFFFFFFFFFFFFFFFFFFFFF MUL NOT AND SWAP1 DUP4 PUSH20 0xFFFFFFFFFFFFFFFFFFFFFFFFFFFFFFFFFFFFFFFF AND MUL OR SWAP1 SSTORE POP PUSH1 0x3 PUSH1 0x0 SWAP1 SLOAD SWAP1 PUSH2 0x100 EXP SWAP1 DIV PUSH20 0xFFFFFFFFFFFFFFFFFFFFFFFFFFFFFFFFFFFFFFFF AND PUSH20 0xFFFFFFFFFFFFFFFFFFFFFFFFFFFFFFFFFFFFFFFF AND PUSH4 0x23B872DD ADDRESS CALLER DUP7 PUSH1 0x40 MLOAD DUP5 PUSH4 0xFFFFFFFF AND PUSH1 0xE0 SHL DUP2 MSTORE PUSH1 0x4 ADD PUSH2 0x7E8 SWAP4 SWAP3 SWAP2 SWAP1 PUSH2 0x2032 JUMP JUMPDEST PUSH1 0x0 PUSH1 0x40 MLOAD DUP1 DUP4 SUB DUP2 PUSH1 0x0 DUP8 DUP1 EXTCODESIZE ISZERO DUP1 ISZERO PUSH2 0x802 JUMPI PUSH1 0x0 DUP1 REVERT JUMPDEST POP GAS CALL ISZERO DUP1 ISZERO PUSH2 0x816 JUMPI RETURNDATASIZE PUSH1 0x0 DUP1 RETURNDATACOPY RETURNDATASIZE PUSH1 0x0 REVERT JUMPDEST POP POP POP POP TIMESTAMP PUSH1 0x5 PUSH1 0x0 CALLER PUSH20 0xFFFFFFFFFFFFFFFFFFFFFFFFFFFFFFFFFFFFFFFF AND PUSH20 0xFFFFFFFFFFFFFFFFFFFFFFFFFFFFFFFFFFFFFFFF AND DUP2 MSTORE PUSH1 0x20 ADD SWAP1 DUP2 MSTORE PUSH1 0x20 ADD PUSH1 0x0 KECCAK256 PUSH1 0x2 ADD DUP2 SWAP1 SSTORE POP POP POP PUSH2 0x86B PUSH2 0x154F JUMP JUMPDEST POP JUMP JUMPDEST PUSH1 0x0 PUSH1 0x5 PUSH1 0x0 CALLER PUSH20 0xFFFFFFFFFFFFFFFFFFFFFFFFFFFFFFFFFFFFFFFF AND PUSH20 0xFFFFFFFFFFFFFFFFFFFFFFFFFFFFFFFFFFFFFFFF AND DUP2 MSTORE PUSH1 0x20 ADD SWAP1 DUP2 MSTORE PUSH1 0x20 ADD PUSH1 0x0 KECCAK256 PUSH1 0x3 ADD SLOAD PUSH2 0x8BC CALLER PUSH2 0x1491 JUMP JUMPDEST PUSH2 0x8C6 SWAP2 SWAP1 PUSH2 0x233F JUMP JUMPDEST SWAP1 POP PUSH1 0x0 DUP2 GT PUSH2 0x90B JUMPI PUSH1 0x40 MLOAD PUSH32 0x8C379A000000000000000000000000000000000000000000000000000000000 DUP2 MSTORE PUSH1 0x4 ADD PUSH2 0x902 SWAP1 PUSH2 0x2202 JUMP JUMPDEST PUSH1 0x40 MLOAD DUP1 SWAP2 SUB SWAP1 REVERT JUMPDEST TIMESTAMP PUSH1 0x5 PUSH1 0x0 CALLER PUSH20 0xFFFFFFFFFFFFFFFFFFFFFFFFFFFFFFFFFFFFFFFF AND PUSH20 0xFFFFFFFFFFFFFFFFFFFFFFFFFFFFFFFFFFFFFFFF AND DUP2 MSTORE PUSH1 0x20 ADD SWAP1 DUP2 MSTORE PUSH1 0x20 ADD PUSH1 0x0 KECCAK256 PUSH1 0x2 ADD DUP2 SWAP1 SSTORE POP PUSH1 0x0 PUSH1 0x5 PUSH1 0x0 CALLER PUSH20 0xFFFFFFFFFFFFFFFFFFFFFFFFFFFFFFFFFFFFFFFF AND PUSH20 0xFFFFFFFFFFFFFFFFFFFFFFFFFFFFFFFFFFFFFFFF AND DUP2 MSTORE PUSH1 0x20 ADD SWAP1 DUP2 MSTORE PUSH1 0x20 ADD PUSH1 0x0 KECCAK256 PUSH1 0x3 ADD DUP2 SWAP1 SSTORE POP PUSH2 0x9E7 CALLER DUP3 PUSH1 0x2 PUSH1 0x0 SWAP1 SLOAD SWAP1 PUSH2 0x100 EXP SWAP1 DIV PUSH20 0xFFFFFFFFFFFFFFFFFFFFFFFFFFFFFFFFFFFFFFFF AND PUSH20 0xFFFFFFFFFFFFFFFFFFFFFFFFFFFFFFFFFFFFFFFF AND PUSH2 0x1559 SWAP1 SWAP3 SWAP2 SWAP1 PUSH4 0xFFFFFFFF AND JUMP JUMPDEST POP JUMP JUMPDEST PUSH1 0x0 PUSH1 0x1 PUSH1 0x0 SWAP1 SLOAD SWAP1 PUSH2 0x100 EXP SWAP1 DIV PUSH1 0xFF AND SWAP1 POP SWAP1 JUMP JUMPDEST PUSH1 0x60 PUSH1 0x0 PUSH1 0x5 PUSH1 0x0 DUP5 PUSH20 0xFFFFFFFFFFFFFFFFFFFFFFFFFFFFFFFFFFFFFFFF AND PUSH20 0xFFFFFFFFFFFFFFFFFFFFFFFFFFFFFFFFFFFFFFFF AND DUP2 MSTORE PUSH1 0x20 ADD SWAP1 DUP2 MSTORE PUSH1 0x20 ADD PUSH1 0x0 KECCAK256 PUSH1 0x0 ADD SLOAD GT ISZERO PUSH2 0xDA2 JUMPI PUSH1 0x0 PUSH1 0x5 PUSH1 0x0 DUP5 PUSH20 0xFFFFFFFFFFFFFFFFFFFFFFFFFFFFFFFFFFFFFFFF AND PUSH20 0xFFFFFFFFFFFFFFFFFFFFFFFFFFFFFFFFFFFFFFFF AND DUP2 MSTORE PUSH1 0x20 ADD SWAP1 DUP2 MSTORE PUSH1 0x20 ADD PUSH1 0x0 KECCAK256 PUSH1 0x0 ADD SLOAD PUSH8 0xFFFFFFFFFFFFFFFF DUP2 GT ISZERO PUSH2 0xAD2 JUMPI PUSH32 0x4E487B7100000000000000000000000000000000000000000000000000000000 PUSH1 0x0 MSTORE PUSH1 0x41 PUSH1 0x4 MSTORE PUSH1 0x24 PUSH1 0x0 REVERT JUMPDEST PUSH1 0x40 MLOAD SWAP1 DUP1 DUP3 MSTORE DUP1 PUSH1 0x20 MUL PUSH1 0x20 ADD DUP3 ADD PUSH1 0x40 MSTORE DUP1 ISZERO PUSH2 0xB0B JUMPI DUP2 PUSH1 0x20 ADD JUMPDEST PUSH2 0xAF8 PUSH2 0x1995 JUMP JUMPDEST DUP2 MSTORE PUSH1 0x20 ADD SWAP1 PUSH1 0x1 SWAP1 SUB SWAP1 DUP2 PUSH2 0xAF0 JUMPI SWAP1 POP JUMPDEST POP SWAP1 POP PUSH1 0x0 DUP1 JUMPDEST PUSH1 0x5 PUSH1 0x0 DUP7 PUSH20 0xFFFFFFFFFFFFFFFFFFFFFFFFFFFFFFFFFFFFFFFF AND PUSH20 0xFFFFFFFFFFFFFFFFFFFFFFFFFFFFFFFFFFFFFFFF AND DUP2 MSTORE PUSH1 0x20 ADD SWAP1 DUP2 MSTORE PUSH1 0x20 ADD PUSH1 0x0 KECCAK256 PUSH1 0x1 ADD DUP1 SLOAD SWAP1 POP DUP2 LT ISZERO PUSH2 0xD97 JUMPI PUSH1 0x0 PUSH20 0xFFFFFFFFFFFFFFFFFFFFFFFFFFFFFFFFFFFFFFFF AND PUSH1 0x5 PUSH1 0x0 DUP8 PUSH20 0xFFFFFFFFFFFFFFFFFFFFFFFFFFFFFFFFFFFFFFFF AND PUSH20 0xFFFFFFFFFFFFFFFFFFFFFFFFFFFFFFFFFFFFFFFF AND DUP2 MSTORE PUSH1 0x20 ADD SWAP1 DUP2 MSTORE PUSH1 0x20 ADD PUSH1 0x0 KECCAK256 PUSH1 0x1 ADD DUP3 DUP2 SLOAD DUP2 LT PUSH2 0xBF1 JUMPI PUSH32 0x4E487B7100000000000000000000000000000000000000000000000000000000 PUSH1 0x0 MSTORE PUSH1 0x32 PUSH1 0x4 MSTORE PUSH1 0x24 PUSH1 0x0 REVERT JUMPDEST SWAP1 PUSH1 0x0 MSTORE PUSH1 0x20 PUSH1 0x0 KECCAK256 SWAP1 PUSH1 0x2 MUL ADD PUSH1 0x0 ADD PUSH1 0x0 SWAP1 SLOAD SWAP1 PUSH2 0x100 EXP SWAP1 DIV PUSH20 0xFFFFFFFFFFFFFFFFFFFFFFFFFFFFFFFFFFFFFFFF AND PUSH20 0xFFFFFFFFFFFFFFFFFFFFFFFFFFFFFFFFFFFFFFFF AND EQ PUSH2 0xD84 JUMPI PUSH1 0x5 PUSH1 0x0 DUP7 PUSH20 0xFFFFFFFFFFFFFFFFFFFFFFFFFFFFFFFFFFFFFFFF AND PUSH20 0xFFFFFFFFFFFFFFFFFFFFFFFFFFFFFFFFFFFFFFFF AND DUP2 MSTORE PUSH1 0x20 ADD SWAP1 DUP2 MSTORE PUSH1 0x20 ADD PUSH1 0x0 KECCAK256 PUSH1 0x1 ADD DUP2 DUP2 SLOAD DUP2 LT PUSH2 0xCB8 JUMPI PUSH32 0x4E487B7100000000000000000000000000000000000000000000000000000000 PUSH1 0x0 MSTORE PUSH1 0x32 PUSH1 0x4 MSTORE PUSH1 0x24 PUSH1 0x0 REVERT JUMPDEST SWAP1 PUSH1 0x0 MSTORE PUSH1 0x20 PUSH1 0x0 KECCAK256 SWAP1 PUSH1 0x2 MUL ADD PUSH1 0x40 MLOAD DUP1 PUSH1 0x40 ADD PUSH1 0x40 MSTORE SWAP1 DUP2 PUSH1 0x0 DUP3 ADD PUSH1 0x0 SWAP1 SLOAD SWAP1 PUSH2 0x100 EXP SWAP1 DIV PUSH20 0xFFFFFFFFFFFFFFFFFFFFFFFFFFFFFFFFFFFFFFFF AND PUSH20 0xFFFFFFFFFFFFFFFFFFFFFFFFFFFFFFFFFFFFFFFF AND PUSH20 0xFFFFFFFFFFFFFFFFFFFFFFFFFFFFFFFFFFFFFFFF AND DUP2 MSTORE PUSH1 0x20 ADD PUSH1 0x1 DUP3 ADD SLOAD DUP2 MSTORE POP POP DUP4 DUP4 DUP2 MLOAD DUP2 LT PUSH2 0xD6A JUMPI PUSH32 0x4E487B7100000000000000000000000000000000000000000000000000000000 PUSH1 0x0 MSTORE PUSH1 0x32 PUSH1 0x4 MSTORE PUSH1 0x24 PUSH1 0x0 REVERT JUMPDEST PUSH1 0x20 MUL PUSH1 0x20 ADD ADD DUP2 SWAP1 MSTORE POP DUP2 DUP1 PUSH2 0xD80 SWAP1 PUSH2 0x256D JUMP JUMPDEST SWAP3 POP POP JUMPDEST DUP1 DUP1 PUSH2 0xD8F SWAP1 PUSH2 0x256D JUMP JUMPDEST SWAP2 POP POP PUSH2 0xB12 JUMP JUMPDEST POP DUP2 SWAP3 POP POP POP PUSH2 0xE20 JUMP JUMPDEST PUSH1 0x0 PUSH8 0xFFFFFFFFFFFFFFFF DUP2 GT ISZERO PUSH2 0xDE3 JUMPI PUSH32 0x4E487B7100000000000000000000000000000000000000000000000000000000 PUSH1 0x0 MSTORE PUSH1 0x41 PUSH1 0x4 MSTORE PUSH1 0x24 PUSH1 0x0 REVERT JUMPDEST PUSH1 0x40 MLOAD SWAP1 DUP1 DUP3 MSTORE DUP1 PUSH1 0x20 MUL PUSH1 0x20 ADD DUP3 ADD PUSH1 0x40 MSTORE DUP1 ISZERO PUSH2 0xE1C JUMPI DUP2 PUSH1 0x20 ADD JUMPDEST PUSH2 0xE09 PUSH2 0x1995 JUMP JUMPDEST DUP2 MSTORE PUSH1 0x20 ADD SWAP1 PUSH1 0x1 SWAP1 SUB SWAP1 DUP2 PUSH2 0xE01 JUMPI SWAP1 POP JUMPDEST POP SWAP1 POP JUMPDEST SWAP2 SWAP1 POP JUMP JUMPDEST PUSH1 0x3 PUSH1 0x0 SWAP1 SLOAD SWAP1 PUSH2 0x100 EXP SWAP1 DIV PUSH20 0xFFFFFFFFFFFFFFFFFFFFFFFFFFFFFFFFFFFFFFFF AND DUP2 JUMP JUMPDEST PUSH2 0xE53 PUSH2 0x15DF JUMP JUMPDEST PUSH2 0xE5D PUSH1 0x0 PUSH2 0x165D JUMP JUMPDEST JUMP JUMPDEST PUSH1 0x0 PUSH1 0x1 DUP1 SLOAD SWAP1 PUSH2 0x100 EXP SWAP1 DIV PUSH20 0xFFFFFFFFFFFFFFFFFFFFFFFFFFFFFFFFFFFFFFFF AND SWAP1 POP SWAP1 JUMP JUMPDEST PUSH1 0x5 PUSH1 0x20 MSTORE DUP1 PUSH1 0x0 MSTORE PUSH1 0x40 PUSH1 0x0 KECCAK256 PUSH1 0x0 SWAP2 POP SWAP1 POP DUP1 PUSH1 0x0 ADD SLOAD SWAP1 DUP1 PUSH1 0x2 ADD SLOAD SWAP1 DUP1 PUSH1 0x3 ADD SLOAD SWAP1 POP DUP4 JUMP JUMPDEST PUSH1 0x6 PUSH1 0x20 MSTORE DUP1 PUSH1 0x0 MSTORE PUSH1 0x40 PUSH1 0x0 KECCAK256 PUSH1 0x0 SWAP2 POP SLOAD SWAP1 PUSH2 0x100 EXP SWAP1 DIV PUSH20 0xFFFFFFFFFFFFFFFFFFFFFFFFFFFFFFFFFFFFFFFF AND DUP2 JUMP JUMPDEST PUSH2 0xEEC PUSH2 0x1441 JUMP JUMPDEST CALLER PUSH20 0xFFFFFFFFFFFFFFFFFFFFFFFFFFFFFFFFFFFFFFFF AND PUSH1 0x3 PUSH1 0x0 SWAP1 SLOAD SWAP1 PUSH2 0x100 EXP SWAP1 DIV PUSH20 0xFFFFFFFFFFFFFFFFFFFFFFFFFFFFFFFFFFFFFFFF AND PUSH20 0xFFFFFFFFFFFFFFFFFFFFFFFFFFFFFFFFFFFFFFFF AND PUSH4 0x6352211E DUP4 PUSH1 0x40 MLOAD DUP3 PUSH4 0xFFFFFFFF AND PUSH1 0xE0 SHL DUP2 MSTORE PUSH1 0x4 ADD PUSH2 0xF5E SWAP2 SWAP1 PUSH2 0x2282 JUMP JUMPDEST PUSH1 0x20 PUSH1 0x40 MLOAD DUP1 DUP4 SUB DUP2 DUP7 DUP1 EXTCODESIZE ISZERO DUP1 ISZERO PUSH2 0xF76 JUMPI PUSH1 0x0 DUP1 REVERT JUMPDEST POP GAS STATICCALL ISZERO DUP1 ISZERO PUSH2 0xF8A JUMPI RETURNDATASIZE PUSH1 0x0 DUP1 RETURNDATACOPY RETURNDATASIZE PUSH1 0x0 REVERT JUMPDEST POP POP POP POP PUSH1 0x40 MLOAD RETURNDATASIZE PUSH1 0x1F NOT PUSH1 0x1F DUP3 ADD AND DUP3 ADD DUP1 PUSH1 0x40 MSTORE POP DUP2 ADD SWAP1 PUSH2 0xFAE SWAP2 SWAP1 PUSH2 0x1A8C JUMP JUMPDEST PUSH20 0xFFFFFFFFFFFFFFFFFFFFFFFFFFFFFFFFFFFFFFFF AND EQ PUSH2 0x1004 JUMPI PUSH1 0x40 MLOAD PUSH32 0x8C379A000000000000000000000000000000000000000000000000000000000 DUP2 MSTORE PUSH1 0x4 ADD PUSH2 0xFFB SWAP1 PUSH2 0x2142 JUMP JUMPDEST PUSH1 0x40 MLOAD DUP1 SWAP2 SUB SWAP1 REVERT JUMPDEST PUSH1 0x0 PUSH1 0x5 PUSH1 0x0 CALLER PUSH20 0xFFFFFFFFFFFFFFFFFFFFFFFFFFFFFFFFFFFFFFFF AND PUSH20 0xFFFFFFFFFFFFFFFFFFFFFFFFFFFFFFFFFFFFFFFF AND DUP2 MSTORE PUSH1 0x20 ADD SWAP1 DUP2 MSTORE PUSH1 0x20 ADD PUSH1 0x0 KECCAK256 PUSH1 0x0 ADD SLOAD GT ISZERO PUSH2 0x10B7 JUMPI PUSH1 0x0 PUSH2 0x105A CALLER PUSH2 0x1491 JUMP JUMPDEST SWAP1 POP DUP1 PUSH1 0x5 PUSH1 0x0 CALLER PUSH20 0xFFFFFFFFFFFFFFFFFFFFFFFFFFFFFFFFFFFFFFFF AND PUSH20 0xFFFFFFFFFFFFFFFFFFFFFFFFFFFFFFFFFFFFFFFF AND DUP2 MSTORE PUSH1 0x20 ADD SWAP1 DUP2 MSTORE PUSH1 0x20 ADD PUSH1 0x0 KECCAK256 PUSH1 0x3 ADD PUSH1 0x0 DUP3 DUP3 SLOAD PUSH2 0x10AE SWAP2 SWAP1 PUSH2 0x233F JUMP JUMPDEST SWAP3 POP POP DUP2 SWAP1 SSTORE POP POP JUMPDEST PUSH1 0x3 PUSH1 0x0 SWAP1 SLOAD SWAP1 PUSH2 0x100 EXP SWAP1 DIV PUSH20 0xFFFFFFFFFFFFFFFFFFFFFFFFFFFFFFFFFFFFFFFF AND PUSH20 0xFFFFFFFFFFFFFFFFFFFFFFFFFFFFFFFFFFFFFFFF AND PUSH4 0x23B872DD CALLER ADDRESS DUP5 PUSH1 0x40 MLOAD DUP5 PUSH4 0xFFFFFFFF AND PUSH1 0xE0 SHL DUP2 MSTORE PUSH1 0x4 ADD PUSH2 0x1116 SWAP4 SWAP3 SWAP2 SWAP1 PUSH2 0x2032 JUMP JUMPDEST PUSH1 0x0 PUSH1 0x40 MLOAD DUP1 DUP4 SUB DUP2 PUSH1 0x0 DUP8 DUP1 EXTCODESIZE ISZERO DUP1 ISZERO PUSH2 0x1130 JUMPI PUSH1 0x0 DUP1 REVERT JUMPDEST POP GAS CALL ISZERO DUP1 ISZERO PUSH2 0x1144 JUMPI RETURNDATASIZE PUSH1 0x0 DUP1 RETURNDATACOPY RETURNDATASIZE PUSH1 0x0 REVERT JUMPDEST POP POP POP POP PUSH1 0x0 PUSH1 0x40 MLOAD DUP1 PUSH1 0x40 ADD PUSH1 0x40 MSTORE DUP1 CALLER PUSH20 0xFFFFFFFFFFFFFFFFFFFFFFFFFFFFFFFFFFFFFFFF AND DUP2 MSTORE PUSH1 0x20 ADD DUP4 DUP2 MSTORE POP SWAP1 POP PUSH1 0x5 PUSH1 0x0 CALLER PUSH20 0xFFFFFFFFFFFFFFFFFFFFFFFFFFFFFFFFFFFFFFFF AND PUSH20 0xFFFFFFFFFFFFFFFFFFFFFFFFFFFFFFFFFFFFFFFF AND DUP2 MSTORE PUSH1 0x20 ADD SWAP1 DUP2 MSTORE PUSH1 0x20 ADD PUSH1 0x0 KECCAK256 PUSH1 0x1 ADD DUP2 SWAP1 DUP1 PUSH1 0x1 DUP2 SLOAD ADD DUP1 DUP3 SSTORE DUP1 SWAP2 POP POP PUSH1 0x1 SWAP1 SUB SWAP1 PUSH1 0x0 MSTORE PUSH1 0x20 PUSH1 0x0 KECCAK256 SWAP1 PUSH1 0x2 MUL ADD PUSH1 0x0 SWAP1 SWAP2 SWAP1 SWAP2 SWAP1 SWAP2 POP PUSH1 0x0 DUP3 ADD MLOAD DUP2 PUSH1 0x0 ADD PUSH1 0x0 PUSH2 0x100 EXP DUP2 SLOAD DUP2 PUSH20 0xFFFFFFFFFFFFFFFFFFFFFFFFFFFFFFFFFFFFFFFF MUL NOT AND SWAP1 DUP4 PUSH20 0xFFFFFFFFFFFFFFFFFFFFFFFFFFFFFFFFFFFFFFFF AND MUL OR SWAP1 SSTORE POP PUSH1 0x20 DUP3 ADD MLOAD DUP2 PUSH1 0x1 ADD SSTORE POP POP PUSH1 0x5 PUSH1 0x0 CALLER PUSH20 0xFFFFFFFFFFFFFFFFFFFFFFFFFFFFFFFFFFFFFFFF AND PUSH20 0xFFFFFFFFFFFFFFFFFFFFFFFFFFFFFFFFFFFFFFFF AND DUP2 MSTORE PUSH1 0x20 ADD SWAP1 DUP2 MSTORE PUSH1 0x20 ADD PUSH1 0x0 KECCAK256 PUSH1 0x0 ADD PUSH1 0x0 DUP2 SLOAD DUP1 SWAP3 SWAP2 SWAP1 PUSH2 0x1289 SWAP1 PUSH2 0x256D JUMP JUMPDEST SWAP2 SWAP1 POP SSTORE POP CALLER PUSH1 0x6 PUSH1 0x0 DUP5 DUP2 MSTORE PUSH1 0x20 ADD SWAP1 DUP2 MSTORE PUSH1 0x20 ADD PUSH1 0x0 KECCAK256 PUSH1 0x0 PUSH2 0x100 EXP DUP2 SLOAD DUP2 PUSH20 0xFFFFFFFFFFFFFFFFFFFFFFFFFFFFFFFFFFFFFFFF MUL NOT AND SWAP1 DUP4 PUSH20 0xFFFFFFFFFFFFFFFFFFFFFFFFFFFFFFFFFFFFFFFF AND MUL OR SWAP1 SSTORE POP TIMESTAMP PUSH1 0x5 PUSH1 0x0 CALLER PUSH20 0xFFFFFFFFFFFFFFFFFFFFFFFFFFFFFFFFFFFFFFFF AND PUSH20 0xFFFFFFFFFFFFFFFFFFFFFFFFFFFFFFFFFFFFFFFF AND DUP2 MSTORE PUSH1 0x20 ADD SWAP1 DUP2 MSTORE PUSH1 0x20 ADD PUSH1 0x0 KECCAK256 PUSH1 0x2 ADD DUP2 SWAP1 SSTORE POP POP PUSH2 0x1330 PUSH2 0x154F JUMP JUMPDEST POP JUMP JUMPDEST PUSH1 0x2 PUSH1 0x0 SWAP1 SLOAD SWAP1 PUSH2 0x100 EXP SWAP1 DIV PUSH20 0xFFFFFFFFFFFFFFFFFFFFFFFFFFFFFFFFFFFFFFFF AND DUP2 JUMP JUMPDEST PUSH2 0x1361 PUSH2 0x15DF JUMP JUMPDEST PUSH1 0x0 PUSH20 0xFFFFFFFFFFFFFFFFFFFFFFFFFFFFFFFFFFFFFFFF AND DUP2 PUSH20 0xFFFFFFFFFFFFFFFFFFFFFFFFFFFFFFFFFFFFFFFF AND EQ ISZERO PUSH2 0x13D1 JUMPI PUSH1 0x40 MLOAD PUSH32 0x8C379A000000000000000000000000000000000000000000000000000000000 DUP2 MSTORE PUSH1 0x4 ADD PUSH2 0x13C8 SWAP1 PUSH2 0x2162 JUMP JUMPDEST PUSH1 0x40 MLOAD DUP1 SWAP2 SUB SWAP1 REVERT JUMPDEST PUSH2 0x13DA DUP2 PUSH2 0x165D JUMP JUMPDEST POP JUMP JUMPDEST PUSH1 0x0 DUP1 PUSH1 0x5 PUSH1 0x0 DUP5 PUSH20 0xFFFFFFFFFFFFFFFFFFFFFFFFFFFFFFFFFFFFFFFF AND PUSH20 0xFFFFFFFFFFFFFFFFFFFFFFFFFFFFFFFFFFFFFFFF AND DUP2 MSTORE PUSH1 0x20 ADD SWAP1 DUP2 MSTORE PUSH1 0x20 ADD PUSH1 0x0 KECCAK256 PUSH1 0x3 ADD SLOAD PUSH2 0x142C DUP5 PUSH2 0x1491 JUMP JUMPDEST PUSH2 0x1436 SWAP2 SWAP1 PUSH2 0x233F JUMP JUMPDEST SWAP1 POP DUP1 SWAP2 POP POP SWAP2 SWAP1 POP JUMP JUMPDEST PUSH1 0x2 PUSH1 0x0 SLOAD EQ ISZERO PUSH2 0x1487 JUMPI PUSH1 0x40 MLOAD PUSH32 0x8C379A000000000000000000000000000000000000000000000000000000000 DUP2 MSTORE PUSH1 0x4 ADD PUSH2 0x147E SWAP1 PUSH2 0x2262 JUMP JUMPDEST PUSH1 0x40 MLOAD DUP1 SWAP2 SUB SWAP1 REVERT JUMPDEST PUSH1 0x2 PUSH1 0x0 DUP2 SWAP1 SSTORE POP JUMP JUMPDEST PUSH1 0x0 PUSH2 0xE10 PUSH1 0x4 SLOAD PUSH1 0x5 PUSH1 0x0 DUP6 PUSH20 0xFFFFFFFFFFFFFFFFFFFFFFFFFFFFFFFFFFFFFFFF AND PUSH20 0xFFFFFFFFFFFFFFFFFFFFFFFFFFFFFFFFFFFFFFFF AND DUP2 MSTORE PUSH1 0x20 ADD SWAP1 DUP2 MSTORE PUSH1 0x20 ADD PUSH1 0x0 KECCAK256 PUSH1 0x0 ADD SLOAD PUSH1 0x5 PUSH1 0x0 DUP7 PUSH20 0xFFFFFFFFFFFFFFFFFFFFFFFFFFFFFFFFFFFFFFFF AND PUSH20 0xFFFFFFFFFFFFFFFFFFFFFFFFFFFFFFFFFFFFFFFF AND DUP2 MSTORE PUSH1 0x20 ADD SWAP1 DUP2 MSTORE PUSH1 0x20 ADD PUSH1 0x0 KECCAK256 PUSH1 0x2 ADD SLOAD TIMESTAMP PUSH2 0x152A SWAP2 SWAP1 PUSH2 0x2420 JUMP JUMPDEST PUSH2 0x1534 SWAP2 SWAP1 PUSH2 0x23C6 JUMP JUMPDEST PUSH2 0x153E SWAP2 SWAP1 PUSH2 0x23C6 JUMP JUMPDEST PUSH2 0x1548 SWAP2 SWAP1 PUSH2 0x2395 JUMP JUMPDEST SWAP1 POP SWAP2 SWAP1 POP JUMP JUMPDEST PUSH1 0x1 PUSH1 0x0 DUP2 SWAP1 SSTORE POP JUMP JUMPDEST PUSH2 0x15DA DUP4 PUSH4 0xA9059CBB PUSH1 0xE0 SHL DUP5 DUP5 PUSH1 0x40 MLOAD PUSH1 0x24 ADD PUSH2 0x1578 SWAP3 SWAP2 SWAP1 PUSH2 0x2069 JUMP JUMPDEST PUSH1 0x40 MLOAD PUSH1 0x20 DUP2 DUP4 SUB SUB DUP2 MSTORE SWAP1 PUSH1 0x40 MSTORE SWAP1 PUSH28 0xFFFFFFFFFFFFFFFFFFFFFFFFFFFFFFFFFFFFFFFFFFFFFFFFFFFFFFFF NOT AND PUSH1 0x20 DUP3 ADD DUP1 MLOAD PUSH28 0xFFFFFFFFFFFFFFFFFFFFFFFFFFFFFFFFFFFFFFFFFFFFFFFFFFFFFFFF DUP4 DUP2 DUP4 AND OR DUP4 MSTORE POP POP POP POP PUSH2 0x1720 JUMP JUMPDEST POP POP POP JUMP JUMPDEST PUSH2 0x15E7 PUSH2 0x17E7 JUMP JUMPDEST PUSH20 0xFFFFFFFFFFFFFFFFFFFFFFFFFFFFFFFFFFFFFFFF AND PUSH2 0x1605 PUSH2 0xE5F JUMP JUMPDEST PUSH20 0xFFFFFFFFFFFFFFFFFFFFFFFFFFFFFFFFFFFFFFFF AND EQ PUSH2 0x165B JUMPI PUSH1 0x40 MLOAD PUSH32 0x8C379A000000000000000000000000000000000000000000000000000000000 DUP2 MSTORE PUSH1 0x4 ADD PUSH2 0x1652 SWAP1 PUSH2 0x21E2 JUMP JUMPDEST PUSH1 0x40 MLOAD DUP1 SWAP2 SUB SWAP1 REVERT JUMPDEST JUMP JUMPDEST PUSH1 0x0 PUSH1 0x1 DUP1 SLOAD SWAP1 PUSH2 0x100 EXP SWAP1 DIV PUSH20 0xFFFFFFFFFFFFFFFFFFFFFFFFFFFFFFFFFFFFFFFF AND SWAP1 POP DUP2 PUSH1 0x1 DUP1 PUSH2 0x100 EXP DUP2 SLOAD DUP2 PUSH20 0xFFFFFFFFFFFFFFFFFFFFFFFFFFFFFFFFFFFFFFFF MUL NOT AND SWAP1 DUP4 PUSH20 0xFFFFFFFFFFFFFFFFFFFFFFFFFFFFFFFFFFFFFFFF AND MUL OR SWAP1 SSTORE POP DUP2 PUSH20 0xFFFFFFFFFFFFFFFFFFFFFFFFFFFFFFFFFFFFFFFF AND DUP2 PUSH20 0xFFFFFFFFFFFFFFFFFFFFFFFFFFFFFFFFFFFFFFFF AND PUSH32 0x8BE0079C531659141344CD1FD0A4F28419497F9722A3DAAFE3B4186F6B6457E0 PUSH1 0x40 MLOAD PUSH1 0x40 MLOAD DUP1 SWAP2 SUB SWAP1 LOG3 POP POP JUMP JUMPDEST PUSH1 0x0 PUSH2 0x1782 DUP3 PUSH1 0x40 MLOAD DUP1 PUSH1 0x40 ADD PUSH1 0x40 MSTORE DUP1 PUSH1 0x20 DUP2 MSTORE PUSH1 0x20 ADD PUSH32 0x5361666545524332303A206C6F772D6C6576656C2063616C6C206661696C6564 DUP2 MSTORE POP DUP6 PUSH20 0xFFFFFFFFFFFFFFFFFFFFFFFFFFFFFFFFFFFFFFFF AND PUSH2 0x17EF SWAP1 SWAP3 SWAP2 SWAP1 PUSH4 0xFFFFFFFF AND JUMP JUMPDEST SWAP1 POP PUSH1 0x0 DUP2 MLOAD GT ISZERO PUSH2 0x17E2 JUMPI DUP1 DUP1 PUSH1 0x20 ADD SWAP1 MLOAD DUP2 ADD SWAP1 PUSH2 0x17A2 SWAP2 SWAP1 PUSH2 0x1B35 JUMP JUMPDEST PUSH2 0x17E1 JUMPI PUSH1 0x40 MLOAD PUSH32 0x8C379A000000000000000000000000000000000000000000000000000000000 DUP2 MSTORE PUSH1 0x4 ADD PUSH2 0x17D8 SWAP1 PUSH2 0x2242 JUMP JUMPDEST PUSH1 0x40 MLOAD DUP1 SWAP2 SUB SWAP1 REVERT JUMPDEST JUMPDEST POP POP POP JUMP JUMPDEST PUSH1 0x0 CALLER SWAP1 POP SWAP1 JUMP JUMPDEST PUSH1 0x60 PUSH2 0x17FE DUP5 DUP5 PUSH1 0x0 DUP6 PUSH2 0x1807 JUMP JUMPDEST SWAP1 POP SWAP4 SWAP3 POP POP POP JUMP JUMPDEST PUSH1 0x60 DUP3 SELFBALANCE LT ISZERO PUSH2 0x184C JUMPI PUSH1 0x40 MLOAD PUSH32 0x8C379A000000000000000000000000000000000000000000000000000000000 DUP2 MSTORE PUSH1 0x4 ADD PUSH2 0x1843 SWAP1 PUSH2 0x21C2 JUMP JUMPDEST PUSH1 0x40 MLOAD DUP1 SWAP2 SUB SWAP1 REVERT JUMPDEST PUSH2 0x1855 DUP6 PUSH2 0x191B JUMP JUMPDEST PUSH2 0x1894 JUMPI PUSH1 0x40 MLOAD PUSH32 0x8C379A000000000000000000000000000000000000000000000000000000000 DUP2 MSTORE PUSH1 0x4 ADD PUSH2 0x188B SWAP1 PUSH2 0x2222 JUMP JUMPDEST PUSH1 0x40 MLOAD DUP1 SWAP2 SUB SWAP1 REVERT JUMPDEST PUSH1 0x0 DUP1 DUP7 PUSH20 0xFFFFFFFFFFFFFFFFFFFFFFFFFFFFFFFFFFFFFFFF AND DUP6 DUP8 PUSH1 0x40 MLOAD PUSH2 0x18BD SWAP2 SWAP1 PUSH2 0x2000 JUMP JUMPDEST PUSH1 0x0 PUSH1 0x40 MLOAD DUP1 DUP4 SUB DUP2 DUP6 DUP8 GAS CALL SWAP3 POP POP POP RETURNDATASIZE DUP1 PUSH1 0x0 DUP2 EQ PUSH2 0x18FA JUMPI PUSH1 0x40 MLOAD SWAP2 POP PUSH1 0x1F NOT PUSH1 0x3F RETURNDATASIZE ADD AND DUP3 ADD PUSH1 0x40 MSTORE RETURNDATASIZE DUP3 MSTORE RETURNDATASIZE PUSH1 0x0 PUSH1 0x20 DUP5 ADD RETURNDATACOPY PUSH2 0x18FF JUMP JUMPDEST PUSH1 0x60 SWAP2 POP JUMPDEST POP SWAP2 POP SWAP2 POP PUSH2 0x190F DUP3 DUP3 DUP7 PUSH2 0x192E JUMP JUMPDEST SWAP3 POP POP POP SWAP5 SWAP4 POP POP POP POP JUMP JUMPDEST PUSH1 0x0 DUP1 DUP3 EXTCODESIZE SWAP1 POP PUSH1 0x0 DUP2 GT SWAP2 POP POP SWAP2 SWAP1 POP JUMP JUMPDEST PUSH1 0x60 DUP4 ISZERO PUSH2 0x193E JUMPI DUP3 SWAP1 POP PUSH2 0x198E JUMP JUMPDEST PUSH1 0x0 DUP4 MLOAD GT ISZERO PUSH2 0x1951 JUMPI DUP3 MLOAD DUP1 DUP5 PUSH1 0x20 ADD REVERT JUMPDEST DUP2 PUSH1 0x40 MLOAD PUSH32 0x8C379A000000000000000000000000000000000000000000000000000000000 DUP2 MSTORE PUSH1 0x4 ADD PUSH2 0x1985 SWAP2 SWAP1 PUSH2 0x2120 JUMP JUMPDEST PUSH1 0x40 MLOAD DUP1 SWAP2 SUB SWAP1 REVERT JUMPDEST SWAP4 SWAP3 POP POP POP JUMP JUMPDEST PUSH1 0x40 MLOAD DUP1 PUSH1 0x40 ADD PUSH1 0x40 MSTORE DUP1 PUSH1 0x0 PUSH20 0xFFFFFFFFFFFFFFFFFFFFFFFFFFFFFFFFFFFFFFFF AND DUP2 MSTORE PUSH1 0x20 ADD PUSH1 0x0 DUP2 MSTORE POP SWAP1 JUMP JUMPDEST PUSH1 0x0 DUP2 CALLDATALOAD SWAP1 POP PUSH2 0x19D4 DUP2 PUSH2 0x2625 JUMP JUMPDEST SWAP3 SWAP2 POP POP JUMP JUMPDEST PUSH1 0x0 DUP2 MLOAD SWAP1 POP PUSH2 0x19E9 DUP2 PUSH2 0x2625 JUMP JUMPDEST SWAP3 SWAP2 POP POP JUMP JUMPDEST PUSH1 0x0 DUP2 MLOAD SWAP1 POP PUSH2 0x19FE DUP2 PUSH2 0x263C JUMP JUMPDEST SWAP3 SWAP2 POP POP JUMP JUMPDEST PUSH1 0x0 DUP1 DUP4 PUSH1 0x1F DUP5 ADD SLT PUSH2 0x1A16 JUMPI PUSH1 0x0 DUP1 REVERT JUMPDEST DUP3 CALLDATALOAD SWAP1 POP PUSH8 0xFFFFFFFFFFFFFFFF DUP2 GT ISZERO PUSH2 0x1A2F JUMPI PUSH1 0x0 DUP1 REVERT JUMPDEST PUSH1 0x20 DUP4 ADD SWAP2 POP DUP4 PUSH1 0x1 DUP3 MUL DUP4 ADD GT ISZERO PUSH2 0x1A47 JUMPI PUSH1 0x0 DUP1 REVERT JUMPDEST SWAP3 POP SWAP3 SWAP1 POP JUMP JUMPDEST PUSH1 0x0 DUP2 CALLDATALOAD SWAP1 POP PUSH2 0x1A5D DUP2 PUSH2 0x2653 JUMP JUMPDEST SWAP3 SWAP2 POP POP JUMP JUMPDEST PUSH1 0x0 PUSH1 0x20 DUP3 DUP5 SUB SLT ISZERO PUSH2 0x1A75 JUMPI PUSH1 0x0 DUP1 REVERT JUMPDEST PUSH1 0x0 PUSH2 0x1A83 DUP5 DUP3 DUP6 ADD PUSH2 0x19C5 JUMP JUMPDEST SWAP2 POP POP SWAP3 SWAP2 POP POP JUMP JUMPDEST PUSH1 0x0 PUSH1 0x20 DUP3 DUP5 SUB SLT ISZERO PUSH2 0x1A9E JUMPI PUSH1 0x0 DUP1 REVERT JUMPDEST PUSH1 0x0 PUSH2 0x1AAC DUP5 DUP3 DUP6 ADD PUSH2 0x19DA JUMP JUMPDEST SWAP2 POP POP SWAP3 SWAP2 POP POP JUMP JUMPDEST PUSH1 0x0 DUP1 PUSH1 0x0 DUP1 PUSH1 0x0 PUSH1 0x80 DUP7 DUP9 SUB SLT ISZERO PUSH2 0x1ACD JUMPI PUSH1 0x0 DUP1 REVERT JUMPDEST PUSH1 0x0 PUSH2 0x1ADB DUP9 DUP3 DUP10 ADD PUSH2 0x19C5 JUMP JUMPDEST SWAP6 POP POP PUSH1 0x20 PUSH2 0x1AEC DUP9 DUP3 DUP10 ADD PUSH2 0x19C5 JUMP JUMPDEST SWAP5 POP POP PUSH1 0x40 PUSH2 0x1AFD DUP9 DUP3 DUP10 ADD PUSH2 0x1A4E JUMP JUMPDEST SWAP4 POP POP PUSH1 0x60 DUP7 ADD CALLDATALOAD PUSH8 0xFFFFFFFFFFFFFFFF DUP2 GT ISZERO PUSH2 0x1B1A JUMPI PUSH1 0x0 DUP1 REVERT JUMPDEST PUSH2 0x1B26 DUP9 DUP3 DUP10 ADD PUSH2 0x1A04 JUMP JUMPDEST SWAP3 POP SWAP3 POP POP SWAP3 SWAP6 POP SWAP3 SWAP6 SWAP1 SWAP4 POP JUMP JUMPDEST PUSH1 0x0 PUSH1 0x20 DUP3 DUP5 SUB SLT ISZERO PUSH2 0x1B47 JUMPI PUSH1 0x0 DUP1 REVERT JUMPDEST PUSH1 0x0 PUSH2 0x1B55 DUP5 DUP3 DUP6 ADD PUSH2 0x19EF JUMP JUMPDEST SWAP2 POP POP SWAP3 SWAP2 POP POP JUMP JUMPDEST PUSH1 0x0 PUSH1 0x20 DUP3 DUP5 SUB SLT ISZERO PUSH2 0x1B70 JUMPI PUSH1 0x0 DUP1 REVERT JUMPDEST PUSH1 0x0 PUSH2 0x1B7E DUP5 DUP3 DUP6 ADD PUSH2 0x1A4E JUMP JUMPDEST SWAP2 POP POP SWAP3 SWAP2 POP POP JUMP JUMPDEST PUSH1 0x0 PUSH2 0x1B93 DUP4 DUP4 PUSH2 0x1FB3 JUMP JUMPDEST PUSH1 0x40 DUP4 ADD SWAP1 POP SWAP3 SWAP2 POP POP JUMP JUMPDEST PUSH2 0x1BA8 DUP2 PUSH2 0x2454 JUMP JUMPDEST DUP3 MSTORE POP POP JUMP JUMPDEST PUSH2 0x1BB7 DUP2 PUSH2 0x2454 JUMP JUMPDEST DUP3 MSTORE POP POP JUMP JUMPDEST PUSH1 0x0 PUSH2 0x1BC8 DUP3 PUSH2 0x22E4 JUMP JUMPDEST PUSH2 0x1BD2 DUP2 DUP6 PUSH2 0x2312 JUMP JUMPDEST SWAP4 POP PUSH2 0x1BDD DUP4 PUSH2 0x22D4 JUMP JUMPDEST DUP1 PUSH1 0x0 JUMPDEST DUP4 DUP2 LT ISZERO PUSH2 0x1C0E JUMPI DUP2 MLOAD PUSH2 0x1BF5 DUP9 DUP3 PUSH2 0x1B87 JUMP JUMPDEST SWAP8 POP PUSH2 0x1C00 DUP4 PUSH2 0x2305 JUMP JUMPDEST SWAP3 POP POP PUSH1 0x1 DUP2 ADD SWAP1 POP PUSH2 0x1BE1 JUMP JUMPDEST POP DUP6 SWAP4 POP POP POP POP SWAP3 SWAP2 POP POP JUMP JUMPDEST PUSH2 0x1C24 DUP2 PUSH2 0x2466 JUMP JUMPDEST DUP3 MSTORE POP POP JUMP JUMPDEST PUSH2 0x1C33 DUP2 PUSH2 0x2472 JUMP JUMPDEST DUP3 MSTORE POP POP JUMP JUMPDEST PUSH1 0x0 PUSH2 0x1C44 DUP3 PUSH2 0x22EF JUMP JUMPDEST PUSH2 0x1C4E DUP2 DUP6 PUSH2 0x2323 JUMP JUMPDEST SWAP4 POP PUSH2 0x1C5E DUP2 DUP6 PUSH1 0x20 DUP7 ADD PUSH2 0x2510 JUMP JUMPDEST DUP1 DUP5 ADD SWAP2 POP POP SWAP3 SWAP2 POP POP JUMP JUMPDEST PUSH2 0x1C73 DUP2 PUSH2 0x24C8 JUMP JUMPDEST DUP3 MSTORE POP POP JUMP JUMPDEST PUSH2 0x1C82 DUP2 PUSH2 0x24EC JUMP JUMPDEST DUP3 MSTORE POP POP JUMP JUMPDEST PUSH1 0x0 PUSH2 0x1C93 DUP3 PUSH2 0x22FA JUMP JUMPDEST PUSH2 0x1C9D DUP2 DUP6 PUSH2 0x232E JUMP JUMPDEST SWAP4 POP PUSH2 0x1CAD DUP2 DUP6 PUSH1 0x20 DUP7 ADD PUSH2 0x2510 JUMP JUMPDEST PUSH2 0x1CB6 DUP2 PUSH2 0x2614 JUMP JUMPDEST DUP5 ADD SWAP2 POP POP SWAP3 SWAP2 POP POP JUMP JUMPDEST PUSH1 0x0 PUSH2 0x1CCE PUSH1 0x19 DUP4 PUSH2 0x232E JUMP JUMPDEST SWAP2 POP PUSH32 0x596F7520646F6E2774206F776E207468697320746F6B656E2100000000000000 PUSH1 0x0 DUP4 ADD MSTORE PUSH1 0x20 DUP3 ADD SWAP1 POP SWAP2 SWAP1 POP JUMP JUMPDEST PUSH1 0x0 PUSH2 0x1D0E PUSH1 0x26 DUP4 PUSH2 0x232E JUMP JUMPDEST SWAP2 POP PUSH32 0x4F776E61626C653A206E6577206F776E657220697320746865207A65726F2061 PUSH1 0x0 DUP4 ADD MSTORE PUSH32 0x6464726573730000000000000000000000000000000000000000000000000000 PUSH1 0x20 DUP4 ADD MSTORE PUSH1 0x40 DUP3 ADD SWAP1 POP SWAP2 SWAP1 POP JUMP JUMPDEST PUSH1 0x0 PUSH2 0x1D74 PUSH1 0x19 DUP4 PUSH2 0x232E JUMP JUMPDEST SWAP2 POP PUSH32 0x596F752068617665206E6F20746F6B656E73207374616B656400000000000000 PUSH1 0x0 DUP4 ADD MSTORE PUSH1 0x20 DUP3 ADD SWAP1 POP SWAP2 SWAP1 POP JUMP JUMPDEST PUSH1 0x0 PUSH2 0x1DB4 PUSH1 0x1C DUP4 PUSH2 0x232E JUMP JUMPDEST SWAP2 POP PUSH32 0x4E6F7420737570706F72746564204E465420436F6C6C656374696F6E00000000 PUSH1 0x0 DUP4 ADD MSTORE PUSH1 0x20 DUP3 ADD SWAP1 POP SWAP2 SWAP1 POP JUMP JUMPDEST PUSH1 0x0 PUSH2 0x1DF4 PUSH1 0x26 DUP4 PUSH2 0x232E JUMP JUMPDEST SWAP2 POP PUSH32 0x416464726573733A20696E73756666696369656E742062616C616E636520666F PUSH1 0x0 DUP4 ADD MSTORE PUSH32 0x722063616C6C0000000000000000000000000000000000000000000000000000 PUSH1 0x20 DUP4 ADD MSTORE PUSH1 0x40 DUP3 ADD SWAP1 POP SWAP2 SWAP1 POP JUMP JUMPDEST PUSH1 0x0 PUSH2 0x1E5A PUSH1 0x20 DUP4 PUSH2 0x232E JUMP JUMPDEST SWAP2 POP PUSH32 0x4F776E61626C653A2063616C6C6572206973206E6F7420746865206F776E6572 PUSH1 0x0 DUP4 ADD MSTORE PUSH1 0x20 DUP3 ADD SWAP1 POP SWAP2 SWAP1 POP JUMP JUMPDEST PUSH1 0x0 PUSH2 0x1E9A PUSH1 0x1C DUP4 PUSH2 0x232E JUMP JUMPDEST SWAP2 POP PUSH32 0x596F752068617665206E6F207265776172647320746F20636C61696D00000000 PUSH1 0x0 DUP4 ADD MSTORE PUSH1 0x20 DUP3 ADD SWAP1 POP SWAP2 SWAP1 POP JUMP JUMPDEST PUSH1 0x0 PUSH2 0x1EDA PUSH1 0x1D DUP4 PUSH2 0x232E JUMP JUMPDEST SWAP2 POP PUSH32 0x416464726573733A2063616C6C20746F206E6F6E2D636F6E7472616374000000 PUSH1 0x0 DUP4 ADD MSTORE PUSH1 0x20 DUP3 ADD SWAP1 POP SWAP2 SWAP1 POP JUMP JUMPDEST PUSH1 0x0 PUSH2 0x1F1A PUSH1 0x2A DUP4 PUSH2 0x232E JUMP JUMPDEST SWAP2 POP PUSH32 0x5361666545524332303A204552433230206F7065726174696F6E20646964206E PUSH1 0x0 DUP4 ADD MSTORE PUSH32 0x6F74207375636365656400000000000000000000000000000000000000000000 PUSH1 0x20 DUP4 ADD MSTORE PUSH1 0x40 DUP3 ADD SWAP1 POP SWAP2 SWAP1 POP JUMP JUMPDEST PUSH1 0x0 PUSH2 0x1F80 PUSH1 0x1F DUP4 PUSH2 0x232E JUMP JUMPDEST SWAP2 POP PUSH32 0x5265656E7472616E637947756172643A207265656E7472616E742063616C6C00 PUSH1 0x0 DUP4 ADD MSTORE PUSH1 0x20 DUP3 ADD SWAP1 POP SWAP2 SWAP1 POP JUMP JUMPDEST PUSH1 0x40 DUP3 ADD PUSH1 0x0 DUP3 ADD MLOAD PUSH2 0x1FC9 PUSH1 0x0 DUP6 ADD DUP3 PUSH2 0x1B9F JUMP JUMPDEST POP PUSH1 0x20 DUP3 ADD MLOAD PUSH2 0x1FDC PUSH1 0x20 DUP6 ADD DUP3 PUSH2 0x1FE2 JUMP JUMPDEST POP POP POP POP JUMP JUMPDEST PUSH2 0x1FEB DUP2 PUSH2 0x24BE JUMP JUMPDEST DUP3 MSTORE POP POP JUMP JUMPDEST PUSH2 0x1FFA DUP2 PUSH2 0x24BE JUMP JUMPDEST DUP3 MSTORE POP POP JUMP JUMPDEST PUSH1 0x0 PUSH2 0x200C DUP3 DUP5 PUSH2 0x1C39 JUMP JUMPDEST SWAP2 POP DUP2 SWAP1 POP SWAP3 SWAP2 POP POP JUMP JUMPDEST PUSH1 0x0 PUSH1 0x20 DUP3 ADD SWAP1 POP PUSH2 0x202C PUSH1 0x0 DUP4 ADD DUP5 PUSH2 0x1BAE JUMP JUMPDEST SWAP3 SWAP2 POP POP JUMP JUMPDEST PUSH1 0x0 PUSH1 0x60 DUP3 ADD SWAP1 POP PUSH2 0x2047 PUSH1 0x0 DUP4 ADD DUP7 PUSH2 0x1BAE JUMP JUMPDEST PUSH2 0x2054 PUSH1 0x20 DUP4 ADD DUP6 PUSH2 0x1BAE JUMP JUMPDEST PUSH2 0x2061 PUSH1 0x40 DUP4 ADD DUP5 PUSH2 0x1FF1 JUMP JUMPDEST SWAP5 SWAP4 POP POP POP POP JUMP JUMPDEST PUSH1 0x0 PUSH1 0x40 DUP3 ADD SWAP1 POP PUSH2 0x207E PUSH1 0x0 DUP4 ADD DUP6 PUSH2 0x1BAE JUMP JUMPDEST PUSH2 0x208B PUSH1 0x20 DUP4 ADD DUP5 PUSH2 0x1FF1 JUMP JUMPDEST SWAP4 SWAP3 POP POP POP JUMP JUMPDEST PUSH1 0x0 PUSH1 0x20 DUP3 ADD SWAP1 POP DUP2 DUP2 SUB PUSH1 0x0 DUP4 ADD MSTORE PUSH2 0x20AC DUP2 DUP5 PUSH2 0x1BBD JUMP JUMPDEST SWAP1 POP SWAP3 SWAP2 POP POP JUMP JUMPDEST PUSH1 0x0 PUSH1 0x20 DUP3 ADD SWAP1 POP PUSH2 0x20C9 PUSH1 0x0 DUP4 ADD DUP5 PUSH2 0x1C1B JUMP JUMPDEST SWAP3 SWAP2 POP POP JUMP JUMPDEST PUSH1 0x0 PUSH1 0x20 DUP3 ADD SWAP1 POP PUSH2 0x20E4 PUSH1 0x0 DUP4 ADD DUP5 PUSH2 0x1C2A JUMP JUMPDEST SWAP3 SWAP2 POP POP JUMP JUMPDEST PUSH1 0x0 PUSH1 0x20 DUP3 ADD SWAP1 POP PUSH2 0x20FF PUSH1 0x0 DUP4 ADD DUP5 PUSH2 0x1C6A JUMP JUMPDEST SWAP3 SWAP2 POP POP JUMP JUMPDEST PUSH1 0x0 PUSH1 0x20 DUP3 ADD SWAP1 POP PUSH2 0x211A PUSH1 0x0 DUP4 ADD DUP5 PUSH2 0x1C79 JUMP JUMPDEST SWAP3 SWAP2 POP POP JUMP JUMPDEST PUSH1 0x0 PUSH1 0x20 DUP3 ADD SWAP1 POP DUP2 DUP2 SUB PUSH1 0x0 DUP4 ADD MSTORE PUSH2 0x213A DUP2 DUP5 PUSH2 0x1C88 JUMP JUMPDEST SWAP1 POP SWAP3 SWAP2 POP POP JUMP JUMPDEST PUSH1 0x0 PUSH1 0x20 DUP3 ADD SWAP1 POP DUP2 DUP2 SUB PUSH1 0x0 DUP4 ADD MSTORE PUSH2 0x215B DUP2 PUSH2 0x1CC1 JUMP JUMPDEST SWAP1 POP SWAP2 SWAP1 POP JUMP JUMPDEST PUSH1 0x0 PUSH1 0x20 DUP3 ADD SWAP1 POP DUP2 DUP2 SUB PUSH1 0x0 DUP4 ADD MSTORE PUSH2 0x217B DUP2 PUSH2 0x1D01 JUMP JUMPDEST SWAP1 POP SWAP2 SWAP1 POP JUMP JUMPDEST PUSH1 0x0 PUSH1 0x20 DUP3 ADD SWAP1 POP DUP2 DUP2 SUB PUSH1 0x0 DUP4 ADD MSTORE PUSH2 0x219B DUP2 PUSH2 0x1D67 JUMP JUMPDEST SWAP1 POP SWAP2 SWAP1 POP JUMP JUMPDEST PUSH1 0x0 PUSH1 0x20 DUP3 ADD SWAP1 POP DUP2 DUP2 SUB PUSH1 0x0 DUP4 ADD MSTORE PUSH2 0x21BB DUP2 PUSH2 0x1DA7 JUMP JUMPDEST SWAP1 POP SWAP2 SWAP1 POP JUMP JUMPDEST PUSH1 0x0 PUSH1 0x20 DUP3 ADD SWAP1 POP DUP2 DUP2 SUB PUSH1 0x0 DUP4 ADD MSTORE PUSH2 0x21DB DUP2 PUSH2 0x1DE7 JUMP JUMPDEST SWAP1 POP SWAP2 SWAP1 POP JUMP JUMPDEST PUSH1 0x0 PUSH1 0x20 DUP3 ADD SWAP1 POP DUP2 DUP2 SUB PUSH1 0x0 DUP4 ADD MSTORE PUSH2 0x21FB DUP2 PUSH2 0x1E4D JUMP JUMPDEST SWAP1 POP SWAP2 SWAP1 POP JUMP JUMPDEST PUSH1 0x0 PUSH1 0x20 DUP3 ADD SWAP1 POP DUP2 DUP2 SUB PUSH1 0x0 DUP4 ADD MSTORE PUSH2 0x221B DUP2 PUSH2 0x1E8D JUMP JUMPDEST SWAP1 POP SWAP2 SWAP1 POP JUMP JUMPDEST PUSH1 0x0 PUSH1 0x20 DUP3 ADD SWAP1 POP DUP2 DUP2 SUB PUSH1 0x0 DUP4 ADD MSTORE PUSH2 0x223B DUP2 PUSH2 0x1ECD JUMP JUMPDEST SWAP1 POP SWAP2 SWAP1 POP JUMP JUMPDEST PUSH1 0x0 PUSH1 0x20 DUP3 ADD SWAP1 POP DUP2 DUP2 SUB PUSH1 0x0 DUP4 ADD MSTORE PUSH2 0x225B DUP2 PUSH2 0x1F0D JUMP JUMPDEST SWAP1 POP SWAP2 SWAP1 POP JUMP JUMPDEST PUSH1 0x0 PUSH1 0x20 DUP3 ADD SWAP1 POP DUP2 DUP2 SUB PUSH1 0x0 DUP4 ADD MSTORE PUSH2 0x227B DUP2 PUSH2 0x1F73 JUMP JUMPDEST SWAP1 POP SWAP2 SWAP1 POP JUMP JUMPDEST PUSH1 0x0 PUSH1 0x20 DUP3 ADD SWAP1 POP PUSH2 0x2297 PUSH1 0x0 DUP4 ADD DUP5 PUSH2 0x1FF1 JUMP JUMPDEST SWAP3 SWAP2 POP POP JUMP JUMPDEST PUSH1 0x0 PUSH1 0x60 DUP3 ADD SWAP1 POP PUSH2 0x22B2 PUSH1 0x0 DUP4 ADD DUP7 PUSH2 0x1FF1 JUMP JUMPDEST PUSH2 0x22BF PUSH1 0x20 DUP4 ADD DUP6 PUSH2 0x1FF1 JUMP JUMPDEST PUSH2 0x22CC PUSH1 0x40 DUP4 ADD DUP5 PUSH2 0x1FF1 JUMP JUMPDEST SWAP5 SWAP4 POP POP POP POP JUMP JUMPDEST PUSH1 0x0 DUP2 SWAP1 POP PUSH1 0x20 DUP3 ADD SWAP1 POP SWAP2 SWAP1 POP JUMP JUMPDEST PUSH1 0x0 DUP2 MLOAD SWAP1 POP SWAP2 SWAP1 POP JUMP JUMPDEST PUSH1 0x0 DUP2 MLOAD SWAP1 POP SWAP2 SWAP1 POP JUMP JUMPDEST PUSH1 0x0 DUP2 MLOAD SWAP1 POP SWAP2 SWAP1 POP JUMP JUMPDEST PUSH1 0x0 PUSH1 0x20 DUP3 ADD SWAP1 POP SWAP2 SWAP1 POP JUMP JUMPDEST PUSH1 0x0 DUP3 DUP3 MSTORE PUSH1 0x20 DUP3 ADD SWAP1 POP SWAP3 SWAP2 POP POP JUMP JUMPDEST PUSH1 0x0 DUP2 SWAP1 POP SWAP3 SWAP2 POP POP JUMP JUMPDEST PUSH1 0x0 DUP3 DUP3 MSTORE PUSH1 0x20 DUP3 ADD SWAP1 POP SWAP3 SWAP2 POP POP JUMP JUMPDEST PUSH1 0x0 PUSH2 0x234A DUP3 PUSH2 0x24BE JUMP JUMPDEST SWAP2 POP PUSH2 0x2355 DUP4 PUSH2 0x24BE JUMP JUMPDEST SWAP3 POP DUP3 PUSH32 0xFFFFFFFFFFFFFFFFFFFFFFFFFFFFFFFFFFFFFFFFFFFFFFFFFFFFFFFFFFFFFFFF SUB DUP3 GT ISZERO PUSH2 0x238A JUMPI PUSH2 0x2389 PUSH2 0x25B6 JUMP JUMPDEST JUMPDEST DUP3 DUP3 ADD SWAP1 POP SWAP3 SWAP2 POP POP JUMP JUMPDEST PUSH1 0x0 PUSH2 0x23A0 DUP3 PUSH2 0x24BE JUMP JUMPDEST SWAP2 POP PUSH2 0x23AB DUP4 PUSH2 0x24BE JUMP JUMPDEST SWAP3 POP DUP3 PUSH2 0x23BB JUMPI PUSH2 0x23BA PUSH2 0x25E5 JUMP JUMPDEST JUMPDEST DUP3 DUP3 DIV SWAP1 POP SWAP3 SWAP2 POP POP JUMP JUMPDEST PUSH1 0x0 PUSH2 0x23D1 DUP3 PUSH2 0x24BE JUMP JUMPDEST SWAP2 POP PUSH2 0x23DC DUP4 PUSH2 0x24BE JUMP JUMPDEST SWAP3 POP DUP2 PUSH32 0xFFFFFFFFFFFFFFFFFFFFFFFFFFFFFFFFFFFFFFFFFFFFFFFFFFFFFFFFFFFFFFFF DIV DUP4 GT DUP3 ISZERO ISZERO AND ISZERO PUSH2 0x2415 JUMPI PUSH2 0x2414 PUSH2 0x25B6 JUMP JUMPDEST JUMPDEST DUP3 DUP3 MUL SWAP1 POP SWAP3 SWAP2 POP POP JUMP JUMPDEST PUSH1 0x0 PUSH2 0x242B DUP3 PUSH2 0x24BE JUMP JUMPDEST SWAP2 POP PUSH2 0x2436 DUP4 PUSH2 0x24BE JUMP JUMPDEST SWAP3 POP DUP3 DUP3 LT ISZERO PUSH2 0x2449 JUMPI PUSH2 0x2448 PUSH2 0x25B6 JUMP JUMPDEST JUMPDEST DUP3 DUP3 SUB SWAP1 POP SWAP3 SWAP2 POP POP JUMP JUMPDEST PUSH1 0x0 PUSH2 0x245F DUP3 PUSH2 0x249E JUMP JUMPDEST SWAP1 POP SWAP2 SWAP1 POP JUMP JUMPDEST PUSH1 0x0 DUP2 ISZERO ISZERO SWAP1 POP SWAP2 SWAP1 POP JUMP JUMPDEST PUSH1 0x0 PUSH32 0xFFFFFFFF00000000000000000000000000000000000000000000000000000000 DUP3 AND SWAP1 POP SWAP2 SWAP1 POP JUMP JUMPDEST PUSH1 0x0 PUSH20 0xFFFFFFFFFFFFFFFFFFFFFFFFFFFFFFFFFFFFFFFF DUP3 AND SWAP1 POP SWAP2 SWAP1 POP JUMP JUMPDEST PUSH1 0x0 DUP2 SWAP1 POP SWAP2 SWAP1 POP JUMP JUMPDEST PUSH1 0x0 PUSH2 0x24D3 DUP3 PUSH2 0x24DA JUMP JUMPDEST SWAP1 POP SWAP2 SWAP1 POP JUMP JUMPDEST PUSH1 0x0 PUSH2 0x24E5 DUP3 PUSH2 0x249E JUMP JUMPDEST SWAP1 POP SWAP2 SWAP1 POP JUMP JUMPDEST PUSH1 0x0 PUSH2 0x24F7 DUP3 PUSH2 0x24FE JUMP JUMPDEST SWAP1 POP SWAP2 SWAP1 POP JUMP JUMPDEST PUSH1 0x0 PUSH2 0x2509 DUP3 PUSH2 0x249E JUMP JUMPDEST SWAP1 POP SWAP2 SWAP1 POP JUMP JUMPDEST PUSH1 0x0 JUMPDEST DUP4 DUP2 LT ISZERO PUSH2 0x252E JUMPI DUP1 DUP3 ADD MLOAD DUP2 DUP5 ADD MSTORE PUSH1 0x20 DUP2 ADD SWAP1 POP PUSH2 0x2513 JUMP JUMPDEST DUP4 DUP2 GT ISZERO PUSH2 0x253D JUMPI PUSH1 0x0 DUP5 DUP5 ADD MSTORE JUMPDEST POP POP POP POP JUMP JUMPDEST PUSH1 0x0 PUSH2 0x254E DUP3 PUSH2 0x24BE JUMP JUMPDEST SWAP2 POP PUSH1 0x0 DUP3 EQ ISZERO PUSH2 0x2562 JUMPI PUSH2 0x2561 PUSH2 0x25B6 JUMP JUMPDEST JUMPDEST PUSH1 0x1 DUP3 SUB SWAP1 POP SWAP2 SWAP1 POP JUMP JUMPDEST PUSH1 0x0 PUSH2 0x2578 DUP3 PUSH2 0x24BE JUMP JUMPDEST SWAP2 POP PUSH32 0xFFFFFFFFFFFFFFFFFFFFFFFFFFFFFFFFFFFFFFFFFFFFFFFFFFFFFFFFFFFFFFFF DUP3 EQ ISZERO PUSH2 0x25AB JUMPI PUSH2 0x25AA PUSH2 0x25B6 JUMP JUMPDEST JUMPDEST PUSH1 0x1 DUP3 ADD SWAP1 POP SWAP2 SWAP1 POP JUMP JUMPDEST PUSH32 0x4E487B7100000000000000000000000000000000000000000000000000000000 PUSH1 0x0 MSTORE PUSH1 0x11 PUSH1 0x4 MSTORE PUSH1 0x24 PUSH1 0x0 REVERT JUMPDEST PUSH32 0x4E487B7100000000000000000000000000000000000000000000000000000000 PUSH1 0x0 MSTORE PUSH1 0x12 PUSH1 0x4 MSTORE PUSH1 0x24 PUSH1 0x0 REVERT JUMPDEST PUSH1 0x0 PUSH1 0x1F NOT PUSH1 0x1F DUP4 ADD AND SWAP1 POP SWAP2 SWAP1 POP JUMP JUMPDEST PUSH2 0x262E DUP2 PUSH2 0x2454 JUMP JUMPDEST DUP2 EQ PUSH2 0x2639 JUMPI PUSH1 0x0 DUP1 REVERT JUMPDEST POP JUMP JUMPDEST PUSH2 0x2645 DUP2 PUSH2 0x2466 JUMP JUMPDEST DUP2 EQ PUSH2 0x2650 JUMPI PUSH1 0x0 DUP1 REVERT JUMPDEST POP JUMP JUMPDEST PUSH2 0x265C DUP2 PUSH2 0x24BE JUMP JUMPDEST DUP2 EQ PUSH2 0x2667 JUMPI PUSH1 0x0 DUP1 REVERT JUMPDEST POP JUMP INVALID LOG2 PUSH5 0x6970667358 0x22 SLT KECCAK256 STOP 0x26 0x2F 0xEC 0xEB NUMBER SHR 0xF8 PUSH5 0x5CB0FD57DD 0xE6 0xE7 SLT 0xC0 PUSH26 0x8A7E1D4E5F62E7163CD9EA41A664736F6C634300080000330000 "
				},
				"gasEstimates": {
					"creation": {
						"codeDepositCost": "1977600",
						"executionCost": "infinite",
						"totalCost": "infinite"
					},
					"external": {
						"availableRewards(address)": "infinite",
						"claimRewards()": "infinite",
						"getStakedTokens(address)": "infinite",
						"nftCollection()": "1324",
						"onERC721Received(address,address,uint256,bytes)": "infinite",
						"owner()": "1292",
						"paused()": "1202",
						"renounceOwnership()": "24631",
						"rewardsToken()": "1301",
						"stake(uint256)": "infinite",
						"stakerAddress(uint256)": "1606",
						"stakers(address)": "infinite",
						"transferOwnership(address)": "24957",
						"withdraw(uint256)": "infinite"
					},
					"internal": {
						"calculateRewards(address)": "infinite"
					}
				},
				"methodIdentifiers": {
					"availableRewards(address)": "f854a27f",
					"claimRewards()": "372500ab",
					"getStakedTokens(address)": "63c28db1",
					"nftCollection()": "6588103b",
					"onERC721Received(address,address,uint256,bytes)": "150b7a02",
					"owner()": "8da5cb5b",
					"paused()": "5c975abb",
					"renounceOwnership()": "715018a6",
					"rewardsToken()": "d1af0c7d",
					"stake(uint256)": "a694fc3a",
					"stakerAddress(uint256)": "94067045",
					"stakers(address)": "9168ae72",
					"transferOwnership(address)": "f2fde38b",
					"withdraw(uint256)": "2e1a7d4d"
				}
			},
			"storageLayout": {
				"storage": [
					{
						"astId": 585,
						"contract": "Farm.sol:Farm",
						"label": "_status",
						"offset": 0,
						"slot": "0",
						"type": "t_uint256"
					},
					{
						"astId": 487,
						"contract": "Farm.sol:Farm",
						"label": "_paused",
						"offset": 0,
						"slot": "1",
						"type": "t_bool"
					},
					{
						"astId": 1038,
						"contract": "Farm.sol:Farm",
						"label": "_owner",
						"offset": 1,
						"slot": "1",
						"type": "t_address"
					},
					{
						"astId": 1177,
						"contract": "Farm.sol:Farm",
						"label": "rewardsToken",
						"offset": 0,
						"slot": "2",
						"type": "t_contract(IERC20)454"
					},
					{
						"astId": 1180,
						"contract": "Farm.sol:Farm",
						"label": "nftCollection",
						"offset": 0,
						"slot": "3",
						"type": "t_contract(IERC721)138"
					},
					{
						"astId": 1183,
						"contract": "Farm.sol:Farm",
						"label": "rewardsPerHour",
						"offset": 0,
						"slot": "4",
						"type": "t_uint256"
					},
					{
						"astId": 1188,
						"contract": "Farm.sol:Farm",
						"label": "stakers",
						"offset": 0,
						"slot": "5",
						"type": "t_mapping(t_address,t_struct(Staker)1174_storage)"
					},
					{
						"astId": 1192,
						"contract": "Farm.sol:Farm",
						"label": "stakerAddress",
						"offset": 0,
						"slot": "6",
						"type": "t_mapping(t_uint256,t_address)"
					}
				],
				"types": {
					"t_address": {
						"encoding": "inplace",
						"label": "address",
						"numberOfBytes": "20"
					},
					"t_array(t_struct(StakedToken)1163_storage)dyn_storage": {
						"base": "t_struct(StakedToken)1163_storage",
						"encoding": "dynamic_array",
						"label": "struct Farm.StakedToken[]",
						"numberOfBytes": "32"
					},
					"t_bool": {
						"encoding": "inplace",
						"label": "bool",
						"numberOfBytes": "1"
					},
					"t_contract(IERC20)454": {
						"encoding": "inplace",
						"label": "contract IERC20",
						"numberOfBytes": "20"
					},
					"t_contract(IERC721)138": {
						"encoding": "inplace",
						"label": "contract IERC721",
						"numberOfBytes": "20"
					},
					"t_mapping(t_address,t_struct(Staker)1174_storage)": {
						"encoding": "mapping",
						"key": "t_address",
						"label": "mapping(address => struct Farm.Staker)",
						"numberOfBytes": "32",
						"value": "t_struct(Staker)1174_storage"
					},
					"t_mapping(t_uint256,t_address)": {
						"encoding": "mapping",
						"key": "t_uint256",
						"label": "mapping(uint256 => address)",
						"numberOfBytes": "32",
						"value": "t_address"
					},
					"t_struct(StakedToken)1163_storage": {
						"encoding": "inplace",
						"label": "struct Farm.StakedToken",
						"members": [
							{
								"astId": 1160,
								"contract": "Farm.sol:Farm",
								"label": "staker",
								"offset": 0,
								"slot": "0",
								"type": "t_address"
							},
							{
								"astId": 1162,
								"contract": "Farm.sol:Farm",
								"label": "tokenId",
								"offset": 0,
								"slot": "1",
								"type": "t_uint256"
							}
						],
						"numberOfBytes": "64"
					},
					"t_struct(Staker)1174_storage": {
						"encoding": "inplace",
						"label": "struct Farm.Staker",
						"members": [
							{
								"astId": 1165,
								"contract": "Farm.sol:Farm",
								"label": "amountStaked",
								"offset": 0,
								"slot": "0",
								"type": "t_uint256"
							},
							{
								"astId": 1169,
								"contract": "Farm.sol:Farm",
								"label": "stakedTokens",
								"offset": 0,
								"slot": "1",
								"type": "t_array(t_struct(StakedToken)1163_storage)dyn_storage"
							},
							{
								"astId": 1171,
								"contract": "Farm.sol:Farm",
								"label": "timeOfLastUpdate",
								"offset": 0,
								"slot": "2",
								"type": "t_uint256"
							},
							{
								"astId": 1173,
								"contract": "Farm.sol:Farm",
								"label": "unclaimedRewards",
								"offset": 0,
								"slot": "3",
								"type": "t_uint256"
							}
						],
						"numberOfBytes": "128"
					},
					"t_uint256": {
						"encoding": "inplace",
						"label": "uint256",
						"numberOfBytes": "32"
					}
				}
			},
			"userdoc": {
				"kind": "user",
				"methods": {},
				"version": 1
			}
		}
	}
}