{
	"Farm.sol": {
		"Farm": {
			"abi": [
				{
					"inputs": [
						{
							"internalType": "contract IERC721",
							"name": "_nftCollection",
							"type": "address"
						},
						{
							"internalType": "contract IERC20",
							"name": "_rewardsToken",
							"type": "address"
						},
						{
							"internalType": "uint256",
							"name": "_rewardsPerHour",
							"type": "uint256"
						}
					],
					"stateMutability": "nonpayable",
					"type": "constructor"
				},
				{
					"anonymous": false,
					"inputs": [
						{
							"indexed": true,
							"internalType": "address",
							"name": "previousOwner",
							"type": "address"
						},
						{
							"indexed": true,
							"internalType": "address",
							"name": "newOwner",
							"type": "address"
						}
					],
					"name": "OwnershipTransferred",
					"type": "event"
				},
				{
					"anonymous": false,
					"inputs": [
						{
							"indexed": false,
							"internalType": "address",
							"name": "account",
							"type": "address"
						}
					],
					"name": "Paused",
					"type": "event"
				},
				{
					"anonymous": false,
					"inputs": [
						{
							"indexed": false,
							"internalType": "address",
							"name": "account",
							"type": "address"
						}
					],
					"name": "Unpaused",
					"type": "event"
				},
				{
					"inputs": [],
					"name": "claimRewards",
					"outputs": [],
					"stateMutability": "nonpayable",
					"type": "function"
				},
				{
					"inputs": [
						{
							"internalType": "address",
							"name": "_user",
							"type": "address"
						}
					],
					"name": "getStakedTokens",
					"outputs": [
						{
							"components": [
								{
									"internalType": "address",
									"name": "staker",
									"type": "address"
								},
								{
									"internalType": "uint256",
									"name": "tokenId",
									"type": "uint256"
								}
							],
							"internalType": "struct Farm.StakedToken[]",
							"name": "",
							"type": "tuple[]"
						}
					],
					"stateMutability": "view",
					"type": "function"
				},
				{
					"inputs": [],
					"name": "nftCollection",
					"outputs": [
						{
							"internalType": "contract IERC721",
							"name": "",
							"type": "address"
						}
					],
					"stateMutability": "view",
					"type": "function"
				},
				{
					"inputs": [
						{
							"internalType": "address",
							"name": "operator",
							"type": "address"
						},
						{
							"internalType": "address",
							"name": "from",
							"type": "address"
						},
						{
							"internalType": "uint256",
							"name": "tokenId",
							"type": "uint256"
						},
						{
							"internalType": "bytes",
							"name": "data",
							"type": "bytes"
						}
					],
					"name": "onERC721Received",
					"outputs": [
						{
							"internalType": "bytes4",
							"name": "",
							"type": "bytes4"
						}
					],
					"stateMutability": "pure",
					"type": "function"
				},
				{
					"inputs": [],
					"name": "owner",
					"outputs": [
						{
							"internalType": "address",
							"name": "",
							"type": "address"
						}
					],
					"stateMutability": "view",
					"type": "function"
				},
				{
					"inputs": [],
					"name": "paused",
					"outputs": [
						{
							"internalType": "bool",
							"name": "",
							"type": "bool"
						}
					],
					"stateMutability": "view",
					"type": "function"
				},
				{
					"inputs": [],
					"name": "renounceOwnership",
					"outputs": [],
					"stateMutability": "nonpayable",
					"type": "function"
				},
				{
					"inputs": [],
					"name": "rewardsToken",
					"outputs": [
						{
							"internalType": "contract IERC20",
							"name": "",
							"type": "address"
						}
					],
					"stateMutability": "view",
					"type": "function"
				},
				{
					"inputs": [
						{
							"internalType": "uint256",
							"name": "_tokenId",
							"type": "uint256"
						}
					],
					"name": "stake",
					"outputs": [],
					"stateMutability": "nonpayable",
					"type": "function"
				},
				{
					"inputs": [
						{
							"internalType": "uint256",
							"name": "",
							"type": "uint256"
						}
					],
					"name": "stakerAddress",
					"outputs": [
						{
							"internalType": "address",
							"name": "",
							"type": "address"
						}
					],
					"stateMutability": "view",
					"type": "function"
				},
				{
					"inputs": [
						{
							"internalType": "address",
							"name": "",
							"type": "address"
						}
					],
					"name": "stakers",
					"outputs": [
						{
							"internalType": "uint256",
							"name": "amountStaked",
							"type": "uint256"
						},
						{
							"internalType": "uint256",
							"name": "timeOfLastUpdate",
							"type": "uint256"
						},
						{
							"internalType": "uint256",
							"name": "unclaimedRewards",
							"type": "uint256"
						}
					],
					"stateMutability": "view",
					"type": "function"
				},
				{
					"inputs": [
						{
							"internalType": "address",
							"name": "newOwner",
							"type": "address"
						}
					],
					"name": "transferOwnership",
					"outputs": [],
					"stateMutability": "nonpayable",
					"type": "function"
				},
				{
					"inputs": [
						{
							"internalType": "uint256",
							"name": "_tokenId",
							"type": "uint256"
						}
					],
					"name": "withdraw",
					"outputs": [],
					"stateMutability": "nonpayable",
					"type": "function"
				}
			],
			"devdoc": {
				"kind": "dev",
				"methods": {
					"onERC721Received(address,address,uint256,bytes)": {
						"details": "Whenever an {IERC721} `tokenId` token is transferred to this contract via {IERC721-safeTransferFrom} by `operator` from `from`, this function is called. It must return its Solidity selector to confirm the token transfer. If any other value is returned or the interface is not implemented by the recipient, the transfer will be reverted. The selector can be obtained in Solidity with `IERC721Receiver.onERC721Received.selector`."
					},
					"owner()": {
						"details": "Returns the address of the current owner."
					},
					"paused()": {
						"details": "Returns true if the contract is paused, and false otherwise."
					},
					"renounceOwnership()": {
						"details": "Leaves the contract without owner. It will not be possible to call `onlyOwner` functions anymore. Can only be called by the current owner. NOTE: Renouncing ownership will leave the contract without an owner, thereby removing any functionality that is only available to the owner."
					},
					"transferOwnership(address)": {
						"details": "Transfers ownership of the contract to a new account (`newOwner`). Can only be called by the current owner."
					}
				},
				"version": 1
			},
			"evm": {
				"assembly": "    /* \"Farm.sol\":29748:34242  contract Farm is ReentrancyGuard, Pausable, Ownable, IERC721Receiver {\r... */\n  mstore(0x40, 0x80)\n    /* \"Farm.sol\":30317:30323  100000 */\n  0x0186a0\n    /* \"Farm.sol\":30284:30323  uint256 private rewardsPerHour = 100000 */\n  0x04\n  sstore\n    /* \"Farm.sol\":30520:30734  constructor(IERC721 _nftCollection, IERC20 _rewardsToken, uint256 _rewardsPerHour) {\r... */\n  callvalue\n  dup1\n  iszero\n  tag_1\n  jumpi\n  0x00\n  dup1\n  revert\ntag_1:\n  pop\n  mload(0x40)\n  sub(codesize, bytecodeSize)\n  dup1\n  bytecodeSize\n  dup4\n  codecopy\n  dup2\n  dup2\n  add\n  0x40\n  mstore\n  dup2\n  add\n  swap1\n  tag_2\n  swap2\n  swap1\n  tag_3\n  jump\t// in\ntag_2:\n    /* \"Farm.sol\":18664:18665  1 */\n  0x01\n    /* \"Farm.sol\":18775:18782  _status */\n  0x00\n    /* \"Farm.sol\":18775:18797  _status = _NOT_ENTERED */\n  dup2\n  swap1\n  sstore\n  pop\n    /* \"Farm.sol\":16203:16208  false */\n  0x00\n    /* \"Farm.sol\":16193:16200  _paused */\n  0x01\n  0x00\n    /* \"Farm.sol\":16193:16208  _paused = false */\n  0x0100\n  exp\n  dup2\n  sload\n  dup2\n  0xff\n  mul\n  not\n  and\n  swap1\n  dup4\n  iszero\n  iszero\n  mul\n  or\n  swap1\n  sstore\n  pop\n    /* \"Farm.sol\":28002:28034  _transferOwnership(_msgSender()) */\n  tag_11\n    /* \"Farm.sol\":28021:28033  _msgSender() */\n  tag_12\n    /* \"Farm.sol\":28021:28031  _msgSender */\n  shl(0x20, tag_13)\n    /* \"Farm.sol\":28021:28033  _msgSender() */\n  0x20\n  shr\n  jump\t// in\ntag_12:\n    /* \"Farm.sol\":28002:28020  _transferOwnership */\n  shl(0x20, tag_14)\n    /* \"Farm.sol\":28002:28034  _transferOwnership(_msgSender()) */\n  0x20\n  shr\n  jump\t// in\ntag_11:\n    /* \"Farm.sol\":30630:30644  _nftCollection */\n  dup3\n    /* \"Farm.sol\":30614:30627  nftCollection */\n  0x03\n  0x00\n    /* \"Farm.sol\":30614:30644  nftCollection = _nftCollection */\n  0x0100\n  exp\n  dup2\n  sload\n  dup2\n  0xffffffffffffffffffffffffffffffffffffffff\n  mul\n  not\n  and\n  swap1\n  dup4\n  0xffffffffffffffffffffffffffffffffffffffff\n  and\n  mul\n  or\n  swap1\n  sstore\n  pop\n    /* \"Farm.sol\":30670:30683  _rewardsToken */\n  dup2\n    /* \"Farm.sol\":30655:30667  rewardsToken */\n  0x02\n  0x00\n    /* \"Farm.sol\":30655:30683  rewardsToken = _rewardsToken */\n  0x0100\n  exp\n  dup2\n  sload\n  dup2\n  0xffffffffffffffffffffffffffffffffffffffff\n  mul\n  not\n  and\n  swap1\n  dup4\n  0xffffffffffffffffffffffffffffffffffffffff\n  and\n  mul\n  or\n  swap1\n  sstore\n  pop\n    /* \"Farm.sol\":30711:30726  _rewardsPerHour */\n  dup1\n    /* \"Farm.sol\":30694:30708  rewardsPerHour */\n  0x04\n    /* \"Farm.sol\":30694:30726  rewardsPerHour = _rewardsPerHour */\n  dup2\n  swap1\n  sstore\n  pop\n    /* \"Farm.sol\":30520:30734  constructor(IERC721 _nftCollection, IERC20 _rewardsToken, uint256 _rewardsPerHour) {\r... */\n  pop\n  pop\n  pop\n    /* \"Farm.sol\":29748:34242  contract Farm is ReentrancyGuard, Pausable, Ownable, IERC721Receiver {\r... */\n  jump(tag_16)\n    /* \"Farm.sol\":15568:15666  function _msgSender() internal view virtual returns (address) {\r... */\ntag_13:\n    /* \"Farm.sol\":15621:15628  address */\n  0x00\n    /* \"Farm.sol\":15648:15658  msg.sender */\n  caller\n    /* \"Farm.sol\":15641:15658  return msg.sender */\n  swap1\n  pop\n    /* \"Farm.sol\":15568:15666  function _msgSender() internal view virtual returns (address) {\r... */\n  swap1\n  jump\t// out\n    /* \"Farm.sol\":29548:29739  function _transferOwnership(address newOwner) internal virtual {\r... */\ntag_14:\n    /* \"Farm.sol\":29622:29638  address oldOwner */\n  0x00\n    /* \"Farm.sol\":29641:29647  _owner */\n  0x01\n  dup1\n  sload\n  swap1\n  0x0100\n  exp\n  swap1\n  div\n  0xffffffffffffffffffffffffffffffffffffffff\n  and\n    /* \"Farm.sol\":29622:29647  address oldOwner = _owner */\n  swap1\n  pop\n    /* \"Farm.sol\":29667:29675  newOwner */\n  dup2\n    /* \"Farm.sol\":29658:29664  _owner */\n  0x01\n  dup1\n    /* \"Farm.sol\":29658:29675  _owner = newOwner */\n  0x0100\n  exp\n  dup2\n  sload\n  dup2\n  0xffffffffffffffffffffffffffffffffffffffff\n  mul\n  not\n  and\n  swap1\n  dup4\n  0xffffffffffffffffffffffffffffffffffffffff\n  and\n  mul\n  or\n  swap1\n  sstore\n  pop\n    /* \"Farm.sol\":29722:29730  newOwner */\n  dup2\n    /* \"Farm.sol\":29691:29731  OwnershipTransferred(oldOwner, newOwner) */\n  0xffffffffffffffffffffffffffffffffffffffff\n  and\n    /* \"Farm.sol\":29712:29720  oldOwner */\n  dup2\n    /* \"Farm.sol\":29691:29731  OwnershipTransferred(oldOwner, newOwner) */\n  0xffffffffffffffffffffffffffffffffffffffff\n  and\n  0x8be0079c531659141344cd1fd0a4f28419497f9722a3daafe3b4186f6b6457e0\n  mload(0x40)\n  mload(0x40)\n  dup1\n  swap2\n  sub\n  swap1\n  log3\n    /* \"Farm.sol\":29611:29739  {\r... */\n  pop\n    /* \"Farm.sol\":29548:29739  function _transferOwnership(address newOwner) internal virtual {\r... */\n  pop\n  jump\t// out\n    /* \"#utility.yul\":7:178   */\ntag_20:\n    /* \"#utility.yul\":78:83   */\n  0x00\n    /* \"#utility.yul\":109:115   */\n  dup2\n    /* \"#utility.yul\":103:116   */\n  mload\n    /* \"#utility.yul\":94:116   */\n  swap1\n  pop\n    /* \"#utility.yul\":125:172   */\n  tag_22\n    /* \"#utility.yul\":166:171   */\n  dup2\n    /* \"#utility.yul\":125:172   */\n  tag_23\n  jump\t// in\ntag_22:\n    /* \"#utility.yul\":7:178   */\n  swap3\n  swap2\n  pop\n  pop\n  jump\t// out\n    /* \"#utility.yul\":184:357   */\ntag_24:\n    /* \"#utility.yul\":256:261   */\n  0x00\n    /* \"#utility.yul\":287:293   */\n  dup2\n    /* \"#utility.yul\":281:294   */\n  mload\n    /* \"#utility.yul\":272:294   */\n  swap1\n  pop\n    /* \"#utility.yul\":303:351   */\n  tag_26\n    /* \"#utility.yul\":345:350   */\n  dup2\n    /* \"#utility.yul\":303:351   */\n  tag_27\n  jump\t// in\ntag_26:\n    /* \"#utility.yul\":184:357   */\n  swap3\n  swap2\n  pop\n  pop\n  jump\t// out\n    /* \"#utility.yul\":363:506   */\ntag_28:\n    /* \"#utility.yul\":420:425   */\n  0x00\n    /* \"#utility.yul\":451:457   */\n  dup2\n    /* \"#utility.yul\":445:458   */\n  mload\n    /* \"#utility.yul\":436:458   */\n  swap1\n  pop\n    /* \"#utility.yul\":467:500   */\n  tag_30\n    /* \"#utility.yul\":494:499   */\n  dup2\n    /* \"#utility.yul\":467:500   */\n  tag_31\n  jump\t// in\ntag_30:\n    /* \"#utility.yul\":363:506   */\n  swap3\n  swap2\n  pop\n  pop\n  jump\t// out\n    /* \"#utility.yul\":512:1233   */\ntag_3:\n    /* \"#utility.yul\":629:635   */\n  0x00\n    /* \"#utility.yul\":637:643   */\n  dup1\n    /* \"#utility.yul\":645:651   */\n  0x00\n    /* \"#utility.yul\":694:696   */\n  0x60\n    /* \"#utility.yul\":682:691   */\n  dup5\n    /* \"#utility.yul\":673:680   */\n  dup7\n    /* \"#utility.yul\":669:692   */\n  sub\n    /* \"#utility.yul\":665:697   */\n  slt\n    /* \"#utility.yul\":662:781   */\n  iszero\n  tag_33\n  jumpi\n    /* \"#utility.yul\":700:779   */\n  tag_34\n  tag_35\n  jump\t// in\ntag_34:\n    /* \"#utility.yul\":662:781   */\ntag_33:\n    /* \"#utility.yul\":820:821   */\n  0x00\n    /* \"#utility.yul\":845:924   */\n  tag_36\n    /* \"#utility.yul\":916:923   */\n  dup7\n    /* \"#utility.yul\":907:913   */\n  dup3\n    /* \"#utility.yul\":896:905   */\n  dup8\n    /* \"#utility.yul\":892:914   */\n  add\n    /* \"#utility.yul\":845:924   */\n  tag_24\n  jump\t// in\ntag_36:\n    /* \"#utility.yul\":835:924   */\n  swap4\n  pop\n    /* \"#utility.yul\":791:934   */\n  pop\n    /* \"#utility.yul\":973:975   */\n  0x20\n    /* \"#utility.yul\":999:1077   */\n  tag_37\n    /* \"#utility.yul\":1069:1076   */\n  dup7\n    /* \"#utility.yul\":1060:1066   */\n  dup3\n    /* \"#utility.yul\":1049:1058   */\n  dup8\n    /* \"#utility.yul\":1045:1067   */\n  add\n    /* \"#utility.yul\":999:1077   */\n  tag_20\n  jump\t// in\ntag_37:\n    /* \"#utility.yul\":989:1077   */\n  swap3\n  pop\n    /* \"#utility.yul\":944:1087   */\n  pop\n    /* \"#utility.yul\":1126:1128   */\n  0x40\n    /* \"#utility.yul\":1152:1216   */\n  tag_38\n    /* \"#utility.yul\":1208:1215   */\n  dup7\n    /* \"#utility.yul\":1199:1205   */\n  dup3\n    /* \"#utility.yul\":1188:1197   */\n  dup8\n    /* \"#utility.yul\":1184:1206   */\n  add\n    /* \"#utility.yul\":1152:1216   */\n  tag_28\n  jump\t// in\ntag_38:\n    /* \"#utility.yul\":1142:1216   */\n  swap2\n  pop\n    /* \"#utility.yul\":1097:1226   */\n  pop\n    /* \"#utility.yul\":512:1233   */\n  swap3\n  pop\n  swap3\n  pop\n  swap3\n  jump\t// out\n    /* \"#utility.yul\":1320:1416   */\ntag_41:\n    /* \"#utility.yul\":1357:1364   */\n  0x00\n    /* \"#utility.yul\":1386:1410   */\n  tag_43\n    /* \"#utility.yul\":1404:1409   */\n  dup3\n    /* \"#utility.yul\":1386:1410   */\n  tag_44\n  jump\t// in\ntag_43:\n    /* \"#utility.yul\":1375:1410   */\n  swap1\n  pop\n    /* \"#utility.yul\":1320:1416   */\n  swap2\n  swap1\n  pop\n  jump\t// out\n    /* \"#utility.yul\":1422:1532   */\ntag_45:\n    /* \"#utility.yul\":1473:1480   */\n  0x00\n    /* \"#utility.yul\":1502:1526   */\n  tag_47\n    /* \"#utility.yul\":1520:1525   */\n  dup3\n    /* \"#utility.yul\":1502:1526   */\n  tag_41\n  jump\t// in\ntag_47:\n    /* \"#utility.yul\":1491:1526   */\n  swap1\n  pop\n    /* \"#utility.yul\":1422:1532   */\n  swap2\n  swap1\n  pop\n  jump\t// out\n    /* \"#utility.yul\":1538:1649   */\ntag_48:\n    /* \"#utility.yul\":1590:1597   */\n  0x00\n    /* \"#utility.yul\":1619:1643   */\n  tag_50\n    /* \"#utility.yul\":1637:1642   */\n  dup3\n    /* \"#utility.yul\":1619:1643   */\n  tag_41\n  jump\t// in\ntag_50:\n    /* \"#utility.yul\":1608:1643   */\n  swap1\n  pop\n    /* \"#utility.yul\":1538:1649   */\n  swap2\n  swap1\n  pop\n  jump\t// out\n    /* \"#utility.yul\":1655:1781   */\ntag_44:\n    /* \"#utility.yul\":1692:1699   */\n  0x00\n    /* \"#utility.yul\":1732:1774   */\n  0xffffffffffffffffffffffffffffffffffffffff\n    /* \"#utility.yul\":1725:1730   */\n  dup3\n    /* \"#utility.yul\":1721:1775   */\n  and\n    /* \"#utility.yul\":1710:1775   */\n  swap1\n  pop\n    /* \"#utility.yul\":1655:1781   */\n  swap2\n  swap1\n  pop\n  jump\t// out\n    /* \"#utility.yul\":1787:1864   */\ntag_52:\n    /* \"#utility.yul\":1824:1831   */\n  0x00\n    /* \"#utility.yul\":1853:1858   */\n  dup2\n    /* \"#utility.yul\":1842:1858   */\n  swap1\n  pop\n    /* \"#utility.yul\":1787:1864   */\n  swap2\n  swap1\n  pop\n  jump\t// out\n    /* \"#utility.yul\":1993:2110   */\ntag_35:\n    /* \"#utility.yul\":2102:2103   */\n  0x00\n    /* \"#utility.yul\":2099:2100   */\n  dup1\n    /* \"#utility.yul\":2092:2104   */\n  revert\n    /* \"#utility.yul\":2116:2266   */\ntag_23:\n    /* \"#utility.yul\":2203:2241   */\n  tag_58\n    /* \"#utility.yul\":2235:2240   */\n  dup2\n    /* \"#utility.yul\":2203:2241   */\n  tag_45\n  jump\t// in\ntag_58:\n    /* \"#utility.yul\":2196:2201   */\n  dup2\n    /* \"#utility.yul\":2193:2242   */\n  eq\n    /* \"#utility.yul\":2183:2260   */\n  tag_59\n  jumpi\n    /* \"#utility.yul\":2256:2257   */\n  0x00\n    /* \"#utility.yul\":2253:2254   */\n  dup1\n    /* \"#utility.yul\":2246:2258   */\n  revert\n    /* \"#utility.yul\":2183:2260   */\ntag_59:\n    /* \"#utility.yul\":2116:2266   */\n  pop\n  jump\t// out\n    /* \"#utility.yul\":2272:2424   */\ntag_27:\n    /* \"#utility.yul\":2360:2399   */\n  tag_61\n    /* \"#utility.yul\":2393:2398   */\n  dup2\n    /* \"#utility.yul\":2360:2399   */\n  tag_48\n  jump\t// in\ntag_61:\n    /* \"#utility.yul\":2353:2358   */\n  dup2\n    /* \"#utility.yul\":2350:2400   */\n  eq\n    /* \"#utility.yul\":2340:2418   */\n  tag_62\n  jumpi\n    /* \"#utility.yul\":2414:2415   */\n  0x00\n    /* \"#utility.yul\":2411:2412   */\n  dup1\n    /* \"#utility.yul\":2404:2416   */\n  revert\n    /* \"#utility.yul\":2340:2418   */\ntag_62:\n    /* \"#utility.yul\":2272:2424   */\n  pop\n  jump\t// out\n    /* \"#utility.yul\":2430:2552   */\ntag_31:\n    /* \"#utility.yul\":2503:2527   */\n  tag_64\n    /* \"#utility.yul\":2521:2526   */\n  dup2\n    /* \"#utility.yul\":2503:2527   */\n  tag_52\n  jump\t// in\ntag_64:\n    /* \"#utility.yul\":2496:2501   */\n  dup2\n    /* \"#utility.yul\":2493:2528   */\n  eq\n    /* \"#utility.yul\":2483:2546   */\n  tag_65\n  jumpi\n    /* \"#utility.yul\":2542:2543   */\n  0x00\n    /* \"#utility.yul\":2539:2540   */\n  dup1\n    /* \"#utility.yul\":2532:2544   */\n  revert\n    /* \"#utility.yul\":2483:2546   */\ntag_65:\n    /* \"#utility.yul\":2430:2552   */\n  pop\n  jump\t// out\n    /* \"Farm.sol\":29748:34242  contract Farm is ReentrancyGuard, Pausable, Ownable, IERC721Receiver {\r... */\ntag_16:\n  dataSize(sub_0)\n  dup1\n  dataOffset(sub_0)\n  0x00\n  codecopy\n  0x00\n  return\nstop\n\nsub_0: assembly {\n        /* \"Farm.sol\":29748:34242  contract Farm is ReentrancyGuard, Pausable, Ownable, IERC721Receiver {\r... */\n      mstore(0x40, 0x80)\n      callvalue\n      dup1\n      iszero\n      tag_1\n      jumpi\n      0x00\n      dup1\n      revert\n    tag_1:\n      pop\n      jumpi(tag_2, lt(calldatasize, 0x04))\n      shr(0xe0, calldataload(0x00))\n      dup1\n      0x715018a6\n      gt\n      tag_16\n      jumpi\n      dup1\n      0x94067045\n      gt\n      tag_17\n      jumpi\n      dup1\n      0x94067045\n      eq\n      tag_12\n      jumpi\n      dup1\n      0xa694fc3a\n      eq\n      tag_13\n      jumpi\n      dup1\n      0xd1af0c7d\n      eq\n      tag_14\n      jumpi\n      dup1\n      0xf2fde38b\n      eq\n      tag_15\n      jumpi\n      jump(tag_2)\n    tag_17:\n      dup1\n      0x715018a6\n      eq\n      tag_9\n      jumpi\n      dup1\n      0x8da5cb5b\n      eq\n      tag_10\n      jumpi\n      dup1\n      0x9168ae72\n      eq\n      tag_11\n      jumpi\n      jump(tag_2)\n    tag_16:\n      dup1\n      0x150b7a02\n      eq\n      tag_3\n      jumpi\n      dup1\n      0x2e1a7d4d\n      eq\n      tag_4\n      jumpi\n      dup1\n      0x372500ab\n      eq\n      tag_5\n      jumpi\n      dup1\n      0x5c975abb\n      eq\n      tag_6\n      jumpi\n      dup1\n      0x63c28db1\n      eq\n      tag_7\n      jumpi\n      dup1\n      0x6588103b\n      eq\n      tag_8\n      jumpi\n    tag_2:\n      0x00\n      dup1\n      revert\n        /* \"Farm.sol\":30742:31013  function onERC721Received(\r... */\n    tag_3:\n      tag_18\n      0x04\n      dup1\n      calldatasize\n      sub\n      dup2\n      add\n      swap1\n      tag_19\n      swap2\n      swap1\n      tag_20\n      jump\t// in\n    tag_19:\n      tag_21\n      jump\t// in\n    tag_18:\n      mload(0x40)\n      tag_22\n      swap2\n      swap1\n      tag_23\n      jump\t// in\n    tag_22:\n      mload(0x40)\n      dup1\n      swap2\n      sub\n      swap1\n      return\n        /* \"Farm.sol\":31785:32849  function withdraw(uint256 _tokenId) external nonReentrant {\r... */\n    tag_4:\n      tag_24\n      0x04\n      dup1\n      calldatasize\n      sub\n      dup2\n      add\n      swap1\n      tag_25\n      swap2\n      swap1\n      tag_26\n      jump\t// in\n    tag_25:\n      tag_27\n      jump\t// in\n    tag_24:\n      stop\n        /* \"Farm.sol\":33165:33551  function claimRewards() external {\r... */\n    tag_5:\n      tag_28\n      tag_29\n      jump\t// in\n    tag_28:\n      stop\n        /* \"Farm.sol\":16842:16928  function paused() public view virtual returns (bool) {\r... */\n    tag_6:\n      tag_30\n      tag_31\n      jump\t// in\n    tag_30:\n      mload(0x40)\n      tag_32\n      swap2\n      swap1\n      tag_33\n      jump\t// in\n    tag_32:\n      mload(0x40)\n      dup1\n      swap2\n      sub\n      swap1\n      return\n        /* \"Farm.sol\":33559:34239  function getStakedTokens(address _user) public view returns (StakedToken[] memory) {\r... */\n    tag_7:\n      tag_34\n      0x04\n      dup1\n      calldatasize\n      sub\n      dup2\n      add\n      swap1\n      tag_35\n      swap2\n      swap1\n      tag_36\n      jump\t// in\n    tag_35:\n      tag_37\n      jump\t// in\n    tag_34:\n      mload(0x40)\n      tag_38\n      swap2\n      swap1\n      tag_39\n      jump\t// in\n    tag_38:\n      mload(0x40)\n      dup1\n      swap2\n      sub\n      swap1\n      return\n        /* \"Farm.sol\":30197:30225  IERC721 public nftCollection */\n    tag_8:\n      tag_40\n      tag_41\n      jump\t// in\n    tag_40:\n      mload(0x40)\n      tag_42\n      swap2\n      swap1\n      tag_43\n      jump\t// in\n    tag_42:\n      mload(0x40)\n      dup1\n      swap2\n      sub\n      swap1\n      return\n        /* \"Farm.sol\":28929:29032  function renounceOwnership() public virtual onlyOwner {\r... */\n    tag_9:\n      tag_44\n      tag_45\n      jump\t// in\n    tag_44:\n      stop\n        /* \"Farm.sol\":28281:28368  function owner() public view virtual returns (address) {\r... */\n    tag_10:\n      tag_46\n      tag_47\n      jump\t// in\n    tag_46:\n      mload(0x40)\n      tag_48\n      swap2\n      swap1\n      tag_49\n      jump\t// in\n    tag_48:\n      mload(0x40)\n      dup1\n      swap2\n      sub\n      swap1\n      return\n        /* \"Farm.sol\":30336:30377  mapping(address => Staker) public stakers */\n    tag_11:\n      tag_50\n      0x04\n      dup1\n      calldatasize\n      sub\n      dup2\n      add\n      swap1\n      tag_51\n      swap2\n      swap1\n      tag_36\n      jump\t// in\n    tag_51:\n      tag_52\n      jump\t// in\n    tag_50:\n      mload(0x40)\n      tag_53\n      swap4\n      swap3\n      swap2\n      swap1\n      tag_54\n      jump\t// in\n    tag_53:\n      mload(0x40)\n      dup1\n      swap2\n      sub\n      swap1\n      return\n        /* \"Farm.sol\":30463:30511  mapping(uint256 => address) public stakerAddress */\n    tag_12:\n      tag_55\n      0x04\n      dup1\n      calldatasize\n      sub\n      dup2\n      add\n      swap1\n      tag_56\n      swap2\n      swap1\n      tag_26\n      jump\t// in\n    tag_56:\n      tag_57\n      jump\t// in\n    tag_55:\n      mload(0x40)\n      tag_58\n      swap2\n      swap1\n      tag_49\n      jump\t// in\n    tag_58:\n      mload(0x40)\n      dup1\n      swap2\n      sub\n      swap1\n      return\n        /* \"Farm.sol\":31021:31777  function stake(uint256 _tokenId) external nonReentrant {\r... */\n    tag_13:\n      tag_59\n      0x04\n      dup1\n      calldatasize\n      sub\n      dup2\n      add\n      swap1\n      tag_60\n      swap2\n      swap1\n      tag_26\n      jump\t// in\n    tag_60:\n      tag_61\n      jump\t// in\n    tag_59:\n      stop\n        /* \"Farm.sol\":30164:30190  IERC20 public rewardsToken */\n    tag_14:\n      tag_62\n      tag_63\n      jump\t// in\n    tag_62:\n      mload(0x40)\n      tag_64\n      swap2\n      swap1\n      tag_65\n      jump\t// in\n    tag_64:\n      mload(0x40)\n      dup1\n      swap2\n      sub\n      swap1\n      return\n        /* \"Farm.sol\":29187:29388  function transferOwnership(address newOwner) public virtual onlyOwner {\r... */\n    tag_15:\n      tag_66\n      0x04\n      dup1\n      calldatasize\n      sub\n      dup2\n      add\n      swap1\n      tag_67\n      swap2\n      swap1\n      tag_36\n      jump\t// in\n    tag_67:\n      tag_68\n      jump\t// in\n    tag_66:\n      stop\n        /* \"Farm.sol\":30742:31013  function onERC721Received(\r... */\n    tag_21:\n        /* \"Farm.sol\":30913:30919  bytes4 */\n      0x00\n        /* \"Farm.sol\":30973:30981  operator */\n      dup6\n        /* \"Farm.sol\":30983:30987  from */\n      dup6\n        /* \"Farm.sol\":30989:30996  tokenId */\n      dup6\n        /* \"Farm.sol\":30998:31002  data */\n      dup6\n      dup6\n        /* \"Farm.sol\":30956:31003  abi.encodePacked(operator, from, tokenId, data) */\n      add(0x20, mload(0x40))\n      tag_70\n      swap6\n      swap5\n      swap4\n      swap3\n      swap2\n      swap1\n      tag_71\n      jump\t// in\n    tag_70:\n      mload(0x40)\n      0x20\n      dup2\n      dup4\n      sub\n      sub\n      dup2\n      mstore\n      swap1\n      0x40\n      mstore\n        /* \"Farm.sol\":30946:31004  keccak256(abi.encodePacked(operator, from, tokenId, data)) */\n      dup1\n      mload\n      swap1\n      0x20\n      add\n      keccak256\n        /* \"Farm.sol\":30932:31005  return bytes4(keccak256(abi.encodePacked(operator, from, tokenId, data))) */\n      swap1\n      pop\n        /* \"Farm.sol\":30742:31013  function onERC721Received(\r... */\n      swap6\n      swap5\n      pop\n      pop\n      pop\n      pop\n      pop\n      jump\t// out\n        /* \"Farm.sol\":31785:32849  function withdraw(uint256 _tokenId) external nonReentrant {\r... */\n    tag_27:\n        /* \"Farm.sol\":19226:19247  _nonReentrantBefore() */\n      tag_73\n        /* \"Farm.sol\":19226:19245  _nonReentrantBefore */\n      tag_74\n        /* \"Farm.sol\":19226:19247  _nonReentrantBefore() */\n      jump\t// in\n    tag_73:\n        /* \"Farm.sol\":31911:31912  0 */\n      0x00\n        /* \"Farm.sol\":31876:31883  stakers */\n      0x05\n        /* \"Farm.sol\":31876:31895  stakers[msg.sender] */\n      0x00\n        /* \"Farm.sol\":31884:31894  msg.sender */\n      caller\n        /* \"Farm.sol\":31876:31895  stakers[msg.sender] */\n      0xffffffffffffffffffffffffffffffffffffffff\n      and\n      0xffffffffffffffffffffffffffffffffffffffff\n      and\n      dup2\n      mstore\n      0x20\n      add\n      swap1\n      dup2\n      mstore\n      0x20\n      add\n      0x00\n      keccak256\n        /* \"Farm.sol\":31876:31908  stakers[msg.sender].amountStaked */\n      0x00\n      add\n      sload\n        /* \"Farm.sol\":31876:31912  stakers[msg.sender].amountStaked > 0 */\n      gt\n        /* \"Farm.sol\":31854:31965  require(\r... */\n      tag_76\n      jumpi\n      mload(0x40)\n      0x08c379a000000000000000000000000000000000000000000000000000000000\n      dup2\n      mstore\n      0x04\n      add\n      tag_77\n      swap1\n      tag_78\n      jump\t// in\n    tag_77:\n      mload(0x40)\n      dup1\n      swap2\n      sub\n      swap1\n      revert\n    tag_76:\n        /* \"Farm.sol\":32011:32021  msg.sender */\n      caller\n        /* \"Farm.sol\":31984:32021  stakerAddress[_tokenId] == msg.sender */\n      0xffffffffffffffffffffffffffffffffffffffff\n      and\n        /* \"Farm.sol\":31984:31997  stakerAddress */\n      0x06\n        /* \"Farm.sol\":31984:32007  stakerAddress[_tokenId] */\n      0x00\n        /* \"Farm.sol\":31998:32006  _tokenId */\n      dup4\n        /* \"Farm.sol\":31984:32007  stakerAddress[_tokenId] */\n      dup2\n      mstore\n      0x20\n      add\n      swap1\n      dup2\n      mstore\n      0x20\n      add\n      0x00\n      keccak256\n      0x00\n      swap1\n      sload\n      swap1\n      0x0100\n      exp\n      swap1\n      div\n      0xffffffffffffffffffffffffffffffffffffffff\n      and\n        /* \"Farm.sol\":31984:32021  stakerAddress[_tokenId] == msg.sender */\n      0xffffffffffffffffffffffffffffffffffffffff\n      and\n      eq\n        /* \"Farm.sol\":31976:32051  require(stakerAddress[_tokenId] == msg.sender, \"You don't own this token!\") */\n      tag_79\n      jumpi\n      mload(0x40)\n      0x08c379a000000000000000000000000000000000000000000000000000000000\n      dup2\n      mstore\n      0x04\n      add\n      tag_80\n      swap1\n      tag_81\n      jump\t// in\n    tag_80:\n      mload(0x40)\n      dup1\n      swap2\n      sub\n      swap1\n      revert\n    tag_79:\n        /* \"Farm.sol\":32163:32178  uint256 rewards */\n      0x00\n        /* \"Farm.sol\":32181:32209  calculateRewards(msg.sender) */\n      tag_82\n        /* \"Farm.sol\":32198:32208  msg.sender */\n      caller\n        /* \"Farm.sol\":32181:32197  calculateRewards */\n      tag_83\n        /* \"Farm.sol\":32181:32209  calculateRewards(msg.sender) */\n      jump\t// in\n    tag_82:\n        /* \"Farm.sol\":32163:32209  uint256 rewards = calculateRewards(msg.sender) */\n      swap1\n      pop\n        /* \"Farm.sol\":32260:32267  rewards */\n      dup1\n        /* \"Farm.sol\":32220:32227  stakers */\n      0x05\n        /* \"Farm.sol\":32220:32239  stakers[msg.sender] */\n      0x00\n        /* \"Farm.sol\":32228:32238  msg.sender */\n      caller\n        /* \"Farm.sol\":32220:32239  stakers[msg.sender] */\n      0xffffffffffffffffffffffffffffffffffffffff\n      and\n      0xffffffffffffffffffffffffffffffffffffffff\n      and\n      dup2\n      mstore\n      0x20\n      add\n      swap1\n      dup2\n      mstore\n      0x20\n      add\n      0x00\n      keccak256\n        /* \"Farm.sol\":32220:32256  stakers[msg.sender].unclaimedRewards */\n      0x03\n      add\n      0x00\n        /* \"Farm.sol\":32220:32267  stakers[msg.sender].unclaimedRewards += rewards */\n      dup3\n      dup3\n      sload\n      tag_84\n      swap2\n      swap1\n      tag_85\n      jump\t// in\n    tag_84:\n      swap3\n      pop\n      pop\n      dup2\n      swap1\n      sstore\n      pop\n        /* \"Farm.sol\":32282:32295  uint256 index */\n      0x00\n        /* \"Farm.sol\":32315:32324  uint256 i */\n      dup1\n        /* \"Farm.sol\":32310:32535  for (uint256 i = 0; i < stakers[msg.sender].stakedTokens.length; i++) {\r... */\n    tag_86:\n        /* \"Farm.sol\":32334:32341  stakers */\n      0x05\n        /* \"Farm.sol\":32334:32353  stakers[msg.sender] */\n      0x00\n        /* \"Farm.sol\":32342:32352  msg.sender */\n      caller\n        /* \"Farm.sol\":32334:32353  stakers[msg.sender] */\n      0xffffffffffffffffffffffffffffffffffffffff\n      and\n      0xffffffffffffffffffffffffffffffffffffffff\n      and\n      dup2\n      mstore\n      0x20\n      add\n      swap1\n      dup2\n      mstore\n      0x20\n      add\n      0x00\n      keccak256\n        /* \"Farm.sol\":32334:32366  stakers[msg.sender].stakedTokens */\n      0x01\n      add\n        /* \"Farm.sol\":32334:32373  stakers[msg.sender].stakedTokens.length */\n      dup1\n      sload\n      swap1\n      pop\n        /* \"Farm.sol\":32330:32331  i */\n      dup2\n        /* \"Farm.sol\":32330:32373  i < stakers[msg.sender].stakedTokens.length */\n      lt\n        /* \"Farm.sol\":32310:32535  for (uint256 i = 0; i < stakers[msg.sender].stakedTokens.length; i++) {\r... */\n      iszero\n      tag_87\n      jumpi\n        /* \"Farm.sol\":32446:32454  _tokenId */\n      dup4\n        /* \"Farm.sol\":32399:32406  stakers */\n      0x05\n        /* \"Farm.sol\":32399:32418  stakers[msg.sender] */\n      0x00\n        /* \"Farm.sol\":32407:32417  msg.sender */\n      caller\n        /* \"Farm.sol\":32399:32418  stakers[msg.sender] */\n      0xffffffffffffffffffffffffffffffffffffffff\n      and\n      0xffffffffffffffffffffffffffffffffffffffff\n      and\n      dup2\n      mstore\n      0x20\n      add\n      swap1\n      dup2\n      mstore\n      0x20\n      add\n      0x00\n      keccak256\n        /* \"Farm.sol\":32399:32431  stakers[msg.sender].stakedTokens */\n      0x01\n      add\n        /* \"Farm.sol\":32432:32433  i */\n      dup3\n        /* \"Farm.sol\":32399:32434  stakers[msg.sender].stakedTokens[i] */\n      dup2\n      sload\n      dup2\n      lt\n      tag_89\n      jumpi\n      tag_90\n      tag_91\n      jump\t// in\n    tag_90:\n    tag_89:\n      swap1\n      0x00\n      mstore\n      keccak256(0x00, 0x20)\n      swap1\n      0x02\n      mul\n      add\n        /* \"Farm.sol\":32399:32442  stakers[msg.sender].stakedTokens[i].tokenId */\n      0x01\n      add\n      sload\n        /* \"Farm.sol\":32399:32454  stakers[msg.sender].stakedTokens[i].tokenId == _tokenId */\n      eq\n        /* \"Farm.sol\":32395:32524  if (stakers[msg.sender].stakedTokens[i].tokenId == _tokenId) {\r... */\n      iszero\n      tag_93\n      jumpi\n        /* \"Farm.sol\":32483:32484  i */\n      dup1\n        /* \"Farm.sol\":32475:32484  index = i */\n      swap2\n      pop\n        /* \"Farm.sol\":32503:32508  break */\n      jump(tag_87)\n        /* \"Farm.sol\":32395:32524  if (stakers[msg.sender].stakedTokens[i].tokenId == _tokenId) {\r... */\n    tag_93:\n        /* \"Farm.sol\":32375:32378  i++ */\n      dup1\n      dup1\n      tag_94\n      swap1\n      tag_95\n      jump\t// in\n    tag_94:\n      swap2\n      pop\n      pop\n        /* \"Farm.sol\":32310:32535  for (uint256 i = 0; i < stakers[msg.sender].stakedTokens.length; i++) {\r... */\n      jump(tag_86)\n    tag_87:\n      pop\n        /* \"Farm.sol\":32606:32607  0 */\n      0x00\n        /* \"Farm.sol\":32549:32556  stakers */\n      0x05\n        /* \"Farm.sol\":32549:32568  stakers[msg.sender] */\n      0x00\n        /* \"Farm.sol\":32557:32567  msg.sender */\n      caller\n        /* \"Farm.sol\":32549:32568  stakers[msg.sender] */\n      0xffffffffffffffffffffffffffffffffffffffff\n      and\n      0xffffffffffffffffffffffffffffffffffffffff\n      and\n      dup2\n      mstore\n      0x20\n      add\n      swap1\n      dup2\n      mstore\n      0x20\n      add\n      0x00\n      keccak256\n        /* \"Farm.sol\":32549:32581  stakers[msg.sender].stakedTokens */\n      0x01\n      add\n        /* \"Farm.sol\":32582:32587  index */\n      dup3\n        /* \"Farm.sol\":32549:32588  stakers[msg.sender].stakedTokens[index] */\n      dup2\n      sload\n      dup2\n      lt\n      tag_96\n      jumpi\n      tag_97\n      tag_91\n      jump\t// in\n    tag_97:\n    tag_96:\n      swap1\n      0x00\n      mstore\n      keccak256(0x00, 0x20)\n      swap1\n      0x02\n      mul\n      add\n        /* \"Farm.sol\":32549:32595  stakers[msg.sender].stakedTokens[index].staker */\n      0x00\n      add\n      0x00\n        /* \"Farm.sol\":32549:32608  stakers[msg.sender].stakedTokens[index].staker = address(0) */\n      0x0100\n      exp\n      dup2\n      sload\n      dup2\n      0xffffffffffffffffffffffffffffffffffffffff\n      mul\n      not\n      and\n      swap1\n      dup4\n      0xffffffffffffffffffffffffffffffffffffffff\n      and\n      mul\n      or\n      swap1\n      sstore\n      pop\n        /* \"Farm.sol\":32619:32626  stakers */\n      0x05\n        /* \"Farm.sol\":32619:32638  stakers[msg.sender] */\n      0x00\n        /* \"Farm.sol\":32627:32637  msg.sender */\n      caller\n        /* \"Farm.sol\":32619:32638  stakers[msg.sender] */\n      0xffffffffffffffffffffffffffffffffffffffff\n      and\n      0xffffffffffffffffffffffffffffffffffffffff\n      and\n      dup2\n      mstore\n      0x20\n      add\n      swap1\n      dup2\n      mstore\n      0x20\n      add\n      0x00\n      keccak256\n        /* \"Farm.sol\":32619:32651  stakers[msg.sender].amountStaked */\n      0x00\n      add\n      0x00\n        /* \"Farm.sol\":32619:32653  stakers[msg.sender].amountStaked-- */\n      dup2\n      sload\n      dup1\n      swap3\n      swap2\n      swap1\n      tag_99\n      swap1\n      tag_100\n      jump\t// in\n    tag_99:\n      swap2\n      swap1\n      pop\n      sstore\n      pop\n        /* \"Farm.sol\":32698:32699  0 */\n      0x00\n        /* \"Farm.sol\":32664:32677  stakerAddress */\n      0x06\n        /* \"Farm.sol\":32664:32687  stakerAddress[_tokenId] */\n      0x00\n        /* \"Farm.sol\":32678:32686  _tokenId */\n      dup6\n        /* \"Farm.sol\":32664:32687  stakerAddress[_tokenId] */\n      dup2\n      mstore\n      0x20\n      add\n      swap1\n      dup2\n      mstore\n      0x20\n      add\n      0x00\n      keccak256\n      0x00\n        /* \"Farm.sol\":32664:32700  stakerAddress[_tokenId] = address(0) */\n      0x0100\n      exp\n      dup2\n      sload\n      dup2\n      0xffffffffffffffffffffffffffffffffffffffff\n      mul\n      not\n      and\n      swap1\n      dup4\n      0xffffffffffffffffffffffffffffffffffffffff\n      and\n      mul\n      or\n      swap1\n      sstore\n      pop\n        /* \"Farm.sol\":32713:32726  nftCollection */\n      0x03\n      0x00\n      swap1\n      sload\n      swap1\n      0x0100\n      exp\n      swap1\n      div\n      0xffffffffffffffffffffffffffffffffffffffff\n      and\n        /* \"Farm.sol\":32713:32739  nftCollection.transferFrom */\n      0xffffffffffffffffffffffffffffffffffffffff\n      and\n      0x23b872dd\n        /* \"Farm.sol\":32748:32752  this */\n      address\n        /* \"Farm.sol\":32755:32765  msg.sender */\n      caller\n        /* \"Farm.sol\":32767:32775  _tokenId */\n      dup7\n        /* \"Farm.sol\":32713:32776  nftCollection.transferFrom(address(this), msg.sender, _tokenId) */\n      mload(0x40)\n      dup5\n      0xffffffff\n      and\n      0xe0\n      shl\n      dup2\n      mstore\n      0x04\n      add\n      tag_101\n      swap4\n      swap3\n      swap2\n      swap1\n      tag_102\n      jump\t// in\n    tag_101:\n      0x00\n      mload(0x40)\n      dup1\n      dup4\n      sub\n      dup2\n      0x00\n      dup8\n      dup1\n      extcodesize\n      iszero\n      dup1\n      iszero\n      tag_103\n      jumpi\n      0x00\n      dup1\n      revert\n    tag_103:\n      pop\n      gas\n      call\n      iszero\n      dup1\n      iszero\n      tag_105\n      jumpi\n      returndatasize\n      0x00\n      dup1\n      returndatacopy\n      revert(0x00, returndatasize)\n    tag_105:\n      pop\n      pop\n      pop\n      pop\n        /* \"Farm.sol\":32826:32841  block.timestamp */\n      timestamp\n        /* \"Farm.sol\":32787:32794  stakers */\n      0x05\n        /* \"Farm.sol\":32787:32806  stakers[msg.sender] */\n      0x00\n        /* \"Farm.sol\":32795:32805  msg.sender */\n      caller\n        /* \"Farm.sol\":32787:32806  stakers[msg.sender] */\n      0xffffffffffffffffffffffffffffffffffffffff\n      and\n      0xffffffffffffffffffffffffffffffffffffffff\n      and\n      dup2\n      mstore\n      0x20\n      add\n      swap1\n      dup2\n      mstore\n      0x20\n      add\n      0x00\n      keccak256\n        /* \"Farm.sol\":32787:32823  stakers[msg.sender].timeOfLastUpdate */\n      0x02\n      add\n        /* \"Farm.sol\":32787:32841  stakers[msg.sender].timeOfLastUpdate = block.timestamp */\n      dup2\n      swap1\n      sstore\n      pop\n        /* \"Farm.sol\":31843:32849  {\r... */\n      pop\n      pop\n        /* \"Farm.sol\":19270:19290  _nonReentrantAfter() */\n      tag_106\n        /* \"Farm.sol\":19270:19288  _nonReentrantAfter */\n      tag_107\n        /* \"Farm.sol\":19270:19290  _nonReentrantAfter() */\n      jump\t// in\n    tag_106:\n        /* \"Farm.sol\":31785:32849  function withdraw(uint256 _tokenId) external nonReentrant {\r... */\n      pop\n      jump\t// out\n        /* \"Farm.sol\":33165:33551  function claimRewards() external {\r... */\n    tag_29:\n        /* \"Farm.sol\":33209:33224  uint256 rewards */\n      0x00\n        /* \"Farm.sol\":33271:33278  stakers */\n      0x05\n        /* \"Farm.sol\":33271:33290  stakers[msg.sender] */\n      0x00\n        /* \"Farm.sol\":33279:33289  msg.sender */\n      caller\n        /* \"Farm.sol\":33271:33290  stakers[msg.sender] */\n      0xffffffffffffffffffffffffffffffffffffffff\n      and\n      0xffffffffffffffffffffffffffffffffffffffff\n      and\n      dup2\n      mstore\n      0x20\n      add\n      swap1\n      dup2\n      mstore\n      0x20\n      add\n      0x00\n      keccak256\n        /* \"Farm.sol\":33271:33307  stakers[msg.sender].unclaimedRewards */\n      0x03\n      add\n      sload\n        /* \"Farm.sol\":33227:33255  calculateRewards(msg.sender) */\n      tag_109\n        /* \"Farm.sol\":33244:33254  msg.sender */\n      caller\n        /* \"Farm.sol\":33227:33243  calculateRewards */\n      tag_83\n        /* \"Farm.sol\":33227:33255  calculateRewards(msg.sender) */\n      jump\t// in\n    tag_109:\n        /* \"Farm.sol\":33227:33307  calculateRewards(msg.sender) +\r... */\n      tag_110\n      swap2\n      swap1\n      tag_85\n      jump\t// in\n    tag_110:\n        /* \"Farm.sol\":33209:33307  uint256 rewards = calculateRewards(msg.sender) +\r... */\n      swap1\n      pop\n        /* \"Farm.sol\":33336:33337  0 */\n      0x00\n        /* \"Farm.sol\":33326:33333  rewards */\n      dup2\n        /* \"Farm.sol\":33326:33337  rewards > 0 */\n      gt\n        /* \"Farm.sol\":33318:33370  require(rewards > 0, \"You have no rewards to claim\") */\n      tag_111\n      jumpi\n      mload(0x40)\n      0x08c379a000000000000000000000000000000000000000000000000000000000\n      dup2\n      mstore\n      0x04\n      add\n      tag_112\n      swap1\n      tag_113\n      jump\t// in\n    tag_112:\n      mload(0x40)\n      dup1\n      swap2\n      sub\n      swap1\n      revert\n    tag_111:\n        /* \"Farm.sol\":33420:33435  block.timestamp */\n      timestamp\n        /* \"Farm.sol\":33381:33388  stakers */\n      0x05\n        /* \"Farm.sol\":33381:33400  stakers[msg.sender] */\n      0x00\n        /* \"Farm.sol\":33389:33399  msg.sender */\n      caller\n        /* \"Farm.sol\":33381:33400  stakers[msg.sender] */\n      0xffffffffffffffffffffffffffffffffffffffff\n      and\n      0xffffffffffffffffffffffffffffffffffffffff\n      and\n      dup2\n      mstore\n      0x20\n      add\n      swap1\n      dup2\n      mstore\n      0x20\n      add\n      0x00\n      keccak256\n        /* \"Farm.sol\":33381:33417  stakers[msg.sender].timeOfLastUpdate */\n      0x02\n      add\n        /* \"Farm.sol\":33381:33435  stakers[msg.sender].timeOfLastUpdate = block.timestamp */\n      dup2\n      swap1\n      sstore\n      pop\n        /* \"Farm.sol\":33485:33486  0 */\n      0x00\n        /* \"Farm.sol\":33446:33453  stakers */\n      0x05\n        /* \"Farm.sol\":33446:33465  stakers[msg.sender] */\n      0x00\n        /* \"Farm.sol\":33454:33464  msg.sender */\n      caller\n        /* \"Farm.sol\":33446:33465  stakers[msg.sender] */\n      0xffffffffffffffffffffffffffffffffffffffff\n      and\n      0xffffffffffffffffffffffffffffffffffffffff\n      and\n      dup2\n      mstore\n      0x20\n      add\n      swap1\n      dup2\n      mstore\n      0x20\n      add\n      0x00\n      keccak256\n        /* \"Farm.sol\":33446:33482  stakers[msg.sender].unclaimedRewards */\n      0x03\n      add\n        /* \"Farm.sol\":33446:33486  stakers[msg.sender].unclaimedRewards = 0 */\n      dup2\n      swap1\n      sstore\n      pop\n        /* \"Farm.sol\":33497:33543  rewardsToken.safeTransfer(msg.sender, rewards) */\n      tag_114\n        /* \"Farm.sol\":33523:33533  msg.sender */\n      caller\n        /* \"Farm.sol\":33535:33542  rewards */\n      dup3\n        /* \"Farm.sol\":33497:33509  rewardsToken */\n      0x02\n      0x00\n      swap1\n      sload\n      swap1\n      0x0100\n      exp\n      swap1\n      div\n      0xffffffffffffffffffffffffffffffffffffffff\n      and\n        /* \"Farm.sol\":33497:33522  rewardsToken.safeTransfer */\n      0xffffffffffffffffffffffffffffffffffffffff\n      and\n      tag_115\n      swap1\n        /* \"Farm.sol\":33497:33543  rewardsToken.safeTransfer(msg.sender, rewards) */\n      swap3\n      swap2\n      swap1\n      0xffffffff\n      and\n      jump\t// in\n    tag_114:\n        /* \"Farm.sol\":33198:33551  {\r... */\n      pop\n        /* \"Farm.sol\":33165:33551  function claimRewards() external {\r... */\n      jump\t// out\n        /* \"Farm.sol\":16842:16928  function paused() public view virtual returns (bool) {\r... */\n    tag_31:\n        /* \"Farm.sol\":16889:16893  bool */\n      0x00\n        /* \"Farm.sol\":16913:16920  _paused */\n      0x01\n      0x00\n      swap1\n      sload\n      swap1\n      0x0100\n      exp\n      swap1\n      div\n      0xff\n      and\n        /* \"Farm.sol\":16906:16920  return _paused */\n      swap1\n      pop\n        /* \"Farm.sol\":16842:16928  function paused() public view virtual returns (bool) {\r... */\n      swap1\n      jump\t// out\n        /* \"Farm.sol\":33559:34239  function getStakedTokens(address _user) public view returns (StakedToken[] memory) {\r... */\n    tag_37:\n        /* \"Farm.sol\":33620:33640  StakedToken[] memory */\n      0x60\n        /* \"Farm.sol\":33687:33688  0 */\n      0x00\n        /* \"Farm.sol\":33657:33664  stakers */\n      0x05\n        /* \"Farm.sol\":33657:33671  stakers[_user] */\n      0x00\n        /* \"Farm.sol\":33665:33670  _user */\n      dup5\n        /* \"Farm.sol\":33657:33671  stakers[_user] */\n      0xffffffffffffffffffffffffffffffffffffffff\n      and\n      0xffffffffffffffffffffffffffffffffffffffff\n      and\n      dup2\n      mstore\n      0x20\n      add\n      swap1\n      dup2\n      mstore\n      0x20\n      add\n      0x00\n      keccak256\n        /* \"Farm.sol\":33657:33684  stakers[_user].amountStaked */\n      0x00\n      add\n      sload\n        /* \"Farm.sol\":33657:33688  stakers[_user].amountStaked > 0 */\n      gt\n        /* \"Farm.sol\":33653:34232  if (stakers[_user].amountStaked > 0) {\r... */\n      iszero\n      tag_118\n      jumpi\n        /* \"Farm.sol\":33705:33739  StakedToken[] memory _stakedTokens */\n      0x00\n        /* \"Farm.sol\":33760:33767  stakers */\n      0x05\n        /* \"Farm.sol\":33760:33774  stakers[_user] */\n      0x00\n        /* \"Farm.sol\":33768:33773  _user */\n      dup5\n        /* \"Farm.sol\":33760:33774  stakers[_user] */\n      0xffffffffffffffffffffffffffffffffffffffff\n      and\n      0xffffffffffffffffffffffffffffffffffffffff\n      and\n      dup2\n      mstore\n      0x20\n      add\n      swap1\n      dup2\n      mstore\n      0x20\n      add\n      0x00\n      keccak256\n        /* \"Farm.sol\":33760:33787  stakers[_user].amountStaked */\n      0x00\n      add\n      sload\n        /* \"Farm.sol\":33742:33788  new StakedToken[](stakers[_user].amountStaked) */\n      0xffffffffffffffff\n      dup2\n      gt\n      iszero\n      tag_119\n      jumpi\n      tag_120\n      tag_121\n      jump\t// in\n    tag_120:\n    tag_119:\n      mload(0x40)\n      swap1\n      dup1\n      dup3\n      mstore\n      dup1\n      0x20\n      mul\n      0x20\n      add\n      dup3\n      add\n      0x40\n      mstore\n      dup1\n      iszero\n      tag_122\n      jumpi\n      dup2\n      0x20\n      add\n    tag_123:\n      tag_124\n      tag_125\n      jump\t// in\n    tag_124:\n      dup2\n      mstore\n      0x20\n      add\n      swap1\n      0x01\n      swap1\n      sub\n      swap1\n      dup2\n      tag_123\n      jumpi\n      swap1\n      pop\n    tag_122:\n      pop\n        /* \"Farm.sol\":33705:33788  StakedToken[] memory _stakedTokens = new StakedToken[](stakers[_user].amountStaked) */\n      swap1\n      pop\n        /* \"Farm.sol\":33803:33817  uint256 _index */\n      0x00\n        /* \"Farm.sol\":33843:33852  uint256 j */\n      dup1\n        /* \"Farm.sol\":33838:34124  for (uint256 j = 0; j < stakers[_user].stakedTokens.length; j++) {\r... */\n    tag_126:\n        /* \"Farm.sol\":33862:33869  stakers */\n      0x05\n        /* \"Farm.sol\":33862:33876  stakers[_user] */\n      0x00\n        /* \"Farm.sol\":33870:33875  _user */\n      dup7\n        /* \"Farm.sol\":33862:33876  stakers[_user] */\n      0xffffffffffffffffffffffffffffffffffffffff\n      and\n      0xffffffffffffffffffffffffffffffffffffffff\n      and\n      dup2\n      mstore\n      0x20\n      add\n      swap1\n      dup2\n      mstore\n      0x20\n      add\n      0x00\n      keccak256\n        /* \"Farm.sol\":33862:33889  stakers[_user].stakedTokens */\n      0x01\n      add\n        /* \"Farm.sol\":33862:33896  stakers[_user].stakedTokens.length */\n      dup1\n      sload\n      swap1\n      pop\n        /* \"Farm.sol\":33858:33859  j */\n      dup2\n        /* \"Farm.sol\":33858:33896  j < stakers[_user].stakedTokens.length */\n      lt\n        /* \"Farm.sol\":33838:34124  for (uint256 j = 0; j < stakers[_user].stakedTokens.length; j++) {\r... */\n      iszero\n      tag_127\n      jumpi\n        /* \"Farm.sol\":33976:33977  0 */\n      0x00\n        /* \"Farm.sol\":33926:33979  stakers[_user].stakedTokens[j].staker != (address(0)) */\n      0xffffffffffffffffffffffffffffffffffffffff\n      and\n        /* \"Farm.sol\":33926:33933  stakers */\n      0x05\n        /* \"Farm.sol\":33926:33940  stakers[_user] */\n      0x00\n        /* \"Farm.sol\":33934:33939  _user */\n      dup8\n        /* \"Farm.sol\":33926:33940  stakers[_user] */\n      0xffffffffffffffffffffffffffffffffffffffff\n      and\n      0xffffffffffffffffffffffffffffffffffffffff\n      and\n      dup2\n      mstore\n      0x20\n      add\n      swap1\n      dup2\n      mstore\n      0x20\n      add\n      0x00\n      keccak256\n        /* \"Farm.sol\":33926:33953  stakers[_user].stakedTokens */\n      0x01\n      add\n        /* \"Farm.sol\":33954:33955  j */\n      dup3\n        /* \"Farm.sol\":33926:33956  stakers[_user].stakedTokens[j] */\n      dup2\n      sload\n      dup2\n      lt\n      tag_129\n      jumpi\n      tag_130\n      tag_91\n      jump\t// in\n    tag_130:\n    tag_129:\n      swap1\n      0x00\n      mstore\n      keccak256(0x00, 0x20)\n      swap1\n      0x02\n      mul\n      add\n        /* \"Farm.sol\":33926:33963  stakers[_user].stakedTokens[j].staker */\n      0x00\n      add\n      0x00\n      swap1\n      sload\n      swap1\n      0x0100\n      exp\n      swap1\n      div\n      0xffffffffffffffffffffffffffffffffffffffff\n      and\n        /* \"Farm.sol\":33926:33979  stakers[_user].stakedTokens[j].staker != (address(0)) */\n      0xffffffffffffffffffffffffffffffffffffffff\n      and\n      eq\n        /* \"Farm.sol\":33922:34109  if (stakers[_user].stakedTokens[j].staker != (address(0))) {\r... */\n      tag_132\n      jumpi\n        /* \"Farm.sol\":34028:34035  stakers */\n      0x05\n        /* \"Farm.sol\":34028:34042  stakers[_user] */\n      0x00\n        /* \"Farm.sol\":34036:34041  _user */\n      dup7\n        /* \"Farm.sol\":34028:34042  stakers[_user] */\n      0xffffffffffffffffffffffffffffffffffffffff\n      and\n      0xffffffffffffffffffffffffffffffffffffffff\n      and\n      dup2\n      mstore\n      0x20\n      add\n      swap1\n      dup2\n      mstore\n      0x20\n      add\n      0x00\n      keccak256\n        /* \"Farm.sol\":34028:34055  stakers[_user].stakedTokens */\n      0x01\n      add\n        /* \"Farm.sol\":34056:34057  j */\n      dup2\n        /* \"Farm.sol\":34028:34058  stakers[_user].stakedTokens[j] */\n      dup2\n      sload\n      dup2\n      lt\n      tag_133\n      jumpi\n      tag_134\n      tag_91\n      jump\t// in\n    tag_134:\n    tag_133:\n      swap1\n      0x00\n      mstore\n      keccak256(0x00, 0x20)\n      swap1\n      0x02\n      mul\n      add\n        /* \"Farm.sol\":34004:34058  _stakedTokens[_index] = stakers[_user].stakedTokens[j] */\n      mload(0x40)\n      dup1\n      0x40\n      add\n      0x40\n      mstore\n      swap1\n      dup2\n      0x00\n      dup3\n      add\n      0x00\n      swap1\n      sload\n      swap1\n      0x0100\n      exp\n      swap1\n      div\n      0xffffffffffffffffffffffffffffffffffffffff\n      and\n      0xffffffffffffffffffffffffffffffffffffffff\n      and\n      0xffffffffffffffffffffffffffffffffffffffff\n      and\n      dup2\n      mstore\n      0x20\n      add\n      0x01\n      dup3\n      add\n      sload\n      dup2\n      mstore\n      pop\n      pop\n        /* \"Farm.sol\":34004:34017  _stakedTokens */\n      dup4\n        /* \"Farm.sol\":34018:34024  _index */\n      dup4\n        /* \"Farm.sol\":34004:34025  _stakedTokens[_index] */\n      dup2\n      mload\n      dup2\n      lt\n      tag_136\n      jumpi\n      tag_137\n      tag_91\n      jump\t// in\n    tag_137:\n    tag_136:\n      0x20\n      mul\n      0x20\n      add\n      add\n        /* \"Farm.sol\":34004:34058  _stakedTokens[_index] = stakers[_user].stakedTokens[j] */\n      dup2\n      swap1\n      mstore\n      pop\n        /* \"Farm.sol\":34081:34089  _index++ */\n      dup2\n      dup1\n      tag_138\n      swap1\n      tag_95\n      jump\t// in\n    tag_138:\n      swap3\n      pop\n      pop\n        /* \"Farm.sol\":33922:34109  if (stakers[_user].stakedTokens[j].staker != (address(0))) {\r... */\n    tag_132:\n        /* \"Farm.sol\":33898:33901  j++ */\n      dup1\n      dup1\n      tag_139\n      swap1\n      tag_95\n      jump\t// in\n    tag_139:\n      swap2\n      pop\n      pop\n        /* \"Farm.sol\":33838:34124  for (uint256 j = 0; j < stakers[_user].stakedTokens.length; j++) {\r... */\n      jump(tag_126)\n    tag_127:\n      pop\n        /* \"Farm.sol\":34147:34160  _stakedTokens */\n      dup2\n        /* \"Farm.sol\":34140:34160  return _stakedTokens */\n      swap3\n      pop\n      pop\n      pop\n      jump(tag_117)\n        /* \"Farm.sol\":33653:34232  if (stakers[_user].amountStaked > 0) {\r... */\n    tag_118:\n        /* \"Farm.sol\":34218:34219  0 */\n      0x00\n        /* \"Farm.sol\":34200:34220  new StakedToken[](0) */\n      0xffffffffffffffff\n      dup2\n      gt\n      iszero\n      tag_141\n      jumpi\n      tag_142\n      tag_121\n      jump\t// in\n    tag_142:\n    tag_141:\n      mload(0x40)\n      swap1\n      dup1\n      dup3\n      mstore\n      dup1\n      0x20\n      mul\n      0x20\n      add\n      dup3\n      add\n      0x40\n      mstore\n      dup1\n      iszero\n      tag_143\n      jumpi\n      dup2\n      0x20\n      add\n    tag_144:\n      tag_145\n      tag_125\n      jump\t// in\n    tag_145:\n      dup2\n      mstore\n      0x20\n      add\n      swap1\n      0x01\n      swap1\n      sub\n      swap1\n      dup2\n      tag_144\n      jumpi\n      swap1\n      pop\n    tag_143:\n      pop\n        /* \"Farm.sol\":34193:34220  return new StakedToken[](0) */\n      swap1\n      pop\n        /* \"Farm.sol\":33559:34239  function getStakedTokens(address _user) public view returns (StakedToken[] memory) {\r... */\n    tag_117:\n      swap2\n      swap1\n      pop\n      jump\t// out\n        /* \"Farm.sol\":30197:30225  IERC721 public nftCollection */\n    tag_41:\n      0x03\n      0x00\n      swap1\n      sload\n      swap1\n      0x0100\n      exp\n      swap1\n      div\n      0xffffffffffffffffffffffffffffffffffffffff\n      and\n      dup2\n      jump\t// out\n        /* \"Farm.sol\":28929:29032  function renounceOwnership() public virtual onlyOwner {\r... */\n    tag_45:\n        /* \"Farm.sol\":28167:28180  _checkOwner() */\n      tag_147\n        /* \"Farm.sol\":28167:28178  _checkOwner */\n      tag_148\n        /* \"Farm.sol\":28167:28180  _checkOwner() */\n      jump\t// in\n    tag_147:\n        /* \"Farm.sol\":28994:29024  _transferOwnership(address(0)) */\n      tag_150\n        /* \"Farm.sol\":29021:29022  0 */\n      0x00\n        /* \"Farm.sol\":28994:29012  _transferOwnership */\n      tag_151\n        /* \"Farm.sol\":28994:29024  _transferOwnership(address(0)) */\n      jump\t// in\n    tag_150:\n        /* \"Farm.sol\":28929:29032  function renounceOwnership() public virtual onlyOwner {\r... */\n      jump\t// out\n        /* \"Farm.sol\":28281:28368  function owner() public view virtual returns (address) {\r... */\n    tag_47:\n        /* \"Farm.sol\":28327:28334  address */\n      0x00\n        /* \"Farm.sol\":28354:28360  _owner */\n      0x01\n      dup1\n      sload\n      swap1\n      0x0100\n      exp\n      swap1\n      div\n      0xffffffffffffffffffffffffffffffffffffffff\n      and\n        /* \"Farm.sol\":28347:28360  return _owner */\n      swap1\n      pop\n        /* \"Farm.sol\":28281:28368  function owner() public view virtual returns (address) {\r... */\n      swap1\n      jump\t// out\n        /* \"Farm.sol\":30336:30377  mapping(address => Staker) public stakers */\n    tag_52:\n      mstore(0x20, 0x05)\n      dup1\n      0x00\n      mstore\n      keccak256(0x00, 0x40)\n      0x00\n      swap2\n      pop\n      swap1\n      pop\n      dup1\n      0x00\n      add\n      sload\n      swap1\n      dup1\n      0x02\n      add\n      sload\n      swap1\n      dup1\n      0x03\n      add\n      sload\n      swap1\n      pop\n      dup4\n      jump\t// out\n        /* \"Farm.sol\":30463:30511  mapping(uint256 => address) public stakerAddress */\n    tag_57:\n      mstore(0x20, 0x06)\n      dup1\n      0x00\n      mstore\n      keccak256(0x00, 0x40)\n      0x00\n      swap2\n      pop\n      sload\n      swap1\n      0x0100\n      exp\n      swap1\n      div\n      0xffffffffffffffffffffffffffffffffffffffff\n      and\n      dup2\n      jump\t// out\n        /* \"Farm.sol\":31021:31777  function stake(uint256 _tokenId) external nonReentrant {\r... */\n    tag_61:\n        /* \"Farm.sol\":19226:19247  _nonReentrantBefore() */\n      tag_154\n        /* \"Farm.sol\":19226:19245  _nonReentrantBefore */\n      tag_74\n        /* \"Farm.sol\":19226:19247  _nonReentrantBefore() */\n      jump\t// in\n    tag_154:\n        /* \"Farm.sol\":31144:31154  msg.sender */\n      caller\n        /* \"Farm.sol\":31109:31154  nftCollection.ownerOf(_tokenId) == msg.sender */\n      0xffffffffffffffffffffffffffffffffffffffff\n      and\n        /* \"Farm.sol\":31109:31122  nftCollection */\n      0x03\n      0x00\n      swap1\n      sload\n      swap1\n      0x0100\n      exp\n      swap1\n      div\n      0xffffffffffffffffffffffffffffffffffffffff\n      and\n        /* \"Farm.sol\":31109:31130  nftCollection.ownerOf */\n      0xffffffffffffffffffffffffffffffffffffffff\n      and\n      0x6352211e\n        /* \"Farm.sol\":31131:31139  _tokenId */\n      dup4\n        /* \"Farm.sol\":31109:31140  nftCollection.ownerOf(_tokenId) */\n      mload(0x40)\n      dup3\n      0xffffffff\n      and\n      0xe0\n      shl\n      dup2\n      mstore\n      0x04\n      add\n      tag_156\n      swap2\n      swap1\n      tag_157\n      jump\t// in\n    tag_156:\n      0x20\n      mload(0x40)\n      dup1\n      dup4\n      sub\n      dup2\n      dup7\n      dup1\n      extcodesize\n      iszero\n      dup1\n      iszero\n      tag_158\n      jumpi\n      0x00\n      dup1\n      revert\n    tag_158:\n      pop\n      gas\n      staticcall\n      iszero\n      dup1\n      iszero\n      tag_160\n      jumpi\n      returndatasize\n      0x00\n      dup1\n      returndatacopy\n      revert(0x00, returndatasize)\n    tag_160:\n      pop\n      pop\n      pop\n      pop\n      mload(0x40)\n      returndatasize\n      not(0x1f)\n      0x1f\n      dup3\n      add\n      and\n      dup3\n      add\n      dup1\n      0x40\n      mstore\n      pop\n      dup2\n      add\n      swap1\n      tag_161\n      swap2\n      swap1\n      tag_162\n      jump\t// in\n    tag_161:\n        /* \"Farm.sol\":31109:31154  nftCollection.ownerOf(_tokenId) == msg.sender */\n      0xffffffffffffffffffffffffffffffffffffffff\n      and\n      eq\n        /* \"Farm.sol\":31087:31207  require(\r... */\n      tag_163\n      jumpi\n      mload(0x40)\n      0x08c379a000000000000000000000000000000000000000000000000000000000\n      dup2\n      mstore\n      0x04\n      add\n      tag_164\n      swap1\n      tag_81\n      jump\t// in\n    tag_164:\n      mload(0x40)\n      dup1\n      swap2\n      sub\n      swap1\n      revert\n    tag_163:\n        /* \"Farm.sol\":31259:31260  0 */\n      0x00\n        /* \"Farm.sol\":31224:31231  stakers */\n      0x05\n        /* \"Farm.sol\":31224:31243  stakers[msg.sender] */\n      0x00\n        /* \"Farm.sol\":31232:31242  msg.sender */\n      caller\n        /* \"Farm.sol\":31224:31243  stakers[msg.sender] */\n      0xffffffffffffffffffffffffffffffffffffffff\n      and\n      0xffffffffffffffffffffffffffffffffffffffff\n      and\n      dup2\n      mstore\n      0x20\n      add\n      swap1\n      dup2\n      mstore\n      0x20\n      add\n      0x00\n      keccak256\n        /* \"Farm.sol\":31224:31256  stakers[msg.sender].amountStaked */\n      0x00\n      add\n      sload\n        /* \"Farm.sol\":31224:31260  stakers[msg.sender].amountStaked > 0 */\n      gt\n        /* \"Farm.sol\":31220:31397  if (stakers[msg.sender].amountStaked > 0) {\r... */\n      iszero\n      tag_165\n      jumpi\n        /* \"Farm.sol\":31277:31292  uint256 rewards */\n      0x00\n        /* \"Farm.sol\":31295:31323  calculateRewards(msg.sender) */\n      tag_166\n        /* \"Farm.sol\":31312:31322  msg.sender */\n      caller\n        /* \"Farm.sol\":31295:31311  calculateRewards */\n      tag_83\n        /* \"Farm.sol\":31295:31323  calculateRewards(msg.sender) */\n      jump\t// in\n    tag_166:\n        /* \"Farm.sol\":31277:31323  uint256 rewards = calculateRewards(msg.sender) */\n      swap1\n      pop\n        /* \"Farm.sol\":31378:31385  rewards */\n      dup1\n        /* \"Farm.sol\":31338:31345  stakers */\n      0x05\n        /* \"Farm.sol\":31338:31357  stakers[msg.sender] */\n      0x00\n        /* \"Farm.sol\":31346:31356  msg.sender */\n      caller\n        /* \"Farm.sol\":31338:31357  stakers[msg.sender] */\n      0xffffffffffffffffffffffffffffffffffffffff\n      and\n      0xffffffffffffffffffffffffffffffffffffffff\n      and\n      dup2\n      mstore\n      0x20\n      add\n      swap1\n      dup2\n      mstore\n      0x20\n      add\n      0x00\n      keccak256\n        /* \"Farm.sol\":31338:31374  stakers[msg.sender].unclaimedRewards */\n      0x03\n      add\n      0x00\n        /* \"Farm.sol\":31338:31385  stakers[msg.sender].unclaimedRewards += rewards */\n      dup3\n      dup3\n      sload\n      tag_167\n      swap2\n      swap1\n      tag_85\n      jump\t// in\n    tag_167:\n      swap3\n      pop\n      pop\n      dup2\n      swap1\n      sstore\n      pop\n        /* \"Farm.sol\":31262:31397  {\r... */\n      pop\n        /* \"Farm.sol\":31220:31397  if (stakers[msg.sender].amountStaked > 0) {\r... */\n    tag_165:\n        /* \"Farm.sol\":31409:31422  nftCollection */\n      0x03\n      0x00\n      swap1\n      sload\n      swap1\n      0x0100\n      exp\n      swap1\n      div\n      0xffffffffffffffffffffffffffffffffffffffff\n      and\n        /* \"Farm.sol\":31409:31435  nftCollection.transferFrom */\n      0xffffffffffffffffffffffffffffffffffffffff\n      and\n      0x23b872dd\n        /* \"Farm.sol\":31436:31446  msg.sender */\n      caller\n        /* \"Farm.sol\":31456:31460  this */\n      address\n        /* \"Farm.sol\":31463:31471  _tokenId */\n      dup5\n        /* \"Farm.sol\":31409:31472  nftCollection.transferFrom(msg.sender, address(this), _tokenId) */\n      mload(0x40)\n      dup5\n      0xffffffff\n      and\n      0xe0\n      shl\n      dup2\n      mstore\n      0x04\n      add\n      tag_168\n      swap4\n      swap3\n      swap2\n      swap1\n      tag_102\n      jump\t// in\n    tag_168:\n      0x00\n      mload(0x40)\n      dup1\n      dup4\n      sub\n      dup2\n      0x00\n      dup8\n      dup1\n      extcodesize\n      iszero\n      dup1\n      iszero\n      tag_169\n      jumpi\n      0x00\n      dup1\n      revert\n    tag_169:\n      pop\n      gas\n      call\n      iszero\n      dup1\n      iszero\n      tag_171\n      jumpi\n      returndatasize\n      0x00\n      dup1\n      returndatacopy\n      revert(0x00, returndatasize)\n    tag_171:\n      pop\n      pop\n      pop\n      pop\n        /* \"Farm.sol\":31485:31515  StakedToken memory stakedToken */\n      0x00\n        /* \"Farm.sol\":31518:31551  StakedToken(msg.sender, _tokenId) */\n      mload(0x40)\n      dup1\n      0x40\n      add\n      0x40\n      mstore\n      dup1\n        /* \"Farm.sol\":31530:31540  msg.sender */\n      caller\n        /* \"Farm.sol\":31518:31551  StakedToken(msg.sender, _tokenId) */\n      0xffffffffffffffffffffffffffffffffffffffff\n      and\n      dup2\n      mstore\n      0x20\n      add\n        /* \"Farm.sol\":31542:31550  _tokenId */\n      dup4\n        /* \"Farm.sol\":31518:31551  StakedToken(msg.sender, _tokenId) */\n      dup2\n      mstore\n      pop\n        /* \"Farm.sol\":31485:31551  StakedToken memory stakedToken = StakedToken(msg.sender, _tokenId) */\n      swap1\n      pop\n        /* \"Farm.sol\":31562:31569  stakers */\n      0x05\n        /* \"Farm.sol\":31562:31581  stakers[msg.sender] */\n      0x00\n        /* \"Farm.sol\":31570:31580  msg.sender */\n      caller\n        /* \"Farm.sol\":31562:31581  stakers[msg.sender] */\n      0xffffffffffffffffffffffffffffffffffffffff\n      and\n      0xffffffffffffffffffffffffffffffffffffffff\n      and\n      dup2\n      mstore\n      0x20\n      add\n      swap1\n      dup2\n      mstore\n      0x20\n      add\n      0x00\n      keccak256\n        /* \"Farm.sol\":31562:31594  stakers[msg.sender].stakedTokens */\n      0x01\n      add\n        /* \"Farm.sol\":31600:31611  stakedToken */\n      dup2\n        /* \"Farm.sol\":31562:31612  stakers[msg.sender].stakedTokens.push(stakedToken) */\n      swap1\n      dup1\n      0x01\n      dup2\n      sload\n      add\n      dup1\n      dup3\n      sstore\n      dup1\n      swap2\n      pop\n      pop\n      0x01\n      swap1\n      sub\n      swap1\n      0x00\n      mstore\n      keccak256(0x00, 0x20)\n      swap1\n      0x02\n      mul\n      add\n      0x00\n      swap1\n      swap2\n      swap1\n      swap2\n      swap1\n      swap2\n      pop\n      0x00\n      dup3\n      add\n      mload\n      dup2\n      0x00\n      add\n      exp(0x0100, 0x00)\n      dup2\n      sload\n      dup2\n      0xffffffffffffffffffffffffffffffffffffffff\n      mul\n      not\n      and\n      swap1\n      dup4\n      0xffffffffffffffffffffffffffffffffffffffff\n      and\n      mul\n      or\n      swap1\n      sstore\n      pop\n      0x20\n      dup3\n      add\n      mload\n      dup2\n      0x01\n      add\n      sstore\n      pop\n      pop\n        /* \"Farm.sol\":31623:31630  stakers */\n      0x05\n        /* \"Farm.sol\":31623:31642  stakers[msg.sender] */\n      0x00\n        /* \"Farm.sol\":31631:31641  msg.sender */\n      caller\n        /* \"Farm.sol\":31623:31642  stakers[msg.sender] */\n      0xffffffffffffffffffffffffffffffffffffffff\n      and\n      0xffffffffffffffffffffffffffffffffffffffff\n      and\n      dup2\n      mstore\n      0x20\n      add\n      swap1\n      dup2\n      mstore\n      0x20\n      add\n      0x00\n      keccak256\n        /* \"Farm.sol\":31623:31655  stakers[msg.sender].amountStaked */\n      0x00\n      add\n      0x00\n        /* \"Farm.sol\":31623:31657  stakers[msg.sender].amountStaked++ */\n      dup2\n      sload\n      dup1\n      swap3\n      swap2\n      swap1\n      tag_173\n      swap1\n      tag_95\n      jump\t// in\n    tag_173:\n      swap2\n      swap1\n      pop\n      sstore\n      pop\n        /* \"Farm.sol\":31694:31704  msg.sender */\n      caller\n        /* \"Farm.sol\":31668:31681  stakerAddress */\n      0x06\n        /* \"Farm.sol\":31668:31691  stakerAddress[_tokenId] */\n      0x00\n        /* \"Farm.sol\":31682:31690  _tokenId */\n      dup5\n        /* \"Farm.sol\":31668:31691  stakerAddress[_tokenId] */\n      dup2\n      mstore\n      0x20\n      add\n      swap1\n      dup2\n      mstore\n      0x20\n      add\n      0x00\n      keccak256\n      0x00\n        /* \"Farm.sol\":31668:31704  stakerAddress[_tokenId] = msg.sender */\n      0x0100\n      exp\n      dup2\n      sload\n      dup2\n      0xffffffffffffffffffffffffffffffffffffffff\n      mul\n      not\n      and\n      swap1\n      dup4\n      0xffffffffffffffffffffffffffffffffffffffff\n      and\n      mul\n      or\n      swap1\n      sstore\n      pop\n        /* \"Farm.sol\":31754:31769  block.timestamp */\n      timestamp\n        /* \"Farm.sol\":31715:31722  stakers */\n      0x05\n        /* \"Farm.sol\":31715:31734  stakers[msg.sender] */\n      0x00\n        /* \"Farm.sol\":31723:31733  msg.sender */\n      caller\n        /* \"Farm.sol\":31715:31734  stakers[msg.sender] */\n      0xffffffffffffffffffffffffffffffffffffffff\n      and\n      0xffffffffffffffffffffffffffffffffffffffff\n      and\n      dup2\n      mstore\n      0x20\n      add\n      swap1\n      dup2\n      mstore\n      0x20\n      add\n      0x00\n      keccak256\n        /* \"Farm.sol\":31715:31751  stakers[msg.sender].timeOfLastUpdate */\n      0x02\n      add\n        /* \"Farm.sol\":31715:31769  stakers[msg.sender].timeOfLastUpdate = block.timestamp */\n      dup2\n      swap1\n      sstore\n      pop\n        /* \"Farm.sol\":31076:31777  {\r... */\n      pop\n        /* \"Farm.sol\":19270:19290  _nonReentrantAfter() */\n      tag_174\n        /* \"Farm.sol\":19270:19288  _nonReentrantAfter */\n      tag_107\n        /* \"Farm.sol\":19270:19290  _nonReentrantAfter() */\n      jump\t// in\n    tag_174:\n        /* \"Farm.sol\":31021:31777  function stake(uint256 _tokenId) external nonReentrant {\r... */\n      pop\n      jump\t// out\n        /* \"Farm.sol\":30164:30190  IERC20 public rewardsToken */\n    tag_63:\n      0x02\n      0x00\n      swap1\n      sload\n      swap1\n      0x0100\n      exp\n      swap1\n      div\n      0xffffffffffffffffffffffffffffffffffffffff\n      and\n      dup2\n      jump\t// out\n        /* \"Farm.sol\":29187:29388  function transferOwnership(address newOwner) public virtual onlyOwner {\r... */\n    tag_68:\n        /* \"Farm.sol\":28167:28180  _checkOwner() */\n      tag_176\n        /* \"Farm.sol\":28167:28178  _checkOwner */\n      tag_148\n        /* \"Farm.sol\":28167:28180  _checkOwner() */\n      jump\t// in\n    tag_176:\n        /* \"Farm.sol\":29296:29297  0 */\n      0x00\n        /* \"Farm.sol\":29276:29298  newOwner != address(0) */\n      0xffffffffffffffffffffffffffffffffffffffff\n      and\n        /* \"Farm.sol\":29276:29284  newOwner */\n      dup2\n        /* \"Farm.sol\":29276:29298  newOwner != address(0) */\n      0xffffffffffffffffffffffffffffffffffffffff\n      and\n      eq\n      iszero\n        /* \"Farm.sol\":29268:29341  require(newOwner != address(0), \"Ownable: new owner is the zero address\") */\n      tag_178\n      jumpi\n      mload(0x40)\n      0x08c379a000000000000000000000000000000000000000000000000000000000\n      dup2\n      mstore\n      0x04\n      add\n      tag_179\n      swap1\n      tag_180\n      jump\t// in\n    tag_179:\n      mload(0x40)\n      dup1\n      swap2\n      sub\n      swap1\n      revert\n    tag_178:\n        /* \"Farm.sol\":29352:29380  _transferOwnership(newOwner) */\n      tag_181\n        /* \"Farm.sol\":29371:29379  newOwner */\n      dup2\n        /* \"Farm.sol\":29352:29370  _transferOwnership */\n      tag_151\n        /* \"Farm.sol\":29352:29380  _transferOwnership(newOwner) */\n      jump\t// in\n    tag_181:\n        /* \"Farm.sol\":29187:29388  function transferOwnership(address newOwner) public virtual onlyOwner {\r... */\n      pop\n      jump\t// out\n        /* \"Farm.sol\":19306:19595  function _nonReentrantBefore() private {\r... */\n    tag_74:\n        /* \"Farm.sol\":18708:18709  2 */\n      0x02\n        /* \"Farm.sol\":19436:19443  _status */\n      sload(0x00)\n        /* \"Farm.sol\":19436:19455  _status != _ENTERED */\n      eq\n      iszero\n        /* \"Farm.sol\":19428:19491  require(_status != _ENTERED, \"ReentrancyGuard: reentrant call\") */\n      tag_183\n      jumpi\n      mload(0x40)\n      0x08c379a000000000000000000000000000000000000000000000000000000000\n      dup2\n      mstore\n      0x04\n      add\n      tag_184\n      swap1\n      tag_185\n      jump\t// in\n    tag_184:\n      mload(0x40)\n      dup1\n      swap2\n      sub\n      swap1\n      revert\n    tag_183:\n        /* \"Farm.sol\":18708:18709  2 */\n      0x02\n        /* \"Farm.sol\":19569:19576  _status */\n      0x00\n        /* \"Farm.sol\":19569:19587  _status = _ENTERED */\n      dup2\n      swap1\n      sstore\n      pop\n        /* \"Farm.sol\":19306:19595  function _nonReentrantBefore() private {\r... */\n      jump\t// out\n        /* \"Farm.sol\":32857:33157  function calculateRewards(address _staker)\r... */\n    tag_83:\n        /* \"Farm.sol\":32950:32966  uint256 _rewards */\n      0x00\n        /* \"Farm.sol\":33144:33148  3600 */\n      0x0e10\n        /* \"Farm.sol\":33126:33140  rewardsPerHour */\n      sload(0x04)\n        /* \"Farm.sol\":33082:33089  stakers */\n      0x05\n        /* \"Farm.sol\":33082:33098  stakers[_staker] */\n      0x00\n        /* \"Farm.sol\":33090:33097  _staker */\n      dup6\n        /* \"Farm.sol\":33082:33098  stakers[_staker] */\n      0xffffffffffffffffffffffffffffffffffffffff\n      and\n      0xffffffffffffffffffffffffffffffffffffffff\n      and\n      dup2\n      mstore\n      0x20\n      add\n      swap1\n      dup2\n      mstore\n      0x20\n      add\n      0x00\n      keccak256\n        /* \"Farm.sol\":33082:33111  stakers[_staker].amountStaked */\n      0x00\n      add\n      sload\n        /* \"Farm.sol\":33028:33035  stakers */\n      0x05\n        /* \"Farm.sol\":33028:33044  stakers[_staker] */\n      0x00\n        /* \"Farm.sol\":33036:33043  _staker */\n      dup7\n        /* \"Farm.sol\":33028:33044  stakers[_staker] */\n      0xffffffffffffffffffffffffffffffffffffffff\n      and\n      0xffffffffffffffffffffffffffffffffffffffff\n      and\n      dup2\n      mstore\n      0x20\n      add\n      swap1\n      dup2\n      mstore\n      0x20\n      add\n      0x00\n      keccak256\n        /* \"Farm.sol\":33028:33061  stakers[_staker].timeOfLastUpdate */\n      0x02\n      add\n      sload\n        /* \"Farm.sol\":33010:33025  block.timestamp */\n      timestamp\n        /* \"Farm.sol\":33010:33061  block.timestamp - stakers[_staker].timeOfLastUpdate */\n      tag_187\n      swap2\n      swap1\n      tag_188\n      jump\t// in\n    tag_187:\n        /* \"Farm.sol\":33009:33111  (block.timestamp - stakers[_staker].timeOfLastUpdate) *\r... */\n      tag_189\n      swap2\n      swap1\n      tag_190\n      jump\t// in\n    tag_189:\n        /* \"Farm.sol\":32993:33140  (\r... */\n      tag_191\n      swap2\n      swap1\n      tag_190\n      jump\t// in\n    tag_191:\n        /* \"Farm.sol\":32992:33148  ((\r... */\n      tag_192\n      swap2\n      swap1\n      tag_193\n      jump\t// in\n    tag_192:\n        /* \"Farm.sol\":32984:33149  return (((\r... */\n      swap1\n      pop\n        /* \"Farm.sol\":32857:33157  function calculateRewards(address _staker)\r... */\n      swap2\n      swap1\n      pop\n      jump\t// out\n        /* \"Farm.sol\":19603:19816  function _nonReentrantAfter() private {\r... */\n    tag_107:\n        /* \"Farm.sol\":18664:18665  1 */\n      0x01\n        /* \"Farm.sol\":19786:19793  _status */\n      0x00\n        /* \"Farm.sol\":19786:19808  _status = _NOT_ENTERED */\n      dup2\n      swap1\n      sstore\n      pop\n        /* \"Farm.sol\":19603:19816  function _nonReentrantAfter() private {\r... */\n      jump\t// out\n        /* \"Farm.sol\":24638:24815  function safeTransfer(IERC20 token, address to, uint256 value) internal {\r... */\n    tag_115:\n        /* \"Farm.sol\":24721:24807  _callOptionalReturn(token, abi.encodeWithSelector(token.transfer.selector, to, value)) */\n      tag_196\n        /* \"Farm.sol\":24741:24746  token */\n      dup4\n        /* \"Farm.sol\":24771:24794  token.transfer.selector */\n      shl(0xe0, 0xa9059cbb)\n        /* \"Farm.sol\":24796:24798  to */\n      dup5\n        /* \"Farm.sol\":24800:24805  value */\n      dup5\n        /* \"Farm.sol\":24748:24806  abi.encodeWithSelector(token.transfer.selector, to, value) */\n      add(0x24, mload(0x40))\n      tag_197\n      swap3\n      swap2\n      swap1\n      tag_198\n      jump\t// in\n    tag_197:\n      mload(0x40)\n      0x20\n      dup2\n      dup4\n      sub\n      sub\n      dup2\n      mstore\n      swap1\n      0x40\n      mstore\n      swap1\n      not(0xffffffffffffffffffffffffffffffffffffffffffffffffffffffff)\n      and\n      0x20\n      dup3\n      add\n      dup1\n      mload\n      0xffffffffffffffffffffffffffffffffffffffffffffffffffffffff\n      dup4\n      dup2\n      dup4\n      and\n      or\n      dup4\n      mstore\n      pop\n      pop\n      pop\n      pop\n        /* \"Farm.sol\":24721:24740  _callOptionalReturn */\n      tag_199\n        /* \"Farm.sol\":24721:24807  _callOptionalReturn(token, abi.encodeWithSelector(token.transfer.selector, to, value)) */\n      jump\t// in\n    tag_196:\n        /* \"Farm.sol\":24638:24815  function safeTransfer(IERC20 token, address to, uint256 value) internal {\r... */\n      pop\n      pop\n      pop\n      jump\t// out\n        /* \"Farm.sol\":28446:28578  function _checkOwner() internal view virtual {\r... */\n    tag_148:\n        /* \"Farm.sol\":28521:28533  _msgSender() */\n      tag_201\n        /* \"Farm.sol\":28521:28531  _msgSender */\n      tag_202\n        /* \"Farm.sol\":28521:28533  _msgSender() */\n      jump\t// in\n    tag_201:\n        /* \"Farm.sol\":28510:28533  owner() == _msgSender() */\n      0xffffffffffffffffffffffffffffffffffffffff\n      and\n        /* \"Farm.sol\":28510:28517  owner() */\n      tag_203\n        /* \"Farm.sol\":28510:28515  owner */\n      tag_47\n        /* \"Farm.sol\":28510:28517  owner() */\n      jump\t// in\n    tag_203:\n        /* \"Farm.sol\":28510:28533  owner() == _msgSender() */\n      0xffffffffffffffffffffffffffffffffffffffff\n      and\n      eq\n        /* \"Farm.sol\":28502:28570  require(owner() == _msgSender(), \"Ownable: caller is not the owner\") */\n      tag_204\n      jumpi\n      mload(0x40)\n      0x08c379a000000000000000000000000000000000000000000000000000000000\n      dup2\n      mstore\n      0x04\n      add\n      tag_205\n      swap1\n      tag_206\n      jump\t// in\n    tag_205:\n      mload(0x40)\n      dup1\n      swap2\n      sub\n      swap1\n      revert\n    tag_204:\n        /* \"Farm.sol\":28446:28578  function _checkOwner() internal view virtual {\r... */\n      jump\t// out\n        /* \"Farm.sol\":29548:29739  function _transferOwnership(address newOwner) internal virtual {\r... */\n    tag_151:\n        /* \"Farm.sol\":29622:29638  address oldOwner */\n      0x00\n        /* \"Farm.sol\":29641:29647  _owner */\n      0x01\n      dup1\n      sload\n      swap1\n      0x0100\n      exp\n      swap1\n      div\n      0xffffffffffffffffffffffffffffffffffffffff\n      and\n        /* \"Farm.sol\":29622:29647  address oldOwner = _owner */\n      swap1\n      pop\n        /* \"Farm.sol\":29667:29675  newOwner */\n      dup2\n        /* \"Farm.sol\":29658:29664  _owner */\n      0x01\n      dup1\n        /* \"Farm.sol\":29658:29675  _owner = newOwner */\n      0x0100\n      exp\n      dup2\n      sload\n      dup2\n      0xffffffffffffffffffffffffffffffffffffffff\n      mul\n      not\n      and\n      swap1\n      dup4\n      0xffffffffffffffffffffffffffffffffffffffff\n      and\n      mul\n      or\n      swap1\n      sstore\n      pop\n        /* \"Farm.sol\":29722:29730  newOwner */\n      dup2\n        /* \"Farm.sol\":29691:29731  OwnershipTransferred(oldOwner, newOwner) */\n      0xffffffffffffffffffffffffffffffffffffffff\n      and\n        /* \"Farm.sol\":29712:29720  oldOwner */\n      dup2\n        /* \"Farm.sol\":29691:29731  OwnershipTransferred(oldOwner, newOwner) */\n      0xffffffffffffffffffffffffffffffffffffffff\n      and\n      0x8be0079c531659141344cd1fd0a4f28419497f9722a3daafe3b4186f6b6457e0\n      mload(0x40)\n      mload(0x40)\n      dup1\n      swap2\n      sub\n      swap1\n      log3\n        /* \"Farm.sol\":29611:29739  {\r... */\n      pop\n        /* \"Farm.sol\":29548:29739  function _transferOwnership(address newOwner) internal virtual {\r... */\n      pop\n      jump\t// out\n        /* \"Farm.sol\":26943:27704  function _callOptionalReturn(IERC20 token, bytes memory data) private {\r... */\n    tag_199:\n        /* \"Farm.sol\":27367:27390  bytes memory returndata */\n      0x00\n        /* \"Farm.sol\":27393:27462  address(token).functionCall(data, \"SafeERC20: low-level call failed\") */\n      tag_209\n        /* \"Farm.sol\":27421:27425  data */\n      dup3\n        /* \"Farm.sol\":27393:27462  address(token).functionCall(data, \"SafeERC20: low-level call failed\") */\n      mload(0x40)\n      dup1\n      0x40\n      add\n      0x40\n      mstore\n      dup1\n      0x20\n      dup2\n      mstore\n      0x20\n      add\n      0x5361666545524332303a206c6f772d6c6576656c2063616c6c206661696c6564\n      dup2\n      mstore\n      pop\n        /* \"Farm.sol\":27401:27406  token */\n      dup6\n        /* \"Farm.sol\":27393:27420  address(token).functionCall */\n      0xffffffffffffffffffffffffffffffffffffffff\n      and\n      tag_210\n      swap1\n        /* \"Farm.sol\":27393:27462  address(token).functionCall(data, \"SafeERC20: low-level call failed\") */\n      swap3\n      swap2\n      swap1\n      0xffffffff\n      and\n      jump\t// in\n    tag_209:\n        /* \"Farm.sol\":27367:27462  bytes memory returndata = address(token).functionCall(data, \"SafeERC20: low-level call failed\") */\n      swap1\n      pop\n        /* \"Farm.sol\":27497:27498  0 */\n      0x00\n        /* \"Farm.sol\":27477:27487  returndata */\n      dup2\n        /* \"Farm.sol\":27477:27494  returndata.length */\n      mload\n        /* \"Farm.sol\":27477:27498  returndata.length > 0 */\n      gt\n        /* \"Farm.sol\":27473:27697  if (returndata.length > 0) { // Return data is optional\r... */\n      iszero\n      tag_211\n      jumpi\n        /* \"Farm.sol\":27619:27629  returndata */\n      dup1\n        /* \"Farm.sol\":27608:27638  abi.decode(returndata, (bool)) */\n      dup1\n      0x20\n      add\n      swap1\n      mload\n      dup2\n      add\n      swap1\n      tag_212\n      swap2\n      swap1\n      tag_213\n      jump\t// in\n    tag_212:\n        /* \"Farm.sol\":27600:27685  require(abi.decode(returndata, (bool)), \"SafeERC20: ERC20 operation did not succeed\") */\n      tag_214\n      jumpi\n      mload(0x40)\n      0x08c379a000000000000000000000000000000000000000000000000000000000\n      dup2\n      mstore\n      0x04\n      add\n      tag_215\n      swap1\n      tag_216\n      jump\t// in\n    tag_215:\n      mload(0x40)\n      dup1\n      swap2\n      sub\n      swap1\n      revert\n    tag_214:\n        /* \"Farm.sol\":27473:27697  if (returndata.length > 0) { // Return data is optional\r... */\n    tag_211:\n        /* \"Farm.sol\":27013:27704  {\r... */\n      pop\n        /* \"Farm.sol\":26943:27704  function _callOptionalReturn(IERC20 token, bytes memory data) private {\r... */\n      pop\n      pop\n      jump\t// out\n        /* \"Farm.sol\":15568:15666  function _msgSender() internal view virtual returns (address) {\r... */\n    tag_202:\n        /* \"Farm.sol\":15621:15628  address */\n      0x00\n        /* \"Farm.sol\":15648:15658  msg.sender */\n      caller\n        /* \"Farm.sol\":15641:15658  return msg.sender */\n      swap1\n      pop\n        /* \"Farm.sol\":15568:15666  function _msgSender() internal view virtual returns (address) {\r... */\n      swap1\n      jump\t// out\n        /* \"Farm.sol\":9557:9752  function functionCall(address target, bytes memory data, string memory errorMessage) internal returns (bytes memory) {\r... */\n    tag_210:\n        /* \"Farm.sol\":9660:9672  bytes memory */\n      0x60\n        /* \"Farm.sol\":9692:9744  functionCallWithValue(target, data, 0, errorMessage) */\n      tag_219\n        /* \"Farm.sol\":9714:9720  target */\n      dup5\n        /* \"Farm.sol\":9722:9726  data */\n      dup5\n        /* \"Farm.sol\":9728:9729  0 */\n      0x00\n        /* \"Farm.sol\":9731:9743  errorMessage */\n      dup6\n        /* \"Farm.sol\":9692:9713  functionCallWithValue */\n      tag_220\n        /* \"Farm.sol\":9692:9744  functionCallWithValue(target, data, 0, errorMessage) */\n      jump\t// in\n    tag_219:\n        /* \"Farm.sol\":9685:9744  return functionCallWithValue(target, data, 0, errorMessage) */\n      swap1\n      pop\n        /* \"Farm.sol\":9557:9752  function functionCall(address target, bytes memory data, string memory errorMessage) internal returns (bytes memory) {\r... */\n      swap4\n      swap3\n      pop\n      pop\n      pop\n      jump\t// out\n        /* \"Farm.sol\":10609:11139  function functionCallWithValue(address target, bytes memory data, uint256 value, string memory errorMessage) internal returns (bytes memory) {\r... */\n    tag_220:\n        /* \"Farm.sol\":10736:10748  bytes memory */\n      0x60\n        /* \"Farm.sol\":10794:10799  value */\n      dup3\n        /* \"Farm.sol\":10769:10790  address(this).balance */\n      selfbalance\n        /* \"Farm.sol\":10769:10799  address(this).balance >= value */\n      lt\n      iszero\n        /* \"Farm.sol\":10761:10842  require(address(this).balance >= value, \"Address: insufficient balance for call\") */\n      tag_222\n      jumpi\n      mload(0x40)\n      0x08c379a000000000000000000000000000000000000000000000000000000000\n      dup2\n      mstore\n      0x04\n      add\n      tag_223\n      swap1\n      tag_224\n      jump\t// in\n    tag_223:\n      mload(0x40)\n      dup1\n      swap2\n      sub\n      swap1\n      revert\n    tag_222:\n        /* \"Farm.sol\":10861:10879  isContract(target) */\n      tag_225\n        /* \"Farm.sol\":10872:10878  target */\n      dup6\n        /* \"Farm.sol\":10861:10871  isContract */\n      tag_226\n        /* \"Farm.sol\":10861:10879  isContract(target) */\n      jump\t// in\n    tag_225:\n        /* \"Farm.sol\":10853:10913  require(isContract(target), \"Address: call to non-contract\") */\n      tag_227\n      jumpi\n      mload(0x40)\n      0x08c379a000000000000000000000000000000000000000000000000000000000\n      dup2\n      mstore\n      0x04\n      add\n      tag_228\n      swap1\n      tag_229\n      jump\t// in\n    tag_228:\n      mload(0x40)\n      dup1\n      swap2\n      sub\n      swap1\n      revert\n    tag_227:\n        /* \"Farm.sol\":10987:10999  bool success */\n      0x00\n        /* \"Farm.sol\":11001:11024  bytes memory returndata */\n      dup1\n        /* \"Farm.sol\":11028:11034  target */\n      dup7\n        /* \"Farm.sol\":11028:11039  target.call */\n      0xffffffffffffffffffffffffffffffffffffffff\n      and\n        /* \"Farm.sol\":11048:11053  value */\n      dup6\n        /* \"Farm.sol\":11056:11060  data */\n      dup8\n        /* \"Farm.sol\":11028:11061  target.call{ value: value }(data) */\n      mload(0x40)\n      tag_230\n      swap2\n      swap1\n      tag_231\n      jump\t// in\n    tag_230:\n      0x00\n      mload(0x40)\n      dup1\n      dup4\n      sub\n      dup2\n      dup6\n      dup8\n      gas\n      call\n      swap3\n      pop\n      pop\n      pop\n      returndatasize\n      dup1\n      0x00\n      dup2\n      eq\n      tag_234\n      jumpi\n      mload(0x40)\n      swap2\n      pop\n      and(add(returndatasize, 0x3f), not(0x1f))\n      dup3\n      add\n      0x40\n      mstore\n      returndatasize\n      dup3\n      mstore\n      returndatasize\n      0x00\n      0x20\n      dup5\n      add\n      returndatacopy\n      jump(tag_233)\n    tag_234:\n      0x60\n      swap2\n      pop\n    tag_233:\n      pop\n        /* \"Farm.sol\":10986:11061  (bool success, bytes memory returndata) = target.call{ value: value }(data) */\n      swap2\n      pop\n      swap2\n      pop\n        /* \"Farm.sol\":11079:11131  _verifyCallResult(success, returndata, errorMessage) */\n      tag_235\n        /* \"Farm.sol\":11097:11104  success */\n      dup3\n        /* \"Farm.sol\":11106:11116  returndata */\n      dup3\n        /* \"Farm.sol\":11118:11130  errorMessage */\n      dup7\n        /* \"Farm.sol\":11079:11096  _verifyCallResult */\n      tag_236\n        /* \"Farm.sol\":11079:11131  _verifyCallResult(success, returndata, errorMessage) */\n      jump\t// in\n    tag_235:\n        /* \"Farm.sol\":11072:11131  return _verifyCallResult(success, returndata, errorMessage) */\n      swap3\n      pop\n      pop\n      pop\n        /* \"Farm.sol\":10609:11139  function functionCallWithValue(address target, bytes memory data, uint256 value, string memory errorMessage) internal returns (bytes memory) {\r... */\n      swap5\n      swap4\n      pop\n      pop\n      pop\n      pop\n      jump\t// out\n        /* \"Farm.sol\":6639:7061  function isContract(address account) internal view returns (bool) {\r... */\n    tag_226:\n        /* \"Farm.sol\":6699:6703  bool */\n      0x00\n        /* \"Farm.sol\":6907:6919  uint256 size */\n      dup1\n        /* \"Farm.sol\":7018:7025  account */\n      dup3\n        /* \"Farm.sol\":7006:7026  extcodesize(account) */\n      extcodesize\n        /* \"Farm.sol\":6998:7026  size := extcodesize(account) */\n      swap1\n      pop\n        /* \"Farm.sol\":7052:7053  0 */\n      0x00\n        /* \"Farm.sol\":7045:7049  size */\n      dup2\n        /* \"Farm.sol\":7045:7053  size > 0 */\n      gt\n        /* \"Farm.sol\":7038:7053  return size > 0 */\n      swap2\n      pop\n      pop\n        /* \"Farm.sol\":6639:7061  function isContract(address account) internal view returns (bool) {\r... */\n      swap2\n      swap1\n      pop\n      jump\t// out\n        /* \"Farm.sol\":12145:12887  function _verifyCallResult(bool success, bytes memory returndata, string memory errorMessage) private pure returns(bytes memory) {\r... */\n    tag_236:\n        /* \"Farm.sol\":12260:12272  bytes memory */\n      0x60\n        /* \"Farm.sol\":12289:12296  success */\n      dup4\n        /* \"Farm.sol\":12285:12880  if (success) {\r... */\n      iszero\n      tag_239\n      jumpi\n        /* \"Farm.sol\":12320:12330  returndata */\n      dup3\n        /* \"Farm.sol\":12313:12330  return returndata */\n      swap1\n      pop\n      jump(tag_238)\n        /* \"Farm.sol\":12285:12880  if (success) {\r... */\n    tag_239:\n        /* \"Farm.sol\":12454:12455  0 */\n      0x00\n        /* \"Farm.sol\":12434:12444  returndata */\n      dup4\n        /* \"Farm.sol\":12434:12451  returndata.length */\n      mload\n        /* \"Farm.sol\":12434:12455  returndata.length > 0 */\n      gt\n        /* \"Farm.sol\":12430:12869  if (returndata.length > 0) {\r... */\n      iszero\n      tag_241\n      jumpi\n        /* \"Farm.sol\":12697:12707  returndata */\n      dup3\n        /* \"Farm.sol\":12691:12708  mload(returndata) */\n      mload\n        /* \"Farm.sol\":12758:12773  returndata_size */\n      dup1\n        /* \"Farm.sol\":12745:12755  returndata */\n      dup5\n        /* \"Farm.sol\":12741:12743  32 */\n      0x20\n        /* \"Farm.sol\":12737:12756  add(32, returndata) */\n      add\n        /* \"Farm.sol\":12730:12774  revert(add(32, returndata), returndata_size) */\n      revert\n        /* \"Farm.sol\":12430:12869  if (returndata.length > 0) {\r... */\n    tag_241:\n        /* \"Farm.sol\":12840:12852  errorMessage */\n      dup2\n        /* \"Farm.sol\":12833:12853  revert(errorMessage) */\n      mload(0x40)\n      0x08c379a000000000000000000000000000000000000000000000000000000000\n      dup2\n      mstore\n      0x04\n      add\n      tag_243\n      swap2\n      swap1\n      tag_244\n      jump\t// in\n    tag_243:\n      mload(0x40)\n      dup1\n      swap2\n      sub\n      swap1\n      revert\n        /* \"Farm.sol\":12145:12887  function _verifyCallResult(bool success, bytes memory returndata, string memory errorMessage) private pure returns(bytes memory) {\r... */\n    tag_238:\n      swap4\n      swap3\n      pop\n      pop\n      pop\n      jump\t// out\n    tag_125:\n      mload(0x40)\n      dup1\n      0x40\n      add\n      0x40\n      mstore\n      dup1\n      and(0xffffffffffffffffffffffffffffffffffffffff, 0x00)\n      dup2\n      mstore\n      0x20\n      add\n      0x00\n      dup2\n      mstore\n      pop\n      swap1\n      jump\t// out\n        /* \"#utility.yul\":7:146   */\n    tag_246:\n        /* \"#utility.yul\":53:58   */\n      0x00\n        /* \"#utility.yul\":91:97   */\n      dup2\n        /* \"#utility.yul\":78:98   */\n      calldataload\n        /* \"#utility.yul\":69:98   */\n      swap1\n      pop\n        /* \"#utility.yul\":107:140   */\n      tag_248\n        /* \"#utility.yul\":134:139   */\n      dup2\n        /* \"#utility.yul\":107:140   */\n      tag_249\n      jump\t// in\n    tag_248:\n        /* \"#utility.yul\":7:146   */\n      swap3\n      swap2\n      pop\n      pop\n      jump\t// out\n        /* \"#utility.yul\":152:295   */\n    tag_250:\n        /* \"#utility.yul\":209:214   */\n      0x00\n        /* \"#utility.yul\":240:246   */\n      dup2\n        /* \"#utility.yul\":234:247   */\n      mload\n        /* \"#utility.yul\":225:247   */\n      swap1\n      pop\n        /* \"#utility.yul\":256:289   */\n      tag_252\n        /* \"#utility.yul\":283:288   */\n      dup2\n        /* \"#utility.yul\":256:289   */\n      tag_249\n      jump\t// in\n    tag_252:\n        /* \"#utility.yul\":152:295   */\n      swap3\n      swap2\n      pop\n      pop\n      jump\t// out\n        /* \"#utility.yul\":301:438   */\n    tag_253:\n        /* \"#utility.yul\":355:360   */\n      0x00\n        /* \"#utility.yul\":386:392   */\n      dup2\n        /* \"#utility.yul\":380:393   */\n      mload\n        /* \"#utility.yul\":371:393   */\n      swap1\n      pop\n        /* \"#utility.yul\":402:432   */\n      tag_255\n        /* \"#utility.yul\":426:431   */\n      dup2\n        /* \"#utility.yul\":402:432   */\n      tag_256\n      jump\t// in\n    tag_255:\n        /* \"#utility.yul\":301:438   */\n      swap3\n      swap2\n      pop\n      pop\n      jump\t// out\n        /* \"#utility.yul\":457:1009   */\n    tag_257:\n        /* \"#utility.yul\":514:522   */\n      0x00\n        /* \"#utility.yul\":524:530   */\n      dup1\n        /* \"#utility.yul\":574:577   */\n      dup4\n        /* \"#utility.yul\":567:571   */\n      0x1f\n        /* \"#utility.yul\":559:565   */\n      dup5\n        /* \"#utility.yul\":555:572   */\n      add\n        /* \"#utility.yul\":551:578   */\n      slt\n        /* \"#utility.yul\":541:663   */\n      tag_259\n      jumpi\n        /* \"#utility.yul\":582:661   */\n      tag_260\n      tag_261\n      jump\t// in\n    tag_260:\n        /* \"#utility.yul\":541:663   */\n    tag_259:\n        /* \"#utility.yul\":695:701   */\n      dup3\n        /* \"#utility.yul\":682:702   */\n      calldataload\n        /* \"#utility.yul\":672:702   */\n      swap1\n      pop\n        /* \"#utility.yul\":725:743   */\n      0xffffffffffffffff\n        /* \"#utility.yul\":717:723   */\n      dup2\n        /* \"#utility.yul\":714:744   */\n      gt\n        /* \"#utility.yul\":711:828   */\n      iszero\n      tag_262\n      jumpi\n        /* \"#utility.yul\":747:826   */\n      tag_263\n      tag_264\n      jump\t// in\n    tag_263:\n        /* \"#utility.yul\":711:828   */\n    tag_262:\n        /* \"#utility.yul\":861:865   */\n      0x20\n        /* \"#utility.yul\":853:859   */\n      dup4\n        /* \"#utility.yul\":849:866   */\n      add\n        /* \"#utility.yul\":837:866   */\n      swap2\n      pop\n        /* \"#utility.yul\":915:918   */\n      dup4\n        /* \"#utility.yul\":907:911   */\n      0x01\n        /* \"#utility.yul\":899:905   */\n      dup3\n        /* \"#utility.yul\":895:912   */\n      mul\n        /* \"#utility.yul\":885:893   */\n      dup4\n        /* \"#utility.yul\":881:913   */\n      add\n        /* \"#utility.yul\":878:919   */\n      gt\n        /* \"#utility.yul\":875:1003   */\n      iszero\n      tag_265\n      jumpi\n        /* \"#utility.yul\":922:1001   */\n      tag_266\n      tag_267\n      jump\t// in\n    tag_266:\n        /* \"#utility.yul\":875:1003   */\n    tag_265:\n        /* \"#utility.yul\":457:1009   */\n      swap3\n      pop\n      swap3\n      swap1\n      pop\n      jump\t// out\n        /* \"#utility.yul\":1015:1154   */\n    tag_268:\n        /* \"#utility.yul\":1061:1066   */\n      0x00\n        /* \"#utility.yul\":1099:1105   */\n      dup2\n        /* \"#utility.yul\":1086:1106   */\n      calldataload\n        /* \"#utility.yul\":1077:1106   */\n      swap1\n      pop\n        /* \"#utility.yul\":1115:1148   */\n      tag_270\n        /* \"#utility.yul\":1142:1147   */\n      dup2\n        /* \"#utility.yul\":1115:1148   */\n      tag_271\n      jump\t// in\n    tag_270:\n        /* \"#utility.yul\":1015:1154   */\n      swap3\n      swap2\n      pop\n      pop\n      jump\t// out\n        /* \"#utility.yul\":1160:1489   */\n    tag_36:\n        /* \"#utility.yul\":1219:1225   */\n      0x00\n        /* \"#utility.yul\":1268:1270   */\n      0x20\n        /* \"#utility.yul\":1256:1265   */\n      dup3\n        /* \"#utility.yul\":1247:1254   */\n      dup5\n        /* \"#utility.yul\":1243:1266   */\n      sub\n        /* \"#utility.yul\":1239:1271   */\n      slt\n        /* \"#utility.yul\":1236:1355   */\n      iszero\n      tag_273\n      jumpi\n        /* \"#utility.yul\":1274:1353   */\n      tag_274\n      tag_275\n      jump\t// in\n    tag_274:\n        /* \"#utility.yul\":1236:1355   */\n    tag_273:\n        /* \"#utility.yul\":1394:1395   */\n      0x00\n        /* \"#utility.yul\":1419:1472   */\n      tag_276\n        /* \"#utility.yul\":1464:1471   */\n      dup5\n        /* \"#utility.yul\":1455:1461   */\n      dup3\n        /* \"#utility.yul\":1444:1453   */\n      dup6\n        /* \"#utility.yul\":1440:1462   */\n      add\n        /* \"#utility.yul\":1419:1472   */\n      tag_246\n      jump\t// in\n    tag_276:\n        /* \"#utility.yul\":1409:1472   */\n      swap2\n      pop\n        /* \"#utility.yul\":1365:1482   */\n      pop\n        /* \"#utility.yul\":1160:1489   */\n      swap3\n      swap2\n      pop\n      pop\n      jump\t// out\n        /* \"#utility.yul\":1495:1846   */\n    tag_162:\n        /* \"#utility.yul\":1565:1571   */\n      0x00\n        /* \"#utility.yul\":1614:1616   */\n      0x20\n        /* \"#utility.yul\":1602:1611   */\n      dup3\n        /* \"#utility.yul\":1593:1600   */\n      dup5\n        /* \"#utility.yul\":1589:1612   */\n      sub\n        /* \"#utility.yul\":1585:1617   */\n      slt\n        /* \"#utility.yul\":1582:1701   */\n      iszero\n      tag_278\n      jumpi\n        /* \"#utility.yul\":1620:1699   */\n      tag_279\n      tag_275\n      jump\t// in\n    tag_279:\n        /* \"#utility.yul\":1582:1701   */\n    tag_278:\n        /* \"#utility.yul\":1740:1741   */\n      0x00\n        /* \"#utility.yul\":1765:1829   */\n      tag_280\n        /* \"#utility.yul\":1821:1828   */\n      dup5\n        /* \"#utility.yul\":1812:1818   */\n      dup3\n        /* \"#utility.yul\":1801:1810   */\n      dup6\n        /* \"#utility.yul\":1797:1819   */\n      add\n        /* \"#utility.yul\":1765:1829   */\n      tag_250\n      jump\t// in\n    tag_280:\n        /* \"#utility.yul\":1755:1829   */\n      swap2\n      pop\n        /* \"#utility.yul\":1711:1839   */\n      pop\n        /* \"#utility.yul\":1495:1846   */\n      swap3\n      swap2\n      pop\n      pop\n      jump\t// out\n        /* \"#utility.yul\":1852:2815   */\n    tag_20:\n        /* \"#utility.yul\":1949:1955   */\n      0x00\n        /* \"#utility.yul\":1957:1963   */\n      dup1\n        /* \"#utility.yul\":1965:1971   */\n      0x00\n        /* \"#utility.yul\":1973:1979   */\n      dup1\n        /* \"#utility.yul\":1981:1987   */\n      0x00\n        /* \"#utility.yul\":2030:2033   */\n      0x80\n        /* \"#utility.yul\":2018:2027   */\n      dup7\n        /* \"#utility.yul\":2009:2016   */\n      dup9\n        /* \"#utility.yul\":2005:2028   */\n      sub\n        /* \"#utility.yul\":2001:2034   */\n      slt\n        /* \"#utility.yul\":1998:2118   */\n      iszero\n      tag_282\n      jumpi\n        /* \"#utility.yul\":2037:2116   */\n      tag_283\n      tag_275\n      jump\t// in\n    tag_283:\n        /* \"#utility.yul\":1998:2118   */\n    tag_282:\n        /* \"#utility.yul\":2157:2158   */\n      0x00\n        /* \"#utility.yul\":2182:2235   */\n      tag_284\n        /* \"#utility.yul\":2227:2234   */\n      dup9\n        /* \"#utility.yul\":2218:2224   */\n      dup3\n        /* \"#utility.yul\":2207:2216   */\n      dup10\n        /* \"#utility.yul\":2203:2225   */\n      add\n        /* \"#utility.yul\":2182:2235   */\n      tag_246\n      jump\t// in\n    tag_284:\n        /* \"#utility.yul\":2172:2235   */\n      swap6\n      pop\n        /* \"#utility.yul\":2128:2245   */\n      pop\n        /* \"#utility.yul\":2284:2286   */\n      0x20\n        /* \"#utility.yul\":2310:2363   */\n      tag_285\n        /* \"#utility.yul\":2355:2362   */\n      dup9\n        /* \"#utility.yul\":2346:2352   */\n      dup3\n        /* \"#utility.yul\":2335:2344   */\n      dup10\n        /* \"#utility.yul\":2331:2353   */\n      add\n        /* \"#utility.yul\":2310:2363   */\n      tag_246\n      jump\t// in\n    tag_285:\n        /* \"#utility.yul\":2300:2363   */\n      swap5\n      pop\n        /* \"#utility.yul\":2255:2373   */\n      pop\n        /* \"#utility.yul\":2412:2414   */\n      0x40\n        /* \"#utility.yul\":2438:2491   */\n      tag_286\n        /* \"#utility.yul\":2483:2490   */\n      dup9\n        /* \"#utility.yul\":2474:2480   */\n      dup3\n        /* \"#utility.yul\":2463:2472   */\n      dup10\n        /* \"#utility.yul\":2459:2481   */\n      add\n        /* \"#utility.yul\":2438:2491   */\n      tag_268\n      jump\t// in\n    tag_286:\n        /* \"#utility.yul\":2428:2491   */\n      swap4\n      pop\n        /* \"#utility.yul\":2383:2501   */\n      pop\n        /* \"#utility.yul\":2568:2570   */\n      0x60\n        /* \"#utility.yul\":2557:2566   */\n      dup7\n        /* \"#utility.yul\":2553:2571   */\n      add\n        /* \"#utility.yul\":2540:2572   */\n      calldataload\n        /* \"#utility.yul\":2599:2617   */\n      0xffffffffffffffff\n        /* \"#utility.yul\":2591:2597   */\n      dup2\n        /* \"#utility.yul\":2588:2618   */\n      gt\n        /* \"#utility.yul\":2585:2702   */\n      iszero\n      tag_287\n      jumpi\n        /* \"#utility.yul\":2621:2700   */\n      tag_288\n      tag_289\n      jump\t// in\n    tag_288:\n        /* \"#utility.yul\":2585:2702   */\n    tag_287:\n        /* \"#utility.yul\":2734:2798   */\n      tag_290\n        /* \"#utility.yul\":2790:2797   */\n      dup9\n        /* \"#utility.yul\":2781:2787   */\n      dup3\n        /* \"#utility.yul\":2770:2779   */\n      dup10\n        /* \"#utility.yul\":2766:2788   */\n      add\n        /* \"#utility.yul\":2734:2798   */\n      tag_257\n      jump\t// in\n    tag_290:\n        /* \"#utility.yul\":2716:2798   */\n      swap3\n      pop\n      swap3\n      pop\n        /* \"#utility.yul\":2511:2808   */\n      pop\n        /* \"#utility.yul\":1852:2815   */\n      swap3\n      swap6\n      pop\n      swap3\n      swap6\n      swap1\n      swap4\n      pop\n      jump\t// out\n        /* \"#utility.yul\":2821:3166   */\n    tag_213:\n        /* \"#utility.yul\":2888:2894   */\n      0x00\n        /* \"#utility.yul\":2937:2939   */\n      0x20\n        /* \"#utility.yul\":2925:2934   */\n      dup3\n        /* \"#utility.yul\":2916:2923   */\n      dup5\n        /* \"#utility.yul\":2912:2935   */\n      sub\n        /* \"#utility.yul\":2908:2940   */\n      slt\n        /* \"#utility.yul\":2905:3024   */\n      iszero\n      tag_292\n      jumpi\n        /* \"#utility.yul\":2943:3022   */\n      tag_293\n      tag_275\n      jump\t// in\n    tag_293:\n        /* \"#utility.yul\":2905:3024   */\n    tag_292:\n        /* \"#utility.yul\":3063:3064   */\n      0x00\n        /* \"#utility.yul\":3088:3149   */\n      tag_294\n        /* \"#utility.yul\":3141:3148   */\n      dup5\n        /* \"#utility.yul\":3132:3138   */\n      dup3\n        /* \"#utility.yul\":3121:3130   */\n      dup6\n        /* \"#utility.yul\":3117:3139   */\n      add\n        /* \"#utility.yul\":3088:3149   */\n      tag_253\n      jump\t// in\n    tag_294:\n        /* \"#utility.yul\":3078:3149   */\n      swap2\n      pop\n        /* \"#utility.yul\":3034:3159   */\n      pop\n        /* \"#utility.yul\":2821:3166   */\n      swap3\n      swap2\n      pop\n      pop\n      jump\t// out\n        /* \"#utility.yul\":3172:3501   */\n    tag_26:\n        /* \"#utility.yul\":3231:3237   */\n      0x00\n        /* \"#utility.yul\":3280:3282   */\n      0x20\n        /* \"#utility.yul\":3268:3277   */\n      dup3\n        /* \"#utility.yul\":3259:3266   */\n      dup5\n        /* \"#utility.yul\":3255:3278   */\n      sub\n        /* \"#utility.yul\":3251:3283   */\n      slt\n        /* \"#utility.yul\":3248:3367   */\n      iszero\n      tag_296\n      jumpi\n        /* \"#utility.yul\":3286:3365   */\n      tag_297\n      tag_275\n      jump\t// in\n    tag_297:\n        /* \"#utility.yul\":3248:3367   */\n    tag_296:\n        /* \"#utility.yul\":3406:3407   */\n      0x00\n        /* \"#utility.yul\":3431:3484   */\n      tag_298\n        /* \"#utility.yul\":3476:3483   */\n      dup5\n        /* \"#utility.yul\":3467:3473   */\n      dup3\n        /* \"#utility.yul\":3456:3465   */\n      dup6\n        /* \"#utility.yul\":3452:3474   */\n      add\n        /* \"#utility.yul\":3431:3484   */\n      tag_268\n      jump\t// in\n    tag_298:\n        /* \"#utility.yul\":3421:3484   */\n      swap2\n      pop\n        /* \"#utility.yul\":3377:3494   */\n      pop\n        /* \"#utility.yul\":3172:3501   */\n      swap3\n      swap2\n      pop\n      pop\n      jump\t// out\n        /* \"#utility.yul\":3507:3802   */\n    tag_299:\n        /* \"#utility.yul\":3634:3644   */\n      0x00\n        /* \"#utility.yul\":3655:3759   */\n      tag_301\n        /* \"#utility.yul\":3755:3758   */\n      dup4\n        /* \"#utility.yul\":3747:3753   */\n      dup4\n        /* \"#utility.yul\":3655:3759   */\n      tag_302\n      jump\t// in\n    tag_301:\n        /* \"#utility.yul\":3791:3795   */\n      0x40\n        /* \"#utility.yul\":3786:3789   */\n      dup4\n        /* \"#utility.yul\":3782:3796   */\n      add\n        /* \"#utility.yul\":3768:3796   */\n      swap1\n      pop\n        /* \"#utility.yul\":3507:3802   */\n      swap3\n      swap2\n      pop\n      pop\n      jump\t// out\n        /* \"#utility.yul\":3808:3916   */\n    tag_303:\n        /* \"#utility.yul\":3885:3909   */\n      tag_305\n        /* \"#utility.yul\":3903:3908   */\n      dup2\n        /* \"#utility.yul\":3885:3909   */\n      tag_306\n      jump\t// in\n    tag_305:\n        /* \"#utility.yul\":3880:3883   */\n      dup3\n        /* \"#utility.yul\":3873:3910   */\n      mstore\n        /* \"#utility.yul\":3808:3916   */\n      pop\n      pop\n      jump\t// out\n        /* \"#utility.yul\":3922:4040   */\n    tag_307:\n        /* \"#utility.yul\":4009:4033   */\n      tag_309\n        /* \"#utility.yul\":4027:4032   */\n      dup2\n        /* \"#utility.yul\":4009:4033   */\n      tag_306\n      jump\t// in\n    tag_309:\n        /* \"#utility.yul\":4004:4007   */\n      dup3\n        /* \"#utility.yul\":3997:4034   */\n      mstore\n        /* \"#utility.yul\":3922:4040   */\n      pop\n      pop\n      jump\t// out\n        /* \"#utility.yul\":4046:4203   */\n    tag_310:\n        /* \"#utility.yul\":4151:4196   */\n      tag_312\n        /* \"#utility.yul\":4171:4195   */\n      tag_313\n        /* \"#utility.yul\":4189:4194   */\n      dup3\n        /* \"#utility.yul\":4171:4195   */\n      tag_306\n      jump\t// in\n    tag_313:\n        /* \"#utility.yul\":4151:4196   */\n      tag_314\n      jump\t// in\n    tag_312:\n        /* \"#utility.yul\":4146:4149   */\n      dup3\n        /* \"#utility.yul\":4139:4197   */\n      mstore\n        /* \"#utility.yul\":4046:4203   */\n      pop\n      pop\n      jump\t// out\n        /* \"#utility.yul\":4271:5235   */\n    tag_315:\n        /* \"#utility.yul\":4448:4451   */\n      0x00\n        /* \"#utility.yul\":4477:4560   */\n      tag_317\n        /* \"#utility.yul\":4554:4559   */\n      dup3\n        /* \"#utility.yul\":4477:4560   */\n      tag_318\n      jump\t// in\n    tag_317:\n        /* \"#utility.yul\":4576:4691   */\n      tag_319\n        /* \"#utility.yul\":4684:4690   */\n      dup2\n        /* \"#utility.yul\":4679:4682   */\n      dup6\n        /* \"#utility.yul\":4576:4691   */\n      tag_320\n      jump\t// in\n    tag_319:\n        /* \"#utility.yul\":4569:4691   */\n      swap4\n      pop\n        /* \"#utility.yul\":4715:4800   */\n      tag_321\n        /* \"#utility.yul\":4794:4799   */\n      dup4\n        /* \"#utility.yul\":4715:4800   */\n      tag_322\n      jump\t// in\n    tag_321:\n        /* \"#utility.yul\":4823:4830   */\n      dup1\n        /* \"#utility.yul\":4854:4855   */\n      0x00\n        /* \"#utility.yul\":4839:5210   */\n    tag_323:\n        /* \"#utility.yul\":4864:4870   */\n      dup4\n        /* \"#utility.yul\":4861:4862   */\n      dup2\n        /* \"#utility.yul\":4858:4871   */\n      lt\n        /* \"#utility.yul\":4839:5210   */\n      iszero\n      tag_325\n      jumpi\n        /* \"#utility.yul\":4940:4946   */\n      dup2\n        /* \"#utility.yul\":4934:4947   */\n      mload\n        /* \"#utility.yul\":4967:5088   */\n      tag_326\n        /* \"#utility.yul\":5084:5087   */\n      dup9\n        /* \"#utility.yul\":5069:5082   */\n      dup3\n        /* \"#utility.yul\":4967:5088   */\n      tag_299\n      jump\t// in\n    tag_326:\n        /* \"#utility.yul\":4960:5088   */\n      swap8\n      pop\n        /* \"#utility.yul\":5111:5200   */\n      tag_327\n        /* \"#utility.yul\":5193:5199   */\n      dup4\n        /* \"#utility.yul\":5111:5200   */\n      tag_328\n      jump\t// in\n    tag_327:\n        /* \"#utility.yul\":5101:5200   */\n      swap3\n      pop\n        /* \"#utility.yul\":4899:5210   */\n      pop\n        /* \"#utility.yul\":4886:4887   */\n      0x01\n        /* \"#utility.yul\":4883:4884   */\n      dup2\n        /* \"#utility.yul\":4879:4888   */\n      add\n        /* \"#utility.yul\":4874:4888   */\n      swap1\n      pop\n        /* \"#utility.yul\":4839:5210   */\n      jump(tag_323)\n    tag_325:\n        /* \"#utility.yul\":4843:4857   */\n      pop\n        /* \"#utility.yul\":5226:5229   */\n      dup6\n        /* \"#utility.yul\":5219:5229   */\n      swap4\n      pop\n        /* \"#utility.yul\":4453:5235   */\n      pop\n      pop\n      pop\n        /* \"#utility.yul\":4271:5235   */\n      swap3\n      swap2\n      pop\n      pop\n      jump\t// out\n        /* \"#utility.yul\":5241:5350   */\n    tag_329:\n        /* \"#utility.yul\":5322:5343   */\n      tag_331\n        /* \"#utility.yul\":5337:5342   */\n      dup2\n        /* \"#utility.yul\":5322:5343   */\n      tag_332\n      jump\t// in\n    tag_331:\n        /* \"#utility.yul\":5317:5320   */\n      dup3\n        /* \"#utility.yul\":5310:5344   */\n      mstore\n        /* \"#utility.yul\":5241:5350   */\n      pop\n      pop\n      jump\t// out\n        /* \"#utility.yul\":5356:5471   */\n    tag_333:\n        /* \"#utility.yul\":5441:5464   */\n      tag_335\n        /* \"#utility.yul\":5458:5463   */\n      dup2\n        /* \"#utility.yul\":5441:5464   */\n      tag_336\n      jump\t// in\n    tag_335:\n        /* \"#utility.yul\":5436:5439   */\n      dup3\n        /* \"#utility.yul\":5429:5465   */\n      mstore\n        /* \"#utility.yul\":5356:5471   */\n      pop\n      pop\n      jump\t// out\n        /* \"#utility.yul\":5499:5813   */\n    tag_337:\n        /* \"#utility.yul\":5613:5616   */\n      0x00\n        /* \"#utility.yul\":5634:5722   */\n      tag_339\n        /* \"#utility.yul\":5715:5721   */\n      dup4\n        /* \"#utility.yul\":5710:5713   */\n      dup6\n        /* \"#utility.yul\":5634:5722   */\n      tag_340\n      jump\t// in\n    tag_339:\n        /* \"#utility.yul\":5627:5722   */\n      swap4\n      pop\n        /* \"#utility.yul\":5732:5775   */\n      tag_341\n        /* \"#utility.yul\":5768:5774   */\n      dup4\n        /* \"#utility.yul\":5763:5766   */\n      dup6\n        /* \"#utility.yul\":5756:5761   */\n      dup5\n        /* \"#utility.yul\":5732:5775   */\n      tag_342\n      jump\t// in\n    tag_341:\n        /* \"#utility.yul\":5800:5806   */\n      dup3\n        /* \"#utility.yul\":5795:5798   */\n      dup5\n        /* \"#utility.yul\":5791:5807   */\n      add\n        /* \"#utility.yul\":5784:5807   */\n      swap1\n      pop\n        /* \"#utility.yul\":5499:5813   */\n      swap4\n      swap3\n      pop\n      pop\n      pop\n      jump\t// out\n        /* \"#utility.yul\":5819:6192   */\n    tag_343:\n        /* \"#utility.yul\":5923:5926   */\n      0x00\n        /* \"#utility.yul\":5951:5989   */\n      tag_345\n        /* \"#utility.yul\":5983:5988   */\n      dup3\n        /* \"#utility.yul\":5951:5989   */\n      tag_346\n      jump\t// in\n    tag_345:\n        /* \"#utility.yul\":6005:6093   */\n      tag_347\n        /* \"#utility.yul\":6086:6092   */\n      dup2\n        /* \"#utility.yul\":6081:6084   */\n      dup6\n        /* \"#utility.yul\":6005:6093   */\n      tag_340\n      jump\t// in\n    tag_347:\n        /* \"#utility.yul\":5998:6093   */\n      swap4\n      pop\n        /* \"#utility.yul\":6102:6154   */\n      tag_348\n        /* \"#utility.yul\":6147:6153   */\n      dup2\n        /* \"#utility.yul\":6142:6145   */\n      dup6\n        /* \"#utility.yul\":6135:6139   */\n      0x20\n        /* \"#utility.yul\":6128:6133   */\n      dup7\n        /* \"#utility.yul\":6124:6140   */\n      add\n        /* \"#utility.yul\":6102:6154   */\n      tag_349\n      jump\t// in\n    tag_348:\n        /* \"#utility.yul\":6179:6185   */\n      dup1\n        /* \"#utility.yul\":6174:6177   */\n      dup5\n        /* \"#utility.yul\":6170:6186   */\n      add\n        /* \"#utility.yul\":6163:6186   */\n      swap2\n      pop\n        /* \"#utility.yul\":5927:6192   */\n      pop\n        /* \"#utility.yul\":5819:6192   */\n      swap3\n      swap2\n      pop\n      pop\n      jump\t// out\n        /* \"#utility.yul\":6198:6357   */\n    tag_350:\n        /* \"#utility.yul\":6299:6350   */\n      tag_352\n        /* \"#utility.yul\":6344:6349   */\n      dup2\n        /* \"#utility.yul\":6299:6350   */\n      tag_353\n      jump\t// in\n    tag_352:\n        /* \"#utility.yul\":6294:6297   */\n      dup3\n        /* \"#utility.yul\":6287:6351   */\n      mstore\n        /* \"#utility.yul\":6198:6357   */\n      pop\n      pop\n      jump\t// out\n        /* \"#utility.yul\":6363:6524   */\n    tag_354:\n        /* \"#utility.yul\":6465:6517   */\n      tag_356\n        /* \"#utility.yul\":6511:6516   */\n      dup2\n        /* \"#utility.yul\":6465:6517   */\n      tag_357\n      jump\t// in\n    tag_356:\n        /* \"#utility.yul\":6460:6463   */\n      dup3\n        /* \"#utility.yul\":6453:6518   */\n      mstore\n        /* \"#utility.yul\":6363:6524   */\n      pop\n      pop\n      jump\t// out\n        /* \"#utility.yul\":6530:6894   */\n    tag_358:\n        /* \"#utility.yul\":6618:6621   */\n      0x00\n        /* \"#utility.yul\":6646:6685   */\n      tag_360\n        /* \"#utility.yul\":6679:6684   */\n      dup3\n        /* \"#utility.yul\":6646:6685   */\n      tag_361\n      jump\t// in\n    tag_360:\n        /* \"#utility.yul\":6701:6772   */\n      tag_362\n        /* \"#utility.yul\":6765:6771   */\n      dup2\n        /* \"#utility.yul\":6760:6763   */\n      dup6\n        /* \"#utility.yul\":6701:6772   */\n      tag_363\n      jump\t// in\n    tag_362:\n        /* \"#utility.yul\":6694:6772   */\n      swap4\n      pop\n        /* \"#utility.yul\":6781:6833   */\n      tag_364\n        /* \"#utility.yul\":6826:6832   */\n      dup2\n        /* \"#utility.yul\":6821:6824   */\n      dup6\n        /* \"#utility.yul\":6814:6818   */\n      0x20\n        /* \"#utility.yul\":6807:6812   */\n      dup7\n        /* \"#utility.yul\":6803:6819   */\n      add\n        /* \"#utility.yul\":6781:6833   */\n      tag_349\n      jump\t// in\n    tag_364:\n        /* \"#utility.yul\":6858:6887   */\n      tag_365\n        /* \"#utility.yul\":6880:6886   */\n      dup2\n        /* \"#utility.yul\":6858:6887   */\n      tag_366\n      jump\t// in\n    tag_365:\n        /* \"#utility.yul\":6853:6856   */\n      dup5\n        /* \"#utility.yul\":6849:6888   */\n      add\n        /* \"#utility.yul\":6842:6888   */\n      swap2\n      pop\n        /* \"#utility.yul\":6622:6894   */\n      pop\n        /* \"#utility.yul\":6530:6894   */\n      swap3\n      swap2\n      pop\n      pop\n      jump\t// out\n        /* \"#utility.yul\":6900:7266   */\n    tag_367:\n        /* \"#utility.yul\":7042:7045   */\n      0x00\n        /* \"#utility.yul\":7063:7130   */\n      tag_369\n        /* \"#utility.yul\":7127:7129   */\n      0x19\n        /* \"#utility.yul\":7122:7125   */\n      dup4\n        /* \"#utility.yul\":7063:7130   */\n      tag_363\n      jump\t// in\n    tag_369:\n        /* \"#utility.yul\":7056:7130   */\n      swap2\n      pop\n        /* \"#utility.yul\":7139:7232   */\n      tag_370\n        /* \"#utility.yul\":7228:7231   */\n      dup3\n        /* \"#utility.yul\":7139:7232   */\n      tag_371\n      jump\t// in\n    tag_370:\n        /* \"#utility.yul\":7257:7259   */\n      0x20\n        /* \"#utility.yul\":7252:7255   */\n      dup3\n        /* \"#utility.yul\":7248:7260   */\n      add\n        /* \"#utility.yul\":7241:7260   */\n      swap1\n      pop\n        /* \"#utility.yul\":6900:7266   */\n      swap2\n      swap1\n      pop\n      jump\t// out\n        /* \"#utility.yul\":7272:7638   */\n    tag_372:\n        /* \"#utility.yul\":7414:7417   */\n      0x00\n        /* \"#utility.yul\":7435:7502   */\n      tag_374\n        /* \"#utility.yul\":7499:7501   */\n      0x26\n        /* \"#utility.yul\":7494:7497   */\n      dup4\n        /* \"#utility.yul\":7435:7502   */\n      tag_363\n      jump\t// in\n    tag_374:\n        /* \"#utility.yul\":7428:7502   */\n      swap2\n      pop\n        /* \"#utility.yul\":7511:7604   */\n      tag_375\n        /* \"#utility.yul\":7600:7603   */\n      dup3\n        /* \"#utility.yul\":7511:7604   */\n      tag_376\n      jump\t// in\n    tag_375:\n        /* \"#utility.yul\":7629:7631   */\n      0x40\n        /* \"#utility.yul\":7624:7627   */\n      dup3\n        /* \"#utility.yul\":7620:7632   */\n      add\n        /* \"#utility.yul\":7613:7632   */\n      swap1\n      pop\n        /* \"#utility.yul\":7272:7638   */\n      swap2\n      swap1\n      pop\n      jump\t// out\n        /* \"#utility.yul\":7644:8010   */\n    tag_377:\n        /* \"#utility.yul\":7786:7789   */\n      0x00\n        /* \"#utility.yul\":7807:7874   */\n      tag_379\n        /* \"#utility.yul\":7871:7873   */\n      0x19\n        /* \"#utility.yul\":7866:7869   */\n      dup4\n        /* \"#utility.yul\":7807:7874   */\n      tag_363\n      jump\t// in\n    tag_379:\n        /* \"#utility.yul\":7800:7874   */\n      swap2\n      pop\n        /* \"#utility.yul\":7883:7976   */\n      tag_380\n        /* \"#utility.yul\":7972:7975   */\n      dup3\n        /* \"#utility.yul\":7883:7976   */\n      tag_381\n      jump\t// in\n    tag_380:\n        /* \"#utility.yul\":8001:8003   */\n      0x20\n        /* \"#utility.yul\":7996:7999   */\n      dup3\n        /* \"#utility.yul\":7992:8004   */\n      add\n        /* \"#utility.yul\":7985:8004   */\n      swap1\n      pop\n        /* \"#utility.yul\":7644:8010   */\n      swap2\n      swap1\n      pop\n      jump\t// out\n        /* \"#utility.yul\":8016:8382   */\n    tag_382:\n        /* \"#utility.yul\":8158:8161   */\n      0x00\n        /* \"#utility.yul\":8179:8246   */\n      tag_384\n        /* \"#utility.yul\":8243:8245   */\n      0x26\n        /* \"#utility.yul\":8238:8241   */\n      dup4\n        /* \"#utility.yul\":8179:8246   */\n      tag_363\n      jump\t// in\n    tag_384:\n        /* \"#utility.yul\":8172:8246   */\n      swap2\n      pop\n        /* \"#utility.yul\":8255:8348   */\n      tag_385\n        /* \"#utility.yul\":8344:8347   */\n      dup3\n        /* \"#utility.yul\":8255:8348   */\n      tag_386\n      jump\t// in\n    tag_385:\n        /* \"#utility.yul\":8373:8375   */\n      0x40\n        /* \"#utility.yul\":8368:8371   */\n      dup3\n        /* \"#utility.yul\":8364:8376   */\n      add\n        /* \"#utility.yul\":8357:8376   */\n      swap1\n      pop\n        /* \"#utility.yul\":8016:8382   */\n      swap2\n      swap1\n      pop\n      jump\t// out\n        /* \"#utility.yul\":8388:8754   */\n    tag_387:\n        /* \"#utility.yul\":8530:8533   */\n      0x00\n        /* \"#utility.yul\":8551:8618   */\n      tag_389\n        /* \"#utility.yul\":8615:8617   */\n      0x20\n        /* \"#utility.yul\":8610:8613   */\n      dup4\n        /* \"#utility.yul\":8551:8618   */\n      tag_363\n      jump\t// in\n    tag_389:\n        /* \"#utility.yul\":8544:8618   */\n      swap2\n      pop\n        /* \"#utility.yul\":8627:8720   */\n      tag_390\n        /* \"#utility.yul\":8716:8719   */\n      dup3\n        /* \"#utility.yul\":8627:8720   */\n      tag_391\n      jump\t// in\n    tag_390:\n        /* \"#utility.yul\":8745:8747   */\n      0x20\n        /* \"#utility.yul\":8740:8743   */\n      dup3\n        /* \"#utility.yul\":8736:8748   */\n      add\n        /* \"#utility.yul\":8729:8748   */\n      swap1\n      pop\n        /* \"#utility.yul\":8388:8754   */\n      swap2\n      swap1\n      pop\n      jump\t// out\n        /* \"#utility.yul\":8760:9126   */\n    tag_392:\n        /* \"#utility.yul\":8902:8905   */\n      0x00\n        /* \"#utility.yul\":8923:8990   */\n      tag_394\n        /* \"#utility.yul\":8987:8989   */\n      0x1c\n        /* \"#utility.yul\":8982:8985   */\n      dup4\n        /* \"#utility.yul\":8923:8990   */\n      tag_363\n      jump\t// in\n    tag_394:\n        /* \"#utility.yul\":8916:8990   */\n      swap2\n      pop\n        /* \"#utility.yul\":8999:9092   */\n      tag_395\n        /* \"#utility.yul\":9088:9091   */\n      dup3\n        /* \"#utility.yul\":8999:9092   */\n      tag_396\n      jump\t// in\n    tag_395:\n        /* \"#utility.yul\":9117:9119   */\n      0x20\n        /* \"#utility.yul\":9112:9115   */\n      dup3\n        /* \"#utility.yul\":9108:9120   */\n      add\n        /* \"#utility.yul\":9101:9120   */\n      swap1\n      pop\n        /* \"#utility.yul\":8760:9126   */\n      swap2\n      swap1\n      pop\n      jump\t// out\n        /* \"#utility.yul\":9132:9498   */\n    tag_397:\n        /* \"#utility.yul\":9274:9277   */\n      0x00\n        /* \"#utility.yul\":9295:9362   */\n      tag_399\n        /* \"#utility.yul\":9359:9361   */\n      0x1d\n        /* \"#utility.yul\":9354:9357   */\n      dup4\n        /* \"#utility.yul\":9295:9362   */\n      tag_363\n      jump\t// in\n    tag_399:\n        /* \"#utility.yul\":9288:9362   */\n      swap2\n      pop\n        /* \"#utility.yul\":9371:9464   */\n      tag_400\n        /* \"#utility.yul\":9460:9463   */\n      dup3\n        /* \"#utility.yul\":9371:9464   */\n      tag_401\n      jump\t// in\n    tag_400:\n        /* \"#utility.yul\":9489:9491   */\n      0x20\n        /* \"#utility.yul\":9484:9487   */\n      dup3\n        /* \"#utility.yul\":9480:9492   */\n      add\n        /* \"#utility.yul\":9473:9492   */\n      swap1\n      pop\n        /* \"#utility.yul\":9132:9498   */\n      swap2\n      swap1\n      pop\n      jump\t// out\n        /* \"#utility.yul\":9504:9870   */\n    tag_402:\n        /* \"#utility.yul\":9646:9649   */\n      0x00\n        /* \"#utility.yul\":9667:9734   */\n      tag_404\n        /* \"#utility.yul\":9731:9733   */\n      0x2a\n        /* \"#utility.yul\":9726:9729   */\n      dup4\n        /* \"#utility.yul\":9667:9734   */\n      tag_363\n      jump\t// in\n    tag_404:\n        /* \"#utility.yul\":9660:9734   */\n      swap2\n      pop\n        /* \"#utility.yul\":9743:9836   */\n      tag_405\n        /* \"#utility.yul\":9832:9835   */\n      dup3\n        /* \"#utility.yul\":9743:9836   */\n      tag_406\n      jump\t// in\n    tag_405:\n        /* \"#utility.yul\":9861:9863   */\n      0x40\n        /* \"#utility.yul\":9856:9859   */\n      dup3\n        /* \"#utility.yul\":9852:9864   */\n      add\n        /* \"#utility.yul\":9845:9864   */\n      swap1\n      pop\n        /* \"#utility.yul\":9504:9870   */\n      swap2\n      swap1\n      pop\n      jump\t// out\n        /* \"#utility.yul\":9876:10242   */\n    tag_407:\n        /* \"#utility.yul\":10018:10021   */\n      0x00\n        /* \"#utility.yul\":10039:10106   */\n      tag_409\n        /* \"#utility.yul\":10103:10105   */\n      0x1f\n        /* \"#utility.yul\":10098:10101   */\n      dup4\n        /* \"#utility.yul\":10039:10106   */\n      tag_363\n      jump\t// in\n    tag_409:\n        /* \"#utility.yul\":10032:10106   */\n      swap2\n      pop\n        /* \"#utility.yul\":10115:10208   */\n      tag_410\n        /* \"#utility.yul\":10204:10207   */\n      dup3\n        /* \"#utility.yul\":10115:10208   */\n      tag_411\n      jump\t// in\n    tag_410:\n        /* \"#utility.yul\":10233:10235   */\n      0x20\n        /* \"#utility.yul\":10228:10231   */\n      dup3\n        /* \"#utility.yul\":10224:10236   */\n      add\n        /* \"#utility.yul\":10217:10236   */\n      swap1\n      pop\n        /* \"#utility.yul\":9876:10242   */\n      swap2\n      swap1\n      pop\n      jump\t// out\n        /* \"#utility.yul\":10306:10816   */\n    tag_302:\n        /* \"#utility.yul\":10451:10455   */\n      0x40\n        /* \"#utility.yul\":10446:10449   */\n      dup3\n        /* \"#utility.yul\":10442:10456   */\n      add\n        /* \"#utility.yul\":10540:10544   */\n      0x00\n        /* \"#utility.yul\":10533:10538   */\n      dup3\n        /* \"#utility.yul\":10529:10545   */\n      add\n        /* \"#utility.yul\":10523:10546   */\n      mload\n        /* \"#utility.yul\":10559:10622   */\n      tag_413\n        /* \"#utility.yul\":10616:10620   */\n      0x00\n        /* \"#utility.yul\":10611:10614   */\n      dup6\n        /* \"#utility.yul\":10607:10621   */\n      add\n        /* \"#utility.yul\":10593:10605   */\n      dup3\n        /* \"#utility.yul\":10559:10622   */\n      tag_303\n      jump\t// in\n    tag_413:\n        /* \"#utility.yul\":10466:10632   */\n      pop\n        /* \"#utility.yul\":10717:10721   */\n      0x20\n        /* \"#utility.yul\":10710:10715   */\n      dup3\n        /* \"#utility.yul\":10706:10722   */\n      add\n        /* \"#utility.yul\":10700:10723   */\n      mload\n        /* \"#utility.yul\":10736:10799   */\n      tag_414\n        /* \"#utility.yul\":10793:10797   */\n      0x20\n        /* \"#utility.yul\":10788:10791   */\n      dup6\n        /* \"#utility.yul\":10784:10798   */\n      add\n        /* \"#utility.yul\":10770:10782   */\n      dup3\n        /* \"#utility.yul\":10736:10799   */\n      tag_415\n      jump\t// in\n    tag_414:\n        /* \"#utility.yul\":10642:10809   */\n      pop\n        /* \"#utility.yul\":10420:10816   */\n      pop\n        /* \"#utility.yul\":10306:10816   */\n      pop\n      pop\n      jump\t// out\n        /* \"#utility.yul\":10822:10930   */\n    tag_415:\n        /* \"#utility.yul\":10899:10923   */\n      tag_417\n        /* \"#utility.yul\":10917:10922   */\n      dup2\n        /* \"#utility.yul\":10899:10923   */\n      tag_418\n      jump\t// in\n    tag_417:\n        /* \"#utility.yul\":10894:10897   */\n      dup3\n        /* \"#utility.yul\":10887:10924   */\n      mstore\n        /* \"#utility.yul\":10822:10930   */\n      pop\n      pop\n      jump\t// out\n        /* \"#utility.yul\":10936:11054   */\n    tag_419:\n        /* \"#utility.yul\":11023:11047   */\n      tag_421\n        /* \"#utility.yul\":11041:11046   */\n      dup2\n        /* \"#utility.yul\":11023:11047   */\n      tag_418\n      jump\t// in\n    tag_421:\n        /* \"#utility.yul\":11018:11021   */\n      dup3\n        /* \"#utility.yul\":11011:11048   */\n      mstore\n        /* \"#utility.yul\":10936:11054   */\n      pop\n      pop\n      jump\t// out\n        /* \"#utility.yul\":11060:11217   */\n    tag_422:\n        /* \"#utility.yul\":11165:11210   */\n      tag_424\n        /* \"#utility.yul\":11185:11209   */\n      tag_425\n        /* \"#utility.yul\":11203:11208   */\n      dup3\n        /* \"#utility.yul\":11185:11209   */\n      tag_418\n      jump\t// in\n    tag_425:\n        /* \"#utility.yul\":11165:11210   */\n      tag_426\n      jump\t// in\n    tag_424:\n        /* \"#utility.yul\":11160:11163   */\n      dup3\n        /* \"#utility.yul\":11153:11211   */\n      mstore\n        /* \"#utility.yul\":11060:11217   */\n      pop\n      pop\n      jump\t// out\n        /* \"#utility.yul\":11223:11937   */\n    tag_71:\n        /* \"#utility.yul\":11447:11450   */\n      0x00\n        /* \"#utility.yul\":11462:11537   */\n      tag_428\n        /* \"#utility.yul\":11533:11536   */\n      dup3\n        /* \"#utility.yul\":11524:11530   */\n      dup9\n        /* \"#utility.yul\":11462:11537   */\n      tag_310\n      jump\t// in\n    tag_428:\n        /* \"#utility.yul\":11562:11564   */\n      0x14\n        /* \"#utility.yul\":11557:11560   */\n      dup3\n        /* \"#utility.yul\":11553:11565   */\n      add\n        /* \"#utility.yul\":11546:11565   */\n      swap2\n      pop\n        /* \"#utility.yul\":11575:11650   */\n      tag_429\n        /* \"#utility.yul\":11646:11649   */\n      dup3\n        /* \"#utility.yul\":11637:11643   */\n      dup8\n        /* \"#utility.yul\":11575:11650   */\n      tag_310\n      jump\t// in\n    tag_429:\n        /* \"#utility.yul\":11675:11677   */\n      0x14\n        /* \"#utility.yul\":11670:11673   */\n      dup3\n        /* \"#utility.yul\":11666:11678   */\n      add\n        /* \"#utility.yul\":11659:11678   */\n      swap2\n      pop\n        /* \"#utility.yul\":11688:11763   */\n      tag_430\n        /* \"#utility.yul\":11759:11762   */\n      dup3\n        /* \"#utility.yul\":11750:11756   */\n      dup7\n        /* \"#utility.yul\":11688:11763   */\n      tag_422\n      jump\t// in\n    tag_430:\n        /* \"#utility.yul\":11788:11790   */\n      0x20\n        /* \"#utility.yul\":11783:11786   */\n      dup3\n        /* \"#utility.yul\":11779:11791   */\n      add\n        /* \"#utility.yul\":11772:11791   */\n      swap2\n      pop\n        /* \"#utility.yul\":11808:11911   */\n      tag_431\n        /* \"#utility.yul\":11907:11910   */\n      dup3\n        /* \"#utility.yul\":11898:11904   */\n      dup5\n        /* \"#utility.yul\":11890:11896   */\n      dup7\n        /* \"#utility.yul\":11808:11911   */\n      tag_337\n      jump\t// in\n    tag_431:\n        /* \"#utility.yul\":11801:11911   */\n      swap2\n      pop\n        /* \"#utility.yul\":11928:11931   */\n      dup2\n        /* \"#utility.yul\":11921:11931   */\n      swap1\n      pop\n        /* \"#utility.yul\":11223:11937   */\n      swap7\n      swap6\n      pop\n      pop\n      pop\n      pop\n      pop\n      pop\n      jump\t// out\n        /* \"#utility.yul\":11943:12214   */\n    tag_231:\n        /* \"#utility.yul\":12073:12076   */\n      0x00\n        /* \"#utility.yul\":12095:12188   */\n      tag_433\n        /* \"#utility.yul\":12184:12187   */\n      dup3\n        /* \"#utility.yul\":12175:12181   */\n      dup5\n        /* \"#utility.yul\":12095:12188   */\n      tag_343\n      jump\t// in\n    tag_433:\n        /* \"#utility.yul\":12088:12188   */\n      swap2\n      pop\n        /* \"#utility.yul\":12205:12208   */\n      dup2\n        /* \"#utility.yul\":12198:12208   */\n      swap1\n      pop\n        /* \"#utility.yul\":11943:12214   */\n      swap3\n      swap2\n      pop\n      pop\n      jump\t// out\n        /* \"#utility.yul\":12220:12442   */\n    tag_49:\n        /* \"#utility.yul\":12313:12317   */\n      0x00\n        /* \"#utility.yul\":12351:12353   */\n      0x20\n        /* \"#utility.yul\":12340:12349   */\n      dup3\n        /* \"#utility.yul\":12336:12354   */\n      add\n        /* \"#utility.yul\":12328:12354   */\n      swap1\n      pop\n        /* \"#utility.yul\":12364:12435   */\n      tag_435\n        /* \"#utility.yul\":12432:12433   */\n      0x00\n        /* \"#utility.yul\":12421:12430   */\n      dup4\n        /* \"#utility.yul\":12417:12434   */\n      add\n        /* \"#utility.yul\":12408:12414   */\n      dup5\n        /* \"#utility.yul\":12364:12435   */\n      tag_307\n      jump\t// in\n    tag_435:\n        /* \"#utility.yul\":12220:12442   */\n      swap3\n      swap2\n      pop\n      pop\n      jump\t// out\n        /* \"#utility.yul\":12448:12890   */\n    tag_102:\n        /* \"#utility.yul\":12597:12601   */\n      0x00\n        /* \"#utility.yul\":12635:12637   */\n      0x60\n        /* \"#utility.yul\":12624:12633   */\n      dup3\n        /* \"#utility.yul\":12620:12638   */\n      add\n        /* \"#utility.yul\":12612:12638   */\n      swap1\n      pop\n        /* \"#utility.yul\":12648:12719   */\n      tag_437\n        /* \"#utility.yul\":12716:12717   */\n      0x00\n        /* \"#utility.yul\":12705:12714   */\n      dup4\n        /* \"#utility.yul\":12701:12718   */\n      add\n        /* \"#utility.yul\":12692:12698   */\n      dup7\n        /* \"#utility.yul\":12648:12719   */\n      tag_307\n      jump\t// in\n    tag_437:\n        /* \"#utility.yul\":12729:12801   */\n      tag_438\n        /* \"#utility.yul\":12797:12799   */\n      0x20\n        /* \"#utility.yul\":12786:12795   */\n      dup4\n        /* \"#utility.yul\":12782:12800   */\n      add\n        /* \"#utility.yul\":12773:12779   */\n      dup6\n        /* \"#utility.yul\":12729:12801   */\n      tag_307\n      jump\t// in\n    tag_438:\n        /* \"#utility.yul\":12811:12883   */\n      tag_439\n        /* \"#utility.yul\":12879:12881   */\n      0x40\n        /* \"#utility.yul\":12868:12877   */\n      dup4\n        /* \"#utility.yul\":12864:12882   */\n      add\n        /* \"#utility.yul\":12855:12861   */\n      dup5\n        /* \"#utility.yul\":12811:12883   */\n      tag_419\n      jump\t// in\n    tag_439:\n        /* \"#utility.yul\":12448:12890   */\n      swap5\n      swap4\n      pop\n      pop\n      pop\n      pop\n      jump\t// out\n        /* \"#utility.yul\":12896:13228   */\n    tag_198:\n        /* \"#utility.yul\":13017:13021   */\n      0x00\n        /* \"#utility.yul\":13055:13057   */\n      0x40\n        /* \"#utility.yul\":13044:13053   */\n      dup3\n        /* \"#utility.yul\":13040:13058   */\n      add\n        /* \"#utility.yul\":13032:13058   */\n      swap1\n      pop\n        /* \"#utility.yul\":13068:13139   */\n      tag_441\n        /* \"#utility.yul\":13136:13137   */\n      0x00\n        /* \"#utility.yul\":13125:13134   */\n      dup4\n        /* \"#utility.yul\":13121:13138   */\n      add\n        /* \"#utility.yul\":13112:13118   */\n      dup6\n        /* \"#utility.yul\":13068:13139   */\n      tag_307\n      jump\t// in\n    tag_441:\n        /* \"#utility.yul\":13149:13221   */\n      tag_442\n        /* \"#utility.yul\":13217:13219   */\n      0x20\n        /* \"#utility.yul\":13206:13215   */\n      dup4\n        /* \"#utility.yul\":13202:13220   */\n      add\n        /* \"#utility.yul\":13193:13199   */\n      dup5\n        /* \"#utility.yul\":13149:13221   */\n      tag_419\n      jump\t// in\n    tag_442:\n        /* \"#utility.yul\":12896:13228   */\n      swap4\n      swap3\n      pop\n      pop\n      pop\n      jump\t// out\n        /* \"#utility.yul\":13234:13723   */\n    tag_39:\n        /* \"#utility.yul\":13435:13439   */\n      0x00\n        /* \"#utility.yul\":13473:13475   */\n      0x20\n        /* \"#utility.yul\":13462:13471   */\n      dup3\n        /* \"#utility.yul\":13458:13476   */\n      add\n        /* \"#utility.yul\":13450:13476   */\n      swap1\n      pop\n        /* \"#utility.yul\":13522:13531   */\n      dup2\n        /* \"#utility.yul\":13516:13520   */\n      dup2\n        /* \"#utility.yul\":13512:13532   */\n      sub\n        /* \"#utility.yul\":13508:13509   */\n      0x00\n        /* \"#utility.yul\":13497:13506   */\n      dup4\n        /* \"#utility.yul\":13493:13510   */\n      add\n        /* \"#utility.yul\":13486:13533   */\n      mstore\n        /* \"#utility.yul\":13550:13716   */\n      tag_444\n        /* \"#utility.yul\":13711:13715   */\n      dup2\n        /* \"#utility.yul\":13702:13708   */\n      dup5\n        /* \"#utility.yul\":13550:13716   */\n      tag_315\n      jump\t// in\n    tag_444:\n        /* \"#utility.yul\":13542:13716   */\n      swap1\n      pop\n        /* \"#utility.yul\":13234:13723   */\n      swap3\n      swap2\n      pop\n      pop\n      jump\t// out\n        /* \"#utility.yul\":13729:13939   */\n    tag_33:\n        /* \"#utility.yul\":13816:13820   */\n      0x00\n        /* \"#utility.yul\":13854:13856   */\n      0x20\n        /* \"#utility.yul\":13843:13852   */\n      dup3\n        /* \"#utility.yul\":13839:13857   */\n      add\n        /* \"#utility.yul\":13831:13857   */\n      swap1\n      pop\n        /* \"#utility.yul\":13867:13932   */\n      tag_446\n        /* \"#utility.yul\":13929:13930   */\n      0x00\n        /* \"#utility.yul\":13918:13927   */\n      dup4\n        /* \"#utility.yul\":13914:13931   */\n      add\n        /* \"#utility.yul\":13905:13911   */\n      dup5\n        /* \"#utility.yul\":13867:13932   */\n      tag_329\n      jump\t// in\n    tag_446:\n        /* \"#utility.yul\":13729:13939   */\n      swap3\n      swap2\n      pop\n      pop\n      jump\t// out\n        /* \"#utility.yul\":13945:14163   */\n    tag_23:\n        /* \"#utility.yul\":14036:14040   */\n      0x00\n        /* \"#utility.yul\":14074:14076   */\n      0x20\n        /* \"#utility.yul\":14063:14072   */\n      dup3\n        /* \"#utility.yul\":14059:14077   */\n      add\n        /* \"#utility.yul\":14051:14077   */\n      swap1\n      pop\n        /* \"#utility.yul\":14087:14156   */\n      tag_448\n        /* \"#utility.yul\":14153:14154   */\n      0x00\n        /* \"#utility.yul\":14142:14151   */\n      dup4\n        /* \"#utility.yul\":14138:14155   */\n      add\n        /* \"#utility.yul\":14129:14135   */\n      dup5\n        /* \"#utility.yul\":14087:14156   */\n      tag_333\n      jump\t// in\n    tag_448:\n        /* \"#utility.yul\":13945:14163   */\n      swap3\n      swap2\n      pop\n      pop\n      jump\t// out\n        /* \"#utility.yul\":14169:14419   */\n    tag_65:\n        /* \"#utility.yul\":14276:14280   */\n      0x00\n        /* \"#utility.yul\":14314:14316   */\n      0x20\n        /* \"#utility.yul\":14303:14312   */\n      dup3\n        /* \"#utility.yul\":14299:14317   */\n      add\n        /* \"#utility.yul\":14291:14317   */\n      swap1\n      pop\n        /* \"#utility.yul\":14327:14412   */\n      tag_450\n        /* \"#utility.yul\":14409:14410   */\n      0x00\n        /* \"#utility.yul\":14398:14407   */\n      dup4\n        /* \"#utility.yul\":14394:14411   */\n      add\n        /* \"#utility.yul\":14385:14391   */\n      dup5\n        /* \"#utility.yul\":14327:14412   */\n      tag_350\n      jump\t// in\n    tag_450:\n        /* \"#utility.yul\":14169:14419   */\n      swap3\n      swap2\n      pop\n      pop\n      jump\t// out\n        /* \"#utility.yul\":14425:14677   */\n    tag_43:\n        /* \"#utility.yul\":14533:14537   */\n      0x00\n        /* \"#utility.yul\":14571:14573   */\n      0x20\n        /* \"#utility.yul\":14560:14569   */\n      dup3\n        /* \"#utility.yul\":14556:14574   */\n      add\n        /* \"#utility.yul\":14548:14574   */\n      swap1\n      pop\n        /* \"#utility.yul\":14584:14670   */\n      tag_452\n        /* \"#utility.yul\":14667:14668   */\n      0x00\n        /* \"#utility.yul\":14656:14665   */\n      dup4\n        /* \"#utility.yul\":14652:14669   */\n      add\n        /* \"#utility.yul\":14643:14649   */\n      dup5\n        /* \"#utility.yul\":14584:14670   */\n      tag_354\n      jump\t// in\n    tag_452:\n        /* \"#utility.yul\":14425:14677   */\n      swap3\n      swap2\n      pop\n      pop\n      jump\t// out\n        /* \"#utility.yul\":14683:14996   */\n    tag_244:\n        /* \"#utility.yul\":14796:14800   */\n      0x00\n        /* \"#utility.yul\":14834:14836   */\n      0x20\n        /* \"#utility.yul\":14823:14832   */\n      dup3\n        /* \"#utility.yul\":14819:14837   */\n      add\n        /* \"#utility.yul\":14811:14837   */\n      swap1\n      pop\n        /* \"#utility.yul\":14883:14892   */\n      dup2\n        /* \"#utility.yul\":14877:14881   */\n      dup2\n        /* \"#utility.yul\":14873:14893   */\n      sub\n        /* \"#utility.yul\":14869:14870   */\n      0x00\n        /* \"#utility.yul\":14858:14867   */\n      dup4\n        /* \"#utility.yul\":14854:14871   */\n      add\n        /* \"#utility.yul\":14847:14894   */\n      mstore\n        /* \"#utility.yul\":14911:14989   */\n      tag_454\n        /* \"#utility.yul\":14984:14988   */\n      dup2\n        /* \"#utility.yul\":14975:14981   */\n      dup5\n        /* \"#utility.yul\":14911:14989   */\n      tag_358\n      jump\t// in\n    tag_454:\n        /* \"#utility.yul\":14903:14989   */\n      swap1\n      pop\n        /* \"#utility.yul\":14683:14996   */\n      swap3\n      swap2\n      pop\n      pop\n      jump\t// out\n        /* \"#utility.yul\":15002:15421   */\n    tag_81:\n        /* \"#utility.yul\":15168:15172   */\n      0x00\n        /* \"#utility.yul\":15206:15208   */\n      0x20\n        /* \"#utility.yul\":15195:15204   */\n      dup3\n        /* \"#utility.yul\":15191:15209   */\n      add\n        /* \"#utility.yul\":15183:15209   */\n      swap1\n      pop\n        /* \"#utility.yul\":15255:15264   */\n      dup2\n        /* \"#utility.yul\":15249:15253   */\n      dup2\n        /* \"#utility.yul\":15245:15265   */\n      sub\n        /* \"#utility.yul\":15241:15242   */\n      0x00\n        /* \"#utility.yul\":15230:15239   */\n      dup4\n        /* \"#utility.yul\":15226:15243   */\n      add\n        /* \"#utility.yul\":15219:15266   */\n      mstore\n        /* \"#utility.yul\":15283:15414   */\n      tag_456\n        /* \"#utility.yul\":15409:15413   */\n      dup2\n        /* \"#utility.yul\":15283:15414   */\n      tag_367\n      jump\t// in\n    tag_456:\n        /* \"#utility.yul\":15275:15414   */\n      swap1\n      pop\n        /* \"#utility.yul\":15002:15421   */\n      swap2\n      swap1\n      pop\n      jump\t// out\n        /* \"#utility.yul\":15427:15846   */\n    tag_180:\n        /* \"#utility.yul\":15593:15597   */\n      0x00\n        /* \"#utility.yul\":15631:15633   */\n      0x20\n        /* \"#utility.yul\":15620:15629   */\n      dup3\n        /* \"#utility.yul\":15616:15634   */\n      add\n        /* \"#utility.yul\":15608:15634   */\n      swap1\n      pop\n        /* \"#utility.yul\":15680:15689   */\n      dup2\n        /* \"#utility.yul\":15674:15678   */\n      dup2\n        /* \"#utility.yul\":15670:15690   */\n      sub\n        /* \"#utility.yul\":15666:15667   */\n      0x00\n        /* \"#utility.yul\":15655:15664   */\n      dup4\n        /* \"#utility.yul\":15651:15668   */\n      add\n        /* \"#utility.yul\":15644:15691   */\n      mstore\n        /* \"#utility.yul\":15708:15839   */\n      tag_458\n        /* \"#utility.yul\":15834:15838   */\n      dup2\n        /* \"#utility.yul\":15708:15839   */\n      tag_372\n      jump\t// in\n    tag_458:\n        /* \"#utility.yul\":15700:15839   */\n      swap1\n      pop\n        /* \"#utility.yul\":15427:15846   */\n      swap2\n      swap1\n      pop\n      jump\t// out\n        /* \"#utility.yul\":15852:16271   */\n    tag_78:\n        /* \"#utility.yul\":16018:16022   */\n      0x00\n        /* \"#utility.yul\":16056:16058   */\n      0x20\n        /* \"#utility.yul\":16045:16054   */\n      dup3\n        /* \"#utility.yul\":16041:16059   */\n      add\n        /* \"#utility.yul\":16033:16059   */\n      swap1\n      pop\n        /* \"#utility.yul\":16105:16114   */\n      dup2\n        /* \"#utility.yul\":16099:16103   */\n      dup2\n        /* \"#utility.yul\":16095:16115   */\n      sub\n        /* \"#utility.yul\":16091:16092   */\n      0x00\n        /* \"#utility.yul\":16080:16089   */\n      dup4\n        /* \"#utility.yul\":16076:16093   */\n      add\n        /* \"#utility.yul\":16069:16116   */\n      mstore\n        /* \"#utility.yul\":16133:16264   */\n      tag_460\n        /* \"#utility.yul\":16259:16263   */\n      dup2\n        /* \"#utility.yul\":16133:16264   */\n      tag_377\n      jump\t// in\n    tag_460:\n        /* \"#utility.yul\":16125:16264   */\n      swap1\n      pop\n        /* \"#utility.yul\":15852:16271   */\n      swap2\n      swap1\n      pop\n      jump\t// out\n        /* \"#utility.yul\":16277:16696   */\n    tag_224:\n        /* \"#utility.yul\":16443:16447   */\n      0x00\n        /* \"#utility.yul\":16481:16483   */\n      0x20\n        /* \"#utility.yul\":16470:16479   */\n      dup3\n        /* \"#utility.yul\":16466:16484   */\n      add\n        /* \"#utility.yul\":16458:16484   */\n      swap1\n      pop\n        /* \"#utility.yul\":16530:16539   */\n      dup2\n        /* \"#utility.yul\":16524:16528   */\n      dup2\n        /* \"#utility.yul\":16520:16540   */\n      sub\n        /* \"#utility.yul\":16516:16517   */\n      0x00\n        /* \"#utility.yul\":16505:16514   */\n      dup4\n        /* \"#utility.yul\":16501:16518   */\n      add\n        /* \"#utility.yul\":16494:16541   */\n      mstore\n        /* \"#utility.yul\":16558:16689   */\n      tag_462\n        /* \"#utility.yul\":16684:16688   */\n      dup2\n        /* \"#utility.yul\":16558:16689   */\n      tag_382\n      jump\t// in\n    tag_462:\n        /* \"#utility.yul\":16550:16689   */\n      swap1\n      pop\n        /* \"#utility.yul\":16277:16696   */\n      swap2\n      swap1\n      pop\n      jump\t// out\n        /* \"#utility.yul\":16702:17121   */\n    tag_206:\n        /* \"#utility.yul\":16868:16872   */\n      0x00\n        /* \"#utility.yul\":16906:16908   */\n      0x20\n        /* \"#utility.yul\":16895:16904   */\n      dup3\n        /* \"#utility.yul\":16891:16909   */\n      add\n        /* \"#utility.yul\":16883:16909   */\n      swap1\n      pop\n        /* \"#utility.yul\":16955:16964   */\n      dup2\n        /* \"#utility.yul\":16949:16953   */\n      dup2\n        /* \"#utility.yul\":16945:16965   */\n      sub\n        /* \"#utility.yul\":16941:16942   */\n      0x00\n        /* \"#utility.yul\":16930:16939   */\n      dup4\n        /* \"#utility.yul\":16926:16943   */\n      add\n        /* \"#utility.yul\":16919:16966   */\n      mstore\n        /* \"#utility.yul\":16983:17114   */\n      tag_464\n        /* \"#utility.yul\":17109:17113   */\n      dup2\n        /* \"#utility.yul\":16983:17114   */\n      tag_387\n      jump\t// in\n    tag_464:\n        /* \"#utility.yul\":16975:17114   */\n      swap1\n      pop\n        /* \"#utility.yul\":16702:17121   */\n      swap2\n      swap1\n      pop\n      jump\t// out\n        /* \"#utility.yul\":17127:17546   */\n    tag_113:\n        /* \"#utility.yul\":17293:17297   */\n      0x00\n        /* \"#utility.yul\":17331:17333   */\n      0x20\n        /* \"#utility.yul\":17320:17329   */\n      dup3\n        /* \"#utility.yul\":17316:17334   */\n      add\n        /* \"#utility.yul\":17308:17334   */\n      swap1\n      pop\n        /* \"#utility.yul\":17380:17389   */\n      dup2\n        /* \"#utility.yul\":17374:17378   */\n      dup2\n        /* \"#utility.yul\":17370:17390   */\n      sub\n        /* \"#utility.yul\":17366:17367   */\n      0x00\n        /* \"#utility.yul\":17355:17364   */\n      dup4\n        /* \"#utility.yul\":17351:17368   */\n      add\n        /* \"#utility.yul\":17344:17391   */\n      mstore\n        /* \"#utility.yul\":17408:17539   */\n      tag_466\n        /* \"#utility.yul\":17534:17538   */\n      dup2\n        /* \"#utility.yul\":17408:17539   */\n      tag_392\n      jump\t// in\n    tag_466:\n        /* \"#utility.yul\":17400:17539   */\n      swap1\n      pop\n        /* \"#utility.yul\":17127:17546   */\n      swap2\n      swap1\n      pop\n      jump\t// out\n        /* \"#utility.yul\":17552:17971   */\n    tag_229:\n        /* \"#utility.yul\":17718:17722   */\n      0x00\n        /* \"#utility.yul\":17756:17758   */\n      0x20\n        /* \"#utility.yul\":17745:17754   */\n      dup3\n        /* \"#utility.yul\":17741:17759   */\n      add\n        /* \"#utility.yul\":17733:17759   */\n      swap1\n      pop\n        /* \"#utility.yul\":17805:17814   */\n      dup2\n        /* \"#utility.yul\":17799:17803   */\n      dup2\n        /* \"#utility.yul\":17795:17815   */\n      sub\n        /* \"#utility.yul\":17791:17792   */\n      0x00\n        /* \"#utility.yul\":17780:17789   */\n      dup4\n        /* \"#utility.yul\":17776:17793   */\n      add\n        /* \"#utility.yul\":17769:17816   */\n      mstore\n        /* \"#utility.yul\":17833:17964   */\n      tag_468\n        /* \"#utility.yul\":17959:17963   */\n      dup2\n        /* \"#utility.yul\":17833:17964   */\n      tag_397\n      jump\t// in\n    tag_468:\n        /* \"#utility.yul\":17825:17964   */\n      swap1\n      pop\n        /* \"#utility.yul\":17552:17971   */\n      swap2\n      swap1\n      pop\n      jump\t// out\n        /* \"#utility.yul\":17977:18396   */\n    tag_216:\n        /* \"#utility.yul\":18143:18147   */\n      0x00\n        /* \"#utility.yul\":18181:18183   */\n      0x20\n        /* \"#utility.yul\":18170:18179   */\n      dup3\n        /* \"#utility.yul\":18166:18184   */\n      add\n        /* \"#utility.yul\":18158:18184   */\n      swap1\n      pop\n        /* \"#utility.yul\":18230:18239   */\n      dup2\n        /* \"#utility.yul\":18224:18228   */\n      dup2\n        /* \"#utility.yul\":18220:18240   */\n      sub\n        /* \"#utility.yul\":18216:18217   */\n      0x00\n        /* \"#utility.yul\":18205:18214   */\n      dup4\n        /* \"#utility.yul\":18201:18218   */\n      add\n        /* \"#utility.yul\":18194:18241   */\n      mstore\n        /* \"#utility.yul\":18258:18389   */\n      tag_470\n        /* \"#utility.yul\":18384:18388   */\n      dup2\n        /* \"#utility.yul\":18258:18389   */\n      tag_402\n      jump\t// in\n    tag_470:\n        /* \"#utility.yul\":18250:18389   */\n      swap1\n      pop\n        /* \"#utility.yul\":17977:18396   */\n      swap2\n      swap1\n      pop\n      jump\t// out\n        /* \"#utility.yul\":18402:18821   */\n    tag_185:\n        /* \"#utility.yul\":18568:18572   */\n      0x00\n        /* \"#utility.yul\":18606:18608   */\n      0x20\n        /* \"#utility.yul\":18595:18604   */\n      dup3\n        /* \"#utility.yul\":18591:18609   */\n      add\n        /* \"#utility.yul\":18583:18609   */\n      swap1\n      pop\n        /* \"#utility.yul\":18655:18664   */\n      dup2\n        /* \"#utility.yul\":18649:18653   */\n      dup2\n        /* \"#utility.yul\":18645:18665   */\n      sub\n        /* \"#utility.yul\":18641:18642   */\n      0x00\n        /* \"#utility.yul\":18630:18639   */\n      dup4\n        /* \"#utility.yul\":18626:18643   */\n      add\n        /* \"#utility.yul\":18619:18666   */\n      mstore\n        /* \"#utility.yul\":18683:18814   */\n      tag_472\n        /* \"#utility.yul\":18809:18813   */\n      dup2\n        /* \"#utility.yul\":18683:18814   */\n      tag_407\n      jump\t// in\n    tag_472:\n        /* \"#utility.yul\":18675:18814   */\n      swap1\n      pop\n        /* \"#utility.yul\":18402:18821   */\n      swap2\n      swap1\n      pop\n      jump\t// out\n        /* \"#utility.yul\":18827:19049   */\n    tag_157:\n        /* \"#utility.yul\":18920:18924   */\n      0x00\n        /* \"#utility.yul\":18958:18960   */\n      0x20\n        /* \"#utility.yul\":18947:18956   */\n      dup3\n        /* \"#utility.yul\":18943:18961   */\n      add\n        /* \"#utility.yul\":18935:18961   */\n      swap1\n      pop\n        /* \"#utility.yul\":18971:19042   */\n      tag_474\n        /* \"#utility.yul\":19039:19040   */\n      0x00\n        /* \"#utility.yul\":19028:19037   */\n      dup4\n        /* \"#utility.yul\":19024:19041   */\n      add\n        /* \"#utility.yul\":19015:19021   */\n      dup5\n        /* \"#utility.yul\":18971:19042   */\n      tag_419\n      jump\t// in\n    tag_474:\n        /* \"#utility.yul\":18827:19049   */\n      swap3\n      swap2\n      pop\n      pop\n      jump\t// out\n        /* \"#utility.yul\":19055:19497   */\n    tag_54:\n        /* \"#utility.yul\":19204:19208   */\n      0x00\n        /* \"#utility.yul\":19242:19244   */\n      0x60\n        /* \"#utility.yul\":19231:19240   */\n      dup3\n        /* \"#utility.yul\":19227:19245   */\n      add\n        /* \"#utility.yul\":19219:19245   */\n      swap1\n      pop\n        /* \"#utility.yul\":19255:19326   */\n      tag_476\n        /* \"#utility.yul\":19323:19324   */\n      0x00\n        /* \"#utility.yul\":19312:19321   */\n      dup4\n        /* \"#utility.yul\":19308:19325   */\n      add\n        /* \"#utility.yul\":19299:19305   */\n      dup7\n        /* \"#utility.yul\":19255:19326   */\n      tag_419\n      jump\t// in\n    tag_476:\n        /* \"#utility.yul\":19336:19408   */\n      tag_477\n        /* \"#utility.yul\":19404:19406   */\n      0x20\n        /* \"#utility.yul\":19393:19402   */\n      dup4\n        /* \"#utility.yul\":19389:19407   */\n      add\n        /* \"#utility.yul\":19380:19386   */\n      dup6\n        /* \"#utility.yul\":19336:19408   */\n      tag_419\n      jump\t// in\n    tag_477:\n        /* \"#utility.yul\":19418:19490   */\n      tag_478\n        /* \"#utility.yul\":19486:19488   */\n      0x40\n        /* \"#utility.yul\":19475:19484   */\n      dup4\n        /* \"#utility.yul\":19471:19489   */\n      add\n        /* \"#utility.yul\":19462:19468   */\n      dup5\n        /* \"#utility.yul\":19418:19490   */\n      tag_419\n      jump\t// in\n    tag_478:\n        /* \"#utility.yul\":19055:19497   */\n      swap5\n      swap4\n      pop\n      pop\n      pop\n      pop\n      jump\t// out\n        /* \"#utility.yul\":19584:19745   */\n    tag_322:\n        /* \"#utility.yul\":19680:19684   */\n      0x00\n        /* \"#utility.yul\":19703:19706   */\n      dup2\n        /* \"#utility.yul\":19695:19706   */\n      swap1\n      pop\n        /* \"#utility.yul\":19733:19737   */\n      0x20\n        /* \"#utility.yul\":19728:19731   */\n      dup3\n        /* \"#utility.yul\":19724:19738   */\n      add\n        /* \"#utility.yul\":19716:19738   */\n      swap1\n      pop\n        /* \"#utility.yul\":19584:19745   */\n      swap2\n      swap1\n      pop\n      jump\t// out\n        /* \"#utility.yul\":19751:19894   */\n    tag_318:\n        /* \"#utility.yul\":19847:19853   */\n      0x00\n        /* \"#utility.yul\":19881:19886   */\n      dup2\n        /* \"#utility.yul\":19875:19887   */\n      mload\n        /* \"#utility.yul\":19865:19887   */\n      swap1\n      pop\n        /* \"#utility.yul\":19751:19894   */\n      swap2\n      swap1\n      pop\n      jump\t// out\n        /* \"#utility.yul\":19900:19998   */\n    tag_346:\n        /* \"#utility.yul\":19951:19957   */\n      0x00\n        /* \"#utility.yul\":19985:19990   */\n      dup2\n        /* \"#utility.yul\":19979:19991   */\n      mload\n        /* \"#utility.yul\":19969:19991   */\n      swap1\n      pop\n        /* \"#utility.yul\":19900:19998   */\n      swap2\n      swap1\n      pop\n      jump\t// out\n        /* \"#utility.yul\":20004:20103   */\n    tag_361:\n        /* \"#utility.yul\":20056:20062   */\n      0x00\n        /* \"#utility.yul\":20090:20095   */\n      dup2\n        /* \"#utility.yul\":20084:20096   */\n      mload\n        /* \"#utility.yul\":20074:20096   */\n      swap1\n      pop\n        /* \"#utility.yul\":20004:20103   */\n      swap2\n      swap1\n      pop\n      jump\t// out\n        /* \"#utility.yul\":20109:20251   */\n    tag_328:\n        /* \"#utility.yul\":20208:20212   */\n      0x00\n        /* \"#utility.yul\":20240:20244   */\n      0x20\n        /* \"#utility.yul\":20235:20238   */\n      dup3\n        /* \"#utility.yul\":20231:20245   */\n      add\n        /* \"#utility.yul\":20223:20245   */\n      swap1\n      pop\n        /* \"#utility.yul\":20109:20251   */\n      swap2\n      swap1\n      pop\n      jump\t// out\n        /* \"#utility.yul\":20257:20470   */\n    tag_320:\n        /* \"#utility.yul\":20385:20396   */\n      0x00\n        /* \"#utility.yul\":20419:20425   */\n      dup3\n        /* \"#utility.yul\":20414:20417   */\n      dup3\n        /* \"#utility.yul\":20407:20426   */\n      mstore\n        /* \"#utility.yul\":20459:20463   */\n      0x20\n        /* \"#utility.yul\":20454:20457   */\n      dup3\n        /* \"#utility.yul\":20450:20464   */\n      add\n        /* \"#utility.yul\":20435:20464   */\n      swap1\n      pop\n        /* \"#utility.yul\":20257:20470   */\n      swap3\n      swap2\n      pop\n      pop\n      jump\t// out\n        /* \"#utility.yul\":20476:20623   */\n    tag_340:\n        /* \"#utility.yul\":20577:20588   */\n      0x00\n        /* \"#utility.yul\":20614:20617   */\n      dup2\n        /* \"#utility.yul\":20599:20617   */\n      swap1\n      pop\n        /* \"#utility.yul\":20476:20623   */\n      swap3\n      swap2\n      pop\n      pop\n      jump\t// out\n        /* \"#utility.yul\":20629:20798   */\n    tag_363:\n        /* \"#utility.yul\":20713:20724   */\n      0x00\n        /* \"#utility.yul\":20747:20753   */\n      dup3\n        /* \"#utility.yul\":20742:20745   */\n      dup3\n        /* \"#utility.yul\":20735:20754   */\n      mstore\n        /* \"#utility.yul\":20787:20791   */\n      0x20\n        /* \"#utility.yul\":20782:20785   */\n      dup3\n        /* \"#utility.yul\":20778:20792   */\n      add\n        /* \"#utility.yul\":20763:20792   */\n      swap1\n      pop\n        /* \"#utility.yul\":20629:20798   */\n      swap3\n      swap2\n      pop\n      pop\n      jump\t// out\n        /* \"#utility.yul\":20804:21109   */\n    tag_85:\n        /* \"#utility.yul\":20844:20847   */\n      0x00\n        /* \"#utility.yul\":20863:20883   */\n      tag_490\n        /* \"#utility.yul\":20881:20882   */\n      dup3\n        /* \"#utility.yul\":20863:20883   */\n      tag_418\n      jump\t// in\n    tag_490:\n        /* \"#utility.yul\":20858:20883   */\n      swap2\n      pop\n        /* \"#utility.yul\":20897:20917   */\n      tag_491\n        /* \"#utility.yul\":20915:20916   */\n      dup4\n        /* \"#utility.yul\":20897:20917   */\n      tag_418\n      jump\t// in\n    tag_491:\n        /* \"#utility.yul\":20892:20917   */\n      swap3\n      pop\n        /* \"#utility.yul\":21051:21052   */\n      dup3\n        /* \"#utility.yul\":20983:21049   */\n      0xffffffffffffffffffffffffffffffffffffffffffffffffffffffffffffffff\n        /* \"#utility.yul\":20979:21053   */\n      sub\n        /* \"#utility.yul\":20976:20977   */\n      dup3\n        /* \"#utility.yul\":20973:21054   */\n      gt\n        /* \"#utility.yul\":20970:21077   */\n      iszero\n      tag_492\n      jumpi\n        /* \"#utility.yul\":21057:21075   */\n      tag_493\n      tag_494\n      jump\t// in\n    tag_493:\n        /* \"#utility.yul\":20970:21077   */\n    tag_492:\n        /* \"#utility.yul\":21101:21102   */\n      dup3\n        /* \"#utility.yul\":21098:21099   */\n      dup3\n        /* \"#utility.yul\":21094:21103   */\n      add\n        /* \"#utility.yul\":21087:21103   */\n      swap1\n      pop\n        /* \"#utility.yul\":20804:21109   */\n      swap3\n      swap2\n      pop\n      pop\n      jump\t// out\n        /* \"#utility.yul\":21115:21300   */\n    tag_193:\n        /* \"#utility.yul\":21155:21156   */\n      0x00\n        /* \"#utility.yul\":21172:21192   */\n      tag_496\n        /* \"#utility.yul\":21190:21191   */\n      dup3\n        /* \"#utility.yul\":21172:21192   */\n      tag_418\n      jump\t// in\n    tag_496:\n        /* \"#utility.yul\":21167:21192   */\n      swap2\n      pop\n        /* \"#utility.yul\":21206:21226   */\n      tag_497\n        /* \"#utility.yul\":21224:21225   */\n      dup4\n        /* \"#utility.yul\":21206:21226   */\n      tag_418\n      jump\t// in\n    tag_497:\n        /* \"#utility.yul\":21201:21226   */\n      swap3\n      pop\n        /* \"#utility.yul\":21245:21246   */\n      dup3\n        /* \"#utility.yul\":21235:21270   */\n      tag_498\n      jumpi\n        /* \"#utility.yul\":21250:21268   */\n      tag_499\n      tag_500\n      jump\t// in\n    tag_499:\n        /* \"#utility.yul\":21235:21270   */\n    tag_498:\n        /* \"#utility.yul\":21292:21293   */\n      dup3\n        /* \"#utility.yul\":21289:21290   */\n      dup3\n        /* \"#utility.yul\":21285:21294   */\n      div\n        /* \"#utility.yul\":21280:21294   */\n      swap1\n      pop\n        /* \"#utility.yul\":21115:21300   */\n      swap3\n      swap2\n      pop\n      pop\n      jump\t// out\n        /* \"#utility.yul\":21306:21654   */\n    tag_190:\n        /* \"#utility.yul\":21346:21353   */\n      0x00\n        /* \"#utility.yul\":21369:21389   */\n      tag_502\n        /* \"#utility.yul\":21387:21388   */\n      dup3\n        /* \"#utility.yul\":21369:21389   */\n      tag_418\n      jump\t// in\n    tag_502:\n        /* \"#utility.yul\":21364:21389   */\n      swap2\n      pop\n        /* \"#utility.yul\":21403:21423   */\n      tag_503\n        /* \"#utility.yul\":21421:21422   */\n      dup4\n        /* \"#utility.yul\":21403:21423   */\n      tag_418\n      jump\t// in\n    tag_503:\n        /* \"#utility.yul\":21398:21423   */\n      swap3\n      pop\n        /* \"#utility.yul\":21591:21592   */\n      dup2\n        /* \"#utility.yul\":21523:21589   */\n      0xffffffffffffffffffffffffffffffffffffffffffffffffffffffffffffffff\n        /* \"#utility.yul\":21519:21593   */\n      div\n        /* \"#utility.yul\":21516:21517   */\n      dup4\n        /* \"#utility.yul\":21513:21594   */\n      gt\n        /* \"#utility.yul\":21508:21509   */\n      dup3\n        /* \"#utility.yul\":21501:21510   */\n      iszero\n        /* \"#utility.yul\":21494:21511   */\n      iszero\n        /* \"#utility.yul\":21490:21595   */\n      and\n        /* \"#utility.yul\":21487:21618   */\n      iszero\n      tag_504\n      jumpi\n        /* \"#utility.yul\":21598:21616   */\n      tag_505\n      tag_494\n      jump\t// in\n    tag_505:\n        /* \"#utility.yul\":21487:21618   */\n    tag_504:\n        /* \"#utility.yul\":21646:21647   */\n      dup3\n        /* \"#utility.yul\":21643:21644   */\n      dup3\n        /* \"#utility.yul\":21639:21648   */\n      mul\n        /* \"#utility.yul\":21628:21648   */\n      swap1\n      pop\n        /* \"#utility.yul\":21306:21654   */\n      swap3\n      swap2\n      pop\n      pop\n      jump\t// out\n        /* \"#utility.yul\":21660:21851   */\n    tag_188:\n        /* \"#utility.yul\":21700:21704   */\n      0x00\n        /* \"#utility.yul\":21720:21740   */\n      tag_507\n        /* \"#utility.yul\":21738:21739   */\n      dup3\n        /* \"#utility.yul\":21720:21740   */\n      tag_418\n      jump\t// in\n    tag_507:\n        /* \"#utility.yul\":21715:21740   */\n      swap2\n      pop\n        /* \"#utility.yul\":21754:21774   */\n      tag_508\n        /* \"#utility.yul\":21772:21773   */\n      dup4\n        /* \"#utility.yul\":21754:21774   */\n      tag_418\n      jump\t// in\n    tag_508:\n        /* \"#utility.yul\":21749:21774   */\n      swap3\n      pop\n        /* \"#utility.yul\":21793:21794   */\n      dup3\n        /* \"#utility.yul\":21790:21791   */\n      dup3\n        /* \"#utility.yul\":21787:21795   */\n      lt\n        /* \"#utility.yul\":21784:21818   */\n      iszero\n      tag_509\n      jumpi\n        /* \"#utility.yul\":21798:21816   */\n      tag_510\n      tag_494\n      jump\t// in\n    tag_510:\n        /* \"#utility.yul\":21784:21818   */\n    tag_509:\n        /* \"#utility.yul\":21843:21844   */\n      dup3\n        /* \"#utility.yul\":21840:21841   */\n      dup3\n        /* \"#utility.yul\":21836:21845   */\n      sub\n        /* \"#utility.yul\":21828:21845   */\n      swap1\n      pop\n        /* \"#utility.yul\":21660:21851   */\n      swap3\n      swap2\n      pop\n      pop\n      jump\t// out\n        /* \"#utility.yul\":21857:21953   */\n    tag_306:\n        /* \"#utility.yul\":21894:21901   */\n      0x00\n        /* \"#utility.yul\":21923:21947   */\n      tag_512\n        /* \"#utility.yul\":21941:21946   */\n      dup3\n        /* \"#utility.yul\":21923:21947   */\n      tag_513\n      jump\t// in\n    tag_512:\n        /* \"#utility.yul\":21912:21947   */\n      swap1\n      pop\n        /* \"#utility.yul\":21857:21953   */\n      swap2\n      swap1\n      pop\n      jump\t// out\n        /* \"#utility.yul\":21959:22049   */\n    tag_332:\n        /* \"#utility.yul\":21993:22000   */\n      0x00\n        /* \"#utility.yul\":22036:22041   */\n      dup2\n        /* \"#utility.yul\":22029:22042   */\n      iszero\n        /* \"#utility.yul\":22022:22043   */\n      iszero\n        /* \"#utility.yul\":22011:22043   */\n      swap1\n      pop\n        /* \"#utility.yul\":21959:22049   */\n      swap2\n      swap1\n      pop\n      jump\t// out\n        /* \"#utility.yul\":22055:22204   */\n    tag_336:\n        /* \"#utility.yul\":22091:22098   */\n      0x00\n        /* \"#utility.yul\":22131:22197   */\n      0xffffffff00000000000000000000000000000000000000000000000000000000\n        /* \"#utility.yul\":22124:22129   */\n      dup3\n        /* \"#utility.yul\":22120:22198   */\n      and\n        /* \"#utility.yul\":22109:22198   */\n      swap1\n      pop\n        /* \"#utility.yul\":22055:22204   */\n      swap2\n      swap1\n      pop\n      jump\t// out\n        /* \"#utility.yul\":22210:22336   */\n    tag_513:\n        /* \"#utility.yul\":22247:22254   */\n      0x00\n        /* \"#utility.yul\":22287:22329   */\n      0xffffffffffffffffffffffffffffffffffffffff\n        /* \"#utility.yul\":22280:22285   */\n      dup3\n        /* \"#utility.yul\":22276:22330   */\n      and\n        /* \"#utility.yul\":22265:22330   */\n      swap1\n      pop\n        /* \"#utility.yul\":22210:22336   */\n      swap2\n      swap1\n      pop\n      jump\t// out\n        /* \"#utility.yul\":22342:22419   */\n    tag_418:\n        /* \"#utility.yul\":22379:22386   */\n      0x00\n        /* \"#utility.yul\":22408:22413   */\n      dup2\n        /* \"#utility.yul\":22397:22413   */\n      swap1\n      pop\n        /* \"#utility.yul\":22342:22419   */\n      swap2\n      swap1\n      pop\n      jump\t// out\n        /* \"#utility.yul\":22425:22565   */\n    tag_353:\n        /* \"#utility.yul\":22489:22498   */\n      0x00\n        /* \"#utility.yul\":22522:22559   */\n      tag_519\n        /* \"#utility.yul\":22553:22558   */\n      dup3\n        /* \"#utility.yul\":22522:22559   */\n      tag_520\n      jump\t// in\n    tag_519:\n        /* \"#utility.yul\":22509:22559   */\n      swap1\n      pop\n        /* \"#utility.yul\":22425:22565   */\n      swap2\n      swap1\n      pop\n      jump\t// out\n        /* \"#utility.yul\":22571:22712   */\n    tag_357:\n        /* \"#utility.yul\":22636:22645   */\n      0x00\n        /* \"#utility.yul\":22669:22706   */\n      tag_522\n        /* \"#utility.yul\":22700:22705   */\n      dup3\n        /* \"#utility.yul\":22669:22706   */\n      tag_520\n      jump\t// in\n    tag_522:\n        /* \"#utility.yul\":22656:22706   */\n      swap1\n      pop\n        /* \"#utility.yul\":22571:22712   */\n      swap2\n      swap1\n      pop\n      jump\t// out\n        /* \"#utility.yul\":22718:22844   */\n    tag_520:\n        /* \"#utility.yul\":22768:22777   */\n      0x00\n        /* \"#utility.yul\":22801:22838   */\n      tag_524\n        /* \"#utility.yul\":22832:22837   */\n      dup3\n        /* \"#utility.yul\":22801:22838   */\n      tag_525\n      jump\t// in\n    tag_524:\n        /* \"#utility.yul\":22788:22838   */\n      swap1\n      pop\n        /* \"#utility.yul\":22718:22844   */\n      swap2\n      swap1\n      pop\n      jump\t// out\n        /* \"#utility.yul\":22850:22963   */\n    tag_525:\n        /* \"#utility.yul\":22900:22909   */\n      0x00\n        /* \"#utility.yul\":22933:22957   */\n      tag_527\n        /* \"#utility.yul\":22951:22956   */\n      dup3\n        /* \"#utility.yul\":22933:22957   */\n      tag_513\n      jump\t// in\n    tag_527:\n        /* \"#utility.yul\":22920:22957   */\n      swap1\n      pop\n        /* \"#utility.yul\":22850:22963   */\n      swap2\n      swap1\n      pop\n      jump\t// out\n        /* \"#utility.yul\":22969:23123   */\n    tag_342:\n        /* \"#utility.yul\":23053:23059   */\n      dup3\n        /* \"#utility.yul\":23048:23051   */\n      dup2\n        /* \"#utility.yul\":23043:23046   */\n      dup4\n        /* \"#utility.yul\":23030:23060   */\n      calldatacopy\n        /* \"#utility.yul\":23115:23116   */\n      0x00\n        /* \"#utility.yul\":23106:23112   */\n      dup4\n        /* \"#utility.yul\":23101:23104   */\n      dup4\n        /* \"#utility.yul\":23097:23113   */\n      add\n        /* \"#utility.yul\":23090:23117   */\n      mstore\n        /* \"#utility.yul\":22969:23123   */\n      pop\n      pop\n      pop\n      jump\t// out\n        /* \"#utility.yul\":23129:23436   */\n    tag_349:\n        /* \"#utility.yul\":23197:23198   */\n      0x00\n        /* \"#utility.yul\":23207:23320   */\n    tag_530:\n        /* \"#utility.yul\":23221:23227   */\n      dup4\n        /* \"#utility.yul\":23218:23219   */\n      dup2\n        /* \"#utility.yul\":23215:23228   */\n      lt\n        /* \"#utility.yul\":23207:23320   */\n      iszero\n      tag_532\n      jumpi\n        /* \"#utility.yul\":23306:23307   */\n      dup1\n        /* \"#utility.yul\":23301:23304   */\n      dup3\n        /* \"#utility.yul\":23297:23308   */\n      add\n        /* \"#utility.yul\":23291:23309   */\n      mload\n        /* \"#utility.yul\":23287:23288   */\n      dup2\n        /* \"#utility.yul\":23282:23285   */\n      dup5\n        /* \"#utility.yul\":23278:23289   */\n      add\n        /* \"#utility.yul\":23271:23310   */\n      mstore\n        /* \"#utility.yul\":23243:23245   */\n      0x20\n        /* \"#utility.yul\":23240:23241   */\n      dup2\n        /* \"#utility.yul\":23236:23246   */\n      add\n        /* \"#utility.yul\":23231:23246   */\n      swap1\n      pop\n        /* \"#utility.yul\":23207:23320   */\n      jump(tag_530)\n    tag_532:\n        /* \"#utility.yul\":23338:23344   */\n      dup4\n        /* \"#utility.yul\":23335:23336   */\n      dup2\n        /* \"#utility.yul\":23332:23345   */\n      gt\n        /* \"#utility.yul\":23329:23430   */\n      iszero\n      tag_533\n      jumpi\n        /* \"#utility.yul\":23418:23419   */\n      0x00\n        /* \"#utility.yul\":23409:23415   */\n      dup5\n        /* \"#utility.yul\":23404:23407   */\n      dup5\n        /* \"#utility.yul\":23400:23416   */\n      add\n        /* \"#utility.yul\":23393:23420   */\n      mstore\n        /* \"#utility.yul\":23329:23430   */\n    tag_533:\n        /* \"#utility.yul\":23178:23436   */\n      pop\n        /* \"#utility.yul\":23129:23436   */\n      pop\n      pop\n      pop\n      jump\t// out\n        /* \"#utility.yul\":23442:23613   */\n    tag_100:\n        /* \"#utility.yul\":23481:23484   */\n      0x00\n        /* \"#utility.yul\":23504:23528   */\n      tag_535\n        /* \"#utility.yul\":23522:23527   */\n      dup3\n        /* \"#utility.yul\":23504:23528   */\n      tag_418\n      jump\t// in\n    tag_535:\n        /* \"#utility.yul\":23495:23528   */\n      swap2\n      pop\n        /* \"#utility.yul\":23550:23554   */\n      0x00\n        /* \"#utility.yul\":23543:23548   */\n      dup3\n        /* \"#utility.yul\":23540:23555   */\n      eq\n        /* \"#utility.yul\":23537:23578   */\n      iszero\n      tag_536\n      jumpi\n        /* \"#utility.yul\":23558:23576   */\n      tag_537\n      tag_494\n      jump\t// in\n    tag_537:\n        /* \"#utility.yul\":23537:23578   */\n    tag_536:\n        /* \"#utility.yul\":23605:23606   */\n      0x01\n        /* \"#utility.yul\":23598:23603   */\n      dup3\n        /* \"#utility.yul\":23594:23607   */\n      sub\n        /* \"#utility.yul\":23587:23607   */\n      swap1\n      pop\n        /* \"#utility.yul\":23442:23613   */\n      swap2\n      swap1\n      pop\n      jump\t// out\n        /* \"#utility.yul\":23619:23852   */\n    tag_95:\n        /* \"#utility.yul\":23658:23661   */\n      0x00\n        /* \"#utility.yul\":23681:23705   */\n      tag_539\n        /* \"#utility.yul\":23699:23704   */\n      dup3\n        /* \"#utility.yul\":23681:23705   */\n      tag_418\n      jump\t// in\n    tag_539:\n        /* \"#utility.yul\":23672:23705   */\n      swap2\n      pop\n        /* \"#utility.yul\":23727:23793   */\n      0xffffffffffffffffffffffffffffffffffffffffffffffffffffffffffffffff\n        /* \"#utility.yul\":23720:23725   */\n      dup3\n        /* \"#utility.yul\":23717:23794   */\n      eq\n        /* \"#utility.yul\":23714:23817   */\n      iszero\n      tag_540\n      jumpi\n        /* \"#utility.yul\":23797:23815   */\n      tag_541\n      tag_494\n      jump\t// in\n    tag_541:\n        /* \"#utility.yul\":23714:23817   */\n    tag_540:\n        /* \"#utility.yul\":23844:23845   */\n      0x01\n        /* \"#utility.yul\":23837:23842   */\n      dup3\n        /* \"#utility.yul\":23833:23846   */\n      add\n        /* \"#utility.yul\":23826:23846   */\n      swap1\n      pop\n        /* \"#utility.yul\":23619:23852   */\n      swap2\n      swap1\n      pop\n      jump\t// out\n        /* \"#utility.yul\":23858:23958   */\n    tag_314:\n        /* \"#utility.yul\":23897:23904   */\n      0x00\n        /* \"#utility.yul\":23926:23952   */\n      tag_543\n        /* \"#utility.yul\":23946:23951   */\n      dup3\n        /* \"#utility.yul\":23926:23952   */\n      tag_544\n      jump\t// in\n    tag_543:\n        /* \"#utility.yul\":23915:23952   */\n      swap1\n      pop\n        /* \"#utility.yul\":23858:23958   */\n      swap2\n      swap1\n      pop\n      jump\t// out\n        /* \"#utility.yul\":23964:24058   */\n    tag_544:\n        /* \"#utility.yul\":24003:24010   */\n      0x00\n        /* \"#utility.yul\":24032:24052   */\n      tag_546\n        /* \"#utility.yul\":24046:24051   */\n      dup3\n        /* \"#utility.yul\":24032:24052   */\n      tag_547\n      jump\t// in\n    tag_546:\n        /* \"#utility.yul\":24021:24052   */\n      swap1\n      pop\n        /* \"#utility.yul\":23964:24058   */\n      swap2\n      swap1\n      pop\n      jump\t// out\n        /* \"#utility.yul\":24064:24143   */\n    tag_426:\n        /* \"#utility.yul\":24103:24110   */\n      0x00\n        /* \"#utility.yul\":24132:24137   */\n      dup2\n        /* \"#utility.yul\":24121:24137   */\n      swap1\n      pop\n        /* \"#utility.yul\":24064:24143   */\n      swap2\n      swap1\n      pop\n      jump\t// out\n        /* \"#utility.yul\":24149:24329   */\n    tag_494:\n        /* \"#utility.yul\":24197:24274   */\n      0x4e487b7100000000000000000000000000000000000000000000000000000000\n        /* \"#utility.yul\":24194:24195   */\n      0x00\n        /* \"#utility.yul\":24187:24275   */\n      mstore\n        /* \"#utility.yul\":24294:24298   */\n      0x11\n        /* \"#utility.yul\":24291:24292   */\n      0x04\n        /* \"#utility.yul\":24284:24299   */\n      mstore\n        /* \"#utility.yul\":24318:24322   */\n      0x24\n        /* \"#utility.yul\":24315:24316   */\n      0x00\n        /* \"#utility.yul\":24308:24323   */\n      revert\n        /* \"#utility.yul\":24335:24515   */\n    tag_500:\n        /* \"#utility.yul\":24383:24460   */\n      0x4e487b7100000000000000000000000000000000000000000000000000000000\n        /* \"#utility.yul\":24380:24381   */\n      0x00\n        /* \"#utility.yul\":24373:24461   */\n      mstore\n        /* \"#utility.yul\":24480:24484   */\n      0x12\n        /* \"#utility.yul\":24477:24478   */\n      0x04\n        /* \"#utility.yul\":24470:24485   */\n      mstore\n        /* \"#utility.yul\":24504:24508   */\n      0x24\n        /* \"#utility.yul\":24501:24502   */\n      0x00\n        /* \"#utility.yul\":24494:24509   */\n      revert\n        /* \"#utility.yul\":24521:24701   */\n    tag_91:\n        /* \"#utility.yul\":24569:24646   */\n      0x4e487b7100000000000000000000000000000000000000000000000000000000\n        /* \"#utility.yul\":24566:24567   */\n      0x00\n        /* \"#utility.yul\":24559:24647   */\n      mstore\n        /* \"#utility.yul\":24666:24670   */\n      0x32\n        /* \"#utility.yul\":24663:24664   */\n      0x04\n        /* \"#utility.yul\":24656:24671   */\n      mstore\n        /* \"#utility.yul\":24690:24694   */\n      0x24\n        /* \"#utility.yul\":24687:24688   */\n      0x00\n        /* \"#utility.yul\":24680:24695   */\n      revert\n        /* \"#utility.yul\":24707:24887   */\n    tag_121:\n        /* \"#utility.yul\":24755:24832   */\n      0x4e487b7100000000000000000000000000000000000000000000000000000000\n        /* \"#utility.yul\":24752:24753   */\n      0x00\n        /* \"#utility.yul\":24745:24833   */\n      mstore\n        /* \"#utility.yul\":24852:24856   */\n      0x41\n        /* \"#utility.yul\":24849:24850   */\n      0x04\n        /* \"#utility.yul\":24842:24857   */\n      mstore\n        /* \"#utility.yul\":24876:24880   */\n      0x24\n        /* \"#utility.yul\":24873:24874   */\n      0x00\n        /* \"#utility.yul\":24866:24881   */\n      revert\n        /* \"#utility.yul\":24893:25010   */\n    tag_264:\n        /* \"#utility.yul\":25002:25003   */\n      0x00\n        /* \"#utility.yul\":24999:25000   */\n      dup1\n        /* \"#utility.yul\":24992:25004   */\n      revert\n        /* \"#utility.yul\":25016:25133   */\n    tag_261:\n        /* \"#utility.yul\":25125:25126   */\n      0x00\n        /* \"#utility.yul\":25122:25123   */\n      dup1\n        /* \"#utility.yul\":25115:25127   */\n      revert\n        /* \"#utility.yul\":25139:25256   */\n    tag_267:\n        /* \"#utility.yul\":25248:25249   */\n      0x00\n        /* \"#utility.yul\":25245:25246   */\n      dup1\n        /* \"#utility.yul\":25238:25250   */\n      revert\n        /* \"#utility.yul\":25262:25379   */\n    tag_289:\n        /* \"#utility.yul\":25371:25372   */\n      0x00\n        /* \"#utility.yul\":25368:25369   */\n      dup1\n        /* \"#utility.yul\":25361:25373   */\n      revert\n        /* \"#utility.yul\":25385:25502   */\n    tag_275:\n        /* \"#utility.yul\":25494:25495   */\n      0x00\n        /* \"#utility.yul\":25491:25492   */\n      dup1\n        /* \"#utility.yul\":25484:25496   */\n      revert\n        /* \"#utility.yul\":25508:25610   */\n    tag_366:\n        /* \"#utility.yul\":25549:25555   */\n      0x00\n        /* \"#utility.yul\":25600:25602   */\n      0x1f\n        /* \"#utility.yul\":25596:25603   */\n      not\n        /* \"#utility.yul\":25591:25593   */\n      0x1f\n        /* \"#utility.yul\":25584:25589   */\n      dup4\n        /* \"#utility.yul\":25580:25594   */\n      add\n        /* \"#utility.yul\":25576:25604   */\n      and\n        /* \"#utility.yul\":25566:25604   */\n      swap1\n      pop\n        /* \"#utility.yul\":25508:25610   */\n      swap2\n      swap1\n      pop\n      jump\t// out\n        /* \"#utility.yul\":25616:25710   */\n    tag_547:\n        /* \"#utility.yul\":25649:25657   */\n      0x00\n        /* \"#utility.yul\":25697:25702   */\n      dup2\n        /* \"#utility.yul\":25693:25695   */\n      0x60\n        /* \"#utility.yul\":25689:25703   */\n      shl\n        /* \"#utility.yul\":25668:25703   */\n      swap1\n      pop\n        /* \"#utility.yul\":25616:25710   */\n      swap2\n      swap1\n      pop\n      jump\t// out\n        /* \"#utility.yul\":25716:25891   */\n    tag_371:\n        /* \"#utility.yul\":25856:25883   */\n      0x596f7520646f6e2774206f776e207468697320746f6b656e2100000000000000\n        /* \"#utility.yul\":25852:25853   */\n      0x00\n        /* \"#utility.yul\":25844:25850   */\n      dup3\n        /* \"#utility.yul\":25840:25854   */\n      add\n        /* \"#utility.yul\":25833:25884   */\n      mstore\n        /* \"#utility.yul\":25716:25891   */\n      pop\n      jump\t// out\n        /* \"#utility.yul\":25897:26122   */\n    tag_376:\n        /* \"#utility.yul\":26037:26071   */\n      0x4f776e61626c653a206e6577206f776e657220697320746865207a65726f2061\n        /* \"#utility.yul\":26033:26034   */\n      0x00\n        /* \"#utility.yul\":26025:26031   */\n      dup3\n        /* \"#utility.yul\":26021:26035   */\n      add\n        /* \"#utility.yul\":26014:26072   */\n      mstore\n        /* \"#utility.yul\":26106:26114   */\n      0x6464726573730000000000000000000000000000000000000000000000000000\n        /* \"#utility.yul\":26101:26103   */\n      0x20\n        /* \"#utility.yul\":26093:26099   */\n      dup3\n        /* \"#utility.yul\":26089:26104   */\n      add\n        /* \"#utility.yul\":26082:26115   */\n      mstore\n        /* \"#utility.yul\":25897:26122   */\n      pop\n      jump\t// out\n        /* \"#utility.yul\":26128:26303   */\n    tag_381:\n        /* \"#utility.yul\":26268:26295   */\n      0x596f752068617665206e6f20746f6b656e73207374616b656400000000000000\n        /* \"#utility.yul\":26264:26265   */\n      0x00\n        /* \"#utility.yul\":26256:26262   */\n      dup3\n        /* \"#utility.yul\":26252:26266   */\n      add\n        /* \"#utility.yul\":26245:26296   */\n      mstore\n        /* \"#utility.yul\":26128:26303   */\n      pop\n      jump\t// out\n        /* \"#utility.yul\":26309:26534   */\n    tag_386:\n        /* \"#utility.yul\":26449:26483   */\n      0x416464726573733a20696e73756666696369656e742062616c616e636520666f\n        /* \"#utility.yul\":26445:26446   */\n      0x00\n        /* \"#utility.yul\":26437:26443   */\n      dup3\n        /* \"#utility.yul\":26433:26447   */\n      add\n        /* \"#utility.yul\":26426:26484   */\n      mstore\n        /* \"#utility.yul\":26518:26526   */\n      0x722063616c6c0000000000000000000000000000000000000000000000000000\n        /* \"#utility.yul\":26513:26515   */\n      0x20\n        /* \"#utility.yul\":26505:26511   */\n      dup3\n        /* \"#utility.yul\":26501:26516   */\n      add\n        /* \"#utility.yul\":26494:26527   */\n      mstore\n        /* \"#utility.yul\":26309:26534   */\n      pop\n      jump\t// out\n        /* \"#utility.yul\":26540:26722   */\n    tag_391:\n        /* \"#utility.yul\":26680:26714   */\n      0x4f776e61626c653a2063616c6c6572206973206e6f7420746865206f776e6572\n        /* \"#utility.yul\":26676:26677   */\n      0x00\n        /* \"#utility.yul\":26668:26674   */\n      dup3\n        /* \"#utility.yul\":26664:26678   */\n      add\n        /* \"#utility.yul\":26657:26715   */\n      mstore\n        /* \"#utility.yul\":26540:26722   */\n      pop\n      jump\t// out\n        /* \"#utility.yul\":26728:26906   */\n    tag_396:\n        /* \"#utility.yul\":26868:26898   */\n      0x596f752068617665206e6f207265776172647320746f20636c61696d00000000\n        /* \"#utility.yul\":26864:26865   */\n      0x00\n        /* \"#utility.yul\":26856:26862   */\n      dup3\n        /* \"#utility.yul\":26852:26866   */\n      add\n        /* \"#utility.yul\":26845:26899   */\n      mstore\n        /* \"#utility.yul\":26728:26906   */\n      pop\n      jump\t// out\n        /* \"#utility.yul\":26912:27091   */\n    tag_401:\n        /* \"#utility.yul\":27052:27083   */\n      0x416464726573733a2063616c6c20746f206e6f6e2d636f6e7472616374000000\n        /* \"#utility.yul\":27048:27049   */\n      0x00\n        /* \"#utility.yul\":27040:27046   */\n      dup3\n        /* \"#utility.yul\":27036:27050   */\n      add\n        /* \"#utility.yul\":27029:27084   */\n      mstore\n        /* \"#utility.yul\":26912:27091   */\n      pop\n      jump\t// out\n        /* \"#utility.yul\":27097:27326   */\n    tag_406:\n        /* \"#utility.yul\":27237:27271   */\n      0x5361666545524332303a204552433230206f7065726174696f6e20646964206e\n        /* \"#utility.yul\":27233:27234   */\n      0x00\n        /* \"#utility.yul\":27225:27231   */\n      dup3\n        /* \"#utility.yul\":27221:27235   */\n      add\n        /* \"#utility.yul\":27214:27272   */\n      mstore\n        /* \"#utility.yul\":27306:27318   */\n      0x6f74207375636365656400000000000000000000000000000000000000000000\n        /* \"#utility.yul\":27301:27303   */\n      0x20\n        /* \"#utility.yul\":27293:27299   */\n      dup3\n        /* \"#utility.yul\":27289:27304   */\n      add\n        /* \"#utility.yul\":27282:27319   */\n      mstore\n        /* \"#utility.yul\":27097:27326   */\n      pop\n      jump\t// out\n        /* \"#utility.yul\":27332:27513   */\n    tag_411:\n        /* \"#utility.yul\":27472:27505   */\n      0x5265656e7472616e637947756172643a207265656e7472616e742063616c6c00\n        /* \"#utility.yul\":27468:27469   */\n      0x00\n        /* \"#utility.yul\":27460:27466   */\n      dup3\n        /* \"#utility.yul\":27456:27470   */\n      add\n        /* \"#utility.yul\":27449:27506   */\n      mstore\n        /* \"#utility.yul\":27332:27513   */\n      pop\n      jump\t// out\n        /* \"#utility.yul\":27519:27641   */\n    tag_249:\n        /* \"#utility.yul\":27592:27616   */\n      tag_570\n        /* \"#utility.yul\":27610:27615   */\n      dup2\n        /* \"#utility.yul\":27592:27616   */\n      tag_306\n      jump\t// in\n    tag_570:\n        /* \"#utility.yul\":27585:27590   */\n      dup2\n        /* \"#utility.yul\":27582:27617   */\n      eq\n        /* \"#utility.yul\":27572:27635   */\n      tag_571\n      jumpi\n        /* \"#utility.yul\":27631:27632   */\n      0x00\n        /* \"#utility.yul\":27628:27629   */\n      dup1\n        /* \"#utility.yul\":27621:27633   */\n      revert\n        /* \"#utility.yul\":27572:27635   */\n    tag_571:\n        /* \"#utility.yul\":27519:27641   */\n      pop\n      jump\t// out\n        /* \"#utility.yul\":27647:27763   */\n    tag_256:\n        /* \"#utility.yul\":27717:27738   */\n      tag_573\n        /* \"#utility.yul\":27732:27737   */\n      dup2\n        /* \"#utility.yul\":27717:27738   */\n      tag_332\n      jump\t// in\n    tag_573:\n        /* \"#utility.yul\":27710:27715   */\n      dup2\n        /* \"#utility.yul\":27707:27739   */\n      eq\n        /* \"#utility.yul\":27697:27757   */\n      tag_574\n      jumpi\n        /* \"#utility.yul\":27753:27754   */\n      0x00\n        /* \"#utility.yul\":27750:27751   */\n      dup1\n        /* \"#utility.yul\":27743:27755   */\n      revert\n        /* \"#utility.yul\":27697:27757   */\n    tag_574:\n        /* \"#utility.yul\":27647:27763   */\n      pop\n      jump\t// out\n        /* \"#utility.yul\":27769:27891   */\n    tag_271:\n        /* \"#utility.yul\":27842:27866   */\n      tag_576\n        /* \"#utility.yul\":27860:27865   */\n      dup2\n        /* \"#utility.yul\":27842:27866   */\n      tag_418\n      jump\t// in\n    tag_576:\n        /* \"#utility.yul\":27835:27840   */\n      dup2\n        /* \"#utility.yul\":27832:27867   */\n      eq\n        /* \"#utility.yul\":27822:27885   */\n      tag_577\n      jumpi\n        /* \"#utility.yul\":27881:27882   */\n      0x00\n        /* \"#utility.yul\":27878:27879   */\n      dup1\n        /* \"#utility.yul\":27871:27883   */\n      revert\n        /* \"#utility.yul\":27822:27885   */\n    tag_577:\n        /* \"#utility.yul\":27769:27891   */\n      pop\n      jump\t// out\n\n    auxdata: 0xa264697066735822122063595b96e8c5c2cf8bc6baf5768718f3f3390de0f6ac40956bce8720018a7ae964736f6c63430008070033\n}\n",
				"bytecode": {
					"linkReferences": {},
					"object": "6080604052620186a06004553480156200001857600080fd5b506040516200293d3803806200293d83398181016040528101906200003e919062000223565b60016000819055506000600160006101000a81548160ff02191690831515021790555062000081620000756200011360201b60201c565b6200011b60201b60201c565b82600360006101000a81548173ffffffffffffffffffffffffffffffffffffffff021916908373ffffffffffffffffffffffffffffffffffffffff16021790555081600260006101000a81548173ffffffffffffffffffffffffffffffffffffffff021916908373ffffffffffffffffffffffffffffffffffffffff1602179055508060048190555050505062000338565b600033905090565b600060018054906101000a900473ffffffffffffffffffffffffffffffffffffffff169050816001806101000a81548173ffffffffffffffffffffffffffffffffffffffff021916908373ffffffffffffffffffffffffffffffffffffffff1602179055508173ffffffffffffffffffffffffffffffffffffffff168173ffffffffffffffffffffffffffffffffffffffff167f8be0079c531659141344cd1fd0a4f28419497f9722a3daafe3b4186f6b6457e060405160405180910390a35050565b600081519050620001ef81620002ea565b92915050565b600081519050620002068162000304565b92915050565b6000815190506200021d816200031e565b92915050565b6000806000606084860312156200023f576200023e620002e5565b5b60006200024f86828701620001f5565b93505060206200026286828701620001de565b925050604062000275868287016200020c565b9150509250925092565b60006200028c82620002bb565b9050919050565b6000620002a0826200027f565b9050919050565b6000620002b4826200027f565b9050919050565b600073ffffffffffffffffffffffffffffffffffffffff82169050919050565b6000819050919050565b600080fd5b620002f58162000293565b81146200030157600080fd5b50565b6200030f81620002a7565b81146200031b57600080fd5b50565b6200032981620002db565b81146200033557600080fd5b50565b6125f580620003486000396000f3fe608060405234801561001057600080fd5b50600436106100cf5760003560e01c8063715018a61161008c578063940670451161006657806394067045146101f0578063a694fc3a14610220578063d1af0c7d1461023c578063f2fde38b1461025a576100cf565b8063715018a6146101965780638da5cb5b146101a05780639168ae72146101be576100cf565b8063150b7a02146100d45780632e1a7d4d14610104578063372500ab146101205780635c975abb1461012a57806363c28db1146101485780636588103b14610178575b600080fd5b6100ee60048036038101906100e9919061188e565b610276565b6040516100fb9190611da0565b60405180910390f35b61011e60048036038101906101199190611943565b6102b2565b005b610128610755565b005b6101326108d1565b60405161013f9190611d85565b60405180910390f35b610162600480360381019061015d9190611834565b6108e8565b60405161016f9190611d63565b60405180910390f35b610180610c4e565b60405161018d9190611dd6565b60405180910390f35b61019e610c74565b005b6101a8610c88565b6040516101b59190611ce8565b60405180910390f35b6101d860048036038101906101d39190611834565b610cb0565b6040516101e793929190611f4e565b60405180910390f35b61020a60048036038101906102059190611943565b610cda565b6040516102179190611ce8565b60405180910390f35b61023a60048036038101906102359190611943565b610d0d565b005b61024461115c565b6040516102519190611dbb565b60405180910390f35b610274600480360381019061026f9190611834565b611182565b005b60008585858585604051602001610291959493929190611c85565b60405160208183030381529060405280519060200120905095945050505050565b6102ba611206565b6000600560003373ffffffffffffffffffffffffffffffffffffffff1673ffffffffffffffffffffffffffffffffffffffff168152602001908152602001600020600001541161033f576040517f08c379a000000000000000000000000000000000000000000000000000000000815260040161033690611e53565b60405180910390fd5b3373ffffffffffffffffffffffffffffffffffffffff166006600083815260200190815260200160002060009054906101000a900473ffffffffffffffffffffffffffffffffffffffff1673ffffffffffffffffffffffffffffffffffffffff16146103e0576040517f08c379a00000000000000000000000000000000000000000000000000000000081526004016103d790611e13565b60405180910390fd5b60006103eb33611256565b905080600560003373ffffffffffffffffffffffffffffffffffffffff1673ffffffffffffffffffffffffffffffffffffffff168152602001908152602001600020600301600082825461043f9190611ff0565b925050819055506000805b600560003373ffffffffffffffffffffffffffffffffffffffff1673ffffffffffffffffffffffffffffffffffffffff1681526020019081526020016000206001018054905081101561051f5783600560003373ffffffffffffffffffffffffffffffffffffffff1673ffffffffffffffffffffffffffffffffffffffff16815260200190815260200160002060010182815481106104ec576104eb612302565b5b906000526020600020906002020160010154141561050c5780915061051f565b80806105179061222d565b91505061044a565b506000600560003373ffffffffffffffffffffffffffffffffffffffff1673ffffffffffffffffffffffffffffffffffffffff168152602001908152602001600020600101828154811061057657610575612302565b5b906000526020600020906002020160000160006101000a81548173ffffffffffffffffffffffffffffffffffffffff021916908373ffffffffffffffffffffffffffffffffffffffff160217905550600560003373ffffffffffffffffffffffffffffffffffffffff1673ffffffffffffffffffffffffffffffffffffffff168152602001908152602001600020600001600081548092919061061890612203565b919050555060006006600085815260200190815260200160002060006101000a81548173ffffffffffffffffffffffffffffffffffffffff021916908373ffffffffffffffffffffffffffffffffffffffff160217905550600360009054906101000a900473ffffffffffffffffffffffffffffffffffffffff1673ffffffffffffffffffffffffffffffffffffffff166323b872dd3033866040518463ffffffff1660e01b81526004016106cf93929190611d03565b600060405180830381600087803b1580156106e957600080fd5b505af11580156106fd573d6000803e3d6000fd5b5050505042600560003373ffffffffffffffffffffffffffffffffffffffff1673ffffffffffffffffffffffffffffffffffffffff168152602001908152602001600020600201819055505050610752611314565b50565b6000600560003373ffffffffffffffffffffffffffffffffffffffff1673ffffffffffffffffffffffffffffffffffffffff168152602001908152602001600020600301546107a333611256565b6107ad9190611ff0565b9050600081116107f2576040517f08c379a00000000000000000000000000000000000000000000000000000000081526004016107e990611eb3565b60405180910390fd5b42600560003373ffffffffffffffffffffffffffffffffffffffff1673ffffffffffffffffffffffffffffffffffffffff168152602001908152602001600020600201819055506000600560003373ffffffffffffffffffffffffffffffffffffffff1673ffffffffffffffffffffffffffffffffffffffff168152602001908152602001600020600301819055506108ce3382600260009054906101000a900473ffffffffffffffffffffffffffffffffffffffff1673ffffffffffffffffffffffffffffffffffffffff1661131e9092919063ffffffff16565b50565b6000600160009054906101000a900460ff16905090565b60606000600560008473ffffffffffffffffffffffffffffffffffffffff1673ffffffffffffffffffffffffffffffffffffffff168152602001908152602001600020600001541115610bf1576000600560008473ffffffffffffffffffffffffffffffffffffffff1673ffffffffffffffffffffffffffffffffffffffff1681526020019081526020016000206000015467ffffffffffffffff81111561099357610992612331565b5b6040519080825280602002602001820160405280156109cc57816020015b6109b961175a565b8152602001906001900390816109b15790505b5090506000805b600560008673ffffffffffffffffffffffffffffffffffffffff1673ffffffffffffffffffffffffffffffffffffffff16815260200190815260200160002060010180549050811015610be657600073ffffffffffffffffffffffffffffffffffffffff16600560008773ffffffffffffffffffffffffffffffffffffffff1673ffffffffffffffffffffffffffffffffffffffff1681526020019081526020016000206001018281548110610a8c57610a8b612302565b5b906000526020600020906002020160000160009054906101000a900473ffffffffffffffffffffffffffffffffffffffff1673ffffffffffffffffffffffffffffffffffffffff1614610bd357600560008673ffffffffffffffffffffffffffffffffffffffff1673ffffffffffffffffffffffffffffffffffffffff1681526020019081526020016000206001018181548110610b2d57610b2c612302565b5b90600052602060002090600202016040518060400160405290816000820160009054906101000a900473ffffffffffffffffffffffffffffffffffffffff1673ffffffffffffffffffffffffffffffffffffffff1673ffffffffffffffffffffffffffffffffffffffff168152602001600182015481525050838381518110610bb957610bb8612302565b5b60200260200101819052508180610bcf9061222d565b9250505b8080610bde9061222d565b9150506109d3565b508192505050610c49565b600067ffffffffffffffff811115610c0c57610c0b612331565b5b604051908082528060200260200182016040528015610c4557816020015b610c3261175a565b815260200190600190039081610c2a5790505b5090505b919050565b600360009054906101000a900473ffffffffffffffffffffffffffffffffffffffff1681565b610c7c6113a4565b610c866000611422565b565b600060018054906101000a900473ffffffffffffffffffffffffffffffffffffffff16905090565b60056020528060005260406000206000915090508060000154908060020154908060030154905083565b60066020528060005260406000206000915054906101000a900473ffffffffffffffffffffffffffffffffffffffff1681565b610d15611206565b3373ffffffffffffffffffffffffffffffffffffffff16600360009054906101000a900473ffffffffffffffffffffffffffffffffffffffff1673ffffffffffffffffffffffffffffffffffffffff16636352211e836040518263ffffffff1660e01b8152600401610d879190611f33565b60206040518083038186803b158015610d9f57600080fd5b505afa158015610db3573d6000803e3d6000fd5b505050506040513d601f19601f82011682018060405250810190610dd79190611861565b73ffffffffffffffffffffffffffffffffffffffff1614610e2d576040517f08c379a0000000000000000000000000000000000000000000000000000000008152600401610e2490611e13565b60405180910390fd5b6000600560003373ffffffffffffffffffffffffffffffffffffffff1673ffffffffffffffffffffffffffffffffffffffff168152602001908152602001600020600001541115610ee0576000610e8333611256565b905080600560003373ffffffffffffffffffffffffffffffffffffffff1673ffffffffffffffffffffffffffffffffffffffff1681526020019081526020016000206003016000828254610ed79190611ff0565b92505081905550505b600360009054906101000a900473ffffffffffffffffffffffffffffffffffffffff1673ffffffffffffffffffffffffffffffffffffffff166323b872dd3330846040518463ffffffff1660e01b8152600401610f3f93929190611d03565b600060405180830381600087803b158015610f5957600080fd5b505af1158015610f6d573d6000803e3d6000fd5b50505050600060405180604001604052803373ffffffffffffffffffffffffffffffffffffffff168152602001838152509050600560003373ffffffffffffffffffffffffffffffffffffffff1673ffffffffffffffffffffffffffffffffffffffff16815260200190815260200160002060010181908060018154018082558091505060019003906000526020600020906002020160009091909190915060008201518160000160006101000a81548173ffffffffffffffffffffffffffffffffffffffff021916908373ffffffffffffffffffffffffffffffffffffffff160217905550602082015181600101555050600560003373ffffffffffffffffffffffffffffffffffffffff1673ffffffffffffffffffffffffffffffffffffffff16815260200190815260200160002060000160008154809291906110b29061222d565b9190505550336006600084815260200190815260200160002060006101000a81548173ffffffffffffffffffffffffffffffffffffffff021916908373ffffffffffffffffffffffffffffffffffffffff16021790555042600560003373ffffffffffffffffffffffffffffffffffffffff1673ffffffffffffffffffffffffffffffffffffffff1681526020019081526020016000206002018190555050611159611314565b50565b600260009054906101000a900473ffffffffffffffffffffffffffffffffffffffff1681565b61118a6113a4565b600073ffffffffffffffffffffffffffffffffffffffff168173ffffffffffffffffffffffffffffffffffffffff1614156111fa576040517f08c379a00000000000000000000000000000000000000000000000000000000081526004016111f190611e33565b60405180910390fd5b61120381611422565b50565b6002600054141561124c576040517f08c379a000000000000000000000000000000000000000000000000000000000815260040161124390611f13565b60405180910390fd5b6002600081905550565b6000610e10600454600560008573ffffffffffffffffffffffffffffffffffffffff1673ffffffffffffffffffffffffffffffffffffffff16815260200190815260200160002060000154600560008673ffffffffffffffffffffffffffffffffffffffff1673ffffffffffffffffffffffffffffffffffffffff16815260200190815260200160002060020154426112ef91906120d1565b6112f99190612077565b6113039190612077565b61130d9190612046565b9050919050565b6001600081905550565b61139f8363a9059cbb60e01b848460405160240161133d929190611d3a565b604051602081830303815290604052907bffffffffffffffffffffffffffffffffffffffffffffffffffffffff19166020820180517bffffffffffffffffffffffffffffffffffffffffffffffffffffffff83818316178352505050506114e5565b505050565b6113ac6115ac565b73ffffffffffffffffffffffffffffffffffffffff166113ca610c88565b73ffffffffffffffffffffffffffffffffffffffff1614611420576040517f08c379a000000000000000000000000000000000000000000000000000000000815260040161141790611e93565b60405180910390fd5b565b600060018054906101000a900473ffffffffffffffffffffffffffffffffffffffff169050816001806101000a81548173ffffffffffffffffffffffffffffffffffffffff021916908373ffffffffffffffffffffffffffffffffffffffff1602179055508173ffffffffffffffffffffffffffffffffffffffff168173ffffffffffffffffffffffffffffffffffffffff167f8be0079c531659141344cd1fd0a4f28419497f9722a3daafe3b4186f6b6457e060405160405180910390a35050565b6000611547826040518060400160405280602081526020017f5361666545524332303a206c6f772d6c6576656c2063616c6c206661696c65648152508573ffffffffffffffffffffffffffffffffffffffff166115b49092919063ffffffff16565b90506000815111156115a757808060200190518101906115679190611916565b6115a6576040517f08c379a000000000000000000000000000000000000000000000000000000000815260040161159d90611ef3565b60405180910390fd5b5b505050565b600033905090565b60606115c384846000856115cc565b90509392505050565b606082471015611611576040517f08c379a000000000000000000000000000000000000000000000000000000000815260040161160890611e73565b60405180910390fd5b61161a856116e0565b611659576040517f08c379a000000000000000000000000000000000000000000000000000000000815260040161165090611ed3565b60405180910390fd5b6000808673ffffffffffffffffffffffffffffffffffffffff1685876040516116829190611cd1565b60006040518083038185875af1925050503d80600081146116bf576040519150601f19603f3d011682016040523d82523d6000602084013e6116c4565b606091505b50915091506116d48282866116f3565b92505050949350505050565b600080823b905060008111915050919050565b6060831561170357829050611753565b6000835111156117165782518084602001fd5b816040517f08c379a000000000000000000000000000000000000000000000000000000000815260040161174a9190611df1565b60405180910390fd5b9392505050565b6040518060400160405280600073ffffffffffffffffffffffffffffffffffffffff168152602001600081525090565b6000813590506117998161257a565b92915050565b6000815190506117ae8161257a565b92915050565b6000815190506117c381612591565b92915050565b60008083601f8401126117df576117de612365565b5b8235905067ffffffffffffffff8111156117fc576117fb612360565b5b6020830191508360018202830111156118185761181761236a565b5b9250929050565b60008135905061182e816125a8565b92915050565b60006020828403121561184a57611849612374565b5b60006118588482850161178a565b91505092915050565b60006020828403121561187757611876612374565b5b60006118858482850161179f565b91505092915050565b6000806000806000608086880312156118aa576118a9612374565b5b60006118b88882890161178a565b95505060206118c98882890161178a565b94505060406118da8882890161181f565b935050606086013567ffffffffffffffff8111156118fb576118fa61236f565b5b611907888289016117c9565b92509250509295509295909350565b60006020828403121561192c5761192b612374565b5b600061193a848285016117b4565b91505092915050565b60006020828403121561195957611958612374565b5b60006119678482850161181f565b91505092915050565b600061197c8383611c21565b60408301905092915050565b61199181612105565b82525050565b6119a081612105565b82525050565b6119b76119b282612105565b612276565b82525050565b60006119c882611f95565b6119d28185611fc3565b93506119dd83611f85565b8060005b83811015611a0e5781516119f58882611970565b9750611a0083611fb6565b9250506001810190506119e1565b5085935050505092915050565b611a2481612117565b82525050565b611a3381612123565b82525050565b6000611a458385611fd4565b9350611a528385846121c1565b82840190509392505050565b6000611a6982611fa0565b611a738185611fd4565b9350611a838185602086016121d0565b80840191505092915050565b611a9881612179565b82525050565b611aa78161218b565b82525050565b6000611ab882611fab565b611ac28185611fdf565b9350611ad28185602086016121d0565b611adb81612379565b840191505092915050565b6000611af3601983611fdf565b9150611afe82612397565b602082019050919050565b6000611b16602683611fdf565b9150611b21826123c0565b604082019050919050565b6000611b39601983611fdf565b9150611b448261240f565b602082019050919050565b6000611b5c602683611fdf565b9150611b6782612438565b604082019050919050565b6000611b7f602083611fdf565b9150611b8a82612487565b602082019050919050565b6000611ba2601c83611fdf565b9150611bad826124b0565b602082019050919050565b6000611bc5601d83611fdf565b9150611bd0826124d9565b602082019050919050565b6000611be8602a83611fdf565b9150611bf382612502565b604082019050919050565b6000611c0b601f83611fdf565b9150611c1682612551565b602082019050919050565b604082016000820151611c376000850182611988565b506020820151611c4a6020850182611c50565b50505050565b611c598161216f565b82525050565b611c688161216f565b82525050565b611c7f611c7a8261216f565b61229a565b82525050565b6000611c9182886119a6565b601482019150611ca182876119a6565b601482019150611cb18286611c6e565b602082019150611cc2828486611a39565b91508190509695505050505050565b6000611cdd8284611a5e565b915081905092915050565b6000602082019050611cfd6000830184611997565b92915050565b6000606082019050611d186000830186611997565b611d256020830185611997565b611d326040830184611c5f565b949350505050565b6000604082019050611d4f6000830185611997565b611d5c6020830184611c5f565b9392505050565b60006020820190508181036000830152611d7d81846119bd565b905092915050565b6000602082019050611d9a6000830184611a1b565b92915050565b6000602082019050611db56000830184611a2a565b92915050565b6000602082019050611dd06000830184611a8f565b92915050565b6000602082019050611deb6000830184611a9e565b92915050565b60006020820190508181036000830152611e0b8184611aad565b905092915050565b60006020820190508181036000830152611e2c81611ae6565b9050919050565b60006020820190508181036000830152611e4c81611b09565b9050919050565b60006020820190508181036000830152611e6c81611b2c565b9050919050565b60006020820190508181036000830152611e8c81611b4f565b9050919050565b60006020820190508181036000830152611eac81611b72565b9050919050565b60006020820190508181036000830152611ecc81611b95565b9050919050565b60006020820190508181036000830152611eec81611bb8565b9050919050565b60006020820190508181036000830152611f0c81611bdb565b9050919050565b60006020820190508181036000830152611f2c81611bfe565b9050919050565b6000602082019050611f486000830184611c5f565b92915050565b6000606082019050611f636000830186611c5f565b611f706020830185611c5f565b611f7d6040830184611c5f565b949350505050565b6000819050602082019050919050565b600081519050919050565b600081519050919050565b600081519050919050565b6000602082019050919050565b600082825260208201905092915050565b600081905092915050565b600082825260208201905092915050565b6000611ffb8261216f565b91506120068361216f565b9250827fffffffffffffffffffffffffffffffffffffffffffffffffffffffffffffffff0382111561203b5761203a6122a4565b5b828201905092915050565b60006120518261216f565b915061205c8361216f565b92508261206c5761206b6122d3565b5b828204905092915050565b60006120828261216f565b915061208d8361216f565b9250817fffffffffffffffffffffffffffffffffffffffffffffffffffffffffffffffff04831182151516156120c6576120c56122a4565b5b828202905092915050565b60006120dc8261216f565b91506120e78361216f565b9250828210156120fa576120f96122a4565b5b828203905092915050565b60006121108261214f565b9050919050565b60008115159050919050565b60007fffffffff0000000000000000000000000000000000000000000000000000000082169050919050565b600073ffffffffffffffffffffffffffffffffffffffff82169050919050565b6000819050919050565b60006121848261219d565b9050919050565b60006121968261219d565b9050919050565b60006121a8826121af565b9050919050565b60006121ba8261214f565b9050919050565b82818337600083830152505050565b60005b838110156121ee5780820151818401526020810190506121d3565b838111156121fd576000848401525b50505050565b600061220e8261216f565b91506000821415612222576122216122a4565b5b600182039050919050565b60006122388261216f565b91507fffffffffffffffffffffffffffffffffffffffffffffffffffffffffffffffff82141561226b5761226a6122a4565b5b600182019050919050565b600061228182612288565b9050919050565b60006122938261238a565b9050919050565b6000819050919050565b7f4e487b7100000000000000000000000000000000000000000000000000000000600052601160045260246000fd5b7f4e487b7100000000000000000000000000000000000000000000000000000000600052601260045260246000fd5b7f4e487b7100000000000000000000000000000000000000000000000000000000600052603260045260246000fd5b7f4e487b7100000000000000000000000000000000000000000000000000000000600052604160045260246000fd5b600080fd5b600080fd5b600080fd5b600080fd5b600080fd5b6000601f19601f8301169050919050565b60008160601b9050919050565b7f596f7520646f6e2774206f776e207468697320746f6b656e2100000000000000600082015250565b7f4f776e61626c653a206e6577206f776e657220697320746865207a65726f206160008201527f6464726573730000000000000000000000000000000000000000000000000000602082015250565b7f596f752068617665206e6f20746f6b656e73207374616b656400000000000000600082015250565b7f416464726573733a20696e73756666696369656e742062616c616e636520666f60008201527f722063616c6c0000000000000000000000000000000000000000000000000000602082015250565b7f4f776e61626c653a2063616c6c6572206973206e6f7420746865206f776e6572600082015250565b7f596f752068617665206e6f207265776172647320746f20636c61696d00000000600082015250565b7f416464726573733a2063616c6c20746f206e6f6e2d636f6e7472616374000000600082015250565b7f5361666545524332303a204552433230206f7065726174696f6e20646964206e60008201527f6f74207375636365656400000000000000000000000000000000000000000000602082015250565b7f5265656e7472616e637947756172643a207265656e7472616e742063616c6c00600082015250565b61258381612105565b811461258e57600080fd5b50565b61259a81612117565b81146125a557600080fd5b50565b6125b18161216f565b81146125bc57600080fd5b5056fea264697066735822122063595b96e8c5c2cf8bc6baf5768718f3f3390de0f6ac40956bce8720018a7ae964736f6c63430008070033",
					"opcodes": "PUSH1 0x80 PUSH1 0x40 MSTORE PUSH3 0x186A0 PUSH1 0x4 SSTORE CALLVALUE DUP1 ISZERO PUSH3 0x18 JUMPI PUSH1 0x0 DUP1 REVERT JUMPDEST POP PUSH1 0x40 MLOAD PUSH3 0x293D CODESIZE SUB DUP1 PUSH3 0x293D DUP4 CODECOPY DUP2 DUP2 ADD PUSH1 0x40 MSTORE DUP2 ADD SWAP1 PUSH3 0x3E SWAP2 SWAP1 PUSH3 0x223 JUMP JUMPDEST PUSH1 0x1 PUSH1 0x0 DUP2 SWAP1 SSTORE POP PUSH1 0x0 PUSH1 0x1 PUSH1 0x0 PUSH2 0x100 EXP DUP2 SLOAD DUP2 PUSH1 0xFF MUL NOT AND SWAP1 DUP4 ISZERO ISZERO MUL OR SWAP1 SSTORE POP PUSH3 0x81 PUSH3 0x75 PUSH3 0x113 PUSH1 0x20 SHL PUSH1 0x20 SHR JUMP JUMPDEST PUSH3 0x11B PUSH1 0x20 SHL PUSH1 0x20 SHR JUMP JUMPDEST DUP3 PUSH1 0x3 PUSH1 0x0 PUSH2 0x100 EXP DUP2 SLOAD DUP2 PUSH20 0xFFFFFFFFFFFFFFFFFFFFFFFFFFFFFFFFFFFFFFFF MUL NOT AND SWAP1 DUP4 PUSH20 0xFFFFFFFFFFFFFFFFFFFFFFFFFFFFFFFFFFFFFFFF AND MUL OR SWAP1 SSTORE POP DUP2 PUSH1 0x2 PUSH1 0x0 PUSH2 0x100 EXP DUP2 SLOAD DUP2 PUSH20 0xFFFFFFFFFFFFFFFFFFFFFFFFFFFFFFFFFFFFFFFF MUL NOT AND SWAP1 DUP4 PUSH20 0xFFFFFFFFFFFFFFFFFFFFFFFFFFFFFFFFFFFFFFFF AND MUL OR SWAP1 SSTORE POP DUP1 PUSH1 0x4 DUP2 SWAP1 SSTORE POP POP POP POP PUSH3 0x338 JUMP JUMPDEST PUSH1 0x0 CALLER SWAP1 POP SWAP1 JUMP JUMPDEST PUSH1 0x0 PUSH1 0x1 DUP1 SLOAD SWAP1 PUSH2 0x100 EXP SWAP1 DIV PUSH20 0xFFFFFFFFFFFFFFFFFFFFFFFFFFFFFFFFFFFFFFFF AND SWAP1 POP DUP2 PUSH1 0x1 DUP1 PUSH2 0x100 EXP DUP2 SLOAD DUP2 PUSH20 0xFFFFFFFFFFFFFFFFFFFFFFFFFFFFFFFFFFFFFFFF MUL NOT AND SWAP1 DUP4 PUSH20 0xFFFFFFFFFFFFFFFFFFFFFFFFFFFFFFFFFFFFFFFF AND MUL OR SWAP1 SSTORE POP DUP2 PUSH20 0xFFFFFFFFFFFFFFFFFFFFFFFFFFFFFFFFFFFFFFFF AND DUP2 PUSH20 0xFFFFFFFFFFFFFFFFFFFFFFFFFFFFFFFFFFFFFFFF AND PUSH32 0x8BE0079C531659141344CD1FD0A4F28419497F9722A3DAAFE3B4186F6B6457E0 PUSH1 0x40 MLOAD PUSH1 0x40 MLOAD DUP1 SWAP2 SUB SWAP1 LOG3 POP POP JUMP JUMPDEST PUSH1 0x0 DUP2 MLOAD SWAP1 POP PUSH3 0x1EF DUP2 PUSH3 0x2EA JUMP JUMPDEST SWAP3 SWAP2 POP POP JUMP JUMPDEST PUSH1 0x0 DUP2 MLOAD SWAP1 POP PUSH3 0x206 DUP2 PUSH3 0x304 JUMP JUMPDEST SWAP3 SWAP2 POP POP JUMP JUMPDEST PUSH1 0x0 DUP2 MLOAD SWAP1 POP PUSH3 0x21D DUP2 PUSH3 0x31E JUMP JUMPDEST SWAP3 SWAP2 POP POP JUMP JUMPDEST PUSH1 0x0 DUP1 PUSH1 0x0 PUSH1 0x60 DUP5 DUP7 SUB SLT ISZERO PUSH3 0x23F JUMPI PUSH3 0x23E PUSH3 0x2E5 JUMP JUMPDEST JUMPDEST PUSH1 0x0 PUSH3 0x24F DUP7 DUP3 DUP8 ADD PUSH3 0x1F5 JUMP JUMPDEST SWAP4 POP POP PUSH1 0x20 PUSH3 0x262 DUP7 DUP3 DUP8 ADD PUSH3 0x1DE JUMP JUMPDEST SWAP3 POP POP PUSH1 0x40 PUSH3 0x275 DUP7 DUP3 DUP8 ADD PUSH3 0x20C JUMP JUMPDEST SWAP2 POP POP SWAP3 POP SWAP3 POP SWAP3 JUMP JUMPDEST PUSH1 0x0 PUSH3 0x28C DUP3 PUSH3 0x2BB JUMP JUMPDEST SWAP1 POP SWAP2 SWAP1 POP JUMP JUMPDEST PUSH1 0x0 PUSH3 0x2A0 DUP3 PUSH3 0x27F JUMP JUMPDEST SWAP1 POP SWAP2 SWAP1 POP JUMP JUMPDEST PUSH1 0x0 PUSH3 0x2B4 DUP3 PUSH3 0x27F JUMP JUMPDEST SWAP1 POP SWAP2 SWAP1 POP JUMP JUMPDEST PUSH1 0x0 PUSH20 0xFFFFFFFFFFFFFFFFFFFFFFFFFFFFFFFFFFFFFFFF DUP3 AND SWAP1 POP SWAP2 SWAP1 POP JUMP JUMPDEST PUSH1 0x0 DUP2 SWAP1 POP SWAP2 SWAP1 POP JUMP JUMPDEST PUSH1 0x0 DUP1 REVERT JUMPDEST PUSH3 0x2F5 DUP2 PUSH3 0x293 JUMP JUMPDEST DUP2 EQ PUSH3 0x301 JUMPI PUSH1 0x0 DUP1 REVERT JUMPDEST POP JUMP JUMPDEST PUSH3 0x30F DUP2 PUSH3 0x2A7 JUMP JUMPDEST DUP2 EQ PUSH3 0x31B JUMPI PUSH1 0x0 DUP1 REVERT JUMPDEST POP JUMP JUMPDEST PUSH3 0x329 DUP2 PUSH3 0x2DB JUMP JUMPDEST DUP2 EQ PUSH3 0x335 JUMPI PUSH1 0x0 DUP1 REVERT JUMPDEST POP JUMP JUMPDEST PUSH2 0x25F5 DUP1 PUSH3 0x348 PUSH1 0x0 CODECOPY PUSH1 0x0 RETURN INVALID PUSH1 0x80 PUSH1 0x40 MSTORE CALLVALUE DUP1 ISZERO PUSH2 0x10 JUMPI PUSH1 0x0 DUP1 REVERT JUMPDEST POP PUSH1 0x4 CALLDATASIZE LT PUSH2 0xCF JUMPI PUSH1 0x0 CALLDATALOAD PUSH1 0xE0 SHR DUP1 PUSH4 0x715018A6 GT PUSH2 0x8C JUMPI DUP1 PUSH4 0x94067045 GT PUSH2 0x66 JUMPI DUP1 PUSH4 0x94067045 EQ PUSH2 0x1F0 JUMPI DUP1 PUSH4 0xA694FC3A EQ PUSH2 0x220 JUMPI DUP1 PUSH4 0xD1AF0C7D EQ PUSH2 0x23C JUMPI DUP1 PUSH4 0xF2FDE38B EQ PUSH2 0x25A JUMPI PUSH2 0xCF JUMP JUMPDEST DUP1 PUSH4 0x715018A6 EQ PUSH2 0x196 JUMPI DUP1 PUSH4 0x8DA5CB5B EQ PUSH2 0x1A0 JUMPI DUP1 PUSH4 0x9168AE72 EQ PUSH2 0x1BE JUMPI PUSH2 0xCF JUMP JUMPDEST DUP1 PUSH4 0x150B7A02 EQ PUSH2 0xD4 JUMPI DUP1 PUSH4 0x2E1A7D4D EQ PUSH2 0x104 JUMPI DUP1 PUSH4 0x372500AB EQ PUSH2 0x120 JUMPI DUP1 PUSH4 0x5C975ABB EQ PUSH2 0x12A JUMPI DUP1 PUSH4 0x63C28DB1 EQ PUSH2 0x148 JUMPI DUP1 PUSH4 0x6588103B EQ PUSH2 0x178 JUMPI JUMPDEST PUSH1 0x0 DUP1 REVERT JUMPDEST PUSH2 0xEE PUSH1 0x4 DUP1 CALLDATASIZE SUB DUP2 ADD SWAP1 PUSH2 0xE9 SWAP2 SWAP1 PUSH2 0x188E JUMP JUMPDEST PUSH2 0x276 JUMP JUMPDEST PUSH1 0x40 MLOAD PUSH2 0xFB SWAP2 SWAP1 PUSH2 0x1DA0 JUMP JUMPDEST PUSH1 0x40 MLOAD DUP1 SWAP2 SUB SWAP1 RETURN JUMPDEST PUSH2 0x11E PUSH1 0x4 DUP1 CALLDATASIZE SUB DUP2 ADD SWAP1 PUSH2 0x119 SWAP2 SWAP1 PUSH2 0x1943 JUMP JUMPDEST PUSH2 0x2B2 JUMP JUMPDEST STOP JUMPDEST PUSH2 0x128 PUSH2 0x755 JUMP JUMPDEST STOP JUMPDEST PUSH2 0x132 PUSH2 0x8D1 JUMP JUMPDEST PUSH1 0x40 MLOAD PUSH2 0x13F SWAP2 SWAP1 PUSH2 0x1D85 JUMP JUMPDEST PUSH1 0x40 MLOAD DUP1 SWAP2 SUB SWAP1 RETURN JUMPDEST PUSH2 0x162 PUSH1 0x4 DUP1 CALLDATASIZE SUB DUP2 ADD SWAP1 PUSH2 0x15D SWAP2 SWAP1 PUSH2 0x1834 JUMP JUMPDEST PUSH2 0x8E8 JUMP JUMPDEST PUSH1 0x40 MLOAD PUSH2 0x16F SWAP2 SWAP1 PUSH2 0x1D63 JUMP JUMPDEST PUSH1 0x40 MLOAD DUP1 SWAP2 SUB SWAP1 RETURN JUMPDEST PUSH2 0x180 PUSH2 0xC4E JUMP JUMPDEST PUSH1 0x40 MLOAD PUSH2 0x18D SWAP2 SWAP1 PUSH2 0x1DD6 JUMP JUMPDEST PUSH1 0x40 MLOAD DUP1 SWAP2 SUB SWAP1 RETURN JUMPDEST PUSH2 0x19E PUSH2 0xC74 JUMP JUMPDEST STOP JUMPDEST PUSH2 0x1A8 PUSH2 0xC88 JUMP JUMPDEST PUSH1 0x40 MLOAD PUSH2 0x1B5 SWAP2 SWAP1 PUSH2 0x1CE8 JUMP JUMPDEST PUSH1 0x40 MLOAD DUP1 SWAP2 SUB SWAP1 RETURN JUMPDEST PUSH2 0x1D8 PUSH1 0x4 DUP1 CALLDATASIZE SUB DUP2 ADD SWAP1 PUSH2 0x1D3 SWAP2 SWAP1 PUSH2 0x1834 JUMP JUMPDEST PUSH2 0xCB0 JUMP JUMPDEST PUSH1 0x40 MLOAD PUSH2 0x1E7 SWAP4 SWAP3 SWAP2 SWAP1 PUSH2 0x1F4E JUMP JUMPDEST PUSH1 0x40 MLOAD DUP1 SWAP2 SUB SWAP1 RETURN JUMPDEST PUSH2 0x20A PUSH1 0x4 DUP1 CALLDATASIZE SUB DUP2 ADD SWAP1 PUSH2 0x205 SWAP2 SWAP1 PUSH2 0x1943 JUMP JUMPDEST PUSH2 0xCDA JUMP JUMPDEST PUSH1 0x40 MLOAD PUSH2 0x217 SWAP2 SWAP1 PUSH2 0x1CE8 JUMP JUMPDEST PUSH1 0x40 MLOAD DUP1 SWAP2 SUB SWAP1 RETURN JUMPDEST PUSH2 0x23A PUSH1 0x4 DUP1 CALLDATASIZE SUB DUP2 ADD SWAP1 PUSH2 0x235 SWAP2 SWAP1 PUSH2 0x1943 JUMP JUMPDEST PUSH2 0xD0D JUMP JUMPDEST STOP JUMPDEST PUSH2 0x244 PUSH2 0x115C JUMP JUMPDEST PUSH1 0x40 MLOAD PUSH2 0x251 SWAP2 SWAP1 PUSH2 0x1DBB JUMP JUMPDEST PUSH1 0x40 MLOAD DUP1 SWAP2 SUB SWAP1 RETURN JUMPDEST PUSH2 0x274 PUSH1 0x4 DUP1 CALLDATASIZE SUB DUP2 ADD SWAP1 PUSH2 0x26F SWAP2 SWAP1 PUSH2 0x1834 JUMP JUMPDEST PUSH2 0x1182 JUMP JUMPDEST STOP JUMPDEST PUSH1 0x0 DUP6 DUP6 DUP6 DUP6 DUP6 PUSH1 0x40 MLOAD PUSH1 0x20 ADD PUSH2 0x291 SWAP6 SWAP5 SWAP4 SWAP3 SWAP2 SWAP1 PUSH2 0x1C85 JUMP JUMPDEST PUSH1 0x40 MLOAD PUSH1 0x20 DUP2 DUP4 SUB SUB DUP2 MSTORE SWAP1 PUSH1 0x40 MSTORE DUP1 MLOAD SWAP1 PUSH1 0x20 ADD KECCAK256 SWAP1 POP SWAP6 SWAP5 POP POP POP POP POP JUMP JUMPDEST PUSH2 0x2BA PUSH2 0x1206 JUMP JUMPDEST PUSH1 0x0 PUSH1 0x5 PUSH1 0x0 CALLER PUSH20 0xFFFFFFFFFFFFFFFFFFFFFFFFFFFFFFFFFFFFFFFF AND PUSH20 0xFFFFFFFFFFFFFFFFFFFFFFFFFFFFFFFFFFFFFFFF AND DUP2 MSTORE PUSH1 0x20 ADD SWAP1 DUP2 MSTORE PUSH1 0x20 ADD PUSH1 0x0 KECCAK256 PUSH1 0x0 ADD SLOAD GT PUSH2 0x33F JUMPI PUSH1 0x40 MLOAD PUSH32 0x8C379A000000000000000000000000000000000000000000000000000000000 DUP2 MSTORE PUSH1 0x4 ADD PUSH2 0x336 SWAP1 PUSH2 0x1E53 JUMP JUMPDEST PUSH1 0x40 MLOAD DUP1 SWAP2 SUB SWAP1 REVERT JUMPDEST CALLER PUSH20 0xFFFFFFFFFFFFFFFFFFFFFFFFFFFFFFFFFFFFFFFF AND PUSH1 0x6 PUSH1 0x0 DUP4 DUP2 MSTORE PUSH1 0x20 ADD SWAP1 DUP2 MSTORE PUSH1 0x20 ADD PUSH1 0x0 KECCAK256 PUSH1 0x0 SWAP1 SLOAD SWAP1 PUSH2 0x100 EXP SWAP1 DIV PUSH20 0xFFFFFFFFFFFFFFFFFFFFFFFFFFFFFFFFFFFFFFFF AND PUSH20 0xFFFFFFFFFFFFFFFFFFFFFFFFFFFFFFFFFFFFFFFF AND EQ PUSH2 0x3E0 JUMPI PUSH1 0x40 MLOAD PUSH32 0x8C379A000000000000000000000000000000000000000000000000000000000 DUP2 MSTORE PUSH1 0x4 ADD PUSH2 0x3D7 SWAP1 PUSH2 0x1E13 JUMP JUMPDEST PUSH1 0x40 MLOAD DUP1 SWAP2 SUB SWAP1 REVERT JUMPDEST PUSH1 0x0 PUSH2 0x3EB CALLER PUSH2 0x1256 JUMP JUMPDEST SWAP1 POP DUP1 PUSH1 0x5 PUSH1 0x0 CALLER PUSH20 0xFFFFFFFFFFFFFFFFFFFFFFFFFFFFFFFFFFFFFFFF AND PUSH20 0xFFFFFFFFFFFFFFFFFFFFFFFFFFFFFFFFFFFFFFFF AND DUP2 MSTORE PUSH1 0x20 ADD SWAP1 DUP2 MSTORE PUSH1 0x20 ADD PUSH1 0x0 KECCAK256 PUSH1 0x3 ADD PUSH1 0x0 DUP3 DUP3 SLOAD PUSH2 0x43F SWAP2 SWAP1 PUSH2 0x1FF0 JUMP JUMPDEST SWAP3 POP POP DUP2 SWAP1 SSTORE POP PUSH1 0x0 DUP1 JUMPDEST PUSH1 0x5 PUSH1 0x0 CALLER PUSH20 0xFFFFFFFFFFFFFFFFFFFFFFFFFFFFFFFFFFFFFFFF AND PUSH20 0xFFFFFFFFFFFFFFFFFFFFFFFFFFFFFFFFFFFFFFFF AND DUP2 MSTORE PUSH1 0x20 ADD SWAP1 DUP2 MSTORE PUSH1 0x20 ADD PUSH1 0x0 KECCAK256 PUSH1 0x1 ADD DUP1 SLOAD SWAP1 POP DUP2 LT ISZERO PUSH2 0x51F JUMPI DUP4 PUSH1 0x5 PUSH1 0x0 CALLER PUSH20 0xFFFFFFFFFFFFFFFFFFFFFFFFFFFFFFFFFFFFFFFF AND PUSH20 0xFFFFFFFFFFFFFFFFFFFFFFFFFFFFFFFFFFFFFFFF AND DUP2 MSTORE PUSH1 0x20 ADD SWAP1 DUP2 MSTORE PUSH1 0x20 ADD PUSH1 0x0 KECCAK256 PUSH1 0x1 ADD DUP3 DUP2 SLOAD DUP2 LT PUSH2 0x4EC JUMPI PUSH2 0x4EB PUSH2 0x2302 JUMP JUMPDEST JUMPDEST SWAP1 PUSH1 0x0 MSTORE PUSH1 0x20 PUSH1 0x0 KECCAK256 SWAP1 PUSH1 0x2 MUL ADD PUSH1 0x1 ADD SLOAD EQ ISZERO PUSH2 0x50C JUMPI DUP1 SWAP2 POP PUSH2 0x51F JUMP JUMPDEST DUP1 DUP1 PUSH2 0x517 SWAP1 PUSH2 0x222D JUMP JUMPDEST SWAP2 POP POP PUSH2 0x44A JUMP JUMPDEST POP PUSH1 0x0 PUSH1 0x5 PUSH1 0x0 CALLER PUSH20 0xFFFFFFFFFFFFFFFFFFFFFFFFFFFFFFFFFFFFFFFF AND PUSH20 0xFFFFFFFFFFFFFFFFFFFFFFFFFFFFFFFFFFFFFFFF AND DUP2 MSTORE PUSH1 0x20 ADD SWAP1 DUP2 MSTORE PUSH1 0x20 ADD PUSH1 0x0 KECCAK256 PUSH1 0x1 ADD DUP3 DUP2 SLOAD DUP2 LT PUSH2 0x576 JUMPI PUSH2 0x575 PUSH2 0x2302 JUMP JUMPDEST JUMPDEST SWAP1 PUSH1 0x0 MSTORE PUSH1 0x20 PUSH1 0x0 KECCAK256 SWAP1 PUSH1 0x2 MUL ADD PUSH1 0x0 ADD PUSH1 0x0 PUSH2 0x100 EXP DUP2 SLOAD DUP2 PUSH20 0xFFFFFFFFFFFFFFFFFFFFFFFFFFFFFFFFFFFFFFFF MUL NOT AND SWAP1 DUP4 PUSH20 0xFFFFFFFFFFFFFFFFFFFFFFFFFFFFFFFFFFFFFFFF AND MUL OR SWAP1 SSTORE POP PUSH1 0x5 PUSH1 0x0 CALLER PUSH20 0xFFFFFFFFFFFFFFFFFFFFFFFFFFFFFFFFFFFFFFFF AND PUSH20 0xFFFFFFFFFFFFFFFFFFFFFFFFFFFFFFFFFFFFFFFF AND DUP2 MSTORE PUSH1 0x20 ADD SWAP1 DUP2 MSTORE PUSH1 0x20 ADD PUSH1 0x0 KECCAK256 PUSH1 0x0 ADD PUSH1 0x0 DUP2 SLOAD DUP1 SWAP3 SWAP2 SWAP1 PUSH2 0x618 SWAP1 PUSH2 0x2203 JUMP JUMPDEST SWAP2 SWAP1 POP SSTORE POP PUSH1 0x0 PUSH1 0x6 PUSH1 0x0 DUP6 DUP2 MSTORE PUSH1 0x20 ADD SWAP1 DUP2 MSTORE PUSH1 0x20 ADD PUSH1 0x0 KECCAK256 PUSH1 0x0 PUSH2 0x100 EXP DUP2 SLOAD DUP2 PUSH20 0xFFFFFFFFFFFFFFFFFFFFFFFFFFFFFFFFFFFFFFFF MUL NOT AND SWAP1 DUP4 PUSH20 0xFFFFFFFFFFFFFFFFFFFFFFFFFFFFFFFFFFFFFFFF AND MUL OR SWAP1 SSTORE POP PUSH1 0x3 PUSH1 0x0 SWAP1 SLOAD SWAP1 PUSH2 0x100 EXP SWAP1 DIV PUSH20 0xFFFFFFFFFFFFFFFFFFFFFFFFFFFFFFFFFFFFFFFF AND PUSH20 0xFFFFFFFFFFFFFFFFFFFFFFFFFFFFFFFFFFFFFFFF AND PUSH4 0x23B872DD ADDRESS CALLER DUP7 PUSH1 0x40 MLOAD DUP5 PUSH4 0xFFFFFFFF AND PUSH1 0xE0 SHL DUP2 MSTORE PUSH1 0x4 ADD PUSH2 0x6CF SWAP4 SWAP3 SWAP2 SWAP1 PUSH2 0x1D03 JUMP JUMPDEST PUSH1 0x0 PUSH1 0x40 MLOAD DUP1 DUP4 SUB DUP2 PUSH1 0x0 DUP8 DUP1 EXTCODESIZE ISZERO DUP1 ISZERO PUSH2 0x6E9 JUMPI PUSH1 0x0 DUP1 REVERT JUMPDEST POP GAS CALL ISZERO DUP1 ISZERO PUSH2 0x6FD JUMPI RETURNDATASIZE PUSH1 0x0 DUP1 RETURNDATACOPY RETURNDATASIZE PUSH1 0x0 REVERT JUMPDEST POP POP POP POP TIMESTAMP PUSH1 0x5 PUSH1 0x0 CALLER PUSH20 0xFFFFFFFFFFFFFFFFFFFFFFFFFFFFFFFFFFFFFFFF AND PUSH20 0xFFFFFFFFFFFFFFFFFFFFFFFFFFFFFFFFFFFFFFFF AND DUP2 MSTORE PUSH1 0x20 ADD SWAP1 DUP2 MSTORE PUSH1 0x20 ADD PUSH1 0x0 KECCAK256 PUSH1 0x2 ADD DUP2 SWAP1 SSTORE POP POP POP PUSH2 0x752 PUSH2 0x1314 JUMP JUMPDEST POP JUMP JUMPDEST PUSH1 0x0 PUSH1 0x5 PUSH1 0x0 CALLER PUSH20 0xFFFFFFFFFFFFFFFFFFFFFFFFFFFFFFFFFFFFFFFF AND PUSH20 0xFFFFFFFFFFFFFFFFFFFFFFFFFFFFFFFFFFFFFFFF AND DUP2 MSTORE PUSH1 0x20 ADD SWAP1 DUP2 MSTORE PUSH1 0x20 ADD PUSH1 0x0 KECCAK256 PUSH1 0x3 ADD SLOAD PUSH2 0x7A3 CALLER PUSH2 0x1256 JUMP JUMPDEST PUSH2 0x7AD SWAP2 SWAP1 PUSH2 0x1FF0 JUMP JUMPDEST SWAP1 POP PUSH1 0x0 DUP2 GT PUSH2 0x7F2 JUMPI PUSH1 0x40 MLOAD PUSH32 0x8C379A000000000000000000000000000000000000000000000000000000000 DUP2 MSTORE PUSH1 0x4 ADD PUSH2 0x7E9 SWAP1 PUSH2 0x1EB3 JUMP JUMPDEST PUSH1 0x40 MLOAD DUP1 SWAP2 SUB SWAP1 REVERT JUMPDEST TIMESTAMP PUSH1 0x5 PUSH1 0x0 CALLER PUSH20 0xFFFFFFFFFFFFFFFFFFFFFFFFFFFFFFFFFFFFFFFF AND PUSH20 0xFFFFFFFFFFFFFFFFFFFFFFFFFFFFFFFFFFFFFFFF AND DUP2 MSTORE PUSH1 0x20 ADD SWAP1 DUP2 MSTORE PUSH1 0x20 ADD PUSH1 0x0 KECCAK256 PUSH1 0x2 ADD DUP2 SWAP1 SSTORE POP PUSH1 0x0 PUSH1 0x5 PUSH1 0x0 CALLER PUSH20 0xFFFFFFFFFFFFFFFFFFFFFFFFFFFFFFFFFFFFFFFF AND PUSH20 0xFFFFFFFFFFFFFFFFFFFFFFFFFFFFFFFFFFFFFFFF AND DUP2 MSTORE PUSH1 0x20 ADD SWAP1 DUP2 MSTORE PUSH1 0x20 ADD PUSH1 0x0 KECCAK256 PUSH1 0x3 ADD DUP2 SWAP1 SSTORE POP PUSH2 0x8CE CALLER DUP3 PUSH1 0x2 PUSH1 0x0 SWAP1 SLOAD SWAP1 PUSH2 0x100 EXP SWAP1 DIV PUSH20 0xFFFFFFFFFFFFFFFFFFFFFFFFFFFFFFFFFFFFFFFF AND PUSH20 0xFFFFFFFFFFFFFFFFFFFFFFFFFFFFFFFFFFFFFFFF AND PUSH2 0x131E SWAP1 SWAP3 SWAP2 SWAP1 PUSH4 0xFFFFFFFF AND JUMP JUMPDEST POP JUMP JUMPDEST PUSH1 0x0 PUSH1 0x1 PUSH1 0x0 SWAP1 SLOAD SWAP1 PUSH2 0x100 EXP SWAP1 DIV PUSH1 0xFF AND SWAP1 POP SWAP1 JUMP JUMPDEST PUSH1 0x60 PUSH1 0x0 PUSH1 0x5 PUSH1 0x0 DUP5 PUSH20 0xFFFFFFFFFFFFFFFFFFFFFFFFFFFFFFFFFFFFFFFF AND PUSH20 0xFFFFFFFFFFFFFFFFFFFFFFFFFFFFFFFFFFFFFFFF AND DUP2 MSTORE PUSH1 0x20 ADD SWAP1 DUP2 MSTORE PUSH1 0x20 ADD PUSH1 0x0 KECCAK256 PUSH1 0x0 ADD SLOAD GT ISZERO PUSH2 0xBF1 JUMPI PUSH1 0x0 PUSH1 0x5 PUSH1 0x0 DUP5 PUSH20 0xFFFFFFFFFFFFFFFFFFFFFFFFFFFFFFFFFFFFFFFF AND PUSH20 0xFFFFFFFFFFFFFFFFFFFFFFFFFFFFFFFFFFFFFFFF AND DUP2 MSTORE PUSH1 0x20 ADD SWAP1 DUP2 MSTORE PUSH1 0x20 ADD PUSH1 0x0 KECCAK256 PUSH1 0x0 ADD SLOAD PUSH8 0xFFFFFFFFFFFFFFFF DUP2 GT ISZERO PUSH2 0x993 JUMPI PUSH2 0x992 PUSH2 0x2331 JUMP JUMPDEST JUMPDEST PUSH1 0x40 MLOAD SWAP1 DUP1 DUP3 MSTORE DUP1 PUSH1 0x20 MUL PUSH1 0x20 ADD DUP3 ADD PUSH1 0x40 MSTORE DUP1 ISZERO PUSH2 0x9CC JUMPI DUP2 PUSH1 0x20 ADD JUMPDEST PUSH2 0x9B9 PUSH2 0x175A JUMP JUMPDEST DUP2 MSTORE PUSH1 0x20 ADD SWAP1 PUSH1 0x1 SWAP1 SUB SWAP1 DUP2 PUSH2 0x9B1 JUMPI SWAP1 POP JUMPDEST POP SWAP1 POP PUSH1 0x0 DUP1 JUMPDEST PUSH1 0x5 PUSH1 0x0 DUP7 PUSH20 0xFFFFFFFFFFFFFFFFFFFFFFFFFFFFFFFFFFFFFFFF AND PUSH20 0xFFFFFFFFFFFFFFFFFFFFFFFFFFFFFFFFFFFFFFFF AND DUP2 MSTORE PUSH1 0x20 ADD SWAP1 DUP2 MSTORE PUSH1 0x20 ADD PUSH1 0x0 KECCAK256 PUSH1 0x1 ADD DUP1 SLOAD SWAP1 POP DUP2 LT ISZERO PUSH2 0xBE6 JUMPI PUSH1 0x0 PUSH20 0xFFFFFFFFFFFFFFFFFFFFFFFFFFFFFFFFFFFFFFFF AND PUSH1 0x5 PUSH1 0x0 DUP8 PUSH20 0xFFFFFFFFFFFFFFFFFFFFFFFFFFFFFFFFFFFFFFFF AND PUSH20 0xFFFFFFFFFFFFFFFFFFFFFFFFFFFFFFFFFFFFFFFF AND DUP2 MSTORE PUSH1 0x20 ADD SWAP1 DUP2 MSTORE PUSH1 0x20 ADD PUSH1 0x0 KECCAK256 PUSH1 0x1 ADD DUP3 DUP2 SLOAD DUP2 LT PUSH2 0xA8C JUMPI PUSH2 0xA8B PUSH2 0x2302 JUMP JUMPDEST JUMPDEST SWAP1 PUSH1 0x0 MSTORE PUSH1 0x20 PUSH1 0x0 KECCAK256 SWAP1 PUSH1 0x2 MUL ADD PUSH1 0x0 ADD PUSH1 0x0 SWAP1 SLOAD SWAP1 PUSH2 0x100 EXP SWAP1 DIV PUSH20 0xFFFFFFFFFFFFFFFFFFFFFFFFFFFFFFFFFFFFFFFF AND PUSH20 0xFFFFFFFFFFFFFFFFFFFFFFFFFFFFFFFFFFFFFFFF AND EQ PUSH2 0xBD3 JUMPI PUSH1 0x5 PUSH1 0x0 DUP7 PUSH20 0xFFFFFFFFFFFFFFFFFFFFFFFFFFFFFFFFFFFFFFFF AND PUSH20 0xFFFFFFFFFFFFFFFFFFFFFFFFFFFFFFFFFFFFFFFF AND DUP2 MSTORE PUSH1 0x20 ADD SWAP1 DUP2 MSTORE PUSH1 0x20 ADD PUSH1 0x0 KECCAK256 PUSH1 0x1 ADD DUP2 DUP2 SLOAD DUP2 LT PUSH2 0xB2D JUMPI PUSH2 0xB2C PUSH2 0x2302 JUMP JUMPDEST JUMPDEST SWAP1 PUSH1 0x0 MSTORE PUSH1 0x20 PUSH1 0x0 KECCAK256 SWAP1 PUSH1 0x2 MUL ADD PUSH1 0x40 MLOAD DUP1 PUSH1 0x40 ADD PUSH1 0x40 MSTORE SWAP1 DUP2 PUSH1 0x0 DUP3 ADD PUSH1 0x0 SWAP1 SLOAD SWAP1 PUSH2 0x100 EXP SWAP1 DIV PUSH20 0xFFFFFFFFFFFFFFFFFFFFFFFFFFFFFFFFFFFFFFFF AND PUSH20 0xFFFFFFFFFFFFFFFFFFFFFFFFFFFFFFFFFFFFFFFF AND PUSH20 0xFFFFFFFFFFFFFFFFFFFFFFFFFFFFFFFFFFFFFFFF AND DUP2 MSTORE PUSH1 0x20 ADD PUSH1 0x1 DUP3 ADD SLOAD DUP2 MSTORE POP POP DUP4 DUP4 DUP2 MLOAD DUP2 LT PUSH2 0xBB9 JUMPI PUSH2 0xBB8 PUSH2 0x2302 JUMP JUMPDEST JUMPDEST PUSH1 0x20 MUL PUSH1 0x20 ADD ADD DUP2 SWAP1 MSTORE POP DUP2 DUP1 PUSH2 0xBCF SWAP1 PUSH2 0x222D JUMP JUMPDEST SWAP3 POP POP JUMPDEST DUP1 DUP1 PUSH2 0xBDE SWAP1 PUSH2 0x222D JUMP JUMPDEST SWAP2 POP POP PUSH2 0x9D3 JUMP JUMPDEST POP DUP2 SWAP3 POP POP POP PUSH2 0xC49 JUMP JUMPDEST PUSH1 0x0 PUSH8 0xFFFFFFFFFFFFFFFF DUP2 GT ISZERO PUSH2 0xC0C JUMPI PUSH2 0xC0B PUSH2 0x2331 JUMP JUMPDEST JUMPDEST PUSH1 0x40 MLOAD SWAP1 DUP1 DUP3 MSTORE DUP1 PUSH1 0x20 MUL PUSH1 0x20 ADD DUP3 ADD PUSH1 0x40 MSTORE DUP1 ISZERO PUSH2 0xC45 JUMPI DUP2 PUSH1 0x20 ADD JUMPDEST PUSH2 0xC32 PUSH2 0x175A JUMP JUMPDEST DUP2 MSTORE PUSH1 0x20 ADD SWAP1 PUSH1 0x1 SWAP1 SUB SWAP1 DUP2 PUSH2 0xC2A JUMPI SWAP1 POP JUMPDEST POP SWAP1 POP JUMPDEST SWAP2 SWAP1 POP JUMP JUMPDEST PUSH1 0x3 PUSH1 0x0 SWAP1 SLOAD SWAP1 PUSH2 0x100 EXP SWAP1 DIV PUSH20 0xFFFFFFFFFFFFFFFFFFFFFFFFFFFFFFFFFFFFFFFF AND DUP2 JUMP JUMPDEST PUSH2 0xC7C PUSH2 0x13A4 JUMP JUMPDEST PUSH2 0xC86 PUSH1 0x0 PUSH2 0x1422 JUMP JUMPDEST JUMP JUMPDEST PUSH1 0x0 PUSH1 0x1 DUP1 SLOAD SWAP1 PUSH2 0x100 EXP SWAP1 DIV PUSH20 0xFFFFFFFFFFFFFFFFFFFFFFFFFFFFFFFFFFFFFFFF AND SWAP1 POP SWAP1 JUMP JUMPDEST PUSH1 0x5 PUSH1 0x20 MSTORE DUP1 PUSH1 0x0 MSTORE PUSH1 0x40 PUSH1 0x0 KECCAK256 PUSH1 0x0 SWAP2 POP SWAP1 POP DUP1 PUSH1 0x0 ADD SLOAD SWAP1 DUP1 PUSH1 0x2 ADD SLOAD SWAP1 DUP1 PUSH1 0x3 ADD SLOAD SWAP1 POP DUP4 JUMP JUMPDEST PUSH1 0x6 PUSH1 0x20 MSTORE DUP1 PUSH1 0x0 MSTORE PUSH1 0x40 PUSH1 0x0 KECCAK256 PUSH1 0x0 SWAP2 POP SLOAD SWAP1 PUSH2 0x100 EXP SWAP1 DIV PUSH20 0xFFFFFFFFFFFFFFFFFFFFFFFFFFFFFFFFFFFFFFFF AND DUP2 JUMP JUMPDEST PUSH2 0xD15 PUSH2 0x1206 JUMP JUMPDEST CALLER PUSH20 0xFFFFFFFFFFFFFFFFFFFFFFFFFFFFFFFFFFFFFFFF AND PUSH1 0x3 PUSH1 0x0 SWAP1 SLOAD SWAP1 PUSH2 0x100 EXP SWAP1 DIV PUSH20 0xFFFFFFFFFFFFFFFFFFFFFFFFFFFFFFFFFFFFFFFF AND PUSH20 0xFFFFFFFFFFFFFFFFFFFFFFFFFFFFFFFFFFFFFFFF AND PUSH4 0x6352211E DUP4 PUSH1 0x40 MLOAD DUP3 PUSH4 0xFFFFFFFF AND PUSH1 0xE0 SHL DUP2 MSTORE PUSH1 0x4 ADD PUSH2 0xD87 SWAP2 SWAP1 PUSH2 0x1F33 JUMP JUMPDEST PUSH1 0x20 PUSH1 0x40 MLOAD DUP1 DUP4 SUB DUP2 DUP7 DUP1 EXTCODESIZE ISZERO DUP1 ISZERO PUSH2 0xD9F JUMPI PUSH1 0x0 DUP1 REVERT JUMPDEST POP GAS STATICCALL ISZERO DUP1 ISZERO PUSH2 0xDB3 JUMPI RETURNDATASIZE PUSH1 0x0 DUP1 RETURNDATACOPY RETURNDATASIZE PUSH1 0x0 REVERT JUMPDEST POP POP POP POP PUSH1 0x40 MLOAD RETURNDATASIZE PUSH1 0x1F NOT PUSH1 0x1F DUP3 ADD AND DUP3 ADD DUP1 PUSH1 0x40 MSTORE POP DUP2 ADD SWAP1 PUSH2 0xDD7 SWAP2 SWAP1 PUSH2 0x1861 JUMP JUMPDEST PUSH20 0xFFFFFFFFFFFFFFFFFFFFFFFFFFFFFFFFFFFFFFFF AND EQ PUSH2 0xE2D JUMPI PUSH1 0x40 MLOAD PUSH32 0x8C379A000000000000000000000000000000000000000000000000000000000 DUP2 MSTORE PUSH1 0x4 ADD PUSH2 0xE24 SWAP1 PUSH2 0x1E13 JUMP JUMPDEST PUSH1 0x40 MLOAD DUP1 SWAP2 SUB SWAP1 REVERT JUMPDEST PUSH1 0x0 PUSH1 0x5 PUSH1 0x0 CALLER PUSH20 0xFFFFFFFFFFFFFFFFFFFFFFFFFFFFFFFFFFFFFFFF AND PUSH20 0xFFFFFFFFFFFFFFFFFFFFFFFFFFFFFFFFFFFFFFFF AND DUP2 MSTORE PUSH1 0x20 ADD SWAP1 DUP2 MSTORE PUSH1 0x20 ADD PUSH1 0x0 KECCAK256 PUSH1 0x0 ADD SLOAD GT ISZERO PUSH2 0xEE0 JUMPI PUSH1 0x0 PUSH2 0xE83 CALLER PUSH2 0x1256 JUMP JUMPDEST SWAP1 POP DUP1 PUSH1 0x5 PUSH1 0x0 CALLER PUSH20 0xFFFFFFFFFFFFFFFFFFFFFFFFFFFFFFFFFFFFFFFF AND PUSH20 0xFFFFFFFFFFFFFFFFFFFFFFFFFFFFFFFFFFFFFFFF AND DUP2 MSTORE PUSH1 0x20 ADD SWAP1 DUP2 MSTORE PUSH1 0x20 ADD PUSH1 0x0 KECCAK256 PUSH1 0x3 ADD PUSH1 0x0 DUP3 DUP3 SLOAD PUSH2 0xED7 SWAP2 SWAP1 PUSH2 0x1FF0 JUMP JUMPDEST SWAP3 POP POP DUP2 SWAP1 SSTORE POP POP JUMPDEST PUSH1 0x3 PUSH1 0x0 SWAP1 SLOAD SWAP1 PUSH2 0x100 EXP SWAP1 DIV PUSH20 0xFFFFFFFFFFFFFFFFFFFFFFFFFFFFFFFFFFFFFFFF AND PUSH20 0xFFFFFFFFFFFFFFFFFFFFFFFFFFFFFFFFFFFFFFFF AND PUSH4 0x23B872DD CALLER ADDRESS DUP5 PUSH1 0x40 MLOAD DUP5 PUSH4 0xFFFFFFFF AND PUSH1 0xE0 SHL DUP2 MSTORE PUSH1 0x4 ADD PUSH2 0xF3F SWAP4 SWAP3 SWAP2 SWAP1 PUSH2 0x1D03 JUMP JUMPDEST PUSH1 0x0 PUSH1 0x40 MLOAD DUP1 DUP4 SUB DUP2 PUSH1 0x0 DUP8 DUP1 EXTCODESIZE ISZERO DUP1 ISZERO PUSH2 0xF59 JUMPI PUSH1 0x0 DUP1 REVERT JUMPDEST POP GAS CALL ISZERO DUP1 ISZERO PUSH2 0xF6D JUMPI RETURNDATASIZE PUSH1 0x0 DUP1 RETURNDATACOPY RETURNDATASIZE PUSH1 0x0 REVERT JUMPDEST POP POP POP POP PUSH1 0x0 PUSH1 0x40 MLOAD DUP1 PUSH1 0x40 ADD PUSH1 0x40 MSTORE DUP1 CALLER PUSH20 0xFFFFFFFFFFFFFFFFFFFFFFFFFFFFFFFFFFFFFFFF AND DUP2 MSTORE PUSH1 0x20 ADD DUP4 DUP2 MSTORE POP SWAP1 POP PUSH1 0x5 PUSH1 0x0 CALLER PUSH20 0xFFFFFFFFFFFFFFFFFFFFFFFFFFFFFFFFFFFFFFFF AND PUSH20 0xFFFFFFFFFFFFFFFFFFFFFFFFFFFFFFFFFFFFFFFF AND DUP2 MSTORE PUSH1 0x20 ADD SWAP1 DUP2 MSTORE PUSH1 0x20 ADD PUSH1 0x0 KECCAK256 PUSH1 0x1 ADD DUP2 SWAP1 DUP1 PUSH1 0x1 DUP2 SLOAD ADD DUP1 DUP3 SSTORE DUP1 SWAP2 POP POP PUSH1 0x1 SWAP1 SUB SWAP1 PUSH1 0x0 MSTORE PUSH1 0x20 PUSH1 0x0 KECCAK256 SWAP1 PUSH1 0x2 MUL ADD PUSH1 0x0 SWAP1 SWAP2 SWAP1 SWAP2 SWAP1 SWAP2 POP PUSH1 0x0 DUP3 ADD MLOAD DUP2 PUSH1 0x0 ADD PUSH1 0x0 PUSH2 0x100 EXP DUP2 SLOAD DUP2 PUSH20 0xFFFFFFFFFFFFFFFFFFFFFFFFFFFFFFFFFFFFFFFF MUL NOT AND SWAP1 DUP4 PUSH20 0xFFFFFFFFFFFFFFFFFFFFFFFFFFFFFFFFFFFFFFFF AND MUL OR SWAP1 SSTORE POP PUSH1 0x20 DUP3 ADD MLOAD DUP2 PUSH1 0x1 ADD SSTORE POP POP PUSH1 0x5 PUSH1 0x0 CALLER PUSH20 0xFFFFFFFFFFFFFFFFFFFFFFFFFFFFFFFFFFFFFFFF AND PUSH20 0xFFFFFFFFFFFFFFFFFFFFFFFFFFFFFFFFFFFFFFFF AND DUP2 MSTORE PUSH1 0x20 ADD SWAP1 DUP2 MSTORE PUSH1 0x20 ADD PUSH1 0x0 KECCAK256 PUSH1 0x0 ADD PUSH1 0x0 DUP2 SLOAD DUP1 SWAP3 SWAP2 SWAP1 PUSH2 0x10B2 SWAP1 PUSH2 0x222D JUMP JUMPDEST SWAP2 SWAP1 POP SSTORE POP CALLER PUSH1 0x6 PUSH1 0x0 DUP5 DUP2 MSTORE PUSH1 0x20 ADD SWAP1 DUP2 MSTORE PUSH1 0x20 ADD PUSH1 0x0 KECCAK256 PUSH1 0x0 PUSH2 0x100 EXP DUP2 SLOAD DUP2 PUSH20 0xFFFFFFFFFFFFFFFFFFFFFFFFFFFFFFFFFFFFFFFF MUL NOT AND SWAP1 DUP4 PUSH20 0xFFFFFFFFFFFFFFFFFFFFFFFFFFFFFFFFFFFFFFFF AND MUL OR SWAP1 SSTORE POP TIMESTAMP PUSH1 0x5 PUSH1 0x0 CALLER PUSH20 0xFFFFFFFFFFFFFFFFFFFFFFFFFFFFFFFFFFFFFFFF AND PUSH20 0xFFFFFFFFFFFFFFFFFFFFFFFFFFFFFFFFFFFFFFFF AND DUP2 MSTORE PUSH1 0x20 ADD SWAP1 DUP2 MSTORE PUSH1 0x20 ADD PUSH1 0x0 KECCAK256 PUSH1 0x2 ADD DUP2 SWAP1 SSTORE POP POP PUSH2 0x1159 PUSH2 0x1314 JUMP JUMPDEST POP JUMP JUMPDEST PUSH1 0x2 PUSH1 0x0 SWAP1 SLOAD SWAP1 PUSH2 0x100 EXP SWAP1 DIV PUSH20 0xFFFFFFFFFFFFFFFFFFFFFFFFFFFFFFFFFFFFFFFF AND DUP2 JUMP JUMPDEST PUSH2 0x118A PUSH2 0x13A4 JUMP JUMPDEST PUSH1 0x0 PUSH20 0xFFFFFFFFFFFFFFFFFFFFFFFFFFFFFFFFFFFFFFFF AND DUP2 PUSH20 0xFFFFFFFFFFFFFFFFFFFFFFFFFFFFFFFFFFFFFFFF AND EQ ISZERO PUSH2 0x11FA JUMPI PUSH1 0x40 MLOAD PUSH32 0x8C379A000000000000000000000000000000000000000000000000000000000 DUP2 MSTORE PUSH1 0x4 ADD PUSH2 0x11F1 SWAP1 PUSH2 0x1E33 JUMP JUMPDEST PUSH1 0x40 MLOAD DUP1 SWAP2 SUB SWAP1 REVERT JUMPDEST PUSH2 0x1203 DUP2 PUSH2 0x1422 JUMP JUMPDEST POP JUMP JUMPDEST PUSH1 0x2 PUSH1 0x0 SLOAD EQ ISZERO PUSH2 0x124C JUMPI PUSH1 0x40 MLOAD PUSH32 0x8C379A000000000000000000000000000000000000000000000000000000000 DUP2 MSTORE PUSH1 0x4 ADD PUSH2 0x1243 SWAP1 PUSH2 0x1F13 JUMP JUMPDEST PUSH1 0x40 MLOAD DUP1 SWAP2 SUB SWAP1 REVERT JUMPDEST PUSH1 0x2 PUSH1 0x0 DUP2 SWAP1 SSTORE POP JUMP JUMPDEST PUSH1 0x0 PUSH2 0xE10 PUSH1 0x4 SLOAD PUSH1 0x5 PUSH1 0x0 DUP6 PUSH20 0xFFFFFFFFFFFFFFFFFFFFFFFFFFFFFFFFFFFFFFFF AND PUSH20 0xFFFFFFFFFFFFFFFFFFFFFFFFFFFFFFFFFFFFFFFF AND DUP2 MSTORE PUSH1 0x20 ADD SWAP1 DUP2 MSTORE PUSH1 0x20 ADD PUSH1 0x0 KECCAK256 PUSH1 0x0 ADD SLOAD PUSH1 0x5 PUSH1 0x0 DUP7 PUSH20 0xFFFFFFFFFFFFFFFFFFFFFFFFFFFFFFFFFFFFFFFF AND PUSH20 0xFFFFFFFFFFFFFFFFFFFFFFFFFFFFFFFFFFFFFFFF AND DUP2 MSTORE PUSH1 0x20 ADD SWAP1 DUP2 MSTORE PUSH1 0x20 ADD PUSH1 0x0 KECCAK256 PUSH1 0x2 ADD SLOAD TIMESTAMP PUSH2 0x12EF SWAP2 SWAP1 PUSH2 0x20D1 JUMP JUMPDEST PUSH2 0x12F9 SWAP2 SWAP1 PUSH2 0x2077 JUMP JUMPDEST PUSH2 0x1303 SWAP2 SWAP1 PUSH2 0x2077 JUMP JUMPDEST PUSH2 0x130D SWAP2 SWAP1 PUSH2 0x2046 JUMP JUMPDEST SWAP1 POP SWAP2 SWAP1 POP JUMP JUMPDEST PUSH1 0x1 PUSH1 0x0 DUP2 SWAP1 SSTORE POP JUMP JUMPDEST PUSH2 0x139F DUP4 PUSH4 0xA9059CBB PUSH1 0xE0 SHL DUP5 DUP5 PUSH1 0x40 MLOAD PUSH1 0x24 ADD PUSH2 0x133D SWAP3 SWAP2 SWAP1 PUSH2 0x1D3A JUMP JUMPDEST PUSH1 0x40 MLOAD PUSH1 0x20 DUP2 DUP4 SUB SUB DUP2 MSTORE SWAP1 PUSH1 0x40 MSTORE SWAP1 PUSH28 0xFFFFFFFFFFFFFFFFFFFFFFFFFFFFFFFFFFFFFFFFFFFFFFFFFFFFFFFF NOT AND PUSH1 0x20 DUP3 ADD DUP1 MLOAD PUSH28 0xFFFFFFFFFFFFFFFFFFFFFFFFFFFFFFFFFFFFFFFFFFFFFFFFFFFFFFFF DUP4 DUP2 DUP4 AND OR DUP4 MSTORE POP POP POP POP PUSH2 0x14E5 JUMP JUMPDEST POP POP POP JUMP JUMPDEST PUSH2 0x13AC PUSH2 0x15AC JUMP JUMPDEST PUSH20 0xFFFFFFFFFFFFFFFFFFFFFFFFFFFFFFFFFFFFFFFF AND PUSH2 0x13CA PUSH2 0xC88 JUMP JUMPDEST PUSH20 0xFFFFFFFFFFFFFFFFFFFFFFFFFFFFFFFFFFFFFFFF AND EQ PUSH2 0x1420 JUMPI PUSH1 0x40 MLOAD PUSH32 0x8C379A000000000000000000000000000000000000000000000000000000000 DUP2 MSTORE PUSH1 0x4 ADD PUSH2 0x1417 SWAP1 PUSH2 0x1E93 JUMP JUMPDEST PUSH1 0x40 MLOAD DUP1 SWAP2 SUB SWAP1 REVERT JUMPDEST JUMP JUMPDEST PUSH1 0x0 PUSH1 0x1 DUP1 SLOAD SWAP1 PUSH2 0x100 EXP SWAP1 DIV PUSH20 0xFFFFFFFFFFFFFFFFFFFFFFFFFFFFFFFFFFFFFFFF AND SWAP1 POP DUP2 PUSH1 0x1 DUP1 PUSH2 0x100 EXP DUP2 SLOAD DUP2 PUSH20 0xFFFFFFFFFFFFFFFFFFFFFFFFFFFFFFFFFFFFFFFF MUL NOT AND SWAP1 DUP4 PUSH20 0xFFFFFFFFFFFFFFFFFFFFFFFFFFFFFFFFFFFFFFFF AND MUL OR SWAP1 SSTORE POP DUP2 PUSH20 0xFFFFFFFFFFFFFFFFFFFFFFFFFFFFFFFFFFFFFFFF AND DUP2 PUSH20 0xFFFFFFFFFFFFFFFFFFFFFFFFFFFFFFFFFFFFFFFF AND PUSH32 0x8BE0079C531659141344CD1FD0A4F28419497F9722A3DAAFE3B4186F6B6457E0 PUSH1 0x40 MLOAD PUSH1 0x40 MLOAD DUP1 SWAP2 SUB SWAP1 LOG3 POP POP JUMP JUMPDEST PUSH1 0x0 PUSH2 0x1547 DUP3 PUSH1 0x40 MLOAD DUP1 PUSH1 0x40 ADD PUSH1 0x40 MSTORE DUP1 PUSH1 0x20 DUP2 MSTORE PUSH1 0x20 ADD PUSH32 0x5361666545524332303A206C6F772D6C6576656C2063616C6C206661696C6564 DUP2 MSTORE POP DUP6 PUSH20 0xFFFFFFFFFFFFFFFFFFFFFFFFFFFFFFFFFFFFFFFF AND PUSH2 0x15B4 SWAP1 SWAP3 SWAP2 SWAP1 PUSH4 0xFFFFFFFF AND JUMP JUMPDEST SWAP1 POP PUSH1 0x0 DUP2 MLOAD GT ISZERO PUSH2 0x15A7 JUMPI DUP1 DUP1 PUSH1 0x20 ADD SWAP1 MLOAD DUP2 ADD SWAP1 PUSH2 0x1567 SWAP2 SWAP1 PUSH2 0x1916 JUMP JUMPDEST PUSH2 0x15A6 JUMPI PUSH1 0x40 MLOAD PUSH32 0x8C379A000000000000000000000000000000000000000000000000000000000 DUP2 MSTORE PUSH1 0x4 ADD PUSH2 0x159D SWAP1 PUSH2 0x1EF3 JUMP JUMPDEST PUSH1 0x40 MLOAD DUP1 SWAP2 SUB SWAP1 REVERT JUMPDEST JUMPDEST POP POP POP JUMP JUMPDEST PUSH1 0x0 CALLER SWAP1 POP SWAP1 JUMP JUMPDEST PUSH1 0x60 PUSH2 0x15C3 DUP5 DUP5 PUSH1 0x0 DUP6 PUSH2 0x15CC JUMP JUMPDEST SWAP1 POP SWAP4 SWAP3 POP POP POP JUMP JUMPDEST PUSH1 0x60 DUP3 SELFBALANCE LT ISZERO PUSH2 0x1611 JUMPI PUSH1 0x40 MLOAD PUSH32 0x8C379A000000000000000000000000000000000000000000000000000000000 DUP2 MSTORE PUSH1 0x4 ADD PUSH2 0x1608 SWAP1 PUSH2 0x1E73 JUMP JUMPDEST PUSH1 0x40 MLOAD DUP1 SWAP2 SUB SWAP1 REVERT JUMPDEST PUSH2 0x161A DUP6 PUSH2 0x16E0 JUMP JUMPDEST PUSH2 0x1659 JUMPI PUSH1 0x40 MLOAD PUSH32 0x8C379A000000000000000000000000000000000000000000000000000000000 DUP2 MSTORE PUSH1 0x4 ADD PUSH2 0x1650 SWAP1 PUSH2 0x1ED3 JUMP JUMPDEST PUSH1 0x40 MLOAD DUP1 SWAP2 SUB SWAP1 REVERT JUMPDEST PUSH1 0x0 DUP1 DUP7 PUSH20 0xFFFFFFFFFFFFFFFFFFFFFFFFFFFFFFFFFFFFFFFF AND DUP6 DUP8 PUSH1 0x40 MLOAD PUSH2 0x1682 SWAP2 SWAP1 PUSH2 0x1CD1 JUMP JUMPDEST PUSH1 0x0 PUSH1 0x40 MLOAD DUP1 DUP4 SUB DUP2 DUP6 DUP8 GAS CALL SWAP3 POP POP POP RETURNDATASIZE DUP1 PUSH1 0x0 DUP2 EQ PUSH2 0x16BF JUMPI PUSH1 0x40 MLOAD SWAP2 POP PUSH1 0x1F NOT PUSH1 0x3F RETURNDATASIZE ADD AND DUP3 ADD PUSH1 0x40 MSTORE RETURNDATASIZE DUP3 MSTORE RETURNDATASIZE PUSH1 0x0 PUSH1 0x20 DUP5 ADD RETURNDATACOPY PUSH2 0x16C4 JUMP JUMPDEST PUSH1 0x60 SWAP2 POP JUMPDEST POP SWAP2 POP SWAP2 POP PUSH2 0x16D4 DUP3 DUP3 DUP7 PUSH2 0x16F3 JUMP JUMPDEST SWAP3 POP POP POP SWAP5 SWAP4 POP POP POP POP JUMP JUMPDEST PUSH1 0x0 DUP1 DUP3 EXTCODESIZE SWAP1 POP PUSH1 0x0 DUP2 GT SWAP2 POP POP SWAP2 SWAP1 POP JUMP JUMPDEST PUSH1 0x60 DUP4 ISZERO PUSH2 0x1703 JUMPI DUP3 SWAP1 POP PUSH2 0x1753 JUMP JUMPDEST PUSH1 0x0 DUP4 MLOAD GT ISZERO PUSH2 0x1716 JUMPI DUP3 MLOAD DUP1 DUP5 PUSH1 0x20 ADD REVERT JUMPDEST DUP2 PUSH1 0x40 MLOAD PUSH32 0x8C379A000000000000000000000000000000000000000000000000000000000 DUP2 MSTORE PUSH1 0x4 ADD PUSH2 0x174A SWAP2 SWAP1 PUSH2 0x1DF1 JUMP JUMPDEST PUSH1 0x40 MLOAD DUP1 SWAP2 SUB SWAP1 REVERT JUMPDEST SWAP4 SWAP3 POP POP POP JUMP JUMPDEST PUSH1 0x40 MLOAD DUP1 PUSH1 0x40 ADD PUSH1 0x40 MSTORE DUP1 PUSH1 0x0 PUSH20 0xFFFFFFFFFFFFFFFFFFFFFFFFFFFFFFFFFFFFFFFF AND DUP2 MSTORE PUSH1 0x20 ADD PUSH1 0x0 DUP2 MSTORE POP SWAP1 JUMP JUMPDEST PUSH1 0x0 DUP2 CALLDATALOAD SWAP1 POP PUSH2 0x1799 DUP2 PUSH2 0x257A JUMP JUMPDEST SWAP3 SWAP2 POP POP JUMP JUMPDEST PUSH1 0x0 DUP2 MLOAD SWAP1 POP PUSH2 0x17AE DUP2 PUSH2 0x257A JUMP JUMPDEST SWAP3 SWAP2 POP POP JUMP JUMPDEST PUSH1 0x0 DUP2 MLOAD SWAP1 POP PUSH2 0x17C3 DUP2 PUSH2 0x2591 JUMP JUMPDEST SWAP3 SWAP2 POP POP JUMP JUMPDEST PUSH1 0x0 DUP1 DUP4 PUSH1 0x1F DUP5 ADD SLT PUSH2 0x17DF JUMPI PUSH2 0x17DE PUSH2 0x2365 JUMP JUMPDEST JUMPDEST DUP3 CALLDATALOAD SWAP1 POP PUSH8 0xFFFFFFFFFFFFFFFF DUP2 GT ISZERO PUSH2 0x17FC JUMPI PUSH2 0x17FB PUSH2 0x2360 JUMP JUMPDEST JUMPDEST PUSH1 0x20 DUP4 ADD SWAP2 POP DUP4 PUSH1 0x1 DUP3 MUL DUP4 ADD GT ISZERO PUSH2 0x1818 JUMPI PUSH2 0x1817 PUSH2 0x236A JUMP JUMPDEST JUMPDEST SWAP3 POP SWAP3 SWAP1 POP JUMP JUMPDEST PUSH1 0x0 DUP2 CALLDATALOAD SWAP1 POP PUSH2 0x182E DUP2 PUSH2 0x25A8 JUMP JUMPDEST SWAP3 SWAP2 POP POP JUMP JUMPDEST PUSH1 0x0 PUSH1 0x20 DUP3 DUP5 SUB SLT ISZERO PUSH2 0x184A JUMPI PUSH2 0x1849 PUSH2 0x2374 JUMP JUMPDEST JUMPDEST PUSH1 0x0 PUSH2 0x1858 DUP5 DUP3 DUP6 ADD PUSH2 0x178A JUMP JUMPDEST SWAP2 POP POP SWAP3 SWAP2 POP POP JUMP JUMPDEST PUSH1 0x0 PUSH1 0x20 DUP3 DUP5 SUB SLT ISZERO PUSH2 0x1877 JUMPI PUSH2 0x1876 PUSH2 0x2374 JUMP JUMPDEST JUMPDEST PUSH1 0x0 PUSH2 0x1885 DUP5 DUP3 DUP6 ADD PUSH2 0x179F JUMP JUMPDEST SWAP2 POP POP SWAP3 SWAP2 POP POP JUMP JUMPDEST PUSH1 0x0 DUP1 PUSH1 0x0 DUP1 PUSH1 0x0 PUSH1 0x80 DUP7 DUP9 SUB SLT ISZERO PUSH2 0x18AA JUMPI PUSH2 0x18A9 PUSH2 0x2374 JUMP JUMPDEST JUMPDEST PUSH1 0x0 PUSH2 0x18B8 DUP9 DUP3 DUP10 ADD PUSH2 0x178A JUMP JUMPDEST SWAP6 POP POP PUSH1 0x20 PUSH2 0x18C9 DUP9 DUP3 DUP10 ADD PUSH2 0x178A JUMP JUMPDEST SWAP5 POP POP PUSH1 0x40 PUSH2 0x18DA DUP9 DUP3 DUP10 ADD PUSH2 0x181F JUMP JUMPDEST SWAP4 POP POP PUSH1 0x60 DUP7 ADD CALLDATALOAD PUSH8 0xFFFFFFFFFFFFFFFF DUP2 GT ISZERO PUSH2 0x18FB JUMPI PUSH2 0x18FA PUSH2 0x236F JUMP JUMPDEST JUMPDEST PUSH2 0x1907 DUP9 DUP3 DUP10 ADD PUSH2 0x17C9 JUMP JUMPDEST SWAP3 POP SWAP3 POP POP SWAP3 SWAP6 POP SWAP3 SWAP6 SWAP1 SWAP4 POP JUMP JUMPDEST PUSH1 0x0 PUSH1 0x20 DUP3 DUP5 SUB SLT ISZERO PUSH2 0x192C JUMPI PUSH2 0x192B PUSH2 0x2374 JUMP JUMPDEST JUMPDEST PUSH1 0x0 PUSH2 0x193A DUP5 DUP3 DUP6 ADD PUSH2 0x17B4 JUMP JUMPDEST SWAP2 POP POP SWAP3 SWAP2 POP POP JUMP JUMPDEST PUSH1 0x0 PUSH1 0x20 DUP3 DUP5 SUB SLT ISZERO PUSH2 0x1959 JUMPI PUSH2 0x1958 PUSH2 0x2374 JUMP JUMPDEST JUMPDEST PUSH1 0x0 PUSH2 0x1967 DUP5 DUP3 DUP6 ADD PUSH2 0x181F JUMP JUMPDEST SWAP2 POP POP SWAP3 SWAP2 POP POP JUMP JUMPDEST PUSH1 0x0 PUSH2 0x197C DUP4 DUP4 PUSH2 0x1C21 JUMP JUMPDEST PUSH1 0x40 DUP4 ADD SWAP1 POP SWAP3 SWAP2 POP POP JUMP JUMPDEST PUSH2 0x1991 DUP2 PUSH2 0x2105 JUMP JUMPDEST DUP3 MSTORE POP POP JUMP JUMPDEST PUSH2 0x19A0 DUP2 PUSH2 0x2105 JUMP JUMPDEST DUP3 MSTORE POP POP JUMP JUMPDEST PUSH2 0x19B7 PUSH2 0x19B2 DUP3 PUSH2 0x2105 JUMP JUMPDEST PUSH2 0x2276 JUMP JUMPDEST DUP3 MSTORE POP POP JUMP JUMPDEST PUSH1 0x0 PUSH2 0x19C8 DUP3 PUSH2 0x1F95 JUMP JUMPDEST PUSH2 0x19D2 DUP2 DUP6 PUSH2 0x1FC3 JUMP JUMPDEST SWAP4 POP PUSH2 0x19DD DUP4 PUSH2 0x1F85 JUMP JUMPDEST DUP1 PUSH1 0x0 JUMPDEST DUP4 DUP2 LT ISZERO PUSH2 0x1A0E JUMPI DUP2 MLOAD PUSH2 0x19F5 DUP9 DUP3 PUSH2 0x1970 JUMP JUMPDEST SWAP8 POP PUSH2 0x1A00 DUP4 PUSH2 0x1FB6 JUMP JUMPDEST SWAP3 POP POP PUSH1 0x1 DUP2 ADD SWAP1 POP PUSH2 0x19E1 JUMP JUMPDEST POP DUP6 SWAP4 POP POP POP POP SWAP3 SWAP2 POP POP JUMP JUMPDEST PUSH2 0x1A24 DUP2 PUSH2 0x2117 JUMP JUMPDEST DUP3 MSTORE POP POP JUMP JUMPDEST PUSH2 0x1A33 DUP2 PUSH2 0x2123 JUMP JUMPDEST DUP3 MSTORE POP POP JUMP JUMPDEST PUSH1 0x0 PUSH2 0x1A45 DUP4 DUP6 PUSH2 0x1FD4 JUMP JUMPDEST SWAP4 POP PUSH2 0x1A52 DUP4 DUP6 DUP5 PUSH2 0x21C1 JUMP JUMPDEST DUP3 DUP5 ADD SWAP1 POP SWAP4 SWAP3 POP POP POP JUMP JUMPDEST PUSH1 0x0 PUSH2 0x1A69 DUP3 PUSH2 0x1FA0 JUMP JUMPDEST PUSH2 0x1A73 DUP2 DUP6 PUSH2 0x1FD4 JUMP JUMPDEST SWAP4 POP PUSH2 0x1A83 DUP2 DUP6 PUSH1 0x20 DUP7 ADD PUSH2 0x21D0 JUMP JUMPDEST DUP1 DUP5 ADD SWAP2 POP POP SWAP3 SWAP2 POP POP JUMP JUMPDEST PUSH2 0x1A98 DUP2 PUSH2 0x2179 JUMP JUMPDEST DUP3 MSTORE POP POP JUMP JUMPDEST PUSH2 0x1AA7 DUP2 PUSH2 0x218B JUMP JUMPDEST DUP3 MSTORE POP POP JUMP JUMPDEST PUSH1 0x0 PUSH2 0x1AB8 DUP3 PUSH2 0x1FAB JUMP JUMPDEST PUSH2 0x1AC2 DUP2 DUP6 PUSH2 0x1FDF JUMP JUMPDEST SWAP4 POP PUSH2 0x1AD2 DUP2 DUP6 PUSH1 0x20 DUP7 ADD PUSH2 0x21D0 JUMP JUMPDEST PUSH2 0x1ADB DUP2 PUSH2 0x2379 JUMP JUMPDEST DUP5 ADD SWAP2 POP POP SWAP3 SWAP2 POP POP JUMP JUMPDEST PUSH1 0x0 PUSH2 0x1AF3 PUSH1 0x19 DUP4 PUSH2 0x1FDF JUMP JUMPDEST SWAP2 POP PUSH2 0x1AFE DUP3 PUSH2 0x2397 JUMP JUMPDEST PUSH1 0x20 DUP3 ADD SWAP1 POP SWAP2 SWAP1 POP JUMP JUMPDEST PUSH1 0x0 PUSH2 0x1B16 PUSH1 0x26 DUP4 PUSH2 0x1FDF JUMP JUMPDEST SWAP2 POP PUSH2 0x1B21 DUP3 PUSH2 0x23C0 JUMP JUMPDEST PUSH1 0x40 DUP3 ADD SWAP1 POP SWAP2 SWAP1 POP JUMP JUMPDEST PUSH1 0x0 PUSH2 0x1B39 PUSH1 0x19 DUP4 PUSH2 0x1FDF JUMP JUMPDEST SWAP2 POP PUSH2 0x1B44 DUP3 PUSH2 0x240F JUMP JUMPDEST PUSH1 0x20 DUP3 ADD SWAP1 POP SWAP2 SWAP1 POP JUMP JUMPDEST PUSH1 0x0 PUSH2 0x1B5C PUSH1 0x26 DUP4 PUSH2 0x1FDF JUMP JUMPDEST SWAP2 POP PUSH2 0x1B67 DUP3 PUSH2 0x2438 JUMP JUMPDEST PUSH1 0x40 DUP3 ADD SWAP1 POP SWAP2 SWAP1 POP JUMP JUMPDEST PUSH1 0x0 PUSH2 0x1B7F PUSH1 0x20 DUP4 PUSH2 0x1FDF JUMP JUMPDEST SWAP2 POP PUSH2 0x1B8A DUP3 PUSH2 0x2487 JUMP JUMPDEST PUSH1 0x20 DUP3 ADD SWAP1 POP SWAP2 SWAP1 POP JUMP JUMPDEST PUSH1 0x0 PUSH2 0x1BA2 PUSH1 0x1C DUP4 PUSH2 0x1FDF JUMP JUMPDEST SWAP2 POP PUSH2 0x1BAD DUP3 PUSH2 0x24B0 JUMP JUMPDEST PUSH1 0x20 DUP3 ADD SWAP1 POP SWAP2 SWAP1 POP JUMP JUMPDEST PUSH1 0x0 PUSH2 0x1BC5 PUSH1 0x1D DUP4 PUSH2 0x1FDF JUMP JUMPDEST SWAP2 POP PUSH2 0x1BD0 DUP3 PUSH2 0x24D9 JUMP JUMPDEST PUSH1 0x20 DUP3 ADD SWAP1 POP SWAP2 SWAP1 POP JUMP JUMPDEST PUSH1 0x0 PUSH2 0x1BE8 PUSH1 0x2A DUP4 PUSH2 0x1FDF JUMP JUMPDEST SWAP2 POP PUSH2 0x1BF3 DUP3 PUSH2 0x2502 JUMP JUMPDEST PUSH1 0x40 DUP3 ADD SWAP1 POP SWAP2 SWAP1 POP JUMP JUMPDEST PUSH1 0x0 PUSH2 0x1C0B PUSH1 0x1F DUP4 PUSH2 0x1FDF JUMP JUMPDEST SWAP2 POP PUSH2 0x1C16 DUP3 PUSH2 0x2551 JUMP JUMPDEST PUSH1 0x20 DUP3 ADD SWAP1 POP SWAP2 SWAP1 POP JUMP JUMPDEST PUSH1 0x40 DUP3 ADD PUSH1 0x0 DUP3 ADD MLOAD PUSH2 0x1C37 PUSH1 0x0 DUP6 ADD DUP3 PUSH2 0x1988 JUMP JUMPDEST POP PUSH1 0x20 DUP3 ADD MLOAD PUSH2 0x1C4A PUSH1 0x20 DUP6 ADD DUP3 PUSH2 0x1C50 JUMP JUMPDEST POP POP POP POP JUMP JUMPDEST PUSH2 0x1C59 DUP2 PUSH2 0x216F JUMP JUMPDEST DUP3 MSTORE POP POP JUMP JUMPDEST PUSH2 0x1C68 DUP2 PUSH2 0x216F JUMP JUMPDEST DUP3 MSTORE POP POP JUMP JUMPDEST PUSH2 0x1C7F PUSH2 0x1C7A DUP3 PUSH2 0x216F JUMP JUMPDEST PUSH2 0x229A JUMP JUMPDEST DUP3 MSTORE POP POP JUMP JUMPDEST PUSH1 0x0 PUSH2 0x1C91 DUP3 DUP9 PUSH2 0x19A6 JUMP JUMPDEST PUSH1 0x14 DUP3 ADD SWAP2 POP PUSH2 0x1CA1 DUP3 DUP8 PUSH2 0x19A6 JUMP JUMPDEST PUSH1 0x14 DUP3 ADD SWAP2 POP PUSH2 0x1CB1 DUP3 DUP7 PUSH2 0x1C6E JUMP JUMPDEST PUSH1 0x20 DUP3 ADD SWAP2 POP PUSH2 0x1CC2 DUP3 DUP5 DUP7 PUSH2 0x1A39 JUMP JUMPDEST SWAP2 POP DUP2 SWAP1 POP SWAP7 SWAP6 POP POP POP POP POP POP JUMP JUMPDEST PUSH1 0x0 PUSH2 0x1CDD DUP3 DUP5 PUSH2 0x1A5E JUMP JUMPDEST SWAP2 POP DUP2 SWAP1 POP SWAP3 SWAP2 POP POP JUMP JUMPDEST PUSH1 0x0 PUSH1 0x20 DUP3 ADD SWAP1 POP PUSH2 0x1CFD PUSH1 0x0 DUP4 ADD DUP5 PUSH2 0x1997 JUMP JUMPDEST SWAP3 SWAP2 POP POP JUMP JUMPDEST PUSH1 0x0 PUSH1 0x60 DUP3 ADD SWAP1 POP PUSH2 0x1D18 PUSH1 0x0 DUP4 ADD DUP7 PUSH2 0x1997 JUMP JUMPDEST PUSH2 0x1D25 PUSH1 0x20 DUP4 ADD DUP6 PUSH2 0x1997 JUMP JUMPDEST PUSH2 0x1D32 PUSH1 0x40 DUP4 ADD DUP5 PUSH2 0x1C5F JUMP JUMPDEST SWAP5 SWAP4 POP POP POP POP JUMP JUMPDEST PUSH1 0x0 PUSH1 0x40 DUP3 ADD SWAP1 POP PUSH2 0x1D4F PUSH1 0x0 DUP4 ADD DUP6 PUSH2 0x1997 JUMP JUMPDEST PUSH2 0x1D5C PUSH1 0x20 DUP4 ADD DUP5 PUSH2 0x1C5F JUMP JUMPDEST SWAP4 SWAP3 POP POP POP JUMP JUMPDEST PUSH1 0x0 PUSH1 0x20 DUP3 ADD SWAP1 POP DUP2 DUP2 SUB PUSH1 0x0 DUP4 ADD MSTORE PUSH2 0x1D7D DUP2 DUP5 PUSH2 0x19BD JUMP JUMPDEST SWAP1 POP SWAP3 SWAP2 POP POP JUMP JUMPDEST PUSH1 0x0 PUSH1 0x20 DUP3 ADD SWAP1 POP PUSH2 0x1D9A PUSH1 0x0 DUP4 ADD DUP5 PUSH2 0x1A1B JUMP JUMPDEST SWAP3 SWAP2 POP POP JUMP JUMPDEST PUSH1 0x0 PUSH1 0x20 DUP3 ADD SWAP1 POP PUSH2 0x1DB5 PUSH1 0x0 DUP4 ADD DUP5 PUSH2 0x1A2A JUMP JUMPDEST SWAP3 SWAP2 POP POP JUMP JUMPDEST PUSH1 0x0 PUSH1 0x20 DUP3 ADD SWAP1 POP PUSH2 0x1DD0 PUSH1 0x0 DUP4 ADD DUP5 PUSH2 0x1A8F JUMP JUMPDEST SWAP3 SWAP2 POP POP JUMP JUMPDEST PUSH1 0x0 PUSH1 0x20 DUP3 ADD SWAP1 POP PUSH2 0x1DEB PUSH1 0x0 DUP4 ADD DUP5 PUSH2 0x1A9E JUMP JUMPDEST SWAP3 SWAP2 POP POP JUMP JUMPDEST PUSH1 0x0 PUSH1 0x20 DUP3 ADD SWAP1 POP DUP2 DUP2 SUB PUSH1 0x0 DUP4 ADD MSTORE PUSH2 0x1E0B DUP2 DUP5 PUSH2 0x1AAD JUMP JUMPDEST SWAP1 POP SWAP3 SWAP2 POP POP JUMP JUMPDEST PUSH1 0x0 PUSH1 0x20 DUP3 ADD SWAP1 POP DUP2 DUP2 SUB PUSH1 0x0 DUP4 ADD MSTORE PUSH2 0x1E2C DUP2 PUSH2 0x1AE6 JUMP JUMPDEST SWAP1 POP SWAP2 SWAP1 POP JUMP JUMPDEST PUSH1 0x0 PUSH1 0x20 DUP3 ADD SWAP1 POP DUP2 DUP2 SUB PUSH1 0x0 DUP4 ADD MSTORE PUSH2 0x1E4C DUP2 PUSH2 0x1B09 JUMP JUMPDEST SWAP1 POP SWAP2 SWAP1 POP JUMP JUMPDEST PUSH1 0x0 PUSH1 0x20 DUP3 ADD SWAP1 POP DUP2 DUP2 SUB PUSH1 0x0 DUP4 ADD MSTORE PUSH2 0x1E6C DUP2 PUSH2 0x1B2C JUMP JUMPDEST SWAP1 POP SWAP2 SWAP1 POP JUMP JUMPDEST PUSH1 0x0 PUSH1 0x20 DUP3 ADD SWAP1 POP DUP2 DUP2 SUB PUSH1 0x0 DUP4 ADD MSTORE PUSH2 0x1E8C DUP2 PUSH2 0x1B4F JUMP JUMPDEST SWAP1 POP SWAP2 SWAP1 POP JUMP JUMPDEST PUSH1 0x0 PUSH1 0x20 DUP3 ADD SWAP1 POP DUP2 DUP2 SUB PUSH1 0x0 DUP4 ADD MSTORE PUSH2 0x1EAC DUP2 PUSH2 0x1B72 JUMP JUMPDEST SWAP1 POP SWAP2 SWAP1 POP JUMP JUMPDEST PUSH1 0x0 PUSH1 0x20 DUP3 ADD SWAP1 POP DUP2 DUP2 SUB PUSH1 0x0 DUP4 ADD MSTORE PUSH2 0x1ECC DUP2 PUSH2 0x1B95 JUMP JUMPDEST SWAP1 POP SWAP2 SWAP1 POP JUMP JUMPDEST PUSH1 0x0 PUSH1 0x20 DUP3 ADD SWAP1 POP DUP2 DUP2 SUB PUSH1 0x0 DUP4 ADD MSTORE PUSH2 0x1EEC DUP2 PUSH2 0x1BB8 JUMP JUMPDEST SWAP1 POP SWAP2 SWAP1 POP JUMP JUMPDEST PUSH1 0x0 PUSH1 0x20 DUP3 ADD SWAP1 POP DUP2 DUP2 SUB PUSH1 0x0 DUP4 ADD MSTORE PUSH2 0x1F0C DUP2 PUSH2 0x1BDB JUMP JUMPDEST SWAP1 POP SWAP2 SWAP1 POP JUMP JUMPDEST PUSH1 0x0 PUSH1 0x20 DUP3 ADD SWAP1 POP DUP2 DUP2 SUB PUSH1 0x0 DUP4 ADD MSTORE PUSH2 0x1F2C DUP2 PUSH2 0x1BFE JUMP JUMPDEST SWAP1 POP SWAP2 SWAP1 POP JUMP JUMPDEST PUSH1 0x0 PUSH1 0x20 DUP3 ADD SWAP1 POP PUSH2 0x1F48 PUSH1 0x0 DUP4 ADD DUP5 PUSH2 0x1C5F JUMP JUMPDEST SWAP3 SWAP2 POP POP JUMP JUMPDEST PUSH1 0x0 PUSH1 0x60 DUP3 ADD SWAP1 POP PUSH2 0x1F63 PUSH1 0x0 DUP4 ADD DUP7 PUSH2 0x1C5F JUMP JUMPDEST PUSH2 0x1F70 PUSH1 0x20 DUP4 ADD DUP6 PUSH2 0x1C5F JUMP JUMPDEST PUSH2 0x1F7D PUSH1 0x40 DUP4 ADD DUP5 PUSH2 0x1C5F JUMP JUMPDEST SWAP5 SWAP4 POP POP POP POP JUMP JUMPDEST PUSH1 0x0 DUP2 SWAP1 POP PUSH1 0x20 DUP3 ADD SWAP1 POP SWAP2 SWAP1 POP JUMP JUMPDEST PUSH1 0x0 DUP2 MLOAD SWAP1 POP SWAP2 SWAP1 POP JUMP JUMPDEST PUSH1 0x0 DUP2 MLOAD SWAP1 POP SWAP2 SWAP1 POP JUMP JUMPDEST PUSH1 0x0 DUP2 MLOAD SWAP1 POP SWAP2 SWAP1 POP JUMP JUMPDEST PUSH1 0x0 PUSH1 0x20 DUP3 ADD SWAP1 POP SWAP2 SWAP1 POP JUMP JUMPDEST PUSH1 0x0 DUP3 DUP3 MSTORE PUSH1 0x20 DUP3 ADD SWAP1 POP SWAP3 SWAP2 POP POP JUMP JUMPDEST PUSH1 0x0 DUP2 SWAP1 POP SWAP3 SWAP2 POP POP JUMP JUMPDEST PUSH1 0x0 DUP3 DUP3 MSTORE PUSH1 0x20 DUP3 ADD SWAP1 POP SWAP3 SWAP2 POP POP JUMP JUMPDEST PUSH1 0x0 PUSH2 0x1FFB DUP3 PUSH2 0x216F JUMP JUMPDEST SWAP2 POP PUSH2 0x2006 DUP4 PUSH2 0x216F JUMP JUMPDEST SWAP3 POP DUP3 PUSH32 0xFFFFFFFFFFFFFFFFFFFFFFFFFFFFFFFFFFFFFFFFFFFFFFFFFFFFFFFFFFFFFFFF SUB DUP3 GT ISZERO PUSH2 0x203B JUMPI PUSH2 0x203A PUSH2 0x22A4 JUMP JUMPDEST JUMPDEST DUP3 DUP3 ADD SWAP1 POP SWAP3 SWAP2 POP POP JUMP JUMPDEST PUSH1 0x0 PUSH2 0x2051 DUP3 PUSH2 0x216F JUMP JUMPDEST SWAP2 POP PUSH2 0x205C DUP4 PUSH2 0x216F JUMP JUMPDEST SWAP3 POP DUP3 PUSH2 0x206C JUMPI PUSH2 0x206B PUSH2 0x22D3 JUMP JUMPDEST JUMPDEST DUP3 DUP3 DIV SWAP1 POP SWAP3 SWAP2 POP POP JUMP JUMPDEST PUSH1 0x0 PUSH2 0x2082 DUP3 PUSH2 0x216F JUMP JUMPDEST SWAP2 POP PUSH2 0x208D DUP4 PUSH2 0x216F JUMP JUMPDEST SWAP3 POP DUP2 PUSH32 0xFFFFFFFFFFFFFFFFFFFFFFFFFFFFFFFFFFFFFFFFFFFFFFFFFFFFFFFFFFFFFFFF DIV DUP4 GT DUP3 ISZERO ISZERO AND ISZERO PUSH2 0x20C6 JUMPI PUSH2 0x20C5 PUSH2 0x22A4 JUMP JUMPDEST JUMPDEST DUP3 DUP3 MUL SWAP1 POP SWAP3 SWAP2 POP POP JUMP JUMPDEST PUSH1 0x0 PUSH2 0x20DC DUP3 PUSH2 0x216F JUMP JUMPDEST SWAP2 POP PUSH2 0x20E7 DUP4 PUSH2 0x216F JUMP JUMPDEST SWAP3 POP DUP3 DUP3 LT ISZERO PUSH2 0x20FA JUMPI PUSH2 0x20F9 PUSH2 0x22A4 JUMP JUMPDEST JUMPDEST DUP3 DUP3 SUB SWAP1 POP SWAP3 SWAP2 POP POP JUMP JUMPDEST PUSH1 0x0 PUSH2 0x2110 DUP3 PUSH2 0x214F JUMP JUMPDEST SWAP1 POP SWAP2 SWAP1 POP JUMP JUMPDEST PUSH1 0x0 DUP2 ISZERO ISZERO SWAP1 POP SWAP2 SWAP1 POP JUMP JUMPDEST PUSH1 0x0 PUSH32 0xFFFFFFFF00000000000000000000000000000000000000000000000000000000 DUP3 AND SWAP1 POP SWAP2 SWAP1 POP JUMP JUMPDEST PUSH1 0x0 PUSH20 0xFFFFFFFFFFFFFFFFFFFFFFFFFFFFFFFFFFFFFFFF DUP3 AND SWAP1 POP SWAP2 SWAP1 POP JUMP JUMPDEST PUSH1 0x0 DUP2 SWAP1 POP SWAP2 SWAP1 POP JUMP JUMPDEST PUSH1 0x0 PUSH2 0x2184 DUP3 PUSH2 0x219D JUMP JUMPDEST SWAP1 POP SWAP2 SWAP1 POP JUMP JUMPDEST PUSH1 0x0 PUSH2 0x2196 DUP3 PUSH2 0x219D JUMP JUMPDEST SWAP1 POP SWAP2 SWAP1 POP JUMP JUMPDEST PUSH1 0x0 PUSH2 0x21A8 DUP3 PUSH2 0x21AF JUMP JUMPDEST SWAP1 POP SWAP2 SWAP1 POP JUMP JUMPDEST PUSH1 0x0 PUSH2 0x21BA DUP3 PUSH2 0x214F JUMP JUMPDEST SWAP1 POP SWAP2 SWAP1 POP JUMP JUMPDEST DUP3 DUP2 DUP4 CALLDATACOPY PUSH1 0x0 DUP4 DUP4 ADD MSTORE POP POP POP JUMP JUMPDEST PUSH1 0x0 JUMPDEST DUP4 DUP2 LT ISZERO PUSH2 0x21EE JUMPI DUP1 DUP3 ADD MLOAD DUP2 DUP5 ADD MSTORE PUSH1 0x20 DUP2 ADD SWAP1 POP PUSH2 0x21D3 JUMP JUMPDEST DUP4 DUP2 GT ISZERO PUSH2 0x21FD JUMPI PUSH1 0x0 DUP5 DUP5 ADD MSTORE JUMPDEST POP POP POP POP JUMP JUMPDEST PUSH1 0x0 PUSH2 0x220E DUP3 PUSH2 0x216F JUMP JUMPDEST SWAP2 POP PUSH1 0x0 DUP3 EQ ISZERO PUSH2 0x2222 JUMPI PUSH2 0x2221 PUSH2 0x22A4 JUMP JUMPDEST JUMPDEST PUSH1 0x1 DUP3 SUB SWAP1 POP SWAP2 SWAP1 POP JUMP JUMPDEST PUSH1 0x0 PUSH2 0x2238 DUP3 PUSH2 0x216F JUMP JUMPDEST SWAP2 POP PUSH32 0xFFFFFFFFFFFFFFFFFFFFFFFFFFFFFFFFFFFFFFFFFFFFFFFFFFFFFFFFFFFFFFFF DUP3 EQ ISZERO PUSH2 0x226B JUMPI PUSH2 0x226A PUSH2 0x22A4 JUMP JUMPDEST JUMPDEST PUSH1 0x1 DUP3 ADD SWAP1 POP SWAP2 SWAP1 POP JUMP JUMPDEST PUSH1 0x0 PUSH2 0x2281 DUP3 PUSH2 0x2288 JUMP JUMPDEST SWAP1 POP SWAP2 SWAP1 POP JUMP JUMPDEST PUSH1 0x0 PUSH2 0x2293 DUP3 PUSH2 0x238A JUMP JUMPDEST SWAP1 POP SWAP2 SWAP1 POP JUMP JUMPDEST PUSH1 0x0 DUP2 SWAP1 POP SWAP2 SWAP1 POP JUMP JUMPDEST PUSH32 0x4E487B7100000000000000000000000000000000000000000000000000000000 PUSH1 0x0 MSTORE PUSH1 0x11 PUSH1 0x4 MSTORE PUSH1 0x24 PUSH1 0x0 REVERT JUMPDEST PUSH32 0x4E487B7100000000000000000000000000000000000000000000000000000000 PUSH1 0x0 MSTORE PUSH1 0x12 PUSH1 0x4 MSTORE PUSH1 0x24 PUSH1 0x0 REVERT JUMPDEST PUSH32 0x4E487B7100000000000000000000000000000000000000000000000000000000 PUSH1 0x0 MSTORE PUSH1 0x32 PUSH1 0x4 MSTORE PUSH1 0x24 PUSH1 0x0 REVERT JUMPDEST PUSH32 0x4E487B7100000000000000000000000000000000000000000000000000000000 PUSH1 0x0 MSTORE PUSH1 0x41 PUSH1 0x4 MSTORE PUSH1 0x24 PUSH1 0x0 REVERT JUMPDEST PUSH1 0x0 DUP1 REVERT JUMPDEST PUSH1 0x0 DUP1 REVERT JUMPDEST PUSH1 0x0 DUP1 REVERT JUMPDEST PUSH1 0x0 DUP1 REVERT JUMPDEST PUSH1 0x0 DUP1 REVERT JUMPDEST PUSH1 0x0 PUSH1 0x1F NOT PUSH1 0x1F DUP4 ADD AND SWAP1 POP SWAP2 SWAP1 POP JUMP JUMPDEST PUSH1 0x0 DUP2 PUSH1 0x60 SHL SWAP1 POP SWAP2 SWAP1 POP JUMP JUMPDEST PUSH32 0x596F7520646F6E2774206F776E207468697320746F6B656E2100000000000000 PUSH1 0x0 DUP3 ADD MSTORE POP JUMP JUMPDEST PUSH32 0x4F776E61626C653A206E6577206F776E657220697320746865207A65726F2061 PUSH1 0x0 DUP3 ADD MSTORE PUSH32 0x6464726573730000000000000000000000000000000000000000000000000000 PUSH1 0x20 DUP3 ADD MSTORE POP JUMP JUMPDEST PUSH32 0x596F752068617665206E6F20746F6B656E73207374616B656400000000000000 PUSH1 0x0 DUP3 ADD MSTORE POP JUMP JUMPDEST PUSH32 0x416464726573733A20696E73756666696369656E742062616C616E636520666F PUSH1 0x0 DUP3 ADD MSTORE PUSH32 0x722063616C6C0000000000000000000000000000000000000000000000000000 PUSH1 0x20 DUP3 ADD MSTORE POP JUMP JUMPDEST PUSH32 0x4F776E61626C653A2063616C6C6572206973206E6F7420746865206F776E6572 PUSH1 0x0 DUP3 ADD MSTORE POP JUMP JUMPDEST PUSH32 0x596F752068617665206E6F207265776172647320746F20636C61696D00000000 PUSH1 0x0 DUP3 ADD MSTORE POP JUMP JUMPDEST PUSH32 0x416464726573733A2063616C6C20746F206E6F6E2D636F6E7472616374000000 PUSH1 0x0 DUP3 ADD MSTORE POP JUMP JUMPDEST PUSH32 0x5361666545524332303A204552433230206F7065726174696F6E20646964206E PUSH1 0x0 DUP3 ADD MSTORE PUSH32 0x6F74207375636365656400000000000000000000000000000000000000000000 PUSH1 0x20 DUP3 ADD MSTORE POP JUMP JUMPDEST PUSH32 0x5265656E7472616E637947756172643A207265656E7472616E742063616C6C00 PUSH1 0x0 DUP3 ADD MSTORE POP JUMP JUMPDEST PUSH2 0x2583 DUP2 PUSH2 0x2105 JUMP JUMPDEST DUP2 EQ PUSH2 0x258E JUMPI PUSH1 0x0 DUP1 REVERT JUMPDEST POP JUMP JUMPDEST PUSH2 0x259A DUP2 PUSH2 0x2117 JUMP JUMPDEST DUP2 EQ PUSH2 0x25A5 JUMPI PUSH1 0x0 DUP1 REVERT JUMPDEST POP JUMP JUMPDEST PUSH2 0x25B1 DUP2 PUSH2 0x216F JUMP JUMPDEST DUP2 EQ PUSH2 0x25BC JUMPI PUSH1 0x0 DUP1 REVERT JUMPDEST POP JUMP INVALID LOG2 PUSH5 0x6970667358 0x22 SLT KECCAK256 PUSH4 0x595B96E8 0xC5 0xC2 0xCF DUP12 0xC6 0xBA CREATE2 PUSH23 0x8718F3F3390DE0F6AC40956BCE8720018A7AE964736F6C PUSH4 0x43000807 STOP CALLER "
				},
				"gasEstimates": {
					"creation": {
						"codeDepositCost": "1943400",
						"executionCost": "infinite",
						"totalCost": "infinite"
					},
					"external": {
						"claimRewards()": "infinite",
						"getStakedTokens(address)": "infinite",
						"nftCollection()": "2711",
						"onERC721Received(address,address,uint256,bytes)": "infinite",
						"owner()": "2614",
						"paused()": "2546",
						"renounceOwnership()": "30565",
						"rewardsToken()": "2666",
						"stake(uint256)": "infinite",
						"stakerAddress(uint256)": "2861",
						"stakers(address)": "infinite",
						"transferOwnership(address)": "30979",
						"withdraw(uint256)": "infinite"
					},
					"internal": {
						"calculateRewards(address)": "infinite"
					}
				},
				"methodIdentifiers": {
					"claimRewards()": "372500ab",
					"getStakedTokens(address)": "63c28db1",
					"nftCollection()": "6588103b",
					"onERC721Received(address,address,uint256,bytes)": "150b7a02",
					"owner()": "8da5cb5b",
					"paused()": "5c975abb",
					"renounceOwnership()": "715018a6",
					"rewardsToken()": "d1af0c7d",
					"stake(uint256)": "a694fc3a",
					"stakerAddress(uint256)": "94067045",
					"stakers(address)": "9168ae72",
					"transferOwnership(address)": "f2fde38b",
					"withdraw(uint256)": "2e1a7d4d"
				}
			},
			"storageLayout": {
				"storage": [
					{
						"astId": 585,
						"contract": "Farm.sol:Farm",
						"label": "_status",
						"offset": 0,
						"slot": "0",
						"type": "t_uint256"
					},
					{
						"astId": 487,
						"contract": "Farm.sol:Farm",
						"label": "_paused",
						"offset": 0,
						"slot": "1",
						"type": "t_bool"
					},
					{
						"astId": 1038,
						"contract": "Farm.sol:Farm",
						"label": "_owner",
						"offset": 1,
						"slot": "1",
						"type": "t_address"
					},
					{
						"astId": 1177,
						"contract": "Farm.sol:Farm",
						"label": "rewardsToken",
						"offset": 0,
						"slot": "2",
						"type": "t_contract(IERC20)454"
					},
					{
						"astId": 1180,
						"contract": "Farm.sol:Farm",
						"label": "nftCollection",
						"offset": 0,
						"slot": "3",
						"type": "t_contract(IERC721)138"
					},
					{
						"astId": 1183,
						"contract": "Farm.sol:Farm",
						"label": "rewardsPerHour",
						"offset": 0,
						"slot": "4",
						"type": "t_uint256"
					},
					{
						"astId": 1188,
						"contract": "Farm.sol:Farm",
						"label": "stakers",
						"offset": 0,
						"slot": "5",
						"type": "t_mapping(t_address,t_struct(Staker)1174_storage)"
					},
					{
						"astId": 1192,
						"contract": "Farm.sol:Farm",
						"label": "stakerAddress",
						"offset": 0,
						"slot": "6",
						"type": "t_mapping(t_uint256,t_address)"
					}
				],
				"types": {
					"t_address": {
						"encoding": "inplace",
						"label": "address",
						"numberOfBytes": "20"
					},
					"t_array(t_struct(StakedToken)1163_storage)dyn_storage": {
						"base": "t_struct(StakedToken)1163_storage",
						"encoding": "dynamic_array",
						"label": "struct Farm.StakedToken[]",
						"numberOfBytes": "32"
					},
					"t_bool": {
						"encoding": "inplace",
						"label": "bool",
						"numberOfBytes": "1"
					},
					"t_contract(IERC20)454": {
						"encoding": "inplace",
						"label": "contract IERC20",
						"numberOfBytes": "20"
					},
					"t_contract(IERC721)138": {
						"encoding": "inplace",
						"label": "contract IERC721",
						"numberOfBytes": "20"
					},
					"t_mapping(t_address,t_struct(Staker)1174_storage)": {
						"encoding": "mapping",
						"key": "t_address",
						"label": "mapping(address => struct Farm.Staker)",
						"numberOfBytes": "32",
						"value": "t_struct(Staker)1174_storage"
					},
					"t_mapping(t_uint256,t_address)": {
						"encoding": "mapping",
						"key": "t_uint256",
						"label": "mapping(uint256 => address)",
						"numberOfBytes": "32",
						"value": "t_address"
					},
					"t_struct(StakedToken)1163_storage": {
						"encoding": "inplace",
						"label": "struct Farm.StakedToken",
						"members": [
							{
								"astId": 1160,
								"contract": "Farm.sol:Farm",
								"label": "staker",
								"offset": 0,
								"slot": "0",
								"type": "t_address"
							},
							{
								"astId": 1162,
								"contract": "Farm.sol:Farm",
								"label": "tokenId",
								"offset": 0,
								"slot": "1",
								"type": "t_uint256"
							}
						],
						"numberOfBytes": "64"
					},
					"t_struct(Staker)1174_storage": {
						"encoding": "inplace",
						"label": "struct Farm.Staker",
						"members": [
							{
								"astId": 1165,
								"contract": "Farm.sol:Farm",
								"label": "amountStaked",
								"offset": 0,
								"slot": "0",
								"type": "t_uint256"
							},
							{
								"astId": 1169,
								"contract": "Farm.sol:Farm",
								"label": "stakedTokens",
								"offset": 0,
								"slot": "1",
								"type": "t_array(t_struct(StakedToken)1163_storage)dyn_storage"
							},
							{
								"astId": 1171,
								"contract": "Farm.sol:Farm",
								"label": "timeOfLastUpdate",
								"offset": 0,
								"slot": "2",
								"type": "t_uint256"
							},
							{
								"astId": 1173,
								"contract": "Farm.sol:Farm",
								"label": "unclaimedRewards",
								"offset": 0,
								"slot": "3",
								"type": "t_uint256"
							}
						],
						"numberOfBytes": "128"
					},
					"t_uint256": {
						"encoding": "inplace",
						"label": "uint256",
						"numberOfBytes": "32"
					}
				}
			},
			"userdoc": {
				"kind": "user",
				"methods": {},
				"version": 1
			}
		}
	}
}