{
	"Farm.sol": {
		"Farm": {
			"abi": [
				{
					"inputs": [
						{
							"internalType": "address",
							"name": "_rewardsToken",
							"type": "address"
						},
						{
							"internalType": "address",
							"name": "_stakingToken",
							"type": "address"
						},
						{
							"internalType": "uint256",
							"name": "_rewardsDuration",
							"type": "uint256"
						},
						{
							"internalType": "uint256",
							"name": "_stakingTokensDecimal",
							"type": "uint256"
						}
					],
					"stateMutability": "nonpayable",
					"type": "constructor"
				},
				{
					"anonymous": false,
					"inputs": [
						{
							"indexed": true,
							"internalType": "address",
							"name": "previousOwner",
							"type": "address"
						},
						{
							"indexed": true,
							"internalType": "address",
							"name": "newOwner",
							"type": "address"
						}
					],
					"name": "OwnershipTransferred",
					"type": "event"
				},
				{
					"anonymous": false,
					"inputs": [
						{
							"indexed": false,
							"internalType": "address",
							"name": "account",
							"type": "address"
						}
					],
					"name": "Paused",
					"type": "event"
				},
				{
					"anonymous": false,
					"inputs": [
						{
							"indexed": false,
							"internalType": "address",
							"name": "token",
							"type": "address"
						},
						{
							"indexed": false,
							"internalType": "uint256",
							"name": "amount",
							"type": "uint256"
						}
					],
					"name": "Recovered",
					"type": "event"
				},
				{
					"anonymous": false,
					"inputs": [
						{
							"indexed": false,
							"internalType": "uint256",
							"name": "reward",
							"type": "uint256"
						}
					],
					"name": "RewardAdded",
					"type": "event"
				},
				{
					"anonymous": false,
					"inputs": [
						{
							"indexed": true,
							"internalType": "address",
							"name": "user",
							"type": "address"
						},
						{
							"indexed": false,
							"internalType": "uint256",
							"name": "reward",
							"type": "uint256"
						}
					],
					"name": "RewardPaid",
					"type": "event"
				},
				{
					"anonymous": false,
					"inputs": [
						{
							"indexed": false,
							"internalType": "uint256",
							"name": "newDuration",
							"type": "uint256"
						}
					],
					"name": "RewardsDurationUpdated",
					"type": "event"
				},
				{
					"anonymous": false,
					"inputs": [
						{
							"indexed": true,
							"internalType": "address",
							"name": "user",
							"type": "address"
						},
						{
							"indexed": false,
							"internalType": "uint256",
							"name": "amount",
							"type": "uint256"
						}
					],
					"name": "Staked",
					"type": "event"
				},
				{
					"anonymous": false,
					"inputs": [
						{
							"indexed": false,
							"internalType": "address",
							"name": "account",
							"type": "address"
						}
					],
					"name": "Unpaused",
					"type": "event"
				},
				{
					"anonymous": false,
					"inputs": [
						{
							"indexed": true,
							"internalType": "address",
							"name": "user",
							"type": "address"
						},
						{
							"indexed": false,
							"internalType": "uint256",
							"name": "amount",
							"type": "uint256"
						}
					],
					"name": "Withdrawn",
					"type": "event"
				},
				{
					"inputs": [
						{
							"internalType": "address",
							"name": "account",
							"type": "address"
						}
					],
					"name": "balanceOf",
					"outputs": [
						{
							"internalType": "uint256",
							"name": "",
							"type": "uint256"
						}
					],
					"stateMutability": "view",
					"type": "function"
				},
				{
					"inputs": [
						{
							"internalType": "address",
							"name": "account",
							"type": "address"
						}
					],
					"name": "earned",
					"outputs": [
						{
							"internalType": "uint256",
							"name": "",
							"type": "uint256"
						}
					],
					"stateMutability": "view",
					"type": "function"
				},
				{
					"inputs": [],
					"name": "exit",
					"outputs": [],
					"stateMutability": "nonpayable",
					"type": "function"
				},
				{
					"inputs": [],
					"name": "getReward",
					"outputs": [],
					"stateMutability": "nonpayable",
					"type": "function"
				},
				{
					"inputs": [],
					"name": "getRewardForDuration",
					"outputs": [
						{
							"internalType": "uint256",
							"name": "",
							"type": "uint256"
						}
					],
					"stateMutability": "view",
					"type": "function"
				},
				{
					"inputs": [],
					"name": "lastTimeRewardApplicable",
					"outputs": [
						{
							"internalType": "uint256",
							"name": "",
							"type": "uint256"
						}
					],
					"stateMutability": "view",
					"type": "function"
				},
				{
					"inputs": [],
					"name": "lastUpdateTime",
					"outputs": [
						{
							"internalType": "uint256",
							"name": "",
							"type": "uint256"
						}
					],
					"stateMutability": "view",
					"type": "function"
				},
				{
					"inputs": [
						{
							"internalType": "uint256",
							"name": "a",
							"type": "uint256"
						},
						{
							"internalType": "uint256",
							"name": "b",
							"type": "uint256"
						}
					],
					"name": "min",
					"outputs": [
						{
							"internalType": "uint256",
							"name": "",
							"type": "uint256"
						}
					],
					"stateMutability": "pure",
					"type": "function"
				},
				{
					"inputs": [
						{
							"internalType": "uint256",
							"name": "reward",
							"type": "uint256"
						}
					],
					"name": "notifyRewardAmount",
					"outputs": [],
					"stateMutability": "nonpayable",
					"type": "function"
				},
				{
					"inputs": [
						{
							"internalType": "address",
							"name": "operator",
							"type": "address"
						},
						{
							"internalType": "address",
							"name": "from",
							"type": "address"
						},
						{
							"internalType": "uint256",
							"name": "tokenId",
							"type": "uint256"
						},
						{
							"internalType": "bytes",
							"name": "data",
							"type": "bytes"
						}
					],
					"name": "onERC721Received",
					"outputs": [
						{
							"internalType": "bytes4",
							"name": "",
							"type": "bytes4"
						}
					],
					"stateMutability": "nonpayable",
					"type": "function"
				},
				{
					"inputs": [],
					"name": "owner",
					"outputs": [
						{
							"internalType": "address",
							"name": "",
							"type": "address"
						}
					],
					"stateMutability": "view",
					"type": "function"
				},
				{
					"inputs": [],
					"name": "paused",
					"outputs": [
						{
							"internalType": "bool",
							"name": "",
							"type": "bool"
						}
					],
					"stateMutability": "view",
					"type": "function"
				},
				{
					"inputs": [],
					"name": "periodFinish",
					"outputs": [
						{
							"internalType": "uint256",
							"name": "",
							"type": "uint256"
						}
					],
					"stateMutability": "view",
					"type": "function"
				},
				{
					"inputs": [
						{
							"internalType": "uint256",
							"name": "n",
							"type": "uint256"
						},
						{
							"internalType": "uint256",
							"name": "e",
							"type": "uint256"
						}
					],
					"name": "pow",
					"outputs": [
						{
							"internalType": "uint256",
							"name": "",
							"type": "uint256"
						}
					],
					"stateMutability": "pure",
					"type": "function"
				},
				{
					"inputs": [
						{
							"internalType": "address",
							"name": "tokenAddress",
							"type": "address"
						},
						{
							"internalType": "uint256",
							"name": "tokenAmount",
							"type": "uint256"
						}
					],
					"name": "recoverERC20",
					"outputs": [],
					"stateMutability": "nonpayable",
					"type": "function"
				},
				{
					"inputs": [],
					"name": "renounceOwnership",
					"outputs": [],
					"stateMutability": "nonpayable",
					"type": "function"
				},
				{
					"inputs": [],
					"name": "rewardPerToken",
					"outputs": [
						{
							"internalType": "uint256",
							"name": "",
							"type": "uint256"
						}
					],
					"stateMutability": "view",
					"type": "function"
				},
				{
					"inputs": [],
					"name": "rewardPerTokenStored",
					"outputs": [
						{
							"internalType": "uint256",
							"name": "",
							"type": "uint256"
						}
					],
					"stateMutability": "view",
					"type": "function"
				},
				{
					"inputs": [],
					"name": "rewardRate",
					"outputs": [
						{
							"internalType": "uint256",
							"name": "",
							"type": "uint256"
						}
					],
					"stateMutability": "view",
					"type": "function"
				},
				{
					"inputs": [
						{
							"internalType": "address",
							"name": "",
							"type": "address"
						}
					],
					"name": "rewards",
					"outputs": [
						{
							"internalType": "uint256",
							"name": "",
							"type": "uint256"
						}
					],
					"stateMutability": "view",
					"type": "function"
				},
				{
					"inputs": [],
					"name": "rewardsDuration",
					"outputs": [
						{
							"internalType": "uint256",
							"name": "",
							"type": "uint256"
						}
					],
					"stateMutability": "view",
					"type": "function"
				},
				{
					"inputs": [],
					"name": "rewardsToken",
					"outputs": [
						{
							"internalType": "contract IERC20",
							"name": "",
							"type": "address"
						}
					],
					"stateMutability": "view",
					"type": "function"
				},
				{
					"inputs": [
						{
							"internalType": "uint256",
							"name": "_rewardsDuration",
							"type": "uint256"
						}
					],
					"name": "setRewardsDuration",
					"outputs": [],
					"stateMutability": "nonpayable",
					"type": "function"
				},
				{
					"inputs": [
						{
							"internalType": "uint256",
							"name": "amount",
							"type": "uint256"
						}
					],
					"name": "stake",
					"outputs": [],
					"stateMutability": "nonpayable",
					"type": "function"
				},
				{
					"inputs": [],
					"name": "stakingToken",
					"outputs": [
						{
							"internalType": "contract IERC20",
							"name": "",
							"type": "address"
						}
					],
					"stateMutability": "view",
					"type": "function"
				},
				{
					"inputs": [],
					"name": "stakingTokensDecimalRate",
					"outputs": [
						{
							"internalType": "uint256",
							"name": "",
							"type": "uint256"
						}
					],
					"stateMutability": "view",
					"type": "function"
				},
				{
					"inputs": [],
					"name": "totalSupply",
					"outputs": [
						{
							"internalType": "uint256",
							"name": "",
							"type": "uint256"
						}
					],
					"stateMutability": "view",
					"type": "function"
				},
				{
					"inputs": [
						{
							"internalType": "address",
							"name": "newOwner",
							"type": "address"
						}
					],
					"name": "transferOwnership",
					"outputs": [],
					"stateMutability": "nonpayable",
					"type": "function"
				},
				{
					"inputs": [
						{
							"internalType": "address",
							"name": "",
							"type": "address"
						}
					],
					"name": "userRewardPerTokenPaid",
					"outputs": [
						{
							"internalType": "uint256",
							"name": "",
							"type": "uint256"
						}
					],
					"stateMutability": "view",
					"type": "function"
				},
				{
					"inputs": [
						{
							"internalType": "uint256",
							"name": "amount",
							"type": "uint256"
						}
					],
					"name": "withdraw",
					"outputs": [],
					"stateMutability": "nonpayable",
					"type": "function"
				}
			],
			"devdoc": {
				"kind": "dev",
				"methods": {
					"onERC721Received(address,address,uint256,bytes)": {
						"details": "Whenever an {IERC721} `tokenId` token is transferred to this contract via {IERC721-safeTransferFrom} by `operator` from `from`, this function is called. It must return its Solidity selector to confirm the token transfer. If any other value is returned or the interface is not implemented by the recipient, the transfer will be reverted. The selector can be obtained in Solidity with `IERC721Receiver.onERC721Received.selector`."
					},
					"owner()": {
						"details": "Returns the address of the current owner."
					},
					"paused()": {
						"details": "Returns true if the contract is paused, and false otherwise."
					},
					"renounceOwnership()": {
						"details": "Leaves the contract without owner. It will not be possible to call `onlyOwner` functions anymore. Can only be called by the current owner. NOTE: Renouncing ownership will leave the contract without an owner, thereby removing any functionality that is only available to the owner."
					},
					"transferOwnership(address)": {
						"details": "Transfers ownership of the contract to a new account (`newOwner`). Can only be called by the current owner."
					}
				},
				"version": 1
			},
			"evm": {
				"assembly": "    /* \"Farm.sol\":24654:32087  contract Farm is ReentrancyGuard, Pausable, Ownable, IERC721Receiver {\r... */\n  mstore(0x40, 0x80)\n    /* \"Farm.sol\":24945:24946  0 */\n  0x00\n    /* \"Farm.sol\":24915:24946  uint256 public periodFinish = 0 */\n  0x04\n  sstore\n    /* \"Farm.sol\":24981:24982  0 */\n  0x00\n    /* \"Farm.sol\":24953:24982  uint256 public rewardRate = 0 */\n  0x05\n  sstore\n    /* \"Farm.sol\":25434:25802  constructor (\r... */\n  callvalue\n  dup1\n  iszero\n  tag_1\n  jumpi\n  0x00\n  dup1\n  revert\ntag_1:\n  pop\n  mload(0x40)\n  sub(codesize, bytecodeSize)\n  dup1\n  bytecodeSize\n  dup4\n  codecopy\n  dup2\n  dup2\n  add\n  0x40\n  mstore\n  dup2\n  add\n  swap1\n  tag_2\n  swap2\n  swap1\n  tag_3\n  jump\t// in\ntag_2:\n    /* \"Farm.sol\":13570:13571  1 */\n  0x01\n    /* \"Farm.sol\":13681:13688  _status */\n  0x00\n    /* \"Farm.sol\":13681:13703  _status = _NOT_ENTERED */\n  dup2\n  swap1\n  sstore\n  pop\n    /* \"Farm.sol\":11109:11114  false */\n  0x00\n    /* \"Farm.sol\":11099:11106  _paused */\n  0x01\n  0x00\n    /* \"Farm.sol\":11099:11114  _paused = false */\n  0x0100\n  exp\n  dup2\n  sload\n  dup2\n  0xff\n  mul\n  not\n  and\n  swap1\n  dup4\n  iszero\n  iszero\n  mul\n  or\n  swap1\n  sstore\n  pop\n    /* \"Farm.sol\":22908:22940  _transferOwnership(_msgSender()) */\n  tag_11\n    /* \"Farm.sol\":22927:22939  _msgSender() */\n  tag_12\n    /* \"Farm.sol\":22927:22937  _msgSender */\n  shl(0x20, tag_13)\n    /* \"Farm.sol\":22927:22939  _msgSender() */\n  0x20\n  shr\n  jump\t// in\ntag_12:\n    /* \"Farm.sol\":22908:22926  _transferOwnership */\n  shl(0x20, tag_14)\n    /* \"Farm.sol\":22908:22940  _transferOwnership(_msgSender()) */\n  0x20\n  shr\n  jump\t// in\ntag_11:\n    /* \"Farm.sol\":25625:25655  pow(10, _stakingTokensDecimal) */\n  tag_16\n    /* \"Farm.sol\":25629:25631  10 */\n  0x0a\n    /* \"Farm.sol\":25633:25654  _stakingTokensDecimal */\n  dup3\n    /* \"Farm.sol\":25625:25628  pow */\n  shl(0x20, tag_17)\n    /* \"Farm.sol\":25625:25655  pow(10, _stakingTokensDecimal) */\n  0x20\n  shr\n  jump\t// in\ntag_16:\n    /* \"Farm.sol\":25598:25622  stakingTokensDecimalRate */\n  0x09\n    /* \"Farm.sol\":25598:25655  stakingTokensDecimalRate = pow(10, _stakingTokensDecimal) */\n  dup2\n  swap1\n  sstore\n  pop\n    /* \"Farm.sol\":25688:25701  _rewardsToken */\n  dup4\n    /* \"Farm.sol\":25666:25678  rewardsToken */\n  0x02\n  0x00\n    /* \"Farm.sol\":25666:25702  rewardsToken = IERC20(_rewardsToken) */\n  0x0100\n  exp\n  dup2\n  sload\n  dup2\n  0xffffffffffffffffffffffffffffffffffffffff\n  mul\n  not\n  and\n  swap1\n  dup4\n  0xffffffffffffffffffffffffffffffffffffffff\n  and\n  mul\n  or\n  swap1\n  sstore\n  pop\n    /* \"Farm.sol\":25735:25748  _stakingToken */\n  dup3\n    /* \"Farm.sol\":25713:25725  stakingToken */\n  0x03\n  0x00\n    /* \"Farm.sol\":25713:25749  stakingToken = IERC20(_stakingToken) */\n  0x0100\n  exp\n  dup2\n  sload\n  dup2\n  0xffffffffffffffffffffffffffffffffffffffff\n  mul\n  not\n  and\n  swap1\n  dup4\n  0xffffffffffffffffffffffffffffffffffffffff\n  and\n  mul\n  or\n  swap1\n  sstore\n  pop\n    /* \"Farm.sol\":25778:25794  _rewardsDuration */\n  dup2\n    /* \"Farm.sol\":25760:25775  rewardsDuration */\n  0x06\n    /* \"Farm.sol\":25760:25794  rewardsDuration = _rewardsDuration */\n  dup2\n  swap1\n  sstore\n  pop\n    /* \"Farm.sol\":25434:25802  constructor (\r... */\n  pop\n  pop\n  pop\n  pop\n    /* \"Farm.sol\":24654:32087  contract Farm is ReentrancyGuard, Pausable, Ownable, IERC721Receiver {\r... */\n  jump(tag_18)\n    /* \"Farm.sol\":10474:10572  function _msgSender() internal view virtual returns (address) {\r... */\ntag_13:\n    /* \"Farm.sol\":10527:10534  address */\n  0x00\n    /* \"Farm.sol\":10554:10564  msg.sender */\n  caller\n    /* \"Farm.sol\":10547:10564  return msg.sender */\n  swap1\n  pop\n    /* \"Farm.sol\":10474:10572  function _msgSender() internal view virtual returns (address) {\r... */\n  swap1\n  jump\t// out\n    /* \"Farm.sol\":24454:24645  function _transferOwnership(address newOwner) internal virtual {\r... */\ntag_14:\n    /* \"Farm.sol\":24528:24544  address oldOwner */\n  0x00\n    /* \"Farm.sol\":24547:24553  _owner */\n  0x01\n  dup1\n  sload\n  swap1\n  0x0100\n  exp\n  swap1\n  div\n  0xffffffffffffffffffffffffffffffffffffffff\n  and\n    /* \"Farm.sol\":24528:24553  address oldOwner = _owner */\n  swap1\n  pop\n    /* \"Farm.sol\":24573:24581  newOwner */\n  dup2\n    /* \"Farm.sol\":24564:24570  _owner */\n  0x01\n  dup1\n    /* \"Farm.sol\":24564:24581  _owner = newOwner */\n  0x0100\n  exp\n  dup2\n  sload\n  dup2\n  0xffffffffffffffffffffffffffffffffffffffff\n  mul\n  not\n  and\n  swap1\n  dup4\n  0xffffffffffffffffffffffffffffffffffffffff\n  and\n  mul\n  or\n  swap1\n  sstore\n  pop\n    /* \"Farm.sol\":24628:24636  newOwner */\n  dup2\n    /* \"Farm.sol\":24597:24637  OwnershipTransferred(oldOwner, newOwner) */\n  0xffffffffffffffffffffffffffffffffffffffff\n  and\n    /* \"Farm.sol\":24618:24626  oldOwner */\n  dup2\n    /* \"Farm.sol\":24597:24637  OwnershipTransferred(oldOwner, newOwner) */\n  0xffffffffffffffffffffffffffffffffffffffff\n  and\n  0x8be0079c531659141344cd1fd0a4f28419497f9722a3daafe3b4186f6b6457e0\n  mload(0x40)\n  mload(0x40)\n  dup1\n  swap2\n  sub\n  swap1\n  log3\n    /* \"Farm.sol\":24517:24645  {\r... */\n  pop\n    /* \"Farm.sol\":24454:24645  function _transferOwnership(address newOwner) internal virtual {\r... */\n  pop\n  jump\t// out\n    /* \"Farm.sol\":25956:26320  function pow(uint n, uint e) public pure returns (uint) {\r... */\ntag_17:\n    /* \"Farm.sol\":26006:26010  uint */\n  0x00\n    /* \"Farm.sol\":26034:26035  0 */\n  dup1\n    /* \"Farm.sol\":26029:26030  e */\n  dup3\n    /* \"Farm.sol\":26029:26035  e == 0 */\n  eq\n    /* \"Farm.sol\":26025:26313  if (e == 0) {\r... */\n  iszero\n  tag_22\n  jumpi\n    /* \"Farm.sol\":26059:26060  1 */\n  0x01\n    /* \"Farm.sol\":26052:26060  return 1 */\n  swap1\n  pop\n  jump(tag_21)\n    /* \"Farm.sol\":26025:26313  if (e == 0) {\r... */\ntag_22:\n    /* \"Farm.sol\":26087:26088  1 */\n  0x01\n    /* \"Farm.sol\":26082:26083  e */\n  dup3\n    /* \"Farm.sol\":26082:26088  e == 1 */\n  eq\n    /* \"Farm.sol\":26078:26313  if (e == 1) {\r... */\n  iszero\n  tag_24\n  jumpi\n    /* \"Farm.sol\":26112:26113  n */\n  dup3\n    /* \"Farm.sol\":26105:26113  return n */\n  swap1\n  pop\n  jump(tag_21)\n    /* \"Farm.sol\":26078:26313  if (e == 1) {\r... */\ntag_24:\n    /* \"Farm.sol\":26146:26152  uint p */\n  0x00\n    /* \"Farm.sol\":26155:26171  pow(n, e.div(2)) */\n  tag_26\n    /* \"Farm.sol\":26159:26160  n */\n  dup5\n    /* \"Farm.sol\":26162:26170  e.div(2) */\n  tag_27\n    /* \"Farm.sol\":26168:26169  2 */\n  0x02\n    /* \"Farm.sol\":26162:26163  e */\n  dup7\n    /* \"Farm.sol\":26162:26167  e.div */\n  or(tag_0_144, shl(0x20, tag_28))\n  swap1\n    /* \"Farm.sol\":26162:26170  e.div(2) */\n  swap2\n  swap1\n  0x20\n  shr\n  jump\t// in\ntag_27:\n    /* \"Farm.sol\":26155:26158  pow */\n  shl(0x20, tag_17)\n    /* \"Farm.sol\":26155:26171  pow(n, e.div(2)) */\n  0x20\n  shr\n  jump\t// in\ntag_26:\n    /* \"Farm.sol\":26146:26171  uint p = pow(n, e.div(2)) */\n  swap1\n  pop\n    /* \"Farm.sol\":26190:26198  p.mul(p) */\n  tag_29\n    /* \"Farm.sol\":26196:26197  p */\n  dup2\n    /* \"Farm.sol\":26190:26191  p */\n  dup3\n    /* \"Farm.sol\":26190:26195  p.mul */\n  or(tag_0_145, shl(0x20, tag_30))\n  swap1\n    /* \"Farm.sol\":26190:26198  p.mul(p) */\n  swap2\n  swap1\n  0x20\n  shr\n  jump\t// in\ntag_29:\n    /* \"Farm.sol\":26186:26198  p = p.mul(p) */\n  swap1\n  pop\n    /* \"Farm.sol\":26229:26230  1 */\n  0x01\n    /* \"Farm.sol\":26217:26225  e.mod(2) */\n  tag_31\n    /* \"Farm.sol\":26223:26224  2 */\n  0x02\n    /* \"Farm.sol\":26217:26218  e */\n  dup6\n    /* \"Farm.sol\":26217:26222  e.mod */\n  or(tag_0_146, shl(0x20, tag_32))\n  swap1\n    /* \"Farm.sol\":26217:26225  e.mod(2) */\n  swap2\n  swap1\n  0x20\n  shr\n  jump\t// in\ntag_31:\n    /* \"Farm.sol\":26217:26230  e.mod(2) == 1 */\n  eq\n    /* \"Farm.sol\":26213:26279  if (e.mod(2) == 1) {\r... */\n  iszero\n  tag_33\n  jumpi\n    /* \"Farm.sol\":26255:26263  p.mul(n) */\n  tag_34\n    /* \"Farm.sol\":26261:26262  n */\n  dup5\n    /* \"Farm.sol\":26255:26256  p */\n  dup3\n    /* \"Farm.sol\":26255:26260  p.mul */\n  or(tag_0_145, shl(0x20, tag_30))\n  swap1\n    /* \"Farm.sol\":26255:26263  p.mul(n) */\n  swap2\n  swap1\n  0x20\n  shr\n  jump\t// in\ntag_34:\n    /* \"Farm.sol\":26251:26263  p = p.mul(n) */\n  swap1\n  pop\n    /* \"Farm.sol\":26213:26279  if (e.mod(2) == 1) {\r... */\ntag_33:\n    /* \"Farm.sol\":26300:26301  p */\n  dup1\n    /* \"Farm.sol\":26293:26301  return p */\n  swap2\n  pop\n  pop\n    /* \"Farm.sol\":25956:26320  function pow(uint n, uint e) public pure returns (uint) {\r... */\ntag_21:\n  swap3\n  swap2\n  pop\n  pop\n  jump\t// out\n    /* \"Farm.sol\":17293:17425  function div(uint256 a, uint256 b) internal pure returns (uint256) {\r... */\ntag_28:\n    /* \"Farm.sol\":17351:17358  uint256 */\n  0x00\n    /* \"Farm.sol\":17378:17417  div(a, b, \"SafeMath: division by zero\") */\n  tag_36\n    /* \"Farm.sol\":17382:17383  a */\n  dup4\n    /* \"Farm.sol\":17385:17386  b */\n  dup4\n    /* \"Farm.sol\":17378:17417  div(a, b, \"SafeMath: division by zero\") */\n  mload(0x40)\n  dup1\n  0x40\n  add\n  0x40\n  mstore\n  dup1\n  0x1a\n  dup2\n  mstore\n  0x20\n  add\n  0x536166654d6174683a206469766973696f6e206279207a65726f000000000000\n  dup2\n  mstore\n  pop\n    /* \"Farm.sol\":17378:17381  div */\n  shl(0x20, tag_37)\n    /* \"Farm.sol\":17378:17417  div(a, b, \"SafeMath: division by zero\") */\n  0x20\n  shr\n  jump\t// in\ntag_36:\n    /* \"Farm.sol\":17371:17417  return div(a, b, \"SafeMath: division by zero\") */\n  swap1\n  pop\n    /* \"Farm.sol\":17293:17425  function div(uint256 a, uint256 b) internal pure returns (uint256) {\r... */\n  swap3\n  swap2\n  pop\n  pop\n  jump\t// out\n    /* \"Farm.sol\":16346:16817  function mul(uint256 a, uint256 b) internal pure returns (uint256) {\r... */\ntag_30:\n    /* \"Farm.sol\":16404:16411  uint256 */\n  0x00\n    /* \"Farm.sol\":16654:16655  0 */\n  dup1\n    /* \"Farm.sol\":16649:16650  a */\n  dup4\n    /* \"Farm.sol\":16649:16655  a == 0 */\n  eq\n    /* \"Farm.sol\":16645:16692  if (a == 0) {\r... */\n  iszero\n  tag_39\n  jumpi\n    /* \"Farm.sol\":16679:16680  0 */\n  0x00\n    /* \"Farm.sol\":16672:16680  return 0 */\n  swap1\n  pop\n  jump(tag_38)\n    /* \"Farm.sol\":16645:16692  if (a == 0) {\r... */\ntag_39:\n    /* \"Farm.sol\":16704:16713  uint256 c */\n  0x00\n    /* \"Farm.sol\":16720:16721  b */\n  dup3\n    /* \"Farm.sol\":16716:16717  a */\n  dup5\n    /* \"Farm.sol\":16716:16721  a * b */\n  tag_40\n  swap2\n  swap1\n  tag_41\n  jump\t// in\ntag_40:\n    /* \"Farm.sol\":16704:16721  uint256 c = a * b */\n  swap1\n  pop\n    /* \"Farm.sol\":16749:16750  b */\n  dup3\n    /* \"Farm.sol\":16744:16745  a */\n  dup5\n    /* \"Farm.sol\":16740:16741  c */\n  dup3\n    /* \"Farm.sol\":16740:16745  c / a */\n  tag_42\n  swap2\n  swap1\n  tag_43\n  jump\t// in\ntag_42:\n    /* \"Farm.sol\":16740:16750  c / a == b */\n  eq\n    /* \"Farm.sol\":16732:16788  require(c / a == b, \"SafeMath: multiplication overflow\") */\n  tag_44\n  jumpi\n  mload(0x40)\n  0x08c379a000000000000000000000000000000000000000000000000000000000\n  dup2\n  mstore\n  0x04\n  add\n  tag_45\n  swap1\n  tag_46\n  jump\t// in\ntag_45:\n  mload(0x40)\n  dup1\n  swap2\n  sub\n  swap1\n  revert\ntag_44:\n    /* \"Farm.sol\":16808:16809  c */\n  dup1\n    /* \"Farm.sol\":16801:16809  return c */\n  swap2\n  pop\n  pop\n    /* \"Farm.sol\":16346:16817  function mul(uint256 a, uint256 b) internal pure returns (uint256) {\r... */\ntag_38:\n  swap3\n  swap2\n  pop\n  pop\n  jump\t// out\n    /* \"Farm.sol\":18664:18794  function mod(uint256 a, uint256 b) internal pure returns (uint256) {\r... */\ntag_32:\n    /* \"Farm.sol\":18722:18729  uint256 */\n  0x00\n    /* \"Farm.sol\":18749:18786  mod(a, b, \"SafeMath: modulo by zero\") */\n  tag_48\n    /* \"Farm.sol\":18753:18754  a */\n  dup4\n    /* \"Farm.sol\":18756:18757  b */\n  dup4\n    /* \"Farm.sol\":18749:18786  mod(a, b, \"SafeMath: modulo by zero\") */\n  mload(0x40)\n  dup1\n  0x40\n  add\n  0x40\n  mstore\n  dup1\n  0x18\n  dup2\n  mstore\n  0x20\n  add\n  0x536166654d6174683a206d6f64756c6f206279207a65726f0000000000000000\n  dup2\n  mstore\n  pop\n    /* \"Farm.sol\":18749:18752  mod */\n  shl(0x20, tag_49)\n    /* \"Farm.sol\":18749:18786  mod(a, b, \"SafeMath: modulo by zero\") */\n  0x20\n  shr\n  jump\t// in\ntag_48:\n    /* \"Farm.sol\":18742:18786  return mod(a, b, \"SafeMath: modulo by zero\") */\n  swap1\n  pop\n    /* \"Farm.sol\":18664:18794  function mod(uint256 a, uint256 b) internal pure returns (uint256) {\r... */\n  swap3\n  swap2\n  pop\n  pop\n  jump\t// out\n    /* \"Farm.sol\":17921:18199  function div(uint256 a, uint256 b, string memory errorMessage) internal pure returns (uint256) {\r... */\ntag_37:\n    /* \"Farm.sol\":18007:18014  uint256 */\n  0x00\n    /* \"Farm.sol\":18039:18040  0 */\n  dup1\n    /* \"Farm.sol\":18035:18036  b */\n  dup4\n    /* \"Farm.sol\":18035:18040  b > 0 */\n  gt\n    /* \"Farm.sol\":18042:18054  errorMessage */\n  dup3\n    /* \"Farm.sol\":18027:18055  require(b > 0, errorMessage) */\n  swap1\n  tag_51\n  jumpi\n  mload(0x40)\n  0x08c379a000000000000000000000000000000000000000000000000000000000\n  dup2\n  mstore\n  0x04\n  add\n  tag_52\n  swap2\n  swap1\n  tag_53\n  jump\t// in\ntag_52:\n  mload(0x40)\n  dup1\n  swap2\n  sub\n  swap1\n  revert\ntag_51:\n  pop\n    /* \"Farm.sol\":18066:18075  uint256 c */\n  0x00\n    /* \"Farm.sol\":18082:18083  b */\n  dup4\n    /* \"Farm.sol\":18078:18079  a */\n  dup6\n    /* \"Farm.sol\":18078:18083  a / b */\n  tag_54\n  swap2\n  swap1\n  tag_43\n  jump\t// in\ntag_54:\n    /* \"Farm.sol\":18066:18083  uint256 c = a / b */\n  swap1\n  pop\n    /* \"Farm.sol\":18190:18191  c */\n  dup1\n    /* \"Farm.sol\":18183:18191  return c */\n  swap2\n  pop\n  pop\n    /* \"Farm.sol\":17921:18199  function div(uint256 a, uint256 b, string memory errorMessage) internal pure returns (uint256) {\r... */\n  swap4\n  swap3\n  pop\n  pop\n  pop\n  jump\t// out\n    /* \"Farm.sol\":19279:19445  function mod(uint256 a, uint256 b, string memory errorMessage) internal pure returns (uint256) {\r... */\ntag_49:\n    /* \"Farm.sol\":19365:19372  uint256 */\n  0x00\n    /* \"Farm.sol\":19398:19399  0 */\n  dup1\n    /* \"Farm.sol\":19393:19394  b */\n  dup4\n    /* \"Farm.sol\":19393:19399  b != 0 */\n  eq\n  iszero\n    /* \"Farm.sol\":19401:19413  errorMessage */\n  dup3\n    /* \"Farm.sol\":19385:19414  require(b != 0, errorMessage) */\n  swap1\n  tag_56\n  jumpi\n  mload(0x40)\n  0x08c379a000000000000000000000000000000000000000000000000000000000\n  dup2\n  mstore\n  0x04\n  add\n  tag_57\n  swap2\n  swap1\n  tag_53\n  jump\t// in\ntag_57:\n  mload(0x40)\n  dup1\n  swap2\n  sub\n  swap1\n  revert\ntag_56:\n  pop\n    /* \"Farm.sol\":19436:19437  b */\n  dup3\n    /* \"Farm.sol\":19432:19433  a */\n  dup5\n    /* \"Farm.sol\":19432:19437  a % b */\n  tag_58\n  swap2\n  swap1\n  tag_59\n  jump\t// in\ntag_58:\n    /* \"Farm.sol\":19425:19437  return a % b */\n  swap1\n  pop\n    /* \"Farm.sol\":19279:19445  function mod(uint256 a, uint256 b, string memory errorMessage) internal pure returns (uint256) {\r... */\n  swap4\n  swap3\n  pop\n  pop\n  pop\n  jump\t// out\n    /* \"#utility.yul\":7:150   */\ntag_61:\n    /* \"#utility.yul\":64:69   */\n  0x00\n    /* \"#utility.yul\":95:101   */\n  dup2\n    /* \"#utility.yul\":89:102   */\n  mload\n    /* \"#utility.yul\":80:102   */\n  swap1\n  pop\n    /* \"#utility.yul\":111:144   */\n  tag_63\n    /* \"#utility.yul\":138:143   */\n  dup2\n    /* \"#utility.yul\":111:144   */\n  tag_64\n  jump\t// in\ntag_63:\n    /* \"#utility.yul\":7:150   */\n  swap3\n  swap2\n  pop\n  pop\n  jump\t// out\n    /* \"#utility.yul\":156:299   */\ntag_65:\n    /* \"#utility.yul\":213:218   */\n  0x00\n    /* \"#utility.yul\":244:250   */\n  dup2\n    /* \"#utility.yul\":238:251   */\n  mload\n    /* \"#utility.yul\":229:251   */\n  swap1\n  pop\n    /* \"#utility.yul\":260:293   */\n  tag_67\n    /* \"#utility.yul\":287:292   */\n  dup2\n    /* \"#utility.yul\":260:293   */\n  tag_68\n  jump\t// in\ntag_67:\n    /* \"#utility.yul\":156:299   */\n  swap3\n  swap2\n  pop\n  pop\n  jump\t// out\n    /* \"#utility.yul\":305:1125   */\ntag_3:\n    /* \"#utility.yul\":402:408   */\n  0x00\n    /* \"#utility.yul\":410:416   */\n  dup1\n    /* \"#utility.yul\":418:424   */\n  0x00\n    /* \"#utility.yul\":426:432   */\n  dup1\n    /* \"#utility.yul\":475:478   */\n  0x80\n    /* \"#utility.yul\":463:472   */\n  dup6\n    /* \"#utility.yul\":454:461   */\n  dup8\n    /* \"#utility.yul\":450:473   */\n  sub\n    /* \"#utility.yul\":446:479   */\n  slt\n    /* \"#utility.yul\":443:563   */\n  iszero\n  tag_70\n  jumpi\n    /* \"#utility.yul\":482:561   */\n  tag_71\n  tag_72\n  jump\t// in\ntag_71:\n    /* \"#utility.yul\":443:563   */\ntag_70:\n    /* \"#utility.yul\":602:603   */\n  0x00\n    /* \"#utility.yul\":627:691   */\n  tag_73\n    /* \"#utility.yul\":683:690   */\n  dup8\n    /* \"#utility.yul\":674:680   */\n  dup3\n    /* \"#utility.yul\":663:672   */\n  dup9\n    /* \"#utility.yul\":659:681   */\n  add\n    /* \"#utility.yul\":627:691   */\n  tag_61\n  jump\t// in\ntag_73:\n    /* \"#utility.yul\":617:691   */\n  swap5\n  pop\n    /* \"#utility.yul\":573:701   */\n  pop\n    /* \"#utility.yul\":740:742   */\n  0x20\n    /* \"#utility.yul\":766:830   */\n  tag_74\n    /* \"#utility.yul\":822:829   */\n  dup8\n    /* \"#utility.yul\":813:819   */\n  dup3\n    /* \"#utility.yul\":802:811   */\n  dup9\n    /* \"#utility.yul\":798:820   */\n  add\n    /* \"#utility.yul\":766:830   */\n  tag_61\n  jump\t// in\ntag_74:\n    /* \"#utility.yul\":756:830   */\n  swap4\n  pop\n    /* \"#utility.yul\":711:840   */\n  pop\n    /* \"#utility.yul\":879:881   */\n  0x40\n    /* \"#utility.yul\":905:969   */\n  tag_75\n    /* \"#utility.yul\":961:968   */\n  dup8\n    /* \"#utility.yul\":952:958   */\n  dup3\n    /* \"#utility.yul\":941:950   */\n  dup9\n    /* \"#utility.yul\":937:959   */\n  add\n    /* \"#utility.yul\":905:969   */\n  tag_65\n  jump\t// in\ntag_75:\n    /* \"#utility.yul\":895:969   */\n  swap3\n  pop\n    /* \"#utility.yul\":850:979   */\n  pop\n    /* \"#utility.yul\":1018:1020   */\n  0x60\n    /* \"#utility.yul\":1044:1108   */\n  tag_76\n    /* \"#utility.yul\":1100:1107   */\n  dup8\n    /* \"#utility.yul\":1091:1097   */\n  dup3\n    /* \"#utility.yul\":1080:1089   */\n  dup9\n    /* \"#utility.yul\":1076:1098   */\n  add\n    /* \"#utility.yul\":1044:1108   */\n  tag_65\n  jump\t// in\ntag_76:\n    /* \"#utility.yul\":1034:1108   */\n  swap2\n  pop\n    /* \"#utility.yul\":989:1118   */\n  pop\n    /* \"#utility.yul\":305:1125   */\n  swap3\n  swap6\n  swap2\n  swap5\n  pop\n  swap3\n  pop\n  jump\t// out\n    /* \"#utility.yul\":1131:1495   */\ntag_77:\n    /* \"#utility.yul\":1219:1222   */\n  0x00\n    /* \"#utility.yul\":1247:1286   */\n  tag_79\n    /* \"#utility.yul\":1280:1285   */\n  dup3\n    /* \"#utility.yul\":1247:1286   */\n  tag_80\n  jump\t// in\ntag_79:\n    /* \"#utility.yul\":1302:1373   */\n  tag_81\n    /* \"#utility.yul\":1366:1372   */\n  dup2\n    /* \"#utility.yul\":1361:1364   */\n  dup6\n    /* \"#utility.yul\":1302:1373   */\n  tag_82\n  jump\t// in\ntag_81:\n    /* \"#utility.yul\":1295:1373   */\n  swap4\n  pop\n    /* \"#utility.yul\":1382:1434   */\n  tag_83\n    /* \"#utility.yul\":1427:1433   */\n  dup2\n    /* \"#utility.yul\":1422:1425   */\n  dup6\n    /* \"#utility.yul\":1415:1419   */\n  0x20\n    /* \"#utility.yul\":1408:1413   */\n  dup7\n    /* \"#utility.yul\":1404:1420   */\n  add\n    /* \"#utility.yul\":1382:1434   */\n  tag_84\n  jump\t// in\ntag_83:\n    /* \"#utility.yul\":1459:1488   */\n  tag_85\n    /* \"#utility.yul\":1481:1487   */\n  dup2\n    /* \"#utility.yul\":1459:1488   */\n  tag_86\n  jump\t// in\ntag_85:\n    /* \"#utility.yul\":1454:1457   */\n  dup5\n    /* \"#utility.yul\":1450:1489   */\n  add\n    /* \"#utility.yul\":1443:1489   */\n  swap2\n  pop\n    /* \"#utility.yul\":1223:1495   */\n  pop\n    /* \"#utility.yul\":1131:1495   */\n  swap3\n  swap2\n  pop\n  pop\n  jump\t// out\n    /* \"#utility.yul\":1501:1867   */\ntag_87:\n    /* \"#utility.yul\":1643:1646   */\n  0x00\n    /* \"#utility.yul\":1664:1731   */\n  tag_89\n    /* \"#utility.yul\":1728:1730   */\n  0x21\n    /* \"#utility.yul\":1723:1726   */\n  dup4\n    /* \"#utility.yul\":1664:1731   */\n  tag_82\n  jump\t// in\ntag_89:\n    /* \"#utility.yul\":1657:1731   */\n  swap2\n  pop\n    /* \"#utility.yul\":1740:1833   */\n  tag_90\n    /* \"#utility.yul\":1829:1832   */\n  dup3\n    /* \"#utility.yul\":1740:1833   */\n  tag_91\n  jump\t// in\ntag_90:\n    /* \"#utility.yul\":1858:1860   */\n  0x40\n    /* \"#utility.yul\":1853:1856   */\n  dup3\n    /* \"#utility.yul\":1849:1861   */\n  add\n    /* \"#utility.yul\":1842:1861   */\n  swap1\n  pop\n    /* \"#utility.yul\":1501:1867   */\n  swap2\n  swap1\n  pop\n  jump\t// out\n    /* \"#utility.yul\":1873:2186   */\ntag_53:\n    /* \"#utility.yul\":1986:1990   */\n  0x00\n    /* \"#utility.yul\":2024:2026   */\n  0x20\n    /* \"#utility.yul\":2013:2022   */\n  dup3\n    /* \"#utility.yul\":2009:2027   */\n  add\n    /* \"#utility.yul\":2001:2027   */\n  swap1\n  pop\n    /* \"#utility.yul\":2073:2082   */\n  dup2\n    /* \"#utility.yul\":2067:2071   */\n  dup2\n    /* \"#utility.yul\":2063:2083   */\n  sub\n    /* \"#utility.yul\":2059:2060   */\n  0x00\n    /* \"#utility.yul\":2048:2057   */\n  dup4\n    /* \"#utility.yul\":2044:2061   */\n  add\n    /* \"#utility.yul\":2037:2084   */\n  mstore\n    /* \"#utility.yul\":2101:2179   */\n  tag_93\n    /* \"#utility.yul\":2174:2178   */\n  dup2\n    /* \"#utility.yul\":2165:2171   */\n  dup5\n    /* \"#utility.yul\":2101:2179   */\n  tag_77\n  jump\t// in\ntag_93:\n    /* \"#utility.yul\":2093:2179   */\n  swap1\n  pop\n    /* \"#utility.yul\":1873:2186   */\n  swap3\n  swap2\n  pop\n  pop\n  jump\t// out\n    /* \"#utility.yul\":2192:2611   */\ntag_46:\n    /* \"#utility.yul\":2358:2362   */\n  0x00\n    /* \"#utility.yul\":2396:2398   */\n  0x20\n    /* \"#utility.yul\":2385:2394   */\n  dup3\n    /* \"#utility.yul\":2381:2399   */\n  add\n    /* \"#utility.yul\":2373:2399   */\n  swap1\n  pop\n    /* \"#utility.yul\":2445:2454   */\n  dup2\n    /* \"#utility.yul\":2439:2443   */\n  dup2\n    /* \"#utility.yul\":2435:2455   */\n  sub\n    /* \"#utility.yul\":2431:2432   */\n  0x00\n    /* \"#utility.yul\":2420:2429   */\n  dup4\n    /* \"#utility.yul\":2416:2433   */\n  add\n    /* \"#utility.yul\":2409:2456   */\n  mstore\n    /* \"#utility.yul\":2473:2604   */\n  tag_95\n    /* \"#utility.yul\":2599:2603   */\n  dup2\n    /* \"#utility.yul\":2473:2604   */\n  tag_87\n  jump\t// in\ntag_95:\n    /* \"#utility.yul\":2465:2604   */\n  swap1\n  pop\n    /* \"#utility.yul\":2192:2611   */\n  swap2\n  swap1\n  pop\n  jump\t// out\n    /* \"#utility.yul\":2698:2797   */\ntag_80:\n    /* \"#utility.yul\":2750:2756   */\n  0x00\n    /* \"#utility.yul\":2784:2789   */\n  dup2\n    /* \"#utility.yul\":2778:2790   */\n  mload\n    /* \"#utility.yul\":2768:2790   */\n  swap1\n  pop\n    /* \"#utility.yul\":2698:2797   */\n  swap2\n  swap1\n  pop\n  jump\t// out\n    /* \"#utility.yul\":2803:2972   */\ntag_82:\n    /* \"#utility.yul\":2887:2898   */\n  0x00\n    /* \"#utility.yul\":2921:2927   */\n  dup3\n    /* \"#utility.yul\":2916:2919   */\n  dup3\n    /* \"#utility.yul\":2909:2928   */\n  mstore\n    /* \"#utility.yul\":2961:2965   */\n  0x20\n    /* \"#utility.yul\":2956:2959   */\n  dup3\n    /* \"#utility.yul\":2952:2966   */\n  add\n    /* \"#utility.yul\":2937:2966   */\n  swap1\n  pop\n    /* \"#utility.yul\":2803:2972   */\n  swap3\n  swap2\n  pop\n  pop\n  jump\t// out\n    /* \"#utility.yul\":2978:3163   */\ntag_43:\n    /* \"#utility.yul\":3018:3019   */\n  0x00\n    /* \"#utility.yul\":3035:3055   */\n  tag_101\n    /* \"#utility.yul\":3053:3054   */\n  dup3\n    /* \"#utility.yul\":3035:3055   */\n  tag_102\n  jump\t// in\ntag_101:\n    /* \"#utility.yul\":3030:3055   */\n  swap2\n  pop\n    /* \"#utility.yul\":3069:3089   */\n  tag_103\n    /* \"#utility.yul\":3087:3088   */\n  dup4\n    /* \"#utility.yul\":3069:3089   */\n  tag_102\n  jump\t// in\ntag_103:\n    /* \"#utility.yul\":3064:3089   */\n  swap3\n  pop\n    /* \"#utility.yul\":3108:3109   */\n  dup3\n    /* \"#utility.yul\":3098:3133   */\n  tag_104\n  jumpi\n    /* \"#utility.yul\":3113:3131   */\n  tag_105\n  tag_106\n  jump\t// in\ntag_105:\n    /* \"#utility.yul\":3098:3133   */\ntag_104:\n    /* \"#utility.yul\":3155:3156   */\n  dup3\n    /* \"#utility.yul\":3152:3153   */\n  dup3\n    /* \"#utility.yul\":3148:3157   */\n  div\n    /* \"#utility.yul\":3143:3157   */\n  swap1\n  pop\n    /* \"#utility.yul\":2978:3163   */\n  swap3\n  swap2\n  pop\n  pop\n  jump\t// out\n    /* \"#utility.yul\":3169:3517   */\ntag_41:\n    /* \"#utility.yul\":3209:3216   */\n  0x00\n    /* \"#utility.yul\":3232:3252   */\n  tag_108\n    /* \"#utility.yul\":3250:3251   */\n  dup3\n    /* \"#utility.yul\":3232:3252   */\n  tag_102\n  jump\t// in\ntag_108:\n    /* \"#utility.yul\":3227:3252   */\n  swap2\n  pop\n    /* \"#utility.yul\":3266:3286   */\n  tag_109\n    /* \"#utility.yul\":3284:3285   */\n  dup4\n    /* \"#utility.yul\":3266:3286   */\n  tag_102\n  jump\t// in\ntag_109:\n    /* \"#utility.yul\":3261:3286   */\n  swap3\n  pop\n    /* \"#utility.yul\":3454:3455   */\n  dup2\n    /* \"#utility.yul\":3386:3452   */\n  0xffffffffffffffffffffffffffffffffffffffffffffffffffffffffffffffff\n    /* \"#utility.yul\":3382:3456   */\n  div\n    /* \"#utility.yul\":3379:3380   */\n  dup4\n    /* \"#utility.yul\":3376:3457   */\n  gt\n    /* \"#utility.yul\":3371:3372   */\n  dup3\n    /* \"#utility.yul\":3364:3373   */\n  iszero\n    /* \"#utility.yul\":3357:3374   */\n  iszero\n    /* \"#utility.yul\":3353:3458   */\n  and\n    /* \"#utility.yul\":3350:3481   */\n  iszero\n  tag_110\n  jumpi\n    /* \"#utility.yul\":3461:3479   */\n  tag_111\n  tag_112\n  jump\t// in\ntag_111:\n    /* \"#utility.yul\":3350:3481   */\ntag_110:\n    /* \"#utility.yul\":3509:3510   */\n  dup3\n    /* \"#utility.yul\":3506:3507   */\n  dup3\n    /* \"#utility.yul\":3502:3511   */\n  mul\n    /* \"#utility.yul\":3491:3511   */\n  swap1\n  pop\n    /* \"#utility.yul\":3169:3517   */\n  swap3\n  swap2\n  pop\n  pop\n  jump\t// out\n    /* \"#utility.yul\":3523:3619   */\ntag_113:\n    /* \"#utility.yul\":3560:3567   */\n  0x00\n    /* \"#utility.yul\":3589:3613   */\n  tag_115\n    /* \"#utility.yul\":3607:3612   */\n  dup3\n    /* \"#utility.yul\":3589:3613   */\n  tag_116\n  jump\t// in\ntag_115:\n    /* \"#utility.yul\":3578:3613   */\n  swap1\n  pop\n    /* \"#utility.yul\":3523:3619   */\n  swap2\n  swap1\n  pop\n  jump\t// out\n    /* \"#utility.yul\":3625:3751   */\ntag_116:\n    /* \"#utility.yul\":3662:3669   */\n  0x00\n    /* \"#utility.yul\":3702:3744   */\n  0xffffffffffffffffffffffffffffffffffffffff\n    /* \"#utility.yul\":3695:3700   */\n  dup3\n    /* \"#utility.yul\":3691:3745   */\n  and\n    /* \"#utility.yul\":3680:3745   */\n  swap1\n  pop\n    /* \"#utility.yul\":3625:3751   */\n  swap2\n  swap1\n  pop\n  jump\t// out\n    /* \"#utility.yul\":3757:3834   */\ntag_102:\n    /* \"#utility.yul\":3794:3801   */\n  0x00\n    /* \"#utility.yul\":3823:3828   */\n  dup2\n    /* \"#utility.yul\":3812:3828   */\n  swap1\n  pop\n    /* \"#utility.yul\":3757:3834   */\n  swap2\n  swap1\n  pop\n  jump\t// out\n    /* \"#utility.yul\":3840:4147   */\ntag_84:\n    /* \"#utility.yul\":3908:3909   */\n  0x00\n    /* \"#utility.yul\":3918:4031   */\ntag_120:\n    /* \"#utility.yul\":3932:3938   */\n  dup4\n    /* \"#utility.yul\":3929:3930   */\n  dup2\n    /* \"#utility.yul\":3926:3939   */\n  lt\n    /* \"#utility.yul\":3918:4031   */\n  iszero\n  tag_122\n  jumpi\n    /* \"#utility.yul\":4017:4018   */\n  dup1\n    /* \"#utility.yul\":4012:4015   */\n  dup3\n    /* \"#utility.yul\":4008:4019   */\n  add\n    /* \"#utility.yul\":4002:4020   */\n  mload\n    /* \"#utility.yul\":3998:3999   */\n  dup2\n    /* \"#utility.yul\":3993:3996   */\n  dup5\n    /* \"#utility.yul\":3989:4000   */\n  add\n    /* \"#utility.yul\":3982:4021   */\n  mstore\n    /* \"#utility.yul\":3954:3956   */\n  0x20\n    /* \"#utility.yul\":3951:3952   */\n  dup2\n    /* \"#utility.yul\":3947:3957   */\n  add\n    /* \"#utility.yul\":3942:3957   */\n  swap1\n  pop\n    /* \"#utility.yul\":3918:4031   */\n  jump(tag_120)\ntag_122:\n    /* \"#utility.yul\":4049:4055   */\n  dup4\n    /* \"#utility.yul\":4046:4047   */\n  dup2\n    /* \"#utility.yul\":4043:4056   */\n  gt\n    /* \"#utility.yul\":4040:4141   */\n  iszero\n  tag_123\n  jumpi\n    /* \"#utility.yul\":4129:4130   */\n  0x00\n    /* \"#utility.yul\":4120:4126   */\n  dup5\n    /* \"#utility.yul\":4115:4118   */\n  dup5\n    /* \"#utility.yul\":4111:4127   */\n  add\n    /* \"#utility.yul\":4104:4131   */\n  mstore\n    /* \"#utility.yul\":4040:4141   */\ntag_123:\n    /* \"#utility.yul\":3889:4147   */\n  pop\n    /* \"#utility.yul\":3840:4147   */\n  pop\n  pop\n  pop\n  jump\t// out\n    /* \"#utility.yul\":4153:4329   */\ntag_59:\n    /* \"#utility.yul\":4185:4186   */\n  0x00\n    /* \"#utility.yul\":4202:4222   */\n  tag_125\n    /* \"#utility.yul\":4220:4221   */\n  dup3\n    /* \"#utility.yul\":4202:4222   */\n  tag_102\n  jump\t// in\ntag_125:\n    /* \"#utility.yul\":4197:4222   */\n  swap2\n  pop\n    /* \"#utility.yul\":4236:4256   */\n  tag_126\n    /* \"#utility.yul\":4254:4255   */\n  dup4\n    /* \"#utility.yul\":4236:4256   */\n  tag_102\n  jump\t// in\ntag_126:\n    /* \"#utility.yul\":4231:4256   */\n  swap3\n  pop\n    /* \"#utility.yul\":4275:4276   */\n  dup3\n    /* \"#utility.yul\":4265:4300   */\n  tag_127\n  jumpi\n    /* \"#utility.yul\":4280:4298   */\n  tag_128\n  tag_106\n  jump\t// in\ntag_128:\n    /* \"#utility.yul\":4265:4300   */\ntag_127:\n    /* \"#utility.yul\":4321:4322   */\n  dup3\n    /* \"#utility.yul\":4318:4319   */\n  dup3\n    /* \"#utility.yul\":4314:4323   */\n  mod\n    /* \"#utility.yul\":4309:4323   */\n  swap1\n  pop\n    /* \"#utility.yul\":4153:4329   */\n  swap3\n  swap2\n  pop\n  pop\n  jump\t// out\n    /* \"#utility.yul\":4335:4515   */\ntag_112:\n    /* \"#utility.yul\":4383:4460   */\n  0x4e487b7100000000000000000000000000000000000000000000000000000000\n    /* \"#utility.yul\":4380:4381   */\n  0x00\n    /* \"#utility.yul\":4373:4461   */\n  mstore\n    /* \"#utility.yul\":4480:4484   */\n  0x11\n    /* \"#utility.yul\":4477:4478   */\n  0x04\n    /* \"#utility.yul\":4470:4485   */\n  mstore\n    /* \"#utility.yul\":4504:4508   */\n  0x24\n    /* \"#utility.yul\":4501:4502   */\n  0x00\n    /* \"#utility.yul\":4494:4509   */\n  revert\n    /* \"#utility.yul\":4521:4701   */\ntag_106:\n    /* \"#utility.yul\":4569:4646   */\n  0x4e487b7100000000000000000000000000000000000000000000000000000000\n    /* \"#utility.yul\":4566:4567   */\n  0x00\n    /* \"#utility.yul\":4559:4647   */\n  mstore\n    /* \"#utility.yul\":4666:4670   */\n  0x12\n    /* \"#utility.yul\":4663:4664   */\n  0x04\n    /* \"#utility.yul\":4656:4671   */\n  mstore\n    /* \"#utility.yul\":4690:4694   */\n  0x24\n    /* \"#utility.yul\":4687:4688   */\n  0x00\n    /* \"#utility.yul\":4680:4695   */\n  revert\n    /* \"#utility.yul\":4830:4947   */\ntag_72:\n    /* \"#utility.yul\":4939:4940   */\n  0x00\n    /* \"#utility.yul\":4936:4937   */\n  dup1\n    /* \"#utility.yul\":4929:4941   */\n  revert\n    /* \"#utility.yul\":4953:5055   */\ntag_86:\n    /* \"#utility.yul\":4994:5000   */\n  0x00\n    /* \"#utility.yul\":5045:5047   */\n  0x1f\n    /* \"#utility.yul\":5041:5048   */\n  not\n    /* \"#utility.yul\":5036:5038   */\n  0x1f\n    /* \"#utility.yul\":5029:5034   */\n  dup4\n    /* \"#utility.yul\":5025:5039   */\n  add\n    /* \"#utility.yul\":5021:5049   */\n  and\n    /* \"#utility.yul\":5011:5049   */\n  swap1\n  pop\n    /* \"#utility.yul\":4953:5055   */\n  swap2\n  swap1\n  pop\n  jump\t// out\n    /* \"#utility.yul\":5061:5281   */\ntag_91:\n    /* \"#utility.yul\":5201:5235   */\n  0x536166654d6174683a206d756c7469706c69636174696f6e206f766572666c6f\n    /* \"#utility.yul\":5197:5198   */\n  0x00\n    /* \"#utility.yul\":5189:5195   */\n  dup3\n    /* \"#utility.yul\":5185:5199   */\n  add\n    /* \"#utility.yul\":5178:5236   */\n  mstore\n    /* \"#utility.yul\":5270:5273   */\n  0x7700000000000000000000000000000000000000000000000000000000000000\n    /* \"#utility.yul\":5265:5267   */\n  0x20\n    /* \"#utility.yul\":5257:5263   */\n  dup3\n    /* \"#utility.yul\":5253:5268   */\n  add\n    /* \"#utility.yul\":5246:5274   */\n  mstore\n    /* \"#utility.yul\":5061:5281   */\n  pop\n  jump\t// out\n    /* \"#utility.yul\":5287:5409   */\ntag_64:\n    /* \"#utility.yul\":5360:5384   */\n  tag_137\n    /* \"#utility.yul\":5378:5383   */\n  dup2\n    /* \"#utility.yul\":5360:5384   */\n  tag_113\n  jump\t// in\ntag_137:\n    /* \"#utility.yul\":5353:5358   */\n  dup2\n    /* \"#utility.yul\":5350:5385   */\n  eq\n    /* \"#utility.yul\":5340:5403   */\n  tag_138\n  jumpi\n    /* \"#utility.yul\":5399:5400   */\n  0x00\n    /* \"#utility.yul\":5396:5397   */\n  dup1\n    /* \"#utility.yul\":5389:5401   */\n  revert\n    /* \"#utility.yul\":5340:5403   */\ntag_138:\n    /* \"#utility.yul\":5287:5409   */\n  pop\n  jump\t// out\n    /* \"#utility.yul\":5415:5537   */\ntag_68:\n    /* \"#utility.yul\":5488:5512   */\n  tag_140\n    /* \"#utility.yul\":5506:5511   */\n  dup2\n    /* \"#utility.yul\":5488:5512   */\n  tag_102\n  jump\t// in\ntag_140:\n    /* \"#utility.yul\":5481:5486   */\n  dup2\n    /* \"#utility.yul\":5478:5513   */\n  eq\n    /* \"#utility.yul\":5468:5531   */\n  tag_141\n  jumpi\n    /* \"#utility.yul\":5527:5528   */\n  0x00\n    /* \"#utility.yul\":5524:5525   */\n  dup1\n    /* \"#utility.yul\":5517:5529   */\n  revert\n    /* \"#utility.yul\":5468:5531   */\ntag_141:\n    /* \"#utility.yul\":5415:5537   */\n  pop\n  jump\t// out\n    /* \"Farm.sol\":24654:32087  contract Farm is ReentrancyGuard, Pausable, Ownable, IERC721Receiver {\r... */\ntag_18:\n  dataSize(sub_0)\n  dup1\n  dataOffset(sub_0)\n  0x00\n  codecopy\n  0x00\n  return\nstop\n\nsub_0: assembly {\n        /* \"Farm.sol\":24654:32087  contract Farm is ReentrancyGuard, Pausable, Ownable, IERC721Receiver {\r... */\n      mstore(0x40, 0x80)\n      callvalue\n      dup1\n      iszero\n      tag_1\n      jumpi\n      0x00\n      dup1\n      revert\n    tag_1:\n      pop\n      jumpi(tag_2, lt(calldatasize, 0x04))\n      shr(0xe0, calldataload(0x00))\n      dup1\n      0x7b0a47ee\n      gt\n      tag_33\n      jumpi\n      dup1\n      0xc8f33c91\n      gt\n      tag_34\n      jumpi\n      dup1\n      0xdf136d65\n      gt\n      tag_35\n      jumpi\n      dup1\n      0xdf136d65\n      eq\n      tag_29\n      jumpi\n      dup1\n      0xe9fad8ee\n      eq\n      tag_30\n      jumpi\n      dup1\n      0xebe2b12b\n      eq\n      tag_31\n      jumpi\n      dup1\n      0xf2fde38b\n      eq\n      tag_32\n      jumpi\n      jump(tag_2)\n    tag_35:\n      dup1\n      0xc8f33c91\n      eq\n      tag_25\n      jumpi\n      dup1\n      0xcc1a378f\n      eq\n      tag_26\n      jumpi\n      dup1\n      0xcd3daf9d\n      eq\n      tag_27\n      jumpi\n      dup1\n      0xd1af0c7d\n      eq\n      tag_28\n      jumpi\n      jump(tag_2)\n    tag_34:\n      dup1\n      0x8b876347\n      gt\n      tag_36\n      jumpi\n      dup1\n      0x8b876347\n      eq\n      tag_21\n      jumpi\n      dup1\n      0x8da5cb5b\n      eq\n      tag_22\n      jumpi\n      dup1\n      0xa694fc3a\n      eq\n      tag_23\n      jumpi\n      dup1\n      0xa85fe3b7\n      eq\n      tag_24\n      jumpi\n      jump(tag_2)\n    tag_36:\n      dup1\n      0x7b0a47ee\n      eq\n      tag_18\n      jumpi\n      dup1\n      0x80faa57d\n      eq\n      tag_19\n      jumpi\n      dup1\n      0x8980f11f\n      eq\n      tag_20\n      jumpi\n      jump(tag_2)\n    tag_33:\n      dup1\n      0x386a9525\n      gt\n      tag_37\n      jumpi\n      dup1\n      0x70a08231\n      gt\n      tag_38\n      jumpi\n      dup1\n      0x70a08231\n      eq\n      tag_14\n      jumpi\n      dup1\n      0x715018a6\n      eq\n      tag_15\n      jumpi\n      dup1\n      0x72f702f3\n      eq\n      tag_16\n      jumpi\n      dup1\n      0x7ae2b5c7\n      eq\n      tag_17\n      jumpi\n      jump(tag_2)\n    tag_38:\n      dup1\n      0x386a9525\n      eq\n      tag_10\n      jumpi\n      dup1\n      0x3c6b16ab\n      eq\n      tag_11\n      jumpi\n      dup1\n      0x3d18b912\n      eq\n      tag_12\n      jumpi\n      dup1\n      0x5c975abb\n      eq\n      tag_13\n      jumpi\n      jump(tag_2)\n    tag_37:\n      dup1\n      0x18160ddd\n      gt\n      tag_39\n      jumpi\n      dup1\n      0x18160ddd\n      eq\n      tag_6\n      jumpi\n      dup1\n      0x1c1f78eb\n      eq\n      tag_7\n      jumpi\n      dup1\n      0x2e1a7d4d\n      eq\n      tag_8\n      jumpi\n      dup1\n      0x2e4c697f\n      eq\n      tag_9\n      jumpi\n      jump(tag_2)\n    tag_39:\n      dup1\n      0x8cc262\n      eq\n      tag_3\n      jumpi\n      dup1\n      0x0700037d\n      eq\n      tag_4\n      jumpi\n      dup1\n      0x150b7a02\n      eq\n      tag_5\n      jumpi\n    tag_2:\n      0x00\n      dup1\n      revert\n        /* \"Farm.sol\":26984:27241  function earned(address account) public view returns (uint256) {\r... */\n    tag_3:\n      tag_40\n      0x04\n      dup1\n      calldatasize\n      sub\n      dup2\n      add\n      swap1\n      tag_41\n      swap2\n      swap1\n      tag_42\n      jump\t// in\n    tag_41:\n      tag_43\n      jump\t// in\n    tag_40:\n      mload(0x40)\n      tag_44\n      swap2\n      swap1\n      tag_45\n      jump\t// in\n    tag_44:\n      mload(0x40)\n      dup1\n      swap2\n      sub\n      swap1\n      return\n        /* \"Farm.sol\":25247:25289  mapping(address => uint256) public rewards */\n    tag_4:\n      tag_46\n      0x04\n      dup1\n      calldatasize\n      sub\n      dup2\n      add\n      swap1\n      tag_47\n      swap2\n      swap1\n      tag_42\n      jump\t// in\n    tag_47:\n      tag_48\n      jump\t// in\n    tag_46:\n      mload(0x40)\n      tag_49\n      swap2\n      swap1\n      tag_45\n      jump\t// in\n    tag_49:\n      mload(0x40)\n      dup1\n      swap2\n      sub\n      swap1\n      return\n        /* \"Farm.sol\":27544:27812  function onERC721Received(\r... */\n    tag_5:\n      tag_50\n      0x04\n      dup1\n      calldatasize\n      sub\n      dup2\n      add\n      swap1\n      tag_51\n      swap2\n      swap1\n      tag_52\n      jump\t// in\n    tag_51:\n      tag_53\n      jump\t// in\n    tag_50:\n      mload(0x40)\n      tag_54\n      swap2\n      swap1\n      tag_55\n      jump\t// in\n    tag_54:\n      mload(0x40)\n      dup1\n      swap2\n      sub\n      swap1\n      return\n        /* \"Farm.sol\":25855:25948  function totalSupply() external view returns (uint256) {\r... */\n    tag_6:\n      tag_56\n      tag_57\n      jump\t// in\n    tag_56:\n      mload(0x40)\n      tag_58\n      swap2\n      swap1\n      tag_45\n      jump\t// in\n    tag_58:\n      mload(0x40)\n      dup1\n      swap2\n      sub\n      swap1\n      return\n        /* \"Farm.sol\":27249:27370  function getRewardForDuration() external view returns (uint256) {\r... */\n    tag_7:\n      tag_59\n      tag_60\n      jump\t// in\n    tag_59:\n      mload(0x40)\n      tag_61\n      swap2\n      swap1\n      tag_45\n      jump\t// in\n    tag_61:\n      mload(0x40)\n      dup1\n      swap2\n      sub\n      swap1\n      return\n        /* \"Farm.sol\":28236:28615  function withdraw(uint256 amount)\r... */\n    tag_8:\n      tag_62\n      0x04\n      dup1\n      calldatasize\n      sub\n      dup2\n      add\n      swap1\n      tag_63\n      swap2\n      swap1\n      tag_64\n      jump\t// in\n    tag_63:\n      tag_65\n      jump\t// in\n    tag_62:\n      stop\n        /* \"Farm.sol\":25956:26320  function pow(uint n, uint e) public pure returns (uint) {\r... */\n    tag_9:\n      tag_66\n      0x04\n      dup1\n      calldatasize\n      sub\n      dup2\n      add\n      swap1\n      tag_67\n      swap2\n      swap1\n      tag_68\n      jump\t// in\n    tag_67:\n      tag_69\n      jump\t// in\n    tag_66:\n      mload(0x40)\n      tag_70\n      swap2\n      swap1\n      tag_45\n      jump\t// in\n    tag_70:\n      mload(0x40)\n      dup1\n      swap2\n      sub\n      swap1\n      return\n        /* \"Farm.sol\":24989:25019  uint256 public rewardsDuration */\n    tag_10:\n      tag_71\n      tag_72\n      jump\t// in\n    tag_71:\n      mload(0x40)\n      tag_73\n      swap2\n      swap1\n      tag_45\n      jump\t// in\n    tag_73:\n      mload(0x40)\n      dup1\n      swap2\n      sub\n      swap1\n      return\n        /* \"Farm.sol\":29099:30228  function notifyRewardAmount(uint256 reward)\r... */\n    tag_11:\n      tag_74\n      0x04\n      dup1\n      calldatasize\n      sub\n      dup2\n      add\n      swap1\n      tag_75\n      swap2\n      swap1\n      tag_64\n      jump\t// in\n    tag_75:\n      tag_76\n      jump\t// in\n    tag_74:\n      stop\n        /* \"Farm.sol\":28623:28930  function getReward() public nonReentrant updateReward(msg.sender) {\r... */\n    tag_12:\n      tag_77\n      tag_78\n      jump\t// in\n    tag_77:\n      stop\n        /* \"Farm.sol\":11748:11834  function paused() public view virtual returns (bool) {\r... */\n    tag_13:\n      tag_79\n      tag_80\n      jump\t// in\n    tag_79:\n      mload(0x40)\n      tag_81\n      swap2\n      swap1\n      tag_82\n      jump\t// in\n    tag_81:\n      mload(0x40)\n      dup1\n      swap2\n      sub\n      swap1\n      return\n        /* \"Farm.sol\":26328:26440  function balanceOf(address account) external view returns (uint256) {\r... */\n    tag_14:\n      tag_83\n      0x04\n      dup1\n      calldatasize\n      sub\n      dup2\n      add\n      swap1\n      tag_84\n      swap2\n      swap1\n      tag_42\n      jump\t// in\n    tag_84:\n      tag_85\n      jump\t// in\n    tag_83:\n      mload(0x40)\n      tag_86\n      swap2\n      swap1\n      tag_45\n      jump\t// in\n    tag_86:\n      mload(0x40)\n      dup1\n      swap2\n      sub\n      swap1\n      return\n        /* \"Farm.sol\":23835:23938  function renounceOwnership() public virtual onlyOwner {\r... */\n    tag_15:\n      tag_87\n      tag_88\n      jump\t// in\n    tag_87:\n      stop\n        /* \"Farm.sol\":24882:24908  IERC20 public stakingToken */\n    tag_16:\n      tag_89\n      tag_90\n      jump\t// in\n    tag_89:\n      mload(0x40)\n      tag_91\n      swap2\n      swap1\n      tag_92\n      jump\t// in\n    tag_91:\n      mload(0x40)\n      dup1\n      swap2\n      sub\n      swap1\n      return\n        /* \"Farm.sol\":27378:27482  function min(uint256 a, uint256 b) public pure returns (uint256) {\r... */\n    tag_17:\n      tag_93\n      0x04\n      dup1\n      calldatasize\n      sub\n      dup2\n      add\n      swap1\n      tag_94\n      swap2\n      swap1\n      tag_68\n      jump\t// in\n    tag_94:\n      tag_95\n      jump\t// in\n    tag_93:\n      mload(0x40)\n      tag_96\n      swap2\n      swap1\n      tag_45\n      jump\t// in\n    tag_96:\n      mload(0x40)\n      dup1\n      swap2\n      sub\n      swap1\n      return\n        /* \"Farm.sol\":24953:24982  uint256 public rewardRate = 0 */\n    tag_18:\n      tag_97\n      tag_98\n      jump\t// in\n    tag_97:\n      mload(0x40)\n      tag_99\n      swap2\n      swap1\n      tag_45\n      jump\t// in\n    tag_99:\n      mload(0x40)\n      dup1\n      swap2\n      sub\n      swap1\n      return\n        /* \"Farm.sol\":26448:26574  function lastTimeRewardApplicable() public view returns (uint256) {\r... */\n    tag_19:\n      tag_100\n      tag_101\n      jump\t// in\n    tag_100:\n      mload(0x40)\n      tag_102\n      swap2\n      swap1\n      tag_45\n      jump\t// in\n    tag_102:\n      mload(0x40)\n      dup1\n      swap2\n      sub\n      swap1\n      return\n        /* \"Farm.sol\":30343:30962  function recoverERC20(address tokenAddress, uint256 tokenAmount)\r... */\n    tag_20:\n      tag_103\n      0x04\n      dup1\n      calldatasize\n      sub\n      dup2\n      add\n      swap1\n      tag_104\n      swap2\n      swap1\n      tag_105\n      jump\t// in\n    tag_104:\n      tag_106\n      jump\t// in\n    tag_103:\n      stop\n        /* \"Farm.sol\":25183:25240  mapping(address => uint256) public userRewardPerTokenPaid */\n    tag_21:\n      tag_107\n      0x04\n      dup1\n      calldatasize\n      sub\n      dup2\n      add\n      swap1\n      tag_108\n      swap2\n      swap1\n      tag_42\n      jump\t// in\n    tag_108:\n      tag_109\n      jump\t// in\n    tag_107:\n      mload(0x40)\n      tag_110\n      swap2\n      swap1\n      tag_45\n      jump\t// in\n    tag_110:\n      mload(0x40)\n      dup1\n      swap2\n      sub\n      swap1\n      return\n        /* \"Farm.sol\":23187:23274  function owner() public view virtual returns (address) {\r... */\n    tag_22:\n      tag_111\n      tag_112\n      jump\t// in\n    tag_111:\n      mload(0x40)\n      tag_113\n      swap2\n      swap1\n      tag_114\n      jump\t// in\n    tag_113:\n      mload(0x40)\n      dup1\n      swap2\n      sub\n      swap1\n      return\n        /* \"Farm.sol\":27820:28228  function stake(uint256 amount)\r... */\n    tag_23:\n      tag_115\n      0x04\n      dup1\n      calldatasize\n      sub\n      dup2\n      add\n      swap1\n      tag_116\n      swap2\n      swap1\n      tag_64\n      jump\t// in\n    tag_116:\n      tag_117\n      jump\t// in\n    tag_115:\n      stop\n        /* \"Farm.sol\":25104:25143  uint256 public stakingTokensDecimalRate */\n    tag_24:\n      tag_118\n      tag_119\n      jump\t// in\n    tag_118:\n      mload(0x40)\n      tag_120\n      swap2\n      swap1\n      tag_45\n      jump\t// in\n    tag_120:\n      mload(0x40)\n      dup1\n      swap2\n      sub\n      swap1\n      return\n        /* \"Farm.sol\":25026:25055  uint256 public lastUpdateTime */\n    tag_25:\n      tag_121\n      tag_122\n      jump\t// in\n    tag_121:\n      mload(0x40)\n      tag_123\n      swap2\n      swap1\n      tag_45\n      jump\t// in\n    tag_123:\n      mload(0x40)\n      dup1\n      swap2\n      sub\n      swap1\n      return\n        /* \"Farm.sol\":30970:31330  function setRewardsDuration(uint256 _rewardsDuration) external onlyOwner {\r... */\n    tag_26:\n      tag_124\n      0x04\n      dup1\n      calldatasize\n      sub\n      dup2\n      add\n      swap1\n      tag_125\n      swap2\n      swap1\n      tag_64\n      jump\t// in\n    tag_125:\n      tag_126\n      jump\t// in\n    tag_124:\n      stop\n        /* \"Farm.sol\":26582:26976  function rewardPerToken() public view returns (uint256) {\r... */\n    tag_27:\n      tag_127\n      tag_128\n      jump\t// in\n    tag_127:\n      mload(0x40)\n      tag_129\n      swap2\n      swap1\n      tag_45\n      jump\t// in\n    tag_129:\n      mload(0x40)\n      dup1\n      swap2\n      sub\n      swap1\n      return\n        /* \"Farm.sol\":24849:24875  IERC20 public rewardsToken */\n    tag_28:\n      tag_130\n      tag_131\n      jump\t// in\n    tag_130:\n      mload(0x40)\n      tag_132\n      swap2\n      swap1\n      tag_92\n      jump\t// in\n    tag_132:\n      mload(0x40)\n      dup1\n      swap2\n      sub\n      swap1\n      return\n        /* \"Farm.sol\":25062:25097  uint256 public rewardPerTokenStored */\n    tag_29:\n      tag_133\n      tag_134\n      jump\t// in\n    tag_133:\n      mload(0x40)\n      tag_135\n      swap2\n      swap1\n      tag_45\n      jump\t// in\n    tag_135:\n      mload(0x40)\n      dup1\n      swap2\n      sub\n      swap1\n      return\n        /* \"Farm.sol\":28938:29035  function exit() external {\r... */\n    tag_30:\n      tag_136\n      tag_137\n      jump\t// in\n    tag_136:\n      stop\n        /* \"Farm.sol\":24915:24946  uint256 public periodFinish = 0 */\n    tag_31:\n      tag_138\n      tag_139\n      jump\t// in\n    tag_138:\n      mload(0x40)\n      tag_140\n      swap2\n      swap1\n      tag_45\n      jump\t// in\n    tag_140:\n      mload(0x40)\n      dup1\n      swap2\n      sub\n      swap1\n      return\n        /* \"Farm.sol\":24093:24294  function transferOwnership(address newOwner) public virtual onlyOwner {\r... */\n    tag_32:\n      tag_141\n      0x04\n      dup1\n      calldatasize\n      sub\n      dup2\n      add\n      swap1\n      tag_142\n      swap2\n      swap1\n      tag_42\n      jump\t// in\n    tag_142:\n      tag_143\n      jump\t// in\n    tag_141:\n      stop\n        /* \"Farm.sol\":26984:27241  function earned(address account) public view returns (uint256) {\r... */\n    tag_43:\n        /* \"Farm.sol\":27038:27045  uint256 */\n      0x00\n        /* \"Farm.sol\":27074:27233  _balances[account]\r... */\n      tag_148\n        /* \"Farm.sol\":27216:27223  rewards */\n      0x0c\n        /* \"Farm.sol\":27216:27232  rewards[account] */\n      0x00\n        /* \"Farm.sol\":27224:27231  account */\n      dup5\n        /* \"Farm.sol\":27216:27232  rewards[account] */\n      0xffffffffffffffffffffffffffffffffffffffff\n      and\n      0xffffffffffffffffffffffffffffffffffffffff\n      and\n      dup2\n      mstore\n      0x20\n      add\n      swap1\n      dup2\n      mstore\n      0x20\n      add\n      0x00\n      keccak256\n      sload\n        /* \"Farm.sol\":27074:27201  _balances[account]\r... */\n      tag_149\n        /* \"Farm.sol\":27176:27200  stakingTokensDecimalRate */\n      sload(0x09)\n        /* \"Farm.sol\":27074:27161  _balances[account]\r... */\n      tag_150\n        /* \"Farm.sol\":27107:27160  rewardPerToken().sub(userRewardPerTokenPaid[account]) */\n      tag_151\n        /* \"Farm.sol\":27128:27150  userRewardPerTokenPaid */\n      0x0b\n        /* \"Farm.sol\":27128:27159  userRewardPerTokenPaid[account] */\n      0x00\n        /* \"Farm.sol\":27151:27158  account */\n      dup10\n        /* \"Farm.sol\":27128:27159  userRewardPerTokenPaid[account] */\n      0xffffffffffffffffffffffffffffffffffffffff\n      and\n      0xffffffffffffffffffffffffffffffffffffffff\n      and\n      dup2\n      mstore\n      0x20\n      add\n      swap1\n      dup2\n      mstore\n      0x20\n      add\n      0x00\n      keccak256\n      sload\n        /* \"Farm.sol\":27107:27123  rewardPerToken() */\n      tag_152\n        /* \"Farm.sol\":27107:27121  rewardPerToken */\n      tag_128\n        /* \"Farm.sol\":27107:27123  rewardPerToken() */\n      jump\t// in\n    tag_152:\n        /* \"Farm.sol\":27107:27127  rewardPerToken().sub */\n      tag_153\n      swap1\n        /* \"Farm.sol\":27107:27160  rewardPerToken().sub(userRewardPerTokenPaid[account]) */\n      swap2\n      swap1\n      0xffffffff\n      and\n      jump\t// in\n    tag_151:\n        /* \"Farm.sol\":27074:27083  _balances */\n      0x0e\n        /* \"Farm.sol\":27074:27092  _balances[account] */\n      0x00\n        /* \"Farm.sol\":27084:27091  account */\n      dup10\n        /* \"Farm.sol\":27074:27092  _balances[account] */\n      0xffffffffffffffffffffffffffffffffffffffff\n      and\n      0xffffffffffffffffffffffffffffffffffffffff\n      and\n      dup2\n      mstore\n      0x20\n      add\n      swap1\n      dup2\n      mstore\n      0x20\n      add\n      0x00\n      keccak256\n      sload\n        /* \"Farm.sol\":27074:27106  _balances[account]\r... */\n      tag_145\n      swap1\n        /* \"Farm.sol\":27074:27161  _balances[account]\r... */\n      swap2\n      swap1\n      0xffffffff\n      and\n      jump\t// in\n    tag_150:\n        /* \"Farm.sol\":27074:27175  _balances[account]\r... */\n      tag_144\n      swap1\n        /* \"Farm.sol\":27074:27201  _balances[account]\r... */\n      swap2\n      swap1\n      0xffffffff\n      and\n      jump\t// in\n    tag_149:\n        /* \"Farm.sol\":27074:27215  _balances[account]\r... */\n      tag_154\n      swap1\n        /* \"Farm.sol\":27074:27233  _balances[account]\r... */\n      swap2\n      swap1\n      0xffffffff\n      and\n      jump\t// in\n    tag_148:\n        /* \"Farm.sol\":27058:27233  return\r... */\n      swap1\n      pop\n        /* \"Farm.sol\":26984:27241  function earned(address account) public view returns (uint256) {\r... */\n      swap2\n      swap1\n      pop\n      jump\t// out\n        /* \"Farm.sol\":25247:25289  mapping(address => uint256) public rewards */\n    tag_48:\n      mstore(0x20, 0x0c)\n      dup1\n      0x00\n      mstore\n      keccak256(0x00, 0x40)\n      0x00\n      swap2\n      pop\n      swap1\n      pop\n      sload\n      dup2\n      jump\t// out\n        /* \"Farm.sol\":27544:27812  function onERC721Received(\r... */\n    tag_53:\n        /* \"Farm.sol\":27710:27716  bytes4 */\n      0x00\n        /* \"Farm.sol\":27743:27803  keccak256(\"onERC721Received(address,address,uint256,bytes)\") */\n      0x150b7a023d4804d13e8c85fb27262cb750cf6ba9f9dd3bb30d90f482ceeb4b1f\n        /* \"Farm.sol\":27729:27804  return bytes4(keccak256(\"onERC721Received(address,address,uint256,bytes)\")) */\n      swap1\n      pop\n        /* \"Farm.sol\":27544:27812  function onERC721Received(\r... */\n      swap6\n      swap5\n      pop\n      pop\n      pop\n      pop\n      pop\n      jump\t// out\n        /* \"Farm.sol\":25855:25948  function totalSupply() external view returns (uint256) {\r... */\n    tag_57:\n        /* \"Farm.sol\":25901:25908  uint256 */\n      0x00\n        /* \"Farm.sol\":25928:25940  _totalSupply */\n      sload(0x0d)\n        /* \"Farm.sol\":25921:25940  return _totalSupply */\n      swap1\n      pop\n        /* \"Farm.sol\":25855:25948  function totalSupply() external view returns (uint256) {\r... */\n      swap1\n      jump\t// out\n        /* \"Farm.sol\":27249:27370  function getRewardForDuration() external view returns (uint256) {\r... */\n    tag_60:\n        /* \"Farm.sol\":27304:27311  uint256 */\n      0x00\n        /* \"Farm.sol\":27331:27362  rewardRate.mul(rewardsDuration) */\n      tag_158\n        /* \"Farm.sol\":27346:27361  rewardsDuration */\n      sload(0x06)\n        /* \"Farm.sol\":27331:27341  rewardRate */\n      sload(0x05)\n        /* \"Farm.sol\":27331:27345  rewardRate.mul */\n      tag_145\n      swap1\n        /* \"Farm.sol\":27331:27362  rewardRate.mul(rewardsDuration) */\n      swap2\n      swap1\n      0xffffffff\n      and\n      jump\t// in\n    tag_158:\n        /* \"Farm.sol\":27324:27362  return rewardRate.mul(rewardsDuration) */\n      swap1\n      pop\n        /* \"Farm.sol\":27249:27370  function getRewardForDuration() external view returns (uint256) {\r... */\n      swap1\n      jump\t// out\n        /* \"Farm.sol\":28236:28615  function withdraw(uint256 amount)\r... */\n    tag_65:\n        /* \"Farm.sol\":14132:14153  _nonReentrantBefore() */\n      tag_160\n        /* \"Farm.sol\":14132:14151  _nonReentrantBefore */\n      tag_161\n        /* \"Farm.sol\":14132:14153  _nonReentrantBefore() */\n      jump\t// in\n    tag_160:\n        /* \"Farm.sol\":28318:28328  msg.sender */\n      caller\n        /* \"Farm.sol\":31456:31472  rewardPerToken() */\n      tag_163\n        /* \"Farm.sol\":31456:31470  rewardPerToken */\n      tag_128\n        /* \"Farm.sol\":31456:31472  rewardPerToken() */\n      jump\t// in\n    tag_163:\n        /* \"Farm.sol\":31433:31453  rewardPerTokenStored */\n      0x08\n        /* \"Farm.sol\":31433:31472  rewardPerTokenStored = rewardPerToken() */\n      dup2\n      swap1\n      sstore\n      pop\n        /* \"Farm.sol\":31500:31526  lastTimeRewardApplicable() */\n      tag_164\n        /* \"Farm.sol\":31500:31524  lastTimeRewardApplicable */\n      tag_101\n        /* \"Farm.sol\":31500:31526  lastTimeRewardApplicable() */\n      jump\t// in\n    tag_164:\n        /* \"Farm.sol\":31483:31497  lastUpdateTime */\n      0x07\n        /* \"Farm.sol\":31483:31526  lastUpdateTime = lastTimeRewardApplicable() */\n      dup2\n      swap1\n      sstore\n      pop\n        /* \"Farm.sol\":31560:31561  0 */\n      0x00\n        /* \"Farm.sol\":31541:31562  account != address(0) */\n      0xffffffffffffffffffffffffffffffffffffffff\n      and\n        /* \"Farm.sol\":31541:31548  account */\n      dup2\n        /* \"Farm.sol\":31541:31562  account != address(0) */\n      0xffffffffffffffffffffffffffffffffffffffff\n      and\n      eq\n        /* \"Farm.sol\":31537:31694  if (account != address(0)) {\r... */\n      tag_165\n      jumpi\n        /* \"Farm.sol\":31598:31613  earned(account) */\n      tag_166\n        /* \"Farm.sol\":31605:31612  account */\n      dup2\n        /* \"Farm.sol\":31598:31604  earned */\n      tag_43\n        /* \"Farm.sol\":31598:31613  earned(account) */\n      jump\t// in\n    tag_166:\n        /* \"Farm.sol\":31579:31586  rewards */\n      0x0c\n        /* \"Farm.sol\":31579:31595  rewards[account] */\n      0x00\n        /* \"Farm.sol\":31587:31594  account */\n      dup4\n        /* \"Farm.sol\":31579:31595  rewards[account] */\n      0xffffffffffffffffffffffffffffffffffffffff\n      and\n      0xffffffffffffffffffffffffffffffffffffffff\n      and\n      dup2\n      mstore\n      0x20\n      add\n      swap1\n      dup2\n      mstore\n      0x20\n      add\n      0x00\n      keccak256\n        /* \"Farm.sol\":31579:31613  rewards[account] = earned(account) */\n      dup2\n      swap1\n      sstore\n      pop\n        /* \"Farm.sol\":31662:31682  rewardPerTokenStored */\n      sload(0x08)\n        /* \"Farm.sol\":31628:31650  userRewardPerTokenPaid */\n      0x0b\n        /* \"Farm.sol\":31628:31659  userRewardPerTokenPaid[account] */\n      0x00\n        /* \"Farm.sol\":31651:31658  account */\n      dup4\n        /* \"Farm.sol\":31628:31659  userRewardPerTokenPaid[account] */\n      0xffffffffffffffffffffffffffffffffffffffff\n      and\n      0xffffffffffffffffffffffffffffffffffffffff\n      and\n      dup2\n      mstore\n      0x20\n      add\n      swap1\n      dup2\n      mstore\n      0x20\n      add\n      0x00\n      keccak256\n        /* \"Farm.sol\":31628:31682  userRewardPerTokenPaid[account] = rewardPerTokenStored */\n      dup2\n      swap1\n      sstore\n      pop\n        /* \"Farm.sol\":31537:31694  if (account != address(0)) {\r... */\n    tag_165:\n        /* \"Farm.sol\":28363:28364  0 */\n      0x00\n        /* \"Farm.sol\":28354:28360  amount */\n      dup3\n        /* \"Farm.sol\":28354:28364  amount > 0 */\n      gt\n        /* \"Farm.sol\":28346:28386  require(amount > 0, \"Cannot withdraw 0\") */\n      tag_168\n      jumpi\n      mload(0x40)\n      0x08c379a000000000000000000000000000000000000000000000000000000000\n      dup2\n      mstore\n      0x04\n      add\n      tag_169\n      swap1\n      tag_170\n      jump\t// in\n    tag_169:\n      mload(0x40)\n      dup1\n      swap2\n      sub\n      swap1\n      revert\n    tag_168:\n        /* \"Farm.sol\":28414:28438  _totalSupply.sub(amount) */\n      tag_171\n        /* \"Farm.sol\":28431:28437  amount */\n      dup3\n        /* \"Farm.sol\":28414:28426  _totalSupply */\n      sload(0x0d)\n        /* \"Farm.sol\":28414:28430  _totalSupply.sub */\n      tag_153\n      swap1\n        /* \"Farm.sol\":28414:28438  _totalSupply.sub(amount) */\n      swap2\n      swap1\n      0xffffffff\n      and\n      jump\t// in\n    tag_171:\n        /* \"Farm.sol\":28399:28411  _totalSupply */\n      0x0d\n        /* \"Farm.sol\":28399:28438  _totalSupply = _totalSupply.sub(amount) */\n      dup2\n      swap1\n      sstore\n      pop\n        /* \"Farm.sol\":28473:28506  _balances[msg.sender].sub(amount) */\n      tag_172\n        /* \"Farm.sol\":28499:28505  amount */\n      dup3\n        /* \"Farm.sol\":28473:28482  _balances */\n      0x0e\n        /* \"Farm.sol\":28473:28494  _balances[msg.sender] */\n      0x00\n        /* \"Farm.sol\":28483:28493  msg.sender */\n      caller\n        /* \"Farm.sol\":28473:28494  _balances[msg.sender] */\n      0xffffffffffffffffffffffffffffffffffffffff\n      and\n      0xffffffffffffffffffffffffffffffffffffffff\n      and\n      dup2\n      mstore\n      0x20\n      add\n      swap1\n      dup2\n      mstore\n      0x20\n      add\n      0x00\n      keccak256\n      sload\n        /* \"Farm.sol\":28473:28498  _balances[msg.sender].sub */\n      tag_153\n      swap1\n        /* \"Farm.sol\":28473:28506  _balances[msg.sender].sub(amount) */\n      swap2\n      swap1\n      0xffffffff\n      and\n      jump\t// in\n    tag_172:\n        /* \"Farm.sol\":28449:28458  _balances */\n      0x0e\n        /* \"Farm.sol\":28449:28470  _balances[msg.sender] */\n      0x00\n        /* \"Farm.sol\":28459:28469  msg.sender */\n      caller\n        /* \"Farm.sol\":28449:28470  _balances[msg.sender] */\n      0xffffffffffffffffffffffffffffffffffffffff\n      and\n      0xffffffffffffffffffffffffffffffffffffffff\n      and\n      dup2\n      mstore\n      0x20\n      add\n      swap1\n      dup2\n      mstore\n      0x20\n      add\n      0x00\n      keccak256\n        /* \"Farm.sol\":28449:28506  _balances[msg.sender] = _balances[msg.sender].sub(amount) */\n      dup2\n      swap1\n      sstore\n      pop\n        /* \"Farm.sol\":28517:28562  stakingToken.safeTransfer(msg.sender, amount) */\n      tag_173\n        /* \"Farm.sol\":28543:28553  msg.sender */\n      caller\n        /* \"Farm.sol\":28555:28561  amount */\n      dup4\n        /* \"Farm.sol\":28517:28529  stakingToken */\n      0x03\n      0x00\n      swap1\n      sload\n      swap1\n      0x0100\n      exp\n      swap1\n      div\n      0xffffffffffffffffffffffffffffffffffffffff\n      and\n        /* \"Farm.sol\":28517:28542  stakingToken.safeTransfer */\n      0xffffffffffffffffffffffffffffffffffffffff\n      and\n      tag_174\n      swap1\n        /* \"Farm.sol\":28517:28562  stakingToken.safeTransfer(msg.sender, amount) */\n      swap3\n      swap2\n      swap1\n      0xffffffff\n      and\n      jump\t// in\n    tag_173:\n        /* \"Farm.sol\":28588:28598  msg.sender */\n      caller\n        /* \"Farm.sol\":28578:28607  Withdrawn(msg.sender, amount) */\n      0xffffffffffffffffffffffffffffffffffffffff\n      and\n      0x7084f5476618d8e60b11ef0d7d3f06914655adb8793e28ff7f018d4c76d505d5\n        /* \"Farm.sol\":28600:28606  amount */\n      dup4\n        /* \"Farm.sol\":28578:28607  Withdrawn(msg.sender, amount) */\n      mload(0x40)\n      tag_175\n      swap2\n      swap1\n      tag_45\n      jump\t// in\n    tag_175:\n      mload(0x40)\n      dup1\n      swap2\n      sub\n      swap1\n      log2\n        /* \"Farm.sol\":14164:14165  _ */\n      pop\n        /* \"Farm.sol\":14176:14196  _nonReentrantAfter() */\n      tag_176\n        /* \"Farm.sol\":14176:14194  _nonReentrantAfter */\n      tag_177\n        /* \"Farm.sol\":14176:14196  _nonReentrantAfter() */\n      jump\t// in\n    tag_176:\n        /* \"Farm.sol\":28236:28615  function withdraw(uint256 amount)\r... */\n      pop\n      jump\t// out\n        /* \"Farm.sol\":25956:26320  function pow(uint n, uint e) public pure returns (uint) {\r... */\n    tag_69:\n        /* \"Farm.sol\":26006:26010  uint */\n      0x00\n        /* \"Farm.sol\":26034:26035  0 */\n      dup1\n        /* \"Farm.sol\":26029:26030  e */\n      dup3\n        /* \"Farm.sol\":26029:26035  e == 0 */\n      eq\n        /* \"Farm.sol\":26025:26313  if (e == 0) {\r... */\n      iszero\n      tag_179\n      jumpi\n        /* \"Farm.sol\":26059:26060  1 */\n      0x01\n        /* \"Farm.sol\":26052:26060  return 1 */\n      swap1\n      pop\n      jump(tag_178)\n        /* \"Farm.sol\":26025:26313  if (e == 0) {\r... */\n    tag_179:\n        /* \"Farm.sol\":26087:26088  1 */\n      0x01\n        /* \"Farm.sol\":26082:26083  e */\n      dup3\n        /* \"Farm.sol\":26082:26088  e == 1 */\n      eq\n        /* \"Farm.sol\":26078:26313  if (e == 1) {\r... */\n      iszero\n      tag_181\n      jumpi\n        /* \"Farm.sol\":26112:26113  n */\n      dup3\n        /* \"Farm.sol\":26105:26113  return n */\n      swap1\n      pop\n      jump(tag_178)\n        /* \"Farm.sol\":26078:26313  if (e == 1) {\r... */\n    tag_181:\n        /* \"Farm.sol\":26146:26152  uint p */\n      0x00\n        /* \"Farm.sol\":26155:26171  pow(n, e.div(2)) */\n      tag_183\n        /* \"Farm.sol\":26159:26160  n */\n      dup5\n        /* \"Farm.sol\":26162:26170  e.div(2) */\n      tag_184\n        /* \"Farm.sol\":26168:26169  2 */\n      0x02\n        /* \"Farm.sol\":26162:26163  e */\n      dup7\n        /* \"Farm.sol\":26162:26167  e.div */\n      tag_144\n      swap1\n        /* \"Farm.sol\":26162:26170  e.div(2) */\n      swap2\n      swap1\n      0xffffffff\n      and\n      jump\t// in\n    tag_184:\n        /* \"Farm.sol\":26155:26158  pow */\n      tag_69\n        /* \"Farm.sol\":26155:26171  pow(n, e.div(2)) */\n      jump\t// in\n    tag_183:\n        /* \"Farm.sol\":26146:26171  uint p = pow(n, e.div(2)) */\n      swap1\n      pop\n        /* \"Farm.sol\":26190:26198  p.mul(p) */\n      tag_185\n        /* \"Farm.sol\":26196:26197  p */\n      dup2\n        /* \"Farm.sol\":26190:26191  p */\n      dup3\n        /* \"Farm.sol\":26190:26195  p.mul */\n      tag_145\n      swap1\n        /* \"Farm.sol\":26190:26198  p.mul(p) */\n      swap2\n      swap1\n      0xffffffff\n      and\n      jump\t// in\n    tag_185:\n        /* \"Farm.sol\":26186:26198  p = p.mul(p) */\n      swap1\n      pop\n        /* \"Farm.sol\":26229:26230  1 */\n      0x01\n        /* \"Farm.sol\":26217:26225  e.mod(2) */\n      tag_186\n        /* \"Farm.sol\":26223:26224  2 */\n      0x02\n        /* \"Farm.sol\":26217:26218  e */\n      dup6\n        /* \"Farm.sol\":26217:26222  e.mod */\n      tag_146\n      swap1\n        /* \"Farm.sol\":26217:26225  e.mod(2) */\n      swap2\n      swap1\n      0xffffffff\n      and\n      jump\t// in\n    tag_186:\n        /* \"Farm.sol\":26217:26230  e.mod(2) == 1 */\n      eq\n        /* \"Farm.sol\":26213:26279  if (e.mod(2) == 1) {\r... */\n      iszero\n      tag_187\n      jumpi\n        /* \"Farm.sol\":26255:26263  p.mul(n) */\n      tag_188\n        /* \"Farm.sol\":26261:26262  n */\n      dup5\n        /* \"Farm.sol\":26255:26256  p */\n      dup3\n        /* \"Farm.sol\":26255:26260  p.mul */\n      tag_145\n      swap1\n        /* \"Farm.sol\":26255:26263  p.mul(n) */\n      swap2\n      swap1\n      0xffffffff\n      and\n      jump\t// in\n    tag_188:\n        /* \"Farm.sol\":26251:26263  p = p.mul(n) */\n      swap1\n      pop\n        /* \"Farm.sol\":26213:26279  if (e.mod(2) == 1) {\r... */\n    tag_187:\n        /* \"Farm.sol\":26300:26301  p */\n      dup1\n        /* \"Farm.sol\":26293:26301  return p */\n      swap2\n      pop\n      pop\n        /* \"Farm.sol\":25956:26320  function pow(uint n, uint e) public pure returns (uint) {\r... */\n    tag_178:\n      swap3\n      swap2\n      pop\n      pop\n      jump\t// out\n        /* \"Farm.sol\":24989:25019  uint256 public rewardsDuration */\n    tag_72:\n      sload(0x06)\n      dup2\n      jump\t// out\n        /* \"Farm.sol\":29099:30228  function notifyRewardAmount(uint256 reward)\r... */\n    tag_76:\n        /* \"Farm.sol\":23073:23086  _checkOwner() */\n      tag_190\n        /* \"Farm.sol\":23073:23084  _checkOwner */\n      tag_191\n        /* \"Farm.sol\":23073:23086  _checkOwner() */\n      jump\t// in\n    tag_190:\n        /* \"Farm.sol\":29198:29199  0 */\n      0x00\n        /* \"Farm.sol\":31456:31472  rewardPerToken() */\n      tag_193\n        /* \"Farm.sol\":31456:31470  rewardPerToken */\n      tag_128\n        /* \"Farm.sol\":31456:31472  rewardPerToken() */\n      jump\t// in\n    tag_193:\n        /* \"Farm.sol\":31433:31453  rewardPerTokenStored */\n      0x08\n        /* \"Farm.sol\":31433:31472  rewardPerTokenStored = rewardPerToken() */\n      dup2\n      swap1\n      sstore\n      pop\n        /* \"Farm.sol\":31500:31526  lastTimeRewardApplicable() */\n      tag_194\n        /* \"Farm.sol\":31500:31524  lastTimeRewardApplicable */\n      tag_101\n        /* \"Farm.sol\":31500:31526  lastTimeRewardApplicable() */\n      jump\t// in\n    tag_194:\n        /* \"Farm.sol\":31483:31497  lastUpdateTime */\n      0x07\n        /* \"Farm.sol\":31483:31526  lastUpdateTime = lastTimeRewardApplicable() */\n      dup2\n      swap1\n      sstore\n      pop\n        /* \"Farm.sol\":31560:31561  0 */\n      0x00\n        /* \"Farm.sol\":31541:31562  account != address(0) */\n      0xffffffffffffffffffffffffffffffffffffffff\n      and\n        /* \"Farm.sol\":31541:31548  account */\n      dup2\n        /* \"Farm.sol\":31541:31562  account != address(0) */\n      0xffffffffffffffffffffffffffffffffffffffff\n      and\n      eq\n        /* \"Farm.sol\":31537:31694  if (account != address(0)) {\r... */\n      tag_195\n      jumpi\n        /* \"Farm.sol\":31598:31613  earned(account) */\n      tag_196\n        /* \"Farm.sol\":31605:31612  account */\n      dup2\n        /* \"Farm.sol\":31598:31604  earned */\n      tag_43\n        /* \"Farm.sol\":31598:31613  earned(account) */\n      jump\t// in\n    tag_196:\n        /* \"Farm.sol\":31579:31586  rewards */\n      0x0c\n        /* \"Farm.sol\":31579:31595  rewards[account] */\n      0x00\n        /* \"Farm.sol\":31587:31594  account */\n      dup4\n        /* \"Farm.sol\":31579:31595  rewards[account] */\n      0xffffffffffffffffffffffffffffffffffffffff\n      and\n      0xffffffffffffffffffffffffffffffffffffffff\n      and\n      dup2\n      mstore\n      0x20\n      add\n      swap1\n      dup2\n      mstore\n      0x20\n      add\n      0x00\n      keccak256\n        /* \"Farm.sol\":31579:31613  rewards[account] = earned(account) */\n      dup2\n      swap1\n      sstore\n      pop\n        /* \"Farm.sol\":31662:31682  rewardPerTokenStored */\n      sload(0x08)\n        /* \"Farm.sol\":31628:31650  userRewardPerTokenPaid */\n      0x0b\n        /* \"Farm.sol\":31628:31659  userRewardPerTokenPaid[account] */\n      0x00\n        /* \"Farm.sol\":31651:31658  account */\n      dup4\n        /* \"Farm.sol\":31628:31659  userRewardPerTokenPaid[account] */\n      0xffffffffffffffffffffffffffffffffffffffff\n      and\n      0xffffffffffffffffffffffffffffffffffffffff\n      and\n      dup2\n      mstore\n      0x20\n      add\n      swap1\n      dup2\n      mstore\n      0x20\n      add\n      0x00\n      keccak256\n        /* \"Farm.sol\":31628:31682  userRewardPerTokenPaid[account] = rewardPerTokenStored */\n      dup2\n      swap1\n      sstore\n      pop\n        /* \"Farm.sol\":31537:31694  if (account != address(0)) {\r... */\n    tag_195:\n        /* \"Farm.sol\":29241:29253  periodFinish */\n      sload(0x04)\n        /* \"Farm.sol\":29222:29237  block.timestamp */\n      timestamp\n        /* \"Farm.sol\":29222:29253  block.timestamp >= periodFinish */\n      lt\n        /* \"Farm.sol\":29218:29536  if (block.timestamp >= periodFinish) {\r... */\n      tag_198\n      jumpi\n        /* \"Farm.sol\":29283:29310  reward.div(rewardsDuration) */\n      tag_199\n        /* \"Farm.sol\":29294:29309  rewardsDuration */\n      sload(0x06)\n        /* \"Farm.sol\":29283:29289  reward */\n      dup4\n        /* \"Farm.sol\":29283:29293  reward.div */\n      tag_144\n      swap1\n        /* \"Farm.sol\":29283:29310  reward.div(rewardsDuration) */\n      swap2\n      swap1\n      0xffffffff\n      and\n      jump\t// in\n    tag_199:\n        /* \"Farm.sol\":29270:29280  rewardRate */\n      0x05\n        /* \"Farm.sol\":29270:29310  rewardRate = reward.div(rewardsDuration) */\n      dup2\n      swap1\n      sstore\n      pop\n        /* \"Farm.sol\":29218:29536  if (block.timestamp >= periodFinish) {\r... */\n      jump(tag_200)\n    tag_198:\n        /* \"Farm.sol\":29343:29360  uint256 remaining */\n      0x00\n        /* \"Farm.sol\":29363:29396  periodFinish.sub(block.timestamp) */\n      tag_201\n        /* \"Farm.sol\":29380:29395  block.timestamp */\n      timestamp\n        /* \"Farm.sol\":29363:29375  periodFinish */\n      sload(0x04)\n        /* \"Farm.sol\":29363:29379  periodFinish.sub */\n      tag_153\n      swap1\n        /* \"Farm.sol\":29363:29396  periodFinish.sub(block.timestamp) */\n      swap2\n      swap1\n      0xffffffff\n      and\n      jump\t// in\n    tag_201:\n        /* \"Farm.sol\":29343:29396  uint256 remaining = periodFinish.sub(block.timestamp) */\n      swap1\n      pop\n        /* \"Farm.sol\":29411:29427  uint256 leftover */\n      0x00\n        /* \"Farm.sol\":29430:29455  remaining.mul(rewardRate) */\n      tag_202\n        /* \"Farm.sol\":29444:29454  rewardRate */\n      sload(0x05)\n        /* \"Farm.sol\":29430:29439  remaining */\n      dup4\n        /* \"Farm.sol\":29430:29443  remaining.mul */\n      tag_145\n      swap1\n        /* \"Farm.sol\":29430:29455  remaining.mul(rewardRate) */\n      swap2\n      swap1\n      0xffffffff\n      and\n      jump\t// in\n    tag_202:\n        /* \"Farm.sol\":29411:29455  uint256 leftover = remaining.mul(rewardRate) */\n      swap1\n      pop\n        /* \"Farm.sol\":29483:29524  reward.add(leftover).div(rewardsDuration) */\n      tag_203\n        /* \"Farm.sol\":29508:29523  rewardsDuration */\n      sload(0x06)\n        /* \"Farm.sol\":29483:29503  reward.add(leftover) */\n      tag_204\n        /* \"Farm.sol\":29494:29502  leftover */\n      dup4\n        /* \"Farm.sol\":29483:29489  reward */\n      dup8\n        /* \"Farm.sol\":29483:29493  reward.add */\n      tag_154\n      swap1\n        /* \"Farm.sol\":29483:29503  reward.add(leftover) */\n      swap2\n      swap1\n      0xffffffff\n      and\n      jump\t// in\n    tag_204:\n        /* \"Farm.sol\":29483:29507  reward.add(leftover).div */\n      tag_144\n      swap1\n        /* \"Farm.sol\":29483:29524  reward.add(leftover).div(rewardsDuration) */\n      swap2\n      swap1\n      0xffffffff\n      and\n      jump\t// in\n    tag_203:\n        /* \"Farm.sol\":29470:29480  rewardRate */\n      0x05\n        /* \"Farm.sol\":29470:29524  rewardRate = reward.add(leftover).div(rewardsDuration) */\n      dup2\n      swap1\n      sstore\n      pop\n        /* \"Farm.sol\":29328:29536  {\r... */\n      pop\n      pop\n        /* \"Farm.sol\":29218:29536  if (block.timestamp >= periodFinish) {\r... */\n    tag_200:\n        /* \"Farm.sol\":29896:29911  uint256 balance */\n      0x00\n        /* \"Farm.sol\":29914:29926  rewardsToken */\n      0x02\n      0x00\n      swap1\n      sload\n      swap1\n      0x0100\n      exp\n      swap1\n      div\n      0xffffffffffffffffffffffffffffffffffffffff\n      and\n        /* \"Farm.sol\":29914:29936  rewardsToken.balanceOf */\n      0xffffffffffffffffffffffffffffffffffffffff\n      and\n      0x70a08231\n        /* \"Farm.sol\":29945:29949  this */\n      address\n        /* \"Farm.sol\":29914:29951  rewardsToken.balanceOf(address(this)) */\n      mload(0x40)\n      dup3\n      0xffffffff\n      and\n      0xe0\n      shl\n      dup2\n      mstore\n      0x04\n      add\n      tag_205\n      swap2\n      swap1\n      tag_114\n      jump\t// in\n    tag_205:\n      0x20\n      mload(0x40)\n      dup1\n      dup4\n      sub\n      dup2\n      dup7\n      dup1\n      extcodesize\n      iszero\n      dup1\n      iszero\n      tag_206\n      jumpi\n      0x00\n      dup1\n      revert\n    tag_206:\n      pop\n      gas\n      staticcall\n      iszero\n      dup1\n      iszero\n      tag_208\n      jumpi\n      returndatasize\n      0x00\n      dup1\n      returndatacopy\n      revert(0x00, returndatasize)\n    tag_208:\n      pop\n      pop\n      pop\n      pop\n      mload(0x40)\n      returndatasize\n      not(0x1f)\n      0x1f\n      dup3\n      add\n      and\n      dup3\n      add\n      dup1\n      0x40\n      mstore\n      pop\n      dup2\n      add\n      swap1\n      tag_209\n      swap2\n      swap1\n      tag_210\n      jump\t// in\n    tag_209:\n        /* \"Farm.sol\":29896:29951  uint256 balance = rewardsToken.balanceOf(address(this)) */\n      swap1\n      pop\n        /* \"Farm.sol\":29998:30026  balance.div(rewardsDuration) */\n      tag_211\n        /* \"Farm.sol\":30010:30025  rewardsDuration */\n      sload(0x06)\n        /* \"Farm.sol\":29998:30005  balance */\n      dup3\n        /* \"Farm.sol\":29998:30009  balance.div */\n      tag_144\n      swap1\n        /* \"Farm.sol\":29998:30026  balance.div(rewardsDuration) */\n      swap2\n      swap1\n      0xffffffff\n      and\n      jump\t// in\n    tag_211:\n        /* \"Farm.sol\":29984:29994  rewardRate */\n      sload(0x05)\n        /* \"Farm.sol\":29984:30026  rewardRate <= balance.div(rewardsDuration) */\n      gt\n      iszero\n        /* \"Farm.sol\":29962:30078  require(\r... */\n      tag_212\n      jumpi\n      mload(0x40)\n      0x08c379a000000000000000000000000000000000000000000000000000000000\n      dup2\n      mstore\n      0x04\n      add\n      tag_213\n      swap1\n      tag_214\n      jump\t// in\n    tag_213:\n      mload(0x40)\n      dup1\n      swap2\n      sub\n      swap1\n      revert\n    tag_212:\n        /* \"Farm.sol\":30108:30123  block.timestamp */\n      timestamp\n        /* \"Farm.sol\":30091:30105  lastUpdateTime */\n      0x07\n        /* \"Farm.sol\":30091:30123  lastUpdateTime = block.timestamp */\n      dup2\n      swap1\n      sstore\n      pop\n        /* \"Farm.sol\":30149:30185  block.timestamp.add(rewardsDuration) */\n      tag_215\n        /* \"Farm.sol\":30169:30184  rewardsDuration */\n      sload(0x06)\n        /* \"Farm.sol\":30149:30164  block.timestamp */\n      timestamp\n        /* \"Farm.sol\":30149:30168  block.timestamp.add */\n      tag_154\n      swap1\n        /* \"Farm.sol\":30149:30185  block.timestamp.add(rewardsDuration) */\n      swap2\n      swap1\n      0xffffffff\n      and\n      jump\t// in\n    tag_215:\n        /* \"Farm.sol\":30134:30146  periodFinish */\n      0x04\n        /* \"Farm.sol\":30134:30185  periodFinish = block.timestamp.add(rewardsDuration) */\n      dup2\n      swap1\n      sstore\n      pop\n        /* \"Farm.sol\":30201:30220  RewardAdded(reward) */\n      0xde88a922e0d3b88b24e9623efeb464919c6bf9f66857a65e2bfcf2ce87a9433d\n        /* \"Farm.sol\":30213:30219  reward */\n      dup4\n        /* \"Farm.sol\":30201:30220  RewardAdded(reward) */\n      mload(0x40)\n      tag_216\n      swap2\n      swap1\n      tag_45\n      jump\t// in\n    tag_216:\n      mload(0x40)\n      dup1\n      swap2\n      sub\n      swap1\n      log1\n        /* \"Farm.sol\":29207:30228  {\r... */\n      pop\n        /* \"Farm.sol\":23097:23098  _ */\n      pop\n        /* \"Farm.sol\":29099:30228  function notifyRewardAmount(uint256 reward)\r... */\n      pop\n      jump\t// out\n        /* \"Farm.sol\":28623:28930  function getReward() public nonReentrant updateReward(msg.sender) {\r... */\n    tag_78:\n        /* \"Farm.sol\":14132:14153  _nonReentrantBefore() */\n      tag_218\n        /* \"Farm.sol\":14132:14151  _nonReentrantBefore */\n      tag_161\n        /* \"Farm.sol\":14132:14153  _nonReentrantBefore() */\n      jump\t// in\n    tag_218:\n        /* \"Farm.sol\":28677:28687  msg.sender */\n      caller\n        /* \"Farm.sol\":31456:31472  rewardPerToken() */\n      tag_220\n        /* \"Farm.sol\":31456:31470  rewardPerToken */\n      tag_128\n        /* \"Farm.sol\":31456:31472  rewardPerToken() */\n      jump\t// in\n    tag_220:\n        /* \"Farm.sol\":31433:31453  rewardPerTokenStored */\n      0x08\n        /* \"Farm.sol\":31433:31472  rewardPerTokenStored = rewardPerToken() */\n      dup2\n      swap1\n      sstore\n      pop\n        /* \"Farm.sol\":31500:31526  lastTimeRewardApplicable() */\n      tag_221\n        /* \"Farm.sol\":31500:31524  lastTimeRewardApplicable */\n      tag_101\n        /* \"Farm.sol\":31500:31526  lastTimeRewardApplicable() */\n      jump\t// in\n    tag_221:\n        /* \"Farm.sol\":31483:31497  lastUpdateTime */\n      0x07\n        /* \"Farm.sol\":31483:31526  lastUpdateTime = lastTimeRewardApplicable() */\n      dup2\n      swap1\n      sstore\n      pop\n        /* \"Farm.sol\":31560:31561  0 */\n      0x00\n        /* \"Farm.sol\":31541:31562  account != address(0) */\n      0xffffffffffffffffffffffffffffffffffffffff\n      and\n        /* \"Farm.sol\":31541:31548  account */\n      dup2\n        /* \"Farm.sol\":31541:31562  account != address(0) */\n      0xffffffffffffffffffffffffffffffffffffffff\n      and\n      eq\n        /* \"Farm.sol\":31537:31694  if (account != address(0)) {\r... */\n      tag_222\n      jumpi\n        /* \"Farm.sol\":31598:31613  earned(account) */\n      tag_223\n        /* \"Farm.sol\":31605:31612  account */\n      dup2\n        /* \"Farm.sol\":31598:31604  earned */\n      tag_43\n        /* \"Farm.sol\":31598:31613  earned(account) */\n      jump\t// in\n    tag_223:\n        /* \"Farm.sol\":31579:31586  rewards */\n      0x0c\n        /* \"Farm.sol\":31579:31595  rewards[account] */\n      0x00\n        /* \"Farm.sol\":31587:31594  account */\n      dup4\n        /* \"Farm.sol\":31579:31595  rewards[account] */\n      0xffffffffffffffffffffffffffffffffffffffff\n      and\n      0xffffffffffffffffffffffffffffffffffffffff\n      and\n      dup2\n      mstore\n      0x20\n      add\n      swap1\n      dup2\n      mstore\n      0x20\n      add\n      0x00\n      keccak256\n        /* \"Farm.sol\":31579:31613  rewards[account] = earned(account) */\n      dup2\n      swap1\n      sstore\n      pop\n        /* \"Farm.sol\":31662:31682  rewardPerTokenStored */\n      sload(0x08)\n        /* \"Farm.sol\":31628:31650  userRewardPerTokenPaid */\n      0x0b\n        /* \"Farm.sol\":31628:31659  userRewardPerTokenPaid[account] */\n      0x00\n        /* \"Farm.sol\":31651:31658  account */\n      dup4\n        /* \"Farm.sol\":31628:31659  userRewardPerTokenPaid[account] */\n      0xffffffffffffffffffffffffffffffffffffffff\n      and\n      0xffffffffffffffffffffffffffffffffffffffff\n      and\n      dup2\n      mstore\n      0x20\n      add\n      swap1\n      dup2\n      mstore\n      0x20\n      add\n      0x00\n      keccak256\n        /* \"Farm.sol\":31628:31682  userRewardPerTokenPaid[account] = rewardPerTokenStored */\n      dup2\n      swap1\n      sstore\n      pop\n        /* \"Farm.sol\":31537:31694  if (account != address(0)) {\r... */\n    tag_222:\n        /* \"Farm.sol\":28700:28714  uint256 reward */\n      0x00\n        /* \"Farm.sol\":28717:28724  rewards */\n      0x0c\n        /* \"Farm.sol\":28717:28736  rewards[msg.sender] */\n      0x00\n        /* \"Farm.sol\":28725:28735  msg.sender */\n      caller\n        /* \"Farm.sol\":28717:28736  rewards[msg.sender] */\n      0xffffffffffffffffffffffffffffffffffffffff\n      and\n      0xffffffffffffffffffffffffffffffffffffffff\n      and\n      dup2\n      mstore\n      0x20\n      add\n      swap1\n      dup2\n      mstore\n      0x20\n      add\n      0x00\n      keccak256\n      sload\n        /* \"Farm.sol\":28700:28736  uint256 reward = rewards[msg.sender] */\n      swap1\n      pop\n        /* \"Farm.sol\":28760:28761  0 */\n      0x00\n        /* \"Farm.sol\":28751:28757  reward */\n      dup2\n        /* \"Farm.sol\":28751:28761  reward > 0 */\n      gt\n        /* \"Farm.sol\":28747:28923  if (reward > 0) {\r... */\n      iszero\n      tag_225\n      jumpi\n        /* \"Farm.sol\":28800:28801  0 */\n      0x00\n        /* \"Farm.sol\":28778:28785  rewards */\n      0x0c\n        /* \"Farm.sol\":28778:28797  rewards[msg.sender] */\n      0x00\n        /* \"Farm.sol\":28786:28796  msg.sender */\n      caller\n        /* \"Farm.sol\":28778:28797  rewards[msg.sender] */\n      0xffffffffffffffffffffffffffffffffffffffff\n      and\n      0xffffffffffffffffffffffffffffffffffffffff\n      and\n      dup2\n      mstore\n      0x20\n      add\n      swap1\n      dup2\n      mstore\n      0x20\n      add\n      0x00\n      keccak256\n        /* \"Farm.sol\":28778:28801  rewards[msg.sender] = 0 */\n      dup2\n      swap1\n      sstore\n      pop\n        /* \"Farm.sol\":28816:28861  rewardsToken.safeTransfer(msg.sender, reward) */\n      tag_226\n        /* \"Farm.sol\":28842:28852  msg.sender */\n      caller\n        /* \"Farm.sol\":28854:28860  reward */\n      dup3\n        /* \"Farm.sol\":28816:28828  rewardsToken */\n      0x02\n      0x00\n      swap1\n      sload\n      swap1\n      0x0100\n      exp\n      swap1\n      div\n      0xffffffffffffffffffffffffffffffffffffffff\n      and\n        /* \"Farm.sol\":28816:28841  rewardsToken.safeTransfer */\n      0xffffffffffffffffffffffffffffffffffffffff\n      and\n      tag_174\n      swap1\n        /* \"Farm.sol\":28816:28861  rewardsToken.safeTransfer(msg.sender, reward) */\n      swap3\n      swap2\n      swap1\n      0xffffffff\n      and\n      jump\t// in\n    tag_226:\n        /* \"Farm.sol\":28892:28902  msg.sender */\n      caller\n        /* \"Farm.sol\":28881:28911  RewardPaid(msg.sender, reward) */\n      0xffffffffffffffffffffffffffffffffffffffff\n      and\n      0xe2403640ba68fed3a2f88b7557551d1993f84b99bb10ff833f0cf8db0c5e0486\n        /* \"Farm.sol\":28904:28910  reward */\n      dup3\n        /* \"Farm.sol\":28881:28911  RewardPaid(msg.sender, reward) */\n      mload(0x40)\n      tag_227\n      swap2\n      swap1\n      tag_45\n      jump\t// in\n    tag_227:\n      mload(0x40)\n      dup1\n      swap2\n      sub\n      swap1\n      log2\n        /* \"Farm.sol\":28747:28923  if (reward > 0) {\r... */\n    tag_225:\n        /* \"Farm.sol\":28689:28930  {\r... */\n      pop\n        /* \"Farm.sol\":14164:14165  _ */\n      pop\n        /* \"Farm.sol\":14176:14196  _nonReentrantAfter() */\n      tag_228\n        /* \"Farm.sol\":14176:14194  _nonReentrantAfter */\n      tag_177\n        /* \"Farm.sol\":14176:14196  _nonReentrantAfter() */\n      jump\t// in\n    tag_228:\n        /* \"Farm.sol\":28623:28930  function getReward() public nonReentrant updateReward(msg.sender) {\r... */\n      jump\t// out\n        /* \"Farm.sol\":11748:11834  function paused() public view virtual returns (bool) {\r... */\n    tag_80:\n        /* \"Farm.sol\":11795:11799  bool */\n      0x00\n        /* \"Farm.sol\":11819:11826  _paused */\n      0x01\n      0x00\n      swap1\n      sload\n      swap1\n      0x0100\n      exp\n      swap1\n      div\n      0xff\n      and\n        /* \"Farm.sol\":11812:11826  return _paused */\n      swap1\n      pop\n        /* \"Farm.sol\":11748:11834  function paused() public view virtual returns (bool) {\r... */\n      swap1\n      jump\t// out\n        /* \"Farm.sol\":26328:26440  function balanceOf(address account) external view returns (uint256) {\r... */\n    tag_85:\n        /* \"Farm.sol\":26387:26394  uint256 */\n      0x00\n        /* \"Farm.sol\":26414:26423  _balances */\n      0x0e\n        /* \"Farm.sol\":26414:26432  _balances[account] */\n      0x00\n        /* \"Farm.sol\":26424:26431  account */\n      dup4\n        /* \"Farm.sol\":26414:26432  _balances[account] */\n      0xffffffffffffffffffffffffffffffffffffffff\n      and\n      0xffffffffffffffffffffffffffffffffffffffff\n      and\n      dup2\n      mstore\n      0x20\n      add\n      swap1\n      dup2\n      mstore\n      0x20\n      add\n      0x00\n      keccak256\n      sload\n        /* \"Farm.sol\":26407:26432  return _balances[account] */\n      swap1\n      pop\n        /* \"Farm.sol\":26328:26440  function balanceOf(address account) external view returns (uint256) {\r... */\n      swap2\n      swap1\n      pop\n      jump\t// out\n        /* \"Farm.sol\":23835:23938  function renounceOwnership() public virtual onlyOwner {\r... */\n    tag_88:\n        /* \"Farm.sol\":23073:23086  _checkOwner() */\n      tag_232\n        /* \"Farm.sol\":23073:23084  _checkOwner */\n      tag_191\n        /* \"Farm.sol\":23073:23086  _checkOwner() */\n      jump\t// in\n    tag_232:\n        /* \"Farm.sol\":23900:23930  _transferOwnership(address(0)) */\n      tag_234\n        /* \"Farm.sol\":23927:23928  0 */\n      0x00\n        /* \"Farm.sol\":23900:23918  _transferOwnership */\n      tag_235\n        /* \"Farm.sol\":23900:23930  _transferOwnership(address(0)) */\n      jump\t// in\n    tag_234:\n        /* \"Farm.sol\":23835:23938  function renounceOwnership() public virtual onlyOwner {\r... */\n      jump\t// out\n        /* \"Farm.sol\":24882:24908  IERC20 public stakingToken */\n    tag_90:\n      0x03\n      0x00\n      swap1\n      sload\n      swap1\n      0x0100\n      exp\n      swap1\n      div\n      0xffffffffffffffffffffffffffffffffffffffff\n      and\n      dup2\n      jump\t// out\n        /* \"Farm.sol\":27378:27482  function min(uint256 a, uint256 b) public pure returns (uint256) {\r... */\n    tag_95:\n        /* \"Farm.sol\":27434:27441  uint256 */\n      0x00\n        /* \"Farm.sol\":27465:27466  b */\n      dup2\n        /* \"Farm.sol\":27461:27462  a */\n      dup4\n        /* \"Farm.sol\":27461:27466  a < b */\n      lt\n        /* \"Farm.sol\":27461:27474  a < b ? a : b */\n      tag_237\n      jumpi\n        /* \"Farm.sol\":27473:27474  b */\n      dup2\n        /* \"Farm.sol\":27461:27474  a < b ? a : b */\n      jump(tag_238)\n    tag_237:\n        /* \"Farm.sol\":27469:27470  a */\n      dup3\n        /* \"Farm.sol\":27461:27474  a < b ? a : b */\n    tag_238:\n        /* \"Farm.sol\":27454:27474  return a < b ? a : b */\n      swap1\n      pop\n        /* \"Farm.sol\":27378:27482  function min(uint256 a, uint256 b) public pure returns (uint256) {\r... */\n      swap3\n      swap2\n      pop\n      pop\n      jump\t// out\n        /* \"Farm.sol\":24953:24982  uint256 public rewardRate = 0 */\n    tag_98:\n      sload(0x05)\n      dup2\n      jump\t// out\n        /* \"Farm.sol\":26448:26574  function lastTimeRewardApplicable() public view returns (uint256) {\r... */\n    tag_101:\n        /* \"Farm.sol\":26505:26512  uint256 */\n      0x00\n        /* \"Farm.sol\":26532:26566  min(block.timestamp, periodFinish) */\n      tag_240\n        /* \"Farm.sol\":26536:26551  block.timestamp */\n      timestamp\n        /* \"Farm.sol\":26553:26565  periodFinish */\n      sload(0x04)\n        /* \"Farm.sol\":26532:26535  min */\n      tag_95\n        /* \"Farm.sol\":26532:26566  min(block.timestamp, periodFinish) */\n      jump\t// in\n    tag_240:\n        /* \"Farm.sol\":26525:26566  return min(block.timestamp, periodFinish) */\n      swap1\n      pop\n        /* \"Farm.sol\":26448:26574  function lastTimeRewardApplicable() public view returns (uint256) {\r... */\n      swap1\n      jump\t// out\n        /* \"Farm.sol\":30343:30962  function recoverERC20(address tokenAddress, uint256 tokenAmount)\r... */\n    tag_106:\n        /* \"Farm.sol\":23073:23086  _checkOwner() */\n      tag_242\n        /* \"Farm.sol\":23073:23084  _checkOwner */\n      tag_191\n        /* \"Farm.sol\":23073:23086  _checkOwner() */\n      jump\t// in\n    tag_242:\n        /* \"Farm.sol\":30565:30577  rewardsToken */\n      0x02\n      0x00\n      swap1\n      sload\n      swap1\n      0x0100\n      exp\n      swap1\n      div\n      0xffffffffffffffffffffffffffffffffffffffff\n      and\n        /* \"Farm.sol\":30541:30578  tokenAddress != address(rewardsToken) */\n      0xffffffffffffffffffffffffffffffffffffffff\n      and\n        /* \"Farm.sol\":30541:30553  tokenAddress */\n      dup3\n        /* \"Farm.sol\":30541:30578  tokenAddress != address(rewardsToken) */\n      0xffffffffffffffffffffffffffffffffffffffff\n      and\n      eq\n      iszero\n        /* \"Farm.sol\":30519:30640  require(\r... */\n      tag_244\n      jumpi\n      mload(0x40)\n      0x08c379a000000000000000000000000000000000000000000000000000000000\n      dup2\n      mstore\n      0x04\n      add\n      tag_245\n      swap1\n      tag_246\n      jump\t// in\n    tag_245:\n      mload(0x40)\n      dup1\n      swap2\n      sub\n      swap1\n      revert\n    tag_244:\n        /* \"Farm.sol\":30671:30672  0 */\n      0x00\n        /* \"Farm.sol\":30655:30667  _totalSupply */\n      sload(0x0d)\n        /* \"Farm.sol\":30655:30672  _totalSupply != 0 */\n      eq\n        /* \"Farm.sol\":30651:30834  if (_totalSupply != 0) {\r... */\n      tag_247\n      jumpi\n        /* \"Farm.sol\":30739:30751  stakingToken */\n      0x03\n      0x00\n      swap1\n      sload\n      swap1\n      0x0100\n      exp\n      swap1\n      div\n      0xffffffffffffffffffffffffffffffffffffffff\n      and\n        /* \"Farm.sol\":30715:30752  tokenAddress != address(stakingToken) */\n      0xffffffffffffffffffffffffffffffffffffffff\n      and\n        /* \"Farm.sol\":30715:30727  tokenAddress */\n      dup3\n        /* \"Farm.sol\":30715:30752  tokenAddress != address(stakingToken) */\n      0xffffffffffffffffffffffffffffffffffffffff\n      and\n      eq\n      iszero\n        /* \"Farm.sol\":30689:30822  require(\r... */\n      tag_248\n      jumpi\n      mload(0x40)\n      0x08c379a000000000000000000000000000000000000000000000000000000000\n      dup2\n      mstore\n      0x04\n      add\n      tag_249\n      swap1\n      tag_250\n      jump\t// in\n    tag_249:\n      mload(0x40)\n      dup1\n      swap2\n      sub\n      swap1\n      revert\n    tag_248:\n        /* \"Farm.sol\":30651:30834  if (_totalSupply != 0) {\r... */\n    tag_247:\n        /* \"Farm.sol\":30844:30902  IERC20(tokenAddress).safeTransfer(msg.sender, tokenAmount) */\n      tag_251\n        /* \"Farm.sol\":30878:30888  msg.sender */\n      caller\n        /* \"Farm.sol\":30890:30901  tokenAmount */\n      dup3\n        /* \"Farm.sol\":30851:30863  tokenAddress */\n      dup5\n        /* \"Farm.sol\":30844:30877  IERC20(tokenAddress).safeTransfer */\n      0xffffffffffffffffffffffffffffffffffffffff\n      and\n      tag_174\n      swap1\n        /* \"Farm.sol\":30844:30902  IERC20(tokenAddress).safeTransfer(msg.sender, tokenAmount) */\n      swap3\n      swap2\n      swap1\n      0xffffffff\n      and\n      jump\t// in\n    tag_251:\n        /* \"Farm.sol\":30918:30954  Recovered(tokenAddress, tokenAmount) */\n      0x8c1256b8896378cd5044f80c202f9772b9d77dc85c8a6eb51967210b09bfaa28\n        /* \"Farm.sol\":30928:30940  tokenAddress */\n      dup3\n        /* \"Farm.sol\":30942:30953  tokenAmount */\n      dup3\n        /* \"Farm.sol\":30918:30954  Recovered(tokenAddress, tokenAmount) */\n      mload(0x40)\n      tag_252\n      swap3\n      swap2\n      swap1\n      tag_253\n      jump\t// in\n    tag_252:\n      mload(0x40)\n      dup1\n      swap2\n      sub\n      swap1\n      log1\n        /* \"Farm.sol\":30343:30962  function recoverERC20(address tokenAddress, uint256 tokenAmount)\r... */\n      pop\n      pop\n      jump\t// out\n        /* \"Farm.sol\":25183:25240  mapping(address => uint256) public userRewardPerTokenPaid */\n    tag_109:\n      mstore(0x20, 0x0b)\n      dup1\n      0x00\n      mstore\n      keccak256(0x00, 0x40)\n      0x00\n      swap2\n      pop\n      swap1\n      pop\n      sload\n      dup2\n      jump\t// out\n        /* \"Farm.sol\":23187:23274  function owner() public view virtual returns (address) {\r... */\n    tag_112:\n        /* \"Farm.sol\":23233:23240  address */\n      0x00\n        /* \"Farm.sol\":23260:23266  _owner */\n      0x01\n      dup1\n      sload\n      swap1\n      0x0100\n      exp\n      swap1\n      div\n      0xffffffffffffffffffffffffffffffffffffffff\n      and\n        /* \"Farm.sol\":23253:23266  return _owner */\n      swap1\n      pop\n        /* \"Farm.sol\":23187:23274  function owner() public view virtual returns (address) {\r... */\n      swap1\n      jump\t// out\n        /* \"Farm.sol\":27820:28228  function stake(uint256 amount)\r... */\n    tag_117:\n        /* \"Farm.sol\":14132:14153  _nonReentrantBefore() */\n      tag_256\n        /* \"Farm.sol\":14132:14151  _nonReentrantBefore */\n      tag_161\n        /* \"Farm.sol\":14132:14153  _nonReentrantBefore() */\n      jump\t// in\n    tag_256:\n        /* \"Farm.sol\":11353:11372  _requireNotPaused() */\n      tag_258\n        /* \"Farm.sol\":11353:11370  _requireNotPaused */\n      tag_259\n        /* \"Farm.sol\":11353:11372  _requireNotPaused() */\n      jump\t// in\n    tag_258:\n        /* \"Farm.sol\":27920:27930  msg.sender */\n      caller\n        /* \"Farm.sol\":31456:31472  rewardPerToken() */\n      tag_261\n        /* \"Farm.sol\":31456:31470  rewardPerToken */\n      tag_128\n        /* \"Farm.sol\":31456:31472  rewardPerToken() */\n      jump\t// in\n    tag_261:\n        /* \"Farm.sol\":31433:31453  rewardPerTokenStored */\n      0x08\n        /* \"Farm.sol\":31433:31472  rewardPerTokenStored = rewardPerToken() */\n      dup2\n      swap1\n      sstore\n      pop\n        /* \"Farm.sol\":31500:31526  lastTimeRewardApplicable() */\n      tag_262\n        /* \"Farm.sol\":31500:31524  lastTimeRewardApplicable */\n      tag_101\n        /* \"Farm.sol\":31500:31526  lastTimeRewardApplicable() */\n      jump\t// in\n    tag_262:\n        /* \"Farm.sol\":31483:31497  lastUpdateTime */\n      0x07\n        /* \"Farm.sol\":31483:31526  lastUpdateTime = lastTimeRewardApplicable() */\n      dup2\n      swap1\n      sstore\n      pop\n        /* \"Farm.sol\":31560:31561  0 */\n      0x00\n        /* \"Farm.sol\":31541:31562  account != address(0) */\n      0xffffffffffffffffffffffffffffffffffffffff\n      and\n        /* \"Farm.sol\":31541:31548  account */\n      dup2\n        /* \"Farm.sol\":31541:31562  account != address(0) */\n      0xffffffffffffffffffffffffffffffffffffffff\n      and\n      eq\n        /* \"Farm.sol\":31537:31694  if (account != address(0)) {\r... */\n      tag_263\n      jumpi\n        /* \"Farm.sol\":31598:31613  earned(account) */\n      tag_264\n        /* \"Farm.sol\":31605:31612  account */\n      dup2\n        /* \"Farm.sol\":31598:31604  earned */\n      tag_43\n        /* \"Farm.sol\":31598:31613  earned(account) */\n      jump\t// in\n    tag_264:\n        /* \"Farm.sol\":31579:31586  rewards */\n      0x0c\n        /* \"Farm.sol\":31579:31595  rewards[account] */\n      0x00\n        /* \"Farm.sol\":31587:31594  account */\n      dup4\n        /* \"Farm.sol\":31579:31595  rewards[account] */\n      0xffffffffffffffffffffffffffffffffffffffff\n      and\n      0xffffffffffffffffffffffffffffffffffffffff\n      and\n      dup2\n      mstore\n      0x20\n      add\n      swap1\n      dup2\n      mstore\n      0x20\n      add\n      0x00\n      keccak256\n        /* \"Farm.sol\":31579:31613  rewards[account] = earned(account) */\n      dup2\n      swap1\n      sstore\n      pop\n        /* \"Farm.sol\":31662:31682  rewardPerTokenStored */\n      sload(0x08)\n        /* \"Farm.sol\":31628:31650  userRewardPerTokenPaid */\n      0x0b\n        /* \"Farm.sol\":31628:31659  userRewardPerTokenPaid[account] */\n      0x00\n        /* \"Farm.sol\":31651:31658  account */\n      dup4\n        /* \"Farm.sol\":31628:31659  userRewardPerTokenPaid[account] */\n      0xffffffffffffffffffffffffffffffffffffffff\n      and\n      0xffffffffffffffffffffffffffffffffffffffff\n      and\n      dup2\n      mstore\n      0x20\n      add\n      swap1\n      dup2\n      mstore\n      0x20\n      add\n      0x00\n      keccak256\n        /* \"Farm.sol\":31628:31682  userRewardPerTokenPaid[account] = rewardPerTokenStored */\n      dup2\n      swap1\n      sstore\n      pop\n        /* \"Farm.sol\":31537:31694  if (account != address(0)) {\r... */\n    tag_263:\n        /* \"Farm.sol\":27965:27966  0 */\n      0x00\n        /* \"Farm.sol\":27956:27962  amount */\n      dup3\n        /* \"Farm.sol\":27956:27966  amount > 0 */\n      gt\n        /* \"Farm.sol\":27948:27985  require(amount > 0, \"Cannot stake 0\") */\n      tag_266\n      jumpi\n      mload(0x40)\n      0x08c379a000000000000000000000000000000000000000000000000000000000\n      dup2\n      mstore\n      0x04\n      add\n      tag_267\n      swap1\n      tag_268\n      jump\t// in\n    tag_267:\n      mload(0x40)\n      dup1\n      swap2\n      sub\n      swap1\n      revert\n    tag_266:\n        /* \"Farm.sol\":28011:28035  _totalSupply.add(amount) */\n      tag_269\n        /* \"Farm.sol\":28028:28034  amount */\n      dup3\n        /* \"Farm.sol\":28011:28023  _totalSupply */\n      sload(0x0d)\n        /* \"Farm.sol\":28011:28027  _totalSupply.add */\n      tag_154\n      swap1\n        /* \"Farm.sol\":28011:28035  _totalSupply.add(amount) */\n      swap2\n      swap1\n      0xffffffff\n      and\n      jump\t// in\n    tag_269:\n        /* \"Farm.sol\":27996:28008  _totalSupply */\n      0x0d\n        /* \"Farm.sol\":27996:28035  _totalSupply = _totalSupply.add(amount) */\n      dup2\n      swap1\n      sstore\n      pop\n        /* \"Farm.sol\":28070:28103  _balances[msg.sender].add(amount) */\n      tag_270\n        /* \"Farm.sol\":28096:28102  amount */\n      dup3\n        /* \"Farm.sol\":28070:28079  _balances */\n      0x0e\n        /* \"Farm.sol\":28070:28091  _balances[msg.sender] */\n      0x00\n        /* \"Farm.sol\":28080:28090  msg.sender */\n      caller\n        /* \"Farm.sol\":28070:28091  _balances[msg.sender] */\n      0xffffffffffffffffffffffffffffffffffffffff\n      and\n      0xffffffffffffffffffffffffffffffffffffffff\n      and\n      dup2\n      mstore\n      0x20\n      add\n      swap1\n      dup2\n      mstore\n      0x20\n      add\n      0x00\n      keccak256\n      sload\n        /* \"Farm.sol\":28070:28095  _balances[msg.sender].add */\n      tag_154\n      swap1\n        /* \"Farm.sol\":28070:28103  _balances[msg.sender].add(amount) */\n      swap2\n      swap1\n      0xffffffff\n      and\n      jump\t// in\n    tag_270:\n        /* \"Farm.sol\":28046:28055  _balances */\n      0x0e\n        /* \"Farm.sol\":28046:28067  _balances[msg.sender] */\n      0x00\n        /* \"Farm.sol\":28056:28066  msg.sender */\n      caller\n        /* \"Farm.sol\":28046:28067  _balances[msg.sender] */\n      0xffffffffffffffffffffffffffffffffffffffff\n      and\n      0xffffffffffffffffffffffffffffffffffffffff\n      and\n      dup2\n      mstore\n      0x20\n      add\n      swap1\n      dup2\n      mstore\n      0x20\n      add\n      0x00\n      keccak256\n        /* \"Farm.sol\":28046:28103  _balances[msg.sender] = _balances[msg.sender].add(amount) */\n      dup2\n      swap1\n      sstore\n      pop\n        /* \"Farm.sol\":28114:28178  stakingToken.safeTransferFrom(msg.sender, address(this), amount) */\n      tag_271\n        /* \"Farm.sol\":28144:28154  msg.sender */\n      caller\n        /* \"Farm.sol\":28164:28168  this */\n      address\n        /* \"Farm.sol\":28171:28177  amount */\n      dup5\n        /* \"Farm.sol\":28114:28126  stakingToken */\n      0x03\n      0x00\n      swap1\n      sload\n      swap1\n      0x0100\n      exp\n      swap1\n      div\n      0xffffffffffffffffffffffffffffffffffffffff\n      and\n        /* \"Farm.sol\":28114:28143  stakingToken.safeTransferFrom */\n      0xffffffffffffffffffffffffffffffffffffffff\n      and\n      tag_272\n      swap1\n        /* \"Farm.sol\":28114:28178  stakingToken.safeTransferFrom(msg.sender, address(this), amount) */\n      swap4\n      swap3\n      swap2\n      swap1\n      0xffffffff\n      and\n      jump\t// in\n    tag_271:\n        /* \"Farm.sol\":28201:28211  msg.sender */\n      caller\n        /* \"Farm.sol\":28194:28220  Staked(msg.sender, amount) */\n      0xffffffffffffffffffffffffffffffffffffffff\n      and\n      0x9e71bc8eea02a63969f509818f2dafb9254532904319f9dbda79b67bd34a5f3d\n        /* \"Farm.sol\":28213:28219  amount */\n      dup4\n        /* \"Farm.sol\":28194:28220  Staked(msg.sender, amount) */\n      mload(0x40)\n      tag_273\n      swap2\n      swap1\n      tag_45\n      jump\t// in\n    tag_273:\n      mload(0x40)\n      dup1\n      swap2\n      sub\n      swap1\n      log2\n        /* \"Farm.sol\":11383:11384  _ */\n      pop\n        /* \"Farm.sol\":14176:14196  _nonReentrantAfter() */\n      tag_274\n        /* \"Farm.sol\":14176:14194  _nonReentrantAfter */\n      tag_177\n        /* \"Farm.sol\":14176:14196  _nonReentrantAfter() */\n      jump\t// in\n    tag_274:\n        /* \"Farm.sol\":27820:28228  function stake(uint256 amount)\r... */\n      pop\n      jump\t// out\n        /* \"Farm.sol\":25104:25143  uint256 public stakingTokensDecimalRate */\n    tag_119:\n      sload(0x09)\n      dup2\n      jump\t// out\n        /* \"Farm.sol\":25026:25055  uint256 public lastUpdateTime */\n    tag_122:\n      sload(0x07)\n      dup2\n      jump\t// out\n        /* \"Farm.sol\":30970:31330  function setRewardsDuration(uint256 _rewardsDuration) external onlyOwner {\r... */\n    tag_126:\n        /* \"Farm.sol\":23073:23086  _checkOwner() */\n      tag_276\n        /* \"Farm.sol\":23073:23084  _checkOwner */\n      tag_191\n        /* \"Farm.sol\":23073:23086  _checkOwner() */\n      jump\t// in\n    tag_276:\n        /* \"Farm.sol\":31094:31106  periodFinish */\n      sload(0x04)\n        /* \"Farm.sol\":31076:31091  block.timestamp */\n      timestamp\n        /* \"Farm.sol\":31076:31106  block.timestamp > periodFinish */\n      gt\n        /* \"Farm.sol\":31054:31222  require(\r... */\n      tag_278\n      jumpi\n      mload(0x40)\n      0x08c379a000000000000000000000000000000000000000000000000000000000\n      dup2\n      mstore\n      0x04\n      add\n      tag_279\n      swap1\n      tag_280\n      jump\t// in\n    tag_279:\n      mload(0x40)\n      dup1\n      swap2\n      sub\n      swap1\n      revert\n    tag_278:\n        /* \"Farm.sol\":31251:31267  _rewardsDuration */\n      dup1\n        /* \"Farm.sol\":31233:31248  rewardsDuration */\n      0x06\n        /* \"Farm.sol\":31233:31267  rewardsDuration = _rewardsDuration */\n      dup2\n      swap1\n      sstore\n      pop\n        /* \"Farm.sol\":31283:31322  RewardsDurationUpdated(rewardsDuration) */\n      0xfb46ca5a5e06d4540d6387b930a7c978bce0db5f449ec6b3f5d07c6e1d44f2d3\n        /* \"Farm.sol\":31306:31321  rewardsDuration */\n      sload(0x06)\n        /* \"Farm.sol\":31283:31322  RewardsDurationUpdated(rewardsDuration) */\n      mload(0x40)\n      tag_281\n      swap2\n      swap1\n      tag_45\n      jump\t// in\n    tag_281:\n      mload(0x40)\n      dup1\n      swap2\n      sub\n      swap1\n      log1\n        /* \"Farm.sol\":30970:31330  function setRewardsDuration(uint256 _rewardsDuration) external onlyOwner {\r... */\n      pop\n      jump\t// out\n        /* \"Farm.sol\":26582:26976  function rewardPerToken() public view returns (uint256) {\r... */\n    tag_128:\n        /* \"Farm.sol\":26629:26636  uint256 */\n      0x00\n        /* \"Farm.sol\":26669:26670  0 */\n      dup1\n        /* \"Farm.sol\":26653:26665  _totalSupply */\n      sload(0x0d)\n        /* \"Farm.sol\":26653:26670  _totalSupply == 0 */\n      eq\n        /* \"Farm.sol\":26649:26726  if (_totalSupply == 0) {\r... */\n      iszero\n      tag_283\n      jumpi\n        /* \"Farm.sol\":26694:26714  rewardPerTokenStored */\n      sload(0x08)\n        /* \"Farm.sol\":26687:26714  return rewardPerTokenStored */\n      swap1\n      pop\n      jump(tag_282)\n        /* \"Farm.sol\":26649:26726  if (_totalSupply == 0) {\r... */\n    tag_283:\n        /* \"Farm.sol\":26752:26968  rewardPerTokenStored.add(\r... */\n      tag_284\n        /* \"Farm.sol\":26791:26957  lastTimeRewardApplicable()\r... */\n      tag_285\n        /* \"Farm.sol\":26944:26956  _totalSupply */\n      sload(0x0d)\n        /* \"Farm.sol\":26791:26925  lastTimeRewardApplicable()\r... */\n      tag_286\n        /* \"Farm.sol\":26900:26924  stakingTokensDecimalRate */\n      sload(0x09)\n        /* \"Farm.sol\":26791:26881  lastTimeRewardApplicable()\r... */\n      tag_287\n        /* \"Farm.sol\":26870:26880  rewardRate */\n      sload(0x05)\n        /* \"Farm.sol\":26791:26851  lastTimeRewardApplicable()\r... */\n      tag_288\n        /* \"Farm.sol\":26836:26850  lastUpdateTime */\n      sload(0x07)\n        /* \"Farm.sol\":26791:26817  lastTimeRewardApplicable() */\n      tag_289\n        /* \"Farm.sol\":26791:26815  lastTimeRewardApplicable */\n      tag_101\n        /* \"Farm.sol\":26791:26817  lastTimeRewardApplicable() */\n      jump\t// in\n    tag_289:\n        /* \"Farm.sol\":26791:26835  lastTimeRewardApplicable()\r... */\n      tag_153\n      swap1\n        /* \"Farm.sol\":26791:26851  lastTimeRewardApplicable()\r... */\n      swap2\n      swap1\n      0xffffffff\n      and\n      jump\t// in\n    tag_288:\n        /* \"Farm.sol\":26791:26869  lastTimeRewardApplicable()\r... */\n      tag_145\n      swap1\n        /* \"Farm.sol\":26791:26881  lastTimeRewardApplicable()\r... */\n      swap2\n      swap1\n      0xffffffff\n      and\n      jump\t// in\n    tag_287:\n        /* \"Farm.sol\":26791:26899  lastTimeRewardApplicable()\r... */\n      tag_145\n      swap1\n        /* \"Farm.sol\":26791:26925  lastTimeRewardApplicable()\r... */\n      swap2\n      swap1\n      0xffffffff\n      and\n      jump\t// in\n    tag_286:\n        /* \"Farm.sol\":26791:26943  lastTimeRewardApplicable()\r... */\n      tag_144\n      swap1\n        /* \"Farm.sol\":26791:26957  lastTimeRewardApplicable()\r... */\n      swap2\n      swap1\n      0xffffffff\n      and\n      jump\t// in\n    tag_285:\n        /* \"Farm.sol\":26752:26772  rewardPerTokenStored */\n      sload(0x08)\n        /* \"Farm.sol\":26752:26776  rewardPerTokenStored.add */\n      tag_154\n      swap1\n        /* \"Farm.sol\":26752:26968  rewardPerTokenStored.add(\r... */\n      swap2\n      swap1\n      0xffffffff\n      and\n      jump\t// in\n    tag_284:\n        /* \"Farm.sol\":26736:26968  return\r... */\n      swap1\n      pop\n        /* \"Farm.sol\":26582:26976  function rewardPerToken() public view returns (uint256) {\r... */\n    tag_282:\n      swap1\n      jump\t// out\n        /* \"Farm.sol\":24849:24875  IERC20 public rewardsToken */\n    tag_131:\n      0x02\n      0x00\n      swap1\n      sload\n      swap1\n      0x0100\n      exp\n      swap1\n      div\n      0xffffffffffffffffffffffffffffffffffffffff\n      and\n      dup2\n      jump\t// out\n        /* \"Farm.sol\":25062:25097  uint256 public rewardPerTokenStored */\n    tag_134:\n      sload(0x08)\n      dup2\n      jump\t// out\n        /* \"Farm.sol\":28938:29035  function exit() external {\r... */\n    tag_137:\n        /* \"Farm.sol\":28974:29005  withdraw(_balances[msg.sender]) */\n      tag_291\n        /* \"Farm.sol\":28983:28992  _balances */\n      0x0e\n        /* \"Farm.sol\":28983:29004  _balances[msg.sender] */\n      0x00\n        /* \"Farm.sol\":28993:29003  msg.sender */\n      caller\n        /* \"Farm.sol\":28983:29004  _balances[msg.sender] */\n      0xffffffffffffffffffffffffffffffffffffffff\n      and\n      0xffffffffffffffffffffffffffffffffffffffff\n      and\n      dup2\n      mstore\n      0x20\n      add\n      swap1\n      dup2\n      mstore\n      0x20\n      add\n      0x00\n      keccak256\n      sload\n        /* \"Farm.sol\":28974:28982  withdraw */\n      tag_65\n        /* \"Farm.sol\":28974:29005  withdraw(_balances[msg.sender]) */\n      jump\t// in\n    tag_291:\n        /* \"Farm.sol\":29016:29027  getReward() */\n      tag_292\n        /* \"Farm.sol\":29016:29025  getReward */\n      tag_78\n        /* \"Farm.sol\":29016:29027  getReward() */\n      jump\t// in\n    tag_292:\n        /* \"Farm.sol\":28938:29035  function exit() external {\r... */\n      jump\t// out\n        /* \"Farm.sol\":24915:24946  uint256 public periodFinish = 0 */\n    tag_139:\n      sload(0x04)\n      dup2\n      jump\t// out\n        /* \"Farm.sol\":24093:24294  function transferOwnership(address newOwner) public virtual onlyOwner {\r... */\n    tag_143:\n        /* \"Farm.sol\":23073:23086  _checkOwner() */\n      tag_294\n        /* \"Farm.sol\":23073:23084  _checkOwner */\n      tag_191\n        /* \"Farm.sol\":23073:23086  _checkOwner() */\n      jump\t// in\n    tag_294:\n        /* \"Farm.sol\":24202:24203  0 */\n      0x00\n        /* \"Farm.sol\":24182:24204  newOwner != address(0) */\n      0xffffffffffffffffffffffffffffffffffffffff\n      and\n        /* \"Farm.sol\":24182:24190  newOwner */\n      dup2\n        /* \"Farm.sol\":24182:24204  newOwner != address(0) */\n      0xffffffffffffffffffffffffffffffffffffffff\n      and\n      eq\n      iszero\n        /* \"Farm.sol\":24174:24247  require(newOwner != address(0), \"Ownable: new owner is the zero address\") */\n      tag_296\n      jumpi\n      mload(0x40)\n      0x08c379a000000000000000000000000000000000000000000000000000000000\n      dup2\n      mstore\n      0x04\n      add\n      tag_297\n      swap1\n      tag_298\n      jump\t// in\n    tag_297:\n      mload(0x40)\n      dup1\n      swap2\n      sub\n      swap1\n      revert\n    tag_296:\n        /* \"Farm.sol\":24258:24286  _transferOwnership(newOwner) */\n      tag_299\n        /* \"Farm.sol\":24277:24285  newOwner */\n      dup2\n        /* \"Farm.sol\":24258:24276  _transferOwnership */\n      tag_235\n        /* \"Farm.sol\":24258:24286  _transferOwnership(newOwner) */\n      jump\t// in\n    tag_299:\n        /* \"Farm.sol\":24093:24294  function transferOwnership(address newOwner) public virtual onlyOwner {\r... */\n      pop\n      jump\t// out\n        /* \"Farm.sol\":17293:17425  function div(uint256 a, uint256 b) internal pure returns (uint256) {\r... */\n    tag_144:\n        /* \"Farm.sol\":17351:17358  uint256 */\n      0x00\n        /* \"Farm.sol\":17378:17417  div(a, b, \"SafeMath: division by zero\") */\n      tag_301\n        /* \"Farm.sol\":17382:17383  a */\n      dup4\n        /* \"Farm.sol\":17385:17386  b */\n      dup4\n        /* \"Farm.sol\":17378:17417  div(a, b, \"SafeMath: division by zero\") */\n      mload(0x40)\n      dup1\n      0x40\n      add\n      0x40\n      mstore\n      dup1\n      0x1a\n      dup2\n      mstore\n      0x20\n      add\n      0x536166654d6174683a206469766973696f6e206279207a65726f000000000000\n      dup2\n      mstore\n      pop\n        /* \"Farm.sol\":17378:17381  div */\n      tag_302\n        /* \"Farm.sol\":17378:17417  div(a, b, \"SafeMath: division by zero\") */\n      jump\t// in\n    tag_301:\n        /* \"Farm.sol\":17371:17417  return div(a, b, \"SafeMath: division by zero\") */\n      swap1\n      pop\n        /* \"Farm.sol\":17293:17425  function div(uint256 a, uint256 b) internal pure returns (uint256) {\r... */\n      swap3\n      swap2\n      pop\n      pop\n      jump\t// out\n        /* \"Farm.sol\":16346:16817  function mul(uint256 a, uint256 b) internal pure returns (uint256) {\r... */\n    tag_145:\n        /* \"Farm.sol\":16404:16411  uint256 */\n      0x00\n        /* \"Farm.sol\":16654:16655  0 */\n      dup1\n        /* \"Farm.sol\":16649:16650  a */\n      dup4\n        /* \"Farm.sol\":16649:16655  a == 0 */\n      eq\n        /* \"Farm.sol\":16645:16692  if (a == 0) {\r... */\n      iszero\n      tag_304\n      jumpi\n        /* \"Farm.sol\":16679:16680  0 */\n      0x00\n        /* \"Farm.sol\":16672:16680  return 0 */\n      swap1\n      pop\n      jump(tag_303)\n        /* \"Farm.sol\":16645:16692  if (a == 0) {\r... */\n    tag_304:\n        /* \"Farm.sol\":16704:16713  uint256 c */\n      0x00\n        /* \"Farm.sol\":16720:16721  b */\n      dup3\n        /* \"Farm.sol\":16716:16717  a */\n      dup5\n        /* \"Farm.sol\":16716:16721  a * b */\n      tag_305\n      swap2\n      swap1\n      tag_306\n      jump\t// in\n    tag_305:\n        /* \"Farm.sol\":16704:16721  uint256 c = a * b */\n      swap1\n      pop\n        /* \"Farm.sol\":16749:16750  b */\n      dup3\n        /* \"Farm.sol\":16744:16745  a */\n      dup5\n        /* \"Farm.sol\":16740:16741  c */\n      dup3\n        /* \"Farm.sol\":16740:16745  c / a */\n      tag_307\n      swap2\n      swap1\n      tag_308\n      jump\t// in\n    tag_307:\n        /* \"Farm.sol\":16740:16750  c / a == b */\n      eq\n        /* \"Farm.sol\":16732:16788  require(c / a == b, \"SafeMath: multiplication overflow\") */\n      tag_309\n      jumpi\n      mload(0x40)\n      0x08c379a000000000000000000000000000000000000000000000000000000000\n      dup2\n      mstore\n      0x04\n      add\n      tag_310\n      swap1\n      tag_311\n      jump\t// in\n    tag_310:\n      mload(0x40)\n      dup1\n      swap2\n      sub\n      swap1\n      revert\n    tag_309:\n        /* \"Farm.sol\":16808:16809  c */\n      dup1\n        /* \"Farm.sol\":16801:16809  return c */\n      swap2\n      pop\n      pop\n        /* \"Farm.sol\":16346:16817  function mul(uint256 a, uint256 b) internal pure returns (uint256) {\r... */\n    tag_303:\n      swap3\n      swap2\n      pop\n      pop\n      jump\t// out\n        /* \"Farm.sol\":18664:18794  function mod(uint256 a, uint256 b) internal pure returns (uint256) {\r... */\n    tag_146:\n        /* \"Farm.sol\":18722:18729  uint256 */\n      0x00\n        /* \"Farm.sol\":18749:18786  mod(a, b, \"SafeMath: modulo by zero\") */\n      tag_313\n        /* \"Farm.sol\":18753:18754  a */\n      dup4\n        /* \"Farm.sol\":18756:18757  b */\n      dup4\n        /* \"Farm.sol\":18749:18786  mod(a, b, \"SafeMath: modulo by zero\") */\n      mload(0x40)\n      dup1\n      0x40\n      add\n      0x40\n      mstore\n      dup1\n      0x18\n      dup2\n      mstore\n      0x20\n      add\n      0x536166654d6174683a206d6f64756c6f206279207a65726f0000000000000000\n      dup2\n      mstore\n      pop\n        /* \"Farm.sol\":18749:18752  mod */\n      tag_314\n        /* \"Farm.sol\":18749:18786  mod(a, b, \"SafeMath: modulo by zero\") */\n      jump\t// in\n    tag_313:\n        /* \"Farm.sol\":18742:18786  return mod(a, b, \"SafeMath: modulo by zero\") */\n      swap1\n      pop\n        /* \"Farm.sol\":18664:18794  function mod(uint256 a, uint256 b) internal pure returns (uint256) {\r... */\n      swap3\n      swap2\n      pop\n      pop\n      jump\t// out\n        /* \"Farm.sol\":15456:15592  function sub(uint256 a, uint256 b) internal pure returns (uint256) {\r... */\n    tag_153:\n        /* \"Farm.sol\":15514:15521  uint256 */\n      0x00\n        /* \"Farm.sol\":15541:15584  sub(a, b, \"SafeMath: subtraction overflow\") */\n      tag_316\n        /* \"Farm.sol\":15545:15546  a */\n      dup4\n        /* \"Farm.sol\":15548:15549  b */\n      dup4\n        /* \"Farm.sol\":15541:15584  sub(a, b, \"SafeMath: subtraction overflow\") */\n      mload(0x40)\n      dup1\n      0x40\n      add\n      0x40\n      mstore\n      dup1\n      0x1e\n      dup2\n      mstore\n      0x20\n      add\n      0x536166654d6174683a207375627472616374696f6e206f766572666c6f770000\n      dup2\n      mstore\n      pop\n        /* \"Farm.sol\":15541:15544  sub */\n      tag_317\n        /* \"Farm.sol\":15541:15584  sub(a, b, \"SafeMath: subtraction overflow\") */\n      jump\t// in\n    tag_316:\n        /* \"Farm.sol\":15534:15584  return sub(a, b, \"SafeMath: subtraction overflow\") */\n      swap1\n      pop\n        /* \"Farm.sol\":15456:15592  function sub(uint256 a, uint256 b) internal pure returns (uint256) {\r... */\n      swap3\n      swap2\n      pop\n      pop\n      jump\t// out\n        /* \"Farm.sol\":14992:15173  function add(uint256 a, uint256 b) internal pure returns (uint256) {\r... */\n    tag_154:\n        /* \"Farm.sol\":15050:15057  uint256 */\n      0x00\n        /* \"Farm.sol\":15070:15079  uint256 c */\n      dup1\n        /* \"Farm.sol\":15086:15087  b */\n      dup3\n        /* \"Farm.sol\":15082:15083  a */\n      dup5\n        /* \"Farm.sol\":15082:15087  a + b */\n      tag_319\n      swap2\n      swap1\n      tag_320\n      jump\t// in\n    tag_319:\n        /* \"Farm.sol\":15070:15087  uint256 c = a + b */\n      swap1\n      pop\n        /* \"Farm.sol\":15111:15112  a */\n      dup4\n        /* \"Farm.sol\":15106:15107  c */\n      dup2\n        /* \"Farm.sol\":15106:15112  c >= a */\n      lt\n      iszero\n        /* \"Farm.sol\":15098:15144  require(c >= a, \"SafeMath: addition overflow\") */\n      tag_321\n      jumpi\n      mload(0x40)\n      0x08c379a000000000000000000000000000000000000000000000000000000000\n      dup2\n      mstore\n      0x04\n      add\n      tag_322\n      swap1\n      tag_323\n      jump\t// in\n    tag_322:\n      mload(0x40)\n      dup1\n      swap2\n      sub\n      swap1\n      revert\n    tag_321:\n        /* \"Farm.sol\":15164:15165  c */\n      dup1\n        /* \"Farm.sol\":15157:15165  return c */\n      swap2\n      pop\n      pop\n        /* \"Farm.sol\":14992:15173  function add(uint256 a, uint256 b) internal pure returns (uint256) {\r... */\n      swap3\n      swap2\n      pop\n      pop\n      jump\t// out\n        /* \"Farm.sol\":14212:14501  function _nonReentrantBefore() private {\r... */\n    tag_161:\n        /* \"Farm.sol\":13614:13615  2 */\n      0x02\n        /* \"Farm.sol\":14342:14349  _status */\n      sload(0x00)\n        /* \"Farm.sol\":14342:14361  _status != _ENTERED */\n      eq\n      iszero\n        /* \"Farm.sol\":14334:14397  require(_status != _ENTERED, \"ReentrancyGuard: reentrant call\") */\n      tag_325\n      jumpi\n      mload(0x40)\n      0x08c379a000000000000000000000000000000000000000000000000000000000\n      dup2\n      mstore\n      0x04\n      add\n      tag_326\n      swap1\n      tag_327\n      jump\t// in\n    tag_326:\n      mload(0x40)\n      dup1\n      swap2\n      sub\n      swap1\n      revert\n    tag_325:\n        /* \"Farm.sol\":13614:13615  2 */\n      0x02\n        /* \"Farm.sol\":14475:14482  _status */\n      0x00\n        /* \"Farm.sol\":14475:14493  _status = _ENTERED */\n      dup2\n      swap1\n      sstore\n      pop\n        /* \"Farm.sol\":14212:14501  function _nonReentrantBefore() private {\r... */\n      jump\t// out\n        /* \"Farm.sol\":19544:19721  function safeTransfer(IERC20 token, address to, uint256 value) internal {\r... */\n    tag_174:\n        /* \"Farm.sol\":19627:19713  _callOptionalReturn(token, abi.encodeWithSelector(token.transfer.selector, to, value)) */\n      tag_329\n        /* \"Farm.sol\":19647:19652  token */\n      dup4\n        /* \"Farm.sol\":19677:19700  token.transfer.selector */\n      shl(0xe0, 0xa9059cbb)\n        /* \"Farm.sol\":19702:19704  to */\n      dup5\n        /* \"Farm.sol\":19706:19711  value */\n      dup5\n        /* \"Farm.sol\":19654:19712  abi.encodeWithSelector(token.transfer.selector, to, value) */\n      add(0x24, mload(0x40))\n      tag_330\n      swap3\n      swap2\n      swap1\n      tag_253\n      jump\t// in\n    tag_330:\n      mload(0x40)\n      0x20\n      dup2\n      dup4\n      sub\n      sub\n      dup2\n      mstore\n      swap1\n      0x40\n      mstore\n      swap1\n      not(0xffffffffffffffffffffffffffffffffffffffffffffffffffffffff)\n      and\n      0x20\n      dup3\n      add\n      dup1\n      mload\n      0xffffffffffffffffffffffffffffffffffffffffffffffffffffffff\n      dup4\n      dup2\n      dup4\n      and\n      or\n      dup4\n      mstore\n      pop\n      pop\n      pop\n      pop\n        /* \"Farm.sol\":19627:19646  _callOptionalReturn */\n      tag_331\n        /* \"Farm.sol\":19627:19713  _callOptionalReturn(token, abi.encodeWithSelector(token.transfer.selector, to, value)) */\n      jump\t// in\n    tag_329:\n        /* \"Farm.sol\":19544:19721  function safeTransfer(IERC20 token, address to, uint256 value) internal {\r... */\n      pop\n      pop\n      pop\n      jump\t// out\n        /* \"Farm.sol\":14509:14722  function _nonReentrantAfter() private {\r... */\n    tag_177:\n        /* \"Farm.sol\":13570:13571  1 */\n      0x01\n        /* \"Farm.sol\":14692:14699  _status */\n      0x00\n        /* \"Farm.sol\":14692:14714  _status = _NOT_ENTERED */\n      dup2\n      swap1\n      sstore\n      pop\n        /* \"Farm.sol\":14509:14722  function _nonReentrantAfter() private {\r... */\n      jump\t// out\n        /* \"Farm.sol\":23352:23484  function _checkOwner() internal view virtual {\r... */\n    tag_191:\n        /* \"Farm.sol\":23427:23439  _msgSender() */\n      tag_334\n        /* \"Farm.sol\":23427:23437  _msgSender */\n      tag_335\n        /* \"Farm.sol\":23427:23439  _msgSender() */\n      jump\t// in\n    tag_334:\n        /* \"Farm.sol\":23416:23439  owner() == _msgSender() */\n      0xffffffffffffffffffffffffffffffffffffffff\n      and\n        /* \"Farm.sol\":23416:23423  owner() */\n      tag_336\n        /* \"Farm.sol\":23416:23421  owner */\n      tag_112\n        /* \"Farm.sol\":23416:23423  owner() */\n      jump\t// in\n    tag_336:\n        /* \"Farm.sol\":23416:23439  owner() == _msgSender() */\n      0xffffffffffffffffffffffffffffffffffffffff\n      and\n      eq\n        /* \"Farm.sol\":23408:23476  require(owner() == _msgSender(), \"Ownable: caller is not the owner\") */\n      tag_337\n      jumpi\n      mload(0x40)\n      0x08c379a000000000000000000000000000000000000000000000000000000000\n      dup2\n      mstore\n      0x04\n      add\n      tag_338\n      swap1\n      tag_339\n      jump\t// in\n    tag_338:\n      mload(0x40)\n      dup1\n      swap2\n      sub\n      swap1\n      revert\n    tag_337:\n        /* \"Farm.sol\":23352:23484  function _checkOwner() internal view virtual {\r... */\n      jump\t// out\n        /* \"Farm.sol\":24454:24645  function _transferOwnership(address newOwner) internal virtual {\r... */\n    tag_235:\n        /* \"Farm.sol\":24528:24544  address oldOwner */\n      0x00\n        /* \"Farm.sol\":24547:24553  _owner */\n      0x01\n      dup1\n      sload\n      swap1\n      0x0100\n      exp\n      swap1\n      div\n      0xffffffffffffffffffffffffffffffffffffffff\n      and\n        /* \"Farm.sol\":24528:24553  address oldOwner = _owner */\n      swap1\n      pop\n        /* \"Farm.sol\":24573:24581  newOwner */\n      dup2\n        /* \"Farm.sol\":24564:24570  _owner */\n      0x01\n      dup1\n        /* \"Farm.sol\":24564:24581  _owner = newOwner */\n      0x0100\n      exp\n      dup2\n      sload\n      dup2\n      0xffffffffffffffffffffffffffffffffffffffff\n      mul\n      not\n      and\n      swap1\n      dup4\n      0xffffffffffffffffffffffffffffffffffffffff\n      and\n      mul\n      or\n      swap1\n      sstore\n      pop\n        /* \"Farm.sol\":24628:24636  newOwner */\n      dup2\n        /* \"Farm.sol\":24597:24637  OwnershipTransferred(oldOwner, newOwner) */\n      0xffffffffffffffffffffffffffffffffffffffff\n      and\n        /* \"Farm.sol\":24618:24626  oldOwner */\n      dup2\n        /* \"Farm.sol\":24597:24637  OwnershipTransferred(oldOwner, newOwner) */\n      0xffffffffffffffffffffffffffffffffffffffff\n      and\n      0x8be0079c531659141344cd1fd0a4f28419497f9722a3daafe3b4186f6b6457e0\n      mload(0x40)\n      mload(0x40)\n      dup1\n      swap2\n      sub\n      swap1\n      log3\n        /* \"Farm.sol\":24517:24645  {\r... */\n      pop\n        /* \"Farm.sol\":24454:24645  function _transferOwnership(address newOwner) internal virtual {\r... */\n      pop\n      jump\t// out\n        /* \"Farm.sol\":11907:12015  function _requireNotPaused() internal view virtual {\r... */\n    tag_259:\n        /* \"Farm.sol\":11978:11986  paused() */\n      tag_342\n        /* \"Farm.sol\":11978:11984  paused */\n      tag_80\n        /* \"Farm.sol\":11978:11986  paused() */\n      jump\t// in\n    tag_342:\n        /* \"Farm.sol\":11977:11986  !paused() */\n      iszero\n        /* \"Farm.sol\":11969:12007  require(!paused(), \"Pausable: paused\") */\n      tag_343\n      jumpi\n      mload(0x40)\n      0x08c379a000000000000000000000000000000000000000000000000000000000\n      dup2\n      mstore\n      0x04\n      add\n      tag_344\n      swap1\n      tag_345\n      jump\t// in\n    tag_344:\n      mload(0x40)\n      dup1\n      swap2\n      sub\n      swap1\n      revert\n    tag_343:\n        /* \"Farm.sol\":11907:12015  function _requireNotPaused() internal view virtual {\r... */\n      jump\t// out\n        /* \"Farm.sol\":19729:19934  function safeTransferFrom(IERC20 token, address from, address to, uint256 value) internal {\r... */\n    tag_272:\n        /* \"Farm.sol\":19830:19926  _callOptionalReturn(token, abi.encodeWithSelector(token.transferFrom.selector, from, to, value)) */\n      tag_347\n        /* \"Farm.sol\":19850:19855  token */\n      dup5\n        /* \"Farm.sol\":19880:19907  token.transferFrom.selector */\n      shl(0xe0, 0x23b872dd)\n        /* \"Farm.sol\":19909:19913  from */\n      dup6\n        /* \"Farm.sol\":19915:19917  to */\n      dup6\n        /* \"Farm.sol\":19919:19924  value */\n      dup6\n        /* \"Farm.sol\":19857:19925  abi.encodeWithSelector(token.transferFrom.selector, from, to, value) */\n      add(0x24, mload(0x40))\n      tag_348\n      swap4\n      swap3\n      swap2\n      swap1\n      tag_349\n      jump\t// in\n    tag_348:\n      mload(0x40)\n      0x20\n      dup2\n      dup4\n      sub\n      sub\n      dup2\n      mstore\n      swap1\n      0x40\n      mstore\n      swap1\n      not(0xffffffffffffffffffffffffffffffffffffffffffffffffffffffff)\n      and\n      0x20\n      dup3\n      add\n      dup1\n      mload\n      0xffffffffffffffffffffffffffffffffffffffffffffffffffffffff\n      dup4\n      dup2\n      dup4\n      and\n      or\n      dup4\n      mstore\n      pop\n      pop\n      pop\n      pop\n        /* \"Farm.sol\":19830:19849  _callOptionalReturn */\n      tag_331\n        /* \"Farm.sol\":19830:19926  _callOptionalReturn(token, abi.encodeWithSelector(token.transferFrom.selector, from, to, value)) */\n      jump\t// in\n    tag_347:\n        /* \"Farm.sol\":19729:19934  function safeTransferFrom(IERC20 token, address from, address to, uint256 value) internal {\r... */\n      pop\n      pop\n      pop\n      pop\n      jump\t// out\n        /* \"Farm.sol\":17921:18199  function div(uint256 a, uint256 b, string memory errorMessage) internal pure returns (uint256) {\r... */\n    tag_302:\n        /* \"Farm.sol\":18007:18014  uint256 */\n      0x00\n        /* \"Farm.sol\":18039:18040  0 */\n      dup1\n        /* \"Farm.sol\":18035:18036  b */\n      dup4\n        /* \"Farm.sol\":18035:18040  b > 0 */\n      gt\n        /* \"Farm.sol\":18042:18054  errorMessage */\n      dup3\n        /* \"Farm.sol\":18027:18055  require(b > 0, errorMessage) */\n      swap1\n      tag_351\n      jumpi\n      mload(0x40)\n      0x08c379a000000000000000000000000000000000000000000000000000000000\n      dup2\n      mstore\n      0x04\n      add\n      tag_352\n      swap2\n      swap1\n      tag_353\n      jump\t// in\n    tag_352:\n      mload(0x40)\n      dup1\n      swap2\n      sub\n      swap1\n      revert\n    tag_351:\n      pop\n        /* \"Farm.sol\":18066:18075  uint256 c */\n      0x00\n        /* \"Farm.sol\":18082:18083  b */\n      dup4\n        /* \"Farm.sol\":18078:18079  a */\n      dup6\n        /* \"Farm.sol\":18078:18083  a / b */\n      tag_354\n      swap2\n      swap1\n      tag_308\n      jump\t// in\n    tag_354:\n        /* \"Farm.sol\":18066:18083  uint256 c = a / b */\n      swap1\n      pop\n        /* \"Farm.sol\":18190:18191  c */\n      dup1\n        /* \"Farm.sol\":18183:18191  return c */\n      swap2\n      pop\n      pop\n        /* \"Farm.sol\":17921:18199  function div(uint256 a, uint256 b, string memory errorMessage) internal pure returns (uint256) {\r... */\n      swap4\n      swap3\n      pop\n      pop\n      pop\n      jump\t// out\n        /* \"Farm.sol\":19279:19445  function mod(uint256 a, uint256 b, string memory errorMessage) internal pure returns (uint256) {\r... */\n    tag_314:\n        /* \"Farm.sol\":19365:19372  uint256 */\n      0x00\n        /* \"Farm.sol\":19398:19399  0 */\n      dup1\n        /* \"Farm.sol\":19393:19394  b */\n      dup4\n        /* \"Farm.sol\":19393:19399  b != 0 */\n      eq\n      iszero\n        /* \"Farm.sol\":19401:19413  errorMessage */\n      dup3\n        /* \"Farm.sol\":19385:19414  require(b != 0, errorMessage) */\n      swap1\n      tag_356\n      jumpi\n      mload(0x40)\n      0x08c379a000000000000000000000000000000000000000000000000000000000\n      dup2\n      mstore\n      0x04\n      add\n      tag_357\n      swap2\n      swap1\n      tag_353\n      jump\t// in\n    tag_357:\n      mload(0x40)\n      dup1\n      swap2\n      sub\n      swap1\n      revert\n    tag_356:\n      pop\n        /* \"Farm.sol\":19436:19437  b */\n      dup3\n        /* \"Farm.sol\":19432:19433  a */\n      dup5\n        /* \"Farm.sol\":19432:19437  a % b */\n      tag_358\n      swap2\n      swap1\n      tag_359\n      jump\t// in\n    tag_358:\n        /* \"Farm.sol\":19425:19437  return a % b */\n      swap1\n      pop\n        /* \"Farm.sol\":19279:19445  function mod(uint256 a, uint256 b, string memory errorMessage) internal pure returns (uint256) {\r... */\n      swap4\n      swap3\n      pop\n      pop\n      pop\n      jump\t// out\n        /* \"Farm.sol\":15895:16087  function sub(uint256 a, uint256 b, string memory errorMessage) internal pure returns (uint256) {\r... */\n    tag_317:\n        /* \"Farm.sol\":15981:15988  uint256 */\n      0x00\n        /* \"Farm.sol\":16014:16015  a */\n      dup4\n        /* \"Farm.sol\":16009:16010  b */\n      dup4\n        /* \"Farm.sol\":16009:16015  b <= a */\n      gt\n      iszero\n        /* \"Farm.sol\":16017:16029  errorMessage */\n      dup3\n        /* \"Farm.sol\":16001:16030  require(b <= a, errorMessage) */\n      swap1\n      tag_361\n      jumpi\n      mload(0x40)\n      0x08c379a000000000000000000000000000000000000000000000000000000000\n      dup2\n      mstore\n      0x04\n      add\n      tag_362\n      swap2\n      swap1\n      tag_353\n      jump\t// in\n    tag_362:\n      mload(0x40)\n      dup1\n      swap2\n      sub\n      swap1\n      revert\n    tag_361:\n      pop\n        /* \"Farm.sol\":16041:16050  uint256 c */\n      0x00\n        /* \"Farm.sol\":16057:16058  b */\n      dup4\n        /* \"Farm.sol\":16053:16054  a */\n      dup6\n        /* \"Farm.sol\":16053:16058  a - b */\n      tag_363\n      swap2\n      swap1\n      tag_364\n      jump\t// in\n    tag_363:\n        /* \"Farm.sol\":16041:16058  uint256 c = a - b */\n      swap1\n      pop\n        /* \"Farm.sol\":16078:16079  c */\n      dup1\n        /* \"Farm.sol\":16071:16079  return c */\n      swap2\n      pop\n      pop\n        /* \"Farm.sol\":15895:16087  function sub(uint256 a, uint256 b, string memory errorMessage) internal pure returns (uint256) {\r... */\n      swap4\n      swap3\n      pop\n      pop\n      pop\n      jump\t// out\n        /* \"Farm.sol\":21849:22610  function _callOptionalReturn(IERC20 token, bytes memory data) private {\r... */\n    tag_331:\n        /* \"Farm.sol\":22273:22296  bytes memory returndata */\n      0x00\n        /* \"Farm.sol\":22299:22368  address(token).functionCall(data, \"SafeERC20: low-level call failed\") */\n      tag_366\n        /* \"Farm.sol\":22327:22331  data */\n      dup3\n        /* \"Farm.sol\":22299:22368  address(token).functionCall(data, \"SafeERC20: low-level call failed\") */\n      mload(0x40)\n      dup1\n      0x40\n      add\n      0x40\n      mstore\n      dup1\n      0x20\n      dup2\n      mstore\n      0x20\n      add\n      0x5361666545524332303a206c6f772d6c6576656c2063616c6c206661696c6564\n      dup2\n      mstore\n      pop\n        /* \"Farm.sol\":22307:22312  token */\n      dup6\n        /* \"Farm.sol\":22299:22326  address(token).functionCall */\n      0xffffffffffffffffffffffffffffffffffffffff\n      and\n      tag_367\n      swap1\n        /* \"Farm.sol\":22299:22368  address(token).functionCall(data, \"SafeERC20: low-level call failed\") */\n      swap3\n      swap2\n      swap1\n      0xffffffff\n      and\n      jump\t// in\n    tag_366:\n        /* \"Farm.sol\":22273:22368  bytes memory returndata = address(token).functionCall(data, \"SafeERC20: low-level call failed\") */\n      swap1\n      pop\n        /* \"Farm.sol\":22403:22404  0 */\n      0x00\n        /* \"Farm.sol\":22383:22393  returndata */\n      dup2\n        /* \"Farm.sol\":22383:22400  returndata.length */\n      mload\n        /* \"Farm.sol\":22383:22404  returndata.length > 0 */\n      gt\n        /* \"Farm.sol\":22379:22603  if (returndata.length > 0) { // Return data is optional\r... */\n      iszero\n      tag_368\n      jumpi\n        /* \"Farm.sol\":22525:22535  returndata */\n      dup1\n        /* \"Farm.sol\":22514:22544  abi.decode(returndata, (bool)) */\n      dup1\n      0x20\n      add\n      swap1\n      mload\n      dup2\n      add\n      swap1\n      tag_369\n      swap2\n      swap1\n      tag_370\n      jump\t// in\n    tag_369:\n        /* \"Farm.sol\":22506:22591  require(abi.decode(returndata, (bool)), \"SafeERC20: ERC20 operation did not succeed\") */\n      tag_371\n      jumpi\n      mload(0x40)\n      0x08c379a000000000000000000000000000000000000000000000000000000000\n      dup2\n      mstore\n      0x04\n      add\n      tag_372\n      swap1\n      tag_373\n      jump\t// in\n    tag_372:\n      mload(0x40)\n      dup1\n      swap2\n      sub\n      swap1\n      revert\n    tag_371:\n        /* \"Farm.sol\":22379:22603  if (returndata.length > 0) { // Return data is optional\r... */\n    tag_368:\n        /* \"Farm.sol\":21919:22610  {\r... */\n      pop\n        /* \"Farm.sol\":21849:22610  function _callOptionalReturn(IERC20 token, bytes memory data) private {\r... */\n      pop\n      pop\n      jump\t// out\n        /* \"Farm.sol\":10474:10572  function _msgSender() internal view virtual returns (address) {\r... */\n    tag_335:\n        /* \"Farm.sol\":10527:10534  address */\n      0x00\n        /* \"Farm.sol\":10554:10564  msg.sender */\n      caller\n        /* \"Farm.sol\":10547:10564  return msg.sender */\n      swap1\n      pop\n        /* \"Farm.sol\":10474:10572  function _msgSender() internal view virtual returns (address) {\r... */\n      swap1\n      jump\t// out\n        /* \"Farm.sol\":4463:4658  function functionCall(address target, bytes memory data, string memory errorMessage) internal returns (bytes memory) {\r... */\n    tag_367:\n        /* \"Farm.sol\":4566:4578  bytes memory */\n      0x60\n        /* \"Farm.sol\":4598:4650  functionCallWithValue(target, data, 0, errorMessage) */\n      tag_376\n        /* \"Farm.sol\":4620:4626  target */\n      dup5\n        /* \"Farm.sol\":4628:4632  data */\n      dup5\n        /* \"Farm.sol\":4634:4635  0 */\n      0x00\n        /* \"Farm.sol\":4637:4649  errorMessage */\n      dup6\n        /* \"Farm.sol\":4598:4619  functionCallWithValue */\n      tag_377\n        /* \"Farm.sol\":4598:4650  functionCallWithValue(target, data, 0, errorMessage) */\n      jump\t// in\n    tag_376:\n        /* \"Farm.sol\":4591:4650  return functionCallWithValue(target, data, 0, errorMessage) */\n      swap1\n      pop\n        /* \"Farm.sol\":4463:4658  function functionCall(address target, bytes memory data, string memory errorMessage) internal returns (bytes memory) {\r... */\n      swap4\n      swap3\n      pop\n      pop\n      pop\n      jump\t// out\n        /* \"Farm.sol\":5515:6045  function functionCallWithValue(address target, bytes memory data, uint256 value, string memory errorMessage) internal returns (bytes memory) {\r... */\n    tag_377:\n        /* \"Farm.sol\":5642:5654  bytes memory */\n      0x60\n        /* \"Farm.sol\":5700:5705  value */\n      dup3\n        /* \"Farm.sol\":5675:5696  address(this).balance */\n      selfbalance\n        /* \"Farm.sol\":5675:5705  address(this).balance >= value */\n      lt\n      iszero\n        /* \"Farm.sol\":5667:5748  require(address(this).balance >= value, \"Address: insufficient balance for call\") */\n      tag_379\n      jumpi\n      mload(0x40)\n      0x08c379a000000000000000000000000000000000000000000000000000000000\n      dup2\n      mstore\n      0x04\n      add\n      tag_380\n      swap1\n      tag_381\n      jump\t// in\n    tag_380:\n      mload(0x40)\n      dup1\n      swap2\n      sub\n      swap1\n      revert\n    tag_379:\n        /* \"Farm.sol\":5767:5785  isContract(target) */\n      tag_382\n        /* \"Farm.sol\":5778:5784  target */\n      dup6\n        /* \"Farm.sol\":5767:5777  isContract */\n      tag_383\n        /* \"Farm.sol\":5767:5785  isContract(target) */\n      jump\t// in\n    tag_382:\n        /* \"Farm.sol\":5759:5819  require(isContract(target), \"Address: call to non-contract\") */\n      tag_384\n      jumpi\n      mload(0x40)\n      0x08c379a000000000000000000000000000000000000000000000000000000000\n      dup2\n      mstore\n      0x04\n      add\n      tag_385\n      swap1\n      tag_386\n      jump\t// in\n    tag_385:\n      mload(0x40)\n      dup1\n      swap2\n      sub\n      swap1\n      revert\n    tag_384:\n        /* \"Farm.sol\":5893:5905  bool success */\n      0x00\n        /* \"Farm.sol\":5907:5930  bytes memory returndata */\n      dup1\n        /* \"Farm.sol\":5934:5940  target */\n      dup7\n        /* \"Farm.sol\":5934:5945  target.call */\n      0xffffffffffffffffffffffffffffffffffffffff\n      and\n        /* \"Farm.sol\":5954:5959  value */\n      dup6\n        /* \"Farm.sol\":5962:5966  data */\n      dup8\n        /* \"Farm.sol\":5934:5967  target.call{ value: value }(data) */\n      mload(0x40)\n      tag_387\n      swap2\n      swap1\n      tag_388\n      jump\t// in\n    tag_387:\n      0x00\n      mload(0x40)\n      dup1\n      dup4\n      sub\n      dup2\n      dup6\n      dup8\n      gas\n      call\n      swap3\n      pop\n      pop\n      pop\n      returndatasize\n      dup1\n      0x00\n      dup2\n      eq\n      tag_391\n      jumpi\n      mload(0x40)\n      swap2\n      pop\n      and(add(returndatasize, 0x3f), not(0x1f))\n      dup3\n      add\n      0x40\n      mstore\n      returndatasize\n      dup3\n      mstore\n      returndatasize\n      0x00\n      0x20\n      dup5\n      add\n      returndatacopy\n      jump(tag_390)\n    tag_391:\n      0x60\n      swap2\n      pop\n    tag_390:\n      pop\n        /* \"Farm.sol\":5892:5967  (bool success, bytes memory returndata) = target.call{ value: value }(data) */\n      swap2\n      pop\n      swap2\n      pop\n        /* \"Farm.sol\":5985:6037  _verifyCallResult(success, returndata, errorMessage) */\n      tag_392\n        /* \"Farm.sol\":6003:6010  success */\n      dup3\n        /* \"Farm.sol\":6012:6022  returndata */\n      dup3\n        /* \"Farm.sol\":6024:6036  errorMessage */\n      dup7\n        /* \"Farm.sol\":5985:6002  _verifyCallResult */\n      tag_393\n        /* \"Farm.sol\":5985:6037  _verifyCallResult(success, returndata, errorMessage) */\n      jump\t// in\n    tag_392:\n        /* \"Farm.sol\":5978:6037  return _verifyCallResult(success, returndata, errorMessage) */\n      swap3\n      pop\n      pop\n      pop\n        /* \"Farm.sol\":5515:6045  function functionCallWithValue(address target, bytes memory data, uint256 value, string memory errorMessage) internal returns (bytes memory) {\r... */\n      swap5\n      swap4\n      pop\n      pop\n      pop\n      pop\n      jump\t// out\n        /* \"Farm.sol\":1545:1967  function isContract(address account) internal view returns (bool) {\r... */\n    tag_383:\n        /* \"Farm.sol\":1605:1609  bool */\n      0x00\n        /* \"Farm.sol\":1813:1825  uint256 size */\n      dup1\n        /* \"Farm.sol\":1924:1931  account */\n      dup3\n        /* \"Farm.sol\":1912:1932  extcodesize(account) */\n      extcodesize\n        /* \"Farm.sol\":1904:1932  size := extcodesize(account) */\n      swap1\n      pop\n        /* \"Farm.sol\":1958:1959  0 */\n      0x00\n        /* \"Farm.sol\":1951:1955  size */\n      dup2\n        /* \"Farm.sol\":1951:1959  size > 0 */\n      gt\n        /* \"Farm.sol\":1944:1959  return size > 0 */\n      swap2\n      pop\n      pop\n        /* \"Farm.sol\":1545:1967  function isContract(address account) internal view returns (bool) {\r... */\n      swap2\n      swap1\n      pop\n      jump\t// out\n        /* \"Farm.sol\":7051:7793  function _verifyCallResult(bool success, bytes memory returndata, string memory errorMessage) private pure returns(bytes memory) {\r... */\n    tag_393:\n        /* \"Farm.sol\":7166:7178  bytes memory */\n      0x60\n        /* \"Farm.sol\":7195:7202  success */\n      dup4\n        /* \"Farm.sol\":7191:7786  if (success) {\r... */\n      iszero\n      tag_396\n      jumpi\n        /* \"Farm.sol\":7226:7236  returndata */\n      dup3\n        /* \"Farm.sol\":7219:7236  return returndata */\n      swap1\n      pop\n      jump(tag_395)\n        /* \"Farm.sol\":7191:7786  if (success) {\r... */\n    tag_396:\n        /* \"Farm.sol\":7360:7361  0 */\n      0x00\n        /* \"Farm.sol\":7340:7350  returndata */\n      dup4\n        /* \"Farm.sol\":7340:7357  returndata.length */\n      mload\n        /* \"Farm.sol\":7340:7361  returndata.length > 0 */\n      gt\n        /* \"Farm.sol\":7336:7775  if (returndata.length > 0) {\r... */\n      iszero\n      tag_398\n      jumpi\n        /* \"Farm.sol\":7603:7613  returndata */\n      dup3\n        /* \"Farm.sol\":7597:7614  mload(returndata) */\n      mload\n        /* \"Farm.sol\":7664:7679  returndata_size */\n      dup1\n        /* \"Farm.sol\":7651:7661  returndata */\n      dup5\n        /* \"Farm.sol\":7647:7649  32 */\n      0x20\n        /* \"Farm.sol\":7643:7662  add(32, returndata) */\n      add\n        /* \"Farm.sol\":7636:7680  revert(add(32, returndata), returndata_size) */\n      revert\n        /* \"Farm.sol\":7336:7775  if (returndata.length > 0) {\r... */\n    tag_398:\n        /* \"Farm.sol\":7746:7758  errorMessage */\n      dup2\n        /* \"Farm.sol\":7739:7759  revert(errorMessage) */\n      mload(0x40)\n      0x08c379a000000000000000000000000000000000000000000000000000000000\n      dup2\n      mstore\n      0x04\n      add\n      tag_400\n      swap2\n      swap1\n      tag_353\n      jump\t// in\n    tag_400:\n      mload(0x40)\n      dup1\n      swap2\n      sub\n      swap1\n      revert\n        /* \"Farm.sol\":7051:7793  function _verifyCallResult(bool success, bytes memory returndata, string memory errorMessage) private pure returns(bytes memory) {\r... */\n    tag_395:\n      swap4\n      swap3\n      pop\n      pop\n      pop\n      jump\t// out\n        /* \"#utility.yul\":7:146   */\n    tag_402:\n        /* \"#utility.yul\":53:58   */\n      0x00\n        /* \"#utility.yul\":91:97   */\n      dup2\n        /* \"#utility.yul\":78:98   */\n      calldataload\n        /* \"#utility.yul\":69:98   */\n      swap1\n      pop\n        /* \"#utility.yul\":107:140   */\n      tag_404\n        /* \"#utility.yul\":134:139   */\n      dup2\n        /* \"#utility.yul\":107:140   */\n      tag_405\n      jump\t// in\n    tag_404:\n        /* \"#utility.yul\":7:146   */\n      swap3\n      swap2\n      pop\n      pop\n      jump\t// out\n        /* \"#utility.yul\":152:289   */\n    tag_406:\n        /* \"#utility.yul\":206:211   */\n      0x00\n        /* \"#utility.yul\":237:243   */\n      dup2\n        /* \"#utility.yul\":231:244   */\n      mload\n        /* \"#utility.yul\":222:244   */\n      swap1\n      pop\n        /* \"#utility.yul\":253:283   */\n      tag_408\n        /* \"#utility.yul\":277:282   */\n      dup2\n        /* \"#utility.yul\":253:283   */\n      tag_409\n      jump\t// in\n    tag_408:\n        /* \"#utility.yul\":152:289   */\n      swap3\n      swap2\n      pop\n      pop\n      jump\t// out\n        /* \"#utility.yul\":308:860   */\n    tag_410:\n        /* \"#utility.yul\":365:373   */\n      0x00\n        /* \"#utility.yul\":375:381   */\n      dup1\n        /* \"#utility.yul\":425:428   */\n      dup4\n        /* \"#utility.yul\":418:422   */\n      0x1f\n        /* \"#utility.yul\":410:416   */\n      dup5\n        /* \"#utility.yul\":406:423   */\n      add\n        /* \"#utility.yul\":402:429   */\n      slt\n        /* \"#utility.yul\":392:514   */\n      tag_412\n      jumpi\n        /* \"#utility.yul\":433:512   */\n      tag_413\n      tag_414\n      jump\t// in\n    tag_413:\n        /* \"#utility.yul\":392:514   */\n    tag_412:\n        /* \"#utility.yul\":546:552   */\n      dup3\n        /* \"#utility.yul\":533:553   */\n      calldataload\n        /* \"#utility.yul\":523:553   */\n      swap1\n      pop\n        /* \"#utility.yul\":576:594   */\n      0xffffffffffffffff\n        /* \"#utility.yul\":568:574   */\n      dup2\n        /* \"#utility.yul\":565:595   */\n      gt\n        /* \"#utility.yul\":562:679   */\n      iszero\n      tag_415\n      jumpi\n        /* \"#utility.yul\":598:677   */\n      tag_416\n      tag_417\n      jump\t// in\n    tag_416:\n        /* \"#utility.yul\":562:679   */\n    tag_415:\n        /* \"#utility.yul\":712:716   */\n      0x20\n        /* \"#utility.yul\":704:710   */\n      dup4\n        /* \"#utility.yul\":700:717   */\n      add\n        /* \"#utility.yul\":688:717   */\n      swap2\n      pop\n        /* \"#utility.yul\":766:769   */\n      dup4\n        /* \"#utility.yul\":758:762   */\n      0x01\n        /* \"#utility.yul\":750:756   */\n      dup3\n        /* \"#utility.yul\":746:763   */\n      mul\n        /* \"#utility.yul\":736:744   */\n      dup4\n        /* \"#utility.yul\":732:764   */\n      add\n        /* \"#utility.yul\":729:770   */\n      gt\n        /* \"#utility.yul\":726:854   */\n      iszero\n      tag_418\n      jumpi\n        /* \"#utility.yul\":773:852   */\n      tag_419\n      tag_420\n      jump\t// in\n    tag_419:\n        /* \"#utility.yul\":726:854   */\n    tag_418:\n        /* \"#utility.yul\":308:860   */\n      swap3\n      pop\n      swap3\n      swap1\n      pop\n      jump\t// out\n        /* \"#utility.yul\":866:1005   */\n    tag_421:\n        /* \"#utility.yul\":912:917   */\n      0x00\n        /* \"#utility.yul\":950:956   */\n      dup2\n        /* \"#utility.yul\":937:957   */\n      calldataload\n        /* \"#utility.yul\":928:957   */\n      swap1\n      pop\n        /* \"#utility.yul\":966:999   */\n      tag_423\n        /* \"#utility.yul\":993:998   */\n      dup2\n        /* \"#utility.yul\":966:999   */\n      tag_424\n      jump\t// in\n    tag_423:\n        /* \"#utility.yul\":866:1005   */\n      swap3\n      swap2\n      pop\n      pop\n      jump\t// out\n        /* \"#utility.yul\":1011:1154   */\n    tag_425:\n        /* \"#utility.yul\":1068:1073   */\n      0x00\n        /* \"#utility.yul\":1099:1105   */\n      dup2\n        /* \"#utility.yul\":1093:1106   */\n      mload\n        /* \"#utility.yul\":1084:1106   */\n      swap1\n      pop\n        /* \"#utility.yul\":1115:1148   */\n      tag_427\n        /* \"#utility.yul\":1142:1147   */\n      dup2\n        /* \"#utility.yul\":1115:1148   */\n      tag_424\n      jump\t// in\n    tag_427:\n        /* \"#utility.yul\":1011:1154   */\n      swap3\n      swap2\n      pop\n      pop\n      jump\t// out\n        /* \"#utility.yul\":1160:1489   */\n    tag_42:\n        /* \"#utility.yul\":1219:1225   */\n      0x00\n        /* \"#utility.yul\":1268:1270   */\n      0x20\n        /* \"#utility.yul\":1256:1265   */\n      dup3\n        /* \"#utility.yul\":1247:1254   */\n      dup5\n        /* \"#utility.yul\":1243:1266   */\n      sub\n        /* \"#utility.yul\":1239:1271   */\n      slt\n        /* \"#utility.yul\":1236:1355   */\n      iszero\n      tag_429\n      jumpi\n        /* \"#utility.yul\":1274:1353   */\n      tag_430\n      tag_431\n      jump\t// in\n    tag_430:\n        /* \"#utility.yul\":1236:1355   */\n    tag_429:\n        /* \"#utility.yul\":1394:1395   */\n      0x00\n        /* \"#utility.yul\":1419:1472   */\n      tag_432\n        /* \"#utility.yul\":1464:1471   */\n      dup5\n        /* \"#utility.yul\":1455:1461   */\n      dup3\n        /* \"#utility.yul\":1444:1453   */\n      dup6\n        /* \"#utility.yul\":1440:1462   */\n      add\n        /* \"#utility.yul\":1419:1472   */\n      tag_402\n      jump\t// in\n    tag_432:\n        /* \"#utility.yul\":1409:1472   */\n      swap2\n      pop\n        /* \"#utility.yul\":1365:1482   */\n      pop\n        /* \"#utility.yul\":1160:1489   */\n      swap3\n      swap2\n      pop\n      pop\n      jump\t// out\n        /* \"#utility.yul\":1495:2458   */\n    tag_52:\n        /* \"#utility.yul\":1592:1598   */\n      0x00\n        /* \"#utility.yul\":1600:1606   */\n      dup1\n        /* \"#utility.yul\":1608:1614   */\n      0x00\n        /* \"#utility.yul\":1616:1622   */\n      dup1\n        /* \"#utility.yul\":1624:1630   */\n      0x00\n        /* \"#utility.yul\":1673:1676   */\n      0x80\n        /* \"#utility.yul\":1661:1670   */\n      dup7\n        /* \"#utility.yul\":1652:1659   */\n      dup9\n        /* \"#utility.yul\":1648:1671   */\n      sub\n        /* \"#utility.yul\":1644:1677   */\n      slt\n        /* \"#utility.yul\":1641:1761   */\n      iszero\n      tag_434\n      jumpi\n        /* \"#utility.yul\":1680:1759   */\n      tag_435\n      tag_431\n      jump\t// in\n    tag_435:\n        /* \"#utility.yul\":1641:1761   */\n    tag_434:\n        /* \"#utility.yul\":1800:1801   */\n      0x00\n        /* \"#utility.yul\":1825:1878   */\n      tag_436\n        /* \"#utility.yul\":1870:1877   */\n      dup9\n        /* \"#utility.yul\":1861:1867   */\n      dup3\n        /* \"#utility.yul\":1850:1859   */\n      dup10\n        /* \"#utility.yul\":1846:1868   */\n      add\n        /* \"#utility.yul\":1825:1878   */\n      tag_402\n      jump\t// in\n    tag_436:\n        /* \"#utility.yul\":1815:1878   */\n      swap6\n      pop\n        /* \"#utility.yul\":1771:1888   */\n      pop\n        /* \"#utility.yul\":1927:1929   */\n      0x20\n        /* \"#utility.yul\":1953:2006   */\n      tag_437\n        /* \"#utility.yul\":1998:2005   */\n      dup9\n        /* \"#utility.yul\":1989:1995   */\n      dup3\n        /* \"#utility.yul\":1978:1987   */\n      dup10\n        /* \"#utility.yul\":1974:1996   */\n      add\n        /* \"#utility.yul\":1953:2006   */\n      tag_402\n      jump\t// in\n    tag_437:\n        /* \"#utility.yul\":1943:2006   */\n      swap5\n      pop\n        /* \"#utility.yul\":1898:2016   */\n      pop\n        /* \"#utility.yul\":2055:2057   */\n      0x40\n        /* \"#utility.yul\":2081:2134   */\n      tag_438\n        /* \"#utility.yul\":2126:2133   */\n      dup9\n        /* \"#utility.yul\":2117:2123   */\n      dup3\n        /* \"#utility.yul\":2106:2115   */\n      dup10\n        /* \"#utility.yul\":2102:2124   */\n      add\n        /* \"#utility.yul\":2081:2134   */\n      tag_421\n      jump\t// in\n    tag_438:\n        /* \"#utility.yul\":2071:2134   */\n      swap4\n      pop\n        /* \"#utility.yul\":2026:2144   */\n      pop\n        /* \"#utility.yul\":2211:2213   */\n      0x60\n        /* \"#utility.yul\":2200:2209   */\n      dup7\n        /* \"#utility.yul\":2196:2214   */\n      add\n        /* \"#utility.yul\":2183:2215   */\n      calldataload\n        /* \"#utility.yul\":2242:2260   */\n      0xffffffffffffffff\n        /* \"#utility.yul\":2234:2240   */\n      dup2\n        /* \"#utility.yul\":2231:2261   */\n      gt\n        /* \"#utility.yul\":2228:2345   */\n      iszero\n      tag_439\n      jumpi\n        /* \"#utility.yul\":2264:2343   */\n      tag_440\n      tag_441\n      jump\t// in\n    tag_440:\n        /* \"#utility.yul\":2228:2345   */\n    tag_439:\n        /* \"#utility.yul\":2377:2441   */\n      tag_442\n        /* \"#utility.yul\":2433:2440   */\n      dup9\n        /* \"#utility.yul\":2424:2430   */\n      dup3\n        /* \"#utility.yul\":2413:2422   */\n      dup10\n        /* \"#utility.yul\":2409:2431   */\n      add\n        /* \"#utility.yul\":2377:2441   */\n      tag_410\n      jump\t// in\n    tag_442:\n        /* \"#utility.yul\":2359:2441   */\n      swap3\n      pop\n      swap3\n      pop\n        /* \"#utility.yul\":2154:2451   */\n      pop\n        /* \"#utility.yul\":1495:2458   */\n      swap3\n      swap6\n      pop\n      swap3\n      swap6\n      swap1\n      swap4\n      pop\n      jump\t// out\n        /* \"#utility.yul\":2464:2938   */\n    tag_105:\n        /* \"#utility.yul\":2532:2538   */\n      0x00\n        /* \"#utility.yul\":2540:2546   */\n      dup1\n        /* \"#utility.yul\":2589:2591   */\n      0x40\n        /* \"#utility.yul\":2577:2586   */\n      dup4\n        /* \"#utility.yul\":2568:2575   */\n      dup6\n        /* \"#utility.yul\":2564:2587   */\n      sub\n        /* \"#utility.yul\":2560:2592   */\n      slt\n        /* \"#utility.yul\":2557:2676   */\n      iszero\n      tag_444\n      jumpi\n        /* \"#utility.yul\":2595:2674   */\n      tag_445\n      tag_431\n      jump\t// in\n    tag_445:\n        /* \"#utility.yul\":2557:2676   */\n    tag_444:\n        /* \"#utility.yul\":2715:2716   */\n      0x00\n        /* \"#utility.yul\":2740:2793   */\n      tag_446\n        /* \"#utility.yul\":2785:2792   */\n      dup6\n        /* \"#utility.yul\":2776:2782   */\n      dup3\n        /* \"#utility.yul\":2765:2774   */\n      dup7\n        /* \"#utility.yul\":2761:2783   */\n      add\n        /* \"#utility.yul\":2740:2793   */\n      tag_402\n      jump\t// in\n    tag_446:\n        /* \"#utility.yul\":2730:2793   */\n      swap3\n      pop\n        /* \"#utility.yul\":2686:2803   */\n      pop\n        /* \"#utility.yul\":2842:2844   */\n      0x20\n        /* \"#utility.yul\":2868:2921   */\n      tag_447\n        /* \"#utility.yul\":2913:2920   */\n      dup6\n        /* \"#utility.yul\":2904:2910   */\n      dup3\n        /* \"#utility.yul\":2893:2902   */\n      dup7\n        /* \"#utility.yul\":2889:2911   */\n      add\n        /* \"#utility.yul\":2868:2921   */\n      tag_421\n      jump\t// in\n    tag_447:\n        /* \"#utility.yul\":2858:2921   */\n      swap2\n      pop\n        /* \"#utility.yul\":2813:2931   */\n      pop\n        /* \"#utility.yul\":2464:2938   */\n      swap3\n      pop\n      swap3\n      swap1\n      pop\n      jump\t// out\n        /* \"#utility.yul\":2944:3289   */\n    tag_370:\n        /* \"#utility.yul\":3011:3017   */\n      0x00\n        /* \"#utility.yul\":3060:3062   */\n      0x20\n        /* \"#utility.yul\":3048:3057   */\n      dup3\n        /* \"#utility.yul\":3039:3046   */\n      dup5\n        /* \"#utility.yul\":3035:3058   */\n      sub\n        /* \"#utility.yul\":3031:3063   */\n      slt\n        /* \"#utility.yul\":3028:3147   */\n      iszero\n      tag_449\n      jumpi\n        /* \"#utility.yul\":3066:3145   */\n      tag_450\n      tag_431\n      jump\t// in\n    tag_450:\n        /* \"#utility.yul\":3028:3147   */\n    tag_449:\n        /* \"#utility.yul\":3186:3187   */\n      0x00\n        /* \"#utility.yul\":3211:3272   */\n      tag_451\n        /* \"#utility.yul\":3264:3271   */\n      dup5\n        /* \"#utility.yul\":3255:3261   */\n      dup3\n        /* \"#utility.yul\":3244:3253   */\n      dup6\n        /* \"#utility.yul\":3240:3262   */\n      add\n        /* \"#utility.yul\":3211:3272   */\n      tag_406\n      jump\t// in\n    tag_451:\n        /* \"#utility.yul\":3201:3272   */\n      swap2\n      pop\n        /* \"#utility.yul\":3157:3282   */\n      pop\n        /* \"#utility.yul\":2944:3289   */\n      swap3\n      swap2\n      pop\n      pop\n      jump\t// out\n        /* \"#utility.yul\":3295:3624   */\n    tag_64:\n        /* \"#utility.yul\":3354:3360   */\n      0x00\n        /* \"#utility.yul\":3403:3405   */\n      0x20\n        /* \"#utility.yul\":3391:3400   */\n      dup3\n        /* \"#utility.yul\":3382:3389   */\n      dup5\n        /* \"#utility.yul\":3378:3401   */\n      sub\n        /* \"#utility.yul\":3374:3406   */\n      slt\n        /* \"#utility.yul\":3371:3490   */\n      iszero\n      tag_453\n      jumpi\n        /* \"#utility.yul\":3409:3488   */\n      tag_454\n      tag_431\n      jump\t// in\n    tag_454:\n        /* \"#utility.yul\":3371:3490   */\n    tag_453:\n        /* \"#utility.yul\":3529:3530   */\n      0x00\n        /* \"#utility.yul\":3554:3607   */\n      tag_455\n        /* \"#utility.yul\":3599:3606   */\n      dup5\n        /* \"#utility.yul\":3590:3596   */\n      dup3\n        /* \"#utility.yul\":3579:3588   */\n      dup6\n        /* \"#utility.yul\":3575:3597   */\n      add\n        /* \"#utility.yul\":3554:3607   */\n      tag_421\n      jump\t// in\n    tag_455:\n        /* \"#utility.yul\":3544:3607   */\n      swap2\n      pop\n        /* \"#utility.yul\":3500:3617   */\n      pop\n        /* \"#utility.yul\":3295:3624   */\n      swap3\n      swap2\n      pop\n      pop\n      jump\t// out\n        /* \"#utility.yul\":3630:3981   */\n    tag_210:\n        /* \"#utility.yul\":3700:3706   */\n      0x00\n        /* \"#utility.yul\":3749:3751   */\n      0x20\n        /* \"#utility.yul\":3737:3746   */\n      dup3\n        /* \"#utility.yul\":3728:3735   */\n      dup5\n        /* \"#utility.yul\":3724:3747   */\n      sub\n        /* \"#utility.yul\":3720:3752   */\n      slt\n        /* \"#utility.yul\":3717:3836   */\n      iszero\n      tag_457\n      jumpi\n        /* \"#utility.yul\":3755:3834   */\n      tag_458\n      tag_431\n      jump\t// in\n    tag_458:\n        /* \"#utility.yul\":3717:3836   */\n    tag_457:\n        /* \"#utility.yul\":3875:3876   */\n      0x00\n        /* \"#utility.yul\":3900:3964   */\n      tag_459\n        /* \"#utility.yul\":3956:3963   */\n      dup5\n        /* \"#utility.yul\":3947:3953   */\n      dup3\n        /* \"#utility.yul\":3936:3945   */\n      dup6\n        /* \"#utility.yul\":3932:3954   */\n      add\n        /* \"#utility.yul\":3900:3964   */\n      tag_425\n      jump\t// in\n    tag_459:\n        /* \"#utility.yul\":3890:3964   */\n      swap2\n      pop\n        /* \"#utility.yul\":3846:3974   */\n      pop\n        /* \"#utility.yul\":3630:3981   */\n      swap3\n      swap2\n      pop\n      pop\n      jump\t// out\n        /* \"#utility.yul\":3987:4461   */\n    tag_68:\n        /* \"#utility.yul\":4055:4061   */\n      0x00\n        /* \"#utility.yul\":4063:4069   */\n      dup1\n        /* \"#utility.yul\":4112:4114   */\n      0x40\n        /* \"#utility.yul\":4100:4109   */\n      dup4\n        /* \"#utility.yul\":4091:4098   */\n      dup6\n        /* \"#utility.yul\":4087:4110   */\n      sub\n        /* \"#utility.yul\":4083:4115   */\n      slt\n        /* \"#utility.yul\":4080:4199   */\n      iszero\n      tag_461\n      jumpi\n        /* \"#utility.yul\":4118:4197   */\n      tag_462\n      tag_431\n      jump\t// in\n    tag_462:\n        /* \"#utility.yul\":4080:4199   */\n    tag_461:\n        /* \"#utility.yul\":4238:4239   */\n      0x00\n        /* \"#utility.yul\":4263:4316   */\n      tag_463\n        /* \"#utility.yul\":4308:4315   */\n      dup6\n        /* \"#utility.yul\":4299:4305   */\n      dup3\n        /* \"#utility.yul\":4288:4297   */\n      dup7\n        /* \"#utility.yul\":4284:4306   */\n      add\n        /* \"#utility.yul\":4263:4316   */\n      tag_421\n      jump\t// in\n    tag_463:\n        /* \"#utility.yul\":4253:4316   */\n      swap3\n      pop\n        /* \"#utility.yul\":4209:4326   */\n      pop\n        /* \"#utility.yul\":4365:4367   */\n      0x20\n        /* \"#utility.yul\":4391:4444   */\n      tag_464\n        /* \"#utility.yul\":4436:4443   */\n      dup6\n        /* \"#utility.yul\":4427:4433   */\n      dup3\n        /* \"#utility.yul\":4416:4425   */\n      dup7\n        /* \"#utility.yul\":4412:4434   */\n      add\n        /* \"#utility.yul\":4391:4444   */\n      tag_421\n      jump\t// in\n    tag_464:\n        /* \"#utility.yul\":4381:4444   */\n      swap2\n      pop\n        /* \"#utility.yul\":4336:4454   */\n      pop\n        /* \"#utility.yul\":3987:4461   */\n      swap3\n      pop\n      swap3\n      swap1\n      pop\n      jump\t// out\n        /* \"#utility.yul\":4467:4585   */\n    tag_465:\n        /* \"#utility.yul\":4554:4578   */\n      tag_467\n        /* \"#utility.yul\":4572:4577   */\n      dup2\n        /* \"#utility.yul\":4554:4578   */\n      tag_468\n      jump\t// in\n    tag_467:\n        /* \"#utility.yul\":4549:4552   */\n      dup3\n        /* \"#utility.yul\":4542:4579   */\n      mstore\n        /* \"#utility.yul\":4467:4585   */\n      pop\n      pop\n      jump\t// out\n        /* \"#utility.yul\":4591:4700   */\n    tag_469:\n        /* \"#utility.yul\":4672:4693   */\n      tag_471\n        /* \"#utility.yul\":4687:4692   */\n      dup2\n        /* \"#utility.yul\":4672:4693   */\n      tag_472\n      jump\t// in\n    tag_471:\n        /* \"#utility.yul\":4667:4670   */\n      dup3\n        /* \"#utility.yul\":4660:4694   */\n      mstore\n        /* \"#utility.yul\":4591:4700   */\n      pop\n      pop\n      jump\t// out\n        /* \"#utility.yul\":4706:4821   */\n    tag_473:\n        /* \"#utility.yul\":4791:4814   */\n      tag_475\n        /* \"#utility.yul\":4808:4813   */\n      dup2\n        /* \"#utility.yul\":4791:4814   */\n      tag_476\n      jump\t// in\n    tag_475:\n        /* \"#utility.yul\":4786:4789   */\n      dup3\n        /* \"#utility.yul\":4779:4815   */\n      mstore\n        /* \"#utility.yul\":4706:4821   */\n      pop\n      pop\n      jump\t// out\n        /* \"#utility.yul\":4827:5200   */\n    tag_477:\n        /* \"#utility.yul\":4931:4934   */\n      0x00\n        /* \"#utility.yul\":4959:4997   */\n      tag_479\n        /* \"#utility.yul\":4991:4996   */\n      dup3\n        /* \"#utility.yul\":4959:4997   */\n      tag_480\n      jump\t// in\n    tag_479:\n        /* \"#utility.yul\":5013:5101   */\n      tag_481\n        /* \"#utility.yul\":5094:5100   */\n      dup2\n        /* \"#utility.yul\":5089:5092   */\n      dup6\n        /* \"#utility.yul\":5013:5101   */\n      tag_482\n      jump\t// in\n    tag_481:\n        /* \"#utility.yul\":5006:5101   */\n      swap4\n      pop\n        /* \"#utility.yul\":5110:5162   */\n      tag_483\n        /* \"#utility.yul\":5155:5161   */\n      dup2\n        /* \"#utility.yul\":5150:5153   */\n      dup6\n        /* \"#utility.yul\":5143:5147   */\n      0x20\n        /* \"#utility.yul\":5136:5141   */\n      dup7\n        /* \"#utility.yul\":5132:5148   */\n      add\n        /* \"#utility.yul\":5110:5162   */\n      tag_484\n      jump\t// in\n    tag_483:\n        /* \"#utility.yul\":5187:5193   */\n      dup1\n        /* \"#utility.yul\":5182:5185   */\n      dup5\n        /* \"#utility.yul\":5178:5194   */\n      add\n        /* \"#utility.yul\":5171:5194   */\n      swap2\n      pop\n        /* \"#utility.yul\":4935:5200   */\n      pop\n        /* \"#utility.yul\":4827:5200   */\n      swap3\n      swap2\n      pop\n      pop\n      jump\t// out\n        /* \"#utility.yul\":5206:5365   */\n    tag_485:\n        /* \"#utility.yul\":5307:5358   */\n      tag_487\n        /* \"#utility.yul\":5352:5357   */\n      dup2\n        /* \"#utility.yul\":5307:5358   */\n      tag_488\n      jump\t// in\n    tag_487:\n        /* \"#utility.yul\":5302:5305   */\n      dup3\n        /* \"#utility.yul\":5295:5359   */\n      mstore\n        /* \"#utility.yul\":5206:5365   */\n      pop\n      pop\n      jump\t// out\n        /* \"#utility.yul\":5371:5735   */\n    tag_489:\n        /* \"#utility.yul\":5459:5462   */\n      0x00\n        /* \"#utility.yul\":5487:5526   */\n      tag_491\n        /* \"#utility.yul\":5520:5525   */\n      dup3\n        /* \"#utility.yul\":5487:5526   */\n      tag_492\n      jump\t// in\n    tag_491:\n        /* \"#utility.yul\":5542:5613   */\n      tag_493\n        /* \"#utility.yul\":5606:5612   */\n      dup2\n        /* \"#utility.yul\":5601:5604   */\n      dup6\n        /* \"#utility.yul\":5542:5613   */\n      tag_494\n      jump\t// in\n    tag_493:\n        /* \"#utility.yul\":5535:5613   */\n      swap4\n      pop\n        /* \"#utility.yul\":5622:5674   */\n      tag_495\n        /* \"#utility.yul\":5667:5673   */\n      dup2\n        /* \"#utility.yul\":5662:5665   */\n      dup6\n        /* \"#utility.yul\":5655:5659   */\n      0x20\n        /* \"#utility.yul\":5648:5653   */\n      dup7\n        /* \"#utility.yul\":5644:5660   */\n      add\n        /* \"#utility.yul\":5622:5674   */\n      tag_484\n      jump\t// in\n    tag_495:\n        /* \"#utility.yul\":5699:5728   */\n      tag_496\n        /* \"#utility.yul\":5721:5727   */\n      dup2\n        /* \"#utility.yul\":5699:5728   */\n      tag_497\n      jump\t// in\n    tag_496:\n        /* \"#utility.yul\":5694:5697   */\n      dup5\n        /* \"#utility.yul\":5690:5729   */\n      add\n        /* \"#utility.yul\":5683:5729   */\n      swap2\n      pop\n        /* \"#utility.yul\":5463:5735   */\n      pop\n        /* \"#utility.yul\":5371:5735   */\n      swap3\n      swap2\n      pop\n      pop\n      jump\t// out\n        /* \"#utility.yul\":5741:6107   */\n    tag_498:\n        /* \"#utility.yul\":5883:5886   */\n      0x00\n        /* \"#utility.yul\":5904:5971   */\n      tag_500\n        /* \"#utility.yul\":5968:5970   */\n      0x58\n        /* \"#utility.yul\":5963:5966   */\n      dup4\n        /* \"#utility.yul\":5904:5971   */\n      tag_494\n      jump\t// in\n    tag_500:\n        /* \"#utility.yul\":5897:5971   */\n      swap2\n      pop\n        /* \"#utility.yul\":5980:6073   */\n      tag_501\n        /* \"#utility.yul\":6069:6072   */\n      dup3\n        /* \"#utility.yul\":5980:6073   */\n      tag_502\n      jump\t// in\n    tag_501:\n        /* \"#utility.yul\":6098:6100   */\n      0x60\n        /* \"#utility.yul\":6093:6096   */\n      dup3\n        /* \"#utility.yul\":6089:6101   */\n      add\n        /* \"#utility.yul\":6082:6101   */\n      swap1\n      pop\n        /* \"#utility.yul\":5741:6107   */\n      swap2\n      swap1\n      pop\n      jump\t// out\n        /* \"#utility.yul\":6113:6479   */\n    tag_503:\n        /* \"#utility.yul\":6255:6258   */\n      0x00\n        /* \"#utility.yul\":6276:6343   */\n      tag_505\n        /* \"#utility.yul\":6340:6342   */\n      0x26\n        /* \"#utility.yul\":6335:6338   */\n      dup4\n        /* \"#utility.yul\":6276:6343   */\n      tag_494\n      jump\t// in\n    tag_505:\n        /* \"#utility.yul\":6269:6343   */\n      swap2\n      pop\n        /* \"#utility.yul\":6352:6445   */\n      tag_506\n        /* \"#utility.yul\":6441:6444   */\n      dup3\n        /* \"#utility.yul\":6352:6445   */\n      tag_507\n      jump\t// in\n    tag_506:\n        /* \"#utility.yul\":6470:6472   */\n      0x40\n        /* \"#utility.yul\":6465:6468   */\n      dup3\n        /* \"#utility.yul\":6461:6473   */\n      add\n        /* \"#utility.yul\":6454:6473   */\n      swap1\n      pop\n        /* \"#utility.yul\":6113:6479   */\n      swap2\n      swap1\n      pop\n      jump\t// out\n        /* \"#utility.yul\":6485:6851   */\n    tag_508:\n        /* \"#utility.yul\":6627:6630   */\n      0x00\n        /* \"#utility.yul\":6648:6715   */\n      tag_510\n        /* \"#utility.yul\":6712:6714   */\n      0x0e\n        /* \"#utility.yul\":6707:6710   */\n      dup4\n        /* \"#utility.yul\":6648:6715   */\n      tag_494\n      jump\t// in\n    tag_510:\n        /* \"#utility.yul\":6641:6715   */\n      swap2\n      pop\n        /* \"#utility.yul\":6724:6817   */\n      tag_511\n        /* \"#utility.yul\":6813:6816   */\n      dup3\n        /* \"#utility.yul\":6724:6817   */\n      tag_512\n      jump\t// in\n    tag_511:\n        /* \"#utility.yul\":6842:6844   */\n      0x20\n        /* \"#utility.yul\":6837:6840   */\n      dup3\n        /* \"#utility.yul\":6833:6845   */\n      add\n        /* \"#utility.yul\":6826:6845   */\n      swap1\n      pop\n        /* \"#utility.yul\":6485:6851   */\n      swap2\n      swap1\n      pop\n      jump\t// out\n        /* \"#utility.yul\":6857:7223   */\n    tag_513:\n        /* \"#utility.yul\":6999:7002   */\n      0x00\n        /* \"#utility.yul\":7020:7087   */\n      tag_515\n        /* \"#utility.yul\":7084:7086   */\n      0x1b\n        /* \"#utility.yul\":7079:7082   */\n      dup4\n        /* \"#utility.yul\":7020:7087   */\n      tag_494\n      jump\t// in\n    tag_515:\n        /* \"#utility.yul\":7013:7087   */\n      swap2\n      pop\n        /* \"#utility.yul\":7096:7189   */\n      tag_516\n        /* \"#utility.yul\":7185:7188   */\n      dup3\n        /* \"#utility.yul\":7096:7189   */\n      tag_517\n      jump\t// in\n    tag_516:\n        /* \"#utility.yul\":7214:7216   */\n      0x20\n        /* \"#utility.yul\":7209:7212   */\n      dup3\n        /* \"#utility.yul\":7205:7217   */\n      add\n        /* \"#utility.yul\":7198:7217   */\n      swap1\n      pop\n        /* \"#utility.yul\":6857:7223   */\n      swap2\n      swap1\n      pop\n      jump\t// out\n        /* \"#utility.yul\":7229:7595   */\n    tag_518:\n        /* \"#utility.yul\":7371:7374   */\n      0x00\n        /* \"#utility.yul\":7392:7459   */\n      tag_520\n        /* \"#utility.yul\":7456:7458   */\n      0x22\n        /* \"#utility.yul\":7451:7454   */\n      dup4\n        /* \"#utility.yul\":7392:7459   */\n      tag_494\n      jump\t// in\n    tag_520:\n        /* \"#utility.yul\":7385:7459   */\n      swap2\n      pop\n        /* \"#utility.yul\":7468:7561   */\n      tag_521\n        /* \"#utility.yul\":7557:7560   */\n      dup3\n        /* \"#utility.yul\":7468:7561   */\n      tag_522\n      jump\t// in\n    tag_521:\n        /* \"#utility.yul\":7586:7588   */\n      0x40\n        /* \"#utility.yul\":7581:7584   */\n      dup3\n        /* \"#utility.yul\":7577:7589   */\n      add\n        /* \"#utility.yul\":7570:7589   */\n      swap1\n      pop\n        /* \"#utility.yul\":7229:7595   */\n      swap2\n      swap1\n      pop\n      jump\t// out\n        /* \"#utility.yul\":7601:7967   */\n    tag_523:\n        /* \"#utility.yul\":7743:7746   */\n      0x00\n        /* \"#utility.yul\":7764:7831   */\n      tag_525\n        /* \"#utility.yul\":7828:7830   */\n      0x26\n        /* \"#utility.yul\":7823:7826   */\n      dup4\n        /* \"#utility.yul\":7764:7831   */\n      tag_494\n      jump\t// in\n    tag_525:\n        /* \"#utility.yul\":7757:7831   */\n      swap2\n      pop\n        /* \"#utility.yul\":7840:7933   */\n      tag_526\n        /* \"#utility.yul\":7929:7932   */\n      dup3\n        /* \"#utility.yul\":7840:7933   */\n      tag_527\n      jump\t// in\n    tag_526:\n        /* \"#utility.yul\":7958:7960   */\n      0x40\n        /* \"#utility.yul\":7953:7956   */\n      dup3\n        /* \"#utility.yul\":7949:7961   */\n      add\n        /* \"#utility.yul\":7942:7961   */\n      swap1\n      pop\n        /* \"#utility.yul\":7601:7967   */\n      swap2\n      swap1\n      pop\n      jump\t// out\n        /* \"#utility.yul\":7973:8339   */\n    tag_528:\n        /* \"#utility.yul\":8115:8118   */\n      0x00\n        /* \"#utility.yul\":8136:8203   */\n      tag_530\n        /* \"#utility.yul\":8200:8202   */\n      0x10\n        /* \"#utility.yul\":8195:8198   */\n      dup4\n        /* \"#utility.yul\":8136:8203   */\n      tag_494\n      jump\t// in\n    tag_530:\n        /* \"#utility.yul\":8129:8203   */\n      swap2\n      pop\n        /* \"#utility.yul\":8212:8305   */\n      tag_531\n        /* \"#utility.yul\":8301:8304   */\n      dup3\n        /* \"#utility.yul\":8212:8305   */\n      tag_532\n      jump\t// in\n    tag_531:\n        /* \"#utility.yul\":8330:8332   */\n      0x20\n        /* \"#utility.yul\":8325:8328   */\n      dup3\n        /* \"#utility.yul\":8321:8333   */\n      add\n        /* \"#utility.yul\":8314:8333   */\n      swap1\n      pop\n        /* \"#utility.yul\":7973:8339   */\n      swap2\n      swap1\n      pop\n      jump\t// out\n        /* \"#utility.yul\":8345:8711   */\n    tag_533:\n        /* \"#utility.yul\":8487:8490   */\n      0x00\n        /* \"#utility.yul\":8508:8575   */\n      tag_535\n        /* \"#utility.yul\":8572:8574   */\n      0x11\n        /* \"#utility.yul\":8567:8570   */\n      dup4\n        /* \"#utility.yul\":8508:8575   */\n      tag_494\n      jump\t// in\n    tag_535:\n        /* \"#utility.yul\":8501:8575   */\n      swap2\n      pop\n        /* \"#utility.yul\":8584:8677   */\n      tag_536\n        /* \"#utility.yul\":8673:8676   */\n      dup3\n        /* \"#utility.yul\":8584:8677   */\n      tag_537\n      jump\t// in\n    tag_536:\n        /* \"#utility.yul\":8702:8704   */\n      0x20\n        /* \"#utility.yul\":8697:8700   */\n      dup3\n        /* \"#utility.yul\":8693:8705   */\n      add\n        /* \"#utility.yul\":8686:8705   */\n      swap1\n      pop\n        /* \"#utility.yul\":8345:8711   */\n      swap2\n      swap1\n      pop\n      jump\t// out\n        /* \"#utility.yul\":8717:9083   */\n    tag_538:\n        /* \"#utility.yul\":8859:8862   */\n      0x00\n        /* \"#utility.yul\":8880:8947   */\n      tag_540\n        /* \"#utility.yul\":8944:8946   */\n      0x21\n        /* \"#utility.yul\":8939:8942   */\n      dup4\n        /* \"#utility.yul\":8880:8947   */\n      tag_494\n      jump\t// in\n    tag_540:\n        /* \"#utility.yul\":8873:8947   */\n      swap2\n      pop\n        /* \"#utility.yul\":8956:9049   */\n      tag_541\n        /* \"#utility.yul\":9045:9048   */\n      dup3\n        /* \"#utility.yul\":8956:9049   */\n      tag_542\n      jump\t// in\n    tag_541:\n        /* \"#utility.yul\":9074:9076   */\n      0x40\n        /* \"#utility.yul\":9069:9072   */\n      dup3\n        /* \"#utility.yul\":9065:9077   */\n      add\n        /* \"#utility.yul\":9058:9077   */\n      swap1\n      pop\n        /* \"#utility.yul\":8717:9083   */\n      swap2\n      swap1\n      pop\n      jump\t// out\n        /* \"#utility.yul\":9089:9455   */\n    tag_543:\n        /* \"#utility.yul\":9231:9234   */\n      0x00\n        /* \"#utility.yul\":9252:9319   */\n      tag_545\n        /* \"#utility.yul\":9316:9318   */\n      0x20\n        /* \"#utility.yul\":9311:9314   */\n      dup4\n        /* \"#utility.yul\":9252:9319   */\n      tag_494\n      jump\t// in\n    tag_545:\n        /* \"#utility.yul\":9245:9319   */\n      swap2\n      pop\n        /* \"#utility.yul\":9328:9421   */\n      tag_546\n        /* \"#utility.yul\":9417:9420   */\n      dup3\n        /* \"#utility.yul\":9328:9421   */\n      tag_547\n      jump\t// in\n    tag_546:\n        /* \"#utility.yul\":9446:9448   */\n      0x20\n        /* \"#utility.yul\":9441:9444   */\n      dup3\n        /* \"#utility.yul\":9437:9449   */\n      add\n        /* \"#utility.yul\":9430:9449   */\n      swap1\n      pop\n        /* \"#utility.yul\":9089:9455   */\n      swap2\n      swap1\n      pop\n      jump\t// out\n        /* \"#utility.yul\":9461:9827   */\n    tag_548:\n        /* \"#utility.yul\":9603:9606   */\n      0x00\n        /* \"#utility.yul\":9624:9691   */\n      tag_550\n        /* \"#utility.yul\":9688:9690   */\n      0x22\n        /* \"#utility.yul\":9683:9686   */\n      dup4\n        /* \"#utility.yul\":9624:9691   */\n      tag_494\n      jump\t// in\n    tag_550:\n        /* \"#utility.yul\":9617:9691   */\n      swap2\n      pop\n        /* \"#utility.yul\":9700:9793   */\n      tag_551\n        /* \"#utility.yul\":9789:9792   */\n      dup3\n        /* \"#utility.yul\":9700:9793   */\n      tag_552\n      jump\t// in\n    tag_551:\n        /* \"#utility.yul\":9818:9820   */\n      0x40\n        /* \"#utility.yul\":9813:9816   */\n      dup3\n        /* \"#utility.yul\":9809:9821   */\n      add\n        /* \"#utility.yul\":9802:9821   */\n      swap1\n      pop\n        /* \"#utility.yul\":9461:9827   */\n      swap2\n      swap1\n      pop\n      jump\t// out\n        /* \"#utility.yul\":9833:10199   */\n    tag_553:\n        /* \"#utility.yul\":9975:9978   */\n      0x00\n        /* \"#utility.yul\":9996:10063   */\n      tag_555\n        /* \"#utility.yul\":10060:10062   */\n      0x18\n        /* \"#utility.yul\":10055:10058   */\n      dup4\n        /* \"#utility.yul\":9996:10063   */\n      tag_494\n      jump\t// in\n    tag_555:\n        /* \"#utility.yul\":9989:10063   */\n      swap2\n      pop\n        /* \"#utility.yul\":10072:10165   */\n      tag_556\n        /* \"#utility.yul\":10161:10164   */\n      dup3\n        /* \"#utility.yul\":10072:10165   */\n      tag_557\n      jump\t// in\n    tag_556:\n        /* \"#utility.yul\":10190:10192   */\n      0x20\n        /* \"#utility.yul\":10185:10188   */\n      dup3\n        /* \"#utility.yul\":10181:10193   */\n      add\n        /* \"#utility.yul\":10174:10193   */\n      swap1\n      pop\n        /* \"#utility.yul\":9833:10199   */\n      swap2\n      swap1\n      pop\n      jump\t// out\n        /* \"#utility.yul\":10205:10571   */\n    tag_558:\n        /* \"#utility.yul\":10347:10350   */\n      0x00\n        /* \"#utility.yul\":10368:10435   */\n      tag_560\n        /* \"#utility.yul\":10432:10434   */\n      0x1d\n        /* \"#utility.yul\":10427:10430   */\n      dup4\n        /* \"#utility.yul\":10368:10435   */\n      tag_494\n      jump\t// in\n    tag_560:\n        /* \"#utility.yul\":10361:10435   */\n      swap2\n      pop\n        /* \"#utility.yul\":10444:10537   */\n      tag_561\n        /* \"#utility.yul\":10533:10536   */\n      dup3\n        /* \"#utility.yul\":10444:10537   */\n      tag_562\n      jump\t// in\n    tag_561:\n        /* \"#utility.yul\":10562:10564   */\n      0x20\n        /* \"#utility.yul\":10557:10560   */\n      dup3\n        /* \"#utility.yul\":10553:10565   */\n      add\n        /* \"#utility.yul\":10546:10565   */\n      swap1\n      pop\n        /* \"#utility.yul\":10205:10571   */\n      swap2\n      swap1\n      pop\n      jump\t// out\n        /* \"#utility.yul\":10577:10943   */\n    tag_563:\n        /* \"#utility.yul\":10719:10722   */\n      0x00\n        /* \"#utility.yul\":10740:10807   */\n      tag_565\n        /* \"#utility.yul\":10804:10806   */\n      0x2a\n        /* \"#utility.yul\":10799:10802   */\n      dup4\n        /* \"#utility.yul\":10740:10807   */\n      tag_494\n      jump\t// in\n    tag_565:\n        /* \"#utility.yul\":10733:10807   */\n      swap2\n      pop\n        /* \"#utility.yul\":10816:10909   */\n      tag_566\n        /* \"#utility.yul\":10905:10908   */\n      dup3\n        /* \"#utility.yul\":10816:10909   */\n      tag_567\n      jump\t// in\n    tag_566:\n        /* \"#utility.yul\":10934:10936   */\n      0x40\n        /* \"#utility.yul\":10929:10932   */\n      dup3\n        /* \"#utility.yul\":10925:10937   */\n      add\n        /* \"#utility.yul\":10918:10937   */\n      swap1\n      pop\n        /* \"#utility.yul\":10577:10943   */\n      swap2\n      swap1\n      pop\n      jump\t// out\n        /* \"#utility.yul\":10949:11315   */\n    tag_568:\n        /* \"#utility.yul\":11091:11094   */\n      0x00\n        /* \"#utility.yul\":11112:11179   */\n      tag_570\n        /* \"#utility.yul\":11176:11178   */\n      0x1f\n        /* \"#utility.yul\":11171:11174   */\n      dup4\n        /* \"#utility.yul\":11112:11179   */\n      tag_494\n      jump\t// in\n    tag_570:\n        /* \"#utility.yul\":11105:11179   */\n      swap2\n      pop\n        /* \"#utility.yul\":11188:11281   */\n      tag_571\n        /* \"#utility.yul\":11277:11280   */\n      dup3\n        /* \"#utility.yul\":11188:11281   */\n      tag_572\n      jump\t// in\n    tag_571:\n        /* \"#utility.yul\":11306:11308   */\n      0x20\n        /* \"#utility.yul\":11301:11304   */\n      dup3\n        /* \"#utility.yul\":11297:11309   */\n      add\n        /* \"#utility.yul\":11290:11309   */\n      swap1\n      pop\n        /* \"#utility.yul\":10949:11315   */\n      swap2\n      swap1\n      pop\n      jump\t// out\n        /* \"#utility.yul\":11321:11439   */\n    tag_573:\n        /* \"#utility.yul\":11408:11432   */\n      tag_575\n        /* \"#utility.yul\":11426:11431   */\n      dup2\n        /* \"#utility.yul\":11408:11432   */\n      tag_576\n      jump\t// in\n    tag_575:\n        /* \"#utility.yul\":11403:11406   */\n      dup3\n        /* \"#utility.yul\":11396:11433   */\n      mstore\n        /* \"#utility.yul\":11321:11439   */\n      pop\n      pop\n      jump\t// out\n        /* \"#utility.yul\":11445:11716   */\n    tag_388:\n        /* \"#utility.yul\":11575:11578   */\n      0x00\n        /* \"#utility.yul\":11597:11690   */\n      tag_578\n        /* \"#utility.yul\":11686:11689   */\n      dup3\n        /* \"#utility.yul\":11677:11683   */\n      dup5\n        /* \"#utility.yul\":11597:11690   */\n      tag_477\n      jump\t// in\n    tag_578:\n        /* \"#utility.yul\":11590:11690   */\n      swap2\n      pop\n        /* \"#utility.yul\":11707:11710   */\n      dup2\n        /* \"#utility.yul\":11700:11710   */\n      swap1\n      pop\n        /* \"#utility.yul\":11445:11716   */\n      swap3\n      swap2\n      pop\n      pop\n      jump\t// out\n        /* \"#utility.yul\":11722:11944   */\n    tag_114:\n        /* \"#utility.yul\":11815:11819   */\n      0x00\n        /* \"#utility.yul\":11853:11855   */\n      0x20\n        /* \"#utility.yul\":11842:11851   */\n      dup3\n        /* \"#utility.yul\":11838:11856   */\n      add\n        /* \"#utility.yul\":11830:11856   */\n      swap1\n      pop\n        /* \"#utility.yul\":11866:11937   */\n      tag_580\n        /* \"#utility.yul\":11934:11935   */\n      0x00\n        /* \"#utility.yul\":11923:11932   */\n      dup4\n        /* \"#utility.yul\":11919:11936   */\n      add\n        /* \"#utility.yul\":11910:11916   */\n      dup5\n        /* \"#utility.yul\":11866:11937   */\n      tag_465\n      jump\t// in\n    tag_580:\n        /* \"#utility.yul\":11722:11944   */\n      swap3\n      swap2\n      pop\n      pop\n      jump\t// out\n        /* \"#utility.yul\":11950:12392   */\n    tag_349:\n        /* \"#utility.yul\":12099:12103   */\n      0x00\n        /* \"#utility.yul\":12137:12139   */\n      0x60\n        /* \"#utility.yul\":12126:12135   */\n      dup3\n        /* \"#utility.yul\":12122:12140   */\n      add\n        /* \"#utility.yul\":12114:12140   */\n      swap1\n      pop\n        /* \"#utility.yul\":12150:12221   */\n      tag_582\n        /* \"#utility.yul\":12218:12219   */\n      0x00\n        /* \"#utility.yul\":12207:12216   */\n      dup4\n        /* \"#utility.yul\":12203:12220   */\n      add\n        /* \"#utility.yul\":12194:12200   */\n      dup7\n        /* \"#utility.yul\":12150:12221   */\n      tag_465\n      jump\t// in\n    tag_582:\n        /* \"#utility.yul\":12231:12303   */\n      tag_583\n        /* \"#utility.yul\":12299:12301   */\n      0x20\n        /* \"#utility.yul\":12288:12297   */\n      dup4\n        /* \"#utility.yul\":12284:12302   */\n      add\n        /* \"#utility.yul\":12275:12281   */\n      dup6\n        /* \"#utility.yul\":12231:12303   */\n      tag_465\n      jump\t// in\n    tag_583:\n        /* \"#utility.yul\":12313:12385   */\n      tag_584\n        /* \"#utility.yul\":12381:12383   */\n      0x40\n        /* \"#utility.yul\":12370:12379   */\n      dup4\n        /* \"#utility.yul\":12366:12384   */\n      add\n        /* \"#utility.yul\":12357:12363   */\n      dup5\n        /* \"#utility.yul\":12313:12385   */\n      tag_573\n      jump\t// in\n    tag_584:\n        /* \"#utility.yul\":11950:12392   */\n      swap5\n      swap4\n      pop\n      pop\n      pop\n      pop\n      jump\t// out\n        /* \"#utility.yul\":12398:12730   */\n    tag_253:\n        /* \"#utility.yul\":12519:12523   */\n      0x00\n        /* \"#utility.yul\":12557:12559   */\n      0x40\n        /* \"#utility.yul\":12546:12555   */\n      dup3\n        /* \"#utility.yul\":12542:12560   */\n      add\n        /* \"#utility.yul\":12534:12560   */\n      swap1\n      pop\n        /* \"#utility.yul\":12570:12641   */\n      tag_586\n        /* \"#utility.yul\":12638:12639   */\n      0x00\n        /* \"#utility.yul\":12627:12636   */\n      dup4\n        /* \"#utility.yul\":12623:12640   */\n      add\n        /* \"#utility.yul\":12614:12620   */\n      dup6\n        /* \"#utility.yul\":12570:12641   */\n      tag_465\n      jump\t// in\n    tag_586:\n        /* \"#utility.yul\":12651:12723   */\n      tag_587\n        /* \"#utility.yul\":12719:12721   */\n      0x20\n        /* \"#utility.yul\":12708:12717   */\n      dup4\n        /* \"#utility.yul\":12704:12722   */\n      add\n        /* \"#utility.yul\":12695:12701   */\n      dup5\n        /* \"#utility.yul\":12651:12723   */\n      tag_573\n      jump\t// in\n    tag_587:\n        /* \"#utility.yul\":12398:12730   */\n      swap4\n      swap3\n      pop\n      pop\n      pop\n      jump\t// out\n        /* \"#utility.yul\":12736:12946   */\n    tag_82:\n        /* \"#utility.yul\":12823:12827   */\n      0x00\n        /* \"#utility.yul\":12861:12863   */\n      0x20\n        /* \"#utility.yul\":12850:12859   */\n      dup3\n        /* \"#utility.yul\":12846:12864   */\n      add\n        /* \"#utility.yul\":12838:12864   */\n      swap1\n      pop\n        /* \"#utility.yul\":12874:12939   */\n      tag_589\n        /* \"#utility.yul\":12936:12937   */\n      0x00\n        /* \"#utility.yul\":12925:12934   */\n      dup4\n        /* \"#utility.yul\":12921:12938   */\n      add\n        /* \"#utility.yul\":12912:12918   */\n      dup5\n        /* \"#utility.yul\":12874:12939   */\n      tag_469\n      jump\t// in\n    tag_589:\n        /* \"#utility.yul\":12736:12946   */\n      swap3\n      swap2\n      pop\n      pop\n      jump\t// out\n        /* \"#utility.yul\":12952:13170   */\n    tag_55:\n        /* \"#utility.yul\":13043:13047   */\n      0x00\n        /* \"#utility.yul\":13081:13083   */\n      0x20\n        /* \"#utility.yul\":13070:13079   */\n      dup3\n        /* \"#utility.yul\":13066:13084   */\n      add\n        /* \"#utility.yul\":13058:13084   */\n      swap1\n      pop\n        /* \"#utility.yul\":13094:13163   */\n      tag_591\n        /* \"#utility.yul\":13160:13161   */\n      0x00\n        /* \"#utility.yul\":13149:13158   */\n      dup4\n        /* \"#utility.yul\":13145:13162   */\n      add\n        /* \"#utility.yul\":13136:13142   */\n      dup5\n        /* \"#utility.yul\":13094:13163   */\n      tag_473\n      jump\t// in\n    tag_591:\n        /* \"#utility.yul\":12952:13170   */\n      swap3\n      swap2\n      pop\n      pop\n      jump\t// out\n        /* \"#utility.yul\":13176:13426   */\n    tag_92:\n        /* \"#utility.yul\":13283:13287   */\n      0x00\n        /* \"#utility.yul\":13321:13323   */\n      0x20\n        /* \"#utility.yul\":13310:13319   */\n      dup3\n        /* \"#utility.yul\":13306:13324   */\n      add\n        /* \"#utility.yul\":13298:13324   */\n      swap1\n      pop\n        /* \"#utility.yul\":13334:13419   */\n      tag_593\n        /* \"#utility.yul\":13416:13417   */\n      0x00\n        /* \"#utility.yul\":13405:13414   */\n      dup4\n        /* \"#utility.yul\":13401:13418   */\n      add\n        /* \"#utility.yul\":13392:13398   */\n      dup5\n        /* \"#utility.yul\":13334:13419   */\n      tag_485\n      jump\t// in\n    tag_593:\n        /* \"#utility.yul\":13176:13426   */\n      swap3\n      swap2\n      pop\n      pop\n      jump\t// out\n        /* \"#utility.yul\":13432:13745   */\n    tag_353:\n        /* \"#utility.yul\":13545:13549   */\n      0x00\n        /* \"#utility.yul\":13583:13585   */\n      0x20\n        /* \"#utility.yul\":13572:13581   */\n      dup3\n        /* \"#utility.yul\":13568:13586   */\n      add\n        /* \"#utility.yul\":13560:13586   */\n      swap1\n      pop\n        /* \"#utility.yul\":13632:13641   */\n      dup2\n        /* \"#utility.yul\":13626:13630   */\n      dup2\n        /* \"#utility.yul\":13622:13642   */\n      sub\n        /* \"#utility.yul\":13618:13619   */\n      0x00\n        /* \"#utility.yul\":13607:13616   */\n      dup4\n        /* \"#utility.yul\":13603:13620   */\n      add\n        /* \"#utility.yul\":13596:13643   */\n      mstore\n        /* \"#utility.yul\":13660:13738   */\n      tag_595\n        /* \"#utility.yul\":13733:13737   */\n      dup2\n        /* \"#utility.yul\":13724:13730   */\n      dup5\n        /* \"#utility.yul\":13660:13738   */\n      tag_489\n      jump\t// in\n    tag_595:\n        /* \"#utility.yul\":13652:13738   */\n      swap1\n      pop\n        /* \"#utility.yul\":13432:13745   */\n      swap3\n      swap2\n      pop\n      pop\n      jump\t// out\n        /* \"#utility.yul\":13751:14170   */\n    tag_280:\n        /* \"#utility.yul\":13917:13921   */\n      0x00\n        /* \"#utility.yul\":13955:13957   */\n      0x20\n        /* \"#utility.yul\":13944:13953   */\n      dup3\n        /* \"#utility.yul\":13940:13958   */\n      add\n        /* \"#utility.yul\":13932:13958   */\n      swap1\n      pop\n        /* \"#utility.yul\":14004:14013   */\n      dup2\n        /* \"#utility.yul\":13998:14002   */\n      dup2\n        /* \"#utility.yul\":13994:14014   */\n      sub\n        /* \"#utility.yul\":13990:13991   */\n      0x00\n        /* \"#utility.yul\":13979:13988   */\n      dup4\n        /* \"#utility.yul\":13975:13992   */\n      add\n        /* \"#utility.yul\":13968:14015   */\n      mstore\n        /* \"#utility.yul\":14032:14163   */\n      tag_597\n        /* \"#utility.yul\":14158:14162   */\n      dup2\n        /* \"#utility.yul\":14032:14163   */\n      tag_498\n      jump\t// in\n    tag_597:\n        /* \"#utility.yul\":14024:14163   */\n      swap1\n      pop\n        /* \"#utility.yul\":13751:14170   */\n      swap2\n      swap1\n      pop\n      jump\t// out\n        /* \"#utility.yul\":14176:14595   */\n    tag_298:\n        /* \"#utility.yul\":14342:14346   */\n      0x00\n        /* \"#utility.yul\":14380:14382   */\n      0x20\n        /* \"#utility.yul\":14369:14378   */\n      dup3\n        /* \"#utility.yul\":14365:14383   */\n      add\n        /* \"#utility.yul\":14357:14383   */\n      swap1\n      pop\n        /* \"#utility.yul\":14429:14438   */\n      dup2\n        /* \"#utility.yul\":14423:14427   */\n      dup2\n        /* \"#utility.yul\":14419:14439   */\n      sub\n        /* \"#utility.yul\":14415:14416   */\n      0x00\n        /* \"#utility.yul\":14404:14413   */\n      dup4\n        /* \"#utility.yul\":14400:14417   */\n      add\n        /* \"#utility.yul\":14393:14440   */\n      mstore\n        /* \"#utility.yul\":14457:14588   */\n      tag_599\n        /* \"#utility.yul\":14583:14587   */\n      dup2\n        /* \"#utility.yul\":14457:14588   */\n      tag_503\n      jump\t// in\n    tag_599:\n        /* \"#utility.yul\":14449:14588   */\n      swap1\n      pop\n        /* \"#utility.yul\":14176:14595   */\n      swap2\n      swap1\n      pop\n      jump\t// out\n        /* \"#utility.yul\":14601:15020   */\n    tag_268:\n        /* \"#utility.yul\":14767:14771   */\n      0x00\n        /* \"#utility.yul\":14805:14807   */\n      0x20\n        /* \"#utility.yul\":14794:14803   */\n      dup3\n        /* \"#utility.yul\":14790:14808   */\n      add\n        /* \"#utility.yul\":14782:14808   */\n      swap1\n      pop\n        /* \"#utility.yul\":14854:14863   */\n      dup2\n        /* \"#utility.yul\":14848:14852   */\n      dup2\n        /* \"#utility.yul\":14844:14864   */\n      sub\n        /* \"#utility.yul\":14840:14841   */\n      0x00\n        /* \"#utility.yul\":14829:14838   */\n      dup4\n        /* \"#utility.yul\":14825:14842   */\n      add\n        /* \"#utility.yul\":14818:14865   */\n      mstore\n        /* \"#utility.yul\":14882:15013   */\n      tag_601\n        /* \"#utility.yul\":15008:15012   */\n      dup2\n        /* \"#utility.yul\":14882:15013   */\n      tag_508\n      jump\t// in\n    tag_601:\n        /* \"#utility.yul\":14874:15013   */\n      swap1\n      pop\n        /* \"#utility.yul\":14601:15020   */\n      swap2\n      swap1\n      pop\n      jump\t// out\n        /* \"#utility.yul\":15026:15445   */\n    tag_323:\n        /* \"#utility.yul\":15192:15196   */\n      0x00\n        /* \"#utility.yul\":15230:15232   */\n      0x20\n        /* \"#utility.yul\":15219:15228   */\n      dup3\n        /* \"#utility.yul\":15215:15233   */\n      add\n        /* \"#utility.yul\":15207:15233   */\n      swap1\n      pop\n        /* \"#utility.yul\":15279:15288   */\n      dup2\n        /* \"#utility.yul\":15273:15277   */\n      dup2\n        /* \"#utility.yul\":15269:15289   */\n      sub\n        /* \"#utility.yul\":15265:15266   */\n      0x00\n        /* \"#utility.yul\":15254:15263   */\n      dup4\n        /* \"#utility.yul\":15250:15267   */\n      add\n        /* \"#utility.yul\":15243:15290   */\n      mstore\n        /* \"#utility.yul\":15307:15438   */\n      tag_603\n        /* \"#utility.yul\":15433:15437   */\n      dup2\n        /* \"#utility.yul\":15307:15438   */\n      tag_513\n      jump\t// in\n    tag_603:\n        /* \"#utility.yul\":15299:15438   */\n      swap1\n      pop\n        /* \"#utility.yul\":15026:15445   */\n      swap2\n      swap1\n      pop\n      jump\t// out\n        /* \"#utility.yul\":15451:15870   */\n    tag_246:\n        /* \"#utility.yul\":15617:15621   */\n      0x00\n        /* \"#utility.yul\":15655:15657   */\n      0x20\n        /* \"#utility.yul\":15644:15653   */\n      dup3\n        /* \"#utility.yul\":15640:15658   */\n      add\n        /* \"#utility.yul\":15632:15658   */\n      swap1\n      pop\n        /* \"#utility.yul\":15704:15713   */\n      dup2\n        /* \"#utility.yul\":15698:15702   */\n      dup2\n        /* \"#utility.yul\":15694:15714   */\n      sub\n        /* \"#utility.yul\":15690:15691   */\n      0x00\n        /* \"#utility.yul\":15679:15688   */\n      dup4\n        /* \"#utility.yul\":15675:15692   */\n      add\n        /* \"#utility.yul\":15668:15715   */\n      mstore\n        /* \"#utility.yul\":15732:15863   */\n      tag_605\n        /* \"#utility.yul\":15858:15862   */\n      dup2\n        /* \"#utility.yul\":15732:15863   */\n      tag_518\n      jump\t// in\n    tag_605:\n        /* \"#utility.yul\":15724:15863   */\n      swap1\n      pop\n        /* \"#utility.yul\":15451:15870   */\n      swap2\n      swap1\n      pop\n      jump\t// out\n        /* \"#utility.yul\":15876:16295   */\n    tag_381:\n        /* \"#utility.yul\":16042:16046   */\n      0x00\n        /* \"#utility.yul\":16080:16082   */\n      0x20\n        /* \"#utility.yul\":16069:16078   */\n      dup3\n        /* \"#utility.yul\":16065:16083   */\n      add\n        /* \"#utility.yul\":16057:16083   */\n      swap1\n      pop\n        /* \"#utility.yul\":16129:16138   */\n      dup2\n        /* \"#utility.yul\":16123:16127   */\n      dup2\n        /* \"#utility.yul\":16119:16139   */\n      sub\n        /* \"#utility.yul\":16115:16116   */\n      0x00\n        /* \"#utility.yul\":16104:16113   */\n      dup4\n        /* \"#utility.yul\":16100:16117   */\n      add\n        /* \"#utility.yul\":16093:16140   */\n      mstore\n        /* \"#utility.yul\":16157:16288   */\n      tag_607\n        /* \"#utility.yul\":16283:16287   */\n      dup2\n        /* \"#utility.yul\":16157:16288   */\n      tag_523\n      jump\t// in\n    tag_607:\n        /* \"#utility.yul\":16149:16288   */\n      swap1\n      pop\n        /* \"#utility.yul\":15876:16295   */\n      swap2\n      swap1\n      pop\n      jump\t// out\n        /* \"#utility.yul\":16301:16720   */\n    tag_345:\n        /* \"#utility.yul\":16467:16471   */\n      0x00\n        /* \"#utility.yul\":16505:16507   */\n      0x20\n        /* \"#utility.yul\":16494:16503   */\n      dup3\n        /* \"#utility.yul\":16490:16508   */\n      add\n        /* \"#utility.yul\":16482:16508   */\n      swap1\n      pop\n        /* \"#utility.yul\":16554:16563   */\n      dup2\n        /* \"#utility.yul\":16548:16552   */\n      dup2\n        /* \"#utility.yul\":16544:16564   */\n      sub\n        /* \"#utility.yul\":16540:16541   */\n      0x00\n        /* \"#utility.yul\":16529:16538   */\n      dup4\n        /* \"#utility.yul\":16525:16542   */\n      add\n        /* \"#utility.yul\":16518:16565   */\n      mstore\n        /* \"#utility.yul\":16582:16713   */\n      tag_609\n        /* \"#utility.yul\":16708:16712   */\n      dup2\n        /* \"#utility.yul\":16582:16713   */\n      tag_528\n      jump\t// in\n    tag_609:\n        /* \"#utility.yul\":16574:16713   */\n      swap1\n      pop\n        /* \"#utility.yul\":16301:16720   */\n      swap2\n      swap1\n      pop\n      jump\t// out\n        /* \"#utility.yul\":16726:17145   */\n    tag_170:\n        /* \"#utility.yul\":16892:16896   */\n      0x00\n        /* \"#utility.yul\":16930:16932   */\n      0x20\n        /* \"#utility.yul\":16919:16928   */\n      dup3\n        /* \"#utility.yul\":16915:16933   */\n      add\n        /* \"#utility.yul\":16907:16933   */\n      swap1\n      pop\n        /* \"#utility.yul\":16979:16988   */\n      dup2\n        /* \"#utility.yul\":16973:16977   */\n      dup2\n        /* \"#utility.yul\":16969:16989   */\n      sub\n        /* \"#utility.yul\":16965:16966   */\n      0x00\n        /* \"#utility.yul\":16954:16963   */\n      dup4\n        /* \"#utility.yul\":16950:16967   */\n      add\n        /* \"#utility.yul\":16943:16990   */\n      mstore\n        /* \"#utility.yul\":17007:17138   */\n      tag_611\n        /* \"#utility.yul\":17133:17137   */\n      dup2\n        /* \"#utility.yul\":17007:17138   */\n      tag_533\n      jump\t// in\n    tag_611:\n        /* \"#utility.yul\":16999:17138   */\n      swap1\n      pop\n        /* \"#utility.yul\":16726:17145   */\n      swap2\n      swap1\n      pop\n      jump\t// out\n        /* \"#utility.yul\":17151:17570   */\n    tag_311:\n        /* \"#utility.yul\":17317:17321   */\n      0x00\n        /* \"#utility.yul\":17355:17357   */\n      0x20\n        /* \"#utility.yul\":17344:17353   */\n      dup3\n        /* \"#utility.yul\":17340:17358   */\n      add\n        /* \"#utility.yul\":17332:17358   */\n      swap1\n      pop\n        /* \"#utility.yul\":17404:17413   */\n      dup2\n        /* \"#utility.yul\":17398:17402   */\n      dup2\n        /* \"#utility.yul\":17394:17414   */\n      sub\n        /* \"#utility.yul\":17390:17391   */\n      0x00\n        /* \"#utility.yul\":17379:17388   */\n      dup4\n        /* \"#utility.yul\":17375:17392   */\n      add\n        /* \"#utility.yul\":17368:17415   */\n      mstore\n        /* \"#utility.yul\":17432:17563   */\n      tag_613\n        /* \"#utility.yul\":17558:17562   */\n      dup2\n        /* \"#utility.yul\":17432:17563   */\n      tag_538\n      jump\t// in\n    tag_613:\n        /* \"#utility.yul\":17424:17563   */\n      swap1\n      pop\n        /* \"#utility.yul\":17151:17570   */\n      swap2\n      swap1\n      pop\n      jump\t// out\n        /* \"#utility.yul\":17576:17995   */\n    tag_339:\n        /* \"#utility.yul\":17742:17746   */\n      0x00\n        /* \"#utility.yul\":17780:17782   */\n      0x20\n        /* \"#utility.yul\":17769:17778   */\n      dup3\n        /* \"#utility.yul\":17765:17783   */\n      add\n        /* \"#utility.yul\":17757:17783   */\n      swap1\n      pop\n        /* \"#utility.yul\":17829:17838   */\n      dup2\n        /* \"#utility.yul\":17823:17827   */\n      dup2\n        /* \"#utility.yul\":17819:17839   */\n      sub\n        /* \"#utility.yul\":17815:17816   */\n      0x00\n        /* \"#utility.yul\":17804:17813   */\n      dup4\n        /* \"#utility.yul\":17800:17817   */\n      add\n        /* \"#utility.yul\":17793:17840   */\n      mstore\n        /* \"#utility.yul\":17857:17988   */\n      tag_615\n        /* \"#utility.yul\":17983:17987   */\n      dup2\n        /* \"#utility.yul\":17857:17988   */\n      tag_543\n      jump\t// in\n    tag_615:\n        /* \"#utility.yul\":17849:17988   */\n      swap1\n      pop\n        /* \"#utility.yul\":17576:17995   */\n      swap2\n      swap1\n      pop\n      jump\t// out\n        /* \"#utility.yul\":18001:18420   */\n    tag_250:\n        /* \"#utility.yul\":18167:18171   */\n      0x00\n        /* \"#utility.yul\":18205:18207   */\n      0x20\n        /* \"#utility.yul\":18194:18203   */\n      dup3\n        /* \"#utility.yul\":18190:18208   */\n      add\n        /* \"#utility.yul\":18182:18208   */\n      swap1\n      pop\n        /* \"#utility.yul\":18254:18263   */\n      dup2\n        /* \"#utility.yul\":18248:18252   */\n      dup2\n        /* \"#utility.yul\":18244:18264   */\n      sub\n        /* \"#utility.yul\":18240:18241   */\n      0x00\n        /* \"#utility.yul\":18229:18238   */\n      dup4\n        /* \"#utility.yul\":18225:18242   */\n      add\n        /* \"#utility.yul\":18218:18265   */\n      mstore\n        /* \"#utility.yul\":18282:18413   */\n      tag_617\n        /* \"#utility.yul\":18408:18412   */\n      dup2\n        /* \"#utility.yul\":18282:18413   */\n      tag_548\n      jump\t// in\n    tag_617:\n        /* \"#utility.yul\":18274:18413   */\n      swap1\n      pop\n        /* \"#utility.yul\":18001:18420   */\n      swap2\n      swap1\n      pop\n      jump\t// out\n        /* \"#utility.yul\":18426:18845   */\n    tag_214:\n        /* \"#utility.yul\":18592:18596   */\n      0x00\n        /* \"#utility.yul\":18630:18632   */\n      0x20\n        /* \"#utility.yul\":18619:18628   */\n      dup3\n        /* \"#utility.yul\":18615:18633   */\n      add\n        /* \"#utility.yul\":18607:18633   */\n      swap1\n      pop\n        /* \"#utility.yul\":18679:18688   */\n      dup2\n        /* \"#utility.yul\":18673:18677   */\n      dup2\n        /* \"#utility.yul\":18669:18689   */\n      sub\n        /* \"#utility.yul\":18665:18666   */\n      0x00\n        /* \"#utility.yul\":18654:18663   */\n      dup4\n        /* \"#utility.yul\":18650:18667   */\n      add\n        /* \"#utility.yul\":18643:18690   */\n      mstore\n        /* \"#utility.yul\":18707:18838   */\n      tag_619\n        /* \"#utility.yul\":18833:18837   */\n      dup2\n        /* \"#utility.yul\":18707:18838   */\n      tag_553\n      jump\t// in\n    tag_619:\n        /* \"#utility.yul\":18699:18838   */\n      swap1\n      pop\n        /* \"#utility.yul\":18426:18845   */\n      swap2\n      swap1\n      pop\n      jump\t// out\n        /* \"#utility.yul\":18851:19270   */\n    tag_386:\n        /* \"#utility.yul\":19017:19021   */\n      0x00\n        /* \"#utility.yul\":19055:19057   */\n      0x20\n        /* \"#utility.yul\":19044:19053   */\n      dup3\n        /* \"#utility.yul\":19040:19058   */\n      add\n        /* \"#utility.yul\":19032:19058   */\n      swap1\n      pop\n        /* \"#utility.yul\":19104:19113   */\n      dup2\n        /* \"#utility.yul\":19098:19102   */\n      dup2\n        /* \"#utility.yul\":19094:19114   */\n      sub\n        /* \"#utility.yul\":19090:19091   */\n      0x00\n        /* \"#utility.yul\":19079:19088   */\n      dup4\n        /* \"#utility.yul\":19075:19092   */\n      add\n        /* \"#utility.yul\":19068:19115   */\n      mstore\n        /* \"#utility.yul\":19132:19263   */\n      tag_621\n        /* \"#utility.yul\":19258:19262   */\n      dup2\n        /* \"#utility.yul\":19132:19263   */\n      tag_558\n      jump\t// in\n    tag_621:\n        /* \"#utility.yul\":19124:19263   */\n      swap1\n      pop\n        /* \"#utility.yul\":18851:19270   */\n      swap2\n      swap1\n      pop\n      jump\t// out\n        /* \"#utility.yul\":19276:19695   */\n    tag_373:\n        /* \"#utility.yul\":19442:19446   */\n      0x00\n        /* \"#utility.yul\":19480:19482   */\n      0x20\n        /* \"#utility.yul\":19469:19478   */\n      dup3\n        /* \"#utility.yul\":19465:19483   */\n      add\n        /* \"#utility.yul\":19457:19483   */\n      swap1\n      pop\n        /* \"#utility.yul\":19529:19538   */\n      dup2\n        /* \"#utility.yul\":19523:19527   */\n      dup2\n        /* \"#utility.yul\":19519:19539   */\n      sub\n        /* \"#utility.yul\":19515:19516   */\n      0x00\n        /* \"#utility.yul\":19504:19513   */\n      dup4\n        /* \"#utility.yul\":19500:19517   */\n      add\n        /* \"#utility.yul\":19493:19540   */\n      mstore\n        /* \"#utility.yul\":19557:19688   */\n      tag_623\n        /* \"#utility.yul\":19683:19687   */\n      dup2\n        /* \"#utility.yul\":19557:19688   */\n      tag_563\n      jump\t// in\n    tag_623:\n        /* \"#utility.yul\":19549:19688   */\n      swap1\n      pop\n        /* \"#utility.yul\":19276:19695   */\n      swap2\n      swap1\n      pop\n      jump\t// out\n        /* \"#utility.yul\":19701:20120   */\n    tag_327:\n        /* \"#utility.yul\":19867:19871   */\n      0x00\n        /* \"#utility.yul\":19905:19907   */\n      0x20\n        /* \"#utility.yul\":19894:19903   */\n      dup3\n        /* \"#utility.yul\":19890:19908   */\n      add\n        /* \"#utility.yul\":19882:19908   */\n      swap1\n      pop\n        /* \"#utility.yul\":19954:19963   */\n      dup2\n        /* \"#utility.yul\":19948:19952   */\n      dup2\n        /* \"#utility.yul\":19944:19964   */\n      sub\n        /* \"#utility.yul\":19940:19941   */\n      0x00\n        /* \"#utility.yul\":19929:19938   */\n      dup4\n        /* \"#utility.yul\":19925:19942   */\n      add\n        /* \"#utility.yul\":19918:19965   */\n      mstore\n        /* \"#utility.yul\":19982:20113   */\n      tag_625\n        /* \"#utility.yul\":20108:20112   */\n      dup2\n        /* \"#utility.yul\":19982:20113   */\n      tag_568\n      jump\t// in\n    tag_625:\n        /* \"#utility.yul\":19974:20113   */\n      swap1\n      pop\n        /* \"#utility.yul\":19701:20120   */\n      swap2\n      swap1\n      pop\n      jump\t// out\n        /* \"#utility.yul\":20126:20348   */\n    tag_45:\n        /* \"#utility.yul\":20219:20223   */\n      0x00\n        /* \"#utility.yul\":20257:20259   */\n      0x20\n        /* \"#utility.yul\":20246:20255   */\n      dup3\n        /* \"#utility.yul\":20242:20260   */\n      add\n        /* \"#utility.yul\":20234:20260   */\n      swap1\n      pop\n        /* \"#utility.yul\":20270:20341   */\n      tag_627\n        /* \"#utility.yul\":20338:20339   */\n      0x00\n        /* \"#utility.yul\":20327:20336   */\n      dup4\n        /* \"#utility.yul\":20323:20340   */\n      add\n        /* \"#utility.yul\":20314:20320   */\n      dup5\n        /* \"#utility.yul\":20270:20341   */\n      tag_573\n      jump\t// in\n    tag_627:\n        /* \"#utility.yul\":20126:20348   */\n      swap3\n      swap2\n      pop\n      pop\n      jump\t// out\n        /* \"#utility.yul\":20435:20533   */\n    tag_480:\n        /* \"#utility.yul\":20486:20492   */\n      0x00\n        /* \"#utility.yul\":20520:20525   */\n      dup2\n        /* \"#utility.yul\":20514:20526   */\n      mload\n        /* \"#utility.yul\":20504:20526   */\n      swap1\n      pop\n        /* \"#utility.yul\":20435:20533   */\n      swap2\n      swap1\n      pop\n      jump\t// out\n        /* \"#utility.yul\":20539:20638   */\n    tag_492:\n        /* \"#utility.yul\":20591:20597   */\n      0x00\n        /* \"#utility.yul\":20625:20630   */\n      dup2\n        /* \"#utility.yul\":20619:20631   */\n      mload\n        /* \"#utility.yul\":20609:20631   */\n      swap1\n      pop\n        /* \"#utility.yul\":20539:20638   */\n      swap2\n      swap1\n      pop\n      jump\t// out\n        /* \"#utility.yul\":20644:20791   */\n    tag_482:\n        /* \"#utility.yul\":20745:20756   */\n      0x00\n        /* \"#utility.yul\":20782:20785   */\n      dup2\n        /* \"#utility.yul\":20767:20785   */\n      swap1\n      pop\n        /* \"#utility.yul\":20644:20791   */\n      swap3\n      swap2\n      pop\n      pop\n      jump\t// out\n        /* \"#utility.yul\":20797:20966   */\n    tag_494:\n        /* \"#utility.yul\":20881:20892   */\n      0x00\n        /* \"#utility.yul\":20915:20921   */\n      dup3\n        /* \"#utility.yul\":20910:20913   */\n      dup3\n        /* \"#utility.yul\":20903:20922   */\n      mstore\n        /* \"#utility.yul\":20955:20959   */\n      0x20\n        /* \"#utility.yul\":20950:20953   */\n      dup3\n        /* \"#utility.yul\":20946:20960   */\n      add\n        /* \"#utility.yul\":20931:20960   */\n      swap1\n      pop\n        /* \"#utility.yul\":20797:20966   */\n      swap3\n      swap2\n      pop\n      pop\n      jump\t// out\n        /* \"#utility.yul\":20972:21277   */\n    tag_320:\n        /* \"#utility.yul\":21012:21015   */\n      0x00\n        /* \"#utility.yul\":21031:21051   */\n      tag_635\n        /* \"#utility.yul\":21049:21050   */\n      dup3\n        /* \"#utility.yul\":21031:21051   */\n      tag_576\n      jump\t// in\n    tag_635:\n        /* \"#utility.yul\":21026:21051   */\n      swap2\n      pop\n        /* \"#utility.yul\":21065:21085   */\n      tag_636\n        /* \"#utility.yul\":21083:21084   */\n      dup4\n        /* \"#utility.yul\":21065:21085   */\n      tag_576\n      jump\t// in\n    tag_636:\n        /* \"#utility.yul\":21060:21085   */\n      swap3\n      pop\n        /* \"#utility.yul\":21219:21220   */\n      dup3\n        /* \"#utility.yul\":21151:21217   */\n      0xffffffffffffffffffffffffffffffffffffffffffffffffffffffffffffffff\n        /* \"#utility.yul\":21147:21221   */\n      sub\n        /* \"#utility.yul\":21144:21145   */\n      dup3\n        /* \"#utility.yul\":21141:21222   */\n      gt\n        /* \"#utility.yul\":21138:21245   */\n      iszero\n      tag_637\n      jumpi\n        /* \"#utility.yul\":21225:21243   */\n      tag_638\n      tag_639\n      jump\t// in\n    tag_638:\n        /* \"#utility.yul\":21138:21245   */\n    tag_637:\n        /* \"#utility.yul\":21269:21270   */\n      dup3\n        /* \"#utility.yul\":21266:21267   */\n      dup3\n        /* \"#utility.yul\":21262:21271   */\n      add\n        /* \"#utility.yul\":21255:21271   */\n      swap1\n      pop\n        /* \"#utility.yul\":20972:21277   */\n      swap3\n      swap2\n      pop\n      pop\n      jump\t// out\n        /* \"#utility.yul\":21283:21468   */\n    tag_308:\n        /* \"#utility.yul\":21323:21324   */\n      0x00\n        /* \"#utility.yul\":21340:21360   */\n      tag_641\n        /* \"#utility.yul\":21358:21359   */\n      dup3\n        /* \"#utility.yul\":21340:21360   */\n      tag_576\n      jump\t// in\n    tag_641:\n        /* \"#utility.yul\":21335:21360   */\n      swap2\n      pop\n        /* \"#utility.yul\":21374:21394   */\n      tag_642\n        /* \"#utility.yul\":21392:21393   */\n      dup4\n        /* \"#utility.yul\":21374:21394   */\n      tag_576\n      jump\t// in\n    tag_642:\n        /* \"#utility.yul\":21369:21394   */\n      swap3\n      pop\n        /* \"#utility.yul\":21413:21414   */\n      dup3\n        /* \"#utility.yul\":21403:21438   */\n      tag_643\n      jumpi\n        /* \"#utility.yul\":21418:21436   */\n      tag_644\n      tag_645\n      jump\t// in\n    tag_644:\n        /* \"#utility.yul\":21403:21438   */\n    tag_643:\n        /* \"#utility.yul\":21460:21461   */\n      dup3\n        /* \"#utility.yul\":21457:21458   */\n      dup3\n        /* \"#utility.yul\":21453:21462   */\n      div\n        /* \"#utility.yul\":21448:21462   */\n      swap1\n      pop\n        /* \"#utility.yul\":21283:21468   */\n      swap3\n      swap2\n      pop\n      pop\n      jump\t// out\n        /* \"#utility.yul\":21474:21822   */\n    tag_306:\n        /* \"#utility.yul\":21514:21521   */\n      0x00\n        /* \"#utility.yul\":21537:21557   */\n      tag_647\n        /* \"#utility.yul\":21555:21556   */\n      dup3\n        /* \"#utility.yul\":21537:21557   */\n      tag_576\n      jump\t// in\n    tag_647:\n        /* \"#utility.yul\":21532:21557   */\n      swap2\n      pop\n        /* \"#utility.yul\":21571:21591   */\n      tag_648\n        /* \"#utility.yul\":21589:21590   */\n      dup4\n        /* \"#utility.yul\":21571:21591   */\n      tag_576\n      jump\t// in\n    tag_648:\n        /* \"#utility.yul\":21566:21591   */\n      swap3\n      pop\n        /* \"#utility.yul\":21759:21760   */\n      dup2\n        /* \"#utility.yul\":21691:21757   */\n      0xffffffffffffffffffffffffffffffffffffffffffffffffffffffffffffffff\n        /* \"#utility.yul\":21687:21761   */\n      div\n        /* \"#utility.yul\":21684:21685   */\n      dup4\n        /* \"#utility.yul\":21681:21762   */\n      gt\n        /* \"#utility.yul\":21676:21677   */\n      dup3\n        /* \"#utility.yul\":21669:21678   */\n      iszero\n        /* \"#utility.yul\":21662:21679   */\n      iszero\n        /* \"#utility.yul\":21658:21763   */\n      and\n        /* \"#utility.yul\":21655:21786   */\n      iszero\n      tag_649\n      jumpi\n        /* \"#utility.yul\":21766:21784   */\n      tag_650\n      tag_639\n      jump\t// in\n    tag_650:\n        /* \"#utility.yul\":21655:21786   */\n    tag_649:\n        /* \"#utility.yul\":21814:21815   */\n      dup3\n        /* \"#utility.yul\":21811:21812   */\n      dup3\n        /* \"#utility.yul\":21807:21816   */\n      mul\n        /* \"#utility.yul\":21796:21816   */\n      swap1\n      pop\n        /* \"#utility.yul\":21474:21822   */\n      swap3\n      swap2\n      pop\n      pop\n      jump\t// out\n        /* \"#utility.yul\":21828:22019   */\n    tag_364:\n        /* \"#utility.yul\":21868:21872   */\n      0x00\n        /* \"#utility.yul\":21888:21908   */\n      tag_652\n        /* \"#utility.yul\":21906:21907   */\n      dup3\n        /* \"#utility.yul\":21888:21908   */\n      tag_576\n      jump\t// in\n    tag_652:\n        /* \"#utility.yul\":21883:21908   */\n      swap2\n      pop\n        /* \"#utility.yul\":21922:21942   */\n      tag_653\n        /* \"#utility.yul\":21940:21941   */\n      dup4\n        /* \"#utility.yul\":21922:21942   */\n      tag_576\n      jump\t// in\n    tag_653:\n        /* \"#utility.yul\":21917:21942   */\n      swap3\n      pop\n        /* \"#utility.yul\":21961:21962   */\n      dup3\n        /* \"#utility.yul\":21958:21959   */\n      dup3\n        /* \"#utility.yul\":21955:21963   */\n      lt\n        /* \"#utility.yul\":21952:21986   */\n      iszero\n      tag_654\n      jumpi\n        /* \"#utility.yul\":21966:21984   */\n      tag_655\n      tag_639\n      jump\t// in\n    tag_655:\n        /* \"#utility.yul\":21952:21986   */\n    tag_654:\n        /* \"#utility.yul\":22011:22012   */\n      dup3\n        /* \"#utility.yul\":22008:22009   */\n      dup3\n        /* \"#utility.yul\":22004:22013   */\n      sub\n        /* \"#utility.yul\":21996:22013   */\n      swap1\n      pop\n        /* \"#utility.yul\":21828:22019   */\n      swap3\n      swap2\n      pop\n      pop\n      jump\t// out\n        /* \"#utility.yul\":22025:22121   */\n    tag_468:\n        /* \"#utility.yul\":22062:22069   */\n      0x00\n        /* \"#utility.yul\":22091:22115   */\n      tag_657\n        /* \"#utility.yul\":22109:22114   */\n      dup3\n        /* \"#utility.yul\":22091:22115   */\n      tag_658\n      jump\t// in\n    tag_657:\n        /* \"#utility.yul\":22080:22115   */\n      swap1\n      pop\n        /* \"#utility.yul\":22025:22121   */\n      swap2\n      swap1\n      pop\n      jump\t// out\n        /* \"#utility.yul\":22127:22217   */\n    tag_472:\n        /* \"#utility.yul\":22161:22168   */\n      0x00\n        /* \"#utility.yul\":22204:22209   */\n      dup2\n        /* \"#utility.yul\":22197:22210   */\n      iszero\n        /* \"#utility.yul\":22190:22211   */\n      iszero\n        /* \"#utility.yul\":22179:22211   */\n      swap1\n      pop\n        /* \"#utility.yul\":22127:22217   */\n      swap2\n      swap1\n      pop\n      jump\t// out\n        /* \"#utility.yul\":22223:22372   */\n    tag_476:\n        /* \"#utility.yul\":22259:22266   */\n      0x00\n        /* \"#utility.yul\":22299:22365   */\n      0xffffffff00000000000000000000000000000000000000000000000000000000\n        /* \"#utility.yul\":22292:22297   */\n      dup3\n        /* \"#utility.yul\":22288:22366   */\n      and\n        /* \"#utility.yul\":22277:22366   */\n      swap1\n      pop\n        /* \"#utility.yul\":22223:22372   */\n      swap2\n      swap1\n      pop\n      jump\t// out\n        /* \"#utility.yul\":22378:22504   */\n    tag_658:\n        /* \"#utility.yul\":22415:22422   */\n      0x00\n        /* \"#utility.yul\":22455:22497   */\n      0xffffffffffffffffffffffffffffffffffffffff\n        /* \"#utility.yul\":22448:22453   */\n      dup3\n        /* \"#utility.yul\":22444:22498   */\n      and\n        /* \"#utility.yul\":22433:22498   */\n      swap1\n      pop\n        /* \"#utility.yul\":22378:22504   */\n      swap2\n      swap1\n      pop\n      jump\t// out\n        /* \"#utility.yul\":22510:22587   */\n    tag_576:\n        /* \"#utility.yul\":22547:22554   */\n      0x00\n        /* \"#utility.yul\":22576:22581   */\n      dup2\n        /* \"#utility.yul\":22565:22581   */\n      swap1\n      pop\n        /* \"#utility.yul\":22510:22587   */\n      swap2\n      swap1\n      pop\n      jump\t// out\n        /* \"#utility.yul\":22593:22733   */\n    tag_488:\n        /* \"#utility.yul\":22657:22666   */\n      0x00\n        /* \"#utility.yul\":22690:22727   */\n      tag_664\n        /* \"#utility.yul\":22721:22726   */\n      dup3\n        /* \"#utility.yul\":22690:22727   */\n      tag_665\n      jump\t// in\n    tag_664:\n        /* \"#utility.yul\":22677:22727   */\n      swap1\n      pop\n        /* \"#utility.yul\":22593:22733   */\n      swap2\n      swap1\n      pop\n      jump\t// out\n        /* \"#utility.yul\":22739:22865   */\n    tag_665:\n        /* \"#utility.yul\":22789:22798   */\n      0x00\n        /* \"#utility.yul\":22822:22859   */\n      tag_667\n        /* \"#utility.yul\":22853:22858   */\n      dup3\n        /* \"#utility.yul\":22822:22859   */\n      tag_668\n      jump\t// in\n    tag_667:\n        /* \"#utility.yul\":22809:22859   */\n      swap1\n      pop\n        /* \"#utility.yul\":22739:22865   */\n      swap2\n      swap1\n      pop\n      jump\t// out\n        /* \"#utility.yul\":22871:22984   */\n    tag_668:\n        /* \"#utility.yul\":22921:22930   */\n      0x00\n        /* \"#utility.yul\":22954:22978   */\n      tag_670\n        /* \"#utility.yul\":22972:22977   */\n      dup3\n        /* \"#utility.yul\":22954:22978   */\n      tag_658\n      jump\t// in\n    tag_670:\n        /* \"#utility.yul\":22941:22978   */\n      swap1\n      pop\n        /* \"#utility.yul\":22871:22984   */\n      swap2\n      swap1\n      pop\n      jump\t// out\n        /* \"#utility.yul\":22990:23297   */\n    tag_484:\n        /* \"#utility.yul\":23058:23059   */\n      0x00\n        /* \"#utility.yul\":23068:23181   */\n    tag_672:\n        /* \"#utility.yul\":23082:23088   */\n      dup4\n        /* \"#utility.yul\":23079:23080   */\n      dup2\n        /* \"#utility.yul\":23076:23089   */\n      lt\n        /* \"#utility.yul\":23068:23181   */\n      iszero\n      tag_674\n      jumpi\n        /* \"#utility.yul\":23167:23168   */\n      dup1\n        /* \"#utility.yul\":23162:23165   */\n      dup3\n        /* \"#utility.yul\":23158:23169   */\n      add\n        /* \"#utility.yul\":23152:23170   */\n      mload\n        /* \"#utility.yul\":23148:23149   */\n      dup2\n        /* \"#utility.yul\":23143:23146   */\n      dup5\n        /* \"#utility.yul\":23139:23150   */\n      add\n        /* \"#utility.yul\":23132:23171   */\n      mstore\n        /* \"#utility.yul\":23104:23106   */\n      0x20\n        /* \"#utility.yul\":23101:23102   */\n      dup2\n        /* \"#utility.yul\":23097:23107   */\n      add\n        /* \"#utility.yul\":23092:23107   */\n      swap1\n      pop\n        /* \"#utility.yul\":23068:23181   */\n      jump(tag_672)\n    tag_674:\n        /* \"#utility.yul\":23199:23205   */\n      dup4\n        /* \"#utility.yul\":23196:23197   */\n      dup2\n        /* \"#utility.yul\":23193:23206   */\n      gt\n        /* \"#utility.yul\":23190:23291   */\n      iszero\n      tag_675\n      jumpi\n        /* \"#utility.yul\":23279:23280   */\n      0x00\n        /* \"#utility.yul\":23270:23276   */\n      dup5\n        /* \"#utility.yul\":23265:23268   */\n      dup5\n        /* \"#utility.yul\":23261:23277   */\n      add\n        /* \"#utility.yul\":23254:23281   */\n      mstore\n        /* \"#utility.yul\":23190:23291   */\n    tag_675:\n        /* \"#utility.yul\":23039:23297   */\n      pop\n        /* \"#utility.yul\":22990:23297   */\n      pop\n      pop\n      pop\n      jump\t// out\n        /* \"#utility.yul\":23303:23479   */\n    tag_359:\n        /* \"#utility.yul\":23335:23336   */\n      0x00\n        /* \"#utility.yul\":23352:23372   */\n      tag_677\n        /* \"#utility.yul\":23370:23371   */\n      dup3\n        /* \"#utility.yul\":23352:23372   */\n      tag_576\n      jump\t// in\n    tag_677:\n        /* \"#utility.yul\":23347:23372   */\n      swap2\n      pop\n        /* \"#utility.yul\":23386:23406   */\n      tag_678\n        /* \"#utility.yul\":23404:23405   */\n      dup4\n        /* \"#utility.yul\":23386:23406   */\n      tag_576\n      jump\t// in\n    tag_678:\n        /* \"#utility.yul\":23381:23406   */\n      swap3\n      pop\n        /* \"#utility.yul\":23425:23426   */\n      dup3\n        /* \"#utility.yul\":23415:23450   */\n      tag_679\n      jumpi\n        /* \"#utility.yul\":23430:23448   */\n      tag_680\n      tag_645\n      jump\t// in\n    tag_680:\n        /* \"#utility.yul\":23415:23450   */\n    tag_679:\n        /* \"#utility.yul\":23471:23472   */\n      dup3\n        /* \"#utility.yul\":23468:23469   */\n      dup3\n        /* \"#utility.yul\":23464:23473   */\n      mod\n        /* \"#utility.yul\":23459:23473   */\n      swap1\n      pop\n        /* \"#utility.yul\":23303:23479   */\n      swap3\n      swap2\n      pop\n      pop\n      jump\t// out\n        /* \"#utility.yul\":23485:23665   */\n    tag_639:\n        /* \"#utility.yul\":23533:23610   */\n      0x4e487b7100000000000000000000000000000000000000000000000000000000\n        /* \"#utility.yul\":23530:23531   */\n      0x00\n        /* \"#utility.yul\":23523:23611   */\n      mstore\n        /* \"#utility.yul\":23630:23634   */\n      0x11\n        /* \"#utility.yul\":23627:23628   */\n      0x04\n        /* \"#utility.yul\":23620:23635   */\n      mstore\n        /* \"#utility.yul\":23654:23658   */\n      0x24\n        /* \"#utility.yul\":23651:23652   */\n      0x00\n        /* \"#utility.yul\":23644:23659   */\n      revert\n        /* \"#utility.yul\":23671:23851   */\n    tag_645:\n        /* \"#utility.yul\":23719:23796   */\n      0x4e487b7100000000000000000000000000000000000000000000000000000000\n        /* \"#utility.yul\":23716:23717   */\n      0x00\n        /* \"#utility.yul\":23709:23797   */\n      mstore\n        /* \"#utility.yul\":23816:23820   */\n      0x12\n        /* \"#utility.yul\":23813:23814   */\n      0x04\n        /* \"#utility.yul\":23806:23821   */\n      mstore\n        /* \"#utility.yul\":23840:23844   */\n      0x24\n        /* \"#utility.yul\":23837:23838   */\n      0x00\n        /* \"#utility.yul\":23830:23845   */\n      revert\n        /* \"#utility.yul\":23857:23974   */\n    tag_417:\n        /* \"#utility.yul\":23966:23967   */\n      0x00\n        /* \"#utility.yul\":23963:23964   */\n      dup1\n        /* \"#utility.yul\":23956:23968   */\n      revert\n        /* \"#utility.yul\":23980:24097   */\n    tag_414:\n        /* \"#utility.yul\":24089:24090   */\n      0x00\n        /* \"#utility.yul\":24086:24087   */\n      dup1\n        /* \"#utility.yul\":24079:24091   */\n      revert\n        /* \"#utility.yul\":24103:24220   */\n    tag_420:\n        /* \"#utility.yul\":24212:24213   */\n      0x00\n        /* \"#utility.yul\":24209:24210   */\n      dup1\n        /* \"#utility.yul\":24202:24214   */\n      revert\n        /* \"#utility.yul\":24226:24343   */\n    tag_441:\n        /* \"#utility.yul\":24335:24336   */\n      0x00\n        /* \"#utility.yul\":24332:24333   */\n      dup1\n        /* \"#utility.yul\":24325:24337   */\n      revert\n        /* \"#utility.yul\":24349:24466   */\n    tag_431:\n        /* \"#utility.yul\":24458:24459   */\n      0x00\n        /* \"#utility.yul\":24455:24456   */\n      dup1\n        /* \"#utility.yul\":24448:24460   */\n      revert\n        /* \"#utility.yul\":24472:24574   */\n    tag_497:\n        /* \"#utility.yul\":24513:24519   */\n      0x00\n        /* \"#utility.yul\":24564:24566   */\n      0x1f\n        /* \"#utility.yul\":24560:24567   */\n      not\n        /* \"#utility.yul\":24555:24557   */\n      0x1f\n        /* \"#utility.yul\":24548:24553   */\n      dup4\n        /* \"#utility.yul\":24544:24558   */\n      add\n        /* \"#utility.yul\":24540:24568   */\n      and\n        /* \"#utility.yul\":24530:24568   */\n      swap1\n      pop\n        /* \"#utility.yul\":24472:24574   */\n      swap2\n      swap1\n      pop\n      jump\t// out\n        /* \"#utility.yul\":24580:24892   */\n    tag_502:\n        /* \"#utility.yul\":24720:24754   */\n      0x50726576696f7573207265776172647320706572696f64206d75737420626520\n        /* \"#utility.yul\":24716:24717   */\n      0x00\n        /* \"#utility.yul\":24708:24714   */\n      dup3\n        /* \"#utility.yul\":24704:24718   */\n      add\n        /* \"#utility.yul\":24697:24755   */\n      mstore\n        /* \"#utility.yul\":24789:24823   */\n      0x636f6d706c657465206265666f7265206368616e67696e672074686520647572\n        /* \"#utility.yul\":24784:24786   */\n      0x20\n        /* \"#utility.yul\":24776:24782   */\n      dup3\n        /* \"#utility.yul\":24772:24787   */\n      add\n        /* \"#utility.yul\":24765:24824   */\n      mstore\n        /* \"#utility.yul\":24858:24884   */\n      0x6174696f6e20666f7220746865206e657720706572696f640000000000000000\n        /* \"#utility.yul\":24853:24855   */\n      0x40\n        /* \"#utility.yul\":24845:24851   */\n      dup3\n        /* \"#utility.yul\":24841:24856   */\n      add\n        /* \"#utility.yul\":24834:24885   */\n      mstore\n        /* \"#utility.yul\":24580:24892   */\n      pop\n      jump\t// out\n        /* \"#utility.yul\":24898:25123   */\n    tag_507:\n        /* \"#utility.yul\":25038:25072   */\n      0x4f776e61626c653a206e6577206f776e657220697320746865207a65726f2061\n        /* \"#utility.yul\":25034:25035   */\n      0x00\n        /* \"#utility.yul\":25026:25032   */\n      dup3\n        /* \"#utility.yul\":25022:25036   */\n      add\n        /* \"#utility.yul\":25015:25073   */\n      mstore\n        /* \"#utility.yul\":25107:25115   */\n      0x6464726573730000000000000000000000000000000000000000000000000000\n        /* \"#utility.yul\":25102:25104   */\n      0x20\n        /* \"#utility.yul\":25094:25100   */\n      dup3\n        /* \"#utility.yul\":25090:25105   */\n      add\n        /* \"#utility.yul\":25083:25116   */\n      mstore\n        /* \"#utility.yul\":24898:25123   */\n      pop\n      jump\t// out\n        /* \"#utility.yul\":25129:25293   */\n    tag_512:\n        /* \"#utility.yul\":25269:25285   */\n      0x43616e6e6f74207374616b652030000000000000000000000000000000000000\n        /* \"#utility.yul\":25265:25266   */\n      0x00\n        /* \"#utility.yul\":25257:25263   */\n      dup3\n        /* \"#utility.yul\":25253:25267   */\n      add\n        /* \"#utility.yul\":25246:25286   */\n      mstore\n        /* \"#utility.yul\":25129:25293   */\n      pop\n      jump\t// out\n        /* \"#utility.yul\":25299:25476   */\n    tag_517:\n        /* \"#utility.yul\":25439:25468   */\n      0x536166654d6174683a206164646974696f6e206f766572666c6f770000000000\n        /* \"#utility.yul\":25435:25436   */\n      0x00\n        /* \"#utility.yul\":25427:25433   */\n      dup3\n        /* \"#utility.yul\":25423:25437   */\n      add\n        /* \"#utility.yul\":25416:25469   */\n      mstore\n        /* \"#utility.yul\":25299:25476   */\n      pop\n      jump\t// out\n        /* \"#utility.yul\":25482:25703   */\n    tag_522:\n        /* \"#utility.yul\":25622:25656   */\n      0x43616e6e6f7420776974686472617720746865207265776172647320746f6b65\n        /* \"#utility.yul\":25618:25619   */\n      0x00\n        /* \"#utility.yul\":25610:25616   */\n      dup3\n        /* \"#utility.yul\":25606:25620   */\n      add\n        /* \"#utility.yul\":25599:25657   */\n      mstore\n        /* \"#utility.yul\":25691:25695   */\n      0x6e73000000000000000000000000000000000000000000000000000000000000\n        /* \"#utility.yul\":25686:25688   */\n      0x20\n        /* \"#utility.yul\":25678:25684   */\n      dup3\n        /* \"#utility.yul\":25674:25689   */\n      add\n        /* \"#utility.yul\":25667:25696   */\n      mstore\n        /* \"#utility.yul\":25482:25703   */\n      pop\n      jump\t// out\n        /* \"#utility.yul\":25709:25934   */\n    tag_527:\n        /* \"#utility.yul\":25849:25883   */\n      0x416464726573733a20696e73756666696369656e742062616c616e636520666f\n        /* \"#utility.yul\":25845:25846   */\n      0x00\n        /* \"#utility.yul\":25837:25843   */\n      dup3\n        /* \"#utility.yul\":25833:25847   */\n      add\n        /* \"#utility.yul\":25826:25884   */\n      mstore\n        /* \"#utility.yul\":25918:25926   */\n      0x722063616c6c0000000000000000000000000000000000000000000000000000\n        /* \"#utility.yul\":25913:25915   */\n      0x20\n        /* \"#utility.yul\":25905:25911   */\n      dup3\n        /* \"#utility.yul\":25901:25916   */\n      add\n        /* \"#utility.yul\":25894:25927   */\n      mstore\n        /* \"#utility.yul\":25709:25934   */\n      pop\n      jump\t// out\n        /* \"#utility.yul\":25940:26106   */\n    tag_532:\n        /* \"#utility.yul\":26080:26098   */\n      0x5061757361626c653a2070617573656400000000000000000000000000000000\n        /* \"#utility.yul\":26076:26077   */\n      0x00\n        /* \"#utility.yul\":26068:26074   */\n      dup3\n        /* \"#utility.yul\":26064:26078   */\n      add\n        /* \"#utility.yul\":26057:26099   */\n      mstore\n        /* \"#utility.yul\":25940:26106   */\n      pop\n      jump\t// out\n        /* \"#utility.yul\":26112:26279   */\n    tag_537:\n        /* \"#utility.yul\":26252:26271   */\n      0x43616e6e6f742077697468647261772030000000000000000000000000000000\n        /* \"#utility.yul\":26248:26249   */\n      0x00\n        /* \"#utility.yul\":26240:26246   */\n      dup3\n        /* \"#utility.yul\":26236:26250   */\n      add\n        /* \"#utility.yul\":26229:26272   */\n      mstore\n        /* \"#utility.yul\":26112:26279   */\n      pop\n      jump\t// out\n        /* \"#utility.yul\":26285:26505   */\n    tag_542:\n        /* \"#utility.yul\":26425:26459   */\n      0x536166654d6174683a206d756c7469706c69636174696f6e206f766572666c6f\n        /* \"#utility.yul\":26421:26422   */\n      0x00\n        /* \"#utility.yul\":26413:26419   */\n      dup3\n        /* \"#utility.yul\":26409:26423   */\n      add\n        /* \"#utility.yul\":26402:26460   */\n      mstore\n        /* \"#utility.yul\":26494:26497   */\n      0x7700000000000000000000000000000000000000000000000000000000000000\n        /* \"#utility.yul\":26489:26491   */\n      0x20\n        /* \"#utility.yul\":26481:26487   */\n      dup3\n        /* \"#utility.yul\":26477:26492   */\n      add\n        /* \"#utility.yul\":26470:26498   */\n      mstore\n        /* \"#utility.yul\":26285:26505   */\n      pop\n      jump\t// out\n        /* \"#utility.yul\":26511:26693   */\n    tag_547:\n        /* \"#utility.yul\":26651:26685   */\n      0x4f776e61626c653a2063616c6c6572206973206e6f7420746865206f776e6572\n        /* \"#utility.yul\":26647:26648   */\n      0x00\n        /* \"#utility.yul\":26639:26645   */\n      dup3\n        /* \"#utility.yul\":26635:26649   */\n      add\n        /* \"#utility.yul\":26628:26686   */\n      mstore\n        /* \"#utility.yul\":26511:26693   */\n      pop\n      jump\t// out\n        /* \"#utility.yul\":26699:26920   */\n    tag_552:\n        /* \"#utility.yul\":26839:26873   */\n      0x43616e6e6f7420776974686472617720746865207374616b696e6720746f6b65\n        /* \"#utility.yul\":26835:26836   */\n      0x00\n        /* \"#utility.yul\":26827:26833   */\n      dup3\n        /* \"#utility.yul\":26823:26837   */\n      add\n        /* \"#utility.yul\":26816:26874   */\n      mstore\n        /* \"#utility.yul\":26908:26912   */\n      0x6e73000000000000000000000000000000000000000000000000000000000000\n        /* \"#utility.yul\":26903:26905   */\n      0x20\n        /* \"#utility.yul\":26895:26901   */\n      dup3\n        /* \"#utility.yul\":26891:26906   */\n      add\n        /* \"#utility.yul\":26884:26913   */\n      mstore\n        /* \"#utility.yul\":26699:26920   */\n      pop\n      jump\t// out\n        /* \"#utility.yul\":26926:27100   */\n    tag_557:\n        /* \"#utility.yul\":27066:27092   */\n      0x50726f76696465642072657761726420746f6f20686967680000000000000000\n        /* \"#utility.yul\":27062:27063   */\n      0x00\n        /* \"#utility.yul\":27054:27060   */\n      dup3\n        /* \"#utility.yul\":27050:27064   */\n      add\n        /* \"#utility.yul\":27043:27093   */\n      mstore\n        /* \"#utility.yul\":26926:27100   */\n      pop\n      jump\t// out\n        /* \"#utility.yul\":27106:27285   */\n    tag_562:\n        /* \"#utility.yul\":27246:27277   */\n      0x416464726573733a2063616c6c20746f206e6f6e2d636f6e7472616374000000\n        /* \"#utility.yul\":27242:27243   */\n      0x00\n        /* \"#utility.yul\":27234:27240   */\n      dup3\n        /* \"#utility.yul\":27230:27244   */\n      add\n        /* \"#utility.yul\":27223:27278   */\n      mstore\n        /* \"#utility.yul\":27106:27285   */\n      pop\n      jump\t// out\n        /* \"#utility.yul\":27291:27520   */\n    tag_567:\n        /* \"#utility.yul\":27431:27465   */\n      0x5361666545524332303a204552433230206f7065726174696f6e20646964206e\n        /* \"#utility.yul\":27427:27428   */\n      0x00\n        /* \"#utility.yul\":27419:27425   */\n      dup3\n        /* \"#utility.yul\":27415:27429   */\n      add\n        /* \"#utility.yul\":27408:27466   */\n      mstore\n        /* \"#utility.yul\":27500:27512   */\n      0x6f74207375636365656400000000000000000000000000000000000000000000\n        /* \"#utility.yul\":27495:27497   */\n      0x20\n        /* \"#utility.yul\":27487:27493   */\n      dup3\n        /* \"#utility.yul\":27483:27498   */\n      add\n        /* \"#utility.yul\":27476:27513   */\n      mstore\n        /* \"#utility.yul\":27291:27520   */\n      pop\n      jump\t// out\n        /* \"#utility.yul\":27526:27707   */\n    tag_572:\n        /* \"#utility.yul\":27666:27699   */\n      0x5265656e7472616e637947756172643a207265656e7472616e742063616c6c00\n        /* \"#utility.yul\":27662:27663   */\n      0x00\n        /* \"#utility.yul\":27654:27660   */\n      dup3\n        /* \"#utility.yul\":27650:27664   */\n      add\n        /* \"#utility.yul\":27643:27700   */\n      mstore\n        /* \"#utility.yul\":27526:27707   */\n      pop\n      jump\t// out\n        /* \"#utility.yul\":27713:27835   */\n    tag_405:\n        /* \"#utility.yul\":27786:27810   */\n      tag_705\n        /* \"#utility.yul\":27804:27809   */\n      dup2\n        /* \"#utility.yul\":27786:27810   */\n      tag_468\n      jump\t// in\n    tag_705:\n        /* \"#utility.yul\":27779:27784   */\n      dup2\n        /* \"#utility.yul\":27776:27811   */\n      eq\n        /* \"#utility.yul\":27766:27829   */\n      tag_706\n      jumpi\n        /* \"#utility.yul\":27825:27826   */\n      0x00\n        /* \"#utility.yul\":27822:27823   */\n      dup1\n        /* \"#utility.yul\":27815:27827   */\n      revert\n        /* \"#utility.yul\":27766:27829   */\n    tag_706:\n        /* \"#utility.yul\":27713:27835   */\n      pop\n      jump\t// out\n        /* \"#utility.yul\":27841:27957   */\n    tag_409:\n        /* \"#utility.yul\":27911:27932   */\n      tag_708\n        /* \"#utility.yul\":27926:27931   */\n      dup2\n        /* \"#utility.yul\":27911:27932   */\n      tag_472\n      jump\t// in\n    tag_708:\n        /* \"#utility.yul\":27904:27909   */\n      dup2\n        /* \"#utility.yul\":27901:27933   */\n      eq\n        /* \"#utility.yul\":27891:27951   */\n      tag_709\n      jumpi\n        /* \"#utility.yul\":27947:27948   */\n      0x00\n        /* \"#utility.yul\":27944:27945   */\n      dup1\n        /* \"#utility.yul\":27937:27949   */\n      revert\n        /* \"#utility.yul\":27891:27951   */\n    tag_709:\n        /* \"#utility.yul\":27841:27957   */\n      pop\n      jump\t// out\n        /* \"#utility.yul\":27963:28085   */\n    tag_424:\n        /* \"#utility.yul\":28036:28060   */\n      tag_711\n        /* \"#utility.yul\":28054:28059   */\n      dup2\n        /* \"#utility.yul\":28036:28060   */\n      tag_576\n      jump\t// in\n    tag_711:\n        /* \"#utility.yul\":28029:28034   */\n      dup2\n        /* \"#utility.yul\":28026:28061   */\n      eq\n        /* \"#utility.yul\":28016:28079   */\n      tag_712\n      jumpi\n        /* \"#utility.yul\":28075:28076   */\n      0x00\n        /* \"#utility.yul\":28072:28073   */\n      dup1\n        /* \"#utility.yul\":28065:28077   */\n      revert\n        /* \"#utility.yul\":28016:28079   */\n    tag_712:\n        /* \"#utility.yul\":27963:28085   */\n      pop\n      jump\t// out\n\n    auxdata: 0xa2646970667358221220f328db215d3d7e6c092b38299c27d80e6cc5e0051d2562957dc031814986889764736f6c63430008070033\n}\n",
				"bytecode": {
					"linkReferences": {},
					"object": "6080604052600060045560006005553480156200001b57600080fd5b5060405162003669380380620036698339818101604052810190620000419190620004dc565b60016000819055506000600160006101000a81548160ff02191690831515021790555062000084620000786200013060201b60201c565b6200013860201b60201c565b62000097600a82620001fb60201b60201c565b60098190555083600260006101000a81548173ffffffffffffffffffffffffffffffffffffffff021916908373ffffffffffffffffffffffffffffffffffffffff16021790555082600360006101000a81548173ffffffffffffffffffffffffffffffffffffffff021916908373ffffffffffffffffffffffffffffffffffffffff160217905550816006819055505050505062000854565b600033905090565b600060018054906101000a900473ffffffffffffffffffffffffffffffffffffffff169050816001806101000a81548173ffffffffffffffffffffffffffffffffffffffff021916908373ffffffffffffffffffffffffffffffffffffffff1602179055508173ffffffffffffffffffffffffffffffffffffffff168173ffffffffffffffffffffffffffffffffffffffff167f8be0079c531659141344cd1fd0a4f28419497f9722a3daafe3b4186f6b6457e060405160405180910390a35050565b600080821415620002105760019050620002b5565b60018214156200022357829050620002b5565b6000620002518462000245600286620002bb60201b620016a91790919060201c565b620001fb60201b60201c565b90506200026d81826200030d60201b620016f31790919060201c565b905060016200028c6002856200039160201b6200176e1790919060201c565b1415620002b057620002ad84826200030d60201b620016f31790919060201c565b90505b809150505b92915050565b60006200030583836040518060400160405280601a81526020017f536166654d6174683a206469766973696f6e206279207a65726f000000000000815250620003e360201b60201c565b905092915050565b6000808314156200032257600090506200038b565b6000828462000332919062000650565b905082848262000343919062000618565b1462000386576040517f08c379a00000000000000000000000000000000000000000000000000000000081526004016200037d90620005da565b60405180910390fd5b809150505b92915050565b6000620003db83836040518060400160405280601881526020017f536166654d6174683a206d6f64756c6f206279207a65726f00000000000000008152506200044b60201b60201c565b905092915050565b600080831182906200042d576040517f08c379a0000000000000000000000000000000000000000000000000000000008152600401620004249190620005b6565b60405180910390fd5b50600083856200043e919062000618565b9050809150509392505050565b600080831415829062000496576040517f08c379a00000000000000000000000000000000000000000000000000000000081526004016200048d9190620005b6565b60405180910390fd5b508284620004a5919062000725565b90509392505050565b600081519050620004bf8162000820565b92915050565b600081519050620004d6816200083a565b92915050565b60008060008060808587031215620004f957620004f8620007bb565b5b60006200050987828801620004ae565b94505060206200051c87828801620004ae565b93505060406200052f87828801620004c5565b92505060606200054287828801620004c5565b91505092959194509250565b60006200055b82620005fc565b62000567818562000607565b935062000579818560208601620006ef565b6200058481620007c0565b840191505092915050565b60006200059e60218362000607565b9150620005ab82620007d1565b604082019050919050565b60006020820190508181036000830152620005d281846200054e565b905092915050565b60006020820190508181036000830152620005f5816200058f565b9050919050565b600081519050919050565b600082825260208201905092915050565b60006200062582620006e5565b91506200063283620006e5565b9250826200064557620006446200078c565b5b828204905092915050565b60006200065d82620006e5565b91506200066a83620006e5565b9250817fffffffffffffffffffffffffffffffffffffffffffffffffffffffffffffffff0483118215151615620006a657620006a56200075d565b5b828202905092915050565b6000620006be82620006c5565b9050919050565b600073ffffffffffffffffffffffffffffffffffffffff82169050919050565b6000819050919050565b60005b838110156200070f578082015181840152602081019050620006f2565b838111156200071f576000848401525b50505050565b60006200073282620006e5565b91506200073f83620006e5565b9250826200075257620007516200078c565b5b828206905092915050565b7f4e487b7100000000000000000000000000000000000000000000000000000000600052601160045260246000fd5b7f4e487b7100000000000000000000000000000000000000000000000000000000600052601260045260246000fd5b600080fd5b6000601f19601f8301169050919050565b7f536166654d6174683a206d756c7469706c69636174696f6e206f766572666c6f60008201527f7700000000000000000000000000000000000000000000000000000000000000602082015250565b6200082b81620006b1565b81146200083757600080fd5b50565b6200084581620006e5565b81146200085157600080fd5b50565b612e0580620008646000396000f3fe608060405234801561001057600080fd5b50600436106101d95760003560e01c80637b0a47ee11610104578063c8f33c91116100a2578063df136d6511610071578063df136d6514610536578063e9fad8ee14610554578063ebe2b12b1461055e578063f2fde38b1461057c576101d9565b8063c8f33c91146104c0578063cc1a378f146104de578063cd3daf9d146104fa578063d1af0c7d14610518576101d9565b80638b876347116100de5780638b876347146104385780638da5cb5b14610468578063a694fc3a14610486578063a85fe3b7146104a2576101d9565b80637b0a47ee146103e057806380faa57d146103fe5780638980f11f1461041c576101d9565b8063386a95251161017c57806370a082311161014b57806370a0823114610358578063715018a61461038857806372f702f3146103925780637ae2b5c7146103b0576101d9565b8063386a9525146102f65780633c6b16ab146103145780633d18b912146103305780635c975abb1461033a576101d9565b806318160ddd116101b857806318160ddd1461026e5780631c1f78eb1461028c5780632e1a7d4d146102aa5780632e4c697f146102c6576101d9565b80628cc262146101de5780630700037d1461020e578063150b7a021461023e575b600080fd5b6101f860048036038101906101f39190611f98565b610598565b60405161020591906126fb565b60405180910390f35b61022860048036038101906102239190611f98565b6106b0565b60405161023591906126fb565b60405180910390f35b61025860048036038101906102539190611fc5565b6106c8565b60405161026591906124c3565b60405180910390f35b6102766106f6565b60405161028391906126fb565b60405180910390f35b610294610700565b6040516102a191906126fb565b60405180910390f35b6102c460048036038101906102bf91906120ba565b61071e565b005b6102e060048036038101906102db9190612114565b6109a4565b6040516102ed91906126fb565b60405180910390f35b6102fe610a3b565b60405161030b91906126fb565b60405180910390f35b61032e600480360381019061032991906120ba565b610a41565b005b610338610d1f565b005b610342610f45565b60405161034f91906124a8565b60405180910390f35b610372600480360381019061036d9190611f98565b610f5c565b60405161037f91906126fb565b60405180910390f35b610390610fa5565b005b61039a610fb9565b6040516103a791906124de565b60405180910390f35b6103ca60048036038101906103c59190612114565b610fdf565b6040516103d791906126fb565b60405180910390f35b6103e8610ff8565b6040516103f591906126fb565b60405180910390f35b610406610ffe565b60405161041391906126fb565b60405180910390f35b6104366004803603810190610431919061204d565b611011565b005b610452600480360381019061044d9190611f98565b6111ae565b60405161045f91906126fb565b60405180910390f35b6104706111c6565b60405161047d919061242d565b60405180910390f35b6104a0600480360381019061049b91906120ba565b6111ee565b005b6104aa61147e565b6040516104b791906126fb565b60405180910390f35b6104c8611484565b6040516104d591906126fb565b60405180910390f35b6104f860048036038101906104f391906120ba565b61148a565b005b610502611519565b60405161050f91906126fb565b60405180910390f35b6105206115a1565b60405161052d91906124de565b60405180910390f35b61053e6115c7565b60405161054b91906126fb565b60405180910390f35b61055c6115cd565b005b61056661161f565b60405161057391906126fb565b60405180910390f35b61059660048036038101906105919190611f98565b611625565b005b60006106a9600c60008473ffffffffffffffffffffffffffffffffffffffff1673ffffffffffffffffffffffffffffffffffffffff1681526020019081526020016000205461069b60095461068d61063f600b60008973ffffffffffffffffffffffffffffffffffffffff1673ffffffffffffffffffffffffffffffffffffffff16815260200190815260200160002054610631611519565b6117b890919063ffffffff16565b600e60008973ffffffffffffffffffffffffffffffffffffffff1673ffffffffffffffffffffffffffffffffffffffff168152602001908152602001600020546116f390919063ffffffff16565b6116a990919063ffffffff16565b61180290919063ffffffff16565b9050919050565b600c6020528060005260406000206000915090505481565b60007f150b7a023d4804d13e8c85fb27262cb750cf6ba9f9dd3bb30d90f482ceeb4b1f905095945050505050565b6000600d54905090565b60006107196006546005546116f390919063ffffffff16565b905090565b610726611860565b3361072f611519565b60088190555061073d610ffe565b600781905550600073ffffffffffffffffffffffffffffffffffffffff168173ffffffffffffffffffffffffffffffffffffffff161461080a5761078081610598565b600c60008373ffffffffffffffffffffffffffffffffffffffff1673ffffffffffffffffffffffffffffffffffffffff16815260200190815260200160002081905550600854600b60008373ffffffffffffffffffffffffffffffffffffffff1673ffffffffffffffffffffffffffffffffffffffff168152602001908152602001600020819055505b6000821161084d576040517f08c379a0000000000000000000000000000000000000000000000000000000008152600401610844906125fb565b60405180910390fd5b61086282600d546117b890919063ffffffff16565b600d819055506108ba82600e60003373ffffffffffffffffffffffffffffffffffffffff1673ffffffffffffffffffffffffffffffffffffffff168152602001908152602001600020546117b890919063ffffffff16565b600e60003373ffffffffffffffffffffffffffffffffffffffff1673ffffffffffffffffffffffffffffffffffffffff1681526020019081526020016000208190555061094a3383600360009054906101000a900473ffffffffffffffffffffffffffffffffffffffff1673ffffffffffffffffffffffffffffffffffffffff166118b09092919063ffffffff16565b3373ffffffffffffffffffffffffffffffffffffffff167f7084f5476618d8e60b11ef0d7d3f06914655adb8793e28ff7f018d4c76d505d58360405161099091906126fb565b60405180910390a2506109a1611936565b50565b6000808214156109b75760019050610a35565b60018214156109c857829050610a35565b60006109e7846109e26002866116a990919063ffffffff16565b6109a4565b90506109fc81826116f390919063ffffffff16565b90506001610a1460028561176e90919063ffffffff16565b1415610a3057610a2d84826116f390919063ffffffff16565b90505b809150505b92915050565b60065481565b610a49611940565b6000610a53611519565b600881905550610a61610ffe565b600781905550600073ffffffffffffffffffffffffffffffffffffffff168173ffffffffffffffffffffffffffffffffffffffff1614610b2e57610aa481610598565b600c60008373ffffffffffffffffffffffffffffffffffffffff1673ffffffffffffffffffffffffffffffffffffffff16815260200190815260200160002081905550600854600b60008373ffffffffffffffffffffffffffffffffffffffff1673ffffffffffffffffffffffffffffffffffffffff168152602001908152602001600020819055505b6004544210610b5757610b4c600654836116a990919063ffffffff16565b600581905550610bb9565b6000610b6e426004546117b890919063ffffffff16565b90506000610b87600554836116f390919063ffffffff16565b9050610bb0600654610ba2838761180290919063ffffffff16565b6116a990919063ffffffff16565b60058190555050505b6000600260009054906101000a900473ffffffffffffffffffffffffffffffffffffffff1673ffffffffffffffffffffffffffffffffffffffff166370a08231306040518263ffffffff1660e01b8152600401610c16919061242d565b60206040518083038186803b158015610c2e57600080fd5b505afa158015610c42573d6000803e3d6000fd5b505050506040513d601f19601f82011682018060405250810190610c6691906120e7565b9050610c7d600654826116a990919063ffffffff16565b6005541115610cc1576040517f08c379a0000000000000000000000000000000000000000000000000000000008152600401610cb89061267b565b60405180910390fd5b42600781905550610cdd6006544261180290919063ffffffff16565b6004819055507fde88a922e0d3b88b24e9623efeb464919c6bf9f66857a65e2bfcf2ce87a9433d83604051610d1291906126fb565b60405180910390a1505050565b610d27611860565b33610d30611519565b600881905550610d3e610ffe565b600781905550600073ffffffffffffffffffffffffffffffffffffffff168173ffffffffffffffffffffffffffffffffffffffff1614610e0b57610d8181610598565b600c60008373ffffffffffffffffffffffffffffffffffffffff1673ffffffffffffffffffffffffffffffffffffffff16815260200190815260200160002081905550600854600b60008373ffffffffffffffffffffffffffffffffffffffff1673ffffffffffffffffffffffffffffffffffffffff168152602001908152602001600020819055505b6000600c60003373ffffffffffffffffffffffffffffffffffffffff1673ffffffffffffffffffffffffffffffffffffffff1681526020019081526020016000205490506000811115610f39576000600c60003373ffffffffffffffffffffffffffffffffffffffff1673ffffffffffffffffffffffffffffffffffffffff16815260200190815260200160002081905550610eea3382600260009054906101000a900473ffffffffffffffffffffffffffffffffffffffff1673ffffffffffffffffffffffffffffffffffffffff166118b09092919063ffffffff16565b3373ffffffffffffffffffffffffffffffffffffffff167fe2403640ba68fed3a2f88b7557551d1993f84b99bb10ff833f0cf8db0c5e048682604051610f3091906126fb565b60405180910390a25b5050610f43611936565b565b6000600160009054906101000a900460ff16905090565b6000600e60008373ffffffffffffffffffffffffffffffffffffffff1673ffffffffffffffffffffffffffffffffffffffff168152602001908152602001600020549050919050565b610fad611940565b610fb760006119be565b565b600360009054906101000a900473ffffffffffffffffffffffffffffffffffffffff1681565b6000818310610fee5781610ff0565b825b905092915050565b60055481565b600061100c42600454610fdf565b905090565b611019611940565b600260009054906101000a900473ffffffffffffffffffffffffffffffffffffffff1673ffffffffffffffffffffffffffffffffffffffff168273ffffffffffffffffffffffffffffffffffffffff1614156110aa576040517f08c379a00000000000000000000000000000000000000000000000000000000081526004016110a19061259b565b60405180910390fd5b6000600d541461114657600360009054906101000a900473ffffffffffffffffffffffffffffffffffffffff1673ffffffffffffffffffffffffffffffffffffffff168273ffffffffffffffffffffffffffffffffffffffff161415611145576040517f08c379a000000000000000000000000000000000000000000000000000000000815260040161113c9061265b565b60405180910390fd5b5b61117133828473ffffffffffffffffffffffffffffffffffffffff166118b09092919063ffffffff16565b7f8c1256b8896378cd5044f80c202f9772b9d77dc85c8a6eb51967210b09bfaa2882826040516111a292919061247f565b60405180910390a15050565b600b6020528060005260406000206000915090505481565b600060018054906101000a900473ffffffffffffffffffffffffffffffffffffffff16905090565b6111f6611860565b6111fe611a81565b33611207611519565b600881905550611215610ffe565b600781905550600073ffffffffffffffffffffffffffffffffffffffff168173ffffffffffffffffffffffffffffffffffffffff16146112e25761125881610598565b600c60008373ffffffffffffffffffffffffffffffffffffffff1673ffffffffffffffffffffffffffffffffffffffff16815260200190815260200160002081905550600854600b60008373ffffffffffffffffffffffffffffffffffffffff1673ffffffffffffffffffffffffffffffffffffffff168152602001908152602001600020819055505b60008211611325576040517f08c379a000000000000000000000000000000000000000000000000000000000815260040161131c9061255b565b60405180910390fd5b61133a82600d5461180290919063ffffffff16565b600d8190555061139282600e60003373ffffffffffffffffffffffffffffffffffffffff1673ffffffffffffffffffffffffffffffffffffffff1681526020019081526020016000205461180290919063ffffffff16565b600e60003373ffffffffffffffffffffffffffffffffffffffff1673ffffffffffffffffffffffffffffffffffffffff16815260200190815260200160002081905550611424333084600360009054906101000a900473ffffffffffffffffffffffffffffffffffffffff1673ffffffffffffffffffffffffffffffffffffffff16611acb909392919063ffffffff16565b3373ffffffffffffffffffffffffffffffffffffffff167f9e71bc8eea02a63969f509818f2dafb9254532904319f9dbda79b67bd34a5f3d8360405161146a91906126fb565b60405180910390a25061147b611936565b50565b60095481565b60075481565b611492611940565b60045442116114d6576040517f08c379a00000000000000000000000000000000000000000000000000000000081526004016114cd9061251b565b60405180910390fd5b806006819055507ffb46ca5a5e06d4540d6387b930a7c978bce0db5f449ec6b3f5d07c6e1d44f2d360065460405161150e91906126fb565b60405180910390a150565b600080600d54141561152f57600854905061159e565b61159b61158a600d5461157c60095461156e600554611560600754611552610ffe565b6117b890919063ffffffff16565b6116f390919063ffffffff16565b6116f390919063ffffffff16565b6116a990919063ffffffff16565b60085461180290919063ffffffff16565b90505b90565b600260009054906101000a900473ffffffffffffffffffffffffffffffffffffffff1681565b60085481565b611615600e60003373ffffffffffffffffffffffffffffffffffffffff1673ffffffffffffffffffffffffffffffffffffffff1681526020019081526020016000205461071e565b61161d610d1f565b565b60045481565b61162d611940565b600073ffffffffffffffffffffffffffffffffffffffff168173ffffffffffffffffffffffffffffffffffffffff16141561169d576040517f08c379a00000000000000000000000000000000000000000000000000000000081526004016116949061253b565b60405180910390fd5b6116a6816119be565b50565b60006116eb83836040518060400160405280601a81526020017f536166654d6174683a206469766973696f6e206279207a65726f000000000000815250611b54565b905092915050565b6000808314156117065760009050611768565b6000828461171491906127cf565b9050828482611723919061279e565b14611763576040517f08c379a000000000000000000000000000000000000000000000000000000000815260040161175a9061261b565b60405180910390fd5b809150505b92915050565b60006117b083836040518060400160405280601881526020017f536166654d6174683a206d6f64756c6f206279207a65726f0000000000000000815250611bb7565b905092915050565b60006117fa83836040518060400160405280601e81526020017f536166654d6174683a207375627472616374696f6e206f766572666c6f770000815250611c15565b905092915050565b60008082846118119190612748565b905083811015611856576040517f08c379a000000000000000000000000000000000000000000000000000000000815260040161184d9061257b565b60405180910390fd5b8091505092915050565b600260005414156118a6576040517f08c379a000000000000000000000000000000000000000000000000000000000815260040161189d906126db565b60405180910390fd5b6002600081905550565b6119318363a9059cbb60e01b84846040516024016118cf92919061247f565b604051602081830303815290604052907bffffffffffffffffffffffffffffffffffffffffffffffffffffffff19166020820180517bffffffffffffffffffffffffffffffffffffffffffffffffffffffff8381831617835250505050611c79565b505050565b6001600081905550565b611948611d40565b73ffffffffffffffffffffffffffffffffffffffff166119666111c6565b73ffffffffffffffffffffffffffffffffffffffff16146119bc576040517f08c379a00000000000000000000000000000000000000000000000000000000081526004016119b39061263b565b60405180910390fd5b565b600060018054906101000a900473ffffffffffffffffffffffffffffffffffffffff169050816001806101000a81548173ffffffffffffffffffffffffffffffffffffffff021916908373ffffffffffffffffffffffffffffffffffffffff1602179055508173ffffffffffffffffffffffffffffffffffffffff168173ffffffffffffffffffffffffffffffffffffffff167f8be0079c531659141344cd1fd0a4f28419497f9722a3daafe3b4186f6b6457e060405160405180910390a35050565b611a89610f45565b15611ac9576040517f08c379a0000000000000000000000000000000000000000000000000000000008152600401611ac0906125db565b60405180910390fd5b565b611b4e846323b872dd60e01b858585604051602401611aec93929190612448565b604051602081830303815290604052907bffffffffffffffffffffffffffffffffffffffffffffffffffffffff19166020820180517bffffffffffffffffffffffffffffffffffffffffffffffffffffffff8381831617835250505050611c79565b50505050565b60008083118290611b9b576040517f08c379a0000000000000000000000000000000000000000000000000000000008152600401611b9291906124f9565b60405180910390fd5b5060008385611baa919061279e565b9050809150509392505050565b6000808314158290611bff576040517f08c379a0000000000000000000000000000000000000000000000000000000008152600401611bf691906124f9565b60405180910390fd5b508284611c0c919061293a565b90509392505050565b6000838311158290611c5d576040517f08c379a0000000000000000000000000000000000000000000000000000000008152600401611c5491906124f9565b60405180910390fd5b5060008385611c6c9190612829565b9050809150509392505050565b6000611cdb826040518060400160405280602081526020017f5361666545524332303a206c6f772d6c6576656c2063616c6c206661696c65648152508573ffffffffffffffffffffffffffffffffffffffff16611d489092919063ffffffff16565b9050600081511115611d3b5780806020019051810190611cfb919061208d565b611d3a576040517f08c379a0000000000000000000000000000000000000000000000000000000008152600401611d31906126bb565b60405180910390fd5b5b505050565b600033905090565b6060611d578484600085611d60565b90509392505050565b606082471015611da5576040517f08c379a0000000000000000000000000000000000000000000000000000000008152600401611d9c906125bb565b60405180910390fd5b611dae85611e74565b611ded576040517f08c379a0000000000000000000000000000000000000000000000000000000008152600401611de49061269b565b60405180910390fd5b6000808673ffffffffffffffffffffffffffffffffffffffff168587604051611e169190612416565b60006040518083038185875af1925050503d8060008114611e53576040519150601f19603f3d011682016040523d82523d6000602084013e611e58565b606091505b5091509150611e68828286611e87565b92505050949350505050565b600080823b905060008111915050919050565b60608315611e9757829050611ee7565b600083511115611eaa5782518084602001fd5b816040517f08c379a0000000000000000000000000000000000000000000000000000000008152600401611ede91906124f9565b60405180910390fd5b9392505050565b600081359050611efd81612d8a565b92915050565b600081519050611f1281612da1565b92915050565b60008083601f840112611f2e57611f2d6129ce565b5b8235905067ffffffffffffffff811115611f4b57611f4a6129c9565b5b602083019150836001820283011115611f6757611f666129d3565b5b9250929050565b600081359050611f7d81612db8565b92915050565b600081519050611f9281612db8565b92915050565b600060208284031215611fae57611fad6129dd565b5b6000611fbc84828501611eee565b91505092915050565b600080600080600060808688031215611fe157611fe06129dd565b5b6000611fef88828901611eee565b955050602061200088828901611eee565b945050604061201188828901611f6e565b935050606086013567ffffffffffffffff811115612032576120316129d8565b5b61203e88828901611f18565b92509250509295509295909350565b60008060408385031215612064576120636129dd565b5b600061207285828601611eee565b925050602061208385828601611f6e565b9150509250929050565b6000602082840312156120a3576120a26129dd565b5b60006120b184828501611f03565b91505092915050565b6000602082840312156120d0576120cf6129dd565b5b60006120de84828501611f6e565b91505092915050565b6000602082840312156120fd576120fc6129dd565b5b600061210b84828501611f83565b91505092915050565b6000806040838503121561212b5761212a6129dd565b5b600061213985828601611f6e565b925050602061214a85828601611f6e565b9150509250929050565b61215d8161285d565b82525050565b61216c8161286f565b82525050565b61217b8161287b565b82525050565b600061218c82612716565b612196818561272c565b93506121a6818560208601612907565b80840191505092915050565b6121bb816128d1565b82525050565b60006121cc82612721565b6121d68185612737565b93506121e6818560208601612907565b6121ef816129e2565b840191505092915050565b6000612207605883612737565b9150612212826129f3565b606082019050919050565b600061222a602683612737565b915061223582612a68565b604082019050919050565b600061224d600e83612737565b915061225882612ab7565b602082019050919050565b6000612270601b83612737565b915061227b82612ae0565b602082019050919050565b6000612293602283612737565b915061229e82612b09565b604082019050919050565b60006122b6602683612737565b91506122c182612b58565b604082019050919050565b60006122d9601083612737565b91506122e482612ba7565b602082019050919050565b60006122fc601183612737565b915061230782612bd0565b602082019050919050565b600061231f602183612737565b915061232a82612bf9565b604082019050919050565b6000612342602083612737565b915061234d82612c48565b602082019050919050565b6000612365602283612737565b915061237082612c71565b604082019050919050565b6000612388601883612737565b915061239382612cc0565b602082019050919050565b60006123ab601d83612737565b91506123b682612ce9565b602082019050919050565b60006123ce602a83612737565b91506123d982612d12565b604082019050919050565b60006123f1601f83612737565b91506123fc82612d61565b602082019050919050565b612410816128c7565b82525050565b60006124228284612181565b915081905092915050565b60006020820190506124426000830184612154565b92915050565b600060608201905061245d6000830186612154565b61246a6020830185612154565b6124776040830184612407565b949350505050565b60006040820190506124946000830185612154565b6124a16020830184612407565b9392505050565b60006020820190506124bd6000830184612163565b92915050565b60006020820190506124d86000830184612172565b92915050565b60006020820190506124f360008301846121b2565b92915050565b6000602082019050818103600083015261251381846121c1565b905092915050565b60006020820190508181036000830152612534816121fa565b9050919050565b600060208201905081810360008301526125548161221d565b9050919050565b6000602082019050818103600083015261257481612240565b9050919050565b6000602082019050818103600083015261259481612263565b9050919050565b600060208201905081810360008301526125b481612286565b9050919050565b600060208201905081810360008301526125d4816122a9565b9050919050565b600060208201905081810360008301526125f4816122cc565b9050919050565b60006020820190508181036000830152612614816122ef565b9050919050565b6000602082019050818103600083015261263481612312565b9050919050565b6000602082019050818103600083015261265481612335565b9050919050565b6000602082019050818103600083015261267481612358565b9050919050565b600060208201905081810360008301526126948161237b565b9050919050565b600060208201905081810360008301526126b48161239e565b9050919050565b600060208201905081810360008301526126d4816123c1565b9050919050565b600060208201905081810360008301526126f4816123e4565b9050919050565b60006020820190506127106000830184612407565b92915050565b600081519050919050565b600081519050919050565b600081905092915050565b600082825260208201905092915050565b6000612753826128c7565b915061275e836128c7565b9250827fffffffffffffffffffffffffffffffffffffffffffffffffffffffffffffffff038211156127935761279261296b565b5b828201905092915050565b60006127a9826128c7565b91506127b4836128c7565b9250826127c4576127c361299a565b5b828204905092915050565b60006127da826128c7565b91506127e5836128c7565b9250817fffffffffffffffffffffffffffffffffffffffffffffffffffffffffffffffff048311821515161561281e5761281d61296b565b5b828202905092915050565b6000612834826128c7565b915061283f836128c7565b9250828210156128525761285161296b565b5b828203905092915050565b6000612868826128a7565b9050919050565b60008115159050919050565b60007fffffffff0000000000000000000000000000000000000000000000000000000082169050919050565b600073ffffffffffffffffffffffffffffffffffffffff82169050919050565b6000819050919050565b60006128dc826128e3565b9050919050565b60006128ee826128f5565b9050919050565b6000612900826128a7565b9050919050565b60005b8381101561292557808201518184015260208101905061290a565b83811115612934576000848401525b50505050565b6000612945826128c7565b9150612950836128c7565b9250826129605761295f61299a565b5b828206905092915050565b7f4e487b7100000000000000000000000000000000000000000000000000000000600052601160045260246000fd5b7f4e487b7100000000000000000000000000000000000000000000000000000000600052601260045260246000fd5b600080fd5b600080fd5b600080fd5b600080fd5b600080fd5b6000601f19601f8301169050919050565b7f50726576696f7573207265776172647320706572696f64206d7573742062652060008201527f636f6d706c657465206265666f7265206368616e67696e67207468652064757260208201527f6174696f6e20666f7220746865206e657720706572696f640000000000000000604082015250565b7f4f776e61626c653a206e6577206f776e657220697320746865207a65726f206160008201527f6464726573730000000000000000000000000000000000000000000000000000602082015250565b7f43616e6e6f74207374616b652030000000000000000000000000000000000000600082015250565b7f536166654d6174683a206164646974696f6e206f766572666c6f770000000000600082015250565b7f43616e6e6f7420776974686472617720746865207265776172647320746f6b6560008201527f6e73000000000000000000000000000000000000000000000000000000000000602082015250565b7f416464726573733a20696e73756666696369656e742062616c616e636520666f60008201527f722063616c6c0000000000000000000000000000000000000000000000000000602082015250565b7f5061757361626c653a2070617573656400000000000000000000000000000000600082015250565b7f43616e6e6f742077697468647261772030000000000000000000000000000000600082015250565b7f536166654d6174683a206d756c7469706c69636174696f6e206f766572666c6f60008201527f7700000000000000000000000000000000000000000000000000000000000000602082015250565b7f4f776e61626c653a2063616c6c6572206973206e6f7420746865206f776e6572600082015250565b7f43616e6e6f7420776974686472617720746865207374616b696e6720746f6b6560008201527f6e73000000000000000000000000000000000000000000000000000000000000602082015250565b7f50726f76696465642072657761726420746f6f20686967680000000000000000600082015250565b7f416464726573733a2063616c6c20746f206e6f6e2d636f6e7472616374000000600082015250565b7f5361666545524332303a204552433230206f7065726174696f6e20646964206e60008201527f6f74207375636365656400000000000000000000000000000000000000000000602082015250565b7f5265656e7472616e637947756172643a207265656e7472616e742063616c6c00600082015250565b612d938161285d565b8114612d9e57600080fd5b50565b612daa8161286f565b8114612db557600080fd5b50565b612dc1816128c7565b8114612dcc57600080fd5b5056fea2646970667358221220f328db215d3d7e6c092b38299c27d80e6cc5e0051d2562957dc031814986889764736f6c63430008070033",
					"opcodes": "PUSH1 0x80 PUSH1 0x40 MSTORE PUSH1 0x0 PUSH1 0x4 SSTORE PUSH1 0x0 PUSH1 0x5 SSTORE CALLVALUE DUP1 ISZERO PUSH3 0x1B JUMPI PUSH1 0x0 DUP1 REVERT JUMPDEST POP PUSH1 0x40 MLOAD PUSH3 0x3669 CODESIZE SUB DUP1 PUSH3 0x3669 DUP4 CODECOPY DUP2 DUP2 ADD PUSH1 0x40 MSTORE DUP2 ADD SWAP1 PUSH3 0x41 SWAP2 SWAP1 PUSH3 0x4DC JUMP JUMPDEST PUSH1 0x1 PUSH1 0x0 DUP2 SWAP1 SSTORE POP PUSH1 0x0 PUSH1 0x1 PUSH1 0x0 PUSH2 0x100 EXP DUP2 SLOAD DUP2 PUSH1 0xFF MUL NOT AND SWAP1 DUP4 ISZERO ISZERO MUL OR SWAP1 SSTORE POP PUSH3 0x84 PUSH3 0x78 PUSH3 0x130 PUSH1 0x20 SHL PUSH1 0x20 SHR JUMP JUMPDEST PUSH3 0x138 PUSH1 0x20 SHL PUSH1 0x20 SHR JUMP JUMPDEST PUSH3 0x97 PUSH1 0xA DUP3 PUSH3 0x1FB PUSH1 0x20 SHL PUSH1 0x20 SHR JUMP JUMPDEST PUSH1 0x9 DUP2 SWAP1 SSTORE POP DUP4 PUSH1 0x2 PUSH1 0x0 PUSH2 0x100 EXP DUP2 SLOAD DUP2 PUSH20 0xFFFFFFFFFFFFFFFFFFFFFFFFFFFFFFFFFFFFFFFF MUL NOT AND SWAP1 DUP4 PUSH20 0xFFFFFFFFFFFFFFFFFFFFFFFFFFFFFFFFFFFFFFFF AND MUL OR SWAP1 SSTORE POP DUP3 PUSH1 0x3 PUSH1 0x0 PUSH2 0x100 EXP DUP2 SLOAD DUP2 PUSH20 0xFFFFFFFFFFFFFFFFFFFFFFFFFFFFFFFFFFFFFFFF MUL NOT AND SWAP1 DUP4 PUSH20 0xFFFFFFFFFFFFFFFFFFFFFFFFFFFFFFFFFFFFFFFF AND MUL OR SWAP1 SSTORE POP DUP2 PUSH1 0x6 DUP2 SWAP1 SSTORE POP POP POP POP POP PUSH3 0x854 JUMP JUMPDEST PUSH1 0x0 CALLER SWAP1 POP SWAP1 JUMP JUMPDEST PUSH1 0x0 PUSH1 0x1 DUP1 SLOAD SWAP1 PUSH2 0x100 EXP SWAP1 DIV PUSH20 0xFFFFFFFFFFFFFFFFFFFFFFFFFFFFFFFFFFFFFFFF AND SWAP1 POP DUP2 PUSH1 0x1 DUP1 PUSH2 0x100 EXP DUP2 SLOAD DUP2 PUSH20 0xFFFFFFFFFFFFFFFFFFFFFFFFFFFFFFFFFFFFFFFF MUL NOT AND SWAP1 DUP4 PUSH20 0xFFFFFFFFFFFFFFFFFFFFFFFFFFFFFFFFFFFFFFFF AND MUL OR SWAP1 SSTORE POP DUP2 PUSH20 0xFFFFFFFFFFFFFFFFFFFFFFFFFFFFFFFFFFFFFFFF AND DUP2 PUSH20 0xFFFFFFFFFFFFFFFFFFFFFFFFFFFFFFFFFFFFFFFF AND PUSH32 0x8BE0079C531659141344CD1FD0A4F28419497F9722A3DAAFE3B4186F6B6457E0 PUSH1 0x40 MLOAD PUSH1 0x40 MLOAD DUP1 SWAP2 SUB SWAP1 LOG3 POP POP JUMP JUMPDEST PUSH1 0x0 DUP1 DUP3 EQ ISZERO PUSH3 0x210 JUMPI PUSH1 0x1 SWAP1 POP PUSH3 0x2B5 JUMP JUMPDEST PUSH1 0x1 DUP3 EQ ISZERO PUSH3 0x223 JUMPI DUP3 SWAP1 POP PUSH3 0x2B5 JUMP JUMPDEST PUSH1 0x0 PUSH3 0x251 DUP5 PUSH3 0x245 PUSH1 0x2 DUP7 PUSH3 0x2BB PUSH1 0x20 SHL PUSH3 0x16A9 OR SWAP1 SWAP2 SWAP1 PUSH1 0x20 SHR JUMP JUMPDEST PUSH3 0x1FB PUSH1 0x20 SHL PUSH1 0x20 SHR JUMP JUMPDEST SWAP1 POP PUSH3 0x26D DUP2 DUP3 PUSH3 0x30D PUSH1 0x20 SHL PUSH3 0x16F3 OR SWAP1 SWAP2 SWAP1 PUSH1 0x20 SHR JUMP JUMPDEST SWAP1 POP PUSH1 0x1 PUSH3 0x28C PUSH1 0x2 DUP6 PUSH3 0x391 PUSH1 0x20 SHL PUSH3 0x176E OR SWAP1 SWAP2 SWAP1 PUSH1 0x20 SHR JUMP JUMPDEST EQ ISZERO PUSH3 0x2B0 JUMPI PUSH3 0x2AD DUP5 DUP3 PUSH3 0x30D PUSH1 0x20 SHL PUSH3 0x16F3 OR SWAP1 SWAP2 SWAP1 PUSH1 0x20 SHR JUMP JUMPDEST SWAP1 POP JUMPDEST DUP1 SWAP2 POP POP JUMPDEST SWAP3 SWAP2 POP POP JUMP JUMPDEST PUSH1 0x0 PUSH3 0x305 DUP4 DUP4 PUSH1 0x40 MLOAD DUP1 PUSH1 0x40 ADD PUSH1 0x40 MSTORE DUP1 PUSH1 0x1A DUP2 MSTORE PUSH1 0x20 ADD PUSH32 0x536166654D6174683A206469766973696F6E206279207A65726F000000000000 DUP2 MSTORE POP PUSH3 0x3E3 PUSH1 0x20 SHL PUSH1 0x20 SHR JUMP JUMPDEST SWAP1 POP SWAP3 SWAP2 POP POP JUMP JUMPDEST PUSH1 0x0 DUP1 DUP4 EQ ISZERO PUSH3 0x322 JUMPI PUSH1 0x0 SWAP1 POP PUSH3 0x38B JUMP JUMPDEST PUSH1 0x0 DUP3 DUP5 PUSH3 0x332 SWAP2 SWAP1 PUSH3 0x650 JUMP JUMPDEST SWAP1 POP DUP3 DUP5 DUP3 PUSH3 0x343 SWAP2 SWAP1 PUSH3 0x618 JUMP JUMPDEST EQ PUSH3 0x386 JUMPI PUSH1 0x40 MLOAD PUSH32 0x8C379A000000000000000000000000000000000000000000000000000000000 DUP2 MSTORE PUSH1 0x4 ADD PUSH3 0x37D SWAP1 PUSH3 0x5DA JUMP JUMPDEST PUSH1 0x40 MLOAD DUP1 SWAP2 SUB SWAP1 REVERT JUMPDEST DUP1 SWAP2 POP POP JUMPDEST SWAP3 SWAP2 POP POP JUMP JUMPDEST PUSH1 0x0 PUSH3 0x3DB DUP4 DUP4 PUSH1 0x40 MLOAD DUP1 PUSH1 0x40 ADD PUSH1 0x40 MSTORE DUP1 PUSH1 0x18 DUP2 MSTORE PUSH1 0x20 ADD PUSH32 0x536166654D6174683A206D6F64756C6F206279207A65726F0000000000000000 DUP2 MSTORE POP PUSH3 0x44B PUSH1 0x20 SHL PUSH1 0x20 SHR JUMP JUMPDEST SWAP1 POP SWAP3 SWAP2 POP POP JUMP JUMPDEST PUSH1 0x0 DUP1 DUP4 GT DUP3 SWAP1 PUSH3 0x42D JUMPI PUSH1 0x40 MLOAD PUSH32 0x8C379A000000000000000000000000000000000000000000000000000000000 DUP2 MSTORE PUSH1 0x4 ADD PUSH3 0x424 SWAP2 SWAP1 PUSH3 0x5B6 JUMP JUMPDEST PUSH1 0x40 MLOAD DUP1 SWAP2 SUB SWAP1 REVERT JUMPDEST POP PUSH1 0x0 DUP4 DUP6 PUSH3 0x43E SWAP2 SWAP1 PUSH3 0x618 JUMP JUMPDEST SWAP1 POP DUP1 SWAP2 POP POP SWAP4 SWAP3 POP POP POP JUMP JUMPDEST PUSH1 0x0 DUP1 DUP4 EQ ISZERO DUP3 SWAP1 PUSH3 0x496 JUMPI PUSH1 0x40 MLOAD PUSH32 0x8C379A000000000000000000000000000000000000000000000000000000000 DUP2 MSTORE PUSH1 0x4 ADD PUSH3 0x48D SWAP2 SWAP1 PUSH3 0x5B6 JUMP JUMPDEST PUSH1 0x40 MLOAD DUP1 SWAP2 SUB SWAP1 REVERT JUMPDEST POP DUP3 DUP5 PUSH3 0x4A5 SWAP2 SWAP1 PUSH3 0x725 JUMP JUMPDEST SWAP1 POP SWAP4 SWAP3 POP POP POP JUMP JUMPDEST PUSH1 0x0 DUP2 MLOAD SWAP1 POP PUSH3 0x4BF DUP2 PUSH3 0x820 JUMP JUMPDEST SWAP3 SWAP2 POP POP JUMP JUMPDEST PUSH1 0x0 DUP2 MLOAD SWAP1 POP PUSH3 0x4D6 DUP2 PUSH3 0x83A JUMP JUMPDEST SWAP3 SWAP2 POP POP JUMP JUMPDEST PUSH1 0x0 DUP1 PUSH1 0x0 DUP1 PUSH1 0x80 DUP6 DUP8 SUB SLT ISZERO PUSH3 0x4F9 JUMPI PUSH3 0x4F8 PUSH3 0x7BB JUMP JUMPDEST JUMPDEST PUSH1 0x0 PUSH3 0x509 DUP8 DUP3 DUP9 ADD PUSH3 0x4AE JUMP JUMPDEST SWAP5 POP POP PUSH1 0x20 PUSH3 0x51C DUP8 DUP3 DUP9 ADD PUSH3 0x4AE JUMP JUMPDEST SWAP4 POP POP PUSH1 0x40 PUSH3 0x52F DUP8 DUP3 DUP9 ADD PUSH3 0x4C5 JUMP JUMPDEST SWAP3 POP POP PUSH1 0x60 PUSH3 0x542 DUP8 DUP3 DUP9 ADD PUSH3 0x4C5 JUMP JUMPDEST SWAP2 POP POP SWAP3 SWAP6 SWAP2 SWAP5 POP SWAP3 POP JUMP JUMPDEST PUSH1 0x0 PUSH3 0x55B DUP3 PUSH3 0x5FC JUMP JUMPDEST PUSH3 0x567 DUP2 DUP6 PUSH3 0x607 JUMP JUMPDEST SWAP4 POP PUSH3 0x579 DUP2 DUP6 PUSH1 0x20 DUP7 ADD PUSH3 0x6EF JUMP JUMPDEST PUSH3 0x584 DUP2 PUSH3 0x7C0 JUMP JUMPDEST DUP5 ADD SWAP2 POP POP SWAP3 SWAP2 POP POP JUMP JUMPDEST PUSH1 0x0 PUSH3 0x59E PUSH1 0x21 DUP4 PUSH3 0x607 JUMP JUMPDEST SWAP2 POP PUSH3 0x5AB DUP3 PUSH3 0x7D1 JUMP JUMPDEST PUSH1 0x40 DUP3 ADD SWAP1 POP SWAP2 SWAP1 POP JUMP JUMPDEST PUSH1 0x0 PUSH1 0x20 DUP3 ADD SWAP1 POP DUP2 DUP2 SUB PUSH1 0x0 DUP4 ADD MSTORE PUSH3 0x5D2 DUP2 DUP5 PUSH3 0x54E JUMP JUMPDEST SWAP1 POP SWAP3 SWAP2 POP POP JUMP JUMPDEST PUSH1 0x0 PUSH1 0x20 DUP3 ADD SWAP1 POP DUP2 DUP2 SUB PUSH1 0x0 DUP4 ADD MSTORE PUSH3 0x5F5 DUP2 PUSH3 0x58F JUMP JUMPDEST SWAP1 POP SWAP2 SWAP1 POP JUMP JUMPDEST PUSH1 0x0 DUP2 MLOAD SWAP1 POP SWAP2 SWAP1 POP JUMP JUMPDEST PUSH1 0x0 DUP3 DUP3 MSTORE PUSH1 0x20 DUP3 ADD SWAP1 POP SWAP3 SWAP2 POP POP JUMP JUMPDEST PUSH1 0x0 PUSH3 0x625 DUP3 PUSH3 0x6E5 JUMP JUMPDEST SWAP2 POP PUSH3 0x632 DUP4 PUSH3 0x6E5 JUMP JUMPDEST SWAP3 POP DUP3 PUSH3 0x645 JUMPI PUSH3 0x644 PUSH3 0x78C JUMP JUMPDEST JUMPDEST DUP3 DUP3 DIV SWAP1 POP SWAP3 SWAP2 POP POP JUMP JUMPDEST PUSH1 0x0 PUSH3 0x65D DUP3 PUSH3 0x6E5 JUMP JUMPDEST SWAP2 POP PUSH3 0x66A DUP4 PUSH3 0x6E5 JUMP JUMPDEST SWAP3 POP DUP2 PUSH32 0xFFFFFFFFFFFFFFFFFFFFFFFFFFFFFFFFFFFFFFFFFFFFFFFFFFFFFFFFFFFFFFFF DIV DUP4 GT DUP3 ISZERO ISZERO AND ISZERO PUSH3 0x6A6 JUMPI PUSH3 0x6A5 PUSH3 0x75D JUMP JUMPDEST JUMPDEST DUP3 DUP3 MUL SWAP1 POP SWAP3 SWAP2 POP POP JUMP JUMPDEST PUSH1 0x0 PUSH3 0x6BE DUP3 PUSH3 0x6C5 JUMP JUMPDEST SWAP1 POP SWAP2 SWAP1 POP JUMP JUMPDEST PUSH1 0x0 PUSH20 0xFFFFFFFFFFFFFFFFFFFFFFFFFFFFFFFFFFFFFFFF DUP3 AND SWAP1 POP SWAP2 SWAP1 POP JUMP JUMPDEST PUSH1 0x0 DUP2 SWAP1 POP SWAP2 SWAP1 POP JUMP JUMPDEST PUSH1 0x0 JUMPDEST DUP4 DUP2 LT ISZERO PUSH3 0x70F JUMPI DUP1 DUP3 ADD MLOAD DUP2 DUP5 ADD MSTORE PUSH1 0x20 DUP2 ADD SWAP1 POP PUSH3 0x6F2 JUMP JUMPDEST DUP4 DUP2 GT ISZERO PUSH3 0x71F JUMPI PUSH1 0x0 DUP5 DUP5 ADD MSTORE JUMPDEST POP POP POP POP JUMP JUMPDEST PUSH1 0x0 PUSH3 0x732 DUP3 PUSH3 0x6E5 JUMP JUMPDEST SWAP2 POP PUSH3 0x73F DUP4 PUSH3 0x6E5 JUMP JUMPDEST SWAP3 POP DUP3 PUSH3 0x752 JUMPI PUSH3 0x751 PUSH3 0x78C JUMP JUMPDEST JUMPDEST DUP3 DUP3 MOD SWAP1 POP SWAP3 SWAP2 POP POP JUMP JUMPDEST PUSH32 0x4E487B7100000000000000000000000000000000000000000000000000000000 PUSH1 0x0 MSTORE PUSH1 0x11 PUSH1 0x4 MSTORE PUSH1 0x24 PUSH1 0x0 REVERT JUMPDEST PUSH32 0x4E487B7100000000000000000000000000000000000000000000000000000000 PUSH1 0x0 MSTORE PUSH1 0x12 PUSH1 0x4 MSTORE PUSH1 0x24 PUSH1 0x0 REVERT JUMPDEST PUSH1 0x0 DUP1 REVERT JUMPDEST PUSH1 0x0 PUSH1 0x1F NOT PUSH1 0x1F DUP4 ADD AND SWAP1 POP SWAP2 SWAP1 POP JUMP JUMPDEST PUSH32 0x536166654D6174683A206D756C7469706C69636174696F6E206F766572666C6F PUSH1 0x0 DUP3 ADD MSTORE PUSH32 0x7700000000000000000000000000000000000000000000000000000000000000 PUSH1 0x20 DUP3 ADD MSTORE POP JUMP JUMPDEST PUSH3 0x82B DUP2 PUSH3 0x6B1 JUMP JUMPDEST DUP2 EQ PUSH3 0x837 JUMPI PUSH1 0x0 DUP1 REVERT JUMPDEST POP JUMP JUMPDEST PUSH3 0x845 DUP2 PUSH3 0x6E5 JUMP JUMPDEST DUP2 EQ PUSH3 0x851 JUMPI PUSH1 0x0 DUP1 REVERT JUMPDEST POP JUMP JUMPDEST PUSH2 0x2E05 DUP1 PUSH3 0x864 PUSH1 0x0 CODECOPY PUSH1 0x0 RETURN INVALID PUSH1 0x80 PUSH1 0x40 MSTORE CALLVALUE DUP1 ISZERO PUSH2 0x10 JUMPI PUSH1 0x0 DUP1 REVERT JUMPDEST POP PUSH1 0x4 CALLDATASIZE LT PUSH2 0x1D9 JUMPI PUSH1 0x0 CALLDATALOAD PUSH1 0xE0 SHR DUP1 PUSH4 0x7B0A47EE GT PUSH2 0x104 JUMPI DUP1 PUSH4 0xC8F33C91 GT PUSH2 0xA2 JUMPI DUP1 PUSH4 0xDF136D65 GT PUSH2 0x71 JUMPI DUP1 PUSH4 0xDF136D65 EQ PUSH2 0x536 JUMPI DUP1 PUSH4 0xE9FAD8EE EQ PUSH2 0x554 JUMPI DUP1 PUSH4 0xEBE2B12B EQ PUSH2 0x55E JUMPI DUP1 PUSH4 0xF2FDE38B EQ PUSH2 0x57C JUMPI PUSH2 0x1D9 JUMP JUMPDEST DUP1 PUSH4 0xC8F33C91 EQ PUSH2 0x4C0 JUMPI DUP1 PUSH4 0xCC1A378F EQ PUSH2 0x4DE JUMPI DUP1 PUSH4 0xCD3DAF9D EQ PUSH2 0x4FA JUMPI DUP1 PUSH4 0xD1AF0C7D EQ PUSH2 0x518 JUMPI PUSH2 0x1D9 JUMP JUMPDEST DUP1 PUSH4 0x8B876347 GT PUSH2 0xDE JUMPI DUP1 PUSH4 0x8B876347 EQ PUSH2 0x438 JUMPI DUP1 PUSH4 0x8DA5CB5B EQ PUSH2 0x468 JUMPI DUP1 PUSH4 0xA694FC3A EQ PUSH2 0x486 JUMPI DUP1 PUSH4 0xA85FE3B7 EQ PUSH2 0x4A2 JUMPI PUSH2 0x1D9 JUMP JUMPDEST DUP1 PUSH4 0x7B0A47EE EQ PUSH2 0x3E0 JUMPI DUP1 PUSH4 0x80FAA57D EQ PUSH2 0x3FE JUMPI DUP1 PUSH4 0x8980F11F EQ PUSH2 0x41C JUMPI PUSH2 0x1D9 JUMP JUMPDEST DUP1 PUSH4 0x386A9525 GT PUSH2 0x17C JUMPI DUP1 PUSH4 0x70A08231 GT PUSH2 0x14B JUMPI DUP1 PUSH4 0x70A08231 EQ PUSH2 0x358 JUMPI DUP1 PUSH4 0x715018A6 EQ PUSH2 0x388 JUMPI DUP1 PUSH4 0x72F702F3 EQ PUSH2 0x392 JUMPI DUP1 PUSH4 0x7AE2B5C7 EQ PUSH2 0x3B0 JUMPI PUSH2 0x1D9 JUMP JUMPDEST DUP1 PUSH4 0x386A9525 EQ PUSH2 0x2F6 JUMPI DUP1 PUSH4 0x3C6B16AB EQ PUSH2 0x314 JUMPI DUP1 PUSH4 0x3D18B912 EQ PUSH2 0x330 JUMPI DUP1 PUSH4 0x5C975ABB EQ PUSH2 0x33A JUMPI PUSH2 0x1D9 JUMP JUMPDEST DUP1 PUSH4 0x18160DDD GT PUSH2 0x1B8 JUMPI DUP1 PUSH4 0x18160DDD EQ PUSH2 0x26E JUMPI DUP1 PUSH4 0x1C1F78EB EQ PUSH2 0x28C JUMPI DUP1 PUSH4 0x2E1A7D4D EQ PUSH2 0x2AA JUMPI DUP1 PUSH4 0x2E4C697F EQ PUSH2 0x2C6 JUMPI PUSH2 0x1D9 JUMP JUMPDEST DUP1 PUSH3 0x8CC262 EQ PUSH2 0x1DE JUMPI DUP1 PUSH4 0x700037D EQ PUSH2 0x20E JUMPI DUP1 PUSH4 0x150B7A02 EQ PUSH2 0x23E JUMPI JUMPDEST PUSH1 0x0 DUP1 REVERT JUMPDEST PUSH2 0x1F8 PUSH1 0x4 DUP1 CALLDATASIZE SUB DUP2 ADD SWAP1 PUSH2 0x1F3 SWAP2 SWAP1 PUSH2 0x1F98 JUMP JUMPDEST PUSH2 0x598 JUMP JUMPDEST PUSH1 0x40 MLOAD PUSH2 0x205 SWAP2 SWAP1 PUSH2 0x26FB JUMP JUMPDEST PUSH1 0x40 MLOAD DUP1 SWAP2 SUB SWAP1 RETURN JUMPDEST PUSH2 0x228 PUSH1 0x4 DUP1 CALLDATASIZE SUB DUP2 ADD SWAP1 PUSH2 0x223 SWAP2 SWAP1 PUSH2 0x1F98 JUMP JUMPDEST PUSH2 0x6B0 JUMP JUMPDEST PUSH1 0x40 MLOAD PUSH2 0x235 SWAP2 SWAP1 PUSH2 0x26FB JUMP JUMPDEST PUSH1 0x40 MLOAD DUP1 SWAP2 SUB SWAP1 RETURN JUMPDEST PUSH2 0x258 PUSH1 0x4 DUP1 CALLDATASIZE SUB DUP2 ADD SWAP1 PUSH2 0x253 SWAP2 SWAP1 PUSH2 0x1FC5 JUMP JUMPDEST PUSH2 0x6C8 JUMP JUMPDEST PUSH1 0x40 MLOAD PUSH2 0x265 SWAP2 SWAP1 PUSH2 0x24C3 JUMP JUMPDEST PUSH1 0x40 MLOAD DUP1 SWAP2 SUB SWAP1 RETURN JUMPDEST PUSH2 0x276 PUSH2 0x6F6 JUMP JUMPDEST PUSH1 0x40 MLOAD PUSH2 0x283 SWAP2 SWAP1 PUSH2 0x26FB JUMP JUMPDEST PUSH1 0x40 MLOAD DUP1 SWAP2 SUB SWAP1 RETURN JUMPDEST PUSH2 0x294 PUSH2 0x700 JUMP JUMPDEST PUSH1 0x40 MLOAD PUSH2 0x2A1 SWAP2 SWAP1 PUSH2 0x26FB JUMP JUMPDEST PUSH1 0x40 MLOAD DUP1 SWAP2 SUB SWAP1 RETURN JUMPDEST PUSH2 0x2C4 PUSH1 0x4 DUP1 CALLDATASIZE SUB DUP2 ADD SWAP1 PUSH2 0x2BF SWAP2 SWAP1 PUSH2 0x20BA JUMP JUMPDEST PUSH2 0x71E JUMP JUMPDEST STOP JUMPDEST PUSH2 0x2E0 PUSH1 0x4 DUP1 CALLDATASIZE SUB DUP2 ADD SWAP1 PUSH2 0x2DB SWAP2 SWAP1 PUSH2 0x2114 JUMP JUMPDEST PUSH2 0x9A4 JUMP JUMPDEST PUSH1 0x40 MLOAD PUSH2 0x2ED SWAP2 SWAP1 PUSH2 0x26FB JUMP JUMPDEST PUSH1 0x40 MLOAD DUP1 SWAP2 SUB SWAP1 RETURN JUMPDEST PUSH2 0x2FE PUSH2 0xA3B JUMP JUMPDEST PUSH1 0x40 MLOAD PUSH2 0x30B SWAP2 SWAP1 PUSH2 0x26FB JUMP JUMPDEST PUSH1 0x40 MLOAD DUP1 SWAP2 SUB SWAP1 RETURN JUMPDEST PUSH2 0x32E PUSH1 0x4 DUP1 CALLDATASIZE SUB DUP2 ADD SWAP1 PUSH2 0x329 SWAP2 SWAP1 PUSH2 0x20BA JUMP JUMPDEST PUSH2 0xA41 JUMP JUMPDEST STOP JUMPDEST PUSH2 0x338 PUSH2 0xD1F JUMP JUMPDEST STOP JUMPDEST PUSH2 0x342 PUSH2 0xF45 JUMP JUMPDEST PUSH1 0x40 MLOAD PUSH2 0x34F SWAP2 SWAP1 PUSH2 0x24A8 JUMP JUMPDEST PUSH1 0x40 MLOAD DUP1 SWAP2 SUB SWAP1 RETURN JUMPDEST PUSH2 0x372 PUSH1 0x4 DUP1 CALLDATASIZE SUB DUP2 ADD SWAP1 PUSH2 0x36D SWAP2 SWAP1 PUSH2 0x1F98 JUMP JUMPDEST PUSH2 0xF5C JUMP JUMPDEST PUSH1 0x40 MLOAD PUSH2 0x37F SWAP2 SWAP1 PUSH2 0x26FB JUMP JUMPDEST PUSH1 0x40 MLOAD DUP1 SWAP2 SUB SWAP1 RETURN JUMPDEST PUSH2 0x390 PUSH2 0xFA5 JUMP JUMPDEST STOP JUMPDEST PUSH2 0x39A PUSH2 0xFB9 JUMP JUMPDEST PUSH1 0x40 MLOAD PUSH2 0x3A7 SWAP2 SWAP1 PUSH2 0x24DE JUMP JUMPDEST PUSH1 0x40 MLOAD DUP1 SWAP2 SUB SWAP1 RETURN JUMPDEST PUSH2 0x3CA PUSH1 0x4 DUP1 CALLDATASIZE SUB DUP2 ADD SWAP1 PUSH2 0x3C5 SWAP2 SWAP1 PUSH2 0x2114 JUMP JUMPDEST PUSH2 0xFDF JUMP JUMPDEST PUSH1 0x40 MLOAD PUSH2 0x3D7 SWAP2 SWAP1 PUSH2 0x26FB JUMP JUMPDEST PUSH1 0x40 MLOAD DUP1 SWAP2 SUB SWAP1 RETURN JUMPDEST PUSH2 0x3E8 PUSH2 0xFF8 JUMP JUMPDEST PUSH1 0x40 MLOAD PUSH2 0x3F5 SWAP2 SWAP1 PUSH2 0x26FB JUMP JUMPDEST PUSH1 0x40 MLOAD DUP1 SWAP2 SUB SWAP1 RETURN JUMPDEST PUSH2 0x406 PUSH2 0xFFE JUMP JUMPDEST PUSH1 0x40 MLOAD PUSH2 0x413 SWAP2 SWAP1 PUSH2 0x26FB JUMP JUMPDEST PUSH1 0x40 MLOAD DUP1 SWAP2 SUB SWAP1 RETURN JUMPDEST PUSH2 0x436 PUSH1 0x4 DUP1 CALLDATASIZE SUB DUP2 ADD SWAP1 PUSH2 0x431 SWAP2 SWAP1 PUSH2 0x204D JUMP JUMPDEST PUSH2 0x1011 JUMP JUMPDEST STOP JUMPDEST PUSH2 0x452 PUSH1 0x4 DUP1 CALLDATASIZE SUB DUP2 ADD SWAP1 PUSH2 0x44D SWAP2 SWAP1 PUSH2 0x1F98 JUMP JUMPDEST PUSH2 0x11AE JUMP JUMPDEST PUSH1 0x40 MLOAD PUSH2 0x45F SWAP2 SWAP1 PUSH2 0x26FB JUMP JUMPDEST PUSH1 0x40 MLOAD DUP1 SWAP2 SUB SWAP1 RETURN JUMPDEST PUSH2 0x470 PUSH2 0x11C6 JUMP JUMPDEST PUSH1 0x40 MLOAD PUSH2 0x47D SWAP2 SWAP1 PUSH2 0x242D JUMP JUMPDEST PUSH1 0x40 MLOAD DUP1 SWAP2 SUB SWAP1 RETURN JUMPDEST PUSH2 0x4A0 PUSH1 0x4 DUP1 CALLDATASIZE SUB DUP2 ADD SWAP1 PUSH2 0x49B SWAP2 SWAP1 PUSH2 0x20BA JUMP JUMPDEST PUSH2 0x11EE JUMP JUMPDEST STOP JUMPDEST PUSH2 0x4AA PUSH2 0x147E JUMP JUMPDEST PUSH1 0x40 MLOAD PUSH2 0x4B7 SWAP2 SWAP1 PUSH2 0x26FB JUMP JUMPDEST PUSH1 0x40 MLOAD DUP1 SWAP2 SUB SWAP1 RETURN JUMPDEST PUSH2 0x4C8 PUSH2 0x1484 JUMP JUMPDEST PUSH1 0x40 MLOAD PUSH2 0x4D5 SWAP2 SWAP1 PUSH2 0x26FB JUMP JUMPDEST PUSH1 0x40 MLOAD DUP1 SWAP2 SUB SWAP1 RETURN JUMPDEST PUSH2 0x4F8 PUSH1 0x4 DUP1 CALLDATASIZE SUB DUP2 ADD SWAP1 PUSH2 0x4F3 SWAP2 SWAP1 PUSH2 0x20BA JUMP JUMPDEST PUSH2 0x148A JUMP JUMPDEST STOP JUMPDEST PUSH2 0x502 PUSH2 0x1519 JUMP JUMPDEST PUSH1 0x40 MLOAD PUSH2 0x50F SWAP2 SWAP1 PUSH2 0x26FB JUMP JUMPDEST PUSH1 0x40 MLOAD DUP1 SWAP2 SUB SWAP1 RETURN JUMPDEST PUSH2 0x520 PUSH2 0x15A1 JUMP JUMPDEST PUSH1 0x40 MLOAD PUSH2 0x52D SWAP2 SWAP1 PUSH2 0x24DE JUMP JUMPDEST PUSH1 0x40 MLOAD DUP1 SWAP2 SUB SWAP1 RETURN JUMPDEST PUSH2 0x53E PUSH2 0x15C7 JUMP JUMPDEST PUSH1 0x40 MLOAD PUSH2 0x54B SWAP2 SWAP1 PUSH2 0x26FB JUMP JUMPDEST PUSH1 0x40 MLOAD DUP1 SWAP2 SUB SWAP1 RETURN JUMPDEST PUSH2 0x55C PUSH2 0x15CD JUMP JUMPDEST STOP JUMPDEST PUSH2 0x566 PUSH2 0x161F JUMP JUMPDEST PUSH1 0x40 MLOAD PUSH2 0x573 SWAP2 SWAP1 PUSH2 0x26FB JUMP JUMPDEST PUSH1 0x40 MLOAD DUP1 SWAP2 SUB SWAP1 RETURN JUMPDEST PUSH2 0x596 PUSH1 0x4 DUP1 CALLDATASIZE SUB DUP2 ADD SWAP1 PUSH2 0x591 SWAP2 SWAP1 PUSH2 0x1F98 JUMP JUMPDEST PUSH2 0x1625 JUMP JUMPDEST STOP JUMPDEST PUSH1 0x0 PUSH2 0x6A9 PUSH1 0xC PUSH1 0x0 DUP5 PUSH20 0xFFFFFFFFFFFFFFFFFFFFFFFFFFFFFFFFFFFFFFFF AND PUSH20 0xFFFFFFFFFFFFFFFFFFFFFFFFFFFFFFFFFFFFFFFF AND DUP2 MSTORE PUSH1 0x20 ADD SWAP1 DUP2 MSTORE PUSH1 0x20 ADD PUSH1 0x0 KECCAK256 SLOAD PUSH2 0x69B PUSH1 0x9 SLOAD PUSH2 0x68D PUSH2 0x63F PUSH1 0xB PUSH1 0x0 DUP10 PUSH20 0xFFFFFFFFFFFFFFFFFFFFFFFFFFFFFFFFFFFFFFFF AND PUSH20 0xFFFFFFFFFFFFFFFFFFFFFFFFFFFFFFFFFFFFFFFF AND DUP2 MSTORE PUSH1 0x20 ADD SWAP1 DUP2 MSTORE PUSH1 0x20 ADD PUSH1 0x0 KECCAK256 SLOAD PUSH2 0x631 PUSH2 0x1519 JUMP JUMPDEST PUSH2 0x17B8 SWAP1 SWAP2 SWAP1 PUSH4 0xFFFFFFFF AND JUMP JUMPDEST PUSH1 0xE PUSH1 0x0 DUP10 PUSH20 0xFFFFFFFFFFFFFFFFFFFFFFFFFFFFFFFFFFFFFFFF AND PUSH20 0xFFFFFFFFFFFFFFFFFFFFFFFFFFFFFFFFFFFFFFFF AND DUP2 MSTORE PUSH1 0x20 ADD SWAP1 DUP2 MSTORE PUSH1 0x20 ADD PUSH1 0x0 KECCAK256 SLOAD PUSH2 0x16F3 SWAP1 SWAP2 SWAP1 PUSH4 0xFFFFFFFF AND JUMP JUMPDEST PUSH2 0x16A9 SWAP1 SWAP2 SWAP1 PUSH4 0xFFFFFFFF AND JUMP JUMPDEST PUSH2 0x1802 SWAP1 SWAP2 SWAP1 PUSH4 0xFFFFFFFF AND JUMP JUMPDEST SWAP1 POP SWAP2 SWAP1 POP JUMP JUMPDEST PUSH1 0xC PUSH1 0x20 MSTORE DUP1 PUSH1 0x0 MSTORE PUSH1 0x40 PUSH1 0x0 KECCAK256 PUSH1 0x0 SWAP2 POP SWAP1 POP SLOAD DUP2 JUMP JUMPDEST PUSH1 0x0 PUSH32 0x150B7A023D4804D13E8C85FB27262CB750CF6BA9F9DD3BB30D90F482CEEB4B1F SWAP1 POP SWAP6 SWAP5 POP POP POP POP POP JUMP JUMPDEST PUSH1 0x0 PUSH1 0xD SLOAD SWAP1 POP SWAP1 JUMP JUMPDEST PUSH1 0x0 PUSH2 0x719 PUSH1 0x6 SLOAD PUSH1 0x5 SLOAD PUSH2 0x16F3 SWAP1 SWAP2 SWAP1 PUSH4 0xFFFFFFFF AND JUMP JUMPDEST SWAP1 POP SWAP1 JUMP JUMPDEST PUSH2 0x726 PUSH2 0x1860 JUMP JUMPDEST CALLER PUSH2 0x72F PUSH2 0x1519 JUMP JUMPDEST PUSH1 0x8 DUP2 SWAP1 SSTORE POP PUSH2 0x73D PUSH2 0xFFE JUMP JUMPDEST PUSH1 0x7 DUP2 SWAP1 SSTORE POP PUSH1 0x0 PUSH20 0xFFFFFFFFFFFFFFFFFFFFFFFFFFFFFFFFFFFFFFFF AND DUP2 PUSH20 0xFFFFFFFFFFFFFFFFFFFFFFFFFFFFFFFFFFFFFFFF AND EQ PUSH2 0x80A JUMPI PUSH2 0x780 DUP2 PUSH2 0x598 JUMP JUMPDEST PUSH1 0xC PUSH1 0x0 DUP4 PUSH20 0xFFFFFFFFFFFFFFFFFFFFFFFFFFFFFFFFFFFFFFFF AND PUSH20 0xFFFFFFFFFFFFFFFFFFFFFFFFFFFFFFFFFFFFFFFF AND DUP2 MSTORE PUSH1 0x20 ADD SWAP1 DUP2 MSTORE PUSH1 0x20 ADD PUSH1 0x0 KECCAK256 DUP2 SWAP1 SSTORE POP PUSH1 0x8 SLOAD PUSH1 0xB PUSH1 0x0 DUP4 PUSH20 0xFFFFFFFFFFFFFFFFFFFFFFFFFFFFFFFFFFFFFFFF AND PUSH20 0xFFFFFFFFFFFFFFFFFFFFFFFFFFFFFFFFFFFFFFFF AND DUP2 MSTORE PUSH1 0x20 ADD SWAP1 DUP2 MSTORE PUSH1 0x20 ADD PUSH1 0x0 KECCAK256 DUP2 SWAP1 SSTORE POP JUMPDEST PUSH1 0x0 DUP3 GT PUSH2 0x84D JUMPI PUSH1 0x40 MLOAD PUSH32 0x8C379A000000000000000000000000000000000000000000000000000000000 DUP2 MSTORE PUSH1 0x4 ADD PUSH2 0x844 SWAP1 PUSH2 0x25FB JUMP JUMPDEST PUSH1 0x40 MLOAD DUP1 SWAP2 SUB SWAP1 REVERT JUMPDEST PUSH2 0x862 DUP3 PUSH1 0xD SLOAD PUSH2 0x17B8 SWAP1 SWAP2 SWAP1 PUSH4 0xFFFFFFFF AND JUMP JUMPDEST PUSH1 0xD DUP2 SWAP1 SSTORE POP PUSH2 0x8BA DUP3 PUSH1 0xE PUSH1 0x0 CALLER PUSH20 0xFFFFFFFFFFFFFFFFFFFFFFFFFFFFFFFFFFFFFFFF AND PUSH20 0xFFFFFFFFFFFFFFFFFFFFFFFFFFFFFFFFFFFFFFFF AND DUP2 MSTORE PUSH1 0x20 ADD SWAP1 DUP2 MSTORE PUSH1 0x20 ADD PUSH1 0x0 KECCAK256 SLOAD PUSH2 0x17B8 SWAP1 SWAP2 SWAP1 PUSH4 0xFFFFFFFF AND JUMP JUMPDEST PUSH1 0xE PUSH1 0x0 CALLER PUSH20 0xFFFFFFFFFFFFFFFFFFFFFFFFFFFFFFFFFFFFFFFF AND PUSH20 0xFFFFFFFFFFFFFFFFFFFFFFFFFFFFFFFFFFFFFFFF AND DUP2 MSTORE PUSH1 0x20 ADD SWAP1 DUP2 MSTORE PUSH1 0x20 ADD PUSH1 0x0 KECCAK256 DUP2 SWAP1 SSTORE POP PUSH2 0x94A CALLER DUP4 PUSH1 0x3 PUSH1 0x0 SWAP1 SLOAD SWAP1 PUSH2 0x100 EXP SWAP1 DIV PUSH20 0xFFFFFFFFFFFFFFFFFFFFFFFFFFFFFFFFFFFFFFFF AND PUSH20 0xFFFFFFFFFFFFFFFFFFFFFFFFFFFFFFFFFFFFFFFF AND PUSH2 0x18B0 SWAP1 SWAP3 SWAP2 SWAP1 PUSH4 0xFFFFFFFF AND JUMP JUMPDEST CALLER PUSH20 0xFFFFFFFFFFFFFFFFFFFFFFFFFFFFFFFFFFFFFFFF AND PUSH32 0x7084F5476618D8E60B11EF0D7D3F06914655ADB8793E28FF7F018D4C76D505D5 DUP4 PUSH1 0x40 MLOAD PUSH2 0x990 SWAP2 SWAP1 PUSH2 0x26FB JUMP JUMPDEST PUSH1 0x40 MLOAD DUP1 SWAP2 SUB SWAP1 LOG2 POP PUSH2 0x9A1 PUSH2 0x1936 JUMP JUMPDEST POP JUMP JUMPDEST PUSH1 0x0 DUP1 DUP3 EQ ISZERO PUSH2 0x9B7 JUMPI PUSH1 0x1 SWAP1 POP PUSH2 0xA35 JUMP JUMPDEST PUSH1 0x1 DUP3 EQ ISZERO PUSH2 0x9C8 JUMPI DUP3 SWAP1 POP PUSH2 0xA35 JUMP JUMPDEST PUSH1 0x0 PUSH2 0x9E7 DUP5 PUSH2 0x9E2 PUSH1 0x2 DUP7 PUSH2 0x16A9 SWAP1 SWAP2 SWAP1 PUSH4 0xFFFFFFFF AND JUMP JUMPDEST PUSH2 0x9A4 JUMP JUMPDEST SWAP1 POP PUSH2 0x9FC DUP2 DUP3 PUSH2 0x16F3 SWAP1 SWAP2 SWAP1 PUSH4 0xFFFFFFFF AND JUMP JUMPDEST SWAP1 POP PUSH1 0x1 PUSH2 0xA14 PUSH1 0x2 DUP6 PUSH2 0x176E SWAP1 SWAP2 SWAP1 PUSH4 0xFFFFFFFF AND JUMP JUMPDEST EQ ISZERO PUSH2 0xA30 JUMPI PUSH2 0xA2D DUP5 DUP3 PUSH2 0x16F3 SWAP1 SWAP2 SWAP1 PUSH4 0xFFFFFFFF AND JUMP JUMPDEST SWAP1 POP JUMPDEST DUP1 SWAP2 POP POP JUMPDEST SWAP3 SWAP2 POP POP JUMP JUMPDEST PUSH1 0x6 SLOAD DUP2 JUMP JUMPDEST PUSH2 0xA49 PUSH2 0x1940 JUMP JUMPDEST PUSH1 0x0 PUSH2 0xA53 PUSH2 0x1519 JUMP JUMPDEST PUSH1 0x8 DUP2 SWAP1 SSTORE POP PUSH2 0xA61 PUSH2 0xFFE JUMP JUMPDEST PUSH1 0x7 DUP2 SWAP1 SSTORE POP PUSH1 0x0 PUSH20 0xFFFFFFFFFFFFFFFFFFFFFFFFFFFFFFFFFFFFFFFF AND DUP2 PUSH20 0xFFFFFFFFFFFFFFFFFFFFFFFFFFFFFFFFFFFFFFFF AND EQ PUSH2 0xB2E JUMPI PUSH2 0xAA4 DUP2 PUSH2 0x598 JUMP JUMPDEST PUSH1 0xC PUSH1 0x0 DUP4 PUSH20 0xFFFFFFFFFFFFFFFFFFFFFFFFFFFFFFFFFFFFFFFF AND PUSH20 0xFFFFFFFFFFFFFFFFFFFFFFFFFFFFFFFFFFFFFFFF AND DUP2 MSTORE PUSH1 0x20 ADD SWAP1 DUP2 MSTORE PUSH1 0x20 ADD PUSH1 0x0 KECCAK256 DUP2 SWAP1 SSTORE POP PUSH1 0x8 SLOAD PUSH1 0xB PUSH1 0x0 DUP4 PUSH20 0xFFFFFFFFFFFFFFFFFFFFFFFFFFFFFFFFFFFFFFFF AND PUSH20 0xFFFFFFFFFFFFFFFFFFFFFFFFFFFFFFFFFFFFFFFF AND DUP2 MSTORE PUSH1 0x20 ADD SWAP1 DUP2 MSTORE PUSH1 0x20 ADD PUSH1 0x0 KECCAK256 DUP2 SWAP1 SSTORE POP JUMPDEST PUSH1 0x4 SLOAD TIMESTAMP LT PUSH2 0xB57 JUMPI PUSH2 0xB4C PUSH1 0x6 SLOAD DUP4 PUSH2 0x16A9 SWAP1 SWAP2 SWAP1 PUSH4 0xFFFFFFFF AND JUMP JUMPDEST PUSH1 0x5 DUP2 SWAP1 SSTORE POP PUSH2 0xBB9 JUMP JUMPDEST PUSH1 0x0 PUSH2 0xB6E TIMESTAMP PUSH1 0x4 SLOAD PUSH2 0x17B8 SWAP1 SWAP2 SWAP1 PUSH4 0xFFFFFFFF AND JUMP JUMPDEST SWAP1 POP PUSH1 0x0 PUSH2 0xB87 PUSH1 0x5 SLOAD DUP4 PUSH2 0x16F3 SWAP1 SWAP2 SWAP1 PUSH4 0xFFFFFFFF AND JUMP JUMPDEST SWAP1 POP PUSH2 0xBB0 PUSH1 0x6 SLOAD PUSH2 0xBA2 DUP4 DUP8 PUSH2 0x1802 SWAP1 SWAP2 SWAP1 PUSH4 0xFFFFFFFF AND JUMP JUMPDEST PUSH2 0x16A9 SWAP1 SWAP2 SWAP1 PUSH4 0xFFFFFFFF AND JUMP JUMPDEST PUSH1 0x5 DUP2 SWAP1 SSTORE POP POP POP JUMPDEST PUSH1 0x0 PUSH1 0x2 PUSH1 0x0 SWAP1 SLOAD SWAP1 PUSH2 0x100 EXP SWAP1 DIV PUSH20 0xFFFFFFFFFFFFFFFFFFFFFFFFFFFFFFFFFFFFFFFF AND PUSH20 0xFFFFFFFFFFFFFFFFFFFFFFFFFFFFFFFFFFFFFFFF AND PUSH4 0x70A08231 ADDRESS PUSH1 0x40 MLOAD DUP3 PUSH4 0xFFFFFFFF AND PUSH1 0xE0 SHL DUP2 MSTORE PUSH1 0x4 ADD PUSH2 0xC16 SWAP2 SWAP1 PUSH2 0x242D JUMP JUMPDEST PUSH1 0x20 PUSH1 0x40 MLOAD DUP1 DUP4 SUB DUP2 DUP7 DUP1 EXTCODESIZE ISZERO DUP1 ISZERO PUSH2 0xC2E JUMPI PUSH1 0x0 DUP1 REVERT JUMPDEST POP GAS STATICCALL ISZERO DUP1 ISZERO PUSH2 0xC42 JUMPI RETURNDATASIZE PUSH1 0x0 DUP1 RETURNDATACOPY RETURNDATASIZE PUSH1 0x0 REVERT JUMPDEST POP POP POP POP PUSH1 0x40 MLOAD RETURNDATASIZE PUSH1 0x1F NOT PUSH1 0x1F DUP3 ADD AND DUP3 ADD DUP1 PUSH1 0x40 MSTORE POP DUP2 ADD SWAP1 PUSH2 0xC66 SWAP2 SWAP1 PUSH2 0x20E7 JUMP JUMPDEST SWAP1 POP PUSH2 0xC7D PUSH1 0x6 SLOAD DUP3 PUSH2 0x16A9 SWAP1 SWAP2 SWAP1 PUSH4 0xFFFFFFFF AND JUMP JUMPDEST PUSH1 0x5 SLOAD GT ISZERO PUSH2 0xCC1 JUMPI PUSH1 0x40 MLOAD PUSH32 0x8C379A000000000000000000000000000000000000000000000000000000000 DUP2 MSTORE PUSH1 0x4 ADD PUSH2 0xCB8 SWAP1 PUSH2 0x267B JUMP JUMPDEST PUSH1 0x40 MLOAD DUP1 SWAP2 SUB SWAP1 REVERT JUMPDEST TIMESTAMP PUSH1 0x7 DUP2 SWAP1 SSTORE POP PUSH2 0xCDD PUSH1 0x6 SLOAD TIMESTAMP PUSH2 0x1802 SWAP1 SWAP2 SWAP1 PUSH4 0xFFFFFFFF AND JUMP JUMPDEST PUSH1 0x4 DUP2 SWAP1 SSTORE POP PUSH32 0xDE88A922E0D3B88B24E9623EFEB464919C6BF9F66857A65E2BFCF2CE87A9433D DUP4 PUSH1 0x40 MLOAD PUSH2 0xD12 SWAP2 SWAP1 PUSH2 0x26FB JUMP JUMPDEST PUSH1 0x40 MLOAD DUP1 SWAP2 SUB SWAP1 LOG1 POP POP POP JUMP JUMPDEST PUSH2 0xD27 PUSH2 0x1860 JUMP JUMPDEST CALLER PUSH2 0xD30 PUSH2 0x1519 JUMP JUMPDEST PUSH1 0x8 DUP2 SWAP1 SSTORE POP PUSH2 0xD3E PUSH2 0xFFE JUMP JUMPDEST PUSH1 0x7 DUP2 SWAP1 SSTORE POP PUSH1 0x0 PUSH20 0xFFFFFFFFFFFFFFFFFFFFFFFFFFFFFFFFFFFFFFFF AND DUP2 PUSH20 0xFFFFFFFFFFFFFFFFFFFFFFFFFFFFFFFFFFFFFFFF AND EQ PUSH2 0xE0B JUMPI PUSH2 0xD81 DUP2 PUSH2 0x598 JUMP JUMPDEST PUSH1 0xC PUSH1 0x0 DUP4 PUSH20 0xFFFFFFFFFFFFFFFFFFFFFFFFFFFFFFFFFFFFFFFF AND PUSH20 0xFFFFFFFFFFFFFFFFFFFFFFFFFFFFFFFFFFFFFFFF AND DUP2 MSTORE PUSH1 0x20 ADD SWAP1 DUP2 MSTORE PUSH1 0x20 ADD PUSH1 0x0 KECCAK256 DUP2 SWAP1 SSTORE POP PUSH1 0x8 SLOAD PUSH1 0xB PUSH1 0x0 DUP4 PUSH20 0xFFFFFFFFFFFFFFFFFFFFFFFFFFFFFFFFFFFFFFFF AND PUSH20 0xFFFFFFFFFFFFFFFFFFFFFFFFFFFFFFFFFFFFFFFF AND DUP2 MSTORE PUSH1 0x20 ADD SWAP1 DUP2 MSTORE PUSH1 0x20 ADD PUSH1 0x0 KECCAK256 DUP2 SWAP1 SSTORE POP JUMPDEST PUSH1 0x0 PUSH1 0xC PUSH1 0x0 CALLER PUSH20 0xFFFFFFFFFFFFFFFFFFFFFFFFFFFFFFFFFFFFFFFF AND PUSH20 0xFFFFFFFFFFFFFFFFFFFFFFFFFFFFFFFFFFFFFFFF AND DUP2 MSTORE PUSH1 0x20 ADD SWAP1 DUP2 MSTORE PUSH1 0x20 ADD PUSH1 0x0 KECCAK256 SLOAD SWAP1 POP PUSH1 0x0 DUP2 GT ISZERO PUSH2 0xF39 JUMPI PUSH1 0x0 PUSH1 0xC PUSH1 0x0 CALLER PUSH20 0xFFFFFFFFFFFFFFFFFFFFFFFFFFFFFFFFFFFFFFFF AND PUSH20 0xFFFFFFFFFFFFFFFFFFFFFFFFFFFFFFFFFFFFFFFF AND DUP2 MSTORE PUSH1 0x20 ADD SWAP1 DUP2 MSTORE PUSH1 0x20 ADD PUSH1 0x0 KECCAK256 DUP2 SWAP1 SSTORE POP PUSH2 0xEEA CALLER DUP3 PUSH1 0x2 PUSH1 0x0 SWAP1 SLOAD SWAP1 PUSH2 0x100 EXP SWAP1 DIV PUSH20 0xFFFFFFFFFFFFFFFFFFFFFFFFFFFFFFFFFFFFFFFF AND PUSH20 0xFFFFFFFFFFFFFFFFFFFFFFFFFFFFFFFFFFFFFFFF AND PUSH2 0x18B0 SWAP1 SWAP3 SWAP2 SWAP1 PUSH4 0xFFFFFFFF AND JUMP JUMPDEST CALLER PUSH20 0xFFFFFFFFFFFFFFFFFFFFFFFFFFFFFFFFFFFFFFFF AND PUSH32 0xE2403640BA68FED3A2F88B7557551D1993F84B99BB10FF833F0CF8DB0C5E0486 DUP3 PUSH1 0x40 MLOAD PUSH2 0xF30 SWAP2 SWAP1 PUSH2 0x26FB JUMP JUMPDEST PUSH1 0x40 MLOAD DUP1 SWAP2 SUB SWAP1 LOG2 JUMPDEST POP POP PUSH2 0xF43 PUSH2 0x1936 JUMP JUMPDEST JUMP JUMPDEST PUSH1 0x0 PUSH1 0x1 PUSH1 0x0 SWAP1 SLOAD SWAP1 PUSH2 0x100 EXP SWAP1 DIV PUSH1 0xFF AND SWAP1 POP SWAP1 JUMP JUMPDEST PUSH1 0x0 PUSH1 0xE PUSH1 0x0 DUP4 PUSH20 0xFFFFFFFFFFFFFFFFFFFFFFFFFFFFFFFFFFFFFFFF AND PUSH20 0xFFFFFFFFFFFFFFFFFFFFFFFFFFFFFFFFFFFFFFFF AND DUP2 MSTORE PUSH1 0x20 ADD SWAP1 DUP2 MSTORE PUSH1 0x20 ADD PUSH1 0x0 KECCAK256 SLOAD SWAP1 POP SWAP2 SWAP1 POP JUMP JUMPDEST PUSH2 0xFAD PUSH2 0x1940 JUMP JUMPDEST PUSH2 0xFB7 PUSH1 0x0 PUSH2 0x19BE JUMP JUMPDEST JUMP JUMPDEST PUSH1 0x3 PUSH1 0x0 SWAP1 SLOAD SWAP1 PUSH2 0x100 EXP SWAP1 DIV PUSH20 0xFFFFFFFFFFFFFFFFFFFFFFFFFFFFFFFFFFFFFFFF AND DUP2 JUMP JUMPDEST PUSH1 0x0 DUP2 DUP4 LT PUSH2 0xFEE JUMPI DUP2 PUSH2 0xFF0 JUMP JUMPDEST DUP3 JUMPDEST SWAP1 POP SWAP3 SWAP2 POP POP JUMP JUMPDEST PUSH1 0x5 SLOAD DUP2 JUMP JUMPDEST PUSH1 0x0 PUSH2 0x100C TIMESTAMP PUSH1 0x4 SLOAD PUSH2 0xFDF JUMP JUMPDEST SWAP1 POP SWAP1 JUMP JUMPDEST PUSH2 0x1019 PUSH2 0x1940 JUMP JUMPDEST PUSH1 0x2 PUSH1 0x0 SWAP1 SLOAD SWAP1 PUSH2 0x100 EXP SWAP1 DIV PUSH20 0xFFFFFFFFFFFFFFFFFFFFFFFFFFFFFFFFFFFFFFFF AND PUSH20 0xFFFFFFFFFFFFFFFFFFFFFFFFFFFFFFFFFFFFFFFF AND DUP3 PUSH20 0xFFFFFFFFFFFFFFFFFFFFFFFFFFFFFFFFFFFFFFFF AND EQ ISZERO PUSH2 0x10AA JUMPI PUSH1 0x40 MLOAD PUSH32 0x8C379A000000000000000000000000000000000000000000000000000000000 DUP2 MSTORE PUSH1 0x4 ADD PUSH2 0x10A1 SWAP1 PUSH2 0x259B JUMP JUMPDEST PUSH1 0x40 MLOAD DUP1 SWAP2 SUB SWAP1 REVERT JUMPDEST PUSH1 0x0 PUSH1 0xD SLOAD EQ PUSH2 0x1146 JUMPI PUSH1 0x3 PUSH1 0x0 SWAP1 SLOAD SWAP1 PUSH2 0x100 EXP SWAP1 DIV PUSH20 0xFFFFFFFFFFFFFFFFFFFFFFFFFFFFFFFFFFFFFFFF AND PUSH20 0xFFFFFFFFFFFFFFFFFFFFFFFFFFFFFFFFFFFFFFFF AND DUP3 PUSH20 0xFFFFFFFFFFFFFFFFFFFFFFFFFFFFFFFFFFFFFFFF AND EQ ISZERO PUSH2 0x1145 JUMPI PUSH1 0x40 MLOAD PUSH32 0x8C379A000000000000000000000000000000000000000000000000000000000 DUP2 MSTORE PUSH1 0x4 ADD PUSH2 0x113C SWAP1 PUSH2 0x265B JUMP JUMPDEST PUSH1 0x40 MLOAD DUP1 SWAP2 SUB SWAP1 REVERT JUMPDEST JUMPDEST PUSH2 0x1171 CALLER DUP3 DUP5 PUSH20 0xFFFFFFFFFFFFFFFFFFFFFFFFFFFFFFFFFFFFFFFF AND PUSH2 0x18B0 SWAP1 SWAP3 SWAP2 SWAP1 PUSH4 0xFFFFFFFF AND JUMP JUMPDEST PUSH32 0x8C1256B8896378CD5044F80C202F9772B9D77DC85C8A6EB51967210B09BFAA28 DUP3 DUP3 PUSH1 0x40 MLOAD PUSH2 0x11A2 SWAP3 SWAP2 SWAP1 PUSH2 0x247F JUMP JUMPDEST PUSH1 0x40 MLOAD DUP1 SWAP2 SUB SWAP1 LOG1 POP POP JUMP JUMPDEST PUSH1 0xB PUSH1 0x20 MSTORE DUP1 PUSH1 0x0 MSTORE PUSH1 0x40 PUSH1 0x0 KECCAK256 PUSH1 0x0 SWAP2 POP SWAP1 POP SLOAD DUP2 JUMP JUMPDEST PUSH1 0x0 PUSH1 0x1 DUP1 SLOAD SWAP1 PUSH2 0x100 EXP SWAP1 DIV PUSH20 0xFFFFFFFFFFFFFFFFFFFFFFFFFFFFFFFFFFFFFFFF AND SWAP1 POP SWAP1 JUMP JUMPDEST PUSH2 0x11F6 PUSH2 0x1860 JUMP JUMPDEST PUSH2 0x11FE PUSH2 0x1A81 JUMP JUMPDEST CALLER PUSH2 0x1207 PUSH2 0x1519 JUMP JUMPDEST PUSH1 0x8 DUP2 SWAP1 SSTORE POP PUSH2 0x1215 PUSH2 0xFFE JUMP JUMPDEST PUSH1 0x7 DUP2 SWAP1 SSTORE POP PUSH1 0x0 PUSH20 0xFFFFFFFFFFFFFFFFFFFFFFFFFFFFFFFFFFFFFFFF AND DUP2 PUSH20 0xFFFFFFFFFFFFFFFFFFFFFFFFFFFFFFFFFFFFFFFF AND EQ PUSH2 0x12E2 JUMPI PUSH2 0x1258 DUP2 PUSH2 0x598 JUMP JUMPDEST PUSH1 0xC PUSH1 0x0 DUP4 PUSH20 0xFFFFFFFFFFFFFFFFFFFFFFFFFFFFFFFFFFFFFFFF AND PUSH20 0xFFFFFFFFFFFFFFFFFFFFFFFFFFFFFFFFFFFFFFFF AND DUP2 MSTORE PUSH1 0x20 ADD SWAP1 DUP2 MSTORE PUSH1 0x20 ADD PUSH1 0x0 KECCAK256 DUP2 SWAP1 SSTORE POP PUSH1 0x8 SLOAD PUSH1 0xB PUSH1 0x0 DUP4 PUSH20 0xFFFFFFFFFFFFFFFFFFFFFFFFFFFFFFFFFFFFFFFF AND PUSH20 0xFFFFFFFFFFFFFFFFFFFFFFFFFFFFFFFFFFFFFFFF AND DUP2 MSTORE PUSH1 0x20 ADD SWAP1 DUP2 MSTORE PUSH1 0x20 ADD PUSH1 0x0 KECCAK256 DUP2 SWAP1 SSTORE POP JUMPDEST PUSH1 0x0 DUP3 GT PUSH2 0x1325 JUMPI PUSH1 0x40 MLOAD PUSH32 0x8C379A000000000000000000000000000000000000000000000000000000000 DUP2 MSTORE PUSH1 0x4 ADD PUSH2 0x131C SWAP1 PUSH2 0x255B JUMP JUMPDEST PUSH1 0x40 MLOAD DUP1 SWAP2 SUB SWAP1 REVERT JUMPDEST PUSH2 0x133A DUP3 PUSH1 0xD SLOAD PUSH2 0x1802 SWAP1 SWAP2 SWAP1 PUSH4 0xFFFFFFFF AND JUMP JUMPDEST PUSH1 0xD DUP2 SWAP1 SSTORE POP PUSH2 0x1392 DUP3 PUSH1 0xE PUSH1 0x0 CALLER PUSH20 0xFFFFFFFFFFFFFFFFFFFFFFFFFFFFFFFFFFFFFFFF AND PUSH20 0xFFFFFFFFFFFFFFFFFFFFFFFFFFFFFFFFFFFFFFFF AND DUP2 MSTORE PUSH1 0x20 ADD SWAP1 DUP2 MSTORE PUSH1 0x20 ADD PUSH1 0x0 KECCAK256 SLOAD PUSH2 0x1802 SWAP1 SWAP2 SWAP1 PUSH4 0xFFFFFFFF AND JUMP JUMPDEST PUSH1 0xE PUSH1 0x0 CALLER PUSH20 0xFFFFFFFFFFFFFFFFFFFFFFFFFFFFFFFFFFFFFFFF AND PUSH20 0xFFFFFFFFFFFFFFFFFFFFFFFFFFFFFFFFFFFFFFFF AND DUP2 MSTORE PUSH1 0x20 ADD SWAP1 DUP2 MSTORE PUSH1 0x20 ADD PUSH1 0x0 KECCAK256 DUP2 SWAP1 SSTORE POP PUSH2 0x1424 CALLER ADDRESS DUP5 PUSH1 0x3 PUSH1 0x0 SWAP1 SLOAD SWAP1 PUSH2 0x100 EXP SWAP1 DIV PUSH20 0xFFFFFFFFFFFFFFFFFFFFFFFFFFFFFFFFFFFFFFFF AND PUSH20 0xFFFFFFFFFFFFFFFFFFFFFFFFFFFFFFFFFFFFFFFF AND PUSH2 0x1ACB SWAP1 SWAP4 SWAP3 SWAP2 SWAP1 PUSH4 0xFFFFFFFF AND JUMP JUMPDEST CALLER PUSH20 0xFFFFFFFFFFFFFFFFFFFFFFFFFFFFFFFFFFFFFFFF AND PUSH32 0x9E71BC8EEA02A63969F509818F2DAFB9254532904319F9DBDA79B67BD34A5F3D DUP4 PUSH1 0x40 MLOAD PUSH2 0x146A SWAP2 SWAP1 PUSH2 0x26FB JUMP JUMPDEST PUSH1 0x40 MLOAD DUP1 SWAP2 SUB SWAP1 LOG2 POP PUSH2 0x147B PUSH2 0x1936 JUMP JUMPDEST POP JUMP JUMPDEST PUSH1 0x9 SLOAD DUP2 JUMP JUMPDEST PUSH1 0x7 SLOAD DUP2 JUMP JUMPDEST PUSH2 0x1492 PUSH2 0x1940 JUMP JUMPDEST PUSH1 0x4 SLOAD TIMESTAMP GT PUSH2 0x14D6 JUMPI PUSH1 0x40 MLOAD PUSH32 0x8C379A000000000000000000000000000000000000000000000000000000000 DUP2 MSTORE PUSH1 0x4 ADD PUSH2 0x14CD SWAP1 PUSH2 0x251B JUMP JUMPDEST PUSH1 0x40 MLOAD DUP1 SWAP2 SUB SWAP1 REVERT JUMPDEST DUP1 PUSH1 0x6 DUP2 SWAP1 SSTORE POP PUSH32 0xFB46CA5A5E06D4540D6387B930A7C978BCE0DB5F449EC6B3F5D07C6E1D44F2D3 PUSH1 0x6 SLOAD PUSH1 0x40 MLOAD PUSH2 0x150E SWAP2 SWAP1 PUSH2 0x26FB JUMP JUMPDEST PUSH1 0x40 MLOAD DUP1 SWAP2 SUB SWAP1 LOG1 POP JUMP JUMPDEST PUSH1 0x0 DUP1 PUSH1 0xD SLOAD EQ ISZERO PUSH2 0x152F JUMPI PUSH1 0x8 SLOAD SWAP1 POP PUSH2 0x159E JUMP JUMPDEST PUSH2 0x159B PUSH2 0x158A PUSH1 0xD SLOAD PUSH2 0x157C PUSH1 0x9 SLOAD PUSH2 0x156E PUSH1 0x5 SLOAD PUSH2 0x1560 PUSH1 0x7 SLOAD PUSH2 0x1552 PUSH2 0xFFE JUMP JUMPDEST PUSH2 0x17B8 SWAP1 SWAP2 SWAP1 PUSH4 0xFFFFFFFF AND JUMP JUMPDEST PUSH2 0x16F3 SWAP1 SWAP2 SWAP1 PUSH4 0xFFFFFFFF AND JUMP JUMPDEST PUSH2 0x16F3 SWAP1 SWAP2 SWAP1 PUSH4 0xFFFFFFFF AND JUMP JUMPDEST PUSH2 0x16A9 SWAP1 SWAP2 SWAP1 PUSH4 0xFFFFFFFF AND JUMP JUMPDEST PUSH1 0x8 SLOAD PUSH2 0x1802 SWAP1 SWAP2 SWAP1 PUSH4 0xFFFFFFFF AND JUMP JUMPDEST SWAP1 POP JUMPDEST SWAP1 JUMP JUMPDEST PUSH1 0x2 PUSH1 0x0 SWAP1 SLOAD SWAP1 PUSH2 0x100 EXP SWAP1 DIV PUSH20 0xFFFFFFFFFFFFFFFFFFFFFFFFFFFFFFFFFFFFFFFF AND DUP2 JUMP JUMPDEST PUSH1 0x8 SLOAD DUP2 JUMP JUMPDEST PUSH2 0x1615 PUSH1 0xE PUSH1 0x0 CALLER PUSH20 0xFFFFFFFFFFFFFFFFFFFFFFFFFFFFFFFFFFFFFFFF AND PUSH20 0xFFFFFFFFFFFFFFFFFFFFFFFFFFFFFFFFFFFFFFFF AND DUP2 MSTORE PUSH1 0x20 ADD SWAP1 DUP2 MSTORE PUSH1 0x20 ADD PUSH1 0x0 KECCAK256 SLOAD PUSH2 0x71E JUMP JUMPDEST PUSH2 0x161D PUSH2 0xD1F JUMP JUMPDEST JUMP JUMPDEST PUSH1 0x4 SLOAD DUP2 JUMP JUMPDEST PUSH2 0x162D PUSH2 0x1940 JUMP JUMPDEST PUSH1 0x0 PUSH20 0xFFFFFFFFFFFFFFFFFFFFFFFFFFFFFFFFFFFFFFFF AND DUP2 PUSH20 0xFFFFFFFFFFFFFFFFFFFFFFFFFFFFFFFFFFFFFFFF AND EQ ISZERO PUSH2 0x169D JUMPI PUSH1 0x40 MLOAD PUSH32 0x8C379A000000000000000000000000000000000000000000000000000000000 DUP2 MSTORE PUSH1 0x4 ADD PUSH2 0x1694 SWAP1 PUSH2 0x253B JUMP JUMPDEST PUSH1 0x40 MLOAD DUP1 SWAP2 SUB SWAP1 REVERT JUMPDEST PUSH2 0x16A6 DUP2 PUSH2 0x19BE JUMP JUMPDEST POP JUMP JUMPDEST PUSH1 0x0 PUSH2 0x16EB DUP4 DUP4 PUSH1 0x40 MLOAD DUP1 PUSH1 0x40 ADD PUSH1 0x40 MSTORE DUP1 PUSH1 0x1A DUP2 MSTORE PUSH1 0x20 ADD PUSH32 0x536166654D6174683A206469766973696F6E206279207A65726F000000000000 DUP2 MSTORE POP PUSH2 0x1B54 JUMP JUMPDEST SWAP1 POP SWAP3 SWAP2 POP POP JUMP JUMPDEST PUSH1 0x0 DUP1 DUP4 EQ ISZERO PUSH2 0x1706 JUMPI PUSH1 0x0 SWAP1 POP PUSH2 0x1768 JUMP JUMPDEST PUSH1 0x0 DUP3 DUP5 PUSH2 0x1714 SWAP2 SWAP1 PUSH2 0x27CF JUMP JUMPDEST SWAP1 POP DUP3 DUP5 DUP3 PUSH2 0x1723 SWAP2 SWAP1 PUSH2 0x279E JUMP JUMPDEST EQ PUSH2 0x1763 JUMPI PUSH1 0x40 MLOAD PUSH32 0x8C379A000000000000000000000000000000000000000000000000000000000 DUP2 MSTORE PUSH1 0x4 ADD PUSH2 0x175A SWAP1 PUSH2 0x261B JUMP JUMPDEST PUSH1 0x40 MLOAD DUP1 SWAP2 SUB SWAP1 REVERT JUMPDEST DUP1 SWAP2 POP POP JUMPDEST SWAP3 SWAP2 POP POP JUMP JUMPDEST PUSH1 0x0 PUSH2 0x17B0 DUP4 DUP4 PUSH1 0x40 MLOAD DUP1 PUSH1 0x40 ADD PUSH1 0x40 MSTORE DUP1 PUSH1 0x18 DUP2 MSTORE PUSH1 0x20 ADD PUSH32 0x536166654D6174683A206D6F64756C6F206279207A65726F0000000000000000 DUP2 MSTORE POP PUSH2 0x1BB7 JUMP JUMPDEST SWAP1 POP SWAP3 SWAP2 POP POP JUMP JUMPDEST PUSH1 0x0 PUSH2 0x17FA DUP4 DUP4 PUSH1 0x40 MLOAD DUP1 PUSH1 0x40 ADD PUSH1 0x40 MSTORE DUP1 PUSH1 0x1E DUP2 MSTORE PUSH1 0x20 ADD PUSH32 0x536166654D6174683A207375627472616374696F6E206F766572666C6F770000 DUP2 MSTORE POP PUSH2 0x1C15 JUMP JUMPDEST SWAP1 POP SWAP3 SWAP2 POP POP JUMP JUMPDEST PUSH1 0x0 DUP1 DUP3 DUP5 PUSH2 0x1811 SWAP2 SWAP1 PUSH2 0x2748 JUMP JUMPDEST SWAP1 POP DUP4 DUP2 LT ISZERO PUSH2 0x1856 JUMPI PUSH1 0x40 MLOAD PUSH32 0x8C379A000000000000000000000000000000000000000000000000000000000 DUP2 MSTORE PUSH1 0x4 ADD PUSH2 0x184D SWAP1 PUSH2 0x257B JUMP JUMPDEST PUSH1 0x40 MLOAD DUP1 SWAP2 SUB SWAP1 REVERT JUMPDEST DUP1 SWAP2 POP POP SWAP3 SWAP2 POP POP JUMP JUMPDEST PUSH1 0x2 PUSH1 0x0 SLOAD EQ ISZERO PUSH2 0x18A6 JUMPI PUSH1 0x40 MLOAD PUSH32 0x8C379A000000000000000000000000000000000000000000000000000000000 DUP2 MSTORE PUSH1 0x4 ADD PUSH2 0x189D SWAP1 PUSH2 0x26DB JUMP JUMPDEST PUSH1 0x40 MLOAD DUP1 SWAP2 SUB SWAP1 REVERT JUMPDEST PUSH1 0x2 PUSH1 0x0 DUP2 SWAP1 SSTORE POP JUMP JUMPDEST PUSH2 0x1931 DUP4 PUSH4 0xA9059CBB PUSH1 0xE0 SHL DUP5 DUP5 PUSH1 0x40 MLOAD PUSH1 0x24 ADD PUSH2 0x18CF SWAP3 SWAP2 SWAP1 PUSH2 0x247F JUMP JUMPDEST PUSH1 0x40 MLOAD PUSH1 0x20 DUP2 DUP4 SUB SUB DUP2 MSTORE SWAP1 PUSH1 0x40 MSTORE SWAP1 PUSH28 0xFFFFFFFFFFFFFFFFFFFFFFFFFFFFFFFFFFFFFFFFFFFFFFFFFFFFFFFF NOT AND PUSH1 0x20 DUP3 ADD DUP1 MLOAD PUSH28 0xFFFFFFFFFFFFFFFFFFFFFFFFFFFFFFFFFFFFFFFFFFFFFFFFFFFFFFFF DUP4 DUP2 DUP4 AND OR DUP4 MSTORE POP POP POP POP PUSH2 0x1C79 JUMP JUMPDEST POP POP POP JUMP JUMPDEST PUSH1 0x1 PUSH1 0x0 DUP2 SWAP1 SSTORE POP JUMP JUMPDEST PUSH2 0x1948 PUSH2 0x1D40 JUMP JUMPDEST PUSH20 0xFFFFFFFFFFFFFFFFFFFFFFFFFFFFFFFFFFFFFFFF AND PUSH2 0x1966 PUSH2 0x11C6 JUMP JUMPDEST PUSH20 0xFFFFFFFFFFFFFFFFFFFFFFFFFFFFFFFFFFFFFFFF AND EQ PUSH2 0x19BC JUMPI PUSH1 0x40 MLOAD PUSH32 0x8C379A000000000000000000000000000000000000000000000000000000000 DUP2 MSTORE PUSH1 0x4 ADD PUSH2 0x19B3 SWAP1 PUSH2 0x263B JUMP JUMPDEST PUSH1 0x40 MLOAD DUP1 SWAP2 SUB SWAP1 REVERT JUMPDEST JUMP JUMPDEST PUSH1 0x0 PUSH1 0x1 DUP1 SLOAD SWAP1 PUSH2 0x100 EXP SWAP1 DIV PUSH20 0xFFFFFFFFFFFFFFFFFFFFFFFFFFFFFFFFFFFFFFFF AND SWAP1 POP DUP2 PUSH1 0x1 DUP1 PUSH2 0x100 EXP DUP2 SLOAD DUP2 PUSH20 0xFFFFFFFFFFFFFFFFFFFFFFFFFFFFFFFFFFFFFFFF MUL NOT AND SWAP1 DUP4 PUSH20 0xFFFFFFFFFFFFFFFFFFFFFFFFFFFFFFFFFFFFFFFF AND MUL OR SWAP1 SSTORE POP DUP2 PUSH20 0xFFFFFFFFFFFFFFFFFFFFFFFFFFFFFFFFFFFFFFFF AND DUP2 PUSH20 0xFFFFFFFFFFFFFFFFFFFFFFFFFFFFFFFFFFFFFFFF AND PUSH32 0x8BE0079C531659141344CD1FD0A4F28419497F9722A3DAAFE3B4186F6B6457E0 PUSH1 0x40 MLOAD PUSH1 0x40 MLOAD DUP1 SWAP2 SUB SWAP1 LOG3 POP POP JUMP JUMPDEST PUSH2 0x1A89 PUSH2 0xF45 JUMP JUMPDEST ISZERO PUSH2 0x1AC9 JUMPI PUSH1 0x40 MLOAD PUSH32 0x8C379A000000000000000000000000000000000000000000000000000000000 DUP2 MSTORE PUSH1 0x4 ADD PUSH2 0x1AC0 SWAP1 PUSH2 0x25DB JUMP JUMPDEST PUSH1 0x40 MLOAD DUP1 SWAP2 SUB SWAP1 REVERT JUMPDEST JUMP JUMPDEST PUSH2 0x1B4E DUP5 PUSH4 0x23B872DD PUSH1 0xE0 SHL DUP6 DUP6 DUP6 PUSH1 0x40 MLOAD PUSH1 0x24 ADD PUSH2 0x1AEC SWAP4 SWAP3 SWAP2 SWAP1 PUSH2 0x2448 JUMP JUMPDEST PUSH1 0x40 MLOAD PUSH1 0x20 DUP2 DUP4 SUB SUB DUP2 MSTORE SWAP1 PUSH1 0x40 MSTORE SWAP1 PUSH28 0xFFFFFFFFFFFFFFFFFFFFFFFFFFFFFFFFFFFFFFFFFFFFFFFFFFFFFFFF NOT AND PUSH1 0x20 DUP3 ADD DUP1 MLOAD PUSH28 0xFFFFFFFFFFFFFFFFFFFFFFFFFFFFFFFFFFFFFFFFFFFFFFFFFFFFFFFF DUP4 DUP2 DUP4 AND OR DUP4 MSTORE POP POP POP POP PUSH2 0x1C79 JUMP JUMPDEST POP POP POP POP JUMP JUMPDEST PUSH1 0x0 DUP1 DUP4 GT DUP3 SWAP1 PUSH2 0x1B9B JUMPI PUSH1 0x40 MLOAD PUSH32 0x8C379A000000000000000000000000000000000000000000000000000000000 DUP2 MSTORE PUSH1 0x4 ADD PUSH2 0x1B92 SWAP2 SWAP1 PUSH2 0x24F9 JUMP JUMPDEST PUSH1 0x40 MLOAD DUP1 SWAP2 SUB SWAP1 REVERT JUMPDEST POP PUSH1 0x0 DUP4 DUP6 PUSH2 0x1BAA SWAP2 SWAP1 PUSH2 0x279E JUMP JUMPDEST SWAP1 POP DUP1 SWAP2 POP POP SWAP4 SWAP3 POP POP POP JUMP JUMPDEST PUSH1 0x0 DUP1 DUP4 EQ ISZERO DUP3 SWAP1 PUSH2 0x1BFF JUMPI PUSH1 0x40 MLOAD PUSH32 0x8C379A000000000000000000000000000000000000000000000000000000000 DUP2 MSTORE PUSH1 0x4 ADD PUSH2 0x1BF6 SWAP2 SWAP1 PUSH2 0x24F9 JUMP JUMPDEST PUSH1 0x40 MLOAD DUP1 SWAP2 SUB SWAP1 REVERT JUMPDEST POP DUP3 DUP5 PUSH2 0x1C0C SWAP2 SWAP1 PUSH2 0x293A JUMP JUMPDEST SWAP1 POP SWAP4 SWAP3 POP POP POP JUMP JUMPDEST PUSH1 0x0 DUP4 DUP4 GT ISZERO DUP3 SWAP1 PUSH2 0x1C5D JUMPI PUSH1 0x40 MLOAD PUSH32 0x8C379A000000000000000000000000000000000000000000000000000000000 DUP2 MSTORE PUSH1 0x4 ADD PUSH2 0x1C54 SWAP2 SWAP1 PUSH2 0x24F9 JUMP JUMPDEST PUSH1 0x40 MLOAD DUP1 SWAP2 SUB SWAP1 REVERT JUMPDEST POP PUSH1 0x0 DUP4 DUP6 PUSH2 0x1C6C SWAP2 SWAP1 PUSH2 0x2829 JUMP JUMPDEST SWAP1 POP DUP1 SWAP2 POP POP SWAP4 SWAP3 POP POP POP JUMP JUMPDEST PUSH1 0x0 PUSH2 0x1CDB DUP3 PUSH1 0x40 MLOAD DUP1 PUSH1 0x40 ADD PUSH1 0x40 MSTORE DUP1 PUSH1 0x20 DUP2 MSTORE PUSH1 0x20 ADD PUSH32 0x5361666545524332303A206C6F772D6C6576656C2063616C6C206661696C6564 DUP2 MSTORE POP DUP6 PUSH20 0xFFFFFFFFFFFFFFFFFFFFFFFFFFFFFFFFFFFFFFFF AND PUSH2 0x1D48 SWAP1 SWAP3 SWAP2 SWAP1 PUSH4 0xFFFFFFFF AND JUMP JUMPDEST SWAP1 POP PUSH1 0x0 DUP2 MLOAD GT ISZERO PUSH2 0x1D3B JUMPI DUP1 DUP1 PUSH1 0x20 ADD SWAP1 MLOAD DUP2 ADD SWAP1 PUSH2 0x1CFB SWAP2 SWAP1 PUSH2 0x208D JUMP JUMPDEST PUSH2 0x1D3A JUMPI PUSH1 0x40 MLOAD PUSH32 0x8C379A000000000000000000000000000000000000000000000000000000000 DUP2 MSTORE PUSH1 0x4 ADD PUSH2 0x1D31 SWAP1 PUSH2 0x26BB JUMP JUMPDEST PUSH1 0x40 MLOAD DUP1 SWAP2 SUB SWAP1 REVERT JUMPDEST JUMPDEST POP POP POP JUMP JUMPDEST PUSH1 0x0 CALLER SWAP1 POP SWAP1 JUMP JUMPDEST PUSH1 0x60 PUSH2 0x1D57 DUP5 DUP5 PUSH1 0x0 DUP6 PUSH2 0x1D60 JUMP JUMPDEST SWAP1 POP SWAP4 SWAP3 POP POP POP JUMP JUMPDEST PUSH1 0x60 DUP3 SELFBALANCE LT ISZERO PUSH2 0x1DA5 JUMPI PUSH1 0x40 MLOAD PUSH32 0x8C379A000000000000000000000000000000000000000000000000000000000 DUP2 MSTORE PUSH1 0x4 ADD PUSH2 0x1D9C SWAP1 PUSH2 0x25BB JUMP JUMPDEST PUSH1 0x40 MLOAD DUP1 SWAP2 SUB SWAP1 REVERT JUMPDEST PUSH2 0x1DAE DUP6 PUSH2 0x1E74 JUMP JUMPDEST PUSH2 0x1DED JUMPI PUSH1 0x40 MLOAD PUSH32 0x8C379A000000000000000000000000000000000000000000000000000000000 DUP2 MSTORE PUSH1 0x4 ADD PUSH2 0x1DE4 SWAP1 PUSH2 0x269B JUMP JUMPDEST PUSH1 0x40 MLOAD DUP1 SWAP2 SUB SWAP1 REVERT JUMPDEST PUSH1 0x0 DUP1 DUP7 PUSH20 0xFFFFFFFFFFFFFFFFFFFFFFFFFFFFFFFFFFFFFFFF AND DUP6 DUP8 PUSH1 0x40 MLOAD PUSH2 0x1E16 SWAP2 SWAP1 PUSH2 0x2416 JUMP JUMPDEST PUSH1 0x0 PUSH1 0x40 MLOAD DUP1 DUP4 SUB DUP2 DUP6 DUP8 GAS CALL SWAP3 POP POP POP RETURNDATASIZE DUP1 PUSH1 0x0 DUP2 EQ PUSH2 0x1E53 JUMPI PUSH1 0x40 MLOAD SWAP2 POP PUSH1 0x1F NOT PUSH1 0x3F RETURNDATASIZE ADD AND DUP3 ADD PUSH1 0x40 MSTORE RETURNDATASIZE DUP3 MSTORE RETURNDATASIZE PUSH1 0x0 PUSH1 0x20 DUP5 ADD RETURNDATACOPY PUSH2 0x1E58 JUMP JUMPDEST PUSH1 0x60 SWAP2 POP JUMPDEST POP SWAP2 POP SWAP2 POP PUSH2 0x1E68 DUP3 DUP3 DUP7 PUSH2 0x1E87 JUMP JUMPDEST SWAP3 POP POP POP SWAP5 SWAP4 POP POP POP POP JUMP JUMPDEST PUSH1 0x0 DUP1 DUP3 EXTCODESIZE SWAP1 POP PUSH1 0x0 DUP2 GT SWAP2 POP POP SWAP2 SWAP1 POP JUMP JUMPDEST PUSH1 0x60 DUP4 ISZERO PUSH2 0x1E97 JUMPI DUP3 SWAP1 POP PUSH2 0x1EE7 JUMP JUMPDEST PUSH1 0x0 DUP4 MLOAD GT ISZERO PUSH2 0x1EAA JUMPI DUP3 MLOAD DUP1 DUP5 PUSH1 0x20 ADD REVERT JUMPDEST DUP2 PUSH1 0x40 MLOAD PUSH32 0x8C379A000000000000000000000000000000000000000000000000000000000 DUP2 MSTORE PUSH1 0x4 ADD PUSH2 0x1EDE SWAP2 SWAP1 PUSH2 0x24F9 JUMP JUMPDEST PUSH1 0x40 MLOAD DUP1 SWAP2 SUB SWAP1 REVERT JUMPDEST SWAP4 SWAP3 POP POP POP JUMP JUMPDEST PUSH1 0x0 DUP2 CALLDATALOAD SWAP1 POP PUSH2 0x1EFD DUP2 PUSH2 0x2D8A JUMP JUMPDEST SWAP3 SWAP2 POP POP JUMP JUMPDEST PUSH1 0x0 DUP2 MLOAD SWAP1 POP PUSH2 0x1F12 DUP2 PUSH2 0x2DA1 JUMP JUMPDEST SWAP3 SWAP2 POP POP JUMP JUMPDEST PUSH1 0x0 DUP1 DUP4 PUSH1 0x1F DUP5 ADD SLT PUSH2 0x1F2E JUMPI PUSH2 0x1F2D PUSH2 0x29CE JUMP JUMPDEST JUMPDEST DUP3 CALLDATALOAD SWAP1 POP PUSH8 0xFFFFFFFFFFFFFFFF DUP2 GT ISZERO PUSH2 0x1F4B JUMPI PUSH2 0x1F4A PUSH2 0x29C9 JUMP JUMPDEST JUMPDEST PUSH1 0x20 DUP4 ADD SWAP2 POP DUP4 PUSH1 0x1 DUP3 MUL DUP4 ADD GT ISZERO PUSH2 0x1F67 JUMPI PUSH2 0x1F66 PUSH2 0x29D3 JUMP JUMPDEST JUMPDEST SWAP3 POP SWAP3 SWAP1 POP JUMP JUMPDEST PUSH1 0x0 DUP2 CALLDATALOAD SWAP1 POP PUSH2 0x1F7D DUP2 PUSH2 0x2DB8 JUMP JUMPDEST SWAP3 SWAP2 POP POP JUMP JUMPDEST PUSH1 0x0 DUP2 MLOAD SWAP1 POP PUSH2 0x1F92 DUP2 PUSH2 0x2DB8 JUMP JUMPDEST SWAP3 SWAP2 POP POP JUMP JUMPDEST PUSH1 0x0 PUSH1 0x20 DUP3 DUP5 SUB SLT ISZERO PUSH2 0x1FAE JUMPI PUSH2 0x1FAD PUSH2 0x29DD JUMP JUMPDEST JUMPDEST PUSH1 0x0 PUSH2 0x1FBC DUP5 DUP3 DUP6 ADD PUSH2 0x1EEE JUMP JUMPDEST SWAP2 POP POP SWAP3 SWAP2 POP POP JUMP JUMPDEST PUSH1 0x0 DUP1 PUSH1 0x0 DUP1 PUSH1 0x0 PUSH1 0x80 DUP7 DUP9 SUB SLT ISZERO PUSH2 0x1FE1 JUMPI PUSH2 0x1FE0 PUSH2 0x29DD JUMP JUMPDEST JUMPDEST PUSH1 0x0 PUSH2 0x1FEF DUP9 DUP3 DUP10 ADD PUSH2 0x1EEE JUMP JUMPDEST SWAP6 POP POP PUSH1 0x20 PUSH2 0x2000 DUP9 DUP3 DUP10 ADD PUSH2 0x1EEE JUMP JUMPDEST SWAP5 POP POP PUSH1 0x40 PUSH2 0x2011 DUP9 DUP3 DUP10 ADD PUSH2 0x1F6E JUMP JUMPDEST SWAP4 POP POP PUSH1 0x60 DUP7 ADD CALLDATALOAD PUSH8 0xFFFFFFFFFFFFFFFF DUP2 GT ISZERO PUSH2 0x2032 JUMPI PUSH2 0x2031 PUSH2 0x29D8 JUMP JUMPDEST JUMPDEST PUSH2 0x203E DUP9 DUP3 DUP10 ADD PUSH2 0x1F18 JUMP JUMPDEST SWAP3 POP SWAP3 POP POP SWAP3 SWAP6 POP SWAP3 SWAP6 SWAP1 SWAP4 POP JUMP JUMPDEST PUSH1 0x0 DUP1 PUSH1 0x40 DUP4 DUP6 SUB SLT ISZERO PUSH2 0x2064 JUMPI PUSH2 0x2063 PUSH2 0x29DD JUMP JUMPDEST JUMPDEST PUSH1 0x0 PUSH2 0x2072 DUP6 DUP3 DUP7 ADD PUSH2 0x1EEE JUMP JUMPDEST SWAP3 POP POP PUSH1 0x20 PUSH2 0x2083 DUP6 DUP3 DUP7 ADD PUSH2 0x1F6E JUMP JUMPDEST SWAP2 POP POP SWAP3 POP SWAP3 SWAP1 POP JUMP JUMPDEST PUSH1 0x0 PUSH1 0x20 DUP3 DUP5 SUB SLT ISZERO PUSH2 0x20A3 JUMPI PUSH2 0x20A2 PUSH2 0x29DD JUMP JUMPDEST JUMPDEST PUSH1 0x0 PUSH2 0x20B1 DUP5 DUP3 DUP6 ADD PUSH2 0x1F03 JUMP JUMPDEST SWAP2 POP POP SWAP3 SWAP2 POP POP JUMP JUMPDEST PUSH1 0x0 PUSH1 0x20 DUP3 DUP5 SUB SLT ISZERO PUSH2 0x20D0 JUMPI PUSH2 0x20CF PUSH2 0x29DD JUMP JUMPDEST JUMPDEST PUSH1 0x0 PUSH2 0x20DE DUP5 DUP3 DUP6 ADD PUSH2 0x1F6E JUMP JUMPDEST SWAP2 POP POP SWAP3 SWAP2 POP POP JUMP JUMPDEST PUSH1 0x0 PUSH1 0x20 DUP3 DUP5 SUB SLT ISZERO PUSH2 0x20FD JUMPI PUSH2 0x20FC PUSH2 0x29DD JUMP JUMPDEST JUMPDEST PUSH1 0x0 PUSH2 0x210B DUP5 DUP3 DUP6 ADD PUSH2 0x1F83 JUMP JUMPDEST SWAP2 POP POP SWAP3 SWAP2 POP POP JUMP JUMPDEST PUSH1 0x0 DUP1 PUSH1 0x40 DUP4 DUP6 SUB SLT ISZERO PUSH2 0x212B JUMPI PUSH2 0x212A PUSH2 0x29DD JUMP JUMPDEST JUMPDEST PUSH1 0x0 PUSH2 0x2139 DUP6 DUP3 DUP7 ADD PUSH2 0x1F6E JUMP JUMPDEST SWAP3 POP POP PUSH1 0x20 PUSH2 0x214A DUP6 DUP3 DUP7 ADD PUSH2 0x1F6E JUMP JUMPDEST SWAP2 POP POP SWAP3 POP SWAP3 SWAP1 POP JUMP JUMPDEST PUSH2 0x215D DUP2 PUSH2 0x285D JUMP JUMPDEST DUP3 MSTORE POP POP JUMP JUMPDEST PUSH2 0x216C DUP2 PUSH2 0x286F JUMP JUMPDEST DUP3 MSTORE POP POP JUMP JUMPDEST PUSH2 0x217B DUP2 PUSH2 0x287B JUMP JUMPDEST DUP3 MSTORE POP POP JUMP JUMPDEST PUSH1 0x0 PUSH2 0x218C DUP3 PUSH2 0x2716 JUMP JUMPDEST PUSH2 0x2196 DUP2 DUP6 PUSH2 0x272C JUMP JUMPDEST SWAP4 POP PUSH2 0x21A6 DUP2 DUP6 PUSH1 0x20 DUP7 ADD PUSH2 0x2907 JUMP JUMPDEST DUP1 DUP5 ADD SWAP2 POP POP SWAP3 SWAP2 POP POP JUMP JUMPDEST PUSH2 0x21BB DUP2 PUSH2 0x28D1 JUMP JUMPDEST DUP3 MSTORE POP POP JUMP JUMPDEST PUSH1 0x0 PUSH2 0x21CC DUP3 PUSH2 0x2721 JUMP JUMPDEST PUSH2 0x21D6 DUP2 DUP6 PUSH2 0x2737 JUMP JUMPDEST SWAP4 POP PUSH2 0x21E6 DUP2 DUP6 PUSH1 0x20 DUP7 ADD PUSH2 0x2907 JUMP JUMPDEST PUSH2 0x21EF DUP2 PUSH2 0x29E2 JUMP JUMPDEST DUP5 ADD SWAP2 POP POP SWAP3 SWAP2 POP POP JUMP JUMPDEST PUSH1 0x0 PUSH2 0x2207 PUSH1 0x58 DUP4 PUSH2 0x2737 JUMP JUMPDEST SWAP2 POP PUSH2 0x2212 DUP3 PUSH2 0x29F3 JUMP JUMPDEST PUSH1 0x60 DUP3 ADD SWAP1 POP SWAP2 SWAP1 POP JUMP JUMPDEST PUSH1 0x0 PUSH2 0x222A PUSH1 0x26 DUP4 PUSH2 0x2737 JUMP JUMPDEST SWAP2 POP PUSH2 0x2235 DUP3 PUSH2 0x2A68 JUMP JUMPDEST PUSH1 0x40 DUP3 ADD SWAP1 POP SWAP2 SWAP1 POP JUMP JUMPDEST PUSH1 0x0 PUSH2 0x224D PUSH1 0xE DUP4 PUSH2 0x2737 JUMP JUMPDEST SWAP2 POP PUSH2 0x2258 DUP3 PUSH2 0x2AB7 JUMP JUMPDEST PUSH1 0x20 DUP3 ADD SWAP1 POP SWAP2 SWAP1 POP JUMP JUMPDEST PUSH1 0x0 PUSH2 0x2270 PUSH1 0x1B DUP4 PUSH2 0x2737 JUMP JUMPDEST SWAP2 POP PUSH2 0x227B DUP3 PUSH2 0x2AE0 JUMP JUMPDEST PUSH1 0x20 DUP3 ADD SWAP1 POP SWAP2 SWAP1 POP JUMP JUMPDEST PUSH1 0x0 PUSH2 0x2293 PUSH1 0x22 DUP4 PUSH2 0x2737 JUMP JUMPDEST SWAP2 POP PUSH2 0x229E DUP3 PUSH2 0x2B09 JUMP JUMPDEST PUSH1 0x40 DUP3 ADD SWAP1 POP SWAP2 SWAP1 POP JUMP JUMPDEST PUSH1 0x0 PUSH2 0x22B6 PUSH1 0x26 DUP4 PUSH2 0x2737 JUMP JUMPDEST SWAP2 POP PUSH2 0x22C1 DUP3 PUSH2 0x2B58 JUMP JUMPDEST PUSH1 0x40 DUP3 ADD SWAP1 POP SWAP2 SWAP1 POP JUMP JUMPDEST PUSH1 0x0 PUSH2 0x22D9 PUSH1 0x10 DUP4 PUSH2 0x2737 JUMP JUMPDEST SWAP2 POP PUSH2 0x22E4 DUP3 PUSH2 0x2BA7 JUMP JUMPDEST PUSH1 0x20 DUP3 ADD SWAP1 POP SWAP2 SWAP1 POP JUMP JUMPDEST PUSH1 0x0 PUSH2 0x22FC PUSH1 0x11 DUP4 PUSH2 0x2737 JUMP JUMPDEST SWAP2 POP PUSH2 0x2307 DUP3 PUSH2 0x2BD0 JUMP JUMPDEST PUSH1 0x20 DUP3 ADD SWAP1 POP SWAP2 SWAP1 POP JUMP JUMPDEST PUSH1 0x0 PUSH2 0x231F PUSH1 0x21 DUP4 PUSH2 0x2737 JUMP JUMPDEST SWAP2 POP PUSH2 0x232A DUP3 PUSH2 0x2BF9 JUMP JUMPDEST PUSH1 0x40 DUP3 ADD SWAP1 POP SWAP2 SWAP1 POP JUMP JUMPDEST PUSH1 0x0 PUSH2 0x2342 PUSH1 0x20 DUP4 PUSH2 0x2737 JUMP JUMPDEST SWAP2 POP PUSH2 0x234D DUP3 PUSH2 0x2C48 JUMP JUMPDEST PUSH1 0x20 DUP3 ADD SWAP1 POP SWAP2 SWAP1 POP JUMP JUMPDEST PUSH1 0x0 PUSH2 0x2365 PUSH1 0x22 DUP4 PUSH2 0x2737 JUMP JUMPDEST SWAP2 POP PUSH2 0x2370 DUP3 PUSH2 0x2C71 JUMP JUMPDEST PUSH1 0x40 DUP3 ADD SWAP1 POP SWAP2 SWAP1 POP JUMP JUMPDEST PUSH1 0x0 PUSH2 0x2388 PUSH1 0x18 DUP4 PUSH2 0x2737 JUMP JUMPDEST SWAP2 POP PUSH2 0x2393 DUP3 PUSH2 0x2CC0 JUMP JUMPDEST PUSH1 0x20 DUP3 ADD SWAP1 POP SWAP2 SWAP1 POP JUMP JUMPDEST PUSH1 0x0 PUSH2 0x23AB PUSH1 0x1D DUP4 PUSH2 0x2737 JUMP JUMPDEST SWAP2 POP PUSH2 0x23B6 DUP3 PUSH2 0x2CE9 JUMP JUMPDEST PUSH1 0x20 DUP3 ADD SWAP1 POP SWAP2 SWAP1 POP JUMP JUMPDEST PUSH1 0x0 PUSH2 0x23CE PUSH1 0x2A DUP4 PUSH2 0x2737 JUMP JUMPDEST SWAP2 POP PUSH2 0x23D9 DUP3 PUSH2 0x2D12 JUMP JUMPDEST PUSH1 0x40 DUP3 ADD SWAP1 POP SWAP2 SWAP1 POP JUMP JUMPDEST PUSH1 0x0 PUSH2 0x23F1 PUSH1 0x1F DUP4 PUSH2 0x2737 JUMP JUMPDEST SWAP2 POP PUSH2 0x23FC DUP3 PUSH2 0x2D61 JUMP JUMPDEST PUSH1 0x20 DUP3 ADD SWAP1 POP SWAP2 SWAP1 POP JUMP JUMPDEST PUSH2 0x2410 DUP2 PUSH2 0x28C7 JUMP JUMPDEST DUP3 MSTORE POP POP JUMP JUMPDEST PUSH1 0x0 PUSH2 0x2422 DUP3 DUP5 PUSH2 0x2181 JUMP JUMPDEST SWAP2 POP DUP2 SWAP1 POP SWAP3 SWAP2 POP POP JUMP JUMPDEST PUSH1 0x0 PUSH1 0x20 DUP3 ADD SWAP1 POP PUSH2 0x2442 PUSH1 0x0 DUP4 ADD DUP5 PUSH2 0x2154 JUMP JUMPDEST SWAP3 SWAP2 POP POP JUMP JUMPDEST PUSH1 0x0 PUSH1 0x60 DUP3 ADD SWAP1 POP PUSH2 0x245D PUSH1 0x0 DUP4 ADD DUP7 PUSH2 0x2154 JUMP JUMPDEST PUSH2 0x246A PUSH1 0x20 DUP4 ADD DUP6 PUSH2 0x2154 JUMP JUMPDEST PUSH2 0x2477 PUSH1 0x40 DUP4 ADD DUP5 PUSH2 0x2407 JUMP JUMPDEST SWAP5 SWAP4 POP POP POP POP JUMP JUMPDEST PUSH1 0x0 PUSH1 0x40 DUP3 ADD SWAP1 POP PUSH2 0x2494 PUSH1 0x0 DUP4 ADD DUP6 PUSH2 0x2154 JUMP JUMPDEST PUSH2 0x24A1 PUSH1 0x20 DUP4 ADD DUP5 PUSH2 0x2407 JUMP JUMPDEST SWAP4 SWAP3 POP POP POP JUMP JUMPDEST PUSH1 0x0 PUSH1 0x20 DUP3 ADD SWAP1 POP PUSH2 0x24BD PUSH1 0x0 DUP4 ADD DUP5 PUSH2 0x2163 JUMP JUMPDEST SWAP3 SWAP2 POP POP JUMP JUMPDEST PUSH1 0x0 PUSH1 0x20 DUP3 ADD SWAP1 POP PUSH2 0x24D8 PUSH1 0x0 DUP4 ADD DUP5 PUSH2 0x2172 JUMP JUMPDEST SWAP3 SWAP2 POP POP JUMP JUMPDEST PUSH1 0x0 PUSH1 0x20 DUP3 ADD SWAP1 POP PUSH2 0x24F3 PUSH1 0x0 DUP4 ADD DUP5 PUSH2 0x21B2 JUMP JUMPDEST SWAP3 SWAP2 POP POP JUMP JUMPDEST PUSH1 0x0 PUSH1 0x20 DUP3 ADD SWAP1 POP DUP2 DUP2 SUB PUSH1 0x0 DUP4 ADD MSTORE PUSH2 0x2513 DUP2 DUP5 PUSH2 0x21C1 JUMP JUMPDEST SWAP1 POP SWAP3 SWAP2 POP POP JUMP JUMPDEST PUSH1 0x0 PUSH1 0x20 DUP3 ADD SWAP1 POP DUP2 DUP2 SUB PUSH1 0x0 DUP4 ADD MSTORE PUSH2 0x2534 DUP2 PUSH2 0x21FA JUMP JUMPDEST SWAP1 POP SWAP2 SWAP1 POP JUMP JUMPDEST PUSH1 0x0 PUSH1 0x20 DUP3 ADD SWAP1 POP DUP2 DUP2 SUB PUSH1 0x0 DUP4 ADD MSTORE PUSH2 0x2554 DUP2 PUSH2 0x221D JUMP JUMPDEST SWAP1 POP SWAP2 SWAP1 POP JUMP JUMPDEST PUSH1 0x0 PUSH1 0x20 DUP3 ADD SWAP1 POP DUP2 DUP2 SUB PUSH1 0x0 DUP4 ADD MSTORE PUSH2 0x2574 DUP2 PUSH2 0x2240 JUMP JUMPDEST SWAP1 POP SWAP2 SWAP1 POP JUMP JUMPDEST PUSH1 0x0 PUSH1 0x20 DUP3 ADD SWAP1 POP DUP2 DUP2 SUB PUSH1 0x0 DUP4 ADD MSTORE PUSH2 0x2594 DUP2 PUSH2 0x2263 JUMP JUMPDEST SWAP1 POP SWAP2 SWAP1 POP JUMP JUMPDEST PUSH1 0x0 PUSH1 0x20 DUP3 ADD SWAP1 POP DUP2 DUP2 SUB PUSH1 0x0 DUP4 ADD MSTORE PUSH2 0x25B4 DUP2 PUSH2 0x2286 JUMP JUMPDEST SWAP1 POP SWAP2 SWAP1 POP JUMP JUMPDEST PUSH1 0x0 PUSH1 0x20 DUP3 ADD SWAP1 POP DUP2 DUP2 SUB PUSH1 0x0 DUP4 ADD MSTORE PUSH2 0x25D4 DUP2 PUSH2 0x22A9 JUMP JUMPDEST SWAP1 POP SWAP2 SWAP1 POP JUMP JUMPDEST PUSH1 0x0 PUSH1 0x20 DUP3 ADD SWAP1 POP DUP2 DUP2 SUB PUSH1 0x0 DUP4 ADD MSTORE PUSH2 0x25F4 DUP2 PUSH2 0x22CC JUMP JUMPDEST SWAP1 POP SWAP2 SWAP1 POP JUMP JUMPDEST PUSH1 0x0 PUSH1 0x20 DUP3 ADD SWAP1 POP DUP2 DUP2 SUB PUSH1 0x0 DUP4 ADD MSTORE PUSH2 0x2614 DUP2 PUSH2 0x22EF JUMP JUMPDEST SWAP1 POP SWAP2 SWAP1 POP JUMP JUMPDEST PUSH1 0x0 PUSH1 0x20 DUP3 ADD SWAP1 POP DUP2 DUP2 SUB PUSH1 0x0 DUP4 ADD MSTORE PUSH2 0x2634 DUP2 PUSH2 0x2312 JUMP JUMPDEST SWAP1 POP SWAP2 SWAP1 POP JUMP JUMPDEST PUSH1 0x0 PUSH1 0x20 DUP3 ADD SWAP1 POP DUP2 DUP2 SUB PUSH1 0x0 DUP4 ADD MSTORE PUSH2 0x2654 DUP2 PUSH2 0x2335 JUMP JUMPDEST SWAP1 POP SWAP2 SWAP1 POP JUMP JUMPDEST PUSH1 0x0 PUSH1 0x20 DUP3 ADD SWAP1 POP DUP2 DUP2 SUB PUSH1 0x0 DUP4 ADD MSTORE PUSH2 0x2674 DUP2 PUSH2 0x2358 JUMP JUMPDEST SWAP1 POP SWAP2 SWAP1 POP JUMP JUMPDEST PUSH1 0x0 PUSH1 0x20 DUP3 ADD SWAP1 POP DUP2 DUP2 SUB PUSH1 0x0 DUP4 ADD MSTORE PUSH2 0x2694 DUP2 PUSH2 0x237B JUMP JUMPDEST SWAP1 POP SWAP2 SWAP1 POP JUMP JUMPDEST PUSH1 0x0 PUSH1 0x20 DUP3 ADD SWAP1 POP DUP2 DUP2 SUB PUSH1 0x0 DUP4 ADD MSTORE PUSH2 0x26B4 DUP2 PUSH2 0x239E JUMP JUMPDEST SWAP1 POP SWAP2 SWAP1 POP JUMP JUMPDEST PUSH1 0x0 PUSH1 0x20 DUP3 ADD SWAP1 POP DUP2 DUP2 SUB PUSH1 0x0 DUP4 ADD MSTORE PUSH2 0x26D4 DUP2 PUSH2 0x23C1 JUMP JUMPDEST SWAP1 POP SWAP2 SWAP1 POP JUMP JUMPDEST PUSH1 0x0 PUSH1 0x20 DUP3 ADD SWAP1 POP DUP2 DUP2 SUB PUSH1 0x0 DUP4 ADD MSTORE PUSH2 0x26F4 DUP2 PUSH2 0x23E4 JUMP JUMPDEST SWAP1 POP SWAP2 SWAP1 POP JUMP JUMPDEST PUSH1 0x0 PUSH1 0x20 DUP3 ADD SWAP1 POP PUSH2 0x2710 PUSH1 0x0 DUP4 ADD DUP5 PUSH2 0x2407 JUMP JUMPDEST SWAP3 SWAP2 POP POP JUMP JUMPDEST PUSH1 0x0 DUP2 MLOAD SWAP1 POP SWAP2 SWAP1 POP JUMP JUMPDEST PUSH1 0x0 DUP2 MLOAD SWAP1 POP SWAP2 SWAP1 POP JUMP JUMPDEST PUSH1 0x0 DUP2 SWAP1 POP SWAP3 SWAP2 POP POP JUMP JUMPDEST PUSH1 0x0 DUP3 DUP3 MSTORE PUSH1 0x20 DUP3 ADD SWAP1 POP SWAP3 SWAP2 POP POP JUMP JUMPDEST PUSH1 0x0 PUSH2 0x2753 DUP3 PUSH2 0x28C7 JUMP JUMPDEST SWAP2 POP PUSH2 0x275E DUP4 PUSH2 0x28C7 JUMP JUMPDEST SWAP3 POP DUP3 PUSH32 0xFFFFFFFFFFFFFFFFFFFFFFFFFFFFFFFFFFFFFFFFFFFFFFFFFFFFFFFFFFFFFFFF SUB DUP3 GT ISZERO PUSH2 0x2793 JUMPI PUSH2 0x2792 PUSH2 0x296B JUMP JUMPDEST JUMPDEST DUP3 DUP3 ADD SWAP1 POP SWAP3 SWAP2 POP POP JUMP JUMPDEST PUSH1 0x0 PUSH2 0x27A9 DUP3 PUSH2 0x28C7 JUMP JUMPDEST SWAP2 POP PUSH2 0x27B4 DUP4 PUSH2 0x28C7 JUMP JUMPDEST SWAP3 POP DUP3 PUSH2 0x27C4 JUMPI PUSH2 0x27C3 PUSH2 0x299A JUMP JUMPDEST JUMPDEST DUP3 DUP3 DIV SWAP1 POP SWAP3 SWAP2 POP POP JUMP JUMPDEST PUSH1 0x0 PUSH2 0x27DA DUP3 PUSH2 0x28C7 JUMP JUMPDEST SWAP2 POP PUSH2 0x27E5 DUP4 PUSH2 0x28C7 JUMP JUMPDEST SWAP3 POP DUP2 PUSH32 0xFFFFFFFFFFFFFFFFFFFFFFFFFFFFFFFFFFFFFFFFFFFFFFFFFFFFFFFFFFFFFFFF DIV DUP4 GT DUP3 ISZERO ISZERO AND ISZERO PUSH2 0x281E JUMPI PUSH2 0x281D PUSH2 0x296B JUMP JUMPDEST JUMPDEST DUP3 DUP3 MUL SWAP1 POP SWAP3 SWAP2 POP POP JUMP JUMPDEST PUSH1 0x0 PUSH2 0x2834 DUP3 PUSH2 0x28C7 JUMP JUMPDEST SWAP2 POP PUSH2 0x283F DUP4 PUSH2 0x28C7 JUMP JUMPDEST SWAP3 POP DUP3 DUP3 LT ISZERO PUSH2 0x2852 JUMPI PUSH2 0x2851 PUSH2 0x296B JUMP JUMPDEST JUMPDEST DUP3 DUP3 SUB SWAP1 POP SWAP3 SWAP2 POP POP JUMP JUMPDEST PUSH1 0x0 PUSH2 0x2868 DUP3 PUSH2 0x28A7 JUMP JUMPDEST SWAP1 POP SWAP2 SWAP1 POP JUMP JUMPDEST PUSH1 0x0 DUP2 ISZERO ISZERO SWAP1 POP SWAP2 SWAP1 POP JUMP JUMPDEST PUSH1 0x0 PUSH32 0xFFFFFFFF00000000000000000000000000000000000000000000000000000000 DUP3 AND SWAP1 POP SWAP2 SWAP1 POP JUMP JUMPDEST PUSH1 0x0 PUSH20 0xFFFFFFFFFFFFFFFFFFFFFFFFFFFFFFFFFFFFFFFF DUP3 AND SWAP1 POP SWAP2 SWAP1 POP JUMP JUMPDEST PUSH1 0x0 DUP2 SWAP1 POP SWAP2 SWAP1 POP JUMP JUMPDEST PUSH1 0x0 PUSH2 0x28DC DUP3 PUSH2 0x28E3 JUMP JUMPDEST SWAP1 POP SWAP2 SWAP1 POP JUMP JUMPDEST PUSH1 0x0 PUSH2 0x28EE DUP3 PUSH2 0x28F5 JUMP JUMPDEST SWAP1 POP SWAP2 SWAP1 POP JUMP JUMPDEST PUSH1 0x0 PUSH2 0x2900 DUP3 PUSH2 0x28A7 JUMP JUMPDEST SWAP1 POP SWAP2 SWAP1 POP JUMP JUMPDEST PUSH1 0x0 JUMPDEST DUP4 DUP2 LT ISZERO PUSH2 0x2925 JUMPI DUP1 DUP3 ADD MLOAD DUP2 DUP5 ADD MSTORE PUSH1 0x20 DUP2 ADD SWAP1 POP PUSH2 0x290A JUMP JUMPDEST DUP4 DUP2 GT ISZERO PUSH2 0x2934 JUMPI PUSH1 0x0 DUP5 DUP5 ADD MSTORE JUMPDEST POP POP POP POP JUMP JUMPDEST PUSH1 0x0 PUSH2 0x2945 DUP3 PUSH2 0x28C7 JUMP JUMPDEST SWAP2 POP PUSH2 0x2950 DUP4 PUSH2 0x28C7 JUMP JUMPDEST SWAP3 POP DUP3 PUSH2 0x2960 JUMPI PUSH2 0x295F PUSH2 0x299A JUMP JUMPDEST JUMPDEST DUP3 DUP3 MOD SWAP1 POP SWAP3 SWAP2 POP POP JUMP JUMPDEST PUSH32 0x4E487B7100000000000000000000000000000000000000000000000000000000 PUSH1 0x0 MSTORE PUSH1 0x11 PUSH1 0x4 MSTORE PUSH1 0x24 PUSH1 0x0 REVERT JUMPDEST PUSH32 0x4E487B7100000000000000000000000000000000000000000000000000000000 PUSH1 0x0 MSTORE PUSH1 0x12 PUSH1 0x4 MSTORE PUSH1 0x24 PUSH1 0x0 REVERT JUMPDEST PUSH1 0x0 DUP1 REVERT JUMPDEST PUSH1 0x0 DUP1 REVERT JUMPDEST PUSH1 0x0 DUP1 REVERT JUMPDEST PUSH1 0x0 DUP1 REVERT JUMPDEST PUSH1 0x0 DUP1 REVERT JUMPDEST PUSH1 0x0 PUSH1 0x1F NOT PUSH1 0x1F DUP4 ADD AND SWAP1 POP SWAP2 SWAP1 POP JUMP JUMPDEST PUSH32 0x50726576696F7573207265776172647320706572696F64206D75737420626520 PUSH1 0x0 DUP3 ADD MSTORE PUSH32 0x636F6D706C657465206265666F7265206368616E67696E672074686520647572 PUSH1 0x20 DUP3 ADD MSTORE PUSH32 0x6174696F6E20666F7220746865206E657720706572696F640000000000000000 PUSH1 0x40 DUP3 ADD MSTORE POP JUMP JUMPDEST PUSH32 0x4F776E61626C653A206E6577206F776E657220697320746865207A65726F2061 PUSH1 0x0 DUP3 ADD MSTORE PUSH32 0x6464726573730000000000000000000000000000000000000000000000000000 PUSH1 0x20 DUP3 ADD MSTORE POP JUMP JUMPDEST PUSH32 0x43616E6E6F74207374616B652030000000000000000000000000000000000000 PUSH1 0x0 DUP3 ADD MSTORE POP JUMP JUMPDEST PUSH32 0x536166654D6174683A206164646974696F6E206F766572666C6F770000000000 PUSH1 0x0 DUP3 ADD MSTORE POP JUMP JUMPDEST PUSH32 0x43616E6E6F7420776974686472617720746865207265776172647320746F6B65 PUSH1 0x0 DUP3 ADD MSTORE PUSH32 0x6E73000000000000000000000000000000000000000000000000000000000000 PUSH1 0x20 DUP3 ADD MSTORE POP JUMP JUMPDEST PUSH32 0x416464726573733A20696E73756666696369656E742062616C616E636520666F PUSH1 0x0 DUP3 ADD MSTORE PUSH32 0x722063616C6C0000000000000000000000000000000000000000000000000000 PUSH1 0x20 DUP3 ADD MSTORE POP JUMP JUMPDEST PUSH32 0x5061757361626C653A2070617573656400000000000000000000000000000000 PUSH1 0x0 DUP3 ADD MSTORE POP JUMP JUMPDEST PUSH32 0x43616E6E6F742077697468647261772030000000000000000000000000000000 PUSH1 0x0 DUP3 ADD MSTORE POP JUMP JUMPDEST PUSH32 0x536166654D6174683A206D756C7469706C69636174696F6E206F766572666C6F PUSH1 0x0 DUP3 ADD MSTORE PUSH32 0x7700000000000000000000000000000000000000000000000000000000000000 PUSH1 0x20 DUP3 ADD MSTORE POP JUMP JUMPDEST PUSH32 0x4F776E61626C653A2063616C6C6572206973206E6F7420746865206F776E6572 PUSH1 0x0 DUP3 ADD MSTORE POP JUMP JUMPDEST PUSH32 0x43616E6E6F7420776974686472617720746865207374616B696E6720746F6B65 PUSH1 0x0 DUP3 ADD MSTORE PUSH32 0x6E73000000000000000000000000000000000000000000000000000000000000 PUSH1 0x20 DUP3 ADD MSTORE POP JUMP JUMPDEST PUSH32 0x50726F76696465642072657761726420746F6F20686967680000000000000000 PUSH1 0x0 DUP3 ADD MSTORE POP JUMP JUMPDEST PUSH32 0x416464726573733A2063616C6C20746F206E6F6E2D636F6E7472616374000000 PUSH1 0x0 DUP3 ADD MSTORE POP JUMP JUMPDEST PUSH32 0x5361666545524332303A204552433230206F7065726174696F6E20646964206E PUSH1 0x0 DUP3 ADD MSTORE PUSH32 0x6F74207375636365656400000000000000000000000000000000000000000000 PUSH1 0x20 DUP3 ADD MSTORE POP JUMP JUMPDEST PUSH32 0x5265656E7472616E637947756172643A207265656E7472616E742063616C6C00 PUSH1 0x0 DUP3 ADD MSTORE POP JUMP JUMPDEST PUSH2 0x2D93 DUP2 PUSH2 0x285D JUMP JUMPDEST DUP2 EQ PUSH2 0x2D9E JUMPI PUSH1 0x0 DUP1 REVERT JUMPDEST POP JUMP JUMPDEST PUSH2 0x2DAA DUP2 PUSH2 0x286F JUMP JUMPDEST DUP2 EQ PUSH2 0x2DB5 JUMPI PUSH1 0x0 DUP1 REVERT JUMPDEST POP JUMP JUMPDEST PUSH2 0x2DC1 DUP2 PUSH2 0x28C7 JUMP JUMPDEST DUP2 EQ PUSH2 0x2DCC JUMPI PUSH1 0x0 DUP1 REVERT JUMPDEST POP JUMP INVALID LOG2 PUSH5 0x6970667358 0x22 SLT KECCAK256 RETURN 0x28 0xDB 0x21 0x5D RETURNDATASIZE PUSH31 0x6C092B38299C27D80E6CC5E0051D2562957DC031814986889764736F6C6343 STOP ADDMOD SMOD STOP CALLER "
				},
				"gasEstimates": {
					"creation": {
						"codeDepositCost": "2356200",
						"executionCost": "infinite",
						"totalCost": "infinite"
					},
					"external": {
						"balanceOf(address)": "2886",
						"earned(address)": "infinite",
						"exit()": "infinite",
						"getReward()": "infinite",
						"getRewardForDuration()": "infinite",
						"lastTimeRewardApplicable()": "2586",
						"lastUpdateTime()": "2474",
						"min(uint256,uint256)": "infinite",
						"notifyRewardAmount(uint256)": "infinite",
						"onERC721Received(address,address,uint256,bytes)": "infinite",
						"owner()": "2636",
						"paused()": "2591",
						"periodFinish()": "2517",
						"pow(uint256,uint256)": "infinite",
						"recoverERC20(address,uint256)": "infinite",
						"renounceOwnership()": "30609",
						"rewardPerToken()": "infinite",
						"rewardPerTokenStored()": "2473",
						"rewardRate()": "2475",
						"rewards(address)": "2883",
						"rewardsDuration()": "2475",
						"rewardsToken()": "2711",
						"setRewardsDuration(uint256)": "infinite",
						"stake(uint256)": "infinite",
						"stakingToken()": "2689",
						"stakingTokensDecimalRate()": "2540",
						"totalSupply()": "2483",
						"transferOwnership(address)": "31001",
						"userRewardPerTokenPaid(address)": "2859",
						"withdraw(uint256)": "infinite"
					}
				},
				"methodIdentifiers": {
					"balanceOf(address)": "70a08231",
					"earned(address)": "008cc262",
					"exit()": "e9fad8ee",
					"getReward()": "3d18b912",
					"getRewardForDuration()": "1c1f78eb",
					"lastTimeRewardApplicable()": "80faa57d",
					"lastUpdateTime()": "c8f33c91",
					"min(uint256,uint256)": "7ae2b5c7",
					"notifyRewardAmount(uint256)": "3c6b16ab",
					"onERC721Received(address,address,uint256,bytes)": "150b7a02",
					"owner()": "8da5cb5b",
					"paused()": "5c975abb",
					"periodFinish()": "ebe2b12b",
					"pow(uint256,uint256)": "2e4c697f",
					"recoverERC20(address,uint256)": "8980f11f",
					"renounceOwnership()": "715018a6",
					"rewardPerToken()": "cd3daf9d",
					"rewardPerTokenStored()": "df136d65",
					"rewardRate()": "7b0a47ee",
					"rewards(address)": "0700037d",
					"rewardsDuration()": "386a9525",
					"rewardsToken()": "d1af0c7d",
					"setRewardsDuration(uint256)": "cc1a378f",
					"stake(uint256)": "a694fc3a",
					"stakingToken()": "72f702f3",
					"stakingTokensDecimalRate()": "a85fe3b7",
					"totalSupply()": "18160ddd",
					"transferOwnership(address)": "f2fde38b",
					"userRewardPerTokenPaid(address)": "8b876347",
					"withdraw(uint256)": "2e1a7d4d"
				}
			},
			"storageLayout": {
				"storage": [
					{
						"astId": 464,
						"contract": "Farm.sol:Farm",
						"label": "_status",
						"offset": 0,
						"slot": "0",
						"type": "t_uint256"
					},
					{
						"astId": 366,
						"contract": "Farm.sol:Farm",
						"label": "_paused",
						"offset": 0,
						"slot": "1",
						"type": "t_bool"
					},
					{
						"astId": 917,
						"contract": "Farm.sol:Farm",
						"label": "_owner",
						"offset": 1,
						"slot": "1",
						"type": "t_address"
					},
					{
						"astId": 1040,
						"contract": "Farm.sol:Farm",
						"label": "rewardsToken",
						"offset": 0,
						"slot": "2",
						"type": "t_contract(IERC20)333"
					},
					{
						"astId": 1043,
						"contract": "Farm.sol:Farm",
						"label": "stakingToken",
						"offset": 0,
						"slot": "3",
						"type": "t_contract(IERC20)333"
					},
					{
						"astId": 1046,
						"contract": "Farm.sol:Farm",
						"label": "periodFinish",
						"offset": 0,
						"slot": "4",
						"type": "t_uint256"
					},
					{
						"astId": 1049,
						"contract": "Farm.sol:Farm",
						"label": "rewardRate",
						"offset": 0,
						"slot": "5",
						"type": "t_uint256"
					},
					{
						"astId": 1051,
						"contract": "Farm.sol:Farm",
						"label": "rewardsDuration",
						"offset": 0,
						"slot": "6",
						"type": "t_uint256"
					},
					{
						"astId": 1053,
						"contract": "Farm.sol:Farm",
						"label": "lastUpdateTime",
						"offset": 0,
						"slot": "7",
						"type": "t_uint256"
					},
					{
						"astId": 1055,
						"contract": "Farm.sol:Farm",
						"label": "rewardPerTokenStored",
						"offset": 0,
						"slot": "8",
						"type": "t_uint256"
					},
					{
						"astId": 1057,
						"contract": "Farm.sol:Farm",
						"label": "stakingTokensDecimalRate",
						"offset": 0,
						"slot": "9",
						"type": "t_uint256"
					},
					{
						"astId": 1059,
						"contract": "Farm.sol:Farm",
						"label": "initialised",
						"offset": 0,
						"slot": "10",
						"type": "t_bool"
					},
					{
						"astId": 1063,
						"contract": "Farm.sol:Farm",
						"label": "userRewardPerTokenPaid",
						"offset": 0,
						"slot": "11",
						"type": "t_mapping(t_address,t_uint256)"
					},
					{
						"astId": 1067,
						"contract": "Farm.sol:Farm",
						"label": "rewards",
						"offset": 0,
						"slot": "12",
						"type": "t_mapping(t_address,t_uint256)"
					},
					{
						"astId": 1069,
						"contract": "Farm.sol:Farm",
						"label": "_totalSupply",
						"offset": 0,
						"slot": "13",
						"type": "t_uint256"
					},
					{
						"astId": 1073,
						"contract": "Farm.sol:Farm",
						"label": "_balances",
						"offset": 0,
						"slot": "14",
						"type": "t_mapping(t_address,t_uint256)"
					}
				],
				"types": {
					"t_address": {
						"encoding": "inplace",
						"label": "address",
						"numberOfBytes": "20"
					},
					"t_bool": {
						"encoding": "inplace",
						"label": "bool",
						"numberOfBytes": "1"
					},
					"t_contract(IERC20)333": {
						"encoding": "inplace",
						"label": "contract IERC20",
						"numberOfBytes": "20"
					},
					"t_mapping(t_address,t_uint256)": {
						"encoding": "mapping",
						"key": "t_address",
						"label": "mapping(address => uint256)",
						"numberOfBytes": "32",
						"value": "t_uint256"
					},
					"t_uint256": {
						"encoding": "inplace",
						"label": "uint256",
						"numberOfBytes": "32"
					}
				}
			},
			"userdoc": {
				"kind": "user",
				"methods": {},
				"version": 1
			}
		}
	}
}