{
	"Farm.sol": {
		"Farm": {
			"abi": [
				{
					"inputs": [
						{
							"internalType": "address",
							"name": "_rewardsToken",
							"type": "address"
						},
						{
							"internalType": "address",
							"name": "_stakingToken",
							"type": "address"
						},
						{
							"internalType": "uint256",
							"name": "_rewardsDuration",
							"type": "uint256"
						},
						{
							"internalType": "uint256",
							"name": "_stakingTokensDecimal",
							"type": "uint256"
						}
					],
					"stateMutability": "nonpayable",
					"type": "constructor"
				},
				{
					"anonymous": false,
					"inputs": [
						{
							"indexed": true,
							"internalType": "address",
							"name": "previousOwner",
							"type": "address"
						},
						{
							"indexed": true,
							"internalType": "address",
							"name": "newOwner",
							"type": "address"
						}
					],
					"name": "OwnershipTransferred",
					"type": "event"
				},
				{
					"anonymous": false,
					"inputs": [
						{
							"indexed": false,
							"internalType": "address",
							"name": "account",
							"type": "address"
						}
					],
					"name": "Paused",
					"type": "event"
				},
				{
					"anonymous": false,
					"inputs": [
						{
							"indexed": false,
							"internalType": "address",
							"name": "token",
							"type": "address"
						},
						{
							"indexed": false,
							"internalType": "uint256",
							"name": "amount",
							"type": "uint256"
						}
					],
					"name": "Recovered",
					"type": "event"
				},
				{
					"anonymous": false,
					"inputs": [
						{
							"indexed": false,
							"internalType": "uint256",
							"name": "reward",
							"type": "uint256"
						}
					],
					"name": "RewardAdded",
					"type": "event"
				},
				{
					"anonymous": false,
					"inputs": [
						{
							"indexed": true,
							"internalType": "address",
							"name": "user",
							"type": "address"
						},
						{
							"indexed": false,
							"internalType": "uint256",
							"name": "reward",
							"type": "uint256"
						}
					],
					"name": "RewardPaid",
					"type": "event"
				},
				{
					"anonymous": false,
					"inputs": [
						{
							"indexed": false,
							"internalType": "uint256",
							"name": "newDuration",
							"type": "uint256"
						}
					],
					"name": "RewardsDurationUpdated",
					"type": "event"
				},
				{
					"anonymous": false,
					"inputs": [
						{
							"indexed": true,
							"internalType": "address",
							"name": "user",
							"type": "address"
						},
						{
							"indexed": false,
							"internalType": "uint256",
							"name": "amount",
							"type": "uint256"
						}
					],
					"name": "Staked",
					"type": "event"
				},
				{
					"anonymous": false,
					"inputs": [
						{
							"indexed": false,
							"internalType": "address",
							"name": "account",
							"type": "address"
						}
					],
					"name": "Unpaused",
					"type": "event"
				},
				{
					"anonymous": false,
					"inputs": [
						{
							"indexed": true,
							"internalType": "address",
							"name": "user",
							"type": "address"
						},
						{
							"indexed": false,
							"internalType": "uint256",
							"name": "amount",
							"type": "uint256"
						}
					],
					"name": "Withdrawn",
					"type": "event"
				},
				{
					"inputs": [
						{
							"internalType": "address",
							"name": "account",
							"type": "address"
						}
					],
					"name": "balanceOf",
					"outputs": [
						{
							"internalType": "uint256",
							"name": "",
							"type": "uint256"
						}
					],
					"stateMutability": "view",
					"type": "function"
				},
				{
					"inputs": [
						{
							"internalType": "address",
							"name": "account",
							"type": "address"
						}
					],
					"name": "earned",
					"outputs": [
						{
							"internalType": "uint256",
							"name": "",
							"type": "uint256"
						}
					],
					"stateMutability": "view",
					"type": "function"
				},
				{
					"inputs": [],
					"name": "exit",
					"outputs": [],
					"stateMutability": "nonpayable",
					"type": "function"
				},
				{
					"inputs": [],
					"name": "getReward",
					"outputs": [],
					"stateMutability": "nonpayable",
					"type": "function"
				},
				{
					"inputs": [],
					"name": "getRewardForDuration",
					"outputs": [
						{
							"internalType": "uint256",
							"name": "",
							"type": "uint256"
						}
					],
					"stateMutability": "view",
					"type": "function"
				},
				{
					"inputs": [],
					"name": "lastTimeRewardApplicable",
					"outputs": [
						{
							"internalType": "uint256",
							"name": "",
							"type": "uint256"
						}
					],
					"stateMutability": "view",
					"type": "function"
				},
				{
					"inputs": [],
					"name": "lastUpdateTime",
					"outputs": [
						{
							"internalType": "uint256",
							"name": "",
							"type": "uint256"
						}
					],
					"stateMutability": "view",
					"type": "function"
				},
				{
					"inputs": [
						{
							"internalType": "uint256",
							"name": "a",
							"type": "uint256"
						},
						{
							"internalType": "uint256",
							"name": "b",
							"type": "uint256"
						}
					],
					"name": "min",
					"outputs": [
						{
							"internalType": "uint256",
							"name": "",
							"type": "uint256"
						}
					],
					"stateMutability": "pure",
					"type": "function"
				},
				{
					"inputs": [
						{
							"internalType": "uint256",
							"name": "reward",
							"type": "uint256"
						}
					],
					"name": "notifyRewardAmount",
					"outputs": [],
					"stateMutability": "nonpayable",
					"type": "function"
				},
				{
					"inputs": [],
					"name": "owner",
					"outputs": [
						{
							"internalType": "address",
							"name": "",
							"type": "address"
						}
					],
					"stateMutability": "view",
					"type": "function"
				},
				{
					"inputs": [],
					"name": "paused",
					"outputs": [
						{
							"internalType": "bool",
							"name": "",
							"type": "bool"
						}
					],
					"stateMutability": "view",
					"type": "function"
				},
				{
					"inputs": [],
					"name": "periodFinish",
					"outputs": [
						{
							"internalType": "uint256",
							"name": "",
							"type": "uint256"
						}
					],
					"stateMutability": "view",
					"type": "function"
				},
				{
					"inputs": [
						{
							"internalType": "uint256",
							"name": "n",
							"type": "uint256"
						},
						{
							"internalType": "uint256",
							"name": "e",
							"type": "uint256"
						}
					],
					"name": "pow",
					"outputs": [
						{
							"internalType": "uint256",
							"name": "",
							"type": "uint256"
						}
					],
					"stateMutability": "pure",
					"type": "function"
				},
				{
					"inputs": [
						{
							"internalType": "address",
							"name": "tokenAddress",
							"type": "address"
						},
						{
							"internalType": "uint256",
							"name": "tokenAmount",
							"type": "uint256"
						}
					],
					"name": "recoverERC20",
					"outputs": [],
					"stateMutability": "nonpayable",
					"type": "function"
				},
				{
					"inputs": [],
					"name": "renounceOwnership",
					"outputs": [],
					"stateMutability": "nonpayable",
					"type": "function"
				},
				{
					"inputs": [],
					"name": "rewardPerToken",
					"outputs": [
						{
							"internalType": "uint256",
							"name": "",
							"type": "uint256"
						}
					],
					"stateMutability": "view",
					"type": "function"
				},
				{
					"inputs": [],
					"name": "rewardPerTokenStored",
					"outputs": [
						{
							"internalType": "uint256",
							"name": "",
							"type": "uint256"
						}
					],
					"stateMutability": "view",
					"type": "function"
				},
				{
					"inputs": [],
					"name": "rewardRate",
					"outputs": [
						{
							"internalType": "uint256",
							"name": "",
							"type": "uint256"
						}
					],
					"stateMutability": "view",
					"type": "function"
				},
				{
					"inputs": [
						{
							"internalType": "address",
							"name": "",
							"type": "address"
						}
					],
					"name": "rewards",
					"outputs": [
						{
							"internalType": "uint256",
							"name": "",
							"type": "uint256"
						}
					],
					"stateMutability": "view",
					"type": "function"
				},
				{
					"inputs": [],
					"name": "rewardsDuration",
					"outputs": [
						{
							"internalType": "uint256",
							"name": "",
							"type": "uint256"
						}
					],
					"stateMutability": "view",
					"type": "function"
				},
				{
					"inputs": [],
					"name": "rewardsToken",
					"outputs": [
						{
							"internalType": "contract IERC20",
							"name": "",
							"type": "address"
						}
					],
					"stateMutability": "view",
					"type": "function"
				},
				{
					"inputs": [
						{
							"internalType": "uint256",
							"name": "_rewardsDuration",
							"type": "uint256"
						}
					],
					"name": "setRewardsDuration",
					"outputs": [],
					"stateMutability": "nonpayable",
					"type": "function"
				},
				{
					"inputs": [
						{
							"internalType": "uint256",
							"name": "amount",
							"type": "uint256"
						}
					],
					"name": "stake",
					"outputs": [],
					"stateMutability": "nonpayable",
					"type": "function"
				},
				{
					"inputs": [],
					"name": "stakingToken",
					"outputs": [
						{
							"internalType": "contract IERC20",
							"name": "",
							"type": "address"
						}
					],
					"stateMutability": "view",
					"type": "function"
				},
				{
					"inputs": [],
					"name": "stakingTokensDecimalRate",
					"outputs": [
						{
							"internalType": "uint256",
							"name": "",
							"type": "uint256"
						}
					],
					"stateMutability": "view",
					"type": "function"
				},
				{
					"inputs": [],
					"name": "totalSupply",
					"outputs": [
						{
							"internalType": "uint256",
							"name": "",
							"type": "uint256"
						}
					],
					"stateMutability": "view",
					"type": "function"
				},
				{
					"inputs": [
						{
							"internalType": "address",
							"name": "newOwner",
							"type": "address"
						}
					],
					"name": "transferOwnership",
					"outputs": [],
					"stateMutability": "nonpayable",
					"type": "function"
				},
				{
					"inputs": [
						{
							"internalType": "address",
							"name": "",
							"type": "address"
						}
					],
					"name": "userRewardPerTokenPaid",
					"outputs": [
						{
							"internalType": "uint256",
							"name": "",
							"type": "uint256"
						}
					],
					"stateMutability": "view",
					"type": "function"
				},
				{
					"inputs": [
						{
							"internalType": "uint256",
							"name": "amount",
							"type": "uint256"
						}
					],
					"name": "withdraw",
					"outputs": [],
					"stateMutability": "nonpayable",
					"type": "function"
				}
			],
			"devdoc": {
				"kind": "dev",
				"methods": {
					"owner()": {
						"details": "Returns the address of the current owner."
					},
					"paused()": {
						"details": "Returns true if the contract is paused, and false otherwise."
					},
					"renounceOwnership()": {
						"details": "Leaves the contract without owner. It will not be possible to call `onlyOwner` functions anymore. Can only be called by the current owner. NOTE: Renouncing ownership will leave the contract without an owner, thereby removing any functionality that is only available to the owner."
					},
					"transferOwnership(address)": {
						"details": "Transfers ownership of the contract to a new account (`newOwner`). Can only be called by the current owner."
					}
				},
				"version": 1
			},
			"evm": {
				"assembly": "    /* \"Farm.sol\":24330:31478  contract Farm is ReentrancyGuard, Pausable, Ownable {\r... */\n  mstore(0x40, 0x80)\n    /* \"Farm.sol\":24604:24605  0 */\n  0x00\n    /* \"Farm.sol\":24574:24605  uint256 public periodFinish = 0 */\n  0x04\n  sstore\n    /* \"Farm.sol\":24640:24641  0 */\n  0x00\n    /* \"Farm.sol\":24612:24641  uint256 public rewardRate = 0 */\n  0x05\n  sstore\n    /* \"Farm.sol\":25093:25469  constructor (\r... */\n  callvalue\n  dup1\n  iszero\n  tag_1\n  jumpi\n  0x00\n  dup1\n  revert\ntag_1:\n  pop\n  mload(0x40)\n  sub(codesize, bytecodeSize)\n  dup1\n  bytecodeSize\n  dup4\n  codecopy\n  dup2\n  dup2\n  add\n  0x40\n  mstore\n  dup2\n  add\n  swap1\n  tag_2\n  swap2\n  swap1\n  tag_3\n  jump\t// in\ntag_2:\n    /* \"Farm.sol\":13248:13249  1 */\n  0x01\n    /* \"Farm.sol\":13359:13366  _status */\n  0x00\n    /* \"Farm.sol\":13359:13381  _status = _NOT_ENTERED */\n  dup2\n  swap1\n  sstore\n  pop\n    /* \"Farm.sol\":11119:11124  false */\n  0x00\n    /* \"Farm.sol\":11109:11116  _paused */\n  0x01\n  0x00\n    /* \"Farm.sol\":11109:11124  _paused = false */\n  0x0100\n  exp\n  dup2\n  sload\n  dup2\n  0xff\n  mul\n  not\n  and\n  swap1\n  dup4\n  iszero\n  iszero\n  mul\n  or\n  swap1\n  sstore\n  pop\n    /* \"Farm.sol\":22586:22618  _transferOwnership(_msgSender()) */\n  tag_11\n    /* \"Farm.sol\":22605:22617  _msgSender() */\n  tag_12\n    /* \"Farm.sol\":22605:22615  _msgSender */\n  shl(0x20, tag_13)\n    /* \"Farm.sol\":22605:22617  _msgSender() */\n  0x20\n  shr\n  jump\t// in\ntag_12:\n    /* \"Farm.sol\":22586:22604  _transferOwnership */\n  shl(0x20, tag_14)\n    /* \"Farm.sol\":22586:22618  _transferOwnership(_msgSender()) */\n  0x20\n  shr\n  jump\t// in\ntag_11:\n    /* \"Farm.sol\":25292:25322  pow(10, _stakingTokensDecimal) */\n  tag_16\n    /* \"Farm.sol\":25296:25298  10 */\n  0x0a\n    /* \"Farm.sol\":25300:25321  _stakingTokensDecimal */\n  dup3\n    /* \"Farm.sol\":25292:25295  pow */\n  shl(0x20, tag_17)\n    /* \"Farm.sol\":25292:25322  pow(10, _stakingTokensDecimal) */\n  0x20\n  shr\n  jump\t// in\ntag_16:\n    /* \"Farm.sol\":25265:25289  stakingTokensDecimalRate */\n  0x09\n    /* \"Farm.sol\":25265:25322  stakingTokensDecimalRate = pow(10, _stakingTokensDecimal) */\n  dup2\n  swap1\n  sstore\n  pop\n    /* \"Farm.sol\":25355:25368  _rewardsToken */\n  dup4\n    /* \"Farm.sol\":25333:25345  rewardsToken */\n  0x02\n  0x00\n    /* \"Farm.sol\":25333:25369  rewardsToken = IERC20(_rewardsToken) */\n  0x0100\n  exp\n  dup2\n  sload\n  dup2\n  0xffffffffffffffffffffffffffffffffffffffff\n  mul\n  not\n  and\n  swap1\n  dup4\n  0xffffffffffffffffffffffffffffffffffffffff\n  and\n  mul\n  or\n  swap1\n  sstore\n  pop\n    /* \"Farm.sol\":25402:25415  _stakingToken */\n  dup3\n    /* \"Farm.sol\":25380:25392  stakingToken */\n  0x03\n  0x00\n    /* \"Farm.sol\":25380:25416  stakingToken = IERC20(_stakingToken) */\n  0x0100\n  exp\n  dup2\n  sload\n  dup2\n  0xffffffffffffffffffffffffffffffffffffffff\n  mul\n  not\n  and\n  swap1\n  dup4\n  0xffffffffffffffffffffffffffffffffffffffff\n  and\n  mul\n  or\n  swap1\n  sstore\n  pop\n    /* \"Farm.sol\":25445:25461  _rewardsDuration */\n  dup2\n    /* \"Farm.sol\":25427:25442  rewardsDuration */\n  0x06\n    /* \"Farm.sol\":25427:25461  rewardsDuration = _rewardsDuration */\n  dup2\n  swap1\n  sstore\n  pop\n    /* \"Farm.sol\":25093:25469  constructor (\r... */\n  pop\n  pop\n  pop\n  pop\n    /* \"Farm.sol\":24330:31478  contract Farm is ReentrancyGuard, Pausable, Ownable {\r... */\n  jump(tag_18)\n    /* \"Farm.sol\":10474:10572  function _msgSender() internal view virtual returns (address) {\r... */\ntag_13:\n    /* \"Farm.sol\":10527:10534  address */\n  0x00\n    /* \"Farm.sol\":10554:10564  msg.sender */\n  caller\n    /* \"Farm.sol\":10547:10564  return msg.sender */\n  swap1\n  pop\n    /* \"Farm.sol\":10474:10572  function _msgSender() internal view virtual returns (address) {\r... */\n  swap1\n  jump\t// out\n    /* \"Farm.sol\":24132:24323  function _transferOwnership(address newOwner) internal virtual {\r... */\ntag_14:\n    /* \"Farm.sol\":24206:24222  address oldOwner */\n  0x00\n    /* \"Farm.sol\":24225:24231  _owner */\n  0x01\n  dup1\n  sload\n  swap1\n  0x0100\n  exp\n  swap1\n  div\n  0xffffffffffffffffffffffffffffffffffffffff\n  and\n    /* \"Farm.sol\":24206:24231  address oldOwner = _owner */\n  swap1\n  pop\n    /* \"Farm.sol\":24251:24259  newOwner */\n  dup2\n    /* \"Farm.sol\":24242:24248  _owner */\n  0x01\n  dup1\n    /* \"Farm.sol\":24242:24259  _owner = newOwner */\n  0x0100\n  exp\n  dup2\n  sload\n  dup2\n  0xffffffffffffffffffffffffffffffffffffffff\n  mul\n  not\n  and\n  swap1\n  dup4\n  0xffffffffffffffffffffffffffffffffffffffff\n  and\n  mul\n  or\n  swap1\n  sstore\n  pop\n    /* \"Farm.sol\":24306:24314  newOwner */\n  dup2\n    /* \"Farm.sol\":24275:24315  OwnershipTransferred(oldOwner, newOwner) */\n  0xffffffffffffffffffffffffffffffffffffffff\n  and\n    /* \"Farm.sol\":24296:24304  oldOwner */\n  dup2\n    /* \"Farm.sol\":24275:24315  OwnershipTransferred(oldOwner, newOwner) */\n  0xffffffffffffffffffffffffffffffffffffffff\n  and\n  0x8be0079c531659141344cd1fd0a4f28419497f9722a3daafe3b4186f6b6457e0\n  mload(0x40)\n  mload(0x40)\n  dup1\n  swap2\n  sub\n  swap1\n  log3\n    /* \"Farm.sol\":24195:24323  {\r... */\n  pop\n    /* \"Farm.sol\":24132:24323  function _transferOwnership(address newOwner) internal virtual {\r... */\n  pop\n  jump\t// out\n    /* \"Farm.sol\":25623:25987  function pow(uint n, uint e) public pure returns (uint) {\r... */\ntag_17:\n    /* \"Farm.sol\":25673:25677  uint */\n  0x00\n    /* \"Farm.sol\":25701:25702  0 */\n  dup1\n    /* \"Farm.sol\":25696:25697  e */\n  dup3\n    /* \"Farm.sol\":25696:25702  e == 0 */\n  eq\n    /* \"Farm.sol\":25692:25980  if (e == 0) {\r... */\n  iszero\n  tag_22\n  jumpi\n    /* \"Farm.sol\":25726:25727  1 */\n  0x01\n    /* \"Farm.sol\":25719:25727  return 1 */\n  swap1\n  pop\n  jump(tag_21)\n    /* \"Farm.sol\":25692:25980  if (e == 0) {\r... */\ntag_22:\n    /* \"Farm.sol\":25754:25755  1 */\n  0x01\n    /* \"Farm.sol\":25749:25750  e */\n  dup3\n    /* \"Farm.sol\":25749:25755  e == 1 */\n  eq\n    /* \"Farm.sol\":25745:25980  if (e == 1) {\r... */\n  iszero\n  tag_24\n  jumpi\n    /* \"Farm.sol\":25779:25780  n */\n  dup3\n    /* \"Farm.sol\":25772:25780  return n */\n  swap1\n  pop\n  jump(tag_21)\n    /* \"Farm.sol\":25745:25980  if (e == 1) {\r... */\ntag_24:\n    /* \"Farm.sol\":25813:25819  uint p */\n  0x00\n    /* \"Farm.sol\":25822:25838  pow(n, e.div(2)) */\n  tag_26\n    /* \"Farm.sol\":25826:25827  n */\n  dup5\n    /* \"Farm.sol\":25829:25837  e.div(2) */\n  tag_27\n    /* \"Farm.sol\":25835:25836  2 */\n  0x02\n    /* \"Farm.sol\":25829:25830  e */\n  dup7\n    /* \"Farm.sol\":25829:25834  e.div */\n  or(tag_0_137, shl(0x20, tag_28))\n  swap1\n    /* \"Farm.sol\":25829:25837  e.div(2) */\n  swap2\n  swap1\n  0x20\n  shr\n  jump\t// in\ntag_27:\n    /* \"Farm.sol\":25822:25825  pow */\n  shl(0x20, tag_17)\n    /* \"Farm.sol\":25822:25838  pow(n, e.div(2)) */\n  0x20\n  shr\n  jump\t// in\ntag_26:\n    /* \"Farm.sol\":25813:25838  uint p = pow(n, e.div(2)) */\n  swap1\n  pop\n    /* \"Farm.sol\":25857:25865  p.mul(p) */\n  tag_29\n    /* \"Farm.sol\":25863:25864  p */\n  dup2\n    /* \"Farm.sol\":25857:25858  p */\n  dup3\n    /* \"Farm.sol\":25857:25862  p.mul */\n  or(tag_0_138, shl(0x20, tag_30))\n  swap1\n    /* \"Farm.sol\":25857:25865  p.mul(p) */\n  swap2\n  swap1\n  0x20\n  shr\n  jump\t// in\ntag_29:\n    /* \"Farm.sol\":25853:25865  p = p.mul(p) */\n  swap1\n  pop\n    /* \"Farm.sol\":25896:25897  1 */\n  0x01\n    /* \"Farm.sol\":25884:25892  e.mod(2) */\n  tag_31\n    /* \"Farm.sol\":25890:25891  2 */\n  0x02\n    /* \"Farm.sol\":25884:25885  e */\n  dup6\n    /* \"Farm.sol\":25884:25889  e.mod */\n  or(tag_0_139, shl(0x20, tag_32))\n  swap1\n    /* \"Farm.sol\":25884:25892  e.mod(2) */\n  swap2\n  swap1\n  0x20\n  shr\n  jump\t// in\ntag_31:\n    /* \"Farm.sol\":25884:25897  e.mod(2) == 1 */\n  eq\n    /* \"Farm.sol\":25880:25946  if (e.mod(2) == 1) {\r... */\n  iszero\n  tag_33\n  jumpi\n    /* \"Farm.sol\":25922:25930  p.mul(n) */\n  tag_34\n    /* \"Farm.sol\":25928:25929  n */\n  dup5\n    /* \"Farm.sol\":25922:25923  p */\n  dup3\n    /* \"Farm.sol\":25922:25927  p.mul */\n  or(tag_0_138, shl(0x20, tag_30))\n  swap1\n    /* \"Farm.sol\":25922:25930  p.mul(n) */\n  swap2\n  swap1\n  0x20\n  shr\n  jump\t// in\ntag_34:\n    /* \"Farm.sol\":25918:25930  p = p.mul(n) */\n  swap1\n  pop\n    /* \"Farm.sol\":25880:25946  if (e.mod(2) == 1) {\r... */\ntag_33:\n    /* \"Farm.sol\":25967:25968  p */\n  dup1\n    /* \"Farm.sol\":25960:25968  return p */\n  swap2\n  pop\n  pop\n    /* \"Farm.sol\":25623:25987  function pow(uint n, uint e) public pure returns (uint) {\r... */\ntag_21:\n  swap3\n  swap2\n  pop\n  pop\n  jump\t// out\n    /* \"Farm.sol\":16971:17103  function div(uint256 a, uint256 b) internal pure returns (uint256) {\r... */\ntag_28:\n    /* \"Farm.sol\":17029:17036  uint256 */\n  0x00\n    /* \"Farm.sol\":17056:17095  div(a, b, \"SafeMath: division by zero\") */\n  tag_36\n    /* \"Farm.sol\":17060:17061  a */\n  dup4\n    /* \"Farm.sol\":17063:17064  b */\n  dup4\n    /* \"Farm.sol\":17056:17095  div(a, b, \"SafeMath: division by zero\") */\n  mload(0x40)\n  dup1\n  0x40\n  add\n  0x40\n  mstore\n  dup1\n  0x1a\n  dup2\n  mstore\n  0x20\n  add\n  0x536166654d6174683a206469766973696f6e206279207a65726f000000000000\n  dup2\n  mstore\n  pop\n    /* \"Farm.sol\":17056:17059  div */\n  shl(0x20, tag_37)\n    /* \"Farm.sol\":17056:17095  div(a, b, \"SafeMath: division by zero\") */\n  0x20\n  shr\n  jump\t// in\ntag_36:\n    /* \"Farm.sol\":17049:17095  return div(a, b, \"SafeMath: division by zero\") */\n  swap1\n  pop\n    /* \"Farm.sol\":16971:17103  function div(uint256 a, uint256 b) internal pure returns (uint256) {\r... */\n  swap3\n  swap2\n  pop\n  pop\n  jump\t// out\n    /* \"Farm.sol\":16024:16495  function mul(uint256 a, uint256 b) internal pure returns (uint256) {\r... */\ntag_30:\n    /* \"Farm.sol\":16082:16089  uint256 */\n  0x00\n    /* \"Farm.sol\":16332:16333  0 */\n  dup1\n    /* \"Farm.sol\":16327:16328  a */\n  dup4\n    /* \"Farm.sol\":16327:16333  a == 0 */\n  eq\n    /* \"Farm.sol\":16323:16370  if (a == 0) {\r... */\n  iszero\n  tag_39\n  jumpi\n    /* \"Farm.sol\":16357:16358  0 */\n  0x00\n    /* \"Farm.sol\":16350:16358  return 0 */\n  swap1\n  pop\n  jump(tag_38)\n    /* \"Farm.sol\":16323:16370  if (a == 0) {\r... */\ntag_39:\n    /* \"Farm.sol\":16382:16391  uint256 c */\n  0x00\n    /* \"Farm.sol\":16398:16399  b */\n  dup3\n    /* \"Farm.sol\":16394:16395  a */\n  dup5\n    /* \"Farm.sol\":16394:16399  a * b */\n  tag_40\n  swap2\n  swap1\n  tag_41\n  jump\t// in\ntag_40:\n    /* \"Farm.sol\":16382:16399  uint256 c = a * b */\n  swap1\n  pop\n    /* \"Farm.sol\":16427:16428  b */\n  dup3\n    /* \"Farm.sol\":16422:16423  a */\n  dup5\n    /* \"Farm.sol\":16418:16419  c */\n  dup3\n    /* \"Farm.sol\":16418:16423  c / a */\n  tag_42\n  swap2\n  swap1\n  tag_43\n  jump\t// in\ntag_42:\n    /* \"Farm.sol\":16418:16428  c / a == b */\n  eq\n    /* \"Farm.sol\":16410:16466  require(c / a == b, \"SafeMath: multiplication overflow\") */\n  tag_44\n  jumpi\n  mload(0x40)\n  0x08c379a000000000000000000000000000000000000000000000000000000000\n  dup2\n  mstore\n  0x04\n  add\n  tag_45\n  swap1\n  tag_46\n  jump\t// in\ntag_45:\n  mload(0x40)\n  dup1\n  swap2\n  sub\n  swap1\n  revert\ntag_44:\n    /* \"Farm.sol\":16486:16487  c */\n  dup1\n    /* \"Farm.sol\":16479:16487  return c */\n  swap2\n  pop\n  pop\n    /* \"Farm.sol\":16024:16495  function mul(uint256 a, uint256 b) internal pure returns (uint256) {\r... */\ntag_38:\n  swap3\n  swap2\n  pop\n  pop\n  jump\t// out\n    /* \"Farm.sol\":18342:18472  function mod(uint256 a, uint256 b) internal pure returns (uint256) {\r... */\ntag_32:\n    /* \"Farm.sol\":18400:18407  uint256 */\n  0x00\n    /* \"Farm.sol\":18427:18464  mod(a, b, \"SafeMath: modulo by zero\") */\n  tag_48\n    /* \"Farm.sol\":18431:18432  a */\n  dup4\n    /* \"Farm.sol\":18434:18435  b */\n  dup4\n    /* \"Farm.sol\":18427:18464  mod(a, b, \"SafeMath: modulo by zero\") */\n  mload(0x40)\n  dup1\n  0x40\n  add\n  0x40\n  mstore\n  dup1\n  0x18\n  dup2\n  mstore\n  0x20\n  add\n  0x536166654d6174683a206d6f64756c6f206279207a65726f0000000000000000\n  dup2\n  mstore\n  pop\n    /* \"Farm.sol\":18427:18430  mod */\n  shl(0x20, tag_49)\n    /* \"Farm.sol\":18427:18464  mod(a, b, \"SafeMath: modulo by zero\") */\n  0x20\n  shr\n  jump\t// in\ntag_48:\n    /* \"Farm.sol\":18420:18464  return mod(a, b, \"SafeMath: modulo by zero\") */\n  swap1\n  pop\n    /* \"Farm.sol\":18342:18472  function mod(uint256 a, uint256 b) internal pure returns (uint256) {\r... */\n  swap3\n  swap2\n  pop\n  pop\n  jump\t// out\n    /* \"Farm.sol\":17599:17877  function div(uint256 a, uint256 b, string memory errorMessage) internal pure returns (uint256) {\r... */\ntag_37:\n    /* \"Farm.sol\":17685:17692  uint256 */\n  0x00\n    /* \"Farm.sol\":17717:17718  0 */\n  dup1\n    /* \"Farm.sol\":17713:17714  b */\n  dup4\n    /* \"Farm.sol\":17713:17718  b > 0 */\n  gt\n    /* \"Farm.sol\":17720:17732  errorMessage */\n  dup3\n    /* \"Farm.sol\":17705:17733  require(b > 0, errorMessage) */\n  swap1\n  tag_51\n  jumpi\n  mload(0x40)\n  0x08c379a000000000000000000000000000000000000000000000000000000000\n  dup2\n  mstore\n  0x04\n  add\n  tag_52\n  swap2\n  swap1\n  tag_53\n  jump\t// in\ntag_52:\n  mload(0x40)\n  dup1\n  swap2\n  sub\n  swap1\n  revert\ntag_51:\n  pop\n    /* \"Farm.sol\":17744:17753  uint256 c */\n  0x00\n    /* \"Farm.sol\":17760:17761  b */\n  dup4\n    /* \"Farm.sol\":17756:17757  a */\n  dup6\n    /* \"Farm.sol\":17756:17761  a / b */\n  tag_54\n  swap2\n  swap1\n  tag_43\n  jump\t// in\ntag_54:\n    /* \"Farm.sol\":17744:17761  uint256 c = a / b */\n  swap1\n  pop\n    /* \"Farm.sol\":17868:17869  c */\n  dup1\n    /* \"Farm.sol\":17861:17869  return c */\n  swap2\n  pop\n  pop\n    /* \"Farm.sol\":17599:17877  function div(uint256 a, uint256 b, string memory errorMessage) internal pure returns (uint256) {\r... */\n  swap4\n  swap3\n  pop\n  pop\n  pop\n  jump\t// out\n    /* \"Farm.sol\":18957:19123  function mod(uint256 a, uint256 b, string memory errorMessage) internal pure returns (uint256) {\r... */\ntag_49:\n    /* \"Farm.sol\":19043:19050  uint256 */\n  0x00\n    /* \"Farm.sol\":19076:19077  0 */\n  dup1\n    /* \"Farm.sol\":19071:19072  b */\n  dup4\n    /* \"Farm.sol\":19071:19077  b != 0 */\n  eq\n  iszero\n    /* \"Farm.sol\":19079:19091  errorMessage */\n  dup3\n    /* \"Farm.sol\":19063:19092  require(b != 0, errorMessage) */\n  swap1\n  tag_56\n  jumpi\n  mload(0x40)\n  0x08c379a000000000000000000000000000000000000000000000000000000000\n  dup2\n  mstore\n  0x04\n  add\n  tag_57\n  swap2\n  swap1\n  tag_53\n  jump\t// in\ntag_57:\n  mload(0x40)\n  dup1\n  swap2\n  sub\n  swap1\n  revert\ntag_56:\n  pop\n    /* \"Farm.sol\":19114:19115  b */\n  dup3\n    /* \"Farm.sol\":19110:19111  a */\n  dup5\n    /* \"Farm.sol\":19110:19115  a % b */\n  tag_58\n  swap2\n  swap1\n  tag_59\n  jump\t// in\ntag_58:\n    /* \"Farm.sol\":19103:19115  return a % b */\n  swap1\n  pop\n    /* \"Farm.sol\":18957:19123  function mod(uint256 a, uint256 b, string memory errorMessage) internal pure returns (uint256) {\r... */\n  swap4\n  swap3\n  pop\n  pop\n  pop\n  jump\t// out\n    /* \"#utility.yul\":7:150   */\ntag_61:\n    /* \"#utility.yul\":64:69   */\n  0x00\n    /* \"#utility.yul\":95:101   */\n  dup2\n    /* \"#utility.yul\":89:102   */\n  mload\n    /* \"#utility.yul\":80:102   */\n  swap1\n  pop\n    /* \"#utility.yul\":111:144   */\n  tag_63\n    /* \"#utility.yul\":138:143   */\n  dup2\n    /* \"#utility.yul\":111:144   */\n  tag_64\n  jump\t// in\ntag_63:\n    /* \"#utility.yul\":7:150   */\n  swap3\n  swap2\n  pop\n  pop\n  jump\t// out\n    /* \"#utility.yul\":156:299   */\ntag_65:\n    /* \"#utility.yul\":213:218   */\n  0x00\n    /* \"#utility.yul\":244:250   */\n  dup2\n    /* \"#utility.yul\":238:251   */\n  mload\n    /* \"#utility.yul\":229:251   */\n  swap1\n  pop\n    /* \"#utility.yul\":260:293   */\n  tag_67\n    /* \"#utility.yul\":287:292   */\n  dup2\n    /* \"#utility.yul\":260:293   */\n  tag_68\n  jump\t// in\ntag_67:\n    /* \"#utility.yul\":156:299   */\n  swap3\n  swap2\n  pop\n  pop\n  jump\t// out\n    /* \"#utility.yul\":305:1125   */\ntag_3:\n    /* \"#utility.yul\":402:408   */\n  0x00\n    /* \"#utility.yul\":410:416   */\n  dup1\n    /* \"#utility.yul\":418:424   */\n  0x00\n    /* \"#utility.yul\":426:432   */\n  dup1\n    /* \"#utility.yul\":475:478   */\n  0x80\n    /* \"#utility.yul\":463:472   */\n  dup6\n    /* \"#utility.yul\":454:461   */\n  dup8\n    /* \"#utility.yul\":450:473   */\n  sub\n    /* \"#utility.yul\":446:479   */\n  slt\n    /* \"#utility.yul\":443:563   */\n  iszero\n  tag_70\n  jumpi\n    /* \"#utility.yul\":482:561   */\n  tag_71\n  tag_72\n  jump\t// in\ntag_71:\n    /* \"#utility.yul\":443:563   */\ntag_70:\n    /* \"#utility.yul\":602:603   */\n  0x00\n    /* \"#utility.yul\":627:691   */\n  tag_73\n    /* \"#utility.yul\":683:690   */\n  dup8\n    /* \"#utility.yul\":674:680   */\n  dup3\n    /* \"#utility.yul\":663:672   */\n  dup9\n    /* \"#utility.yul\":659:681   */\n  add\n    /* \"#utility.yul\":627:691   */\n  tag_61\n  jump\t// in\ntag_73:\n    /* \"#utility.yul\":617:691   */\n  swap5\n  pop\n    /* \"#utility.yul\":573:701   */\n  pop\n    /* \"#utility.yul\":740:742   */\n  0x20\n    /* \"#utility.yul\":766:830   */\n  tag_74\n    /* \"#utility.yul\":822:829   */\n  dup8\n    /* \"#utility.yul\":813:819   */\n  dup3\n    /* \"#utility.yul\":802:811   */\n  dup9\n    /* \"#utility.yul\":798:820   */\n  add\n    /* \"#utility.yul\":766:830   */\n  tag_61\n  jump\t// in\ntag_74:\n    /* \"#utility.yul\":756:830   */\n  swap4\n  pop\n    /* \"#utility.yul\":711:840   */\n  pop\n    /* \"#utility.yul\":879:881   */\n  0x40\n    /* \"#utility.yul\":905:969   */\n  tag_75\n    /* \"#utility.yul\":961:968   */\n  dup8\n    /* \"#utility.yul\":952:958   */\n  dup3\n    /* \"#utility.yul\":941:950   */\n  dup9\n    /* \"#utility.yul\":937:959   */\n  add\n    /* \"#utility.yul\":905:969   */\n  tag_65\n  jump\t// in\ntag_75:\n    /* \"#utility.yul\":895:969   */\n  swap3\n  pop\n    /* \"#utility.yul\":850:979   */\n  pop\n    /* \"#utility.yul\":1018:1020   */\n  0x60\n    /* \"#utility.yul\":1044:1108   */\n  tag_76\n    /* \"#utility.yul\":1100:1107   */\n  dup8\n    /* \"#utility.yul\":1091:1097   */\n  dup3\n    /* \"#utility.yul\":1080:1089   */\n  dup9\n    /* \"#utility.yul\":1076:1098   */\n  add\n    /* \"#utility.yul\":1044:1108   */\n  tag_65\n  jump\t// in\ntag_76:\n    /* \"#utility.yul\":1034:1108   */\n  swap2\n  pop\n    /* \"#utility.yul\":989:1118   */\n  pop\n    /* \"#utility.yul\":305:1125   */\n  swap3\n  swap6\n  swap2\n  swap5\n  pop\n  swap3\n  pop\n  jump\t// out\n    /* \"#utility.yul\":1131:1495   */\ntag_77:\n    /* \"#utility.yul\":1219:1222   */\n  0x00\n    /* \"#utility.yul\":1247:1286   */\n  tag_79\n    /* \"#utility.yul\":1280:1285   */\n  dup3\n    /* \"#utility.yul\":1247:1286   */\n  tag_80\n  jump\t// in\ntag_79:\n    /* \"#utility.yul\":1302:1373   */\n  tag_81\n    /* \"#utility.yul\":1366:1372   */\n  dup2\n    /* \"#utility.yul\":1361:1364   */\n  dup6\n    /* \"#utility.yul\":1302:1373   */\n  tag_82\n  jump\t// in\ntag_81:\n    /* \"#utility.yul\":1295:1373   */\n  swap4\n  pop\n    /* \"#utility.yul\":1382:1434   */\n  tag_83\n    /* \"#utility.yul\":1427:1433   */\n  dup2\n    /* \"#utility.yul\":1422:1425   */\n  dup6\n    /* \"#utility.yul\":1415:1419   */\n  0x20\n    /* \"#utility.yul\":1408:1413   */\n  dup7\n    /* \"#utility.yul\":1404:1420   */\n  add\n    /* \"#utility.yul\":1382:1434   */\n  tag_84\n  jump\t// in\ntag_83:\n    /* \"#utility.yul\":1459:1488   */\n  tag_85\n    /* \"#utility.yul\":1481:1487   */\n  dup2\n    /* \"#utility.yul\":1459:1488   */\n  tag_86\n  jump\t// in\ntag_85:\n    /* \"#utility.yul\":1454:1457   */\n  dup5\n    /* \"#utility.yul\":1450:1489   */\n  add\n    /* \"#utility.yul\":1443:1489   */\n  swap2\n  pop\n    /* \"#utility.yul\":1223:1495   */\n  pop\n    /* \"#utility.yul\":1131:1495   */\n  swap3\n  swap2\n  pop\n  pop\n  jump\t// out\n    /* \"#utility.yul\":1501:1867   */\ntag_87:\n    /* \"#utility.yul\":1643:1646   */\n  0x00\n    /* \"#utility.yul\":1664:1731   */\n  tag_89\n    /* \"#utility.yul\":1728:1730   */\n  0x21\n    /* \"#utility.yul\":1723:1726   */\n  dup4\n    /* \"#utility.yul\":1664:1731   */\n  tag_82\n  jump\t// in\ntag_89:\n    /* \"#utility.yul\":1657:1731   */\n  swap2\n  pop\n    /* \"#utility.yul\":1740:1833   */\n  tag_90\n    /* \"#utility.yul\":1829:1832   */\n  dup3\n    /* \"#utility.yul\":1740:1833   */\n  tag_91\n  jump\t// in\ntag_90:\n    /* \"#utility.yul\":1858:1860   */\n  0x40\n    /* \"#utility.yul\":1853:1856   */\n  dup3\n    /* \"#utility.yul\":1849:1861   */\n  add\n    /* \"#utility.yul\":1842:1861   */\n  swap1\n  pop\n    /* \"#utility.yul\":1501:1867   */\n  swap2\n  swap1\n  pop\n  jump\t// out\n    /* \"#utility.yul\":1873:2186   */\ntag_53:\n    /* \"#utility.yul\":1986:1990   */\n  0x00\n    /* \"#utility.yul\":2024:2026   */\n  0x20\n    /* \"#utility.yul\":2013:2022   */\n  dup3\n    /* \"#utility.yul\":2009:2027   */\n  add\n    /* \"#utility.yul\":2001:2027   */\n  swap1\n  pop\n    /* \"#utility.yul\":2073:2082   */\n  dup2\n    /* \"#utility.yul\":2067:2071   */\n  dup2\n    /* \"#utility.yul\":2063:2083   */\n  sub\n    /* \"#utility.yul\":2059:2060   */\n  0x00\n    /* \"#utility.yul\":2048:2057   */\n  dup4\n    /* \"#utility.yul\":2044:2061   */\n  add\n    /* \"#utility.yul\":2037:2084   */\n  mstore\n    /* \"#utility.yul\":2101:2179   */\n  tag_93\n    /* \"#utility.yul\":2174:2178   */\n  dup2\n    /* \"#utility.yul\":2165:2171   */\n  dup5\n    /* \"#utility.yul\":2101:2179   */\n  tag_77\n  jump\t// in\ntag_93:\n    /* \"#utility.yul\":2093:2179   */\n  swap1\n  pop\n    /* \"#utility.yul\":1873:2186   */\n  swap3\n  swap2\n  pop\n  pop\n  jump\t// out\n    /* \"#utility.yul\":2192:2611   */\ntag_46:\n    /* \"#utility.yul\":2358:2362   */\n  0x00\n    /* \"#utility.yul\":2396:2398   */\n  0x20\n    /* \"#utility.yul\":2385:2394   */\n  dup3\n    /* \"#utility.yul\":2381:2399   */\n  add\n    /* \"#utility.yul\":2373:2399   */\n  swap1\n  pop\n    /* \"#utility.yul\":2445:2454   */\n  dup2\n    /* \"#utility.yul\":2439:2443   */\n  dup2\n    /* \"#utility.yul\":2435:2455   */\n  sub\n    /* \"#utility.yul\":2431:2432   */\n  0x00\n    /* \"#utility.yul\":2420:2429   */\n  dup4\n    /* \"#utility.yul\":2416:2433   */\n  add\n    /* \"#utility.yul\":2409:2456   */\n  mstore\n    /* \"#utility.yul\":2473:2604   */\n  tag_95\n    /* \"#utility.yul\":2599:2603   */\n  dup2\n    /* \"#utility.yul\":2473:2604   */\n  tag_87\n  jump\t// in\ntag_95:\n    /* \"#utility.yul\":2465:2604   */\n  swap1\n  pop\n    /* \"#utility.yul\":2192:2611   */\n  swap2\n  swap1\n  pop\n  jump\t// out\n    /* \"#utility.yul\":2698:2797   */\ntag_80:\n    /* \"#utility.yul\":2750:2756   */\n  0x00\n    /* \"#utility.yul\":2784:2789   */\n  dup2\n    /* \"#utility.yul\":2778:2790   */\n  mload\n    /* \"#utility.yul\":2768:2790   */\n  swap1\n  pop\n    /* \"#utility.yul\":2698:2797   */\n  swap2\n  swap1\n  pop\n  jump\t// out\n    /* \"#utility.yul\":2803:2972   */\ntag_82:\n    /* \"#utility.yul\":2887:2898   */\n  0x00\n    /* \"#utility.yul\":2921:2927   */\n  dup3\n    /* \"#utility.yul\":2916:2919   */\n  dup3\n    /* \"#utility.yul\":2909:2928   */\n  mstore\n    /* \"#utility.yul\":2961:2965   */\n  0x20\n    /* \"#utility.yul\":2956:2959   */\n  dup3\n    /* \"#utility.yul\":2952:2966   */\n  add\n    /* \"#utility.yul\":2937:2966   */\n  swap1\n  pop\n    /* \"#utility.yul\":2803:2972   */\n  swap3\n  swap2\n  pop\n  pop\n  jump\t// out\n    /* \"#utility.yul\":2978:3163   */\ntag_43:\n    /* \"#utility.yul\":3018:3019   */\n  0x00\n    /* \"#utility.yul\":3035:3055   */\n  tag_101\n    /* \"#utility.yul\":3053:3054   */\n  dup3\n    /* \"#utility.yul\":3035:3055   */\n  tag_102\n  jump\t// in\ntag_101:\n    /* \"#utility.yul\":3030:3055   */\n  swap2\n  pop\n    /* \"#utility.yul\":3069:3089   */\n  tag_103\n    /* \"#utility.yul\":3087:3088   */\n  dup4\n    /* \"#utility.yul\":3069:3089   */\n  tag_102\n  jump\t// in\ntag_103:\n    /* \"#utility.yul\":3064:3089   */\n  swap3\n  pop\n    /* \"#utility.yul\":3108:3109   */\n  dup3\n    /* \"#utility.yul\":3098:3133   */\n  tag_104\n  jumpi\n    /* \"#utility.yul\":3113:3131   */\n  tag_105\n  tag_106\n  jump\t// in\ntag_105:\n    /* \"#utility.yul\":3098:3133   */\ntag_104:\n    /* \"#utility.yul\":3155:3156   */\n  dup3\n    /* \"#utility.yul\":3152:3153   */\n  dup3\n    /* \"#utility.yul\":3148:3157   */\n  div\n    /* \"#utility.yul\":3143:3157   */\n  swap1\n  pop\n    /* \"#utility.yul\":2978:3163   */\n  swap3\n  swap2\n  pop\n  pop\n  jump\t// out\n    /* \"#utility.yul\":3169:3517   */\ntag_41:\n    /* \"#utility.yul\":3209:3216   */\n  0x00\n    /* \"#utility.yul\":3232:3252   */\n  tag_108\n    /* \"#utility.yul\":3250:3251   */\n  dup3\n    /* \"#utility.yul\":3232:3252   */\n  tag_102\n  jump\t// in\ntag_108:\n    /* \"#utility.yul\":3227:3252   */\n  swap2\n  pop\n    /* \"#utility.yul\":3266:3286   */\n  tag_109\n    /* \"#utility.yul\":3284:3285   */\n  dup4\n    /* \"#utility.yul\":3266:3286   */\n  tag_102\n  jump\t// in\ntag_109:\n    /* \"#utility.yul\":3261:3286   */\n  swap3\n  pop\n    /* \"#utility.yul\":3454:3455   */\n  dup2\n    /* \"#utility.yul\":3386:3452   */\n  0xffffffffffffffffffffffffffffffffffffffffffffffffffffffffffffffff\n    /* \"#utility.yul\":3382:3456   */\n  div\n    /* \"#utility.yul\":3379:3380   */\n  dup4\n    /* \"#utility.yul\":3376:3457   */\n  gt\n    /* \"#utility.yul\":3371:3372   */\n  dup3\n    /* \"#utility.yul\":3364:3373   */\n  iszero\n    /* \"#utility.yul\":3357:3374   */\n  iszero\n    /* \"#utility.yul\":3353:3458   */\n  and\n    /* \"#utility.yul\":3350:3481   */\n  iszero\n  tag_110\n  jumpi\n    /* \"#utility.yul\":3461:3479   */\n  tag_111\n  tag_112\n  jump\t// in\ntag_111:\n    /* \"#utility.yul\":3350:3481   */\ntag_110:\n    /* \"#utility.yul\":3509:3510   */\n  dup3\n    /* \"#utility.yul\":3506:3507   */\n  dup3\n    /* \"#utility.yul\":3502:3511   */\n  mul\n    /* \"#utility.yul\":3491:3511   */\n  swap1\n  pop\n    /* \"#utility.yul\":3169:3517   */\n  swap3\n  swap2\n  pop\n  pop\n  jump\t// out\n    /* \"#utility.yul\":3523:3619   */\ntag_113:\n    /* \"#utility.yul\":3560:3567   */\n  0x00\n    /* \"#utility.yul\":3589:3613   */\n  tag_115\n    /* \"#utility.yul\":3607:3612   */\n  dup3\n    /* \"#utility.yul\":3589:3613   */\n  tag_116\n  jump\t// in\ntag_115:\n    /* \"#utility.yul\":3578:3613   */\n  swap1\n  pop\n    /* \"#utility.yul\":3523:3619   */\n  swap2\n  swap1\n  pop\n  jump\t// out\n    /* \"#utility.yul\":3625:3751   */\ntag_116:\n    /* \"#utility.yul\":3662:3669   */\n  0x00\n    /* \"#utility.yul\":3702:3744   */\n  0xffffffffffffffffffffffffffffffffffffffff\n    /* \"#utility.yul\":3695:3700   */\n  dup3\n    /* \"#utility.yul\":3691:3745   */\n  and\n    /* \"#utility.yul\":3680:3745   */\n  swap1\n  pop\n    /* \"#utility.yul\":3625:3751   */\n  swap2\n  swap1\n  pop\n  jump\t// out\n    /* \"#utility.yul\":3757:3834   */\ntag_102:\n    /* \"#utility.yul\":3794:3801   */\n  0x00\n    /* \"#utility.yul\":3823:3828   */\n  dup2\n    /* \"#utility.yul\":3812:3828   */\n  swap1\n  pop\n    /* \"#utility.yul\":3757:3834   */\n  swap2\n  swap1\n  pop\n  jump\t// out\n    /* \"#utility.yul\":3840:4147   */\ntag_84:\n    /* \"#utility.yul\":3908:3909   */\n  0x00\n    /* \"#utility.yul\":3918:4031   */\ntag_120:\n    /* \"#utility.yul\":3932:3938   */\n  dup4\n    /* \"#utility.yul\":3929:3930   */\n  dup2\n    /* \"#utility.yul\":3926:3939   */\n  lt\n    /* \"#utility.yul\":3918:4031   */\n  iszero\n  tag_122\n  jumpi\n    /* \"#utility.yul\":4017:4018   */\n  dup1\n    /* \"#utility.yul\":4012:4015   */\n  dup3\n    /* \"#utility.yul\":4008:4019   */\n  add\n    /* \"#utility.yul\":4002:4020   */\n  mload\n    /* \"#utility.yul\":3998:3999   */\n  dup2\n    /* \"#utility.yul\":3993:3996   */\n  dup5\n    /* \"#utility.yul\":3989:4000   */\n  add\n    /* \"#utility.yul\":3982:4021   */\n  mstore\n    /* \"#utility.yul\":3954:3956   */\n  0x20\n    /* \"#utility.yul\":3951:3952   */\n  dup2\n    /* \"#utility.yul\":3947:3957   */\n  add\n    /* \"#utility.yul\":3942:3957   */\n  swap1\n  pop\n    /* \"#utility.yul\":3918:4031   */\n  jump(tag_120)\ntag_122:\n    /* \"#utility.yul\":4049:4055   */\n  dup4\n    /* \"#utility.yul\":4046:4047   */\n  dup2\n    /* \"#utility.yul\":4043:4056   */\n  gt\n    /* \"#utility.yul\":4040:4141   */\n  iszero\n  tag_123\n  jumpi\n    /* \"#utility.yul\":4129:4130   */\n  0x00\n    /* \"#utility.yul\":4120:4126   */\n  dup5\n    /* \"#utility.yul\":4115:4118   */\n  dup5\n    /* \"#utility.yul\":4111:4127   */\n  add\n    /* \"#utility.yul\":4104:4131   */\n  mstore\n    /* \"#utility.yul\":4040:4141   */\ntag_123:\n    /* \"#utility.yul\":3889:4147   */\n  pop\n    /* \"#utility.yul\":3840:4147   */\n  pop\n  pop\n  pop\n  jump\t// out\n    /* \"#utility.yul\":4153:4329   */\ntag_59:\n    /* \"#utility.yul\":4185:4186   */\n  0x00\n    /* \"#utility.yul\":4202:4222   */\n  tag_125\n    /* \"#utility.yul\":4220:4221   */\n  dup3\n    /* \"#utility.yul\":4202:4222   */\n  tag_102\n  jump\t// in\ntag_125:\n    /* \"#utility.yul\":4197:4222   */\n  swap2\n  pop\n    /* \"#utility.yul\":4236:4256   */\n  tag_126\n    /* \"#utility.yul\":4254:4255   */\n  dup4\n    /* \"#utility.yul\":4236:4256   */\n  tag_102\n  jump\t// in\ntag_126:\n    /* \"#utility.yul\":4231:4256   */\n  swap3\n  pop\n    /* \"#utility.yul\":4275:4276   */\n  dup3\n    /* \"#utility.yul\":4265:4300   */\n  tag_127\n  jumpi\n    /* \"#utility.yul\":4280:4298   */\n  tag_128\n  tag_106\n  jump\t// in\ntag_128:\n    /* \"#utility.yul\":4265:4300   */\ntag_127:\n    /* \"#utility.yul\":4321:4322   */\n  dup3\n    /* \"#utility.yul\":4318:4319   */\n  dup3\n    /* \"#utility.yul\":4314:4323   */\n  mod\n    /* \"#utility.yul\":4309:4323   */\n  swap1\n  pop\n    /* \"#utility.yul\":4153:4329   */\n  swap3\n  swap2\n  pop\n  pop\n  jump\t// out\n    /* \"#utility.yul\":4335:4515   */\ntag_112:\n    /* \"#utility.yul\":4383:4460   */\n  0x4e487b7100000000000000000000000000000000000000000000000000000000\n    /* \"#utility.yul\":4380:4381   */\n  0x00\n    /* \"#utility.yul\":4373:4461   */\n  mstore\n    /* \"#utility.yul\":4480:4484   */\n  0x11\n    /* \"#utility.yul\":4477:4478   */\n  0x04\n    /* \"#utility.yul\":4470:4485   */\n  mstore\n    /* \"#utility.yul\":4504:4508   */\n  0x24\n    /* \"#utility.yul\":4501:4502   */\n  0x00\n    /* \"#utility.yul\":4494:4509   */\n  revert\n    /* \"#utility.yul\":4521:4701   */\ntag_106:\n    /* \"#utility.yul\":4569:4646   */\n  0x4e487b7100000000000000000000000000000000000000000000000000000000\n    /* \"#utility.yul\":4566:4567   */\n  0x00\n    /* \"#utility.yul\":4559:4647   */\n  mstore\n    /* \"#utility.yul\":4666:4670   */\n  0x12\n    /* \"#utility.yul\":4663:4664   */\n  0x04\n    /* \"#utility.yul\":4656:4671   */\n  mstore\n    /* \"#utility.yul\":4690:4694   */\n  0x24\n    /* \"#utility.yul\":4687:4688   */\n  0x00\n    /* \"#utility.yul\":4680:4695   */\n  revert\n    /* \"#utility.yul\":4830:4947   */\ntag_72:\n    /* \"#utility.yul\":4939:4940   */\n  0x00\n    /* \"#utility.yul\":4936:4937   */\n  dup1\n    /* \"#utility.yul\":4929:4941   */\n  revert\n    /* \"#utility.yul\":4953:5055   */\ntag_86:\n    /* \"#utility.yul\":4994:5000   */\n  0x00\n    /* \"#utility.yul\":5045:5047   */\n  0x1f\n    /* \"#utility.yul\":5041:5048   */\n  not\n    /* \"#utility.yul\":5036:5038   */\n  0x1f\n    /* \"#utility.yul\":5029:5034   */\n  dup4\n    /* \"#utility.yul\":5025:5039   */\n  add\n    /* \"#utility.yul\":5021:5049   */\n  and\n    /* \"#utility.yul\":5011:5049   */\n  swap1\n  pop\n    /* \"#utility.yul\":4953:5055   */\n  swap2\n  swap1\n  pop\n  jump\t// out\n    /* \"#utility.yul\":5061:5281   */\ntag_91:\n    /* \"#utility.yul\":5201:5235   */\n  0x536166654d6174683a206d756c7469706c69636174696f6e206f766572666c6f\n    /* \"#utility.yul\":5197:5198   */\n  0x00\n    /* \"#utility.yul\":5189:5195   */\n  dup3\n    /* \"#utility.yul\":5185:5199   */\n  add\n    /* \"#utility.yul\":5178:5236   */\n  mstore\n    /* \"#utility.yul\":5270:5273   */\n  0x7700000000000000000000000000000000000000000000000000000000000000\n    /* \"#utility.yul\":5265:5267   */\n  0x20\n    /* \"#utility.yul\":5257:5263   */\n  dup3\n    /* \"#utility.yul\":5253:5268   */\n  add\n    /* \"#utility.yul\":5246:5274   */\n  mstore\n    /* \"#utility.yul\":5061:5281   */\n  pop\n  jump\t// out\n    /* \"#utility.yul\":5287:5409   */\ntag_64:\n    /* \"#utility.yul\":5360:5384   */\n  tag_137\n    /* \"#utility.yul\":5378:5383   */\n  dup2\n    /* \"#utility.yul\":5360:5384   */\n  tag_113\n  jump\t// in\ntag_137:\n    /* \"#utility.yul\":5353:5358   */\n  dup2\n    /* \"#utility.yul\":5350:5385   */\n  eq\n    /* \"#utility.yul\":5340:5403   */\n  tag_138\n  jumpi\n    /* \"#utility.yul\":5399:5400   */\n  0x00\n    /* \"#utility.yul\":5396:5397   */\n  dup1\n    /* \"#utility.yul\":5389:5401   */\n  revert\n    /* \"#utility.yul\":5340:5403   */\ntag_138:\n    /* \"#utility.yul\":5287:5409   */\n  pop\n  jump\t// out\n    /* \"#utility.yul\":5415:5537   */\ntag_68:\n    /* \"#utility.yul\":5488:5512   */\n  tag_140\n    /* \"#utility.yul\":5506:5511   */\n  dup2\n    /* \"#utility.yul\":5488:5512   */\n  tag_102\n  jump\t// in\ntag_140:\n    /* \"#utility.yul\":5481:5486   */\n  dup2\n    /* \"#utility.yul\":5478:5513   */\n  eq\n    /* \"#utility.yul\":5468:5531   */\n  tag_141\n  jumpi\n    /* \"#utility.yul\":5527:5528   */\n  0x00\n    /* \"#utility.yul\":5524:5525   */\n  dup1\n    /* \"#utility.yul\":5517:5529   */\n  revert\n    /* \"#utility.yul\":5468:5531   */\ntag_141:\n    /* \"#utility.yul\":5415:5537   */\n  pop\n  jump\t// out\n    /* \"Farm.sol\":24330:31478  contract Farm is ReentrancyGuard, Pausable, Ownable {\r... */\ntag_18:\n  dataSize(sub_0)\n  dup1\n  dataOffset(sub_0)\n  0x00\n  codecopy\n  0x00\n  return\nstop\n\nsub_0: assembly {\n        /* \"Farm.sol\":24330:31478  contract Farm is ReentrancyGuard, Pausable, Ownable {\r... */\n      mstore(0x40, 0x80)\n      callvalue\n      dup1\n      iszero\n      tag_1\n      jumpi\n      0x00\n      dup1\n      revert\n    tag_1:\n      pop\n      jumpi(tag_2, lt(calldatasize, 0x04))\n      shr(0xe0, calldataload(0x00))\n      dup1\n      0x7b0a47ee\n      gt\n      tag_32\n      jumpi\n      dup1\n      0xc8f33c91\n      gt\n      tag_33\n      jumpi\n      dup1\n      0xdf136d65\n      gt\n      tag_34\n      jumpi\n      dup1\n      0xdf136d65\n      eq\n      tag_28\n      jumpi\n      dup1\n      0xe9fad8ee\n      eq\n      tag_29\n      jumpi\n      dup1\n      0xebe2b12b\n      eq\n      tag_30\n      jumpi\n      dup1\n      0xf2fde38b\n      eq\n      tag_31\n      jumpi\n      jump(tag_2)\n    tag_34:\n      dup1\n      0xc8f33c91\n      eq\n      tag_24\n      jumpi\n      dup1\n      0xcc1a378f\n      eq\n      tag_25\n      jumpi\n      dup1\n      0xcd3daf9d\n      eq\n      tag_26\n      jumpi\n      dup1\n      0xd1af0c7d\n      eq\n      tag_27\n      jumpi\n      jump(tag_2)\n    tag_33:\n      dup1\n      0x8b876347\n      gt\n      tag_35\n      jumpi\n      dup1\n      0x8b876347\n      eq\n      tag_20\n      jumpi\n      dup1\n      0x8da5cb5b\n      eq\n      tag_21\n      jumpi\n      dup1\n      0xa694fc3a\n      eq\n      tag_22\n      jumpi\n      dup1\n      0xa85fe3b7\n      eq\n      tag_23\n      jumpi\n      jump(tag_2)\n    tag_35:\n      dup1\n      0x7b0a47ee\n      eq\n      tag_17\n      jumpi\n      dup1\n      0x80faa57d\n      eq\n      tag_18\n      jumpi\n      dup1\n      0x8980f11f\n      eq\n      tag_19\n      jumpi\n      jump(tag_2)\n    tag_32:\n      dup1\n      0x3c6b16ab\n      gt\n      tag_36\n      jumpi\n      dup1\n      0x70a08231\n      gt\n      tag_37\n      jumpi\n      dup1\n      0x70a08231\n      eq\n      tag_13\n      jumpi\n      dup1\n      0x715018a6\n      eq\n      tag_14\n      jumpi\n      dup1\n      0x72f702f3\n      eq\n      tag_15\n      jumpi\n      dup1\n      0x7ae2b5c7\n      eq\n      tag_16\n      jumpi\n      jump(tag_2)\n    tag_37:\n      dup1\n      0x3c6b16ab\n      eq\n      tag_10\n      jumpi\n      dup1\n      0x3d18b912\n      eq\n      tag_11\n      jumpi\n      dup1\n      0x5c975abb\n      eq\n      tag_12\n      jumpi\n      jump(tag_2)\n    tag_36:\n      dup1\n      0x1c1f78eb\n      gt\n      tag_38\n      jumpi\n      dup1\n      0x1c1f78eb\n      eq\n      tag_6\n      jumpi\n      dup1\n      0x2e1a7d4d\n      eq\n      tag_7\n      jumpi\n      dup1\n      0x2e4c697f\n      eq\n      tag_8\n      jumpi\n      dup1\n      0x386a9525\n      eq\n      tag_9\n      jumpi\n      jump(tag_2)\n    tag_38:\n      dup1\n      0x8cc262\n      eq\n      tag_3\n      jumpi\n      dup1\n      0x0700037d\n      eq\n      tag_4\n      jumpi\n      dup1\n      0x18160ddd\n      eq\n      tag_5\n      jumpi\n    tag_2:\n      0x00\n      dup1\n      revert\n        /* \"Farm.sol\":26651:26908  function earned(address account) public view returns (uint256) {\r... */\n    tag_3:\n      tag_39\n      0x04\n      dup1\n      calldatasize\n      sub\n      dup2\n      add\n      swap1\n      tag_40\n      swap2\n      swap1\n      tag_41\n      jump\t// in\n    tag_40:\n      tag_42\n      jump\t// in\n    tag_39:\n      mload(0x40)\n      tag_43\n      swap2\n      swap1\n      tag_44\n      jump\t// in\n    tag_43:\n      mload(0x40)\n      dup1\n      swap2\n      sub\n      swap1\n      return\n        /* \"Farm.sol\":24906:24948  mapping(address => uint256) public rewards */\n    tag_4:\n      tag_45\n      0x04\n      dup1\n      calldatasize\n      sub\n      dup2\n      add\n      swap1\n      tag_46\n      swap2\n      swap1\n      tag_41\n      jump\t// in\n    tag_46:\n      tag_47\n      jump\t// in\n    tag_45:\n      mload(0x40)\n      tag_48\n      swap2\n      swap1\n      tag_44\n      jump\t// in\n    tag_48:\n      mload(0x40)\n      dup1\n      swap2\n      sub\n      swap1\n      return\n        /* \"Farm.sol\":25522:25615  function totalSupply() external view returns (uint256) {\r... */\n    tag_5:\n      tag_49\n      tag_50\n      jump\t// in\n    tag_49:\n      mload(0x40)\n      tag_51\n      swap2\n      swap1\n      tag_44\n      jump\t// in\n    tag_51:\n      mload(0x40)\n      dup1\n      swap2\n      sub\n      swap1\n      return\n        /* \"Farm.sol\":26916:27037  function getRewardForDuration() external view returns (uint256) {\r... */\n    tag_6:\n      tag_52\n      tag_53\n      jump\t// in\n    tag_52:\n      mload(0x40)\n      tag_54\n      swap2\n      swap1\n      tag_44\n      jump\t// in\n    tag_54:\n      mload(0x40)\n      dup1\n      swap2\n      sub\n      swap1\n      return\n        /* \"Farm.sol\":27627:28006  function withdraw(uint256 amount)\r... */\n    tag_7:\n      tag_55\n      0x04\n      dup1\n      calldatasize\n      sub\n      dup2\n      add\n      swap1\n      tag_56\n      swap2\n      swap1\n      tag_57\n      jump\t// in\n    tag_56:\n      tag_58\n      jump\t// in\n    tag_55:\n      stop\n        /* \"Farm.sol\":25623:25987  function pow(uint n, uint e) public pure returns (uint) {\r... */\n    tag_8:\n      tag_59\n      0x04\n      dup1\n      calldatasize\n      sub\n      dup2\n      add\n      swap1\n      tag_60\n      swap2\n      swap1\n      tag_61\n      jump\t// in\n    tag_60:\n      tag_62\n      jump\t// in\n    tag_59:\n      mload(0x40)\n      tag_63\n      swap2\n      swap1\n      tag_44\n      jump\t// in\n    tag_63:\n      mload(0x40)\n      dup1\n      swap2\n      sub\n      swap1\n      return\n        /* \"Farm.sol\":24648:24678  uint256 public rewardsDuration */\n    tag_9:\n      tag_64\n      tag_65\n      jump\t// in\n    tag_64:\n      mload(0x40)\n      tag_66\n      swap2\n      swap1\n      tag_44\n      jump\t// in\n    tag_66:\n      mload(0x40)\n      dup1\n      swap2\n      sub\n      swap1\n      return\n        /* \"Farm.sol\":28490:29619  function notifyRewardAmount(uint256 reward)\r... */\n    tag_10:\n      tag_67\n      0x04\n      dup1\n      calldatasize\n      sub\n      dup2\n      add\n      swap1\n      tag_68\n      swap2\n      swap1\n      tag_57\n      jump\t// in\n    tag_68:\n      tag_69\n      jump\t// in\n    tag_67:\n      stop\n        /* \"Farm.sol\":28014:28321  function getReward() public nonReentrant updateReward(msg.sender) {\r... */\n    tag_11:\n      tag_70\n      tag_71\n      jump\t// in\n    tag_70:\n      stop\n        /* \"Farm.sol\":11232:11310  function paused() public view returns (bool) {\r... */\n    tag_12:\n      tag_72\n      tag_73\n      jump\t// in\n    tag_72:\n      mload(0x40)\n      tag_74\n      swap2\n      swap1\n      tag_75\n      jump\t// in\n    tag_74:\n      mload(0x40)\n      dup1\n      swap2\n      sub\n      swap1\n      return\n        /* \"Farm.sol\":25995:26107  function balanceOf(address account) external view returns (uint256) {\r... */\n    tag_13:\n      tag_76\n      0x04\n      dup1\n      calldatasize\n      sub\n      dup2\n      add\n      swap1\n      tag_77\n      swap2\n      swap1\n      tag_41\n      jump\t// in\n    tag_77:\n      tag_78\n      jump\t// in\n    tag_76:\n      mload(0x40)\n      tag_79\n      swap2\n      swap1\n      tag_44\n      jump\t// in\n    tag_79:\n      mload(0x40)\n      dup1\n      swap2\n      sub\n      swap1\n      return\n        /* \"Farm.sol\":23513:23616  function renounceOwnership() public virtual onlyOwner {\r... */\n    tag_14:\n      tag_80\n      tag_81\n      jump\t// in\n    tag_80:\n      stop\n        /* \"Farm.sol\":24541:24567  IERC20 public stakingToken */\n    tag_15:\n      tag_82\n      tag_83\n      jump\t// in\n    tag_82:\n      mload(0x40)\n      tag_84\n      swap2\n      swap1\n      tag_85\n      jump\t// in\n    tag_84:\n      mload(0x40)\n      dup1\n      swap2\n      sub\n      swap1\n      return\n        /* \"Farm.sol\":27045:27149  function min(uint256 a, uint256 b) public pure returns (uint256) {\r... */\n    tag_16:\n      tag_86\n      0x04\n      dup1\n      calldatasize\n      sub\n      dup2\n      add\n      swap1\n      tag_87\n      swap2\n      swap1\n      tag_61\n      jump\t// in\n    tag_87:\n      tag_88\n      jump\t// in\n    tag_86:\n      mload(0x40)\n      tag_89\n      swap2\n      swap1\n      tag_44\n      jump\t// in\n    tag_89:\n      mload(0x40)\n      dup1\n      swap2\n      sub\n      swap1\n      return\n        /* \"Farm.sol\":24612:24641  uint256 public rewardRate = 0 */\n    tag_17:\n      tag_90\n      tag_91\n      jump\t// in\n    tag_90:\n      mload(0x40)\n      tag_92\n      swap2\n      swap1\n      tag_44\n      jump\t// in\n    tag_92:\n      mload(0x40)\n      dup1\n      swap2\n      sub\n      swap1\n      return\n        /* \"Farm.sol\":26115:26241  function lastTimeRewardApplicable() public view returns (uint256) {\r... */\n    tag_18:\n      tag_93\n      tag_94\n      jump\t// in\n    tag_93:\n      mload(0x40)\n      tag_95\n      swap2\n      swap1\n      tag_44\n      jump\t// in\n    tag_95:\n      mload(0x40)\n      dup1\n      swap2\n      sub\n      swap1\n      return\n        /* \"Farm.sol\":29734:30353  function recoverERC20(address tokenAddress, uint256 tokenAmount)\r... */\n    tag_19:\n      tag_96\n      0x04\n      dup1\n      calldatasize\n      sub\n      dup2\n      add\n      swap1\n      tag_97\n      swap2\n      swap1\n      tag_98\n      jump\t// in\n    tag_97:\n      tag_99\n      jump\t// in\n    tag_96:\n      stop\n        /* \"Farm.sol\":24842:24899  mapping(address => uint256) public userRewardPerTokenPaid */\n    tag_20:\n      tag_100\n      0x04\n      dup1\n      calldatasize\n      sub\n      dup2\n      add\n      swap1\n      tag_101\n      swap2\n      swap1\n      tag_41\n      jump\t// in\n    tag_101:\n      tag_102\n      jump\t// in\n    tag_100:\n      mload(0x40)\n      tag_103\n      swap2\n      swap1\n      tag_44\n      jump\t// in\n    tag_103:\n      mload(0x40)\n      dup1\n      swap2\n      sub\n      swap1\n      return\n        /* \"Farm.sol\":22865:22952  function owner() public view virtual returns (address) {\r... */\n    tag_21:\n      tag_104\n      tag_105\n      jump\t// in\n    tag_104:\n      mload(0x40)\n      tag_106\n      swap2\n      swap1\n      tag_107\n      jump\t// in\n    tag_106:\n      mload(0x40)\n      dup1\n      swap2\n      sub\n      swap1\n      return\n        /* \"Farm.sol\":27211:27619  function stake(uint256 amount)\r... */\n    tag_22:\n      tag_108\n      0x04\n      dup1\n      calldatasize\n      sub\n      dup2\n      add\n      swap1\n      tag_109\n      swap2\n      swap1\n      tag_57\n      jump\t// in\n    tag_109:\n      tag_110\n      jump\t// in\n    tag_108:\n      stop\n        /* \"Farm.sol\":24763:24802  uint256 public stakingTokensDecimalRate */\n    tag_23:\n      tag_111\n      tag_112\n      jump\t// in\n    tag_111:\n      mload(0x40)\n      tag_113\n      swap2\n      swap1\n      tag_44\n      jump\t// in\n    tag_113:\n      mload(0x40)\n      dup1\n      swap2\n      sub\n      swap1\n      return\n        /* \"Farm.sol\":24685:24714  uint256 public lastUpdateTime */\n    tag_24:\n      tag_114\n      tag_115\n      jump\t// in\n    tag_114:\n      mload(0x40)\n      tag_116\n      swap2\n      swap1\n      tag_44\n      jump\t// in\n    tag_116:\n      mload(0x40)\n      dup1\n      swap2\n      sub\n      swap1\n      return\n        /* \"Farm.sol\":30361:30721  function setRewardsDuration(uint256 _rewardsDuration) external onlyOwner {\r... */\n    tag_25:\n      tag_117\n      0x04\n      dup1\n      calldatasize\n      sub\n      dup2\n      add\n      swap1\n      tag_118\n      swap2\n      swap1\n      tag_57\n      jump\t// in\n    tag_118:\n      tag_119\n      jump\t// in\n    tag_117:\n      stop\n        /* \"Farm.sol\":26249:26643  function rewardPerToken() public view returns (uint256) {\r... */\n    tag_26:\n      tag_120\n      tag_121\n      jump\t// in\n    tag_120:\n      mload(0x40)\n      tag_122\n      swap2\n      swap1\n      tag_44\n      jump\t// in\n    tag_122:\n      mload(0x40)\n      dup1\n      swap2\n      sub\n      swap1\n      return\n        /* \"Farm.sol\":24508:24534  IERC20 public rewardsToken */\n    tag_27:\n      tag_123\n      tag_124\n      jump\t// in\n    tag_123:\n      mload(0x40)\n      tag_125\n      swap2\n      swap1\n      tag_85\n      jump\t// in\n    tag_125:\n      mload(0x40)\n      dup1\n      swap2\n      sub\n      swap1\n      return\n        /* \"Farm.sol\":24721:24756  uint256 public rewardPerTokenStored */\n    tag_28:\n      tag_126\n      tag_127\n      jump\t// in\n    tag_126:\n      mload(0x40)\n      tag_128\n      swap2\n      swap1\n      tag_44\n      jump\t// in\n    tag_128:\n      mload(0x40)\n      dup1\n      swap2\n      sub\n      swap1\n      return\n        /* \"Farm.sol\":28329:28426  function exit() external {\r... */\n    tag_29:\n      tag_129\n      tag_130\n      jump\t// in\n    tag_129:\n      stop\n        /* \"Farm.sol\":24574:24605  uint256 public periodFinish = 0 */\n    tag_30:\n      tag_131\n      tag_132\n      jump\t// in\n    tag_131:\n      mload(0x40)\n      tag_133\n      swap2\n      swap1\n      tag_44\n      jump\t// in\n    tag_133:\n      mload(0x40)\n      dup1\n      swap2\n      sub\n      swap1\n      return\n        /* \"Farm.sol\":23771:23972  function transferOwnership(address newOwner) public virtual onlyOwner {\r... */\n    tag_31:\n      tag_134\n      0x04\n      dup1\n      calldatasize\n      sub\n      dup2\n      add\n      swap1\n      tag_135\n      swap2\n      swap1\n      tag_41\n      jump\t// in\n    tag_135:\n      tag_136\n      jump\t// in\n    tag_134:\n      stop\n        /* \"Farm.sol\":26651:26908  function earned(address account) public view returns (uint256) {\r... */\n    tag_42:\n        /* \"Farm.sol\":26705:26712  uint256 */\n      0x00\n        /* \"Farm.sol\":26741:26900  _balances[account]\r... */\n      tag_141\n        /* \"Farm.sol\":26883:26890  rewards */\n      0x0c\n        /* \"Farm.sol\":26883:26899  rewards[account] */\n      0x00\n        /* \"Farm.sol\":26891:26898  account */\n      dup5\n        /* \"Farm.sol\":26883:26899  rewards[account] */\n      0xffffffffffffffffffffffffffffffffffffffff\n      and\n      0xffffffffffffffffffffffffffffffffffffffff\n      and\n      dup2\n      mstore\n      0x20\n      add\n      swap1\n      dup2\n      mstore\n      0x20\n      add\n      0x00\n      keccak256\n      sload\n        /* \"Farm.sol\":26741:26868  _balances[account]\r... */\n      tag_142\n        /* \"Farm.sol\":26843:26867  stakingTokensDecimalRate */\n      sload(0x09)\n        /* \"Farm.sol\":26741:26828  _balances[account]\r... */\n      tag_143\n        /* \"Farm.sol\":26774:26827  rewardPerToken().sub(userRewardPerTokenPaid[account]) */\n      tag_144\n        /* \"Farm.sol\":26795:26817  userRewardPerTokenPaid */\n      0x0b\n        /* \"Farm.sol\":26795:26826  userRewardPerTokenPaid[account] */\n      0x00\n        /* \"Farm.sol\":26818:26825  account */\n      dup10\n        /* \"Farm.sol\":26795:26826  userRewardPerTokenPaid[account] */\n      0xffffffffffffffffffffffffffffffffffffffff\n      and\n      0xffffffffffffffffffffffffffffffffffffffff\n      and\n      dup2\n      mstore\n      0x20\n      add\n      swap1\n      dup2\n      mstore\n      0x20\n      add\n      0x00\n      keccak256\n      sload\n        /* \"Farm.sol\":26774:26790  rewardPerToken() */\n      tag_145\n        /* \"Farm.sol\":26774:26788  rewardPerToken */\n      tag_121\n        /* \"Farm.sol\":26774:26790  rewardPerToken() */\n      jump\t// in\n    tag_145:\n        /* \"Farm.sol\":26774:26794  rewardPerToken().sub */\n      tag_146\n      swap1\n        /* \"Farm.sol\":26774:26827  rewardPerToken().sub(userRewardPerTokenPaid[account]) */\n      swap2\n      swap1\n      0xffffffff\n      and\n      jump\t// in\n    tag_144:\n        /* \"Farm.sol\":26741:26750  _balances */\n      0x0e\n        /* \"Farm.sol\":26741:26759  _balances[account] */\n      0x00\n        /* \"Farm.sol\":26751:26758  account */\n      dup10\n        /* \"Farm.sol\":26741:26759  _balances[account] */\n      0xffffffffffffffffffffffffffffffffffffffff\n      and\n      0xffffffffffffffffffffffffffffffffffffffff\n      and\n      dup2\n      mstore\n      0x20\n      add\n      swap1\n      dup2\n      mstore\n      0x20\n      add\n      0x00\n      keccak256\n      sload\n        /* \"Farm.sol\":26741:26773  _balances[account]\r... */\n      tag_138\n      swap1\n        /* \"Farm.sol\":26741:26828  _balances[account]\r... */\n      swap2\n      swap1\n      0xffffffff\n      and\n      jump\t// in\n    tag_143:\n        /* \"Farm.sol\":26741:26842  _balances[account]\r... */\n      tag_137\n      swap1\n        /* \"Farm.sol\":26741:26868  _balances[account]\r... */\n      swap2\n      swap1\n      0xffffffff\n      and\n      jump\t// in\n    tag_142:\n        /* \"Farm.sol\":26741:26882  _balances[account]\r... */\n      tag_147\n      swap1\n        /* \"Farm.sol\":26741:26900  _balances[account]\r... */\n      swap2\n      swap1\n      0xffffffff\n      and\n      jump\t// in\n    tag_141:\n        /* \"Farm.sol\":26725:26900  return\r... */\n      swap1\n      pop\n        /* \"Farm.sol\":26651:26908  function earned(address account) public view returns (uint256) {\r... */\n      swap2\n      swap1\n      pop\n      jump\t// out\n        /* \"Farm.sol\":24906:24948  mapping(address => uint256) public rewards */\n    tag_47:\n      mstore(0x20, 0x0c)\n      dup1\n      0x00\n      mstore\n      keccak256(0x00, 0x40)\n      0x00\n      swap2\n      pop\n      swap1\n      pop\n      sload\n      dup2\n      jump\t// out\n        /* \"Farm.sol\":25522:25615  function totalSupply() external view returns (uint256) {\r... */\n    tag_50:\n        /* \"Farm.sol\":25568:25575  uint256 */\n      0x00\n        /* \"Farm.sol\":25595:25607  _totalSupply */\n      sload(0x0d)\n        /* \"Farm.sol\":25588:25607  return _totalSupply */\n      swap1\n      pop\n        /* \"Farm.sol\":25522:25615  function totalSupply() external view returns (uint256) {\r... */\n      swap1\n      jump\t// out\n        /* \"Farm.sol\":26916:27037  function getRewardForDuration() external view returns (uint256) {\r... */\n    tag_53:\n        /* \"Farm.sol\":26971:26978  uint256 */\n      0x00\n        /* \"Farm.sol\":26998:27029  rewardRate.mul(rewardsDuration) */\n      tag_150\n        /* \"Farm.sol\":27013:27028  rewardsDuration */\n      sload(0x06)\n        /* \"Farm.sol\":26998:27008  rewardRate */\n      sload(0x05)\n        /* \"Farm.sol\":26998:27012  rewardRate.mul */\n      tag_138\n      swap1\n        /* \"Farm.sol\":26998:27029  rewardRate.mul(rewardsDuration) */\n      swap2\n      swap1\n      0xffffffff\n      and\n      jump\t// in\n    tag_150:\n        /* \"Farm.sol\":26991:27029  return rewardRate.mul(rewardsDuration) */\n      swap1\n      pop\n        /* \"Farm.sol\":26916:27037  function getRewardForDuration() external view returns (uint256) {\r... */\n      swap1\n      jump\t// out\n        /* \"Farm.sol\":27627:28006  function withdraw(uint256 amount)\r... */\n    tag_58:\n        /* \"Farm.sol\":13810:13831  _nonReentrantBefore() */\n      tag_152\n        /* \"Farm.sol\":13810:13829  _nonReentrantBefore */\n      tag_153\n        /* \"Farm.sol\":13810:13831  _nonReentrantBefore() */\n      jump\t// in\n    tag_152:\n        /* \"Farm.sol\":27709:27719  msg.sender */\n      caller\n        /* \"Farm.sol\":30847:30863  rewardPerToken() */\n      tag_155\n        /* \"Farm.sol\":30847:30861  rewardPerToken */\n      tag_121\n        /* \"Farm.sol\":30847:30863  rewardPerToken() */\n      jump\t// in\n    tag_155:\n        /* \"Farm.sol\":30824:30844  rewardPerTokenStored */\n      0x08\n        /* \"Farm.sol\":30824:30863  rewardPerTokenStored = rewardPerToken() */\n      dup2\n      swap1\n      sstore\n      pop\n        /* \"Farm.sol\":30891:30917  lastTimeRewardApplicable() */\n      tag_156\n        /* \"Farm.sol\":30891:30915  lastTimeRewardApplicable */\n      tag_94\n        /* \"Farm.sol\":30891:30917  lastTimeRewardApplicable() */\n      jump\t// in\n    tag_156:\n        /* \"Farm.sol\":30874:30888  lastUpdateTime */\n      0x07\n        /* \"Farm.sol\":30874:30917  lastUpdateTime = lastTimeRewardApplicable() */\n      dup2\n      swap1\n      sstore\n      pop\n        /* \"Farm.sol\":30951:30952  0 */\n      0x00\n        /* \"Farm.sol\":30932:30953  account != address(0) */\n      0xffffffffffffffffffffffffffffffffffffffff\n      and\n        /* \"Farm.sol\":30932:30939  account */\n      dup2\n        /* \"Farm.sol\":30932:30953  account != address(0) */\n      0xffffffffffffffffffffffffffffffffffffffff\n      and\n      eq\n        /* \"Farm.sol\":30928:31085  if (account != address(0)) {\r... */\n      tag_157\n      jumpi\n        /* \"Farm.sol\":30989:31004  earned(account) */\n      tag_158\n        /* \"Farm.sol\":30996:31003  account */\n      dup2\n        /* \"Farm.sol\":30989:30995  earned */\n      tag_42\n        /* \"Farm.sol\":30989:31004  earned(account) */\n      jump\t// in\n    tag_158:\n        /* \"Farm.sol\":30970:30977  rewards */\n      0x0c\n        /* \"Farm.sol\":30970:30986  rewards[account] */\n      0x00\n        /* \"Farm.sol\":30978:30985  account */\n      dup4\n        /* \"Farm.sol\":30970:30986  rewards[account] */\n      0xffffffffffffffffffffffffffffffffffffffff\n      and\n      0xffffffffffffffffffffffffffffffffffffffff\n      and\n      dup2\n      mstore\n      0x20\n      add\n      swap1\n      dup2\n      mstore\n      0x20\n      add\n      0x00\n      keccak256\n        /* \"Farm.sol\":30970:31004  rewards[account] = earned(account) */\n      dup2\n      swap1\n      sstore\n      pop\n        /* \"Farm.sol\":31053:31073  rewardPerTokenStored */\n      sload(0x08)\n        /* \"Farm.sol\":31019:31041  userRewardPerTokenPaid */\n      0x0b\n        /* \"Farm.sol\":31019:31050  userRewardPerTokenPaid[account] */\n      0x00\n        /* \"Farm.sol\":31042:31049  account */\n      dup4\n        /* \"Farm.sol\":31019:31050  userRewardPerTokenPaid[account] */\n      0xffffffffffffffffffffffffffffffffffffffff\n      and\n      0xffffffffffffffffffffffffffffffffffffffff\n      and\n      dup2\n      mstore\n      0x20\n      add\n      swap1\n      dup2\n      mstore\n      0x20\n      add\n      0x00\n      keccak256\n        /* \"Farm.sol\":31019:31073  userRewardPerTokenPaid[account] = rewardPerTokenStored */\n      dup2\n      swap1\n      sstore\n      pop\n        /* \"Farm.sol\":30928:31085  if (account != address(0)) {\r... */\n    tag_157:\n        /* \"Farm.sol\":27754:27755  0 */\n      0x00\n        /* \"Farm.sol\":27745:27751  amount */\n      dup3\n        /* \"Farm.sol\":27745:27755  amount > 0 */\n      gt\n        /* \"Farm.sol\":27737:27777  require(amount > 0, \"Cannot withdraw 0\") */\n      tag_160\n      jumpi\n      mload(0x40)\n      0x08c379a000000000000000000000000000000000000000000000000000000000\n      dup2\n      mstore\n      0x04\n      add\n      tag_161\n      swap1\n      tag_162\n      jump\t// in\n    tag_161:\n      mload(0x40)\n      dup1\n      swap2\n      sub\n      swap1\n      revert\n    tag_160:\n        /* \"Farm.sol\":27805:27829  _totalSupply.sub(amount) */\n      tag_163\n        /* \"Farm.sol\":27822:27828  amount */\n      dup3\n        /* \"Farm.sol\":27805:27817  _totalSupply */\n      sload(0x0d)\n        /* \"Farm.sol\":27805:27821  _totalSupply.sub */\n      tag_146\n      swap1\n        /* \"Farm.sol\":27805:27829  _totalSupply.sub(amount) */\n      swap2\n      swap1\n      0xffffffff\n      and\n      jump\t// in\n    tag_163:\n        /* \"Farm.sol\":27790:27802  _totalSupply */\n      0x0d\n        /* \"Farm.sol\":27790:27829  _totalSupply = _totalSupply.sub(amount) */\n      dup2\n      swap1\n      sstore\n      pop\n        /* \"Farm.sol\":27864:27897  _balances[msg.sender].sub(amount) */\n      tag_164\n        /* \"Farm.sol\":27890:27896  amount */\n      dup3\n        /* \"Farm.sol\":27864:27873  _balances */\n      0x0e\n        /* \"Farm.sol\":27864:27885  _balances[msg.sender] */\n      0x00\n        /* \"Farm.sol\":27874:27884  msg.sender */\n      caller\n        /* \"Farm.sol\":27864:27885  _balances[msg.sender] */\n      0xffffffffffffffffffffffffffffffffffffffff\n      and\n      0xffffffffffffffffffffffffffffffffffffffff\n      and\n      dup2\n      mstore\n      0x20\n      add\n      swap1\n      dup2\n      mstore\n      0x20\n      add\n      0x00\n      keccak256\n      sload\n        /* \"Farm.sol\":27864:27889  _balances[msg.sender].sub */\n      tag_146\n      swap1\n        /* \"Farm.sol\":27864:27897  _balances[msg.sender].sub(amount) */\n      swap2\n      swap1\n      0xffffffff\n      and\n      jump\t// in\n    tag_164:\n        /* \"Farm.sol\":27840:27849  _balances */\n      0x0e\n        /* \"Farm.sol\":27840:27861  _balances[msg.sender] */\n      0x00\n        /* \"Farm.sol\":27850:27860  msg.sender */\n      caller\n        /* \"Farm.sol\":27840:27861  _balances[msg.sender] */\n      0xffffffffffffffffffffffffffffffffffffffff\n      and\n      0xffffffffffffffffffffffffffffffffffffffff\n      and\n      dup2\n      mstore\n      0x20\n      add\n      swap1\n      dup2\n      mstore\n      0x20\n      add\n      0x00\n      keccak256\n        /* \"Farm.sol\":27840:27897  _balances[msg.sender] = _balances[msg.sender].sub(amount) */\n      dup2\n      swap1\n      sstore\n      pop\n        /* \"Farm.sol\":27908:27953  stakingToken.safeTransfer(msg.sender, amount) */\n      tag_165\n        /* \"Farm.sol\":27934:27944  msg.sender */\n      caller\n        /* \"Farm.sol\":27946:27952  amount */\n      dup4\n        /* \"Farm.sol\":27908:27920  stakingToken */\n      0x03\n      0x00\n      swap1\n      sload\n      swap1\n      0x0100\n      exp\n      swap1\n      div\n      0xffffffffffffffffffffffffffffffffffffffff\n      and\n        /* \"Farm.sol\":27908:27933  stakingToken.safeTransfer */\n      0xffffffffffffffffffffffffffffffffffffffff\n      and\n      tag_166\n      swap1\n        /* \"Farm.sol\":27908:27953  stakingToken.safeTransfer(msg.sender, amount) */\n      swap3\n      swap2\n      swap1\n      0xffffffff\n      and\n      jump\t// in\n    tag_165:\n        /* \"Farm.sol\":27979:27989  msg.sender */\n      caller\n        /* \"Farm.sol\":27969:27998  Withdrawn(msg.sender, amount) */\n      0xffffffffffffffffffffffffffffffffffffffff\n      and\n      0x7084f5476618d8e60b11ef0d7d3f06914655adb8793e28ff7f018d4c76d505d5\n        /* \"Farm.sol\":27991:27997  amount */\n      dup4\n        /* \"Farm.sol\":27969:27998  Withdrawn(msg.sender, amount) */\n      mload(0x40)\n      tag_167\n      swap2\n      swap1\n      tag_44\n      jump\t// in\n    tag_167:\n      mload(0x40)\n      dup1\n      swap2\n      sub\n      swap1\n      log2\n        /* \"Farm.sol\":13842:13843  _ */\n      pop\n        /* \"Farm.sol\":13854:13874  _nonReentrantAfter() */\n      tag_168\n        /* \"Farm.sol\":13854:13872  _nonReentrantAfter */\n      tag_169\n        /* \"Farm.sol\":13854:13874  _nonReentrantAfter() */\n      jump\t// in\n    tag_168:\n        /* \"Farm.sol\":27627:28006  function withdraw(uint256 amount)\r... */\n      pop\n      jump\t// out\n        /* \"Farm.sol\":25623:25987  function pow(uint n, uint e) public pure returns (uint) {\r... */\n    tag_62:\n        /* \"Farm.sol\":25673:25677  uint */\n      0x00\n        /* \"Farm.sol\":25701:25702  0 */\n      dup1\n        /* \"Farm.sol\":25696:25697  e */\n      dup3\n        /* \"Farm.sol\":25696:25702  e == 0 */\n      eq\n        /* \"Farm.sol\":25692:25980  if (e == 0) {\r... */\n      iszero\n      tag_171\n      jumpi\n        /* \"Farm.sol\":25726:25727  1 */\n      0x01\n        /* \"Farm.sol\":25719:25727  return 1 */\n      swap1\n      pop\n      jump(tag_170)\n        /* \"Farm.sol\":25692:25980  if (e == 0) {\r... */\n    tag_171:\n        /* \"Farm.sol\":25754:25755  1 */\n      0x01\n        /* \"Farm.sol\":25749:25750  e */\n      dup3\n        /* \"Farm.sol\":25749:25755  e == 1 */\n      eq\n        /* \"Farm.sol\":25745:25980  if (e == 1) {\r... */\n      iszero\n      tag_173\n      jumpi\n        /* \"Farm.sol\":25779:25780  n */\n      dup3\n        /* \"Farm.sol\":25772:25780  return n */\n      swap1\n      pop\n      jump(tag_170)\n        /* \"Farm.sol\":25745:25980  if (e == 1) {\r... */\n    tag_173:\n        /* \"Farm.sol\":25813:25819  uint p */\n      0x00\n        /* \"Farm.sol\":25822:25838  pow(n, e.div(2)) */\n      tag_175\n        /* \"Farm.sol\":25826:25827  n */\n      dup5\n        /* \"Farm.sol\":25829:25837  e.div(2) */\n      tag_176\n        /* \"Farm.sol\":25835:25836  2 */\n      0x02\n        /* \"Farm.sol\":25829:25830  e */\n      dup7\n        /* \"Farm.sol\":25829:25834  e.div */\n      tag_137\n      swap1\n        /* \"Farm.sol\":25829:25837  e.div(2) */\n      swap2\n      swap1\n      0xffffffff\n      and\n      jump\t// in\n    tag_176:\n        /* \"Farm.sol\":25822:25825  pow */\n      tag_62\n        /* \"Farm.sol\":25822:25838  pow(n, e.div(2)) */\n      jump\t// in\n    tag_175:\n        /* \"Farm.sol\":25813:25838  uint p = pow(n, e.div(2)) */\n      swap1\n      pop\n        /* \"Farm.sol\":25857:25865  p.mul(p) */\n      tag_177\n        /* \"Farm.sol\":25863:25864  p */\n      dup2\n        /* \"Farm.sol\":25857:25858  p */\n      dup3\n        /* \"Farm.sol\":25857:25862  p.mul */\n      tag_138\n      swap1\n        /* \"Farm.sol\":25857:25865  p.mul(p) */\n      swap2\n      swap1\n      0xffffffff\n      and\n      jump\t// in\n    tag_177:\n        /* \"Farm.sol\":25853:25865  p = p.mul(p) */\n      swap1\n      pop\n        /* \"Farm.sol\":25896:25897  1 */\n      0x01\n        /* \"Farm.sol\":25884:25892  e.mod(2) */\n      tag_178\n        /* \"Farm.sol\":25890:25891  2 */\n      0x02\n        /* \"Farm.sol\":25884:25885  e */\n      dup6\n        /* \"Farm.sol\":25884:25889  e.mod */\n      tag_139\n      swap1\n        /* \"Farm.sol\":25884:25892  e.mod(2) */\n      swap2\n      swap1\n      0xffffffff\n      and\n      jump\t// in\n    tag_178:\n        /* \"Farm.sol\":25884:25897  e.mod(2) == 1 */\n      eq\n        /* \"Farm.sol\":25880:25946  if (e.mod(2) == 1) {\r... */\n      iszero\n      tag_179\n      jumpi\n        /* \"Farm.sol\":25922:25930  p.mul(n) */\n      tag_180\n        /* \"Farm.sol\":25928:25929  n */\n      dup5\n        /* \"Farm.sol\":25922:25923  p */\n      dup3\n        /* \"Farm.sol\":25922:25927  p.mul */\n      tag_138\n      swap1\n        /* \"Farm.sol\":25922:25930  p.mul(n) */\n      swap2\n      swap1\n      0xffffffff\n      and\n      jump\t// in\n    tag_180:\n        /* \"Farm.sol\":25918:25930  p = p.mul(n) */\n      swap1\n      pop\n        /* \"Farm.sol\":25880:25946  if (e.mod(2) == 1) {\r... */\n    tag_179:\n        /* \"Farm.sol\":25967:25968  p */\n      dup1\n        /* \"Farm.sol\":25960:25968  return p */\n      swap2\n      pop\n      pop\n        /* \"Farm.sol\":25623:25987  function pow(uint n, uint e) public pure returns (uint) {\r... */\n    tag_170:\n      swap3\n      swap2\n      pop\n      pop\n      jump\t// out\n        /* \"Farm.sol\":24648:24678  uint256 public rewardsDuration */\n    tag_65:\n      sload(0x06)\n      dup2\n      jump\t// out\n        /* \"Farm.sol\":28490:29619  function notifyRewardAmount(uint256 reward)\r... */\n    tag_69:\n        /* \"Farm.sol\":22751:22764  _checkOwner() */\n      tag_182\n        /* \"Farm.sol\":22751:22762  _checkOwner */\n      tag_183\n        /* \"Farm.sol\":22751:22764  _checkOwner() */\n      jump\t// in\n    tag_182:\n        /* \"Farm.sol\":28589:28590  0 */\n      0x00\n        /* \"Farm.sol\":30847:30863  rewardPerToken() */\n      tag_185\n        /* \"Farm.sol\":30847:30861  rewardPerToken */\n      tag_121\n        /* \"Farm.sol\":30847:30863  rewardPerToken() */\n      jump\t// in\n    tag_185:\n        /* \"Farm.sol\":30824:30844  rewardPerTokenStored */\n      0x08\n        /* \"Farm.sol\":30824:30863  rewardPerTokenStored = rewardPerToken() */\n      dup2\n      swap1\n      sstore\n      pop\n        /* \"Farm.sol\":30891:30917  lastTimeRewardApplicable() */\n      tag_186\n        /* \"Farm.sol\":30891:30915  lastTimeRewardApplicable */\n      tag_94\n        /* \"Farm.sol\":30891:30917  lastTimeRewardApplicable() */\n      jump\t// in\n    tag_186:\n        /* \"Farm.sol\":30874:30888  lastUpdateTime */\n      0x07\n        /* \"Farm.sol\":30874:30917  lastUpdateTime = lastTimeRewardApplicable() */\n      dup2\n      swap1\n      sstore\n      pop\n        /* \"Farm.sol\":30951:30952  0 */\n      0x00\n        /* \"Farm.sol\":30932:30953  account != address(0) */\n      0xffffffffffffffffffffffffffffffffffffffff\n      and\n        /* \"Farm.sol\":30932:30939  account */\n      dup2\n        /* \"Farm.sol\":30932:30953  account != address(0) */\n      0xffffffffffffffffffffffffffffffffffffffff\n      and\n      eq\n        /* \"Farm.sol\":30928:31085  if (account != address(0)) {\r... */\n      tag_187\n      jumpi\n        /* \"Farm.sol\":30989:31004  earned(account) */\n      tag_188\n        /* \"Farm.sol\":30996:31003  account */\n      dup2\n        /* \"Farm.sol\":30989:30995  earned */\n      tag_42\n        /* \"Farm.sol\":30989:31004  earned(account) */\n      jump\t// in\n    tag_188:\n        /* \"Farm.sol\":30970:30977  rewards */\n      0x0c\n        /* \"Farm.sol\":30970:30986  rewards[account] */\n      0x00\n        /* \"Farm.sol\":30978:30985  account */\n      dup4\n        /* \"Farm.sol\":30970:30986  rewards[account] */\n      0xffffffffffffffffffffffffffffffffffffffff\n      and\n      0xffffffffffffffffffffffffffffffffffffffff\n      and\n      dup2\n      mstore\n      0x20\n      add\n      swap1\n      dup2\n      mstore\n      0x20\n      add\n      0x00\n      keccak256\n        /* \"Farm.sol\":30970:31004  rewards[account] = earned(account) */\n      dup2\n      swap1\n      sstore\n      pop\n        /* \"Farm.sol\":31053:31073  rewardPerTokenStored */\n      sload(0x08)\n        /* \"Farm.sol\":31019:31041  userRewardPerTokenPaid */\n      0x0b\n        /* \"Farm.sol\":31019:31050  userRewardPerTokenPaid[account] */\n      0x00\n        /* \"Farm.sol\":31042:31049  account */\n      dup4\n        /* \"Farm.sol\":31019:31050  userRewardPerTokenPaid[account] */\n      0xffffffffffffffffffffffffffffffffffffffff\n      and\n      0xffffffffffffffffffffffffffffffffffffffff\n      and\n      dup2\n      mstore\n      0x20\n      add\n      swap1\n      dup2\n      mstore\n      0x20\n      add\n      0x00\n      keccak256\n        /* \"Farm.sol\":31019:31073  userRewardPerTokenPaid[account] = rewardPerTokenStored */\n      dup2\n      swap1\n      sstore\n      pop\n        /* \"Farm.sol\":30928:31085  if (account != address(0)) {\r... */\n    tag_187:\n        /* \"Farm.sol\":28632:28644  periodFinish */\n      sload(0x04)\n        /* \"Farm.sol\":28613:28628  block.timestamp */\n      timestamp\n        /* \"Farm.sol\":28613:28644  block.timestamp >= periodFinish */\n      lt\n        /* \"Farm.sol\":28609:28927  if (block.timestamp >= periodFinish) {\r... */\n      tag_190\n      jumpi\n        /* \"Farm.sol\":28674:28701  reward.div(rewardsDuration) */\n      tag_191\n        /* \"Farm.sol\":28685:28700  rewardsDuration */\n      sload(0x06)\n        /* \"Farm.sol\":28674:28680  reward */\n      dup4\n        /* \"Farm.sol\":28674:28684  reward.div */\n      tag_137\n      swap1\n        /* \"Farm.sol\":28674:28701  reward.div(rewardsDuration) */\n      swap2\n      swap1\n      0xffffffff\n      and\n      jump\t// in\n    tag_191:\n        /* \"Farm.sol\":28661:28671  rewardRate */\n      0x05\n        /* \"Farm.sol\":28661:28701  rewardRate = reward.div(rewardsDuration) */\n      dup2\n      swap1\n      sstore\n      pop\n        /* \"Farm.sol\":28609:28927  if (block.timestamp >= periodFinish) {\r... */\n      jump(tag_192)\n    tag_190:\n        /* \"Farm.sol\":28734:28751  uint256 remaining */\n      0x00\n        /* \"Farm.sol\":28754:28787  periodFinish.sub(block.timestamp) */\n      tag_193\n        /* \"Farm.sol\":28771:28786  block.timestamp */\n      timestamp\n        /* \"Farm.sol\":28754:28766  periodFinish */\n      sload(0x04)\n        /* \"Farm.sol\":28754:28770  periodFinish.sub */\n      tag_146\n      swap1\n        /* \"Farm.sol\":28754:28787  periodFinish.sub(block.timestamp) */\n      swap2\n      swap1\n      0xffffffff\n      and\n      jump\t// in\n    tag_193:\n        /* \"Farm.sol\":28734:28787  uint256 remaining = periodFinish.sub(block.timestamp) */\n      swap1\n      pop\n        /* \"Farm.sol\":28802:28818  uint256 leftover */\n      0x00\n        /* \"Farm.sol\":28821:28846  remaining.mul(rewardRate) */\n      tag_194\n        /* \"Farm.sol\":28835:28845  rewardRate */\n      sload(0x05)\n        /* \"Farm.sol\":28821:28830  remaining */\n      dup4\n        /* \"Farm.sol\":28821:28834  remaining.mul */\n      tag_138\n      swap1\n        /* \"Farm.sol\":28821:28846  remaining.mul(rewardRate) */\n      swap2\n      swap1\n      0xffffffff\n      and\n      jump\t// in\n    tag_194:\n        /* \"Farm.sol\":28802:28846  uint256 leftover = remaining.mul(rewardRate) */\n      swap1\n      pop\n        /* \"Farm.sol\":28874:28915  reward.add(leftover).div(rewardsDuration) */\n      tag_195\n        /* \"Farm.sol\":28899:28914  rewardsDuration */\n      sload(0x06)\n        /* \"Farm.sol\":28874:28894  reward.add(leftover) */\n      tag_196\n        /* \"Farm.sol\":28885:28893  leftover */\n      dup4\n        /* \"Farm.sol\":28874:28880  reward */\n      dup8\n        /* \"Farm.sol\":28874:28884  reward.add */\n      tag_147\n      swap1\n        /* \"Farm.sol\":28874:28894  reward.add(leftover) */\n      swap2\n      swap1\n      0xffffffff\n      and\n      jump\t// in\n    tag_196:\n        /* \"Farm.sol\":28874:28898  reward.add(leftover).div */\n      tag_137\n      swap1\n        /* \"Farm.sol\":28874:28915  reward.add(leftover).div(rewardsDuration) */\n      swap2\n      swap1\n      0xffffffff\n      and\n      jump\t// in\n    tag_195:\n        /* \"Farm.sol\":28861:28871  rewardRate */\n      0x05\n        /* \"Farm.sol\":28861:28915  rewardRate = reward.add(leftover).div(rewardsDuration) */\n      dup2\n      swap1\n      sstore\n      pop\n        /* \"Farm.sol\":28719:28927  {\r... */\n      pop\n      pop\n        /* \"Farm.sol\":28609:28927  if (block.timestamp >= periodFinish) {\r... */\n    tag_192:\n        /* \"Farm.sol\":29287:29302  uint256 balance */\n      0x00\n        /* \"Farm.sol\":29305:29317  rewardsToken */\n      0x02\n      0x00\n      swap1\n      sload\n      swap1\n      0x0100\n      exp\n      swap1\n      div\n      0xffffffffffffffffffffffffffffffffffffffff\n      and\n        /* \"Farm.sol\":29305:29327  rewardsToken.balanceOf */\n      0xffffffffffffffffffffffffffffffffffffffff\n      and\n      0x70a08231\n        /* \"Farm.sol\":29336:29340  this */\n      address\n        /* \"Farm.sol\":29305:29342  rewardsToken.balanceOf(address(this)) */\n      mload(0x40)\n      dup3\n      0xffffffff\n      and\n      0xe0\n      shl\n      dup2\n      mstore\n      0x04\n      add\n      tag_197\n      swap2\n      swap1\n      tag_107\n      jump\t// in\n    tag_197:\n      0x20\n      mload(0x40)\n      dup1\n      dup4\n      sub\n      dup2\n      dup7\n      dup1\n      extcodesize\n      iszero\n      dup1\n      iszero\n      tag_198\n      jumpi\n      0x00\n      dup1\n      revert\n    tag_198:\n      pop\n      gas\n      staticcall\n      iszero\n      dup1\n      iszero\n      tag_200\n      jumpi\n      returndatasize\n      0x00\n      dup1\n      returndatacopy\n      revert(0x00, returndatasize)\n    tag_200:\n      pop\n      pop\n      pop\n      pop\n      mload(0x40)\n      returndatasize\n      not(0x1f)\n      0x1f\n      dup3\n      add\n      and\n      dup3\n      add\n      dup1\n      0x40\n      mstore\n      pop\n      dup2\n      add\n      swap1\n      tag_201\n      swap2\n      swap1\n      tag_202\n      jump\t// in\n    tag_201:\n        /* \"Farm.sol\":29287:29342  uint256 balance = rewardsToken.balanceOf(address(this)) */\n      swap1\n      pop\n        /* \"Farm.sol\":29389:29417  balance.div(rewardsDuration) */\n      tag_203\n        /* \"Farm.sol\":29401:29416  rewardsDuration */\n      sload(0x06)\n        /* \"Farm.sol\":29389:29396  balance */\n      dup3\n        /* \"Farm.sol\":29389:29400  balance.div */\n      tag_137\n      swap1\n        /* \"Farm.sol\":29389:29417  balance.div(rewardsDuration) */\n      swap2\n      swap1\n      0xffffffff\n      and\n      jump\t// in\n    tag_203:\n        /* \"Farm.sol\":29375:29385  rewardRate */\n      sload(0x05)\n        /* \"Farm.sol\":29375:29417  rewardRate <= balance.div(rewardsDuration) */\n      gt\n      iszero\n        /* \"Farm.sol\":29353:29469  require(\r... */\n      tag_204\n      jumpi\n      mload(0x40)\n      0x08c379a000000000000000000000000000000000000000000000000000000000\n      dup2\n      mstore\n      0x04\n      add\n      tag_205\n      swap1\n      tag_206\n      jump\t// in\n    tag_205:\n      mload(0x40)\n      dup1\n      swap2\n      sub\n      swap1\n      revert\n    tag_204:\n        /* \"Farm.sol\":29499:29514  block.timestamp */\n      timestamp\n        /* \"Farm.sol\":29482:29496  lastUpdateTime */\n      0x07\n        /* \"Farm.sol\":29482:29514  lastUpdateTime = block.timestamp */\n      dup2\n      swap1\n      sstore\n      pop\n        /* \"Farm.sol\":29540:29576  block.timestamp.add(rewardsDuration) */\n      tag_207\n        /* \"Farm.sol\":29560:29575  rewardsDuration */\n      sload(0x06)\n        /* \"Farm.sol\":29540:29555  block.timestamp */\n      timestamp\n        /* \"Farm.sol\":29540:29559  block.timestamp.add */\n      tag_147\n      swap1\n        /* \"Farm.sol\":29540:29576  block.timestamp.add(rewardsDuration) */\n      swap2\n      swap1\n      0xffffffff\n      and\n      jump\t// in\n    tag_207:\n        /* \"Farm.sol\":29525:29537  periodFinish */\n      0x04\n        /* \"Farm.sol\":29525:29576  periodFinish = block.timestamp.add(rewardsDuration) */\n      dup2\n      swap1\n      sstore\n      pop\n        /* \"Farm.sol\":29592:29611  RewardAdded(reward) */\n      0xde88a922e0d3b88b24e9623efeb464919c6bf9f66857a65e2bfcf2ce87a9433d\n        /* \"Farm.sol\":29604:29610  reward */\n      dup4\n        /* \"Farm.sol\":29592:29611  RewardAdded(reward) */\n      mload(0x40)\n      tag_208\n      swap2\n      swap1\n      tag_44\n      jump\t// in\n    tag_208:\n      mload(0x40)\n      dup1\n      swap2\n      sub\n      swap1\n      log1\n        /* \"Farm.sol\":28598:29619  {\r... */\n      pop\n        /* \"Farm.sol\":22775:22776  _ */\n      pop\n        /* \"Farm.sol\":28490:29619  function notifyRewardAmount(uint256 reward)\r... */\n      pop\n      jump\t// out\n        /* \"Farm.sol\":28014:28321  function getReward() public nonReentrant updateReward(msg.sender) {\r... */\n    tag_71:\n        /* \"Farm.sol\":13810:13831  _nonReentrantBefore() */\n      tag_210\n        /* \"Farm.sol\":13810:13829  _nonReentrantBefore */\n      tag_153\n        /* \"Farm.sol\":13810:13831  _nonReentrantBefore() */\n      jump\t// in\n    tag_210:\n        /* \"Farm.sol\":28068:28078  msg.sender */\n      caller\n        /* \"Farm.sol\":30847:30863  rewardPerToken() */\n      tag_212\n        /* \"Farm.sol\":30847:30861  rewardPerToken */\n      tag_121\n        /* \"Farm.sol\":30847:30863  rewardPerToken() */\n      jump\t// in\n    tag_212:\n        /* \"Farm.sol\":30824:30844  rewardPerTokenStored */\n      0x08\n        /* \"Farm.sol\":30824:30863  rewardPerTokenStored = rewardPerToken() */\n      dup2\n      swap1\n      sstore\n      pop\n        /* \"Farm.sol\":30891:30917  lastTimeRewardApplicable() */\n      tag_213\n        /* \"Farm.sol\":30891:30915  lastTimeRewardApplicable */\n      tag_94\n        /* \"Farm.sol\":30891:30917  lastTimeRewardApplicable() */\n      jump\t// in\n    tag_213:\n        /* \"Farm.sol\":30874:30888  lastUpdateTime */\n      0x07\n        /* \"Farm.sol\":30874:30917  lastUpdateTime = lastTimeRewardApplicable() */\n      dup2\n      swap1\n      sstore\n      pop\n        /* \"Farm.sol\":30951:30952  0 */\n      0x00\n        /* \"Farm.sol\":30932:30953  account != address(0) */\n      0xffffffffffffffffffffffffffffffffffffffff\n      and\n        /* \"Farm.sol\":30932:30939  account */\n      dup2\n        /* \"Farm.sol\":30932:30953  account != address(0) */\n      0xffffffffffffffffffffffffffffffffffffffff\n      and\n      eq\n        /* \"Farm.sol\":30928:31085  if (account != address(0)) {\r... */\n      tag_214\n      jumpi\n        /* \"Farm.sol\":30989:31004  earned(account) */\n      tag_215\n        /* \"Farm.sol\":30996:31003  account */\n      dup2\n        /* \"Farm.sol\":30989:30995  earned */\n      tag_42\n        /* \"Farm.sol\":30989:31004  earned(account) */\n      jump\t// in\n    tag_215:\n        /* \"Farm.sol\":30970:30977  rewards */\n      0x0c\n        /* \"Farm.sol\":30970:30986  rewards[account] */\n      0x00\n        /* \"Farm.sol\":30978:30985  account */\n      dup4\n        /* \"Farm.sol\":30970:30986  rewards[account] */\n      0xffffffffffffffffffffffffffffffffffffffff\n      and\n      0xffffffffffffffffffffffffffffffffffffffff\n      and\n      dup2\n      mstore\n      0x20\n      add\n      swap1\n      dup2\n      mstore\n      0x20\n      add\n      0x00\n      keccak256\n        /* \"Farm.sol\":30970:31004  rewards[account] = earned(account) */\n      dup2\n      swap1\n      sstore\n      pop\n        /* \"Farm.sol\":31053:31073  rewardPerTokenStored */\n      sload(0x08)\n        /* \"Farm.sol\":31019:31041  userRewardPerTokenPaid */\n      0x0b\n        /* \"Farm.sol\":31019:31050  userRewardPerTokenPaid[account] */\n      0x00\n        /* \"Farm.sol\":31042:31049  account */\n      dup4\n        /* \"Farm.sol\":31019:31050  userRewardPerTokenPaid[account] */\n      0xffffffffffffffffffffffffffffffffffffffff\n      and\n      0xffffffffffffffffffffffffffffffffffffffff\n      and\n      dup2\n      mstore\n      0x20\n      add\n      swap1\n      dup2\n      mstore\n      0x20\n      add\n      0x00\n      keccak256\n        /* \"Farm.sol\":31019:31073  userRewardPerTokenPaid[account] = rewardPerTokenStored */\n      dup2\n      swap1\n      sstore\n      pop\n        /* \"Farm.sol\":30928:31085  if (account != address(0)) {\r... */\n    tag_214:\n        /* \"Farm.sol\":28091:28105  uint256 reward */\n      0x00\n        /* \"Farm.sol\":28108:28115  rewards */\n      0x0c\n        /* \"Farm.sol\":28108:28127  rewards[msg.sender] */\n      0x00\n        /* \"Farm.sol\":28116:28126  msg.sender */\n      caller\n        /* \"Farm.sol\":28108:28127  rewards[msg.sender] */\n      0xffffffffffffffffffffffffffffffffffffffff\n      and\n      0xffffffffffffffffffffffffffffffffffffffff\n      and\n      dup2\n      mstore\n      0x20\n      add\n      swap1\n      dup2\n      mstore\n      0x20\n      add\n      0x00\n      keccak256\n      sload\n        /* \"Farm.sol\":28091:28127  uint256 reward = rewards[msg.sender] */\n      swap1\n      pop\n        /* \"Farm.sol\":28151:28152  0 */\n      0x00\n        /* \"Farm.sol\":28142:28148  reward */\n      dup2\n        /* \"Farm.sol\":28142:28152  reward > 0 */\n      gt\n        /* \"Farm.sol\":28138:28314  if (reward > 0) {\r... */\n      iszero\n      tag_217\n      jumpi\n        /* \"Farm.sol\":28191:28192  0 */\n      0x00\n        /* \"Farm.sol\":28169:28176  rewards */\n      0x0c\n        /* \"Farm.sol\":28169:28188  rewards[msg.sender] */\n      0x00\n        /* \"Farm.sol\":28177:28187  msg.sender */\n      caller\n        /* \"Farm.sol\":28169:28188  rewards[msg.sender] */\n      0xffffffffffffffffffffffffffffffffffffffff\n      and\n      0xffffffffffffffffffffffffffffffffffffffff\n      and\n      dup2\n      mstore\n      0x20\n      add\n      swap1\n      dup2\n      mstore\n      0x20\n      add\n      0x00\n      keccak256\n        /* \"Farm.sol\":28169:28192  rewards[msg.sender] = 0 */\n      dup2\n      swap1\n      sstore\n      pop\n        /* \"Farm.sol\":28207:28252  rewardsToken.safeTransfer(msg.sender, reward) */\n      tag_218\n        /* \"Farm.sol\":28233:28243  msg.sender */\n      caller\n        /* \"Farm.sol\":28245:28251  reward */\n      dup3\n        /* \"Farm.sol\":28207:28219  rewardsToken */\n      0x02\n      0x00\n      swap1\n      sload\n      swap1\n      0x0100\n      exp\n      swap1\n      div\n      0xffffffffffffffffffffffffffffffffffffffff\n      and\n        /* \"Farm.sol\":28207:28232  rewardsToken.safeTransfer */\n      0xffffffffffffffffffffffffffffffffffffffff\n      and\n      tag_166\n      swap1\n        /* \"Farm.sol\":28207:28252  rewardsToken.safeTransfer(msg.sender, reward) */\n      swap3\n      swap2\n      swap1\n      0xffffffff\n      and\n      jump\t// in\n    tag_218:\n        /* \"Farm.sol\":28283:28293  msg.sender */\n      caller\n        /* \"Farm.sol\":28272:28302  RewardPaid(msg.sender, reward) */\n      0xffffffffffffffffffffffffffffffffffffffff\n      and\n      0xe2403640ba68fed3a2f88b7557551d1993f84b99bb10ff833f0cf8db0c5e0486\n        /* \"Farm.sol\":28295:28301  reward */\n      dup3\n        /* \"Farm.sol\":28272:28302  RewardPaid(msg.sender, reward) */\n      mload(0x40)\n      tag_219\n      swap2\n      swap1\n      tag_44\n      jump\t// in\n    tag_219:\n      mload(0x40)\n      dup1\n      swap2\n      sub\n      swap1\n      log2\n        /* \"Farm.sol\":28138:28314  if (reward > 0) {\r... */\n    tag_217:\n        /* \"Farm.sol\":28080:28321  {\r... */\n      pop\n        /* \"Farm.sol\":13842:13843  _ */\n      pop\n        /* \"Farm.sol\":13854:13874  _nonReentrantAfter() */\n      tag_220\n        /* \"Farm.sol\":13854:13872  _nonReentrantAfter */\n      tag_169\n        /* \"Farm.sol\":13854:13874  _nonReentrantAfter() */\n      jump\t// in\n    tag_220:\n        /* \"Farm.sol\":28014:28321  function getReward() public nonReentrant updateReward(msg.sender) {\r... */\n      jump\t// out\n        /* \"Farm.sol\":11232:11310  function paused() public view returns (bool) {\r... */\n    tag_73:\n        /* \"Farm.sol\":11271:11275  bool */\n      0x00\n        /* \"Farm.sol\":11295:11302  _paused */\n      0x01\n      0x00\n      swap1\n      sload\n      swap1\n      0x0100\n      exp\n      swap1\n      div\n      0xff\n      and\n        /* \"Farm.sol\":11288:11302  return _paused */\n      swap1\n      pop\n        /* \"Farm.sol\":11232:11310  function paused() public view returns (bool) {\r... */\n      swap1\n      jump\t// out\n        /* \"Farm.sol\":25995:26107  function balanceOf(address account) external view returns (uint256) {\r... */\n    tag_78:\n        /* \"Farm.sol\":26054:26061  uint256 */\n      0x00\n        /* \"Farm.sol\":26081:26090  _balances */\n      0x0e\n        /* \"Farm.sol\":26081:26099  _balances[account] */\n      0x00\n        /* \"Farm.sol\":26091:26098  account */\n      dup4\n        /* \"Farm.sol\":26081:26099  _balances[account] */\n      0xffffffffffffffffffffffffffffffffffffffff\n      and\n      0xffffffffffffffffffffffffffffffffffffffff\n      and\n      dup2\n      mstore\n      0x20\n      add\n      swap1\n      dup2\n      mstore\n      0x20\n      add\n      0x00\n      keccak256\n      sload\n        /* \"Farm.sol\":26074:26099  return _balances[account] */\n      swap1\n      pop\n        /* \"Farm.sol\":25995:26107  function balanceOf(address account) external view returns (uint256) {\r... */\n      swap2\n      swap1\n      pop\n      jump\t// out\n        /* \"Farm.sol\":23513:23616  function renounceOwnership() public virtual onlyOwner {\r... */\n    tag_81:\n        /* \"Farm.sol\":22751:22764  _checkOwner() */\n      tag_224\n        /* \"Farm.sol\":22751:22762  _checkOwner */\n      tag_183\n        /* \"Farm.sol\":22751:22764  _checkOwner() */\n      jump\t// in\n    tag_224:\n        /* \"Farm.sol\":23578:23608  _transferOwnership(address(0)) */\n      tag_226\n        /* \"Farm.sol\":23605:23606  0 */\n      0x00\n        /* \"Farm.sol\":23578:23596  _transferOwnership */\n      tag_227\n        /* \"Farm.sol\":23578:23608  _transferOwnership(address(0)) */\n      jump\t// in\n    tag_226:\n        /* \"Farm.sol\":23513:23616  function renounceOwnership() public virtual onlyOwner {\r... */\n      jump\t// out\n        /* \"Farm.sol\":24541:24567  IERC20 public stakingToken */\n    tag_83:\n      0x03\n      0x00\n      swap1\n      sload\n      swap1\n      0x0100\n      exp\n      swap1\n      div\n      0xffffffffffffffffffffffffffffffffffffffff\n      and\n      dup2\n      jump\t// out\n        /* \"Farm.sol\":27045:27149  function min(uint256 a, uint256 b) public pure returns (uint256) {\r... */\n    tag_88:\n        /* \"Farm.sol\":27101:27108  uint256 */\n      0x00\n        /* \"Farm.sol\":27132:27133  b */\n      dup2\n        /* \"Farm.sol\":27128:27129  a */\n      dup4\n        /* \"Farm.sol\":27128:27133  a < b */\n      lt\n        /* \"Farm.sol\":27128:27141  a < b ? a : b */\n      tag_229\n      jumpi\n        /* \"Farm.sol\":27140:27141  b */\n      dup2\n        /* \"Farm.sol\":27128:27141  a < b ? a : b */\n      jump(tag_230)\n    tag_229:\n        /* \"Farm.sol\":27136:27137  a */\n      dup3\n        /* \"Farm.sol\":27128:27141  a < b ? a : b */\n    tag_230:\n        /* \"Farm.sol\":27121:27141  return a < b ? a : b */\n      swap1\n      pop\n        /* \"Farm.sol\":27045:27149  function min(uint256 a, uint256 b) public pure returns (uint256) {\r... */\n      swap3\n      swap2\n      pop\n      pop\n      jump\t// out\n        /* \"Farm.sol\":24612:24641  uint256 public rewardRate = 0 */\n    tag_91:\n      sload(0x05)\n      dup2\n      jump\t// out\n        /* \"Farm.sol\":26115:26241  function lastTimeRewardApplicable() public view returns (uint256) {\r... */\n    tag_94:\n        /* \"Farm.sol\":26172:26179  uint256 */\n      0x00\n        /* \"Farm.sol\":26199:26233  min(block.timestamp, periodFinish) */\n      tag_232\n        /* \"Farm.sol\":26203:26218  block.timestamp */\n      timestamp\n        /* \"Farm.sol\":26220:26232  periodFinish */\n      sload(0x04)\n        /* \"Farm.sol\":26199:26202  min */\n      tag_88\n        /* \"Farm.sol\":26199:26233  min(block.timestamp, periodFinish) */\n      jump\t// in\n    tag_232:\n        /* \"Farm.sol\":26192:26233  return min(block.timestamp, periodFinish) */\n      swap1\n      pop\n        /* \"Farm.sol\":26115:26241  function lastTimeRewardApplicable() public view returns (uint256) {\r... */\n      swap1\n      jump\t// out\n        /* \"Farm.sol\":29734:30353  function recoverERC20(address tokenAddress, uint256 tokenAmount)\r... */\n    tag_99:\n        /* \"Farm.sol\":22751:22764  _checkOwner() */\n      tag_234\n        /* \"Farm.sol\":22751:22762  _checkOwner */\n      tag_183\n        /* \"Farm.sol\":22751:22764  _checkOwner() */\n      jump\t// in\n    tag_234:\n        /* \"Farm.sol\":29956:29968  rewardsToken */\n      0x02\n      0x00\n      swap1\n      sload\n      swap1\n      0x0100\n      exp\n      swap1\n      div\n      0xffffffffffffffffffffffffffffffffffffffff\n      and\n        /* \"Farm.sol\":29932:29969  tokenAddress != address(rewardsToken) */\n      0xffffffffffffffffffffffffffffffffffffffff\n      and\n        /* \"Farm.sol\":29932:29944  tokenAddress */\n      dup3\n        /* \"Farm.sol\":29932:29969  tokenAddress != address(rewardsToken) */\n      0xffffffffffffffffffffffffffffffffffffffff\n      and\n      eq\n      iszero\n        /* \"Farm.sol\":29910:30031  require(\r... */\n      tag_236\n      jumpi\n      mload(0x40)\n      0x08c379a000000000000000000000000000000000000000000000000000000000\n      dup2\n      mstore\n      0x04\n      add\n      tag_237\n      swap1\n      tag_238\n      jump\t// in\n    tag_237:\n      mload(0x40)\n      dup1\n      swap2\n      sub\n      swap1\n      revert\n    tag_236:\n        /* \"Farm.sol\":30062:30063  0 */\n      0x00\n        /* \"Farm.sol\":30046:30058  _totalSupply */\n      sload(0x0d)\n        /* \"Farm.sol\":30046:30063  _totalSupply != 0 */\n      eq\n        /* \"Farm.sol\":30042:30225  if (_totalSupply != 0) {\r... */\n      tag_239\n      jumpi\n        /* \"Farm.sol\":30130:30142  stakingToken */\n      0x03\n      0x00\n      swap1\n      sload\n      swap1\n      0x0100\n      exp\n      swap1\n      div\n      0xffffffffffffffffffffffffffffffffffffffff\n      and\n        /* \"Farm.sol\":30106:30143  tokenAddress != address(stakingToken) */\n      0xffffffffffffffffffffffffffffffffffffffff\n      and\n        /* \"Farm.sol\":30106:30118  tokenAddress */\n      dup3\n        /* \"Farm.sol\":30106:30143  tokenAddress != address(stakingToken) */\n      0xffffffffffffffffffffffffffffffffffffffff\n      and\n      eq\n      iszero\n        /* \"Farm.sol\":30080:30213  require(\r... */\n      tag_240\n      jumpi\n      mload(0x40)\n      0x08c379a000000000000000000000000000000000000000000000000000000000\n      dup2\n      mstore\n      0x04\n      add\n      tag_241\n      swap1\n      tag_242\n      jump\t// in\n    tag_241:\n      mload(0x40)\n      dup1\n      swap2\n      sub\n      swap1\n      revert\n    tag_240:\n        /* \"Farm.sol\":30042:30225  if (_totalSupply != 0) {\r... */\n    tag_239:\n        /* \"Farm.sol\":30235:30293  IERC20(tokenAddress).safeTransfer(msg.sender, tokenAmount) */\n      tag_243\n        /* \"Farm.sol\":30269:30279  msg.sender */\n      caller\n        /* \"Farm.sol\":30281:30292  tokenAmount */\n      dup3\n        /* \"Farm.sol\":30242:30254  tokenAddress */\n      dup5\n        /* \"Farm.sol\":30235:30268  IERC20(tokenAddress).safeTransfer */\n      0xffffffffffffffffffffffffffffffffffffffff\n      and\n      tag_166\n      swap1\n        /* \"Farm.sol\":30235:30293  IERC20(tokenAddress).safeTransfer(msg.sender, tokenAmount) */\n      swap3\n      swap2\n      swap1\n      0xffffffff\n      and\n      jump\t// in\n    tag_243:\n        /* \"Farm.sol\":30309:30345  Recovered(tokenAddress, tokenAmount) */\n      0x8c1256b8896378cd5044f80c202f9772b9d77dc85c8a6eb51967210b09bfaa28\n        /* \"Farm.sol\":30319:30331  tokenAddress */\n      dup3\n        /* \"Farm.sol\":30333:30344  tokenAmount */\n      dup3\n        /* \"Farm.sol\":30309:30345  Recovered(tokenAddress, tokenAmount) */\n      mload(0x40)\n      tag_244\n      swap3\n      swap2\n      swap1\n      tag_245\n      jump\t// in\n    tag_244:\n      mload(0x40)\n      dup1\n      swap2\n      sub\n      swap1\n      log1\n        /* \"Farm.sol\":29734:30353  function recoverERC20(address tokenAddress, uint256 tokenAmount)\r... */\n      pop\n      pop\n      jump\t// out\n        /* \"Farm.sol\":24842:24899  mapping(address => uint256) public userRewardPerTokenPaid */\n    tag_102:\n      mstore(0x20, 0x0b)\n      dup1\n      0x00\n      mstore\n      keccak256(0x00, 0x40)\n      0x00\n      swap2\n      pop\n      swap1\n      pop\n      sload\n      dup2\n      jump\t// out\n        /* \"Farm.sol\":22865:22952  function owner() public view virtual returns (address) {\r... */\n    tag_105:\n        /* \"Farm.sol\":22911:22918  address */\n      0x00\n        /* \"Farm.sol\":22938:22944  _owner */\n      0x01\n      dup1\n      sload\n      swap1\n      0x0100\n      exp\n      swap1\n      div\n      0xffffffffffffffffffffffffffffffffffffffff\n      and\n        /* \"Farm.sol\":22931:22944  return _owner */\n      swap1\n      pop\n        /* \"Farm.sol\":22865:22952  function owner() public view virtual returns (address) {\r... */\n      swap1\n      jump\t// out\n        /* \"Farm.sol\":27211:27619  function stake(uint256 amount)\r... */\n    tag_110:\n        /* \"Farm.sol\":13810:13831  _nonReentrantBefore() */\n      tag_248\n        /* \"Farm.sol\":13810:13829  _nonReentrantBefore */\n      tag_153\n        /* \"Farm.sol\":13810:13831  _nonReentrantBefore() */\n      jump\t// in\n    tag_248:\n        /* \"Farm.sol\":11550:11557  _paused */\n      0x01\n      0x00\n      swap1\n      sload\n      swap1\n      0x0100\n      exp\n      swap1\n      div\n      0xff\n      and\n        /* \"Farm.sol\":11549:11557  !_paused */\n      iszero\n        /* \"Farm.sol\":11541:11578  require(!_paused, \"Pausable: paused\") */\n      tag_250\n      jumpi\n      mload(0x40)\n      0x08c379a000000000000000000000000000000000000000000000000000000000\n      dup2\n      mstore\n      0x04\n      add\n      tag_251\n      swap1\n      tag_252\n      jump\t// in\n    tag_251:\n      mload(0x40)\n      dup1\n      swap2\n      sub\n      swap1\n      revert\n    tag_250:\n        /* \"Farm.sol\":27311:27321  msg.sender */\n      caller\n        /* \"Farm.sol\":30847:30863  rewardPerToken() */\n      tag_254\n        /* \"Farm.sol\":30847:30861  rewardPerToken */\n      tag_121\n        /* \"Farm.sol\":30847:30863  rewardPerToken() */\n      jump\t// in\n    tag_254:\n        /* \"Farm.sol\":30824:30844  rewardPerTokenStored */\n      0x08\n        /* \"Farm.sol\":30824:30863  rewardPerTokenStored = rewardPerToken() */\n      dup2\n      swap1\n      sstore\n      pop\n        /* \"Farm.sol\":30891:30917  lastTimeRewardApplicable() */\n      tag_255\n        /* \"Farm.sol\":30891:30915  lastTimeRewardApplicable */\n      tag_94\n        /* \"Farm.sol\":30891:30917  lastTimeRewardApplicable() */\n      jump\t// in\n    tag_255:\n        /* \"Farm.sol\":30874:30888  lastUpdateTime */\n      0x07\n        /* \"Farm.sol\":30874:30917  lastUpdateTime = lastTimeRewardApplicable() */\n      dup2\n      swap1\n      sstore\n      pop\n        /* \"Farm.sol\":30951:30952  0 */\n      0x00\n        /* \"Farm.sol\":30932:30953  account != address(0) */\n      0xffffffffffffffffffffffffffffffffffffffff\n      and\n        /* \"Farm.sol\":30932:30939  account */\n      dup2\n        /* \"Farm.sol\":30932:30953  account != address(0) */\n      0xffffffffffffffffffffffffffffffffffffffff\n      and\n      eq\n        /* \"Farm.sol\":30928:31085  if (account != address(0)) {\r... */\n      tag_256\n      jumpi\n        /* \"Farm.sol\":30989:31004  earned(account) */\n      tag_257\n        /* \"Farm.sol\":30996:31003  account */\n      dup2\n        /* \"Farm.sol\":30989:30995  earned */\n      tag_42\n        /* \"Farm.sol\":30989:31004  earned(account) */\n      jump\t// in\n    tag_257:\n        /* \"Farm.sol\":30970:30977  rewards */\n      0x0c\n        /* \"Farm.sol\":30970:30986  rewards[account] */\n      0x00\n        /* \"Farm.sol\":30978:30985  account */\n      dup4\n        /* \"Farm.sol\":30970:30986  rewards[account] */\n      0xffffffffffffffffffffffffffffffffffffffff\n      and\n      0xffffffffffffffffffffffffffffffffffffffff\n      and\n      dup2\n      mstore\n      0x20\n      add\n      swap1\n      dup2\n      mstore\n      0x20\n      add\n      0x00\n      keccak256\n        /* \"Farm.sol\":30970:31004  rewards[account] = earned(account) */\n      dup2\n      swap1\n      sstore\n      pop\n        /* \"Farm.sol\":31053:31073  rewardPerTokenStored */\n      sload(0x08)\n        /* \"Farm.sol\":31019:31041  userRewardPerTokenPaid */\n      0x0b\n        /* \"Farm.sol\":31019:31050  userRewardPerTokenPaid[account] */\n      0x00\n        /* \"Farm.sol\":31042:31049  account */\n      dup4\n        /* \"Farm.sol\":31019:31050  userRewardPerTokenPaid[account] */\n      0xffffffffffffffffffffffffffffffffffffffff\n      and\n      0xffffffffffffffffffffffffffffffffffffffff\n      and\n      dup2\n      mstore\n      0x20\n      add\n      swap1\n      dup2\n      mstore\n      0x20\n      add\n      0x00\n      keccak256\n        /* \"Farm.sol\":31019:31073  userRewardPerTokenPaid[account] = rewardPerTokenStored */\n      dup2\n      swap1\n      sstore\n      pop\n        /* \"Farm.sol\":30928:31085  if (account != address(0)) {\r... */\n    tag_256:\n        /* \"Farm.sol\":27356:27357  0 */\n      0x00\n        /* \"Farm.sol\":27347:27353  amount */\n      dup3\n        /* \"Farm.sol\":27347:27357  amount > 0 */\n      gt\n        /* \"Farm.sol\":27339:27376  require(amount > 0, \"Cannot stake 0\") */\n      tag_259\n      jumpi\n      mload(0x40)\n      0x08c379a000000000000000000000000000000000000000000000000000000000\n      dup2\n      mstore\n      0x04\n      add\n      tag_260\n      swap1\n      tag_261\n      jump\t// in\n    tag_260:\n      mload(0x40)\n      dup1\n      swap2\n      sub\n      swap1\n      revert\n    tag_259:\n        /* \"Farm.sol\":27402:27426  _totalSupply.add(amount) */\n      tag_262\n        /* \"Farm.sol\":27419:27425  amount */\n      dup3\n        /* \"Farm.sol\":27402:27414  _totalSupply */\n      sload(0x0d)\n        /* \"Farm.sol\":27402:27418  _totalSupply.add */\n      tag_147\n      swap1\n        /* \"Farm.sol\":27402:27426  _totalSupply.add(amount) */\n      swap2\n      swap1\n      0xffffffff\n      and\n      jump\t// in\n    tag_262:\n        /* \"Farm.sol\":27387:27399  _totalSupply */\n      0x0d\n        /* \"Farm.sol\":27387:27426  _totalSupply = _totalSupply.add(amount) */\n      dup2\n      swap1\n      sstore\n      pop\n        /* \"Farm.sol\":27461:27494  _balances[msg.sender].add(amount) */\n      tag_263\n        /* \"Farm.sol\":27487:27493  amount */\n      dup3\n        /* \"Farm.sol\":27461:27470  _balances */\n      0x0e\n        /* \"Farm.sol\":27461:27482  _balances[msg.sender] */\n      0x00\n        /* \"Farm.sol\":27471:27481  msg.sender */\n      caller\n        /* \"Farm.sol\":27461:27482  _balances[msg.sender] */\n      0xffffffffffffffffffffffffffffffffffffffff\n      and\n      0xffffffffffffffffffffffffffffffffffffffff\n      and\n      dup2\n      mstore\n      0x20\n      add\n      swap1\n      dup2\n      mstore\n      0x20\n      add\n      0x00\n      keccak256\n      sload\n        /* \"Farm.sol\":27461:27486  _balances[msg.sender].add */\n      tag_147\n      swap1\n        /* \"Farm.sol\":27461:27494  _balances[msg.sender].add(amount) */\n      swap2\n      swap1\n      0xffffffff\n      and\n      jump\t// in\n    tag_263:\n        /* \"Farm.sol\":27437:27446  _balances */\n      0x0e\n        /* \"Farm.sol\":27437:27458  _balances[msg.sender] */\n      0x00\n        /* \"Farm.sol\":27447:27457  msg.sender */\n      caller\n        /* \"Farm.sol\":27437:27458  _balances[msg.sender] */\n      0xffffffffffffffffffffffffffffffffffffffff\n      and\n      0xffffffffffffffffffffffffffffffffffffffff\n      and\n      dup2\n      mstore\n      0x20\n      add\n      swap1\n      dup2\n      mstore\n      0x20\n      add\n      0x00\n      keccak256\n        /* \"Farm.sol\":27437:27494  _balances[msg.sender] = _balances[msg.sender].add(amount) */\n      dup2\n      swap1\n      sstore\n      pop\n        /* \"Farm.sol\":27505:27569  stakingToken.safeTransferFrom(msg.sender, address(this), amount) */\n      tag_264\n        /* \"Farm.sol\":27535:27545  msg.sender */\n      caller\n        /* \"Farm.sol\":27555:27559  this */\n      address\n        /* \"Farm.sol\":27562:27568  amount */\n      dup5\n        /* \"Farm.sol\":27505:27517  stakingToken */\n      0x03\n      0x00\n      swap1\n      sload\n      swap1\n      0x0100\n      exp\n      swap1\n      div\n      0xffffffffffffffffffffffffffffffffffffffff\n      and\n        /* \"Farm.sol\":27505:27534  stakingToken.safeTransferFrom */\n      0xffffffffffffffffffffffffffffffffffffffff\n      and\n      tag_265\n      swap1\n        /* \"Farm.sol\":27505:27569  stakingToken.safeTransferFrom(msg.sender, address(this), amount) */\n      swap4\n      swap3\n      swap2\n      swap1\n      0xffffffff\n      and\n      jump\t// in\n    tag_264:\n        /* \"Farm.sol\":27592:27602  msg.sender */\n      caller\n        /* \"Farm.sol\":27585:27611  Staked(msg.sender, amount) */\n      0xffffffffffffffffffffffffffffffffffffffff\n      and\n      0x9e71bc8eea02a63969f509818f2dafb9254532904319f9dbda79b67bd34a5f3d\n        /* \"Farm.sol\":27604:27610  amount */\n      dup4\n        /* \"Farm.sol\":27585:27611  Staked(msg.sender, amount) */\n      mload(0x40)\n      tag_266\n      swap2\n      swap1\n      tag_44\n      jump\t// in\n    tag_266:\n      mload(0x40)\n      dup1\n      swap2\n      sub\n      swap1\n      log2\n        /* \"Farm.sol\":11589:11590  _ */\n      pop\n        /* \"Farm.sol\":13854:13874  _nonReentrantAfter() */\n      tag_267\n        /* \"Farm.sol\":13854:13872  _nonReentrantAfter */\n      tag_169\n        /* \"Farm.sol\":13854:13874  _nonReentrantAfter() */\n      jump\t// in\n    tag_267:\n        /* \"Farm.sol\":27211:27619  function stake(uint256 amount)\r... */\n      pop\n      jump\t// out\n        /* \"Farm.sol\":24763:24802  uint256 public stakingTokensDecimalRate */\n    tag_112:\n      sload(0x09)\n      dup2\n      jump\t// out\n        /* \"Farm.sol\":24685:24714  uint256 public lastUpdateTime */\n    tag_115:\n      sload(0x07)\n      dup2\n      jump\t// out\n        /* \"Farm.sol\":30361:30721  function setRewardsDuration(uint256 _rewardsDuration) external onlyOwner {\r... */\n    tag_119:\n        /* \"Farm.sol\":22751:22764  _checkOwner() */\n      tag_269\n        /* \"Farm.sol\":22751:22762  _checkOwner */\n      tag_183\n        /* \"Farm.sol\":22751:22764  _checkOwner() */\n      jump\t// in\n    tag_269:\n        /* \"Farm.sol\":30485:30497  periodFinish */\n      sload(0x04)\n        /* \"Farm.sol\":30467:30482  block.timestamp */\n      timestamp\n        /* \"Farm.sol\":30467:30497  block.timestamp > periodFinish */\n      gt\n        /* \"Farm.sol\":30445:30613  require(\r... */\n      tag_271\n      jumpi\n      mload(0x40)\n      0x08c379a000000000000000000000000000000000000000000000000000000000\n      dup2\n      mstore\n      0x04\n      add\n      tag_272\n      swap1\n      tag_273\n      jump\t// in\n    tag_272:\n      mload(0x40)\n      dup1\n      swap2\n      sub\n      swap1\n      revert\n    tag_271:\n        /* \"Farm.sol\":30642:30658  _rewardsDuration */\n      dup1\n        /* \"Farm.sol\":30624:30639  rewardsDuration */\n      0x06\n        /* \"Farm.sol\":30624:30658  rewardsDuration = _rewardsDuration */\n      dup2\n      swap1\n      sstore\n      pop\n        /* \"Farm.sol\":30674:30713  RewardsDurationUpdated(rewardsDuration) */\n      0xfb46ca5a5e06d4540d6387b930a7c978bce0db5f449ec6b3f5d07c6e1d44f2d3\n        /* \"Farm.sol\":30697:30712  rewardsDuration */\n      sload(0x06)\n        /* \"Farm.sol\":30674:30713  RewardsDurationUpdated(rewardsDuration) */\n      mload(0x40)\n      tag_274\n      swap2\n      swap1\n      tag_44\n      jump\t// in\n    tag_274:\n      mload(0x40)\n      dup1\n      swap2\n      sub\n      swap1\n      log1\n        /* \"Farm.sol\":30361:30721  function setRewardsDuration(uint256 _rewardsDuration) external onlyOwner {\r... */\n      pop\n      jump\t// out\n        /* \"Farm.sol\":26249:26643  function rewardPerToken() public view returns (uint256) {\r... */\n    tag_121:\n        /* \"Farm.sol\":26296:26303  uint256 */\n      0x00\n        /* \"Farm.sol\":26336:26337  0 */\n      dup1\n        /* \"Farm.sol\":26320:26332  _totalSupply */\n      sload(0x0d)\n        /* \"Farm.sol\":26320:26337  _totalSupply == 0 */\n      eq\n        /* \"Farm.sol\":26316:26393  if (_totalSupply == 0) {\r... */\n      iszero\n      tag_276\n      jumpi\n        /* \"Farm.sol\":26361:26381  rewardPerTokenStored */\n      sload(0x08)\n        /* \"Farm.sol\":26354:26381  return rewardPerTokenStored */\n      swap1\n      pop\n      jump(tag_275)\n        /* \"Farm.sol\":26316:26393  if (_totalSupply == 0) {\r... */\n    tag_276:\n        /* \"Farm.sol\":26419:26635  rewardPerTokenStored.add(\r... */\n      tag_277\n        /* \"Farm.sol\":26458:26624  lastTimeRewardApplicable()\r... */\n      tag_278\n        /* \"Farm.sol\":26611:26623  _totalSupply */\n      sload(0x0d)\n        /* \"Farm.sol\":26458:26592  lastTimeRewardApplicable()\r... */\n      tag_279\n        /* \"Farm.sol\":26567:26591  stakingTokensDecimalRate */\n      sload(0x09)\n        /* \"Farm.sol\":26458:26548  lastTimeRewardApplicable()\r... */\n      tag_280\n        /* \"Farm.sol\":26537:26547  rewardRate */\n      sload(0x05)\n        /* \"Farm.sol\":26458:26518  lastTimeRewardApplicable()\r... */\n      tag_281\n        /* \"Farm.sol\":26503:26517  lastUpdateTime */\n      sload(0x07)\n        /* \"Farm.sol\":26458:26484  lastTimeRewardApplicable() */\n      tag_282\n        /* \"Farm.sol\":26458:26482  lastTimeRewardApplicable */\n      tag_94\n        /* \"Farm.sol\":26458:26484  lastTimeRewardApplicable() */\n      jump\t// in\n    tag_282:\n        /* \"Farm.sol\":26458:26502  lastTimeRewardApplicable()\r... */\n      tag_146\n      swap1\n        /* \"Farm.sol\":26458:26518  lastTimeRewardApplicable()\r... */\n      swap2\n      swap1\n      0xffffffff\n      and\n      jump\t// in\n    tag_281:\n        /* \"Farm.sol\":26458:26536  lastTimeRewardApplicable()\r... */\n      tag_138\n      swap1\n        /* \"Farm.sol\":26458:26548  lastTimeRewardApplicable()\r... */\n      swap2\n      swap1\n      0xffffffff\n      and\n      jump\t// in\n    tag_280:\n        /* \"Farm.sol\":26458:26566  lastTimeRewardApplicable()\r... */\n      tag_138\n      swap1\n        /* \"Farm.sol\":26458:26592  lastTimeRewardApplicable()\r... */\n      swap2\n      swap1\n      0xffffffff\n      and\n      jump\t// in\n    tag_279:\n        /* \"Farm.sol\":26458:26610  lastTimeRewardApplicable()\r... */\n      tag_137\n      swap1\n        /* \"Farm.sol\":26458:26624  lastTimeRewardApplicable()\r... */\n      swap2\n      swap1\n      0xffffffff\n      and\n      jump\t// in\n    tag_278:\n        /* \"Farm.sol\":26419:26439  rewardPerTokenStored */\n      sload(0x08)\n        /* \"Farm.sol\":26419:26443  rewardPerTokenStored.add */\n      tag_147\n      swap1\n        /* \"Farm.sol\":26419:26635  rewardPerTokenStored.add(\r... */\n      swap2\n      swap1\n      0xffffffff\n      and\n      jump\t// in\n    tag_277:\n        /* \"Farm.sol\":26403:26635  return\r... */\n      swap1\n      pop\n        /* \"Farm.sol\":26249:26643  function rewardPerToken() public view returns (uint256) {\r... */\n    tag_275:\n      swap1\n      jump\t// out\n        /* \"Farm.sol\":24508:24534  IERC20 public rewardsToken */\n    tag_124:\n      0x02\n      0x00\n      swap1\n      sload\n      swap1\n      0x0100\n      exp\n      swap1\n      div\n      0xffffffffffffffffffffffffffffffffffffffff\n      and\n      dup2\n      jump\t// out\n        /* \"Farm.sol\":24721:24756  uint256 public rewardPerTokenStored */\n    tag_127:\n      sload(0x08)\n      dup2\n      jump\t// out\n        /* \"Farm.sol\":28329:28426  function exit() external {\r... */\n    tag_130:\n        /* \"Farm.sol\":28365:28396  withdraw(_balances[msg.sender]) */\n      tag_284\n        /* \"Farm.sol\":28374:28383  _balances */\n      0x0e\n        /* \"Farm.sol\":28374:28395  _balances[msg.sender] */\n      0x00\n        /* \"Farm.sol\":28384:28394  msg.sender */\n      caller\n        /* \"Farm.sol\":28374:28395  _balances[msg.sender] */\n      0xffffffffffffffffffffffffffffffffffffffff\n      and\n      0xffffffffffffffffffffffffffffffffffffffff\n      and\n      dup2\n      mstore\n      0x20\n      add\n      swap1\n      dup2\n      mstore\n      0x20\n      add\n      0x00\n      keccak256\n      sload\n        /* \"Farm.sol\":28365:28373  withdraw */\n      tag_58\n        /* \"Farm.sol\":28365:28396  withdraw(_balances[msg.sender]) */\n      jump\t// in\n    tag_284:\n        /* \"Farm.sol\":28407:28418  getReward() */\n      tag_285\n        /* \"Farm.sol\":28407:28416  getReward */\n      tag_71\n        /* \"Farm.sol\":28407:28418  getReward() */\n      jump\t// in\n    tag_285:\n        /* \"Farm.sol\":28329:28426  function exit() external {\r... */\n      jump\t// out\n        /* \"Farm.sol\":24574:24605  uint256 public periodFinish = 0 */\n    tag_132:\n      sload(0x04)\n      dup2\n      jump\t// out\n        /* \"Farm.sol\":23771:23972  function transferOwnership(address newOwner) public virtual onlyOwner {\r... */\n    tag_136:\n        /* \"Farm.sol\":22751:22764  _checkOwner() */\n      tag_287\n        /* \"Farm.sol\":22751:22762  _checkOwner */\n      tag_183\n        /* \"Farm.sol\":22751:22764  _checkOwner() */\n      jump\t// in\n    tag_287:\n        /* \"Farm.sol\":23880:23881  0 */\n      0x00\n        /* \"Farm.sol\":23860:23882  newOwner != address(0) */\n      0xffffffffffffffffffffffffffffffffffffffff\n      and\n        /* \"Farm.sol\":23860:23868  newOwner */\n      dup2\n        /* \"Farm.sol\":23860:23882  newOwner != address(0) */\n      0xffffffffffffffffffffffffffffffffffffffff\n      and\n      eq\n      iszero\n        /* \"Farm.sol\":23852:23925  require(newOwner != address(0), \"Ownable: new owner is the zero address\") */\n      tag_289\n      jumpi\n      mload(0x40)\n      0x08c379a000000000000000000000000000000000000000000000000000000000\n      dup2\n      mstore\n      0x04\n      add\n      tag_290\n      swap1\n      tag_291\n      jump\t// in\n    tag_290:\n      mload(0x40)\n      dup1\n      swap2\n      sub\n      swap1\n      revert\n    tag_289:\n        /* \"Farm.sol\":23936:23964  _transferOwnership(newOwner) */\n      tag_292\n        /* \"Farm.sol\":23955:23963  newOwner */\n      dup2\n        /* \"Farm.sol\":23936:23954  _transferOwnership */\n      tag_227\n        /* \"Farm.sol\":23936:23964  _transferOwnership(newOwner) */\n      jump\t// in\n    tag_292:\n        /* \"Farm.sol\":23771:23972  function transferOwnership(address newOwner) public virtual onlyOwner {\r... */\n      pop\n      jump\t// out\n        /* \"Farm.sol\":16971:17103  function div(uint256 a, uint256 b) internal pure returns (uint256) {\r... */\n    tag_137:\n        /* \"Farm.sol\":17029:17036  uint256 */\n      0x00\n        /* \"Farm.sol\":17056:17095  div(a, b, \"SafeMath: division by zero\") */\n      tag_294\n        /* \"Farm.sol\":17060:17061  a */\n      dup4\n        /* \"Farm.sol\":17063:17064  b */\n      dup4\n        /* \"Farm.sol\":17056:17095  div(a, b, \"SafeMath: division by zero\") */\n      mload(0x40)\n      dup1\n      0x40\n      add\n      0x40\n      mstore\n      dup1\n      0x1a\n      dup2\n      mstore\n      0x20\n      add\n      0x536166654d6174683a206469766973696f6e206279207a65726f000000000000\n      dup2\n      mstore\n      pop\n        /* \"Farm.sol\":17056:17059  div */\n      tag_295\n        /* \"Farm.sol\":17056:17095  div(a, b, \"SafeMath: division by zero\") */\n      jump\t// in\n    tag_294:\n        /* \"Farm.sol\":17049:17095  return div(a, b, \"SafeMath: division by zero\") */\n      swap1\n      pop\n        /* \"Farm.sol\":16971:17103  function div(uint256 a, uint256 b) internal pure returns (uint256) {\r... */\n      swap3\n      swap2\n      pop\n      pop\n      jump\t// out\n        /* \"Farm.sol\":16024:16495  function mul(uint256 a, uint256 b) internal pure returns (uint256) {\r... */\n    tag_138:\n        /* \"Farm.sol\":16082:16089  uint256 */\n      0x00\n        /* \"Farm.sol\":16332:16333  0 */\n      dup1\n        /* \"Farm.sol\":16327:16328  a */\n      dup4\n        /* \"Farm.sol\":16327:16333  a == 0 */\n      eq\n        /* \"Farm.sol\":16323:16370  if (a == 0) {\r... */\n      iszero\n      tag_297\n      jumpi\n        /* \"Farm.sol\":16357:16358  0 */\n      0x00\n        /* \"Farm.sol\":16350:16358  return 0 */\n      swap1\n      pop\n      jump(tag_296)\n        /* \"Farm.sol\":16323:16370  if (a == 0) {\r... */\n    tag_297:\n        /* \"Farm.sol\":16382:16391  uint256 c */\n      0x00\n        /* \"Farm.sol\":16398:16399  b */\n      dup3\n        /* \"Farm.sol\":16394:16395  a */\n      dup5\n        /* \"Farm.sol\":16394:16399  a * b */\n      tag_298\n      swap2\n      swap1\n      tag_299\n      jump\t// in\n    tag_298:\n        /* \"Farm.sol\":16382:16399  uint256 c = a * b */\n      swap1\n      pop\n        /* \"Farm.sol\":16427:16428  b */\n      dup3\n        /* \"Farm.sol\":16422:16423  a */\n      dup5\n        /* \"Farm.sol\":16418:16419  c */\n      dup3\n        /* \"Farm.sol\":16418:16423  c / a */\n      tag_300\n      swap2\n      swap1\n      tag_301\n      jump\t// in\n    tag_300:\n        /* \"Farm.sol\":16418:16428  c / a == b */\n      eq\n        /* \"Farm.sol\":16410:16466  require(c / a == b, \"SafeMath: multiplication overflow\") */\n      tag_302\n      jumpi\n      mload(0x40)\n      0x08c379a000000000000000000000000000000000000000000000000000000000\n      dup2\n      mstore\n      0x04\n      add\n      tag_303\n      swap1\n      tag_304\n      jump\t// in\n    tag_303:\n      mload(0x40)\n      dup1\n      swap2\n      sub\n      swap1\n      revert\n    tag_302:\n        /* \"Farm.sol\":16486:16487  c */\n      dup1\n        /* \"Farm.sol\":16479:16487  return c */\n      swap2\n      pop\n      pop\n        /* \"Farm.sol\":16024:16495  function mul(uint256 a, uint256 b) internal pure returns (uint256) {\r... */\n    tag_296:\n      swap3\n      swap2\n      pop\n      pop\n      jump\t// out\n        /* \"Farm.sol\":18342:18472  function mod(uint256 a, uint256 b) internal pure returns (uint256) {\r... */\n    tag_139:\n        /* \"Farm.sol\":18400:18407  uint256 */\n      0x00\n        /* \"Farm.sol\":18427:18464  mod(a, b, \"SafeMath: modulo by zero\") */\n      tag_306\n        /* \"Farm.sol\":18431:18432  a */\n      dup4\n        /* \"Farm.sol\":18434:18435  b */\n      dup4\n        /* \"Farm.sol\":18427:18464  mod(a, b, \"SafeMath: modulo by zero\") */\n      mload(0x40)\n      dup1\n      0x40\n      add\n      0x40\n      mstore\n      dup1\n      0x18\n      dup2\n      mstore\n      0x20\n      add\n      0x536166654d6174683a206d6f64756c6f206279207a65726f0000000000000000\n      dup2\n      mstore\n      pop\n        /* \"Farm.sol\":18427:18430  mod */\n      tag_307\n        /* \"Farm.sol\":18427:18464  mod(a, b, \"SafeMath: modulo by zero\") */\n      jump\t// in\n    tag_306:\n        /* \"Farm.sol\":18420:18464  return mod(a, b, \"SafeMath: modulo by zero\") */\n      swap1\n      pop\n        /* \"Farm.sol\":18342:18472  function mod(uint256 a, uint256 b) internal pure returns (uint256) {\r... */\n      swap3\n      swap2\n      pop\n      pop\n      jump\t// out\n        /* \"Farm.sol\":15134:15270  function sub(uint256 a, uint256 b) internal pure returns (uint256) {\r... */\n    tag_146:\n        /* \"Farm.sol\":15192:15199  uint256 */\n      0x00\n        /* \"Farm.sol\":15219:15262  sub(a, b, \"SafeMath: subtraction overflow\") */\n      tag_309\n        /* \"Farm.sol\":15223:15224  a */\n      dup4\n        /* \"Farm.sol\":15226:15227  b */\n      dup4\n        /* \"Farm.sol\":15219:15262  sub(a, b, \"SafeMath: subtraction overflow\") */\n      mload(0x40)\n      dup1\n      0x40\n      add\n      0x40\n      mstore\n      dup1\n      0x1e\n      dup2\n      mstore\n      0x20\n      add\n      0x536166654d6174683a207375627472616374696f6e206f766572666c6f770000\n      dup2\n      mstore\n      pop\n        /* \"Farm.sol\":15219:15222  sub */\n      tag_310\n        /* \"Farm.sol\":15219:15262  sub(a, b, \"SafeMath: subtraction overflow\") */\n      jump\t// in\n    tag_309:\n        /* \"Farm.sol\":15212:15262  return sub(a, b, \"SafeMath: subtraction overflow\") */\n      swap1\n      pop\n        /* \"Farm.sol\":15134:15270  function sub(uint256 a, uint256 b) internal pure returns (uint256) {\r... */\n      swap3\n      swap2\n      pop\n      pop\n      jump\t// out\n        /* \"Farm.sol\":14670:14851  function add(uint256 a, uint256 b) internal pure returns (uint256) {\r... */\n    tag_147:\n        /* \"Farm.sol\":14728:14735  uint256 */\n      0x00\n        /* \"Farm.sol\":14748:14757  uint256 c */\n      dup1\n        /* \"Farm.sol\":14764:14765  b */\n      dup3\n        /* \"Farm.sol\":14760:14761  a */\n      dup5\n        /* \"Farm.sol\":14760:14765  a + b */\n      tag_312\n      swap2\n      swap1\n      tag_313\n      jump\t// in\n    tag_312:\n        /* \"Farm.sol\":14748:14765  uint256 c = a + b */\n      swap1\n      pop\n        /* \"Farm.sol\":14789:14790  a */\n      dup4\n        /* \"Farm.sol\":14784:14785  c */\n      dup2\n        /* \"Farm.sol\":14784:14790  c >= a */\n      lt\n      iszero\n        /* \"Farm.sol\":14776:14822  require(c >= a, \"SafeMath: addition overflow\") */\n      tag_314\n      jumpi\n      mload(0x40)\n      0x08c379a000000000000000000000000000000000000000000000000000000000\n      dup2\n      mstore\n      0x04\n      add\n      tag_315\n      swap1\n      tag_316\n      jump\t// in\n    tag_315:\n      mload(0x40)\n      dup1\n      swap2\n      sub\n      swap1\n      revert\n    tag_314:\n        /* \"Farm.sol\":14842:14843  c */\n      dup1\n        /* \"Farm.sol\":14835:14843  return c */\n      swap2\n      pop\n      pop\n        /* \"Farm.sol\":14670:14851  function add(uint256 a, uint256 b) internal pure returns (uint256) {\r... */\n      swap3\n      swap2\n      pop\n      pop\n      jump\t// out\n        /* \"Farm.sol\":13890:14179  function _nonReentrantBefore() private {\r... */\n    tag_153:\n        /* \"Farm.sol\":13292:13293  2 */\n      0x02\n        /* \"Farm.sol\":14020:14027  _status */\n      sload(0x00)\n        /* \"Farm.sol\":14020:14039  _status != _ENTERED */\n      eq\n      iszero\n        /* \"Farm.sol\":14012:14075  require(_status != _ENTERED, \"ReentrancyGuard: reentrant call\") */\n      tag_318\n      jumpi\n      mload(0x40)\n      0x08c379a000000000000000000000000000000000000000000000000000000000\n      dup2\n      mstore\n      0x04\n      add\n      tag_319\n      swap1\n      tag_320\n      jump\t// in\n    tag_319:\n      mload(0x40)\n      dup1\n      swap2\n      sub\n      swap1\n      revert\n    tag_318:\n        /* \"Farm.sol\":13292:13293  2 */\n      0x02\n        /* \"Farm.sol\":14153:14160  _status */\n      0x00\n        /* \"Farm.sol\":14153:14171  _status = _ENTERED */\n      dup2\n      swap1\n      sstore\n      pop\n        /* \"Farm.sol\":13890:14179  function _nonReentrantBefore() private {\r... */\n      jump\t// out\n        /* \"Farm.sol\":19222:19399  function safeTransfer(IERC20 token, address to, uint256 value) internal {\r... */\n    tag_166:\n        /* \"Farm.sol\":19305:19391  _callOptionalReturn(token, abi.encodeWithSelector(token.transfer.selector, to, value)) */\n      tag_322\n        /* \"Farm.sol\":19325:19330  token */\n      dup4\n        /* \"Farm.sol\":19355:19378  token.transfer.selector */\n      shl(0xe0, 0xa9059cbb)\n        /* \"Farm.sol\":19380:19382  to */\n      dup5\n        /* \"Farm.sol\":19384:19389  value */\n      dup5\n        /* \"Farm.sol\":19332:19390  abi.encodeWithSelector(token.transfer.selector, to, value) */\n      add(0x24, mload(0x40))\n      tag_323\n      swap3\n      swap2\n      swap1\n      tag_245\n      jump\t// in\n    tag_323:\n      mload(0x40)\n      0x20\n      dup2\n      dup4\n      sub\n      sub\n      dup2\n      mstore\n      swap1\n      0x40\n      mstore\n      swap1\n      not(0xffffffffffffffffffffffffffffffffffffffffffffffffffffffff)\n      and\n      0x20\n      dup3\n      add\n      dup1\n      mload\n      0xffffffffffffffffffffffffffffffffffffffffffffffffffffffff\n      dup4\n      dup2\n      dup4\n      and\n      or\n      dup4\n      mstore\n      pop\n      pop\n      pop\n      pop\n        /* \"Farm.sol\":19305:19324  _callOptionalReturn */\n      tag_324\n        /* \"Farm.sol\":19305:19391  _callOptionalReturn(token, abi.encodeWithSelector(token.transfer.selector, to, value)) */\n      jump\t// in\n    tag_322:\n        /* \"Farm.sol\":19222:19399  function safeTransfer(IERC20 token, address to, uint256 value) internal {\r... */\n      pop\n      pop\n      pop\n      jump\t// out\n        /* \"Farm.sol\":14187:14400  function _nonReentrantAfter() private {\r... */\n    tag_169:\n        /* \"Farm.sol\":13248:13249  1 */\n      0x01\n        /* \"Farm.sol\":14370:14377  _status */\n      0x00\n        /* \"Farm.sol\":14370:14392  _status = _NOT_ENTERED */\n      dup2\n      swap1\n      sstore\n      pop\n        /* \"Farm.sol\":14187:14400  function _nonReentrantAfter() private {\r... */\n      jump\t// out\n        /* \"Farm.sol\":23030:23162  function _checkOwner() internal view virtual {\r... */\n    tag_183:\n        /* \"Farm.sol\":23105:23117  _msgSender() */\n      tag_327\n        /* \"Farm.sol\":23105:23115  _msgSender */\n      tag_328\n        /* \"Farm.sol\":23105:23117  _msgSender() */\n      jump\t// in\n    tag_327:\n        /* \"Farm.sol\":23094:23117  owner() == _msgSender() */\n      0xffffffffffffffffffffffffffffffffffffffff\n      and\n        /* \"Farm.sol\":23094:23101  owner() */\n      tag_329\n        /* \"Farm.sol\":23094:23099  owner */\n      tag_105\n        /* \"Farm.sol\":23094:23101  owner() */\n      jump\t// in\n    tag_329:\n        /* \"Farm.sol\":23094:23117  owner() == _msgSender() */\n      0xffffffffffffffffffffffffffffffffffffffff\n      and\n      eq\n        /* \"Farm.sol\":23086:23154  require(owner() == _msgSender(), \"Ownable: caller is not the owner\") */\n      tag_330\n      jumpi\n      mload(0x40)\n      0x08c379a000000000000000000000000000000000000000000000000000000000\n      dup2\n      mstore\n      0x04\n      add\n      tag_331\n      swap1\n      tag_332\n      jump\t// in\n    tag_331:\n      mload(0x40)\n      dup1\n      swap2\n      sub\n      swap1\n      revert\n    tag_330:\n        /* \"Farm.sol\":23030:23162  function _checkOwner() internal view virtual {\r... */\n      jump\t// out\n        /* \"Farm.sol\":24132:24323  function _transferOwnership(address newOwner) internal virtual {\r... */\n    tag_227:\n        /* \"Farm.sol\":24206:24222  address oldOwner */\n      0x00\n        /* \"Farm.sol\":24225:24231  _owner */\n      0x01\n      dup1\n      sload\n      swap1\n      0x0100\n      exp\n      swap1\n      div\n      0xffffffffffffffffffffffffffffffffffffffff\n      and\n        /* \"Farm.sol\":24206:24231  address oldOwner = _owner */\n      swap1\n      pop\n        /* \"Farm.sol\":24251:24259  newOwner */\n      dup2\n        /* \"Farm.sol\":24242:24248  _owner */\n      0x01\n      dup1\n        /* \"Farm.sol\":24242:24259  _owner = newOwner */\n      0x0100\n      exp\n      dup2\n      sload\n      dup2\n      0xffffffffffffffffffffffffffffffffffffffff\n      mul\n      not\n      and\n      swap1\n      dup4\n      0xffffffffffffffffffffffffffffffffffffffff\n      and\n      mul\n      or\n      swap1\n      sstore\n      pop\n        /* \"Farm.sol\":24306:24314  newOwner */\n      dup2\n        /* \"Farm.sol\":24275:24315  OwnershipTransferred(oldOwner, newOwner) */\n      0xffffffffffffffffffffffffffffffffffffffff\n      and\n        /* \"Farm.sol\":24296:24304  oldOwner */\n      dup2\n        /* \"Farm.sol\":24275:24315  OwnershipTransferred(oldOwner, newOwner) */\n      0xffffffffffffffffffffffffffffffffffffffff\n      and\n      0x8be0079c531659141344cd1fd0a4f28419497f9722a3daafe3b4186f6b6457e0\n      mload(0x40)\n      mload(0x40)\n      dup1\n      swap2\n      sub\n      swap1\n      log3\n        /* \"Farm.sol\":24195:24323  {\r... */\n      pop\n        /* \"Farm.sol\":24132:24323  function _transferOwnership(address newOwner) internal virtual {\r... */\n      pop\n      jump\t// out\n        /* \"Farm.sol\":19407:19612  function safeTransferFrom(IERC20 token, address from, address to, uint256 value) internal {\r... */\n    tag_265:\n        /* \"Farm.sol\":19508:19604  _callOptionalReturn(token, abi.encodeWithSelector(token.transferFrom.selector, from, to, value)) */\n      tag_335\n        /* \"Farm.sol\":19528:19533  token */\n      dup5\n        /* \"Farm.sol\":19558:19585  token.transferFrom.selector */\n      shl(0xe0, 0x23b872dd)\n        /* \"Farm.sol\":19587:19591  from */\n      dup6\n        /* \"Farm.sol\":19593:19595  to */\n      dup6\n        /* \"Farm.sol\":19597:19602  value */\n      dup6\n        /* \"Farm.sol\":19535:19603  abi.encodeWithSelector(token.transferFrom.selector, from, to, value) */\n      add(0x24, mload(0x40))\n      tag_336\n      swap4\n      swap3\n      swap2\n      swap1\n      tag_337\n      jump\t// in\n    tag_336:\n      mload(0x40)\n      0x20\n      dup2\n      dup4\n      sub\n      sub\n      dup2\n      mstore\n      swap1\n      0x40\n      mstore\n      swap1\n      not(0xffffffffffffffffffffffffffffffffffffffffffffffffffffffff)\n      and\n      0x20\n      dup3\n      add\n      dup1\n      mload\n      0xffffffffffffffffffffffffffffffffffffffffffffffffffffffff\n      dup4\n      dup2\n      dup4\n      and\n      or\n      dup4\n      mstore\n      pop\n      pop\n      pop\n      pop\n        /* \"Farm.sol\":19508:19527  _callOptionalReturn */\n      tag_324\n        /* \"Farm.sol\":19508:19604  _callOptionalReturn(token, abi.encodeWithSelector(token.transferFrom.selector, from, to, value)) */\n      jump\t// in\n    tag_335:\n        /* \"Farm.sol\":19407:19612  function safeTransferFrom(IERC20 token, address from, address to, uint256 value) internal {\r... */\n      pop\n      pop\n      pop\n      pop\n      jump\t// out\n        /* \"Farm.sol\":17599:17877  function div(uint256 a, uint256 b, string memory errorMessage) internal pure returns (uint256) {\r... */\n    tag_295:\n        /* \"Farm.sol\":17685:17692  uint256 */\n      0x00\n        /* \"Farm.sol\":17717:17718  0 */\n      dup1\n        /* \"Farm.sol\":17713:17714  b */\n      dup4\n        /* \"Farm.sol\":17713:17718  b > 0 */\n      gt\n        /* \"Farm.sol\":17720:17732  errorMessage */\n      dup3\n        /* \"Farm.sol\":17705:17733  require(b > 0, errorMessage) */\n      swap1\n      tag_339\n      jumpi\n      mload(0x40)\n      0x08c379a000000000000000000000000000000000000000000000000000000000\n      dup2\n      mstore\n      0x04\n      add\n      tag_340\n      swap2\n      swap1\n      tag_341\n      jump\t// in\n    tag_340:\n      mload(0x40)\n      dup1\n      swap2\n      sub\n      swap1\n      revert\n    tag_339:\n      pop\n        /* \"Farm.sol\":17744:17753  uint256 c */\n      0x00\n        /* \"Farm.sol\":17760:17761  b */\n      dup4\n        /* \"Farm.sol\":17756:17757  a */\n      dup6\n        /* \"Farm.sol\":17756:17761  a / b */\n      tag_342\n      swap2\n      swap1\n      tag_301\n      jump\t// in\n    tag_342:\n        /* \"Farm.sol\":17744:17761  uint256 c = a / b */\n      swap1\n      pop\n        /* \"Farm.sol\":17868:17869  c */\n      dup1\n        /* \"Farm.sol\":17861:17869  return c */\n      swap2\n      pop\n      pop\n        /* \"Farm.sol\":17599:17877  function div(uint256 a, uint256 b, string memory errorMessage) internal pure returns (uint256) {\r... */\n      swap4\n      swap3\n      pop\n      pop\n      pop\n      jump\t// out\n        /* \"Farm.sol\":18957:19123  function mod(uint256 a, uint256 b, string memory errorMessage) internal pure returns (uint256) {\r... */\n    tag_307:\n        /* \"Farm.sol\":19043:19050  uint256 */\n      0x00\n        /* \"Farm.sol\":19076:19077  0 */\n      dup1\n        /* \"Farm.sol\":19071:19072  b */\n      dup4\n        /* \"Farm.sol\":19071:19077  b != 0 */\n      eq\n      iszero\n        /* \"Farm.sol\":19079:19091  errorMessage */\n      dup3\n        /* \"Farm.sol\":19063:19092  require(b != 0, errorMessage) */\n      swap1\n      tag_344\n      jumpi\n      mload(0x40)\n      0x08c379a000000000000000000000000000000000000000000000000000000000\n      dup2\n      mstore\n      0x04\n      add\n      tag_345\n      swap2\n      swap1\n      tag_341\n      jump\t// in\n    tag_345:\n      mload(0x40)\n      dup1\n      swap2\n      sub\n      swap1\n      revert\n    tag_344:\n      pop\n        /* \"Farm.sol\":19114:19115  b */\n      dup3\n        /* \"Farm.sol\":19110:19111  a */\n      dup5\n        /* \"Farm.sol\":19110:19115  a % b */\n      tag_346\n      swap2\n      swap1\n      tag_347\n      jump\t// in\n    tag_346:\n        /* \"Farm.sol\":19103:19115  return a % b */\n      swap1\n      pop\n        /* \"Farm.sol\":18957:19123  function mod(uint256 a, uint256 b, string memory errorMessage) internal pure returns (uint256) {\r... */\n      swap4\n      swap3\n      pop\n      pop\n      pop\n      jump\t// out\n        /* \"Farm.sol\":15573:15765  function sub(uint256 a, uint256 b, string memory errorMessage) internal pure returns (uint256) {\r... */\n    tag_310:\n        /* \"Farm.sol\":15659:15666  uint256 */\n      0x00\n        /* \"Farm.sol\":15692:15693  a */\n      dup4\n        /* \"Farm.sol\":15687:15688  b */\n      dup4\n        /* \"Farm.sol\":15687:15693  b <= a */\n      gt\n      iszero\n        /* \"Farm.sol\":15695:15707  errorMessage */\n      dup3\n        /* \"Farm.sol\":15679:15708  require(b <= a, errorMessage) */\n      swap1\n      tag_349\n      jumpi\n      mload(0x40)\n      0x08c379a000000000000000000000000000000000000000000000000000000000\n      dup2\n      mstore\n      0x04\n      add\n      tag_350\n      swap2\n      swap1\n      tag_341\n      jump\t// in\n    tag_350:\n      mload(0x40)\n      dup1\n      swap2\n      sub\n      swap1\n      revert\n    tag_349:\n      pop\n        /* \"Farm.sol\":15719:15728  uint256 c */\n      0x00\n        /* \"Farm.sol\":15735:15736  b */\n      dup4\n        /* \"Farm.sol\":15731:15732  a */\n      dup6\n        /* \"Farm.sol\":15731:15736  a - b */\n      tag_351\n      swap2\n      swap1\n      tag_352\n      jump\t// in\n    tag_351:\n        /* \"Farm.sol\":15719:15736  uint256 c = a - b */\n      swap1\n      pop\n        /* \"Farm.sol\":15756:15757  c */\n      dup1\n        /* \"Farm.sol\":15749:15757  return c */\n      swap2\n      pop\n      pop\n        /* \"Farm.sol\":15573:15765  function sub(uint256 a, uint256 b, string memory errorMessage) internal pure returns (uint256) {\r... */\n      swap4\n      swap3\n      pop\n      pop\n      pop\n      jump\t// out\n        /* \"Farm.sol\":21527:22288  function _callOptionalReturn(IERC20 token, bytes memory data) private {\r... */\n    tag_324:\n        /* \"Farm.sol\":21951:21974  bytes memory returndata */\n      0x00\n        /* \"Farm.sol\":21977:22046  address(token).functionCall(data, \"SafeERC20: low-level call failed\") */\n      tag_354\n        /* \"Farm.sol\":22005:22009  data */\n      dup3\n        /* \"Farm.sol\":21977:22046  address(token).functionCall(data, \"SafeERC20: low-level call failed\") */\n      mload(0x40)\n      dup1\n      0x40\n      add\n      0x40\n      mstore\n      dup1\n      0x20\n      dup2\n      mstore\n      0x20\n      add\n      0x5361666545524332303a206c6f772d6c6576656c2063616c6c206661696c6564\n      dup2\n      mstore\n      pop\n        /* \"Farm.sol\":21985:21990  token */\n      dup6\n        /* \"Farm.sol\":21977:22004  address(token).functionCall */\n      0xffffffffffffffffffffffffffffffffffffffff\n      and\n      tag_355\n      swap1\n        /* \"Farm.sol\":21977:22046  address(token).functionCall(data, \"SafeERC20: low-level call failed\") */\n      swap3\n      swap2\n      swap1\n      0xffffffff\n      and\n      jump\t// in\n    tag_354:\n        /* \"Farm.sol\":21951:22046  bytes memory returndata = address(token).functionCall(data, \"SafeERC20: low-level call failed\") */\n      swap1\n      pop\n        /* \"Farm.sol\":22081:22082  0 */\n      0x00\n        /* \"Farm.sol\":22061:22071  returndata */\n      dup2\n        /* \"Farm.sol\":22061:22078  returndata.length */\n      mload\n        /* \"Farm.sol\":22061:22082  returndata.length > 0 */\n      gt\n        /* \"Farm.sol\":22057:22281  if (returndata.length > 0) { // Return data is optional\r... */\n      iszero\n      tag_356\n      jumpi\n        /* \"Farm.sol\":22203:22213  returndata */\n      dup1\n        /* \"Farm.sol\":22192:22222  abi.decode(returndata, (bool)) */\n      dup1\n      0x20\n      add\n      swap1\n      mload\n      dup2\n      add\n      swap1\n      tag_357\n      swap2\n      swap1\n      tag_358\n      jump\t// in\n    tag_357:\n        /* \"Farm.sol\":22184:22269  require(abi.decode(returndata, (bool)), \"SafeERC20: ERC20 operation did not succeed\") */\n      tag_359\n      jumpi\n      mload(0x40)\n      0x08c379a000000000000000000000000000000000000000000000000000000000\n      dup2\n      mstore\n      0x04\n      add\n      tag_360\n      swap1\n      tag_361\n      jump\t// in\n    tag_360:\n      mload(0x40)\n      dup1\n      swap2\n      sub\n      swap1\n      revert\n    tag_359:\n        /* \"Farm.sol\":22057:22281  if (returndata.length > 0) { // Return data is optional\r... */\n    tag_356:\n        /* \"Farm.sol\":21597:22288  {\r... */\n      pop\n        /* \"Farm.sol\":21527:22288  function _callOptionalReturn(IERC20 token, bytes memory data) private {\r... */\n      pop\n      pop\n      jump\t// out\n        /* \"Farm.sol\":10474:10572  function _msgSender() internal view virtual returns (address) {\r... */\n    tag_328:\n        /* \"Farm.sol\":10527:10534  address */\n      0x00\n        /* \"Farm.sol\":10554:10564  msg.sender */\n      caller\n        /* \"Farm.sol\":10547:10564  return msg.sender */\n      swap1\n      pop\n        /* \"Farm.sol\":10474:10572  function _msgSender() internal view virtual returns (address) {\r... */\n      swap1\n      jump\t// out\n        /* \"Farm.sol\":4463:4658  function functionCall(address target, bytes memory data, string memory errorMessage) internal returns (bytes memory) {\r... */\n    tag_355:\n        /* \"Farm.sol\":4566:4578  bytes memory */\n      0x60\n        /* \"Farm.sol\":4598:4650  functionCallWithValue(target, data, 0, errorMessage) */\n      tag_364\n        /* \"Farm.sol\":4620:4626  target */\n      dup5\n        /* \"Farm.sol\":4628:4632  data */\n      dup5\n        /* \"Farm.sol\":4634:4635  0 */\n      0x00\n        /* \"Farm.sol\":4637:4649  errorMessage */\n      dup6\n        /* \"Farm.sol\":4598:4619  functionCallWithValue */\n      tag_365\n        /* \"Farm.sol\":4598:4650  functionCallWithValue(target, data, 0, errorMessage) */\n      jump\t// in\n    tag_364:\n        /* \"Farm.sol\":4591:4650  return functionCallWithValue(target, data, 0, errorMessage) */\n      swap1\n      pop\n        /* \"Farm.sol\":4463:4658  function functionCall(address target, bytes memory data, string memory errorMessage) internal returns (bytes memory) {\r... */\n      swap4\n      swap3\n      pop\n      pop\n      pop\n      jump\t// out\n        /* \"Farm.sol\":5515:6045  function functionCallWithValue(address target, bytes memory data, uint256 value, string memory errorMessage) internal returns (bytes memory) {\r... */\n    tag_365:\n        /* \"Farm.sol\":5642:5654  bytes memory */\n      0x60\n        /* \"Farm.sol\":5700:5705  value */\n      dup3\n        /* \"Farm.sol\":5675:5696  address(this).balance */\n      selfbalance\n        /* \"Farm.sol\":5675:5705  address(this).balance >= value */\n      lt\n      iszero\n        /* \"Farm.sol\":5667:5748  require(address(this).balance >= value, \"Address: insufficient balance for call\") */\n      tag_367\n      jumpi\n      mload(0x40)\n      0x08c379a000000000000000000000000000000000000000000000000000000000\n      dup2\n      mstore\n      0x04\n      add\n      tag_368\n      swap1\n      tag_369\n      jump\t// in\n    tag_368:\n      mload(0x40)\n      dup1\n      swap2\n      sub\n      swap1\n      revert\n    tag_367:\n        /* \"Farm.sol\":5767:5785  isContract(target) */\n      tag_370\n        /* \"Farm.sol\":5778:5784  target */\n      dup6\n        /* \"Farm.sol\":5767:5777  isContract */\n      tag_371\n        /* \"Farm.sol\":5767:5785  isContract(target) */\n      jump\t// in\n    tag_370:\n        /* \"Farm.sol\":5759:5819  require(isContract(target), \"Address: call to non-contract\") */\n      tag_372\n      jumpi\n      mload(0x40)\n      0x08c379a000000000000000000000000000000000000000000000000000000000\n      dup2\n      mstore\n      0x04\n      add\n      tag_373\n      swap1\n      tag_374\n      jump\t// in\n    tag_373:\n      mload(0x40)\n      dup1\n      swap2\n      sub\n      swap1\n      revert\n    tag_372:\n        /* \"Farm.sol\":5893:5905  bool success */\n      0x00\n        /* \"Farm.sol\":5907:5930  bytes memory returndata */\n      dup1\n        /* \"Farm.sol\":5934:5940  target */\n      dup7\n        /* \"Farm.sol\":5934:5945  target.call */\n      0xffffffffffffffffffffffffffffffffffffffff\n      and\n        /* \"Farm.sol\":5954:5959  value */\n      dup6\n        /* \"Farm.sol\":5962:5966  data */\n      dup8\n        /* \"Farm.sol\":5934:5967  target.call{ value: value }(data) */\n      mload(0x40)\n      tag_375\n      swap2\n      swap1\n      tag_376\n      jump\t// in\n    tag_375:\n      0x00\n      mload(0x40)\n      dup1\n      dup4\n      sub\n      dup2\n      dup6\n      dup8\n      gas\n      call\n      swap3\n      pop\n      pop\n      pop\n      returndatasize\n      dup1\n      0x00\n      dup2\n      eq\n      tag_379\n      jumpi\n      mload(0x40)\n      swap2\n      pop\n      and(add(returndatasize, 0x3f), not(0x1f))\n      dup3\n      add\n      0x40\n      mstore\n      returndatasize\n      dup3\n      mstore\n      returndatasize\n      0x00\n      0x20\n      dup5\n      add\n      returndatacopy\n      jump(tag_378)\n    tag_379:\n      0x60\n      swap2\n      pop\n    tag_378:\n      pop\n        /* \"Farm.sol\":5892:5967  (bool success, bytes memory returndata) = target.call{ value: value }(data) */\n      swap2\n      pop\n      swap2\n      pop\n        /* \"Farm.sol\":5985:6037  _verifyCallResult(success, returndata, errorMessage) */\n      tag_380\n        /* \"Farm.sol\":6003:6010  success */\n      dup3\n        /* \"Farm.sol\":6012:6022  returndata */\n      dup3\n        /* \"Farm.sol\":6024:6036  errorMessage */\n      dup7\n        /* \"Farm.sol\":5985:6002  _verifyCallResult */\n      tag_381\n        /* \"Farm.sol\":5985:6037  _verifyCallResult(success, returndata, errorMessage) */\n      jump\t// in\n    tag_380:\n        /* \"Farm.sol\":5978:6037  return _verifyCallResult(success, returndata, errorMessage) */\n      swap3\n      pop\n      pop\n      pop\n        /* \"Farm.sol\":5515:6045  function functionCallWithValue(address target, bytes memory data, uint256 value, string memory errorMessage) internal returns (bytes memory) {\r... */\n      swap5\n      swap4\n      pop\n      pop\n      pop\n      pop\n      jump\t// out\n        /* \"Farm.sol\":1545:1967  function isContract(address account) internal view returns (bool) {\r... */\n    tag_371:\n        /* \"Farm.sol\":1605:1609  bool */\n      0x00\n        /* \"Farm.sol\":1813:1825  uint256 size */\n      dup1\n        /* \"Farm.sol\":1924:1931  account */\n      dup3\n        /* \"Farm.sol\":1912:1932  extcodesize(account) */\n      extcodesize\n        /* \"Farm.sol\":1904:1932  size := extcodesize(account) */\n      swap1\n      pop\n        /* \"Farm.sol\":1958:1959  0 */\n      0x00\n        /* \"Farm.sol\":1951:1955  size */\n      dup2\n        /* \"Farm.sol\":1951:1959  size > 0 */\n      gt\n        /* \"Farm.sol\":1944:1959  return size > 0 */\n      swap2\n      pop\n      pop\n        /* \"Farm.sol\":1545:1967  function isContract(address account) internal view returns (bool) {\r... */\n      swap2\n      swap1\n      pop\n      jump\t// out\n        /* \"Farm.sol\":7051:7793  function _verifyCallResult(bool success, bytes memory returndata, string memory errorMessage) private pure returns(bytes memory) {\r... */\n    tag_381:\n        /* \"Farm.sol\":7166:7178  bytes memory */\n      0x60\n        /* \"Farm.sol\":7195:7202  success */\n      dup4\n        /* \"Farm.sol\":7191:7786  if (success) {\r... */\n      iszero\n      tag_384\n      jumpi\n        /* \"Farm.sol\":7226:7236  returndata */\n      dup3\n        /* \"Farm.sol\":7219:7236  return returndata */\n      swap1\n      pop\n      jump(tag_383)\n        /* \"Farm.sol\":7191:7786  if (success) {\r... */\n    tag_384:\n        /* \"Farm.sol\":7360:7361  0 */\n      0x00\n        /* \"Farm.sol\":7340:7350  returndata */\n      dup4\n        /* \"Farm.sol\":7340:7357  returndata.length */\n      mload\n        /* \"Farm.sol\":7340:7361  returndata.length > 0 */\n      gt\n        /* \"Farm.sol\":7336:7775  if (returndata.length > 0) {\r... */\n      iszero\n      tag_386\n      jumpi\n        /* \"Farm.sol\":7603:7613  returndata */\n      dup3\n        /* \"Farm.sol\":7597:7614  mload(returndata) */\n      mload\n        /* \"Farm.sol\":7664:7679  returndata_size */\n      dup1\n        /* \"Farm.sol\":7651:7661  returndata */\n      dup5\n        /* \"Farm.sol\":7647:7649  32 */\n      0x20\n        /* \"Farm.sol\":7643:7662  add(32, returndata) */\n      add\n        /* \"Farm.sol\":7636:7680  revert(add(32, returndata), returndata_size) */\n      revert\n        /* \"Farm.sol\":7336:7775  if (returndata.length > 0) {\r... */\n    tag_386:\n        /* \"Farm.sol\":7746:7758  errorMessage */\n      dup2\n        /* \"Farm.sol\":7739:7759  revert(errorMessage) */\n      mload(0x40)\n      0x08c379a000000000000000000000000000000000000000000000000000000000\n      dup2\n      mstore\n      0x04\n      add\n      tag_388\n      swap2\n      swap1\n      tag_341\n      jump\t// in\n    tag_388:\n      mload(0x40)\n      dup1\n      swap2\n      sub\n      swap1\n      revert\n        /* \"Farm.sol\":7051:7793  function _verifyCallResult(bool success, bytes memory returndata, string memory errorMessage) private pure returns(bytes memory) {\r... */\n    tag_383:\n      swap4\n      swap3\n      pop\n      pop\n      pop\n      jump\t// out\n        /* \"#utility.yul\":7:146   */\n    tag_390:\n        /* \"#utility.yul\":53:58   */\n      0x00\n        /* \"#utility.yul\":91:97   */\n      dup2\n        /* \"#utility.yul\":78:98   */\n      calldataload\n        /* \"#utility.yul\":69:98   */\n      swap1\n      pop\n        /* \"#utility.yul\":107:140   */\n      tag_392\n        /* \"#utility.yul\":134:139   */\n      dup2\n        /* \"#utility.yul\":107:140   */\n      tag_393\n      jump\t// in\n    tag_392:\n        /* \"#utility.yul\":7:146   */\n      swap3\n      swap2\n      pop\n      pop\n      jump\t// out\n        /* \"#utility.yul\":152:289   */\n    tag_394:\n        /* \"#utility.yul\":206:211   */\n      0x00\n        /* \"#utility.yul\":237:243   */\n      dup2\n        /* \"#utility.yul\":231:244   */\n      mload\n        /* \"#utility.yul\":222:244   */\n      swap1\n      pop\n        /* \"#utility.yul\":253:283   */\n      tag_396\n        /* \"#utility.yul\":277:282   */\n      dup2\n        /* \"#utility.yul\":253:283   */\n      tag_397\n      jump\t// in\n    tag_396:\n        /* \"#utility.yul\":152:289   */\n      swap3\n      swap2\n      pop\n      pop\n      jump\t// out\n        /* \"#utility.yul\":295:434   */\n    tag_398:\n        /* \"#utility.yul\":341:346   */\n      0x00\n        /* \"#utility.yul\":379:385   */\n      dup2\n        /* \"#utility.yul\":366:386   */\n      calldataload\n        /* \"#utility.yul\":357:386   */\n      swap1\n      pop\n        /* \"#utility.yul\":395:428   */\n      tag_400\n        /* \"#utility.yul\":422:427   */\n      dup2\n        /* \"#utility.yul\":395:428   */\n      tag_401\n      jump\t// in\n    tag_400:\n        /* \"#utility.yul\":295:434   */\n      swap3\n      swap2\n      pop\n      pop\n      jump\t// out\n        /* \"#utility.yul\":440:583   */\n    tag_402:\n        /* \"#utility.yul\":497:502   */\n      0x00\n        /* \"#utility.yul\":528:534   */\n      dup2\n        /* \"#utility.yul\":522:535   */\n      mload\n        /* \"#utility.yul\":513:535   */\n      swap1\n      pop\n        /* \"#utility.yul\":544:577   */\n      tag_404\n        /* \"#utility.yul\":571:576   */\n      dup2\n        /* \"#utility.yul\":544:577   */\n      tag_401\n      jump\t// in\n    tag_404:\n        /* \"#utility.yul\":440:583   */\n      swap3\n      swap2\n      pop\n      pop\n      jump\t// out\n        /* \"#utility.yul\":589:918   */\n    tag_41:\n        /* \"#utility.yul\":648:654   */\n      0x00\n        /* \"#utility.yul\":697:699   */\n      0x20\n        /* \"#utility.yul\":685:694   */\n      dup3\n        /* \"#utility.yul\":676:683   */\n      dup5\n        /* \"#utility.yul\":672:695   */\n      sub\n        /* \"#utility.yul\":668:700   */\n      slt\n        /* \"#utility.yul\":665:784   */\n      iszero\n      tag_406\n      jumpi\n        /* \"#utility.yul\":703:782   */\n      tag_407\n      tag_408\n      jump\t// in\n    tag_407:\n        /* \"#utility.yul\":665:784   */\n    tag_406:\n        /* \"#utility.yul\":823:824   */\n      0x00\n        /* \"#utility.yul\":848:901   */\n      tag_409\n        /* \"#utility.yul\":893:900   */\n      dup5\n        /* \"#utility.yul\":884:890   */\n      dup3\n        /* \"#utility.yul\":873:882   */\n      dup6\n        /* \"#utility.yul\":869:891   */\n      add\n        /* \"#utility.yul\":848:901   */\n      tag_390\n      jump\t// in\n    tag_409:\n        /* \"#utility.yul\":838:901   */\n      swap2\n      pop\n        /* \"#utility.yul\":794:911   */\n      pop\n        /* \"#utility.yul\":589:918   */\n      swap3\n      swap2\n      pop\n      pop\n      jump\t// out\n        /* \"#utility.yul\":924:1398   */\n    tag_98:\n        /* \"#utility.yul\":992:998   */\n      0x00\n        /* \"#utility.yul\":1000:1006   */\n      dup1\n        /* \"#utility.yul\":1049:1051   */\n      0x40\n        /* \"#utility.yul\":1037:1046   */\n      dup4\n        /* \"#utility.yul\":1028:1035   */\n      dup6\n        /* \"#utility.yul\":1024:1047   */\n      sub\n        /* \"#utility.yul\":1020:1052   */\n      slt\n        /* \"#utility.yul\":1017:1136   */\n      iszero\n      tag_411\n      jumpi\n        /* \"#utility.yul\":1055:1134   */\n      tag_412\n      tag_408\n      jump\t// in\n    tag_412:\n        /* \"#utility.yul\":1017:1136   */\n    tag_411:\n        /* \"#utility.yul\":1175:1176   */\n      0x00\n        /* \"#utility.yul\":1200:1253   */\n      tag_413\n        /* \"#utility.yul\":1245:1252   */\n      dup6\n        /* \"#utility.yul\":1236:1242   */\n      dup3\n        /* \"#utility.yul\":1225:1234   */\n      dup7\n        /* \"#utility.yul\":1221:1243   */\n      add\n        /* \"#utility.yul\":1200:1253   */\n      tag_390\n      jump\t// in\n    tag_413:\n        /* \"#utility.yul\":1190:1253   */\n      swap3\n      pop\n        /* \"#utility.yul\":1146:1263   */\n      pop\n        /* \"#utility.yul\":1302:1304   */\n      0x20\n        /* \"#utility.yul\":1328:1381   */\n      tag_414\n        /* \"#utility.yul\":1373:1380   */\n      dup6\n        /* \"#utility.yul\":1364:1370   */\n      dup3\n        /* \"#utility.yul\":1353:1362   */\n      dup7\n        /* \"#utility.yul\":1349:1371   */\n      add\n        /* \"#utility.yul\":1328:1381   */\n      tag_398\n      jump\t// in\n    tag_414:\n        /* \"#utility.yul\":1318:1381   */\n      swap2\n      pop\n        /* \"#utility.yul\":1273:1391   */\n      pop\n        /* \"#utility.yul\":924:1398   */\n      swap3\n      pop\n      swap3\n      swap1\n      pop\n      jump\t// out\n        /* \"#utility.yul\":1404:1749   */\n    tag_358:\n        /* \"#utility.yul\":1471:1477   */\n      0x00\n        /* \"#utility.yul\":1520:1522   */\n      0x20\n        /* \"#utility.yul\":1508:1517   */\n      dup3\n        /* \"#utility.yul\":1499:1506   */\n      dup5\n        /* \"#utility.yul\":1495:1518   */\n      sub\n        /* \"#utility.yul\":1491:1523   */\n      slt\n        /* \"#utility.yul\":1488:1607   */\n      iszero\n      tag_416\n      jumpi\n        /* \"#utility.yul\":1526:1605   */\n      tag_417\n      tag_408\n      jump\t// in\n    tag_417:\n        /* \"#utility.yul\":1488:1607   */\n    tag_416:\n        /* \"#utility.yul\":1646:1647   */\n      0x00\n        /* \"#utility.yul\":1671:1732   */\n      tag_418\n        /* \"#utility.yul\":1724:1731   */\n      dup5\n        /* \"#utility.yul\":1715:1721   */\n      dup3\n        /* \"#utility.yul\":1704:1713   */\n      dup6\n        /* \"#utility.yul\":1700:1722   */\n      add\n        /* \"#utility.yul\":1671:1732   */\n      tag_394\n      jump\t// in\n    tag_418:\n        /* \"#utility.yul\":1661:1732   */\n      swap2\n      pop\n        /* \"#utility.yul\":1617:1742   */\n      pop\n        /* \"#utility.yul\":1404:1749   */\n      swap3\n      swap2\n      pop\n      pop\n      jump\t// out\n        /* \"#utility.yul\":1755:2084   */\n    tag_57:\n        /* \"#utility.yul\":1814:1820   */\n      0x00\n        /* \"#utility.yul\":1863:1865   */\n      0x20\n        /* \"#utility.yul\":1851:1860   */\n      dup3\n        /* \"#utility.yul\":1842:1849   */\n      dup5\n        /* \"#utility.yul\":1838:1861   */\n      sub\n        /* \"#utility.yul\":1834:1866   */\n      slt\n        /* \"#utility.yul\":1831:1950   */\n      iszero\n      tag_420\n      jumpi\n        /* \"#utility.yul\":1869:1948   */\n      tag_421\n      tag_408\n      jump\t// in\n    tag_421:\n        /* \"#utility.yul\":1831:1950   */\n    tag_420:\n        /* \"#utility.yul\":1989:1990   */\n      0x00\n        /* \"#utility.yul\":2014:2067   */\n      tag_422\n        /* \"#utility.yul\":2059:2066   */\n      dup5\n        /* \"#utility.yul\":2050:2056   */\n      dup3\n        /* \"#utility.yul\":2039:2048   */\n      dup6\n        /* \"#utility.yul\":2035:2057   */\n      add\n        /* \"#utility.yul\":2014:2067   */\n      tag_398\n      jump\t// in\n    tag_422:\n        /* \"#utility.yul\":2004:2067   */\n      swap2\n      pop\n        /* \"#utility.yul\":1960:2077   */\n      pop\n        /* \"#utility.yul\":1755:2084   */\n      swap3\n      swap2\n      pop\n      pop\n      jump\t// out\n        /* \"#utility.yul\":2090:2441   */\n    tag_202:\n        /* \"#utility.yul\":2160:2166   */\n      0x00\n        /* \"#utility.yul\":2209:2211   */\n      0x20\n        /* \"#utility.yul\":2197:2206   */\n      dup3\n        /* \"#utility.yul\":2188:2195   */\n      dup5\n        /* \"#utility.yul\":2184:2207   */\n      sub\n        /* \"#utility.yul\":2180:2212   */\n      slt\n        /* \"#utility.yul\":2177:2296   */\n      iszero\n      tag_424\n      jumpi\n        /* \"#utility.yul\":2215:2294   */\n      tag_425\n      tag_408\n      jump\t// in\n    tag_425:\n        /* \"#utility.yul\":2177:2296   */\n    tag_424:\n        /* \"#utility.yul\":2335:2336   */\n      0x00\n        /* \"#utility.yul\":2360:2424   */\n      tag_426\n        /* \"#utility.yul\":2416:2423   */\n      dup5\n        /* \"#utility.yul\":2407:2413   */\n      dup3\n        /* \"#utility.yul\":2396:2405   */\n      dup6\n        /* \"#utility.yul\":2392:2414   */\n      add\n        /* \"#utility.yul\":2360:2424   */\n      tag_402\n      jump\t// in\n    tag_426:\n        /* \"#utility.yul\":2350:2424   */\n      swap2\n      pop\n        /* \"#utility.yul\":2306:2434   */\n      pop\n        /* \"#utility.yul\":2090:2441   */\n      swap3\n      swap2\n      pop\n      pop\n      jump\t// out\n        /* \"#utility.yul\":2447:2921   */\n    tag_61:\n        /* \"#utility.yul\":2515:2521   */\n      0x00\n        /* \"#utility.yul\":2523:2529   */\n      dup1\n        /* \"#utility.yul\":2572:2574   */\n      0x40\n        /* \"#utility.yul\":2560:2569   */\n      dup4\n        /* \"#utility.yul\":2551:2558   */\n      dup6\n        /* \"#utility.yul\":2547:2570   */\n      sub\n        /* \"#utility.yul\":2543:2575   */\n      slt\n        /* \"#utility.yul\":2540:2659   */\n      iszero\n      tag_428\n      jumpi\n        /* \"#utility.yul\":2578:2657   */\n      tag_429\n      tag_408\n      jump\t// in\n    tag_429:\n        /* \"#utility.yul\":2540:2659   */\n    tag_428:\n        /* \"#utility.yul\":2698:2699   */\n      0x00\n        /* \"#utility.yul\":2723:2776   */\n      tag_430\n        /* \"#utility.yul\":2768:2775   */\n      dup6\n        /* \"#utility.yul\":2759:2765   */\n      dup3\n        /* \"#utility.yul\":2748:2757   */\n      dup7\n        /* \"#utility.yul\":2744:2766   */\n      add\n        /* \"#utility.yul\":2723:2776   */\n      tag_398\n      jump\t// in\n    tag_430:\n        /* \"#utility.yul\":2713:2776   */\n      swap3\n      pop\n        /* \"#utility.yul\":2669:2786   */\n      pop\n        /* \"#utility.yul\":2825:2827   */\n      0x20\n        /* \"#utility.yul\":2851:2904   */\n      tag_431\n        /* \"#utility.yul\":2896:2903   */\n      dup6\n        /* \"#utility.yul\":2887:2893   */\n      dup3\n        /* \"#utility.yul\":2876:2885   */\n      dup7\n        /* \"#utility.yul\":2872:2894   */\n      add\n        /* \"#utility.yul\":2851:2904   */\n      tag_398\n      jump\t// in\n    tag_431:\n        /* \"#utility.yul\":2841:2904   */\n      swap2\n      pop\n        /* \"#utility.yul\":2796:2914   */\n      pop\n        /* \"#utility.yul\":2447:2921   */\n      swap3\n      pop\n      swap3\n      swap1\n      pop\n      jump\t// out\n        /* \"#utility.yul\":2927:3045   */\n    tag_432:\n        /* \"#utility.yul\":3014:3038   */\n      tag_434\n        /* \"#utility.yul\":3032:3037   */\n      dup2\n        /* \"#utility.yul\":3014:3038   */\n      tag_435\n      jump\t// in\n    tag_434:\n        /* \"#utility.yul\":3009:3012   */\n      dup3\n        /* \"#utility.yul\":3002:3039   */\n      mstore\n        /* \"#utility.yul\":2927:3045   */\n      pop\n      pop\n      jump\t// out\n        /* \"#utility.yul\":3051:3160   */\n    tag_436:\n        /* \"#utility.yul\":3132:3153   */\n      tag_438\n        /* \"#utility.yul\":3147:3152   */\n      dup2\n        /* \"#utility.yul\":3132:3153   */\n      tag_439\n      jump\t// in\n    tag_438:\n        /* \"#utility.yul\":3127:3130   */\n      dup3\n        /* \"#utility.yul\":3120:3154   */\n      mstore\n        /* \"#utility.yul\":3051:3160   */\n      pop\n      pop\n      jump\t// out\n        /* \"#utility.yul\":3166:3539   */\n    tag_440:\n        /* \"#utility.yul\":3270:3273   */\n      0x00\n        /* \"#utility.yul\":3298:3336   */\n      tag_442\n        /* \"#utility.yul\":3330:3335   */\n      dup3\n        /* \"#utility.yul\":3298:3336   */\n      tag_443\n      jump\t// in\n    tag_442:\n        /* \"#utility.yul\":3352:3440   */\n      tag_444\n        /* \"#utility.yul\":3433:3439   */\n      dup2\n        /* \"#utility.yul\":3428:3431   */\n      dup6\n        /* \"#utility.yul\":3352:3440   */\n      tag_445\n      jump\t// in\n    tag_444:\n        /* \"#utility.yul\":3345:3440   */\n      swap4\n      pop\n        /* \"#utility.yul\":3449:3501   */\n      tag_446\n        /* \"#utility.yul\":3494:3500   */\n      dup2\n        /* \"#utility.yul\":3489:3492   */\n      dup6\n        /* \"#utility.yul\":3482:3486   */\n      0x20\n        /* \"#utility.yul\":3475:3480   */\n      dup7\n        /* \"#utility.yul\":3471:3487   */\n      add\n        /* \"#utility.yul\":3449:3501   */\n      tag_447\n      jump\t// in\n    tag_446:\n        /* \"#utility.yul\":3526:3532   */\n      dup1\n        /* \"#utility.yul\":3521:3524   */\n      dup5\n        /* \"#utility.yul\":3517:3533   */\n      add\n        /* \"#utility.yul\":3510:3533   */\n      swap2\n      pop\n        /* \"#utility.yul\":3274:3539   */\n      pop\n        /* \"#utility.yul\":3166:3539   */\n      swap3\n      swap2\n      pop\n      pop\n      jump\t// out\n        /* \"#utility.yul\":3545:3704   */\n    tag_448:\n        /* \"#utility.yul\":3646:3697   */\n      tag_450\n        /* \"#utility.yul\":3691:3696   */\n      dup2\n        /* \"#utility.yul\":3646:3697   */\n      tag_451\n      jump\t// in\n    tag_450:\n        /* \"#utility.yul\":3641:3644   */\n      dup3\n        /* \"#utility.yul\":3634:3698   */\n      mstore\n        /* \"#utility.yul\":3545:3704   */\n      pop\n      pop\n      jump\t// out\n        /* \"#utility.yul\":3710:4074   */\n    tag_452:\n        /* \"#utility.yul\":3798:3801   */\n      0x00\n        /* \"#utility.yul\":3826:3865   */\n      tag_454\n        /* \"#utility.yul\":3859:3864   */\n      dup3\n        /* \"#utility.yul\":3826:3865   */\n      tag_455\n      jump\t// in\n    tag_454:\n        /* \"#utility.yul\":3881:3952   */\n      tag_456\n        /* \"#utility.yul\":3945:3951   */\n      dup2\n        /* \"#utility.yul\":3940:3943   */\n      dup6\n        /* \"#utility.yul\":3881:3952   */\n      tag_457\n      jump\t// in\n    tag_456:\n        /* \"#utility.yul\":3874:3952   */\n      swap4\n      pop\n        /* \"#utility.yul\":3961:4013   */\n      tag_458\n        /* \"#utility.yul\":4006:4012   */\n      dup2\n        /* \"#utility.yul\":4001:4004   */\n      dup6\n        /* \"#utility.yul\":3994:3998   */\n      0x20\n        /* \"#utility.yul\":3987:3992   */\n      dup7\n        /* \"#utility.yul\":3983:3999   */\n      add\n        /* \"#utility.yul\":3961:4013   */\n      tag_447\n      jump\t// in\n    tag_458:\n        /* \"#utility.yul\":4038:4067   */\n      tag_459\n        /* \"#utility.yul\":4060:4066   */\n      dup2\n        /* \"#utility.yul\":4038:4067   */\n      tag_460\n      jump\t// in\n    tag_459:\n        /* \"#utility.yul\":4033:4036   */\n      dup5\n        /* \"#utility.yul\":4029:4068   */\n      add\n        /* \"#utility.yul\":4022:4068   */\n      swap2\n      pop\n        /* \"#utility.yul\":3802:4074   */\n      pop\n        /* \"#utility.yul\":3710:4074   */\n      swap3\n      swap2\n      pop\n      pop\n      jump\t// out\n        /* \"#utility.yul\":4080:4446   */\n    tag_461:\n        /* \"#utility.yul\":4222:4225   */\n      0x00\n        /* \"#utility.yul\":4243:4310   */\n      tag_463\n        /* \"#utility.yul\":4307:4309   */\n      0x58\n        /* \"#utility.yul\":4302:4305   */\n      dup4\n        /* \"#utility.yul\":4243:4310   */\n      tag_457\n      jump\t// in\n    tag_463:\n        /* \"#utility.yul\":4236:4310   */\n      swap2\n      pop\n        /* \"#utility.yul\":4319:4412   */\n      tag_464\n        /* \"#utility.yul\":4408:4411   */\n      dup3\n        /* \"#utility.yul\":4319:4412   */\n      tag_465\n      jump\t// in\n    tag_464:\n        /* \"#utility.yul\":4437:4439   */\n      0x60\n        /* \"#utility.yul\":4432:4435   */\n      dup3\n        /* \"#utility.yul\":4428:4440   */\n      add\n        /* \"#utility.yul\":4421:4440   */\n      swap1\n      pop\n        /* \"#utility.yul\":4080:4446   */\n      swap2\n      swap1\n      pop\n      jump\t// out\n        /* \"#utility.yul\":4452:4818   */\n    tag_466:\n        /* \"#utility.yul\":4594:4597   */\n      0x00\n        /* \"#utility.yul\":4615:4682   */\n      tag_468\n        /* \"#utility.yul\":4679:4681   */\n      0x26\n        /* \"#utility.yul\":4674:4677   */\n      dup4\n        /* \"#utility.yul\":4615:4682   */\n      tag_457\n      jump\t// in\n    tag_468:\n        /* \"#utility.yul\":4608:4682   */\n      swap2\n      pop\n        /* \"#utility.yul\":4691:4784   */\n      tag_469\n        /* \"#utility.yul\":4780:4783   */\n      dup3\n        /* \"#utility.yul\":4691:4784   */\n      tag_470\n      jump\t// in\n    tag_469:\n        /* \"#utility.yul\":4809:4811   */\n      0x40\n        /* \"#utility.yul\":4804:4807   */\n      dup3\n        /* \"#utility.yul\":4800:4812   */\n      add\n        /* \"#utility.yul\":4793:4812   */\n      swap1\n      pop\n        /* \"#utility.yul\":4452:4818   */\n      swap2\n      swap1\n      pop\n      jump\t// out\n        /* \"#utility.yul\":4824:5190   */\n    tag_471:\n        /* \"#utility.yul\":4966:4969   */\n      0x00\n        /* \"#utility.yul\":4987:5054   */\n      tag_473\n        /* \"#utility.yul\":5051:5053   */\n      0x0e\n        /* \"#utility.yul\":5046:5049   */\n      dup4\n        /* \"#utility.yul\":4987:5054   */\n      tag_457\n      jump\t// in\n    tag_473:\n        /* \"#utility.yul\":4980:5054   */\n      swap2\n      pop\n        /* \"#utility.yul\":5063:5156   */\n      tag_474\n        /* \"#utility.yul\":5152:5155   */\n      dup3\n        /* \"#utility.yul\":5063:5156   */\n      tag_475\n      jump\t// in\n    tag_474:\n        /* \"#utility.yul\":5181:5183   */\n      0x20\n        /* \"#utility.yul\":5176:5179   */\n      dup3\n        /* \"#utility.yul\":5172:5184   */\n      add\n        /* \"#utility.yul\":5165:5184   */\n      swap1\n      pop\n        /* \"#utility.yul\":4824:5190   */\n      swap2\n      swap1\n      pop\n      jump\t// out\n        /* \"#utility.yul\":5196:5562   */\n    tag_476:\n        /* \"#utility.yul\":5338:5341   */\n      0x00\n        /* \"#utility.yul\":5359:5426   */\n      tag_478\n        /* \"#utility.yul\":5423:5425   */\n      0x1b\n        /* \"#utility.yul\":5418:5421   */\n      dup4\n        /* \"#utility.yul\":5359:5426   */\n      tag_457\n      jump\t// in\n    tag_478:\n        /* \"#utility.yul\":5352:5426   */\n      swap2\n      pop\n        /* \"#utility.yul\":5435:5528   */\n      tag_479\n        /* \"#utility.yul\":5524:5527   */\n      dup3\n        /* \"#utility.yul\":5435:5528   */\n      tag_480\n      jump\t// in\n    tag_479:\n        /* \"#utility.yul\":5553:5555   */\n      0x20\n        /* \"#utility.yul\":5548:5551   */\n      dup3\n        /* \"#utility.yul\":5544:5556   */\n      add\n        /* \"#utility.yul\":5537:5556   */\n      swap1\n      pop\n        /* \"#utility.yul\":5196:5562   */\n      swap2\n      swap1\n      pop\n      jump\t// out\n        /* \"#utility.yul\":5568:5934   */\n    tag_481:\n        /* \"#utility.yul\":5710:5713   */\n      0x00\n        /* \"#utility.yul\":5731:5798   */\n      tag_483\n        /* \"#utility.yul\":5795:5797   */\n      0x22\n        /* \"#utility.yul\":5790:5793   */\n      dup4\n        /* \"#utility.yul\":5731:5798   */\n      tag_457\n      jump\t// in\n    tag_483:\n        /* \"#utility.yul\":5724:5798   */\n      swap2\n      pop\n        /* \"#utility.yul\":5807:5900   */\n      tag_484\n        /* \"#utility.yul\":5896:5899   */\n      dup3\n        /* \"#utility.yul\":5807:5900   */\n      tag_485\n      jump\t// in\n    tag_484:\n        /* \"#utility.yul\":5925:5927   */\n      0x40\n        /* \"#utility.yul\":5920:5923   */\n      dup3\n        /* \"#utility.yul\":5916:5928   */\n      add\n        /* \"#utility.yul\":5909:5928   */\n      swap1\n      pop\n        /* \"#utility.yul\":5568:5934   */\n      swap2\n      swap1\n      pop\n      jump\t// out\n        /* \"#utility.yul\":5940:6306   */\n    tag_486:\n        /* \"#utility.yul\":6082:6085   */\n      0x00\n        /* \"#utility.yul\":6103:6170   */\n      tag_488\n        /* \"#utility.yul\":6167:6169   */\n      0x26\n        /* \"#utility.yul\":6162:6165   */\n      dup4\n        /* \"#utility.yul\":6103:6170   */\n      tag_457\n      jump\t// in\n    tag_488:\n        /* \"#utility.yul\":6096:6170   */\n      swap2\n      pop\n        /* \"#utility.yul\":6179:6272   */\n      tag_489\n        /* \"#utility.yul\":6268:6271   */\n      dup3\n        /* \"#utility.yul\":6179:6272   */\n      tag_490\n      jump\t// in\n    tag_489:\n        /* \"#utility.yul\":6297:6299   */\n      0x40\n        /* \"#utility.yul\":6292:6295   */\n      dup3\n        /* \"#utility.yul\":6288:6300   */\n      add\n        /* \"#utility.yul\":6281:6300   */\n      swap1\n      pop\n        /* \"#utility.yul\":5940:6306   */\n      swap2\n      swap1\n      pop\n      jump\t// out\n        /* \"#utility.yul\":6312:6678   */\n    tag_491:\n        /* \"#utility.yul\":6454:6457   */\n      0x00\n        /* \"#utility.yul\":6475:6542   */\n      tag_493\n        /* \"#utility.yul\":6539:6541   */\n      0x10\n        /* \"#utility.yul\":6534:6537   */\n      dup4\n        /* \"#utility.yul\":6475:6542   */\n      tag_457\n      jump\t// in\n    tag_493:\n        /* \"#utility.yul\":6468:6542   */\n      swap2\n      pop\n        /* \"#utility.yul\":6551:6644   */\n      tag_494\n        /* \"#utility.yul\":6640:6643   */\n      dup3\n        /* \"#utility.yul\":6551:6644   */\n      tag_495\n      jump\t// in\n    tag_494:\n        /* \"#utility.yul\":6669:6671   */\n      0x20\n        /* \"#utility.yul\":6664:6667   */\n      dup3\n        /* \"#utility.yul\":6660:6672   */\n      add\n        /* \"#utility.yul\":6653:6672   */\n      swap1\n      pop\n        /* \"#utility.yul\":6312:6678   */\n      swap2\n      swap1\n      pop\n      jump\t// out\n        /* \"#utility.yul\":6684:7050   */\n    tag_496:\n        /* \"#utility.yul\":6826:6829   */\n      0x00\n        /* \"#utility.yul\":6847:6914   */\n      tag_498\n        /* \"#utility.yul\":6911:6913   */\n      0x11\n        /* \"#utility.yul\":6906:6909   */\n      dup4\n        /* \"#utility.yul\":6847:6914   */\n      tag_457\n      jump\t// in\n    tag_498:\n        /* \"#utility.yul\":6840:6914   */\n      swap2\n      pop\n        /* \"#utility.yul\":6923:7016   */\n      tag_499\n        /* \"#utility.yul\":7012:7015   */\n      dup3\n        /* \"#utility.yul\":6923:7016   */\n      tag_500\n      jump\t// in\n    tag_499:\n        /* \"#utility.yul\":7041:7043   */\n      0x20\n        /* \"#utility.yul\":7036:7039   */\n      dup3\n        /* \"#utility.yul\":7032:7044   */\n      add\n        /* \"#utility.yul\":7025:7044   */\n      swap1\n      pop\n        /* \"#utility.yul\":6684:7050   */\n      swap2\n      swap1\n      pop\n      jump\t// out\n        /* \"#utility.yul\":7056:7422   */\n    tag_501:\n        /* \"#utility.yul\":7198:7201   */\n      0x00\n        /* \"#utility.yul\":7219:7286   */\n      tag_503\n        /* \"#utility.yul\":7283:7285   */\n      0x21\n        /* \"#utility.yul\":7278:7281   */\n      dup4\n        /* \"#utility.yul\":7219:7286   */\n      tag_457\n      jump\t// in\n    tag_503:\n        /* \"#utility.yul\":7212:7286   */\n      swap2\n      pop\n        /* \"#utility.yul\":7295:7388   */\n      tag_504\n        /* \"#utility.yul\":7384:7387   */\n      dup3\n        /* \"#utility.yul\":7295:7388   */\n      tag_505\n      jump\t// in\n    tag_504:\n        /* \"#utility.yul\":7413:7415   */\n      0x40\n        /* \"#utility.yul\":7408:7411   */\n      dup3\n        /* \"#utility.yul\":7404:7416   */\n      add\n        /* \"#utility.yul\":7397:7416   */\n      swap1\n      pop\n        /* \"#utility.yul\":7056:7422   */\n      swap2\n      swap1\n      pop\n      jump\t// out\n        /* \"#utility.yul\":7428:7794   */\n    tag_506:\n        /* \"#utility.yul\":7570:7573   */\n      0x00\n        /* \"#utility.yul\":7591:7658   */\n      tag_508\n        /* \"#utility.yul\":7655:7657   */\n      0x20\n        /* \"#utility.yul\":7650:7653   */\n      dup4\n        /* \"#utility.yul\":7591:7658   */\n      tag_457\n      jump\t// in\n    tag_508:\n        /* \"#utility.yul\":7584:7658   */\n      swap2\n      pop\n        /* \"#utility.yul\":7667:7760   */\n      tag_509\n        /* \"#utility.yul\":7756:7759   */\n      dup3\n        /* \"#utility.yul\":7667:7760   */\n      tag_510\n      jump\t// in\n    tag_509:\n        /* \"#utility.yul\":7785:7787   */\n      0x20\n        /* \"#utility.yul\":7780:7783   */\n      dup3\n        /* \"#utility.yul\":7776:7788   */\n      add\n        /* \"#utility.yul\":7769:7788   */\n      swap1\n      pop\n        /* \"#utility.yul\":7428:7794   */\n      swap2\n      swap1\n      pop\n      jump\t// out\n        /* \"#utility.yul\":7800:8166   */\n    tag_511:\n        /* \"#utility.yul\":7942:7945   */\n      0x00\n        /* \"#utility.yul\":7963:8030   */\n      tag_513\n        /* \"#utility.yul\":8027:8029   */\n      0x22\n        /* \"#utility.yul\":8022:8025   */\n      dup4\n        /* \"#utility.yul\":7963:8030   */\n      tag_457\n      jump\t// in\n    tag_513:\n        /* \"#utility.yul\":7956:8030   */\n      swap2\n      pop\n        /* \"#utility.yul\":8039:8132   */\n      tag_514\n        /* \"#utility.yul\":8128:8131   */\n      dup3\n        /* \"#utility.yul\":8039:8132   */\n      tag_515\n      jump\t// in\n    tag_514:\n        /* \"#utility.yul\":8157:8159   */\n      0x40\n        /* \"#utility.yul\":8152:8155   */\n      dup3\n        /* \"#utility.yul\":8148:8160   */\n      add\n        /* \"#utility.yul\":8141:8160   */\n      swap1\n      pop\n        /* \"#utility.yul\":7800:8166   */\n      swap2\n      swap1\n      pop\n      jump\t// out\n        /* \"#utility.yul\":8172:8538   */\n    tag_516:\n        /* \"#utility.yul\":8314:8317   */\n      0x00\n        /* \"#utility.yul\":8335:8402   */\n      tag_518\n        /* \"#utility.yul\":8399:8401   */\n      0x18\n        /* \"#utility.yul\":8394:8397   */\n      dup4\n        /* \"#utility.yul\":8335:8402   */\n      tag_457\n      jump\t// in\n    tag_518:\n        /* \"#utility.yul\":8328:8402   */\n      swap2\n      pop\n        /* \"#utility.yul\":8411:8504   */\n      tag_519\n        /* \"#utility.yul\":8500:8503   */\n      dup3\n        /* \"#utility.yul\":8411:8504   */\n      tag_520\n      jump\t// in\n    tag_519:\n        /* \"#utility.yul\":8529:8531   */\n      0x20\n        /* \"#utility.yul\":8524:8527   */\n      dup3\n        /* \"#utility.yul\":8520:8532   */\n      add\n        /* \"#utility.yul\":8513:8532   */\n      swap1\n      pop\n        /* \"#utility.yul\":8172:8538   */\n      swap2\n      swap1\n      pop\n      jump\t// out\n        /* \"#utility.yul\":8544:8910   */\n    tag_521:\n        /* \"#utility.yul\":8686:8689   */\n      0x00\n        /* \"#utility.yul\":8707:8774   */\n      tag_523\n        /* \"#utility.yul\":8771:8773   */\n      0x1d\n        /* \"#utility.yul\":8766:8769   */\n      dup4\n        /* \"#utility.yul\":8707:8774   */\n      tag_457\n      jump\t// in\n    tag_523:\n        /* \"#utility.yul\":8700:8774   */\n      swap2\n      pop\n        /* \"#utility.yul\":8783:8876   */\n      tag_524\n        /* \"#utility.yul\":8872:8875   */\n      dup3\n        /* \"#utility.yul\":8783:8876   */\n      tag_525\n      jump\t// in\n    tag_524:\n        /* \"#utility.yul\":8901:8903   */\n      0x20\n        /* \"#utility.yul\":8896:8899   */\n      dup3\n        /* \"#utility.yul\":8892:8904   */\n      add\n        /* \"#utility.yul\":8885:8904   */\n      swap1\n      pop\n        /* \"#utility.yul\":8544:8910   */\n      swap2\n      swap1\n      pop\n      jump\t// out\n        /* \"#utility.yul\":8916:9282   */\n    tag_526:\n        /* \"#utility.yul\":9058:9061   */\n      0x00\n        /* \"#utility.yul\":9079:9146   */\n      tag_528\n        /* \"#utility.yul\":9143:9145   */\n      0x2a\n        /* \"#utility.yul\":9138:9141   */\n      dup4\n        /* \"#utility.yul\":9079:9146   */\n      tag_457\n      jump\t// in\n    tag_528:\n        /* \"#utility.yul\":9072:9146   */\n      swap2\n      pop\n        /* \"#utility.yul\":9155:9248   */\n      tag_529\n        /* \"#utility.yul\":9244:9247   */\n      dup3\n        /* \"#utility.yul\":9155:9248   */\n      tag_530\n      jump\t// in\n    tag_529:\n        /* \"#utility.yul\":9273:9275   */\n      0x40\n        /* \"#utility.yul\":9268:9271   */\n      dup3\n        /* \"#utility.yul\":9264:9276   */\n      add\n        /* \"#utility.yul\":9257:9276   */\n      swap1\n      pop\n        /* \"#utility.yul\":8916:9282   */\n      swap2\n      swap1\n      pop\n      jump\t// out\n        /* \"#utility.yul\":9288:9654   */\n    tag_531:\n        /* \"#utility.yul\":9430:9433   */\n      0x00\n        /* \"#utility.yul\":9451:9518   */\n      tag_533\n        /* \"#utility.yul\":9515:9517   */\n      0x1f\n        /* \"#utility.yul\":9510:9513   */\n      dup4\n        /* \"#utility.yul\":9451:9518   */\n      tag_457\n      jump\t// in\n    tag_533:\n        /* \"#utility.yul\":9444:9518   */\n      swap2\n      pop\n        /* \"#utility.yul\":9527:9620   */\n      tag_534\n        /* \"#utility.yul\":9616:9619   */\n      dup3\n        /* \"#utility.yul\":9527:9620   */\n      tag_535\n      jump\t// in\n    tag_534:\n        /* \"#utility.yul\":9645:9647   */\n      0x20\n        /* \"#utility.yul\":9640:9643   */\n      dup3\n        /* \"#utility.yul\":9636:9648   */\n      add\n        /* \"#utility.yul\":9629:9648   */\n      swap1\n      pop\n        /* \"#utility.yul\":9288:9654   */\n      swap2\n      swap1\n      pop\n      jump\t// out\n        /* \"#utility.yul\":9660:9778   */\n    tag_536:\n        /* \"#utility.yul\":9747:9771   */\n      tag_538\n        /* \"#utility.yul\":9765:9770   */\n      dup2\n        /* \"#utility.yul\":9747:9771   */\n      tag_539\n      jump\t// in\n    tag_538:\n        /* \"#utility.yul\":9742:9745   */\n      dup3\n        /* \"#utility.yul\":9735:9772   */\n      mstore\n        /* \"#utility.yul\":9660:9778   */\n      pop\n      pop\n      jump\t// out\n        /* \"#utility.yul\":9784:10055   */\n    tag_376:\n        /* \"#utility.yul\":9914:9917   */\n      0x00\n        /* \"#utility.yul\":9936:10029   */\n      tag_541\n        /* \"#utility.yul\":10025:10028   */\n      dup3\n        /* \"#utility.yul\":10016:10022   */\n      dup5\n        /* \"#utility.yul\":9936:10029   */\n      tag_440\n      jump\t// in\n    tag_541:\n        /* \"#utility.yul\":9929:10029   */\n      swap2\n      pop\n        /* \"#utility.yul\":10046:10049   */\n      dup2\n        /* \"#utility.yul\":10039:10049   */\n      swap1\n      pop\n        /* \"#utility.yul\":9784:10055   */\n      swap3\n      swap2\n      pop\n      pop\n      jump\t// out\n        /* \"#utility.yul\":10061:10283   */\n    tag_107:\n        /* \"#utility.yul\":10154:10158   */\n      0x00\n        /* \"#utility.yul\":10192:10194   */\n      0x20\n        /* \"#utility.yul\":10181:10190   */\n      dup3\n        /* \"#utility.yul\":10177:10195   */\n      add\n        /* \"#utility.yul\":10169:10195   */\n      swap1\n      pop\n        /* \"#utility.yul\":10205:10276   */\n      tag_543\n        /* \"#utility.yul\":10273:10274   */\n      0x00\n        /* \"#utility.yul\":10262:10271   */\n      dup4\n        /* \"#utility.yul\":10258:10275   */\n      add\n        /* \"#utility.yul\":10249:10255   */\n      dup5\n        /* \"#utility.yul\":10205:10276   */\n      tag_432\n      jump\t// in\n    tag_543:\n        /* \"#utility.yul\":10061:10283   */\n      swap3\n      swap2\n      pop\n      pop\n      jump\t// out\n        /* \"#utility.yul\":10289:10731   */\n    tag_337:\n        /* \"#utility.yul\":10438:10442   */\n      0x00\n        /* \"#utility.yul\":10476:10478   */\n      0x60\n        /* \"#utility.yul\":10465:10474   */\n      dup3\n        /* \"#utility.yul\":10461:10479   */\n      add\n        /* \"#utility.yul\":10453:10479   */\n      swap1\n      pop\n        /* \"#utility.yul\":10489:10560   */\n      tag_545\n        /* \"#utility.yul\":10557:10558   */\n      0x00\n        /* \"#utility.yul\":10546:10555   */\n      dup4\n        /* \"#utility.yul\":10542:10559   */\n      add\n        /* \"#utility.yul\":10533:10539   */\n      dup7\n        /* \"#utility.yul\":10489:10560   */\n      tag_432\n      jump\t// in\n    tag_545:\n        /* \"#utility.yul\":10570:10642   */\n      tag_546\n        /* \"#utility.yul\":10638:10640   */\n      0x20\n        /* \"#utility.yul\":10627:10636   */\n      dup4\n        /* \"#utility.yul\":10623:10641   */\n      add\n        /* \"#utility.yul\":10614:10620   */\n      dup6\n        /* \"#utility.yul\":10570:10642   */\n      tag_432\n      jump\t// in\n    tag_546:\n        /* \"#utility.yul\":10652:10724   */\n      tag_547\n        /* \"#utility.yul\":10720:10722   */\n      0x40\n        /* \"#utility.yul\":10709:10718   */\n      dup4\n        /* \"#utility.yul\":10705:10723   */\n      add\n        /* \"#utility.yul\":10696:10702   */\n      dup5\n        /* \"#utility.yul\":10652:10724   */\n      tag_536\n      jump\t// in\n    tag_547:\n        /* \"#utility.yul\":10289:10731   */\n      swap5\n      swap4\n      pop\n      pop\n      pop\n      pop\n      jump\t// out\n        /* \"#utility.yul\":10737:11069   */\n    tag_245:\n        /* \"#utility.yul\":10858:10862   */\n      0x00\n        /* \"#utility.yul\":10896:10898   */\n      0x40\n        /* \"#utility.yul\":10885:10894   */\n      dup3\n        /* \"#utility.yul\":10881:10899   */\n      add\n        /* \"#utility.yul\":10873:10899   */\n      swap1\n      pop\n        /* \"#utility.yul\":10909:10980   */\n      tag_549\n        /* \"#utility.yul\":10977:10978   */\n      0x00\n        /* \"#utility.yul\":10966:10975   */\n      dup4\n        /* \"#utility.yul\":10962:10979   */\n      add\n        /* \"#utility.yul\":10953:10959   */\n      dup6\n        /* \"#utility.yul\":10909:10980   */\n      tag_432\n      jump\t// in\n    tag_549:\n        /* \"#utility.yul\":10990:11062   */\n      tag_550\n        /* \"#utility.yul\":11058:11060   */\n      0x20\n        /* \"#utility.yul\":11047:11056   */\n      dup4\n        /* \"#utility.yul\":11043:11061   */\n      add\n        /* \"#utility.yul\":11034:11040   */\n      dup5\n        /* \"#utility.yul\":10990:11062   */\n      tag_536\n      jump\t// in\n    tag_550:\n        /* \"#utility.yul\":10737:11069   */\n      swap4\n      swap3\n      pop\n      pop\n      pop\n      jump\t// out\n        /* \"#utility.yul\":11075:11285   */\n    tag_75:\n        /* \"#utility.yul\":11162:11166   */\n      0x00\n        /* \"#utility.yul\":11200:11202   */\n      0x20\n        /* \"#utility.yul\":11189:11198   */\n      dup3\n        /* \"#utility.yul\":11185:11203   */\n      add\n        /* \"#utility.yul\":11177:11203   */\n      swap1\n      pop\n        /* \"#utility.yul\":11213:11278   */\n      tag_552\n        /* \"#utility.yul\":11275:11276   */\n      0x00\n        /* \"#utility.yul\":11264:11273   */\n      dup4\n        /* \"#utility.yul\":11260:11277   */\n      add\n        /* \"#utility.yul\":11251:11257   */\n      dup5\n        /* \"#utility.yul\":11213:11278   */\n      tag_436\n      jump\t// in\n    tag_552:\n        /* \"#utility.yul\":11075:11285   */\n      swap3\n      swap2\n      pop\n      pop\n      jump\t// out\n        /* \"#utility.yul\":11291:11541   */\n    tag_85:\n        /* \"#utility.yul\":11398:11402   */\n      0x00\n        /* \"#utility.yul\":11436:11438   */\n      0x20\n        /* \"#utility.yul\":11425:11434   */\n      dup3\n        /* \"#utility.yul\":11421:11439   */\n      add\n        /* \"#utility.yul\":11413:11439   */\n      swap1\n      pop\n        /* \"#utility.yul\":11449:11534   */\n      tag_554\n        /* \"#utility.yul\":11531:11532   */\n      0x00\n        /* \"#utility.yul\":11520:11529   */\n      dup4\n        /* \"#utility.yul\":11516:11533   */\n      add\n        /* \"#utility.yul\":11507:11513   */\n      dup5\n        /* \"#utility.yul\":11449:11534   */\n      tag_448\n      jump\t// in\n    tag_554:\n        /* \"#utility.yul\":11291:11541   */\n      swap3\n      swap2\n      pop\n      pop\n      jump\t// out\n        /* \"#utility.yul\":11547:11860   */\n    tag_341:\n        /* \"#utility.yul\":11660:11664   */\n      0x00\n        /* \"#utility.yul\":11698:11700   */\n      0x20\n        /* \"#utility.yul\":11687:11696   */\n      dup3\n        /* \"#utility.yul\":11683:11701   */\n      add\n        /* \"#utility.yul\":11675:11701   */\n      swap1\n      pop\n        /* \"#utility.yul\":11747:11756   */\n      dup2\n        /* \"#utility.yul\":11741:11745   */\n      dup2\n        /* \"#utility.yul\":11737:11757   */\n      sub\n        /* \"#utility.yul\":11733:11734   */\n      0x00\n        /* \"#utility.yul\":11722:11731   */\n      dup4\n        /* \"#utility.yul\":11718:11735   */\n      add\n        /* \"#utility.yul\":11711:11758   */\n      mstore\n        /* \"#utility.yul\":11775:11853   */\n      tag_556\n        /* \"#utility.yul\":11848:11852   */\n      dup2\n        /* \"#utility.yul\":11839:11845   */\n      dup5\n        /* \"#utility.yul\":11775:11853   */\n      tag_452\n      jump\t// in\n    tag_556:\n        /* \"#utility.yul\":11767:11853   */\n      swap1\n      pop\n        /* \"#utility.yul\":11547:11860   */\n      swap3\n      swap2\n      pop\n      pop\n      jump\t// out\n        /* \"#utility.yul\":11866:12285   */\n    tag_273:\n        /* \"#utility.yul\":12032:12036   */\n      0x00\n        /* \"#utility.yul\":12070:12072   */\n      0x20\n        /* \"#utility.yul\":12059:12068   */\n      dup3\n        /* \"#utility.yul\":12055:12073   */\n      add\n        /* \"#utility.yul\":12047:12073   */\n      swap1\n      pop\n        /* \"#utility.yul\":12119:12128   */\n      dup2\n        /* \"#utility.yul\":12113:12117   */\n      dup2\n        /* \"#utility.yul\":12109:12129   */\n      sub\n        /* \"#utility.yul\":12105:12106   */\n      0x00\n        /* \"#utility.yul\":12094:12103   */\n      dup4\n        /* \"#utility.yul\":12090:12107   */\n      add\n        /* \"#utility.yul\":12083:12130   */\n      mstore\n        /* \"#utility.yul\":12147:12278   */\n      tag_558\n        /* \"#utility.yul\":12273:12277   */\n      dup2\n        /* \"#utility.yul\":12147:12278   */\n      tag_461\n      jump\t// in\n    tag_558:\n        /* \"#utility.yul\":12139:12278   */\n      swap1\n      pop\n        /* \"#utility.yul\":11866:12285   */\n      swap2\n      swap1\n      pop\n      jump\t// out\n        /* \"#utility.yul\":12291:12710   */\n    tag_291:\n        /* \"#utility.yul\":12457:12461   */\n      0x00\n        /* \"#utility.yul\":12495:12497   */\n      0x20\n        /* \"#utility.yul\":12484:12493   */\n      dup3\n        /* \"#utility.yul\":12480:12498   */\n      add\n        /* \"#utility.yul\":12472:12498   */\n      swap1\n      pop\n        /* \"#utility.yul\":12544:12553   */\n      dup2\n        /* \"#utility.yul\":12538:12542   */\n      dup2\n        /* \"#utility.yul\":12534:12554   */\n      sub\n        /* \"#utility.yul\":12530:12531   */\n      0x00\n        /* \"#utility.yul\":12519:12528   */\n      dup4\n        /* \"#utility.yul\":12515:12532   */\n      add\n        /* \"#utility.yul\":12508:12555   */\n      mstore\n        /* \"#utility.yul\":12572:12703   */\n      tag_560\n        /* \"#utility.yul\":12698:12702   */\n      dup2\n        /* \"#utility.yul\":12572:12703   */\n      tag_466\n      jump\t// in\n    tag_560:\n        /* \"#utility.yul\":12564:12703   */\n      swap1\n      pop\n        /* \"#utility.yul\":12291:12710   */\n      swap2\n      swap1\n      pop\n      jump\t// out\n        /* \"#utility.yul\":12716:13135   */\n    tag_261:\n        /* \"#utility.yul\":12882:12886   */\n      0x00\n        /* \"#utility.yul\":12920:12922   */\n      0x20\n        /* \"#utility.yul\":12909:12918   */\n      dup3\n        /* \"#utility.yul\":12905:12923   */\n      add\n        /* \"#utility.yul\":12897:12923   */\n      swap1\n      pop\n        /* \"#utility.yul\":12969:12978   */\n      dup2\n        /* \"#utility.yul\":12963:12967   */\n      dup2\n        /* \"#utility.yul\":12959:12979   */\n      sub\n        /* \"#utility.yul\":12955:12956   */\n      0x00\n        /* \"#utility.yul\":12944:12953   */\n      dup4\n        /* \"#utility.yul\":12940:12957   */\n      add\n        /* \"#utility.yul\":12933:12980   */\n      mstore\n        /* \"#utility.yul\":12997:13128   */\n      tag_562\n        /* \"#utility.yul\":13123:13127   */\n      dup2\n        /* \"#utility.yul\":12997:13128   */\n      tag_471\n      jump\t// in\n    tag_562:\n        /* \"#utility.yul\":12989:13128   */\n      swap1\n      pop\n        /* \"#utility.yul\":12716:13135   */\n      swap2\n      swap1\n      pop\n      jump\t// out\n        /* \"#utility.yul\":13141:13560   */\n    tag_316:\n        /* \"#utility.yul\":13307:13311   */\n      0x00\n        /* \"#utility.yul\":13345:13347   */\n      0x20\n        /* \"#utility.yul\":13334:13343   */\n      dup3\n        /* \"#utility.yul\":13330:13348   */\n      add\n        /* \"#utility.yul\":13322:13348   */\n      swap1\n      pop\n        /* \"#utility.yul\":13394:13403   */\n      dup2\n        /* \"#utility.yul\":13388:13392   */\n      dup2\n        /* \"#utility.yul\":13384:13404   */\n      sub\n        /* \"#utility.yul\":13380:13381   */\n      0x00\n        /* \"#utility.yul\":13369:13378   */\n      dup4\n        /* \"#utility.yul\":13365:13382   */\n      add\n        /* \"#utility.yul\":13358:13405   */\n      mstore\n        /* \"#utility.yul\":13422:13553   */\n      tag_564\n        /* \"#utility.yul\":13548:13552   */\n      dup2\n        /* \"#utility.yul\":13422:13553   */\n      tag_476\n      jump\t// in\n    tag_564:\n        /* \"#utility.yul\":13414:13553   */\n      swap1\n      pop\n        /* \"#utility.yul\":13141:13560   */\n      swap2\n      swap1\n      pop\n      jump\t// out\n        /* \"#utility.yul\":13566:13985   */\n    tag_238:\n        /* \"#utility.yul\":13732:13736   */\n      0x00\n        /* \"#utility.yul\":13770:13772   */\n      0x20\n        /* \"#utility.yul\":13759:13768   */\n      dup3\n        /* \"#utility.yul\":13755:13773   */\n      add\n        /* \"#utility.yul\":13747:13773   */\n      swap1\n      pop\n        /* \"#utility.yul\":13819:13828   */\n      dup2\n        /* \"#utility.yul\":13813:13817   */\n      dup2\n        /* \"#utility.yul\":13809:13829   */\n      sub\n        /* \"#utility.yul\":13805:13806   */\n      0x00\n        /* \"#utility.yul\":13794:13803   */\n      dup4\n        /* \"#utility.yul\":13790:13807   */\n      add\n        /* \"#utility.yul\":13783:13830   */\n      mstore\n        /* \"#utility.yul\":13847:13978   */\n      tag_566\n        /* \"#utility.yul\":13973:13977   */\n      dup2\n        /* \"#utility.yul\":13847:13978   */\n      tag_481\n      jump\t// in\n    tag_566:\n        /* \"#utility.yul\":13839:13978   */\n      swap1\n      pop\n        /* \"#utility.yul\":13566:13985   */\n      swap2\n      swap1\n      pop\n      jump\t// out\n        /* \"#utility.yul\":13991:14410   */\n    tag_369:\n        /* \"#utility.yul\":14157:14161   */\n      0x00\n        /* \"#utility.yul\":14195:14197   */\n      0x20\n        /* \"#utility.yul\":14184:14193   */\n      dup3\n        /* \"#utility.yul\":14180:14198   */\n      add\n        /* \"#utility.yul\":14172:14198   */\n      swap1\n      pop\n        /* \"#utility.yul\":14244:14253   */\n      dup2\n        /* \"#utility.yul\":14238:14242   */\n      dup2\n        /* \"#utility.yul\":14234:14254   */\n      sub\n        /* \"#utility.yul\":14230:14231   */\n      0x00\n        /* \"#utility.yul\":14219:14228   */\n      dup4\n        /* \"#utility.yul\":14215:14232   */\n      add\n        /* \"#utility.yul\":14208:14255   */\n      mstore\n        /* \"#utility.yul\":14272:14403   */\n      tag_568\n        /* \"#utility.yul\":14398:14402   */\n      dup2\n        /* \"#utility.yul\":14272:14403   */\n      tag_486\n      jump\t// in\n    tag_568:\n        /* \"#utility.yul\":14264:14403   */\n      swap1\n      pop\n        /* \"#utility.yul\":13991:14410   */\n      swap2\n      swap1\n      pop\n      jump\t// out\n        /* \"#utility.yul\":14416:14835   */\n    tag_252:\n        /* \"#utility.yul\":14582:14586   */\n      0x00\n        /* \"#utility.yul\":14620:14622   */\n      0x20\n        /* \"#utility.yul\":14609:14618   */\n      dup3\n        /* \"#utility.yul\":14605:14623   */\n      add\n        /* \"#utility.yul\":14597:14623   */\n      swap1\n      pop\n        /* \"#utility.yul\":14669:14678   */\n      dup2\n        /* \"#utility.yul\":14663:14667   */\n      dup2\n        /* \"#utility.yul\":14659:14679   */\n      sub\n        /* \"#utility.yul\":14655:14656   */\n      0x00\n        /* \"#utility.yul\":14644:14653   */\n      dup4\n        /* \"#utility.yul\":14640:14657   */\n      add\n        /* \"#utility.yul\":14633:14680   */\n      mstore\n        /* \"#utility.yul\":14697:14828   */\n      tag_570\n        /* \"#utility.yul\":14823:14827   */\n      dup2\n        /* \"#utility.yul\":14697:14828   */\n      tag_491\n      jump\t// in\n    tag_570:\n        /* \"#utility.yul\":14689:14828   */\n      swap1\n      pop\n        /* \"#utility.yul\":14416:14835   */\n      swap2\n      swap1\n      pop\n      jump\t// out\n        /* \"#utility.yul\":14841:15260   */\n    tag_162:\n        /* \"#utility.yul\":15007:15011   */\n      0x00\n        /* \"#utility.yul\":15045:15047   */\n      0x20\n        /* \"#utility.yul\":15034:15043   */\n      dup3\n        /* \"#utility.yul\":15030:15048   */\n      add\n        /* \"#utility.yul\":15022:15048   */\n      swap1\n      pop\n        /* \"#utility.yul\":15094:15103   */\n      dup2\n        /* \"#utility.yul\":15088:15092   */\n      dup2\n        /* \"#utility.yul\":15084:15104   */\n      sub\n        /* \"#utility.yul\":15080:15081   */\n      0x00\n        /* \"#utility.yul\":15069:15078   */\n      dup4\n        /* \"#utility.yul\":15065:15082   */\n      add\n        /* \"#utility.yul\":15058:15105   */\n      mstore\n        /* \"#utility.yul\":15122:15253   */\n      tag_572\n        /* \"#utility.yul\":15248:15252   */\n      dup2\n        /* \"#utility.yul\":15122:15253   */\n      tag_496\n      jump\t// in\n    tag_572:\n        /* \"#utility.yul\":15114:15253   */\n      swap1\n      pop\n        /* \"#utility.yul\":14841:15260   */\n      swap2\n      swap1\n      pop\n      jump\t// out\n        /* \"#utility.yul\":15266:15685   */\n    tag_304:\n        /* \"#utility.yul\":15432:15436   */\n      0x00\n        /* \"#utility.yul\":15470:15472   */\n      0x20\n        /* \"#utility.yul\":15459:15468   */\n      dup3\n        /* \"#utility.yul\":15455:15473   */\n      add\n        /* \"#utility.yul\":15447:15473   */\n      swap1\n      pop\n        /* \"#utility.yul\":15519:15528   */\n      dup2\n        /* \"#utility.yul\":15513:15517   */\n      dup2\n        /* \"#utility.yul\":15509:15529   */\n      sub\n        /* \"#utility.yul\":15505:15506   */\n      0x00\n        /* \"#utility.yul\":15494:15503   */\n      dup4\n        /* \"#utility.yul\":15490:15507   */\n      add\n        /* \"#utility.yul\":15483:15530   */\n      mstore\n        /* \"#utility.yul\":15547:15678   */\n      tag_574\n        /* \"#utility.yul\":15673:15677   */\n      dup2\n        /* \"#utility.yul\":15547:15678   */\n      tag_501\n      jump\t// in\n    tag_574:\n        /* \"#utility.yul\":15539:15678   */\n      swap1\n      pop\n        /* \"#utility.yul\":15266:15685   */\n      swap2\n      swap1\n      pop\n      jump\t// out\n        /* \"#utility.yul\":15691:16110   */\n    tag_332:\n        /* \"#utility.yul\":15857:15861   */\n      0x00\n        /* \"#utility.yul\":15895:15897   */\n      0x20\n        /* \"#utility.yul\":15884:15893   */\n      dup3\n        /* \"#utility.yul\":15880:15898   */\n      add\n        /* \"#utility.yul\":15872:15898   */\n      swap1\n      pop\n        /* \"#utility.yul\":15944:15953   */\n      dup2\n        /* \"#utility.yul\":15938:15942   */\n      dup2\n        /* \"#utility.yul\":15934:15954   */\n      sub\n        /* \"#utility.yul\":15930:15931   */\n      0x00\n        /* \"#utility.yul\":15919:15928   */\n      dup4\n        /* \"#utility.yul\":15915:15932   */\n      add\n        /* \"#utility.yul\":15908:15955   */\n      mstore\n        /* \"#utility.yul\":15972:16103   */\n      tag_576\n        /* \"#utility.yul\":16098:16102   */\n      dup2\n        /* \"#utility.yul\":15972:16103   */\n      tag_506\n      jump\t// in\n    tag_576:\n        /* \"#utility.yul\":15964:16103   */\n      swap1\n      pop\n        /* \"#utility.yul\":15691:16110   */\n      swap2\n      swap1\n      pop\n      jump\t// out\n        /* \"#utility.yul\":16116:16535   */\n    tag_242:\n        /* \"#utility.yul\":16282:16286   */\n      0x00\n        /* \"#utility.yul\":16320:16322   */\n      0x20\n        /* \"#utility.yul\":16309:16318   */\n      dup3\n        /* \"#utility.yul\":16305:16323   */\n      add\n        /* \"#utility.yul\":16297:16323   */\n      swap1\n      pop\n        /* \"#utility.yul\":16369:16378   */\n      dup2\n        /* \"#utility.yul\":16363:16367   */\n      dup2\n        /* \"#utility.yul\":16359:16379   */\n      sub\n        /* \"#utility.yul\":16355:16356   */\n      0x00\n        /* \"#utility.yul\":16344:16353   */\n      dup4\n        /* \"#utility.yul\":16340:16357   */\n      add\n        /* \"#utility.yul\":16333:16380   */\n      mstore\n        /* \"#utility.yul\":16397:16528   */\n      tag_578\n        /* \"#utility.yul\":16523:16527   */\n      dup2\n        /* \"#utility.yul\":16397:16528   */\n      tag_511\n      jump\t// in\n    tag_578:\n        /* \"#utility.yul\":16389:16528   */\n      swap1\n      pop\n        /* \"#utility.yul\":16116:16535   */\n      swap2\n      swap1\n      pop\n      jump\t// out\n        /* \"#utility.yul\":16541:16960   */\n    tag_206:\n        /* \"#utility.yul\":16707:16711   */\n      0x00\n        /* \"#utility.yul\":16745:16747   */\n      0x20\n        /* \"#utility.yul\":16734:16743   */\n      dup3\n        /* \"#utility.yul\":16730:16748   */\n      add\n        /* \"#utility.yul\":16722:16748   */\n      swap1\n      pop\n        /* \"#utility.yul\":16794:16803   */\n      dup2\n        /* \"#utility.yul\":16788:16792   */\n      dup2\n        /* \"#utility.yul\":16784:16804   */\n      sub\n        /* \"#utility.yul\":16780:16781   */\n      0x00\n        /* \"#utility.yul\":16769:16778   */\n      dup4\n        /* \"#utility.yul\":16765:16782   */\n      add\n        /* \"#utility.yul\":16758:16805   */\n      mstore\n        /* \"#utility.yul\":16822:16953   */\n      tag_580\n        /* \"#utility.yul\":16948:16952   */\n      dup2\n        /* \"#utility.yul\":16822:16953   */\n      tag_516\n      jump\t// in\n    tag_580:\n        /* \"#utility.yul\":16814:16953   */\n      swap1\n      pop\n        /* \"#utility.yul\":16541:16960   */\n      swap2\n      swap1\n      pop\n      jump\t// out\n        /* \"#utility.yul\":16966:17385   */\n    tag_374:\n        /* \"#utility.yul\":17132:17136   */\n      0x00\n        /* \"#utility.yul\":17170:17172   */\n      0x20\n        /* \"#utility.yul\":17159:17168   */\n      dup3\n        /* \"#utility.yul\":17155:17173   */\n      add\n        /* \"#utility.yul\":17147:17173   */\n      swap1\n      pop\n        /* \"#utility.yul\":17219:17228   */\n      dup2\n        /* \"#utility.yul\":17213:17217   */\n      dup2\n        /* \"#utility.yul\":17209:17229   */\n      sub\n        /* \"#utility.yul\":17205:17206   */\n      0x00\n        /* \"#utility.yul\":17194:17203   */\n      dup4\n        /* \"#utility.yul\":17190:17207   */\n      add\n        /* \"#utility.yul\":17183:17230   */\n      mstore\n        /* \"#utility.yul\":17247:17378   */\n      tag_582\n        /* \"#utility.yul\":17373:17377   */\n      dup2\n        /* \"#utility.yul\":17247:17378   */\n      tag_521\n      jump\t// in\n    tag_582:\n        /* \"#utility.yul\":17239:17378   */\n      swap1\n      pop\n        /* \"#utility.yul\":16966:17385   */\n      swap2\n      swap1\n      pop\n      jump\t// out\n        /* \"#utility.yul\":17391:17810   */\n    tag_361:\n        /* \"#utility.yul\":17557:17561   */\n      0x00\n        /* \"#utility.yul\":17595:17597   */\n      0x20\n        /* \"#utility.yul\":17584:17593   */\n      dup3\n        /* \"#utility.yul\":17580:17598   */\n      add\n        /* \"#utility.yul\":17572:17598   */\n      swap1\n      pop\n        /* \"#utility.yul\":17644:17653   */\n      dup2\n        /* \"#utility.yul\":17638:17642   */\n      dup2\n        /* \"#utility.yul\":17634:17654   */\n      sub\n        /* \"#utility.yul\":17630:17631   */\n      0x00\n        /* \"#utility.yul\":17619:17628   */\n      dup4\n        /* \"#utility.yul\":17615:17632   */\n      add\n        /* \"#utility.yul\":17608:17655   */\n      mstore\n        /* \"#utility.yul\":17672:17803   */\n      tag_584\n        /* \"#utility.yul\":17798:17802   */\n      dup2\n        /* \"#utility.yul\":17672:17803   */\n      tag_526\n      jump\t// in\n    tag_584:\n        /* \"#utility.yul\":17664:17803   */\n      swap1\n      pop\n        /* \"#utility.yul\":17391:17810   */\n      swap2\n      swap1\n      pop\n      jump\t// out\n        /* \"#utility.yul\":17816:18235   */\n    tag_320:\n        /* \"#utility.yul\":17982:17986   */\n      0x00\n        /* \"#utility.yul\":18020:18022   */\n      0x20\n        /* \"#utility.yul\":18009:18018   */\n      dup3\n        /* \"#utility.yul\":18005:18023   */\n      add\n        /* \"#utility.yul\":17997:18023   */\n      swap1\n      pop\n        /* \"#utility.yul\":18069:18078   */\n      dup2\n        /* \"#utility.yul\":18063:18067   */\n      dup2\n        /* \"#utility.yul\":18059:18079   */\n      sub\n        /* \"#utility.yul\":18055:18056   */\n      0x00\n        /* \"#utility.yul\":18044:18053   */\n      dup4\n        /* \"#utility.yul\":18040:18057   */\n      add\n        /* \"#utility.yul\":18033:18080   */\n      mstore\n        /* \"#utility.yul\":18097:18228   */\n      tag_586\n        /* \"#utility.yul\":18223:18227   */\n      dup2\n        /* \"#utility.yul\":18097:18228   */\n      tag_531\n      jump\t// in\n    tag_586:\n        /* \"#utility.yul\":18089:18228   */\n      swap1\n      pop\n        /* \"#utility.yul\":17816:18235   */\n      swap2\n      swap1\n      pop\n      jump\t// out\n        /* \"#utility.yul\":18241:18463   */\n    tag_44:\n        /* \"#utility.yul\":18334:18338   */\n      0x00\n        /* \"#utility.yul\":18372:18374   */\n      0x20\n        /* \"#utility.yul\":18361:18370   */\n      dup3\n        /* \"#utility.yul\":18357:18375   */\n      add\n        /* \"#utility.yul\":18349:18375   */\n      swap1\n      pop\n        /* \"#utility.yul\":18385:18456   */\n      tag_588\n        /* \"#utility.yul\":18453:18454   */\n      0x00\n        /* \"#utility.yul\":18442:18451   */\n      dup4\n        /* \"#utility.yul\":18438:18455   */\n      add\n        /* \"#utility.yul\":18429:18435   */\n      dup5\n        /* \"#utility.yul\":18385:18456   */\n      tag_536\n      jump\t// in\n    tag_588:\n        /* \"#utility.yul\":18241:18463   */\n      swap3\n      swap2\n      pop\n      pop\n      jump\t// out\n        /* \"#utility.yul\":18550:18648   */\n    tag_443:\n        /* \"#utility.yul\":18601:18607   */\n      0x00\n        /* \"#utility.yul\":18635:18640   */\n      dup2\n        /* \"#utility.yul\":18629:18641   */\n      mload\n        /* \"#utility.yul\":18619:18641   */\n      swap1\n      pop\n        /* \"#utility.yul\":18550:18648   */\n      swap2\n      swap1\n      pop\n      jump\t// out\n        /* \"#utility.yul\":18654:18753   */\n    tag_455:\n        /* \"#utility.yul\":18706:18712   */\n      0x00\n        /* \"#utility.yul\":18740:18745   */\n      dup2\n        /* \"#utility.yul\":18734:18746   */\n      mload\n        /* \"#utility.yul\":18724:18746   */\n      swap1\n      pop\n        /* \"#utility.yul\":18654:18753   */\n      swap2\n      swap1\n      pop\n      jump\t// out\n        /* \"#utility.yul\":18759:18906   */\n    tag_445:\n        /* \"#utility.yul\":18860:18871   */\n      0x00\n        /* \"#utility.yul\":18897:18900   */\n      dup2\n        /* \"#utility.yul\":18882:18900   */\n      swap1\n      pop\n        /* \"#utility.yul\":18759:18906   */\n      swap3\n      swap2\n      pop\n      pop\n      jump\t// out\n        /* \"#utility.yul\":18912:19081   */\n    tag_457:\n        /* \"#utility.yul\":18996:19007   */\n      0x00\n        /* \"#utility.yul\":19030:19036   */\n      dup3\n        /* \"#utility.yul\":19025:19028   */\n      dup3\n        /* \"#utility.yul\":19018:19037   */\n      mstore\n        /* \"#utility.yul\":19070:19074   */\n      0x20\n        /* \"#utility.yul\":19065:19068   */\n      dup3\n        /* \"#utility.yul\":19061:19075   */\n      add\n        /* \"#utility.yul\":19046:19075   */\n      swap1\n      pop\n        /* \"#utility.yul\":18912:19081   */\n      swap3\n      swap2\n      pop\n      pop\n      jump\t// out\n        /* \"#utility.yul\":19087:19392   */\n    tag_313:\n        /* \"#utility.yul\":19127:19130   */\n      0x00\n        /* \"#utility.yul\":19146:19166   */\n      tag_596\n        /* \"#utility.yul\":19164:19165   */\n      dup3\n        /* \"#utility.yul\":19146:19166   */\n      tag_539\n      jump\t// in\n    tag_596:\n        /* \"#utility.yul\":19141:19166   */\n      swap2\n      pop\n        /* \"#utility.yul\":19180:19200   */\n      tag_597\n        /* \"#utility.yul\":19198:19199   */\n      dup4\n        /* \"#utility.yul\":19180:19200   */\n      tag_539\n      jump\t// in\n    tag_597:\n        /* \"#utility.yul\":19175:19200   */\n      swap3\n      pop\n        /* \"#utility.yul\":19334:19335   */\n      dup3\n        /* \"#utility.yul\":19266:19332   */\n      0xffffffffffffffffffffffffffffffffffffffffffffffffffffffffffffffff\n        /* \"#utility.yul\":19262:19336   */\n      sub\n        /* \"#utility.yul\":19259:19260   */\n      dup3\n        /* \"#utility.yul\":19256:19337   */\n      gt\n        /* \"#utility.yul\":19253:19360   */\n      iszero\n      tag_598\n      jumpi\n        /* \"#utility.yul\":19340:19358   */\n      tag_599\n      tag_600\n      jump\t// in\n    tag_599:\n        /* \"#utility.yul\":19253:19360   */\n    tag_598:\n        /* \"#utility.yul\":19384:19385   */\n      dup3\n        /* \"#utility.yul\":19381:19382   */\n      dup3\n        /* \"#utility.yul\":19377:19386   */\n      add\n        /* \"#utility.yul\":19370:19386   */\n      swap1\n      pop\n        /* \"#utility.yul\":19087:19392   */\n      swap3\n      swap2\n      pop\n      pop\n      jump\t// out\n        /* \"#utility.yul\":19398:19583   */\n    tag_301:\n        /* \"#utility.yul\":19438:19439   */\n      0x00\n        /* \"#utility.yul\":19455:19475   */\n      tag_602\n        /* \"#utility.yul\":19473:19474   */\n      dup3\n        /* \"#utility.yul\":19455:19475   */\n      tag_539\n      jump\t// in\n    tag_602:\n        /* \"#utility.yul\":19450:19475   */\n      swap2\n      pop\n        /* \"#utility.yul\":19489:19509   */\n      tag_603\n        /* \"#utility.yul\":19507:19508   */\n      dup4\n        /* \"#utility.yul\":19489:19509   */\n      tag_539\n      jump\t// in\n    tag_603:\n        /* \"#utility.yul\":19484:19509   */\n      swap3\n      pop\n        /* \"#utility.yul\":19528:19529   */\n      dup3\n        /* \"#utility.yul\":19518:19553   */\n      tag_604\n      jumpi\n        /* \"#utility.yul\":19533:19551   */\n      tag_605\n      tag_606\n      jump\t// in\n    tag_605:\n        /* \"#utility.yul\":19518:19553   */\n    tag_604:\n        /* \"#utility.yul\":19575:19576   */\n      dup3\n        /* \"#utility.yul\":19572:19573   */\n      dup3\n        /* \"#utility.yul\":19568:19577   */\n      div\n        /* \"#utility.yul\":19563:19577   */\n      swap1\n      pop\n        /* \"#utility.yul\":19398:19583   */\n      swap3\n      swap2\n      pop\n      pop\n      jump\t// out\n        /* \"#utility.yul\":19589:19937   */\n    tag_299:\n        /* \"#utility.yul\":19629:19636   */\n      0x00\n        /* \"#utility.yul\":19652:19672   */\n      tag_608\n        /* \"#utility.yul\":19670:19671   */\n      dup3\n        /* \"#utility.yul\":19652:19672   */\n      tag_539\n      jump\t// in\n    tag_608:\n        /* \"#utility.yul\":19647:19672   */\n      swap2\n      pop\n        /* \"#utility.yul\":19686:19706   */\n      tag_609\n        /* \"#utility.yul\":19704:19705   */\n      dup4\n        /* \"#utility.yul\":19686:19706   */\n      tag_539\n      jump\t// in\n    tag_609:\n        /* \"#utility.yul\":19681:19706   */\n      swap3\n      pop\n        /* \"#utility.yul\":19874:19875   */\n      dup2\n        /* \"#utility.yul\":19806:19872   */\n      0xffffffffffffffffffffffffffffffffffffffffffffffffffffffffffffffff\n        /* \"#utility.yul\":19802:19876   */\n      div\n        /* \"#utility.yul\":19799:19800   */\n      dup4\n        /* \"#utility.yul\":19796:19877   */\n      gt\n        /* \"#utility.yul\":19791:19792   */\n      dup3\n        /* \"#utility.yul\":19784:19793   */\n      iszero\n        /* \"#utility.yul\":19777:19794   */\n      iszero\n        /* \"#utility.yul\":19773:19878   */\n      and\n        /* \"#utility.yul\":19770:19901   */\n      iszero\n      tag_610\n      jumpi\n        /* \"#utility.yul\":19881:19899   */\n      tag_611\n      tag_600\n      jump\t// in\n    tag_611:\n        /* \"#utility.yul\":19770:19901   */\n    tag_610:\n        /* \"#utility.yul\":19929:19930   */\n      dup3\n        /* \"#utility.yul\":19926:19927   */\n      dup3\n        /* \"#utility.yul\":19922:19931   */\n      mul\n        /* \"#utility.yul\":19911:19931   */\n      swap1\n      pop\n        /* \"#utility.yul\":19589:19937   */\n      swap3\n      swap2\n      pop\n      pop\n      jump\t// out\n        /* \"#utility.yul\":19943:20134   */\n    tag_352:\n        /* \"#utility.yul\":19983:19987   */\n      0x00\n        /* \"#utility.yul\":20003:20023   */\n      tag_613\n        /* \"#utility.yul\":20021:20022   */\n      dup3\n        /* \"#utility.yul\":20003:20023   */\n      tag_539\n      jump\t// in\n    tag_613:\n        /* \"#utility.yul\":19998:20023   */\n      swap2\n      pop\n        /* \"#utility.yul\":20037:20057   */\n      tag_614\n        /* \"#utility.yul\":20055:20056   */\n      dup4\n        /* \"#utility.yul\":20037:20057   */\n      tag_539\n      jump\t// in\n    tag_614:\n        /* \"#utility.yul\":20032:20057   */\n      swap3\n      pop\n        /* \"#utility.yul\":20076:20077   */\n      dup3\n        /* \"#utility.yul\":20073:20074   */\n      dup3\n        /* \"#utility.yul\":20070:20078   */\n      lt\n        /* \"#utility.yul\":20067:20101   */\n      iszero\n      tag_615\n      jumpi\n        /* \"#utility.yul\":20081:20099   */\n      tag_616\n      tag_600\n      jump\t// in\n    tag_616:\n        /* \"#utility.yul\":20067:20101   */\n    tag_615:\n        /* \"#utility.yul\":20126:20127   */\n      dup3\n        /* \"#utility.yul\":20123:20124   */\n      dup3\n        /* \"#utility.yul\":20119:20128   */\n      sub\n        /* \"#utility.yul\":20111:20128   */\n      swap1\n      pop\n        /* \"#utility.yul\":19943:20134   */\n      swap3\n      swap2\n      pop\n      pop\n      jump\t// out\n        /* \"#utility.yul\":20140:20236   */\n    tag_435:\n        /* \"#utility.yul\":20177:20184   */\n      0x00\n        /* \"#utility.yul\":20206:20230   */\n      tag_618\n        /* \"#utility.yul\":20224:20229   */\n      dup3\n        /* \"#utility.yul\":20206:20230   */\n      tag_619\n      jump\t// in\n    tag_618:\n        /* \"#utility.yul\":20195:20230   */\n      swap1\n      pop\n        /* \"#utility.yul\":20140:20236   */\n      swap2\n      swap1\n      pop\n      jump\t// out\n        /* \"#utility.yul\":20242:20332   */\n    tag_439:\n        /* \"#utility.yul\":20276:20283   */\n      0x00\n        /* \"#utility.yul\":20319:20324   */\n      dup2\n        /* \"#utility.yul\":20312:20325   */\n      iszero\n        /* \"#utility.yul\":20305:20326   */\n      iszero\n        /* \"#utility.yul\":20294:20326   */\n      swap1\n      pop\n        /* \"#utility.yul\":20242:20332   */\n      swap2\n      swap1\n      pop\n      jump\t// out\n        /* \"#utility.yul\":20338:20464   */\n    tag_619:\n        /* \"#utility.yul\":20375:20382   */\n      0x00\n        /* \"#utility.yul\":20415:20457   */\n      0xffffffffffffffffffffffffffffffffffffffff\n        /* \"#utility.yul\":20408:20413   */\n      dup3\n        /* \"#utility.yul\":20404:20458   */\n      and\n        /* \"#utility.yul\":20393:20458   */\n      swap1\n      pop\n        /* \"#utility.yul\":20338:20464   */\n      swap2\n      swap1\n      pop\n      jump\t// out\n        /* \"#utility.yul\":20470:20547   */\n    tag_539:\n        /* \"#utility.yul\":20507:20514   */\n      0x00\n        /* \"#utility.yul\":20536:20541   */\n      dup2\n        /* \"#utility.yul\":20525:20541   */\n      swap1\n      pop\n        /* \"#utility.yul\":20470:20547   */\n      swap2\n      swap1\n      pop\n      jump\t// out\n        /* \"#utility.yul\":20553:20693   */\n    tag_451:\n        /* \"#utility.yul\":20617:20626   */\n      0x00\n        /* \"#utility.yul\":20650:20687   */\n      tag_624\n        /* \"#utility.yul\":20681:20686   */\n      dup3\n        /* \"#utility.yul\":20650:20687   */\n      tag_625\n      jump\t// in\n    tag_624:\n        /* \"#utility.yul\":20637:20687   */\n      swap1\n      pop\n        /* \"#utility.yul\":20553:20693   */\n      swap2\n      swap1\n      pop\n      jump\t// out\n        /* \"#utility.yul\":20699:20825   */\n    tag_625:\n        /* \"#utility.yul\":20749:20758   */\n      0x00\n        /* \"#utility.yul\":20782:20819   */\n      tag_627\n        /* \"#utility.yul\":20813:20818   */\n      dup3\n        /* \"#utility.yul\":20782:20819   */\n      tag_628\n      jump\t// in\n    tag_627:\n        /* \"#utility.yul\":20769:20819   */\n      swap1\n      pop\n        /* \"#utility.yul\":20699:20825   */\n      swap2\n      swap1\n      pop\n      jump\t// out\n        /* \"#utility.yul\":20831:20944   */\n    tag_628:\n        /* \"#utility.yul\":20881:20890   */\n      0x00\n        /* \"#utility.yul\":20914:20938   */\n      tag_630\n        /* \"#utility.yul\":20932:20937   */\n      dup3\n        /* \"#utility.yul\":20914:20938   */\n      tag_619\n      jump\t// in\n    tag_630:\n        /* \"#utility.yul\":20901:20938   */\n      swap1\n      pop\n        /* \"#utility.yul\":20831:20944   */\n      swap2\n      swap1\n      pop\n      jump\t// out\n        /* \"#utility.yul\":20950:21257   */\n    tag_447:\n        /* \"#utility.yul\":21018:21019   */\n      0x00\n        /* \"#utility.yul\":21028:21141   */\n    tag_632:\n        /* \"#utility.yul\":21042:21048   */\n      dup4\n        /* \"#utility.yul\":21039:21040   */\n      dup2\n        /* \"#utility.yul\":21036:21049   */\n      lt\n        /* \"#utility.yul\":21028:21141   */\n      iszero\n      tag_634\n      jumpi\n        /* \"#utility.yul\":21127:21128   */\n      dup1\n        /* \"#utility.yul\":21122:21125   */\n      dup3\n        /* \"#utility.yul\":21118:21129   */\n      add\n        /* \"#utility.yul\":21112:21130   */\n      mload\n        /* \"#utility.yul\":21108:21109   */\n      dup2\n        /* \"#utility.yul\":21103:21106   */\n      dup5\n        /* \"#utility.yul\":21099:21110   */\n      add\n        /* \"#utility.yul\":21092:21131   */\n      mstore\n        /* \"#utility.yul\":21064:21066   */\n      0x20\n        /* \"#utility.yul\":21061:21062   */\n      dup2\n        /* \"#utility.yul\":21057:21067   */\n      add\n        /* \"#utility.yul\":21052:21067   */\n      swap1\n      pop\n        /* \"#utility.yul\":21028:21141   */\n      jump(tag_632)\n    tag_634:\n        /* \"#utility.yul\":21159:21165   */\n      dup4\n        /* \"#utility.yul\":21156:21157   */\n      dup2\n        /* \"#utility.yul\":21153:21166   */\n      gt\n        /* \"#utility.yul\":21150:21251   */\n      iszero\n      tag_635\n      jumpi\n        /* \"#utility.yul\":21239:21240   */\n      0x00\n        /* \"#utility.yul\":21230:21236   */\n      dup5\n        /* \"#utility.yul\":21225:21228   */\n      dup5\n        /* \"#utility.yul\":21221:21237   */\n      add\n        /* \"#utility.yul\":21214:21241   */\n      mstore\n        /* \"#utility.yul\":21150:21251   */\n    tag_635:\n        /* \"#utility.yul\":20999:21257   */\n      pop\n        /* \"#utility.yul\":20950:21257   */\n      pop\n      pop\n      pop\n      jump\t// out\n        /* \"#utility.yul\":21263:21439   */\n    tag_347:\n        /* \"#utility.yul\":21295:21296   */\n      0x00\n        /* \"#utility.yul\":21312:21332   */\n      tag_637\n        /* \"#utility.yul\":21330:21331   */\n      dup3\n        /* \"#utility.yul\":21312:21332   */\n      tag_539\n      jump\t// in\n    tag_637:\n        /* \"#utility.yul\":21307:21332   */\n      swap2\n      pop\n        /* \"#utility.yul\":21346:21366   */\n      tag_638\n        /* \"#utility.yul\":21364:21365   */\n      dup4\n        /* \"#utility.yul\":21346:21366   */\n      tag_539\n      jump\t// in\n    tag_638:\n        /* \"#utility.yul\":21341:21366   */\n      swap3\n      pop\n        /* \"#utility.yul\":21385:21386   */\n      dup3\n        /* \"#utility.yul\":21375:21410   */\n      tag_639\n      jumpi\n        /* \"#utility.yul\":21390:21408   */\n      tag_640\n      tag_606\n      jump\t// in\n    tag_640:\n        /* \"#utility.yul\":21375:21410   */\n    tag_639:\n        /* \"#utility.yul\":21431:21432   */\n      dup3\n        /* \"#utility.yul\":21428:21429   */\n      dup3\n        /* \"#utility.yul\":21424:21433   */\n      mod\n        /* \"#utility.yul\":21419:21433   */\n      swap1\n      pop\n        /* \"#utility.yul\":21263:21439   */\n      swap3\n      swap2\n      pop\n      pop\n      jump\t// out\n        /* \"#utility.yul\":21445:21625   */\n    tag_600:\n        /* \"#utility.yul\":21493:21570   */\n      0x4e487b7100000000000000000000000000000000000000000000000000000000\n        /* \"#utility.yul\":21490:21491   */\n      0x00\n        /* \"#utility.yul\":21483:21571   */\n      mstore\n        /* \"#utility.yul\":21590:21594   */\n      0x11\n        /* \"#utility.yul\":21587:21588   */\n      0x04\n        /* \"#utility.yul\":21580:21595   */\n      mstore\n        /* \"#utility.yul\":21614:21618   */\n      0x24\n        /* \"#utility.yul\":21611:21612   */\n      0x00\n        /* \"#utility.yul\":21604:21619   */\n      revert\n        /* \"#utility.yul\":21631:21811   */\n    tag_606:\n        /* \"#utility.yul\":21679:21756   */\n      0x4e487b7100000000000000000000000000000000000000000000000000000000\n        /* \"#utility.yul\":21676:21677   */\n      0x00\n        /* \"#utility.yul\":21669:21757   */\n      mstore\n        /* \"#utility.yul\":21776:21780   */\n      0x12\n        /* \"#utility.yul\":21773:21774   */\n      0x04\n        /* \"#utility.yul\":21766:21781   */\n      mstore\n        /* \"#utility.yul\":21800:21804   */\n      0x24\n        /* \"#utility.yul\":21797:21798   */\n      0x00\n        /* \"#utility.yul\":21790:21805   */\n      revert\n        /* \"#utility.yul\":21940:22057   */\n    tag_408:\n        /* \"#utility.yul\":22049:22050   */\n      0x00\n        /* \"#utility.yul\":22046:22047   */\n      dup1\n        /* \"#utility.yul\":22039:22051   */\n      revert\n        /* \"#utility.yul\":22063:22165   */\n    tag_460:\n        /* \"#utility.yul\":22104:22110   */\n      0x00\n        /* \"#utility.yul\":22155:22157   */\n      0x1f\n        /* \"#utility.yul\":22151:22158   */\n      not\n        /* \"#utility.yul\":22146:22148   */\n      0x1f\n        /* \"#utility.yul\":22139:22144   */\n      dup4\n        /* \"#utility.yul\":22135:22149   */\n      add\n        /* \"#utility.yul\":22131:22159   */\n      and\n        /* \"#utility.yul\":22121:22159   */\n      swap1\n      pop\n        /* \"#utility.yul\":22063:22165   */\n      swap2\n      swap1\n      pop\n      jump\t// out\n        /* \"#utility.yul\":22171:22483   */\n    tag_465:\n        /* \"#utility.yul\":22311:22345   */\n      0x50726576696f7573207265776172647320706572696f64206d75737420626520\n        /* \"#utility.yul\":22307:22308   */\n      0x00\n        /* \"#utility.yul\":22299:22305   */\n      dup3\n        /* \"#utility.yul\":22295:22309   */\n      add\n        /* \"#utility.yul\":22288:22346   */\n      mstore\n        /* \"#utility.yul\":22380:22414   */\n      0x636f6d706c657465206265666f7265206368616e67696e672074686520647572\n        /* \"#utility.yul\":22375:22377   */\n      0x20\n        /* \"#utility.yul\":22367:22373   */\n      dup3\n        /* \"#utility.yul\":22363:22378   */\n      add\n        /* \"#utility.yul\":22356:22415   */\n      mstore\n        /* \"#utility.yul\":22449:22475   */\n      0x6174696f6e20666f7220746865206e657720706572696f640000000000000000\n        /* \"#utility.yul\":22444:22446   */\n      0x40\n        /* \"#utility.yul\":22436:22442   */\n      dup3\n        /* \"#utility.yul\":22432:22447   */\n      add\n        /* \"#utility.yul\":22425:22476   */\n      mstore\n        /* \"#utility.yul\":22171:22483   */\n      pop\n      jump\t// out\n        /* \"#utility.yul\":22489:22714   */\n    tag_470:\n        /* \"#utility.yul\":22629:22663   */\n      0x4f776e61626c653a206e6577206f776e657220697320746865207a65726f2061\n        /* \"#utility.yul\":22625:22626   */\n      0x00\n        /* \"#utility.yul\":22617:22623   */\n      dup3\n        /* \"#utility.yul\":22613:22627   */\n      add\n        /* \"#utility.yul\":22606:22664   */\n      mstore\n        /* \"#utility.yul\":22698:22706   */\n      0x6464726573730000000000000000000000000000000000000000000000000000\n        /* \"#utility.yul\":22693:22695   */\n      0x20\n        /* \"#utility.yul\":22685:22691   */\n      dup3\n        /* \"#utility.yul\":22681:22696   */\n      add\n        /* \"#utility.yul\":22674:22707   */\n      mstore\n        /* \"#utility.yul\":22489:22714   */\n      pop\n      jump\t// out\n        /* \"#utility.yul\":22720:22884   */\n    tag_475:\n        /* \"#utility.yul\":22860:22876   */\n      0x43616e6e6f74207374616b652030000000000000000000000000000000000000\n        /* \"#utility.yul\":22856:22857   */\n      0x00\n        /* \"#utility.yul\":22848:22854   */\n      dup3\n        /* \"#utility.yul\":22844:22858   */\n      add\n        /* \"#utility.yul\":22837:22877   */\n      mstore\n        /* \"#utility.yul\":22720:22884   */\n      pop\n      jump\t// out\n        /* \"#utility.yul\":22890:23067   */\n    tag_480:\n        /* \"#utility.yul\":23030:23059   */\n      0x536166654d6174683a206164646974696f6e206f766572666c6f770000000000\n        /* \"#utility.yul\":23026:23027   */\n      0x00\n        /* \"#utility.yul\":23018:23024   */\n      dup3\n        /* \"#utility.yul\":23014:23028   */\n      add\n        /* \"#utility.yul\":23007:23060   */\n      mstore\n        /* \"#utility.yul\":22890:23067   */\n      pop\n      jump\t// out\n        /* \"#utility.yul\":23073:23294   */\n    tag_485:\n        /* \"#utility.yul\":23213:23247   */\n      0x43616e6e6f7420776974686472617720746865207265776172647320746f6b65\n        /* \"#utility.yul\":23209:23210   */\n      0x00\n        /* \"#utility.yul\":23201:23207   */\n      dup3\n        /* \"#utility.yul\":23197:23211   */\n      add\n        /* \"#utility.yul\":23190:23248   */\n      mstore\n        /* \"#utility.yul\":23282:23286   */\n      0x6e73000000000000000000000000000000000000000000000000000000000000\n        /* \"#utility.yul\":23277:23279   */\n      0x20\n        /* \"#utility.yul\":23269:23275   */\n      dup3\n        /* \"#utility.yul\":23265:23280   */\n      add\n        /* \"#utility.yul\":23258:23287   */\n      mstore\n        /* \"#utility.yul\":23073:23294   */\n      pop\n      jump\t// out\n        /* \"#utility.yul\":23300:23525   */\n    tag_490:\n        /* \"#utility.yul\":23440:23474   */\n      0x416464726573733a20696e73756666696369656e742062616c616e636520666f\n        /* \"#utility.yul\":23436:23437   */\n      0x00\n        /* \"#utility.yul\":23428:23434   */\n      dup3\n        /* \"#utility.yul\":23424:23438   */\n      add\n        /* \"#utility.yul\":23417:23475   */\n      mstore\n        /* \"#utility.yul\":23509:23517   */\n      0x722063616c6c0000000000000000000000000000000000000000000000000000\n        /* \"#utility.yul\":23504:23506   */\n      0x20\n        /* \"#utility.yul\":23496:23502   */\n      dup3\n        /* \"#utility.yul\":23492:23507   */\n      add\n        /* \"#utility.yul\":23485:23518   */\n      mstore\n        /* \"#utility.yul\":23300:23525   */\n      pop\n      jump\t// out\n        /* \"#utility.yul\":23531:23697   */\n    tag_495:\n        /* \"#utility.yul\":23671:23689   */\n      0x5061757361626c653a2070617573656400000000000000000000000000000000\n        /* \"#utility.yul\":23667:23668   */\n      0x00\n        /* \"#utility.yul\":23659:23665   */\n      dup3\n        /* \"#utility.yul\":23655:23669   */\n      add\n        /* \"#utility.yul\":23648:23690   */\n      mstore\n        /* \"#utility.yul\":23531:23697   */\n      pop\n      jump\t// out\n        /* \"#utility.yul\":23703:23870   */\n    tag_500:\n        /* \"#utility.yul\":23843:23862   */\n      0x43616e6e6f742077697468647261772030000000000000000000000000000000\n        /* \"#utility.yul\":23839:23840   */\n      0x00\n        /* \"#utility.yul\":23831:23837   */\n      dup3\n        /* \"#utility.yul\":23827:23841   */\n      add\n        /* \"#utility.yul\":23820:23863   */\n      mstore\n        /* \"#utility.yul\":23703:23870   */\n      pop\n      jump\t// out\n        /* \"#utility.yul\":23876:24096   */\n    tag_505:\n        /* \"#utility.yul\":24016:24050   */\n      0x536166654d6174683a206d756c7469706c69636174696f6e206f766572666c6f\n        /* \"#utility.yul\":24012:24013   */\n      0x00\n        /* \"#utility.yul\":24004:24010   */\n      dup3\n        /* \"#utility.yul\":24000:24014   */\n      add\n        /* \"#utility.yul\":23993:24051   */\n      mstore\n        /* \"#utility.yul\":24085:24088   */\n      0x7700000000000000000000000000000000000000000000000000000000000000\n        /* \"#utility.yul\":24080:24082   */\n      0x20\n        /* \"#utility.yul\":24072:24078   */\n      dup3\n        /* \"#utility.yul\":24068:24083   */\n      add\n        /* \"#utility.yul\":24061:24089   */\n      mstore\n        /* \"#utility.yul\":23876:24096   */\n      pop\n      jump\t// out\n        /* \"#utility.yul\":24102:24284   */\n    tag_510:\n        /* \"#utility.yul\":24242:24276   */\n      0x4f776e61626c653a2063616c6c6572206973206e6f7420746865206f776e6572\n        /* \"#utility.yul\":24238:24239   */\n      0x00\n        /* \"#utility.yul\":24230:24236   */\n      dup3\n        /* \"#utility.yul\":24226:24240   */\n      add\n        /* \"#utility.yul\":24219:24277   */\n      mstore\n        /* \"#utility.yul\":24102:24284   */\n      pop\n      jump\t// out\n        /* \"#utility.yul\":24290:24511   */\n    tag_515:\n        /* \"#utility.yul\":24430:24464   */\n      0x43616e6e6f7420776974686472617720746865207374616b696e6720746f6b65\n        /* \"#utility.yul\":24426:24427   */\n      0x00\n        /* \"#utility.yul\":24418:24424   */\n      dup3\n        /* \"#utility.yul\":24414:24428   */\n      add\n        /* \"#utility.yul\":24407:24465   */\n      mstore\n        /* \"#utility.yul\":24499:24503   */\n      0x6e73000000000000000000000000000000000000000000000000000000000000\n        /* \"#utility.yul\":24494:24496   */\n      0x20\n        /* \"#utility.yul\":24486:24492   */\n      dup3\n        /* \"#utility.yul\":24482:24497   */\n      add\n        /* \"#utility.yul\":24475:24504   */\n      mstore\n        /* \"#utility.yul\":24290:24511   */\n      pop\n      jump\t// out\n        /* \"#utility.yul\":24517:24691   */\n    tag_520:\n        /* \"#utility.yul\":24657:24683   */\n      0x50726f76696465642072657761726420746f6f20686967680000000000000000\n        /* \"#utility.yul\":24653:24654   */\n      0x00\n        /* \"#utility.yul\":24645:24651   */\n      dup3\n        /* \"#utility.yul\":24641:24655   */\n      add\n        /* \"#utility.yul\":24634:24684   */\n      mstore\n        /* \"#utility.yul\":24517:24691   */\n      pop\n      jump\t// out\n        /* \"#utility.yul\":24697:24876   */\n    tag_525:\n        /* \"#utility.yul\":24837:24868   */\n      0x416464726573733a2063616c6c20746f206e6f6e2d636f6e7472616374000000\n        /* \"#utility.yul\":24833:24834   */\n      0x00\n        /* \"#utility.yul\":24825:24831   */\n      dup3\n        /* \"#utility.yul\":24821:24835   */\n      add\n        /* \"#utility.yul\":24814:24869   */\n      mstore\n        /* \"#utility.yul\":24697:24876   */\n      pop\n      jump\t// out\n        /* \"#utility.yul\":24882:25111   */\n    tag_530:\n        /* \"#utility.yul\":25022:25056   */\n      0x5361666545524332303a204552433230206f7065726174696f6e20646964206e\n        /* \"#utility.yul\":25018:25019   */\n      0x00\n        /* \"#utility.yul\":25010:25016   */\n      dup3\n        /* \"#utility.yul\":25006:25020   */\n      add\n        /* \"#utility.yul\":24999:25057   */\n      mstore\n        /* \"#utility.yul\":25091:25103   */\n      0x6f74207375636365656400000000000000000000000000000000000000000000\n        /* \"#utility.yul\":25086:25088   */\n      0x20\n        /* \"#utility.yul\":25078:25084   */\n      dup3\n        /* \"#utility.yul\":25074:25089   */\n      add\n        /* \"#utility.yul\":25067:25104   */\n      mstore\n        /* \"#utility.yul\":24882:25111   */\n      pop\n      jump\t// out\n        /* \"#utility.yul\":25117:25298   */\n    tag_535:\n        /* \"#utility.yul\":25257:25290   */\n      0x5265656e7472616e637947756172643a207265656e7472616e742063616c6c00\n        /* \"#utility.yul\":25253:25254   */\n      0x00\n        /* \"#utility.yul\":25245:25251   */\n      dup3\n        /* \"#utility.yul\":25241:25255   */\n      add\n        /* \"#utility.yul\":25234:25291   */\n      mstore\n        /* \"#utility.yul\":25117:25298   */\n      pop\n      jump\t// out\n        /* \"#utility.yul\":25304:25426   */\n    tag_393:\n        /* \"#utility.yul\":25377:25401   */\n      tag_663\n        /* \"#utility.yul\":25395:25400   */\n      dup2\n        /* \"#utility.yul\":25377:25401   */\n      tag_435\n      jump\t// in\n    tag_663:\n        /* \"#utility.yul\":25370:25375   */\n      dup2\n        /* \"#utility.yul\":25367:25402   */\n      eq\n        /* \"#utility.yul\":25357:25420   */\n      tag_664\n      jumpi\n        /* \"#utility.yul\":25416:25417   */\n      0x00\n        /* \"#utility.yul\":25413:25414   */\n      dup1\n        /* \"#utility.yul\":25406:25418   */\n      revert\n        /* \"#utility.yul\":25357:25420   */\n    tag_664:\n        /* \"#utility.yul\":25304:25426   */\n      pop\n      jump\t// out\n        /* \"#utility.yul\":25432:25548   */\n    tag_397:\n        /* \"#utility.yul\":25502:25523   */\n      tag_666\n        /* \"#utility.yul\":25517:25522   */\n      dup2\n        /* \"#utility.yul\":25502:25523   */\n      tag_439\n      jump\t// in\n    tag_666:\n        /* \"#utility.yul\":25495:25500   */\n      dup2\n        /* \"#utility.yul\":25492:25524   */\n      eq\n        /* \"#utility.yul\":25482:25542   */\n      tag_667\n      jumpi\n        /* \"#utility.yul\":25538:25539   */\n      0x00\n        /* \"#utility.yul\":25535:25536   */\n      dup1\n        /* \"#utility.yul\":25528:25540   */\n      revert\n        /* \"#utility.yul\":25482:25542   */\n    tag_667:\n        /* \"#utility.yul\":25432:25548   */\n      pop\n      jump\t// out\n        /* \"#utility.yul\":25554:25676   */\n    tag_401:\n        /* \"#utility.yul\":25627:25651   */\n      tag_669\n        /* \"#utility.yul\":25645:25650   */\n      dup2\n        /* \"#utility.yul\":25627:25651   */\n      tag_539\n      jump\t// in\n    tag_669:\n        /* \"#utility.yul\":25620:25625   */\n      dup2\n        /* \"#utility.yul\":25617:25652   */\n      eq\n        /* \"#utility.yul\":25607:25670   */\n      tag_670\n      jumpi\n        /* \"#utility.yul\":25666:25667   */\n      0x00\n        /* \"#utility.yul\":25663:25664   */\n      dup1\n        /* \"#utility.yul\":25656:25668   */\n      revert\n        /* \"#utility.yul\":25607:25670   */\n    tag_670:\n        /* \"#utility.yul\":25554:25676   */\n      pop\n      jump\t// out\n\n    auxdata: 0xa2646970667358221220ab4679d84cd9234ee44982dee4981334962e8c9624cca88a46984a6dd9a9729864736f6c63430008070033\n}\n",
				"bytecode": {
					"linkReferences": {},
					"object": "6080604052600060045560006005553480156200001b57600080fd5b50604051620034b6380380620034b68339818101604052810190620000419190620004dc565b60016000819055506000600160006101000a81548160ff02191690831515021790555062000084620000786200013060201b60201c565b6200013860201b60201c565b62000097600a82620001fb60201b60201c565b60098190555083600260006101000a81548173ffffffffffffffffffffffffffffffffffffffff021916908373ffffffffffffffffffffffffffffffffffffffff16021790555082600360006101000a81548173ffffffffffffffffffffffffffffffffffffffff021916908373ffffffffffffffffffffffffffffffffffffffff160217905550816006819055505050505062000854565b600033905090565b600060018054906101000a900473ffffffffffffffffffffffffffffffffffffffff169050816001806101000a81548173ffffffffffffffffffffffffffffffffffffffff021916908373ffffffffffffffffffffffffffffffffffffffff1602179055508173ffffffffffffffffffffffffffffffffffffffff168173ffffffffffffffffffffffffffffffffffffffff167f8be0079c531659141344cd1fd0a4f28419497f9722a3daafe3b4186f6b6457e060405160405180910390a35050565b600080821415620002105760019050620002b5565b60018214156200022357829050620002b5565b6000620002518462000245600286620002bb60201b620016881790919060201c565b620001fb60201b60201c565b90506200026d81826200030d60201b620016d21790919060201c565b905060016200028c6002856200039160201b6200174d1790919060201c565b1415620002b057620002ad84826200030d60201b620016d21790919060201c565b90505b809150505b92915050565b60006200030583836040518060400160405280601a81526020017f536166654d6174683a206469766973696f6e206279207a65726f000000000000815250620003e360201b60201c565b905092915050565b6000808314156200032257600090506200038b565b6000828462000332919062000650565b905082848262000343919062000618565b1462000386576040517f08c379a00000000000000000000000000000000000000000000000000000000081526004016200037d90620005da565b60405180910390fd5b809150505b92915050565b6000620003db83836040518060400160405280601881526020017f536166654d6174683a206d6f64756c6f206279207a65726f00000000000000008152506200044b60201b60201c565b905092915050565b600080831182906200042d576040517f08c379a0000000000000000000000000000000000000000000000000000000008152600401620004249190620005b6565b60405180910390fd5b50600083856200043e919062000618565b9050809150509392505050565b600080831415829062000496576040517f08c379a00000000000000000000000000000000000000000000000000000000081526004016200048d9190620005b6565b60405180910390fd5b508284620004a5919062000725565b90509392505050565b600081519050620004bf8162000820565b92915050565b600081519050620004d6816200083a565b92915050565b60008060008060808587031215620004f957620004f8620007bb565b5b60006200050987828801620004ae565b94505060206200051c87828801620004ae565b93505060406200052f87828801620004c5565b92505060606200054287828801620004c5565b91505092959194509250565b60006200055b82620005fc565b62000567818562000607565b935062000579818560208601620006ef565b6200058481620007c0565b840191505092915050565b60006200059e60218362000607565b9150620005ab82620007d1565b604082019050919050565b60006020820190508181036000830152620005d281846200054e565b905092915050565b60006020820190508181036000830152620005f5816200058f565b9050919050565b600081519050919050565b600082825260208201905092915050565b60006200062582620006e5565b91506200063283620006e5565b9250826200064557620006446200078c565b5b828204905092915050565b60006200065d82620006e5565b91506200066a83620006e5565b9250817fffffffffffffffffffffffffffffffffffffffffffffffffffffffffffffffff0483118215151615620006a657620006a56200075d565b5b828202905092915050565b6000620006be82620006c5565b9050919050565b600073ffffffffffffffffffffffffffffffffffffffff82169050919050565b6000819050919050565b60005b838110156200070f578082015181840152602081019050620006f2565b838111156200071f576000848401525b50505050565b60006200073282620006e5565b91506200073f83620006e5565b9250826200075257620007516200078c565b5b828206905092915050565b7f4e487b7100000000000000000000000000000000000000000000000000000000600052601160045260246000fd5b7f4e487b7100000000000000000000000000000000000000000000000000000000600052601260045260246000fd5b600080fd5b6000601f19601f8301169050919050565b7f536166654d6174683a206d756c7469706c69636174696f6e206f766572666c6f60008201527f7700000000000000000000000000000000000000000000000000000000000000602082015250565b6200082b81620006b1565b81146200083757600080fd5b50565b6200084581620006e5565b81146200085157600080fd5b50565b612c5280620008646000396000f3fe608060405234801561001057600080fd5b50600436106101ce5760003560e01c80637b0a47ee11610104578063c8f33c91116100a2578063df136d6511610071578063df136d65146104fb578063e9fad8ee14610519578063ebe2b12b14610523578063f2fde38b14610541576101ce565b8063c8f33c9114610485578063cc1a378f146104a3578063cd3daf9d146104bf578063d1af0c7d146104dd576101ce565b80638b876347116100de5780638b876347146103fd5780638da5cb5b1461042d578063a694fc3a1461044b578063a85fe3b714610467576101ce565b80637b0a47ee146103a557806380faa57d146103c35780638980f11f146103e1576101ce565b80633c6b16ab1161017157806370a082311161014b57806370a082311461031d578063715018a61461034d57806372f702f3146103575780637ae2b5c714610375576101ce565b80633c6b16ab146102d95780633d18b912146102f55780635c975abb146102ff576101ce565b80631c1f78eb116101ad5780631c1f78eb146102515780632e1a7d4d1461026f5780632e4c697f1461028b578063386a9525146102bb576101ce565b80628cc262146101d35780630700037d1461020357806318160ddd14610233575b600080fd5b6101ed60048036038101906101e89190611ed7565b61055d565b6040516101fa9190612588565b60405180910390f35b61021d60048036038101906102189190611ed7565b610675565b60405161022a9190612588565b60405180910390f35b61023b61068d565b6040516102489190612588565b60405180910390f35b610259610697565b6040516102669190612588565b60405180910390f35b61028960048036038101906102849190611f71565b6106b5565b005b6102a560048036038101906102a09190611fcb565b61093b565b6040516102b29190612588565b60405180910390f35b6102c36109d2565b6040516102d09190612588565b60405180910390f35b6102f360048036038101906102ee9190611f71565b6109d8565b005b6102fd610cb6565b005b610307610edc565b6040516103149190612350565b60405180910390f35b61033760048036038101906103329190611ed7565b610ef3565b6040516103449190612588565b60405180910390f35b610355610f3c565b005b61035f610f50565b60405161036c919061236b565b60405180910390f35b61038f600480360381019061038a9190611fcb565b610f76565b60405161039c9190612588565b60405180910390f35b6103ad610f8f565b6040516103ba9190612588565b60405180910390f35b6103cb610f95565b6040516103d89190612588565b60405180910390f35b6103fb60048036038101906103f69190611f04565b610fa8565b005b61041760048036038101906104129190611ed7565b611145565b6040516104249190612588565b60405180910390f35b61043561115d565b60405161044291906122d5565b60405180910390f35b61046560048036038101906104609190611f71565b611185565b005b61046f61145d565b60405161047c9190612588565b60405180910390f35b61048d611463565b60405161049a9190612588565b60405180910390f35b6104bd60048036038101906104b89190611f71565b611469565b005b6104c76114f8565b6040516104d49190612588565b60405180910390f35b6104e5611580565b6040516104f2919061236b565b60405180910390f35b6105036115a6565b6040516105109190612588565b60405180910390f35b6105216115ac565b005b61052b6115fe565b6040516105389190612588565b60405180910390f35b61055b60048036038101906105569190611ed7565b611604565b005b600061066e600c60008473ffffffffffffffffffffffffffffffffffffffff1673ffffffffffffffffffffffffffffffffffffffff16815260200190815260200160002054610660600954610652610604600b60008973ffffffffffffffffffffffffffffffffffffffff1673ffffffffffffffffffffffffffffffffffffffff168152602001908152602001600020546105f66114f8565b61179790919063ffffffff16565b600e60008973ffffffffffffffffffffffffffffffffffffffff1673ffffffffffffffffffffffffffffffffffffffff168152602001908152602001600020546116d290919063ffffffff16565b61168890919063ffffffff16565b6117e190919063ffffffff16565b9050919050565b600c6020528060005260406000206000915090505481565b6000600d54905090565b60006106b06006546005546116d290919063ffffffff16565b905090565b6106bd61183f565b336106c66114f8565b6008819055506106d4610f95565b600781905550600073ffffffffffffffffffffffffffffffffffffffff168173ffffffffffffffffffffffffffffffffffffffff16146107a1576107178161055d565b600c60008373ffffffffffffffffffffffffffffffffffffffff1673ffffffffffffffffffffffffffffffffffffffff16815260200190815260200160002081905550600854600b60008373ffffffffffffffffffffffffffffffffffffffff1673ffffffffffffffffffffffffffffffffffffffff168152602001908152602001600020819055505b600082116107e4576040517f08c379a00000000000000000000000000000000000000000000000000000000081526004016107db90612488565b60405180910390fd5b6107f982600d5461179790919063ffffffff16565b600d8190555061085182600e60003373ffffffffffffffffffffffffffffffffffffffff1673ffffffffffffffffffffffffffffffffffffffff1681526020019081526020016000205461179790919063ffffffff16565b600e60003373ffffffffffffffffffffffffffffffffffffffff1673ffffffffffffffffffffffffffffffffffffffff168152602001908152602001600020819055506108e13383600360009054906101000a900473ffffffffffffffffffffffffffffffffffffffff1673ffffffffffffffffffffffffffffffffffffffff1661188f9092919063ffffffff16565b3373ffffffffffffffffffffffffffffffffffffffff167f7084f5476618d8e60b11ef0d7d3f06914655adb8793e28ff7f018d4c76d505d5836040516109279190612588565b60405180910390a250610938611915565b50565b60008082141561094e57600190506109cc565b600182141561095f578290506109cc565b600061097e8461097960028661168890919063ffffffff16565b61093b565b905061099381826116d290919063ffffffff16565b905060016109ab60028561174d90919063ffffffff16565b14156109c7576109c484826116d290919063ffffffff16565b90505b809150505b92915050565b60065481565b6109e061191f565b60006109ea6114f8565b6008819055506109f8610f95565b600781905550600073ffffffffffffffffffffffffffffffffffffffff168173ffffffffffffffffffffffffffffffffffffffff1614610ac557610a3b8161055d565b600c60008373ffffffffffffffffffffffffffffffffffffffff1673ffffffffffffffffffffffffffffffffffffffff16815260200190815260200160002081905550600854600b60008373ffffffffffffffffffffffffffffffffffffffff1673ffffffffffffffffffffffffffffffffffffffff168152602001908152602001600020819055505b6004544210610aee57610ae36006548361168890919063ffffffff16565b600581905550610b50565b6000610b054260045461179790919063ffffffff16565b90506000610b1e600554836116d290919063ffffffff16565b9050610b47600654610b3983876117e190919063ffffffff16565b61168890919063ffffffff16565b60058190555050505b6000600260009054906101000a900473ffffffffffffffffffffffffffffffffffffffff1673ffffffffffffffffffffffffffffffffffffffff166370a08231306040518263ffffffff1660e01b8152600401610bad91906122d5565b60206040518083038186803b158015610bc557600080fd5b505afa158015610bd9573d6000803e3d6000fd5b505050506040513d601f19601f82011682018060405250810190610bfd9190611f9e565b9050610c146006548261168890919063ffffffff16565b6005541115610c58576040517f08c379a0000000000000000000000000000000000000000000000000000000008152600401610c4f90612508565b60405180910390fd5b42600781905550610c74600654426117e190919063ffffffff16565b6004819055507fde88a922e0d3b88b24e9623efeb464919c6bf9f66857a65e2bfcf2ce87a9433d83604051610ca99190612588565b60405180910390a1505050565b610cbe61183f565b33610cc76114f8565b600881905550610cd5610f95565b600781905550600073ffffffffffffffffffffffffffffffffffffffff168173ffffffffffffffffffffffffffffffffffffffff1614610da257610d188161055d565b600c60008373ffffffffffffffffffffffffffffffffffffffff1673ffffffffffffffffffffffffffffffffffffffff16815260200190815260200160002081905550600854600b60008373ffffffffffffffffffffffffffffffffffffffff1673ffffffffffffffffffffffffffffffffffffffff168152602001908152602001600020819055505b6000600c60003373ffffffffffffffffffffffffffffffffffffffff1673ffffffffffffffffffffffffffffffffffffffff1681526020019081526020016000205490506000811115610ed0576000600c60003373ffffffffffffffffffffffffffffffffffffffff1673ffffffffffffffffffffffffffffffffffffffff16815260200190815260200160002081905550610e813382600260009054906101000a900473ffffffffffffffffffffffffffffffffffffffff1673ffffffffffffffffffffffffffffffffffffffff1661188f9092919063ffffffff16565b3373ffffffffffffffffffffffffffffffffffffffff167fe2403640ba68fed3a2f88b7557551d1993f84b99bb10ff833f0cf8db0c5e048682604051610ec79190612588565b60405180910390a25b5050610eda611915565b565b6000600160009054906101000a900460ff16905090565b6000600e60008373ffffffffffffffffffffffffffffffffffffffff1673ffffffffffffffffffffffffffffffffffffffff168152602001908152602001600020549050919050565b610f4461191f565b610f4e600061199d565b565b600360009054906101000a900473ffffffffffffffffffffffffffffffffffffffff1681565b6000818310610f855781610f87565b825b905092915050565b60055481565b6000610fa342600454610f76565b905090565b610fb061191f565b600260009054906101000a900473ffffffffffffffffffffffffffffffffffffffff1673ffffffffffffffffffffffffffffffffffffffff168273ffffffffffffffffffffffffffffffffffffffff161415611041576040517f08c379a000000000000000000000000000000000000000000000000000000000815260040161103890612428565b60405180910390fd5b6000600d54146110dd57600360009054906101000a900473ffffffffffffffffffffffffffffffffffffffff1673ffffffffffffffffffffffffffffffffffffffff168273ffffffffffffffffffffffffffffffffffffffff1614156110dc576040517f08c379a00000000000000000000000000000000000000000000000000000000081526004016110d3906124e8565b60405180910390fd5b5b61110833828473ffffffffffffffffffffffffffffffffffffffff1661188f9092919063ffffffff16565b7f8c1256b8896378cd5044f80c202f9772b9d77dc85c8a6eb51967210b09bfaa288282604051611139929190612327565b60405180910390a15050565b600b6020528060005260406000206000915090505481565b600060018054906101000a900473ffffffffffffffffffffffffffffffffffffffff16905090565b61118d61183f565b600160009054906101000a900460ff16156111dd576040517f08c379a00000000000000000000000000000000000000000000000000000000081526004016111d490612468565b60405180910390fd5b336111e66114f8565b6008819055506111f4610f95565b600781905550600073ffffffffffffffffffffffffffffffffffffffff168173ffffffffffffffffffffffffffffffffffffffff16146112c1576112378161055d565b600c60008373ffffffffffffffffffffffffffffffffffffffff1673ffffffffffffffffffffffffffffffffffffffff16815260200190815260200160002081905550600854600b60008373ffffffffffffffffffffffffffffffffffffffff1673ffffffffffffffffffffffffffffffffffffffff168152602001908152602001600020819055505b60008211611304576040517f08c379a00000000000000000000000000000000000000000000000000000000081526004016112fb906123e8565b60405180910390fd5b61131982600d546117e190919063ffffffff16565b600d8190555061137182600e60003373ffffffffffffffffffffffffffffffffffffffff1673ffffffffffffffffffffffffffffffffffffffff168152602001908152602001600020546117e190919063ffffffff16565b600e60003373ffffffffffffffffffffffffffffffffffffffff1673ffffffffffffffffffffffffffffffffffffffff16815260200190815260200160002081905550611403333084600360009054906101000a900473ffffffffffffffffffffffffffffffffffffffff1673ffffffffffffffffffffffffffffffffffffffff16611a60909392919063ffffffff16565b3373ffffffffffffffffffffffffffffffffffffffff167f9e71bc8eea02a63969f509818f2dafb9254532904319f9dbda79b67bd34a5f3d836040516114499190612588565b60405180910390a25061145a611915565b50565b60095481565b60075481565b61147161191f565b60045442116114b5576040517f08c379a00000000000000000000000000000000000000000000000000000000081526004016114ac906123a8565b60405180910390fd5b806006819055507ffb46ca5a5e06d4540d6387b930a7c978bce0db5f449ec6b3f5d07c6e1d44f2d36006546040516114ed9190612588565b60405180910390a150565b600080600d54141561150e57600854905061157d565b61157a611569600d5461155b60095461154d60055461153f600754611531610f95565b61179790919063ffffffff16565b6116d290919063ffffffff16565b6116d290919063ffffffff16565b61168890919063ffffffff16565b6008546117e190919063ffffffff16565b90505b90565b600260009054906101000a900473ffffffffffffffffffffffffffffffffffffffff1681565b60085481565b6115f4600e60003373ffffffffffffffffffffffffffffffffffffffff1673ffffffffffffffffffffffffffffffffffffffff168152602001908152602001600020546106b5565b6115fc610cb6565b565b60045481565b61160c61191f565b600073ffffffffffffffffffffffffffffffffffffffff168173ffffffffffffffffffffffffffffffffffffffff16141561167c576040517f08c379a0000000000000000000000000000000000000000000000000000000008152600401611673906123c8565b60405180910390fd5b6116858161199d565b50565b60006116ca83836040518060400160405280601a81526020017f536166654d6174683a206469766973696f6e206279207a65726f000000000000815250611ae9565b905092915050565b6000808314156116e55760009050611747565b600082846116f3919061265c565b9050828482611702919061262b565b14611742576040517f08c379a0000000000000000000000000000000000000000000000000000000008152600401611739906124a8565b60405180910390fd5b809150505b92915050565b600061178f83836040518060400160405280601881526020017f536166654d6174683a206d6f64756c6f206279207a65726f0000000000000000815250611b4c565b905092915050565b60006117d983836040518060400160405280601e81526020017f536166654d6174683a207375627472616374696f6e206f766572666c6f770000815250611baa565b905092915050565b60008082846117f091906125d5565b905083811015611835576040517f08c379a000000000000000000000000000000000000000000000000000000000815260040161182c90612408565b60405180910390fd5b8091505092915050565b60026000541415611885576040517f08c379a000000000000000000000000000000000000000000000000000000000815260040161187c90612568565b60405180910390fd5b6002600081905550565b6119108363a9059cbb60e01b84846040516024016118ae929190612327565b604051602081830303815290604052907bffffffffffffffffffffffffffffffffffffffffffffffffffffffff19166020820180517bffffffffffffffffffffffffffffffffffffffffffffffffffffffff8381831617835250505050611c0e565b505050565b6001600081905550565b611927611cd5565b73ffffffffffffffffffffffffffffffffffffffff1661194561115d565b73ffffffffffffffffffffffffffffffffffffffff161461199b576040517f08c379a0000000000000000000000000000000000000000000000000000000008152600401611992906124c8565b60405180910390fd5b565b600060018054906101000a900473ffffffffffffffffffffffffffffffffffffffff169050816001806101000a81548173ffffffffffffffffffffffffffffffffffffffff021916908373ffffffffffffffffffffffffffffffffffffffff1602179055508173ffffffffffffffffffffffffffffffffffffffff168173ffffffffffffffffffffffffffffffffffffffff167f8be0079c531659141344cd1fd0a4f28419497f9722a3daafe3b4186f6b6457e060405160405180910390a35050565b611ae3846323b872dd60e01b858585604051602401611a81939291906122f0565b604051602081830303815290604052907bffffffffffffffffffffffffffffffffffffffffffffffffffffffff19166020820180517bffffffffffffffffffffffffffffffffffffffffffffffffffffffff8381831617835250505050611c0e565b50505050565b60008083118290611b30576040517f08c379a0000000000000000000000000000000000000000000000000000000008152600401611b279190612386565b60405180910390fd5b5060008385611b3f919061262b565b9050809150509392505050565b6000808314158290611b94576040517f08c379a0000000000000000000000000000000000000000000000000000000008152600401611b8b9190612386565b60405180910390fd5b508284611ba1919061279b565b90509392505050565b6000838311158290611bf2576040517f08c379a0000000000000000000000000000000000000000000000000000000008152600401611be99190612386565b60405180910390fd5b5060008385611c0191906126b6565b9050809150509392505050565b6000611c70826040518060400160405280602081526020017f5361666545524332303a206c6f772d6c6576656c2063616c6c206661696c65648152508573ffffffffffffffffffffffffffffffffffffffff16611cdd9092919063ffffffff16565b9050600081511115611cd05780806020019051810190611c909190611f44565b611ccf576040517f08c379a0000000000000000000000000000000000000000000000000000000008152600401611cc690612548565b60405180910390fd5b5b505050565b600033905090565b6060611cec8484600085611cf5565b90509392505050565b606082471015611d3a576040517f08c379a0000000000000000000000000000000000000000000000000000000008152600401611d3190612448565b60405180910390fd5b611d4385611e09565b611d82576040517f08c379a0000000000000000000000000000000000000000000000000000000008152600401611d7990612528565b60405180910390fd5b6000808673ffffffffffffffffffffffffffffffffffffffff168587604051611dab91906122be565b60006040518083038185875af1925050503d8060008114611de8576040519150601f19603f3d011682016040523d82523d6000602084013e611ded565b606091505b5091509150611dfd828286611e1c565b92505050949350505050565b600080823b905060008111915050919050565b60608315611e2c57829050611e7c565b600083511115611e3f5782518084602001fd5b816040517f08c379a0000000000000000000000000000000000000000000000000000000008152600401611e739190612386565b60405180910390fd5b9392505050565b600081359050611e9281612bd7565b92915050565b600081519050611ea781612bee565b92915050565b600081359050611ebc81612c05565b92915050565b600081519050611ed181612c05565b92915050565b600060208284031215611eed57611eec61282a565b5b6000611efb84828501611e83565b91505092915050565b60008060408385031215611f1b57611f1a61282a565b5b6000611f2985828601611e83565b9250506020611f3a85828601611ead565b9150509250929050565b600060208284031215611f5a57611f5961282a565b5b6000611f6884828501611e98565b91505092915050565b600060208284031215611f8757611f8661282a565b5b6000611f9584828501611ead565b91505092915050565b600060208284031215611fb457611fb361282a565b5b6000611fc284828501611ec2565b91505092915050565b60008060408385031215611fe257611fe161282a565b5b6000611ff085828601611ead565b925050602061200185828601611ead565b9150509250929050565b612014816126ea565b82525050565b612023816126fc565b82525050565b6000612034826125a3565b61203e81856125b9565b935061204e818560208601612768565b80840191505092915050565b61206381612732565b82525050565b6000612074826125ae565b61207e81856125c4565b935061208e818560208601612768565b6120978161282f565b840191505092915050565b60006120af6058836125c4565b91506120ba82612840565b606082019050919050565b60006120d26026836125c4565b91506120dd826128b5565b604082019050919050565b60006120f5600e836125c4565b915061210082612904565b602082019050919050565b6000612118601b836125c4565b91506121238261292d565b602082019050919050565b600061213b6022836125c4565b915061214682612956565b604082019050919050565b600061215e6026836125c4565b9150612169826129a5565b604082019050919050565b60006121816010836125c4565b915061218c826129f4565b602082019050919050565b60006121a46011836125c4565b91506121af82612a1d565b602082019050919050565b60006121c76021836125c4565b91506121d282612a46565b604082019050919050565b60006121ea6020836125c4565b91506121f582612a95565b602082019050919050565b600061220d6022836125c4565b915061221882612abe565b604082019050919050565b60006122306018836125c4565b915061223b82612b0d565b602082019050919050565b6000612253601d836125c4565b915061225e82612b36565b602082019050919050565b6000612276602a836125c4565b915061228182612b5f565b604082019050919050565b6000612299601f836125c4565b91506122a482612bae565b602082019050919050565b6122b881612728565b82525050565b60006122ca8284612029565b915081905092915050565b60006020820190506122ea600083018461200b565b92915050565b6000606082019050612305600083018661200b565b612312602083018561200b565b61231f60408301846122af565b949350505050565b600060408201905061233c600083018561200b565b61234960208301846122af565b9392505050565b6000602082019050612365600083018461201a565b92915050565b6000602082019050612380600083018461205a565b92915050565b600060208201905081810360008301526123a08184612069565b905092915050565b600060208201905081810360008301526123c1816120a2565b9050919050565b600060208201905081810360008301526123e1816120c5565b9050919050565b60006020820190508181036000830152612401816120e8565b9050919050565b600060208201905081810360008301526124218161210b565b9050919050565b600060208201905081810360008301526124418161212e565b9050919050565b6000602082019050818103600083015261246181612151565b9050919050565b6000602082019050818103600083015261248181612174565b9050919050565b600060208201905081810360008301526124a181612197565b9050919050565b600060208201905081810360008301526124c1816121ba565b9050919050565b600060208201905081810360008301526124e1816121dd565b9050919050565b6000602082019050818103600083015261250181612200565b9050919050565b6000602082019050818103600083015261252181612223565b9050919050565b6000602082019050818103600083015261254181612246565b9050919050565b6000602082019050818103600083015261256181612269565b9050919050565b600060208201905081810360008301526125818161228c565b9050919050565b600060208201905061259d60008301846122af565b92915050565b600081519050919050565b600081519050919050565b600081905092915050565b600082825260208201905092915050565b60006125e082612728565b91506125eb83612728565b9250827fffffffffffffffffffffffffffffffffffffffffffffffffffffffffffffffff038211156126205761261f6127cc565b5b828201905092915050565b600061263682612728565b915061264183612728565b925082612651576126506127fb565b5b828204905092915050565b600061266782612728565b915061267283612728565b9250817fffffffffffffffffffffffffffffffffffffffffffffffffffffffffffffffff04831182151516156126ab576126aa6127cc565b5b828202905092915050565b60006126c182612728565b91506126cc83612728565b9250828210156126df576126de6127cc565b5b828203905092915050565b60006126f582612708565b9050919050565b60008115159050919050565b600073ffffffffffffffffffffffffffffffffffffffff82169050919050565b6000819050919050565b600061273d82612744565b9050919050565b600061274f82612756565b9050919050565b600061276182612708565b9050919050565b60005b8381101561278657808201518184015260208101905061276b565b83811115612795576000848401525b50505050565b60006127a682612728565b91506127b183612728565b9250826127c1576127c06127fb565b5b828206905092915050565b7f4e487b7100000000000000000000000000000000000000000000000000000000600052601160045260246000fd5b7f4e487b7100000000000000000000000000000000000000000000000000000000600052601260045260246000fd5b600080fd5b6000601f19601f8301169050919050565b7f50726576696f7573207265776172647320706572696f64206d7573742062652060008201527f636f6d706c657465206265666f7265206368616e67696e67207468652064757260208201527f6174696f6e20666f7220746865206e657720706572696f640000000000000000604082015250565b7f4f776e61626c653a206e6577206f776e657220697320746865207a65726f206160008201527f6464726573730000000000000000000000000000000000000000000000000000602082015250565b7f43616e6e6f74207374616b652030000000000000000000000000000000000000600082015250565b7f536166654d6174683a206164646974696f6e206f766572666c6f770000000000600082015250565b7f43616e6e6f7420776974686472617720746865207265776172647320746f6b6560008201527f6e73000000000000000000000000000000000000000000000000000000000000602082015250565b7f416464726573733a20696e73756666696369656e742062616c616e636520666f60008201527f722063616c6c0000000000000000000000000000000000000000000000000000602082015250565b7f5061757361626c653a2070617573656400000000000000000000000000000000600082015250565b7f43616e6e6f742077697468647261772030000000000000000000000000000000600082015250565b7f536166654d6174683a206d756c7469706c69636174696f6e206f766572666c6f60008201527f7700000000000000000000000000000000000000000000000000000000000000602082015250565b7f4f776e61626c653a2063616c6c6572206973206e6f7420746865206f776e6572600082015250565b7f43616e6e6f7420776974686472617720746865207374616b696e6720746f6b6560008201527f6e73000000000000000000000000000000000000000000000000000000000000602082015250565b7f50726f76696465642072657761726420746f6f20686967680000000000000000600082015250565b7f416464726573733a2063616c6c20746f206e6f6e2d636f6e7472616374000000600082015250565b7f5361666545524332303a204552433230206f7065726174696f6e20646964206e60008201527f6f74207375636365656400000000000000000000000000000000000000000000602082015250565b7f5265656e7472616e637947756172643a207265656e7472616e742063616c6c00600082015250565b612be0816126ea565b8114612beb57600080fd5b50565b612bf7816126fc565b8114612c0257600080fd5b50565b612c0e81612728565b8114612c1957600080fd5b5056fea2646970667358221220ab4679d84cd9234ee44982dee4981334962e8c9624cca88a46984a6dd9a9729864736f6c63430008070033",
					"opcodes": "PUSH1 0x80 PUSH1 0x40 MSTORE PUSH1 0x0 PUSH1 0x4 SSTORE PUSH1 0x0 PUSH1 0x5 SSTORE CALLVALUE DUP1 ISZERO PUSH3 0x1B JUMPI PUSH1 0x0 DUP1 REVERT JUMPDEST POP PUSH1 0x40 MLOAD PUSH3 0x34B6 CODESIZE SUB DUP1 PUSH3 0x34B6 DUP4 CODECOPY DUP2 DUP2 ADD PUSH1 0x40 MSTORE DUP2 ADD SWAP1 PUSH3 0x41 SWAP2 SWAP1 PUSH3 0x4DC JUMP JUMPDEST PUSH1 0x1 PUSH1 0x0 DUP2 SWAP1 SSTORE POP PUSH1 0x0 PUSH1 0x1 PUSH1 0x0 PUSH2 0x100 EXP DUP2 SLOAD DUP2 PUSH1 0xFF MUL NOT AND SWAP1 DUP4 ISZERO ISZERO MUL OR SWAP1 SSTORE POP PUSH3 0x84 PUSH3 0x78 PUSH3 0x130 PUSH1 0x20 SHL PUSH1 0x20 SHR JUMP JUMPDEST PUSH3 0x138 PUSH1 0x20 SHL PUSH1 0x20 SHR JUMP JUMPDEST PUSH3 0x97 PUSH1 0xA DUP3 PUSH3 0x1FB PUSH1 0x20 SHL PUSH1 0x20 SHR JUMP JUMPDEST PUSH1 0x9 DUP2 SWAP1 SSTORE POP DUP4 PUSH1 0x2 PUSH1 0x0 PUSH2 0x100 EXP DUP2 SLOAD DUP2 PUSH20 0xFFFFFFFFFFFFFFFFFFFFFFFFFFFFFFFFFFFFFFFF MUL NOT AND SWAP1 DUP4 PUSH20 0xFFFFFFFFFFFFFFFFFFFFFFFFFFFFFFFFFFFFFFFF AND MUL OR SWAP1 SSTORE POP DUP3 PUSH1 0x3 PUSH1 0x0 PUSH2 0x100 EXP DUP2 SLOAD DUP2 PUSH20 0xFFFFFFFFFFFFFFFFFFFFFFFFFFFFFFFFFFFFFFFF MUL NOT AND SWAP1 DUP4 PUSH20 0xFFFFFFFFFFFFFFFFFFFFFFFFFFFFFFFFFFFFFFFF AND MUL OR SWAP1 SSTORE POP DUP2 PUSH1 0x6 DUP2 SWAP1 SSTORE POP POP POP POP POP PUSH3 0x854 JUMP JUMPDEST PUSH1 0x0 CALLER SWAP1 POP SWAP1 JUMP JUMPDEST PUSH1 0x0 PUSH1 0x1 DUP1 SLOAD SWAP1 PUSH2 0x100 EXP SWAP1 DIV PUSH20 0xFFFFFFFFFFFFFFFFFFFFFFFFFFFFFFFFFFFFFFFF AND SWAP1 POP DUP2 PUSH1 0x1 DUP1 PUSH2 0x100 EXP DUP2 SLOAD DUP2 PUSH20 0xFFFFFFFFFFFFFFFFFFFFFFFFFFFFFFFFFFFFFFFF MUL NOT AND SWAP1 DUP4 PUSH20 0xFFFFFFFFFFFFFFFFFFFFFFFFFFFFFFFFFFFFFFFF AND MUL OR SWAP1 SSTORE POP DUP2 PUSH20 0xFFFFFFFFFFFFFFFFFFFFFFFFFFFFFFFFFFFFFFFF AND DUP2 PUSH20 0xFFFFFFFFFFFFFFFFFFFFFFFFFFFFFFFFFFFFFFFF AND PUSH32 0x8BE0079C531659141344CD1FD0A4F28419497F9722A3DAAFE3B4186F6B6457E0 PUSH1 0x40 MLOAD PUSH1 0x40 MLOAD DUP1 SWAP2 SUB SWAP1 LOG3 POP POP JUMP JUMPDEST PUSH1 0x0 DUP1 DUP3 EQ ISZERO PUSH3 0x210 JUMPI PUSH1 0x1 SWAP1 POP PUSH3 0x2B5 JUMP JUMPDEST PUSH1 0x1 DUP3 EQ ISZERO PUSH3 0x223 JUMPI DUP3 SWAP1 POP PUSH3 0x2B5 JUMP JUMPDEST PUSH1 0x0 PUSH3 0x251 DUP5 PUSH3 0x245 PUSH1 0x2 DUP7 PUSH3 0x2BB PUSH1 0x20 SHL PUSH3 0x1688 OR SWAP1 SWAP2 SWAP1 PUSH1 0x20 SHR JUMP JUMPDEST PUSH3 0x1FB PUSH1 0x20 SHL PUSH1 0x20 SHR JUMP JUMPDEST SWAP1 POP PUSH3 0x26D DUP2 DUP3 PUSH3 0x30D PUSH1 0x20 SHL PUSH3 0x16D2 OR SWAP1 SWAP2 SWAP1 PUSH1 0x20 SHR JUMP JUMPDEST SWAP1 POP PUSH1 0x1 PUSH3 0x28C PUSH1 0x2 DUP6 PUSH3 0x391 PUSH1 0x20 SHL PUSH3 0x174D OR SWAP1 SWAP2 SWAP1 PUSH1 0x20 SHR JUMP JUMPDEST EQ ISZERO PUSH3 0x2B0 JUMPI PUSH3 0x2AD DUP5 DUP3 PUSH3 0x30D PUSH1 0x20 SHL PUSH3 0x16D2 OR SWAP1 SWAP2 SWAP1 PUSH1 0x20 SHR JUMP JUMPDEST SWAP1 POP JUMPDEST DUP1 SWAP2 POP POP JUMPDEST SWAP3 SWAP2 POP POP JUMP JUMPDEST PUSH1 0x0 PUSH3 0x305 DUP4 DUP4 PUSH1 0x40 MLOAD DUP1 PUSH1 0x40 ADD PUSH1 0x40 MSTORE DUP1 PUSH1 0x1A DUP2 MSTORE PUSH1 0x20 ADD PUSH32 0x536166654D6174683A206469766973696F6E206279207A65726F000000000000 DUP2 MSTORE POP PUSH3 0x3E3 PUSH1 0x20 SHL PUSH1 0x20 SHR JUMP JUMPDEST SWAP1 POP SWAP3 SWAP2 POP POP JUMP JUMPDEST PUSH1 0x0 DUP1 DUP4 EQ ISZERO PUSH3 0x322 JUMPI PUSH1 0x0 SWAP1 POP PUSH3 0x38B JUMP JUMPDEST PUSH1 0x0 DUP3 DUP5 PUSH3 0x332 SWAP2 SWAP1 PUSH3 0x650 JUMP JUMPDEST SWAP1 POP DUP3 DUP5 DUP3 PUSH3 0x343 SWAP2 SWAP1 PUSH3 0x618 JUMP JUMPDEST EQ PUSH3 0x386 JUMPI PUSH1 0x40 MLOAD PUSH32 0x8C379A000000000000000000000000000000000000000000000000000000000 DUP2 MSTORE PUSH1 0x4 ADD PUSH3 0x37D SWAP1 PUSH3 0x5DA JUMP JUMPDEST PUSH1 0x40 MLOAD DUP1 SWAP2 SUB SWAP1 REVERT JUMPDEST DUP1 SWAP2 POP POP JUMPDEST SWAP3 SWAP2 POP POP JUMP JUMPDEST PUSH1 0x0 PUSH3 0x3DB DUP4 DUP4 PUSH1 0x40 MLOAD DUP1 PUSH1 0x40 ADD PUSH1 0x40 MSTORE DUP1 PUSH1 0x18 DUP2 MSTORE PUSH1 0x20 ADD PUSH32 0x536166654D6174683A206D6F64756C6F206279207A65726F0000000000000000 DUP2 MSTORE POP PUSH3 0x44B PUSH1 0x20 SHL PUSH1 0x20 SHR JUMP JUMPDEST SWAP1 POP SWAP3 SWAP2 POP POP JUMP JUMPDEST PUSH1 0x0 DUP1 DUP4 GT DUP3 SWAP1 PUSH3 0x42D JUMPI PUSH1 0x40 MLOAD PUSH32 0x8C379A000000000000000000000000000000000000000000000000000000000 DUP2 MSTORE PUSH1 0x4 ADD PUSH3 0x424 SWAP2 SWAP1 PUSH3 0x5B6 JUMP JUMPDEST PUSH1 0x40 MLOAD DUP1 SWAP2 SUB SWAP1 REVERT JUMPDEST POP PUSH1 0x0 DUP4 DUP6 PUSH3 0x43E SWAP2 SWAP1 PUSH3 0x618 JUMP JUMPDEST SWAP1 POP DUP1 SWAP2 POP POP SWAP4 SWAP3 POP POP POP JUMP JUMPDEST PUSH1 0x0 DUP1 DUP4 EQ ISZERO DUP3 SWAP1 PUSH3 0x496 JUMPI PUSH1 0x40 MLOAD PUSH32 0x8C379A000000000000000000000000000000000000000000000000000000000 DUP2 MSTORE PUSH1 0x4 ADD PUSH3 0x48D SWAP2 SWAP1 PUSH3 0x5B6 JUMP JUMPDEST PUSH1 0x40 MLOAD DUP1 SWAP2 SUB SWAP1 REVERT JUMPDEST POP DUP3 DUP5 PUSH3 0x4A5 SWAP2 SWAP1 PUSH3 0x725 JUMP JUMPDEST SWAP1 POP SWAP4 SWAP3 POP POP POP JUMP JUMPDEST PUSH1 0x0 DUP2 MLOAD SWAP1 POP PUSH3 0x4BF DUP2 PUSH3 0x820 JUMP JUMPDEST SWAP3 SWAP2 POP POP JUMP JUMPDEST PUSH1 0x0 DUP2 MLOAD SWAP1 POP PUSH3 0x4D6 DUP2 PUSH3 0x83A JUMP JUMPDEST SWAP3 SWAP2 POP POP JUMP JUMPDEST PUSH1 0x0 DUP1 PUSH1 0x0 DUP1 PUSH1 0x80 DUP6 DUP8 SUB SLT ISZERO PUSH3 0x4F9 JUMPI PUSH3 0x4F8 PUSH3 0x7BB JUMP JUMPDEST JUMPDEST PUSH1 0x0 PUSH3 0x509 DUP8 DUP3 DUP9 ADD PUSH3 0x4AE JUMP JUMPDEST SWAP5 POP POP PUSH1 0x20 PUSH3 0x51C DUP8 DUP3 DUP9 ADD PUSH3 0x4AE JUMP JUMPDEST SWAP4 POP POP PUSH1 0x40 PUSH3 0x52F DUP8 DUP3 DUP9 ADD PUSH3 0x4C5 JUMP JUMPDEST SWAP3 POP POP PUSH1 0x60 PUSH3 0x542 DUP8 DUP3 DUP9 ADD PUSH3 0x4C5 JUMP JUMPDEST SWAP2 POP POP SWAP3 SWAP6 SWAP2 SWAP5 POP SWAP3 POP JUMP JUMPDEST PUSH1 0x0 PUSH3 0x55B DUP3 PUSH3 0x5FC JUMP JUMPDEST PUSH3 0x567 DUP2 DUP6 PUSH3 0x607 JUMP JUMPDEST SWAP4 POP PUSH3 0x579 DUP2 DUP6 PUSH1 0x20 DUP7 ADD PUSH3 0x6EF JUMP JUMPDEST PUSH3 0x584 DUP2 PUSH3 0x7C0 JUMP JUMPDEST DUP5 ADD SWAP2 POP POP SWAP3 SWAP2 POP POP JUMP JUMPDEST PUSH1 0x0 PUSH3 0x59E PUSH1 0x21 DUP4 PUSH3 0x607 JUMP JUMPDEST SWAP2 POP PUSH3 0x5AB DUP3 PUSH3 0x7D1 JUMP JUMPDEST PUSH1 0x40 DUP3 ADD SWAP1 POP SWAP2 SWAP1 POP JUMP JUMPDEST PUSH1 0x0 PUSH1 0x20 DUP3 ADD SWAP1 POP DUP2 DUP2 SUB PUSH1 0x0 DUP4 ADD MSTORE PUSH3 0x5D2 DUP2 DUP5 PUSH3 0x54E JUMP JUMPDEST SWAP1 POP SWAP3 SWAP2 POP POP JUMP JUMPDEST PUSH1 0x0 PUSH1 0x20 DUP3 ADD SWAP1 POP DUP2 DUP2 SUB PUSH1 0x0 DUP4 ADD MSTORE PUSH3 0x5F5 DUP2 PUSH3 0x58F JUMP JUMPDEST SWAP1 POP SWAP2 SWAP1 POP JUMP JUMPDEST PUSH1 0x0 DUP2 MLOAD SWAP1 POP SWAP2 SWAP1 POP JUMP JUMPDEST PUSH1 0x0 DUP3 DUP3 MSTORE PUSH1 0x20 DUP3 ADD SWAP1 POP SWAP3 SWAP2 POP POP JUMP JUMPDEST PUSH1 0x0 PUSH3 0x625 DUP3 PUSH3 0x6E5 JUMP JUMPDEST SWAP2 POP PUSH3 0x632 DUP4 PUSH3 0x6E5 JUMP JUMPDEST SWAP3 POP DUP3 PUSH3 0x645 JUMPI PUSH3 0x644 PUSH3 0x78C JUMP JUMPDEST JUMPDEST DUP3 DUP3 DIV SWAP1 POP SWAP3 SWAP2 POP POP JUMP JUMPDEST PUSH1 0x0 PUSH3 0x65D DUP3 PUSH3 0x6E5 JUMP JUMPDEST SWAP2 POP PUSH3 0x66A DUP4 PUSH3 0x6E5 JUMP JUMPDEST SWAP3 POP DUP2 PUSH32 0xFFFFFFFFFFFFFFFFFFFFFFFFFFFFFFFFFFFFFFFFFFFFFFFFFFFFFFFFFFFFFFFF DIV DUP4 GT DUP3 ISZERO ISZERO AND ISZERO PUSH3 0x6A6 JUMPI PUSH3 0x6A5 PUSH3 0x75D JUMP JUMPDEST JUMPDEST DUP3 DUP3 MUL SWAP1 POP SWAP3 SWAP2 POP POP JUMP JUMPDEST PUSH1 0x0 PUSH3 0x6BE DUP3 PUSH3 0x6C5 JUMP JUMPDEST SWAP1 POP SWAP2 SWAP1 POP JUMP JUMPDEST PUSH1 0x0 PUSH20 0xFFFFFFFFFFFFFFFFFFFFFFFFFFFFFFFFFFFFFFFF DUP3 AND SWAP1 POP SWAP2 SWAP1 POP JUMP JUMPDEST PUSH1 0x0 DUP2 SWAP1 POP SWAP2 SWAP1 POP JUMP JUMPDEST PUSH1 0x0 JUMPDEST DUP4 DUP2 LT ISZERO PUSH3 0x70F JUMPI DUP1 DUP3 ADD MLOAD DUP2 DUP5 ADD MSTORE PUSH1 0x20 DUP2 ADD SWAP1 POP PUSH3 0x6F2 JUMP JUMPDEST DUP4 DUP2 GT ISZERO PUSH3 0x71F JUMPI PUSH1 0x0 DUP5 DUP5 ADD MSTORE JUMPDEST POP POP POP POP JUMP JUMPDEST PUSH1 0x0 PUSH3 0x732 DUP3 PUSH3 0x6E5 JUMP JUMPDEST SWAP2 POP PUSH3 0x73F DUP4 PUSH3 0x6E5 JUMP JUMPDEST SWAP3 POP DUP3 PUSH3 0x752 JUMPI PUSH3 0x751 PUSH3 0x78C JUMP JUMPDEST JUMPDEST DUP3 DUP3 MOD SWAP1 POP SWAP3 SWAP2 POP POP JUMP JUMPDEST PUSH32 0x4E487B7100000000000000000000000000000000000000000000000000000000 PUSH1 0x0 MSTORE PUSH1 0x11 PUSH1 0x4 MSTORE PUSH1 0x24 PUSH1 0x0 REVERT JUMPDEST PUSH32 0x4E487B7100000000000000000000000000000000000000000000000000000000 PUSH1 0x0 MSTORE PUSH1 0x12 PUSH1 0x4 MSTORE PUSH1 0x24 PUSH1 0x0 REVERT JUMPDEST PUSH1 0x0 DUP1 REVERT JUMPDEST PUSH1 0x0 PUSH1 0x1F NOT PUSH1 0x1F DUP4 ADD AND SWAP1 POP SWAP2 SWAP1 POP JUMP JUMPDEST PUSH32 0x536166654D6174683A206D756C7469706C69636174696F6E206F766572666C6F PUSH1 0x0 DUP3 ADD MSTORE PUSH32 0x7700000000000000000000000000000000000000000000000000000000000000 PUSH1 0x20 DUP3 ADD MSTORE POP JUMP JUMPDEST PUSH3 0x82B DUP2 PUSH3 0x6B1 JUMP JUMPDEST DUP2 EQ PUSH3 0x837 JUMPI PUSH1 0x0 DUP1 REVERT JUMPDEST POP JUMP JUMPDEST PUSH3 0x845 DUP2 PUSH3 0x6E5 JUMP JUMPDEST DUP2 EQ PUSH3 0x851 JUMPI PUSH1 0x0 DUP1 REVERT JUMPDEST POP JUMP JUMPDEST PUSH2 0x2C52 DUP1 PUSH3 0x864 PUSH1 0x0 CODECOPY PUSH1 0x0 RETURN INVALID PUSH1 0x80 PUSH1 0x40 MSTORE CALLVALUE DUP1 ISZERO PUSH2 0x10 JUMPI PUSH1 0x0 DUP1 REVERT JUMPDEST POP PUSH1 0x4 CALLDATASIZE LT PUSH2 0x1CE JUMPI PUSH1 0x0 CALLDATALOAD PUSH1 0xE0 SHR DUP1 PUSH4 0x7B0A47EE GT PUSH2 0x104 JUMPI DUP1 PUSH4 0xC8F33C91 GT PUSH2 0xA2 JUMPI DUP1 PUSH4 0xDF136D65 GT PUSH2 0x71 JUMPI DUP1 PUSH4 0xDF136D65 EQ PUSH2 0x4FB JUMPI DUP1 PUSH4 0xE9FAD8EE EQ PUSH2 0x519 JUMPI DUP1 PUSH4 0xEBE2B12B EQ PUSH2 0x523 JUMPI DUP1 PUSH4 0xF2FDE38B EQ PUSH2 0x541 JUMPI PUSH2 0x1CE JUMP JUMPDEST DUP1 PUSH4 0xC8F33C91 EQ PUSH2 0x485 JUMPI DUP1 PUSH4 0xCC1A378F EQ PUSH2 0x4A3 JUMPI DUP1 PUSH4 0xCD3DAF9D EQ PUSH2 0x4BF JUMPI DUP1 PUSH4 0xD1AF0C7D EQ PUSH2 0x4DD JUMPI PUSH2 0x1CE JUMP JUMPDEST DUP1 PUSH4 0x8B876347 GT PUSH2 0xDE JUMPI DUP1 PUSH4 0x8B876347 EQ PUSH2 0x3FD JUMPI DUP1 PUSH4 0x8DA5CB5B EQ PUSH2 0x42D JUMPI DUP1 PUSH4 0xA694FC3A EQ PUSH2 0x44B JUMPI DUP1 PUSH4 0xA85FE3B7 EQ PUSH2 0x467 JUMPI PUSH2 0x1CE JUMP JUMPDEST DUP1 PUSH4 0x7B0A47EE EQ PUSH2 0x3A5 JUMPI DUP1 PUSH4 0x80FAA57D EQ PUSH2 0x3C3 JUMPI DUP1 PUSH4 0x8980F11F EQ PUSH2 0x3E1 JUMPI PUSH2 0x1CE JUMP JUMPDEST DUP1 PUSH4 0x3C6B16AB GT PUSH2 0x171 JUMPI DUP1 PUSH4 0x70A08231 GT PUSH2 0x14B JUMPI DUP1 PUSH4 0x70A08231 EQ PUSH2 0x31D JUMPI DUP1 PUSH4 0x715018A6 EQ PUSH2 0x34D JUMPI DUP1 PUSH4 0x72F702F3 EQ PUSH2 0x357 JUMPI DUP1 PUSH4 0x7AE2B5C7 EQ PUSH2 0x375 JUMPI PUSH2 0x1CE JUMP JUMPDEST DUP1 PUSH4 0x3C6B16AB EQ PUSH2 0x2D9 JUMPI DUP1 PUSH4 0x3D18B912 EQ PUSH2 0x2F5 JUMPI DUP1 PUSH4 0x5C975ABB EQ PUSH2 0x2FF JUMPI PUSH2 0x1CE JUMP JUMPDEST DUP1 PUSH4 0x1C1F78EB GT PUSH2 0x1AD JUMPI DUP1 PUSH4 0x1C1F78EB EQ PUSH2 0x251 JUMPI DUP1 PUSH4 0x2E1A7D4D EQ PUSH2 0x26F JUMPI DUP1 PUSH4 0x2E4C697F EQ PUSH2 0x28B JUMPI DUP1 PUSH4 0x386A9525 EQ PUSH2 0x2BB JUMPI PUSH2 0x1CE JUMP JUMPDEST DUP1 PUSH3 0x8CC262 EQ PUSH2 0x1D3 JUMPI DUP1 PUSH4 0x700037D EQ PUSH2 0x203 JUMPI DUP1 PUSH4 0x18160DDD EQ PUSH2 0x233 JUMPI JUMPDEST PUSH1 0x0 DUP1 REVERT JUMPDEST PUSH2 0x1ED PUSH1 0x4 DUP1 CALLDATASIZE SUB DUP2 ADD SWAP1 PUSH2 0x1E8 SWAP2 SWAP1 PUSH2 0x1ED7 JUMP JUMPDEST PUSH2 0x55D JUMP JUMPDEST PUSH1 0x40 MLOAD PUSH2 0x1FA SWAP2 SWAP1 PUSH2 0x2588 JUMP JUMPDEST PUSH1 0x40 MLOAD DUP1 SWAP2 SUB SWAP1 RETURN JUMPDEST PUSH2 0x21D PUSH1 0x4 DUP1 CALLDATASIZE SUB DUP2 ADD SWAP1 PUSH2 0x218 SWAP2 SWAP1 PUSH2 0x1ED7 JUMP JUMPDEST PUSH2 0x675 JUMP JUMPDEST PUSH1 0x40 MLOAD PUSH2 0x22A SWAP2 SWAP1 PUSH2 0x2588 JUMP JUMPDEST PUSH1 0x40 MLOAD DUP1 SWAP2 SUB SWAP1 RETURN JUMPDEST PUSH2 0x23B PUSH2 0x68D JUMP JUMPDEST PUSH1 0x40 MLOAD PUSH2 0x248 SWAP2 SWAP1 PUSH2 0x2588 JUMP JUMPDEST PUSH1 0x40 MLOAD DUP1 SWAP2 SUB SWAP1 RETURN JUMPDEST PUSH2 0x259 PUSH2 0x697 JUMP JUMPDEST PUSH1 0x40 MLOAD PUSH2 0x266 SWAP2 SWAP1 PUSH2 0x2588 JUMP JUMPDEST PUSH1 0x40 MLOAD DUP1 SWAP2 SUB SWAP1 RETURN JUMPDEST PUSH2 0x289 PUSH1 0x4 DUP1 CALLDATASIZE SUB DUP2 ADD SWAP1 PUSH2 0x284 SWAP2 SWAP1 PUSH2 0x1F71 JUMP JUMPDEST PUSH2 0x6B5 JUMP JUMPDEST STOP JUMPDEST PUSH2 0x2A5 PUSH1 0x4 DUP1 CALLDATASIZE SUB DUP2 ADD SWAP1 PUSH2 0x2A0 SWAP2 SWAP1 PUSH2 0x1FCB JUMP JUMPDEST PUSH2 0x93B JUMP JUMPDEST PUSH1 0x40 MLOAD PUSH2 0x2B2 SWAP2 SWAP1 PUSH2 0x2588 JUMP JUMPDEST PUSH1 0x40 MLOAD DUP1 SWAP2 SUB SWAP1 RETURN JUMPDEST PUSH2 0x2C3 PUSH2 0x9D2 JUMP JUMPDEST PUSH1 0x40 MLOAD PUSH2 0x2D0 SWAP2 SWAP1 PUSH2 0x2588 JUMP JUMPDEST PUSH1 0x40 MLOAD DUP1 SWAP2 SUB SWAP1 RETURN JUMPDEST PUSH2 0x2F3 PUSH1 0x4 DUP1 CALLDATASIZE SUB DUP2 ADD SWAP1 PUSH2 0x2EE SWAP2 SWAP1 PUSH2 0x1F71 JUMP JUMPDEST PUSH2 0x9D8 JUMP JUMPDEST STOP JUMPDEST PUSH2 0x2FD PUSH2 0xCB6 JUMP JUMPDEST STOP JUMPDEST PUSH2 0x307 PUSH2 0xEDC JUMP JUMPDEST PUSH1 0x40 MLOAD PUSH2 0x314 SWAP2 SWAP1 PUSH2 0x2350 JUMP JUMPDEST PUSH1 0x40 MLOAD DUP1 SWAP2 SUB SWAP1 RETURN JUMPDEST PUSH2 0x337 PUSH1 0x4 DUP1 CALLDATASIZE SUB DUP2 ADD SWAP1 PUSH2 0x332 SWAP2 SWAP1 PUSH2 0x1ED7 JUMP JUMPDEST PUSH2 0xEF3 JUMP JUMPDEST PUSH1 0x40 MLOAD PUSH2 0x344 SWAP2 SWAP1 PUSH2 0x2588 JUMP JUMPDEST PUSH1 0x40 MLOAD DUP1 SWAP2 SUB SWAP1 RETURN JUMPDEST PUSH2 0x355 PUSH2 0xF3C JUMP JUMPDEST STOP JUMPDEST PUSH2 0x35F PUSH2 0xF50 JUMP JUMPDEST PUSH1 0x40 MLOAD PUSH2 0x36C SWAP2 SWAP1 PUSH2 0x236B JUMP JUMPDEST PUSH1 0x40 MLOAD DUP1 SWAP2 SUB SWAP1 RETURN JUMPDEST PUSH2 0x38F PUSH1 0x4 DUP1 CALLDATASIZE SUB DUP2 ADD SWAP1 PUSH2 0x38A SWAP2 SWAP1 PUSH2 0x1FCB JUMP JUMPDEST PUSH2 0xF76 JUMP JUMPDEST PUSH1 0x40 MLOAD PUSH2 0x39C SWAP2 SWAP1 PUSH2 0x2588 JUMP JUMPDEST PUSH1 0x40 MLOAD DUP1 SWAP2 SUB SWAP1 RETURN JUMPDEST PUSH2 0x3AD PUSH2 0xF8F JUMP JUMPDEST PUSH1 0x40 MLOAD PUSH2 0x3BA SWAP2 SWAP1 PUSH2 0x2588 JUMP JUMPDEST PUSH1 0x40 MLOAD DUP1 SWAP2 SUB SWAP1 RETURN JUMPDEST PUSH2 0x3CB PUSH2 0xF95 JUMP JUMPDEST PUSH1 0x40 MLOAD PUSH2 0x3D8 SWAP2 SWAP1 PUSH2 0x2588 JUMP JUMPDEST PUSH1 0x40 MLOAD DUP1 SWAP2 SUB SWAP1 RETURN JUMPDEST PUSH2 0x3FB PUSH1 0x4 DUP1 CALLDATASIZE SUB DUP2 ADD SWAP1 PUSH2 0x3F6 SWAP2 SWAP1 PUSH2 0x1F04 JUMP JUMPDEST PUSH2 0xFA8 JUMP JUMPDEST STOP JUMPDEST PUSH2 0x417 PUSH1 0x4 DUP1 CALLDATASIZE SUB DUP2 ADD SWAP1 PUSH2 0x412 SWAP2 SWAP1 PUSH2 0x1ED7 JUMP JUMPDEST PUSH2 0x1145 JUMP JUMPDEST PUSH1 0x40 MLOAD PUSH2 0x424 SWAP2 SWAP1 PUSH2 0x2588 JUMP JUMPDEST PUSH1 0x40 MLOAD DUP1 SWAP2 SUB SWAP1 RETURN JUMPDEST PUSH2 0x435 PUSH2 0x115D JUMP JUMPDEST PUSH1 0x40 MLOAD PUSH2 0x442 SWAP2 SWAP1 PUSH2 0x22D5 JUMP JUMPDEST PUSH1 0x40 MLOAD DUP1 SWAP2 SUB SWAP1 RETURN JUMPDEST PUSH2 0x465 PUSH1 0x4 DUP1 CALLDATASIZE SUB DUP2 ADD SWAP1 PUSH2 0x460 SWAP2 SWAP1 PUSH2 0x1F71 JUMP JUMPDEST PUSH2 0x1185 JUMP JUMPDEST STOP JUMPDEST PUSH2 0x46F PUSH2 0x145D JUMP JUMPDEST PUSH1 0x40 MLOAD PUSH2 0x47C SWAP2 SWAP1 PUSH2 0x2588 JUMP JUMPDEST PUSH1 0x40 MLOAD DUP1 SWAP2 SUB SWAP1 RETURN JUMPDEST PUSH2 0x48D PUSH2 0x1463 JUMP JUMPDEST PUSH1 0x40 MLOAD PUSH2 0x49A SWAP2 SWAP1 PUSH2 0x2588 JUMP JUMPDEST PUSH1 0x40 MLOAD DUP1 SWAP2 SUB SWAP1 RETURN JUMPDEST PUSH2 0x4BD PUSH1 0x4 DUP1 CALLDATASIZE SUB DUP2 ADD SWAP1 PUSH2 0x4B8 SWAP2 SWAP1 PUSH2 0x1F71 JUMP JUMPDEST PUSH2 0x1469 JUMP JUMPDEST STOP JUMPDEST PUSH2 0x4C7 PUSH2 0x14F8 JUMP JUMPDEST PUSH1 0x40 MLOAD PUSH2 0x4D4 SWAP2 SWAP1 PUSH2 0x2588 JUMP JUMPDEST PUSH1 0x40 MLOAD DUP1 SWAP2 SUB SWAP1 RETURN JUMPDEST PUSH2 0x4E5 PUSH2 0x1580 JUMP JUMPDEST PUSH1 0x40 MLOAD PUSH2 0x4F2 SWAP2 SWAP1 PUSH2 0x236B JUMP JUMPDEST PUSH1 0x40 MLOAD DUP1 SWAP2 SUB SWAP1 RETURN JUMPDEST PUSH2 0x503 PUSH2 0x15A6 JUMP JUMPDEST PUSH1 0x40 MLOAD PUSH2 0x510 SWAP2 SWAP1 PUSH2 0x2588 JUMP JUMPDEST PUSH1 0x40 MLOAD DUP1 SWAP2 SUB SWAP1 RETURN JUMPDEST PUSH2 0x521 PUSH2 0x15AC JUMP JUMPDEST STOP JUMPDEST PUSH2 0x52B PUSH2 0x15FE JUMP JUMPDEST PUSH1 0x40 MLOAD PUSH2 0x538 SWAP2 SWAP1 PUSH2 0x2588 JUMP JUMPDEST PUSH1 0x40 MLOAD DUP1 SWAP2 SUB SWAP1 RETURN JUMPDEST PUSH2 0x55B PUSH1 0x4 DUP1 CALLDATASIZE SUB DUP2 ADD SWAP1 PUSH2 0x556 SWAP2 SWAP1 PUSH2 0x1ED7 JUMP JUMPDEST PUSH2 0x1604 JUMP JUMPDEST STOP JUMPDEST PUSH1 0x0 PUSH2 0x66E PUSH1 0xC PUSH1 0x0 DUP5 PUSH20 0xFFFFFFFFFFFFFFFFFFFFFFFFFFFFFFFFFFFFFFFF AND PUSH20 0xFFFFFFFFFFFFFFFFFFFFFFFFFFFFFFFFFFFFFFFF AND DUP2 MSTORE PUSH1 0x20 ADD SWAP1 DUP2 MSTORE PUSH1 0x20 ADD PUSH1 0x0 KECCAK256 SLOAD PUSH2 0x660 PUSH1 0x9 SLOAD PUSH2 0x652 PUSH2 0x604 PUSH1 0xB PUSH1 0x0 DUP10 PUSH20 0xFFFFFFFFFFFFFFFFFFFFFFFFFFFFFFFFFFFFFFFF AND PUSH20 0xFFFFFFFFFFFFFFFFFFFFFFFFFFFFFFFFFFFFFFFF AND DUP2 MSTORE PUSH1 0x20 ADD SWAP1 DUP2 MSTORE PUSH1 0x20 ADD PUSH1 0x0 KECCAK256 SLOAD PUSH2 0x5F6 PUSH2 0x14F8 JUMP JUMPDEST PUSH2 0x1797 SWAP1 SWAP2 SWAP1 PUSH4 0xFFFFFFFF AND JUMP JUMPDEST PUSH1 0xE PUSH1 0x0 DUP10 PUSH20 0xFFFFFFFFFFFFFFFFFFFFFFFFFFFFFFFFFFFFFFFF AND PUSH20 0xFFFFFFFFFFFFFFFFFFFFFFFFFFFFFFFFFFFFFFFF AND DUP2 MSTORE PUSH1 0x20 ADD SWAP1 DUP2 MSTORE PUSH1 0x20 ADD PUSH1 0x0 KECCAK256 SLOAD PUSH2 0x16D2 SWAP1 SWAP2 SWAP1 PUSH4 0xFFFFFFFF AND JUMP JUMPDEST PUSH2 0x1688 SWAP1 SWAP2 SWAP1 PUSH4 0xFFFFFFFF AND JUMP JUMPDEST PUSH2 0x17E1 SWAP1 SWAP2 SWAP1 PUSH4 0xFFFFFFFF AND JUMP JUMPDEST SWAP1 POP SWAP2 SWAP1 POP JUMP JUMPDEST PUSH1 0xC PUSH1 0x20 MSTORE DUP1 PUSH1 0x0 MSTORE PUSH1 0x40 PUSH1 0x0 KECCAK256 PUSH1 0x0 SWAP2 POP SWAP1 POP SLOAD DUP2 JUMP JUMPDEST PUSH1 0x0 PUSH1 0xD SLOAD SWAP1 POP SWAP1 JUMP JUMPDEST PUSH1 0x0 PUSH2 0x6B0 PUSH1 0x6 SLOAD PUSH1 0x5 SLOAD PUSH2 0x16D2 SWAP1 SWAP2 SWAP1 PUSH4 0xFFFFFFFF AND JUMP JUMPDEST SWAP1 POP SWAP1 JUMP JUMPDEST PUSH2 0x6BD PUSH2 0x183F JUMP JUMPDEST CALLER PUSH2 0x6C6 PUSH2 0x14F8 JUMP JUMPDEST PUSH1 0x8 DUP2 SWAP1 SSTORE POP PUSH2 0x6D4 PUSH2 0xF95 JUMP JUMPDEST PUSH1 0x7 DUP2 SWAP1 SSTORE POP PUSH1 0x0 PUSH20 0xFFFFFFFFFFFFFFFFFFFFFFFFFFFFFFFFFFFFFFFF AND DUP2 PUSH20 0xFFFFFFFFFFFFFFFFFFFFFFFFFFFFFFFFFFFFFFFF AND EQ PUSH2 0x7A1 JUMPI PUSH2 0x717 DUP2 PUSH2 0x55D JUMP JUMPDEST PUSH1 0xC PUSH1 0x0 DUP4 PUSH20 0xFFFFFFFFFFFFFFFFFFFFFFFFFFFFFFFFFFFFFFFF AND PUSH20 0xFFFFFFFFFFFFFFFFFFFFFFFFFFFFFFFFFFFFFFFF AND DUP2 MSTORE PUSH1 0x20 ADD SWAP1 DUP2 MSTORE PUSH1 0x20 ADD PUSH1 0x0 KECCAK256 DUP2 SWAP1 SSTORE POP PUSH1 0x8 SLOAD PUSH1 0xB PUSH1 0x0 DUP4 PUSH20 0xFFFFFFFFFFFFFFFFFFFFFFFFFFFFFFFFFFFFFFFF AND PUSH20 0xFFFFFFFFFFFFFFFFFFFFFFFFFFFFFFFFFFFFFFFF AND DUP2 MSTORE PUSH1 0x20 ADD SWAP1 DUP2 MSTORE PUSH1 0x20 ADD PUSH1 0x0 KECCAK256 DUP2 SWAP1 SSTORE POP JUMPDEST PUSH1 0x0 DUP3 GT PUSH2 0x7E4 JUMPI PUSH1 0x40 MLOAD PUSH32 0x8C379A000000000000000000000000000000000000000000000000000000000 DUP2 MSTORE PUSH1 0x4 ADD PUSH2 0x7DB SWAP1 PUSH2 0x2488 JUMP JUMPDEST PUSH1 0x40 MLOAD DUP1 SWAP2 SUB SWAP1 REVERT JUMPDEST PUSH2 0x7F9 DUP3 PUSH1 0xD SLOAD PUSH2 0x1797 SWAP1 SWAP2 SWAP1 PUSH4 0xFFFFFFFF AND JUMP JUMPDEST PUSH1 0xD DUP2 SWAP1 SSTORE POP PUSH2 0x851 DUP3 PUSH1 0xE PUSH1 0x0 CALLER PUSH20 0xFFFFFFFFFFFFFFFFFFFFFFFFFFFFFFFFFFFFFFFF AND PUSH20 0xFFFFFFFFFFFFFFFFFFFFFFFFFFFFFFFFFFFFFFFF AND DUP2 MSTORE PUSH1 0x20 ADD SWAP1 DUP2 MSTORE PUSH1 0x20 ADD PUSH1 0x0 KECCAK256 SLOAD PUSH2 0x1797 SWAP1 SWAP2 SWAP1 PUSH4 0xFFFFFFFF AND JUMP JUMPDEST PUSH1 0xE PUSH1 0x0 CALLER PUSH20 0xFFFFFFFFFFFFFFFFFFFFFFFFFFFFFFFFFFFFFFFF AND PUSH20 0xFFFFFFFFFFFFFFFFFFFFFFFFFFFFFFFFFFFFFFFF AND DUP2 MSTORE PUSH1 0x20 ADD SWAP1 DUP2 MSTORE PUSH1 0x20 ADD PUSH1 0x0 KECCAK256 DUP2 SWAP1 SSTORE POP PUSH2 0x8E1 CALLER DUP4 PUSH1 0x3 PUSH1 0x0 SWAP1 SLOAD SWAP1 PUSH2 0x100 EXP SWAP1 DIV PUSH20 0xFFFFFFFFFFFFFFFFFFFFFFFFFFFFFFFFFFFFFFFF AND PUSH20 0xFFFFFFFFFFFFFFFFFFFFFFFFFFFFFFFFFFFFFFFF AND PUSH2 0x188F SWAP1 SWAP3 SWAP2 SWAP1 PUSH4 0xFFFFFFFF AND JUMP JUMPDEST CALLER PUSH20 0xFFFFFFFFFFFFFFFFFFFFFFFFFFFFFFFFFFFFFFFF AND PUSH32 0x7084F5476618D8E60B11EF0D7D3F06914655ADB8793E28FF7F018D4C76D505D5 DUP4 PUSH1 0x40 MLOAD PUSH2 0x927 SWAP2 SWAP1 PUSH2 0x2588 JUMP JUMPDEST PUSH1 0x40 MLOAD DUP1 SWAP2 SUB SWAP1 LOG2 POP PUSH2 0x938 PUSH2 0x1915 JUMP JUMPDEST POP JUMP JUMPDEST PUSH1 0x0 DUP1 DUP3 EQ ISZERO PUSH2 0x94E JUMPI PUSH1 0x1 SWAP1 POP PUSH2 0x9CC JUMP JUMPDEST PUSH1 0x1 DUP3 EQ ISZERO PUSH2 0x95F JUMPI DUP3 SWAP1 POP PUSH2 0x9CC JUMP JUMPDEST PUSH1 0x0 PUSH2 0x97E DUP5 PUSH2 0x979 PUSH1 0x2 DUP7 PUSH2 0x1688 SWAP1 SWAP2 SWAP1 PUSH4 0xFFFFFFFF AND JUMP JUMPDEST PUSH2 0x93B JUMP JUMPDEST SWAP1 POP PUSH2 0x993 DUP2 DUP3 PUSH2 0x16D2 SWAP1 SWAP2 SWAP1 PUSH4 0xFFFFFFFF AND JUMP JUMPDEST SWAP1 POP PUSH1 0x1 PUSH2 0x9AB PUSH1 0x2 DUP6 PUSH2 0x174D SWAP1 SWAP2 SWAP1 PUSH4 0xFFFFFFFF AND JUMP JUMPDEST EQ ISZERO PUSH2 0x9C7 JUMPI PUSH2 0x9C4 DUP5 DUP3 PUSH2 0x16D2 SWAP1 SWAP2 SWAP1 PUSH4 0xFFFFFFFF AND JUMP JUMPDEST SWAP1 POP JUMPDEST DUP1 SWAP2 POP POP JUMPDEST SWAP3 SWAP2 POP POP JUMP JUMPDEST PUSH1 0x6 SLOAD DUP2 JUMP JUMPDEST PUSH2 0x9E0 PUSH2 0x191F JUMP JUMPDEST PUSH1 0x0 PUSH2 0x9EA PUSH2 0x14F8 JUMP JUMPDEST PUSH1 0x8 DUP2 SWAP1 SSTORE POP PUSH2 0x9F8 PUSH2 0xF95 JUMP JUMPDEST PUSH1 0x7 DUP2 SWAP1 SSTORE POP PUSH1 0x0 PUSH20 0xFFFFFFFFFFFFFFFFFFFFFFFFFFFFFFFFFFFFFFFF AND DUP2 PUSH20 0xFFFFFFFFFFFFFFFFFFFFFFFFFFFFFFFFFFFFFFFF AND EQ PUSH2 0xAC5 JUMPI PUSH2 0xA3B DUP2 PUSH2 0x55D JUMP JUMPDEST PUSH1 0xC PUSH1 0x0 DUP4 PUSH20 0xFFFFFFFFFFFFFFFFFFFFFFFFFFFFFFFFFFFFFFFF AND PUSH20 0xFFFFFFFFFFFFFFFFFFFFFFFFFFFFFFFFFFFFFFFF AND DUP2 MSTORE PUSH1 0x20 ADD SWAP1 DUP2 MSTORE PUSH1 0x20 ADD PUSH1 0x0 KECCAK256 DUP2 SWAP1 SSTORE POP PUSH1 0x8 SLOAD PUSH1 0xB PUSH1 0x0 DUP4 PUSH20 0xFFFFFFFFFFFFFFFFFFFFFFFFFFFFFFFFFFFFFFFF AND PUSH20 0xFFFFFFFFFFFFFFFFFFFFFFFFFFFFFFFFFFFFFFFF AND DUP2 MSTORE PUSH1 0x20 ADD SWAP1 DUP2 MSTORE PUSH1 0x20 ADD PUSH1 0x0 KECCAK256 DUP2 SWAP1 SSTORE POP JUMPDEST PUSH1 0x4 SLOAD TIMESTAMP LT PUSH2 0xAEE JUMPI PUSH2 0xAE3 PUSH1 0x6 SLOAD DUP4 PUSH2 0x1688 SWAP1 SWAP2 SWAP1 PUSH4 0xFFFFFFFF AND JUMP JUMPDEST PUSH1 0x5 DUP2 SWAP1 SSTORE POP PUSH2 0xB50 JUMP JUMPDEST PUSH1 0x0 PUSH2 0xB05 TIMESTAMP PUSH1 0x4 SLOAD PUSH2 0x1797 SWAP1 SWAP2 SWAP1 PUSH4 0xFFFFFFFF AND JUMP JUMPDEST SWAP1 POP PUSH1 0x0 PUSH2 0xB1E PUSH1 0x5 SLOAD DUP4 PUSH2 0x16D2 SWAP1 SWAP2 SWAP1 PUSH4 0xFFFFFFFF AND JUMP JUMPDEST SWAP1 POP PUSH2 0xB47 PUSH1 0x6 SLOAD PUSH2 0xB39 DUP4 DUP8 PUSH2 0x17E1 SWAP1 SWAP2 SWAP1 PUSH4 0xFFFFFFFF AND JUMP JUMPDEST PUSH2 0x1688 SWAP1 SWAP2 SWAP1 PUSH4 0xFFFFFFFF AND JUMP JUMPDEST PUSH1 0x5 DUP2 SWAP1 SSTORE POP POP POP JUMPDEST PUSH1 0x0 PUSH1 0x2 PUSH1 0x0 SWAP1 SLOAD SWAP1 PUSH2 0x100 EXP SWAP1 DIV PUSH20 0xFFFFFFFFFFFFFFFFFFFFFFFFFFFFFFFFFFFFFFFF AND PUSH20 0xFFFFFFFFFFFFFFFFFFFFFFFFFFFFFFFFFFFFFFFF AND PUSH4 0x70A08231 ADDRESS PUSH1 0x40 MLOAD DUP3 PUSH4 0xFFFFFFFF AND PUSH1 0xE0 SHL DUP2 MSTORE PUSH1 0x4 ADD PUSH2 0xBAD SWAP2 SWAP1 PUSH2 0x22D5 JUMP JUMPDEST PUSH1 0x20 PUSH1 0x40 MLOAD DUP1 DUP4 SUB DUP2 DUP7 DUP1 EXTCODESIZE ISZERO DUP1 ISZERO PUSH2 0xBC5 JUMPI PUSH1 0x0 DUP1 REVERT JUMPDEST POP GAS STATICCALL ISZERO DUP1 ISZERO PUSH2 0xBD9 JUMPI RETURNDATASIZE PUSH1 0x0 DUP1 RETURNDATACOPY RETURNDATASIZE PUSH1 0x0 REVERT JUMPDEST POP POP POP POP PUSH1 0x40 MLOAD RETURNDATASIZE PUSH1 0x1F NOT PUSH1 0x1F DUP3 ADD AND DUP3 ADD DUP1 PUSH1 0x40 MSTORE POP DUP2 ADD SWAP1 PUSH2 0xBFD SWAP2 SWAP1 PUSH2 0x1F9E JUMP JUMPDEST SWAP1 POP PUSH2 0xC14 PUSH1 0x6 SLOAD DUP3 PUSH2 0x1688 SWAP1 SWAP2 SWAP1 PUSH4 0xFFFFFFFF AND JUMP JUMPDEST PUSH1 0x5 SLOAD GT ISZERO PUSH2 0xC58 JUMPI PUSH1 0x40 MLOAD PUSH32 0x8C379A000000000000000000000000000000000000000000000000000000000 DUP2 MSTORE PUSH1 0x4 ADD PUSH2 0xC4F SWAP1 PUSH2 0x2508 JUMP JUMPDEST PUSH1 0x40 MLOAD DUP1 SWAP2 SUB SWAP1 REVERT JUMPDEST TIMESTAMP PUSH1 0x7 DUP2 SWAP1 SSTORE POP PUSH2 0xC74 PUSH1 0x6 SLOAD TIMESTAMP PUSH2 0x17E1 SWAP1 SWAP2 SWAP1 PUSH4 0xFFFFFFFF AND JUMP JUMPDEST PUSH1 0x4 DUP2 SWAP1 SSTORE POP PUSH32 0xDE88A922E0D3B88B24E9623EFEB464919C6BF9F66857A65E2BFCF2CE87A9433D DUP4 PUSH1 0x40 MLOAD PUSH2 0xCA9 SWAP2 SWAP1 PUSH2 0x2588 JUMP JUMPDEST PUSH1 0x40 MLOAD DUP1 SWAP2 SUB SWAP1 LOG1 POP POP POP JUMP JUMPDEST PUSH2 0xCBE PUSH2 0x183F JUMP JUMPDEST CALLER PUSH2 0xCC7 PUSH2 0x14F8 JUMP JUMPDEST PUSH1 0x8 DUP2 SWAP1 SSTORE POP PUSH2 0xCD5 PUSH2 0xF95 JUMP JUMPDEST PUSH1 0x7 DUP2 SWAP1 SSTORE POP PUSH1 0x0 PUSH20 0xFFFFFFFFFFFFFFFFFFFFFFFFFFFFFFFFFFFFFFFF AND DUP2 PUSH20 0xFFFFFFFFFFFFFFFFFFFFFFFFFFFFFFFFFFFFFFFF AND EQ PUSH2 0xDA2 JUMPI PUSH2 0xD18 DUP2 PUSH2 0x55D JUMP JUMPDEST PUSH1 0xC PUSH1 0x0 DUP4 PUSH20 0xFFFFFFFFFFFFFFFFFFFFFFFFFFFFFFFFFFFFFFFF AND PUSH20 0xFFFFFFFFFFFFFFFFFFFFFFFFFFFFFFFFFFFFFFFF AND DUP2 MSTORE PUSH1 0x20 ADD SWAP1 DUP2 MSTORE PUSH1 0x20 ADD PUSH1 0x0 KECCAK256 DUP2 SWAP1 SSTORE POP PUSH1 0x8 SLOAD PUSH1 0xB PUSH1 0x0 DUP4 PUSH20 0xFFFFFFFFFFFFFFFFFFFFFFFFFFFFFFFFFFFFFFFF AND PUSH20 0xFFFFFFFFFFFFFFFFFFFFFFFFFFFFFFFFFFFFFFFF AND DUP2 MSTORE PUSH1 0x20 ADD SWAP1 DUP2 MSTORE PUSH1 0x20 ADD PUSH1 0x0 KECCAK256 DUP2 SWAP1 SSTORE POP JUMPDEST PUSH1 0x0 PUSH1 0xC PUSH1 0x0 CALLER PUSH20 0xFFFFFFFFFFFFFFFFFFFFFFFFFFFFFFFFFFFFFFFF AND PUSH20 0xFFFFFFFFFFFFFFFFFFFFFFFFFFFFFFFFFFFFFFFF AND DUP2 MSTORE PUSH1 0x20 ADD SWAP1 DUP2 MSTORE PUSH1 0x20 ADD PUSH1 0x0 KECCAK256 SLOAD SWAP1 POP PUSH1 0x0 DUP2 GT ISZERO PUSH2 0xED0 JUMPI PUSH1 0x0 PUSH1 0xC PUSH1 0x0 CALLER PUSH20 0xFFFFFFFFFFFFFFFFFFFFFFFFFFFFFFFFFFFFFFFF AND PUSH20 0xFFFFFFFFFFFFFFFFFFFFFFFFFFFFFFFFFFFFFFFF AND DUP2 MSTORE PUSH1 0x20 ADD SWAP1 DUP2 MSTORE PUSH1 0x20 ADD PUSH1 0x0 KECCAK256 DUP2 SWAP1 SSTORE POP PUSH2 0xE81 CALLER DUP3 PUSH1 0x2 PUSH1 0x0 SWAP1 SLOAD SWAP1 PUSH2 0x100 EXP SWAP1 DIV PUSH20 0xFFFFFFFFFFFFFFFFFFFFFFFFFFFFFFFFFFFFFFFF AND PUSH20 0xFFFFFFFFFFFFFFFFFFFFFFFFFFFFFFFFFFFFFFFF AND PUSH2 0x188F SWAP1 SWAP3 SWAP2 SWAP1 PUSH4 0xFFFFFFFF AND JUMP JUMPDEST CALLER PUSH20 0xFFFFFFFFFFFFFFFFFFFFFFFFFFFFFFFFFFFFFFFF AND PUSH32 0xE2403640BA68FED3A2F88B7557551D1993F84B99BB10FF833F0CF8DB0C5E0486 DUP3 PUSH1 0x40 MLOAD PUSH2 0xEC7 SWAP2 SWAP1 PUSH2 0x2588 JUMP JUMPDEST PUSH1 0x40 MLOAD DUP1 SWAP2 SUB SWAP1 LOG2 JUMPDEST POP POP PUSH2 0xEDA PUSH2 0x1915 JUMP JUMPDEST JUMP JUMPDEST PUSH1 0x0 PUSH1 0x1 PUSH1 0x0 SWAP1 SLOAD SWAP1 PUSH2 0x100 EXP SWAP1 DIV PUSH1 0xFF AND SWAP1 POP SWAP1 JUMP JUMPDEST PUSH1 0x0 PUSH1 0xE PUSH1 0x0 DUP4 PUSH20 0xFFFFFFFFFFFFFFFFFFFFFFFFFFFFFFFFFFFFFFFF AND PUSH20 0xFFFFFFFFFFFFFFFFFFFFFFFFFFFFFFFFFFFFFFFF AND DUP2 MSTORE PUSH1 0x20 ADD SWAP1 DUP2 MSTORE PUSH1 0x20 ADD PUSH1 0x0 KECCAK256 SLOAD SWAP1 POP SWAP2 SWAP1 POP JUMP JUMPDEST PUSH2 0xF44 PUSH2 0x191F JUMP JUMPDEST PUSH2 0xF4E PUSH1 0x0 PUSH2 0x199D JUMP JUMPDEST JUMP JUMPDEST PUSH1 0x3 PUSH1 0x0 SWAP1 SLOAD SWAP1 PUSH2 0x100 EXP SWAP1 DIV PUSH20 0xFFFFFFFFFFFFFFFFFFFFFFFFFFFFFFFFFFFFFFFF AND DUP2 JUMP JUMPDEST PUSH1 0x0 DUP2 DUP4 LT PUSH2 0xF85 JUMPI DUP2 PUSH2 0xF87 JUMP JUMPDEST DUP3 JUMPDEST SWAP1 POP SWAP3 SWAP2 POP POP JUMP JUMPDEST PUSH1 0x5 SLOAD DUP2 JUMP JUMPDEST PUSH1 0x0 PUSH2 0xFA3 TIMESTAMP PUSH1 0x4 SLOAD PUSH2 0xF76 JUMP JUMPDEST SWAP1 POP SWAP1 JUMP JUMPDEST PUSH2 0xFB0 PUSH2 0x191F JUMP JUMPDEST PUSH1 0x2 PUSH1 0x0 SWAP1 SLOAD SWAP1 PUSH2 0x100 EXP SWAP1 DIV PUSH20 0xFFFFFFFFFFFFFFFFFFFFFFFFFFFFFFFFFFFFFFFF AND PUSH20 0xFFFFFFFFFFFFFFFFFFFFFFFFFFFFFFFFFFFFFFFF AND DUP3 PUSH20 0xFFFFFFFFFFFFFFFFFFFFFFFFFFFFFFFFFFFFFFFF AND EQ ISZERO PUSH2 0x1041 JUMPI PUSH1 0x40 MLOAD PUSH32 0x8C379A000000000000000000000000000000000000000000000000000000000 DUP2 MSTORE PUSH1 0x4 ADD PUSH2 0x1038 SWAP1 PUSH2 0x2428 JUMP JUMPDEST PUSH1 0x40 MLOAD DUP1 SWAP2 SUB SWAP1 REVERT JUMPDEST PUSH1 0x0 PUSH1 0xD SLOAD EQ PUSH2 0x10DD JUMPI PUSH1 0x3 PUSH1 0x0 SWAP1 SLOAD SWAP1 PUSH2 0x100 EXP SWAP1 DIV PUSH20 0xFFFFFFFFFFFFFFFFFFFFFFFFFFFFFFFFFFFFFFFF AND PUSH20 0xFFFFFFFFFFFFFFFFFFFFFFFFFFFFFFFFFFFFFFFF AND DUP3 PUSH20 0xFFFFFFFFFFFFFFFFFFFFFFFFFFFFFFFFFFFFFFFF AND EQ ISZERO PUSH2 0x10DC JUMPI PUSH1 0x40 MLOAD PUSH32 0x8C379A000000000000000000000000000000000000000000000000000000000 DUP2 MSTORE PUSH1 0x4 ADD PUSH2 0x10D3 SWAP1 PUSH2 0x24E8 JUMP JUMPDEST PUSH1 0x40 MLOAD DUP1 SWAP2 SUB SWAP1 REVERT JUMPDEST JUMPDEST PUSH2 0x1108 CALLER DUP3 DUP5 PUSH20 0xFFFFFFFFFFFFFFFFFFFFFFFFFFFFFFFFFFFFFFFF AND PUSH2 0x188F SWAP1 SWAP3 SWAP2 SWAP1 PUSH4 0xFFFFFFFF AND JUMP JUMPDEST PUSH32 0x8C1256B8896378CD5044F80C202F9772B9D77DC85C8A6EB51967210B09BFAA28 DUP3 DUP3 PUSH1 0x40 MLOAD PUSH2 0x1139 SWAP3 SWAP2 SWAP1 PUSH2 0x2327 JUMP JUMPDEST PUSH1 0x40 MLOAD DUP1 SWAP2 SUB SWAP1 LOG1 POP POP JUMP JUMPDEST PUSH1 0xB PUSH1 0x20 MSTORE DUP1 PUSH1 0x0 MSTORE PUSH1 0x40 PUSH1 0x0 KECCAK256 PUSH1 0x0 SWAP2 POP SWAP1 POP SLOAD DUP2 JUMP JUMPDEST PUSH1 0x0 PUSH1 0x1 DUP1 SLOAD SWAP1 PUSH2 0x100 EXP SWAP1 DIV PUSH20 0xFFFFFFFFFFFFFFFFFFFFFFFFFFFFFFFFFFFFFFFF AND SWAP1 POP SWAP1 JUMP JUMPDEST PUSH2 0x118D PUSH2 0x183F JUMP JUMPDEST PUSH1 0x1 PUSH1 0x0 SWAP1 SLOAD SWAP1 PUSH2 0x100 EXP SWAP1 DIV PUSH1 0xFF AND ISZERO PUSH2 0x11DD JUMPI PUSH1 0x40 MLOAD PUSH32 0x8C379A000000000000000000000000000000000000000000000000000000000 DUP2 MSTORE PUSH1 0x4 ADD PUSH2 0x11D4 SWAP1 PUSH2 0x2468 JUMP JUMPDEST PUSH1 0x40 MLOAD DUP1 SWAP2 SUB SWAP1 REVERT JUMPDEST CALLER PUSH2 0x11E6 PUSH2 0x14F8 JUMP JUMPDEST PUSH1 0x8 DUP2 SWAP1 SSTORE POP PUSH2 0x11F4 PUSH2 0xF95 JUMP JUMPDEST PUSH1 0x7 DUP2 SWAP1 SSTORE POP PUSH1 0x0 PUSH20 0xFFFFFFFFFFFFFFFFFFFFFFFFFFFFFFFFFFFFFFFF AND DUP2 PUSH20 0xFFFFFFFFFFFFFFFFFFFFFFFFFFFFFFFFFFFFFFFF AND EQ PUSH2 0x12C1 JUMPI PUSH2 0x1237 DUP2 PUSH2 0x55D JUMP JUMPDEST PUSH1 0xC PUSH1 0x0 DUP4 PUSH20 0xFFFFFFFFFFFFFFFFFFFFFFFFFFFFFFFFFFFFFFFF AND PUSH20 0xFFFFFFFFFFFFFFFFFFFFFFFFFFFFFFFFFFFFFFFF AND DUP2 MSTORE PUSH1 0x20 ADD SWAP1 DUP2 MSTORE PUSH1 0x20 ADD PUSH1 0x0 KECCAK256 DUP2 SWAP1 SSTORE POP PUSH1 0x8 SLOAD PUSH1 0xB PUSH1 0x0 DUP4 PUSH20 0xFFFFFFFFFFFFFFFFFFFFFFFFFFFFFFFFFFFFFFFF AND PUSH20 0xFFFFFFFFFFFFFFFFFFFFFFFFFFFFFFFFFFFFFFFF AND DUP2 MSTORE PUSH1 0x20 ADD SWAP1 DUP2 MSTORE PUSH1 0x20 ADD PUSH1 0x0 KECCAK256 DUP2 SWAP1 SSTORE POP JUMPDEST PUSH1 0x0 DUP3 GT PUSH2 0x1304 JUMPI PUSH1 0x40 MLOAD PUSH32 0x8C379A000000000000000000000000000000000000000000000000000000000 DUP2 MSTORE PUSH1 0x4 ADD PUSH2 0x12FB SWAP1 PUSH2 0x23E8 JUMP JUMPDEST PUSH1 0x40 MLOAD DUP1 SWAP2 SUB SWAP1 REVERT JUMPDEST PUSH2 0x1319 DUP3 PUSH1 0xD SLOAD PUSH2 0x17E1 SWAP1 SWAP2 SWAP1 PUSH4 0xFFFFFFFF AND JUMP JUMPDEST PUSH1 0xD DUP2 SWAP1 SSTORE POP PUSH2 0x1371 DUP3 PUSH1 0xE PUSH1 0x0 CALLER PUSH20 0xFFFFFFFFFFFFFFFFFFFFFFFFFFFFFFFFFFFFFFFF AND PUSH20 0xFFFFFFFFFFFFFFFFFFFFFFFFFFFFFFFFFFFFFFFF AND DUP2 MSTORE PUSH1 0x20 ADD SWAP1 DUP2 MSTORE PUSH1 0x20 ADD PUSH1 0x0 KECCAK256 SLOAD PUSH2 0x17E1 SWAP1 SWAP2 SWAP1 PUSH4 0xFFFFFFFF AND JUMP JUMPDEST PUSH1 0xE PUSH1 0x0 CALLER PUSH20 0xFFFFFFFFFFFFFFFFFFFFFFFFFFFFFFFFFFFFFFFF AND PUSH20 0xFFFFFFFFFFFFFFFFFFFFFFFFFFFFFFFFFFFFFFFF AND DUP2 MSTORE PUSH1 0x20 ADD SWAP1 DUP2 MSTORE PUSH1 0x20 ADD PUSH1 0x0 KECCAK256 DUP2 SWAP1 SSTORE POP PUSH2 0x1403 CALLER ADDRESS DUP5 PUSH1 0x3 PUSH1 0x0 SWAP1 SLOAD SWAP1 PUSH2 0x100 EXP SWAP1 DIV PUSH20 0xFFFFFFFFFFFFFFFFFFFFFFFFFFFFFFFFFFFFFFFF AND PUSH20 0xFFFFFFFFFFFFFFFFFFFFFFFFFFFFFFFFFFFFFFFF AND PUSH2 0x1A60 SWAP1 SWAP4 SWAP3 SWAP2 SWAP1 PUSH4 0xFFFFFFFF AND JUMP JUMPDEST CALLER PUSH20 0xFFFFFFFFFFFFFFFFFFFFFFFFFFFFFFFFFFFFFFFF AND PUSH32 0x9E71BC8EEA02A63969F509818F2DAFB9254532904319F9DBDA79B67BD34A5F3D DUP4 PUSH1 0x40 MLOAD PUSH2 0x1449 SWAP2 SWAP1 PUSH2 0x2588 JUMP JUMPDEST PUSH1 0x40 MLOAD DUP1 SWAP2 SUB SWAP1 LOG2 POP PUSH2 0x145A PUSH2 0x1915 JUMP JUMPDEST POP JUMP JUMPDEST PUSH1 0x9 SLOAD DUP2 JUMP JUMPDEST PUSH1 0x7 SLOAD DUP2 JUMP JUMPDEST PUSH2 0x1471 PUSH2 0x191F JUMP JUMPDEST PUSH1 0x4 SLOAD TIMESTAMP GT PUSH2 0x14B5 JUMPI PUSH1 0x40 MLOAD PUSH32 0x8C379A000000000000000000000000000000000000000000000000000000000 DUP2 MSTORE PUSH1 0x4 ADD PUSH2 0x14AC SWAP1 PUSH2 0x23A8 JUMP JUMPDEST PUSH1 0x40 MLOAD DUP1 SWAP2 SUB SWAP1 REVERT JUMPDEST DUP1 PUSH1 0x6 DUP2 SWAP1 SSTORE POP PUSH32 0xFB46CA5A5E06D4540D6387B930A7C978BCE0DB5F449EC6B3F5D07C6E1D44F2D3 PUSH1 0x6 SLOAD PUSH1 0x40 MLOAD PUSH2 0x14ED SWAP2 SWAP1 PUSH2 0x2588 JUMP JUMPDEST PUSH1 0x40 MLOAD DUP1 SWAP2 SUB SWAP1 LOG1 POP JUMP JUMPDEST PUSH1 0x0 DUP1 PUSH1 0xD SLOAD EQ ISZERO PUSH2 0x150E JUMPI PUSH1 0x8 SLOAD SWAP1 POP PUSH2 0x157D JUMP JUMPDEST PUSH2 0x157A PUSH2 0x1569 PUSH1 0xD SLOAD PUSH2 0x155B PUSH1 0x9 SLOAD PUSH2 0x154D PUSH1 0x5 SLOAD PUSH2 0x153F PUSH1 0x7 SLOAD PUSH2 0x1531 PUSH2 0xF95 JUMP JUMPDEST PUSH2 0x1797 SWAP1 SWAP2 SWAP1 PUSH4 0xFFFFFFFF AND JUMP JUMPDEST PUSH2 0x16D2 SWAP1 SWAP2 SWAP1 PUSH4 0xFFFFFFFF AND JUMP JUMPDEST PUSH2 0x16D2 SWAP1 SWAP2 SWAP1 PUSH4 0xFFFFFFFF AND JUMP JUMPDEST PUSH2 0x1688 SWAP1 SWAP2 SWAP1 PUSH4 0xFFFFFFFF AND JUMP JUMPDEST PUSH1 0x8 SLOAD PUSH2 0x17E1 SWAP1 SWAP2 SWAP1 PUSH4 0xFFFFFFFF AND JUMP JUMPDEST SWAP1 POP JUMPDEST SWAP1 JUMP JUMPDEST PUSH1 0x2 PUSH1 0x0 SWAP1 SLOAD SWAP1 PUSH2 0x100 EXP SWAP1 DIV PUSH20 0xFFFFFFFFFFFFFFFFFFFFFFFFFFFFFFFFFFFFFFFF AND DUP2 JUMP JUMPDEST PUSH1 0x8 SLOAD DUP2 JUMP JUMPDEST PUSH2 0x15F4 PUSH1 0xE PUSH1 0x0 CALLER PUSH20 0xFFFFFFFFFFFFFFFFFFFFFFFFFFFFFFFFFFFFFFFF AND PUSH20 0xFFFFFFFFFFFFFFFFFFFFFFFFFFFFFFFFFFFFFFFF AND DUP2 MSTORE PUSH1 0x20 ADD SWAP1 DUP2 MSTORE PUSH1 0x20 ADD PUSH1 0x0 KECCAK256 SLOAD PUSH2 0x6B5 JUMP JUMPDEST PUSH2 0x15FC PUSH2 0xCB6 JUMP JUMPDEST JUMP JUMPDEST PUSH1 0x4 SLOAD DUP2 JUMP JUMPDEST PUSH2 0x160C PUSH2 0x191F JUMP JUMPDEST PUSH1 0x0 PUSH20 0xFFFFFFFFFFFFFFFFFFFFFFFFFFFFFFFFFFFFFFFF AND DUP2 PUSH20 0xFFFFFFFFFFFFFFFFFFFFFFFFFFFFFFFFFFFFFFFF AND EQ ISZERO PUSH2 0x167C JUMPI PUSH1 0x40 MLOAD PUSH32 0x8C379A000000000000000000000000000000000000000000000000000000000 DUP2 MSTORE PUSH1 0x4 ADD PUSH2 0x1673 SWAP1 PUSH2 0x23C8 JUMP JUMPDEST PUSH1 0x40 MLOAD DUP1 SWAP2 SUB SWAP1 REVERT JUMPDEST PUSH2 0x1685 DUP2 PUSH2 0x199D JUMP JUMPDEST POP JUMP JUMPDEST PUSH1 0x0 PUSH2 0x16CA DUP4 DUP4 PUSH1 0x40 MLOAD DUP1 PUSH1 0x40 ADD PUSH1 0x40 MSTORE DUP1 PUSH1 0x1A DUP2 MSTORE PUSH1 0x20 ADD PUSH32 0x536166654D6174683A206469766973696F6E206279207A65726F000000000000 DUP2 MSTORE POP PUSH2 0x1AE9 JUMP JUMPDEST SWAP1 POP SWAP3 SWAP2 POP POP JUMP JUMPDEST PUSH1 0x0 DUP1 DUP4 EQ ISZERO PUSH2 0x16E5 JUMPI PUSH1 0x0 SWAP1 POP PUSH2 0x1747 JUMP JUMPDEST PUSH1 0x0 DUP3 DUP5 PUSH2 0x16F3 SWAP2 SWAP1 PUSH2 0x265C JUMP JUMPDEST SWAP1 POP DUP3 DUP5 DUP3 PUSH2 0x1702 SWAP2 SWAP1 PUSH2 0x262B JUMP JUMPDEST EQ PUSH2 0x1742 JUMPI PUSH1 0x40 MLOAD PUSH32 0x8C379A000000000000000000000000000000000000000000000000000000000 DUP2 MSTORE PUSH1 0x4 ADD PUSH2 0x1739 SWAP1 PUSH2 0x24A8 JUMP JUMPDEST PUSH1 0x40 MLOAD DUP1 SWAP2 SUB SWAP1 REVERT JUMPDEST DUP1 SWAP2 POP POP JUMPDEST SWAP3 SWAP2 POP POP JUMP JUMPDEST PUSH1 0x0 PUSH2 0x178F DUP4 DUP4 PUSH1 0x40 MLOAD DUP1 PUSH1 0x40 ADD PUSH1 0x40 MSTORE DUP1 PUSH1 0x18 DUP2 MSTORE PUSH1 0x20 ADD PUSH32 0x536166654D6174683A206D6F64756C6F206279207A65726F0000000000000000 DUP2 MSTORE POP PUSH2 0x1B4C JUMP JUMPDEST SWAP1 POP SWAP3 SWAP2 POP POP JUMP JUMPDEST PUSH1 0x0 PUSH2 0x17D9 DUP4 DUP4 PUSH1 0x40 MLOAD DUP1 PUSH1 0x40 ADD PUSH1 0x40 MSTORE DUP1 PUSH1 0x1E DUP2 MSTORE PUSH1 0x20 ADD PUSH32 0x536166654D6174683A207375627472616374696F6E206F766572666C6F770000 DUP2 MSTORE POP PUSH2 0x1BAA JUMP JUMPDEST SWAP1 POP SWAP3 SWAP2 POP POP JUMP JUMPDEST PUSH1 0x0 DUP1 DUP3 DUP5 PUSH2 0x17F0 SWAP2 SWAP1 PUSH2 0x25D5 JUMP JUMPDEST SWAP1 POP DUP4 DUP2 LT ISZERO PUSH2 0x1835 JUMPI PUSH1 0x40 MLOAD PUSH32 0x8C379A000000000000000000000000000000000000000000000000000000000 DUP2 MSTORE PUSH1 0x4 ADD PUSH2 0x182C SWAP1 PUSH2 0x2408 JUMP JUMPDEST PUSH1 0x40 MLOAD DUP1 SWAP2 SUB SWAP1 REVERT JUMPDEST DUP1 SWAP2 POP POP SWAP3 SWAP2 POP POP JUMP JUMPDEST PUSH1 0x2 PUSH1 0x0 SLOAD EQ ISZERO PUSH2 0x1885 JUMPI PUSH1 0x40 MLOAD PUSH32 0x8C379A000000000000000000000000000000000000000000000000000000000 DUP2 MSTORE PUSH1 0x4 ADD PUSH2 0x187C SWAP1 PUSH2 0x2568 JUMP JUMPDEST PUSH1 0x40 MLOAD DUP1 SWAP2 SUB SWAP1 REVERT JUMPDEST PUSH1 0x2 PUSH1 0x0 DUP2 SWAP1 SSTORE POP JUMP JUMPDEST PUSH2 0x1910 DUP4 PUSH4 0xA9059CBB PUSH1 0xE0 SHL DUP5 DUP5 PUSH1 0x40 MLOAD PUSH1 0x24 ADD PUSH2 0x18AE SWAP3 SWAP2 SWAP1 PUSH2 0x2327 JUMP JUMPDEST PUSH1 0x40 MLOAD PUSH1 0x20 DUP2 DUP4 SUB SUB DUP2 MSTORE SWAP1 PUSH1 0x40 MSTORE SWAP1 PUSH28 0xFFFFFFFFFFFFFFFFFFFFFFFFFFFFFFFFFFFFFFFFFFFFFFFFFFFFFFFF NOT AND PUSH1 0x20 DUP3 ADD DUP1 MLOAD PUSH28 0xFFFFFFFFFFFFFFFFFFFFFFFFFFFFFFFFFFFFFFFFFFFFFFFFFFFFFFFF DUP4 DUP2 DUP4 AND OR DUP4 MSTORE POP POP POP POP PUSH2 0x1C0E JUMP JUMPDEST POP POP POP JUMP JUMPDEST PUSH1 0x1 PUSH1 0x0 DUP2 SWAP1 SSTORE POP JUMP JUMPDEST PUSH2 0x1927 PUSH2 0x1CD5 JUMP JUMPDEST PUSH20 0xFFFFFFFFFFFFFFFFFFFFFFFFFFFFFFFFFFFFFFFF AND PUSH2 0x1945 PUSH2 0x115D JUMP JUMPDEST PUSH20 0xFFFFFFFFFFFFFFFFFFFFFFFFFFFFFFFFFFFFFFFF AND EQ PUSH2 0x199B JUMPI PUSH1 0x40 MLOAD PUSH32 0x8C379A000000000000000000000000000000000000000000000000000000000 DUP2 MSTORE PUSH1 0x4 ADD PUSH2 0x1992 SWAP1 PUSH2 0x24C8 JUMP JUMPDEST PUSH1 0x40 MLOAD DUP1 SWAP2 SUB SWAP1 REVERT JUMPDEST JUMP JUMPDEST PUSH1 0x0 PUSH1 0x1 DUP1 SLOAD SWAP1 PUSH2 0x100 EXP SWAP1 DIV PUSH20 0xFFFFFFFFFFFFFFFFFFFFFFFFFFFFFFFFFFFFFFFF AND SWAP1 POP DUP2 PUSH1 0x1 DUP1 PUSH2 0x100 EXP DUP2 SLOAD DUP2 PUSH20 0xFFFFFFFFFFFFFFFFFFFFFFFFFFFFFFFFFFFFFFFF MUL NOT AND SWAP1 DUP4 PUSH20 0xFFFFFFFFFFFFFFFFFFFFFFFFFFFFFFFFFFFFFFFF AND MUL OR SWAP1 SSTORE POP DUP2 PUSH20 0xFFFFFFFFFFFFFFFFFFFFFFFFFFFFFFFFFFFFFFFF AND DUP2 PUSH20 0xFFFFFFFFFFFFFFFFFFFFFFFFFFFFFFFFFFFFFFFF AND PUSH32 0x8BE0079C531659141344CD1FD0A4F28419497F9722A3DAAFE3B4186F6B6457E0 PUSH1 0x40 MLOAD PUSH1 0x40 MLOAD DUP1 SWAP2 SUB SWAP1 LOG3 POP POP JUMP JUMPDEST PUSH2 0x1AE3 DUP5 PUSH4 0x23B872DD PUSH1 0xE0 SHL DUP6 DUP6 DUP6 PUSH1 0x40 MLOAD PUSH1 0x24 ADD PUSH2 0x1A81 SWAP4 SWAP3 SWAP2 SWAP1 PUSH2 0x22F0 JUMP JUMPDEST PUSH1 0x40 MLOAD PUSH1 0x20 DUP2 DUP4 SUB SUB DUP2 MSTORE SWAP1 PUSH1 0x40 MSTORE SWAP1 PUSH28 0xFFFFFFFFFFFFFFFFFFFFFFFFFFFFFFFFFFFFFFFFFFFFFFFFFFFFFFFF NOT AND PUSH1 0x20 DUP3 ADD DUP1 MLOAD PUSH28 0xFFFFFFFFFFFFFFFFFFFFFFFFFFFFFFFFFFFFFFFFFFFFFFFFFFFFFFFF DUP4 DUP2 DUP4 AND OR DUP4 MSTORE POP POP POP POP PUSH2 0x1C0E JUMP JUMPDEST POP POP POP POP JUMP JUMPDEST PUSH1 0x0 DUP1 DUP4 GT DUP3 SWAP1 PUSH2 0x1B30 JUMPI PUSH1 0x40 MLOAD PUSH32 0x8C379A000000000000000000000000000000000000000000000000000000000 DUP2 MSTORE PUSH1 0x4 ADD PUSH2 0x1B27 SWAP2 SWAP1 PUSH2 0x2386 JUMP JUMPDEST PUSH1 0x40 MLOAD DUP1 SWAP2 SUB SWAP1 REVERT JUMPDEST POP PUSH1 0x0 DUP4 DUP6 PUSH2 0x1B3F SWAP2 SWAP1 PUSH2 0x262B JUMP JUMPDEST SWAP1 POP DUP1 SWAP2 POP POP SWAP4 SWAP3 POP POP POP JUMP JUMPDEST PUSH1 0x0 DUP1 DUP4 EQ ISZERO DUP3 SWAP1 PUSH2 0x1B94 JUMPI PUSH1 0x40 MLOAD PUSH32 0x8C379A000000000000000000000000000000000000000000000000000000000 DUP2 MSTORE PUSH1 0x4 ADD PUSH2 0x1B8B SWAP2 SWAP1 PUSH2 0x2386 JUMP JUMPDEST PUSH1 0x40 MLOAD DUP1 SWAP2 SUB SWAP1 REVERT JUMPDEST POP DUP3 DUP5 PUSH2 0x1BA1 SWAP2 SWAP1 PUSH2 0x279B JUMP JUMPDEST SWAP1 POP SWAP4 SWAP3 POP POP POP JUMP JUMPDEST PUSH1 0x0 DUP4 DUP4 GT ISZERO DUP3 SWAP1 PUSH2 0x1BF2 JUMPI PUSH1 0x40 MLOAD PUSH32 0x8C379A000000000000000000000000000000000000000000000000000000000 DUP2 MSTORE PUSH1 0x4 ADD PUSH2 0x1BE9 SWAP2 SWAP1 PUSH2 0x2386 JUMP JUMPDEST PUSH1 0x40 MLOAD DUP1 SWAP2 SUB SWAP1 REVERT JUMPDEST POP PUSH1 0x0 DUP4 DUP6 PUSH2 0x1C01 SWAP2 SWAP1 PUSH2 0x26B6 JUMP JUMPDEST SWAP1 POP DUP1 SWAP2 POP POP SWAP4 SWAP3 POP POP POP JUMP JUMPDEST PUSH1 0x0 PUSH2 0x1C70 DUP3 PUSH1 0x40 MLOAD DUP1 PUSH1 0x40 ADD PUSH1 0x40 MSTORE DUP1 PUSH1 0x20 DUP2 MSTORE PUSH1 0x20 ADD PUSH32 0x5361666545524332303A206C6F772D6C6576656C2063616C6C206661696C6564 DUP2 MSTORE POP DUP6 PUSH20 0xFFFFFFFFFFFFFFFFFFFFFFFFFFFFFFFFFFFFFFFF AND PUSH2 0x1CDD SWAP1 SWAP3 SWAP2 SWAP1 PUSH4 0xFFFFFFFF AND JUMP JUMPDEST SWAP1 POP PUSH1 0x0 DUP2 MLOAD GT ISZERO PUSH2 0x1CD0 JUMPI DUP1 DUP1 PUSH1 0x20 ADD SWAP1 MLOAD DUP2 ADD SWAP1 PUSH2 0x1C90 SWAP2 SWAP1 PUSH2 0x1F44 JUMP JUMPDEST PUSH2 0x1CCF JUMPI PUSH1 0x40 MLOAD PUSH32 0x8C379A000000000000000000000000000000000000000000000000000000000 DUP2 MSTORE PUSH1 0x4 ADD PUSH2 0x1CC6 SWAP1 PUSH2 0x2548 JUMP JUMPDEST PUSH1 0x40 MLOAD DUP1 SWAP2 SUB SWAP1 REVERT JUMPDEST JUMPDEST POP POP POP JUMP JUMPDEST PUSH1 0x0 CALLER SWAP1 POP SWAP1 JUMP JUMPDEST PUSH1 0x60 PUSH2 0x1CEC DUP5 DUP5 PUSH1 0x0 DUP6 PUSH2 0x1CF5 JUMP JUMPDEST SWAP1 POP SWAP4 SWAP3 POP POP POP JUMP JUMPDEST PUSH1 0x60 DUP3 SELFBALANCE LT ISZERO PUSH2 0x1D3A JUMPI PUSH1 0x40 MLOAD PUSH32 0x8C379A000000000000000000000000000000000000000000000000000000000 DUP2 MSTORE PUSH1 0x4 ADD PUSH2 0x1D31 SWAP1 PUSH2 0x2448 JUMP JUMPDEST PUSH1 0x40 MLOAD DUP1 SWAP2 SUB SWAP1 REVERT JUMPDEST PUSH2 0x1D43 DUP6 PUSH2 0x1E09 JUMP JUMPDEST PUSH2 0x1D82 JUMPI PUSH1 0x40 MLOAD PUSH32 0x8C379A000000000000000000000000000000000000000000000000000000000 DUP2 MSTORE PUSH1 0x4 ADD PUSH2 0x1D79 SWAP1 PUSH2 0x2528 JUMP JUMPDEST PUSH1 0x40 MLOAD DUP1 SWAP2 SUB SWAP1 REVERT JUMPDEST PUSH1 0x0 DUP1 DUP7 PUSH20 0xFFFFFFFFFFFFFFFFFFFFFFFFFFFFFFFFFFFFFFFF AND DUP6 DUP8 PUSH1 0x40 MLOAD PUSH2 0x1DAB SWAP2 SWAP1 PUSH2 0x22BE JUMP JUMPDEST PUSH1 0x0 PUSH1 0x40 MLOAD DUP1 DUP4 SUB DUP2 DUP6 DUP8 GAS CALL SWAP3 POP POP POP RETURNDATASIZE DUP1 PUSH1 0x0 DUP2 EQ PUSH2 0x1DE8 JUMPI PUSH1 0x40 MLOAD SWAP2 POP PUSH1 0x1F NOT PUSH1 0x3F RETURNDATASIZE ADD AND DUP3 ADD PUSH1 0x40 MSTORE RETURNDATASIZE DUP3 MSTORE RETURNDATASIZE PUSH1 0x0 PUSH1 0x20 DUP5 ADD RETURNDATACOPY PUSH2 0x1DED JUMP JUMPDEST PUSH1 0x60 SWAP2 POP JUMPDEST POP SWAP2 POP SWAP2 POP PUSH2 0x1DFD DUP3 DUP3 DUP7 PUSH2 0x1E1C JUMP JUMPDEST SWAP3 POP POP POP SWAP5 SWAP4 POP POP POP POP JUMP JUMPDEST PUSH1 0x0 DUP1 DUP3 EXTCODESIZE SWAP1 POP PUSH1 0x0 DUP2 GT SWAP2 POP POP SWAP2 SWAP1 POP JUMP JUMPDEST PUSH1 0x60 DUP4 ISZERO PUSH2 0x1E2C JUMPI DUP3 SWAP1 POP PUSH2 0x1E7C JUMP JUMPDEST PUSH1 0x0 DUP4 MLOAD GT ISZERO PUSH2 0x1E3F JUMPI DUP3 MLOAD DUP1 DUP5 PUSH1 0x20 ADD REVERT JUMPDEST DUP2 PUSH1 0x40 MLOAD PUSH32 0x8C379A000000000000000000000000000000000000000000000000000000000 DUP2 MSTORE PUSH1 0x4 ADD PUSH2 0x1E73 SWAP2 SWAP1 PUSH2 0x2386 JUMP JUMPDEST PUSH1 0x40 MLOAD DUP1 SWAP2 SUB SWAP1 REVERT JUMPDEST SWAP4 SWAP3 POP POP POP JUMP JUMPDEST PUSH1 0x0 DUP2 CALLDATALOAD SWAP1 POP PUSH2 0x1E92 DUP2 PUSH2 0x2BD7 JUMP JUMPDEST SWAP3 SWAP2 POP POP JUMP JUMPDEST PUSH1 0x0 DUP2 MLOAD SWAP1 POP PUSH2 0x1EA7 DUP2 PUSH2 0x2BEE JUMP JUMPDEST SWAP3 SWAP2 POP POP JUMP JUMPDEST PUSH1 0x0 DUP2 CALLDATALOAD SWAP1 POP PUSH2 0x1EBC DUP2 PUSH2 0x2C05 JUMP JUMPDEST SWAP3 SWAP2 POP POP JUMP JUMPDEST PUSH1 0x0 DUP2 MLOAD SWAP1 POP PUSH2 0x1ED1 DUP2 PUSH2 0x2C05 JUMP JUMPDEST SWAP3 SWAP2 POP POP JUMP JUMPDEST PUSH1 0x0 PUSH1 0x20 DUP3 DUP5 SUB SLT ISZERO PUSH2 0x1EED JUMPI PUSH2 0x1EEC PUSH2 0x282A JUMP JUMPDEST JUMPDEST PUSH1 0x0 PUSH2 0x1EFB DUP5 DUP3 DUP6 ADD PUSH2 0x1E83 JUMP JUMPDEST SWAP2 POP POP SWAP3 SWAP2 POP POP JUMP JUMPDEST PUSH1 0x0 DUP1 PUSH1 0x40 DUP4 DUP6 SUB SLT ISZERO PUSH2 0x1F1B JUMPI PUSH2 0x1F1A PUSH2 0x282A JUMP JUMPDEST JUMPDEST PUSH1 0x0 PUSH2 0x1F29 DUP6 DUP3 DUP7 ADD PUSH2 0x1E83 JUMP JUMPDEST SWAP3 POP POP PUSH1 0x20 PUSH2 0x1F3A DUP6 DUP3 DUP7 ADD PUSH2 0x1EAD JUMP JUMPDEST SWAP2 POP POP SWAP3 POP SWAP3 SWAP1 POP JUMP JUMPDEST PUSH1 0x0 PUSH1 0x20 DUP3 DUP5 SUB SLT ISZERO PUSH2 0x1F5A JUMPI PUSH2 0x1F59 PUSH2 0x282A JUMP JUMPDEST JUMPDEST PUSH1 0x0 PUSH2 0x1F68 DUP5 DUP3 DUP6 ADD PUSH2 0x1E98 JUMP JUMPDEST SWAP2 POP POP SWAP3 SWAP2 POP POP JUMP JUMPDEST PUSH1 0x0 PUSH1 0x20 DUP3 DUP5 SUB SLT ISZERO PUSH2 0x1F87 JUMPI PUSH2 0x1F86 PUSH2 0x282A JUMP JUMPDEST JUMPDEST PUSH1 0x0 PUSH2 0x1F95 DUP5 DUP3 DUP6 ADD PUSH2 0x1EAD JUMP JUMPDEST SWAP2 POP POP SWAP3 SWAP2 POP POP JUMP JUMPDEST PUSH1 0x0 PUSH1 0x20 DUP3 DUP5 SUB SLT ISZERO PUSH2 0x1FB4 JUMPI PUSH2 0x1FB3 PUSH2 0x282A JUMP JUMPDEST JUMPDEST PUSH1 0x0 PUSH2 0x1FC2 DUP5 DUP3 DUP6 ADD PUSH2 0x1EC2 JUMP JUMPDEST SWAP2 POP POP SWAP3 SWAP2 POP POP JUMP JUMPDEST PUSH1 0x0 DUP1 PUSH1 0x40 DUP4 DUP6 SUB SLT ISZERO PUSH2 0x1FE2 JUMPI PUSH2 0x1FE1 PUSH2 0x282A JUMP JUMPDEST JUMPDEST PUSH1 0x0 PUSH2 0x1FF0 DUP6 DUP3 DUP7 ADD PUSH2 0x1EAD JUMP JUMPDEST SWAP3 POP POP PUSH1 0x20 PUSH2 0x2001 DUP6 DUP3 DUP7 ADD PUSH2 0x1EAD JUMP JUMPDEST SWAP2 POP POP SWAP3 POP SWAP3 SWAP1 POP JUMP JUMPDEST PUSH2 0x2014 DUP2 PUSH2 0x26EA JUMP JUMPDEST DUP3 MSTORE POP POP JUMP JUMPDEST PUSH2 0x2023 DUP2 PUSH2 0x26FC JUMP JUMPDEST DUP3 MSTORE POP POP JUMP JUMPDEST PUSH1 0x0 PUSH2 0x2034 DUP3 PUSH2 0x25A3 JUMP JUMPDEST PUSH2 0x203E DUP2 DUP6 PUSH2 0x25B9 JUMP JUMPDEST SWAP4 POP PUSH2 0x204E DUP2 DUP6 PUSH1 0x20 DUP7 ADD PUSH2 0x2768 JUMP JUMPDEST DUP1 DUP5 ADD SWAP2 POP POP SWAP3 SWAP2 POP POP JUMP JUMPDEST PUSH2 0x2063 DUP2 PUSH2 0x2732 JUMP JUMPDEST DUP3 MSTORE POP POP JUMP JUMPDEST PUSH1 0x0 PUSH2 0x2074 DUP3 PUSH2 0x25AE JUMP JUMPDEST PUSH2 0x207E DUP2 DUP6 PUSH2 0x25C4 JUMP JUMPDEST SWAP4 POP PUSH2 0x208E DUP2 DUP6 PUSH1 0x20 DUP7 ADD PUSH2 0x2768 JUMP JUMPDEST PUSH2 0x2097 DUP2 PUSH2 0x282F JUMP JUMPDEST DUP5 ADD SWAP2 POP POP SWAP3 SWAP2 POP POP JUMP JUMPDEST PUSH1 0x0 PUSH2 0x20AF PUSH1 0x58 DUP4 PUSH2 0x25C4 JUMP JUMPDEST SWAP2 POP PUSH2 0x20BA DUP3 PUSH2 0x2840 JUMP JUMPDEST PUSH1 0x60 DUP3 ADD SWAP1 POP SWAP2 SWAP1 POP JUMP JUMPDEST PUSH1 0x0 PUSH2 0x20D2 PUSH1 0x26 DUP4 PUSH2 0x25C4 JUMP JUMPDEST SWAP2 POP PUSH2 0x20DD DUP3 PUSH2 0x28B5 JUMP JUMPDEST PUSH1 0x40 DUP3 ADD SWAP1 POP SWAP2 SWAP1 POP JUMP JUMPDEST PUSH1 0x0 PUSH2 0x20F5 PUSH1 0xE DUP4 PUSH2 0x25C4 JUMP JUMPDEST SWAP2 POP PUSH2 0x2100 DUP3 PUSH2 0x2904 JUMP JUMPDEST PUSH1 0x20 DUP3 ADD SWAP1 POP SWAP2 SWAP1 POP JUMP JUMPDEST PUSH1 0x0 PUSH2 0x2118 PUSH1 0x1B DUP4 PUSH2 0x25C4 JUMP JUMPDEST SWAP2 POP PUSH2 0x2123 DUP3 PUSH2 0x292D JUMP JUMPDEST PUSH1 0x20 DUP3 ADD SWAP1 POP SWAP2 SWAP1 POP JUMP JUMPDEST PUSH1 0x0 PUSH2 0x213B PUSH1 0x22 DUP4 PUSH2 0x25C4 JUMP JUMPDEST SWAP2 POP PUSH2 0x2146 DUP3 PUSH2 0x2956 JUMP JUMPDEST PUSH1 0x40 DUP3 ADD SWAP1 POP SWAP2 SWAP1 POP JUMP JUMPDEST PUSH1 0x0 PUSH2 0x215E PUSH1 0x26 DUP4 PUSH2 0x25C4 JUMP JUMPDEST SWAP2 POP PUSH2 0x2169 DUP3 PUSH2 0x29A5 JUMP JUMPDEST PUSH1 0x40 DUP3 ADD SWAP1 POP SWAP2 SWAP1 POP JUMP JUMPDEST PUSH1 0x0 PUSH2 0x2181 PUSH1 0x10 DUP4 PUSH2 0x25C4 JUMP JUMPDEST SWAP2 POP PUSH2 0x218C DUP3 PUSH2 0x29F4 JUMP JUMPDEST PUSH1 0x20 DUP3 ADD SWAP1 POP SWAP2 SWAP1 POP JUMP JUMPDEST PUSH1 0x0 PUSH2 0x21A4 PUSH1 0x11 DUP4 PUSH2 0x25C4 JUMP JUMPDEST SWAP2 POP PUSH2 0x21AF DUP3 PUSH2 0x2A1D JUMP JUMPDEST PUSH1 0x20 DUP3 ADD SWAP1 POP SWAP2 SWAP1 POP JUMP JUMPDEST PUSH1 0x0 PUSH2 0x21C7 PUSH1 0x21 DUP4 PUSH2 0x25C4 JUMP JUMPDEST SWAP2 POP PUSH2 0x21D2 DUP3 PUSH2 0x2A46 JUMP JUMPDEST PUSH1 0x40 DUP3 ADD SWAP1 POP SWAP2 SWAP1 POP JUMP JUMPDEST PUSH1 0x0 PUSH2 0x21EA PUSH1 0x20 DUP4 PUSH2 0x25C4 JUMP JUMPDEST SWAP2 POP PUSH2 0x21F5 DUP3 PUSH2 0x2A95 JUMP JUMPDEST PUSH1 0x20 DUP3 ADD SWAP1 POP SWAP2 SWAP1 POP JUMP JUMPDEST PUSH1 0x0 PUSH2 0x220D PUSH1 0x22 DUP4 PUSH2 0x25C4 JUMP JUMPDEST SWAP2 POP PUSH2 0x2218 DUP3 PUSH2 0x2ABE JUMP JUMPDEST PUSH1 0x40 DUP3 ADD SWAP1 POP SWAP2 SWAP1 POP JUMP JUMPDEST PUSH1 0x0 PUSH2 0x2230 PUSH1 0x18 DUP4 PUSH2 0x25C4 JUMP JUMPDEST SWAP2 POP PUSH2 0x223B DUP3 PUSH2 0x2B0D JUMP JUMPDEST PUSH1 0x20 DUP3 ADD SWAP1 POP SWAP2 SWAP1 POP JUMP JUMPDEST PUSH1 0x0 PUSH2 0x2253 PUSH1 0x1D DUP4 PUSH2 0x25C4 JUMP JUMPDEST SWAP2 POP PUSH2 0x225E DUP3 PUSH2 0x2B36 JUMP JUMPDEST PUSH1 0x20 DUP3 ADD SWAP1 POP SWAP2 SWAP1 POP JUMP JUMPDEST PUSH1 0x0 PUSH2 0x2276 PUSH1 0x2A DUP4 PUSH2 0x25C4 JUMP JUMPDEST SWAP2 POP PUSH2 0x2281 DUP3 PUSH2 0x2B5F JUMP JUMPDEST PUSH1 0x40 DUP3 ADD SWAP1 POP SWAP2 SWAP1 POP JUMP JUMPDEST PUSH1 0x0 PUSH2 0x2299 PUSH1 0x1F DUP4 PUSH2 0x25C4 JUMP JUMPDEST SWAP2 POP PUSH2 0x22A4 DUP3 PUSH2 0x2BAE JUMP JUMPDEST PUSH1 0x20 DUP3 ADD SWAP1 POP SWAP2 SWAP1 POP JUMP JUMPDEST PUSH2 0x22B8 DUP2 PUSH2 0x2728 JUMP JUMPDEST DUP3 MSTORE POP POP JUMP JUMPDEST PUSH1 0x0 PUSH2 0x22CA DUP3 DUP5 PUSH2 0x2029 JUMP JUMPDEST SWAP2 POP DUP2 SWAP1 POP SWAP3 SWAP2 POP POP JUMP JUMPDEST PUSH1 0x0 PUSH1 0x20 DUP3 ADD SWAP1 POP PUSH2 0x22EA PUSH1 0x0 DUP4 ADD DUP5 PUSH2 0x200B JUMP JUMPDEST SWAP3 SWAP2 POP POP JUMP JUMPDEST PUSH1 0x0 PUSH1 0x60 DUP3 ADD SWAP1 POP PUSH2 0x2305 PUSH1 0x0 DUP4 ADD DUP7 PUSH2 0x200B JUMP JUMPDEST PUSH2 0x2312 PUSH1 0x20 DUP4 ADD DUP6 PUSH2 0x200B JUMP JUMPDEST PUSH2 0x231F PUSH1 0x40 DUP4 ADD DUP5 PUSH2 0x22AF JUMP JUMPDEST SWAP5 SWAP4 POP POP POP POP JUMP JUMPDEST PUSH1 0x0 PUSH1 0x40 DUP3 ADD SWAP1 POP PUSH2 0x233C PUSH1 0x0 DUP4 ADD DUP6 PUSH2 0x200B JUMP JUMPDEST PUSH2 0x2349 PUSH1 0x20 DUP4 ADD DUP5 PUSH2 0x22AF JUMP JUMPDEST SWAP4 SWAP3 POP POP POP JUMP JUMPDEST PUSH1 0x0 PUSH1 0x20 DUP3 ADD SWAP1 POP PUSH2 0x2365 PUSH1 0x0 DUP4 ADD DUP5 PUSH2 0x201A JUMP JUMPDEST SWAP3 SWAP2 POP POP JUMP JUMPDEST PUSH1 0x0 PUSH1 0x20 DUP3 ADD SWAP1 POP PUSH2 0x2380 PUSH1 0x0 DUP4 ADD DUP5 PUSH2 0x205A JUMP JUMPDEST SWAP3 SWAP2 POP POP JUMP JUMPDEST PUSH1 0x0 PUSH1 0x20 DUP3 ADD SWAP1 POP DUP2 DUP2 SUB PUSH1 0x0 DUP4 ADD MSTORE PUSH2 0x23A0 DUP2 DUP5 PUSH2 0x2069 JUMP JUMPDEST SWAP1 POP SWAP3 SWAP2 POP POP JUMP JUMPDEST PUSH1 0x0 PUSH1 0x20 DUP3 ADD SWAP1 POP DUP2 DUP2 SUB PUSH1 0x0 DUP4 ADD MSTORE PUSH2 0x23C1 DUP2 PUSH2 0x20A2 JUMP JUMPDEST SWAP1 POP SWAP2 SWAP1 POP JUMP JUMPDEST PUSH1 0x0 PUSH1 0x20 DUP3 ADD SWAP1 POP DUP2 DUP2 SUB PUSH1 0x0 DUP4 ADD MSTORE PUSH2 0x23E1 DUP2 PUSH2 0x20C5 JUMP JUMPDEST SWAP1 POP SWAP2 SWAP1 POP JUMP JUMPDEST PUSH1 0x0 PUSH1 0x20 DUP3 ADD SWAP1 POP DUP2 DUP2 SUB PUSH1 0x0 DUP4 ADD MSTORE PUSH2 0x2401 DUP2 PUSH2 0x20E8 JUMP JUMPDEST SWAP1 POP SWAP2 SWAP1 POP JUMP JUMPDEST PUSH1 0x0 PUSH1 0x20 DUP3 ADD SWAP1 POP DUP2 DUP2 SUB PUSH1 0x0 DUP4 ADD MSTORE PUSH2 0x2421 DUP2 PUSH2 0x210B JUMP JUMPDEST SWAP1 POP SWAP2 SWAP1 POP JUMP JUMPDEST PUSH1 0x0 PUSH1 0x20 DUP3 ADD SWAP1 POP DUP2 DUP2 SUB PUSH1 0x0 DUP4 ADD MSTORE PUSH2 0x2441 DUP2 PUSH2 0x212E JUMP JUMPDEST SWAP1 POP SWAP2 SWAP1 POP JUMP JUMPDEST PUSH1 0x0 PUSH1 0x20 DUP3 ADD SWAP1 POP DUP2 DUP2 SUB PUSH1 0x0 DUP4 ADD MSTORE PUSH2 0x2461 DUP2 PUSH2 0x2151 JUMP JUMPDEST SWAP1 POP SWAP2 SWAP1 POP JUMP JUMPDEST PUSH1 0x0 PUSH1 0x20 DUP3 ADD SWAP1 POP DUP2 DUP2 SUB PUSH1 0x0 DUP4 ADD MSTORE PUSH2 0x2481 DUP2 PUSH2 0x2174 JUMP JUMPDEST SWAP1 POP SWAP2 SWAP1 POP JUMP JUMPDEST PUSH1 0x0 PUSH1 0x20 DUP3 ADD SWAP1 POP DUP2 DUP2 SUB PUSH1 0x0 DUP4 ADD MSTORE PUSH2 0x24A1 DUP2 PUSH2 0x2197 JUMP JUMPDEST SWAP1 POP SWAP2 SWAP1 POP JUMP JUMPDEST PUSH1 0x0 PUSH1 0x20 DUP3 ADD SWAP1 POP DUP2 DUP2 SUB PUSH1 0x0 DUP4 ADD MSTORE PUSH2 0x24C1 DUP2 PUSH2 0x21BA JUMP JUMPDEST SWAP1 POP SWAP2 SWAP1 POP JUMP JUMPDEST PUSH1 0x0 PUSH1 0x20 DUP3 ADD SWAP1 POP DUP2 DUP2 SUB PUSH1 0x0 DUP4 ADD MSTORE PUSH2 0x24E1 DUP2 PUSH2 0x21DD JUMP JUMPDEST SWAP1 POP SWAP2 SWAP1 POP JUMP JUMPDEST PUSH1 0x0 PUSH1 0x20 DUP3 ADD SWAP1 POP DUP2 DUP2 SUB PUSH1 0x0 DUP4 ADD MSTORE PUSH2 0x2501 DUP2 PUSH2 0x2200 JUMP JUMPDEST SWAP1 POP SWAP2 SWAP1 POP JUMP JUMPDEST PUSH1 0x0 PUSH1 0x20 DUP3 ADD SWAP1 POP DUP2 DUP2 SUB PUSH1 0x0 DUP4 ADD MSTORE PUSH2 0x2521 DUP2 PUSH2 0x2223 JUMP JUMPDEST SWAP1 POP SWAP2 SWAP1 POP JUMP JUMPDEST PUSH1 0x0 PUSH1 0x20 DUP3 ADD SWAP1 POP DUP2 DUP2 SUB PUSH1 0x0 DUP4 ADD MSTORE PUSH2 0x2541 DUP2 PUSH2 0x2246 JUMP JUMPDEST SWAP1 POP SWAP2 SWAP1 POP JUMP JUMPDEST PUSH1 0x0 PUSH1 0x20 DUP3 ADD SWAP1 POP DUP2 DUP2 SUB PUSH1 0x0 DUP4 ADD MSTORE PUSH2 0x2561 DUP2 PUSH2 0x2269 JUMP JUMPDEST SWAP1 POP SWAP2 SWAP1 POP JUMP JUMPDEST PUSH1 0x0 PUSH1 0x20 DUP3 ADD SWAP1 POP DUP2 DUP2 SUB PUSH1 0x0 DUP4 ADD MSTORE PUSH2 0x2581 DUP2 PUSH2 0x228C JUMP JUMPDEST SWAP1 POP SWAP2 SWAP1 POP JUMP JUMPDEST PUSH1 0x0 PUSH1 0x20 DUP3 ADD SWAP1 POP PUSH2 0x259D PUSH1 0x0 DUP4 ADD DUP5 PUSH2 0x22AF JUMP JUMPDEST SWAP3 SWAP2 POP POP JUMP JUMPDEST PUSH1 0x0 DUP2 MLOAD SWAP1 POP SWAP2 SWAP1 POP JUMP JUMPDEST PUSH1 0x0 DUP2 MLOAD SWAP1 POP SWAP2 SWAP1 POP JUMP JUMPDEST PUSH1 0x0 DUP2 SWAP1 POP SWAP3 SWAP2 POP POP JUMP JUMPDEST PUSH1 0x0 DUP3 DUP3 MSTORE PUSH1 0x20 DUP3 ADD SWAP1 POP SWAP3 SWAP2 POP POP JUMP JUMPDEST PUSH1 0x0 PUSH2 0x25E0 DUP3 PUSH2 0x2728 JUMP JUMPDEST SWAP2 POP PUSH2 0x25EB DUP4 PUSH2 0x2728 JUMP JUMPDEST SWAP3 POP DUP3 PUSH32 0xFFFFFFFFFFFFFFFFFFFFFFFFFFFFFFFFFFFFFFFFFFFFFFFFFFFFFFFFFFFFFFFF SUB DUP3 GT ISZERO PUSH2 0x2620 JUMPI PUSH2 0x261F PUSH2 0x27CC JUMP JUMPDEST JUMPDEST DUP3 DUP3 ADD SWAP1 POP SWAP3 SWAP2 POP POP JUMP JUMPDEST PUSH1 0x0 PUSH2 0x2636 DUP3 PUSH2 0x2728 JUMP JUMPDEST SWAP2 POP PUSH2 0x2641 DUP4 PUSH2 0x2728 JUMP JUMPDEST SWAP3 POP DUP3 PUSH2 0x2651 JUMPI PUSH2 0x2650 PUSH2 0x27FB JUMP JUMPDEST JUMPDEST DUP3 DUP3 DIV SWAP1 POP SWAP3 SWAP2 POP POP JUMP JUMPDEST PUSH1 0x0 PUSH2 0x2667 DUP3 PUSH2 0x2728 JUMP JUMPDEST SWAP2 POP PUSH2 0x2672 DUP4 PUSH2 0x2728 JUMP JUMPDEST SWAP3 POP DUP2 PUSH32 0xFFFFFFFFFFFFFFFFFFFFFFFFFFFFFFFFFFFFFFFFFFFFFFFFFFFFFFFFFFFFFFFF DIV DUP4 GT DUP3 ISZERO ISZERO AND ISZERO PUSH2 0x26AB JUMPI PUSH2 0x26AA PUSH2 0x27CC JUMP JUMPDEST JUMPDEST DUP3 DUP3 MUL SWAP1 POP SWAP3 SWAP2 POP POP JUMP JUMPDEST PUSH1 0x0 PUSH2 0x26C1 DUP3 PUSH2 0x2728 JUMP JUMPDEST SWAP2 POP PUSH2 0x26CC DUP4 PUSH2 0x2728 JUMP JUMPDEST SWAP3 POP DUP3 DUP3 LT ISZERO PUSH2 0x26DF JUMPI PUSH2 0x26DE PUSH2 0x27CC JUMP JUMPDEST JUMPDEST DUP3 DUP3 SUB SWAP1 POP SWAP3 SWAP2 POP POP JUMP JUMPDEST PUSH1 0x0 PUSH2 0x26F5 DUP3 PUSH2 0x2708 JUMP JUMPDEST SWAP1 POP SWAP2 SWAP1 POP JUMP JUMPDEST PUSH1 0x0 DUP2 ISZERO ISZERO SWAP1 POP SWAP2 SWAP1 POP JUMP JUMPDEST PUSH1 0x0 PUSH20 0xFFFFFFFFFFFFFFFFFFFFFFFFFFFFFFFFFFFFFFFF DUP3 AND SWAP1 POP SWAP2 SWAP1 POP JUMP JUMPDEST PUSH1 0x0 DUP2 SWAP1 POP SWAP2 SWAP1 POP JUMP JUMPDEST PUSH1 0x0 PUSH2 0x273D DUP3 PUSH2 0x2744 JUMP JUMPDEST SWAP1 POP SWAP2 SWAP1 POP JUMP JUMPDEST PUSH1 0x0 PUSH2 0x274F DUP3 PUSH2 0x2756 JUMP JUMPDEST SWAP1 POP SWAP2 SWAP1 POP JUMP JUMPDEST PUSH1 0x0 PUSH2 0x2761 DUP3 PUSH2 0x2708 JUMP JUMPDEST SWAP1 POP SWAP2 SWAP1 POP JUMP JUMPDEST PUSH1 0x0 JUMPDEST DUP4 DUP2 LT ISZERO PUSH2 0x2786 JUMPI DUP1 DUP3 ADD MLOAD DUP2 DUP5 ADD MSTORE PUSH1 0x20 DUP2 ADD SWAP1 POP PUSH2 0x276B JUMP JUMPDEST DUP4 DUP2 GT ISZERO PUSH2 0x2795 JUMPI PUSH1 0x0 DUP5 DUP5 ADD MSTORE JUMPDEST POP POP POP POP JUMP JUMPDEST PUSH1 0x0 PUSH2 0x27A6 DUP3 PUSH2 0x2728 JUMP JUMPDEST SWAP2 POP PUSH2 0x27B1 DUP4 PUSH2 0x2728 JUMP JUMPDEST SWAP3 POP DUP3 PUSH2 0x27C1 JUMPI PUSH2 0x27C0 PUSH2 0x27FB JUMP JUMPDEST JUMPDEST DUP3 DUP3 MOD SWAP1 POP SWAP3 SWAP2 POP POP JUMP JUMPDEST PUSH32 0x4E487B7100000000000000000000000000000000000000000000000000000000 PUSH1 0x0 MSTORE PUSH1 0x11 PUSH1 0x4 MSTORE PUSH1 0x24 PUSH1 0x0 REVERT JUMPDEST PUSH32 0x4E487B7100000000000000000000000000000000000000000000000000000000 PUSH1 0x0 MSTORE PUSH1 0x12 PUSH1 0x4 MSTORE PUSH1 0x24 PUSH1 0x0 REVERT JUMPDEST PUSH1 0x0 DUP1 REVERT JUMPDEST PUSH1 0x0 PUSH1 0x1F NOT PUSH1 0x1F DUP4 ADD AND SWAP1 POP SWAP2 SWAP1 POP JUMP JUMPDEST PUSH32 0x50726576696F7573207265776172647320706572696F64206D75737420626520 PUSH1 0x0 DUP3 ADD MSTORE PUSH32 0x636F6D706C657465206265666F7265206368616E67696E672074686520647572 PUSH1 0x20 DUP3 ADD MSTORE PUSH32 0x6174696F6E20666F7220746865206E657720706572696F640000000000000000 PUSH1 0x40 DUP3 ADD MSTORE POP JUMP JUMPDEST PUSH32 0x4F776E61626C653A206E6577206F776E657220697320746865207A65726F2061 PUSH1 0x0 DUP3 ADD MSTORE PUSH32 0x6464726573730000000000000000000000000000000000000000000000000000 PUSH1 0x20 DUP3 ADD MSTORE POP JUMP JUMPDEST PUSH32 0x43616E6E6F74207374616B652030000000000000000000000000000000000000 PUSH1 0x0 DUP3 ADD MSTORE POP JUMP JUMPDEST PUSH32 0x536166654D6174683A206164646974696F6E206F766572666C6F770000000000 PUSH1 0x0 DUP3 ADD MSTORE POP JUMP JUMPDEST PUSH32 0x43616E6E6F7420776974686472617720746865207265776172647320746F6B65 PUSH1 0x0 DUP3 ADD MSTORE PUSH32 0x6E73000000000000000000000000000000000000000000000000000000000000 PUSH1 0x20 DUP3 ADD MSTORE POP JUMP JUMPDEST PUSH32 0x416464726573733A20696E73756666696369656E742062616C616E636520666F PUSH1 0x0 DUP3 ADD MSTORE PUSH32 0x722063616C6C0000000000000000000000000000000000000000000000000000 PUSH1 0x20 DUP3 ADD MSTORE POP JUMP JUMPDEST PUSH32 0x5061757361626C653A2070617573656400000000000000000000000000000000 PUSH1 0x0 DUP3 ADD MSTORE POP JUMP JUMPDEST PUSH32 0x43616E6E6F742077697468647261772030000000000000000000000000000000 PUSH1 0x0 DUP3 ADD MSTORE POP JUMP JUMPDEST PUSH32 0x536166654D6174683A206D756C7469706C69636174696F6E206F766572666C6F PUSH1 0x0 DUP3 ADD MSTORE PUSH32 0x7700000000000000000000000000000000000000000000000000000000000000 PUSH1 0x20 DUP3 ADD MSTORE POP JUMP JUMPDEST PUSH32 0x4F776E61626C653A2063616C6C6572206973206E6F7420746865206F776E6572 PUSH1 0x0 DUP3 ADD MSTORE POP JUMP JUMPDEST PUSH32 0x43616E6E6F7420776974686472617720746865207374616B696E6720746F6B65 PUSH1 0x0 DUP3 ADD MSTORE PUSH32 0x6E73000000000000000000000000000000000000000000000000000000000000 PUSH1 0x20 DUP3 ADD MSTORE POP JUMP JUMPDEST PUSH32 0x50726F76696465642072657761726420746F6F20686967680000000000000000 PUSH1 0x0 DUP3 ADD MSTORE POP JUMP JUMPDEST PUSH32 0x416464726573733A2063616C6C20746F206E6F6E2D636F6E7472616374000000 PUSH1 0x0 DUP3 ADD MSTORE POP JUMP JUMPDEST PUSH32 0x5361666545524332303A204552433230206F7065726174696F6E20646964206E PUSH1 0x0 DUP3 ADD MSTORE PUSH32 0x6F74207375636365656400000000000000000000000000000000000000000000 PUSH1 0x20 DUP3 ADD MSTORE POP JUMP JUMPDEST PUSH32 0x5265656E7472616E637947756172643A207265656E7472616E742063616C6C00 PUSH1 0x0 DUP3 ADD MSTORE POP JUMP JUMPDEST PUSH2 0x2BE0 DUP2 PUSH2 0x26EA JUMP JUMPDEST DUP2 EQ PUSH2 0x2BEB JUMPI PUSH1 0x0 DUP1 REVERT JUMPDEST POP JUMP JUMPDEST PUSH2 0x2BF7 DUP2 PUSH2 0x26FC JUMP JUMPDEST DUP2 EQ PUSH2 0x2C02 JUMPI PUSH1 0x0 DUP1 REVERT JUMPDEST POP JUMP JUMPDEST PUSH2 0x2C0E DUP2 PUSH2 0x2728 JUMP JUMPDEST DUP2 EQ PUSH2 0x2C19 JUMPI PUSH1 0x0 DUP1 REVERT JUMPDEST POP JUMP INVALID LOG2 PUSH5 0x6970667358 0x22 SLT KECCAK256 0xAB CHAINID PUSH26 0xD84CD9234EE44982DEE4981334962E8C9624CCA88A46984A6DD9 0xA9 PUSH19 0x9864736F6C6343000807003300000000000000 "
				},
				"gasEstimates": {
					"creation": {
						"codeDepositCost": "2269200",
						"executionCost": "infinite",
						"totalCost": "infinite"
					},
					"external": {
						"balanceOf(address)": "2886",
						"earned(address)": "infinite",
						"exit()": "infinite",
						"getReward()": "infinite",
						"getRewardForDuration()": "infinite",
						"lastTimeRewardApplicable()": "2586",
						"lastUpdateTime()": "2474",
						"min(uint256,uint256)": "infinite",
						"notifyRewardAmount(uint256)": "infinite",
						"owner()": "2636",
						"paused()": "2569",
						"periodFinish()": "2517",
						"pow(uint256,uint256)": "infinite",
						"recoverERC20(address,uint256)": "infinite",
						"renounceOwnership()": "30609",
						"rewardPerToken()": "infinite",
						"rewardPerTokenStored()": "2473",
						"rewardRate()": "2475",
						"rewards(address)": "2883",
						"rewardsDuration()": "2541",
						"rewardsToken()": "2711",
						"setRewardsDuration(uint256)": "infinite",
						"stake(uint256)": "infinite",
						"stakingToken()": "2689",
						"stakingTokensDecimalRate()": "2540",
						"totalSupply()": "2528",
						"transferOwnership(address)": "31001",
						"userRewardPerTokenPaid(address)": "2859",
						"withdraw(uint256)": "infinite"
					}
				},
				"methodIdentifiers": {
					"balanceOf(address)": "70a08231",
					"earned(address)": "008cc262",
					"exit()": "e9fad8ee",
					"getReward()": "3d18b912",
					"getRewardForDuration()": "1c1f78eb",
					"lastTimeRewardApplicable()": "80faa57d",
					"lastUpdateTime()": "c8f33c91",
					"min(uint256,uint256)": "7ae2b5c7",
					"notifyRewardAmount(uint256)": "3c6b16ab",
					"owner()": "8da5cb5b",
					"paused()": "5c975abb",
					"periodFinish()": "ebe2b12b",
					"pow(uint256,uint256)": "2e4c697f",
					"recoverERC20(address,uint256)": "8980f11f",
					"renounceOwnership()": "715018a6",
					"rewardPerToken()": "cd3daf9d",
					"rewardPerTokenStored()": "df136d65",
					"rewardRate()": "7b0a47ee",
					"rewards(address)": "0700037d",
					"rewardsDuration()": "386a9525",
					"rewardsToken()": "d1af0c7d",
					"setRewardsDuration(uint256)": "cc1a378f",
					"stake(uint256)": "a694fc3a",
					"stakingToken()": "72f702f3",
					"stakingTokensDecimalRate()": "a85fe3b7",
					"totalSupply()": "18160ddd",
					"transferOwnership(address)": "f2fde38b",
					"userRewardPerTokenPaid(address)": "8b876347",
					"withdraw(uint256)": "2e1a7d4d"
				}
			},
			"storageLayout": {
				"storage": [
					{
						"astId": 446,
						"contract": "Farm.sol:Farm",
						"label": "_status",
						"offset": 0,
						"slot": "0",
						"type": "t_uint256"
					},
					{
						"astId": 366,
						"contract": "Farm.sol:Farm",
						"label": "_paused",
						"offset": 0,
						"slot": "1",
						"type": "t_bool"
					},
					{
						"astId": 899,
						"contract": "Farm.sol:Farm",
						"label": "_owner",
						"offset": 1,
						"slot": "1",
						"type": "t_address"
					},
					{
						"astId": 1020,
						"contract": "Farm.sol:Farm",
						"label": "rewardsToken",
						"offset": 0,
						"slot": "2",
						"type": "t_contract(IERC20)333"
					},
					{
						"astId": 1023,
						"contract": "Farm.sol:Farm",
						"label": "stakingToken",
						"offset": 0,
						"slot": "3",
						"type": "t_contract(IERC20)333"
					},
					{
						"astId": 1026,
						"contract": "Farm.sol:Farm",
						"label": "periodFinish",
						"offset": 0,
						"slot": "4",
						"type": "t_uint256"
					},
					{
						"astId": 1029,
						"contract": "Farm.sol:Farm",
						"label": "rewardRate",
						"offset": 0,
						"slot": "5",
						"type": "t_uint256"
					},
					{
						"astId": 1031,
						"contract": "Farm.sol:Farm",
						"label": "rewardsDuration",
						"offset": 0,
						"slot": "6",
						"type": "t_uint256"
					},
					{
						"astId": 1033,
						"contract": "Farm.sol:Farm",
						"label": "lastUpdateTime",
						"offset": 0,
						"slot": "7",
						"type": "t_uint256"
					},
					{
						"astId": 1035,
						"contract": "Farm.sol:Farm",
						"label": "rewardPerTokenStored",
						"offset": 0,
						"slot": "8",
						"type": "t_uint256"
					},
					{
						"astId": 1037,
						"contract": "Farm.sol:Farm",
						"label": "stakingTokensDecimalRate",
						"offset": 0,
						"slot": "9",
						"type": "t_uint256"
					},
					{
						"astId": 1039,
						"contract": "Farm.sol:Farm",
						"label": "initialised",
						"offset": 0,
						"slot": "10",
						"type": "t_bool"
					},
					{
						"astId": 1043,
						"contract": "Farm.sol:Farm",
						"label": "userRewardPerTokenPaid",
						"offset": 0,
						"slot": "11",
						"type": "t_mapping(t_address,t_uint256)"
					},
					{
						"astId": 1047,
						"contract": "Farm.sol:Farm",
						"label": "rewards",
						"offset": 0,
						"slot": "12",
						"type": "t_mapping(t_address,t_uint256)"
					},
					{
						"astId": 1049,
						"contract": "Farm.sol:Farm",
						"label": "_totalSupply",
						"offset": 0,
						"slot": "13",
						"type": "t_uint256"
					},
					{
						"astId": 1053,
						"contract": "Farm.sol:Farm",
						"label": "_balances",
						"offset": 0,
						"slot": "14",
						"type": "t_mapping(t_address,t_uint256)"
					}
				],
				"types": {
					"t_address": {
						"encoding": "inplace",
						"label": "address",
						"numberOfBytes": "20"
					},
					"t_bool": {
						"encoding": "inplace",
						"label": "bool",
						"numberOfBytes": "1"
					},
					"t_contract(IERC20)333": {
						"encoding": "inplace",
						"label": "contract IERC20",
						"numberOfBytes": "20"
					},
					"t_mapping(t_address,t_uint256)": {
						"encoding": "mapping",
						"key": "t_address",
						"label": "mapping(address => uint256)",
						"numberOfBytes": "32",
						"value": "t_uint256"
					},
					"t_uint256": {
						"encoding": "inplace",
						"label": "uint256",
						"numberOfBytes": "32"
					}
				}
			},
			"userdoc": {
				"kind": "user",
				"methods": {},
				"version": 1
			}
		}
	}
}